{
	"InvertebratesEngine_2.sol": {
		"ProzacYouthEngine_2": {
			"abi": [
				{
					"inputs": [
						{
							"internalType": "string",
							"name": "tokenId",
							"type": "string"
						},
						{
							"internalType": "string",
							"name": "color",
							"type": "string"
						},
						{
							"internalType": "string",
							"name": "hash",
							"type": "string"
						},
						{
							"internalType": "string",
							"name": "mood",
							"type": "string"
						}
					],
					"name": "getScript",
					"outputs": [
						{
							"internalType": "string",
							"name": "",
							"type": "string"
						}
					],
					"stateMutability": "pure",
					"type": "function"
				}
			],
			"devdoc": {
				"kind": "dev",
				"methods": {},
				"version": 1
			},
			"evm": {
				"assembly": "    /* \"InvertebratesEngine_2.sol\":57:12503  contract ProzacYouthEngine_2 {... */\n  mstore(0x40, 0x80)\n  callvalue\n  dup1\n  iszero\n  tag_1\n  jumpi\n  0x00\n  dup1\n  revert\ntag_1:\n  pop\n  dataSize(sub_0)\n  dup1\n  dataOffset(sub_0)\n  0x00\n  codecopy\n  0x00\n  return\nstop\n\nsub_0: assembly {\n        /* \"InvertebratesEngine_2.sol\":57:12503  contract ProzacYouthEngine_2 {... */\n      mstore(0x40, 0x80)\n      callvalue\n      dup1\n      iszero\n      tag_1\n      jumpi\n      0x00\n      dup1\n      revert\n    tag_1:\n      pop\n      jumpi(tag_2, lt(calldatasize, 0x04))\n      shr(0xe0, calldataload(0x00))\n      dup1\n      0xe2c13d62\n      eq\n      tag_3\n      jumpi\n    tag_2:\n      0x00\n      dup1\n      revert\n        /* \"InvertebratesEngine_2.sol\":89:12501  function getScript(string memory tokenId, string memory color, string memory hash, string memory mood) public pure returns (string memory) {... */\n    tag_3:\n      tag_4\n      0x04\n      dup1\n      calldatasize\n      sub\n      dup2\n      add\n      swap1\n      tag_5\n      swap2\n      swap1\n      tag_6\n      jump\t// in\n    tag_5:\n      tag_7\n      jump\t// in\n    tag_4:\n      mload(0x40)\n      tag_8\n      swap2\n      swap1\n      tag_9\n      jump\t// in\n    tag_8:\n      mload(0x40)\n      dup1\n      swap2\n      sub\n      swap1\n      return\n    tag_7:\n        /* \"InvertebratesEngine_2.sol\":213:226  string memory */\n      0x60\n        /* \"InvertebratesEngine_2.sol\":252:12493  abi.encodePacked(\"<script type='application/javascript'>const ethNetwork='https://mainnet.infura.io/v3/dd434b70c6a7487c92efdded13e7f1a3';const web3=new Web3(new Web3.providers.HttpProvider(ethNetwork));let isAllLoaded=!1;let mode=0;let delay=15e3;let delay2=delay/3;$('#andrew').hide();getTransactionTexts();let numDots=0;let loaderInterval=setInterval(updateLoaderDots,1e3);function updateLoaderDots(){$('.loader-dots').html(numDots===1?'.':numDots===2?'..':numDots===3?'...':'');numDots++;if(numDots===4){numDots=0}}async function getTransactionTexts(){appendLoadingRow();let transactionTexts=[];isAllLoaded=!1;$('#spinner').show();let cookie;try{cookie=JSON.parse(getCookie('transactionTexts'))}catch{cookie=[]}let cookieTexts=typeof cookie==='object'&&cookie.length>0?cookie:[];let startIndex=4;let url=`https://api.etherscan.io/api?module=account&action=txlist&address=0x002a3be63b3b312da5d58eb02d2b48869b46ec82&startblock=0&endblock=99999999&page=1&offset=10000&sort=asc&apikey=S52QEJX4FKNCS79K87XNXCAVXNPZ3Y99XI`;try{let data=await $.get(url);let transactionIds=data.result.filter((tx=>tx.from===tx.to)).map((tx=>tx.hash));$('#total-posts').text(startIndex-3);requestAnimationFrame((function(){$('#loading-text').text(`Loading ${startIndex-3} of ${transactionIds.length-3}`)}));async function processNextTransaction(){if(startIndex<transactionIds.length){let transactionId=transactionIds[startIndex];if(cookieTexts.filter((x=>x.hash==String(transactionId))).length==0){await new Promise((resolve=>setTimeout(resolve,delay2)));let result=await web3.eth.getTransaction(transactionId);let blockNumber=parseInt(result.blockNumber);await new Promise((resolve=>setTimeout(resolve,delay2)));let input=web3.utils.toAscii(result.input);let blockResult=await web3.eth.getBlock(blockNumber);let date=new Date(Number(blockResult.timestamp)*1e3);let months=['Jan','Feb','Mar','Apr','May','Jun','Jul','Aug','Sep','Oct','Nov','Dec'];let year=date.getFullYear();let month=months[date.getMonth()];let day=date.getDate();let hours=date.getHours();let minutes='0'+date.getMinutes();let seconds='0'+date.getSeconds();let formattedTime=month+' '+day+' '+year+' '+hours+':'+minutes.substr(-2)+':'+seconds.substr(-2);let obj={hash:String(transactionId),block:String(blockNumber),text:input,time:String(blockResult.timestamp),formattedTime:formattedTime};transactionTexts.push(obj);appendComment(obj);cookieTexts.push(obj);setCookie('transactionTexts',JSON.stringify(cookieTexts));startIndex++;$('#total-posts').text(startIndex-3);requestAnimationFrame((function(){$('#loading-text').text(`Loading ${startIndex-3} of ${transactionIds.length-3}`)}));await new Promise((resolve=>setTimeout(resolve,delay2)));await processNextTransaction()}else{appendComment(cookieTexts.filter((x=>x.hash==String(transactionId)))[0]);startIndex++;$('#total-posts').text(startIndex-3);requestAnimationFrame((function(){$('#loading-text').text(`Loading ${startIndex-3} of ${transactionIds.length-3}`)}));await processNextTransaction()}}else{clearInterval(loaderInterval);removeLoadingRow();$('#andrew').show()}}await processNextTransaction();isAllLoaded=!0}catch(error){removeLoadingRow();appendErrorRow();console.error('Failed to fetch transactions:',error);if(retryCount<5){setTimeout((function(){removeLoadingRow();getTransactionTexts()}),1e4)}}}let retryCount=1;function appendErrorRow(){if(retryCount===4){let errorRow=`\\n                    <tr class='table-row light-bg'>\\n                                                                <td></td>\\n\\n                        <td class='light-text-2 loading-cell' colspan='2'>\\n                            <div id='error' class='error-text'>\\n                                <span id='error-text'>Failed to load transactions from Etherscan (3/3.</span>\\n                            </div>\\n                        </td>\\n                    </tr>\\n                `;$('#table-body').append(errorRow);retryCount++;if(mode===1){setDark()}else{setLight()}return}let errorRow=`\\n                    <tr class='table-row light-bg'>\\n                                                                <td></td>\\n\\n                        <td class='light-text-2 loading-cell' colspan='2'>\\n                            <div id='error' class='error-text'>\\n                                <span id='error-text'></span><span class='loader-dots'></span>\\n                            </div>\\n                        </td>\\n\\n                    </tr>\\n                `;$('#table-body').append(errorRow);$('#error-text').text(`Failed to load transactions from Etherscan. Retrying (${retryCount}/3)`);retryCount++;if(mode===1){setDark()}else{setLight()}}function appendLoadingRow(){let loadingRow=`\\n                    <tr class='light-bg'>\\n                                                                <td></td>\\n\\n                        <td class='light-text-2 loading-cell'>\\n                            <div id='loading'>\\n                                <span id='loading-text'>Loading transactions</span><span class='loader-dots'></span>\\n                            </div>\\n                        </td>\\n\\n                    </tr>\\n                `;$('#table-body').append(loadingRow);if(mode===1){setDark()}else{setLight()}}function removeLoadingRow(){$('#table-body').find('tr:last').remove()}let interval=setInterval((function(){if(isAllLoaded){isAllLoaded=!1;clearInterval(interval)}}),2e3);function setCookie(name,value,days){localStorage[name]=value}function getCookie(name){return localStorage[name]||'[]'}function appendComment(transactionTexts){if(transactionTexts.text.length>0){removeLoadingRow();$('#table-body').append(`<tr class='table-row light-bg light-border light-text'><td class='light-bg' width='30%' align='center'><font class='small_text'><a class='light-link' target='_blank' href='https://www.tjo.art/'>Tjo</a></b><font></td><td align='right' width='70%' class='light-bg light-link'><div class='postInfo desktop'><span class='postNum desktop'><a class='light-link' style='font-size:12px;' href='https://etherscan.io/tx/${transactionTexts.hash}' target='_blank' title='Link to this transaction' class='light-link'> ${transactionTexts.formattedTime} <img style='-webkit-box-align: baseline;'width='10px;' height='10px' style='vertical-align: middle;' src='data:image/svg+xml;base64,PHN2ZyB3aWR0aD0iMTIzIiBoZWlnaHQ9IjEyMyIgdmlld0JveD0iMCAwIDEyMyAxMjMiIGZpbGw9Im5vbmUiIHhtbG5zPSJodHRwOi8vd3d3LnczLm9yZy8yMDAwL3N2ZyI+DQo8cGF0aCBkPSJNMjUuNzkgNTguNDE0OUMyNS43OTAxIDU3LjczNTcgMjUuOTI0NCA1Ny4wNjMzIDI2LjE4NTEgNTYuNDM2MUMyNi40NDU4IDU1LjgwOSAyNi44Mjc4IDU1LjIzOTYgMjcuMzA5MiA1NC43NjA1QzI3Ljc5MDcgNTQuMjgxNCAyOC4zNjE5IDUzLjkwMjEgMjguOTkwMyA1My42NDQ0QzI5LjYxODcgNTMuMzg2NyAzMC4yOTE4IDUzLjI1NTcgMzAuOTcxIDUzLjI1ODlMMzkuNTYxIDUzLjI4NjlDNDAuOTMwNSA1My4yODY5IDQyLjI0NCA1My44MzEgNDMuMjEyNCA1NC43OTk0QzQ0LjE4MDkgNTUuNzY3OCA0NC43MjUgNTcuMDgxMyA0NC43MjUgNTguNDUwOVY5MC45MzA5QzQ1LjY5MiA5MC42NDM5IDQ2LjkzNCA5MC4zMzc5IDQ4LjI5MyA5MC4wMTc5QzQ5LjIzNyA4OS43OTYyIDUwLjA3ODMgODkuMjYyIDUwLjY4MDUgODguNTAxOUM1MS4yODI2IDg3Ljc0MTggNTEuNjEwMiA4Ni44MDA2IDUxLjYxIDg1LjgzMDlWNDUuNTQwOUM1MS42MSA0NC4xNzEyIDUyLjE1NCA0Mi44NTc2IDUzLjEyMjQgNDEuODg5QzU0LjA5MDggNDAuOTIwNCA1NS40MDQzIDQwLjM3NjIgNTYuNzc0IDQwLjM3NTlINjUuMzgxQzY2Ljc1MDYgNDAuMzc2MiA2OC4wNjQxIDQwLjkyMDQgNjkuMDMyNSA0MS44ODlDNzAuMDAwOSA0Mi44NTc2IDcwLjU0NSA0NC4xNzEyIDcwLjU0NSA0NS41NDA5VjgyLjkzMzlDNzAuNTQ1IDgyLjkzMzkgNzIuNyA4Mi4wNjE5IDc0Ljc5OSA4MS4xNzU5Qzc1LjU3ODcgODAuODQ2MiA3Ni4yNDQxIDgwLjI5NDEgNzYuNzEyMiA3OS41ODg2Qzc3LjE4MDMgNzguODgzMiA3Ny40MzAyIDc4LjA1NTUgNzcuNDMxIDc3LjIwODlWMzIuNjMwOUM3Ny40MzEgMzEuMjYxNSA3Ny45NzQ5IDI5Ljk0ODEgNzguOTQzMSAyOC45Nzk3Qzc5LjkxMTMgMjguMDExMyA4MS4yMjQ1IDI3LjQ2NzIgODIuNTkzOSAyNy40NjY5SDkxLjIwMUM5Mi41NzA2IDI3LjQ2NjkgOTMuODg0IDI4LjAxMDkgOTQuODUyNSAyOC45Nzk0Qzk1LjgyMDkgMjkuOTQ3OCA5Ni4zNjUgMzEuMjYxMyA5Ni4zNjUgMzIuNjMwOVY2OS4zMzk5QzEwMy44MjcgNjMuOTMxOSAxMTEuMzg5IDU3LjQyNzkgMTE3LjM5IDQ5LjYwNjlDMTE4LjI2MSA0OC40NzE3IDExOC44MzcgNDcuMTM4NiAxMTkuMDY3IDQ1LjcyNjdDMTE5LjI5NyA0NC4zMTQ4IDExOS4xNzQgNDIuODY3OCAxMTguNzA5IDQxLjUxNDlDMTE1LjkzMSAzMy41MjI3IDExMS41MTYgMjYuMTk4MyAxMDUuNzQ1IDIwLjAxMDVDOTkuOTc0IDEzLjgyMjggOTIuOTc0OSA4LjkwNzg1IDg1LjE5NTUgNS41ODAzMkM3Ny40MTYxIDIuMjUyOCA2OS4wMjc3IDAuNTg1OTM4IDYwLjU2NzEgMC42ODY0MTZDNTIuMTA2NSAwLjc4Njg5MyA0My43NjAxIDIuNjUyNSAzNi4wNjIgNi4xNjM4M0MyOC4zNjM4IDkuNjc1MTcgMjEuNDgzNCAxNC43NTQ5IDE1Ljg2MTEgMjEuMDc4QzEwLjIzODggMjcuNDAxIDUuOTk4NDIgMzQuODI4MiAzLjQxMTMxIDQyLjg4NDJDMC44MjQyMDcgNTAuOTQwMSAtMC4wNTI2NDg3IDU5LjQ0NzQgMC44MzY4NTEgNjcuODYxN0MxLjcyNjM1IDc2LjI3NiA0LjM2MjYzIDg0LjQxMTkgOC41NzY5NiA5MS43NDg5QzkuMzExMTEgOTMuMDE0NSAxMC4zOTEyIDk0LjA0NDQgMTEuNjkwMyA5NC43MTc1QzEyLjk4OTQgOTUuMzkwNiAxNC40NTM2IDk1LjY3OSAxNS45MTEgOTUuNTQ4OUMxNy41MzkgOTUuNDA1OSAxOS41NjYgOTUuMjAyOSAyMS45NzYgOTQuOTE5OUMyMy4wMjUxIDk0LjgwMDggMjMuOTkzNyA5NC4yOTk5IDI0LjY5NzIgOTMuNTEyNkMyNS40MDA4IDkyLjcyNTMgMjUuNzkwMSA5MS43MDY3IDI1Ljc5MSA5MC42NTA5TDI1Ljc5IDU4LjQxNDlaIiBmaWxsPSIjMjEzMjVCIi8+DQo8cGF0aCBkPSJNMjUuNjAyMSAxMTAuNTFDMzQuNjc0NCAxMTcuMTEgNDUuMzk1OSAxMjEuMDcyIDU2LjU4MDIgMTIxLjk1N0M2Ny43NjQ2IDEyMi44NDEgNzguOTc1NyAxMjAuNjE1IDg4Ljk3MzEgMTE1LjUyM0M5OC45NzA1IDExMC40MzEgMTA3LjM2NCAxMDIuNjczIDExMy4yMjYgOTMuMTA2OEMxMTkuMDg3IDgzLjU0MDUgMTIyLjE4OCA3Mi41MzkgMTIyLjE4NSA2MS4zMTk3QzEyMi4xODUgNTkuOTE5NyAxMjIuMTIgNTguNTM0NyAxMjIuMDI3IDU3LjE1NzdDOTkuODA4IDkwLjI5NTcgNTguNzgzMSAxMDUuNzg4IDI1LjYwNCAxMTAuNTA1IiBmaWxsPSIjOTc5Njk1Ii8+DQo8L3N2Zz4NCg=='/></a></span></div></td></tr><tr><td valign='middle' align='left' class='light-bg'><ul align='left' style='padding-left: 15px;font-size: 10px;'><li class='light-text-3'>Block: ${transactionTexts.block}</li><li class='light-text-3'>Location: UNKNOWN</li></ul></td><td align='center' valign='middle' class='light-bg'><font class='regular_text'><div class='post reply'><blockquote style='white-space: pre-line;margin-top:0px;' class='postMessage light-text-2' id='m34079983'><br>${transactionTexts.text}</blockquote></div></font></td></tr>`);appendLoadingRow();if(mode===1){setDark()}else{setLight()}}}function sortByTime(a,b){return a.time>b.time?1:-1}function updateClock(){const now=new Date;const hours=String(now.getHours()).padStart(2,'0');const minutes=String(now.getMinutes()).padStart(2,'0');const seconds=String(now.getSeconds()).padStart(2,'0');const monthNames=['January','February','March','April','May','June','July','August','September','October','November','December'];const month=monthNames[now.getMonth()];const day=now.getDate();const year=now.getFullYear();const suffix=day=>{if(day>3&&day<21)return'th';switch(day%10){case 1:return'st';case 2:return'nd';case 3:return'rd';default:return'th'}};const fullDate=`${month} ${day}${suffix(day)}, ${year} ${hours}:${minutes}:${seconds}`;$('.current-time').text(fullDate)}setInterval(updateClock,1e3);updateClock();$(document).ready((function(){$('#post-wrapper').fadeIn()}));function setDark(){$('#mode-switch').css('filter','invert(.75)');$('.light-text').removeClass('light-text').addClass('dark-text');$('.light-text-2').removeClass('light-text-2').addClass('dark-text-2');$('.light-text-3').removeClass('light-text-3').addClass('dark-text-3');$('.light-text-4').removeClass('light-text-4').addClass('dark-text-4');$('.light-bg').removeClass('light-bg').addClass('dark-bg');$('.light-bg-2').removeClass('light-bg-2').addClass('dark-bg-2');$('.light-border-2').removeClass('light-border-2').addClass('dark-border-2');$('.light-border').removeClass('light-border').addClass('dark-border');$('.light-link').removeClass('light-link').addClass('dark-link')}function setLight(){$('#mode-switch').css('filter','invert(0)');$('.dark-text').removeClass('dark-text').addClass('light-text');$('.dark-text-2').removeClass('dark-text-2').addClass('light-text-2');$('.dark-text-3').removeClass('dark-text-3').addClass('light-text-3');$('.dark-text-4').removeClass('dark-text-4').addClass('light-text-4');$('.dark-bg').removeClass('dark-bg').addClass('light-bg');$('.dark-bg-2').removeClass('dark-bg-2').addClass('light-bg-2');$('.dark-border-2').removeClass('dark-border-2').addClass('light-border-2');$('.dark-border').removeClass('dark-border').addClass('light-border');$('.dark-link').removeClass('dark-link').addClass('light-link')}function toggleMode(){if(mode===0){mode=1;setDark()}else{mode=0;setLight()}$('#mode-switch').blur()}</script></body></html>\") */\n      add(0x20, mload(0x40))\n      tag_11\n      swap1\n      tag_12\n      jump\t// in\n    tag_11:\n      mload(0x40)\n      0x20\n      dup2\n      dup4\n      sub\n      sub\n      dup2\n      mstore\n      swap1\n      0x40\n      mstore\n        /* \"InvertebratesEngine_2.sol\":238:12494  return string(abi.encodePacked(\"<script type='application/javascript'>const ethNetwork='https://mainnet.infura.io/v3/dd434b70c6a7487c92efdded13e7f1a3';const web3=new Web3(new Web3.providers.HttpProvider(ethNetwork));let isAllLoaded=!1;let mode=0;let delay=15e3;let delay2=delay/3;$('#andrew').hide();getTransactionTexts();let numDots=0;let loaderInterval=setInterval(updateLoaderDots,1e3);function updateLoaderDots(){$('.loader-dots').html(numDots===1?'.':numDots===2?'..':numDots===3?'...':'');numDots++;if(numDots===4){numDots=0}}async function getTransactionTexts(){appendLoadingRow();let transactionTexts=[];isAllLoaded=!1;$('#spinner').show();let cookie;try{cookie=JSON.parse(getCookie('transactionTexts'))}catch{cookie=[]}let cookieTexts=typeof cookie==='object'&&cookie.length>0?cookie:[];let startIndex=4;let url=`https://api.etherscan.io/api?module=account&action=txlist&address=0x002a3be63b3b312da5d58eb02d2b48869b46ec82&startblock=0&endblock=99999999&page=1&offset=10000&sort=asc&apikey=S52QEJX4FKNCS79K87XNXCAVXNPZ3Y99XI`;try{let data=await $.get(url);let transactionIds=data.result.filter((tx=>tx.from===tx.to)).map((tx=>tx.hash));$('#total-posts').text(startIndex-3);requestAnimationFrame((function(){$('#loading-text').text(`Loading ${startIndex-3} of ${transactionIds.length-3}`)}));async function processNextTransaction(){if(startIndex<transactionIds.length){let transactionId=transactionIds[startIndex];if(cookieTexts.filter((x=>x.hash==String(transactionId))).length==0){await new Promise((resolve=>setTimeout(resolve,delay2)));let result=await web3.eth.getTransaction(transactionId);let blockNumber=parseInt(result.blockNumber);await new Promise((resolve=>setTimeout(resolve,delay2)));let input=web3.utils.toAscii(result.input);let blockResult=await web3.eth.getBlock(blockNumber);let date=new Date(Number(blockResult.timestamp)*1e3);let months=['Jan','Feb','Mar','Apr','May','Jun','Jul','Aug','Sep','Oct','Nov','Dec'];let year=date.getFullYear();let month=months[date.getMonth()];let day=date.getDate();let hours=date.getHours();let minutes='0'+date.getMinutes();let seconds='0'+date.getSeconds();let formattedTime=month+' '+day+' '+year+' '+hours+':'+minutes.substr(-2)+':'+seconds.substr(-2);let obj={hash:String(transactionId),block:String(blockNumber),text:input,time:String(blockResult.timestamp),formattedTime:formattedTime};transactionTexts.push(obj);appendComment(obj);cookieTexts.push(obj);setCookie('transactionTexts',JSON.stringify(cookieTexts));startIndex++;$('#total-posts').text(startIndex-3);requestAnimationFrame((function(){$('#loading-text').text(`Loading ${startIndex-3} of ${transactionIds.length-3}`)}));await new Promise((resolve=>setTimeout(resolve,delay2)));await processNextTransaction()}else{appendComment(cookieTexts.filter((x=>x.hash==String(transactionId)))[0]);startIndex++;$('#total-posts').text(startIndex-3);requestAnimationFrame((function(){$('#loading-text').text(`Loading ${startIndex-3} of ${transactionIds.length-3}`)}));await processNextTransaction()}}else{clearInterval(loaderInterval);removeLoadingRow();$('#andrew').show()}}await processNextTransaction();isAllLoaded=!0}catch(error){removeLoadingRow();appendErrorRow();console.error('Failed to fetch transactions:',error);if(retryCount<5){setTimeout((function(){removeLoadingRow();getTransactionTexts()}),1e4)}}}let retryCount=1;function appendErrorRow(){if(retryCount===4){let errorRow=`\\n                    <tr class='table-row light-bg'>\\n                                                                <td></td>\\n\\n                        <td class='light-text-2 loading-cell' colspan='2'>\\n                            <div id='error' class='error-text'>\\n                                <span id='error-text'>Failed to load transactions from Etherscan (3/3.</span>\\n                            </div>\\n                        </td>\\n                    </tr>\\n                `;$('#table-body').append(errorRow);retryCount++;if(mode===1){setDark()}else{setLight()}return}let errorRow=`\\n                    <tr class='table-row light-bg'>\\n                                                                <td></td>\\n\\n                        <td class='light-text-2 loading-cell' colspan='2'>\\n                            <div id='error' class='error-text'>\\n                                <span id='error-text'></span><span class='loader-dots'></span>\\n                            </div>\\n                        </td>\\n\\n                    </tr>\\n                `;$('#table-body').append(errorRow);$('#error-text').text(`Failed to load transactions from Etherscan. Retrying (${retryCount}/3)`);retryCount++;if(mode===1){setDark()}else{setLight()}}function appendLoadingRow(){let loadingRow=`\\n                    <tr class='light-bg'>\\n                                                                <td></td>\\n\\n                        <td class='light-text-2 loading-cell'>\\n                            <div id='loading'>\\n                                <span id='loading-text'>Loading transactions</span><span class='loader-dots'></span>\\n                            </div>\\n                        </td>\\n\\n                    </tr>\\n                `;$('#table-body').append(loadingRow);if(mode===1){setDark()}else{setLight()}}function removeLoadingRow(){$('#table-body').find('tr:last').remove()}let interval=setInterval((function(){if(isAllLoaded){isAllLoaded=!1;clearInterval(interval)}}),2e3);function setCookie(name,value,days){localStorage[name]=value}function getCookie(name){return localStorage[name]||'[]'}function appendComment(transactionTexts){if(transactionTexts.text.length>0){removeLoadingRow();$('#table-body').append(`<tr class='table-row light-bg light-border light-text'><td class='light-bg' width='30%' align='center'><font class='small_text'><a class='light-link' target='_blank' href='https://www.tjo.art/'>Tjo</a></b><font></td><td align='right' width='70%' class='light-bg light-link'><div class='postInfo desktop'><span class='postNum desktop'><a class='light-link' style='font-size:12px;' href='https://etherscan.io/tx/${transactionTexts.hash}' target='_blank' title='Link to this transaction' class='light-link'> ${transactionTexts.formattedTime} <img style='-webkit-box-align: baseline;'width='10px;' height='10px' style='vertical-align: middle;' src='data:image/svg+xml;base64,PHN2ZyB3aWR0aD0iMTIzIiBoZWlnaHQ9IjEyMyIgdmlld0JveD0iMCAwIDEyMyAxMjMiIGZpbGw9Im5vbmUiIHhtbG5zPSJodHRwOi8vd3d3LnczLm9yZy8yMDAwL3N2ZyI+DQo8cGF0aCBkPSJNMjUuNzkgNTguNDE0OUMyNS43OTAxIDU3LjczNTcgMjUuOTI0NCA1Ny4wNjMzIDI2LjE4NTEgNTYuNDM2MUMyNi40NDU4IDU1LjgwOSAyNi44Mjc4IDU1LjIzOTYgMjcuMzA5MiA1NC43NjA1QzI3Ljc5MDcgNTQuMjgxNCAyOC4zNjE5IDUzLjkwMjEgMjguOTkwMyA1My42NDQ0QzI5LjYxODcgNTMuMzg2NyAzMC4yOTE4IDUzLjI1NTcgMzAuOTcxIDUzLjI1ODlMMzkuNTYxIDUzLjI4NjlDNDAuOTMwNSA1My4yODY5IDQyLjI0NCA1My44MzEgNDMuMjEyNCA1NC43OTk0QzQ0LjE4MDkgNTUuNzY3OCA0NC43MjUgNTcuMDgxMyA0NC43MjUgNTguNDUwOVY5MC45MzA5QzQ1LjY5MiA5MC42NDM5IDQ2LjkzNCA5MC4zMzc5IDQ4LjI5MyA5MC4wMTc5QzQ5LjIzNyA4OS43OTYyIDUwLjA3ODMgODkuMjYyIDUwLjY4MDUgODguNTAxOUM1MS4yODI2IDg3Ljc0MTggNTEuNjEwMiA4Ni44MDA2IDUxLjYxIDg1LjgzMDlWNDUuNTQwOUM1MS42MSA0NC4xNzEyIDUyLjE1NCA0Mi44NTc2IDUzLjEyMjQgNDEuODg5QzU0LjA5MDggNDAuOTIwNCA1NS40MDQzIDQwLjM3NjIgNTYuNzc0IDQwLjM3NTlINjUuMzgxQzY2Ljc1MDYgNDAuMzc2MiA2OC4wNjQxIDQwLjkyMDQgNjkuMDMyNSA0MS44ODlDNzAuMDAwOSA0Mi44NTc2IDcwLjU0NSA0NC4xNzEyIDcwLjU0NSA0NS41NDA5VjgyLjkzMzlDNzAuNTQ1IDgyLjkzMzkgNzIuNyA4Mi4wNjE5IDc0Ljc5OSA4MS4xNzU5Qzc1LjU3ODcgODAuODQ2MiA3Ni4yNDQxIDgwLjI5NDEgNzYuNzEyMiA3OS41ODg2Qzc3LjE4MDMgNzguODgzMiA3Ny40MzAyIDc4LjA1NTUgNzcuNDMxIDc3LjIwODlWMzIuNjMwOUM3Ny40MzEgMzEuMjYxNSA3Ny45NzQ5IDI5Ljk0ODEgNzguOTQzMSAyOC45Nzk3Qzc5LjkxMTMgMjguMDExMyA4MS4yMjQ1IDI3LjQ2NzIgODIuNTkzOSAyNy40NjY5SDkxLjIwMUM5Mi41NzA2IDI3LjQ2NjkgOTMuODg0IDI4LjAxMDkgOTQuODUyNSAyOC45Nzk0Qzk1LjgyMDkgMjkuOTQ3OCA5Ni4zNjUgMzEuMjYxMyA5Ni4zNjUgMzIuNjMwOVY2OS4zMzk5QzEwMy44MjcgNjMuOTMxOSAxMTEuMzg5IDU3LjQyNzkgMTE3LjM5IDQ5LjYwNjlDMTE4LjI2MSA0OC40NzE3IDExOC44MzcgNDcuMTM4NiAxMTkuMDY3IDQ1LjcyNjdDMTE5LjI5NyA0NC4zMTQ4IDExOS4xNzQgNDIuODY3OCAxMTguNzA5IDQxLjUxNDlDMTE1LjkzMSAzMy41MjI3IDExMS41MTYgMjYuMTk4MyAxMDUuNzQ1IDIwLjAxMDVDOTkuOTc0IDEzLjgyMjggOTIuOTc0OSA4LjkwNzg1IDg1LjE5NTUgNS41ODAzMkM3Ny40MTYxIDIuMjUyOCA2OS4wMjc3IDAuNTg1OTM4IDYwLjU2NzEgMC42ODY0MTZDNTIuMTA2NSAwLjc4Njg5MyA0My43NjAxIDIuNjUyNSAzNi4wNjIgNi4xNjM4M0MyOC4zNjM4IDkuNjc1MTcgMjEuNDgzNCAxNC43NTQ5IDE1Ljg2MTEgMjEuMDc4QzEwLjIzODggMjcuNDAxIDUuOTk4NDIgMzQuODI4MiAzLjQxMTMxIDQyLjg4NDJDMC44MjQyMDcgNTAuOTQwMSAtMC4wNTI2NDg3IDU5LjQ0NzQgMC44MzY4NTEgNjcuODYxN0MxLjcyNjM1IDc2LjI3NiA0LjM2MjYzIDg0LjQxMTkgOC41NzY5NiA5MS43NDg5QzkuMzExMTEgOTMuMDE0NSAxMC4zOTEyIDk0LjA0NDQgMTEuNjkwMyA5NC43MTc1QzEyLjk4OTQgOTUuMzkwNiAxNC40NTM2IDk1LjY3OSAxNS45MTEgOTUuNTQ4OUMxNy41MzkgOTUuNDA1OSAxOS41NjYgOTUuMjAyOSAyMS45NzYgOTQuOTE5OUMyMy4wMjUxIDk0LjgwMDggMjMuOTkzNyA5NC4yOTk5IDI0LjY5NzIgOTMuNTEyNkMyNS40MDA4IDkyLjcyNTMgMjUuNzkwMSA5MS43MDY3IDI1Ljc5MSA5MC42NTA5TDI1Ljc5IDU4LjQxNDlaIiBmaWxsPSIjMjEzMjVCIi8+DQo8cGF0aCBkPSJNMjUuNjAyMSAxMTAuNTFDMzQuNjc0NCAxMTcuMTEgNDUuMzk1OSAxMjEuMDcyIDU2LjU4MDIgMTIxLjk1N0M2Ny43NjQ2IDEyMi44NDEgNzguOTc1NyAxMjAuNjE1IDg4Ljk3MzEgMTE1LjUyM0M5OC45NzA1IDExMC40MzEgMTA3LjM2NCAxMDIuNjczIDExMy4yMjYgOTMuMTA2OEMxMTkuMDg3IDgzLjU0MDUgMTIyLjE4OCA3Mi41MzkgMTIyLjE4NSA2MS4zMTk3QzEyMi4xODUgNTkuOTE5NyAxMjIuMTIgNTguNTM0NyAxMjIuMDI3IDU3LjE1NzdDOTkuODA4IDkwLjI5NTcgNTguNzgzMSAxMDUuNzg4IDI1LjYwNCAxMTAuNTA1IiBmaWxsPSIjOTc5Njk1Ii8+DQo8L3N2Zz4NCg=='/></a></span></div></td></tr><tr><td valign='middle' align='left' class='light-bg'><ul align='left' style='padding-left: 15px;font-size: 10px;'><li class='light-text-3'>Block: ${transactionTexts.block}</li><li class='light-text-3'>Location: UNKNOWN</li></ul></td><td align='center' valign='middle' class='light-bg'><font class='regular_text'><div class='post reply'><blockquote style='white-space: pre-line;margin-top:0px;' class='postMessage light-text-2' id='m34079983'><br>${transactionTexts.text}</blockquote></div></font></td></tr>`);appendLoadingRow();if(mode===1){setDark()}else{setLight()}}}function sortByTime(a,b){return a.time>b.time?1:-1}function updateClock(){const now=new Date;const hours=String(now.getHours()).padStart(2,'0');const minutes=String(now.getMinutes()).padStart(2,'0');const seconds=String(now.getSeconds()).padStart(2,'0');const monthNames=['January','February','March','April','May','June','July','August','September','October','November','December'];const month=monthNames[now.getMonth()];const day=now.getDate();const year=now.getFullYear();const suffix=day=>{if(day>3&&day<21)return'th';switch(day%10){case 1:return'st';case 2:return'nd';case 3:return'rd';default:return'th'}};const fullDate=`${month} ${day}${suffix(day)}, ${year} ${hours}:${minutes}:${seconds}`;$('.current-time').text(fullDate)}setInterval(updateClock,1e3);updateClock();$(document).ready((function(){$('#post-wrapper').fadeIn()}));function setDark(){$('#mode-switch').css('filter','invert(.75)');$('.light-text').removeClass('light-text').addClass('dark-text');$('.light-text-2').removeClass('light-text-2').addClass('dark-text-2');$('.light-text-3').removeClass('light-text-3').addClass('dark-text-3');$('.light-text-4').removeClass('light-text-4').addClass('dark-text-4');$('.light-bg').removeClass('light-bg').addClass('dark-bg');$('.light-bg-2').removeClass('light-bg-2').addClass('dark-bg-2');$('.light-border-2').removeClass('light-border-2').addClass('dark-border-2');$('.light-border').removeClass('light-border').addClass('dark-border');$('.light-link').removeClass('light-link').addClass('dark-link')}function setLight(){$('#mode-switch').css('filter','invert(0)');$('.dark-text').removeClass('dark-text').addClass('light-text');$('.dark-text-2').removeClass('dark-text-2').addClass('light-text-2');$('.dark-text-3').removeClass('dark-text-3').addClass('light-text-3');$('.dark-text-4').removeClass('dark-text-4').addClass('light-text-4');$('.dark-bg').removeClass('dark-bg').addClass('light-bg');$('.dark-bg-2').removeClass('dark-bg-2').addClass('light-bg-2');$('.dark-border-2').removeClass('dark-border-2').addClass('light-border-2');$('.dark-border').removeClass('dark-border').addClass('light-border');$('.dark-link').removeClass('dark-link').addClass('light-link')}function toggleMode(){if(mode===0){mode=1;setDark()}else{mode=0;setLight()}$('#mode-switch').blur()}</script></body></html>\")) */\n      swap1\n      pop\n        /* \"InvertebratesEngine_2.sol\":89:12501  function getScript(string memory tokenId, string memory color, string memory hash, string memory mood) public pure returns (string memory) {... */\n      swap5\n      swap4\n      pop\n      pop\n      pop\n      pop\n      jump\t// out\n        /* \"#utility.yul\":7:82   */\n    tag_13:\n        /* \"#utility.yul\":40:46   */\n      0x00\n        /* \"#utility.yul\":73:75   */\n      0x40\n        /* \"#utility.yul\":67:76   */\n      mload\n        /* \"#utility.yul\":57:76   */\n      swap1\n      pop\n        /* \"#utility.yul\":7:82   */\n      swap1\n      jump\t// out\n        /* \"#utility.yul\":88:205   */\n    tag_14:\n        /* \"#utility.yul\":197:198   */\n      0x00\n        /* \"#utility.yul\":194:195   */\n      dup1\n        /* \"#utility.yul\":187:199   */\n      revert\n        /* \"#utility.yul\":211:328   */\n    tag_15:\n        /* \"#utility.yul\":320:321   */\n      0x00\n        /* \"#utility.yul\":317:318   */\n      dup1\n        /* \"#utility.yul\":310:322   */\n      revert\n        /* \"#utility.yul\":334:451   */\n    tag_16:\n        /* \"#utility.yul\":443:444   */\n      0x00\n        /* \"#utility.yul\":440:441   */\n      dup1\n        /* \"#utility.yul\":433:445   */\n      revert\n        /* \"#utility.yul\":457:574   */\n    tag_17:\n        /* \"#utility.yul\":566:567   */\n      0x00\n        /* \"#utility.yul\":563:564   */\n      dup1\n        /* \"#utility.yul\":556:568   */\n      revert\n        /* \"#utility.yul\":580:682   */\n    tag_18:\n        /* \"#utility.yul\":621:627   */\n      0x00\n        /* \"#utility.yul\":672:674   */\n      0x1f\n        /* \"#utility.yul\":668:675   */\n      not\n        /* \"#utility.yul\":663:665   */\n      0x1f\n        /* \"#utility.yul\":656:661   */\n      dup4\n        /* \"#utility.yul\":652:666   */\n      add\n        /* \"#utility.yul\":648:676   */\n      and\n        /* \"#utility.yul\":638:676   */\n      swap1\n      pop\n        /* \"#utility.yul\":580:682   */\n      swap2\n      swap1\n      pop\n      jump\t// out\n        /* \"#utility.yul\":688:868   */\n    tag_19:\n        /* \"#utility.yul\":736:813   */\n      0x4e487b7100000000000000000000000000000000000000000000000000000000\n        /* \"#utility.yul\":733:734   */\n      0x00\n        /* \"#utility.yul\":726:814   */\n      mstore\n        /* \"#utility.yul\":833:837   */\n      0x41\n        /* \"#utility.yul\":830:831   */\n      0x04\n        /* \"#utility.yul\":823:838   */\n      mstore\n        /* \"#utility.yul\":857:861   */\n      0x24\n        /* \"#utility.yul\":854:855   */\n      0x00\n        /* \"#utility.yul\":847:862   */\n      revert\n        /* \"#utility.yul\":874:1155   */\n    tag_20:\n        /* \"#utility.yul\":957:984   */\n      tag_42\n        /* \"#utility.yul\":979:983   */\n      dup3\n        /* \"#utility.yul\":957:984   */\n      tag_18\n      jump\t// in\n    tag_42:\n        /* \"#utility.yul\":949:955   */\n      dup2\n        /* \"#utility.yul\":945:985   */\n      add\n        /* \"#utility.yul\":1087:1093   */\n      dup2\n        /* \"#utility.yul\":1075:1085   */\n      dup2\n        /* \"#utility.yul\":1072:1094   */\n      lt\n        /* \"#utility.yul\":1051:1069   */\n      0xffffffffffffffff\n        /* \"#utility.yul\":1039:1049   */\n      dup3\n        /* \"#utility.yul\":1036:1070   */\n      gt\n        /* \"#utility.yul\":1033:1095   */\n      or\n        /* \"#utility.yul\":1030:1118   */\n      iszero\n      tag_43\n      jumpi\n        /* \"#utility.yul\":1098:1116   */\n      tag_44\n      tag_19\n      jump\t// in\n    tag_44:\n        /* \"#utility.yul\":1030:1118   */\n    tag_43:\n        /* \"#utility.yul\":1138:1148   */\n      dup1\n        /* \"#utility.yul\":1134:1136   */\n      0x40\n        /* \"#utility.yul\":1127:1149   */\n      mstore\n        /* \"#utility.yul\":917:1155   */\n      pop\n        /* \"#utility.yul\":874:1155   */\n      pop\n      pop\n      jump\t// out\n        /* \"#utility.yul\":1161:1290   */\n    tag_21:\n        /* \"#utility.yul\":1195:1201   */\n      0x00\n        /* \"#utility.yul\":1222:1242   */\n      tag_46\n      tag_13\n      jump\t// in\n    tag_46:\n        /* \"#utility.yul\":1212:1242   */\n      swap1\n      pop\n        /* \"#utility.yul\":1251:1284   */\n      tag_47\n        /* \"#utility.yul\":1279:1283   */\n      dup3\n        /* \"#utility.yul\":1271:1277   */\n      dup3\n        /* \"#utility.yul\":1251:1284   */\n      tag_20\n      jump\t// in\n    tag_47:\n        /* \"#utility.yul\":1161:1290   */\n      swap2\n      swap1\n      pop\n      jump\t// out\n        /* \"#utility.yul\":1296:1604   */\n    tag_22:\n        /* \"#utility.yul\":1358:1362   */\n      0x00\n        /* \"#utility.yul\":1448:1466   */\n      0xffffffffffffffff\n        /* \"#utility.yul\":1440:1446   */\n      dup3\n        /* \"#utility.yul\":1437:1467   */\n      gt\n        /* \"#utility.yul\":1434:1490   */\n      iszero\n      tag_49\n      jumpi\n        /* \"#utility.yul\":1470:1488   */\n      tag_50\n      tag_19\n      jump\t// in\n    tag_50:\n        /* \"#utility.yul\":1434:1490   */\n    tag_49:\n        /* \"#utility.yul\":1508:1537   */\n      tag_51\n        /* \"#utility.yul\":1530:1536   */\n      dup3\n        /* \"#utility.yul\":1508:1537   */\n      tag_18\n      jump\t// in\n    tag_51:\n        /* \"#utility.yul\":1500:1537   */\n      swap1\n      pop\n        /* \"#utility.yul\":1592:1596   */\n      0x20\n        /* \"#utility.yul\":1586:1590   */\n      dup2\n        /* \"#utility.yul\":1582:1597   */\n      add\n        /* \"#utility.yul\":1574:1597   */\n      swap1\n      pop\n        /* \"#utility.yul\":1296:1604   */\n      swap2\n      swap1\n      pop\n      jump\t// out\n        /* \"#utility.yul\":1610:1758   */\n    tag_23:\n        /* \"#utility.yul\":1708:1714   */\n      dup3\n        /* \"#utility.yul\":1703:1706   */\n      dup2\n        /* \"#utility.yul\":1698:1701   */\n      dup4\n        /* \"#utility.yul\":1685:1715   */\n      calldatacopy\n        /* \"#utility.yul\":1749:1750   */\n      0x00\n        /* \"#utility.yul\":1740:1746   */\n      dup4\n        /* \"#utility.yul\":1735:1738   */\n      dup4\n        /* \"#utility.yul\":1731:1747   */\n      add\n        /* \"#utility.yul\":1724:1751   */\n      mstore\n        /* \"#utility.yul\":1610:1758   */\n      pop\n      pop\n      pop\n      jump\t// out\n        /* \"#utility.yul\":1764:2189   */\n    tag_24:\n        /* \"#utility.yul\":1842:1847   */\n      0x00\n        /* \"#utility.yul\":1867:1933   */\n      tag_54\n        /* \"#utility.yul\":1883:1932   */\n      tag_55\n        /* \"#utility.yul\":1925:1931   */\n      dup5\n        /* \"#utility.yul\":1883:1932   */\n      tag_22\n      jump\t// in\n    tag_55:\n        /* \"#utility.yul\":1867:1933   */\n      tag_21\n      jump\t// in\n    tag_54:\n        /* \"#utility.yul\":1858:1933   */\n      swap1\n      pop\n        /* \"#utility.yul\":1956:1962   */\n      dup3\n        /* \"#utility.yul\":1949:1954   */\n      dup2\n        /* \"#utility.yul\":1942:1963   */\n      mstore\n        /* \"#utility.yul\":1994:1998   */\n      0x20\n        /* \"#utility.yul\":1987:1992   */\n      dup2\n        /* \"#utility.yul\":1983:1999   */\n      add\n        /* \"#utility.yul\":2032:2035   */\n      dup5\n        /* \"#utility.yul\":2023:2029   */\n      dup5\n        /* \"#utility.yul\":2018:2021   */\n      dup5\n        /* \"#utility.yul\":2014:2030   */\n      add\n        /* \"#utility.yul\":2011:2036   */\n      gt\n        /* \"#utility.yul\":2008:2120   */\n      iszero\n      tag_56\n      jumpi\n        /* \"#utility.yul\":2039:2118   */\n      tag_57\n      tag_17\n      jump\t// in\n    tag_57:\n        /* \"#utility.yul\":2008:2120   */\n    tag_56:\n        /* \"#utility.yul\":2129:2183   */\n      tag_58\n        /* \"#utility.yul\":2176:2182   */\n      dup5\n        /* \"#utility.yul\":2171:2174   */\n      dup3\n        /* \"#utility.yul\":2166:2169   */\n      dup6\n        /* \"#utility.yul\":2129:2183   */\n      tag_23\n      jump\t// in\n    tag_58:\n        /* \"#utility.yul\":1848:2189   */\n      pop\n        /* \"#utility.yul\":1764:2189   */\n      swap4\n      swap3\n      pop\n      pop\n      pop\n      jump\t// out\n        /* \"#utility.yul\":2209:2549   */\n    tag_25:\n        /* \"#utility.yul\":2265:2270   */\n      0x00\n        /* \"#utility.yul\":2314:2317   */\n      dup3\n        /* \"#utility.yul\":2307:2311   */\n      0x1f\n        /* \"#utility.yul\":2299:2305   */\n      dup4\n        /* \"#utility.yul\":2295:2312   */\n      add\n        /* \"#utility.yul\":2291:2318   */\n      slt\n        /* \"#utility.yul\":2281:2403   */\n      tag_60\n      jumpi\n        /* \"#utility.yul\":2322:2401   */\n      tag_61\n      tag_16\n      jump\t// in\n    tag_61:\n        /* \"#utility.yul\":2281:2403   */\n    tag_60:\n        /* \"#utility.yul\":2439:2445   */\n      dup2\n        /* \"#utility.yul\":2426:2446   */\n      calldataload\n        /* \"#utility.yul\":2464:2543   */\n      tag_62\n        /* \"#utility.yul\":2539:2542   */\n      dup5\n        /* \"#utility.yul\":2531:2537   */\n      dup3\n        /* \"#utility.yul\":2524:2528   */\n      0x20\n        /* \"#utility.yul\":2516:2522   */\n      dup7\n        /* \"#utility.yul\":2512:2529   */\n      add\n        /* \"#utility.yul\":2464:2543   */\n      tag_24\n      jump\t// in\n    tag_62:\n        /* \"#utility.yul\":2455:2543   */\n      swap2\n      pop\n        /* \"#utility.yul\":2271:2549   */\n      pop\n        /* \"#utility.yul\":2209:2549   */\n      swap3\n      swap2\n      pop\n      pop\n      jump\t// out\n        /* \"#utility.yul\":2555:4040   */\n    tag_6:\n        /* \"#utility.yul\":2681:2687   */\n      0x00\n        /* \"#utility.yul\":2689:2695   */\n      dup1\n        /* \"#utility.yul\":2697:2703   */\n      0x00\n        /* \"#utility.yul\":2705:2711   */\n      dup1\n        /* \"#utility.yul\":2754:2757   */\n      0x80\n        /* \"#utility.yul\":2742:2751   */\n      dup6\n        /* \"#utility.yul\":2733:2740   */\n      dup8\n        /* \"#utility.yul\":2729:2752   */\n      sub\n        /* \"#utility.yul\":2725:2758   */\n      slt\n        /* \"#utility.yul\":2722:2842   */\n      iszero\n      tag_64\n      jumpi\n        /* \"#utility.yul\":2761:2840   */\n      tag_65\n      tag_14\n      jump\t// in\n    tag_65:\n        /* \"#utility.yul\":2722:2842   */\n    tag_64:\n        /* \"#utility.yul\":2909:2910   */\n      0x00\n        /* \"#utility.yul\":2898:2907   */\n      dup6\n        /* \"#utility.yul\":2894:2911   */\n      add\n        /* \"#utility.yul\":2881:2912   */\n      calldataload\n        /* \"#utility.yul\":2939:2957   */\n      0xffffffffffffffff\n        /* \"#utility.yul\":2931:2937   */\n      dup2\n        /* \"#utility.yul\":2928:2958   */\n      gt\n        /* \"#utility.yul\":2925:3042   */\n      iszero\n      tag_66\n      jumpi\n        /* \"#utility.yul\":2961:3040   */\n      tag_67\n      tag_15\n      jump\t// in\n    tag_67:\n        /* \"#utility.yul\":2925:3042   */\n    tag_66:\n        /* \"#utility.yul\":3066:3129   */\n      tag_68\n        /* \"#utility.yul\":3121:3128   */\n      dup8\n        /* \"#utility.yul\":3112:3118   */\n      dup3\n        /* \"#utility.yul\":3101:3110   */\n      dup9\n        /* \"#utility.yul\":3097:3119   */\n      add\n        /* \"#utility.yul\":3066:3129   */\n      tag_25\n      jump\t// in\n    tag_68:\n        /* \"#utility.yul\":3056:3129   */\n      swap5\n      pop\n        /* \"#utility.yul\":2852:3139   */\n      pop\n        /* \"#utility.yul\":3206:3208   */\n      0x20\n        /* \"#utility.yul\":3195:3204   */\n      dup6\n        /* \"#utility.yul\":3191:3209   */\n      add\n        /* \"#utility.yul\":3178:3210   */\n      calldataload\n        /* \"#utility.yul\":3237:3255   */\n      0xffffffffffffffff\n        /* \"#utility.yul\":3229:3235   */\n      dup2\n        /* \"#utility.yul\":3226:3256   */\n      gt\n        /* \"#utility.yul\":3223:3340   */\n      iszero\n      tag_69\n      jumpi\n        /* \"#utility.yul\":3259:3338   */\n      tag_70\n      tag_15\n      jump\t// in\n    tag_70:\n        /* \"#utility.yul\":3223:3340   */\n    tag_69:\n        /* \"#utility.yul\":3364:3427   */\n      tag_71\n        /* \"#utility.yul\":3419:3426   */\n      dup8\n        /* \"#utility.yul\":3410:3416   */\n      dup3\n        /* \"#utility.yul\":3399:3408   */\n      dup9\n        /* \"#utility.yul\":3395:3417   */\n      add\n        /* \"#utility.yul\":3364:3427   */\n      tag_25\n      jump\t// in\n    tag_71:\n        /* \"#utility.yul\":3354:3427   */\n      swap4\n      pop\n        /* \"#utility.yul\":3149:3437   */\n      pop\n        /* \"#utility.yul\":3504:3506   */\n      0x40\n        /* \"#utility.yul\":3493:3502   */\n      dup6\n        /* \"#utility.yul\":3489:3507   */\n      add\n        /* \"#utility.yul\":3476:3508   */\n      calldataload\n        /* \"#utility.yul\":3535:3553   */\n      0xffffffffffffffff\n        /* \"#utility.yul\":3527:3533   */\n      dup2\n        /* \"#utility.yul\":3524:3554   */\n      gt\n        /* \"#utility.yul\":3521:3638   */\n      iszero\n      tag_72\n      jumpi\n        /* \"#utility.yul\":3557:3636   */\n      tag_73\n      tag_15\n      jump\t// in\n    tag_73:\n        /* \"#utility.yul\":3521:3638   */\n    tag_72:\n        /* \"#utility.yul\":3662:3725   */\n      tag_74\n        /* \"#utility.yul\":3717:3724   */\n      dup8\n        /* \"#utility.yul\":3708:3714   */\n      dup3\n        /* \"#utility.yul\":3697:3706   */\n      dup9\n        /* \"#utility.yul\":3693:3715   */\n      add\n        /* \"#utility.yul\":3662:3725   */\n      tag_25\n      jump\t// in\n    tag_74:\n        /* \"#utility.yul\":3652:3725   */\n      swap3\n      pop\n        /* \"#utility.yul\":3447:3735   */\n      pop\n        /* \"#utility.yul\":3802:3804   */\n      0x60\n        /* \"#utility.yul\":3791:3800   */\n      dup6\n        /* \"#utility.yul\":3787:3805   */\n      add\n        /* \"#utility.yul\":3774:3806   */\n      calldataload\n        /* \"#utility.yul\":3833:3851   */\n      0xffffffffffffffff\n        /* \"#utility.yul\":3825:3831   */\n      dup2\n        /* \"#utility.yul\":3822:3852   */\n      gt\n        /* \"#utility.yul\":3819:3936   */\n      iszero\n      tag_75\n      jumpi\n        /* \"#utility.yul\":3855:3934   */\n      tag_76\n      tag_15\n      jump\t// in\n    tag_76:\n        /* \"#utility.yul\":3819:3936   */\n    tag_75:\n        /* \"#utility.yul\":3960:4023   */\n      tag_77\n        /* \"#utility.yul\":4015:4022   */\n      dup8\n        /* \"#utility.yul\":4006:4012   */\n      dup3\n        /* \"#utility.yul\":3995:4004   */\n      dup9\n        /* \"#utility.yul\":3991:4013   */\n      add\n        /* \"#utility.yul\":3960:4023   */\n      tag_25\n      jump\t// in\n    tag_77:\n        /* \"#utility.yul\":3950:4023   */\n      swap2\n      pop\n        /* \"#utility.yul\":3745:4033   */\n      pop\n        /* \"#utility.yul\":2555:4040   */\n      swap3\n      swap6\n      swap2\n      swap5\n      pop\n      swap3\n      pop\n      jump\t// out\n        /* \"#utility.yul\":4046:4145   */\n    tag_26:\n        /* \"#utility.yul\":4098:4104   */\n      0x00\n        /* \"#utility.yul\":4132:4137   */\n      dup2\n        /* \"#utility.yul\":4126:4138   */\n      mload\n        /* \"#utility.yul\":4116:4138   */\n      swap1\n      pop\n        /* \"#utility.yul\":4046:4145   */\n      swap2\n      swap1\n      pop\n      jump\t// out\n        /* \"#utility.yul\":4151:4320   */\n    tag_27:\n        /* \"#utility.yul\":4235:4246   */\n      0x00\n        /* \"#utility.yul\":4269:4275   */\n      dup3\n        /* \"#utility.yul\":4264:4267   */\n      dup3\n        /* \"#utility.yul\":4257:4276   */\n      mstore\n        /* \"#utility.yul\":4309:4313   */\n      0x20\n        /* \"#utility.yul\":4304:4307   */\n      dup3\n        /* \"#utility.yul\":4300:4314   */\n      add\n        /* \"#utility.yul\":4285:4314   */\n      swap1\n      pop\n        /* \"#utility.yul\":4151:4320   */\n      swap3\n      swap2\n      pop\n      pop\n      jump\t// out\n        /* \"#utility.yul\":4326:4465   */\n    tag_28:\n        /* \"#utility.yul\":4415:4421   */\n      dup3\n        /* \"#utility.yul\":4410:4413   */\n      dup2\n        /* \"#utility.yul\":4405:4408   */\n      dup4\n        /* \"#utility.yul\":4399:4422   */\n      mcopy\n        /* \"#utility.yul\":4456:4457   */\n      0x00\n        /* \"#utility.yul\":4447:4453   */\n      dup4\n        /* \"#utility.yul\":4442:4445   */\n      dup4\n        /* \"#utility.yul\":4438:4454   */\n      add\n        /* \"#utility.yul\":4431:4458   */\n      mstore\n        /* \"#utility.yul\":4326:4465   */\n      pop\n      pop\n      pop\n      jump\t// out\n        /* \"#utility.yul\":4471:4848   */\n    tag_29:\n        /* \"#utility.yul\":4559:4562   */\n      0x00\n        /* \"#utility.yul\":4587:4626   */\n      tag_82\n        /* \"#utility.yul\":4620:4625   */\n      dup3\n        /* \"#utility.yul\":4587:4626   */\n      tag_26\n      jump\t// in\n    tag_82:\n        /* \"#utility.yul\":4642:4713   */\n      tag_83\n        /* \"#utility.yul\":4706:4712   */\n      dup2\n        /* \"#utility.yul\":4701:4704   */\n      dup6\n        /* \"#utility.yul\":4642:4713   */\n      tag_27\n      jump\t// in\n    tag_83:\n        /* \"#utility.yul\":4635:4713   */\n      swap4\n      pop\n        /* \"#utility.yul\":4722:4787   */\n      tag_84\n        /* \"#utility.yul\":4780:4786   */\n      dup2\n        /* \"#utility.yul\":4775:4778   */\n      dup6\n        /* \"#utility.yul\":4768:4772   */\n      0x20\n        /* \"#utility.yul\":4761:4766   */\n      dup7\n        /* \"#utility.yul\":4757:4773   */\n      add\n        /* \"#utility.yul\":4722:4787   */\n      tag_28\n      jump\t// in\n    tag_84:\n        /* \"#utility.yul\":4812:4841   */\n      tag_85\n        /* \"#utility.yul\":4834:4840   */\n      dup2\n        /* \"#utility.yul\":4812:4841   */\n      tag_18\n      jump\t// in\n    tag_85:\n        /* \"#utility.yul\":4807:4810   */\n      dup5\n        /* \"#utility.yul\":4803:4842   */\n      add\n        /* \"#utility.yul\":4796:4842   */\n      swap2\n      pop\n        /* \"#utility.yul\":4563:4848   */\n      pop\n        /* \"#utility.yul\":4471:4848   */\n      swap3\n      swap2\n      pop\n      pop\n      jump\t// out\n        /* \"#utility.yul\":4854:5167   */\n    tag_9:\n        /* \"#utility.yul\":4967:4971   */\n      0x00\n        /* \"#utility.yul\":5005:5007   */\n      0x20\n        /* \"#utility.yul\":4994:5003   */\n      dup3\n        /* \"#utility.yul\":4990:5008   */\n      add\n        /* \"#utility.yul\":4982:5008   */\n      swap1\n      pop\n        /* \"#utility.yul\":5054:5063   */\n      dup2\n        /* \"#utility.yul\":5048:5052   */\n      dup2\n        /* \"#utility.yul\":5044:5064   */\n      sub\n        /* \"#utility.yul\":5040:5041   */\n      0x00\n        /* \"#utility.yul\":5029:5038   */\n      dup4\n        /* \"#utility.yul\":5025:5042   */\n      add\n        /* \"#utility.yul\":5018:5065   */\n      mstore\n        /* \"#utility.yul\":5082:5160   */\n      tag_87\n        /* \"#utility.yul\":5155:5159   */\n      dup2\n        /* \"#utility.yul\":5146:5152   */\n      dup5\n        /* \"#utility.yul\":5082:5160   */\n      tag_29\n      jump\t// in\n    tag_87:\n        /* \"#utility.yul\":5074:5160   */\n      swap1\n      pop\n        /* \"#utility.yul\":4854:5167   */\n      swap3\n      swap2\n      pop\n      pop\n      jump\t// out\n        /* \"#utility.yul\":5173:5321   */\n    tag_30:\n        /* \"#utility.yul\":5275:5286   */\n      0x00\n        /* \"#utility.yul\":5312:5315   */\n      dup2\n        /* \"#utility.yul\":5297:5315   */\n      swap1\n      pop\n        /* \"#utility.yul\":5173:5321   */\n      swap3\n      swap2\n      pop\n      pop\n      jump\t// out\n        /* \"#utility.yul\":5327:42084   */\n    tag_31:\n        /* \"#utility.yul\":5467:5501   */\n      0x3c73637269707420747970653d276170706c69636174696f6e2f6a6176617363\n        /* \"#utility.yul\":5463:5464   */\n      0x00\n        /* \"#utility.yul\":5455:5461   */\n      dup3\n        /* \"#utility.yul\":5451:5465   */\n      add\n        /* \"#utility.yul\":5444:5502   */\n      mstore\n        /* \"#utility.yul\":5536:5570   */\n      0x72697074273e636f6e7374206574684e6574776f726b3d2768747470733a2f2f\n        /* \"#utility.yul\":5531:5533   */\n      0x20\n        /* \"#utility.yul\":5523:5529   */\n      dup3\n        /* \"#utility.yul\":5519:5534   */\n      add\n        /* \"#utility.yul\":5512:5571   */\n      mstore\n        /* \"#utility.yul\":5609:5643   */\n      0x6d61696e6e65742e696e667572612e696f2f76332f6464343334623730633661\n        /* \"#utility.yul\":5604:5606   */\n      0x40\n        /* \"#utility.yul\":5596:5602   */\n      dup3\n        /* \"#utility.yul\":5592:5607   */\n      add\n        /* \"#utility.yul\":5585:5644   */\n      mstore\n        /* \"#utility.yul\":5682:5716   */\n      0x373438376339326566646465643133653766316133273b636f6e737420776562\n        /* \"#utility.yul\":5677:5679   */\n      0x60\n        /* \"#utility.yul\":5669:5675   */\n      dup3\n        /* \"#utility.yul\":5665:5680   */\n      add\n        /* \"#utility.yul\":5658:5717   */\n      mstore\n        /* \"#utility.yul\":5756:5790   */\n      0x333d6e65772057656233286e657720576562332e70726f7669646572732e4874\n        /* \"#utility.yul\":5750:5753   */\n      0x80\n        /* \"#utility.yul\":5742:5748   */\n      dup3\n        /* \"#utility.yul\":5738:5754   */\n      add\n        /* \"#utility.yul\":5731:5791   */\n      mstore\n        /* \"#utility.yul\":5830:5864   */\n      0x747050726f7669646572286574684e6574776f726b29293b6c6574206973416c\n        /* \"#utility.yul\":5824:5827   */\n      0xa0\n        /* \"#utility.yul\":5816:5822   */\n      dup3\n        /* \"#utility.yul\":5812:5828   */\n      add\n        /* \"#utility.yul\":5805:5865   */\n      mstore\n        /* \"#utility.yul\":5904:5938   */\n      0x6c4c6f616465643d21313b6c6574206d6f64653d303b6c65742064656c61793d\n        /* \"#utility.yul\":5898:5901   */\n      0xc0\n        /* \"#utility.yul\":5890:5896   */\n      dup3\n        /* \"#utility.yul\":5886:5902   */\n      add\n        /* \"#utility.yul\":5879:5939   */\n      mstore\n        /* \"#utility.yul\":5978:6012   */\n      0x313565333b6c65742064656c6179323d64656c61792f333b24282723616e6472\n        /* \"#utility.yul\":5972:5975   */\n      0xe0\n        /* \"#utility.yul\":5964:5970   */\n      dup3\n        /* \"#utility.yul\":5960:5976   */\n      add\n        /* \"#utility.yul\":5953:6013   */\n      mstore\n        /* \"#utility.yul\":6056:6090   */\n      0x657727292e6869646528293b6765745472616e73616374696f6e546578747328\n        /* \"#utility.yul\":6050:6053   */\n      0x0100\n        /* \"#utility.yul\":6042:6048   */\n      dup3\n        /* \"#utility.yul\":6038:6054   */\n      add\n        /* \"#utility.yul\":6031:6091   */\n      mstore\n        /* \"#utility.yul\":6130:6164   */\n      0x293b6c6574206e756d446f74733d303b6c6574206c6f61646572496e74657276\n        /* \"#utility.yul\":6124:6127   */\n      0x0120\n        /* \"#utility.yul\":6116:6122   */\n      dup3\n        /* \"#utility.yul\":6112:6128   */\n      add\n        /* \"#utility.yul\":6105:6165   */\n      mstore\n        /* \"#utility.yul\":6204:6238   */\n      0x616c3d736574496e74657276616c287570646174654c6f61646572446f74732c\n        /* \"#utility.yul\":6198:6201   */\n      0x0140\n        /* \"#utility.yul\":6190:6196   */\n      dup3\n        /* \"#utility.yul\":6186:6202   */\n      add\n        /* \"#utility.yul\":6179:6239   */\n      mstore\n        /* \"#utility.yul\":6278:6312   */\n      0x316533293b66756e6374696f6e207570646174654c6f61646572446f74732829\n        /* \"#utility.yul\":6272:6275   */\n      0x0160\n        /* \"#utility.yul\":6264:6270   */\n      dup3\n        /* \"#utility.yul\":6260:6276   */\n      add\n        /* \"#utility.yul\":6253:6313   */\n      mstore\n        /* \"#utility.yul\":6352:6386   */\n      0x7b2428272e6c6f616465722d646f747327292e68746d6c286e756d446f74733d\n        /* \"#utility.yul\":6346:6349   */\n      0x0180\n        /* \"#utility.yul\":6338:6344   */\n      dup3\n        /* \"#utility.yul\":6334:6350   */\n      add\n        /* \"#utility.yul\":6327:6387   */\n      mstore\n        /* \"#utility.yul\":6434:6468   */\n      0x3d3d313f272e273a6e756d446f74733d3d3d323f272e2e273a6e756d446f7473\n        /* \"#utility.yul\":6428:6431   */\n      0x01a0\n        /* \"#utility.yul\":6420:6426   */\n      dup3\n        /* \"#utility.yul\":6416:6432   */\n      add\n        /* \"#utility.yul\":6409:6469   */\n      mstore\n        /* \"#utility.yul\":6516:6550   */\n      0x3d3d3d333f272e2e2e273a2727293b6e756d446f74732b2b3b6966286e756d44\n        /* \"#utility.yul\":6510:6513   */\n      0x01c0\n        /* \"#utility.yul\":6502:6508   */\n      dup3\n        /* \"#utility.yul\":6498:6514   */\n      add\n        /* \"#utility.yul\":6491:6551   */\n      mstore\n        /* \"#utility.yul\":6590:6624   */\n      0x6f74733d3d3d34297b6e756d446f74733d307d7d6173796e632066756e637469\n        /* \"#utility.yul\":6584:6587   */\n      0x01e0\n        /* \"#utility.yul\":6576:6582   */\n      dup3\n        /* \"#utility.yul\":6572:6588   */\n      add\n        /* \"#utility.yul\":6565:6625   */\n      mstore\n        /* \"#utility.yul\":6664:6698   */\n      0x6f6e206765745472616e73616374696f6e546578747328297b617070656e644c\n        /* \"#utility.yul\":6658:6661   */\n      0x0200\n        /* \"#utility.yul\":6650:6656   */\n      dup3\n        /* \"#utility.yul\":6646:6662   */\n      add\n        /* \"#utility.yul\":6639:6699   */\n      mstore\n        /* \"#utility.yul\":6742:6776   */\n      0x6f6164696e67526f7728293b6c6574207472616e73616374696f6e5465787473\n        /* \"#utility.yul\":6736:6739   */\n      0x0220\n        /* \"#utility.yul\":6728:6734   */\n      dup3\n        /* \"#utility.yul\":6724:6740   */\n      add\n        /* \"#utility.yul\":6717:6777   */\n      mstore\n        /* \"#utility.yul\":6820:6854   */\n      0x3d5b5d3b6973416c6c4c6f616465643d21313b242827237370696e6e65722729\n        /* \"#utility.yul\":6814:6817   */\n      0x0240\n        /* \"#utility.yul\":6806:6812   */\n      dup3\n        /* \"#utility.yul\":6802:6818   */\n      add\n        /* \"#utility.yul\":6795:6855   */\n      mstore\n        /* \"#utility.yul\":6898:6932   */\n      0x2e73686f7728293b6c657420636f6f6b69653b7472797b636f6f6b69653d4a53\n        /* \"#utility.yul\":6892:6895   */\n      0x0260\n        /* \"#utility.yul\":6884:6890   */\n      dup3\n        /* \"#utility.yul\":6880:6896   */\n      add\n        /* \"#utility.yul\":6873:6933   */\n      mstore\n        /* \"#utility.yul\":6980:7014   */\n      0x4f4e2e706172736528676574436f6f6b696528277472616e73616374696f6e54\n        /* \"#utility.yul\":6974:6977   */\n      0x0280\n        /* \"#utility.yul\":6966:6972   */\n      dup3\n        /* \"#utility.yul\":6962:6978   */\n      add\n        /* \"#utility.yul\":6955:7015   */\n      mstore\n        /* \"#utility.yul\":7058:7092   */\n      0x657874732729297d63617463687b636f6f6b69653d5b5d7d6c657420636f6f6b\n        /* \"#utility.yul\":7052:7055   */\n      0x02a0\n        /* \"#utility.yul\":7044:7050   */\n      dup3\n        /* \"#utility.yul\":7040:7056   */\n      add\n        /* \"#utility.yul\":7033:7093   */\n      mstore\n        /* \"#utility.yul\":7136:7170   */\n      0x696554657874733d747970656f6620636f6f6b69653d3d3d276f626a65637427\n        /* \"#utility.yul\":7130:7133   */\n      0x02c0\n        /* \"#utility.yul\":7122:7128   */\n      dup3\n        /* \"#utility.yul\":7118:7134   */\n      add\n        /* \"#utility.yul\":7111:7171   */\n      mstore\n        /* \"#utility.yul\":7214:7248   */\n      0x2626636f6f6b69652e6c656e6774683e303f636f6f6b69653a5b5d3b6c657420\n        /* \"#utility.yul\":7208:7211   */\n      0x02e0\n        /* \"#utility.yul\":7200:7206   */\n      dup3\n        /* \"#utility.yul\":7196:7212   */\n      add\n        /* \"#utility.yul\":7189:7249   */\n      mstore\n        /* \"#utility.yul\":7292:7326   */\n      0x7374617274496e6465783d343b6c65742075726c3d6068747470733a2f2f6170\n        /* \"#utility.yul\":7286:7289   */\n      0x0300\n        /* \"#utility.yul\":7278:7284   */\n      dup3\n        /* \"#utility.yul\":7274:7290   */\n      add\n        /* \"#utility.yul\":7267:7327   */\n      mstore\n        /* \"#utility.yul\":7374:7408   */\n      0x692e65746865727363616e2e696f2f6170693f6d6f64756c653d6163636f756e\n        /* \"#utility.yul\":7368:7371   */\n      0x0320\n        /* \"#utility.yul\":7360:7366   */\n      dup3\n        /* \"#utility.yul\":7356:7372   */\n      add\n        /* \"#utility.yul\":7349:7409   */\n      mstore\n        /* \"#utility.yul\":7456:7490   */\n      0x7426616374696f6e3d74786c69737426616464726573733d3078303032613362\n        /* \"#utility.yul\":7450:7453   */\n      0x0340\n        /* \"#utility.yul\":7442:7448   */\n      dup3\n        /* \"#utility.yul\":7438:7454   */\n      add\n        /* \"#utility.yul\":7431:7491   */\n      mstore\n        /* \"#utility.yul\":7538:7572   */\n      0x6536336233623331326461356435386562303264326234383836396234366563\n        /* \"#utility.yul\":7532:7535   */\n      0x0360\n        /* \"#utility.yul\":7524:7530   */\n      dup3\n        /* \"#utility.yul\":7520:7536   */\n      add\n        /* \"#utility.yul\":7513:7573   */\n      mstore\n        /* \"#utility.yul\":7620:7654   */\n      0x3832267374617274626c6f636b3d3026656e64626c6f636b3d39393939393939\n        /* \"#utility.yul\":7614:7617   */\n      0x0380\n        /* \"#utility.yul\":7606:7612   */\n      dup3\n        /* \"#utility.yul\":7602:7618   */\n      add\n        /* \"#utility.yul\":7595:7655   */\n      mstore\n        /* \"#utility.yul\":7702:7736   */\n      0x3926706167653d31266f66667365743d313030303026736f72743d6173632661\n        /* \"#utility.yul\":7696:7699   */\n      0x03a0\n        /* \"#utility.yul\":7688:7694   */\n      dup3\n        /* \"#utility.yul\":7684:7700   */\n      add\n        /* \"#utility.yul\":7677:7737   */\n      mstore\n        /* \"#utility.yul\":7784:7818   */\n      0x70696b65793d53353251454a5834464b4e435337394b3837584e58434156584e\n        /* \"#utility.yul\":7778:7781   */\n      0x03c0\n        /* \"#utility.yul\":7770:7776   */\n      dup3\n        /* \"#utility.yul\":7766:7782   */\n      add\n        /* \"#utility.yul\":7759:7819   */\n      mstore\n        /* \"#utility.yul\":7866:7900   */\n      0x505a335939395849603b7472797b6c657420646174613d617761697420242e67\n        /* \"#utility.yul\":7860:7863   */\n      0x03e0\n        /* \"#utility.yul\":7852:7858   */\n      dup3\n        /* \"#utility.yul\":7848:7864   */\n      add\n        /* \"#utility.yul\":7841:7901   */\n      mstore\n        /* \"#utility.yul\":7953:7987   */\n      0x65742875726c293b6c6574207472616e73616374696f6e4964733d646174612e\n        /* \"#utility.yul\":7946:7950   */\n      0x0400\n        /* \"#utility.yul\":7938:7944   */\n      dup3\n        /* \"#utility.yul\":7934:7951   */\n      add\n        /* \"#utility.yul\":7927:7988   */\n      mstore\n        /* \"#utility.yul\":8040:8074   */\n      0x726573756c742e66696c746572282874783d3e74782e66726f6d3d3d3d74782e\n        /* \"#utility.yul\":8033:8037   */\n      0x0420\n        /* \"#utility.yul\":8025:8031   */\n      dup3\n        /* \"#utility.yul\":8021:8038   */\n      add\n        /* \"#utility.yul\":8014:8075   */\n      mstore\n        /* \"#utility.yul\":8131:8165   */\n      0x746f29292e6d6170282874783d3e74782e6861736829293b24282723746f7461\n        /* \"#utility.yul\":8124:8128   */\n      0x0440\n        /* \"#utility.yul\":8116:8122   */\n      dup3\n        /* \"#utility.yul\":8112:8129   */\n      add\n        /* \"#utility.yul\":8105:8166   */\n      mstore\n        /* \"#utility.yul\":8218:8252   */\n      0x6c2d706f73747327292e74657874287374617274496e6465782d33293b726571\n        /* \"#utility.yul\":8211:8215   */\n      0x0460\n        /* \"#utility.yul\":8203:8209   */\n      dup3\n        /* \"#utility.yul\":8199:8216   */\n      add\n        /* \"#utility.yul\":8192:8253   */\n      mstore\n        /* \"#utility.yul\":8305:8339   */\n      0x75657374416e696d6174696f6e4672616d65282866756e6374696f6e28297b24\n        /* \"#utility.yul\":8298:8302   */\n      0x0480\n        /* \"#utility.yul\":8290:8296   */\n      dup3\n        /* \"#utility.yul\":8286:8303   */\n      add\n        /* \"#utility.yul\":8279:8340   */\n      mstore\n        /* \"#utility.yul\":8404:8438   */\n      0x2827236c6f6164696e672d7465787427292e7465787428604c6f6164696e6720\n        /* \"#utility.yul\":8397:8401   */\n      0x04a0\n        /* \"#utility.yul\":8389:8395   */\n      dup3\n        /* \"#utility.yul\":8385:8402   */\n      add\n        /* \"#utility.yul\":8378:8439   */\n      mstore\n        /* \"#utility.yul\":8507:8541   */\n      0x247b7374617274496e6465782d337d206f6620247b7472616e73616374696f6e\n        /* \"#utility.yul\":8500:8504   */\n      0x04c0\n        /* \"#utility.yul\":8492:8498   */\n      dup3\n        /* \"#utility.yul\":8488:8505   */\n      add\n        /* \"#utility.yul\":8481:8542   */\n      mstore\n        /* \"#utility.yul\":8594:8628   */\n      0x4964732e6c656e6774682d337d60297d29293b6173796e632066756e6374696f\n        /* \"#utility.yul\":8587:8591   */\n      0x04e0\n        /* \"#utility.yul\":8579:8585   */\n      dup3\n        /* \"#utility.yul\":8575:8592   */\n      add\n        /* \"#utility.yul\":8568:8629   */\n      mstore\n        /* \"#utility.yul\":8681:8715   */\n      0x6e2070726f636573734e6578745472616e73616374696f6e28297b6966287374\n        /* \"#utility.yul\":8674:8678   */\n      0x0500\n        /* \"#utility.yul\":8666:8672   */\n      dup3\n        /* \"#utility.yul\":8662:8679   */\n      add\n        /* \"#utility.yul\":8655:8716   */\n      mstore\n        /* \"#utility.yul\":8776:8810   */\n      0x617274496e6465783c7472616e73616374696f6e4964732e6c656e677468297b\n        /* \"#utility.yul\":8769:8773   */\n      0x0520\n        /* \"#utility.yul\":8761:8767   */\n      dup3\n        /* \"#utility.yul\":8757:8774   */\n      add\n        /* \"#utility.yul\":8750:8811   */\n      mstore\n        /* \"#utility.yul\":8871:8905   */\n      0x6c6574207472616e73616374696f6e49643d7472616e73616374696f6e496473\n        /* \"#utility.yul\":8864:8868   */\n      0x0540\n        /* \"#utility.yul\":8856:8862   */\n      dup3\n        /* \"#utility.yul\":8852:8869   */\n      add\n        /* \"#utility.yul\":8845:8906   */\n      mstore\n        /* \"#utility.yul\":8966:9000   */\n      0x5b7374617274496e6465785d3b696628636f6f6b696554657874732e66696c74\n        /* \"#utility.yul\":8959:8963   */\n      0x0560\n        /* \"#utility.yul\":8951:8957   */\n      dup3\n        /* \"#utility.yul\":8947:8964   */\n      add\n        /* \"#utility.yul\":8940:9001   */\n      mstore\n        /* \"#utility.yul\":9065:9099   */\n      0x65722828783d3e782e686173683d3d537472696e67287472616e73616374696f\n        /* \"#utility.yul\":9058:9062   */\n      0x0580\n        /* \"#utility.yul\":9050:9056   */\n      dup3\n        /* \"#utility.yul\":9046:9063   */\n      add\n        /* \"#utility.yul\":9039:9100   */\n      mstore\n        /* \"#utility.yul\":9164:9198   */\n      0x6e49642929292e6c656e6774683d3d30297b6177616974206e65772050726f6d\n        /* \"#utility.yul\":9157:9161   */\n      0x05a0\n        /* \"#utility.yul\":9149:9155   */\n      dup3\n        /* \"#utility.yul\":9145:9162   */\n      add\n        /* \"#utility.yul\":9138:9199   */\n      mstore\n        /* \"#utility.yul\":9263:9297   */\n      0x69736528287265736f6c76653d3e73657454696d656f7574287265736f6c7665\n        /* \"#utility.yul\":9256:9260   */\n      0x05c0\n        /* \"#utility.yul\":9248:9254   */\n      dup3\n        /* \"#utility.yul\":9244:9261   */\n      add\n        /* \"#utility.yul\":9237:9298   */\n      mstore\n        /* \"#utility.yul\":9362:9396   */\n      0x2c64656c6179322929293b6c657420726573756c743d61776169742077656233\n        /* \"#utility.yul\":9355:9359   */\n      0x05e0\n        /* \"#utility.yul\":9347:9353   */\n      dup3\n        /* \"#utility.yul\":9343:9360   */\n      add\n        /* \"#utility.yul\":9336:9397   */\n      mstore\n        /* \"#utility.yul\":9461:9495   */\n      0x2e6574682e6765745472616e73616374696f6e287472616e73616374696f6e49\n        /* \"#utility.yul\":9454:9458   */\n      0x0600\n        /* \"#utility.yul\":9446:9452   */\n      dup3\n        /* \"#utility.yul\":9442:9459   */\n      add\n        /* \"#utility.yul\":9435:9496   */\n      mstore\n        /* \"#utility.yul\":9564:9598   */\n      0x64293b6c657420626c6f636b4e756d6265723d7061727365496e742872657375\n        /* \"#utility.yul\":9557:9561   */\n      0x0620\n        /* \"#utility.yul\":9549:9555   */\n      dup3\n        /* \"#utility.yul\":9545:9562   */\n      add\n        /* \"#utility.yul\":9538:9599   */\n      mstore\n        /* \"#utility.yul\":9663:9697   */\n      0x6c742e626c6f636b4e756d626572293b6177616974206e65772050726f6d6973\n        /* \"#utility.yul\":9656:9660   */\n      0x0640\n        /* \"#utility.yul\":9648:9654   */\n      dup3\n        /* \"#utility.yul\":9644:9661   */\n      add\n        /* \"#utility.yul\":9637:9698   */\n      mstore\n        /* \"#utility.yul\":9762:9796   */\n      0x6528287265736f6c76653d3e73657454696d656f7574287265736f6c76652c64\n        /* \"#utility.yul\":9755:9759   */\n      0x0660\n        /* \"#utility.yul\":9747:9753   */\n      dup3\n        /* \"#utility.yul\":9743:9760   */\n      add\n        /* \"#utility.yul\":9736:9797   */\n      mstore\n        /* \"#utility.yul\":9861:9895   */\n      0x656c6179322929293b6c657420696e7075743d776562332e7574696c732e746f\n        /* \"#utility.yul\":9854:9858   */\n      0x0680\n        /* \"#utility.yul\":9846:9852   */\n      dup3\n        /* \"#utility.yul\":9842:9859   */\n      add\n        /* \"#utility.yul\":9835:9896   */\n      mstore\n        /* \"#utility.yul\":9960:9994   */\n      0x417363696928726573756c742e696e707574293b6c657420626c6f636b526573\n        /* \"#utility.yul\":9953:9957   */\n      0x06a0\n        /* \"#utility.yul\":9945:9951   */\n      dup3\n        /* \"#utility.yul\":9941:9958   */\n      add\n        /* \"#utility.yul\":9934:9995   */\n      mstore\n        /* \"#utility.yul\":10059:10093   */\n      0x756c743d617761697420776562332e6574682e676574426c6f636b28626c6f63\n        /* \"#utility.yul\":10052:10056   */\n      0x06c0\n        /* \"#utility.yul\":10044:10050   */\n      dup3\n        /* \"#utility.yul\":10040:10057   */\n      add\n        /* \"#utility.yul\":10033:10094   */\n      mstore\n        /* \"#utility.yul\":10162:10196   */\n      0x6b4e756d626572293b6c657420646174653d6e65772044617465284e756d6265\n        /* \"#utility.yul\":10155:10159   */\n      0x06e0\n        /* \"#utility.yul\":10147:10153   */\n      dup3\n        /* \"#utility.yul\":10143:10160   */\n      add\n        /* \"#utility.yul\":10136:10197   */\n      mstore\n        /* \"#utility.yul\":10261:10295   */\n      0x7228626c6f636b526573756c742e74696d657374616d70292a316533293b6c65\n        /* \"#utility.yul\":10254:10258   */\n      0x0700\n        /* \"#utility.yul\":10246:10252   */\n      dup3\n        /* \"#utility.yul\":10242:10259   */\n      add\n        /* \"#utility.yul\":10235:10296   */\n      mstore\n        /* \"#utility.yul\":10360:10394   */\n      0x74206d6f6e7468733d5b274a616e272c27466562272c274d6172272c27417072\n        /* \"#utility.yul\":10353:10357   */\n      0x0720\n        /* \"#utility.yul\":10345:10351   */\n      dup3\n        /* \"#utility.yul\":10341:10358   */\n      add\n        /* \"#utility.yul\":10334:10395   */\n      mstore\n        /* \"#utility.yul\":10459:10493   */\n      0x272c274d6179272c274a756e272c274a756c272c27417567272c27536570272c\n        /* \"#utility.yul\":10452:10456   */\n      0x0740\n        /* \"#utility.yul\":10444:10450   */\n      dup3\n        /* \"#utility.yul\":10440:10457   */\n      add\n        /* \"#utility.yul\":10433:10494   */\n      mstore\n        /* \"#utility.yul\":10558:10592   */\n      0x274f6374272c274e6f76272c27446563275d3b6c657420796561723d64617465\n        /* \"#utility.yul\":10551:10555   */\n      0x0760\n        /* \"#utility.yul\":10543:10549   */\n      dup3\n        /* \"#utility.yul\":10539:10556   */\n      add\n        /* \"#utility.yul\":10532:10593   */\n      mstore\n        /* \"#utility.yul\":10657:10691   */\n      0x2e67657446756c6c5965617228293b6c6574206d6f6e74683d6d6f6e7468735b\n        /* \"#utility.yul\":10650:10654   */\n      0x0780\n        /* \"#utility.yul\":10642:10648   */\n      dup3\n        /* \"#utility.yul\":10638:10655   */\n      add\n        /* \"#utility.yul\":10631:10692   */\n      mstore\n        /* \"#utility.yul\":10756:10790   */\n      0x646174652e6765744d6f6e746828295d3b6c6574206461793d646174652e6765\n        /* \"#utility.yul\":10749:10753   */\n      0x07a0\n        /* \"#utility.yul\":10741:10747   */\n      dup3\n        /* \"#utility.yul\":10737:10754   */\n      add\n        /* \"#utility.yul\":10730:10791   */\n      mstore\n        /* \"#utility.yul\":10855:10889   */\n      0x744461746528293b6c657420686f7572733d646174652e676574486f75727328\n        /* \"#utility.yul\":10848:10852   */\n      0x07c0\n        /* \"#utility.yul\":10840:10846   */\n      dup3\n        /* \"#utility.yul\":10836:10853   */\n      add\n        /* \"#utility.yul\":10829:10890   */\n      mstore\n        /* \"#utility.yul\":10954:10988   */\n      0x293b6c6574206d696e757465733d2730272b646174652e6765744d696e757465\n        /* \"#utility.yul\":10947:10951   */\n      0x07e0\n        /* \"#utility.yul\":10939:10945   */\n      dup3\n        /* \"#utility.yul\":10935:10952   */\n      add\n        /* \"#utility.yul\":10928:10989   */\n      mstore\n        /* \"#utility.yul\":11053:11087   */\n      0x7328293b6c6574207365636f6e64733d2730272b646174652e6765745365636f\n        /* \"#utility.yul\":11046:11050   */\n      0x0800\n        /* \"#utility.yul\":11038:11044   */\n      dup3\n        /* \"#utility.yul\":11034:11051   */\n      add\n        /* \"#utility.yul\":11027:11088   */\n      mstore\n        /* \"#utility.yul\":11152:11186   */\n      0x6e647328293b6c657420666f726d617474656454696d653d6d6f6e74682b2720\n        /* \"#utility.yul\":11145:11149   */\n      0x0820\n        /* \"#utility.yul\":11137:11143   */\n      dup3\n        /* \"#utility.yul\":11133:11150   */\n      add\n        /* \"#utility.yul\":11126:11187   */\n      mstore\n        /* \"#utility.yul\":11251:11285   */\n      0x272b6461792b2720272b796561722b2720272b686f7572732b273a272b6d696e\n        /* \"#utility.yul\":11244:11248   */\n      0x0840\n        /* \"#utility.yul\":11236:11242   */\n      dup3\n        /* \"#utility.yul\":11232:11249   */\n      add\n        /* \"#utility.yul\":11225:11286   */\n      mstore\n        /* \"#utility.yul\":11350:11384   */\n      0x757465732e737562737472282d32292b273a272b7365636f6e64732e73756273\n        /* \"#utility.yul\":11343:11347   */\n      0x0860\n        /* \"#utility.yul\":11335:11341   */\n      dup3\n        /* \"#utility.yul\":11331:11348   */\n      add\n        /* \"#utility.yul\":11324:11385   */\n      mstore\n        /* \"#utility.yul\":11449:11483   */\n      0x7472282d32293b6c6574206f626a3d7b686173683a537472696e67287472616e\n        /* \"#utility.yul\":11442:11446   */\n      0x0880\n        /* \"#utility.yul\":11434:11440   */\n      dup3\n        /* \"#utility.yul\":11430:11447   */\n      add\n        /* \"#utility.yul\":11423:11484   */\n      mstore\n        /* \"#utility.yul\":11556:11590   */\n      0x73616374696f6e4964292c626c6f636b3a537472696e6728626c6f636b4e756d\n        /* \"#utility.yul\":11549:11553   */\n      0x08a0\n        /* \"#utility.yul\":11541:11547   */\n      dup3\n        /* \"#utility.yul\":11537:11554   */\n      add\n        /* \"#utility.yul\":11530:11591   */\n      mstore\n        /* \"#utility.yul\":11663:11697   */\n      0x626572292c746578743a696e7075742c74696d653a537472696e6728626c6f63\n        /* \"#utility.yul\":11656:11660   */\n      0x08c0\n        /* \"#utility.yul\":11648:11654   */\n      dup3\n        /* \"#utility.yul\":11644:11661   */\n      add\n        /* \"#utility.yul\":11637:11698   */\n      mstore\n        /* \"#utility.yul\":11766:11800   */\n      0x6b526573756c742e74696d657374616d70292c666f726d617474656454696d65\n        /* \"#utility.yul\":11759:11763   */\n      0x08e0\n        /* \"#utility.yul\":11751:11757   */\n      dup3\n        /* \"#utility.yul\":11747:11764   */\n      add\n        /* \"#utility.yul\":11740:11801   */\n      mstore\n        /* \"#utility.yul\":11865:11899   */\n      0x3a666f726d617474656454696d657d3b7472616e73616374696f6e5465787473\n        /* \"#utility.yul\":11858:11862   */\n      0x0900\n        /* \"#utility.yul\":11850:11856   */\n      dup3\n        /* \"#utility.yul\":11846:11863   */\n      add\n        /* \"#utility.yul\":11839:11900   */\n      mstore\n        /* \"#utility.yul\":11964:11998   */\n      0x2e70757368286f626a293b617070656e64436f6d6d656e74286f626a293b636f\n        /* \"#utility.yul\":11957:11961   */\n      0x0920\n        /* \"#utility.yul\":11949:11955   */\n      dup3\n        /* \"#utility.yul\":11945:11962   */\n      add\n        /* \"#utility.yul\":11938:11999   */\n      mstore\n        /* \"#utility.yul\":12063:12097   */\n      0x6f6b696554657874732e70757368286f626a293b736574436f6f6b6965282774\n        /* \"#utility.yul\":12056:12060   */\n      0x0940\n        /* \"#utility.yul\":12048:12054   */\n      dup3\n        /* \"#utility.yul\":12044:12061   */\n      add\n        /* \"#utility.yul\":12037:12098   */\n      mstore\n        /* \"#utility.yul\":12166:12200   */\n      0x72616e73616374696f6e5465787473272c4a534f4e2e737472696e6769667928\n        /* \"#utility.yul\":12159:12163   */\n      0x0960\n        /* \"#utility.yul\":12151:12157   */\n      dup3\n        /* \"#utility.yul\":12147:12164   */\n      add\n        /* \"#utility.yul\":12140:12201   */\n      mstore\n        /* \"#utility.yul\":12269:12303   */\n      0x636f6f6b6965546578747329293b7374617274496e6465782b2b3b2428272374\n        /* \"#utility.yul\":12262:12266   */\n      0x0980\n        /* \"#utility.yul\":12254:12260   */\n      dup3\n        /* \"#utility.yul\":12250:12267   */\n      add\n        /* \"#utility.yul\":12243:12304   */\n      mstore\n        /* \"#utility.yul\":12368:12402   */\n      0x6f74616c2d706f73747327292e74657874287374617274496e6465782d33293b\n        /* \"#utility.yul\":12361:12365   */\n      0x09a0\n        /* \"#utility.yul\":12353:12359   */\n      dup3\n        /* \"#utility.yul\":12349:12366   */\n      add\n        /* \"#utility.yul\":12342:12403   */\n      mstore\n        /* \"#utility.yul\":12467:12501   */\n      0x72657175657374416e696d6174696f6e4672616d65282866756e6374696f6e28\n        /* \"#utility.yul\":12460:12464   */\n      0x09c0\n        /* \"#utility.yul\":12452:12458   */\n      dup3\n        /* \"#utility.yul\":12448:12465   */\n      add\n        /* \"#utility.yul\":12441:12502   */\n      mstore\n        /* \"#utility.yul\":12578:12612   */\n      0x297b242827236c6f6164696e672d7465787427292e7465787428604c6f616469\n        /* \"#utility.yul\":12571:12575   */\n      0x09e0\n        /* \"#utility.yul\":12563:12569   */\n      dup3\n        /* \"#utility.yul\":12559:12576   */\n      add\n        /* \"#utility.yul\":12552:12613   */\n      mstore\n        /* \"#utility.yul\":12693:12727   */\n      0x6e6720247b7374617274496e6465782d337d206f6620247b7472616e73616374\n        /* \"#utility.yul\":12686:12690   */\n      0x0a00\n        /* \"#utility.yul\":12678:12684   */\n      dup3\n        /* \"#utility.yul\":12674:12691   */\n      add\n        /* \"#utility.yul\":12667:12728   */\n      mstore\n        /* \"#utility.yul\":12792:12826   */\n      0x696f6e4964732e6c656e6774682d337d60297d29293b6177616974206e657720\n        /* \"#utility.yul\":12785:12789   */\n      0x0a20\n        /* \"#utility.yul\":12777:12783   */\n      dup3\n        /* \"#utility.yul\":12773:12790   */\n      add\n        /* \"#utility.yul\":12766:12827   */\n      mstore\n        /* \"#utility.yul\":12891:12925   */\n      0x50726f6d69736528287265736f6c76653d3e73657454696d656f757428726573\n        /* \"#utility.yul\":12884:12888   */\n      0x0a40\n        /* \"#utility.yul\":12876:12882   */\n      dup3\n        /* \"#utility.yul\":12872:12889   */\n      add\n        /* \"#utility.yul\":12865:12926   */\n      mstore\n        /* \"#utility.yul\":12990:13024   */\n      0x6f6c76652c64656c6179322929293b61776169742070726f636573734e657874\n        /* \"#utility.yul\":12983:12987   */\n      0x0a60\n        /* \"#utility.yul\":12975:12981   */\n      dup3\n        /* \"#utility.yul\":12971:12988   */\n      add\n        /* \"#utility.yul\":12964:13025   */\n      mstore\n        /* \"#utility.yul\":13089:13123   */\n      0x5472616e73616374696f6e28297d656c73657b617070656e64436f6d6d656e74\n        /* \"#utility.yul\":13082:13086   */\n      0x0a80\n        /* \"#utility.yul\":13074:13080   */\n      dup3\n        /* \"#utility.yul\":13070:13087   */\n      add\n        /* \"#utility.yul\":13063:13124   */\n      mstore\n        /* \"#utility.yul\":13188:13222   */\n      0x28636f6f6b696554657874732e66696c7465722828783d3e782e686173683d3d\n        /* \"#utility.yul\":13181:13185   */\n      0x0aa0\n        /* \"#utility.yul\":13173:13179   */\n      dup3\n        /* \"#utility.yul\":13169:13186   */\n      add\n        /* \"#utility.yul\":13162:13223   */\n      mstore\n        /* \"#utility.yul\":13287:13321   */\n      0x537472696e67287472616e73616374696f6e49642929295b305d293b73746172\n        /* \"#utility.yul\":13280:13284   */\n      0x0ac0\n        /* \"#utility.yul\":13272:13278   */\n      dup3\n        /* \"#utility.yul\":13268:13285   */\n      add\n        /* \"#utility.yul\":13261:13322   */\n      mstore\n        /* \"#utility.yul\":13386:13420   */\n      0x74496e6465782b2b3b24282723746f74616c2d706f73747327292e7465787428\n        /* \"#utility.yul\":13379:13383   */\n      0x0ae0\n        /* \"#utility.yul\":13371:13377   */\n      dup3\n        /* \"#utility.yul\":13367:13384   */\n      add\n        /* \"#utility.yul\":13360:13421   */\n      mstore\n        /* \"#utility.yul\":13485:13519   */\n      0x7374617274496e6465782d33293b72657175657374416e696d6174696f6e4672\n        /* \"#utility.yul\":13478:13482   */\n      0x0b00\n        /* \"#utility.yul\":13470:13476   */\n      dup3\n        /* \"#utility.yul\":13466:13483   */\n      add\n        /* \"#utility.yul\":13459:13520   */\n      mstore\n        /* \"#utility.yul\":13584:13618   */\n      0x616d65282866756e6374696f6e28297b242827236c6f6164696e672d74657874\n        /* \"#utility.yul\":13577:13581   */\n      0x0b20\n        /* \"#utility.yul\":13569:13575   */\n      dup3\n        /* \"#utility.yul\":13565:13582   */\n      add\n        /* \"#utility.yul\":13558:13619   */\n      mstore\n        /* \"#utility.yul\":13699:13733   */\n      0x27292e7465787428604c6f6164696e6720247b7374617274496e6465782d337d\n        /* \"#utility.yul\":13692:13696   */\n      0x0b40\n        /* \"#utility.yul\":13684:13690   */\n      dup3\n        /* \"#utility.yul\":13680:13697   */\n      add\n        /* \"#utility.yul\":13673:13734   */\n      mstore\n        /* \"#utility.yul\":13810:13844   */\n      0x206f6620247b7472616e73616374696f6e4964732e6c656e6774682d337d6029\n        /* \"#utility.yul\":13803:13807   */\n      0x0b60\n        /* \"#utility.yul\":13795:13801   */\n      dup3\n        /* \"#utility.yul\":13791:13808   */\n      add\n        /* \"#utility.yul\":13784:13845   */\n      mstore\n        /* \"#utility.yul\":13909:13943   */\n      0x7d29293b61776169742070726f636573734e6578745472616e73616374696f6e\n        /* \"#utility.yul\":13902:13906   */\n      0x0b80\n        /* \"#utility.yul\":13894:13900   */\n      dup3\n        /* \"#utility.yul\":13890:13907   */\n      add\n        /* \"#utility.yul\":13883:13944   */\n      mstore\n        /* \"#utility.yul\":14008:14042   */\n      0x28297d7d656c73657b636c656172496e74657276616c286c6f61646572496e74\n        /* \"#utility.yul\":14001:14005   */\n      0x0ba0\n        /* \"#utility.yul\":13993:13999   */\n      dup3\n        /* \"#utility.yul\":13989:14006   */\n      add\n        /* \"#utility.yul\":13982:14043   */\n      mstore\n        /* \"#utility.yul\":14107:14141   */\n      0x657276616c293b72656d6f76654c6f6164696e67526f7728293b24282723616e\n        /* \"#utility.yul\":14100:14104   */\n      0x0bc0\n        /* \"#utility.yul\":14092:14098   */\n      dup3\n        /* \"#utility.yul\":14088:14105   */\n      add\n        /* \"#utility.yul\":14081:14142   */\n      mstore\n        /* \"#utility.yul\":14194:14228   */\n      0x6472657727292e73686f7728297d7d61776169742070726f636573734e657874\n        /* \"#utility.yul\":14187:14191   */\n      0x0be0\n        /* \"#utility.yul\":14179:14185   */\n      dup3\n        /* \"#utility.yul\":14175:14192   */\n      add\n        /* \"#utility.yul\":14168:14229   */\n      mstore\n        /* \"#utility.yul\":14277:14311   */\n      0x5472616e73616374696f6e28293b6973416c6c4c6f616465643d21307d636174\n        /* \"#utility.yul\":14270:14274   */\n      0x0c00\n        /* \"#utility.yul\":14262:14268   */\n      dup3\n        /* \"#utility.yul\":14258:14275   */\n      add\n        /* \"#utility.yul\":14251:14312   */\n      mstore\n        /* \"#utility.yul\":14360:14394   */\n      0x6368286572726f72297b72656d6f76654c6f6164696e67526f7728293b617070\n        /* \"#utility.yul\":14353:14357   */\n      0x0c20\n        /* \"#utility.yul\":14345:14351   */\n      dup3\n        /* \"#utility.yul\":14341:14358   */\n      add\n        /* \"#utility.yul\":14334:14395   */\n      mstore\n        /* \"#utility.yul\":14447:14481   */\n      0x656e644572726f72526f7728293b636f6e736f6c652e6572726f722827466169\n        /* \"#utility.yul\":14440:14444   */\n      0x0c40\n        /* \"#utility.yul\":14432:14438   */\n      dup3\n        /* \"#utility.yul\":14428:14445   */\n      add\n        /* \"#utility.yul\":14421:14482   */\n      mstore\n        /* \"#utility.yul\":14538:14572   */\n      0x6c656420746f206665746368207472616e73616374696f6e733a272c6572726f\n        /* \"#utility.yul\":14531:14535   */\n      0x0c60\n        /* \"#utility.yul\":14523:14529   */\n      dup3\n        /* \"#utility.yul\":14519:14536   */\n      add\n        /* \"#utility.yul\":14512:14573   */\n      mstore\n        /* \"#utility.yul\":14629:14663   */\n      0x72293b6966287265747279436f756e743c35297b73657454696d656f75742828\n        /* \"#utility.yul\":14622:14626   */\n      0x0c80\n        /* \"#utility.yul\":14614:14620   */\n      dup3\n        /* \"#utility.yul\":14610:14627   */\n      add\n        /* \"#utility.yul\":14603:14664   */\n      mstore\n        /* \"#utility.yul\":14728:14762   */\n      0x66756e6374696f6e28297b72656d6f76654c6f6164696e67526f7728293b6765\n        /* \"#utility.yul\":14721:14725   */\n      0x0ca0\n        /* \"#utility.yul\":14713:14719   */\n      dup3\n        /* \"#utility.yul\":14709:14726   */\n      add\n        /* \"#utility.yul\":14702:14763   */\n      mstore\n        /* \"#utility.yul\":14807:14841   */\n      0x745472616e73616374696f6e546578747328297d292c316534297d7d7d6c6574\n        /* \"#utility.yul\":14800:14804   */\n      0x0cc0\n        /* \"#utility.yul\":14792:14798   */\n      dup3\n        /* \"#utility.yul\":14788:14805   */\n      add\n        /* \"#utility.yul\":14781:14842   */\n      mstore\n        /* \"#utility.yul\":14886:14920   */\n      0x207265747279436f756e743d313b66756e6374696f6e20617070656e64457272\n        /* \"#utility.yul\":14879:14883   */\n      0x0ce0\n        /* \"#utility.yul\":14871:14877   */\n      dup3\n        /* \"#utility.yul\":14867:14884   */\n      add\n        /* \"#utility.yul\":14860:14921   */\n      mstore\n        /* \"#utility.yul\":14965:14999   */\n      0x6f72526f7728297b6966287265747279436f756e743d3d3d34297b6c65742065\n        /* \"#utility.yul\":14958:14962   */\n      0x0d00\n        /* \"#utility.yul\":14950:14956   */\n      dup3\n        /* \"#utility.yul\":14946:14963   */\n      add\n        /* \"#utility.yul\":14939:15000   */\n      mstore\n        /* \"#utility.yul\":15052:15118   */\n      0x72726f72526f773d600a20202020202020202020202020202020202020203c74\n        /* \"#utility.yul\":15045:15049   */\n      0x0d20\n        /* \"#utility.yul\":15037:15043   */\n      dup3\n        /* \"#utility.yul\":15033:15050   */\n      add\n        /* \"#utility.yul\":15026:15119   */\n      mstore\n        /* \"#utility.yul\":15171:15237   */\n      0x7220636c6173733d277461626c652d726f77206c696768742d6267273e0a2020\n        /* \"#utility.yul\":15164:15168   */\n      0x0d40\n        /* \"#utility.yul\":15156:15162   */\n      dup3\n        /* \"#utility.yul\":15152:15169   */\n      add\n        /* \"#utility.yul\":15145:15238   */\n      mstore\n        /* \"#utility.yul\":15290:15324   */\n      0x2020202020202020202020202020202020202020202020202020202020202020\n        /* \"#utility.yul\":15283:15287   */\n      0x0d60\n        /* \"#utility.yul\":15275:15281   */\n      dup3\n        /* \"#utility.yul\":15271:15288   */\n      add\n        /* \"#utility.yul\":15264:15325   */\n      mstore\n        /* \"#utility.yul\":15377:15411   */\n      0x2020202020202020202020202020202020202020202020202020202020203c74\n        /* \"#utility.yul\":15370:15374   */\n      0x0d80\n        /* \"#utility.yul\":15362:15368   */\n      dup3\n        /* \"#utility.yul\":15358:15375   */\n      add\n        /* \"#utility.yul\":15351:15412   */\n      mstore\n        /* \"#utility.yul\":15464:15530   */\n      0x643e3c2f74643e0a0a2020202020202020202020202020202020202020202020\n        /* \"#utility.yul\":15457:15461   */\n      0x0da0\n        /* \"#utility.yul\":15449:15455   */\n      dup3\n        /* \"#utility.yul\":15445:15462   */\n      add\n        /* \"#utility.yul\":15438:15531   */\n      mstore\n        /* \"#utility.yul\":15583:15617   */\n      0x203c746420636c6173733d276c696768742d746578742d32206c6f6164696e67\n        /* \"#utility.yul\":15576:15580   */\n      0x0dc0\n        /* \"#utility.yul\":15568:15574   */\n      dup3\n        /* \"#utility.yul\":15564:15581   */\n      add\n        /* \"#utility.yul\":15557:15618   */\n      mstore\n        /* \"#utility.yul\":15670:15736   */\n      0x2d63656c6c2720636f6c7370616e3d2732273e0a202020202020202020202020\n        /* \"#utility.yul\":15663:15667   */\n      0x0de0\n        /* \"#utility.yul\":15655:15661   */\n      dup3\n        /* \"#utility.yul\":15651:15668   */\n      add\n        /* \"#utility.yul\":15644:15737   */\n      mstore\n        /* \"#utility.yul\":15789:15823   */\n      0x202020202020202020202020202020203c6469762069643d276572726f722720\n        /* \"#utility.yul\":15782:15786   */\n      0x0e00\n        /* \"#utility.yul\":15774:15780   */\n      dup3\n        /* \"#utility.yul\":15770:15787   */\n      add\n        /* \"#utility.yul\":15763:15824   */\n      mstore\n        /* \"#utility.yul\":15876:15942   */\n      0x636c6173733d276572726f722d74657874273e0a202020202020202020202020\n        /* \"#utility.yul\":15869:15873   */\n      0x0e20\n        /* \"#utility.yul\":15861:15867   */\n      dup3\n        /* \"#utility.yul\":15857:15874   */\n      add\n        /* \"#utility.yul\":15850:15943   */\n      mstore\n        /* \"#utility.yul\":15995:16029   */\n      0x20202020202020202020202020202020202020203c7370616e2069643d276572\n        /* \"#utility.yul\":15988:15992   */\n      0x0e40\n        /* \"#utility.yul\":15980:15986   */\n      dup3\n        /* \"#utility.yul\":15976:15993   */\n      add\n        /* \"#utility.yul\":15969:16030   */\n      mstore\n        /* \"#utility.yul\":16082:16116   */\n      0x726f722d74657874273e4661696c656420746f206c6f6164207472616e736163\n        /* \"#utility.yul\":16075:16079   */\n      0x0e60\n        /* \"#utility.yul\":16067:16073   */\n      dup3\n        /* \"#utility.yul\":16063:16080   */\n      add\n        /* \"#utility.yul\":16056:16117   */\n      mstore\n        /* \"#utility.yul\":16169:16203   */\n      0x74696f6e732066726f6d2045746865727363616e2028332f332e3c2f7370616e\n        /* \"#utility.yul\":16162:16166   */\n      0x0e80\n        /* \"#utility.yul\":16154:16160   */\n      dup3\n        /* \"#utility.yul\":16150:16167   */\n      add\n        /* \"#utility.yul\":16143:16204   */\n      mstore\n        /* \"#utility.yul\":16260:16326   */\n      0x3e0a202020202020202020202020202020202020202020202020202020203c2f\n        /* \"#utility.yul\":16253:16257   */\n      0x0ea0\n        /* \"#utility.yul\":16245:16251   */\n      dup3\n        /* \"#utility.yul\":16241:16258   */\n      add\n        /* \"#utility.yul\":16234:16327   */\n      mstore\n        /* \"#utility.yul\":16383:16449   */\n      0x6469763e0a2020202020202020202020202020202020202020202020203c2f74\n        /* \"#utility.yul\":16376:16380   */\n      0x0ec0\n        /* \"#utility.yul\":16368:16374   */\n      dup3\n        /* \"#utility.yul\":16364:16381   */\n      add\n        /* \"#utility.yul\":16357:16450   */\n      mstore\n        /* \"#utility.yul\":16506:16572   */\n      0x643e0a20202020202020202020202020202020202020203c2f74723e0a202020\n        /* \"#utility.yul\":16499:16503   */\n      0x0ee0\n        /* \"#utility.yul\":16491:16497   */\n      dup3\n        /* \"#utility.yul\":16487:16504   */\n      add\n        /* \"#utility.yul\":16480:16573   */\n      mstore\n        /* \"#utility.yul\":16629:16663   */\n      0x20202020202020202020202020603b242827237461626c652d626f647927292e\n        /* \"#utility.yul\":16622:16626   */\n      0x0f00\n        /* \"#utility.yul\":16614:16620   */\n      dup3\n        /* \"#utility.yul\":16610:16627   */\n      add\n        /* \"#utility.yul\":16603:16664   */\n      mstore\n        /* \"#utility.yul\":16720:16754   */\n      0x617070656e64286572726f72526f77293b7265747279436f756e742b2b3b6966\n        /* \"#utility.yul\":16713:16717   */\n      0x0f20\n        /* \"#utility.yul\":16705:16711   */\n      dup3\n        /* \"#utility.yul\":16701:16718   */\n      add\n        /* \"#utility.yul\":16694:16755   */\n      mstore\n        /* \"#utility.yul\":16811:16845   */\n      0x286d6f64653d3d3d31297b7365744461726b28297d656c73657b7365744c6967\n        /* \"#utility.yul\":16804:16808   */\n      0x0f40\n        /* \"#utility.yul\":16796:16802   */\n      dup3\n        /* \"#utility.yul\":16792:16809   */\n      add\n        /* \"#utility.yul\":16785:16846   */\n      mstore\n        /* \"#utility.yul\":16906:16972   */\n      0x687428297d72657475726e7d6c6574206572726f72526f773d600a2020202020\n        /* \"#utility.yul\":16899:16903   */\n      0x0f60\n        /* \"#utility.yul\":16891:16897   */\n      dup3\n        /* \"#utility.yul\":16887:16904   */\n      add\n        /* \"#utility.yul\":16880:16973   */\n      mstore\n        /* \"#utility.yul\":17033:17067   */\n      0x2020202020202020202020202020203c747220636c6173733d277461626c652d\n        /* \"#utility.yul\":17026:17030   */\n      0x0f80\n        /* \"#utility.yul\":17018:17024   */\n      dup3\n        /* \"#utility.yul\":17014:17031   */\n      add\n        /* \"#utility.yul\":17007:17068   */\n      mstore\n        /* \"#utility.yul\":17128:17194   */\n      0x726f77206c696768742d6267273e0a2020202020202020202020202020202020\n        /* \"#utility.yul\":17121:17125   */\n      0x0fa0\n        /* \"#utility.yul\":17113:17119   */\n      dup3\n        /* \"#utility.yul\":17109:17126   */\n      add\n        /* \"#utility.yul\":17102:17195   */\n      mstore\n        /* \"#utility.yul\":17255:17289   */\n      0x2020202020202020202020202020202020202020202020202020202020202020\n        /* \"#utility.yul\":17248:17252   */\n      0x0fc0\n        /* \"#utility.yul\":17240:17246   */\n      dup3\n        /* \"#utility.yul\":17236:17253   */\n      add\n        /* \"#utility.yul\":17229:17290   */\n      mstore\n        /* \"#utility.yul\":17350:17416   */\n      0x2020202020202020202020202020203c74643e3c2f74643e0a0a202020202020\n        /* \"#utility.yul\":17343:17347   */\n      0x0fe0\n        /* \"#utility.yul\":17335:17341   */\n      dup3\n        /* \"#utility.yul\":17331:17348   */\n      add\n        /* \"#utility.yul\":17324:17417   */\n      mstore\n        /* \"#utility.yul\":17477:17511   */\n      0x2020202020202020202020202020202020203c746420636c6173733d276c6967\n        /* \"#utility.yul\":17470:17474   */\n      0x1000\n        /* \"#utility.yul\":17462:17468   */\n      dup3\n        /* \"#utility.yul\":17458:17475   */\n      add\n        /* \"#utility.yul\":17451:17512   */\n      mstore\n        /* \"#utility.yul\":17572:17606   */\n      0x68742d746578742d32206c6f6164696e672d63656c6c2720636f6c7370616e3d\n        /* \"#utility.yul\":17565:17569   */\n      0x1020\n        /* \"#utility.yul\":17557:17563   */\n      dup3\n        /* \"#utility.yul\":17553:17570   */\n      add\n        /* \"#utility.yul\":17546:17607   */\n      mstore\n        /* \"#utility.yul\":17667:17733   */\n      0x2732273e0a202020202020202020202020202020202020202020202020202020\n        /* \"#utility.yul\":17660:17664   */\n      0x1040\n        /* \"#utility.yul\":17652:17658   */\n      dup3\n        /* \"#utility.yul\":17648:17665   */\n      add\n        /* \"#utility.yul\":17641:17734   */\n      mstore\n        /* \"#utility.yul\":17794:17828   */\n      0x203c6469762069643d276572726f722720636c6173733d276572726f722d7465\n        /* \"#utility.yul\":17787:17791   */\n      0x1060\n        /* \"#utility.yul\":17779:17785   */\n      dup3\n        /* \"#utility.yul\":17775:17792   */\n      add\n        /* \"#utility.yul\":17768:17829   */\n      mstore\n        /* \"#utility.yul\":17889:17955   */\n      0x7874273e0a202020202020202020202020202020202020202020202020202020\n        /* \"#utility.yul\":17882:17886   */\n      0x1080\n        /* \"#utility.yul\":17874:17880   */\n      dup3\n        /* \"#utility.yul\":17870:17887   */\n      add\n        /* \"#utility.yul\":17863:17956   */\n      mstore\n        /* \"#utility.yul\":18016:18050   */\n      0x20202020203c7370616e2069643d276572726f722d74657874273e3c2f737061\n        /* \"#utility.yul\":18009:18013   */\n      0x10a0\n        /* \"#utility.yul\":18001:18007   */\n      dup3\n        /* \"#utility.yul\":17997:18014   */\n      add\n        /* \"#utility.yul\":17990:18051   */\n      mstore\n        /* \"#utility.yul\":18111:18145   */\n      0x6e3e3c7370616e20636c6173733d276c6f616465722d646f7473273e3c2f7370\n        /* \"#utility.yul\":18104:18108   */\n      0x10c0\n        /* \"#utility.yul\":18096:18102   */\n      dup3\n        /* \"#utility.yul\":18092:18109   */\n      add\n        /* \"#utility.yul\":18085:18146   */\n      mstore\n        /* \"#utility.yul\":18206:18272   */\n      0x616e3e0a20202020202020202020202020202020202020202020202020202020\n        /* \"#utility.yul\":18199:18203   */\n      0x10e0\n        /* \"#utility.yul\":18191:18197   */\n      dup3\n        /* \"#utility.yul\":18187:18204   */\n      add\n        /* \"#utility.yul\":18180:18273   */\n      mstore\n        /* \"#utility.yul\":18333:18399   */\n      0x3c2f6469763e0a2020202020202020202020202020202020202020202020203c\n        /* \"#utility.yul\":18326:18330   */\n      0x1100\n        /* \"#utility.yul\":18318:18324   */\n      dup3\n        /* \"#utility.yul\":18314:18331   */\n      add\n        /* \"#utility.yul\":18307:18400   */\n      mstore\n        /* \"#utility.yul\":18460:18526   */\n      0x2f74643e0a0a20202020202020202020202020202020202020203c2f74723e0a\n        /* \"#utility.yul\":18453:18457   */\n      0x1120\n        /* \"#utility.yul\":18445:18451   */\n      dup3\n        /* \"#utility.yul\":18441:18458   */\n      add\n        /* \"#utility.yul\":18434:18527   */\n      mstore\n        /* \"#utility.yul\":18587:18621   */\n      0x20202020202020202020202020202020603b242827237461626c652d626f6479\n        /* \"#utility.yul\":18580:18584   */\n      0x1140\n        /* \"#utility.yul\":18572:18578   */\n      dup3\n        /* \"#utility.yul\":18568:18585   */\n      add\n        /* \"#utility.yul\":18561:18622   */\n      mstore\n        /* \"#utility.yul\":18686:18720   */\n      0x27292e617070656e64286572726f72526f77293b242827236572726f722d7465\n        /* \"#utility.yul\":18679:18683   */\n      0x1160\n        /* \"#utility.yul\":18671:18677   */\n      dup3\n        /* \"#utility.yul\":18667:18684   */\n      add\n        /* \"#utility.yul\":18660:18721   */\n      mstore\n        /* \"#utility.yul\":18785:18819   */\n      0x787427292e7465787428604661696c656420746f206c6f6164207472616e7361\n        /* \"#utility.yul\":18778:18782   */\n      0x1180\n        /* \"#utility.yul\":18770:18776   */\n      dup3\n        /* \"#utility.yul\":18766:18783   */\n      add\n        /* \"#utility.yul\":18759:18820   */\n      mstore\n        /* \"#utility.yul\":18884:18918   */\n      0x6374696f6e732066726f6d2045746865727363616e2e205265747279696e6720\n        /* \"#utility.yul\":18877:18881   */\n      0x11a0\n        /* \"#utility.yul\":18869:18875   */\n      dup3\n        /* \"#utility.yul\":18865:18882   */\n      add\n        /* \"#utility.yul\":18858:18919   */\n      mstore\n        /* \"#utility.yul\":18979:19013   */\n      0x28247b7265747279436f756e747d2f332960293b7265747279436f756e742b2b\n        /* \"#utility.yul\":18972:18976   */\n      0x11c0\n        /* \"#utility.yul\":18964:18970   */\n      dup3\n        /* \"#utility.yul\":18960:18977   */\n      add\n        /* \"#utility.yul\":18953:19014   */\n      mstore\n        /* \"#utility.yul\":19074:19108   */\n      0x3b6966286d6f64653d3d3d31297b7365744461726b28297d656c73657b736574\n        /* \"#utility.yul\":19067:19071   */\n      0x11e0\n        /* \"#utility.yul\":19059:19065   */\n      dup3\n        /* \"#utility.yul\":19055:19072   */\n      add\n        /* \"#utility.yul\":19048:19109   */\n      mstore\n        /* \"#utility.yul\":19165:19199   */\n      0x4c6967687428297d7d66756e6374696f6e20617070656e644c6f6164696e6752\n        /* \"#utility.yul\":19158:19162   */\n      0x1200\n        /* \"#utility.yul\":19150:19156   */\n      dup3\n        /* \"#utility.yul\":19146:19163   */\n      add\n        /* \"#utility.yul\":19139:19200   */\n      mstore\n        /* \"#utility.yul\":19256:19322   */\n      0x6f7728297b6c6574206c6f6164696e67526f773d600a20202020202020202020\n        /* \"#utility.yul\":19249:19253   */\n      0x1220\n        /* \"#utility.yul\":19241:19247   */\n      dup3\n        /* \"#utility.yul\":19237:19254   */\n      add\n        /* \"#utility.yul\":19230:19323   */\n      mstore\n        /* \"#utility.yul\":19379:19445   */\n      0x202020202020202020203c747220636c6173733d276c696768742d6267273e0a\n        /* \"#utility.yul\":19372:19376   */\n      0x1240\n        /* \"#utility.yul\":19364:19370   */\n      dup3\n        /* \"#utility.yul\":19360:19377   */\n      add\n        /* \"#utility.yul\":19353:19446   */\n      mstore\n        /* \"#utility.yul\":19502:19536   */\n      0x2020202020202020202020202020202020202020202020202020202020202020\n        /* \"#utility.yul\":19495:19499   */\n      0x1260\n        /* \"#utility.yul\":19487:19493   */\n      dup3\n        /* \"#utility.yul\":19483:19500   */\n      add\n        /* \"#utility.yul\":19476:19537   */\n      mstore\n        /* \"#utility.yul\":19593:19627   */\n      0x2020202020202020202020202020202020202020202020202020202020202020\n        /* \"#utility.yul\":19586:19590   */\n      0x1280\n        /* \"#utility.yul\":19578:19584   */\n      dup3\n        /* \"#utility.yul\":19574:19591   */\n      add\n        /* \"#utility.yul\":19567:19628   */\n      mstore\n        /* \"#utility.yul\":19684:19750   */\n      0x3c74643e3c2f74643e0a0a202020202020202020202020202020202020202020\n        /* \"#utility.yul\":19677:19681   */\n      0x12a0\n        /* \"#utility.yul\":19669:19675   */\n      dup3\n        /* \"#utility.yul\":19665:19682   */\n      add\n        /* \"#utility.yul\":19658:19751   */\n      mstore\n        /* \"#utility.yul\":19807:19841   */\n      0x2020203c746420636c6173733d276c696768742d746578742d32206c6f616469\n        /* \"#utility.yul\":19800:19804   */\n      0x12c0\n        /* \"#utility.yul\":19792:19798   */\n      dup3\n        /* \"#utility.yul\":19788:19805   */\n      add\n        /* \"#utility.yul\":19781:19842   */\n      mstore\n        /* \"#utility.yul\":19898:19964   */\n      0x6e672d63656c6c273e0a20202020202020202020202020202020202020202020\n        /* \"#utility.yul\":19891:19895   */\n      0x12e0\n        /* \"#utility.yul\":19883:19889   */\n      dup3\n        /* \"#utility.yul\":19879:19896   */\n      add\n        /* \"#utility.yul\":19872:19965   */\n      mstore\n        /* \"#utility.yul\":20021:20087   */\n      0x2020202020203c6469762069643d276c6f6164696e67273e0a20202020202020\n        /* \"#utility.yul\":20014:20018   */\n      0x1300\n        /* \"#utility.yul\":20006:20012   */\n      dup3\n        /* \"#utility.yul\":20002:20019   */\n      add\n        /* \"#utility.yul\":19995:20088   */\n      mstore\n        /* \"#utility.yul\":20144:20178   */\n      0x202020202020202020202020202020202020202020202020203c7370616e2069\n        /* \"#utility.yul\":20137:20141   */\n      0x1320\n        /* \"#utility.yul\":20129:20135   */\n      dup3\n        /* \"#utility.yul\":20125:20142   */\n      add\n        /* \"#utility.yul\":20118:20179   */\n      mstore\n        /* \"#utility.yul\":20235:20269   */\n      0x643d276c6f6164696e672d74657874273e4c6f6164696e67207472616e736163\n        /* \"#utility.yul\":20228:20232   */\n      0x1340\n        /* \"#utility.yul\":20220:20226   */\n      dup3\n        /* \"#utility.yul\":20216:20233   */\n      add\n        /* \"#utility.yul\":20209:20270   */\n      mstore\n        /* \"#utility.yul\":20326:20360   */\n      0x74696f6e733c2f7370616e3e3c7370616e20636c6173733d276c6f616465722d\n        /* \"#utility.yul\":20319:20323   */\n      0x1360\n        /* \"#utility.yul\":20311:20317   */\n      dup3\n        /* \"#utility.yul\":20307:20324   */\n      add\n        /* \"#utility.yul\":20300:20361   */\n      mstore\n        /* \"#utility.yul\":20417:20483   */\n      0x646f7473273e3c2f7370616e3e0a202020202020202020202020202020202020\n        /* \"#utility.yul\":20410:20414   */\n      0x1380\n        /* \"#utility.yul\":20402:20408   */\n      dup3\n        /* \"#utility.yul\":20398:20415   */\n      add\n        /* \"#utility.yul\":20391:20484   */\n      mstore\n        /* \"#utility.yul\":20540:20606   */\n      0x202020202020202020203c2f6469763e0a202020202020202020202020202020\n        /* \"#utility.yul\":20533:20537   */\n      0x13a0\n        /* \"#utility.yul\":20525:20531   */\n      dup3\n        /* \"#utility.yul\":20521:20538   */\n      add\n        /* \"#utility.yul\":20514:20607   */\n      mstore\n        /* \"#utility.yul\":20663:20729   */\n      0x2020202020202020203c2f74643e0a0a20202020202020202020202020202020\n        /* \"#utility.yul\":20656:20660   */\n      0x13c0\n        /* \"#utility.yul\":20648:20654   */\n      dup3\n        /* \"#utility.yul\":20644:20661   */\n      add\n        /* \"#utility.yul\":20637:20730   */\n      mstore\n        /* \"#utility.yul\":20786:20852   */\n      0x202020203c2f74723e0a20202020202020202020202020202020603b24282723\n        /* \"#utility.yul\":20779:20783   */\n      0x13e0\n        /* \"#utility.yul\":20771:20777   */\n      dup3\n        /* \"#utility.yul\":20767:20784   */\n      add\n        /* \"#utility.yul\":20760:20853   */\n      mstore\n        /* \"#utility.yul\":20905:20939   */\n      0x7461626c652d626f647927292e617070656e64286c6f6164696e67526f77293b\n        /* \"#utility.yul\":20898:20902   */\n      0x1400\n        /* \"#utility.yul\":20890:20896   */\n      dup3\n        /* \"#utility.yul\":20886:20903   */\n      add\n        /* \"#utility.yul\":20879:20940   */\n      mstore\n        /* \"#utility.yul\":20992:21026   */\n      0x6966286d6f64653d3d3d31297b7365744461726b28297d656c73657b7365744c\n        /* \"#utility.yul\":20985:20989   */\n      0x1420\n        /* \"#utility.yul\":20977:20983   */\n      dup3\n        /* \"#utility.yul\":20973:20990   */\n      add\n        /* \"#utility.yul\":20966:21027   */\n      mstore\n        /* \"#utility.yul\":21075:21109   */\n      0x6967687428297d7d66756e6374696f6e2072656d6f76654c6f6164696e67526f\n        /* \"#utility.yul\":21068:21072   */\n      0x1440\n        /* \"#utility.yul\":21060:21066   */\n      dup3\n        /* \"#utility.yul\":21056:21073   */\n      add\n        /* \"#utility.yul\":21049:21110   */\n      mstore\n        /* \"#utility.yul\":21158:21192   */\n      0x7728297b242827237461626c652d626f647927292e66696e64282774723a6c61\n        /* \"#utility.yul\":21151:21155   */\n      0x1460\n        /* \"#utility.yul\":21143:21149   */\n      dup3\n        /* \"#utility.yul\":21139:21156   */\n      add\n        /* \"#utility.yul\":21132:21193   */\n      mstore\n        /* \"#utility.yul\":21241:21275   */\n      0x737427292e72656d6f766528297d6c657420696e74657276616c3d736574496e\n        /* \"#utility.yul\":21234:21238   */\n      0x1480\n        /* \"#utility.yul\":21226:21232   */\n      dup3\n        /* \"#utility.yul\":21222:21239   */\n      add\n        /* \"#utility.yul\":21215:21276   */\n      mstore\n        /* \"#utility.yul\":21324:21358   */\n      0x74657276616c282866756e6374696f6e28297b6966286973416c6c4c6f616465\n        /* \"#utility.yul\":21317:21321   */\n      0x14a0\n        /* \"#utility.yul\":21309:21315   */\n      dup3\n        /* \"#utility.yul\":21305:21322   */\n      add\n        /* \"#utility.yul\":21298:21359   */\n      mstore\n        /* \"#utility.yul\":21423:21457   */\n      0x64297b6973416c6c4c6f616465643d21313b636c656172496e74657276616c28\n        /* \"#utility.yul\":21416:21420   */\n      0x14c0\n        /* \"#utility.yul\":21408:21414   */\n      dup3\n        /* \"#utility.yul\":21404:21421   */\n      add\n        /* \"#utility.yul\":21397:21458   */\n      mstore\n        /* \"#utility.yul\":21506:21540   */\n      0x696e74657276616c297d7d292c326533293b66756e6374696f6e20736574436f\n        /* \"#utility.yul\":21499:21503   */\n      0x14e0\n        /* \"#utility.yul\":21491:21497   */\n      dup3\n        /* \"#utility.yul\":21487:21504   */\n      add\n        /* \"#utility.yul\":21480:21541   */\n      mstore\n        /* \"#utility.yul\":21589:21623   */\n      0x6f6b6965286e616d652c76616c75652c64617973297b6c6f63616c53746f7261\n        /* \"#utility.yul\":21582:21586   */\n      0x1500\n        /* \"#utility.yul\":21574:21580   */\n      dup3\n        /* \"#utility.yul\":21570:21587   */\n      add\n        /* \"#utility.yul\":21563:21624   */\n      mstore\n        /* \"#utility.yul\":21672:21706   */\n      0x67655b6e616d655d3d76616c75657d66756e6374696f6e20676574436f6f6b69\n        /* \"#utility.yul\":21665:21669   */\n      0x1520\n        /* \"#utility.yul\":21657:21663   */\n      dup3\n        /* \"#utility.yul\":21653:21670   */\n      add\n        /* \"#utility.yul\":21646:21707   */\n      mstore\n        /* \"#utility.yul\":21755:21789   */\n      0x65286e616d65297b72657475726e206c6f63616c53746f726167655b6e616d65\n        /* \"#utility.yul\":21748:21752   */\n      0x1540\n        /* \"#utility.yul\":21740:21746   */\n      dup3\n        /* \"#utility.yul\":21736:21753   */\n      add\n        /* \"#utility.yul\":21729:21790   */\n      mstore\n        /* \"#utility.yul\":21842:21876   */\n      0x5d7c7c275b5d277d66756e6374696f6e20617070656e64436f6d6d656e742874\n        /* \"#utility.yul\":21835:21839   */\n      0x1560\n        /* \"#utility.yul\":21827:21833   */\n      dup3\n        /* \"#utility.yul\":21823:21840   */\n      add\n        /* \"#utility.yul\":21816:21877   */\n      mstore\n        /* \"#utility.yul\":21929:21963   */\n      0x72616e73616374696f6e5465787473297b6966287472616e73616374696f6e54\n        /* \"#utility.yul\":21922:21926   */\n      0x1580\n        /* \"#utility.yul\":21914:21920   */\n      dup3\n        /* \"#utility.yul\":21910:21927   */\n      add\n        /* \"#utility.yul\":21903:21964   */\n      mstore\n        /* \"#utility.yul\":22020:22054   */\n      0x657874732e746578742e6c656e6774683e30297b72656d6f76654c6f6164696e\n        /* \"#utility.yul\":22013:22017   */\n      0x15a0\n        /* \"#utility.yul\":22005:22011   */\n      dup3\n        /* \"#utility.yul\":22001:22018   */\n      add\n        /* \"#utility.yul\":21994:22055   */\n      mstore\n        /* \"#utility.yul\":22111:22145   */\n      0x67526f7728293b242827237461626c652d626f647927292e617070656e642860\n        /* \"#utility.yul\":22104:22108   */\n      0x15c0\n        /* \"#utility.yul\":22096:22102   */\n      dup3\n        /* \"#utility.yul\":22092:22109   */\n      add\n        /* \"#utility.yul\":22085:22146   */\n      mstore\n        /* \"#utility.yul\":22206:22240   */\n      0x3c747220636c6173733d277461626c652d726f77206c696768742d6267206c69\n        /* \"#utility.yul\":22199:22203   */\n      0x15e0\n        /* \"#utility.yul\":22191:22197   */\n      dup3\n        /* \"#utility.yul\":22187:22204   */\n      add\n        /* \"#utility.yul\":22180:22241   */\n      mstore\n        /* \"#utility.yul\":22301:22335   */\n      0x6768742d626f72646572206c696768742d74657874273e3c746420636c617373\n        /* \"#utility.yul\":22294:22298   */\n      0x1600\n        /* \"#utility.yul\":22286:22292   */\n      dup3\n        /* \"#utility.yul\":22282:22299   */\n      add\n        /* \"#utility.yul\":22275:22336   */\n      mstore\n        /* \"#utility.yul\":22396:22430   */\n      0x3d276c696768742d6267272077696474683d273330252720616c69676e3d2763\n        /* \"#utility.yul\":22389:22393   */\n      0x1620\n        /* \"#utility.yul\":22381:22387   */\n      dup3\n        /* \"#utility.yul\":22377:22394   */\n      add\n        /* \"#utility.yul\":22370:22431   */\n      mstore\n        /* \"#utility.yul\":22491:22525   */\n      0x656e746572273e3c666f6e7420636c6173733d27736d616c6c5f74657874273e\n        /* \"#utility.yul\":22484:22488   */\n      0x1640\n        /* \"#utility.yul\":22476:22482   */\n      dup3\n        /* \"#utility.yul\":22472:22489   */\n      add\n        /* \"#utility.yul\":22465:22526   */\n      mstore\n        /* \"#utility.yul\":22586:22620   */\n      0x3c6120636c6173733d276c696768742d6c696e6b27207461726765743d275f62\n        /* \"#utility.yul\":22579:22583   */\n      0x1660\n        /* \"#utility.yul\":22571:22577   */\n      dup3\n        /* \"#utility.yul\":22567:22584   */\n      add\n        /* \"#utility.yul\":22560:22621   */\n      mstore\n        /* \"#utility.yul\":22681:22715   */\n      0x6c616e6b2720687265663d2768747470733a2f2f7777772e746a6f2e6172742f\n        /* \"#utility.yul\":22674:22678   */\n      0x1680\n        /* \"#utility.yul\":22666:22672   */\n      dup3\n        /* \"#utility.yul\":22662:22679   */\n      add\n        /* \"#utility.yul\":22655:22716   */\n      mstore\n        /* \"#utility.yul\":22780:22814   */\n      0x273e546a6f3c2f613e3c2f623e3c666f6e743e3c2f74643e3c746420616c6967\n        /* \"#utility.yul\":22773:22777   */\n      0x16a0\n        /* \"#utility.yul\":22765:22771   */\n      dup3\n        /* \"#utility.yul\":22761:22778   */\n      add\n        /* \"#utility.yul\":22754:22815   */\n      mstore\n        /* \"#utility.yul\":22879:22913   */\n      0x6e3d277269676874272077696474683d273730252720636c6173733d276c6967\n        /* \"#utility.yul\":22872:22876   */\n      0x16c0\n        /* \"#utility.yul\":22864:22870   */\n      dup3\n        /* \"#utility.yul\":22860:22877   */\n      add\n        /* \"#utility.yul\":22853:22914   */\n      mstore\n        /* \"#utility.yul\":22978:23012   */\n      0x68742d6267206c696768742d6c696e6b273e3c64697620636c6173733d27706f\n        /* \"#utility.yul\":22971:22975   */\n      0x16e0\n        /* \"#utility.yul\":22963:22969   */\n      dup3\n        /* \"#utility.yul\":22959:22976   */\n      add\n        /* \"#utility.yul\":22952:23013   */\n      mstore\n        /* \"#utility.yul\":23077:23111   */\n      0x7374496e666f206465736b746f70273e3c7370616e20636c6173733d27706f73\n        /* \"#utility.yul\":23070:23074   */\n      0x1700\n        /* \"#utility.yul\":23062:23068   */\n      dup3\n        /* \"#utility.yul\":23058:23075   */\n      add\n        /* \"#utility.yul\":23051:23112   */\n      mstore\n        /* \"#utility.yul\":23176:23210   */\n      0x744e756d206465736b746f70273e3c6120636c6173733d276c696768742d6c69\n        /* \"#utility.yul\":23169:23173   */\n      0x1720\n        /* \"#utility.yul\":23161:23167   */\n      dup3\n        /* \"#utility.yul\":23157:23174   */\n      add\n        /* \"#utility.yul\":23150:23211   */\n      mstore\n        /* \"#utility.yul\":23275:23309   */\n      0x6e6b27207374796c653d27666f6e742d73697a653a313270783b272068726566\n        /* \"#utility.yul\":23268:23272   */\n      0x1740\n        /* \"#utility.yul\":23260:23266   */\n      dup3\n        /* \"#utility.yul\":23256:23273   */\n      add\n        /* \"#utility.yul\":23249:23310   */\n      mstore\n        /* \"#utility.yul\":23374:23408   */\n      0x3d2768747470733a2f2f65746865727363616e2e696f2f74782f247b7472616e\n        /* \"#utility.yul\":23367:23371   */\n      0x1760\n        /* \"#utility.yul\":23359:23365   */\n      dup3\n        /* \"#utility.yul\":23355:23372   */\n      add\n        /* \"#utility.yul\":23348:23409   */\n      mstore\n        /* \"#utility.yul\":23473:23507   */\n      0x73616374696f6e54657874732e686173687d27207461726765743d275f626c61\n        /* \"#utility.yul\":23466:23470   */\n      0x1780\n        /* \"#utility.yul\":23458:23464   */\n      dup3\n        /* \"#utility.yul\":23454:23471   */\n      add\n        /* \"#utility.yul\":23447:23508   */\n      mstore\n        /* \"#utility.yul\":23572:23606   */\n      0x6e6b27207469746c653d274c696e6b20746f2074686973207472616e73616374\n        /* \"#utility.yul\":23565:23569   */\n      0x17a0\n        /* \"#utility.yul\":23557:23563   */\n      dup3\n        /* \"#utility.yul\":23553:23570   */\n      add\n        /* \"#utility.yul\":23546:23607   */\n      mstore\n        /* \"#utility.yul\":23671:23705   */\n      0x696f6e2720636c6173733d276c696768742d6c696e6b273e20247b7472616e73\n        /* \"#utility.yul\":23664:23668   */\n      0x17c0\n        /* \"#utility.yul\":23656:23662   */\n      dup3\n        /* \"#utility.yul\":23652:23669   */\n      add\n        /* \"#utility.yul\":23645:23706   */\n      mstore\n        /* \"#utility.yul\":23770:23804   */\n      0x616374696f6e54657874732e666f726d617474656454696d657d203c696d6720\n        /* \"#utility.yul\":23763:23767   */\n      0x17e0\n        /* \"#utility.yul\":23755:23761   */\n      dup3\n        /* \"#utility.yul\":23751:23768   */\n      add\n        /* \"#utility.yul\":23744:23805   */\n      mstore\n        /* \"#utility.yul\":23869:23903   */\n      0x7374796c653d272d7765626b69742d626f782d616c69676e3a20626173656c69\n        /* \"#utility.yul\":23862:23866   */\n      0x1800\n        /* \"#utility.yul\":23854:23860   */\n      dup3\n        /* \"#utility.yul\":23850:23867   */\n      add\n        /* \"#utility.yul\":23843:23904   */\n      mstore\n        /* \"#utility.yul\":23968:24002   */\n      0x6e653b2777696474683d27313070783b27206865696768743d27313070782720\n        /* \"#utility.yul\":23961:23965   */\n      0x1820\n        /* \"#utility.yul\":23953:23959   */\n      dup3\n        /* \"#utility.yul\":23949:23966   */\n      add\n        /* \"#utility.yul\":23942:24003   */\n      mstore\n        /* \"#utility.yul\":24067:24101   */\n      0x7374796c653d27766572746963616c2d616c69676e3a206d6964646c653b2720\n        /* \"#utility.yul\":24060:24064   */\n      0x1840\n        /* \"#utility.yul\":24052:24058   */\n      dup3\n        /* \"#utility.yul\":24048:24065   */\n      add\n        /* \"#utility.yul\":24041:24102   */\n      mstore\n        /* \"#utility.yul\":24166:24200   */\n      0x7372633d27646174613a696d6167652f7376672b786d6c3b6261736536342c50\n        /* \"#utility.yul\":24159:24163   */\n      0x1860\n        /* \"#utility.yul\":24151:24157   */\n      dup3\n        /* \"#utility.yul\":24147:24164   */\n      add\n        /* \"#utility.yul\":24140:24201   */\n      mstore\n        /* \"#utility.yul\":24265:24299   */\n      0x484e325a79423361575230614430694d54497a4969426f5a576c6e6148513949\n        /* \"#utility.yul\":24258:24262   */\n      0x1880\n        /* \"#utility.yul\":24250:24256   */\n      dup3\n        /* \"#utility.yul\":24246:24263   */\n      add\n        /* \"#utility.yul\":24239:24300   */\n      mstore\n        /* \"#utility.yul\":24364:24398   */\n      0x6a45794d794967646d6c6c64304a76654430694d434177494445794d7941784d\n        /* \"#utility.yul\":24357:24361   */\n      0x18a0\n        /* \"#utility.yul\":24349:24355   */\n      dup3\n        /* \"#utility.yul\":24345:24362   */\n      add\n        /* \"#utility.yul\":24338:24399   */\n      mstore\n        /* \"#utility.yul\":24463:24497   */\n      0x6a4d6949475a7062477739496d3576626d5569494868746247357a50534a6f64\n        /* \"#utility.yul\":24456:24460   */\n      0x18c0\n        /* \"#utility.yul\":24448:24454   */\n      dup3\n        /* \"#utility.yul\":24444:24461   */\n      add\n        /* \"#utility.yul\":24437:24498   */\n      mstore\n        /* \"#utility.yul\":24562:24596   */\n      0x4852774f693876643364334c6e637a4c6d39795a7938794d4441774c334e325a\n        /* \"#utility.yul\":24555:24559   */\n      0x18e0\n        /* \"#utility.yul\":24547:24553   */\n      dup3\n        /* \"#utility.yul\":24543:24560   */\n      add\n        /* \"#utility.yul\":24536:24597   */\n      mstore\n        /* \"#utility.yul\":24661:24695   */\n      0x79492b44516f38634746306143426b50534a4e4d6a55754e7a6b674e5467754e\n        /* \"#utility.yul\":24654:24658   */\n      0x1900\n        /* \"#utility.yul\":24646:24652   */\n      dup3\n        /* \"#utility.yul\":24642:24659   */\n      add\n        /* \"#utility.yul\":24635:24696   */\n      mstore\n        /* \"#utility.yul\":24760:24794   */\n      0x4445304f554d794e5334334f544178494455334c6a637a4e5463674d6a55754f\n        /* \"#utility.yul\":24753:24757   */\n      0x1920\n        /* \"#utility.yul\":24745:24751   */\n      dup3\n        /* \"#utility.yul\":24741:24758   */\n      add\n        /* \"#utility.yul\":24734:24795   */\n      mstore\n        /* \"#utility.yul\":24859:24893   */\n      0x5449304e4341314e7934774e6a4d7a494449324c6a45344e5445674e5459754e\n        /* \"#utility.yul\":24852:24856   */\n      0x1940\n        /* \"#utility.yul\":24844:24850   */\n      dup3\n        /* \"#utility.yul\":24840:24857   */\n      add\n        /* \"#utility.yul\":24833:24894   */\n      mstore\n        /* \"#utility.yul\":24958:24992   */\n      0x444d324d554d794e6934304e445534494455314c6a67774f5341794e6934344d\n        /* \"#utility.yul\":24951:24955   */\n      0x1960\n        /* \"#utility.yul\":24943:24949   */\n      dup3\n        /* \"#utility.yul\":24939:24956   */\n      add\n        /* \"#utility.yul\":24932:24993   */\n      mstore\n        /* \"#utility.yul\":25057:25091   */\n      0x6a6334494455314c6a497a4f5459674d6a63754d7a41354d6941314e4334334e\n        /* \"#utility.yul\":25050:25054   */\n      0x1980\n        /* \"#utility.yul\":25042:25048   */\n      dup3\n        /* \"#utility.yul\":25038:25055   */\n      add\n        /* \"#utility.yul\":25031:25092   */\n      mstore\n        /* \"#utility.yul\":25156:25190   */\n      0x6a4131517a49334c6a63354d4463674e5451754d6a67784e4341794f43347a4e\n        /* \"#utility.yul\":25149:25153   */\n      0x19a0\n        /* \"#utility.yul\":25141:25147   */\n      dup3\n        /* \"#utility.yul\":25137:25154   */\n      add\n        /* \"#utility.yul\":25130:25191   */\n      mstore\n        /* \"#utility.yul\":25255:25289   */\n      0x6a45354944557a4c6a6b774d6a45674d6a67754f546b774d7941314d7934324e\n        /* \"#utility.yul\":25248:25252   */\n      0x19c0\n        /* \"#utility.yul\":25240:25246   */\n      dup3\n        /* \"#utility.yul\":25236:25253   */\n      add\n        /* \"#utility.yul\":25229:25290   */\n      mstore\n        /* \"#utility.yul\":25354:25388   */\n      0x445130517a49354c6a59784f4463674e544d754d7a67324e79417a4d4334794f\n        /* \"#utility.yul\":25347:25351   */\n      0x19e0\n        /* \"#utility.yul\":25339:25345   */\n      dup3\n        /* \"#utility.yul\":25335:25352   */\n      add\n        /* \"#utility.yul\":25328:25389   */\n      mstore\n        /* \"#utility.yul\":25453:25487   */\n      0x5445344944557a4c6a49314e5463674d7a41754f5463784944557a4c6a49314f\n        /* \"#utility.yul\":25446:25450   */\n      0x1a00\n        /* \"#utility.yul\":25438:25444   */\n      dup3\n        /* \"#utility.yul\":25434:25451   */\n      add\n        /* \"#utility.yul\":25427:25488   */\n      mstore\n        /* \"#utility.yul\":25552:25586   */\n      0x446c4d4d7a6b754e5459784944557a4c6a49344e6a6c444e4441754f544d774e\n        /* \"#utility.yul\":25545:25549   */\n      0x1a20\n        /* \"#utility.yul\":25537:25543   */\n      dup3\n        /* \"#utility.yul\":25533:25550   */\n      add\n        /* \"#utility.yul\":25526:25587   */\n      mstore\n        /* \"#utility.yul\":25651:25685   */\n      0x5341314d7934794f445935494451794c6a49304e4341314d7934344d7a45674e\n        /* \"#utility.yul\":25644:25648   */\n      0x1a40\n        /* \"#utility.yul\":25636:25642   */\n      dup3\n        /* \"#utility.yul\":25632:25649   */\n      add\n        /* \"#utility.yul\":25625:25686   */\n      mstore\n        /* \"#utility.yul\":25750:25784   */\n      0x444d754d6a45794e4341314e4334334f546b30517a51304c6a45344d446b674e\n        /* \"#utility.yul\":25743:25747   */\n      0x1a60\n        /* \"#utility.yul\":25735:25741   */\n      dup3\n        /* \"#utility.yul\":25731:25748   */\n      add\n        /* \"#utility.yul\":25724:25785   */\n      mstore\n        /* \"#utility.yul\":25849:25883   */\n      0x5455754e7a59334f4341304e4334334d6a55674e5463754d4467784d7941304e\n        /* \"#utility.yul\":25842:25846   */\n      0x1a80\n        /* \"#utility.yul\":25834:25840   */\n      dup3\n        /* \"#utility.yul\":25830:25847   */\n      add\n        /* \"#utility.yul\":25823:25884   */\n      mstore\n        /* \"#utility.yul\":25948:25982   */\n      0x4334334d6a55674e5467754e4455774f5659354d4334354d7a4135517a51314c\n        /* \"#utility.yul\":25941:25945   */\n      0x1aa0\n        /* \"#utility.yul\":25933:25939   */\n      dup3\n        /* \"#utility.yul\":25929:25946   */\n      add\n        /* \"#utility.yul\":25922:25983   */\n      mstore\n        /* \"#utility.yul\":26047:26081   */\n      0x6a59354d6941354d4334324e444d35494451324c6a6b7a4e4341354d43347a4d\n        /* \"#utility.yul\":26040:26044   */\n      0x1ac0\n        /* \"#utility.yul\":26032:26038   */\n      dup3\n        /* \"#utility.yul\":26028:26045   */\n      add\n        /* \"#utility.yul\":26021:26082   */\n      mstore\n        /* \"#utility.yul\":26146:26180   */\n      0x7a6335494451344c6a49354d7941354d4334774d546335517a51354c6a497a4e\n        /* \"#utility.yul\":26139:26143   */\n      0x1ae0\n        /* \"#utility.yul\":26131:26137   */\n      dup3\n        /* \"#utility.yul\":26127:26144   */\n      add\n        /* \"#utility.yul\":26120:26181   */\n      mstore\n        /* \"#utility.yul\":26245:26279   */\n      0x7941344f5334334f545979494455774c6a41334f444d674f446b754d6a597949\n        /* \"#utility.yul\":26238:26242   */\n      0x1b00\n        /* \"#utility.yul\":26230:26236   */\n      dup3\n        /* \"#utility.yul\":26226:26243   */\n      add\n        /* \"#utility.yul\":26219:26280   */\n      mstore\n        /* \"#utility.yul\":26344:26378   */\n      0x4455774c6a59344d4455674f4467754e5441784f554d314d5334794f44493249\n        /* \"#utility.yul\":26337:26341   */\n      0x1b20\n        /* \"#utility.yul\":26329:26335   */\n      dup3\n        /* \"#utility.yul\":26325:26342   */\n      add\n        /* \"#utility.yul\":26318:26379   */\n      mstore\n        /* \"#utility.yul\":26443:26477   */\n      0x4467334c6a63304d5467674e5445754e6a45774d6941344e6934344d44413249\n        /* \"#utility.yul\":26436:26440   */\n      0x1b40\n        /* \"#utility.yul\":26428:26434   */\n      dup3\n        /* \"#utility.yul\":26424:26441   */\n      add\n        /* \"#utility.yul\":26417:26478   */\n      mstore\n        /* \"#utility.yul\":26542:26576   */\n      0x4455784c6a5978494467314c6a677a4d446c574e4455754e5451774f554d314d\n        /* \"#utility.yul\":26535:26539   */\n      0x1b60\n        /* \"#utility.yul\":26527:26533   */\n      dup3\n        /* \"#utility.yul\":26523:26540   */\n      add\n        /* \"#utility.yul\":26516:26577   */\n      mstore\n        /* \"#utility.yul\":26641:26675   */\n      0x5334324d5341304e4334784e7a4579494455794c6a45314e4341304d6934344e\n        /* \"#utility.yul\":26634:26638   */\n      0x1b80\n        /* \"#utility.yul\":26626:26632   */\n      dup3\n        /* \"#utility.yul\":26622:26639   */\n      add\n        /* \"#utility.yul\":26615:26676   */\n      mstore\n        /* \"#utility.yul\":26740:26774   */\n      0x5463324944557a4c6a45794d6a51674e4445754f446735517a55304c6a41354d\n        /* \"#utility.yul\":26733:26737   */\n      0x1ba0\n        /* \"#utility.yul\":26725:26731   */\n      dup3\n        /* \"#utility.yul\":26721:26738   */\n      add\n        /* \"#utility.yul\":26714:26775   */\n      mstore\n        /* \"#utility.yul\":26839:26873   */\n      0x4467674e4441754f5449774e4341314e5334304d44517a494451774c6a4d334e\n        /* \"#utility.yul\":26832:26836   */\n      0x1bc0\n        /* \"#utility.yul\":26824:26830   */\n      dup3\n        /* \"#utility.yul\":26820:26837   */\n      add\n        /* \"#utility.yul\":26813:26874   */\n      mstore\n        /* \"#utility.yul\":26938:26972   */\n      0x6a49674e5459754e7a6330494451774c6a4d334e546c494e6a55754d7a677851\n        /* \"#utility.yul\":26931:26935   */\n      0x1be0\n        /* \"#utility.yul\":26923:26929   */\n      dup3\n        /* \"#utility.yul\":26919:26936   */\n      add\n        /* \"#utility.yul\":26912:26973   */\n      mstore\n        /* \"#utility.yul\":27037:27071   */\n      0x7a59324c6a63314d4459674e4441754d7a63324d6941324f4334774e6a517849\n        /* \"#utility.yul\":27030:27034   */\n      0x1c00\n        /* \"#utility.yul\":27022:27028   */\n      dup3\n        /* \"#utility.yul\":27018:27035   */\n      add\n        /* \"#utility.yul\":27011:27072   */\n      mstore\n        /* \"#utility.yul\":27136:27170   */\n      0x4451774c6a6b794d4451674e6a6b754d444d794e5341304d5334344f446c444e\n        /* \"#utility.yul\":27129:27133   */\n      0x1c20\n        /* \"#utility.yul\":27121:27127   */\n      dup3\n        /* \"#utility.yul\":27117:27134   */\n      add\n        /* \"#utility.yul\":27110:27171   */\n      mstore\n        /* \"#utility.yul\":27235:27269   */\n      0x7a41754d4441774f5341304d6934344e546332494463774c6a55304e5341304e\n        /* \"#utility.yul\":27228:27232   */\n      0x1c40\n        /* \"#utility.yul\":27220:27226   */\n      dup3\n        /* \"#utility.yul\":27216:27233   */\n      add\n        /* \"#utility.yul\":27209:27270   */\n      mstore\n        /* \"#utility.yul\":27334:27368   */\n      0x4334784e7a4579494463774c6a55304e5341304e5334314e444135566a67794c\n        /* \"#utility.yul\":27327:27331   */\n      0x1c60\n        /* \"#utility.yul\":27319:27325   */\n      dup3\n        /* \"#utility.yul\":27315:27332   */\n      add\n        /* \"#utility.yul\":27308:27369   */\n      mstore\n        /* \"#utility.yul\":27433:27467   */\n      0x6a6b7a4d7a6c444e7a41754e545131494467794c6a6b7a4d7a6b674e7a49754e\n        /* \"#utility.yul\":27426:27430   */\n      0x1c80\n        /* \"#utility.yul\":27418:27424   */\n      dup3\n        /* \"#utility.yul\":27414:27431   */\n      add\n        /* \"#utility.yul\":27407:27468   */\n      mstore\n        /* \"#utility.yul\":27532:27566   */\n      0x7941344d6934774e6a4535494463304c6a63354f5341344d5334784e7a553551\n        /* \"#utility.yul\":27525:27529   */\n      0x1ca0\n        /* \"#utility.yul\":27517:27523   */\n      dup3\n        /* \"#utility.yul\":27513:27530   */\n      add\n        /* \"#utility.yul\":27506:27567   */\n      mstore\n        /* \"#utility.yul\":27631:27665   */\n      0x7a63314c6a55334f4463674f4441754f4451324d6941334e6934794e44517849\n        /* \"#utility.yul\":27624:27628   */\n      0x1cc0\n        /* \"#utility.yul\":27616:27622   */\n      dup3\n        /* \"#utility.yul\":27612:27629   */\n      add\n        /* \"#utility.yul\":27605:27666   */\n      mstore\n        /* \"#utility.yul\":27730:27764   */\n      0x4467774c6a49354e4445674e7a59754e7a45794d6941334f5334314f44673251\n        /* \"#utility.yul\":27723:27727   */\n      0x1ce0\n        /* \"#utility.yul\":27715:27721   */\n      dup3\n        /* \"#utility.yul\":27711:27728   */\n      add\n        /* \"#utility.yul\":27704:27765   */\n      mstore\n        /* \"#utility.yul\":27829:27863   */\n      0x7a63334c6a45344d444d674e7a67754f44677a4d6941334e7934304d7a417949\n        /* \"#utility.yul\":27822:27826   */\n      0x1d00\n        /* \"#utility.yul\":27814:27820   */\n      dup3\n        /* \"#utility.yul\":27810:27827   */\n      add\n        /* \"#utility.yul\":27803:27864   */\n      mstore\n        /* \"#utility.yul\":27928:27962   */\n      0x4463344c6a41314e5455674e7a63754e444d78494463334c6a49774f446c574d\n        /* \"#utility.yul\":27921:27925   */\n      0x1d20\n        /* \"#utility.yul\":27913:27919   */\n      dup3\n        /* \"#utility.yul\":27909:27926   */\n      add\n        /* \"#utility.yul\":27902:27963   */\n      mstore\n        /* \"#utility.yul\":28027:28061   */\n      0x7a49754e6a4d774f554d334e7934304d7a45674d7a45754d6a59784e5341334e\n        /* \"#utility.yul\":28020:28024   */\n      0x1d40\n        /* \"#utility.yul\":28012:28018   */\n      dup3\n        /* \"#utility.yul\":28008:28025   */\n      add\n        /* \"#utility.yul\":28001:28062   */\n      mstore\n        /* \"#utility.yul\":28126:28160   */\n      0x7934354e7a5135494449354c6a6b304f4445674e7a67754f54517a4d5341794f\n        /* \"#utility.yul\":28119:28123   */\n      0x1d60\n        /* \"#utility.yul\":28111:28117   */\n      dup3\n        /* \"#utility.yul\":28107:28124   */\n      add\n        /* \"#utility.yul\":28100:28161   */\n      mstore\n        /* \"#utility.yul\":28225:28259   */\n      0x4334354e7a6b33517a63354c6a6b784d544d674d6a67754d4445784d7941344d\n        /* \"#utility.yul\":28218:28222   */\n      0x1d80\n        /* \"#utility.yul\":28210:28216   */\n      dup3\n        /* \"#utility.yul\":28206:28223   */\n      add\n        /* \"#utility.yul\":28199:28260   */\n      mstore\n        /* \"#utility.yul\":28324:28358   */\n      0x5334794d6a5131494449334c6a51324e7a49674f4449754e546b7a4f5341794e\n        /* \"#utility.yul\":28317:28321   */\n      0x1da0\n        /* \"#utility.yul\":28309:28315   */\n      dup3\n        /* \"#utility.yul\":28305:28322   */\n      add\n        /* \"#utility.yul\":28298:28359   */\n      mstore\n        /* \"#utility.yul\":28423:28457   */\n      0x7934304e6a593553446b784c6a49774d554d354d6934314e7a4132494449334c\n        /* \"#utility.yul\":28416:28420   */\n      0x1dc0\n        /* \"#utility.yul\":28408:28414   */\n      dup3\n        /* \"#utility.yul\":28404:28421   */\n      add\n        /* \"#utility.yul\":28397:28458   */\n      mstore\n        /* \"#utility.yul\":28522:28556   */\n      0x6a51324e6a6b674f544d754f446730494449344c6a41784d446b674f5451754f\n        /* \"#utility.yul\":28515:28519   */\n      0x1de0\n        /* \"#utility.yul\":28507:28513   */\n      dup3\n        /* \"#utility.yul\":28503:28520   */\n      add\n        /* \"#utility.yul\":28496:28557   */\n      mstore\n        /* \"#utility.yul\":28621:28655   */\n      0x4455794e5341794f4334354e7a6b30517a6b314c6a67794d446b674d6a6b754f\n        /* \"#utility.yul\":28614:28618   */\n      0x1e00\n        /* \"#utility.yul\":28606:28612   */\n      dup3\n        /* \"#utility.yul\":28602:28619   */\n      add\n        /* \"#utility.yul\":28595:28656   */\n      mstore\n        /* \"#utility.yul\":28720:28754   */\n      0x5451334f4341354e69347a4e6a55674d7a45754d6a59784d7941354e69347a4e\n        /* \"#utility.yul\":28713:28717   */\n      0x1e20\n        /* \"#utility.yul\":28705:28711   */\n      dup3\n        /* \"#utility.yul\":28701:28718   */\n      add\n        /* \"#utility.yul\":28694:28755   */\n      mstore\n        /* \"#utility.yul\":28819:28853   */\n      0x6a55674d7a49754e6a4d774f5659324f53347a4d7a6b35517a45774d7934344d\n        /* \"#utility.yul\":28812:28816   */\n      0x1e40\n        /* \"#utility.yul\":28804:28810   */\n      dup3\n        /* \"#utility.yul\":28800:28817   */\n      add\n        /* \"#utility.yul\":28793:28854   */\n      mstore\n        /* \"#utility.yul\":28918:28952   */\n      0x6a63674e6a4d754f544d784f5341784d5445754d7a6735494455334c6a51794e\n        /* \"#utility.yul\":28911:28915   */\n      0x1e60\n        /* \"#utility.yul\":28903:28909   */\n      dup3\n        /* \"#utility.yul\":28899:28916   */\n      add\n        /* \"#utility.yul\":28892:28953   */\n      mstore\n        /* \"#utility.yul\":29017:29051   */\n      0x7a6b674d5445334c6a4d35494451354c6a59774e6a6c444d5445344c6a49324d\n        /* \"#utility.yul\":29010:29014   */\n      0x1e80\n        /* \"#utility.yul\":29002:29008   */\n      dup3\n        /* \"#utility.yul\":28998:29015   */\n      add\n        /* \"#utility.yul\":28991:29052   */\n      mstore\n        /* \"#utility.yul\":29116:29150   */\n      0x5341304f4334304e7a4533494445784f4334344d7a63674e4463754d544d344e\n        /* \"#utility.yul\":29109:29113   */\n      0x1ea0\n        /* \"#utility.yul\":29101:29107   */\n      dup3\n        /* \"#utility.yul\":29097:29114   */\n      add\n        /* \"#utility.yul\":29090:29151   */\n      mstore\n        /* \"#utility.yul\":29215:29249   */\n      0x6941784d546b754d445933494451314c6a63794e6a64444d5445354c6a49354e\n        /* \"#utility.yul\":29208:29212   */\n      0x1ec0\n        /* \"#utility.yul\":29200:29206   */\n      dup3\n        /* \"#utility.yul\":29196:29213   */\n      add\n        /* \"#utility.yul\":29189:29250   */\n      mstore\n        /* \"#utility.yul\":29314:29348   */\n      0x7941304e43347a4d545134494445784f5334784e7a51674e4449754f4459334f\n        /* \"#utility.yul\":29307:29311   */\n      0x1ee0\n        /* \"#utility.yul\":29299:29305   */\n      dup3\n        /* \"#utility.yul\":29295:29312   */\n      add\n        /* \"#utility.yul\":29288:29349   */\n      mstore\n        /* \"#utility.yul\":29413:29447   */\n      0x4341784d5467754e7a4135494451784c6a55784e446c444d5445314c6a6b7a4d\n        /* \"#utility.yul\":29406:29410   */\n      0x1f00\n        /* \"#utility.yul\":29398:29404   */\n      dup3\n        /* \"#utility.yul\":29394:29411   */\n      add\n        /* \"#utility.yul\":29387:29448   */\n      mstore\n        /* \"#utility.yul\":29512:29546   */\n      0x53417a4d7934314d6a4933494445784d5334314d5459674d6a59754d546b344d\n        /* \"#utility.yul\":29505:29509   */\n      0x1f20\n        /* \"#utility.yul\":29497:29503   */\n      dup3\n        /* \"#utility.yul\":29493:29510   */\n      add\n        /* \"#utility.yul\":29486:29547   */\n      mstore\n        /* \"#utility.yul\":29611:29645   */\n      0x7941784d4455754e7a5131494449774c6a41784d4456444f546b754f54633049\n        /* \"#utility.yul\":29604:29608   */\n      0x1f40\n        /* \"#utility.yul\":29596:29602   */\n      dup3\n        /* \"#utility.yul\":29592:29609   */\n      add\n        /* \"#utility.yul\":29585:29646   */\n      mstore\n        /* \"#utility.yul\":29710:29744   */\n      0x44457a4c6a67794d6a67674f5449754f5463304f5341344c6a6b774e7a673149\n        /* \"#utility.yul\":29703:29707   */\n      0x1f60\n        /* \"#utility.yul\":29695:29701   */\n      dup3\n        /* \"#utility.yul\":29691:29708   */\n      add\n        /* \"#utility.yul\":29684:29745   */\n      mstore\n        /* \"#utility.yul\":29809:29843   */\n      0x4467314c6a45354e5455674e5334314f44417a4d6b4d334e7934304d54597849\n        /* \"#utility.yul\":29802:29806   */\n      0x1f80\n        /* \"#utility.yul\":29794:29800   */\n      dup3\n        /* \"#utility.yul\":29790:29807   */\n      add\n        /* \"#utility.yul\":29783:29844   */\n      mstore\n        /* \"#utility.yul\":29908:29942   */\n      0x4449754d6a55794f4341324f5334774d6a6333494441754e5467314f544d3449\n        /* \"#utility.yul\":29901:29905   */\n      0x1fa0\n        /* \"#utility.yul\":29893:29899   */\n      dup3\n        /* \"#utility.yul\":29889:29906   */\n      add\n        /* \"#utility.yul\":29882:29943   */\n      mstore\n        /* \"#utility.yul\":30007:30041   */\n      0x4459774c6a55324e7a45674d4334324f4459304d545a444e5449754d5441324e\n        /* \"#utility.yul\":30000:30004   */\n      0x1fc0\n        /* \"#utility.yul\":29992:29998   */\n      dup3\n        /* \"#utility.yul\":29988:30005   */\n      add\n        /* \"#utility.yul\":29981:30042   */\n      mstore\n        /* \"#utility.yul\":30106:30140   */\n      0x5341774c6a63344e6a67354d7941304d7934334e6a4178494449754e6a55794e\n        /* \"#utility.yul\":30099:30103   */\n      0x1fe0\n        /* \"#utility.yul\":30091:30097   */\n      dup3\n        /* \"#utility.yul\":30087:30104   */\n      add\n        /* \"#utility.yul\":30080:30141   */\n      mstore\n        /* \"#utility.yul\":30205:30239   */\n      0x53417a4e6934774e6a49674e6934784e6a4d344d304d794f43347a4e6a4d3449\n        /* \"#utility.yul\":30198:30202   */\n      0x2000\n        /* \"#utility.yul\":30190:30196   */\n      dup3\n        /* \"#utility.yul\":30186:30203   */\n      add\n        /* \"#utility.yul\":30179:30240   */\n      mstore\n        /* \"#utility.yul\":30304:30338   */\n      0x446b754e6a63314d5463674d6a45754e44677a4e4341784e4334334e54513549\n        /* \"#utility.yul\":30297:30301   */\n      0x2020\n        /* \"#utility.yul\":30289:30295   */\n      dup3\n        /* \"#utility.yul\":30285:30302   */\n      add\n        /* \"#utility.yul\":30278:30339   */\n      mstore\n        /* \"#utility.yul\":30403:30437   */\n      0x4445314c6a67324d5445674d6a45754d446334517a45774c6a497a4f4467674d\n        /* \"#utility.yul\":30396:30400   */\n      0x2040\n        /* \"#utility.yul\":30388:30394   */\n      dup3\n        /* \"#utility.yul\":30384:30401   */\n      add\n        /* \"#utility.yul\":30377:30438   */\n      mstore\n        /* \"#utility.yul\":30502:30536   */\n      0x6a63754e444178494455754f546b344e4449674d7a51754f4449344d69417a4c\n        /* \"#utility.yul\":30495:30499   */\n      0x2060\n        /* \"#utility.yul\":30487:30493   */\n      dup3\n        /* \"#utility.yul\":30483:30500   */\n      add\n        /* \"#utility.yul\":30476:30537   */\n      mstore\n        /* \"#utility.yul\":30601:30635   */\n      0x6a51784d544d78494451794c6a67344e444a444d4334344d6a51794d4463674e\n        /* \"#utility.yul\":30594:30598   */\n      0x2080\n        /* \"#utility.yul\":30586:30592   */\n      dup3\n        /* \"#utility.yul\":30582:30599   */\n      add\n        /* \"#utility.yul\":30575:30636   */\n      mstore\n        /* \"#utility.yul\":30700:30734   */\n      0x5441754f5451774d5341744d4334774e5449324e446733494455354c6a51304e\n        /* \"#utility.yul\":30693:30697   */\n      0x20a0\n        /* \"#utility.yul\":30685:30691   */\n      dup3\n        /* \"#utility.yul\":30681:30698   */\n      add\n        /* \"#utility.yul\":30674:30735   */\n      mstore\n        /* \"#utility.yul\":30799:30833   */\n      0x7a51674d4334344d7a59344e5445674e6a63754f4459784e304d784c6a63794e\n        /* \"#utility.yul\":30792:30796   */\n      0x20c0\n        /* \"#utility.yul\":30784:30790   */\n      dup3\n        /* \"#utility.yul\":30780:30797   */\n      add\n        /* \"#utility.yul\":30773:30834   */\n      mstore\n        /* \"#utility.yul\":30898:30932   */\n      0x6a4d31494463324c6a49334e6941304c6a4d324d6a597a494467304c6a51784d\n        /* \"#utility.yul\":30891:30895   */\n      0x20e0\n        /* \"#utility.yul\":30883:30889   */\n      dup3\n        /* \"#utility.yul\":30879:30896   */\n      add\n        /* \"#utility.yul\":30872:30933   */\n      mstore\n        /* \"#utility.yul\":30997:31031   */\n      0x546b674f4334314e7a59354e6941354d5334334e446735517a6b754d7a45784d\n        /* \"#utility.yul\":30990:30994   */\n      0x2100\n        /* \"#utility.yul\":30982:30988   */\n      dup3\n        /* \"#utility.yul\":30978:30995   */\n      add\n        /* \"#utility.yul\":30971:31032   */\n      mstore\n        /* \"#utility.yul\":31096:31130   */\n      0x5445674f544d754d4445304e5341784d43347a4f54457949446b304c6a41304e\n        /* \"#utility.yul\":31089:31093   */\n      0x2120\n        /* \"#utility.yul\":31081:31087   */\n      dup3\n        /* \"#utility.yul\":31077:31094   */\n      add\n        /* \"#utility.yul\":31070:31131   */\n      mstore\n        /* \"#utility.yul\":31195:31229   */\n      0x4451674d5445754e6a6b774d7941354e4334334d546331517a45794c6a6b344f\n        /* \"#utility.yul\":31188:31192   */\n      0x2140\n        /* \"#utility.yul\":31180:31186   */\n      dup3\n        /* \"#utility.yul\":31176:31193   */\n      add\n        /* \"#utility.yul\":31169:31230   */\n      mstore\n        /* \"#utility.yul\":31294:31328   */\n      0x5451674f5455754d7a6b774e6941784e4334304e544d3249446b314c6a59334f\n        /* \"#utility.yul\":31287:31291   */\n      0x2160\n        /* \"#utility.yul\":31279:31285   */\n      dup3\n        /* \"#utility.yul\":31275:31292   */\n      add\n        /* \"#utility.yul\":31268:31329   */\n      mstore\n        /* \"#utility.yul\":31393:31427   */\n      0x5341784e5334354d5445674f5455754e5451344f554d784e7934314d7a6b674f\n        /* \"#utility.yul\":31386:31390   */\n      0x2180\n        /* \"#utility.yul\":31378:31384   */\n      dup3\n        /* \"#utility.yul\":31374:31391   */\n      add\n        /* \"#utility.yul\":31367:31428   */\n      mstore\n        /* \"#utility.yul\":31492:31526   */\n      0x5455754e4441314f5341784f5334314e6a59674f5455754d6a41794f5341794d\n        /* \"#utility.yul\":31485:31489   */\n      0x21a0\n        /* \"#utility.yul\":31477:31483   */\n      dup3\n        /* \"#utility.yul\":31473:31490   */\n      add\n        /* \"#utility.yul\":31466:31527   */\n      mstore\n        /* \"#utility.yul\":31591:31625   */\n      0x5334354e7a59674f5451754f5445354f554d794d7934774d6a557849446b304c\n        /* \"#utility.yul\":31584:31588   */\n      0x21c0\n        /* \"#utility.yul\":31576:31582   */\n      dup3\n        /* \"#utility.yul\":31572:31589   */\n      add\n        /* \"#utility.yul\":31565:31626   */\n      mstore\n        /* \"#utility.yul\":31690:31724   */\n      0x6a67774d4467674d6a4d754f546b7a4e7941354e4334794f546b35494449304c\n        /* \"#utility.yul\":31683:31687   */\n      0x21e0\n        /* \"#utility.yul\":31675:31681   */\n      dup3\n        /* \"#utility.yul\":31671:31688   */\n      add\n        /* \"#utility.yul\":31664:31725   */\n      mstore\n        /* \"#utility.yul\":31789:31823   */\n      0x6a59354e7a49674f544d754e5445794e6b4d794e5334304d44413449446b794c\n        /* \"#utility.yul\":31782:31786   */\n      0x2200\n        /* \"#utility.yul\":31774:31780   */\n      dup3\n        /* \"#utility.yul\":31770:31787   */\n      add\n        /* \"#utility.yul\":31763:31824   */\n      mstore\n        /* \"#utility.yul\":31888:31922   */\n      0x6a63794e544d674d6a55754e7a6b774d5341354d5334334d445933494449314c\n        /* \"#utility.yul\":31881:31885   */\n      0x2220\n        /* \"#utility.yul\":31873:31879   */\n      dup3\n        /* \"#utility.yul\":31869:31886   */\n      add\n        /* \"#utility.yul\":31862:31923   */\n      mstore\n        /* \"#utility.yul\":31987:32021   */\n      0x6a63354d5341354d4334324e544135544449314c6a6335494455344c6a51784e\n        /* \"#utility.yul\":31980:31984   */\n      0x2240\n        /* \"#utility.yul\":31972:31978   */\n      dup3\n        /* \"#utility.yul\":31968:31985   */\n      add\n        /* \"#utility.yul\":31961:32022   */\n      mstore\n        /* \"#utility.yul\":32086:32120   */\n      0x446c614969426d615778735053496a4d6a457a4d6a56434969382b44516f3863\n        /* \"#utility.yul\":32079:32083   */\n      0x2260\n        /* \"#utility.yul\":32071:32077   */\n      dup3\n        /* \"#utility.yul\":32067:32084   */\n      add\n        /* \"#utility.yul\":32060:32121   */\n      mstore\n        /* \"#utility.yul\":32185:32219   */\n      0x4746306143426b50534a4e4d6a55754e6a41794d5341784d5441754e5446444d\n        /* \"#utility.yul\":32178:32182   */\n      0x2280\n        /* \"#utility.yul\":32170:32176   */\n      dup3\n        /* \"#utility.yul\":32166:32183   */\n      add\n        /* \"#utility.yul\":32159:32220   */\n      mstore\n        /* \"#utility.yul\":32284:32318   */\n      0x7a51754e6a63304e4341784d5463754d5445674e4455754d7a6b314f5341784d\n        /* \"#utility.yul\":32277:32281   */\n      0x22a0\n        /* \"#utility.yul\":32269:32275   */\n      dup3\n        /* \"#utility.yul\":32265:32282   */\n      add\n        /* \"#utility.yul\":32258:32319   */\n      mstore\n        /* \"#utility.yul\":32383:32417   */\n      0x6a45754d446379494455324c6a55344d4449674d5449784c6a6b314e304d324e\n        /* \"#utility.yul\":32376:32380   */\n      0x22c0\n        /* \"#utility.yul\":32368:32374   */\n      dup3\n        /* \"#utility.yul\":32364:32381   */\n      add\n        /* \"#utility.yul\":32357:32418   */\n      mstore\n        /* \"#utility.yul\":32482:32516   */\n      0x7934334e6a5132494445794d6934344e4445674e7a67754f5463314e7941784d\n        /* \"#utility.yul\":32475:32479   */\n      0x22e0\n        /* \"#utility.yul\":32467:32473   */\n      dup3\n        /* \"#utility.yul\":32463:32480   */\n      add\n        /* \"#utility.yul\":32456:32517   */\n      mstore\n        /* \"#utility.yul\":32581:32615   */\n      0x6a41754e6a4531494467344c6a6b334d7a45674d5445314c6a55794d304d354f\n        /* \"#utility.yul\":32574:32578   */\n      0x2300\n        /* \"#utility.yul\":32566:32572   */\n      dup3\n        /* \"#utility.yul\":32562:32579   */\n      add\n        /* \"#utility.yul\":32555:32616   */\n      mstore\n        /* \"#utility.yul\":32680:32714   */\n      0x4334354e7a4131494445784d4334304d7a45674d5441334c6a4d324e4341784d\n        /* \"#utility.yul\":32673:32677   */\n      0x2320\n        /* \"#utility.yul\":32665:32671   */\n      dup3\n        /* \"#utility.yul\":32661:32678   */\n      add\n        /* \"#utility.yul\":32654:32715   */\n      mstore\n        /* \"#utility.yul\":32779:32813   */\n      0x4449754e6a637a494445784d7934794d6a59674f544d754d5441324f454d784d\n        /* \"#utility.yul\":32772:32776   */\n      0x2340\n        /* \"#utility.yul\":32764:32770   */\n      dup3\n        /* \"#utility.yul\":32760:32777   */\n      add\n        /* \"#utility.yul\":32753:32814   */\n      mstore\n        /* \"#utility.yul\":32878:32912   */\n      0x546b754d4467334944677a4c6a55304d4455674d5449794c6a45344f4341334d\n        /* \"#utility.yul\":32871:32875   */\n      0x2360\n        /* \"#utility.yul\":32863:32869   */\n      dup3\n        /* \"#utility.yul\":32859:32876   */\n      add\n        /* \"#utility.yul\":32852:32913   */\n      mstore\n        /* \"#utility.yul\":32977:33011   */\n      0x6934314d7a6b674d5449794c6a45344e5341324d53347a4d546b33517a45794d\n        /* \"#utility.yul\":32970:32974   */\n      0x2380\n        /* \"#utility.yul\":32962:32968   */\n      dup3\n        /* \"#utility.yul\":32958:32975   */\n      add\n        /* \"#utility.yul\":32951:33012   */\n      mstore\n        /* \"#utility.yul\":33076:33110   */\n      0x6934784f4455674e546b754f5445354e7941784d6a49754d5449674e5467754e\n        /* \"#utility.yul\":33069:33073   */\n      0x23a0\n        /* \"#utility.yul\":33061:33067   */\n      dup3\n        /* \"#utility.yul\":33057:33074   */\n      add\n        /* \"#utility.yul\":33050:33111   */\n      mstore\n        /* \"#utility.yul\":33175:33209   */\n      0x544d304e7941784d6a49754d444933494455334c6a45314e7a64444f546b754f\n        /* \"#utility.yul\":33168:33172   */\n      0x23c0\n        /* \"#utility.yul\":33160:33166   */\n      dup3\n        /* \"#utility.yul\":33156:33173   */\n      add\n        /* \"#utility.yul\":33149:33210   */\n      mstore\n        /* \"#utility.yul\":33274:33308   */\n      0x44413449446b774c6a49354e5463674e5467754e7a677a4d5341784d4455754e\n        /* \"#utility.yul\":33267:33271   */\n      0x23e0\n        /* \"#utility.yul\":33259:33265   */\n      dup3\n        /* \"#utility.yul\":33255:33272   */\n      add\n        /* \"#utility.yul\":33248:33309   */\n      mstore\n        /* \"#utility.yul\":33373:33407   */\n      0x7a6734494449314c6a59774e4341784d5441754e5441314969426d6157787350\n        /* \"#utility.yul\":33366:33370   */\n      0x2400\n        /* \"#utility.yul\":33358:33364   */\n      dup3\n        /* \"#utility.yul\":33354:33371   */\n      add\n        /* \"#utility.yul\":33347:33408   */\n      mstore\n        /* \"#utility.yul\":33472:33506   */\n      0x53496a4f5463354e6a6b314969382b44516f384c334e325a7a344e43673d3d27\n        /* \"#utility.yul\":33465:33469   */\n      0x2420\n        /* \"#utility.yul\":33457:33463   */\n      dup3\n        /* \"#utility.yul\":33453:33470   */\n      add\n        /* \"#utility.yul\":33446:33507   */\n      mstore\n        /* \"#utility.yul\":33571:33605   */\n      0x2f3e3c2f613e3c2f7370616e3e3c2f6469763e3c2f74643e3c2f74723e3c7472\n        /* \"#utility.yul\":33564:33568   */\n      0x2440\n        /* \"#utility.yul\":33556:33562   */\n      dup3\n        /* \"#utility.yul\":33552:33569   */\n      add\n        /* \"#utility.yul\":33545:33606   */\n      mstore\n        /* \"#utility.yul\":33670:33704   */\n      0x3e3c74642076616c69676e3d276d6964646c652720616c69676e3d276c656674\n        /* \"#utility.yul\":33663:33667   */\n      0x2460\n        /* \"#utility.yul\":33655:33661   */\n      dup3\n        /* \"#utility.yul\":33651:33668   */\n      add\n        /* \"#utility.yul\":33644:33705   */\n      mstore\n        /* \"#utility.yul\":33769:33803   */\n      0x2720636c6173733d276c696768742d6267273e3c756c20616c69676e3d276c65\n        /* \"#utility.yul\":33762:33766   */\n      0x2480\n        /* \"#utility.yul\":33754:33760   */\n      dup3\n        /* \"#utility.yul\":33750:33767   */\n      add\n        /* \"#utility.yul\":33743:33804   */\n      mstore\n        /* \"#utility.yul\":33868:33902   */\n      0x667427207374796c653d2770616464696e672d6c6566743a20313570783b666f\n        /* \"#utility.yul\":33861:33865   */\n      0x24a0\n        /* \"#utility.yul\":33853:33859   */\n      dup3\n        /* \"#utility.yul\":33849:33866   */\n      add\n        /* \"#utility.yul\":33842:33903   */\n      mstore\n        /* \"#utility.yul\":33967:34001   */\n      0x6e742d73697a653a20313070783b273e3c6c6920636c6173733d276c69676874\n        /* \"#utility.yul\":33960:33964   */\n      0x24c0\n        /* \"#utility.yul\":33952:33958   */\n      dup3\n        /* \"#utility.yul\":33948:33965   */\n      add\n        /* \"#utility.yul\":33941:34002   */\n      mstore\n        /* \"#utility.yul\":34066:34100   */\n      0x2d746578742d33273e426c6f636b3a20247b7472616e73616374696f6e546578\n        /* \"#utility.yul\":34059:34063   */\n      0x24e0\n        /* \"#utility.yul\":34051:34057   */\n      dup3\n        /* \"#utility.yul\":34047:34064   */\n      add\n        /* \"#utility.yul\":34040:34101   */\n      mstore\n        /* \"#utility.yul\":34165:34199   */\n      0x74732e626c6f636b7d3c2f6c693e3c6c6920636c6173733d276c696768742d74\n        /* \"#utility.yul\":34158:34162   */\n      0x2500\n        /* \"#utility.yul\":34150:34156   */\n      dup3\n        /* \"#utility.yul\":34146:34163   */\n      add\n        /* \"#utility.yul\":34139:34200   */\n      mstore\n        /* \"#utility.yul\":34264:34298   */\n      0x6578742d33273e4c6f636174696f6e3a20554e4b4e4f574e3c2f6c693e3c2f75\n        /* \"#utility.yul\":34257:34261   */\n      0x2520\n        /* \"#utility.yul\":34249:34255   */\n      dup3\n        /* \"#utility.yul\":34245:34262   */\n      add\n        /* \"#utility.yul\":34238:34299   */\n      mstore\n        /* \"#utility.yul\":34363:34397   */\n      0x6c3e3c2f74643e3c746420616c69676e3d2763656e746572272076616c69676e\n        /* \"#utility.yul\":34356:34360   */\n      0x2540\n        /* \"#utility.yul\":34348:34354   */\n      dup3\n        /* \"#utility.yul\":34344:34361   */\n      add\n        /* \"#utility.yul\":34337:34398   */\n      mstore\n        /* \"#utility.yul\":34462:34496   */\n      0x3d276d6964646c652720636c6173733d276c696768742d6267273e3c666f6e74\n        /* \"#utility.yul\":34455:34459   */\n      0x2560\n        /* \"#utility.yul\":34447:34453   */\n      dup3\n        /* \"#utility.yul\":34443:34460   */\n      add\n        /* \"#utility.yul\":34436:34497   */\n      mstore\n        /* \"#utility.yul\":34561:34595   */\n      0x20636c6173733d27726567756c61725f74657874273e3c64697620636c617373\n        /* \"#utility.yul\":34554:34558   */\n      0x2580\n        /* \"#utility.yul\":34546:34552   */\n      dup3\n        /* \"#utility.yul\":34542:34559   */\n      add\n        /* \"#utility.yul\":34535:34596   */\n      mstore\n        /* \"#utility.yul\":34660:34694   */\n      0x3d27706f7374207265706c79273e3c626c6f636b71756f7465207374796c653d\n        /* \"#utility.yul\":34653:34657   */\n      0x25a0\n        /* \"#utility.yul\":34645:34651   */\n      dup3\n        /* \"#utility.yul\":34641:34658   */\n      add\n        /* \"#utility.yul\":34634:34695   */\n      mstore\n        /* \"#utility.yul\":34759:34793   */\n      0x2777686974652d73706163653a207072652d6c696e653b6d617267696e2d746f\n        /* \"#utility.yul\":34752:34756   */\n      0x25c0\n        /* \"#utility.yul\":34744:34750   */\n      dup3\n        /* \"#utility.yul\":34740:34757   */\n      add\n        /* \"#utility.yul\":34733:34794   */\n      mstore\n        /* \"#utility.yul\":34858:34892   */\n      0x703a3070783b2720636c6173733d27706f73744d657373616765206c69676874\n        /* \"#utility.yul\":34851:34855   */\n      0x25e0\n        /* \"#utility.yul\":34843:34849   */\n      dup3\n        /* \"#utility.yul\":34839:34856   */\n      add\n        /* \"#utility.yul\":34832:34893   */\n      mstore\n        /* \"#utility.yul\":34957:34991   */\n      0x2d746578742d32272069643d276d3334303739393833273e3c62723e247b7472\n        /* \"#utility.yul\":34950:34954   */\n      0x2600\n        /* \"#utility.yul\":34942:34948   */\n      dup3\n        /* \"#utility.yul\":34938:34955   */\n      add\n        /* \"#utility.yul\":34931:34992   */\n      mstore\n        /* \"#utility.yul\":35056:35090   */\n      0x616e73616374696f6e54657874732e746578747d3c2f626c6f636b71756f7465\n        /* \"#utility.yul\":35049:35053   */\n      0x2620\n        /* \"#utility.yul\":35041:35047   */\n      dup3\n        /* \"#utility.yul\":35037:35054   */\n      add\n        /* \"#utility.yul\":35030:35091   */\n      mstore\n        /* \"#utility.yul\":35151:35185   */\n      0x3e3c2f6469763e3c2f666f6e743e3c2f74643e3c2f74723e60293b617070656e\n        /* \"#utility.yul\":35144:35148   */\n      0x2640\n        /* \"#utility.yul\":35136:35142   */\n      dup3\n        /* \"#utility.yul\":35132:35149   */\n      add\n        /* \"#utility.yul\":35125:35186   */\n      mstore\n        /* \"#utility.yul\":35246:35280   */\n      0x644c6f6164696e67526f7728293b6966286d6f64653d3d3d31297b7365744461\n        /* \"#utility.yul\":35239:35243   */\n      0x2660\n        /* \"#utility.yul\":35231:35237   */\n      dup3\n        /* \"#utility.yul\":35227:35244   */\n      add\n        /* \"#utility.yul\":35220:35281   */\n      mstore\n        /* \"#utility.yul\":35333:35367   */\n      0x726b28297d656c73657b7365744c6967687428297d7d7d66756e6374696f6e20\n        /* \"#utility.yul\":35326:35330   */\n      0x2680\n        /* \"#utility.yul\":35318:35324   */\n      dup3\n        /* \"#utility.yul\":35314:35331   */\n      add\n        /* \"#utility.yul\":35307:35368   */\n      mstore\n        /* \"#utility.yul\":35420:35454   */\n      0x736f7274427954696d6528612c62297b72657475726e20612e74696d653e622e\n        /* \"#utility.yul\":35413:35417   */\n      0x26a0\n        /* \"#utility.yul\":35405:35411   */\n      dup3\n        /* \"#utility.yul\":35401:35418   */\n      add\n        /* \"#utility.yul\":35394:35455   */\n      mstore\n        /* \"#utility.yul\":35507:35541   */\n      0x74696d653f313a2d317d66756e6374696f6e20757064617465436c6f636b2829\n        /* \"#utility.yul\":35500:35504   */\n      0x26c0\n        /* \"#utility.yul\":35492:35498   */\n      dup3\n        /* \"#utility.yul\":35488:35505   */\n      add\n        /* \"#utility.yul\":35481:35542   */\n      mstore\n        /* \"#utility.yul\":35594:35628   */\n      0x7b636f6e7374206e6f773d6e657720446174653b636f6e737420686f7572733d\n        /* \"#utility.yul\":35587:35591   */\n      0x26e0\n        /* \"#utility.yul\":35579:35585   */\n      dup3\n        /* \"#utility.yul\":35575:35592   */\n      add\n        /* \"#utility.yul\":35568:35629   */\n      mstore\n        /* \"#utility.yul\":35685:35719   */\n      0x537472696e67286e6f772e676574486f7572732829292e706164537461727428\n        /* \"#utility.yul\":35678:35682   */\n      0x2700\n        /* \"#utility.yul\":35670:35676   */\n      dup3\n        /* \"#utility.yul\":35666:35683   */\n      add\n        /* \"#utility.yul\":35659:35720   */\n      mstore\n        /* \"#utility.yul\":35781:35815   */\n      0x322c273027293b636f6e7374206d696e757465733d537472696e67286e6f772e\n        /* \"#utility.yul\":35773:35778   */\n      0x2720\n        /* \"#utility.yul\":35765:35771   */\n      dup3\n        /* \"#utility.yul\":35761:35779   */\n      add\n        /* \"#utility.yul\":35754:35816   */\n      mstore\n        /* \"#utility.yul\":35873:35907   */\n      0x6765744d696e757465732829292e706164537461727428322c273027293b636f\n        /* \"#utility.yul\":35865:35870   */\n      0x2740\n        /* \"#utility.yul\":35857:35863   */\n      dup3\n        /* \"#utility.yul\":35853:35871   */\n      add\n        /* \"#utility.yul\":35846:35908   */\n      mstore\n        /* \"#utility.yul\":35965:35999   */\n      0x6e7374207365636f6e64733d537472696e67286e6f772e6765745365636f6e64\n        /* \"#utility.yul\":35957:35962   */\n      0x2760\n        /* \"#utility.yul\":35949:35955   */\n      dup3\n        /* \"#utility.yul\":35945:35963   */\n      add\n        /* \"#utility.yul\":35938:36000   */\n      mstore\n        /* \"#utility.yul\":36057:36091   */\n      0x732829292e706164537461727428322c273027293b636f6e7374206d6f6e7468\n        /* \"#utility.yul\":36049:36054   */\n      0x2780\n        /* \"#utility.yul\":36041:36047   */\n      dup3\n        /* \"#utility.yul\":36037:36055   */\n      add\n        /* \"#utility.yul\":36030:36092   */\n      mstore\n        /* \"#utility.yul\":36149:36183   */\n      0x4e616d65733d5b274a616e75617279272c274665627275617279272c274d6172\n        /* \"#utility.yul\":36141:36146   */\n      0x27a0\n        /* \"#utility.yul\":36133:36139   */\n      dup3\n        /* \"#utility.yul\":36129:36147   */\n      add\n        /* \"#utility.yul\":36122:36184   */\n      mstore\n        /* \"#utility.yul\":36241:36275   */\n      0x6368272c27417072696c272c274d6179272c274a756e65272c274a756c79272c\n        /* \"#utility.yul\":36233:36238   */\n      0x27c0\n        /* \"#utility.yul\":36225:36231   */\n      dup3\n        /* \"#utility.yul\":36221:36239   */\n      add\n        /* \"#utility.yul\":36214:36276   */\n      mstore\n        /* \"#utility.yul\":36333:36367   */\n      0x27417567757374272c2753657074656d626572272c274f63746f626572272c27\n        /* \"#utility.yul\":36325:36330   */\n      0x27e0\n        /* \"#utility.yul\":36317:36323   */\n      dup3\n        /* \"#utility.yul\":36313:36331   */\n      add\n        /* \"#utility.yul\":36306:36368   */\n      mstore\n        /* \"#utility.yul\":36425:36459   */\n      0x4e6f76656d626572272c27446563656d626572275d3b636f6e7374206d6f6e74\n        /* \"#utility.yul\":36417:36422   */\n      0x2800\n        /* \"#utility.yul\":36409:36415   */\n      dup3\n        /* \"#utility.yul\":36405:36423   */\n      add\n        /* \"#utility.yul\":36398:36460   */\n      mstore\n        /* \"#utility.yul\":36517:36551   */\n      0x683d6d6f6e74684e616d65735b6e6f772e6765744d6f6e746828295d3b636f6e\n        /* \"#utility.yul\":36509:36514   */\n      0x2820\n        /* \"#utility.yul\":36501:36507   */\n      dup3\n        /* \"#utility.yul\":36497:36515   */\n      add\n        /* \"#utility.yul\":36490:36552   */\n      mstore\n        /* \"#utility.yul\":36609:36643   */\n      0x7374206461793d6e6f772e6765744461746528293b636f6e737420796561723d\n        /* \"#utility.yul\":36601:36606   */\n      0x2840\n        /* \"#utility.yul\":36593:36599   */\n      dup3\n        /* \"#utility.yul\":36589:36607   */\n      add\n        /* \"#utility.yul\":36582:36644   */\n      mstore\n        /* \"#utility.yul\":36701:36735   */\n      0x6e6f772e67657446756c6c5965617228293b636f6e7374207375666669783d64\n        /* \"#utility.yul\":36693:36698   */\n      0x2860\n        /* \"#utility.yul\":36685:36691   */\n      dup3\n        /* \"#utility.yul\":36681:36699   */\n      add\n        /* \"#utility.yul\":36674:36736   */\n      mstore\n        /* \"#utility.yul\":36793:36827   */\n      0x61793d3e7b6966286461793e3326266461793c32312972657475726e27746827\n        /* \"#utility.yul\":36785:36790   */\n      0x2880\n        /* \"#utility.yul\":36777:36783   */\n      dup3\n        /* \"#utility.yul\":36773:36791   */\n      add\n        /* \"#utility.yul\":36766:36828   */\n      mstore\n        /* \"#utility.yul\":36889:36923   */\n      0x3b73776974636828646179253130297b6361736520313a72657475726e277374\n        /* \"#utility.yul\":36881:36886   */\n      0x28a0\n        /* \"#utility.yul\":36873:36879   */\n      dup3\n        /* \"#utility.yul\":36869:36887   */\n      add\n        /* \"#utility.yul\":36862:36924   */\n      mstore\n        /* \"#utility.yul\":36989:37023   */\n      0x273b6361736520323a72657475726e276e64273b6361736520333a7265747572\n        /* \"#utility.yul\":36981:36986   */\n      0x28c0\n        /* \"#utility.yul\":36973:36979   */\n      dup3\n        /* \"#utility.yul\":36969:36987   */\n      add\n        /* \"#utility.yul\":36962:37024   */\n      mstore\n        /* \"#utility.yul\":37081:37115   */\n      0x6e277264273b64656661756c743a72657475726e277468277d7d3b636f6e7374\n        /* \"#utility.yul\":37073:37078   */\n      0x28e0\n        /* \"#utility.yul\":37065:37071   */\n      dup3\n        /* \"#utility.yul\":37061:37079   */\n      add\n        /* \"#utility.yul\":37054:37116   */\n      mstore\n        /* \"#utility.yul\":37173:37207   */\n      0x2066756c6c446174653d60247b6d6f6e74687d20247b6461797d247b73756666\n        /* \"#utility.yul\":37165:37170   */\n      0x2900\n        /* \"#utility.yul\":37157:37163   */\n      dup3\n        /* \"#utility.yul\":37153:37171   */\n      add\n        /* \"#utility.yul\":37146:37208   */\n      mstore\n        /* \"#utility.yul\":37269:37303   */\n      0x697828646179297d2c20247b796561727d20247b686f7572737d3a247b6d696e\n        /* \"#utility.yul\":37261:37266   */\n      0x2920\n        /* \"#utility.yul\":37253:37259   */\n      dup3\n        /* \"#utility.yul\":37249:37267   */\n      add\n        /* \"#utility.yul\":37242:37304   */\n      mstore\n        /* \"#utility.yul\":37365:37399   */\n      0x757465737d3a247b7365636f6e64737d603b2428272e63757272656e742d7469\n        /* \"#utility.yul\":37357:37362   */\n      0x2940\n        /* \"#utility.yul\":37349:37355   */\n      dup3\n        /* \"#utility.yul\":37345:37363   */\n      add\n        /* \"#utility.yul\":37338:37400   */\n      mstore\n        /* \"#utility.yul\":37457:37491   */\n      0x6d6527292e746578742866756c6c44617465297d736574496e74657276616c28\n        /* \"#utility.yul\":37449:37454   */\n      0x2960\n        /* \"#utility.yul\":37441:37447   */\n      dup3\n        /* \"#utility.yul\":37437:37455   */\n      add\n        /* \"#utility.yul\":37430:37492   */\n      mstore\n        /* \"#utility.yul\":37545:37579   */\n      0x757064617465436c6f636b2c316533293b757064617465436c6f636b28293b24\n        /* \"#utility.yul\":37537:37542   */\n      0x2980\n        /* \"#utility.yul\":37529:37535   */\n      dup3\n        /* \"#utility.yul\":37525:37543   */\n      add\n        /* \"#utility.yul\":37518:37580   */\n      mstore\n        /* \"#utility.yul\":37633:37667   */\n      0x28646f63756d656e74292e7265616479282866756e6374696f6e28297b242827\n        /* \"#utility.yul\":37625:37630   */\n      0x29a0\n        /* \"#utility.yul\":37617:37623   */\n      dup3\n        /* \"#utility.yul\":37613:37631   */\n      add\n        /* \"#utility.yul\":37606:37668   */\n      mstore\n        /* \"#utility.yul\":37721:37755   */\n      0x23706f73742d7772617070657227292e66616465496e28297d29293b66756e63\n        /* \"#utility.yul\":37713:37718   */\n      0x29c0\n        /* \"#utility.yul\":37705:37711   */\n      dup3\n        /* \"#utility.yul\":37701:37719   */\n      add\n        /* \"#utility.yul\":37694:37756   */\n      mstore\n        /* \"#utility.yul\":37809:37843   */\n      0x74696f6e207365744461726b28297b242827236d6f64652d7377697463682729\n        /* \"#utility.yul\":37801:37806   */\n      0x29e0\n        /* \"#utility.yul\":37793:37799   */\n      dup3\n        /* \"#utility.yul\":37789:37807   */\n      add\n        /* \"#utility.yul\":37782:37844   */\n      mstore\n        /* \"#utility.yul\":37901:37935   */\n      0x2e637373282766696c746572272c27696e76657274282e37352927293b242827\n        /* \"#utility.yul\":37893:37898   */\n      0x2a00\n        /* \"#utility.yul\":37885:37891   */\n      dup3\n        /* \"#utility.yul\":37881:37899   */\n      add\n        /* \"#utility.yul\":37874:37936   */\n      mstore\n        /* \"#utility.yul\":37997:38031   */\n      0x2e6c696768742d7465787427292e72656d6f7665436c61737328276c69676874\n        /* \"#utility.yul\":37989:37994   */\n      0x2a20\n        /* \"#utility.yul\":37981:37987   */\n      dup3\n        /* \"#utility.yul\":37977:37995   */\n      add\n        /* \"#utility.yul\":37970:38032   */\n      mstore\n        /* \"#utility.yul\":38093:38127   */\n      0x2d7465787427292e616464436c61737328276461726b2d7465787427293b2428\n        /* \"#utility.yul\":38085:38090   */\n      0x2a40\n        /* \"#utility.yul\":38077:38083   */\n      dup3\n        /* \"#utility.yul\":38073:38091   */\n      add\n        /* \"#utility.yul\":38066:38128   */\n      mstore\n        /* \"#utility.yul\":38189:38223   */\n      0x272e6c696768742d746578742d3227292e72656d6f7665436c61737328276c69\n        /* \"#utility.yul\":38181:38186   */\n      0x2a60\n        /* \"#utility.yul\":38173:38179   */\n      dup3\n        /* \"#utility.yul\":38169:38187   */\n      add\n        /* \"#utility.yul\":38162:38224   */\n      mstore\n        /* \"#utility.yul\":38285:38319   */\n      0x6768742d746578742d3227292e616464436c61737328276461726b2d74657874\n        /* \"#utility.yul\":38277:38282   */\n      0x2a80\n        /* \"#utility.yul\":38269:38275   */\n      dup3\n        /* \"#utility.yul\":38265:38283   */\n      add\n        /* \"#utility.yul\":38258:38320   */\n      mstore\n        /* \"#utility.yul\":38377:38411   */\n      0x2d3227293b2428272e6c696768742d746578742d3327292e72656d6f7665436c\n        /* \"#utility.yul\":38369:38374   */\n      0x2aa0\n        /* \"#utility.yul\":38361:38367   */\n      dup3\n        /* \"#utility.yul\":38357:38375   */\n      add\n        /* \"#utility.yul\":38350:38412   */\n      mstore\n        /* \"#utility.yul\":38469:38503   */\n      0x61737328276c696768742d746578742d3327292e616464436c61737328276461\n        /* \"#utility.yul\":38461:38466   */\n      0x2ac0\n        /* \"#utility.yul\":38453:38459   */\n      dup3\n        /* \"#utility.yul\":38449:38467   */\n      add\n        /* \"#utility.yul\":38442:38504   */\n      mstore\n        /* \"#utility.yul\":38561:38595   */\n      0x726b2d746578742d3327293b2428272e6c696768742d746578742d3427292e72\n        /* \"#utility.yul\":38553:38558   */\n      0x2ae0\n        /* \"#utility.yul\":38545:38551   */\n      dup3\n        /* \"#utility.yul\":38541:38559   */\n      add\n        /* \"#utility.yul\":38534:38596   */\n      mstore\n        /* \"#utility.yul\":38653:38687   */\n      0x656d6f7665436c61737328276c696768742d746578742d3427292e616464436c\n        /* \"#utility.yul\":38645:38650   */\n      0x2b00\n        /* \"#utility.yul\":38637:38643   */\n      dup3\n        /* \"#utility.yul\":38633:38651   */\n      add\n        /* \"#utility.yul\":38626:38688   */\n      mstore\n        /* \"#utility.yul\":38745:38779   */\n      0x61737328276461726b2d746578742d3427293b2428272e6c696768742d626727\n        /* \"#utility.yul\":38737:38742   */\n      0x2b20\n        /* \"#utility.yul\":38729:38735   */\n      dup3\n        /* \"#utility.yul\":38725:38743   */\n      add\n        /* \"#utility.yul\":38718:38780   */\n      mstore\n        /* \"#utility.yul\":38837:38871   */\n      0x292e72656d6f7665436c61737328276c696768742d626727292e616464436c61\n        /* \"#utility.yul\":38829:38834   */\n      0x2b40\n        /* \"#utility.yul\":38821:38827   */\n      dup3\n        /* \"#utility.yul\":38817:38835   */\n      add\n        /* \"#utility.yul\":38810:38872   */\n      mstore\n        /* \"#utility.yul\":38929:38963   */\n      0x737328276461726b2d626727293b2428272e6c696768742d62672d3227292e72\n        /* \"#utility.yul\":38921:38926   */\n      0x2b60\n        /* \"#utility.yul\":38913:38919   */\n      dup3\n        /* \"#utility.yul\":38909:38927   */\n      add\n        /* \"#utility.yul\":38902:38964   */\n      mstore\n        /* \"#utility.yul\":39021:39055   */\n      0x656d6f7665436c61737328276c696768742d62672d3227292e616464436c6173\n        /* \"#utility.yul\":39013:39018   */\n      0x2b80\n        /* \"#utility.yul\":39005:39011   */\n      dup3\n        /* \"#utility.yul\":39001:39019   */\n      add\n        /* \"#utility.yul\":38994:39056   */\n      mstore\n        /* \"#utility.yul\":39113:39147   */\n      0x7328276461726b2d62672d3227293b2428272e6c696768742d626f726465722d\n        /* \"#utility.yul\":39105:39110   */\n      0x2ba0\n        /* \"#utility.yul\":39097:39103   */\n      dup3\n        /* \"#utility.yul\":39093:39111   */\n      add\n        /* \"#utility.yul\":39086:39148   */\n      mstore\n        /* \"#utility.yul\":39209:39243   */\n      0x3227292e72656d6f7665436c61737328276c696768742d626f726465722d3227\n        /* \"#utility.yul\":39201:39206   */\n      0x2bc0\n        /* \"#utility.yul\":39193:39199   */\n      dup3\n        /* \"#utility.yul\":39189:39207   */\n      add\n        /* \"#utility.yul\":39182:39244   */\n      mstore\n        /* \"#utility.yul\":39305:39339   */\n      0x292e616464436c61737328276461726b2d626f726465722d3227293b2428272e\n        /* \"#utility.yul\":39297:39302   */\n      0x2be0\n        /* \"#utility.yul\":39289:39295   */\n      dup3\n        /* \"#utility.yul\":39285:39303   */\n      add\n        /* \"#utility.yul\":39278:39340   */\n      mstore\n        /* \"#utility.yul\":39401:39435   */\n      0x6c696768742d626f7264657227292e72656d6f7665436c61737328276c696768\n        /* \"#utility.yul\":39393:39398   */\n      0x2c00\n        /* \"#utility.yul\":39385:39391   */\n      dup3\n        /* \"#utility.yul\":39381:39399   */\n      add\n        /* \"#utility.yul\":39374:39436   */\n      mstore\n        /* \"#utility.yul\":39497:39531   */\n      0x742d626f7264657227292e616464436c61737328276461726b2d626f72646572\n        /* \"#utility.yul\":39489:39494   */\n      0x2c20\n        /* \"#utility.yul\":39481:39487   */\n      dup3\n        /* \"#utility.yul\":39477:39495   */\n      add\n        /* \"#utility.yul\":39470:39532   */\n      mstore\n        /* \"#utility.yul\":39593:39627   */\n      0x27293b2428272e6c696768742d6c696e6b27292e72656d6f7665436c61737328\n        /* \"#utility.yul\":39585:39590   */\n      0x2c40\n        /* \"#utility.yul\":39577:39583   */\n      dup3\n        /* \"#utility.yul\":39573:39591   */\n      add\n        /* \"#utility.yul\":39566:39628   */\n      mstore\n        /* \"#utility.yul\":39689:39723   */\n      0x276c696768742d6c696e6b27292e616464436c61737328276461726b2d6c696e\n        /* \"#utility.yul\":39681:39686   */\n      0x2c60\n        /* \"#utility.yul\":39673:39679   */\n      dup3\n        /* \"#utility.yul\":39669:39687   */\n      add\n        /* \"#utility.yul\":39662:39724   */\n      mstore\n        /* \"#utility.yul\":39785:39819   */\n      0x6b27297d66756e6374696f6e207365744c6967687428297b242827236d6f6465\n        /* \"#utility.yul\":39777:39782   */\n      0x2c80\n        /* \"#utility.yul\":39769:39775   */\n      dup3\n        /* \"#utility.yul\":39765:39783   */\n      add\n        /* \"#utility.yul\":39758:39820   */\n      mstore\n        /* \"#utility.yul\":39881:39915   */\n      0x2d73776974636827292e637373282766696c746572272c27696e766572742830\n        /* \"#utility.yul\":39873:39878   */\n      0x2ca0\n        /* \"#utility.yul\":39865:39871   */\n      dup3\n        /* \"#utility.yul\":39861:39879   */\n      add\n        /* \"#utility.yul\":39854:39916   */\n      mstore\n        /* \"#utility.yul\":39977:40011   */\n      0x2927293b2428272e6461726b2d7465787427292e72656d6f7665436c61737328\n        /* \"#utility.yul\":39969:39974   */\n      0x2cc0\n        /* \"#utility.yul\":39961:39967   */\n      dup3\n        /* \"#utility.yul\":39957:39975   */\n      add\n        /* \"#utility.yul\":39950:40012   */\n      mstore\n        /* \"#utility.yul\":40073:40107   */\n      0x276461726b2d7465787427292e616464436c61737328276c696768742d746578\n        /* \"#utility.yul\":40065:40070   */\n      0x2ce0\n        /* \"#utility.yul\":40057:40063   */\n      dup3\n        /* \"#utility.yul\":40053:40071   */\n      add\n        /* \"#utility.yul\":40046:40108   */\n      mstore\n        /* \"#utility.yul\":40165:40199   */\n      0x7427293b2428272e6461726b2d746578742d3227292e72656d6f7665436c6173\n        /* \"#utility.yul\":40157:40162   */\n      0x2d00\n        /* \"#utility.yul\":40149:40155   */\n      dup3\n        /* \"#utility.yul\":40145:40163   */\n      add\n        /* \"#utility.yul\":40138:40200   */\n      mstore\n        /* \"#utility.yul\":40257:40291   */\n      0x7328276461726b2d746578742d3227292e616464436c61737328276c69676874\n        /* \"#utility.yul\":40249:40254   */\n      0x2d20\n        /* \"#utility.yul\":40241:40247   */\n      dup3\n        /* \"#utility.yul\":40237:40255   */\n      add\n        /* \"#utility.yul\":40230:40292   */\n      mstore\n        /* \"#utility.yul\":40349:40383   */\n      0x2d746578742d3227293b2428272e6461726b2d746578742d3327292e72656d6f\n        /* \"#utility.yul\":40341:40346   */\n      0x2d40\n        /* \"#utility.yul\":40333:40339   */\n      dup3\n        /* \"#utility.yul\":40329:40347   */\n      add\n        /* \"#utility.yul\":40322:40384   */\n      mstore\n        /* \"#utility.yul\":40441:40475   */\n      0x7665436c61737328276461726b2d746578742d3327292e616464436c61737328\n        /* \"#utility.yul\":40433:40438   */\n      0x2d60\n        /* \"#utility.yul\":40425:40431   */\n      dup3\n        /* \"#utility.yul\":40421:40439   */\n      add\n        /* \"#utility.yul\":40414:40476   */\n      mstore\n        /* \"#utility.yul\":40537:40571   */\n      0x276c696768742d746578742d3327293b2428272e6461726b2d746578742d3427\n        /* \"#utility.yul\":40529:40534   */\n      0x2d80\n        /* \"#utility.yul\":40521:40527   */\n      dup3\n        /* \"#utility.yul\":40517:40535   */\n      add\n        /* \"#utility.yul\":40510:40572   */\n      mstore\n        /* \"#utility.yul\":40629:40663   */\n      0x292e72656d6f7665436c61737328276461726b2d746578742d3427292e616464\n        /* \"#utility.yul\":40621:40626   */\n      0x2da0\n        /* \"#utility.yul\":40613:40619   */\n      dup3\n        /* \"#utility.yul\":40609:40627   */\n      add\n        /* \"#utility.yul\":40602:40664   */\n      mstore\n        /* \"#utility.yul\":40721:40755   */\n      0x436c61737328276c696768742d746578742d3427293b2428272e6461726b2d62\n        /* \"#utility.yul\":40713:40718   */\n      0x2dc0\n        /* \"#utility.yul\":40705:40711   */\n      dup3\n        /* \"#utility.yul\":40701:40719   */\n      add\n        /* \"#utility.yul\":40694:40756   */\n      mstore\n        /* \"#utility.yul\":40813:40847   */\n      0x6727292e72656d6f7665436c61737328276461726b2d626727292e616464436c\n        /* \"#utility.yul\":40805:40810   */\n      0x2de0\n        /* \"#utility.yul\":40797:40803   */\n      dup3\n        /* \"#utility.yul\":40793:40811   */\n      add\n        /* \"#utility.yul\":40786:40848   */\n      mstore\n        /* \"#utility.yul\":40905:40939   */\n      0x61737328276c696768742d626727293b2428272e6461726b2d62672d3227292e\n        /* \"#utility.yul\":40897:40902   */\n      0x2e00\n        /* \"#utility.yul\":40889:40895   */\n      dup3\n        /* \"#utility.yul\":40885:40903   */\n      add\n        /* \"#utility.yul\":40878:40940   */\n      mstore\n        /* \"#utility.yul\":40997:41031   */\n      0x72656d6f7665436c61737328276461726b2d62672d3227292e616464436c6173\n        /* \"#utility.yul\":40989:40994   */\n      0x2e20\n        /* \"#utility.yul\":40981:40987   */\n      dup3\n        /* \"#utility.yul\":40977:40995   */\n      add\n        /* \"#utility.yul\":40970:41032   */\n      mstore\n        /* \"#utility.yul\":41089:41123   */\n      0x7328276c696768742d62672d3227293b2428272e6461726b2d626f726465722d\n        /* \"#utility.yul\":41081:41086   */\n      0x2e40\n        /* \"#utility.yul\":41073:41079   */\n      dup3\n        /* \"#utility.yul\":41069:41087   */\n      add\n        /* \"#utility.yul\":41062:41124   */\n      mstore\n        /* \"#utility.yul\":41181:41215   */\n      0x3227292e72656d6f7665436c61737328276461726b2d626f726465722d322729\n        /* \"#utility.yul\":41173:41178   */\n      0x2e60\n        /* \"#utility.yul\":41165:41171   */\n      dup3\n        /* \"#utility.yul\":41161:41179   */\n      add\n        /* \"#utility.yul\":41154:41216   */\n      mstore\n        /* \"#utility.yul\":41273:41307   */\n      0x2e616464436c61737328276c696768742d626f726465722d3227293b2428272e\n        /* \"#utility.yul\":41265:41270   */\n      0x2e80\n        /* \"#utility.yul\":41257:41263   */\n      dup3\n        /* \"#utility.yul\":41253:41271   */\n      add\n        /* \"#utility.yul\":41246:41308   */\n      mstore\n        /* \"#utility.yul\":41369:41403   */\n      0x6461726b2d626f7264657227292e72656d6f7665436c61737328276461726b2d\n        /* \"#utility.yul\":41361:41366   */\n      0x2ea0\n        /* \"#utility.yul\":41353:41359   */\n      dup3\n        /* \"#utility.yul\":41349:41367   */\n      add\n        /* \"#utility.yul\":41342:41404   */\n      mstore\n        /* \"#utility.yul\":41465:41499   */\n      0x626f7264657227292e616464436c61737328276c696768742d626f7264657227\n        /* \"#utility.yul\":41457:41462   */\n      0x2ec0\n        /* \"#utility.yul\":41449:41455   */\n      dup3\n        /* \"#utility.yul\":41445:41463   */\n      add\n        /* \"#utility.yul\":41438:41500   */\n      mstore\n        /* \"#utility.yul\":41561:41595   */\n      0x293b2428272e6461726b2d6c696e6b27292e72656d6f7665436c617373282764\n        /* \"#utility.yul\":41553:41558   */\n      0x2ee0\n        /* \"#utility.yul\":41545:41551   */\n      dup3\n        /* \"#utility.yul\":41541:41559   */\n      add\n        /* \"#utility.yul\":41534:41596   */\n      mstore\n        /* \"#utility.yul\":41657:41691   */\n      0x61726b2d6c696e6b27292e616464436c61737328276c696768742d6c696e6b27\n        /* \"#utility.yul\":41649:41654   */\n      0x2f00\n        /* \"#utility.yul\":41641:41647   */\n      dup3\n        /* \"#utility.yul\":41637:41655   */\n      add\n        /* \"#utility.yul\":41630:41692   */\n      mstore\n        /* \"#utility.yul\":41753:41787   */\n      0x297d66756e6374696f6e20746f67676c654d6f646528297b6966286d6f64653d\n        /* \"#utility.yul\":41745:41750   */\n      0x2f20\n        /* \"#utility.yul\":41737:41743   */\n      dup3\n        /* \"#utility.yul\":41733:41751   */\n      add\n        /* \"#utility.yul\":41726:41788   */\n      mstore\n        /* \"#utility.yul\":41849:41883   */\n      0x3d3d30297b6d6f64653d313b7365744461726b28297d656c73657b6d6f64653d\n        /* \"#utility.yul\":41841:41846   */\n      0x2f40\n        /* \"#utility.yul\":41833:41839   */\n      dup3\n        /* \"#utility.yul\":41829:41847   */\n      add\n        /* \"#utility.yul\":41822:41884   */\n      mstore\n        /* \"#utility.yul\":41941:41975   */\n      0x303b7365744c6967687428297d242827236d6f64652d73776974636827292e62\n        /* \"#utility.yul\":41933:41938   */\n      0x2f60\n        /* \"#utility.yul\":41925:41931   */\n      dup3\n        /* \"#utility.yul\":41921:41939   */\n      add\n        /* \"#utility.yul\":41914:41976   */\n      mstore\n        /* \"#utility.yul\":42029:42060   */\n      0x6c757228297d3c2f7363726970743e3c2f626f64793e3c2f68746d6c3e000000\n        /* \"#utility.yul\":42021:42026   */\n      0x2f80\n        /* \"#utility.yul\":42013:42019   */\n      dup3\n        /* \"#utility.yul\":42009:42027   */\n      add\n        /* \"#utility.yul\":42002:42061   */\n      mstore\n        /* \"#utility.yul\":5327:42084   */\n      pop\n      jump\t// out\n        /* \"#utility.yul\":42106:42578   */\n    tag_32:\n        /* \"#utility.yul\":42266:42269   */\n      0x00\n        /* \"#utility.yul\":42303:42391   */\n      tag_91\n        /* \"#utility.yul\":42385:42390   */\n      0x2f9d\n        /* \"#utility.yul\":42380:42383   */\n      dup4\n        /* \"#utility.yul\":42303:42391   */\n      tag_30\n      jump\t// in\n    tag_91:\n        /* \"#utility.yul\":42296:42391   */\n      swap2\n      pop\n        /* \"#utility.yul\":42416:42509   */\n      tag_92\n        /* \"#utility.yul\":42505:42508   */\n      dup3\n        /* \"#utility.yul\":42416:42509   */\n      tag_31\n      jump\t// in\n    tag_92:\n        /* \"#utility.yul\":42550:42555   */\n      0x2f9d\n        /* \"#utility.yul\":42545:42548   */\n      dup3\n        /* \"#utility.yul\":42541:42556   */\n      add\n        /* \"#utility.yul\":42534:42556   */\n      swap1\n      pop\n        /* \"#utility.yul\":42106:42578   */\n      swap2\n      swap1\n      pop\n      jump\t// out\n        /* \"#utility.yul\":42600:43029   */\n    tag_12:\n        /* \"#utility.yul\":42785:42788   */\n      0x00\n        /* \"#utility.yul\":42823:42971   */\n      tag_94\n        /* \"#utility.yul\":42967:42970   */\n      dup3\n        /* \"#utility.yul\":42823:42971   */\n      tag_32\n      jump\t// in\n    tag_94:\n        /* \"#utility.yul\":42816:42971   */\n      swap2\n      pop\n        /* \"#utility.yul\":43004:43007   */\n      dup2\n        /* \"#utility.yul\":42997:43007   */\n      swap1\n      pop\n        /* \"#utility.yul\":42600:43029   */\n      swap2\n      swap1\n      pop\n      jump\t// out\n\n    auxdata: 0xa2646970667358221220ed2d9423a8c54a3b210f74bc1615322111e49478acdad88e9f9285ae0c2db1a364736f6c634300081a0033\n}\n",
				"bytecode": {
					"linkReferences": {},
					"object": "6080604052348015600e575f80fd5b50613da58061001c5f395ff3fe608060405234801561000f575f80fd5b5060043610610029575f3560e01c8063e2c13d621461002d575b5f80fd5b610047600480360381019061004291906101d4565b61005d565b6040516100549190610308565b60405180910390f35b606060405160200161006e90613d5b565b6040516020818303038152906040529050949350505050565b5f604051905090565b5f80fd5b5f80fd5b5f80fd5b5f80fd5b5f601f19601f8301169050919050565b7f4e487b71000000000000000000000000000000000000000000000000000000005f52604160045260245ffd5b6100e6826100a0565b810181811067ffffffffffffffff82111715610105576101046100b0565b5b80604052505050565b5f610117610087565b905061012382826100dd565b919050565b5f67ffffffffffffffff821115610142576101416100b0565b5b61014b826100a0565b9050602081019050919050565b828183375f83830152505050565b5f61017861017384610128565b61010e565b9050828152602081018484840111156101945761019361009c565b5b61019f848285610158565b509392505050565b5f82601f8301126101bb576101ba610098565b5b81356101cb848260208601610166565b91505092915050565b5f805f80608085870312156101ec576101eb610090565b5b5f85013567ffffffffffffffff81111561020957610208610094565b5b610215878288016101a7565b945050602085013567ffffffffffffffff81111561023657610235610094565b5b610242878288016101a7565b935050604085013567ffffffffffffffff81111561026357610262610094565b5b61026f878288016101a7565b925050606085013567ffffffffffffffff8111156102905761028f610094565b5b61029c878288016101a7565b91505092959194509250565b5f81519050919050565b5f82825260208201905092915050565b8281835e5f83830152505050565b5f6102da826102a8565b6102e481856102b2565b93506102f48185602086016102c2565b6102fd816100a0565b840191505092915050565b5f6020820190508181035f83015261032081846102d0565b905092915050565b5f81905092915050565b7f3c73637269707420747970653d276170706c69636174696f6e2f6a61766173635f8201527f72697074273e636f6e7374206574684e6574776f726b3d2768747470733a2f2f60208201527f6d61696e6e65742e696e667572612e696f2f76332f646434333462373063366160408201527f373438376339326566646465643133653766316133273b636f6e73742077656260608201527f333d6e65772057656233286e657720576562332e70726f7669646572732e487460808201527f747050726f7669646572286574684e6574776f726b29293b6c6574206973416c60a08201527f6c4c6f616465643d21313b6c6574206d6f64653d303b6c65742064656c61793d60c08201527f313565333b6c65742064656c6179323d64656c61792f333b24282723616e647260e08201527f657727292e6869646528293b6765745472616e73616374696f6e5465787473286101008201527f293b6c6574206e756d446f74733d303b6c6574206c6f61646572496e746572766101208201527f616c3d736574496e74657276616c287570646174654c6f61646572446f74732c6101408201527f316533293b66756e6374696f6e207570646174654c6f61646572446f747328296101608201527f7b2428272e6c6f616465722d646f747327292e68746d6c286e756d446f74733d6101808201527f3d3d313f272e273a6e756d446f74733d3d3d323f272e2e273a6e756d446f74736101a08201527f3d3d3d333f272e2e2e273a2727293b6e756d446f74732b2b3b6966286e756d446101c08201527f6f74733d3d3d34297b6e756d446f74733d307d7d6173796e632066756e6374696101e08201527f6f6e206765745472616e73616374696f6e546578747328297b617070656e644c6102008201527f6f6164696e67526f7728293b6c6574207472616e73616374696f6e54657874736102208201527f3d5b5d3b6973416c6c4c6f616465643d21313b242827237370696e6e657227296102408201527f2e73686f7728293b6c657420636f6f6b69653b7472797b636f6f6b69653d4a536102608201527f4f4e2e706172736528676574436f6f6b696528277472616e73616374696f6e546102808201527f657874732729297d63617463687b636f6f6b69653d5b5d7d6c657420636f6f6b6102a08201527f696554657874733d747970656f6620636f6f6b69653d3d3d276f626a656374276102c08201527f2626636f6f6b69652e6c656e6774683e303f636f6f6b69653a5b5d3b6c6574206102e08201527f7374617274496e6465783d343b6c65742075726c3d6068747470733a2f2f61706103008201527f692e65746865727363616e2e696f2f6170693f6d6f64756c653d6163636f756e6103208201527f7426616374696f6e3d74786c69737426616464726573733d30783030326133626103408201527f65363362336233313264613564353865623032643262343838363962343665636103608201527f3832267374617274626c6f636b3d3026656e64626c6f636b3d393939393939396103808201527f3926706167653d31266f66667365743d313030303026736f72743d61736326616103a08201527f70696b65793d53353251454a5834464b4e435337394b3837584e58434156584e6103c08201527f505a335939395849603b7472797b6c657420646174613d617761697420242e676103e08201527f65742875726c293b6c6574207472616e73616374696f6e4964733d646174612e6104008201527f726573756c742e66696c746572282874783d3e74782e66726f6d3d3d3d74782e6104208201527f746f29292e6d6170282874783d3e74782e6861736829293b24282723746f74616104408201527f6c2d706f73747327292e74657874287374617274496e6465782d33293b7265716104608201527f75657374416e696d6174696f6e4672616d65282866756e6374696f6e28297b246104808201527f2827236c6f6164696e672d7465787427292e7465787428604c6f6164696e67206104a08201527f247b7374617274496e6465782d337d206f6620247b7472616e73616374696f6e6104c08201527f4964732e6c656e6774682d337d60297d29293b6173796e632066756e6374696f6104e08201527f6e2070726f636573734e6578745472616e73616374696f6e28297b69662873746105008201527f617274496e6465783c7472616e73616374696f6e4964732e6c656e677468297b6105208201527f6c6574207472616e73616374696f6e49643d7472616e73616374696f6e4964736105408201527f5b7374617274496e6465785d3b696628636f6f6b696554657874732e66696c746105608201527f65722828783d3e782e686173683d3d537472696e67287472616e73616374696f6105808201527f6e49642929292e6c656e6774683d3d30297b6177616974206e65772050726f6d6105a08201527f69736528287265736f6c76653d3e73657454696d656f7574287265736f6c76656105c08201527f2c64656c6179322929293b6c657420726573756c743d617761697420776562336105e08201527f2e6574682e6765745472616e73616374696f6e287472616e73616374696f6e496106008201527f64293b6c657420626c6f636b4e756d6265723d7061727365496e7428726573756106208201527f6c742e626c6f636b4e756d626572293b6177616974206e65772050726f6d69736106408201527f6528287265736f6c76653d3e73657454696d656f7574287265736f6c76652c646106608201527f656c6179322929293b6c657420696e7075743d776562332e7574696c732e746f6106808201527f417363696928726573756c742e696e707574293b6c657420626c6f636b5265736106a08201527f756c743d617761697420776562332e6574682e676574426c6f636b28626c6f636106c08201527f6b4e756d626572293b6c657420646174653d6e65772044617465284e756d62656106e08201527f7228626c6f636b526573756c742e74696d657374616d70292a316533293b6c656107008201527f74206d6f6e7468733d5b274a616e272c27466562272c274d6172272c274170726107208201527f272c274d6179272c274a756e272c274a756c272c27417567272c27536570272c6107408201527f274f6374272c274e6f76272c27446563275d3b6c657420796561723d646174656107608201527f2e67657446756c6c5965617228293b6c6574206d6f6e74683d6d6f6e7468735b6107808201527f646174652e6765744d6f6e746828295d3b6c6574206461793d646174652e67656107a08201527f744461746528293b6c657420686f7572733d646174652e676574486f757273286107c08201527f293b6c6574206d696e757465733d2730272b646174652e6765744d696e7574656107e08201527f7328293b6c6574207365636f6e64733d2730272b646174652e6765745365636f6108008201527f6e647328293b6c657420666f726d617474656454696d653d6d6f6e74682b27206108208201527f272b6461792b2720272b796561722b2720272b686f7572732b273a272b6d696e6108408201527f757465732e737562737472282d32292b273a272b7365636f6e64732e737562736108608201527f7472282d32293b6c6574206f626a3d7b686173683a537472696e67287472616e6108808201527f73616374696f6e4964292c626c6f636b3a537472696e6728626c6f636b4e756d6108a08201527f626572292c746578743a696e7075742c74696d653a537472696e6728626c6f636108c08201527f6b526573756c742e74696d657374616d70292c666f726d617474656454696d656108e08201527f3a666f726d617474656454696d657d3b7472616e73616374696f6e54657874736109008201527f2e70757368286f626a293b617070656e64436f6d6d656e74286f626a293b636f6109208201527f6f6b696554657874732e70757368286f626a293b736574436f6f6b69652827746109408201527f72616e73616374696f6e5465787473272c4a534f4e2e737472696e67696679286109608201527f636f6f6b6965546578747329293b7374617274496e6465782b2b3b24282723746109808201527f6f74616c2d706f73747327292e74657874287374617274496e6465782d33293b6109a08201527f72657175657374416e696d6174696f6e4672616d65282866756e6374696f6e286109c08201527f297b242827236c6f6164696e672d7465787427292e7465787428604c6f6164696109e08201527f6e6720247b7374617274496e6465782d337d206f6620247b7472616e73616374610a008201527f696f6e4964732e6c656e6774682d337d60297d29293b6177616974206e657720610a208201527f50726f6d69736528287265736f6c76653d3e73657454696d656f757428726573610a408201527f6f6c76652c64656c6179322929293b61776169742070726f636573734e657874610a608201527f5472616e73616374696f6e28297d656c73657b617070656e64436f6d6d656e74610a808201527f28636f6f6b696554657874732e66696c7465722828783d3e782e686173683d3d610aa08201527f537472696e67287472616e73616374696f6e49642929295b305d293b73746172610ac08201527f74496e6465782b2b3b24282723746f74616c2d706f73747327292e7465787428610ae08201527f7374617274496e6465782d33293b72657175657374416e696d6174696f6e4672610b008201527f616d65282866756e6374696f6e28297b242827236c6f6164696e672d74657874610b208201527f27292e7465787428604c6f6164696e6720247b7374617274496e6465782d337d610b408201527f206f6620247b7472616e73616374696f6e4964732e6c656e6774682d337d6029610b608201527f7d29293b61776169742070726f636573734e6578745472616e73616374696f6e610b808201527f28297d7d656c73657b636c656172496e74657276616c286c6f61646572496e74610ba08201527f657276616c293b72656d6f76654c6f6164696e67526f7728293b24282723616e610bc08201527f6472657727292e73686f7728297d7d61776169742070726f636573734e657874610be08201527f5472616e73616374696f6e28293b6973416c6c4c6f616465643d21307d636174610c008201527f6368286572726f72297b72656d6f76654c6f6164696e67526f7728293b617070610c208201527f656e644572726f72526f7728293b636f6e736f6c652e6572726f722827466169610c408201527f6c656420746f206665746368207472616e73616374696f6e733a272c6572726f610c608201527f72293b6966287265747279436f756e743c35297b73657454696d656f75742828610c808201527f66756e6374696f6e28297b72656d6f76654c6f6164696e67526f7728293b6765610ca08201527f745472616e73616374696f6e546578747328297d292c316534297d7d7d6c6574610cc08201527f207265747279436f756e743d313b66756e6374696f6e20617070656e64457272610ce08201527f6f72526f7728297b6966287265747279436f756e743d3d3d34297b6c65742065610d008201527f72726f72526f773d600a20202020202020202020202020202020202020203c74610d208201527f7220636c6173733d277461626c652d726f77206c696768742d6267273e0a2020610d408201527f2020202020202020202020202020202020202020202020202020202020202020610d608201527f2020202020202020202020202020202020202020202020202020202020203c74610d808201527f643e3c2f74643e0a0a2020202020202020202020202020202020202020202020610da08201527f203c746420636c6173733d276c696768742d746578742d32206c6f6164696e67610dc08201527f2d63656c6c2720636f6c7370616e3d2732273e0a202020202020202020202020610de08201527f202020202020202020202020202020203c6469762069643d276572726f722720610e008201527f636c6173733d276572726f722d74657874273e0a202020202020202020202020610e208201527f20202020202020202020202020202020202020203c7370616e2069643d276572610e408201527f726f722d74657874273e4661696c656420746f206c6f6164207472616e736163610e608201527f74696f6e732066726f6d2045746865727363616e2028332f332e3c2f7370616e610e808201527f3e0a202020202020202020202020202020202020202020202020202020203c2f610ea08201527f6469763e0a2020202020202020202020202020202020202020202020203c2f74610ec08201527f643e0a20202020202020202020202020202020202020203c2f74723e0a202020610ee08201527f20202020202020202020202020603b242827237461626c652d626f647927292e610f008201527f617070656e64286572726f72526f77293b7265747279436f756e742b2b3b6966610f208201527f286d6f64653d3d3d31297b7365744461726b28297d656c73657b7365744c6967610f408201527f687428297d72657475726e7d6c6574206572726f72526f773d600a2020202020610f608201527f2020202020202020202020202020203c747220636c6173733d277461626c652d610f808201527f726f77206c696768742d6267273e0a2020202020202020202020202020202020610fa08201527f2020202020202020202020202020202020202020202020202020202020202020610fc08201527f2020202020202020202020202020203c74643e3c2f74643e0a0a202020202020610fe08201527f2020202020202020202020202020202020203c746420636c6173733d276c69676110008201527f68742d746578742d32206c6f6164696e672d63656c6c2720636f6c7370616e3d6110208201527f2732273e0a2020202020202020202020202020202020202020202020202020206110408201527f203c6469762069643d276572726f722720636c6173733d276572726f722d74656110608201527f7874273e0a2020202020202020202020202020202020202020202020202020206110808201527f20202020203c7370616e2069643d276572726f722d74657874273e3c2f7370616110a08201527f6e3e3c7370616e20636c6173733d276c6f616465722d646f7473273e3c2f73706110c08201527f616e3e0a202020202020202020202020202020202020202020202020202020206110e08201527f3c2f6469763e0a2020202020202020202020202020202020202020202020203c6111008201527f2f74643e0a0a20202020202020202020202020202020202020203c2f74723e0a6111208201527f20202020202020202020202020202020603b242827237461626c652d626f64796111408201527f27292e617070656e64286572726f72526f77293b242827236572726f722d74656111608201527f787427292e7465787428604661696c656420746f206c6f6164207472616e73616111808201527f6374696f6e732066726f6d2045746865727363616e2e205265747279696e67206111a08201527f28247b7265747279436f756e747d2f332960293b7265747279436f756e742b2b6111c08201527f3b6966286d6f64653d3d3d31297b7365744461726b28297d656c73657b7365746111e08201527f4c6967687428297d7d66756e6374696f6e20617070656e644c6f6164696e67526112008201527f6f7728297b6c6574206c6f6164696e67526f773d600a202020202020202020206112208201527f202020202020202020203c747220636c6173733d276c696768742d6267273e0a6112408201527f20202020202020202020202020202020202020202020202020202020202020206112608201527f20202020202020202020202020202020202020202020202020202020202020206112808201527f3c74643e3c2f74643e0a0a2020202020202020202020202020202020202020206112a08201527f2020203c746420636c6173733d276c696768742d746578742d32206c6f6164696112c08201527f6e672d63656c6c273e0a202020202020202020202020202020202020202020206112e08201527f2020202020203c6469762069643d276c6f6164696e67273e0a202020202020206113008201527f202020202020202020202020202020202020202020202020203c7370616e20696113208201527f643d276c6f6164696e672d74657874273e4c6f6164696e67207472616e7361636113408201527f74696f6e733c2f7370616e3e3c7370616e20636c6173733d276c6f616465722d6113608201527f646f7473273e3c2f7370616e3e0a2020202020202020202020202020202020206113808201527f202020202020202020203c2f6469763e0a2020202020202020202020202020206113a08201527f2020202020202020203c2f74643e0a0a202020202020202020202020202020206113c08201527f202020203c2f74723e0a20202020202020202020202020202020603b242827236113e08201527f7461626c652d626f647927292e617070656e64286c6f6164696e67526f77293b6114008201527f6966286d6f64653d3d3d31297b7365744461726b28297d656c73657b7365744c6114208201527f6967687428297d7d66756e6374696f6e2072656d6f76654c6f6164696e67526f6114408201527f7728297b242827237461626c652d626f647927292e66696e64282774723a6c616114608201527f737427292e72656d6f766528297d6c657420696e74657276616c3d736574496e6114808201527f74657276616c282866756e6374696f6e28297b6966286973416c6c4c6f6164656114a08201527f64297b6973416c6c4c6f616465643d21313b636c656172496e74657276616c286114c08201527f696e74657276616c297d7d292c326533293b66756e6374696f6e20736574436f6114e08201527f6f6b6965286e616d652c76616c75652c64617973297b6c6f63616c53746f72616115008201527f67655b6e616d655d3d76616c75657d66756e6374696f6e20676574436f6f6b696115208201527f65286e616d65297b72657475726e206c6f63616c53746f726167655b6e616d656115408201527f5d7c7c275b5d277d66756e6374696f6e20617070656e64436f6d6d656e7428746115608201527f72616e73616374696f6e5465787473297b6966287472616e73616374696f6e546115808201527f657874732e746578742e6c656e6774683e30297b72656d6f76654c6f6164696e6115a08201527f67526f7728293b242827237461626c652d626f647927292e617070656e6428606115c08201527f3c747220636c6173733d277461626c652d726f77206c696768742d6267206c696115e08201527f6768742d626f72646572206c696768742d74657874273e3c746420636c6173736116008201527f3d276c696768742d6267272077696474683d273330252720616c69676e3d27636116208201527f656e746572273e3c666f6e7420636c6173733d27736d616c6c5f74657874273e6116408201527f3c6120636c6173733d276c696768742d6c696e6b27207461726765743d275f626116608201527f6c616e6b2720687265663d2768747470733a2f2f7777772e746a6f2e6172742f6116808201527f273e546a6f3c2f613e3c2f623e3c666f6e743e3c2f74643e3c746420616c69676116a08201527f6e3d277269676874272077696474683d273730252720636c6173733d276c69676116c08201527f68742d6267206c696768742d6c696e6b273e3c64697620636c6173733d27706f6116e08201527f7374496e666f206465736b746f70273e3c7370616e20636c6173733d27706f736117008201527f744e756d206465736b746f70273e3c6120636c6173733d276c696768742d6c696117208201527f6e6b27207374796c653d27666f6e742d73697a653a313270783b2720687265666117408201527f3d2768747470733a2f2f65746865727363616e2e696f2f74782f247b7472616e6117608201527f73616374696f6e54657874732e686173687d27207461726765743d275f626c616117808201527f6e6b27207469746c653d274c696e6b20746f2074686973207472616e736163746117a08201527f696f6e2720636c6173733d276c696768742d6c696e6b273e20247b7472616e736117c08201527f616374696f6e54657874732e666f726d617474656454696d657d203c696d67206117e08201527f7374796c653d272d7765626b69742d626f782d616c69676e3a20626173656c696118008201527f6e653b2777696474683d27313070783b27206865696768743d273130707827206118208201527f7374796c653d27766572746963616c2d616c69676e3a206d6964646c653b27206118408201527f7372633d27646174613a696d6167652f7376672b786d6c3b6261736536342c506118608201527f484e325a79423361575230614430694d54497a4969426f5a576c6e61485139496118808201527f6a45794d794967646d6c6c64304a76654430694d434177494445794d7941784d6118a08201527f6a4d6949475a7062477739496d3576626d5569494868746247357a50534a6f646118c08201527f4852774f693876643364334c6e637a4c6d39795a7938794d4441774c334e325a6118e08201527f79492b44516f38634746306143426b50534a4e4d6a55754e7a6b674e5467754e6119008201527f4445304f554d794e5334334f544178494455334c6a637a4e5463674d6a55754f6119208201527f5449304e4341314e7934774e6a4d7a494449324c6a45344e5445674e5459754e6119408201527f444d324d554d794e6934304e445534494455314c6a67774f5341794e6934344d6119608201527f6a6334494455314c6a497a4f5459674d6a63754d7a41354d6941314e4334334e6119808201527f6a4131517a49334c6a63354d4463674e5451754d6a67784e4341794f43347a4e6119a08201527f6a45354944557a4c6a6b774d6a45674d6a67754f546b774d7941314d7934324e6119c08201527f445130517a49354c6a59784f4463674e544d754d7a67324e79417a4d4334794f6119e08201527f5445344944557a4c6a49314e5463674d7a41754f5463784944557a4c6a49314f611a008201527f446c4d4d7a6b754e5459784944557a4c6a49344e6a6c444e4441754f544d774e611a208201527f5341314d7934794f445935494451794c6a49304e4341314d7934344d7a45674e611a408201527f444d754d6a45794e4341314e4334334f546b30517a51304c6a45344d446b674e611a608201527f5455754e7a59334f4341304e4334334d6a55674e5463754d4467784d7941304e611a808201527f4334334d6a55674e5467754e4455774f5659354d4334354d7a4135517a51314c611aa08201527f6a59354d6941354d4334324e444d35494451324c6a6b7a4e4341354d43347a4d611ac08201527f7a6335494451344c6a49354d7941354d4334774d546335517a51354c6a497a4e611ae08201527f7941344f5334334f545979494455774c6a41334f444d674f446b754d6a597949611b008201527f4455774c6a59344d4455674f4467754e5441784f554d314d5334794f44493249611b208201527f4467334c6a63304d5467674e5445754e6a45774d6941344e6934344d44413249611b408201527f4455784c6a5978494467314c6a677a4d446c574e4455754e5451774f554d314d611b608201527f5334324d5341304e4334784e7a4579494455794c6a45314e4341304d6934344e611b808201527f5463324944557a4c6a45794d6a51674e4445754f446735517a55304c6a41354d611ba08201527f4467674e4441754f5449774e4341314e5334304d44517a494451774c6a4d334e611bc08201527f6a49674e5459754e7a6330494451774c6a4d334e546c494e6a55754d7a677851611be08201527f7a59324c6a63314d4459674e4441754d7a63324d6941324f4334774e6a517849611c008201527f4451774c6a6b794d4451674e6a6b754d444d794e5341304d5334344f446c444e611c208201527f7a41754d4441774f5341304d6934344e546332494463774c6a55304e5341304e611c408201527f4334784e7a4579494463774c6a55304e5341304e5334314e444135566a67794c611c608201527f6a6b7a4d7a6c444e7a41754e545131494467794c6a6b7a4d7a6b674e7a49754e611c808201527f7941344d6934774e6a4535494463304c6a63354f5341344d5334784e7a553551611ca08201527f7a63314c6a55334f4463674f4441754f4451324d6941334e6934794e44517849611cc08201527f4467774c6a49354e4445674e7a59754e7a45794d6941334f5334314f44673251611ce08201527f7a63334c6a45344d444d674e7a67754f44677a4d6941334e7934304d7a417949611d008201527f4463344c6a41314e5455674e7a63754e444d78494463334c6a49774f446c574d611d208201527f7a49754e6a4d774f554d334e7934304d7a45674d7a45754d6a59784e5341334e611d408201527f7934354e7a5135494449354c6a6b304f4445674e7a67754f54517a4d5341794f611d608201527f4334354e7a6b33517a63354c6a6b784d544d674d6a67754d4445784d7941344d611d808201527f5334794d6a5131494449334c6a51324e7a49674f4449754e546b7a4f5341794e611da08201527f7934304e6a593553446b784c6a49774d554d354d6934314e7a4132494449334c611dc08201527f6a51324e6a6b674f544d754f446730494449344c6a41784d446b674f5451754f611de08201527f4455794e5341794f4334354e7a6b30517a6b314c6a67794d446b674d6a6b754f611e008201527f5451334f4341354e69347a4e6a55674d7a45754d6a59784d7941354e69347a4e611e208201527f6a55674d7a49754e6a4d774f5659324f53347a4d7a6b35517a45774d7934344d611e408201527f6a63674e6a4d754f544d784f5341784d5445754d7a6735494455334c6a51794e611e608201527f7a6b674d5445334c6a4d35494451354c6a59774e6a6c444d5445344c6a49324d611e808201527f5341304f4334304e7a4533494445784f4334344d7a63674e4463754d544d344e611ea08201527f6941784d546b754d445933494451314c6a63794e6a64444d5445354c6a49354e611ec08201527f7941304e43347a4d545134494445784f5334784e7a51674e4449754f4459334f611ee08201527f4341784d5467754e7a4135494451784c6a55784e446c444d5445314c6a6b7a4d611f008201527f53417a4d7934314d6a4933494445784d5334314d5459674d6a59754d546b344d611f208201527f7941784d4455754e7a5131494449774c6a41784d4456444f546b754f54633049611f408201527f44457a4c6a67794d6a67674f5449754f5463304f5341344c6a6b774e7a673149611f608201527f4467314c6a45354e5455674e5334314f44417a4d6b4d334e7934304d54597849611f808201527f4449754d6a55794f4341324f5334774d6a6333494441754e5467314f544d3449611fa08201527f4459774c6a55324e7a45674d4334324f4459304d545a444e5449754d5441324e611fc08201527f5341774c6a63344e6a67354d7941304d7934334e6a4178494449754e6a55794e611fe08201527f53417a4e6934774e6a49674e6934784e6a4d344d304d794f43347a4e6a4d34496120008201527f446b754e6a63314d5463674d6a45754e44677a4e4341784e4334334e545135496120208201527f4445314c6a67324d5445674d6a45754d446334517a45774c6a497a4f4467674d6120408201527f6a63754e444178494455754f546b344e4449674d7a51754f4449344d69417a4c6120608201527f6a51784d544d78494451794c6a67344e444a444d4334344d6a51794d4463674e6120808201527f5441754f5451774d5341744d4334774e5449324e446733494455354c6a51304e6120a08201527f7a51674d4334344d7a59344e5445674e6a63754f4459784e304d784c6a63794e6120c08201527f6a4d31494463324c6a49334e6941304c6a4d324d6a597a494467304c6a51784d6120e08201527f546b674f4334314e7a59354e6941354d5334334e446735517a6b754d7a45784d6121008201527f5445674f544d754d4445304e5341784d43347a4f54457949446b304c6a41304e6121208201527f4451674d5445754e6a6b774d7941354e4334334d546331517a45794c6a6b344f6121408201527f5451674f5455754d7a6b774e6941784e4334304e544d3249446b314c6a59334f6121608201527f5341784e5334354d5445674f5455754e5451344f554d784e7934314d7a6b674f6121808201527f5455754e4441314f5341784f5334314e6a59674f5455754d6a41794f5341794d6121a08201527f5334354e7a59674f5451754f5445354f554d794d7934774d6a557849446b304c6121c08201527f6a67774d4467674d6a4d754f546b7a4e7941354e4334794f546b35494449304c6121e08201527f6a59354e7a49674f544d754e5445794e6b4d794e5334304d44413449446b794c6122008201527f6a63794e544d674d6a55754e7a6b774d5341354d5334334d445933494449314c6122208201527f6a63354d5341354d4334324e544135544449314c6a6335494455344c6a51784e6122408201527f446c614969426d615778735053496a4d6a457a4d6a56434969382b44516f38636122608201527f4746306143426b50534a4e4d6a55754e6a41794d5341784d5441754e5446444d6122808201527f7a51754e6a63304e4341784d5463754d5445674e4455754d7a6b314f5341784d6122a08201527f6a45754d446379494455324c6a55344d4449674d5449784c6a6b314e304d324e6122c08201527f7934334e6a5132494445794d6934344e4445674e7a67754f5463314e7941784d6122e08201527f6a41754e6a4531494467344c6a6b334d7a45674d5445314c6a55794d304d354f6123008201527f4334354e7a4131494445784d4334304d7a45674d5441334c6a4d324e4341784d6123208201527f4449754e6a637a494445784d7934794d6a59674f544d754d5441324f454d784d6123408201527f546b754d4467334944677a4c6a55304d4455674d5449794c6a45344f4341334d6123608201527f6934314d7a6b674d5449794c6a45344e5341324d53347a4d546b33517a45794d6123808201527f6934784f4455674e546b754f5445354e7941784d6a49754d5449674e5467754e6123a08201527f544d304e7941784d6a49754d444933494455334c6a45314e7a64444f546b754f6123c08201527f44413449446b774c6a49354e5463674e5467754e7a677a4d5341784d4455754e6123e08201527f7a6734494449314c6a59774e4341784d5441754e5441314969426d61577873506124008201527f53496a4f5463354e6a6b314969382b44516f384c334e325a7a344e43673d3d276124208201527f2f3e3c2f613e3c2f7370616e3e3c2f6469763e3c2f74643e3c2f74723e3c74726124408201527f3e3c74642076616c69676e3d276d6964646c652720616c69676e3d276c6566746124608201527f2720636c6173733d276c696768742d6267273e3c756c20616c69676e3d276c656124808201527f667427207374796c653d2770616464696e672d6c6566743a20313570783b666f6124a08201527f6e742d73697a653a20313070783b273e3c6c6920636c6173733d276c696768746124c08201527f2d746578742d33273e426c6f636b3a20247b7472616e73616374696f6e5465786124e08201527f74732e626c6f636b7d3c2f6c693e3c6c6920636c6173733d276c696768742d746125008201527f6578742d33273e4c6f636174696f6e3a20554e4b4e4f574e3c2f6c693e3c2f756125208201527f6c3e3c2f74643e3c746420616c69676e3d2763656e746572272076616c69676e6125408201527f3d276d6964646c652720636c6173733d276c696768742d6267273e3c666f6e746125608201527f20636c6173733d27726567756c61725f74657874273e3c64697620636c6173736125808201527f3d27706f7374207265706c79273e3c626c6f636b71756f7465207374796c653d6125a08201527f2777686974652d73706163653a207072652d6c696e653b6d617267696e2d746f6125c08201527f703a3070783b2720636c6173733d27706f73744d657373616765206c696768746125e08201527f2d746578742d32272069643d276d3334303739393833273e3c62723e247b74726126008201527f616e73616374696f6e54657874732e746578747d3c2f626c6f636b71756f74656126208201527f3e3c2f6469763e3c2f666f6e743e3c2f74643e3c2f74723e60293b617070656e6126408201527f644c6f6164696e67526f7728293b6966286d6f64653d3d3d31297b73657444616126608201527f726b28297d656c73657b7365744c6967687428297d7d7d66756e6374696f6e206126808201527f736f7274427954696d6528612c62297b72657475726e20612e74696d653e622e6126a08201527f74696d653f313a2d317d66756e6374696f6e20757064617465436c6f636b28296126c08201527f7b636f6e7374206e6f773d6e657720446174653b636f6e737420686f7572733d6126e08201527f537472696e67286e6f772e676574486f7572732829292e7061645374617274286127008201527f322c273027293b636f6e7374206d696e757465733d537472696e67286e6f772e6127208201527f6765744d696e757465732829292e706164537461727428322c273027293b636f6127408201527f6e7374207365636f6e64733d537472696e67286e6f772e6765745365636f6e646127608201527f732829292e706164537461727428322c273027293b636f6e7374206d6f6e74686127808201527f4e616d65733d5b274a616e75617279272c274665627275617279272c274d61726127a08201527f6368272c27417072696c272c274d6179272c274a756e65272c274a756c79272c6127c08201527f27417567757374272c2753657074656d626572272c274f63746f626572272c276127e08201527f4e6f76656d626572272c27446563656d626572275d3b636f6e7374206d6f6e746128008201527f683d6d6f6e74684e616d65735b6e6f772e6765744d6f6e746828295d3b636f6e6128208201527f7374206461793d6e6f772e6765744461746528293b636f6e737420796561723d6128408201527f6e6f772e67657446756c6c5965617228293b636f6e7374207375666669783d646128608201527f61793d3e7b6966286461793e3326266461793c32312972657475726e277468276128808201527f3b73776974636828646179253130297b6361736520313a72657475726e2773746128a08201527f273b6361736520323a72657475726e276e64273b6361736520333a72657475726128c08201527f6e277264273b64656661756c743a72657475726e277468277d7d3b636f6e73746128e08201527f2066756c6c446174653d60247b6d6f6e74687d20247b6461797d247b737566666129008201527f697828646179297d2c20247b796561727d20247b686f7572737d3a247b6d696e6129208201527f757465737d3a247b7365636f6e64737d603b2428272e63757272656e742d74696129408201527f6d6527292e746578742866756c6c44617465297d736574496e74657276616c286129608201527f757064617465436c6f636b2c316533293b757064617465436c6f636b28293b246129808201527f28646f63756d656e74292e7265616479282866756e6374696f6e28297b2428276129a08201527f23706f73742d7772617070657227292e66616465496e28297d29293b66756e636129c08201527f74696f6e207365744461726b28297b242827236d6f64652d73776974636827296129e08201527f2e637373282766696c746572272c27696e76657274282e37352927293b242827612a008201527f2e6c696768742d7465787427292e72656d6f7665436c61737328276c69676874612a208201527f2d7465787427292e616464436c61737328276461726b2d7465787427293b2428612a408201527f272e6c696768742d746578742d3227292e72656d6f7665436c61737328276c69612a608201527f6768742d746578742d3227292e616464436c61737328276461726b2d74657874612a808201527f2d3227293b2428272e6c696768742d746578742d3327292e72656d6f7665436c612aa08201527f61737328276c696768742d746578742d3327292e616464436c61737328276461612ac08201527f726b2d746578742d3327293b2428272e6c696768742d746578742d3427292e72612ae08201527f656d6f7665436c61737328276c696768742d746578742d3427292e616464436c612b008201527f61737328276461726b2d746578742d3427293b2428272e6c696768742d626727612b208201527f292e72656d6f7665436c61737328276c696768742d626727292e616464436c61612b408201527f737328276461726b2d626727293b2428272e6c696768742d62672d3227292e72612b608201527f656d6f7665436c61737328276c696768742d62672d3227292e616464436c6173612b808201527f7328276461726b2d62672d3227293b2428272e6c696768742d626f726465722d612ba08201527f3227292e72656d6f7665436c61737328276c696768742d626f726465722d3227612bc08201527f292e616464436c61737328276461726b2d626f726465722d3227293b2428272e612be08201527f6c696768742d626f7264657227292e72656d6f7665436c61737328276c696768612c008201527f742d626f7264657227292e616464436c61737328276461726b2d626f72646572612c208201527f27293b2428272e6c696768742d6c696e6b27292e72656d6f7665436c61737328612c408201527f276c696768742d6c696e6b27292e616464436c61737328276461726b2d6c696e612c608201527f6b27297d66756e6374696f6e207365744c6967687428297b242827236d6f6465612c808201527f2d73776974636827292e637373282766696c746572272c27696e766572742830612ca08201527f2927293b2428272e6461726b2d7465787427292e72656d6f7665436c61737328612cc08201527f276461726b2d7465787427292e616464436c61737328276c696768742d746578612ce08201527f7427293b2428272e6461726b2d746578742d3227292e72656d6f7665436c6173612d008201527f7328276461726b2d746578742d3227292e616464436c61737328276c69676874612d208201527f2d746578742d3227293b2428272e6461726b2d746578742d3327292e72656d6f612d408201527f7665436c61737328276461726b2d746578742d3327292e616464436c61737328612d608201527f276c696768742d746578742d3327293b2428272e6461726b2d746578742d3427612d808201527f292e72656d6f7665436c61737328276461726b2d746578742d3427292e616464612da08201527f436c61737328276c696768742d746578742d3427293b2428272e6461726b2d62612dc08201527f6727292e72656d6f7665436c61737328276461726b2d626727292e616464436c612de08201527f61737328276c696768742d626727293b2428272e6461726b2d62672d3227292e612e008201527f72656d6f7665436c61737328276461726b2d62672d3227292e616464436c6173612e208201527f7328276c696768742d62672d3227293b2428272e6461726b2d626f726465722d612e408201527f3227292e72656d6f7665436c61737328276461726b2d626f726465722d322729612e608201527f2e616464436c61737328276c696768742d626f726465722d3227293b2428272e612e808201527f6461726b2d626f7264657227292e72656d6f7665436c61737328276461726b2d612ea08201527f626f7264657227292e616464436c61737328276c696768742d626f7264657227612ec08201527f293b2428272e6461726b2d6c696e6b27292e72656d6f7665436c617373282764612ee08201527f61726b2d6c696e6b27292e616464436c61737328276c696768742d6c696e6b27612f008201527f297d66756e6374696f6e20746f67676c654d6f646528297b6966286d6f64653d612f208201527f3d3d30297b6d6f64653d313b7365744461726b28297d656c73657b6d6f64653d612f408201527f303b7365744c6967687428297d242827236d6f64652d73776974636827292e62612f608201527f6c757228297d3c2f7363726970743e3c2f626f64793e3c2f68746d6c3e000000612f8082015250565b5f613d44612f9d83610328565b9150613d4f82610332565b612f9d82019050919050565b5f613d6582613d37565b915081905091905056fea2646970667358221220ed2d9423a8c54a3b210f74bc1615322111e49478acdad88e9f9285ae0c2db1a364736f6c634300081a0033",
					"opcodes": "PUSH1 0x80 PUSH1 0x40 MSTORE CALLVALUE DUP1 ISZERO PUSH1 0xE JUMPI PUSH0 DUP1 REVERT JUMPDEST POP PUSH2 0x3DA5 DUP1 PUSH2 0x1C PUSH0 CODECOPY PUSH0 RETURN INVALID PUSH1 0x80 PUSH1 0x40 MSTORE CALLVALUE DUP1 ISZERO PUSH2 0xF JUMPI PUSH0 DUP1 REVERT JUMPDEST POP PUSH1 0x4 CALLDATASIZE LT PUSH2 0x29 JUMPI PUSH0 CALLDATALOAD PUSH1 0xE0 SHR DUP1 PUSH4 0xE2C13D62 EQ PUSH2 0x2D JUMPI JUMPDEST PUSH0 DUP1 REVERT JUMPDEST PUSH2 0x47 PUSH1 0x4 DUP1 CALLDATASIZE SUB DUP2 ADD SWAP1 PUSH2 0x42 SWAP2 SWAP1 PUSH2 0x1D4 JUMP JUMPDEST PUSH2 0x5D JUMP JUMPDEST PUSH1 0x40 MLOAD PUSH2 0x54 SWAP2 SWAP1 PUSH2 0x308 JUMP JUMPDEST PUSH1 0x40 MLOAD DUP1 SWAP2 SUB SWAP1 RETURN JUMPDEST PUSH1 0x60 PUSH1 0x40 MLOAD PUSH1 0x20 ADD PUSH2 0x6E SWAP1 PUSH2 0x3D5B JUMP JUMPDEST PUSH1 0x40 MLOAD PUSH1 0x20 DUP2 DUP4 SUB SUB DUP2 MSTORE SWAP1 PUSH1 0x40 MSTORE SWAP1 POP SWAP5 SWAP4 POP POP POP POP JUMP JUMPDEST PUSH0 PUSH1 0x40 MLOAD SWAP1 POP SWAP1 JUMP JUMPDEST PUSH0 DUP1 REVERT JUMPDEST PUSH0 DUP1 REVERT JUMPDEST PUSH0 DUP1 REVERT JUMPDEST PUSH0 DUP1 REVERT JUMPDEST PUSH0 PUSH1 0x1F NOT PUSH1 0x1F DUP4 ADD AND SWAP1 POP SWAP2 SWAP1 POP JUMP JUMPDEST PUSH32 0x4E487B7100000000000000000000000000000000000000000000000000000000 PUSH0 MSTORE PUSH1 0x41 PUSH1 0x4 MSTORE PUSH1 0x24 PUSH0 REVERT JUMPDEST PUSH2 0xE6 DUP3 PUSH2 0xA0 JUMP JUMPDEST DUP2 ADD DUP2 DUP2 LT PUSH8 0xFFFFFFFFFFFFFFFF DUP3 GT OR ISZERO PUSH2 0x105 JUMPI PUSH2 0x104 PUSH2 0xB0 JUMP JUMPDEST JUMPDEST DUP1 PUSH1 0x40 MSTORE POP POP POP JUMP JUMPDEST PUSH0 PUSH2 0x117 PUSH2 0x87 JUMP JUMPDEST SWAP1 POP PUSH2 0x123 DUP3 DUP3 PUSH2 0xDD JUMP JUMPDEST SWAP2 SWAP1 POP JUMP JUMPDEST PUSH0 PUSH8 0xFFFFFFFFFFFFFFFF DUP3 GT ISZERO PUSH2 0x142 JUMPI PUSH2 0x141 PUSH2 0xB0 JUMP JUMPDEST JUMPDEST PUSH2 0x14B DUP3 PUSH2 0xA0 JUMP JUMPDEST SWAP1 POP PUSH1 0x20 DUP2 ADD SWAP1 POP SWAP2 SWAP1 POP JUMP JUMPDEST DUP3 DUP2 DUP4 CALLDATACOPY PUSH0 DUP4 DUP4 ADD MSTORE POP POP POP JUMP JUMPDEST PUSH0 PUSH2 0x178 PUSH2 0x173 DUP5 PUSH2 0x128 JUMP JUMPDEST PUSH2 0x10E JUMP JUMPDEST SWAP1 POP DUP3 DUP2 MSTORE PUSH1 0x20 DUP2 ADD DUP5 DUP5 DUP5 ADD GT ISZERO PUSH2 0x194 JUMPI PUSH2 0x193 PUSH2 0x9C JUMP JUMPDEST JUMPDEST PUSH2 0x19F DUP5 DUP3 DUP6 PUSH2 0x158 JUMP JUMPDEST POP SWAP4 SWAP3 POP POP POP JUMP JUMPDEST PUSH0 DUP3 PUSH1 0x1F DUP4 ADD SLT PUSH2 0x1BB JUMPI PUSH2 0x1BA PUSH2 0x98 JUMP JUMPDEST JUMPDEST DUP2 CALLDATALOAD PUSH2 0x1CB DUP5 DUP3 PUSH1 0x20 DUP7 ADD PUSH2 0x166 JUMP JUMPDEST SWAP2 POP POP SWAP3 SWAP2 POP POP JUMP JUMPDEST PUSH0 DUP1 PUSH0 DUP1 PUSH1 0x80 DUP6 DUP8 SUB SLT ISZERO PUSH2 0x1EC JUMPI PUSH2 0x1EB PUSH2 0x90 JUMP JUMPDEST JUMPDEST PUSH0 DUP6 ADD CALLDATALOAD PUSH8 0xFFFFFFFFFFFFFFFF DUP2 GT ISZERO PUSH2 0x209 JUMPI PUSH2 0x208 PUSH2 0x94 JUMP JUMPDEST JUMPDEST PUSH2 0x215 DUP8 DUP3 DUP9 ADD PUSH2 0x1A7 JUMP JUMPDEST SWAP5 POP POP PUSH1 0x20 DUP6 ADD CALLDATALOAD PUSH8 0xFFFFFFFFFFFFFFFF DUP2 GT ISZERO PUSH2 0x236 JUMPI PUSH2 0x235 PUSH2 0x94 JUMP JUMPDEST JUMPDEST PUSH2 0x242 DUP8 DUP3 DUP9 ADD PUSH2 0x1A7 JUMP JUMPDEST SWAP4 POP POP PUSH1 0x40 DUP6 ADD CALLDATALOAD PUSH8 0xFFFFFFFFFFFFFFFF DUP2 GT ISZERO PUSH2 0x263 JUMPI PUSH2 0x262 PUSH2 0x94 JUMP JUMPDEST JUMPDEST PUSH2 0x26F DUP8 DUP3 DUP9 ADD PUSH2 0x1A7 JUMP JUMPDEST SWAP3 POP POP PUSH1 0x60 DUP6 ADD CALLDATALOAD PUSH8 0xFFFFFFFFFFFFFFFF DUP2 GT ISZERO PUSH2 0x290 JUMPI PUSH2 0x28F PUSH2 0x94 JUMP JUMPDEST JUMPDEST PUSH2 0x29C DUP8 DUP3 DUP9 ADD PUSH2 0x1A7 JUMP JUMPDEST SWAP2 POP POP SWAP3 SWAP6 SWAP2 SWAP5 POP SWAP3 POP JUMP JUMPDEST PUSH0 DUP2 MLOAD SWAP1 POP SWAP2 SWAP1 POP JUMP JUMPDEST PUSH0 DUP3 DUP3 MSTORE PUSH1 0x20 DUP3 ADD SWAP1 POP SWAP3 SWAP2 POP POP JUMP JUMPDEST DUP3 DUP2 DUP4 MCOPY PUSH0 DUP4 DUP4 ADD MSTORE POP POP POP JUMP JUMPDEST PUSH0 PUSH2 0x2DA DUP3 PUSH2 0x2A8 JUMP JUMPDEST PUSH2 0x2E4 DUP2 DUP6 PUSH2 0x2B2 JUMP JUMPDEST SWAP4 POP PUSH2 0x2F4 DUP2 DUP6 PUSH1 0x20 DUP7 ADD PUSH2 0x2C2 JUMP JUMPDEST PUSH2 0x2FD DUP2 PUSH2 0xA0 JUMP JUMPDEST DUP5 ADD SWAP2 POP POP SWAP3 SWAP2 POP POP JUMP JUMPDEST PUSH0 PUSH1 0x20 DUP3 ADD SWAP1 POP DUP2 DUP2 SUB PUSH0 DUP4 ADD MSTORE PUSH2 0x320 DUP2 DUP5 PUSH2 0x2D0 JUMP JUMPDEST SWAP1 POP SWAP3 SWAP2 POP POP JUMP JUMPDEST PUSH0 DUP2 SWAP1 POP SWAP3 SWAP2 POP POP JUMP JUMPDEST PUSH32 0x3C73637269707420747970653D276170706C69636174696F6E2F6A6176617363 PUSH0 DUP3 ADD MSTORE PUSH32 0x72697074273E636F6E7374206574684E6574776F726B3D2768747470733A2F2F PUSH1 0x20 DUP3 ADD MSTORE PUSH32 0x6D61696E6E65742E696E667572612E696F2F76332F6464343334623730633661 PUSH1 0x40 DUP3 ADD MSTORE PUSH32 0x373438376339326566646465643133653766316133273B636F6E737420776562 PUSH1 0x60 DUP3 ADD MSTORE PUSH32 0x333D6E65772057656233286E657720576562332E70726F7669646572732E4874 PUSH1 0x80 DUP3 ADD MSTORE PUSH32 0x747050726F7669646572286574684E6574776F726B29293B6C6574206973416C PUSH1 0xA0 DUP3 ADD MSTORE PUSH32 0x6C4C6F616465643D21313B6C6574206D6F64653D303B6C65742064656C61793D PUSH1 0xC0 DUP3 ADD MSTORE PUSH32 0x313565333B6C65742064656C6179323D64656C61792F333B24282723616E6472 PUSH1 0xE0 DUP3 ADD MSTORE PUSH32 0x657727292E6869646528293B6765745472616E73616374696F6E546578747328 PUSH2 0x100 DUP3 ADD MSTORE PUSH32 0x293B6C6574206E756D446F74733D303B6C6574206C6F61646572496E74657276 PUSH2 0x120 DUP3 ADD MSTORE PUSH32 0x616C3D736574496E74657276616C287570646174654C6F61646572446F74732C PUSH2 0x140 DUP3 ADD MSTORE PUSH32 0x316533293B66756E6374696F6E207570646174654C6F61646572446F74732829 PUSH2 0x160 DUP3 ADD MSTORE PUSH32 0x7B2428272E6C6F616465722D646F747327292E68746D6C286E756D446F74733D PUSH2 0x180 DUP3 ADD MSTORE PUSH32 0x3D3D313F272E273A6E756D446F74733D3D3D323F272E2E273A6E756D446F7473 PUSH2 0x1A0 DUP3 ADD MSTORE PUSH32 0x3D3D3D333F272E2E2E273A2727293B6E756D446F74732B2B3B6966286E756D44 PUSH2 0x1C0 DUP3 ADD MSTORE PUSH32 0x6F74733D3D3D34297B6E756D446F74733D307D7D6173796E632066756E637469 PUSH2 0x1E0 DUP3 ADD MSTORE PUSH32 0x6F6E206765745472616E73616374696F6E546578747328297B617070656E644C PUSH2 0x200 DUP3 ADD MSTORE PUSH32 0x6F6164696E67526F7728293B6C6574207472616E73616374696F6E5465787473 PUSH2 0x220 DUP3 ADD MSTORE PUSH32 0x3D5B5D3B6973416C6C4C6F616465643D21313B242827237370696E6E65722729 PUSH2 0x240 DUP3 ADD MSTORE PUSH32 0x2E73686F7728293B6C657420636F6F6B69653B7472797B636F6F6B69653D4A53 PUSH2 0x260 DUP3 ADD MSTORE PUSH32 0x4F4E2E706172736528676574436F6F6B696528277472616E73616374696F6E54 PUSH2 0x280 DUP3 ADD MSTORE PUSH32 0x657874732729297D63617463687B636F6F6B69653D5B5D7D6C657420636F6F6B PUSH2 0x2A0 DUP3 ADD MSTORE PUSH32 0x696554657874733D747970656F6620636F6F6B69653D3D3D276F626A65637427 PUSH2 0x2C0 DUP3 ADD MSTORE PUSH32 0x2626636F6F6B69652E6C656E6774683E303F636F6F6B69653A5B5D3B6C657420 PUSH2 0x2E0 DUP3 ADD MSTORE PUSH32 0x7374617274496E6465783D343B6C65742075726C3D6068747470733A2F2F6170 PUSH2 0x300 DUP3 ADD MSTORE PUSH32 0x692E65746865727363616E2E696F2F6170693F6D6F64756C653D6163636F756E PUSH2 0x320 DUP3 ADD MSTORE PUSH32 0x7426616374696F6E3D74786C69737426616464726573733D3078303032613362 PUSH2 0x340 DUP3 ADD MSTORE PUSH32 0x6536336233623331326461356435386562303264326234383836396234366563 PUSH2 0x360 DUP3 ADD MSTORE PUSH32 0x3832267374617274626C6F636B3D3026656E64626C6F636B3D39393939393939 PUSH2 0x380 DUP3 ADD MSTORE PUSH32 0x3926706167653D31266F66667365743D313030303026736F72743D6173632661 PUSH2 0x3A0 DUP3 ADD MSTORE PUSH32 0x70696B65793D53353251454A5834464B4E435337394B3837584E58434156584E PUSH2 0x3C0 DUP3 ADD MSTORE PUSH32 0x505A335939395849603B7472797B6C657420646174613D617761697420242E67 PUSH2 0x3E0 DUP3 ADD MSTORE PUSH32 0x65742875726C293B6C6574207472616E73616374696F6E4964733D646174612E PUSH2 0x400 DUP3 ADD MSTORE PUSH32 0x726573756C742E66696C746572282874783D3E74782E66726F6D3D3D3D74782E PUSH2 0x420 DUP3 ADD MSTORE PUSH32 0x746F29292E6D6170282874783D3E74782E6861736829293B24282723746F7461 PUSH2 0x440 DUP3 ADD MSTORE PUSH32 0x6C2D706F73747327292E74657874287374617274496E6465782D33293B726571 PUSH2 0x460 DUP3 ADD MSTORE PUSH32 0x75657374416E696D6174696F6E4672616D65282866756E6374696F6E28297B24 PUSH2 0x480 DUP3 ADD MSTORE PUSH32 0x2827236C6F6164696E672D7465787427292E7465787428604C6F6164696E6720 PUSH2 0x4A0 DUP3 ADD MSTORE PUSH32 0x247B7374617274496E6465782D337D206F6620247B7472616E73616374696F6E PUSH2 0x4C0 DUP3 ADD MSTORE PUSH32 0x4964732E6C656E6774682D337D60297D29293B6173796E632066756E6374696F PUSH2 0x4E0 DUP3 ADD MSTORE PUSH32 0x6E2070726F636573734E6578745472616E73616374696F6E28297B6966287374 PUSH2 0x500 DUP3 ADD MSTORE PUSH32 0x617274496E6465783C7472616E73616374696F6E4964732E6C656E677468297B PUSH2 0x520 DUP3 ADD MSTORE PUSH32 0x6C6574207472616E73616374696F6E49643D7472616E73616374696F6E496473 PUSH2 0x540 DUP3 ADD MSTORE PUSH32 0x5B7374617274496E6465785D3B696628636F6F6B696554657874732E66696C74 PUSH2 0x560 DUP3 ADD MSTORE PUSH32 0x65722828783D3E782E686173683D3D537472696E67287472616E73616374696F PUSH2 0x580 DUP3 ADD MSTORE PUSH32 0x6E49642929292E6C656E6774683D3D30297B6177616974206E65772050726F6D PUSH2 0x5A0 DUP3 ADD MSTORE PUSH32 0x69736528287265736F6C76653D3E73657454696D656F7574287265736F6C7665 PUSH2 0x5C0 DUP3 ADD MSTORE PUSH32 0x2C64656C6179322929293B6C657420726573756C743D61776169742077656233 PUSH2 0x5E0 DUP3 ADD MSTORE PUSH32 0x2E6574682E6765745472616E73616374696F6E287472616E73616374696F6E49 PUSH2 0x600 DUP3 ADD MSTORE PUSH32 0x64293B6C657420626C6F636B4E756D6265723D7061727365496E742872657375 PUSH2 0x620 DUP3 ADD MSTORE PUSH32 0x6C742E626C6F636B4E756D626572293B6177616974206E65772050726F6D6973 PUSH2 0x640 DUP3 ADD MSTORE PUSH32 0x6528287265736F6C76653D3E73657454696D656F7574287265736F6C76652C64 PUSH2 0x660 DUP3 ADD MSTORE PUSH32 0x656C6179322929293B6C657420696E7075743D776562332E7574696C732E746F PUSH2 0x680 DUP3 ADD MSTORE PUSH32 0x417363696928726573756C742E696E707574293B6C657420626C6F636B526573 PUSH2 0x6A0 DUP3 ADD MSTORE PUSH32 0x756C743D617761697420776562332E6574682E676574426C6F636B28626C6F63 PUSH2 0x6C0 DUP3 ADD MSTORE PUSH32 0x6B4E756D626572293B6C657420646174653D6E65772044617465284E756D6265 PUSH2 0x6E0 DUP3 ADD MSTORE PUSH32 0x7228626C6F636B526573756C742E74696D657374616D70292A316533293B6C65 PUSH2 0x700 DUP3 ADD MSTORE PUSH32 0x74206D6F6E7468733D5B274A616E272C27466562272C274D6172272C27417072 PUSH2 0x720 DUP3 ADD MSTORE PUSH32 0x272C274D6179272C274A756E272C274A756C272C27417567272C27536570272C PUSH2 0x740 DUP3 ADD MSTORE PUSH32 0x274F6374272C274E6F76272C27446563275D3B6C657420796561723D64617465 PUSH2 0x760 DUP3 ADD MSTORE PUSH32 0x2E67657446756C6C5965617228293B6C6574206D6F6E74683D6D6F6E7468735B PUSH2 0x780 DUP3 ADD MSTORE PUSH32 0x646174652E6765744D6F6E746828295D3B6C6574206461793D646174652E6765 PUSH2 0x7A0 DUP3 ADD MSTORE PUSH32 0x744461746528293B6C657420686F7572733D646174652E676574486F75727328 PUSH2 0x7C0 DUP3 ADD MSTORE PUSH32 0x293B6C6574206D696E757465733D2730272B646174652E6765744D696E757465 PUSH2 0x7E0 DUP3 ADD MSTORE PUSH32 0x7328293B6C6574207365636F6E64733D2730272B646174652E6765745365636F PUSH2 0x800 DUP3 ADD MSTORE PUSH32 0x6E647328293B6C657420666F726D617474656454696D653D6D6F6E74682B2720 PUSH2 0x820 DUP3 ADD MSTORE PUSH32 0x272B6461792B2720272B796561722B2720272B686F7572732B273A272B6D696E PUSH2 0x840 DUP3 ADD MSTORE PUSH32 0x757465732E737562737472282D32292B273A272B7365636F6E64732E73756273 PUSH2 0x860 DUP3 ADD MSTORE PUSH32 0x7472282D32293B6C6574206F626A3D7B686173683A537472696E67287472616E PUSH2 0x880 DUP3 ADD MSTORE PUSH32 0x73616374696F6E4964292C626C6F636B3A537472696E6728626C6F636B4E756D PUSH2 0x8A0 DUP3 ADD MSTORE PUSH32 0x626572292C746578743A696E7075742C74696D653A537472696E6728626C6F63 PUSH2 0x8C0 DUP3 ADD MSTORE PUSH32 0x6B526573756C742E74696D657374616D70292C666F726D617474656454696D65 PUSH2 0x8E0 DUP3 ADD MSTORE PUSH32 0x3A666F726D617474656454696D657D3B7472616E73616374696F6E5465787473 PUSH2 0x900 DUP3 ADD MSTORE PUSH32 0x2E70757368286F626A293B617070656E64436F6D6D656E74286F626A293B636F PUSH2 0x920 DUP3 ADD MSTORE PUSH32 0x6F6B696554657874732E70757368286F626A293B736574436F6F6B6965282774 PUSH2 0x940 DUP3 ADD MSTORE PUSH32 0x72616E73616374696F6E5465787473272C4A534F4E2E737472696E6769667928 PUSH2 0x960 DUP3 ADD MSTORE PUSH32 0x636F6F6B6965546578747329293B7374617274496E6465782B2B3B2428272374 PUSH2 0x980 DUP3 ADD MSTORE PUSH32 0x6F74616C2D706F73747327292E74657874287374617274496E6465782D33293B PUSH2 0x9A0 DUP3 ADD MSTORE PUSH32 0x72657175657374416E696D6174696F6E4672616D65282866756E6374696F6E28 PUSH2 0x9C0 DUP3 ADD MSTORE PUSH32 0x297B242827236C6F6164696E672D7465787427292E7465787428604C6F616469 PUSH2 0x9E0 DUP3 ADD MSTORE PUSH32 0x6E6720247B7374617274496E6465782D337D206F6620247B7472616E73616374 PUSH2 0xA00 DUP3 ADD MSTORE PUSH32 0x696F6E4964732E6C656E6774682D337D60297D29293B6177616974206E657720 PUSH2 0xA20 DUP3 ADD MSTORE PUSH32 0x50726F6D69736528287265736F6C76653D3E73657454696D656F757428726573 PUSH2 0xA40 DUP3 ADD MSTORE PUSH32 0x6F6C76652C64656C6179322929293B61776169742070726F636573734E657874 PUSH2 0xA60 DUP3 ADD MSTORE PUSH32 0x5472616E73616374696F6E28297D656C73657B617070656E64436F6D6D656E74 PUSH2 0xA80 DUP3 ADD MSTORE PUSH32 0x28636F6F6B696554657874732E66696C7465722828783D3E782E686173683D3D PUSH2 0xAA0 DUP3 ADD MSTORE PUSH32 0x537472696E67287472616E73616374696F6E49642929295B305D293B73746172 PUSH2 0xAC0 DUP3 ADD MSTORE PUSH32 0x74496E6465782B2B3B24282723746F74616C2D706F73747327292E7465787428 PUSH2 0xAE0 DUP3 ADD MSTORE PUSH32 0x7374617274496E6465782D33293B72657175657374416E696D6174696F6E4672 PUSH2 0xB00 DUP3 ADD MSTORE PUSH32 0x616D65282866756E6374696F6E28297B242827236C6F6164696E672D74657874 PUSH2 0xB20 DUP3 ADD MSTORE PUSH32 0x27292E7465787428604C6F6164696E6720247B7374617274496E6465782D337D PUSH2 0xB40 DUP3 ADD MSTORE PUSH32 0x206F6620247B7472616E73616374696F6E4964732E6C656E6774682D337D6029 PUSH2 0xB60 DUP3 ADD MSTORE PUSH32 0x7D29293B61776169742070726F636573734E6578745472616E73616374696F6E PUSH2 0xB80 DUP3 ADD MSTORE PUSH32 0x28297D7D656C73657B636C656172496E74657276616C286C6F61646572496E74 PUSH2 0xBA0 DUP3 ADD MSTORE PUSH32 0x657276616C293B72656D6F76654C6F6164696E67526F7728293B24282723616E PUSH2 0xBC0 DUP3 ADD MSTORE PUSH32 0x6472657727292E73686F7728297D7D61776169742070726F636573734E657874 PUSH2 0xBE0 DUP3 ADD MSTORE PUSH32 0x5472616E73616374696F6E28293B6973416C6C4C6F616465643D21307D636174 PUSH2 0xC00 DUP3 ADD MSTORE PUSH32 0x6368286572726F72297B72656D6F76654C6F6164696E67526F7728293B617070 PUSH2 0xC20 DUP3 ADD MSTORE PUSH32 0x656E644572726F72526F7728293B636F6E736F6C652E6572726F722827466169 PUSH2 0xC40 DUP3 ADD MSTORE PUSH32 0x6C656420746F206665746368207472616E73616374696F6E733A272C6572726F PUSH2 0xC60 DUP3 ADD MSTORE PUSH32 0x72293B6966287265747279436F756E743C35297B73657454696D656F75742828 PUSH2 0xC80 DUP3 ADD MSTORE PUSH32 0x66756E6374696F6E28297B72656D6F76654C6F6164696E67526F7728293B6765 PUSH2 0xCA0 DUP3 ADD MSTORE PUSH32 0x745472616E73616374696F6E546578747328297D292C316534297D7D7D6C6574 PUSH2 0xCC0 DUP3 ADD MSTORE PUSH32 0x207265747279436F756E743D313B66756E6374696F6E20617070656E64457272 PUSH2 0xCE0 DUP3 ADD MSTORE PUSH32 0x6F72526F7728297B6966287265747279436F756E743D3D3D34297B6C65742065 PUSH2 0xD00 DUP3 ADD MSTORE PUSH32 0x72726F72526F773D600A20202020202020202020202020202020202020203C74 PUSH2 0xD20 DUP3 ADD MSTORE PUSH32 0x7220636C6173733D277461626C652D726F77206C696768742D6267273E0A2020 PUSH2 0xD40 DUP3 ADD MSTORE PUSH32 0x2020202020202020202020202020202020202020202020202020202020202020 PUSH2 0xD60 DUP3 ADD MSTORE PUSH32 0x2020202020202020202020202020202020202020202020202020202020203C74 PUSH2 0xD80 DUP3 ADD MSTORE PUSH32 0x643E3C2F74643E0A0A2020202020202020202020202020202020202020202020 PUSH2 0xDA0 DUP3 ADD MSTORE PUSH32 0x203C746420636C6173733D276C696768742D746578742D32206C6F6164696E67 PUSH2 0xDC0 DUP3 ADD MSTORE PUSH32 0x2D63656C6C2720636F6C7370616E3D2732273E0A202020202020202020202020 PUSH2 0xDE0 DUP3 ADD MSTORE PUSH32 0x202020202020202020202020202020203C6469762069643D276572726F722720 PUSH2 0xE00 DUP3 ADD MSTORE PUSH32 0x636C6173733D276572726F722D74657874273E0A202020202020202020202020 PUSH2 0xE20 DUP3 ADD MSTORE PUSH32 0x20202020202020202020202020202020202020203C7370616E2069643D276572 PUSH2 0xE40 DUP3 ADD MSTORE PUSH32 0x726F722D74657874273E4661696C656420746F206C6F6164207472616E736163 PUSH2 0xE60 DUP3 ADD MSTORE PUSH32 0x74696F6E732066726F6D2045746865727363616E2028332F332E3C2F7370616E PUSH2 0xE80 DUP3 ADD MSTORE PUSH32 0x3E0A202020202020202020202020202020202020202020202020202020203C2F PUSH2 0xEA0 DUP3 ADD MSTORE PUSH32 0x6469763E0A2020202020202020202020202020202020202020202020203C2F74 PUSH2 0xEC0 DUP3 ADD MSTORE PUSH32 0x643E0A20202020202020202020202020202020202020203C2F74723E0A202020 PUSH2 0xEE0 DUP3 ADD MSTORE PUSH32 0x20202020202020202020202020603B242827237461626C652D626F647927292E PUSH2 0xF00 DUP3 ADD MSTORE PUSH32 0x617070656E64286572726F72526F77293B7265747279436F756E742B2B3B6966 PUSH2 0xF20 DUP3 ADD MSTORE PUSH32 0x286D6F64653D3D3D31297B7365744461726B28297D656C73657B7365744C6967 PUSH2 0xF40 DUP3 ADD MSTORE PUSH32 0x687428297D72657475726E7D6C6574206572726F72526F773D600A2020202020 PUSH2 0xF60 DUP3 ADD MSTORE PUSH32 0x2020202020202020202020202020203C747220636C6173733D277461626C652D PUSH2 0xF80 DUP3 ADD MSTORE PUSH32 0x726F77206C696768742D6267273E0A2020202020202020202020202020202020 PUSH2 0xFA0 DUP3 ADD MSTORE PUSH32 0x2020202020202020202020202020202020202020202020202020202020202020 PUSH2 0xFC0 DUP3 ADD MSTORE PUSH32 0x2020202020202020202020202020203C74643E3C2F74643E0A0A202020202020 PUSH2 0xFE0 DUP3 ADD MSTORE PUSH32 0x2020202020202020202020202020202020203C746420636C6173733D276C6967 PUSH2 0x1000 DUP3 ADD MSTORE PUSH32 0x68742D746578742D32206C6F6164696E672D63656C6C2720636F6C7370616E3D PUSH2 0x1020 DUP3 ADD MSTORE PUSH32 0x2732273E0A202020202020202020202020202020202020202020202020202020 PUSH2 0x1040 DUP3 ADD MSTORE PUSH32 0x203C6469762069643D276572726F722720636C6173733D276572726F722D7465 PUSH2 0x1060 DUP3 ADD MSTORE PUSH32 0x7874273E0A202020202020202020202020202020202020202020202020202020 PUSH2 0x1080 DUP3 ADD MSTORE PUSH32 0x20202020203C7370616E2069643D276572726F722D74657874273E3C2F737061 PUSH2 0x10A0 DUP3 ADD MSTORE PUSH32 0x6E3E3C7370616E20636C6173733D276C6F616465722D646F7473273E3C2F7370 PUSH2 0x10C0 DUP3 ADD MSTORE PUSH32 0x616E3E0A20202020202020202020202020202020202020202020202020202020 PUSH2 0x10E0 DUP3 ADD MSTORE PUSH32 0x3C2F6469763E0A2020202020202020202020202020202020202020202020203C PUSH2 0x1100 DUP3 ADD MSTORE PUSH32 0x2F74643E0A0A20202020202020202020202020202020202020203C2F74723E0A PUSH2 0x1120 DUP3 ADD MSTORE PUSH32 0x20202020202020202020202020202020603B242827237461626C652D626F6479 PUSH2 0x1140 DUP3 ADD MSTORE PUSH32 0x27292E617070656E64286572726F72526F77293B242827236572726F722D7465 PUSH2 0x1160 DUP3 ADD MSTORE PUSH32 0x787427292E7465787428604661696C656420746F206C6F6164207472616E7361 PUSH2 0x1180 DUP3 ADD MSTORE PUSH32 0x6374696F6E732066726F6D2045746865727363616E2E205265747279696E6720 PUSH2 0x11A0 DUP3 ADD MSTORE PUSH32 0x28247B7265747279436F756E747D2F332960293B7265747279436F756E742B2B PUSH2 0x11C0 DUP3 ADD MSTORE PUSH32 0x3B6966286D6F64653D3D3D31297B7365744461726B28297D656C73657B736574 PUSH2 0x11E0 DUP3 ADD MSTORE PUSH32 0x4C6967687428297D7D66756E6374696F6E20617070656E644C6F6164696E6752 PUSH2 0x1200 DUP3 ADD MSTORE PUSH32 0x6F7728297B6C6574206C6F6164696E67526F773D600A20202020202020202020 PUSH2 0x1220 DUP3 ADD MSTORE PUSH32 0x202020202020202020203C747220636C6173733D276C696768742D6267273E0A PUSH2 0x1240 DUP3 ADD MSTORE PUSH32 0x2020202020202020202020202020202020202020202020202020202020202020 PUSH2 0x1260 DUP3 ADD MSTORE PUSH32 0x2020202020202020202020202020202020202020202020202020202020202020 PUSH2 0x1280 DUP3 ADD MSTORE PUSH32 0x3C74643E3C2F74643E0A0A202020202020202020202020202020202020202020 PUSH2 0x12A0 DUP3 ADD MSTORE PUSH32 0x2020203C746420636C6173733D276C696768742D746578742D32206C6F616469 PUSH2 0x12C0 DUP3 ADD MSTORE PUSH32 0x6E672D63656C6C273E0A20202020202020202020202020202020202020202020 PUSH2 0x12E0 DUP3 ADD MSTORE PUSH32 0x2020202020203C6469762069643D276C6F6164696E67273E0A20202020202020 PUSH2 0x1300 DUP3 ADD MSTORE PUSH32 0x202020202020202020202020202020202020202020202020203C7370616E2069 PUSH2 0x1320 DUP3 ADD MSTORE PUSH32 0x643D276C6F6164696E672D74657874273E4C6F6164696E67207472616E736163 PUSH2 0x1340 DUP3 ADD MSTORE PUSH32 0x74696F6E733C2F7370616E3E3C7370616E20636C6173733D276C6F616465722D PUSH2 0x1360 DUP3 ADD MSTORE PUSH32 0x646F7473273E3C2F7370616E3E0A202020202020202020202020202020202020 PUSH2 0x1380 DUP3 ADD MSTORE PUSH32 0x202020202020202020203C2F6469763E0A202020202020202020202020202020 PUSH2 0x13A0 DUP3 ADD MSTORE PUSH32 0x2020202020202020203C2F74643E0A0A20202020202020202020202020202020 PUSH2 0x13C0 DUP3 ADD MSTORE PUSH32 0x202020203C2F74723E0A20202020202020202020202020202020603B24282723 PUSH2 0x13E0 DUP3 ADD MSTORE PUSH32 0x7461626C652D626F647927292E617070656E64286C6F6164696E67526F77293B PUSH2 0x1400 DUP3 ADD MSTORE PUSH32 0x6966286D6F64653D3D3D31297B7365744461726B28297D656C73657B7365744C PUSH2 0x1420 DUP3 ADD MSTORE PUSH32 0x6967687428297D7D66756E6374696F6E2072656D6F76654C6F6164696E67526F PUSH2 0x1440 DUP3 ADD MSTORE PUSH32 0x7728297B242827237461626C652D626F647927292E66696E64282774723A6C61 PUSH2 0x1460 DUP3 ADD MSTORE PUSH32 0x737427292E72656D6F766528297D6C657420696E74657276616C3D736574496E PUSH2 0x1480 DUP3 ADD MSTORE PUSH32 0x74657276616C282866756E6374696F6E28297B6966286973416C6C4C6F616465 PUSH2 0x14A0 DUP3 ADD MSTORE PUSH32 0x64297B6973416C6C4C6F616465643D21313B636C656172496E74657276616C28 PUSH2 0x14C0 DUP3 ADD MSTORE PUSH32 0x696E74657276616C297D7D292C326533293B66756E6374696F6E20736574436F PUSH2 0x14E0 DUP3 ADD MSTORE PUSH32 0x6F6B6965286E616D652C76616C75652C64617973297B6C6F63616C53746F7261 PUSH2 0x1500 DUP3 ADD MSTORE PUSH32 0x67655B6E616D655D3D76616C75657D66756E6374696F6E20676574436F6F6B69 PUSH2 0x1520 DUP3 ADD MSTORE PUSH32 0x65286E616D65297B72657475726E206C6F63616C53746F726167655B6E616D65 PUSH2 0x1540 DUP3 ADD MSTORE PUSH32 0x5D7C7C275B5D277D66756E6374696F6E20617070656E64436F6D6D656E742874 PUSH2 0x1560 DUP3 ADD MSTORE PUSH32 0x72616E73616374696F6E5465787473297B6966287472616E73616374696F6E54 PUSH2 0x1580 DUP3 ADD MSTORE PUSH32 0x657874732E746578742E6C656E6774683E30297B72656D6F76654C6F6164696E PUSH2 0x15A0 DUP3 ADD MSTORE PUSH32 0x67526F7728293B242827237461626C652D626F647927292E617070656E642860 PUSH2 0x15C0 DUP3 ADD MSTORE PUSH32 0x3C747220636C6173733D277461626C652D726F77206C696768742D6267206C69 PUSH2 0x15E0 DUP3 ADD MSTORE PUSH32 0x6768742D626F72646572206C696768742D74657874273E3C746420636C617373 PUSH2 0x1600 DUP3 ADD MSTORE PUSH32 0x3D276C696768742D6267272077696474683D273330252720616C69676E3D2763 PUSH2 0x1620 DUP3 ADD MSTORE PUSH32 0x656E746572273E3C666F6E7420636C6173733D27736D616C6C5F74657874273E PUSH2 0x1640 DUP3 ADD MSTORE PUSH32 0x3C6120636C6173733D276C696768742D6C696E6B27207461726765743D275F62 PUSH2 0x1660 DUP3 ADD MSTORE PUSH32 0x6C616E6B2720687265663D2768747470733A2F2F7777772E746A6F2E6172742F PUSH2 0x1680 DUP3 ADD MSTORE PUSH32 0x273E546A6F3C2F613E3C2F623E3C666F6E743E3C2F74643E3C746420616C6967 PUSH2 0x16A0 DUP3 ADD MSTORE PUSH32 0x6E3D277269676874272077696474683D273730252720636C6173733D276C6967 PUSH2 0x16C0 DUP3 ADD MSTORE PUSH32 0x68742D6267206C696768742D6C696E6B273E3C64697620636C6173733D27706F PUSH2 0x16E0 DUP3 ADD MSTORE PUSH32 0x7374496E666F206465736B746F70273E3C7370616E20636C6173733D27706F73 PUSH2 0x1700 DUP3 ADD MSTORE PUSH32 0x744E756D206465736B746F70273E3C6120636C6173733D276C696768742D6C69 PUSH2 0x1720 DUP3 ADD MSTORE PUSH32 0x6E6B27207374796C653D27666F6E742D73697A653A313270783B272068726566 PUSH2 0x1740 DUP3 ADD MSTORE PUSH32 0x3D2768747470733A2F2F65746865727363616E2E696F2F74782F247B7472616E PUSH2 0x1760 DUP3 ADD MSTORE PUSH32 0x73616374696F6E54657874732E686173687D27207461726765743D275F626C61 PUSH2 0x1780 DUP3 ADD MSTORE PUSH32 0x6E6B27207469746C653D274C696E6B20746F2074686973207472616E73616374 PUSH2 0x17A0 DUP3 ADD MSTORE PUSH32 0x696F6E2720636C6173733D276C696768742D6C696E6B273E20247B7472616E73 PUSH2 0x17C0 DUP3 ADD MSTORE PUSH32 0x616374696F6E54657874732E666F726D617474656454696D657D203C696D6720 PUSH2 0x17E0 DUP3 ADD MSTORE PUSH32 0x7374796C653D272D7765626B69742D626F782D616C69676E3A20626173656C69 PUSH2 0x1800 DUP3 ADD MSTORE PUSH32 0x6E653B2777696474683D27313070783B27206865696768743D27313070782720 PUSH2 0x1820 DUP3 ADD MSTORE PUSH32 0x7374796C653D27766572746963616C2D616C69676E3A206D6964646C653B2720 PUSH2 0x1840 DUP3 ADD MSTORE PUSH32 0x7372633D27646174613A696D6167652F7376672B786D6C3B6261736536342C50 PUSH2 0x1860 DUP3 ADD MSTORE PUSH32 0x484E325A79423361575230614430694D54497A4969426F5A576C6E6148513949 PUSH2 0x1880 DUP3 ADD MSTORE PUSH32 0x6A45794D794967646D6C6C64304A76654430694D434177494445794D7941784D PUSH2 0x18A0 DUP3 ADD MSTORE PUSH32 0x6A4D6949475A7062477739496D3576626D5569494868746247357A50534A6F64 PUSH2 0x18C0 DUP3 ADD MSTORE PUSH32 0x4852774F693876643364334C6E637A4C6D39795A7938794D4441774C334E325A PUSH2 0x18E0 DUP3 ADD MSTORE PUSH32 0x79492B44516F38634746306143426B50534A4E4D6A55754E7A6B674E5467754E PUSH2 0x1900 DUP3 ADD MSTORE PUSH32 0x4445304F554D794E5334334F544178494455334C6A637A4E5463674D6A55754F PUSH2 0x1920 DUP3 ADD MSTORE PUSH32 0x5449304E4341314E7934774E6A4D7A494449324C6A45344E5445674E5459754E PUSH2 0x1940 DUP3 ADD MSTORE PUSH32 0x444D324D554D794E6934304E445534494455314C6A67774F5341794E6934344D PUSH2 0x1960 DUP3 ADD MSTORE PUSH32 0x6A6334494455314C6A497A4F5459674D6A63754D7A41354D6941314E4334334E PUSH2 0x1980 DUP3 ADD MSTORE PUSH32 0x6A4131517A49334C6A63354D4463674E5451754D6A67784E4341794F43347A4E PUSH2 0x19A0 DUP3 ADD MSTORE PUSH32 0x6A45354944557A4C6A6B774D6A45674D6A67754F546B774D7941314D7934324E PUSH2 0x19C0 DUP3 ADD MSTORE PUSH32 0x445130517A49354C6A59784F4463674E544D754D7A67324E79417A4D4334794F PUSH2 0x19E0 DUP3 ADD MSTORE PUSH32 0x5445344944557A4C6A49314E5463674D7A41754F5463784944557A4C6A49314F PUSH2 0x1A00 DUP3 ADD MSTORE PUSH32 0x446C4D4D7A6B754E5459784944557A4C6A49344E6A6C444E4441754F544D774E PUSH2 0x1A20 DUP3 ADD MSTORE PUSH32 0x5341314D7934794F445935494451794C6A49304E4341314D7934344D7A45674E PUSH2 0x1A40 DUP3 ADD MSTORE PUSH32 0x444D754D6A45794E4341314E4334334F546B30517A51304C6A45344D446B674E PUSH2 0x1A60 DUP3 ADD MSTORE PUSH32 0x5455754E7A59334F4341304E4334334D6A55674E5463754D4467784D7941304E PUSH2 0x1A80 DUP3 ADD MSTORE PUSH32 0x4334334D6A55674E5467754E4455774F5659354D4334354D7A4135517A51314C PUSH2 0x1AA0 DUP3 ADD MSTORE PUSH32 0x6A59354D6941354D4334324E444D35494451324C6A6B7A4E4341354D43347A4D PUSH2 0x1AC0 DUP3 ADD MSTORE PUSH32 0x7A6335494451344C6A49354D7941354D4334774D546335517A51354C6A497A4E PUSH2 0x1AE0 DUP3 ADD MSTORE PUSH32 0x7941344F5334334F545979494455774C6A41334F444D674F446B754D6A597949 PUSH2 0x1B00 DUP3 ADD MSTORE PUSH32 0x4455774C6A59344D4455674F4467754E5441784F554D314D5334794F44493249 PUSH2 0x1B20 DUP3 ADD MSTORE PUSH32 0x4467334C6A63304D5467674E5445754E6A45774D6941344E6934344D44413249 PUSH2 0x1B40 DUP3 ADD MSTORE PUSH32 0x4455784C6A5978494467314C6A677A4D446C574E4455754E5451774F554D314D PUSH2 0x1B60 DUP3 ADD MSTORE PUSH32 0x5334324D5341304E4334784E7A4579494455794C6A45314E4341304D6934344E PUSH2 0x1B80 DUP3 ADD MSTORE PUSH32 0x5463324944557A4C6A45794D6A51674E4445754F446735517A55304C6A41354D PUSH2 0x1BA0 DUP3 ADD MSTORE PUSH32 0x4467674E4441754F5449774E4341314E5334304D44517A494451774C6A4D334E PUSH2 0x1BC0 DUP3 ADD MSTORE PUSH32 0x6A49674E5459754E7A6330494451774C6A4D334E546C494E6A55754D7A677851 PUSH2 0x1BE0 DUP3 ADD MSTORE PUSH32 0x7A59324C6A63314D4459674E4441754D7A63324D6941324F4334774E6A517849 PUSH2 0x1C00 DUP3 ADD MSTORE PUSH32 0x4451774C6A6B794D4451674E6A6B754D444D794E5341304D5334344F446C444E PUSH2 0x1C20 DUP3 ADD MSTORE PUSH32 0x7A41754D4441774F5341304D6934344E546332494463774C6A55304E5341304E PUSH2 0x1C40 DUP3 ADD MSTORE PUSH32 0x4334784E7A4579494463774C6A55304E5341304E5334314E444135566A67794C PUSH2 0x1C60 DUP3 ADD MSTORE PUSH32 0x6A6B7A4D7A6C444E7A41754E545131494467794C6A6B7A4D7A6B674E7A49754E PUSH2 0x1C80 DUP3 ADD MSTORE PUSH32 0x7941344D6934774E6A4535494463304C6A63354F5341344D5334784E7A553551 PUSH2 0x1CA0 DUP3 ADD MSTORE PUSH32 0x7A63314C6A55334F4463674F4441754F4451324D6941334E6934794E44517849 PUSH2 0x1CC0 DUP3 ADD MSTORE PUSH32 0x4467774C6A49354E4445674E7A59754E7A45794D6941334F5334314F44673251 PUSH2 0x1CE0 DUP3 ADD MSTORE PUSH32 0x7A63334C6A45344D444D674E7A67754F44677A4D6941334E7934304D7A417949 PUSH2 0x1D00 DUP3 ADD MSTORE PUSH32 0x4463344C6A41314E5455674E7A63754E444D78494463334C6A49774F446C574D PUSH2 0x1D20 DUP3 ADD MSTORE PUSH32 0x7A49754E6A4D774F554D334E7934304D7A45674D7A45754D6A59784E5341334E PUSH2 0x1D40 DUP3 ADD MSTORE PUSH32 0x7934354E7A5135494449354C6A6B304F4445674E7A67754F54517A4D5341794F PUSH2 0x1D60 DUP3 ADD MSTORE PUSH32 0x4334354E7A6B33517A63354C6A6B784D544D674D6A67754D4445784D7941344D PUSH2 0x1D80 DUP3 ADD MSTORE PUSH32 0x5334794D6A5131494449334C6A51324E7A49674F4449754E546B7A4F5341794E PUSH2 0x1DA0 DUP3 ADD MSTORE PUSH32 0x7934304E6A593553446B784C6A49774D554D354D6934314E7A4132494449334C PUSH2 0x1DC0 DUP3 ADD MSTORE PUSH32 0x6A51324E6A6B674F544D754F446730494449344C6A41784D446B674F5451754F PUSH2 0x1DE0 DUP3 ADD MSTORE PUSH32 0x4455794E5341794F4334354E7A6B30517A6B314C6A67794D446B674D6A6B754F PUSH2 0x1E00 DUP3 ADD MSTORE PUSH32 0x5451334F4341354E69347A4E6A55674D7A45754D6A59784D7941354E69347A4E PUSH2 0x1E20 DUP3 ADD MSTORE PUSH32 0x6A55674D7A49754E6A4D774F5659324F53347A4D7A6B35517A45774D7934344D PUSH2 0x1E40 DUP3 ADD MSTORE PUSH32 0x6A63674E6A4D754F544D784F5341784D5445754D7A6735494455334C6A51794E PUSH2 0x1E60 DUP3 ADD MSTORE PUSH32 0x7A6B674D5445334C6A4D35494451354C6A59774E6A6C444D5445344C6A49324D PUSH2 0x1E80 DUP3 ADD MSTORE PUSH32 0x5341304F4334304E7A4533494445784F4334344D7A63674E4463754D544D344E PUSH2 0x1EA0 DUP3 ADD MSTORE PUSH32 0x6941784D546B754D445933494451314C6A63794E6A64444D5445354C6A49354E PUSH2 0x1EC0 DUP3 ADD MSTORE PUSH32 0x7941304E43347A4D545134494445784F5334784E7A51674E4449754F4459334F PUSH2 0x1EE0 DUP3 ADD MSTORE PUSH32 0x4341784D5467754E7A4135494451784C6A55784E446C444D5445314C6A6B7A4D PUSH2 0x1F00 DUP3 ADD MSTORE PUSH32 0x53417A4D7934314D6A4933494445784D5334314D5459674D6A59754D546B344D PUSH2 0x1F20 DUP3 ADD MSTORE PUSH32 0x7941784D4455754E7A5131494449774C6A41784D4456444F546B754F54633049 PUSH2 0x1F40 DUP3 ADD MSTORE PUSH32 0x44457A4C6A67794D6A67674F5449754F5463304F5341344C6A6B774E7A673149 PUSH2 0x1F60 DUP3 ADD MSTORE PUSH32 0x4467314C6A45354E5455674E5334314F44417A4D6B4D334E7934304D54597849 PUSH2 0x1F80 DUP3 ADD MSTORE PUSH32 0x4449754D6A55794F4341324F5334774D6A6333494441754E5467314F544D3449 PUSH2 0x1FA0 DUP3 ADD MSTORE PUSH32 0x4459774C6A55324E7A45674D4334324F4459304D545A444E5449754D5441324E PUSH2 0x1FC0 DUP3 ADD MSTORE PUSH32 0x5341774C6A63344E6A67354D7941304D7934334E6A4178494449754E6A55794E PUSH2 0x1FE0 DUP3 ADD MSTORE PUSH32 0x53417A4E6934774E6A49674E6934784E6A4D344D304D794F43347A4E6A4D3449 PUSH2 0x2000 DUP3 ADD MSTORE PUSH32 0x446B754E6A63314D5463674D6A45754E44677A4E4341784E4334334E54513549 PUSH2 0x2020 DUP3 ADD MSTORE PUSH32 0x4445314C6A67324D5445674D6A45754D446334517A45774C6A497A4F4467674D PUSH2 0x2040 DUP3 ADD MSTORE PUSH32 0x6A63754E444178494455754F546B344E4449674D7A51754F4449344D69417A4C PUSH2 0x2060 DUP3 ADD MSTORE PUSH32 0x6A51784D544D78494451794C6A67344E444A444D4334344D6A51794D4463674E PUSH2 0x2080 DUP3 ADD MSTORE PUSH32 0x5441754F5451774D5341744D4334774E5449324E446733494455354C6A51304E PUSH2 0x20A0 DUP3 ADD MSTORE PUSH32 0x7A51674D4334344D7A59344E5445674E6A63754F4459784E304D784C6A63794E PUSH2 0x20C0 DUP3 ADD MSTORE PUSH32 0x6A4D31494463324C6A49334E6941304C6A4D324D6A597A494467304C6A51784D PUSH2 0x20E0 DUP3 ADD MSTORE PUSH32 0x546B674F4334314E7A59354E6941354D5334334E446735517A6B754D7A45784D PUSH2 0x2100 DUP3 ADD MSTORE PUSH32 0x5445674F544D754D4445304E5341784D43347A4F54457949446B304C6A41304E PUSH2 0x2120 DUP3 ADD MSTORE PUSH32 0x4451674D5445754E6A6B774D7941354E4334334D546331517A45794C6A6B344F PUSH2 0x2140 DUP3 ADD MSTORE PUSH32 0x5451674F5455754D7A6B774E6941784E4334304E544D3249446B314C6A59334F PUSH2 0x2160 DUP3 ADD MSTORE PUSH32 0x5341784E5334354D5445674F5455754E5451344F554D784E7934314D7A6B674F PUSH2 0x2180 DUP3 ADD MSTORE PUSH32 0x5455754E4441314F5341784F5334314E6A59674F5455754D6A41794F5341794D PUSH2 0x21A0 DUP3 ADD MSTORE PUSH32 0x5334354E7A59674F5451754F5445354F554D794D7934774D6A557849446B304C PUSH2 0x21C0 DUP3 ADD MSTORE PUSH32 0x6A67774D4467674D6A4D754F546B7A4E7941354E4334794F546B35494449304C PUSH2 0x21E0 DUP3 ADD MSTORE PUSH32 0x6A59354E7A49674F544D754E5445794E6B4D794E5334304D44413449446B794C PUSH2 0x2200 DUP3 ADD MSTORE PUSH32 0x6A63794E544D674D6A55754E7A6B774D5341354D5334334D445933494449314C PUSH2 0x2220 DUP3 ADD MSTORE PUSH32 0x6A63354D5341354D4334324E544135544449314C6A6335494455344C6A51784E PUSH2 0x2240 DUP3 ADD MSTORE PUSH32 0x446C614969426D615778735053496A4D6A457A4D6A56434969382B44516F3863 PUSH2 0x2260 DUP3 ADD MSTORE PUSH32 0x4746306143426B50534A4E4D6A55754E6A41794D5341784D5441754E5446444D PUSH2 0x2280 DUP3 ADD MSTORE PUSH32 0x7A51754E6A63304E4341784D5463754D5445674E4455754D7A6B314F5341784D PUSH2 0x22A0 DUP3 ADD MSTORE PUSH32 0x6A45754D446379494455324C6A55344D4449674D5449784C6A6B314E304D324E PUSH2 0x22C0 DUP3 ADD MSTORE PUSH32 0x7934334E6A5132494445794D6934344E4445674E7A67754F5463314E7941784D PUSH2 0x22E0 DUP3 ADD MSTORE PUSH32 0x6A41754E6A4531494467344C6A6B334D7A45674D5445314C6A55794D304D354F PUSH2 0x2300 DUP3 ADD MSTORE PUSH32 0x4334354E7A4131494445784D4334304D7A45674D5441334C6A4D324E4341784D PUSH2 0x2320 DUP3 ADD MSTORE PUSH32 0x4449754E6A637A494445784D7934794D6A59674F544D754D5441324F454D784D PUSH2 0x2340 DUP3 ADD MSTORE PUSH32 0x546B754D4467334944677A4C6A55304D4455674D5449794C6A45344F4341334D PUSH2 0x2360 DUP3 ADD MSTORE PUSH32 0x6934314D7A6B674D5449794C6A45344E5341324D53347A4D546B33517A45794D PUSH2 0x2380 DUP3 ADD MSTORE PUSH32 0x6934784F4455674E546B754F5445354E7941784D6A49754D5449674E5467754E PUSH2 0x23A0 DUP3 ADD MSTORE PUSH32 0x544D304E7941784D6A49754D444933494455334C6A45314E7A64444F546B754F PUSH2 0x23C0 DUP3 ADD MSTORE PUSH32 0x44413449446B774C6A49354E5463674E5467754E7A677A4D5341784D4455754E PUSH2 0x23E0 DUP3 ADD MSTORE PUSH32 0x7A6734494449314C6A59774E4341784D5441754E5441314969426D6157787350 PUSH2 0x2400 DUP3 ADD MSTORE PUSH32 0x53496A4F5463354E6A6B314969382B44516F384C334E325A7A344E43673D3D27 PUSH2 0x2420 DUP3 ADD MSTORE PUSH32 0x2F3E3C2F613E3C2F7370616E3E3C2F6469763E3C2F74643E3C2F74723E3C7472 PUSH2 0x2440 DUP3 ADD MSTORE PUSH32 0x3E3C74642076616C69676E3D276D6964646C652720616C69676E3D276C656674 PUSH2 0x2460 DUP3 ADD MSTORE PUSH32 0x2720636C6173733D276C696768742D6267273E3C756C20616C69676E3D276C65 PUSH2 0x2480 DUP3 ADD MSTORE PUSH32 0x667427207374796C653D2770616464696E672D6C6566743A20313570783B666F PUSH2 0x24A0 DUP3 ADD MSTORE PUSH32 0x6E742D73697A653A20313070783B273E3C6C6920636C6173733D276C69676874 PUSH2 0x24C0 DUP3 ADD MSTORE PUSH32 0x2D746578742D33273E426C6F636B3A20247B7472616E73616374696F6E546578 PUSH2 0x24E0 DUP3 ADD MSTORE PUSH32 0x74732E626C6F636B7D3C2F6C693E3C6C6920636C6173733D276C696768742D74 PUSH2 0x2500 DUP3 ADD MSTORE PUSH32 0x6578742D33273E4C6F636174696F6E3A20554E4B4E4F574E3C2F6C693E3C2F75 PUSH2 0x2520 DUP3 ADD MSTORE PUSH32 0x6C3E3C2F74643E3C746420616C69676E3D2763656E746572272076616C69676E PUSH2 0x2540 DUP3 ADD MSTORE PUSH32 0x3D276D6964646C652720636C6173733D276C696768742D6267273E3C666F6E74 PUSH2 0x2560 DUP3 ADD MSTORE PUSH32 0x20636C6173733D27726567756C61725F74657874273E3C64697620636C617373 PUSH2 0x2580 DUP3 ADD MSTORE PUSH32 0x3D27706F7374207265706C79273E3C626C6F636B71756F7465207374796C653D PUSH2 0x25A0 DUP3 ADD MSTORE PUSH32 0x2777686974652D73706163653A207072652D6C696E653B6D617267696E2D746F PUSH2 0x25C0 DUP3 ADD MSTORE PUSH32 0x703A3070783B2720636C6173733D27706F73744D657373616765206C69676874 PUSH2 0x25E0 DUP3 ADD MSTORE PUSH32 0x2D746578742D32272069643D276D3334303739393833273E3C62723E247B7472 PUSH2 0x2600 DUP3 ADD MSTORE PUSH32 0x616E73616374696F6E54657874732E746578747D3C2F626C6F636B71756F7465 PUSH2 0x2620 DUP3 ADD MSTORE PUSH32 0x3E3C2F6469763E3C2F666F6E743E3C2F74643E3C2F74723E60293B617070656E PUSH2 0x2640 DUP3 ADD MSTORE PUSH32 0x644C6F6164696E67526F7728293B6966286D6F64653D3D3D31297B7365744461 PUSH2 0x2660 DUP3 ADD MSTORE PUSH32 0x726B28297D656C73657B7365744C6967687428297D7D7D66756E6374696F6E20 PUSH2 0x2680 DUP3 ADD MSTORE PUSH32 0x736F7274427954696D6528612C62297B72657475726E20612E74696D653E622E PUSH2 0x26A0 DUP3 ADD MSTORE PUSH32 0x74696D653F313A2D317D66756E6374696F6E20757064617465436C6F636B2829 PUSH2 0x26C0 DUP3 ADD MSTORE PUSH32 0x7B636F6E7374206E6F773D6E657720446174653B636F6E737420686F7572733D PUSH2 0x26E0 DUP3 ADD MSTORE PUSH32 0x537472696E67286E6F772E676574486F7572732829292E706164537461727428 PUSH2 0x2700 DUP3 ADD MSTORE PUSH32 0x322C273027293B636F6E7374206D696E757465733D537472696E67286E6F772E PUSH2 0x2720 DUP3 ADD MSTORE PUSH32 0x6765744D696E757465732829292E706164537461727428322C273027293B636F PUSH2 0x2740 DUP3 ADD MSTORE PUSH32 0x6E7374207365636F6E64733D537472696E67286E6F772E6765745365636F6E64 PUSH2 0x2760 DUP3 ADD MSTORE PUSH32 0x732829292E706164537461727428322C273027293B636F6E7374206D6F6E7468 PUSH2 0x2780 DUP3 ADD MSTORE PUSH32 0x4E616D65733D5B274A616E75617279272C274665627275617279272C274D6172 PUSH2 0x27A0 DUP3 ADD MSTORE PUSH32 0x6368272C27417072696C272C274D6179272C274A756E65272C274A756C79272C PUSH2 0x27C0 DUP3 ADD MSTORE PUSH32 0x27417567757374272C2753657074656D626572272C274F63746F626572272C27 PUSH2 0x27E0 DUP3 ADD MSTORE PUSH32 0x4E6F76656D626572272C27446563656D626572275D3B636F6E7374206D6F6E74 PUSH2 0x2800 DUP3 ADD MSTORE PUSH32 0x683D6D6F6E74684E616D65735B6E6F772E6765744D6F6E746828295D3B636F6E PUSH2 0x2820 DUP3 ADD MSTORE PUSH32 0x7374206461793D6E6F772E6765744461746528293B636F6E737420796561723D PUSH2 0x2840 DUP3 ADD MSTORE PUSH32 0x6E6F772E67657446756C6C5965617228293B636F6E7374207375666669783D64 PUSH2 0x2860 DUP3 ADD MSTORE PUSH32 0x61793D3E7B6966286461793E3326266461793C32312972657475726E27746827 PUSH2 0x2880 DUP3 ADD MSTORE PUSH32 0x3B73776974636828646179253130297B6361736520313A72657475726E277374 PUSH2 0x28A0 DUP3 ADD MSTORE PUSH32 0x273B6361736520323A72657475726E276E64273B6361736520333A7265747572 PUSH2 0x28C0 DUP3 ADD MSTORE PUSH32 0x6E277264273B64656661756C743A72657475726E277468277D7D3B636F6E7374 PUSH2 0x28E0 DUP3 ADD MSTORE PUSH32 0x2066756C6C446174653D60247B6D6F6E74687D20247B6461797D247B73756666 PUSH2 0x2900 DUP3 ADD MSTORE PUSH32 0x697828646179297D2C20247B796561727D20247B686F7572737D3A247B6D696E PUSH2 0x2920 DUP3 ADD MSTORE PUSH32 0x757465737D3A247B7365636F6E64737D603B2428272E63757272656E742D7469 PUSH2 0x2940 DUP3 ADD MSTORE PUSH32 0x6D6527292E746578742866756C6C44617465297D736574496E74657276616C28 PUSH2 0x2960 DUP3 ADD MSTORE PUSH32 0x757064617465436C6F636B2C316533293B757064617465436C6F636B28293B24 PUSH2 0x2980 DUP3 ADD MSTORE PUSH32 0x28646F63756D656E74292E7265616479282866756E6374696F6E28297B242827 PUSH2 0x29A0 DUP3 ADD MSTORE PUSH32 0x23706F73742D7772617070657227292E66616465496E28297D29293B66756E63 PUSH2 0x29C0 DUP3 ADD MSTORE PUSH32 0x74696F6E207365744461726B28297B242827236D6F64652D7377697463682729 PUSH2 0x29E0 DUP3 ADD MSTORE PUSH32 0x2E637373282766696C746572272C27696E76657274282E37352927293B242827 PUSH2 0x2A00 DUP3 ADD MSTORE PUSH32 0x2E6C696768742D7465787427292E72656D6F7665436C61737328276C69676874 PUSH2 0x2A20 DUP3 ADD MSTORE PUSH32 0x2D7465787427292E616464436C61737328276461726B2D7465787427293B2428 PUSH2 0x2A40 DUP3 ADD MSTORE PUSH32 0x272E6C696768742D746578742D3227292E72656D6F7665436C61737328276C69 PUSH2 0x2A60 DUP3 ADD MSTORE PUSH32 0x6768742D746578742D3227292E616464436C61737328276461726B2D74657874 PUSH2 0x2A80 DUP3 ADD MSTORE PUSH32 0x2D3227293B2428272E6C696768742D746578742D3327292E72656D6F7665436C PUSH2 0x2AA0 DUP3 ADD MSTORE PUSH32 0x61737328276C696768742D746578742D3327292E616464436C61737328276461 PUSH2 0x2AC0 DUP3 ADD MSTORE PUSH32 0x726B2D746578742D3327293B2428272E6C696768742D746578742D3427292E72 PUSH2 0x2AE0 DUP3 ADD MSTORE PUSH32 0x656D6F7665436C61737328276C696768742D746578742D3427292E616464436C PUSH2 0x2B00 DUP3 ADD MSTORE PUSH32 0x61737328276461726B2D746578742D3427293B2428272E6C696768742D626727 PUSH2 0x2B20 DUP3 ADD MSTORE PUSH32 0x292E72656D6F7665436C61737328276C696768742D626727292E616464436C61 PUSH2 0x2B40 DUP3 ADD MSTORE PUSH32 0x737328276461726B2D626727293B2428272E6C696768742D62672D3227292E72 PUSH2 0x2B60 DUP3 ADD MSTORE PUSH32 0x656D6F7665436C61737328276C696768742D62672D3227292E616464436C6173 PUSH2 0x2B80 DUP3 ADD MSTORE PUSH32 0x7328276461726B2D62672D3227293B2428272E6C696768742D626F726465722D PUSH2 0x2BA0 DUP3 ADD MSTORE PUSH32 0x3227292E72656D6F7665436C61737328276C696768742D626F726465722D3227 PUSH2 0x2BC0 DUP3 ADD MSTORE PUSH32 0x292E616464436C61737328276461726B2D626F726465722D3227293B2428272E PUSH2 0x2BE0 DUP3 ADD MSTORE PUSH32 0x6C696768742D626F7264657227292E72656D6F7665436C61737328276C696768 PUSH2 0x2C00 DUP3 ADD MSTORE PUSH32 0x742D626F7264657227292E616464436C61737328276461726B2D626F72646572 PUSH2 0x2C20 DUP3 ADD MSTORE PUSH32 0x27293B2428272E6C696768742D6C696E6B27292E72656D6F7665436C61737328 PUSH2 0x2C40 DUP3 ADD MSTORE PUSH32 0x276C696768742D6C696E6B27292E616464436C61737328276461726B2D6C696E PUSH2 0x2C60 DUP3 ADD MSTORE PUSH32 0x6B27297D66756E6374696F6E207365744C6967687428297B242827236D6F6465 PUSH2 0x2C80 DUP3 ADD MSTORE PUSH32 0x2D73776974636827292E637373282766696C746572272C27696E766572742830 PUSH2 0x2CA0 DUP3 ADD MSTORE PUSH32 0x2927293B2428272E6461726B2D7465787427292E72656D6F7665436C61737328 PUSH2 0x2CC0 DUP3 ADD MSTORE PUSH32 0x276461726B2D7465787427292E616464436C61737328276C696768742D746578 PUSH2 0x2CE0 DUP3 ADD MSTORE PUSH32 0x7427293B2428272E6461726B2D746578742D3227292E72656D6F7665436C6173 PUSH2 0x2D00 DUP3 ADD MSTORE PUSH32 0x7328276461726B2D746578742D3227292E616464436C61737328276C69676874 PUSH2 0x2D20 DUP3 ADD MSTORE PUSH32 0x2D746578742D3227293B2428272E6461726B2D746578742D3327292E72656D6F PUSH2 0x2D40 DUP3 ADD MSTORE PUSH32 0x7665436C61737328276461726B2D746578742D3327292E616464436C61737328 PUSH2 0x2D60 DUP3 ADD MSTORE PUSH32 0x276C696768742D746578742D3327293B2428272E6461726B2D746578742D3427 PUSH2 0x2D80 DUP3 ADD MSTORE PUSH32 0x292E72656D6F7665436C61737328276461726B2D746578742D3427292E616464 PUSH2 0x2DA0 DUP3 ADD MSTORE PUSH32 0x436C61737328276C696768742D746578742D3427293B2428272E6461726B2D62 PUSH2 0x2DC0 DUP3 ADD MSTORE PUSH32 0x6727292E72656D6F7665436C61737328276461726B2D626727292E616464436C PUSH2 0x2DE0 DUP3 ADD MSTORE PUSH32 0x61737328276C696768742D626727293B2428272E6461726B2D62672D3227292E PUSH2 0x2E00 DUP3 ADD MSTORE PUSH32 0x72656D6F7665436C61737328276461726B2D62672D3227292E616464436C6173 PUSH2 0x2E20 DUP3 ADD MSTORE PUSH32 0x7328276C696768742D62672D3227293B2428272E6461726B2D626F726465722D PUSH2 0x2E40 DUP3 ADD MSTORE PUSH32 0x3227292E72656D6F7665436C61737328276461726B2D626F726465722D322729 PUSH2 0x2E60 DUP3 ADD MSTORE PUSH32 0x2E616464436C61737328276C696768742D626F726465722D3227293B2428272E PUSH2 0x2E80 DUP3 ADD MSTORE PUSH32 0x6461726B2D626F7264657227292E72656D6F7665436C61737328276461726B2D PUSH2 0x2EA0 DUP3 ADD MSTORE PUSH32 0x626F7264657227292E616464436C61737328276C696768742D626F7264657227 PUSH2 0x2EC0 DUP3 ADD MSTORE PUSH32 0x293B2428272E6461726B2D6C696E6B27292E72656D6F7665436C617373282764 PUSH2 0x2EE0 DUP3 ADD MSTORE PUSH32 0x61726B2D6C696E6B27292E616464436C61737328276C696768742D6C696E6B27 PUSH2 0x2F00 DUP3 ADD MSTORE PUSH32 0x297D66756E6374696F6E20746F67676C654D6F646528297B6966286D6F64653D PUSH2 0x2F20 DUP3 ADD MSTORE PUSH32 0x3D3D30297B6D6F64653D313B7365744461726B28297D656C73657B6D6F64653D PUSH2 0x2F40 DUP3 ADD MSTORE PUSH32 0x303B7365744C6967687428297D242827236D6F64652D73776974636827292E62 PUSH2 0x2F60 DUP3 ADD MSTORE PUSH32 0x6C757228297D3C2F7363726970743E3C2F626F64793E3C2F68746D6C3E000000 PUSH2 0x2F80 DUP3 ADD MSTORE POP JUMP JUMPDEST PUSH0 PUSH2 0x3D44 PUSH2 0x2F9D DUP4 PUSH2 0x328 JUMP JUMPDEST SWAP2 POP PUSH2 0x3D4F DUP3 PUSH2 0x332 JUMP JUMPDEST PUSH2 0x2F9D DUP3 ADD SWAP1 POP SWAP2 SWAP1 POP JUMP JUMPDEST PUSH0 PUSH2 0x3D65 DUP3 PUSH2 0x3D37 JUMP JUMPDEST SWAP2 POP DUP2 SWAP1 POP SWAP2 SWAP1 POP JUMP INVALID LOG2 PUSH5 0x6970667358 0x22 SLT KECCAK256 0xED 0x2D SWAP5 0x23 0xA8 0xC5 BLOBBASEFEE EXTCODESIZE 0x21 0xF PUSH21 0xBC1615322111E49478ACDAD88E9F9285AE0C2DB1A3 PUSH5 0x736F6C6343 STOP ADDMOD BYTE STOP CALLER "
				},
				"gasEstimates": {
					"creation": {
						"codeDepositCost": "3156200",
						"executionCost": "3489",
						"totalCost": "3159689"
					},
					"external": {
						"getScript(string,string,string,string)": "infinite"
					}
				},
				"methodIdentifiers": {
					"getScript(string,string,string,string)": "e2c13d62"
				}
			},
			"storageLayout": {
				"storage": [],
				"types": null
			},
			"userdoc": {
				"kind": "user",
				"methods": {},
				"version": 1
			}
		}
	}
}