{
	"ProzacYouthUtils.sol": {
		"ProzacYouthUtils": {
			"abi": [
				{
					"inputs": [],
					"stateMutability": "nonpayable",
					"type": "constructor"
				},
				{
					"inputs": [
						{
							"internalType": "address",
							"name": "",
							"type": "address"
						}
					],
					"name": "accessList",
					"outputs": [
						{
							"internalType": "bool",
							"name": "",
							"type": "bool"
						}
					],
					"stateMutability": "view",
					"type": "function"
				},
				{
					"inputs": [
						{
							"internalType": "string",
							"name": "entriesStr",
							"type": "string"
						}
					],
					"name": "addEntries",
					"outputs": [],
					"stateMutability": "nonpayable",
					"type": "function"
				},
				{
					"inputs": [
						{
							"internalType": "string",
							"name": "_hash",
							"type": "string"
						},
						{
							"internalType": "string",
							"name": "_blockNumber",
							"type": "string"
						},
						{
							"internalType": "string",
							"name": "_timestamp",
							"type": "string"
						},
						{
							"internalType": "string",
							"name": "_text",
							"type": "string"
						},
						{
							"internalType": "string",
							"name": "_formattedTime",
							"type": "string"
						}
					],
					"name": "addEntry",
					"outputs": [],
					"stateMutability": "nonpayable",
					"type": "function"
				},
				{
					"inputs": [
						{
							"internalType": "uint256",
							"name": "batchSize",
							"type": "uint256"
						}
					],
					"name": "clearEntriesBatch",
					"outputs": [],
					"stateMutability": "nonpayable",
					"type": "function"
				},
				{
					"inputs": [
						{
							"internalType": "uint256",
							"name": "",
							"type": "uint256"
						}
					],
					"name": "entries",
					"outputs": [
						{
							"internalType": "string",
							"name": "hash",
							"type": "string"
						},
						{
							"internalType": "string",
							"name": "blockNumber",
							"type": "string"
						},
						{
							"internalType": "string",
							"name": "timestamp",
							"type": "string"
						},
						{
							"internalType": "string",
							"name": "text",
							"type": "string"
						},
						{
							"internalType": "string",
							"name": "formattedTime",
							"type": "string"
						}
					],
					"stateMutability": "view",
					"type": "function"
				},
				{
					"inputs": [],
					"name": "getAndrewUrl",
					"outputs": [
						{
							"internalType": "string",
							"name": "",
							"type": "string"
						}
					],
					"stateMutability": "view",
					"type": "function"
				},
				{
					"inputs": [
						{
							"internalType": "uint256",
							"name": "index",
							"type": "uint256"
						}
					],
					"name": "getEntry",
					"outputs": [
						{
							"components": [
								{
									"internalType": "string",
									"name": "hash",
									"type": "string"
								},
								{
									"internalType": "string",
									"name": "blockNumber",
									"type": "string"
								},
								{
									"internalType": "string",
									"name": "timestamp",
									"type": "string"
								},
								{
									"internalType": "string",
									"name": "text",
									"type": "string"
								},
								{
									"internalType": "string",
									"name": "formattedTime",
									"type": "string"
								}
							],
							"internalType": "struct ProzacYouthUtils.Entry",
							"name": "",
							"type": "tuple"
						}
					],
					"stateMutability": "view",
					"type": "function"
				},
				{
					"inputs": [],
					"name": "getEtherscanUrl",
					"outputs": [
						{
							"internalType": "string",
							"name": "",
							"type": "string"
						}
					],
					"stateMutability": "view",
					"type": "function"
				},
				{
					"inputs": [],
					"name": "getMode",
					"outputs": [
						{
							"internalType": "string",
							"name": "",
							"type": "string"
						}
					],
					"stateMutability": "view",
					"type": "function"
				},
				{
					"inputs": [],
					"name": "getModeRaw",
					"outputs": [
						{
							"internalType": "string",
							"name": "",
							"type": "string"
						}
					],
					"stateMutability": "view",
					"type": "function"
				},
				{
					"inputs": [],
					"name": "getTjoUrl",
					"outputs": [
						{
							"internalType": "string",
							"name": "",
							"type": "string"
						}
					],
					"stateMutability": "view",
					"type": "function"
				},
				{
					"inputs": [],
					"name": "getTotalEntries",
					"outputs": [
						{
							"internalType": "string",
							"name": "",
							"type": "string"
						}
					],
					"stateMutability": "view",
					"type": "function"
				},
				{
					"inputs": [],
					"name": "getTotalEntriesInt",
					"outputs": [
						{
							"internalType": "uint256",
							"name": "",
							"type": "uint256"
						}
					],
					"stateMutability": "view",
					"type": "function"
				},
				{
					"inputs": [
						{
							"internalType": "address",
							"name": "_address",
							"type": "address"
						}
					],
					"name": "grantAccess",
					"outputs": [],
					"stateMutability": "nonpayable",
					"type": "function"
				},
				{
					"inputs": [],
					"name": "mode",
					"outputs": [
						{
							"internalType": "string",
							"name": "",
							"type": "string"
						}
					],
					"stateMutability": "view",
					"type": "function"
				},
				{
					"inputs": [],
					"name": "owner",
					"outputs": [
						{
							"internalType": "address",
							"name": "",
							"type": "address"
						}
					],
					"stateMutability": "view",
					"type": "function"
				},
				{
					"inputs": [
						{
							"internalType": "address",
							"name": "_address",
							"type": "address"
						}
					],
					"name": "revokeAccess",
					"outputs": [],
					"stateMutability": "nonpayable",
					"type": "function"
				},
				{
					"inputs": [
						{
							"internalType": "string",
							"name": "_andrewUrl",
							"type": "string"
						}
					],
					"name": "setAndrewUrl",
					"outputs": [],
					"stateMutability": "nonpayable",
					"type": "function"
				},
				{
					"inputs": [
						{
							"internalType": "string",
							"name": "_etherscanUrl",
							"type": "string"
						}
					],
					"name": "setEtherscanUrl",
					"outputs": [],
					"stateMutability": "nonpayable",
					"type": "function"
				},
				{
					"inputs": [
						{
							"internalType": "string",
							"name": "_mode",
							"type": "string"
						}
					],
					"name": "setMode",
					"outputs": [],
					"stateMutability": "nonpayable",
					"type": "function"
				},
				{
					"inputs": [
						{
							"internalType": "string",
							"name": "_tjoUrl",
							"type": "string"
						}
					],
					"name": "setTjoUrl",
					"outputs": [],
					"stateMutability": "nonpayable",
					"type": "function"
				},
				{
					"inputs": [
						{
							"internalType": "uint256",
							"name": "index",
							"type": "uint256"
						},
						{
							"internalType": "string",
							"name": "newHash",
							"type": "string"
						},
						{
							"internalType": "string",
							"name": "newBlockNumber",
							"type": "string"
						},
						{
							"internalType": "string",
							"name": "newTimestamp",
							"type": "string"
						},
						{
							"internalType": "string",
							"name": "newText",
							"type": "string"
						},
						{
							"internalType": "string",
							"name": "newFormattedTime",
							"type": "string"
						}
					],
					"name": "updateEntry",
					"outputs": [],
					"stateMutability": "nonpayable",
					"type": "function"
				}
			],
			"devdoc": {
				"kind": "dev",
				"methods": {},
				"version": 1
			},
			"evm": {
				"assembly": "    /* \"ProzacYouthUtils.sol\":110:6323  contract ProzacYouthUtils {... */\n  mstore(0x40, 0x80)\n    /* \"ProzacYouthUtils.sol\":293:317  string public mode = \"0\" */\n  mload(0x40)\n  dup1\n  0x40\n  add\n  0x40\n  mstore\n  dup1\n  0x01\n  dup2\n  mstore\n  0x20\n  add\n  0x3000000000000000000000000000000000000000000000000000000000000000\n  dup2\n  mstore\n  pop\n  0x00\n  swap1\n  dup2\n  tag_1\n  swap2\n  swap1\n  tag_2\n  jump\t// in\ntag_1:\n  pop\n    /* \"ProzacYouthUtils.sol\":425:471  string private tjoUrl = \"https://www.tjo.art/\" */\n  mload(0x40)\n  dup1\n  0x40\n  add\n  0x40\n  mstore\n  dup1\n  0x14\n  dup2\n  mstore\n  0x20\n  add\n  0x68747470733a2f2f7777772e746a6f2e6172742f000000000000000000000000\n  dup2\n  mstore\n  pop\n  0x04\n  swap1\n  dup2\n  tag_3\n  swap2\n  swap1\n  tag_2\n  jump\t// in\ntag_3:\n  pop\n    /* \"ProzacYouthUtils.sol\":477:533  string private etherscanUrl = \"https://etherscan.io/tx/\" */\n  mload(0x40)\n  dup1\n  0x40\n  add\n  0x40\n  mstore\n  dup1\n  0x18\n  dup2\n  mstore\n  0x20\n  add\n  0x68747470733a2f2f65746865727363616e2e696f2f74782f0000000000000000\n  dup2\n  mstore\n  pop\n  0x05\n  swap1\n  dup2\n  tag_4\n  swap2\n  swap1\n  tag_2\n  jump\t// in\ntag_4:\n  pop\n    /* \"ProzacYouthUtils.sol\":539:594  string private andrewUrl = \"https://andrewmitchell.xyz\" */\n  mload(0x40)\n  dup1\n  0x40\n  add\n  0x40\n  mstore\n  dup1\n  0x1a\n  dup2\n  mstore\n  0x20\n  add\n  0x68747470733a2f2f616e647265776d69746368656c6c2e78797a000000000000\n  dup2\n  mstore\n  pop\n  0x06\n  swap1\n  dup2\n  tag_5\n  swap2\n  swap1\n  tag_2\n  jump\t// in\ntag_5:\n  pop\n    /* \"ProzacYouthUtils.sol\":833:992  constructor() {... */\n  callvalue\n  dup1\n  iszero\n  tag_6\n  jumpi\n  0x00\n  dup1\n  revert\ntag_6:\n  pop\n    /* \"ProzacYouthUtils.sol\":865:875  msg.sender */\n  caller\n    /* \"ProzacYouthUtils.sol\":857:862  owner */\n  0x03\n  0x00\n    /* \"ProzacYouthUtils.sol\":857:875  owner = msg.sender */\n  0x0100\n  exp\n  dup2\n  sload\n  dup2\n  0xffffffffffffffffffffffffffffffffffffffff\n  mul\n  not\n  and\n  swap1\n  dup4\n  0xffffffffffffffffffffffffffffffffffffffff\n  and\n  mul\n  or\n  swap1\n  sstore\n  pop\n    /* \"ProzacYouthUtils.sol\":942:946  true */\n  0x01\n    /* \"ProzacYouthUtils.sol\":885:895  accessList */\n  0x02\n    /* \"ProzacYouthUtils.sol\":885:939  accessList[0xF1Da6E2d387e9DA611dAc8a7FC587Eaa4B010013] */\n  0x00\n    /* \"ProzacYouthUtils.sol\":896:938  0xF1Da6E2d387e9DA611dAc8a7FC587Eaa4B010013 */\n  0xf1da6e2d387e9da611dac8a7fc587eaa4b010013\n    /* \"ProzacYouthUtils.sol\":885:939  accessList[0xF1Da6E2d387e9DA611dAc8a7FC587Eaa4B010013] */\n  0xffffffffffffffffffffffffffffffffffffffff\n  and\n  0xffffffffffffffffffffffffffffffffffffffff\n  and\n  dup2\n  mstore\n  0x20\n  add\n  swap1\n  dup2\n  mstore\n  0x20\n  add\n  0x00\n  keccak256\n  0x00\n    /* \"ProzacYouthUtils.sol\":885:946  accessList[0xF1Da6E2d387e9DA611dAc8a7FC587Eaa4B010013] = true */\n  0x0100\n  exp\n  dup2\n  sload\n  dup2\n  0xff\n  mul\n  not\n  and\n  swap1\n  dup4\n  iszero\n  iszero\n  mul\n  or\n  swap1\n  sstore\n  pop\n    /* \"ProzacYouthUtils.sol\":110:6323  contract ProzacYouthUtils {... */\n  jump(tag_9)\n    /* \"#utility.yul\":7:106   */\ntag_10:\n    /* \"#utility.yul\":59:65   */\n  0x00\n    /* \"#utility.yul\":93:98   */\n  dup2\n    /* \"#utility.yul\":87:99   */\n  mload\n    /* \"#utility.yul\":77:99   */\n  swap1\n  pop\n    /* \"#utility.yul\":7:106   */\n  swap2\n  swap1\n  pop\n  jump\t// out\n    /* \"#utility.yul\":112:292   */\ntag_11:\n    /* \"#utility.yul\":160:237   */\n  0x4e487b7100000000000000000000000000000000000000000000000000000000\n    /* \"#utility.yul\":157:158   */\n  0x00\n    /* \"#utility.yul\":150:238   */\n  mstore\n    /* \"#utility.yul\":257:261   */\n  0x41\n    /* \"#utility.yul\":254:255   */\n  0x04\n    /* \"#utility.yul\":247:262   */\n  mstore\n    /* \"#utility.yul\":281:285   */\n  0x24\n    /* \"#utility.yul\":278:279   */\n  0x00\n    /* \"#utility.yul\":271:286   */\n  revert\n    /* \"#utility.yul\":298:478   */\ntag_12:\n    /* \"#utility.yul\":346:423   */\n  0x4e487b7100000000000000000000000000000000000000000000000000000000\n    /* \"#utility.yul\":343:344   */\n  0x00\n    /* \"#utility.yul\":336:424   */\n  mstore\n    /* \"#utility.yul\":443:447   */\n  0x22\n    /* \"#utility.yul\":440:441   */\n  0x04\n    /* \"#utility.yul\":433:448   */\n  mstore\n    /* \"#utility.yul\":467:471   */\n  0x24\n    /* \"#utility.yul\":464:465   */\n  0x00\n    /* \"#utility.yul\":457:472   */\n  revert\n    /* \"#utility.yul\":484:804   */\ntag_13:\n    /* \"#utility.yul\":528:534   */\n  0x00\n    /* \"#utility.yul\":565:566   */\n  0x02\n    /* \"#utility.yul\":559:563   */\n  dup3\n    /* \"#utility.yul\":555:567   */\n  div\n    /* \"#utility.yul\":545:567   */\n  swap1\n  pop\n    /* \"#utility.yul\":612:613   */\n  0x01\n    /* \"#utility.yul\":606:610   */\n  dup3\n    /* \"#utility.yul\":602:614   */\n  and\n    /* \"#utility.yul\":633:651   */\n  dup1\n    /* \"#utility.yul\":623:704   */\n  tag_35\n  jumpi\n    /* \"#utility.yul\":689:693   */\n  0x7f\n    /* \"#utility.yul\":681:687   */\n  dup3\n    /* \"#utility.yul\":677:694   */\n  and\n    /* \"#utility.yul\":667:694   */\n  swap2\n  pop\n    /* \"#utility.yul\":623:704   */\ntag_35:\n    /* \"#utility.yul\":751:753   */\n  0x20\n    /* \"#utility.yul\":743:749   */\n  dup3\n    /* \"#utility.yul\":740:754   */\n  lt\n    /* \"#utility.yul\":720:738   */\n  dup2\n    /* \"#utility.yul\":717:755   */\n  sub\n    /* \"#utility.yul\":714:798   */\n  tag_36\n  jumpi\n    /* \"#utility.yul\":770:788   */\n  tag_37\n  tag_12\n  jump\t// in\ntag_37:\n    /* \"#utility.yul\":714:798   */\ntag_36:\n    /* \"#utility.yul\":535:804   */\n  pop\n    /* \"#utility.yul\":484:804   */\n  swap2\n  swap1\n  pop\n  jump\t// out\n    /* \"#utility.yul\":810:951   */\ntag_14:\n    /* \"#utility.yul\":859:863   */\n  0x00\n    /* \"#utility.yul\":882:885   */\n  dup2\n    /* \"#utility.yul\":874:885   */\n  swap1\n  pop\n    /* \"#utility.yul\":905:908   */\n  dup2\n    /* \"#utility.yul\":902:903   */\n  0x00\n    /* \"#utility.yul\":895:909   */\n  mstore\n    /* \"#utility.yul\":939:943   */\n  0x20\n    /* \"#utility.yul\":936:937   */\n  0x00\n    /* \"#utility.yul\":926:944   */\n  keccak256\n    /* \"#utility.yul\":918:944   */\n  swap1\n  pop\n    /* \"#utility.yul\":810:951   */\n  swap2\n  swap1\n  pop\n  jump\t// out\n    /* \"#utility.yul\":957:1050   */\ntag_15:\n    /* \"#utility.yul\":994:1000   */\n  0x00\n    /* \"#utility.yul\":1041:1043   */\n  0x20\n    /* \"#utility.yul\":1036:1038   */\n  0x1f\n    /* \"#utility.yul\":1029:1034   */\n  dup4\n    /* \"#utility.yul\":1025:1039   */\n  add\n    /* \"#utility.yul\":1021:1044   */\n  div\n    /* \"#utility.yul\":1011:1044   */\n  swap1\n  pop\n    /* \"#utility.yul\":957:1050   */\n  swap2\n  swap1\n  pop\n  jump\t// out\n    /* \"#utility.yul\":1056:1163   */\ntag_16:\n    /* \"#utility.yul\":1100:1108   */\n  0x00\n    /* \"#utility.yul\":1150:1155   */\n  dup3\n    /* \"#utility.yul\":1144:1148   */\n  dup3\n    /* \"#utility.yul\":1140:1156   */\n  shl\n    /* \"#utility.yul\":1119:1156   */\n  swap1\n  pop\n    /* \"#utility.yul\":1056:1163   */\n  swap3\n  swap2\n  pop\n  pop\n  jump\t// out\n    /* \"#utility.yul\":1169:1562   */\ntag_17:\n    /* \"#utility.yul\":1238:1244   */\n  0x00\n    /* \"#utility.yul\":1288:1289   */\n  0x08\n    /* \"#utility.yul\":1276:1286   */\n  dup4\n    /* \"#utility.yul\":1272:1290   */\n  mul\n    /* \"#utility.yul\":1311:1408   */\n  tag_42\n    /* \"#utility.yul\":1341:1407   */\n  0xffffffffffffffffffffffffffffffffffffffffffffffffffffffffffffffff\n    /* \"#utility.yul\":1330:1339   */\n  dup3\n    /* \"#utility.yul\":1311:1408   */\n  tag_16\n  jump\t// in\ntag_42:\n    /* \"#utility.yul\":1429:1468   */\n  tag_43\n    /* \"#utility.yul\":1459:1467   */\n  dup7\n    /* \"#utility.yul\":1448:1457   */\n  dup4\n    /* \"#utility.yul\":1429:1468   */\n  tag_16\n  jump\t// in\ntag_43:\n    /* \"#utility.yul\":1417:1468   */\n  swap6\n  pop\n    /* \"#utility.yul\":1501:1505   */\n  dup1\n    /* \"#utility.yul\":1497:1506   */\n  not\n    /* \"#utility.yul\":1490:1495   */\n  dup5\n    /* \"#utility.yul\":1486:1507   */\n  and\n    /* \"#utility.yul\":1477:1507   */\n  swap4\n  pop\n    /* \"#utility.yul\":1550:1554   */\n  dup1\n    /* \"#utility.yul\":1540:1548   */\n  dup7\n    /* \"#utility.yul\":1536:1555   */\n  and\n    /* \"#utility.yul\":1529:1534   */\n  dup5\n    /* \"#utility.yul\":1526:1556   */\n  or\n    /* \"#utility.yul\":1516:1556   */\n  swap3\n  pop\n    /* \"#utility.yul\":1245:1562   */\n  pop\n  pop\n    /* \"#utility.yul\":1169:1562   */\n  swap4\n  swap3\n  pop\n  pop\n  pop\n  jump\t// out\n    /* \"#utility.yul\":1568:1645   */\ntag_18:\n    /* \"#utility.yul\":1605:1612   */\n  0x00\n    /* \"#utility.yul\":1634:1639   */\n  dup2\n    /* \"#utility.yul\":1623:1639   */\n  swap1\n  pop\n    /* \"#utility.yul\":1568:1645   */\n  swap2\n  swap1\n  pop\n  jump\t// out\n    /* \"#utility.yul\":1651:1711   */\ntag_19:\n    /* \"#utility.yul\":1679:1682   */\n  0x00\n    /* \"#utility.yul\":1700:1705   */\n  dup2\n    /* \"#utility.yul\":1693:1705   */\n  swap1\n  pop\n    /* \"#utility.yul\":1651:1711   */\n  swap2\n  swap1\n  pop\n  jump\t// out\n    /* \"#utility.yul\":1717:1859   */\ntag_20:\n    /* \"#utility.yul\":1767:1776   */\n  0x00\n    /* \"#utility.yul\":1800:1853   */\n  tag_47\n    /* \"#utility.yul\":1818:1852   */\n  tag_48\n    /* \"#utility.yul\":1827:1851   */\n  tag_49\n    /* \"#utility.yul\":1845:1850   */\n  dup5\n    /* \"#utility.yul\":1827:1851   */\n  tag_18\n  jump\t// in\ntag_49:\n    /* \"#utility.yul\":1818:1852   */\n  tag_19\n  jump\t// in\ntag_48:\n    /* \"#utility.yul\":1800:1853   */\n  tag_18\n  jump\t// in\ntag_47:\n    /* \"#utility.yul\":1787:1853   */\n  swap1\n  pop\n    /* \"#utility.yul\":1717:1859   */\n  swap2\n  swap1\n  pop\n  jump\t// out\n    /* \"#utility.yul\":1865:1940   */\ntag_21:\n    /* \"#utility.yul\":1908:1911   */\n  0x00\n    /* \"#utility.yul\":1929:1934   */\n  dup2\n    /* \"#utility.yul\":1922:1934   */\n  swap1\n  pop\n    /* \"#utility.yul\":1865:1940   */\n  swap2\n  swap1\n  pop\n  jump\t// out\n    /* \"#utility.yul\":1946:2215   */\ntag_22:\n    /* \"#utility.yul\":2056:2095   */\n  tag_52\n    /* \"#utility.yul\":2087:2094   */\n  dup4\n    /* \"#utility.yul\":2056:2095   */\n  tag_20\n  jump\t// in\ntag_52:\n    /* \"#utility.yul\":2117:2208   */\n  tag_53\n    /* \"#utility.yul\":2166:2207   */\n  tag_54\n    /* \"#utility.yul\":2190:2206   */\n  dup3\n    /* \"#utility.yul\":2166:2207   */\n  tag_21\n  jump\t// in\ntag_54:\n    /* \"#utility.yul\":2158:2164   */\n  dup5\n    /* \"#utility.yul\":2151:2155   */\n  dup5\n    /* \"#utility.yul\":2145:2156   */\n  sload\n    /* \"#utility.yul\":2117:2208   */\n  tag_17\n  jump\t// in\ntag_53:\n    /* \"#utility.yul\":2111:2115   */\n  dup3\n    /* \"#utility.yul\":2104:2209   */\n  sstore\n    /* \"#utility.yul\":2022:2215   */\n  pop\n    /* \"#utility.yul\":1946:2215   */\n  pop\n  pop\n  pop\n  jump\t// out\n    /* \"#utility.yul\":2221:2294   */\ntag_23:\n    /* \"#utility.yul\":2266:2269   */\n  0x00\n    /* \"#utility.yul\":2221:2294   */\n  swap1\n  jump\t// out\n    /* \"#utility.yul\":2300:2489   */\ntag_24:\n    /* \"#utility.yul\":2377:2409   */\n  tag_57\n  tag_23\n  jump\t// in\ntag_57:\n    /* \"#utility.yul\":2418:2483   */\n  tag_58\n    /* \"#utility.yul\":2476:2482   */\n  dup2\n    /* \"#utility.yul\":2468:2474   */\n  dup5\n    /* \"#utility.yul\":2462:2466   */\n  dup5\n    /* \"#utility.yul\":2418:2483   */\n  tag_22\n  jump\t// in\ntag_58:\n    /* \"#utility.yul\":2353:2489   */\n  pop\n    /* \"#utility.yul\":2300:2489   */\n  pop\n  pop\n  jump\t// out\n    /* \"#utility.yul\":2495:2681   */\ntag_25:\n    /* \"#utility.yul\":2555:2675   */\ntag_60:\n    /* \"#utility.yul\":2572:2575   */\n  dup2\n    /* \"#utility.yul\":2565:2570   */\n  dup2\n    /* \"#utility.yul\":2562:2576   */\n  lt\n    /* \"#utility.yul\":2555:2675   */\n  iszero\n  tag_62\n  jumpi\n    /* \"#utility.yul\":2626:2665   */\n  tag_63\n    /* \"#utility.yul\":2663:2664   */\n  0x00\n    /* \"#utility.yul\":2656:2661   */\n  dup3\n    /* \"#utility.yul\":2626:2665   */\n  tag_24\n  jump\t// in\ntag_63:\n    /* \"#utility.yul\":2599:2600   */\n  0x01\n    /* \"#utility.yul\":2592:2597   */\n  dup2\n    /* \"#utility.yul\":2588:2601   */\n  add\n    /* \"#utility.yul\":2579:2601   */\n  swap1\n  pop\n    /* \"#utility.yul\":2555:2675   */\n  jump(tag_60)\ntag_62:\n    /* \"#utility.yul\":2495:2681   */\n  pop\n  pop\n  jump\t// out\n    /* \"#utility.yul\":2687:3230   */\ntag_26:\n    /* \"#utility.yul\":2788:2790   */\n  0x1f\n    /* \"#utility.yul\":2783:2786   */\n  dup3\n    /* \"#utility.yul\":2780:2791   */\n  gt\n    /* \"#utility.yul\":2777:3223   */\n  iszero\n  tag_65\n  jumpi\n    /* \"#utility.yul\":2822:2860   */\n  tag_66\n    /* \"#utility.yul\":2854:2859   */\n  dup2\n    /* \"#utility.yul\":2822:2860   */\n  tag_14\n  jump\t// in\ntag_66:\n    /* \"#utility.yul\":2906:2935   */\n  tag_67\n    /* \"#utility.yul\":2924:2934   */\n  dup5\n    /* \"#utility.yul\":2906:2935   */\n  tag_15\n  jump\t// in\ntag_67:\n    /* \"#utility.yul\":2896:2904   */\n  dup2\n    /* \"#utility.yul\":2892:2936   */\n  add\n    /* \"#utility.yul\":3089:3091   */\n  0x20\n    /* \"#utility.yul\":3077:3087   */\n  dup6\n    /* \"#utility.yul\":3074:3092   */\n  lt\n    /* \"#utility.yul\":3071:3120   */\n  iszero\n  tag_68\n  jumpi\n    /* \"#utility.yul\":3110:3118   */\n  dup2\n    /* \"#utility.yul\":3095:3118   */\n  swap1\n  pop\n    /* \"#utility.yul\":3071:3120   */\ntag_68:\n    /* \"#utility.yul\":3133:3213   */\n  tag_69\n    /* \"#utility.yul\":3189:3211   */\n  tag_70\n    /* \"#utility.yul\":3207:3210   */\n  dup6\n    /* \"#utility.yul\":3189:3211   */\n  tag_15\n  jump\t// in\ntag_70:\n    /* \"#utility.yul\":3179:3187   */\n  dup4\n    /* \"#utility.yul\":3175:3212   */\n  add\n    /* \"#utility.yul\":3162:3173   */\n  dup3\n    /* \"#utility.yul\":3133:3213   */\n  tag_25\n  jump\t// in\ntag_69:\n    /* \"#utility.yul\":2792:3223   */\n  pop\n  pop\n    /* \"#utility.yul\":2777:3223   */\ntag_65:\n    /* \"#utility.yul\":2687:3230   */\n  pop\n  pop\n  pop\n  jump\t// out\n    /* \"#utility.yul\":3236:3353   */\ntag_27:\n    /* \"#utility.yul\":3290:3298   */\n  0x00\n    /* \"#utility.yul\":3340:3345   */\n  dup3\n    /* \"#utility.yul\":3334:3338   */\n  dup3\n    /* \"#utility.yul\":3330:3346   */\n  shr\n    /* \"#utility.yul\":3309:3346   */\n  swap1\n  pop\n    /* \"#utility.yul\":3236:3353   */\n  swap3\n  swap2\n  pop\n  pop\n  jump\t// out\n    /* \"#utility.yul\":3359:3528   */\ntag_28:\n    /* \"#utility.yul\":3403:3409   */\n  0x00\n    /* \"#utility.yul\":3436:3487   */\n  tag_73\n    /* \"#utility.yul\":3484:3485   */\n  0x00\n    /* \"#utility.yul\":3480:3486   */\n  not\n    /* \"#utility.yul\":3472:3477   */\n  dup5\n    /* \"#utility.yul\":3469:3470   */\n  0x08\n    /* \"#utility.yul\":3465:3478   */\n  mul\n    /* \"#utility.yul\":3436:3487   */\n  tag_27\n  jump\t// in\ntag_73:\n    /* \"#utility.yul\":3432:3488   */\n  not\n    /* \"#utility.yul\":3517:3521   */\n  dup1\n    /* \"#utility.yul\":3511:3515   */\n  dup4\n    /* \"#utility.yul\":3507:3522   */\n  and\n    /* \"#utility.yul\":3497:3522   */\n  swap2\n  pop\n    /* \"#utility.yul\":3410:3528   */\n  pop\n    /* \"#utility.yul\":3359:3528   */\n  swap3\n  swap2\n  pop\n  pop\n  jump\t// out\n    /* \"#utility.yul\":3533:3828   */\ntag_29:\n    /* \"#utility.yul\":3609:3613   */\n  0x00\n    /* \"#utility.yul\":3755:3784   */\n  tag_75\n    /* \"#utility.yul\":3780:3783   */\n  dup4\n    /* \"#utility.yul\":3774:3778   */\n  dup4\n    /* \"#utility.yul\":3755:3784   */\n  tag_28\n  jump\t// in\ntag_75:\n    /* \"#utility.yul\":3747:3784   */\n  swap2\n  pop\n    /* \"#utility.yul\":3817:3820   */\n  dup3\n    /* \"#utility.yul\":3814:3815   */\n  0x02\n    /* \"#utility.yul\":3810:3821   */\n  mul\n    /* \"#utility.yul\":3804:3808   */\n  dup3\n    /* \"#utility.yul\":3801:3822   */\n  or\n    /* \"#utility.yul\":3793:3822   */\n  swap1\n  pop\n    /* \"#utility.yul\":3533:3828   */\n  swap3\n  swap2\n  pop\n  pop\n  jump\t// out\n    /* \"#utility.yul\":3833:5228   */\ntag_2:\n    /* \"#utility.yul\":3950:3987   */\n  tag_77\n    /* \"#utility.yul\":3983:3986   */\n  dup3\n    /* \"#utility.yul\":3950:3987   */\n  tag_10\n  jump\t// in\ntag_77:\n    /* \"#utility.yul\":4052:4070   */\n  0xffffffffffffffff\n    /* \"#utility.yul\":4044:4050   */\n  dup2\n    /* \"#utility.yul\":4041:4071   */\n  gt\n    /* \"#utility.yul\":4038:4094   */\n  iszero\n  tag_78\n  jumpi\n    /* \"#utility.yul\":4074:4092   */\n  tag_79\n  tag_11\n  jump\t// in\ntag_79:\n    /* \"#utility.yul\":4038:4094   */\ntag_78:\n    /* \"#utility.yul\":4118:4156   */\n  tag_80\n    /* \"#utility.yul\":4150:4154   */\n  dup3\n    /* \"#utility.yul\":4144:4155   */\n  sload\n    /* \"#utility.yul\":4118:4156   */\n  tag_13\n  jump\t// in\ntag_80:\n    /* \"#utility.yul\":4203:4270   */\n  tag_81\n    /* \"#utility.yul\":4263:4269   */\n  dup3\n    /* \"#utility.yul\":4255:4261   */\n  dup3\n    /* \"#utility.yul\":4249:4253   */\n  dup6\n    /* \"#utility.yul\":4203:4270   */\n  tag_26\n  jump\t// in\ntag_81:\n    /* \"#utility.yul\":4297:4298   */\n  0x00\n    /* \"#utility.yul\":4321:4325   */\n  0x20\n    /* \"#utility.yul\":4308:4325   */\n  swap1\n  pop\n    /* \"#utility.yul\":4353:4355   */\n  0x1f\n    /* \"#utility.yul\":4345:4351   */\n  dup4\n    /* \"#utility.yul\":4342:4356   */\n  gt\n    /* \"#utility.yul\":4370:4371   */\n  0x01\n    /* \"#utility.yul\":4365:4983   */\n  dup2\n  eq\n  tag_83\n  jumpi\n    /* \"#utility.yul\":5027:5028   */\n  0x00\n    /* \"#utility.yul\":5044:5050   */\n  dup5\n    /* \"#utility.yul\":5041:5118   */\n  iszero\n  tag_84\n  jumpi\n    /* \"#utility.yul\":5093:5102   */\n  dup3\n    /* \"#utility.yul\":5088:5091   */\n  dup8\n    /* \"#utility.yul\":5084:5103   */\n  add\n    /* \"#utility.yul\":5078:5104   */\n  mload\n    /* \"#utility.yul\":5069:5104   */\n  swap1\n  pop\n    /* \"#utility.yul\":5041:5118   */\ntag_84:\n    /* \"#utility.yul\":5144:5211   */\n  tag_85\n    /* \"#utility.yul\":5204:5210   */\n  dup6\n    /* \"#utility.yul\":5197:5202   */\n  dup3\n    /* \"#utility.yul\":5144:5211   */\n  tag_29\n  jump\t// in\ntag_85:\n    /* \"#utility.yul\":5138:5142   */\n  dup7\n    /* \"#utility.yul\":5131:5212   */\n  sstore\n    /* \"#utility.yul\":5000:5222   */\n  pop\n    /* \"#utility.yul\":4335:5222   */\n  jump(tag_82)\n    /* \"#utility.yul\":4365:4983   */\ntag_83:\n    /* \"#utility.yul\":4417:4421   */\n  0x1f\n    /* \"#utility.yul\":4413:4422   */\n  not\n    /* \"#utility.yul\":4405:4411   */\n  dup5\n    /* \"#utility.yul\":4401:4423   */\n  and\n    /* \"#utility.yul\":4451:4488   */\n  tag_86\n    /* \"#utility.yul\":4483:4487   */\n  dup7\n    /* \"#utility.yul\":4451:4488   */\n  tag_14\n  jump\t// in\ntag_86:\n    /* \"#utility.yul\":4510:4511   */\n  0x00\n    /* \"#utility.yul\":4524:4732   */\ntag_87:\n    /* \"#utility.yul\":4538:4545   */\n  dup3\n    /* \"#utility.yul\":4535:4536   */\n  dup2\n    /* \"#utility.yul\":4532:4546   */\n  lt\n    /* \"#utility.yul\":4524:4732   */\n  iszero\n  tag_89\n  jumpi\n    /* \"#utility.yul\":4617:4626   */\n  dup5\n    /* \"#utility.yul\":4612:4615   */\n  dup10\n    /* \"#utility.yul\":4608:4627   */\n  add\n    /* \"#utility.yul\":4602:4628   */\n  mload\n    /* \"#utility.yul\":4594:4600   */\n  dup3\n    /* \"#utility.yul\":4587:4629   */\n  sstore\n    /* \"#utility.yul\":4668:4669   */\n  0x01\n    /* \"#utility.yul\":4660:4666   */\n  dup3\n    /* \"#utility.yul\":4656:4670   */\n  add\n    /* \"#utility.yul\":4646:4670   */\n  swap2\n  pop\n    /* \"#utility.yul\":4715:4717   */\n  0x20\n    /* \"#utility.yul\":4704:4713   */\n  dup6\n    /* \"#utility.yul\":4700:4718   */\n  add\n    /* \"#utility.yul\":4687:4718   */\n  swap5\n  pop\n    /* \"#utility.yul\":4561:4565   */\n  0x20\n    /* \"#utility.yul\":4558:4559   */\n  dup2\n    /* \"#utility.yul\":4554:4566   */\n  add\n    /* \"#utility.yul\":4549:4566   */\n  swap1\n  pop\n    /* \"#utility.yul\":4524:4732   */\n  jump(tag_87)\ntag_89:\n    /* \"#utility.yul\":4760:4766   */\n  dup7\n    /* \"#utility.yul\":4751:4758   */\n  dup4\n    /* \"#utility.yul\":4748:4767   */\n  lt\n    /* \"#utility.yul\":4745:4924   */\n  iszero\n  tag_90\n  jumpi\n    /* \"#utility.yul\":4818:4827   */\n  dup5\n    /* \"#utility.yul\":4813:4816   */\n  dup10\n    /* \"#utility.yul\":4809:4828   */\n  add\n    /* \"#utility.yul\":4803:4829   */\n  mload\n    /* \"#utility.yul\":4861:4909   */\n  tag_91\n    /* \"#utility.yul\":4903:4907   */\n  0x1f\n    /* \"#utility.yul\":4895:4901   */\n  dup10\n    /* \"#utility.yul\":4891:4908   */\n  and\n    /* \"#utility.yul\":4880:4889   */\n  dup3\n    /* \"#utility.yul\":4861:4909   */\n  tag_28\n  jump\t// in\ntag_91:\n    /* \"#utility.yul\":4853:4859   */\n  dup4\n    /* \"#utility.yul\":4846:4910   */\n  sstore\n    /* \"#utility.yul\":4768:4924   */\n  pop\n    /* \"#utility.yul\":4745:4924   */\ntag_90:\n    /* \"#utility.yul\":4970:4971   */\n  0x01\n    /* \"#utility.yul\":4966:4967   */\n  0x02\n    /* \"#utility.yul\":4958:4964   */\n  dup9\n    /* \"#utility.yul\":4954:4968   */\n  mul\n    /* \"#utility.yul\":4950:4972   */\n  add\n    /* \"#utility.yul\":4944:4948   */\n  dup9\n    /* \"#utility.yul\":4937:4973   */\n  sstore\n    /* \"#utility.yul\":4372:4983   */\n  pop\n  pop\n  pop\n    /* \"#utility.yul\":4335:5222   */\ntag_82:\n  pop\n    /* \"#utility.yul\":3925:5228   */\n  pop\n  pop\n  pop\n    /* \"#utility.yul\":3833:5228   */\n  pop\n  pop\n  jump\t// out\n    /* \"ProzacYouthUtils.sol\":110:6323  contract ProzacYouthUtils {... */\ntag_9:\n  dataSize(sub_0)\n  dup1\n  dataOffset(sub_0)\n  0x00\n  codecopy\n  0x00\n  return\nstop\n\nsub_0: assembly {\n        /* \"ProzacYouthUtils.sol\":110:6323  contract ProzacYouthUtils {... */\n      mstore(0x40, 0x80)\n      callvalue\n      dup1\n      iszero\n      tag_1\n      jumpi\n      0x00\n      dup1\n      revert\n    tag_1:\n      pop\n      jumpi(tag_2, lt(calldatasize, 0x04))\n      shr(0xe0, calldataload(0x00))\n      dup1\n      0x85e68531\n      gt\n      tag_25\n      jumpi\n      dup1\n      0xa84fd0ed\n      gt\n      tag_26\n      jumpi\n      dup1\n      0xa84fd0ed\n      eq\n      tag_19\n      jumpi\n      dup1\n      0xa9c598b9\n      eq\n      tag_20\n      jumpi\n      dup1\n      0xb30906d4\n      eq\n      tag_21\n      jumpi\n      dup1\n      0xbae78d7b\n      eq\n      tag_22\n      jumpi\n      dup1\n      0xc41f0cac\n      eq\n      tag_23\n      jumpi\n      dup1\n      0xc5532468\n      eq\n      tag_24\n      jumpi\n      jump(tag_2)\n    tag_26:\n      dup1\n      0x85e68531\n      eq\n      tag_14\n      jumpi\n      dup1\n      0x87a5b67c\n      eq\n      tag_15\n      jumpi\n      dup1\n      0x8da5cb5b\n      eq\n      tag_16\n      jumpi\n      dup1\n      0x927947b4\n      eq\n      tag_17\n      jumpi\n      dup1\n      0x9ef96d1f\n      eq\n      tag_18\n      jumpi\n      jump(tag_2)\n    tag_25:\n      dup1\n      0x48cece84\n      gt\n      tag_27\n      jumpi\n      dup1\n      0x48cece84\n      eq\n      tag_8\n      jumpi\n      dup1\n      0x4b4fd03b\n      eq\n      tag_9\n      jumpi\n      dup1\n      0x52baf08f\n      eq\n      tag_10\n      jumpi\n      dup1\n      0x57c8be66\n      eq\n      tag_11\n      jumpi\n      dup1\n      0x72176858\n      eq\n      tag_12\n      jumpi\n      dup1\n      0x82cb36f6\n      eq\n      tag_13\n      jumpi\n      jump(tag_2)\n    tag_27:\n      dup1\n      0x06a7bd99\n      eq\n      tag_3\n      jumpi\n      dup1\n      0x0ae5e739\n      eq\n      tag_4\n      jumpi\n      dup1\n      0x0d8550e1\n      eq\n      tag_5\n      jumpi\n      dup1\n      0x12d491c9\n      eq\n      tag_6\n      jumpi\n      dup1\n      0x295a5212\n      eq\n      tag_7\n      jumpi\n    tag_2:\n      0x00\n      dup1\n      revert\n        /* \"ProzacYouthUtils.sol\":2192:2700  function addEntries(string memory entriesStr) public onlyAuthorized {... */\n    tag_3:\n      tag_28\n      0x04\n      dup1\n      calldatasize\n      sub\n      dup2\n      add\n      swap1\n      tag_29\n      swap2\n      swap1\n      tag_30\n      jump\t// in\n    tag_29:\n      tag_31\n      jump\t// in\n    tag_28:\n      stop\n        /* \"ProzacYouthUtils.sol\":998:1100  function grantAccess(address _address) external onlyOwner {... */\n    tag_4:\n      tag_32\n      0x04\n      dup1\n      calldatasize\n      sub\n      dup2\n      add\n      swap1\n      tag_33\n      swap2\n      swap1\n      tag_34\n      jump\t// in\n    tag_33:\n      tag_35\n      jump\t// in\n    tag_32:\n      stop\n        /* \"ProzacYouthUtils.sol\":6024:6113  function getTjoUrl() external view returns (string memory) {... */\n    tag_5:\n      tag_36\n      tag_37\n      jump\t// in\n    tag_36:\n      mload(0x40)\n      tag_38\n      swap2\n      swap1\n      tag_39\n      jump\t// in\n    tag_38:\n      mload(0x40)\n      dup1\n      swap2\n      sub\n      swap1\n      return\n        /* \"ProzacYouthUtils.sol\":4260:4377  function getTotalEntries() external view returns (string memory) {... */\n    tag_6:\n      tag_40\n      tag_41\n      jump\t// in\n    tag_40:\n      mload(0x40)\n      tag_42\n      swap2\n      swap1\n      tag_39\n      jump\t// in\n    tag_42:\n      mload(0x40)\n      dup1\n      swap2\n      sub\n      swap1\n      return\n        /* \"ProzacYouthUtils.sol\":293:317  string public mode = \"0\" */\n    tag_7:\n      tag_43\n      tag_44\n      jump\t// in\n    tag_43:\n      mload(0x40)\n      tag_45\n      swap2\n      swap1\n      tag_39\n      jump\t// in\n    tag_45:\n      mload(0x40)\n      dup1\n      swap2\n      sub\n      swap1\n      return\n        /* \"ProzacYouthUtils.sol\":3894:4254  function clearEntriesBatch(uint256 batchSize) public onlyAuthorized {... */\n    tag_8:\n      tag_46\n      0x04\n      dup1\n      calldatasize\n      sub\n      dup2\n      add\n      swap1\n      tag_47\n      swap2\n      swap1\n      tag_48\n      jump\t// in\n    tag_47:\n      tag_49\n      jump\t// in\n    tag_46:\n      stop\n        /* \"ProzacYouthUtils.sol\":5407:5574  function getMode() public view returns (string memory) {... */\n    tag_9:\n      tag_50\n      tag_51\n      jump\t// in\n    tag_50:\n      mload(0x40)\n      tag_52\n      swap2\n      swap1\n      tag_39\n      jump\t// in\n    tag_52:\n      mload(0x40)\n      dup1\n      swap2\n      sub\n      swap1\n      return\n        /* \"ProzacYouthUtils.sol\":5907:6018  function setAndrewUrl(string memory _andrewUrl) external onlyAuthorized {... */\n    tag_10:\n      tag_53\n      0x04\n      dup1\n      calldatasize\n      sub\n      dup2\n      add\n      swap1\n      tag_54\n      swap2\n      swap1\n      tag_30\n      jump\t// in\n    tag_54:\n      tag_55\n      jump\t// in\n    tag_53:\n      stop\n        /* \"ProzacYouthUtils.sol\":1254:1558  function addEntry(... */\n    tag_11:\n      tag_56\n      0x04\n      dup1\n      calldatasize\n      sub\n      dup2\n      add\n      swap1\n      tag_57\n      swap2\n      swap1\n      tag_58\n      jump\t// in\n    tag_57:\n      tag_59\n      jump\t// in\n    tag_56:\n      stop\n        /* \"ProzacYouthUtils.sol\":6119:6220  function getEtherscanUrl() external view returns (string memory) {... */\n    tag_12:\n      tag_60\n      tag_61\n      jump\t// in\n    tag_60:\n      mload(0x40)\n      tag_62\n      swap2\n      swap1\n      tag_39\n      jump\t// in\n    tag_62:\n      mload(0x40)\n      dup1\n      swap2\n      sub\n      swap1\n      return\n        /* \"ProzacYouthUtils.sol\":1676:2186  function updateEntry(... */\n    tag_13:\n      tag_63\n      0x04\n      dup1\n      calldatasize\n      sub\n      dup2\n      add\n      swap1\n      tag_64\n      swap2\n      swap1\n      tag_65\n      jump\t// in\n    tag_64:\n      tag_66\n      jump\t// in\n    tag_63:\n      stop\n        /* \"ProzacYouthUtils.sol\":1106:1210  function revokeAccess(address _address) external onlyOwner {... */\n    tag_14:\n      tag_67\n      0x04\n      dup1\n      calldatasize\n      sub\n      dup2\n      add\n      swap1\n      tag_68\n      swap2\n      swap1\n      tag_34\n      jump\t// in\n    tag_68:\n      tag_69\n      jump\t// in\n    tag_67:\n      stop\n        /* \"ProzacYouthUtils.sol\":351:393  mapping(address => bool) public accessList */\n    tag_15:\n      tag_70\n      0x04\n      dup1\n      calldatasize\n      sub\n      dup2\n      add\n      swap1\n      tag_71\n      swap2\n      swap1\n      tag_34\n      jump\t// in\n    tag_71:\n      tag_72\n      jump\t// in\n    tag_70:\n      mload(0x40)\n      tag_73\n      swap2\n      swap1\n      tag_74\n      jump\t// in\n    tag_73:\n      mload(0x40)\n      dup1\n      swap2\n      sub\n      swap1\n      return\n        /* \"ProzacYouthUtils.sol\":399:419  address public owner */\n    tag_16:\n      tag_75\n      tag_76\n      jump\t// in\n    tag_75:\n      mload(0x40)\n      tag_77\n      swap2\n      swap1\n      tag_78\n      jump\t// in\n    tag_77:\n      mload(0x40)\n      dup1\n      swap2\n      sub\n      swap1\n      return\n        /* \"ProzacYouthUtils.sol\":4383:4483  function getTotalEntriesInt() external view returns (uint256) {... */\n    tag_17:\n      tag_79\n      tag_80\n      jump\t// in\n    tag_79:\n      mload(0x40)\n      tag_81\n      swap2\n      swap1\n      tag_82\n      jump\t// in\n    tag_81:\n      mload(0x40)\n      dup1\n      swap2\n      sub\n      swap1\n      return\n        /* \"ProzacYouthUtils.sol\":6226:6321  function getAndrewUrl() external view returns (string memory) {... */\n    tag_18:\n      tag_83\n      tag_84\n      jump\t// in\n    tag_83:\n      mload(0x40)\n      tag_85\n      swap2\n      swap1\n      tag_39\n      jump\t// in\n    tag_85:\n      mload(0x40)\n      dup1\n      swap2\n      sub\n      swap1\n      return\n        /* \"ProzacYouthUtils.sol\":5074:5401  function setMode(string memory _mode) external onlyAuthorized {... */\n    tag_19:\n      tag_86\n      0x04\n      dup1\n      calldatasize\n      sub\n      dup2\n      add\n      swap1\n      tag_87\n      swap2\n      swap1\n      tag_30\n      jump\t// in\n    tag_87:\n      tag_88\n      jump\t// in\n    tag_86:\n      stop\n        /* \"ProzacYouthUtils.sol\":5778:5901  function setEtherscanUrl(string memory _etherscanUrl) external onlyAuthorized {... */\n    tag_20:\n      tag_89\n      0x04\n      dup1\n      calldatasize\n      sub\n      dup2\n      add\n      swap1\n      tag_90\n      swap2\n      swap1\n      tag_30\n      jump\t// in\n    tag_90:\n      tag_91\n      jump\t// in\n    tag_89:\n      stop\n        /* \"ProzacYouthUtils.sol\":323:345  Entry[] public entries */\n    tag_21:\n      tag_92\n      0x04\n      dup1\n      calldatasize\n      sub\n      dup2\n      add\n      swap1\n      tag_93\n      swap2\n      swap1\n      tag_48\n      jump\t// in\n    tag_93:\n      tag_94\n      jump\t// in\n    tag_92:\n      mload(0x40)\n      tag_95\n      swap6\n      swap5\n      swap4\n      swap3\n      swap2\n      swap1\n      tag_96\n      jump\t// in\n    tag_95:\n      mload(0x40)\n      dup1\n      swap2\n      sub\n      swap1\n      return\n        /* \"ProzacYouthUtils.sol\":1564:1670  function getEntry(uint256 index) public view returns (Entry memory) {... */\n    tag_22:\n      tag_97\n      0x04\n      dup1\n      calldatasize\n      sub\n      dup2\n      add\n      swap1\n      tag_98\n      swap2\n      swap1\n      tag_48\n      jump\t// in\n    tag_98:\n      tag_99\n      jump\t// in\n    tag_97:\n      mload(0x40)\n      tag_100\n      swap2\n      swap1\n      tag_101\n      jump\t// in\n    tag_100:\n      mload(0x40)\n      dup1\n      swap2\n      sub\n      swap1\n      return\n        /* \"ProzacYouthUtils.sol\":5673:5772  function setTjoUrl(string memory _tjoUrl) external onlyAuthorized {... */\n    tag_23:\n      tag_102\n      0x04\n      dup1\n      calldatasize\n      sub\n      dup2\n      add\n      swap1\n      tag_103\n      swap2\n      swap1\n      tag_30\n      jump\t// in\n    tag_103:\n      tag_104\n      jump\t// in\n    tag_102:\n      stop\n        /* \"ProzacYouthUtils.sol\":5580:5666  function getModeRaw() public view returns (string memory) {... */\n    tag_24:\n      tag_105\n      tag_106\n      jump\t// in\n    tag_105:\n      mload(0x40)\n      tag_107\n      swap2\n      swap1\n      tag_39\n      jump\t// in\n    tag_107:\n      mload(0x40)\n      dup1\n      swap2\n      sub\n      swap1\n      return\n        /* \"ProzacYouthUtils.sol\":2192:2700  function addEntries(string memory entriesStr) public onlyAuthorized {... */\n    tag_31:\n        /* \"ProzacYouthUtils.sol\":759:764  owner */\n      0x03\n      0x00\n      swap1\n      sload\n      swap1\n      0x0100\n      exp\n      swap1\n      div\n      0xffffffffffffffffffffffffffffffffffffffff\n      and\n        /* \"ProzacYouthUtils.sol\":745:764  msg.sender == owner */\n      0xffffffffffffffffffffffffffffffffffffffff\n      and\n        /* \"ProzacYouthUtils.sol\":745:755  msg.sender */\n      caller\n        /* \"ProzacYouthUtils.sol\":745:764  msg.sender == owner */\n      0xffffffffffffffffffffffffffffffffffffffff\n      and\n      eq\n        /* \"ProzacYouthUtils.sol\":745:790  msg.sender == owner || accessList[msg.sender] */\n      dup1\n      tag_109\n      jumpi\n      pop\n        /* \"ProzacYouthUtils.sol\":768:778  accessList */\n      0x02\n        /* \"ProzacYouthUtils.sol\":768:790  accessList[msg.sender] */\n      0x00\n        /* \"ProzacYouthUtils.sol\":779:789  msg.sender */\n      caller\n        /* \"ProzacYouthUtils.sol\":768:790  accessList[msg.sender] */\n      0xffffffffffffffffffffffffffffffffffffffff\n      and\n      0xffffffffffffffffffffffffffffffffffffffff\n      and\n      dup2\n      mstore\n      0x20\n      add\n      swap1\n      dup2\n      mstore\n      0x20\n      add\n      0x00\n      keccak256\n      0x00\n      swap1\n      sload\n      swap1\n      0x0100\n      exp\n      swap1\n      div\n      0xff\n      and\n        /* \"ProzacYouthUtils.sol\":745:790  msg.sender == owner || accessList[msg.sender] */\n    tag_109:\n        /* \"ProzacYouthUtils.sol\":737:809  require(msg.sender == owner || accessList[msg.sender], \"Not authorized\") */\n      tag_110\n      jumpi\n      mload(0x40)\n      0x08c379a000000000000000000000000000000000000000000000000000000000\n      dup2\n      mstore\n      0x04\n      add\n      tag_111\n      swap1\n      tag_112\n      jump\t// in\n    tag_111:\n      mload(0x40)\n      dup1\n      swap2\n      sub\n      swap1\n      revert\n    tag_110:\n        /* \"ProzacYouthUtils.sol\":2270:2291  string[] memory parts */\n      0x00\n        /* \"ProzacYouthUtils.sol\":2294:2316  split(entriesStr, \"|\") */\n      tag_114\n        /* \"ProzacYouthUtils.sol\":2300:2310  entriesStr */\n      dup3\n        /* \"ProzacYouthUtils.sol\":2294:2316  split(entriesStr, \"|\") */\n      mload(0x40)\n      dup1\n      0x40\n      add\n      0x40\n      mstore\n      dup1\n      0x01\n      dup2\n      mstore\n      0x20\n      add\n      0x7c00000000000000000000000000000000000000000000000000000000000000\n      dup2\n      mstore\n      pop\n        /* \"ProzacYouthUtils.sol\":2294:2299  split */\n      tag_115\n        /* \"ProzacYouthUtils.sol\":2294:2316  split(entriesStr, \"|\") */\n      jump\t// in\n    tag_114:\n        /* \"ProzacYouthUtils.sol\":2270:2316  string[] memory parts = split(entriesStr, \"|\") */\n      swap1\n      pop\n        /* \"ProzacYouthUtils.sol\":2354:2355  0 */\n      0x00\n        /* \"ProzacYouthUtils.sol\":2349:2350  5 */\n      0x05\n        /* \"ProzacYouthUtils.sol\":2334:2339  parts */\n      dup3\n        /* \"ProzacYouthUtils.sol\":2334:2346  parts.length */\n      mload\n        /* \"ProzacYouthUtils.sol\":2334:2350  parts.length % 5 */\n      tag_116\n      swap2\n      swap1\n      tag_117\n      jump\t// in\n    tag_116:\n        /* \"ProzacYouthUtils.sol\":2334:2355  parts.length % 5 == 0 */\n      eq\n        /* \"ProzacYouthUtils.sol\":2326:2380  require(parts.length % 5 == 0, \"Invalid input string\") */\n      tag_118\n      jumpi\n      mload(0x40)\n      0x08c379a000000000000000000000000000000000000000000000000000000000\n      dup2\n      mstore\n      0x04\n      add\n      tag_119\n      swap1\n      tag_120\n      jump\t// in\n    tag_119:\n      mload(0x40)\n      dup1\n      swap2\n      sub\n      swap1\n      revert\n    tag_118:\n        /* \"ProzacYouthUtils.sol\":2396:2405  uint256 i */\n      0x00\n        /* \"ProzacYouthUtils.sol\":2391:2694  for (uint256 i = 0; i < parts.length; i += 5) {... */\n    tag_121:\n        /* \"ProzacYouthUtils.sol\":2415:2420  parts */\n      dup2\n        /* \"ProzacYouthUtils.sol\":2415:2427  parts.length */\n      mload\n        /* \"ProzacYouthUtils.sol\":2411:2412  i */\n      dup2\n        /* \"ProzacYouthUtils.sol\":2411:2427  i < parts.length */\n      lt\n        /* \"ProzacYouthUtils.sol\":2391:2694  for (uint256 i = 0; i < parts.length; i += 5) {... */\n      iszero\n      tag_122\n      jumpi\n        /* \"ProzacYouthUtils.sol\":2451:2458  entries */\n      0x01\n        /* \"ProzacYouthUtils.sol\":2464:2682  Entry({... */\n      mload(0x40)\n      dup1\n      0xa0\n      add\n      0x40\n      mstore\n      dup1\n        /* \"ProzacYouthUtils.sol\":2494:2499  parts */\n      dup5\n        /* \"ProzacYouthUtils.sol\":2500:2501  i */\n      dup5\n        /* \"ProzacYouthUtils.sol\":2494:2502  parts[i] */\n      dup2\n      mload\n      dup2\n      lt\n      tag_124\n      jumpi\n      tag_125\n      tag_126\n      jump\t// in\n    tag_125:\n    tag_124:\n      0x20\n      mul\n      0x20\n      add\n      add\n      mload\n        /* \"ProzacYouthUtils.sol\":2464:2682  Entry({... */\n      dup2\n      mstore\n      0x20\n      add\n        /* \"ProzacYouthUtils.sol\":2533:2538  parts */\n      dup5\n        /* \"ProzacYouthUtils.sol\":2543:2544  1 */\n      0x01\n        /* \"ProzacYouthUtils.sol\":2539:2540  i */\n      dup6\n        /* \"ProzacYouthUtils.sol\":2539:2544  i + 1 */\n      tag_127\n      swap2\n      swap1\n      tag_128\n      jump\t// in\n    tag_127:\n        /* \"ProzacYouthUtils.sol\":2533:2545  parts[i + 1] */\n      dup2\n      mload\n      dup2\n      lt\n      tag_129\n      jumpi\n      tag_130\n      tag_126\n      jump\t// in\n    tag_130:\n    tag_129:\n      0x20\n      mul\n      0x20\n      add\n      add\n      mload\n        /* \"ProzacYouthUtils.sol\":2464:2682  Entry({... */\n      dup2\n      mstore\n      0x20\n      add\n        /* \"ProzacYouthUtils.sol\":2574:2579  parts */\n      dup5\n        /* \"ProzacYouthUtils.sol\":2584:2585  2 */\n      0x02\n        /* \"ProzacYouthUtils.sol\":2580:2581  i */\n      dup6\n        /* \"ProzacYouthUtils.sol\":2580:2585  i + 2 */\n      tag_131\n      swap2\n      swap1\n      tag_128\n      jump\t// in\n    tag_131:\n        /* \"ProzacYouthUtils.sol\":2574:2586  parts[i + 2] */\n      dup2\n      mload\n      dup2\n      lt\n      tag_132\n      jumpi\n      tag_133\n      tag_126\n      jump\t// in\n    tag_133:\n    tag_132:\n      0x20\n      mul\n      0x20\n      add\n      add\n      mload\n        /* \"ProzacYouthUtils.sol\":2464:2682  Entry({... */\n      dup2\n      mstore\n      0x20\n      add\n        /* \"ProzacYouthUtils.sol\":2610:2615  parts */\n      dup5\n        /* \"ProzacYouthUtils.sol\":2620:2621  3 */\n      0x03\n        /* \"ProzacYouthUtils.sol\":2616:2617  i */\n      dup6\n        /* \"ProzacYouthUtils.sol\":2616:2621  i + 3 */\n      tag_134\n      swap2\n      swap1\n      tag_128\n      jump\t// in\n    tag_134:\n        /* \"ProzacYouthUtils.sol\":2610:2622  parts[i + 3] */\n      dup2\n      mload\n      dup2\n      lt\n      tag_135\n      jumpi\n      tag_136\n      tag_126\n      jump\t// in\n    tag_136:\n    tag_135:\n      0x20\n      mul\n      0x20\n      add\n      add\n      mload\n        /* \"ProzacYouthUtils.sol\":2464:2682  Entry({... */\n      dup2\n      mstore\n      0x20\n      add\n        /* \"ProzacYouthUtils.sol\":2655:2660  parts */\n      dup5\n        /* \"ProzacYouthUtils.sol\":2665:2666  4 */\n      0x04\n        /* \"ProzacYouthUtils.sol\":2661:2662  i */\n      dup6\n        /* \"ProzacYouthUtils.sol\":2661:2666  i + 4 */\n      tag_137\n      swap2\n      swap1\n      tag_128\n      jump\t// in\n    tag_137:\n        /* \"ProzacYouthUtils.sol\":2655:2667  parts[i + 4] */\n      dup2\n      mload\n      dup2\n      lt\n      tag_138\n      jumpi\n      tag_139\n      tag_126\n      jump\t// in\n    tag_139:\n    tag_138:\n      0x20\n      mul\n      0x20\n      add\n      add\n      mload\n        /* \"ProzacYouthUtils.sol\":2464:2682  Entry({... */\n      dup2\n      mstore\n      pop\n        /* \"ProzacYouthUtils.sol\":2451:2683  entries.push(Entry({... */\n      swap1\n      dup1\n      0x01\n      dup2\n      sload\n      add\n      dup1\n      dup3\n      sstore\n      dup1\n      swap2\n      pop\n      pop\n      0x01\n      swap1\n      sub\n      swap1\n      0x00\n      mstore\n      keccak256(0x00, 0x20)\n      swap1\n      0x05\n      mul\n      add\n      0x00\n      swap1\n      swap2\n      swap1\n      swap2\n      swap1\n      swap2\n      pop\n      0x00\n      dup3\n      add\n      mload\n      dup2\n      0x00\n      add\n      swap1\n      dup2\n      tag_141\n      swap2\n      swap1\n      tag_142\n      jump\t// in\n    tag_141:\n      pop\n      0x20\n      dup3\n      add\n      mload\n      dup2\n      0x01\n      add\n      swap1\n      dup2\n      tag_143\n      swap2\n      swap1\n      tag_142\n      jump\t// in\n    tag_143:\n      pop\n      0x40\n      dup3\n      add\n      mload\n      dup2\n      0x02\n      add\n      swap1\n      dup2\n      tag_144\n      swap2\n      swap1\n      tag_142\n      jump\t// in\n    tag_144:\n      pop\n      0x60\n      dup3\n      add\n      mload\n      dup2\n      0x03\n      add\n      swap1\n      dup2\n      tag_145\n      swap2\n      swap1\n      tag_142\n      jump\t// in\n    tag_145:\n      pop\n      0x80\n      dup3\n      add\n      mload\n      dup2\n      0x04\n      add\n      swap1\n      dup2\n      tag_146\n      swap2\n      swap1\n      tag_142\n      jump\t// in\n    tag_146:\n      pop\n      pop\n      pop\n        /* \"ProzacYouthUtils.sol\":2434:2435  5 */\n      0x05\n        /* \"ProzacYouthUtils.sol\":2429:2435  i += 5 */\n      dup2\n      tag_147\n      swap2\n      swap1\n      tag_128\n      jump\t// in\n    tag_147:\n      swap1\n      pop\n        /* \"ProzacYouthUtils.sol\":2391:2694  for (uint256 i = 0; i < parts.length; i += 5) {... */\n      jump(tag_121)\n    tag_122:\n      pop\n        /* \"ProzacYouthUtils.sol\":2260:2700  {... */\n      pop\n        /* \"ProzacYouthUtils.sol\":2192:2700  function addEntries(string memory entriesStr) public onlyAuthorized {... */\n      pop\n      jump\t// out\n        /* \"ProzacYouthUtils.sol\":998:1100  function grantAccess(address _address) external onlyOwner {... */\n    tag_35:\n        /* \"ProzacYouthUtils.sol\":654:659  owner */\n      0x03\n      0x00\n      swap1\n      sload\n      swap1\n      0x0100\n      exp\n      swap1\n      div\n      0xffffffffffffffffffffffffffffffffffffffff\n      and\n        /* \"ProzacYouthUtils.sol\":640:659  msg.sender == owner */\n      0xffffffffffffffffffffffffffffffffffffffff\n      and\n        /* \"ProzacYouthUtils.sol\":640:650  msg.sender */\n      caller\n        /* \"ProzacYouthUtils.sol\":640:659  msg.sender == owner */\n      0xffffffffffffffffffffffffffffffffffffffff\n      and\n      eq\n        /* \"ProzacYouthUtils.sol\":632:677  require(msg.sender == owner, \"Not the owner\") */\n      tag_149\n      jumpi\n      mload(0x40)\n      0x08c379a000000000000000000000000000000000000000000000000000000000\n      dup2\n      mstore\n      0x04\n      add\n      tag_150\n      swap1\n      tag_151\n      jump\t// in\n    tag_150:\n      mload(0x40)\n      dup1\n      swap2\n      sub\n      swap1\n      revert\n    tag_149:\n        /* \"ProzacYouthUtils.sol\":1089:1093  true */\n      0x01\n        /* \"ProzacYouthUtils.sol\":1066:1076  accessList */\n      0x02\n        /* \"ProzacYouthUtils.sol\":1066:1086  accessList[_address] */\n      0x00\n        /* \"ProzacYouthUtils.sol\":1077:1085  _address */\n      dup4\n        /* \"ProzacYouthUtils.sol\":1066:1086  accessList[_address] */\n      0xffffffffffffffffffffffffffffffffffffffff\n      and\n      0xffffffffffffffffffffffffffffffffffffffff\n      and\n      dup2\n      mstore\n      0x20\n      add\n      swap1\n      dup2\n      mstore\n      0x20\n      add\n      0x00\n      keccak256\n      0x00\n        /* \"ProzacYouthUtils.sol\":1066:1093  accessList[_address] = true */\n      0x0100\n      exp\n      dup2\n      sload\n      dup2\n      0xff\n      mul\n      not\n      and\n      swap1\n      dup4\n      iszero\n      iszero\n      mul\n      or\n      swap1\n      sstore\n      pop\n        /* \"ProzacYouthUtils.sol\":998:1100  function grantAccess(address _address) external onlyOwner {... */\n      pop\n      jump\t// out\n        /* \"ProzacYouthUtils.sol\":6024:6113  function getTjoUrl() external view returns (string memory) {... */\n    tag_37:\n        /* \"ProzacYouthUtils.sol\":6068:6081  string memory */\n      0x60\n        /* \"ProzacYouthUtils.sol\":6100:6106  tjoUrl */\n      0x04\n        /* \"ProzacYouthUtils.sol\":6093:6106  return tjoUrl */\n      dup1\n      sload\n      tag_154\n      swap1\n      tag_155\n      jump\t// in\n    tag_154:\n      dup1\n      0x1f\n      add\n      0x20\n      dup1\n      swap2\n      div\n      mul\n      0x20\n      add\n      mload(0x40)\n      swap1\n      dup2\n      add\n      0x40\n      mstore\n      dup1\n      swap3\n      swap2\n      swap1\n      dup2\n      dup2\n      mstore\n      0x20\n      add\n      dup3\n      dup1\n      sload\n      tag_156\n      swap1\n      tag_155\n      jump\t// in\n    tag_156:\n      dup1\n      iszero\n      tag_157\n      jumpi\n      dup1\n      0x1f\n      lt\n      tag_158\n      jumpi\n      0x0100\n      dup1\n      dup4\n      sload\n      div\n      mul\n      dup4\n      mstore\n      swap2\n      0x20\n      add\n      swap2\n      jump(tag_157)\n    tag_158:\n      dup3\n      add\n      swap2\n      swap1\n      0x00\n      mstore\n      keccak256(0x00, 0x20)\n      swap1\n    tag_159:\n      dup2\n      sload\n      dup2\n      mstore\n      swap1\n      0x01\n      add\n      swap1\n      0x20\n      add\n      dup1\n      dup4\n      gt\n      tag_159\n      jumpi\n      dup3\n      swap1\n      sub\n      0x1f\n      and\n      dup3\n      add\n      swap2\n    tag_157:\n      pop\n      pop\n      pop\n      pop\n      pop\n      swap1\n      pop\n        /* \"ProzacYouthUtils.sol\":6024:6113  function getTjoUrl() external view returns (string memory) {... */\n      swap1\n      jump\t// out\n        /* \"ProzacYouthUtils.sol\":4260:4377  function getTotalEntries() external view returns (string memory) {... */\n    tag_41:\n        /* \"ProzacYouthUtils.sol\":4310:4323  string memory */\n      0x60\n        /* \"ProzacYouthUtils.sol\":4342:4370  uintToString(entries.length) */\n      tag_161\n        /* \"ProzacYouthUtils.sol\":4355:4362  entries */\n      0x01\n        /* \"ProzacYouthUtils.sol\":4355:4369  entries.length */\n      dup1\n      sload\n      swap1\n      pop\n        /* \"ProzacYouthUtils.sol\":4342:4354  uintToString */\n      tag_162\n        /* \"ProzacYouthUtils.sol\":4342:4370  uintToString(entries.length) */\n      jump\t// in\n    tag_161:\n        /* \"ProzacYouthUtils.sol\":4335:4370  return uintToString(entries.length) */\n      swap1\n      pop\n        /* \"ProzacYouthUtils.sol\":4260:4377  function getTotalEntries() external view returns (string memory) {... */\n      swap1\n      jump\t// out\n        /* \"ProzacYouthUtils.sol\":293:317  string public mode = \"0\" */\n    tag_44:\n      0x00\n      dup1\n      sload\n      tag_163\n      swap1\n      tag_155\n      jump\t// in\n    tag_163:\n      dup1\n      0x1f\n      add\n      0x20\n      dup1\n      swap2\n      div\n      mul\n      0x20\n      add\n      mload(0x40)\n      swap1\n      dup2\n      add\n      0x40\n      mstore\n      dup1\n      swap3\n      swap2\n      swap1\n      dup2\n      dup2\n      mstore\n      0x20\n      add\n      dup3\n      dup1\n      sload\n      tag_164\n      swap1\n      tag_155\n      jump\t// in\n    tag_164:\n      dup1\n      iszero\n      tag_165\n      jumpi\n      dup1\n      0x1f\n      lt\n      tag_166\n      jumpi\n      0x0100\n      dup1\n      dup4\n      sload\n      div\n      mul\n      dup4\n      mstore\n      swap2\n      0x20\n      add\n      swap2\n      jump(tag_165)\n    tag_166:\n      dup3\n      add\n      swap2\n      swap1\n      0x00\n      mstore\n      keccak256(0x00, 0x20)\n      swap1\n    tag_167:\n      dup2\n      sload\n      dup2\n      mstore\n      swap1\n      0x01\n      add\n      swap1\n      0x20\n      add\n      dup1\n      dup4\n      gt\n      tag_167\n      jumpi\n      dup3\n      swap1\n      sub\n      0x1f\n      and\n      dup3\n      add\n      swap2\n    tag_165:\n      pop\n      pop\n      pop\n      pop\n      pop\n      dup2\n      jump\t// out\n        /* \"ProzacYouthUtils.sol\":3894:4254  function clearEntriesBatch(uint256 batchSize) public onlyAuthorized {... */\n    tag_49:\n        /* \"ProzacYouthUtils.sol\":759:764  owner */\n      0x03\n      0x00\n      swap1\n      sload\n      swap1\n      0x0100\n      exp\n      swap1\n      div\n      0xffffffffffffffffffffffffffffffffffffffff\n      and\n        /* \"ProzacYouthUtils.sol\":745:764  msg.sender == owner */\n      0xffffffffffffffffffffffffffffffffffffffff\n      and\n        /* \"ProzacYouthUtils.sol\":745:755  msg.sender */\n      caller\n        /* \"ProzacYouthUtils.sol\":745:764  msg.sender == owner */\n      0xffffffffffffffffffffffffffffffffffffffff\n      and\n      eq\n        /* \"ProzacYouthUtils.sol\":745:790  msg.sender == owner || accessList[msg.sender] */\n      dup1\n      tag_169\n      jumpi\n      pop\n        /* \"ProzacYouthUtils.sol\":768:778  accessList */\n      0x02\n        /* \"ProzacYouthUtils.sol\":768:790  accessList[msg.sender] */\n      0x00\n        /* \"ProzacYouthUtils.sol\":779:789  msg.sender */\n      caller\n        /* \"ProzacYouthUtils.sol\":768:790  accessList[msg.sender] */\n      0xffffffffffffffffffffffffffffffffffffffff\n      and\n      0xffffffffffffffffffffffffffffffffffffffff\n      and\n      dup2\n      mstore\n      0x20\n      add\n      swap1\n      dup2\n      mstore\n      0x20\n      add\n      0x00\n      keccak256\n      0x00\n      swap1\n      sload\n      swap1\n      0x0100\n      exp\n      swap1\n      div\n      0xff\n      and\n        /* \"ProzacYouthUtils.sol\":745:790  msg.sender == owner || accessList[msg.sender] */\n    tag_169:\n        /* \"ProzacYouthUtils.sol\":737:809  require(msg.sender == owner || accessList[msg.sender], \"Not authorized\") */\n      tag_170\n      jumpi\n      mload(0x40)\n      0x08c379a000000000000000000000000000000000000000000000000000000000\n      dup2\n      mstore\n      0x04\n      add\n      tag_171\n      swap1\n      tag_112\n      jump\t// in\n    tag_171:\n      mload(0x40)\n      dup1\n      swap2\n      sub\n      swap1\n      revert\n    tag_170:\n        /* \"ProzacYouthUtils.sol\":3972:3986  uint256 length */\n      0x00\n        /* \"ProzacYouthUtils.sol\":3989:3996  entries */\n      0x01\n        /* \"ProzacYouthUtils.sol\":3989:4003  entries.length */\n      dup1\n      sload\n      swap1\n      pop\n        /* \"ProzacYouthUtils.sol\":3972:4003  uint256 length = entries.length */\n      swap1\n      pop\n        /* \"ProzacYouthUtils.sol\":4027:4028  0 */\n      0x00\n        /* \"ProzacYouthUtils.sol\":4017:4023  length */\n      dup2\n        /* \"ProzacYouthUtils.sol\":4017:4028  length == 0 */\n      sub\n        /* \"ProzacYouthUtils.sol\":4013:4037  if (length == 0) return; */\n      tag_173\n      jumpi\n        /* \"ProzacYouthUtils.sol\":4030:4037  return; */\n      pop\n      jump(tag_172)\n        /* \"ProzacYouthUtils.sol\":4013:4037  if (length == 0) return; */\n    tag_173:\n        /* \"ProzacYouthUtils.sol\":4047:4058  uint256 end */\n      0x00\n        /* \"ProzacYouthUtils.sol\":4070:4079  batchSize */\n      dup3\n        /* \"ProzacYouthUtils.sol\":4061:4067  length */\n      dup3\n        /* \"ProzacYouthUtils.sol\":4061:4079  length < batchSize */\n      lt\n        /* \"ProzacYouthUtils.sol\":4061:4104  length < batchSize ? 0 : length - batchSize */\n      tag_174\n      jumpi\n        /* \"ProzacYouthUtils.sol\":4095:4104  batchSize */\n      dup3\n        /* \"ProzacYouthUtils.sol\":4086:4092  length */\n      dup3\n        /* \"ProzacYouthUtils.sol\":4086:4104  length - batchSize */\n      tag_175\n      swap2\n      swap1\n      tag_176\n      jump\t// in\n    tag_175:\n        /* \"ProzacYouthUtils.sol\":4061:4104  length < batchSize ? 0 : length - batchSize */\n      jump(tag_177)\n    tag_174:\n        /* \"ProzacYouthUtils.sol\":4082:4083  0 */\n      0x00\n        /* \"ProzacYouthUtils.sol\":4061:4104  length < batchSize ? 0 : length - batchSize */\n    tag_177:\n        /* \"ProzacYouthUtils.sol\":4047:4104  uint256 end = length < batchSize ? 0 : length - batchSize */\n      swap1\n      pop\n        /* \"ProzacYouthUtils.sol\":4119:4128  uint256 i */\n      0x00\n        /* \"ProzacYouthUtils.sol\":4140:4141  1 */\n      0x01\n        /* \"ProzacYouthUtils.sol\":4131:4137  length */\n      dup4\n        /* \"ProzacYouthUtils.sol\":4131:4141  length - 1 */\n      tag_181\n      swap2\n      swap1\n      tag_176\n      jump\t// in\n    tag_181:\n        /* \"ProzacYouthUtils.sol\":4119:4141  uint256 i = length - 1 */\n      swap1\n      pop\n        /* \"ProzacYouthUtils.sol\":4114:4248  for (uint256 i = length - 1; i >= end; i--) {... */\n    tag_178:\n        /* \"ProzacYouthUtils.sol\":4148:4151  end */\n      dup2\n        /* \"ProzacYouthUtils.sol\":4143:4144  i */\n      dup2\n        /* \"ProzacYouthUtils.sol\":4143:4151  i >= end */\n      lt\n        /* \"ProzacYouthUtils.sol\":4114:4248  for (uint256 i = length - 1; i >= end; i--) {... */\n      tag_179\n      jumpi\n        /* \"ProzacYouthUtils.sol\":4172:4179  entries */\n      0x01\n        /* \"ProzacYouthUtils.sol\":4172:4185  entries.pop() */\n      dup1\n      sload\n      dup1\n      tag_182\n      jumpi\n      tag_183\n      tag_184\n      jump\t// in\n    tag_183:\n    tag_182:\n      0x01\n      swap1\n      sub\n      dup2\n      dup2\n      swap1\n      0x00\n      mstore\n      keccak256(0x00, 0x20)\n      swap1\n      0x05\n      mul\n      add\n      0x00\n      dup1\n      dup3\n      add\n      0x00\n      tag_186\n      swap2\n      swap1\n      tag_187\n      jump\t// in\n    tag_186:\n      0x01\n      dup3\n      add\n      0x00\n      tag_188\n      swap2\n      swap1\n      tag_187\n      jump\t// in\n    tag_188:\n      0x02\n      dup3\n      add\n      0x00\n      tag_189\n      swap2\n      swap1\n      tag_187\n      jump\t// in\n    tag_189:\n      0x03\n      dup3\n      add\n      0x00\n      tag_190\n      swap2\n      swap1\n      tag_187\n      jump\t// in\n    tag_190:\n      0x04\n      dup3\n      add\n      0x00\n      tag_191\n      swap2\n      swap1\n      tag_187\n      jump\t// in\n    tag_191:\n      pop\n      pop\n      swap1\n      sstore\n        /* \"ProzacYouthUtils.sol\":4208:4209  0 */\n      0x00\n        /* \"ProzacYouthUtils.sol\":4203:4204  i */\n      dup2\n        /* \"ProzacYouthUtils.sol\":4203:4209  i == 0 */\n      sub\n        /* \"ProzacYouthUtils.sol\":4199:4216  if (i == 0) break */\n      iszero\n        /* \"ProzacYouthUtils.sol\":4211:4216  break */\n      tag_179\n        /* \"ProzacYouthUtils.sol\":4199:4216  if (i == 0) break */\n      jumpi\n        /* \"ProzacYouthUtils.sol\":4153:4156  i-- */\n      dup1\n      dup1\n      tag_193\n      swap1\n      tag_194\n      jump\t// in\n    tag_193:\n      swap2\n      pop\n      pop\n        /* \"ProzacYouthUtils.sol\":4114:4248  for (uint256 i = length - 1; i >= end; i--) {... */\n      jump(tag_178)\n    tag_179:\n      pop\n        /* \"ProzacYouthUtils.sol\":3962:4254  {... */\n      pop\n      pop\n        /* \"ProzacYouthUtils.sol\":819:820  _ */\n    tag_172:\n        /* \"ProzacYouthUtils.sol\":3894:4254  function clearEntriesBatch(uint256 batchSize) public onlyAuthorized {... */\n      pop\n      jump\t// out\n        /* \"ProzacYouthUtils.sol\":5407:5574  function getMode() public view returns (string memory) {... */\n    tag_51:\n        /* \"ProzacYouthUtils.sol\":5447:5460  string memory */\n      0x60\n        /* \"ProzacYouthUtils.sol\":5526:5547  abi.encodePacked(\"0\") */\n      add(0x20, mload(0x40))\n      tag_196\n      swap1\n      tag_197\n      jump\t// in\n    tag_196:\n      mload(0x40)\n      0x20\n      dup2\n      dup4\n      sub\n      sub\n      dup2\n      mstore\n      swap1\n      0x40\n      mstore\n        /* \"ProzacYouthUtils.sol\":5516:5548  keccak256(abi.encodePacked(\"0\")) */\n      dup1\n      mload\n      swap1\n      0x20\n      add\n      keccak256\n        /* \"ProzacYouthUtils.sol\":5506:5510  mode */\n      0x00\n        /* \"ProzacYouthUtils.sol\":5489:5511  abi.encodePacked(mode) */\n      add(0x20, mload(0x40))\n      tag_198\n      swap2\n      swap1\n      tag_199\n      jump\t// in\n    tag_198:\n      mload(0x40)\n      0x20\n      dup2\n      dup4\n      sub\n      sub\n      dup2\n      mstore\n      swap1\n      0x40\n      mstore\n        /* \"ProzacYouthUtils.sol\":5479:5512  keccak256(abi.encodePacked(mode)) */\n      dup1\n      mload\n      swap1\n      0x20\n      add\n      keccak256\n        /* \"ProzacYouthUtils.sol\":5479:5548  keccak256(abi.encodePacked(mode)) == keccak256(abi.encodePacked(\"0\")) */\n      eq\n        /* \"ProzacYouthUtils.sol\":5479:5567  keccak256(abi.encodePacked(mode)) == keccak256(abi.encodePacked(\"0\")) ? \"dark\" : \"light\" */\n      tag_200\n      jumpi\n      mload(0x40)\n      dup1\n      0x40\n      add\n      0x40\n      mstore\n      dup1\n      0x05\n      dup2\n      mstore\n      0x20\n      add\n      0x6c69676874000000000000000000000000000000000000000000000000000000\n      dup2\n      mstore\n      pop\n      jump(tag_201)\n    tag_200:\n      mload(0x40)\n      dup1\n      0x40\n      add\n      0x40\n      mstore\n      dup1\n      0x04\n      dup2\n      mstore\n      0x20\n      add\n      0x6461726b00000000000000000000000000000000000000000000000000000000\n      dup2\n      mstore\n      pop\n    tag_201:\n        /* \"ProzacYouthUtils.sol\":5472:5567  return keccak256(abi.encodePacked(mode)) == keccak256(abi.encodePacked(\"0\")) ? \"dark\" : \"light\" */\n      swap1\n      pop\n        /* \"ProzacYouthUtils.sol\":5407:5574  function getMode() public view returns (string memory) {... */\n      swap1\n      jump\t// out\n        /* \"ProzacYouthUtils.sol\":5907:6018  function setAndrewUrl(string memory _andrewUrl) external onlyAuthorized {... */\n    tag_55:\n        /* \"ProzacYouthUtils.sol\":759:764  owner */\n      0x03\n      0x00\n      swap1\n      sload\n      swap1\n      0x0100\n      exp\n      swap1\n      div\n      0xffffffffffffffffffffffffffffffffffffffff\n      and\n        /* \"ProzacYouthUtils.sol\":745:764  msg.sender == owner */\n      0xffffffffffffffffffffffffffffffffffffffff\n      and\n        /* \"ProzacYouthUtils.sol\":745:755  msg.sender */\n      caller\n        /* \"ProzacYouthUtils.sol\":745:764  msg.sender == owner */\n      0xffffffffffffffffffffffffffffffffffffffff\n      and\n      eq\n        /* \"ProzacYouthUtils.sol\":745:790  msg.sender == owner || accessList[msg.sender] */\n      dup1\n      tag_203\n      jumpi\n      pop\n        /* \"ProzacYouthUtils.sol\":768:778  accessList */\n      0x02\n        /* \"ProzacYouthUtils.sol\":768:790  accessList[msg.sender] */\n      0x00\n        /* \"ProzacYouthUtils.sol\":779:789  msg.sender */\n      caller\n        /* \"ProzacYouthUtils.sol\":768:790  accessList[msg.sender] */\n      0xffffffffffffffffffffffffffffffffffffffff\n      and\n      0xffffffffffffffffffffffffffffffffffffffff\n      and\n      dup2\n      mstore\n      0x20\n      add\n      swap1\n      dup2\n      mstore\n      0x20\n      add\n      0x00\n      keccak256\n      0x00\n      swap1\n      sload\n      swap1\n      0x0100\n      exp\n      swap1\n      div\n      0xff\n      and\n        /* \"ProzacYouthUtils.sol\":745:790  msg.sender == owner || accessList[msg.sender] */\n    tag_203:\n        /* \"ProzacYouthUtils.sol\":737:809  require(msg.sender == owner || accessList[msg.sender], \"Not authorized\") */\n      tag_204\n      jumpi\n      mload(0x40)\n      0x08c379a000000000000000000000000000000000000000000000000000000000\n      dup2\n      mstore\n      0x04\n      add\n      tag_205\n      swap1\n      tag_112\n      jump\t// in\n    tag_205:\n      mload(0x40)\n      dup1\n      swap2\n      sub\n      swap1\n      revert\n    tag_204:\n        /* \"ProzacYouthUtils.sol\":6001:6011  _andrewUrl */\n      dup1\n        /* \"ProzacYouthUtils.sol\":5989:5998  andrewUrl */\n      0x06\n        /* \"ProzacYouthUtils.sol\":5989:6011  andrewUrl = _andrewUrl */\n      swap1\n      dup2\n      tag_207\n      swap2\n      swap1\n      tag_142\n      jump\t// in\n    tag_207:\n      pop\n        /* \"ProzacYouthUtils.sol\":5907:6018  function setAndrewUrl(string memory _andrewUrl) external onlyAuthorized {... */\n      pop\n      jump\t// out\n        /* \"ProzacYouthUtils.sol\":1254:1558  function addEntry(... */\n    tag_59:\n        /* \"ProzacYouthUtils.sol\":759:764  owner */\n      0x03\n      0x00\n      swap1\n      sload\n      swap1\n      0x0100\n      exp\n      swap1\n      div\n      0xffffffffffffffffffffffffffffffffffffffff\n      and\n        /* \"ProzacYouthUtils.sol\":745:764  msg.sender == owner */\n      0xffffffffffffffffffffffffffffffffffffffff\n      and\n        /* \"ProzacYouthUtils.sol\":745:755  msg.sender */\n      caller\n        /* \"ProzacYouthUtils.sol\":745:764  msg.sender == owner */\n      0xffffffffffffffffffffffffffffffffffffffff\n      and\n      eq\n        /* \"ProzacYouthUtils.sol\":745:790  msg.sender == owner || accessList[msg.sender] */\n      dup1\n      tag_209\n      jumpi\n      pop\n        /* \"ProzacYouthUtils.sol\":768:778  accessList */\n      0x02\n        /* \"ProzacYouthUtils.sol\":768:790  accessList[msg.sender] */\n      0x00\n        /* \"ProzacYouthUtils.sol\":779:789  msg.sender */\n      caller\n        /* \"ProzacYouthUtils.sol\":768:790  accessList[msg.sender] */\n      0xffffffffffffffffffffffffffffffffffffffff\n      and\n      0xffffffffffffffffffffffffffffffffffffffff\n      and\n      dup2\n      mstore\n      0x20\n      add\n      swap1\n      dup2\n      mstore\n      0x20\n      add\n      0x00\n      keccak256\n      0x00\n      swap1\n      sload\n      swap1\n      0x0100\n      exp\n      swap1\n      div\n      0xff\n      and\n        /* \"ProzacYouthUtils.sol\":745:790  msg.sender == owner || accessList[msg.sender] */\n    tag_209:\n        /* \"ProzacYouthUtils.sol\":737:809  require(msg.sender == owner || accessList[msg.sender], \"Not authorized\") */\n      tag_210\n      jumpi\n      mload(0x40)\n      0x08c379a000000000000000000000000000000000000000000000000000000000\n      dup2\n      mstore\n      0x04\n      add\n      tag_211\n      swap1\n      tag_112\n      jump\t// in\n    tag_211:\n      mload(0x40)\n      dup1\n      swap2\n      sub\n      swap1\n      revert\n    tag_210:\n        /* \"ProzacYouthUtils.sol\":1476:1483  entries */\n      0x01\n        /* \"ProzacYouthUtils.sol\":1489:1550  Entry(_hash, _blockNumber, _timestamp, _text, _formattedTime) */\n      mload(0x40)\n      dup1\n      0xa0\n      add\n      0x40\n      mstore\n      dup1\n        /* \"ProzacYouthUtils.sol\":1495:1500  _hash */\n      dup8\n        /* \"ProzacYouthUtils.sol\":1489:1550  Entry(_hash, _blockNumber, _timestamp, _text, _formattedTime) */\n      dup2\n      mstore\n      0x20\n      add\n        /* \"ProzacYouthUtils.sol\":1502:1514  _blockNumber */\n      dup7\n        /* \"ProzacYouthUtils.sol\":1489:1550  Entry(_hash, _blockNumber, _timestamp, _text, _formattedTime) */\n      dup2\n      mstore\n      0x20\n      add\n        /* \"ProzacYouthUtils.sol\":1516:1526  _timestamp */\n      dup6\n        /* \"ProzacYouthUtils.sol\":1489:1550  Entry(_hash, _blockNumber, _timestamp, _text, _formattedTime) */\n      dup2\n      mstore\n      0x20\n      add\n        /* \"ProzacYouthUtils.sol\":1528:1533  _text */\n      dup5\n        /* \"ProzacYouthUtils.sol\":1489:1550  Entry(_hash, _blockNumber, _timestamp, _text, _formattedTime) */\n      dup2\n      mstore\n      0x20\n      add\n        /* \"ProzacYouthUtils.sol\":1535:1549  _formattedTime */\n      dup4\n        /* \"ProzacYouthUtils.sol\":1489:1550  Entry(_hash, _blockNumber, _timestamp, _text, _formattedTime) */\n      dup2\n      mstore\n      pop\n        /* \"ProzacYouthUtils.sol\":1476:1551  entries.push(Entry(_hash, _blockNumber, _timestamp, _text, _formattedTime)) */\n      swap1\n      dup1\n      0x01\n      dup2\n      sload\n      add\n      dup1\n      dup3\n      sstore\n      dup1\n      swap2\n      pop\n      pop\n      0x01\n      swap1\n      sub\n      swap1\n      0x00\n      mstore\n      keccak256(0x00, 0x20)\n      swap1\n      0x05\n      mul\n      add\n      0x00\n      swap1\n      swap2\n      swap1\n      swap2\n      swap1\n      swap2\n      pop\n      0x00\n      dup3\n      add\n      mload\n      dup2\n      0x00\n      add\n      swap1\n      dup2\n      tag_214\n      swap2\n      swap1\n      tag_142\n      jump\t// in\n    tag_214:\n      pop\n      0x20\n      dup3\n      add\n      mload\n      dup2\n      0x01\n      add\n      swap1\n      dup2\n      tag_215\n      swap2\n      swap1\n      tag_142\n      jump\t// in\n    tag_215:\n      pop\n      0x40\n      dup3\n      add\n      mload\n      dup2\n      0x02\n      add\n      swap1\n      dup2\n      tag_216\n      swap2\n      swap1\n      tag_142\n      jump\t// in\n    tag_216:\n      pop\n      0x60\n      dup3\n      add\n      mload\n      dup2\n      0x03\n      add\n      swap1\n      dup2\n      tag_217\n      swap2\n      swap1\n      tag_142\n      jump\t// in\n    tag_217:\n      pop\n      0x80\n      dup3\n      add\n      mload\n      dup2\n      0x04\n      add\n      swap1\n      dup2\n      tag_218\n      swap2\n      swap1\n      tag_142\n      jump\t// in\n    tag_218:\n      pop\n      pop\n      pop\n        /* \"ProzacYouthUtils.sol\":1254:1558  function addEntry(... */\n      pop\n      pop\n      pop\n      pop\n      pop\n      jump\t// out\n        /* \"ProzacYouthUtils.sol\":6119:6220  function getEtherscanUrl() external view returns (string memory) {... */\n    tag_61:\n        /* \"ProzacYouthUtils.sol\":6169:6182  string memory */\n      0x60\n        /* \"ProzacYouthUtils.sol\":6201:6213  etherscanUrl */\n      0x05\n        /* \"ProzacYouthUtils.sol\":6194:6213  return etherscanUrl */\n      dup1\n      sload\n      tag_220\n      swap1\n      tag_155\n      jump\t// in\n    tag_220:\n      dup1\n      0x1f\n      add\n      0x20\n      dup1\n      swap2\n      div\n      mul\n      0x20\n      add\n      mload(0x40)\n      swap1\n      dup2\n      add\n      0x40\n      mstore\n      dup1\n      swap3\n      swap2\n      swap1\n      dup2\n      dup2\n      mstore\n      0x20\n      add\n      dup3\n      dup1\n      sload\n      tag_221\n      swap1\n      tag_155\n      jump\t// in\n    tag_221:\n      dup1\n      iszero\n      tag_222\n      jumpi\n      dup1\n      0x1f\n      lt\n      tag_223\n      jumpi\n      0x0100\n      dup1\n      dup4\n      sload\n      div\n      mul\n      dup4\n      mstore\n      swap2\n      0x20\n      add\n      swap2\n      jump(tag_222)\n    tag_223:\n      dup3\n      add\n      swap2\n      swap1\n      0x00\n      mstore\n      keccak256(0x00, 0x20)\n      swap1\n    tag_224:\n      dup2\n      sload\n      dup2\n      mstore\n      swap1\n      0x01\n      add\n      swap1\n      0x20\n      add\n      dup1\n      dup4\n      gt\n      tag_224\n      jumpi\n      dup3\n      swap1\n      sub\n      0x1f\n      and\n      dup3\n      add\n      swap2\n    tag_222:\n      pop\n      pop\n      pop\n      pop\n      pop\n      swap1\n      pop\n        /* \"ProzacYouthUtils.sol\":6119:6220  function getEtherscanUrl() external view returns (string memory) {... */\n      swap1\n      jump\t// out\n        /* \"ProzacYouthUtils.sol\":1676:2186  function updateEntry(... */\n    tag_66:\n        /* \"ProzacYouthUtils.sol\":759:764  owner */\n      0x03\n      0x00\n      swap1\n      sload\n      swap1\n      0x0100\n      exp\n      swap1\n      div\n      0xffffffffffffffffffffffffffffffffffffffff\n      and\n        /* \"ProzacYouthUtils.sol\":745:764  msg.sender == owner */\n      0xffffffffffffffffffffffffffffffffffffffff\n      and\n        /* \"ProzacYouthUtils.sol\":745:755  msg.sender */\n      caller\n        /* \"ProzacYouthUtils.sol\":745:764  msg.sender == owner */\n      0xffffffffffffffffffffffffffffffffffffffff\n      and\n      eq\n        /* \"ProzacYouthUtils.sol\":745:790  msg.sender == owner || accessList[msg.sender] */\n      dup1\n      tag_226\n      jumpi\n      pop\n        /* \"ProzacYouthUtils.sol\":768:778  accessList */\n      0x02\n        /* \"ProzacYouthUtils.sol\":768:790  accessList[msg.sender] */\n      0x00\n        /* \"ProzacYouthUtils.sol\":779:789  msg.sender */\n      caller\n        /* \"ProzacYouthUtils.sol\":768:790  accessList[msg.sender] */\n      0xffffffffffffffffffffffffffffffffffffffff\n      and\n      0xffffffffffffffffffffffffffffffffffffffff\n      and\n      dup2\n      mstore\n      0x20\n      add\n      swap1\n      dup2\n      mstore\n      0x20\n      add\n      0x00\n      keccak256\n      0x00\n      swap1\n      sload\n      swap1\n      0x0100\n      exp\n      swap1\n      div\n      0xff\n      and\n        /* \"ProzacYouthUtils.sol\":745:790  msg.sender == owner || accessList[msg.sender] */\n    tag_226:\n        /* \"ProzacYouthUtils.sol\":737:809  require(msg.sender == owner || accessList[msg.sender], \"Not authorized\") */\n      tag_227\n      jumpi\n      mload(0x40)\n      0x08c379a000000000000000000000000000000000000000000000000000000000\n      dup2\n      mstore\n      0x04\n      add\n      tag_228\n      swap1\n      tag_112\n      jump\t// in\n    tag_228:\n      mload(0x40)\n      dup1\n      swap2\n      sub\n      swap1\n      revert\n    tag_227:\n        /* \"ProzacYouthUtils.sol\":1926:1933  entries */\n      0x01\n        /* \"ProzacYouthUtils.sol\":1926:1940  entries.length */\n      dup1\n      sload\n      swap1\n      pop\n        /* \"ProzacYouthUtils.sol\":1918:1923  index */\n      dup7\n        /* \"ProzacYouthUtils.sol\":1918:1940  index < entries.length */\n      lt\n        /* \"ProzacYouthUtils.sol\":1910:1958  require(index < entries.length, \"Invalid index\") */\n      tag_230\n      jumpi\n      mload(0x40)\n      0x08c379a000000000000000000000000000000000000000000000000000000000\n      dup2\n      mstore\n      0x04\n      add\n      tag_231\n      swap1\n      tag_232\n      jump\t// in\n    tag_231:\n      mload(0x40)\n      dup1\n      swap2\n      sub\n      swap1\n      revert\n    tag_230:\n        /* \"ProzacYouthUtils.sol\":1985:2179  Entry({... */\n      mload(0x40)\n      dup1\n      0xa0\n      add\n      0x40\n      mstore\n      dup1\n        /* \"ProzacYouthUtils.sol\":2011:2018  newHash */\n      dup7\n        /* \"ProzacYouthUtils.sol\":1985:2179  Entry({... */\n      dup2\n      mstore\n      0x20\n      add\n        /* \"ProzacYouthUtils.sol\":2045:2059  newBlockNumber */\n      dup6\n        /* \"ProzacYouthUtils.sol\":1985:2179  Entry({... */\n      dup2\n      mstore\n      0x20\n      add\n        /* \"ProzacYouthUtils.sol\":2084:2096  newTimestamp */\n      dup5\n        /* \"ProzacYouthUtils.sol\":1985:2179  Entry({... */\n      dup2\n      mstore\n      0x20\n      add\n        /* \"ProzacYouthUtils.sol\":2116:2123  newText */\n      dup4\n        /* \"ProzacYouthUtils.sol\":1985:2179  Entry({... */\n      dup2\n      mstore\n      0x20\n      add\n        /* \"ProzacYouthUtils.sol\":2152:2168  newFormattedTime */\n      dup3\n        /* \"ProzacYouthUtils.sol\":1985:2179  Entry({... */\n      dup2\n      mstore\n      pop\n        /* \"ProzacYouthUtils.sol\":1968:1975  entries */\n      0x01\n        /* \"ProzacYouthUtils.sol\":1976:1981  index */\n      dup8\n        /* \"ProzacYouthUtils.sol\":1968:1982  entries[index] */\n      dup2\n      sload\n      dup2\n      lt\n      tag_233\n      jumpi\n      tag_234\n      tag_126\n      jump\t// in\n    tag_234:\n    tag_233:\n      swap1\n      0x00\n      mstore\n      keccak256(0x00, 0x20)\n      swap1\n      0x05\n      mul\n      add\n        /* \"ProzacYouthUtils.sol\":1968:2179  entries[index] = Entry({... */\n      0x00\n      dup3\n      add\n      mload\n      dup2\n      0x00\n      add\n      swap1\n      dup2\n      tag_236\n      swap2\n      swap1\n      tag_142\n      jump\t// in\n    tag_236:\n      pop\n      0x20\n      dup3\n      add\n      mload\n      dup2\n      0x01\n      add\n      swap1\n      dup2\n      tag_237\n      swap2\n      swap1\n      tag_142\n      jump\t// in\n    tag_237:\n      pop\n      0x40\n      dup3\n      add\n      mload\n      dup2\n      0x02\n      add\n      swap1\n      dup2\n      tag_238\n      swap2\n      swap1\n      tag_142\n      jump\t// in\n    tag_238:\n      pop\n      0x60\n      dup3\n      add\n      mload\n      dup2\n      0x03\n      add\n      swap1\n      dup2\n      tag_239\n      swap2\n      swap1\n      tag_142\n      jump\t// in\n    tag_239:\n      pop\n      0x80\n      dup3\n      add\n      mload\n      dup2\n      0x04\n      add\n      swap1\n      dup2\n      tag_240\n      swap2\n      swap1\n      tag_142\n      jump\t// in\n    tag_240:\n      pop\n      swap1\n      pop\n      pop\n        /* \"ProzacYouthUtils.sol\":1676:2186  function updateEntry(... */\n      pop\n      pop\n      pop\n      pop\n      pop\n      pop\n      jump\t// out\n        /* \"ProzacYouthUtils.sol\":1106:1210  function revokeAccess(address _address) external onlyOwner {... */\n    tag_69:\n        /* \"ProzacYouthUtils.sol\":654:659  owner */\n      0x03\n      0x00\n      swap1\n      sload\n      swap1\n      0x0100\n      exp\n      swap1\n      div\n      0xffffffffffffffffffffffffffffffffffffffff\n      and\n        /* \"ProzacYouthUtils.sol\":640:659  msg.sender == owner */\n      0xffffffffffffffffffffffffffffffffffffffff\n      and\n        /* \"ProzacYouthUtils.sol\":640:650  msg.sender */\n      caller\n        /* \"ProzacYouthUtils.sol\":640:659  msg.sender == owner */\n      0xffffffffffffffffffffffffffffffffffffffff\n      and\n      eq\n        /* \"ProzacYouthUtils.sol\":632:677  require(msg.sender == owner, \"Not the owner\") */\n      tag_242\n      jumpi\n      mload(0x40)\n      0x08c379a000000000000000000000000000000000000000000000000000000000\n      dup2\n      mstore\n      0x04\n      add\n      tag_243\n      swap1\n      tag_151\n      jump\t// in\n    tag_243:\n      mload(0x40)\n      dup1\n      swap2\n      sub\n      swap1\n      revert\n    tag_242:\n        /* \"ProzacYouthUtils.sol\":1198:1203  false */\n      0x00\n        /* \"ProzacYouthUtils.sol\":1175:1185  accessList */\n      0x02\n        /* \"ProzacYouthUtils.sol\":1175:1195  accessList[_address] */\n      0x00\n        /* \"ProzacYouthUtils.sol\":1186:1194  _address */\n      dup4\n        /* \"ProzacYouthUtils.sol\":1175:1195  accessList[_address] */\n      0xffffffffffffffffffffffffffffffffffffffff\n      and\n      0xffffffffffffffffffffffffffffffffffffffff\n      and\n      dup2\n      mstore\n      0x20\n      add\n      swap1\n      dup2\n      mstore\n      0x20\n      add\n      0x00\n      keccak256\n      0x00\n        /* \"ProzacYouthUtils.sol\":1175:1203  accessList[_address] = false */\n      0x0100\n      exp\n      dup2\n      sload\n      dup2\n      0xff\n      mul\n      not\n      and\n      swap1\n      dup4\n      iszero\n      iszero\n      mul\n      or\n      swap1\n      sstore\n      pop\n        /* \"ProzacYouthUtils.sol\":1106:1210  function revokeAccess(address _address) external onlyOwner {... */\n      pop\n      jump\t// out\n        /* \"ProzacYouthUtils.sol\":351:393  mapping(address => bool) public accessList */\n    tag_72:\n      mstore(0x20, 0x02)\n      dup1\n      0x00\n      mstore\n      keccak256(0x00, 0x40)\n      0x00\n      swap2\n      pop\n      sload\n      swap1\n      0x0100\n      exp\n      swap1\n      div\n      0xff\n      and\n      dup2\n      jump\t// out\n        /* \"ProzacYouthUtils.sol\":399:419  address public owner */\n    tag_76:\n      0x03\n      0x00\n      swap1\n      sload\n      swap1\n      0x0100\n      exp\n      swap1\n      div\n      0xffffffffffffffffffffffffffffffffffffffff\n      and\n      dup2\n      jump\t// out\n        /* \"ProzacYouthUtils.sol\":4383:4483  function getTotalEntriesInt() external view returns (uint256) {... */\n    tag_80:\n        /* \"ProzacYouthUtils.sol\":4436:4443  uint256 */\n      0x00\n        /* \"ProzacYouthUtils.sol\":4462:4469  entries */\n      0x01\n        /* \"ProzacYouthUtils.sol\":4462:4476  entries.length */\n      dup1\n      sload\n      swap1\n      pop\n        /* \"ProzacYouthUtils.sol\":4455:4476  return entries.length */\n      swap1\n      pop\n        /* \"ProzacYouthUtils.sol\":4383:4483  function getTotalEntriesInt() external view returns (uint256) {... */\n      swap1\n      jump\t// out\n        /* \"ProzacYouthUtils.sol\":6226:6321  function getAndrewUrl() external view returns (string memory) {... */\n    tag_84:\n        /* \"ProzacYouthUtils.sol\":6273:6286  string memory */\n      0x60\n        /* \"ProzacYouthUtils.sol\":6305:6314  andrewUrl */\n      0x06\n        /* \"ProzacYouthUtils.sol\":6298:6314  return andrewUrl */\n      dup1\n      sload\n      tag_247\n      swap1\n      tag_155\n      jump\t// in\n    tag_247:\n      dup1\n      0x1f\n      add\n      0x20\n      dup1\n      swap2\n      div\n      mul\n      0x20\n      add\n      mload(0x40)\n      swap1\n      dup2\n      add\n      0x40\n      mstore\n      dup1\n      swap3\n      swap2\n      swap1\n      dup2\n      dup2\n      mstore\n      0x20\n      add\n      dup3\n      dup1\n      sload\n      tag_248\n      swap1\n      tag_155\n      jump\t// in\n    tag_248:\n      dup1\n      iszero\n      tag_249\n      jumpi\n      dup1\n      0x1f\n      lt\n      tag_250\n      jumpi\n      0x0100\n      dup1\n      dup4\n      sload\n      div\n      mul\n      dup4\n      mstore\n      swap2\n      0x20\n      add\n      swap2\n      jump(tag_249)\n    tag_250:\n      dup3\n      add\n      swap2\n      swap1\n      0x00\n      mstore\n      keccak256(0x00, 0x20)\n      swap1\n    tag_251:\n      dup2\n      sload\n      dup2\n      mstore\n      swap1\n      0x01\n      add\n      swap1\n      0x20\n      add\n      dup1\n      dup4\n      gt\n      tag_251\n      jumpi\n      dup3\n      swap1\n      sub\n      0x1f\n      and\n      dup3\n      add\n      swap2\n    tag_249:\n      pop\n      pop\n      pop\n      pop\n      pop\n      swap1\n      pop\n        /* \"ProzacYouthUtils.sol\":6226:6321  function getAndrewUrl() external view returns (string memory) {... */\n      swap1\n      jump\t// out\n        /* \"ProzacYouthUtils.sol\":5074:5401  function setMode(string memory _mode) external onlyAuthorized {... */\n    tag_88:\n        /* \"ProzacYouthUtils.sol\":759:764  owner */\n      0x03\n      0x00\n      swap1\n      sload\n      swap1\n      0x0100\n      exp\n      swap1\n      div\n      0xffffffffffffffffffffffffffffffffffffffff\n      and\n        /* \"ProzacYouthUtils.sol\":745:764  msg.sender == owner */\n      0xffffffffffffffffffffffffffffffffffffffff\n      and\n        /* \"ProzacYouthUtils.sol\":745:755  msg.sender */\n      caller\n        /* \"ProzacYouthUtils.sol\":745:764  msg.sender == owner */\n      0xffffffffffffffffffffffffffffffffffffffff\n      and\n      eq\n        /* \"ProzacYouthUtils.sol\":745:790  msg.sender == owner || accessList[msg.sender] */\n      dup1\n      tag_253\n      jumpi\n      pop\n        /* \"ProzacYouthUtils.sol\":768:778  accessList */\n      0x02\n        /* \"ProzacYouthUtils.sol\":768:790  accessList[msg.sender] */\n      0x00\n        /* \"ProzacYouthUtils.sol\":779:789  msg.sender */\n      caller\n        /* \"ProzacYouthUtils.sol\":768:790  accessList[msg.sender] */\n      0xffffffffffffffffffffffffffffffffffffffff\n      and\n      0xffffffffffffffffffffffffffffffffffffffff\n      and\n      dup2\n      mstore\n      0x20\n      add\n      swap1\n      dup2\n      mstore\n      0x20\n      add\n      0x00\n      keccak256\n      0x00\n      swap1\n      sload\n      swap1\n      0x0100\n      exp\n      swap1\n      div\n      0xff\n      and\n        /* \"ProzacYouthUtils.sol\":745:790  msg.sender == owner || accessList[msg.sender] */\n    tag_253:\n        /* \"ProzacYouthUtils.sol\":737:809  require(msg.sender == owner || accessList[msg.sender], \"Not authorized\") */\n      tag_254\n      jumpi\n      mload(0x40)\n      0x08c379a000000000000000000000000000000000000000000000000000000000\n      dup2\n      mstore\n      0x04\n      add\n      tag_255\n      swap1\n      tag_112\n      jump\t// in\n    tag_255:\n      mload(0x40)\n      dup1\n      swap2\n      sub\n      swap1\n      revert\n    tag_254:\n        /* \"ProzacYouthUtils.sol\":5215:5236  abi.encodePacked(\"0\") */\n      add(0x20, mload(0x40))\n      tag_257\n      swap1\n      tag_197\n      jump\t// in\n    tag_257:\n      mload(0x40)\n      0x20\n      dup2\n      dup4\n      sub\n      sub\n      dup2\n      mstore\n      swap1\n      0x40\n      mstore\n        /* \"ProzacYouthUtils.sol\":5205:5237  keccak256(abi.encodePacked(\"0\")) */\n      dup1\n      mload\n      swap1\n      0x20\n      add\n      keccak256\n        /* \"ProzacYouthUtils.sol\":5194:5199  _mode */\n      dup2\n        /* \"ProzacYouthUtils.sol\":5177:5200  abi.encodePacked(_mode) */\n      add(0x20, mload(0x40))\n      tag_258\n      swap2\n      swap1\n      tag_259\n      jump\t// in\n    tag_258:\n      mload(0x40)\n      0x20\n      dup2\n      dup4\n      sub\n      sub\n      dup2\n      mstore\n      swap1\n      0x40\n      mstore\n        /* \"ProzacYouthUtils.sol\":5167:5201  keccak256(abi.encodePacked(_mode)) */\n      dup1\n      mload\n      swap1\n      0x20\n      add\n      keccak256\n        /* \"ProzacYouthUtils.sol\":5167:5237  keccak256(abi.encodePacked(_mode)) == keccak256(abi.encodePacked(\"0\")) */\n      eq\n        /* \"ProzacYouthUtils.sol\":5167:5323  keccak256(abi.encodePacked(_mode)) == keccak256(abi.encodePacked(\"0\")) ||... */\n      dup1\n      tag_260\n      jumpi\n      pop\n        /* \"ProzacYouthUtils.sol\":5301:5322  abi.encodePacked(\"1\") */\n      add(0x20, mload(0x40))\n      tag_261\n      swap1\n      tag_262\n      jump\t// in\n    tag_261:\n      mload(0x40)\n      0x20\n      dup2\n      dup4\n      sub\n      sub\n      dup2\n      mstore\n      swap1\n      0x40\n      mstore\n        /* \"ProzacYouthUtils.sol\":5291:5323  keccak256(abi.encodePacked(\"1\")) */\n      dup1\n      mload\n      swap1\n      0x20\n      add\n      keccak256\n        /* \"ProzacYouthUtils.sol\":5280:5285  _mode */\n      dup2\n        /* \"ProzacYouthUtils.sol\":5263:5286  abi.encodePacked(_mode) */\n      add(0x20, mload(0x40))\n      tag_263\n      swap2\n      swap1\n      tag_259\n      jump\t// in\n    tag_263:\n      mload(0x40)\n      0x20\n      dup2\n      dup4\n      sub\n      sub\n      dup2\n      mstore\n      swap1\n      0x40\n      mstore\n        /* \"ProzacYouthUtils.sol\":5253:5287  keccak256(abi.encodePacked(_mode)) */\n      dup1\n      mload\n      swap1\n      0x20\n      add\n      keccak256\n        /* \"ProzacYouthUtils.sol\":5253:5323  keccak256(abi.encodePacked(_mode)) == keccak256(abi.encodePacked(\"1\")) */\n      eq\n        /* \"ProzacYouthUtils.sol\":5167:5323  keccak256(abi.encodePacked(_mode)) == keccak256(abi.encodePacked(\"0\")) ||... */\n    tag_260:\n        /* \"ProzacYouthUtils.sol\":5146:5372  require(... */\n      tag_264\n      jumpi\n      mload(0x40)\n      0x08c379a000000000000000000000000000000000000000000000000000000000\n      dup2\n      mstore\n      0x04\n      add\n      tag_265\n      swap1\n      tag_266\n      jump\t// in\n    tag_265:\n      mload(0x40)\n      dup1\n      swap2\n      sub\n      swap1\n      revert\n    tag_264:\n        /* \"ProzacYouthUtils.sol\":5389:5394  _mode */\n      dup1\n        /* \"ProzacYouthUtils.sol\":5382:5386  mode */\n      0x00\n        /* \"ProzacYouthUtils.sol\":5382:5394  mode = _mode */\n      swap1\n      dup2\n      tag_267\n      swap2\n      swap1\n      tag_142\n      jump\t// in\n    tag_267:\n      pop\n        /* \"ProzacYouthUtils.sol\":5074:5401  function setMode(string memory _mode) external onlyAuthorized {... */\n      pop\n      jump\t// out\n        /* \"ProzacYouthUtils.sol\":5778:5901  function setEtherscanUrl(string memory _etherscanUrl) external onlyAuthorized {... */\n    tag_91:\n        /* \"ProzacYouthUtils.sol\":759:764  owner */\n      0x03\n      0x00\n      swap1\n      sload\n      swap1\n      0x0100\n      exp\n      swap1\n      div\n      0xffffffffffffffffffffffffffffffffffffffff\n      and\n        /* \"ProzacYouthUtils.sol\":745:764  msg.sender == owner */\n      0xffffffffffffffffffffffffffffffffffffffff\n      and\n        /* \"ProzacYouthUtils.sol\":745:755  msg.sender */\n      caller\n        /* \"ProzacYouthUtils.sol\":745:764  msg.sender == owner */\n      0xffffffffffffffffffffffffffffffffffffffff\n      and\n      eq\n        /* \"ProzacYouthUtils.sol\":745:790  msg.sender == owner || accessList[msg.sender] */\n      dup1\n      tag_269\n      jumpi\n      pop\n        /* \"ProzacYouthUtils.sol\":768:778  accessList */\n      0x02\n        /* \"ProzacYouthUtils.sol\":768:790  accessList[msg.sender] */\n      0x00\n        /* \"ProzacYouthUtils.sol\":779:789  msg.sender */\n      caller\n        /* \"ProzacYouthUtils.sol\":768:790  accessList[msg.sender] */\n      0xffffffffffffffffffffffffffffffffffffffff\n      and\n      0xffffffffffffffffffffffffffffffffffffffff\n      and\n      dup2\n      mstore\n      0x20\n      add\n      swap1\n      dup2\n      mstore\n      0x20\n      add\n      0x00\n      keccak256\n      0x00\n      swap1\n      sload\n      swap1\n      0x0100\n      exp\n      swap1\n      div\n      0xff\n      and\n        /* \"ProzacYouthUtils.sol\":745:790  msg.sender == owner || accessList[msg.sender] */\n    tag_269:\n        /* \"ProzacYouthUtils.sol\":737:809  require(msg.sender == owner || accessList[msg.sender], \"Not authorized\") */\n      tag_270\n      jumpi\n      mload(0x40)\n      0x08c379a000000000000000000000000000000000000000000000000000000000\n      dup2\n      mstore\n      0x04\n      add\n      tag_271\n      swap1\n      tag_112\n      jump\t// in\n    tag_271:\n      mload(0x40)\n      dup1\n      swap2\n      sub\n      swap1\n      revert\n    tag_270:\n        /* \"ProzacYouthUtils.sol\":5881:5894  _etherscanUrl */\n      dup1\n        /* \"ProzacYouthUtils.sol\":5866:5878  etherscanUrl */\n      0x05\n        /* \"ProzacYouthUtils.sol\":5866:5894  etherscanUrl = _etherscanUrl */\n      swap1\n      dup2\n      tag_273\n      swap2\n      swap1\n      tag_142\n      jump\t// in\n    tag_273:\n      pop\n        /* \"ProzacYouthUtils.sol\":5778:5901  function setEtherscanUrl(string memory _etherscanUrl) external onlyAuthorized {... */\n      pop\n      jump\t// out\n        /* \"ProzacYouthUtils.sol\":323:345  Entry[] public entries */\n    tag_94:\n      0x01\n      dup2\n      dup2\n      sload\n      dup2\n      lt\n      tag_274\n      jumpi\n      0x00\n      dup1\n      revert\n    tag_274:\n      swap1\n      0x00\n      mstore\n      keccak256(0x00, 0x20)\n      swap1\n      0x05\n      mul\n      add\n      0x00\n      swap2\n      pop\n      swap1\n      pop\n      dup1\n      0x00\n      add\n      dup1\n      sload\n      tag_276\n      swap1\n      tag_155\n      jump\t// in\n    tag_276:\n      dup1\n      0x1f\n      add\n      0x20\n      dup1\n      swap2\n      div\n      mul\n      0x20\n      add\n      mload(0x40)\n      swap1\n      dup2\n      add\n      0x40\n      mstore\n      dup1\n      swap3\n      swap2\n      swap1\n      dup2\n      dup2\n      mstore\n      0x20\n      add\n      dup3\n      dup1\n      sload\n      tag_277\n      swap1\n      tag_155\n      jump\t// in\n    tag_277:\n      dup1\n      iszero\n      tag_278\n      jumpi\n      dup1\n      0x1f\n      lt\n      tag_279\n      jumpi\n      0x0100\n      dup1\n      dup4\n      sload\n      div\n      mul\n      dup4\n      mstore\n      swap2\n      0x20\n      add\n      swap2\n      jump(tag_278)\n    tag_279:\n      dup3\n      add\n      swap2\n      swap1\n      0x00\n      mstore\n      keccak256(0x00, 0x20)\n      swap1\n    tag_280:\n      dup2\n      sload\n      dup2\n      mstore\n      swap1\n      0x01\n      add\n      swap1\n      0x20\n      add\n      dup1\n      dup4\n      gt\n      tag_280\n      jumpi\n      dup3\n      swap1\n      sub\n      0x1f\n      and\n      dup3\n      add\n      swap2\n    tag_278:\n      pop\n      pop\n      pop\n      pop\n      pop\n      swap1\n      dup1\n      0x01\n      add\n      dup1\n      sload\n      tag_281\n      swap1\n      tag_155\n      jump\t// in\n    tag_281:\n      dup1\n      0x1f\n      add\n      0x20\n      dup1\n      swap2\n      div\n      mul\n      0x20\n      add\n      mload(0x40)\n      swap1\n      dup2\n      add\n      0x40\n      mstore\n      dup1\n      swap3\n      swap2\n      swap1\n      dup2\n      dup2\n      mstore\n      0x20\n      add\n      dup3\n      dup1\n      sload\n      tag_282\n      swap1\n      tag_155\n      jump\t// in\n    tag_282:\n      dup1\n      iszero\n      tag_283\n      jumpi\n      dup1\n      0x1f\n      lt\n      tag_284\n      jumpi\n      0x0100\n      dup1\n      dup4\n      sload\n      div\n      mul\n      dup4\n      mstore\n      swap2\n      0x20\n      add\n      swap2\n      jump(tag_283)\n    tag_284:\n      dup3\n      add\n      swap2\n      swap1\n      0x00\n      mstore\n      keccak256(0x00, 0x20)\n      swap1\n    tag_285:\n      dup2\n      sload\n      dup2\n      mstore\n      swap1\n      0x01\n      add\n      swap1\n      0x20\n      add\n      dup1\n      dup4\n      gt\n      tag_285\n      jumpi\n      dup3\n      swap1\n      sub\n      0x1f\n      and\n      dup3\n      add\n      swap2\n    tag_283:\n      pop\n      pop\n      pop\n      pop\n      pop\n      swap1\n      dup1\n      0x02\n      add\n      dup1\n      sload\n      tag_286\n      swap1\n      tag_155\n      jump\t// in\n    tag_286:\n      dup1\n      0x1f\n      add\n      0x20\n      dup1\n      swap2\n      div\n      mul\n      0x20\n      add\n      mload(0x40)\n      swap1\n      dup2\n      add\n      0x40\n      mstore\n      dup1\n      swap3\n      swap2\n      swap1\n      dup2\n      dup2\n      mstore\n      0x20\n      add\n      dup3\n      dup1\n      sload\n      tag_287\n      swap1\n      tag_155\n      jump\t// in\n    tag_287:\n      dup1\n      iszero\n      tag_288\n      jumpi\n      dup1\n      0x1f\n      lt\n      tag_289\n      jumpi\n      0x0100\n      dup1\n      dup4\n      sload\n      div\n      mul\n      dup4\n      mstore\n      swap2\n      0x20\n      add\n      swap2\n      jump(tag_288)\n    tag_289:\n      dup3\n      add\n      swap2\n      swap1\n      0x00\n      mstore\n      keccak256(0x00, 0x20)\n      swap1\n    tag_290:\n      dup2\n      sload\n      dup2\n      mstore\n      swap1\n      0x01\n      add\n      swap1\n      0x20\n      add\n      dup1\n      dup4\n      gt\n      tag_290\n      jumpi\n      dup3\n      swap1\n      sub\n      0x1f\n      and\n      dup3\n      add\n      swap2\n    tag_288:\n      pop\n      pop\n      pop\n      pop\n      pop\n      swap1\n      dup1\n      0x03\n      add\n      dup1\n      sload\n      tag_291\n      swap1\n      tag_155\n      jump\t// in\n    tag_291:\n      dup1\n      0x1f\n      add\n      0x20\n      dup1\n      swap2\n      div\n      mul\n      0x20\n      add\n      mload(0x40)\n      swap1\n      dup2\n      add\n      0x40\n      mstore\n      dup1\n      swap3\n      swap2\n      swap1\n      dup2\n      dup2\n      mstore\n      0x20\n      add\n      dup3\n      dup1\n      sload\n      tag_292\n      swap1\n      tag_155\n      jump\t// in\n    tag_292:\n      dup1\n      iszero\n      tag_293\n      jumpi\n      dup1\n      0x1f\n      lt\n      tag_294\n      jumpi\n      0x0100\n      dup1\n      dup4\n      sload\n      div\n      mul\n      dup4\n      mstore\n      swap2\n      0x20\n      add\n      swap2\n      jump(tag_293)\n    tag_294:\n      dup3\n      add\n      swap2\n      swap1\n      0x00\n      mstore\n      keccak256(0x00, 0x20)\n      swap1\n    tag_295:\n      dup2\n      sload\n      dup2\n      mstore\n      swap1\n      0x01\n      add\n      swap1\n      0x20\n      add\n      dup1\n      dup4\n      gt\n      tag_295\n      jumpi\n      dup3\n      swap1\n      sub\n      0x1f\n      and\n      dup3\n      add\n      swap2\n    tag_293:\n      pop\n      pop\n      pop\n      pop\n      pop\n      swap1\n      dup1\n      0x04\n      add\n      dup1\n      sload\n      tag_296\n      swap1\n      tag_155\n      jump\t// in\n    tag_296:\n      dup1\n      0x1f\n      add\n      0x20\n      dup1\n      swap2\n      div\n      mul\n      0x20\n      add\n      mload(0x40)\n      swap1\n      dup2\n      add\n      0x40\n      mstore\n      dup1\n      swap3\n      swap2\n      swap1\n      dup2\n      dup2\n      mstore\n      0x20\n      add\n      dup3\n      dup1\n      sload\n      tag_297\n      swap1\n      tag_155\n      jump\t// in\n    tag_297:\n      dup1\n      iszero\n      tag_298\n      jumpi\n      dup1\n      0x1f\n      lt\n      tag_299\n      jumpi\n      0x0100\n      dup1\n      dup4\n      sload\n      div\n      mul\n      dup4\n      mstore\n      swap2\n      0x20\n      add\n      swap2\n      jump(tag_298)\n    tag_299:\n      dup3\n      add\n      swap2\n      swap1\n      0x00\n      mstore\n      keccak256(0x00, 0x20)\n      swap1\n    tag_300:\n      dup2\n      sload\n      dup2\n      mstore\n      swap1\n      0x01\n      add\n      swap1\n      0x20\n      add\n      dup1\n      dup4\n      gt\n      tag_300\n      jumpi\n      dup3\n      swap1\n      sub\n      0x1f\n      and\n      dup3\n      add\n      swap2\n    tag_298:\n      pop\n      pop\n      pop\n      pop\n      pop\n      swap1\n      pop\n      dup6\n      jump\t// out\n        /* \"ProzacYouthUtils.sol\":1564:1670  function getEntry(uint256 index) public view returns (Entry memory) {... */\n    tag_99:\n        /* \"ProzacYouthUtils.sol\":1618:1630  Entry memory */\n      tag_301\n      tag_302\n      jump\t// in\n    tag_301:\n        /* \"ProzacYouthUtils.sol\":1649:1656  entries */\n      0x01\n        /* \"ProzacYouthUtils.sol\":1657:1662  index */\n      dup3\n        /* \"ProzacYouthUtils.sol\":1649:1663  entries[index] */\n      dup2\n      sload\n      dup2\n      lt\n      tag_304\n      jumpi\n      tag_305\n      tag_126\n      jump\t// in\n    tag_305:\n    tag_304:\n      swap1\n      0x00\n      mstore\n      keccak256(0x00, 0x20)\n      swap1\n      0x05\n      mul\n      add\n        /* \"ProzacYouthUtils.sol\":1642:1663  return entries[index] */\n      mload(0x40)\n      dup1\n      0xa0\n      add\n      0x40\n      mstore\n      swap1\n      dup2\n      0x00\n      dup3\n      add\n      dup1\n      sload\n      tag_307\n      swap1\n      tag_155\n      jump\t// in\n    tag_307:\n      dup1\n      0x1f\n      add\n      0x20\n      dup1\n      swap2\n      div\n      mul\n      0x20\n      add\n      mload(0x40)\n      swap1\n      dup2\n      add\n      0x40\n      mstore\n      dup1\n      swap3\n      swap2\n      swap1\n      dup2\n      dup2\n      mstore\n      0x20\n      add\n      dup3\n      dup1\n      sload\n      tag_308\n      swap1\n      tag_155\n      jump\t// in\n    tag_308:\n      dup1\n      iszero\n      tag_309\n      jumpi\n      dup1\n      0x1f\n      lt\n      tag_310\n      jumpi\n      0x0100\n      dup1\n      dup4\n      sload\n      div\n      mul\n      dup4\n      mstore\n      swap2\n      0x20\n      add\n      swap2\n      jump(tag_309)\n    tag_310:\n      dup3\n      add\n      swap2\n      swap1\n      0x00\n      mstore\n      keccak256(0x00, 0x20)\n      swap1\n    tag_311:\n      dup2\n      sload\n      dup2\n      mstore\n      swap1\n      0x01\n      add\n      swap1\n      0x20\n      add\n      dup1\n      dup4\n      gt\n      tag_311\n      jumpi\n      dup3\n      swap1\n      sub\n      0x1f\n      and\n      dup3\n      add\n      swap2\n    tag_309:\n      pop\n      pop\n      pop\n      pop\n      pop\n      dup2\n      mstore\n      0x20\n      add\n      0x01\n      dup3\n      add\n      dup1\n      sload\n      tag_312\n      swap1\n      tag_155\n      jump\t// in\n    tag_312:\n      dup1\n      0x1f\n      add\n      0x20\n      dup1\n      swap2\n      div\n      mul\n      0x20\n      add\n      mload(0x40)\n      swap1\n      dup2\n      add\n      0x40\n      mstore\n      dup1\n      swap3\n      swap2\n      swap1\n      dup2\n      dup2\n      mstore\n      0x20\n      add\n      dup3\n      dup1\n      sload\n      tag_313\n      swap1\n      tag_155\n      jump\t// in\n    tag_313:\n      dup1\n      iszero\n      tag_314\n      jumpi\n      dup1\n      0x1f\n      lt\n      tag_315\n      jumpi\n      0x0100\n      dup1\n      dup4\n      sload\n      div\n      mul\n      dup4\n      mstore\n      swap2\n      0x20\n      add\n      swap2\n      jump(tag_314)\n    tag_315:\n      dup3\n      add\n      swap2\n      swap1\n      0x00\n      mstore\n      keccak256(0x00, 0x20)\n      swap1\n    tag_316:\n      dup2\n      sload\n      dup2\n      mstore\n      swap1\n      0x01\n      add\n      swap1\n      0x20\n      add\n      dup1\n      dup4\n      gt\n      tag_316\n      jumpi\n      dup3\n      swap1\n      sub\n      0x1f\n      and\n      dup3\n      add\n      swap2\n    tag_314:\n      pop\n      pop\n      pop\n      pop\n      pop\n      dup2\n      mstore\n      0x20\n      add\n      0x02\n      dup3\n      add\n      dup1\n      sload\n      tag_317\n      swap1\n      tag_155\n      jump\t// in\n    tag_317:\n      dup1\n      0x1f\n      add\n      0x20\n      dup1\n      swap2\n      div\n      mul\n      0x20\n      add\n      mload(0x40)\n      swap1\n      dup2\n      add\n      0x40\n      mstore\n      dup1\n      swap3\n      swap2\n      swap1\n      dup2\n      dup2\n      mstore\n      0x20\n      add\n      dup3\n      dup1\n      sload\n      tag_318\n      swap1\n      tag_155\n      jump\t// in\n    tag_318:\n      dup1\n      iszero\n      tag_319\n      jumpi\n      dup1\n      0x1f\n      lt\n      tag_320\n      jumpi\n      0x0100\n      dup1\n      dup4\n      sload\n      div\n      mul\n      dup4\n      mstore\n      swap2\n      0x20\n      add\n      swap2\n      jump(tag_319)\n    tag_320:\n      dup3\n      add\n      swap2\n      swap1\n      0x00\n      mstore\n      keccak256(0x00, 0x20)\n      swap1\n    tag_321:\n      dup2\n      sload\n      dup2\n      mstore\n      swap1\n      0x01\n      add\n      swap1\n      0x20\n      add\n      dup1\n      dup4\n      gt\n      tag_321\n      jumpi\n      dup3\n      swap1\n      sub\n      0x1f\n      and\n      dup3\n      add\n      swap2\n    tag_319:\n      pop\n      pop\n      pop\n      pop\n      pop\n      dup2\n      mstore\n      0x20\n      add\n      0x03\n      dup3\n      add\n      dup1\n      sload\n      tag_322\n      swap1\n      tag_155\n      jump\t// in\n    tag_322:\n      dup1\n      0x1f\n      add\n      0x20\n      dup1\n      swap2\n      div\n      mul\n      0x20\n      add\n      mload(0x40)\n      swap1\n      dup2\n      add\n      0x40\n      mstore\n      dup1\n      swap3\n      swap2\n      swap1\n      dup2\n      dup2\n      mstore\n      0x20\n      add\n      dup3\n      dup1\n      sload\n      tag_323\n      swap1\n      tag_155\n      jump\t// in\n    tag_323:\n      dup1\n      iszero\n      tag_324\n      jumpi\n      dup1\n      0x1f\n      lt\n      tag_325\n      jumpi\n      0x0100\n      dup1\n      dup4\n      sload\n      div\n      mul\n      dup4\n      mstore\n      swap2\n      0x20\n      add\n      swap2\n      jump(tag_324)\n    tag_325:\n      dup3\n      add\n      swap2\n      swap1\n      0x00\n      mstore\n      keccak256(0x00, 0x20)\n      swap1\n    tag_326:\n      dup2\n      sload\n      dup2\n      mstore\n      swap1\n      0x01\n      add\n      swap1\n      0x20\n      add\n      dup1\n      dup4\n      gt\n      tag_326\n      jumpi\n      dup3\n      swap1\n      sub\n      0x1f\n      and\n      dup3\n      add\n      swap2\n    tag_324:\n      pop\n      pop\n      pop\n      pop\n      pop\n      dup2\n      mstore\n      0x20\n      add\n      0x04\n      dup3\n      add\n      dup1\n      sload\n      tag_327\n      swap1\n      tag_155\n      jump\t// in\n    tag_327:\n      dup1\n      0x1f\n      add\n      0x20\n      dup1\n      swap2\n      div\n      mul\n      0x20\n      add\n      mload(0x40)\n      swap1\n      dup2\n      add\n      0x40\n      mstore\n      dup1\n      swap3\n      swap2\n      swap1\n      dup2\n      dup2\n      mstore\n      0x20\n      add\n      dup3\n      dup1\n      sload\n      tag_328\n      swap1\n      tag_155\n      jump\t// in\n    tag_328:\n      dup1\n      iszero\n      tag_329\n      jumpi\n      dup1\n      0x1f\n      lt\n      tag_330\n      jumpi\n      0x0100\n      dup1\n      dup4\n      sload\n      div\n      mul\n      dup4\n      mstore\n      swap2\n      0x20\n      add\n      swap2\n      jump(tag_329)\n    tag_330:\n      dup3\n      add\n      swap2\n      swap1\n      0x00\n      mstore\n      keccak256(0x00, 0x20)\n      swap1\n    tag_331:\n      dup2\n      sload\n      dup2\n      mstore\n      swap1\n      0x01\n      add\n      swap1\n      0x20\n      add\n      dup1\n      dup4\n      gt\n      tag_331\n      jumpi\n      dup3\n      swap1\n      sub\n      0x1f\n      and\n      dup3\n      add\n      swap2\n    tag_329:\n      pop\n      pop\n      pop\n      pop\n      pop\n      dup2\n      mstore\n      pop\n      pop\n      swap1\n      pop\n        /* \"ProzacYouthUtils.sol\":1564:1670  function getEntry(uint256 index) public view returns (Entry memory) {... */\n      swap2\n      swap1\n      pop\n      jump\t// out\n        /* \"ProzacYouthUtils.sol\":5673:5772  function setTjoUrl(string memory _tjoUrl) external onlyAuthorized {... */\n    tag_104:\n        /* \"ProzacYouthUtils.sol\":759:764  owner */\n      0x03\n      0x00\n      swap1\n      sload\n      swap1\n      0x0100\n      exp\n      swap1\n      div\n      0xffffffffffffffffffffffffffffffffffffffff\n      and\n        /* \"ProzacYouthUtils.sol\":745:764  msg.sender == owner */\n      0xffffffffffffffffffffffffffffffffffffffff\n      and\n        /* \"ProzacYouthUtils.sol\":745:755  msg.sender */\n      caller\n        /* \"ProzacYouthUtils.sol\":745:764  msg.sender == owner */\n      0xffffffffffffffffffffffffffffffffffffffff\n      and\n      eq\n        /* \"ProzacYouthUtils.sol\":745:790  msg.sender == owner || accessList[msg.sender] */\n      dup1\n      tag_333\n      jumpi\n      pop\n        /* \"ProzacYouthUtils.sol\":768:778  accessList */\n      0x02\n        /* \"ProzacYouthUtils.sol\":768:790  accessList[msg.sender] */\n      0x00\n        /* \"ProzacYouthUtils.sol\":779:789  msg.sender */\n      caller\n        /* \"ProzacYouthUtils.sol\":768:790  accessList[msg.sender] */\n      0xffffffffffffffffffffffffffffffffffffffff\n      and\n      0xffffffffffffffffffffffffffffffffffffffff\n      and\n      dup2\n      mstore\n      0x20\n      add\n      swap1\n      dup2\n      mstore\n      0x20\n      add\n      0x00\n      keccak256\n      0x00\n      swap1\n      sload\n      swap1\n      0x0100\n      exp\n      swap1\n      div\n      0xff\n      and\n        /* \"ProzacYouthUtils.sol\":745:790  msg.sender == owner || accessList[msg.sender] */\n    tag_333:\n        /* \"ProzacYouthUtils.sol\":737:809  require(msg.sender == owner || accessList[msg.sender], \"Not authorized\") */\n      tag_334\n      jumpi\n      mload(0x40)\n      0x08c379a000000000000000000000000000000000000000000000000000000000\n      dup2\n      mstore\n      0x04\n      add\n      tag_335\n      swap1\n      tag_112\n      jump\t// in\n    tag_335:\n      mload(0x40)\n      dup1\n      swap2\n      sub\n      swap1\n      revert\n    tag_334:\n        /* \"ProzacYouthUtils.sol\":5758:5765  _tjoUrl */\n      dup1\n        /* \"ProzacYouthUtils.sol\":5749:5755  tjoUrl */\n      0x04\n        /* \"ProzacYouthUtils.sol\":5749:5765  tjoUrl = _tjoUrl */\n      swap1\n      dup2\n      tag_337\n      swap2\n      swap1\n      tag_142\n      jump\t// in\n    tag_337:\n      pop\n        /* \"ProzacYouthUtils.sol\":5673:5772  function setTjoUrl(string memory _tjoUrl) external onlyAuthorized {... */\n      pop\n      jump\t// out\n        /* \"ProzacYouthUtils.sol\":5580:5666  function getModeRaw() public view returns (string memory) {... */\n    tag_106:\n        /* \"ProzacYouthUtils.sol\":5623:5636  string memory */\n      0x60\n        /* \"ProzacYouthUtils.sol\":5655:5659  mode */\n      0x00\n        /* \"ProzacYouthUtils.sol\":5648:5659  return mode */\n      dup1\n      sload\n      tag_339\n      swap1\n      tag_155\n      jump\t// in\n    tag_339:\n      dup1\n      0x1f\n      add\n      0x20\n      dup1\n      swap2\n      div\n      mul\n      0x20\n      add\n      mload(0x40)\n      swap1\n      dup2\n      add\n      0x40\n      mstore\n      dup1\n      swap3\n      swap2\n      swap1\n      dup2\n      dup2\n      mstore\n      0x20\n      add\n      dup3\n      dup1\n      sload\n      tag_340\n      swap1\n      tag_155\n      jump\t// in\n    tag_340:\n      dup1\n      iszero\n      tag_341\n      jumpi\n      dup1\n      0x1f\n      lt\n      tag_342\n      jumpi\n      0x0100\n      dup1\n      dup4\n      sload\n      div\n      mul\n      dup4\n      mstore\n      swap2\n      0x20\n      add\n      swap2\n      jump(tag_341)\n    tag_342:\n      dup3\n      add\n      swap2\n      swap1\n      0x00\n      mstore\n      keccak256(0x00, 0x20)\n      swap1\n    tag_343:\n      dup2\n      sload\n      dup2\n      mstore\n      swap1\n      0x01\n      add\n      swap1\n      0x20\n      add\n      dup1\n      dup4\n      gt\n      tag_343\n      jumpi\n      dup3\n      swap1\n      sub\n      0x1f\n      and\n      dup3\n      add\n      swap2\n    tag_341:\n      pop\n      pop\n      pop\n      pop\n      pop\n      swap1\n      pop\n        /* \"ProzacYouthUtils.sol\":5580:5666  function getModeRaw() public view returns (string memory) {... */\n      swap1\n      jump\t// out\n        /* \"ProzacYouthUtils.sol\":2706:3578  function split(string memory str, string memory delim) internal pure returns (string[] memory) {... */\n    tag_115:\n        /* \"ProzacYouthUtils.sol\":2784:2799  string[] memory */\n      0x60\n        /* \"ProzacYouthUtils.sol\":2811:2832  bytes memory strBytes */\n      0x00\n        /* \"ProzacYouthUtils.sol\":2841:2844  str */\n      dup4\n        /* \"ProzacYouthUtils.sol\":2811:2845  bytes memory strBytes = bytes(str) */\n      swap1\n      pop\n        /* \"ProzacYouthUtils.sol\":2855:2878  bytes memory delimBytes */\n      0x00\n        /* \"ProzacYouthUtils.sol\":2887:2892  delim */\n      dup4\n        /* \"ProzacYouthUtils.sol\":2855:2893  bytes memory delimBytes = bytes(delim) */\n      swap1\n      pop\n        /* \"ProzacYouthUtils.sol\":2903:2921  uint256 splitCount */\n      0x00\n        /* \"ProzacYouthUtils.sol\":2931:2940  uint256 i */\n      dup1\n        /* \"ProzacYouthUtils.sol\":2959:2960  0 */\n      0x00\n        /* \"ProzacYouthUtils.sol\":2955:2960  i = 0 */\n      swap1\n      pop\n        /* \"ProzacYouthUtils.sol\":2950:3091  for (i = 0; i < strBytes.length; i++) {... */\n    tag_345:\n        /* \"ProzacYouthUtils.sol\":2966:2974  strBytes */\n      dup4\n        /* \"ProzacYouthUtils.sol\":2966:2981  strBytes.length */\n      mload\n        /* \"ProzacYouthUtils.sol\":2962:2963  i */\n      dup2\n        /* \"ProzacYouthUtils.sol\":2962:2981  i < strBytes.length */\n      lt\n        /* \"ProzacYouthUtils.sol\":2950:3091  for (i = 0; i < strBytes.length; i++) {... */\n      iszero\n      tag_346\n      jumpi\n        /* \"ProzacYouthUtils.sol\":3021:3031  delimBytes */\n      dup3\n        /* \"ProzacYouthUtils.sol\":3032:3033  0 */\n      0x00\n        /* \"ProzacYouthUtils.sol\":3021:3034  delimBytes[0] */\n      dup2\n      mload\n      dup2\n      lt\n      tag_348\n      jumpi\n      tag_349\n      tag_126\n      jump\t// in\n    tag_349:\n    tag_348:\n      0x20\n      add\n      add\n      mload\n      0xf8\n      shr\n      0xf8\n      shl\n        /* \"ProzacYouthUtils.sol\":3006:3034  strBytes[i] == delimBytes[0] */\n      not(0xffffffffffffffffffffffffffffffffffffffffffffffffffffffffffffff)\n      and\n        /* \"ProzacYouthUtils.sol\":3006:3014  strBytes */\n      dup5\n        /* \"ProzacYouthUtils.sol\":3015:3016  i */\n      dup3\n        /* \"ProzacYouthUtils.sol\":3006:3017  strBytes[i] */\n      dup2\n      mload\n      dup2\n      lt\n      tag_350\n      jumpi\n      tag_351\n      tag_126\n      jump\t// in\n    tag_351:\n    tag_350:\n      0x20\n      add\n      add\n      mload\n      0xf8\n      shr\n      0xf8\n      shl\n        /* \"ProzacYouthUtils.sol\":3006:3034  strBytes[i] == delimBytes[0] */\n      not(0xffffffffffffffffffffffffffffffffffffffffffffffffffffffffffffff)\n      and\n      sub\n        /* \"ProzacYouthUtils.sol\":3002:3081  if (strBytes[i] == delimBytes[0]) {... */\n      tag_352\n      jumpi\n        /* \"ProzacYouthUtils.sol\":3054:3066  splitCount++ */\n      dup2\n      dup1\n      tag_353\n      swap1\n      tag_354\n      jump\t// in\n    tag_353:\n      swap3\n      pop\n      pop\n        /* \"ProzacYouthUtils.sol\":3002:3081  if (strBytes[i] == delimBytes[0]) {... */\n    tag_352:\n        /* \"ProzacYouthUtils.sol\":2983:2986  i++ */\n      dup1\n      dup1\n      0x01\n      add\n      swap2\n      pop\n      pop\n        /* \"ProzacYouthUtils.sol\":2950:3091  for (i = 0; i < strBytes.length; i++) {... */\n      jump(tag_345)\n    tag_346:\n        /* \"ProzacYouthUtils.sol\":3101:3127  string[] memory splitArray */\n      0x00\n        /* \"ProzacYouthUtils.sol\":3156:3157  1 */\n      0x01\n        /* \"ProzacYouthUtils.sol\":3143:3153  splitCount */\n      dup4\n        /* \"ProzacYouthUtils.sol\":3143:3157  splitCount + 1 */\n      tag_355\n      swap2\n      swap1\n      tag_128\n      jump\t// in\n    tag_355:\n        /* \"ProzacYouthUtils.sol\":3130:3158  new string[](splitCount + 1) */\n      0xffffffffffffffff\n      dup2\n      gt\n      iszero\n      tag_356\n      jumpi\n      tag_357\n      tag_358\n      jump\t// in\n    tag_357:\n    tag_356:\n      mload(0x40)\n      swap1\n      dup1\n      dup3\n      mstore\n      dup1\n      0x20\n      mul\n      0x20\n      add\n      dup3\n      add\n      0x40\n      mstore\n      dup1\n      iszero\n      tag_359\n      jumpi\n      dup2\n      0x20\n      add\n    tag_360:\n      0x60\n      dup2\n      mstore\n      0x20\n      add\n      swap1\n      0x01\n      swap1\n      sub\n      swap1\n      dup2\n      tag_360\n      jumpi\n      swap1\n      pop\n    tag_359:\n      pop\n        /* \"ProzacYouthUtils.sol\":3101:3158  string[] memory splitArray = new string[](splitCount + 1) */\n      swap1\n      pop\n        /* \"ProzacYouthUtils.sol\":3168:3186  uint256 splitIndex */\n      0x00\n        /* \"ProzacYouthUtils.sol\":3196:3209  uint256 start */\n      dup1\n        /* \"ProzacYouthUtils.sol\":3212:3213  0 */\n      0x00\n        /* \"ProzacYouthUtils.sol\":3196:3213  uint256 start = 0 */\n      swap1\n      pop\n        /* \"ProzacYouthUtils.sol\":3232:3233  0 */\n      0x00\n        /* \"ProzacYouthUtils.sol\":3228:3233  i = 0 */\n      swap4\n      pop\n        /* \"ProzacYouthUtils.sol\":3223:3467  for (i = 0; i < strBytes.length; i++) {... */\n    tag_361:\n        /* \"ProzacYouthUtils.sol\":3239:3247  strBytes */\n      dup7\n        /* \"ProzacYouthUtils.sol\":3239:3254  strBytes.length */\n      mload\n        /* \"ProzacYouthUtils.sol\":3235:3236  i */\n      dup5\n        /* \"ProzacYouthUtils.sol\":3235:3254  i < strBytes.length */\n      lt\n        /* \"ProzacYouthUtils.sol\":3223:3467  for (i = 0; i < strBytes.length; i++) {... */\n      iszero\n      tag_362\n      jumpi\n        /* \"ProzacYouthUtils.sol\":3294:3304  delimBytes */\n      dup6\n        /* \"ProzacYouthUtils.sol\":3305:3306  0 */\n      0x00\n        /* \"ProzacYouthUtils.sol\":3294:3307  delimBytes[0] */\n      dup2\n      mload\n      dup2\n      lt\n      tag_364\n      jumpi\n      tag_365\n      tag_126\n      jump\t// in\n    tag_365:\n    tag_364:\n      0x20\n      add\n      add\n      mload\n      0xf8\n      shr\n      0xf8\n      shl\n        /* \"ProzacYouthUtils.sol\":3279:3307  strBytes[i] == delimBytes[0] */\n      not(0xffffffffffffffffffffffffffffffffffffffffffffffffffffffffffffff)\n      and\n        /* \"ProzacYouthUtils.sol\":3279:3287  strBytes */\n      dup8\n        /* \"ProzacYouthUtils.sol\":3288:3289  i */\n      dup6\n        /* \"ProzacYouthUtils.sol\":3279:3290  strBytes[i] */\n      dup2\n      mload\n      dup2\n      lt\n      tag_366\n      jumpi\n      tag_367\n      tag_126\n      jump\t// in\n    tag_367:\n    tag_366:\n      0x20\n      add\n      add\n      mload\n      0xf8\n      shr\n      0xf8\n      shl\n        /* \"ProzacYouthUtils.sol\":3279:3307  strBytes[i] == delimBytes[0] */\n      not(0xffffffffffffffffffffffffffffffffffffffffffffffffffffffffffffff)\n      and\n      sub\n        /* \"ProzacYouthUtils.sol\":3275:3457  if (strBytes[i] == delimBytes[0]) {... */\n      tag_368\n      jumpi\n        /* \"ProzacYouthUtils.sol\":3352:3381  substring(strBytes, start, i) */\n      tag_369\n        /* \"ProzacYouthUtils.sol\":3362:3370  strBytes */\n      dup8\n        /* \"ProzacYouthUtils.sol\":3372:3377  start */\n      dup3\n        /* \"ProzacYouthUtils.sol\":3379:3380  i */\n      dup7\n        /* \"ProzacYouthUtils.sol\":3352:3361  substring */\n      tag_370\n        /* \"ProzacYouthUtils.sol\":3352:3381  substring(strBytes, start, i) */\n      jump\t// in\n    tag_369:\n        /* \"ProzacYouthUtils.sol\":3327:3337  splitArray */\n      dup4\n        /* \"ProzacYouthUtils.sol\":3338:3348  splitIndex */\n      dup4\n        /* \"ProzacYouthUtils.sol\":3327:3349  splitArray[splitIndex] */\n      dup2\n      mload\n      dup2\n      lt\n      tag_371\n      jumpi\n      tag_372\n      tag_126\n      jump\t// in\n    tag_372:\n    tag_371:\n      0x20\n      mul\n      0x20\n      add\n      add\n        /* \"ProzacYouthUtils.sol\":3327:3381  splitArray[splitIndex] = substring(strBytes, start, i) */\n      dup2\n      swap1\n      mstore\n      pop\n        /* \"ProzacYouthUtils.sol\":3399:3411  splitIndex++ */\n      dup2\n      dup1\n      tag_373\n      swap1\n      tag_354\n      jump\t// in\n    tag_373:\n      swap3\n      pop\n      pop\n        /* \"ProzacYouthUtils.sol\":3441:3442  1 */\n      0x01\n        /* \"ProzacYouthUtils.sol\":3437:3438  i */\n      dup5\n        /* \"ProzacYouthUtils.sol\":3437:3442  i + 1 */\n      tag_374\n      swap2\n      swap1\n      tag_128\n      jump\t// in\n    tag_374:\n        /* \"ProzacYouthUtils.sol\":3429:3442  start = i + 1 */\n      swap1\n      pop\n        /* \"ProzacYouthUtils.sol\":3275:3457  if (strBytes[i] == delimBytes[0]) {... */\n    tag_368:\n        /* \"ProzacYouthUtils.sol\":3256:3259  i++ */\n      dup4\n      dup1\n      0x01\n      add\n      swap5\n      pop\n      pop\n        /* \"ProzacYouthUtils.sol\":3223:3467  for (i = 0; i < strBytes.length; i++) {... */\n      jump(tag_361)\n    tag_362:\n        /* \"ProzacYouthUtils.sol\":3501:3544  substring(strBytes, start, strBytes.length) */\n      tag_375\n        /* \"ProzacYouthUtils.sol\":3511:3519  strBytes */\n      dup8\n        /* \"ProzacYouthUtils.sol\":3521:3526  start */\n      dup3\n        /* \"ProzacYouthUtils.sol\":3528:3536  strBytes */\n      dup10\n        /* \"ProzacYouthUtils.sol\":3528:3543  strBytes.length */\n      mload\n        /* \"ProzacYouthUtils.sol\":3501:3510  substring */\n      tag_370\n        /* \"ProzacYouthUtils.sol\":3501:3544  substring(strBytes, start, strBytes.length) */\n      jump\t// in\n    tag_375:\n        /* \"ProzacYouthUtils.sol\":3476:3486  splitArray */\n      dup4\n        /* \"ProzacYouthUtils.sol\":3487:3497  splitIndex */\n      dup4\n        /* \"ProzacYouthUtils.sol\":3476:3498  splitArray[splitIndex] */\n      dup2\n      mload\n      dup2\n      lt\n      tag_376\n      jumpi\n      tag_377\n      tag_126\n      jump\t// in\n    tag_377:\n    tag_376:\n      0x20\n      mul\n      0x20\n      add\n      add\n        /* \"ProzacYouthUtils.sol\":3476:3544  splitArray[splitIndex] = substring(strBytes, start, strBytes.length) */\n      dup2\n      swap1\n      mstore\n      pop\n        /* \"ProzacYouthUtils.sol\":3561:3571  splitArray */\n      dup3\n        /* \"ProzacYouthUtils.sol\":3554:3571  return splitArray */\n      swap8\n      pop\n      pop\n      pop\n      pop\n      pop\n      pop\n      pop\n      pop\n        /* \"ProzacYouthUtils.sol\":2706:3578  function split(string memory str, string memory delim) internal pure returns (string[] memory) {... */\n      swap3\n      swap2\n      pop\n      pop\n      jump\t// out\n        /* \"ProzacYouthUtils.sol\":4489:5067  function uintToString(uint256 value) internal pure returns (string memory) {... */\n    tag_162:\n        /* \"ProzacYouthUtils.sol\":4549:4562  string memory */\n      0x60\n        /* \"ProzacYouthUtils.sol\":4638:4639  0 */\n      0x00\n        /* \"ProzacYouthUtils.sol\":4629:4634  value */\n      dup3\n        /* \"ProzacYouthUtils.sol\":4629:4639  value == 0 */\n      sub\n        /* \"ProzacYouthUtils.sol\":4625:4676  if (value == 0) {... */\n      tag_379\n      jumpi\n        /* \"ProzacYouthUtils.sol\":4655:4665  return \"0\" */\n      mload(0x40)\n      dup1\n      0x40\n      add\n      0x40\n      mstore\n      dup1\n      0x01\n      dup2\n      mstore\n      0x20\n      add\n      0x3000000000000000000000000000000000000000000000000000000000000000\n      dup2\n      mstore\n      pop\n      swap1\n      pop\n      jump(tag_378)\n        /* \"ProzacYouthUtils.sol\":4625:4676  if (value == 0) {... */\n    tag_379:\n        /* \"ProzacYouthUtils.sol\":4685:4697  uint256 temp */\n      0x00\n        /* \"ProzacYouthUtils.sol\":4700:4705  value */\n      dup3\n        /* \"ProzacYouthUtils.sol\":4685:4705  uint256 temp = value */\n      swap1\n      pop\n        /* \"ProzacYouthUtils.sol\":4715:4729  uint256 digits */\n      0x00\n        /* \"ProzacYouthUtils.sol\":4739:4814  while (temp != 0) {... */\n    tag_380:\n        /* \"ProzacYouthUtils.sol\":4754:4755  0 */\n      0x00\n        /* \"ProzacYouthUtils.sol\":4746:4750  temp */\n      dup3\n        /* \"ProzacYouthUtils.sol\":4746:4755  temp != 0 */\n      eq\n        /* \"ProzacYouthUtils.sol\":4739:4814  while (temp != 0) {... */\n      tag_381\n      jumpi\n        /* \"ProzacYouthUtils.sol\":4771:4779  digits++ */\n      dup1\n      dup1\n      tag_382\n      swap1\n      tag_354\n      jump\t// in\n    tag_382:\n      swap2\n      pop\n      pop\n        /* \"ProzacYouthUtils.sol\":4801:4803  10 */\n      0x0a\n        /* \"ProzacYouthUtils.sol\":4793:4803  temp /= 10 */\n      dup3\n      tag_383\n      swap2\n      swap1\n      tag_384\n      jump\t// in\n    tag_383:\n      swap2\n      pop\n        /* \"ProzacYouthUtils.sol\":4739:4814  while (temp != 0) {... */\n      jump(tag_380)\n    tag_381:\n        /* \"ProzacYouthUtils.sol\":4823:4842  bytes memory buffer */\n      0x00\n        /* \"ProzacYouthUtils.sol\":4855:4861  digits */\n      dup2\n        /* \"ProzacYouthUtils.sol\":4845:4862  new bytes(digits) */\n      0xffffffffffffffff\n      dup2\n      gt\n      iszero\n      tag_385\n      jumpi\n      tag_386\n      tag_358\n      jump\t// in\n    tag_386:\n    tag_385:\n      mload(0x40)\n      swap1\n      dup1\n      dup3\n      mstore\n      dup1\n      0x1f\n      add\n      not(0x1f)\n      and\n      0x20\n      add\n      dup3\n      add\n      0x40\n      mstore\n      dup1\n      iszero\n      tag_387\n      jumpi\n      dup2\n      0x20\n      add\n      0x01\n      dup3\n      mul\n      dup1\n      calldatasize\n      dup4\n      calldatacopy\n      dup1\n      dup3\n      add\n      swap2\n      pop\n      pop\n      swap1\n      pop\n    tag_387:\n      pop\n        /* \"ProzacYouthUtils.sol\":4823:4862  bytes memory buffer = new bytes(digits) */\n      swap1\n      pop\n        /* \"ProzacYouthUtils.sol\":4872:5030  while (value != 0) {... */\n    tag_388:\n        /* \"ProzacYouthUtils.sol\":4888:4889  0 */\n      0x00\n        /* \"ProzacYouthUtils.sol\":4879:4884  value */\n      dup6\n        /* \"ProzacYouthUtils.sol\":4879:4889  value != 0 */\n      eq\n        /* \"ProzacYouthUtils.sol\":4872:5030  while (value != 0) {... */\n      tag_389\n      jumpi\n        /* \"ProzacYouthUtils.sol\":4923:4924  1 */\n      0x01\n        /* \"ProzacYouthUtils.sol\":4914:4920  digits */\n      dup3\n        /* \"ProzacYouthUtils.sol\":4914:4924  digits - 1 */\n      tag_390\n      swap2\n      swap1\n      tag_176\n      jump\t// in\n    tag_390:\n        /* \"ProzacYouthUtils.sol\":4905:4924  digits = digits - 1 */\n      swap2\n      pop\n        /* \"ProzacYouthUtils.sol\":4989:4991  10 */\n      0x0a\n        /* \"ProzacYouthUtils.sol\":4981:4986  value */\n      dup6\n        /* \"ProzacYouthUtils.sol\":4981:4991  value % 10 */\n      tag_391\n      swap2\n      swap1\n      tag_117\n      jump\t// in\n    tag_391:\n        /* \"ProzacYouthUtils.sol\":4968:4970  48 */\n      0x30\n        /* \"ProzacYouthUtils.sol\":4968:4992  48 + uint256(value % 10) */\n      tag_392\n      swap2\n      swap1\n      tag_128\n      jump\t// in\n    tag_392:\n        /* \"ProzacYouthUtils.sol\":4955:4994  bytes1(uint8(48 + uint256(value % 10))) */\n      0xf8\n      shl\n        /* \"ProzacYouthUtils.sol\":4938:4944  buffer */\n      dup2\n        /* \"ProzacYouthUtils.sol\":4945:4951  digits */\n      dup4\n        /* \"ProzacYouthUtils.sol\":4938:4952  buffer[digits] */\n      dup2\n      mload\n      dup2\n      lt\n      tag_393\n      jumpi\n      tag_394\n      tag_126\n      jump\t// in\n    tag_394:\n    tag_393:\n      0x20\n      add\n      add\n        /* \"ProzacYouthUtils.sol\":4938:4994  buffer[digits] = bytes1(uint8(48 + uint256(value % 10))) */\n      swap1\n      not(0xffffffffffffffffffffffffffffffffffffffffffffffffffffffffffffff)\n      and\n      swap1\n      dup2\n      0x00\n      byte\n      swap1\n      mstore8\n      pop\n        /* \"ProzacYouthUtils.sol\":5017:5019  10 */\n      0x0a\n        /* \"ProzacYouthUtils.sol\":5008:5019  value /= 10 */\n      dup6\n      tag_395\n      swap2\n      swap1\n      tag_384\n      jump\t// in\n    tag_395:\n      swap5\n      pop\n        /* \"ProzacYouthUtils.sol\":4872:5030  while (value != 0) {... */\n      jump(tag_388)\n    tag_389:\n        /* \"ProzacYouthUtils.sol\":5053:5059  buffer */\n      dup1\n        /* \"ProzacYouthUtils.sol\":5039:5060  return string(buffer) */\n      swap4\n      pop\n      pop\n      pop\n      pop\n        /* \"ProzacYouthUtils.sol\":4489:5067  function uintToString(uint256 value) internal pure returns (string memory) {... */\n    tag_378:\n      swap2\n      swap1\n      pop\n      jump\t// out\n        /* \"ProzacYouthUtils.sol\":3584:3887  function substring(bytes memory strBytes, uint256 start, uint256 end) internal pure returns (string memory) {... */\n    tag_370:\n        /* \"ProzacYouthUtils.sol\":3677:3690  string memory */\n      0x60\n        /* \"ProzacYouthUtils.sol\":3702:3721  bytes memory result */\n      0x00\n        /* \"ProzacYouthUtils.sol\":3740:3745  start */\n      dup4\n        /* \"ProzacYouthUtils.sol\":3734:3737  end */\n      dup4\n        /* \"ProzacYouthUtils.sol\":3734:3745  end - start */\n      tag_397\n      swap2\n      swap1\n      tag_176\n      jump\t// in\n    tag_397:\n        /* \"ProzacYouthUtils.sol\":3724:3746  new bytes(end - start) */\n      0xffffffffffffffff\n      dup2\n      gt\n      iszero\n      tag_398\n      jumpi\n      tag_399\n      tag_358\n      jump\t// in\n    tag_399:\n    tag_398:\n      mload(0x40)\n      swap1\n      dup1\n      dup3\n      mstore\n      dup1\n      0x1f\n      add\n      not(0x1f)\n      and\n      0x20\n      add\n      dup3\n      add\n      0x40\n      mstore\n      dup1\n      iszero\n      tag_400\n      jumpi\n      dup2\n      0x20\n      add\n      0x01\n      dup3\n      mul\n      dup1\n      calldatasize\n      dup4\n      calldatacopy\n      dup1\n      dup3\n      add\n      swap2\n      pop\n      pop\n      swap1\n      pop\n    tag_400:\n      pop\n        /* \"ProzacYouthUtils.sol\":3702:3746  bytes memory result = new bytes(end - start) */\n      swap1\n      pop\n        /* \"ProzacYouthUtils.sol\":3761:3770  uint256 i */\n      0x00\n        /* \"ProzacYouthUtils.sol\":3773:3778  start */\n      dup5\n        /* \"ProzacYouthUtils.sol\":3761:3778  uint256 i = start */\n      swap1\n      pop\n        /* \"ProzacYouthUtils.sol\":3756:3850  for (uint256 i = start; i < end; i++) {... */\n    tag_401:\n        /* \"ProzacYouthUtils.sol\":3784:3787  end */\n      dup4\n        /* \"ProzacYouthUtils.sol\":3780:3781  i */\n      dup2\n        /* \"ProzacYouthUtils.sol\":3780:3787  i < end */\n      lt\n        /* \"ProzacYouthUtils.sol\":3756:3850  for (uint256 i = start; i < end; i++) {... */\n      iszero\n      tag_402\n      jumpi\n        /* \"ProzacYouthUtils.sol\":3828:3836  strBytes */\n      dup6\n        /* \"ProzacYouthUtils.sol\":3837:3838  i */\n      dup2\n        /* \"ProzacYouthUtils.sol\":3828:3839  strBytes[i] */\n      dup2\n      mload\n      dup2\n      lt\n      tag_404\n      jumpi\n      tag_405\n      tag_126\n      jump\t// in\n    tag_405:\n    tag_404:\n      0x20\n      add\n      add\n      mload\n      0xf8\n      shr\n      0xf8\n      shl\n        /* \"ProzacYouthUtils.sol\":3808:3814  result */\n      dup3\n        /* \"ProzacYouthUtils.sol\":3819:3824  start */\n      dup7\n        /* \"ProzacYouthUtils.sol\":3815:3816  i */\n      dup4\n        /* \"ProzacYouthUtils.sol\":3815:3824  i - start */\n      tag_406\n      swap2\n      swap1\n      tag_176\n      jump\t// in\n    tag_406:\n        /* \"ProzacYouthUtils.sol\":3808:3825  result[i - start] */\n      dup2\n      mload\n      dup2\n      lt\n      tag_407\n      jumpi\n      tag_408\n      tag_126\n      jump\t// in\n    tag_408:\n    tag_407:\n      0x20\n      add\n      add\n        /* \"ProzacYouthUtils.sol\":3808:3839  result[i - start] = strBytes[i] */\n      swap1\n      not(0xffffffffffffffffffffffffffffffffffffffffffffffffffffffffffffff)\n      and\n      swap1\n      dup2\n      0x00\n      byte\n      swap1\n      mstore8\n      pop\n        /* \"ProzacYouthUtils.sol\":3789:3792  i++ */\n      dup1\n      dup1\n      0x01\n      add\n      swap2\n      pop\n      pop\n        /* \"ProzacYouthUtils.sol\":3756:3850  for (uint256 i = start; i < end; i++) {... */\n      jump(tag_401)\n    tag_402:\n      pop\n        /* \"ProzacYouthUtils.sol\":3873:3879  result */\n      dup1\n        /* \"ProzacYouthUtils.sol\":3859:3880  return string(result) */\n      swap2\n      pop\n      pop\n        /* \"ProzacYouthUtils.sol\":3584:3887  function substring(bytes memory strBytes, uint256 start, uint256 end) internal pure returns (string memory) {... */\n      swap4\n      swap3\n      pop\n      pop\n      pop\n      jump\t// out\n    tag_187:\n      pop\n      dup1\n      sload\n      tag_409\n      swap1\n      tag_155\n      jump\t// in\n    tag_409:\n      0x00\n      dup3\n      sstore\n      dup1\n      0x1f\n      lt\n      tag_411\n      jumpi\n      pop\n      jump(tag_410)\n    tag_411:\n      0x1f\n      add\n      0x20\n      swap1\n      div\n      swap1\n      0x00\n      mstore\n      keccak256(0x00, 0x20)\n      swap1\n      dup2\n      add\n      swap1\n      tag_412\n      swap2\n      swap1\n      tag_413\n      jump\t// in\n    tag_412:\n    tag_410:\n      pop\n      jump\t// out\n    tag_302:\n      mload(0x40)\n      dup1\n      0xa0\n      add\n      0x40\n      mstore\n      dup1\n      0x60\n      dup2\n      mstore\n      0x20\n      add\n      0x60\n      dup2\n      mstore\n      0x20\n      add\n      0x60\n      dup2\n      mstore\n      0x20\n      add\n      0x60\n      dup2\n      mstore\n      0x20\n      add\n      0x60\n      dup2\n      mstore\n      pop\n      swap1\n      jump\t// out\n    tag_413:\n    tag_414:\n      dup1\n      dup3\n      gt\n      iszero\n      tag_415\n      jumpi\n      0x00\n      dup2\n      0x00\n      swap1\n      sstore\n      pop\n      0x01\n      add\n      jump(tag_414)\n    tag_415:\n      pop\n      swap1\n      jump\t// out\n        /* \"#utility.yul\":7:82   */\n    tag_416:\n        /* \"#utility.yul\":40:46   */\n      0x00\n        /* \"#utility.yul\":73:75   */\n      0x40\n        /* \"#utility.yul\":67:76   */\n      mload\n        /* \"#utility.yul\":57:76   */\n      swap1\n      pop\n        /* \"#utility.yul\":7:82   */\n      swap1\n      jump\t// out\n        /* \"#utility.yul\":88:205   */\n    tag_417:\n        /* \"#utility.yul\":197:198   */\n      0x00\n        /* \"#utility.yul\":194:195   */\n      dup1\n        /* \"#utility.yul\":187:199   */\n      revert\n        /* \"#utility.yul\":211:328   */\n    tag_418:\n        /* \"#utility.yul\":320:321   */\n      0x00\n        /* \"#utility.yul\":317:318   */\n      dup1\n        /* \"#utility.yul\":310:322   */\n      revert\n        /* \"#utility.yul\":334:451   */\n    tag_419:\n        /* \"#utility.yul\":443:444   */\n      0x00\n        /* \"#utility.yul\":440:441   */\n      dup1\n        /* \"#utility.yul\":433:445   */\n      revert\n        /* \"#utility.yul\":457:574   */\n    tag_420:\n        /* \"#utility.yul\":566:567   */\n      0x00\n        /* \"#utility.yul\":563:564   */\n      dup1\n        /* \"#utility.yul\":556:568   */\n      revert\n        /* \"#utility.yul\":580:682   */\n    tag_421:\n        /* \"#utility.yul\":621:627   */\n      0x00\n        /* \"#utility.yul\":672:674   */\n      0x1f\n        /* \"#utility.yul\":668:675   */\n      not\n        /* \"#utility.yul\":663:665   */\n      0x1f\n        /* \"#utility.yul\":656:661   */\n      dup4\n        /* \"#utility.yul\":652:666   */\n      add\n        /* \"#utility.yul\":648:676   */\n      and\n        /* \"#utility.yul\":638:676   */\n      swap1\n      pop\n        /* \"#utility.yul\":580:682   */\n      swap2\n      swap1\n      pop\n      jump\t// out\n        /* \"#utility.yul\":688:868   */\n    tag_358:\n        /* \"#utility.yul\":736:813   */\n      0x4e487b7100000000000000000000000000000000000000000000000000000000\n        /* \"#utility.yul\":733:734   */\n      0x00\n        /* \"#utility.yul\":726:814   */\n      mstore\n        /* \"#utility.yul\":833:837   */\n      0x41\n        /* \"#utility.yul\":830:831   */\n      0x04\n        /* \"#utility.yul\":823:838   */\n      mstore\n        /* \"#utility.yul\":857:861   */\n      0x24\n        /* \"#utility.yul\":854:855   */\n      0x00\n        /* \"#utility.yul\":847:862   */\n      revert\n        /* \"#utility.yul\":874:1155   */\n    tag_422:\n        /* \"#utility.yul\":957:984   */\n      tag_490\n        /* \"#utility.yul\":979:983   */\n      dup3\n        /* \"#utility.yul\":957:984   */\n      tag_421\n      jump\t// in\n    tag_490:\n        /* \"#utility.yul\":949:955   */\n      dup2\n        /* \"#utility.yul\":945:985   */\n      add\n        /* \"#utility.yul\":1087:1093   */\n      dup2\n        /* \"#utility.yul\":1075:1085   */\n      dup2\n        /* \"#utility.yul\":1072:1094   */\n      lt\n        /* \"#utility.yul\":1051:1069   */\n      0xffffffffffffffff\n        /* \"#utility.yul\":1039:1049   */\n      dup3\n        /* \"#utility.yul\":1036:1070   */\n      gt\n        /* \"#utility.yul\":1033:1095   */\n      or\n        /* \"#utility.yul\":1030:1118   */\n      iszero\n      tag_491\n      jumpi\n        /* \"#utility.yul\":1098:1116   */\n      tag_492\n      tag_358\n      jump\t// in\n    tag_492:\n        /* \"#utility.yul\":1030:1118   */\n    tag_491:\n        /* \"#utility.yul\":1138:1148   */\n      dup1\n        /* \"#utility.yul\":1134:1136   */\n      0x40\n        /* \"#utility.yul\":1127:1149   */\n      mstore\n        /* \"#utility.yul\":917:1155   */\n      pop\n        /* \"#utility.yul\":874:1155   */\n      pop\n      pop\n      jump\t// out\n        /* \"#utility.yul\":1161:1290   */\n    tag_423:\n        /* \"#utility.yul\":1195:1201   */\n      0x00\n        /* \"#utility.yul\":1222:1242   */\n      tag_494\n      tag_416\n      jump\t// in\n    tag_494:\n        /* \"#utility.yul\":1212:1242   */\n      swap1\n      pop\n        /* \"#utility.yul\":1251:1284   */\n      tag_495\n        /* \"#utility.yul\":1279:1283   */\n      dup3\n        /* \"#utility.yul\":1271:1277   */\n      dup3\n        /* \"#utility.yul\":1251:1284   */\n      tag_422\n      jump\t// in\n    tag_495:\n        /* \"#utility.yul\":1161:1290   */\n      swap2\n      swap1\n      pop\n      jump\t// out\n        /* \"#utility.yul\":1296:1604   */\n    tag_424:\n        /* \"#utility.yul\":1358:1362   */\n      0x00\n        /* \"#utility.yul\":1448:1466   */\n      0xffffffffffffffff\n        /* \"#utility.yul\":1440:1446   */\n      dup3\n        /* \"#utility.yul\":1437:1467   */\n      gt\n        /* \"#utility.yul\":1434:1490   */\n      iszero\n      tag_497\n      jumpi\n        /* \"#utility.yul\":1470:1488   */\n      tag_498\n      tag_358\n      jump\t// in\n    tag_498:\n        /* \"#utility.yul\":1434:1490   */\n    tag_497:\n        /* \"#utility.yul\":1508:1537   */\n      tag_499\n        /* \"#utility.yul\":1530:1536   */\n      dup3\n        /* \"#utility.yul\":1508:1537   */\n      tag_421\n      jump\t// in\n    tag_499:\n        /* \"#utility.yul\":1500:1537   */\n      swap1\n      pop\n        /* \"#utility.yul\":1592:1596   */\n      0x20\n        /* \"#utility.yul\":1586:1590   */\n      dup2\n        /* \"#utility.yul\":1582:1597   */\n      add\n        /* \"#utility.yul\":1574:1597   */\n      swap1\n      pop\n        /* \"#utility.yul\":1296:1604   */\n      swap2\n      swap1\n      pop\n      jump\t// out\n        /* \"#utility.yul\":1610:1758   */\n    tag_425:\n        /* \"#utility.yul\":1708:1714   */\n      dup3\n        /* \"#utility.yul\":1703:1706   */\n      dup2\n        /* \"#utility.yul\":1698:1701   */\n      dup4\n        /* \"#utility.yul\":1685:1715   */\n      calldatacopy\n        /* \"#utility.yul\":1749:1750   */\n      0x00\n        /* \"#utility.yul\":1740:1746   */\n      dup4\n        /* \"#utility.yul\":1735:1738   */\n      dup4\n        /* \"#utility.yul\":1731:1747   */\n      add\n        /* \"#utility.yul\":1724:1751   */\n      mstore\n        /* \"#utility.yul\":1610:1758   */\n      pop\n      pop\n      pop\n      jump\t// out\n        /* \"#utility.yul\":1764:2189   */\n    tag_426:\n        /* \"#utility.yul\":1842:1847   */\n      0x00\n        /* \"#utility.yul\":1867:1933   */\n      tag_502\n        /* \"#utility.yul\":1883:1932   */\n      tag_503\n        /* \"#utility.yul\":1925:1931   */\n      dup5\n        /* \"#utility.yul\":1883:1932   */\n      tag_424\n      jump\t// in\n    tag_503:\n        /* \"#utility.yul\":1867:1933   */\n      tag_423\n      jump\t// in\n    tag_502:\n        /* \"#utility.yul\":1858:1933   */\n      swap1\n      pop\n        /* \"#utility.yul\":1956:1962   */\n      dup3\n        /* \"#utility.yul\":1949:1954   */\n      dup2\n        /* \"#utility.yul\":1942:1963   */\n      mstore\n        /* \"#utility.yul\":1994:1998   */\n      0x20\n        /* \"#utility.yul\":1987:1992   */\n      dup2\n        /* \"#utility.yul\":1983:1999   */\n      add\n        /* \"#utility.yul\":2032:2035   */\n      dup5\n        /* \"#utility.yul\":2023:2029   */\n      dup5\n        /* \"#utility.yul\":2018:2021   */\n      dup5\n        /* \"#utility.yul\":2014:2030   */\n      add\n        /* \"#utility.yul\":2011:2036   */\n      gt\n        /* \"#utility.yul\":2008:2120   */\n      iszero\n      tag_504\n      jumpi\n        /* \"#utility.yul\":2039:2118   */\n      tag_505\n      tag_420\n      jump\t// in\n    tag_505:\n        /* \"#utility.yul\":2008:2120   */\n    tag_504:\n        /* \"#utility.yul\":2129:2183   */\n      tag_506\n        /* \"#utility.yul\":2176:2182   */\n      dup5\n        /* \"#utility.yul\":2171:2174   */\n      dup3\n        /* \"#utility.yul\":2166:2169   */\n      dup6\n        /* \"#utility.yul\":2129:2183   */\n      tag_425\n      jump\t// in\n    tag_506:\n        /* \"#utility.yul\":1848:2189   */\n      pop\n        /* \"#utility.yul\":1764:2189   */\n      swap4\n      swap3\n      pop\n      pop\n      pop\n      jump\t// out\n        /* \"#utility.yul\":2209:2549   */\n    tag_427:\n        /* \"#utility.yul\":2265:2270   */\n      0x00\n        /* \"#utility.yul\":2314:2317   */\n      dup3\n        /* \"#utility.yul\":2307:2311   */\n      0x1f\n        /* \"#utility.yul\":2299:2305   */\n      dup4\n        /* \"#utility.yul\":2295:2312   */\n      add\n        /* \"#utility.yul\":2291:2318   */\n      slt\n        /* \"#utility.yul\":2281:2403   */\n      tag_508\n      jumpi\n        /* \"#utility.yul\":2322:2401   */\n      tag_509\n      tag_419\n      jump\t// in\n    tag_509:\n        /* \"#utility.yul\":2281:2403   */\n    tag_508:\n        /* \"#utility.yul\":2439:2445   */\n      dup2\n        /* \"#utility.yul\":2426:2446   */\n      calldataload\n        /* \"#utility.yul\":2464:2543   */\n      tag_510\n        /* \"#utility.yul\":2539:2542   */\n      dup5\n        /* \"#utility.yul\":2531:2537   */\n      dup3\n        /* \"#utility.yul\":2524:2528   */\n      0x20\n        /* \"#utility.yul\":2516:2522   */\n      dup7\n        /* \"#utility.yul\":2512:2529   */\n      add\n        /* \"#utility.yul\":2464:2543   */\n      tag_426\n      jump\t// in\n    tag_510:\n        /* \"#utility.yul\":2455:2543   */\n      swap2\n      pop\n        /* \"#utility.yul\":2271:2549   */\n      pop\n        /* \"#utility.yul\":2209:2549   */\n      swap3\n      swap2\n      pop\n      pop\n      jump\t// out\n        /* \"#utility.yul\":2555:3064   */\n    tag_30:\n        /* \"#utility.yul\":2624:2630   */\n      0x00\n        /* \"#utility.yul\":2673:2675   */\n      0x20\n        /* \"#utility.yul\":2661:2670   */\n      dup3\n        /* \"#utility.yul\":2652:2659   */\n      dup5\n        /* \"#utility.yul\":2648:2671   */\n      sub\n        /* \"#utility.yul\":2644:2676   */\n      slt\n        /* \"#utility.yul\":2641:2760   */\n      iszero\n      tag_512\n      jumpi\n        /* \"#utility.yul\":2679:2758   */\n      tag_513\n      tag_417\n      jump\t// in\n    tag_513:\n        /* \"#utility.yul\":2641:2760   */\n    tag_512:\n        /* \"#utility.yul\":2827:2828   */\n      0x00\n        /* \"#utility.yul\":2816:2825   */\n      dup3\n        /* \"#utility.yul\":2812:2829   */\n      add\n        /* \"#utility.yul\":2799:2830   */\n      calldataload\n        /* \"#utility.yul\":2857:2875   */\n      0xffffffffffffffff\n        /* \"#utility.yul\":2849:2855   */\n      dup2\n        /* \"#utility.yul\":2846:2876   */\n      gt\n        /* \"#utility.yul\":2843:2960   */\n      iszero\n      tag_514\n      jumpi\n        /* \"#utility.yul\":2879:2958   */\n      tag_515\n      tag_418\n      jump\t// in\n    tag_515:\n        /* \"#utility.yul\":2843:2960   */\n    tag_514:\n        /* \"#utility.yul\":2984:3047   */\n      tag_516\n        /* \"#utility.yul\":3039:3046   */\n      dup5\n        /* \"#utility.yul\":3030:3036   */\n      dup3\n        /* \"#utility.yul\":3019:3028   */\n      dup6\n        /* \"#utility.yul\":3015:3037   */\n      add\n        /* \"#utility.yul\":2984:3047   */\n      tag_427\n      jump\t// in\n    tag_516:\n        /* \"#utility.yul\":2974:3047   */\n      swap2\n      pop\n        /* \"#utility.yul\":2770:3057   */\n      pop\n        /* \"#utility.yul\":2555:3064   */\n      swap3\n      swap2\n      pop\n      pop\n      jump\t// out\n        /* \"#utility.yul\":3070:3196   */\n    tag_428:\n        /* \"#utility.yul\":3107:3114   */\n      0x00\n        /* \"#utility.yul\":3147:3189   */\n      0xffffffffffffffffffffffffffffffffffffffff\n        /* \"#utility.yul\":3140:3145   */\n      dup3\n        /* \"#utility.yul\":3136:3190   */\n      and\n        /* \"#utility.yul\":3125:3190   */\n      swap1\n      pop\n        /* \"#utility.yul\":3070:3196   */\n      swap2\n      swap1\n      pop\n      jump\t// out\n        /* \"#utility.yul\":3202:3298   */\n    tag_429:\n        /* \"#utility.yul\":3239:3246   */\n      0x00\n        /* \"#utility.yul\":3268:3292   */\n      tag_519\n        /* \"#utility.yul\":3286:3291   */\n      dup3\n        /* \"#utility.yul\":3268:3292   */\n      tag_428\n      jump\t// in\n    tag_519:\n        /* \"#utility.yul\":3257:3292   */\n      swap1\n      pop\n        /* \"#utility.yul\":3202:3298   */\n      swap2\n      swap1\n      pop\n      jump\t// out\n        /* \"#utility.yul\":3304:3426   */\n    tag_430:\n        /* \"#utility.yul\":3377:3401   */\n      tag_521\n        /* \"#utility.yul\":3395:3400   */\n      dup2\n        /* \"#utility.yul\":3377:3401   */\n      tag_429\n      jump\t// in\n    tag_521:\n        /* \"#utility.yul\":3370:3375   */\n      dup2\n        /* \"#utility.yul\":3367:3402   */\n      eq\n        /* \"#utility.yul\":3357:3420   */\n      tag_522\n      jumpi\n        /* \"#utility.yul\":3416:3417   */\n      0x00\n        /* \"#utility.yul\":3413:3414   */\n      dup1\n        /* \"#utility.yul\":3406:3418   */\n      revert\n        /* \"#utility.yul\":3357:3420   */\n    tag_522:\n        /* \"#utility.yul\":3304:3426   */\n      pop\n      jump\t// out\n        /* \"#utility.yul\":3432:3571   */\n    tag_431:\n        /* \"#utility.yul\":3478:3483   */\n      0x00\n        /* \"#utility.yul\":3516:3522   */\n      dup2\n        /* \"#utility.yul\":3503:3523   */\n      calldataload\n        /* \"#utility.yul\":3494:3523   */\n      swap1\n      pop\n        /* \"#utility.yul\":3532:3565   */\n      tag_524\n        /* \"#utility.yul\":3559:3564   */\n      dup2\n        /* \"#utility.yul\":3532:3565   */\n      tag_430\n      jump\t// in\n    tag_524:\n        /* \"#utility.yul\":3432:3571   */\n      swap3\n      swap2\n      pop\n      pop\n      jump\t// out\n        /* \"#utility.yul\":3577:3906   */\n    tag_34:\n        /* \"#utility.yul\":3636:3642   */\n      0x00\n        /* \"#utility.yul\":3685:3687   */\n      0x20\n        /* \"#utility.yul\":3673:3682   */\n      dup3\n        /* \"#utility.yul\":3664:3671   */\n      dup5\n        /* \"#utility.yul\":3660:3683   */\n      sub\n        /* \"#utility.yul\":3656:3688   */\n      slt\n        /* \"#utility.yul\":3653:3772   */\n      iszero\n      tag_526\n      jumpi\n        /* \"#utility.yul\":3691:3770   */\n      tag_527\n      tag_417\n      jump\t// in\n    tag_527:\n        /* \"#utility.yul\":3653:3772   */\n    tag_526:\n        /* \"#utility.yul\":3811:3812   */\n      0x00\n        /* \"#utility.yul\":3836:3889   */\n      tag_528\n        /* \"#utility.yul\":3881:3888   */\n      dup5\n        /* \"#utility.yul\":3872:3878   */\n      dup3\n        /* \"#utility.yul\":3861:3870   */\n      dup6\n        /* \"#utility.yul\":3857:3879   */\n      add\n        /* \"#utility.yul\":3836:3889   */\n      tag_431\n      jump\t// in\n    tag_528:\n        /* \"#utility.yul\":3826:3889   */\n      swap2\n      pop\n        /* \"#utility.yul\":3782:3899   */\n      pop\n        /* \"#utility.yul\":3577:3906   */\n      swap3\n      swap2\n      pop\n      pop\n      jump\t// out\n        /* \"#utility.yul\":3912:4011   */\n    tag_432:\n        /* \"#utility.yul\":3964:3970   */\n      0x00\n        /* \"#utility.yul\":3998:4003   */\n      dup2\n        /* \"#utility.yul\":3992:4004   */\n      mload\n        /* \"#utility.yul\":3982:4004   */\n      swap1\n      pop\n        /* \"#utility.yul\":3912:4011   */\n      swap2\n      swap1\n      pop\n      jump\t// out\n        /* \"#utility.yul\":4017:4186   */\n    tag_433:\n        /* \"#utility.yul\":4101:4112   */\n      0x00\n        /* \"#utility.yul\":4135:4141   */\n      dup3\n        /* \"#utility.yul\":4130:4133   */\n      dup3\n        /* \"#utility.yul\":4123:4142   */\n      mstore\n        /* \"#utility.yul\":4175:4179   */\n      0x20\n        /* \"#utility.yul\":4170:4173   */\n      dup3\n        /* \"#utility.yul\":4166:4180   */\n      add\n        /* \"#utility.yul\":4151:4180   */\n      swap1\n      pop\n        /* \"#utility.yul\":4017:4186   */\n      swap3\n      swap2\n      pop\n      pop\n      jump\t// out\n        /* \"#utility.yul\":4192:4331   */\n    tag_434:\n        /* \"#utility.yul\":4281:4287   */\n      dup3\n        /* \"#utility.yul\":4276:4279   */\n      dup2\n        /* \"#utility.yul\":4271:4274   */\n      dup4\n        /* \"#utility.yul\":4265:4288   */\n      mcopy\n        /* \"#utility.yul\":4322:4323   */\n      0x00\n        /* \"#utility.yul\":4313:4319   */\n      dup4\n        /* \"#utility.yul\":4308:4311   */\n      dup4\n        /* \"#utility.yul\":4304:4320   */\n      add\n        /* \"#utility.yul\":4297:4324   */\n      mstore\n        /* \"#utility.yul\":4192:4331   */\n      pop\n      pop\n      pop\n      jump\t// out\n        /* \"#utility.yul\":4337:4714   */\n    tag_435:\n        /* \"#utility.yul\":4425:4428   */\n      0x00\n        /* \"#utility.yul\":4453:4492   */\n      tag_533\n        /* \"#utility.yul\":4486:4491   */\n      dup3\n        /* \"#utility.yul\":4453:4492   */\n      tag_432\n      jump\t// in\n    tag_533:\n        /* \"#utility.yul\":4508:4579   */\n      tag_534\n        /* \"#utility.yul\":4572:4578   */\n      dup2\n        /* \"#utility.yul\":4567:4570   */\n      dup6\n        /* \"#utility.yul\":4508:4579   */\n      tag_433\n      jump\t// in\n    tag_534:\n        /* \"#utility.yul\":4501:4579   */\n      swap4\n      pop\n        /* \"#utility.yul\":4588:4653   */\n      tag_535\n        /* \"#utility.yul\":4646:4652   */\n      dup2\n        /* \"#utility.yul\":4641:4644   */\n      dup6\n        /* \"#utility.yul\":4634:4638   */\n      0x20\n        /* \"#utility.yul\":4627:4632   */\n      dup7\n        /* \"#utility.yul\":4623:4639   */\n      add\n        /* \"#utility.yul\":4588:4653   */\n      tag_434\n      jump\t// in\n    tag_535:\n        /* \"#utility.yul\":4678:4707   */\n      tag_536\n        /* \"#utility.yul\":4700:4706   */\n      dup2\n        /* \"#utility.yul\":4678:4707   */\n      tag_421\n      jump\t// in\n    tag_536:\n        /* \"#utility.yul\":4673:4676   */\n      dup5\n        /* \"#utility.yul\":4669:4708   */\n      add\n        /* \"#utility.yul\":4662:4708   */\n      swap2\n      pop\n        /* \"#utility.yul\":4429:4714   */\n      pop\n        /* \"#utility.yul\":4337:4714   */\n      swap3\n      swap2\n      pop\n      pop\n      jump\t// out\n        /* \"#utility.yul\":4720:5033   */\n    tag_39:\n        /* \"#utility.yul\":4833:4837   */\n      0x00\n        /* \"#utility.yul\":4871:4873   */\n      0x20\n        /* \"#utility.yul\":4860:4869   */\n      dup3\n        /* \"#utility.yul\":4856:4874   */\n      add\n        /* \"#utility.yul\":4848:4874   */\n      swap1\n      pop\n        /* \"#utility.yul\":4920:4929   */\n      dup2\n        /* \"#utility.yul\":4914:4918   */\n      dup2\n        /* \"#utility.yul\":4910:4930   */\n      sub\n        /* \"#utility.yul\":4906:4907   */\n      0x00\n        /* \"#utility.yul\":4895:4904   */\n      dup4\n        /* \"#utility.yul\":4891:4908   */\n      add\n        /* \"#utility.yul\":4884:4931   */\n      mstore\n        /* \"#utility.yul\":4948:5026   */\n      tag_538\n        /* \"#utility.yul\":5021:5025   */\n      dup2\n        /* \"#utility.yul\":5012:5018   */\n      dup5\n        /* \"#utility.yul\":4948:5026   */\n      tag_435\n      jump\t// in\n    tag_538:\n        /* \"#utility.yul\":4940:5026   */\n      swap1\n      pop\n        /* \"#utility.yul\":4720:5033   */\n      swap3\n      swap2\n      pop\n      pop\n      jump\t// out\n        /* \"#utility.yul\":5039:5116   */\n    tag_436:\n        /* \"#utility.yul\":5076:5083   */\n      0x00\n        /* \"#utility.yul\":5105:5110   */\n      dup2\n        /* \"#utility.yul\":5094:5110   */\n      swap1\n      pop\n        /* \"#utility.yul\":5039:5116   */\n      swap2\n      swap1\n      pop\n      jump\t// out\n        /* \"#utility.yul\":5122:5244   */\n    tag_437:\n        /* \"#utility.yul\":5195:5219   */\n      tag_541\n        /* \"#utility.yul\":5213:5218   */\n      dup2\n        /* \"#utility.yul\":5195:5219   */\n      tag_436\n      jump\t// in\n    tag_541:\n        /* \"#utility.yul\":5188:5193   */\n      dup2\n        /* \"#utility.yul\":5185:5220   */\n      eq\n        /* \"#utility.yul\":5175:5238   */\n      tag_542\n      jumpi\n        /* \"#utility.yul\":5234:5235   */\n      0x00\n        /* \"#utility.yul\":5231:5232   */\n      dup1\n        /* \"#utility.yul\":5224:5236   */\n      revert\n        /* \"#utility.yul\":5175:5238   */\n    tag_542:\n        /* \"#utility.yul\":5122:5244   */\n      pop\n      jump\t// out\n        /* \"#utility.yul\":5250:5389   */\n    tag_438:\n        /* \"#utility.yul\":5296:5301   */\n      0x00\n        /* \"#utility.yul\":5334:5340   */\n      dup2\n        /* \"#utility.yul\":5321:5341   */\n      calldataload\n        /* \"#utility.yul\":5312:5341   */\n      swap1\n      pop\n        /* \"#utility.yul\":5350:5383   */\n      tag_544\n        /* \"#utility.yul\":5377:5382   */\n      dup2\n        /* \"#utility.yul\":5350:5383   */\n      tag_437\n      jump\t// in\n    tag_544:\n        /* \"#utility.yul\":5250:5389   */\n      swap3\n      swap2\n      pop\n      pop\n      jump\t// out\n        /* \"#utility.yul\":5395:5724   */\n    tag_48:\n        /* \"#utility.yul\":5454:5460   */\n      0x00\n        /* \"#utility.yul\":5503:5505   */\n      0x20\n        /* \"#utility.yul\":5491:5500   */\n      dup3\n        /* \"#utility.yul\":5482:5489   */\n      dup5\n        /* \"#utility.yul\":5478:5501   */\n      sub\n        /* \"#utility.yul\":5474:5506   */\n      slt\n        /* \"#utility.yul\":5471:5590   */\n      iszero\n      tag_546\n      jumpi\n        /* \"#utility.yul\":5509:5588   */\n      tag_547\n      tag_417\n      jump\t// in\n    tag_547:\n        /* \"#utility.yul\":5471:5590   */\n    tag_546:\n        /* \"#utility.yul\":5629:5630   */\n      0x00\n        /* \"#utility.yul\":5654:5707   */\n      tag_548\n        /* \"#utility.yul\":5699:5706   */\n      dup5\n        /* \"#utility.yul\":5690:5696   */\n      dup3\n        /* \"#utility.yul\":5679:5688   */\n      dup6\n        /* \"#utility.yul\":5675:5697   */\n      add\n        /* \"#utility.yul\":5654:5707   */\n      tag_438\n      jump\t// in\n    tag_548:\n        /* \"#utility.yul\":5644:5707   */\n      swap2\n      pop\n        /* \"#utility.yul\":5600:5717   */\n      pop\n        /* \"#utility.yul\":5395:5724   */\n      swap3\n      swap2\n      pop\n      pop\n      jump\t// out\n        /* \"#utility.yul\":5730:7541   */\n    tag_58:\n        /* \"#utility.yul\":5875:5881   */\n      0x00\n        /* \"#utility.yul\":5883:5889   */\n      dup1\n        /* \"#utility.yul\":5891:5897   */\n      0x00\n        /* \"#utility.yul\":5899:5905   */\n      dup1\n        /* \"#utility.yul\":5907:5913   */\n      0x00\n        /* \"#utility.yul\":5956:5959   */\n      0xa0\n        /* \"#utility.yul\":5944:5953   */\n      dup7\n        /* \"#utility.yul\":5935:5942   */\n      dup9\n        /* \"#utility.yul\":5931:5954   */\n      sub\n        /* \"#utility.yul\":5927:5960   */\n      slt\n        /* \"#utility.yul\":5924:6044   */\n      iszero\n      tag_550\n      jumpi\n        /* \"#utility.yul\":5963:6042   */\n      tag_551\n      tag_417\n      jump\t// in\n    tag_551:\n        /* \"#utility.yul\":5924:6044   */\n    tag_550:\n        /* \"#utility.yul\":6111:6112   */\n      0x00\n        /* \"#utility.yul\":6100:6109   */\n      dup7\n        /* \"#utility.yul\":6096:6113   */\n      add\n        /* \"#utility.yul\":6083:6114   */\n      calldataload\n        /* \"#utility.yul\":6141:6159   */\n      0xffffffffffffffff\n        /* \"#utility.yul\":6133:6139   */\n      dup2\n        /* \"#utility.yul\":6130:6160   */\n      gt\n        /* \"#utility.yul\":6127:6244   */\n      iszero\n      tag_552\n      jumpi\n        /* \"#utility.yul\":6163:6242   */\n      tag_553\n      tag_418\n      jump\t// in\n    tag_553:\n        /* \"#utility.yul\":6127:6244   */\n    tag_552:\n        /* \"#utility.yul\":6268:6331   */\n      tag_554\n        /* \"#utility.yul\":6323:6330   */\n      dup9\n        /* \"#utility.yul\":6314:6320   */\n      dup3\n        /* \"#utility.yul\":6303:6312   */\n      dup10\n        /* \"#utility.yul\":6299:6321   */\n      add\n        /* \"#utility.yul\":6268:6331   */\n      tag_427\n      jump\t// in\n    tag_554:\n        /* \"#utility.yul\":6258:6331   */\n      swap6\n      pop\n        /* \"#utility.yul\":6054:6341   */\n      pop\n        /* \"#utility.yul\":6408:6410   */\n      0x20\n        /* \"#utility.yul\":6397:6406   */\n      dup7\n        /* \"#utility.yul\":6393:6411   */\n      add\n        /* \"#utility.yul\":6380:6412   */\n      calldataload\n        /* \"#utility.yul\":6439:6457   */\n      0xffffffffffffffff\n        /* \"#utility.yul\":6431:6437   */\n      dup2\n        /* \"#utility.yul\":6428:6458   */\n      gt\n        /* \"#utility.yul\":6425:6542   */\n      iszero\n      tag_555\n      jumpi\n        /* \"#utility.yul\":6461:6540   */\n      tag_556\n      tag_418\n      jump\t// in\n    tag_556:\n        /* \"#utility.yul\":6425:6542   */\n    tag_555:\n        /* \"#utility.yul\":6566:6629   */\n      tag_557\n        /* \"#utility.yul\":6621:6628   */\n      dup9\n        /* \"#utility.yul\":6612:6618   */\n      dup3\n        /* \"#utility.yul\":6601:6610   */\n      dup10\n        /* \"#utility.yul\":6597:6619   */\n      add\n        /* \"#utility.yul\":6566:6629   */\n      tag_427\n      jump\t// in\n    tag_557:\n        /* \"#utility.yul\":6556:6629   */\n      swap5\n      pop\n        /* \"#utility.yul\":6351:6639   */\n      pop\n        /* \"#utility.yul\":6706:6708   */\n      0x40\n        /* \"#utility.yul\":6695:6704   */\n      dup7\n        /* \"#utility.yul\":6691:6709   */\n      add\n        /* \"#utility.yul\":6678:6710   */\n      calldataload\n        /* \"#utility.yul\":6737:6755   */\n      0xffffffffffffffff\n        /* \"#utility.yul\":6729:6735   */\n      dup2\n        /* \"#utility.yul\":6726:6756   */\n      gt\n        /* \"#utility.yul\":6723:6840   */\n      iszero\n      tag_558\n      jumpi\n        /* \"#utility.yul\":6759:6838   */\n      tag_559\n      tag_418\n      jump\t// in\n    tag_559:\n        /* \"#utility.yul\":6723:6840   */\n    tag_558:\n        /* \"#utility.yul\":6864:6927   */\n      tag_560\n        /* \"#utility.yul\":6919:6926   */\n      dup9\n        /* \"#utility.yul\":6910:6916   */\n      dup3\n        /* \"#utility.yul\":6899:6908   */\n      dup10\n        /* \"#utility.yul\":6895:6917   */\n      add\n        /* \"#utility.yul\":6864:6927   */\n      tag_427\n      jump\t// in\n    tag_560:\n        /* \"#utility.yul\":6854:6927   */\n      swap4\n      pop\n        /* \"#utility.yul\":6649:6937   */\n      pop\n        /* \"#utility.yul\":7004:7006   */\n      0x60\n        /* \"#utility.yul\":6993:7002   */\n      dup7\n        /* \"#utility.yul\":6989:7007   */\n      add\n        /* \"#utility.yul\":6976:7008   */\n      calldataload\n        /* \"#utility.yul\":7035:7053   */\n      0xffffffffffffffff\n        /* \"#utility.yul\":7027:7033   */\n      dup2\n        /* \"#utility.yul\":7024:7054   */\n      gt\n        /* \"#utility.yul\":7021:7138   */\n      iszero\n      tag_561\n      jumpi\n        /* \"#utility.yul\":7057:7136   */\n      tag_562\n      tag_418\n      jump\t// in\n    tag_562:\n        /* \"#utility.yul\":7021:7138   */\n    tag_561:\n        /* \"#utility.yul\":7162:7225   */\n      tag_563\n        /* \"#utility.yul\":7217:7224   */\n      dup9\n        /* \"#utility.yul\":7208:7214   */\n      dup3\n        /* \"#utility.yul\":7197:7206   */\n      dup10\n        /* \"#utility.yul\":7193:7215   */\n      add\n        /* \"#utility.yul\":7162:7225   */\n      tag_427\n      jump\t// in\n    tag_563:\n        /* \"#utility.yul\":7152:7225   */\n      swap3\n      pop\n        /* \"#utility.yul\":6947:7235   */\n      pop\n        /* \"#utility.yul\":7302:7305   */\n      0x80\n        /* \"#utility.yul\":7291:7300   */\n      dup7\n        /* \"#utility.yul\":7287:7306   */\n      add\n        /* \"#utility.yul\":7274:7307   */\n      calldataload\n        /* \"#utility.yul\":7334:7352   */\n      0xffffffffffffffff\n        /* \"#utility.yul\":7326:7332   */\n      dup2\n        /* \"#utility.yul\":7323:7353   */\n      gt\n        /* \"#utility.yul\":7320:7437   */\n      iszero\n      tag_564\n      jumpi\n        /* \"#utility.yul\":7356:7435   */\n      tag_565\n      tag_418\n      jump\t// in\n    tag_565:\n        /* \"#utility.yul\":7320:7437   */\n    tag_564:\n        /* \"#utility.yul\":7461:7524   */\n      tag_566\n        /* \"#utility.yul\":7516:7523   */\n      dup9\n        /* \"#utility.yul\":7507:7513   */\n      dup3\n        /* \"#utility.yul\":7496:7505   */\n      dup10\n        /* \"#utility.yul\":7492:7514   */\n      add\n        /* \"#utility.yul\":7461:7524   */\n      tag_427\n      jump\t// in\n    tag_566:\n        /* \"#utility.yul\":7451:7524   */\n      swap2\n      pop\n        /* \"#utility.yul\":7245:7534   */\n      pop\n        /* \"#utility.yul\":5730:7541   */\n      swap3\n      swap6\n      pop\n      swap3\n      swap6\n      swap1\n      swap4\n      pop\n      jump\t// out\n        /* \"#utility.yul\":7547:9504   */\n    tag_65:\n        /* \"#utility.yul\":7701:7707   */\n      0x00\n        /* \"#utility.yul\":7709:7715   */\n      dup1\n        /* \"#utility.yul\":7717:7723   */\n      0x00\n        /* \"#utility.yul\":7725:7731   */\n      dup1\n        /* \"#utility.yul\":7733:7739   */\n      0x00\n        /* \"#utility.yul\":7741:7747   */\n      dup1\n        /* \"#utility.yul\":7790:7793   */\n      0xc0\n        /* \"#utility.yul\":7778:7787   */\n      dup8\n        /* \"#utility.yul\":7769:7776   */\n      dup10\n        /* \"#utility.yul\":7765:7788   */\n      sub\n        /* \"#utility.yul\":7761:7794   */\n      slt\n        /* \"#utility.yul\":7758:7878   */\n      iszero\n      tag_568\n      jumpi\n        /* \"#utility.yul\":7797:7876   */\n      tag_569\n      tag_417\n      jump\t// in\n    tag_569:\n        /* \"#utility.yul\":7758:7878   */\n    tag_568:\n        /* \"#utility.yul\":7917:7918   */\n      0x00\n        /* \"#utility.yul\":7942:7995   */\n      tag_570\n        /* \"#utility.yul\":7987:7994   */\n      dup10\n        /* \"#utility.yul\":7978:7984   */\n      dup3\n        /* \"#utility.yul\":7967:7976   */\n      dup11\n        /* \"#utility.yul\":7963:7985   */\n      add\n        /* \"#utility.yul\":7942:7995   */\n      tag_438\n      jump\t// in\n    tag_570:\n        /* \"#utility.yul\":7932:7995   */\n      swap7\n      pop\n        /* \"#utility.yul\":7888:8005   */\n      pop\n        /* \"#utility.yul\":8072:8074   */\n      0x20\n        /* \"#utility.yul\":8061:8070   */\n      dup8\n        /* \"#utility.yul\":8057:8075   */\n      add\n        /* \"#utility.yul\":8044:8076   */\n      calldataload\n        /* \"#utility.yul\":8103:8121   */\n      0xffffffffffffffff\n        /* \"#utility.yul\":8095:8101   */\n      dup2\n        /* \"#utility.yul\":8092:8122   */\n      gt\n        /* \"#utility.yul\":8089:8206   */\n      iszero\n      tag_571\n      jumpi\n        /* \"#utility.yul\":8125:8204   */\n      tag_572\n      tag_418\n      jump\t// in\n    tag_572:\n        /* \"#utility.yul\":8089:8206   */\n    tag_571:\n        /* \"#utility.yul\":8230:8293   */\n      tag_573\n        /* \"#utility.yul\":8285:8292   */\n      dup10\n        /* \"#utility.yul\":8276:8282   */\n      dup3\n        /* \"#utility.yul\":8265:8274   */\n      dup11\n        /* \"#utility.yul\":8261:8283   */\n      add\n        /* \"#utility.yul\":8230:8293   */\n      tag_427\n      jump\t// in\n    tag_573:\n        /* \"#utility.yul\":8220:8293   */\n      swap6\n      pop\n        /* \"#utility.yul\":8015:8303   */\n      pop\n        /* \"#utility.yul\":8370:8372   */\n      0x40\n        /* \"#utility.yul\":8359:8368   */\n      dup8\n        /* \"#utility.yul\":8355:8373   */\n      add\n        /* \"#utility.yul\":8342:8374   */\n      calldataload\n        /* \"#utility.yul\":8401:8419   */\n      0xffffffffffffffff\n        /* \"#utility.yul\":8393:8399   */\n      dup2\n        /* \"#utility.yul\":8390:8420   */\n      gt\n        /* \"#utility.yul\":8387:8504   */\n      iszero\n      tag_574\n      jumpi\n        /* \"#utility.yul\":8423:8502   */\n      tag_575\n      tag_418\n      jump\t// in\n    tag_575:\n        /* \"#utility.yul\":8387:8504   */\n    tag_574:\n        /* \"#utility.yul\":8528:8591   */\n      tag_576\n        /* \"#utility.yul\":8583:8590   */\n      dup10\n        /* \"#utility.yul\":8574:8580   */\n      dup3\n        /* \"#utility.yul\":8563:8572   */\n      dup11\n        /* \"#utility.yul\":8559:8581   */\n      add\n        /* \"#utility.yul\":8528:8591   */\n      tag_427\n      jump\t// in\n    tag_576:\n        /* \"#utility.yul\":8518:8591   */\n      swap5\n      pop\n        /* \"#utility.yul\":8313:8601   */\n      pop\n        /* \"#utility.yul\":8668:8670   */\n      0x60\n        /* \"#utility.yul\":8657:8666   */\n      dup8\n        /* \"#utility.yul\":8653:8671   */\n      add\n        /* \"#utility.yul\":8640:8672   */\n      calldataload\n        /* \"#utility.yul\":8699:8717   */\n      0xffffffffffffffff\n        /* \"#utility.yul\":8691:8697   */\n      dup2\n        /* \"#utility.yul\":8688:8718   */\n      gt\n        /* \"#utility.yul\":8685:8802   */\n      iszero\n      tag_577\n      jumpi\n        /* \"#utility.yul\":8721:8800   */\n      tag_578\n      tag_418\n      jump\t// in\n    tag_578:\n        /* \"#utility.yul\":8685:8802   */\n    tag_577:\n        /* \"#utility.yul\":8826:8889   */\n      tag_579\n        /* \"#utility.yul\":8881:8888   */\n      dup10\n        /* \"#utility.yul\":8872:8878   */\n      dup3\n        /* \"#utility.yul\":8861:8870   */\n      dup11\n        /* \"#utility.yul\":8857:8879   */\n      add\n        /* \"#utility.yul\":8826:8889   */\n      tag_427\n      jump\t// in\n    tag_579:\n        /* \"#utility.yul\":8816:8889   */\n      swap4\n      pop\n        /* \"#utility.yul\":8611:8899   */\n      pop\n        /* \"#utility.yul\":8966:8969   */\n      0x80\n        /* \"#utility.yul\":8955:8964   */\n      dup8\n        /* \"#utility.yul\":8951:8970   */\n      add\n        /* \"#utility.yul\":8938:8971   */\n      calldataload\n        /* \"#utility.yul\":8998:9016   */\n      0xffffffffffffffff\n        /* \"#utility.yul\":8990:8996   */\n      dup2\n        /* \"#utility.yul\":8987:9017   */\n      gt\n        /* \"#utility.yul\":8984:9101   */\n      iszero\n      tag_580\n      jumpi\n        /* \"#utility.yul\":9020:9099   */\n      tag_581\n      tag_418\n      jump\t// in\n    tag_581:\n        /* \"#utility.yul\":8984:9101   */\n    tag_580:\n        /* \"#utility.yul\":9125:9188   */\n      tag_582\n        /* \"#utility.yul\":9180:9187   */\n      dup10\n        /* \"#utility.yul\":9171:9177   */\n      dup3\n        /* \"#utility.yul\":9160:9169   */\n      dup11\n        /* \"#utility.yul\":9156:9178   */\n      add\n        /* \"#utility.yul\":9125:9188   */\n      tag_427\n      jump\t// in\n    tag_582:\n        /* \"#utility.yul\":9115:9188   */\n      swap3\n      pop\n        /* \"#utility.yul\":8909:9198   */\n      pop\n        /* \"#utility.yul\":9265:9268   */\n      0xa0\n        /* \"#utility.yul\":9254:9263   */\n      dup8\n        /* \"#utility.yul\":9250:9269   */\n      add\n        /* \"#utility.yul\":9237:9270   */\n      calldataload\n        /* \"#utility.yul\":9297:9315   */\n      0xffffffffffffffff\n        /* \"#utility.yul\":9289:9295   */\n      dup2\n        /* \"#utility.yul\":9286:9316   */\n      gt\n        /* \"#utility.yul\":9283:9400   */\n      iszero\n      tag_583\n      jumpi\n        /* \"#utility.yul\":9319:9398   */\n      tag_584\n      tag_418\n      jump\t// in\n    tag_584:\n        /* \"#utility.yul\":9283:9400   */\n    tag_583:\n        /* \"#utility.yul\":9424:9487   */\n      tag_585\n        /* \"#utility.yul\":9479:9486   */\n      dup10\n        /* \"#utility.yul\":9470:9476   */\n      dup3\n        /* \"#utility.yul\":9459:9468   */\n      dup11\n        /* \"#utility.yul\":9455:9477   */\n      add\n        /* \"#utility.yul\":9424:9487   */\n      tag_427\n      jump\t// in\n    tag_585:\n        /* \"#utility.yul\":9414:9487   */\n      swap2\n      pop\n        /* \"#utility.yul\":9208:9497   */\n      pop\n        /* \"#utility.yul\":7547:9504   */\n      swap3\n      swap6\n      pop\n      swap3\n      swap6\n      pop\n      swap3\n      swap6\n      jump\t// out\n        /* \"#utility.yul\":9510:9600   */\n    tag_439:\n        /* \"#utility.yul\":9544:9551   */\n      0x00\n        /* \"#utility.yul\":9587:9592   */\n      dup2\n        /* \"#utility.yul\":9580:9593   */\n      iszero\n        /* \"#utility.yul\":9573:9594   */\n      iszero\n        /* \"#utility.yul\":9562:9594   */\n      swap1\n      pop\n        /* \"#utility.yul\":9510:9600   */\n      swap2\n      swap1\n      pop\n      jump\t// out\n        /* \"#utility.yul\":9606:9715   */\n    tag_440:\n        /* \"#utility.yul\":9687:9708   */\n      tag_588\n        /* \"#utility.yul\":9702:9707   */\n      dup2\n        /* \"#utility.yul\":9687:9708   */\n      tag_439\n      jump\t// in\n    tag_588:\n        /* \"#utility.yul\":9682:9685   */\n      dup3\n        /* \"#utility.yul\":9675:9709   */\n      mstore\n        /* \"#utility.yul\":9606:9715   */\n      pop\n      pop\n      jump\t// out\n        /* \"#utility.yul\":9721:9931   */\n    tag_74:\n        /* \"#utility.yul\":9808:9812   */\n      0x00\n        /* \"#utility.yul\":9846:9848   */\n      0x20\n        /* \"#utility.yul\":9835:9844   */\n      dup3\n        /* \"#utility.yul\":9831:9849   */\n      add\n        /* \"#utility.yul\":9823:9849   */\n      swap1\n      pop\n        /* \"#utility.yul\":9859:9924   */\n      tag_590\n        /* \"#utility.yul\":9921:9922   */\n      0x00\n        /* \"#utility.yul\":9910:9919   */\n      dup4\n        /* \"#utility.yul\":9906:9923   */\n      add\n        /* \"#utility.yul\":9897:9903   */\n      dup5\n        /* \"#utility.yul\":9859:9924   */\n      tag_440\n      jump\t// in\n    tag_590:\n        /* \"#utility.yul\":9721:9931   */\n      swap3\n      swap2\n      pop\n      pop\n      jump\t// out\n        /* \"#utility.yul\":9937:10055   */\n    tag_441:\n        /* \"#utility.yul\":10024:10048   */\n      tag_592\n        /* \"#utility.yul\":10042:10047   */\n      dup2\n        /* \"#utility.yul\":10024:10048   */\n      tag_429\n      jump\t// in\n    tag_592:\n        /* \"#utility.yul\":10019:10022   */\n      dup3\n        /* \"#utility.yul\":10012:10049   */\n      mstore\n        /* \"#utility.yul\":9937:10055   */\n      pop\n      pop\n      jump\t// out\n        /* \"#utility.yul\":10061:10283   */\n    tag_78:\n        /* \"#utility.yul\":10154:10158   */\n      0x00\n        /* \"#utility.yul\":10192:10194   */\n      0x20\n        /* \"#utility.yul\":10181:10190   */\n      dup3\n        /* \"#utility.yul\":10177:10195   */\n      add\n        /* \"#utility.yul\":10169:10195   */\n      swap1\n      pop\n        /* \"#utility.yul\":10205:10276   */\n      tag_594\n        /* \"#utility.yul\":10273:10274   */\n      0x00\n        /* \"#utility.yul\":10262:10271   */\n      dup4\n        /* \"#utility.yul\":10258:10275   */\n      add\n        /* \"#utility.yul\":10249:10255   */\n      dup5\n        /* \"#utility.yul\":10205:10276   */\n      tag_441\n      jump\t// in\n    tag_594:\n        /* \"#utility.yul\":10061:10283   */\n      swap3\n      swap2\n      pop\n      pop\n      jump\t// out\n        /* \"#utility.yul\":10289:10407   */\n    tag_442:\n        /* \"#utility.yul\":10376:10400   */\n      tag_596\n        /* \"#utility.yul\":10394:10399   */\n      dup2\n        /* \"#utility.yul\":10376:10400   */\n      tag_436\n      jump\t// in\n    tag_596:\n        /* \"#utility.yul\":10371:10374   */\n      dup3\n        /* \"#utility.yul\":10364:10401   */\n      mstore\n        /* \"#utility.yul\":10289:10407   */\n      pop\n      pop\n      jump\t// out\n        /* \"#utility.yul\":10413:10635   */\n    tag_82:\n        /* \"#utility.yul\":10506:10510   */\n      0x00\n        /* \"#utility.yul\":10544:10546   */\n      0x20\n        /* \"#utility.yul\":10533:10542   */\n      dup3\n        /* \"#utility.yul\":10529:10547   */\n      add\n        /* \"#utility.yul\":10521:10547   */\n      swap1\n      pop\n        /* \"#utility.yul\":10557:10628   */\n      tag_598\n        /* \"#utility.yul\":10625:10626   */\n      0x00\n        /* \"#utility.yul\":10614:10623   */\n      dup4\n        /* \"#utility.yul\":10610:10627   */\n      add\n        /* \"#utility.yul\":10601:10607   */\n      dup5\n        /* \"#utility.yul\":10557:10628   */\n      tag_442\n      jump\t// in\n    tag_598:\n        /* \"#utility.yul\":10413:10635   */\n      swap3\n      swap2\n      pop\n      pop\n      jump\t// out\n        /* \"#utility.yul\":10641:11760   */\n    tag_96:\n        /* \"#utility.yul\":10946:10950   */\n      0x00\n        /* \"#utility.yul\":10984:10987   */\n      0xa0\n        /* \"#utility.yul\":10973:10982   */\n      dup3\n        /* \"#utility.yul\":10969:10988   */\n      add\n        /* \"#utility.yul\":10961:10988   */\n      swap1\n      pop\n        /* \"#utility.yul\":11034:11043   */\n      dup2\n        /* \"#utility.yul\":11028:11032   */\n      dup2\n        /* \"#utility.yul\":11024:11044   */\n      sub\n        /* \"#utility.yul\":11020:11021   */\n      0x00\n        /* \"#utility.yul\":11009:11018   */\n      dup4\n        /* \"#utility.yul\":11005:11022   */\n      add\n        /* \"#utility.yul\":10998:11045   */\n      mstore\n        /* \"#utility.yul\":11062:11140   */\n      tag_600\n        /* \"#utility.yul\":11135:11139   */\n      dup2\n        /* \"#utility.yul\":11126:11132   */\n      dup9\n        /* \"#utility.yul\":11062:11140   */\n      tag_435\n      jump\t// in\n    tag_600:\n        /* \"#utility.yul\":11054:11140   */\n      swap1\n      pop\n        /* \"#utility.yul\":11187:11196   */\n      dup2\n        /* \"#utility.yul\":11181:11185   */\n      dup2\n        /* \"#utility.yul\":11177:11197   */\n      sub\n        /* \"#utility.yul\":11172:11174   */\n      0x20\n        /* \"#utility.yul\":11161:11170   */\n      dup4\n        /* \"#utility.yul\":11157:11175   */\n      add\n        /* \"#utility.yul\":11150:11198   */\n      mstore\n        /* \"#utility.yul\":11215:11293   */\n      tag_601\n        /* \"#utility.yul\":11288:11292   */\n      dup2\n        /* \"#utility.yul\":11279:11285   */\n      dup8\n        /* \"#utility.yul\":11215:11293   */\n      tag_435\n      jump\t// in\n    tag_601:\n        /* \"#utility.yul\":11207:11293   */\n      swap1\n      pop\n        /* \"#utility.yul\":11340:11349   */\n      dup2\n        /* \"#utility.yul\":11334:11338   */\n      dup2\n        /* \"#utility.yul\":11330:11350   */\n      sub\n        /* \"#utility.yul\":11325:11327   */\n      0x40\n        /* \"#utility.yul\":11314:11323   */\n      dup4\n        /* \"#utility.yul\":11310:11328   */\n      add\n        /* \"#utility.yul\":11303:11351   */\n      mstore\n        /* \"#utility.yul\":11368:11446   */\n      tag_602\n        /* \"#utility.yul\":11441:11445   */\n      dup2\n        /* \"#utility.yul\":11432:11438   */\n      dup7\n        /* \"#utility.yul\":11368:11446   */\n      tag_435\n      jump\t// in\n    tag_602:\n        /* \"#utility.yul\":11360:11446   */\n      swap1\n      pop\n        /* \"#utility.yul\":11493:11502   */\n      dup2\n        /* \"#utility.yul\":11487:11491   */\n      dup2\n        /* \"#utility.yul\":11483:11503   */\n      sub\n        /* \"#utility.yul\":11478:11480   */\n      0x60\n        /* \"#utility.yul\":11467:11476   */\n      dup4\n        /* \"#utility.yul\":11463:11481   */\n      add\n        /* \"#utility.yul\":11456:11504   */\n      mstore\n        /* \"#utility.yul\":11521:11599   */\n      tag_603\n        /* \"#utility.yul\":11594:11598   */\n      dup2\n        /* \"#utility.yul\":11585:11591   */\n      dup6\n        /* \"#utility.yul\":11521:11599   */\n      tag_435\n      jump\t// in\n    tag_603:\n        /* \"#utility.yul\":11513:11599   */\n      swap1\n      pop\n        /* \"#utility.yul\":11647:11656   */\n      dup2\n        /* \"#utility.yul\":11641:11645   */\n      dup2\n        /* \"#utility.yul\":11637:11657   */\n      sub\n        /* \"#utility.yul\":11631:11634   */\n      0x80\n        /* \"#utility.yul\":11620:11629   */\n      dup4\n        /* \"#utility.yul\":11616:11635   */\n      add\n        /* \"#utility.yul\":11609:11658   */\n      mstore\n        /* \"#utility.yul\":11675:11753   */\n      tag_604\n        /* \"#utility.yul\":11748:11752   */\n      dup2\n        /* \"#utility.yul\":11739:11745   */\n      dup5\n        /* \"#utility.yul\":11675:11753   */\n      tag_435\n      jump\t// in\n    tag_604:\n        /* \"#utility.yul\":11667:11753   */\n      swap1\n      pop\n        /* \"#utility.yul\":10641:11760   */\n      swap7\n      swap6\n      pop\n      pop\n      pop\n      pop\n      pop\n      pop\n      jump\t// out\n        /* \"#utility.yul\":11766:11925   */\n    tag_443:\n        /* \"#utility.yul\":11840:11851   */\n      0x00\n        /* \"#utility.yul\":11874:11880   */\n      dup3\n        /* \"#utility.yul\":11869:11872   */\n      dup3\n        /* \"#utility.yul\":11862:11881   */\n      mstore\n        /* \"#utility.yul\":11914:11918   */\n      0x20\n        /* \"#utility.yul\":11909:11912   */\n      dup3\n        /* \"#utility.yul\":11905:11919   */\n      add\n        /* \"#utility.yul\":11890:11919   */\n      swap1\n      pop\n        /* \"#utility.yul\":11766:11925   */\n      swap3\n      swap2\n      pop\n      pop\n      jump\t// out\n        /* \"#utility.yul\":11931:12288   */\n    tag_444:\n        /* \"#utility.yul\":12009:12012   */\n      0x00\n        /* \"#utility.yul\":12037:12076   */\n      tag_607\n        /* \"#utility.yul\":12070:12075   */\n      dup3\n        /* \"#utility.yul\":12037:12076   */\n      tag_432\n      jump\t// in\n    tag_607:\n        /* \"#utility.yul\":12092:12153   */\n      tag_608\n        /* \"#utility.yul\":12146:12152   */\n      dup2\n        /* \"#utility.yul\":12141:12144   */\n      dup6\n        /* \"#utility.yul\":12092:12153   */\n      tag_443\n      jump\t// in\n    tag_608:\n        /* \"#utility.yul\":12085:12153   */\n      swap4\n      pop\n        /* \"#utility.yul\":12162:12227   */\n      tag_609\n        /* \"#utility.yul\":12220:12226   */\n      dup2\n        /* \"#utility.yul\":12215:12218   */\n      dup6\n        /* \"#utility.yul\":12208:12212   */\n      0x20\n        /* \"#utility.yul\":12201:12206   */\n      dup7\n        /* \"#utility.yul\":12197:12213   */\n      add\n        /* \"#utility.yul\":12162:12227   */\n      tag_434\n      jump\t// in\n    tag_609:\n        /* \"#utility.yul\":12252:12281   */\n      tag_610\n        /* \"#utility.yul\":12274:12280   */\n      dup2\n        /* \"#utility.yul\":12252:12281   */\n      tag_421\n      jump\t// in\n    tag_610:\n        /* \"#utility.yul\":12247:12250   */\n      dup5\n        /* \"#utility.yul\":12243:12282   */\n      add\n        /* \"#utility.yul\":12236:12282   */\n      swap2\n      pop\n        /* \"#utility.yul\":12013:12288   */\n      pop\n        /* \"#utility.yul\":11931:12288   */\n      swap3\n      swap2\n      pop\n      pop\n      jump\t// out\n        /* \"#utility.yul\":12364:13791   */\n    tag_445:\n        /* \"#utility.yul\":12477:12480   */\n      0x00\n        /* \"#utility.yul\":12513:12517   */\n      0xa0\n        /* \"#utility.yul\":12508:12511   */\n      dup4\n        /* \"#utility.yul\":12504:12518   */\n      add\n        /* \"#utility.yul\":12600:12604   */\n      0x00\n        /* \"#utility.yul\":12593:12598   */\n      dup4\n        /* \"#utility.yul\":12589:12605   */\n      add\n        /* \"#utility.yul\":12583:12606   */\n      mload\n        /* \"#utility.yul\":12653:12656   */\n      dup5\n        /* \"#utility.yul\":12647:12651   */\n      dup3\n        /* \"#utility.yul\":12643:12657   */\n      sub\n        /* \"#utility.yul\":12636:12640   */\n      0x00\n        /* \"#utility.yul\":12631:12634   */\n      dup7\n        /* \"#utility.yul\":12627:12641   */\n      add\n        /* \"#utility.yul\":12620:12658   */\n      mstore\n        /* \"#utility.yul\":12679:12752   */\n      tag_612\n        /* \"#utility.yul\":12747:12751   */\n      dup3\n        /* \"#utility.yul\":12733:12745   */\n      dup3\n        /* \"#utility.yul\":12679:12752   */\n      tag_444\n      jump\t// in\n    tag_612:\n        /* \"#utility.yul\":12671:12752   */\n      swap2\n      pop\n        /* \"#utility.yul\":12528:12763   */\n      pop\n        /* \"#utility.yul\":12852:12856   */\n      0x20\n        /* \"#utility.yul\":12845:12850   */\n      dup4\n        /* \"#utility.yul\":12841:12857   */\n      add\n        /* \"#utility.yul\":12835:12858   */\n      mload\n        /* \"#utility.yul\":12905:12908   */\n      dup5\n        /* \"#utility.yul\":12899:12903   */\n      dup3\n        /* \"#utility.yul\":12895:12909   */\n      sub\n        /* \"#utility.yul\":12888:12892   */\n      0x20\n        /* \"#utility.yul\":12883:12886   */\n      dup7\n        /* \"#utility.yul\":12879:12893   */\n      add\n        /* \"#utility.yul\":12872:12910   */\n      mstore\n        /* \"#utility.yul\":12931:13004   */\n      tag_613\n        /* \"#utility.yul\":12999:13003   */\n      dup3\n        /* \"#utility.yul\":12985:12997   */\n      dup3\n        /* \"#utility.yul\":12931:13004   */\n      tag_444\n      jump\t// in\n    tag_613:\n        /* \"#utility.yul\":12923:13004   */\n      swap2\n      pop\n        /* \"#utility.yul\":12773:13015   */\n      pop\n        /* \"#utility.yul\":13102:13106   */\n      0x40\n        /* \"#utility.yul\":13095:13100   */\n      dup4\n        /* \"#utility.yul\":13091:13107   */\n      add\n        /* \"#utility.yul\":13085:13108   */\n      mload\n        /* \"#utility.yul\":13155:13158   */\n      dup5\n        /* \"#utility.yul\":13149:13153   */\n      dup3\n        /* \"#utility.yul\":13145:13159   */\n      sub\n        /* \"#utility.yul\":13138:13142   */\n      0x40\n        /* \"#utility.yul\":13133:13136   */\n      dup7\n        /* \"#utility.yul\":13129:13143   */\n      add\n        /* \"#utility.yul\":13122:13160   */\n      mstore\n        /* \"#utility.yul\":13181:13254   */\n      tag_614\n        /* \"#utility.yul\":13249:13253   */\n      dup3\n        /* \"#utility.yul\":13235:13247   */\n      dup3\n        /* \"#utility.yul\":13181:13254   */\n      tag_444\n      jump\t// in\n    tag_614:\n        /* \"#utility.yul\":13173:13254   */\n      swap2\n      pop\n        /* \"#utility.yul\":13025:13265   */\n      pop\n        /* \"#utility.yul\":13347:13351   */\n      0x60\n        /* \"#utility.yul\":13340:13345   */\n      dup4\n        /* \"#utility.yul\":13336:13352   */\n      add\n        /* \"#utility.yul\":13330:13353   */\n      mload\n        /* \"#utility.yul\":13400:13403   */\n      dup5\n        /* \"#utility.yul\":13394:13398   */\n      dup3\n        /* \"#utility.yul\":13390:13404   */\n      sub\n        /* \"#utility.yul\":13383:13387   */\n      0x60\n        /* \"#utility.yul\":13378:13381   */\n      dup7\n        /* \"#utility.yul\":13374:13388   */\n      add\n        /* \"#utility.yul\":13367:13405   */\n      mstore\n        /* \"#utility.yul\":13426:13499   */\n      tag_615\n        /* \"#utility.yul\":13494:13498   */\n      dup3\n        /* \"#utility.yul\":13480:13492   */\n      dup3\n        /* \"#utility.yul\":13426:13499   */\n      tag_444\n      jump\t// in\n    tag_615:\n        /* \"#utility.yul\":13418:13499   */\n      swap2\n      pop\n        /* \"#utility.yul\":13275:13510   */\n      pop\n        /* \"#utility.yul\":13601:13605   */\n      0x80\n        /* \"#utility.yul\":13594:13599   */\n      dup4\n        /* \"#utility.yul\":13590:13606   */\n      add\n        /* \"#utility.yul\":13584:13607   */\n      mload\n        /* \"#utility.yul\":13654:13657   */\n      dup5\n        /* \"#utility.yul\":13648:13652   */\n      dup3\n        /* \"#utility.yul\":13644:13658   */\n      sub\n        /* \"#utility.yul\":13637:13641   */\n      0x80\n        /* \"#utility.yul\":13632:13635   */\n      dup7\n        /* \"#utility.yul\":13628:13642   */\n      add\n        /* \"#utility.yul\":13621:13659   */\n      mstore\n        /* \"#utility.yul\":13680:13753   */\n      tag_616\n        /* \"#utility.yul\":13748:13752   */\n      dup3\n        /* \"#utility.yul\":13734:13746   */\n      dup3\n        /* \"#utility.yul\":13680:13753   */\n      tag_444\n      jump\t// in\n    tag_616:\n        /* \"#utility.yul\":13672:13753   */\n      swap2\n      pop\n        /* \"#utility.yul\":13520:13764   */\n      pop\n        /* \"#utility.yul\":13781:13785   */\n      dup1\n        /* \"#utility.yul\":13774:13785   */\n      swap2\n      pop\n        /* \"#utility.yul\":12482:13791   */\n      pop\n        /* \"#utility.yul\":12364:13791   */\n      swap3\n      swap2\n      pop\n      pop\n      jump\t// out\n        /* \"#utility.yul\":13797:14158   */\n    tag_101:\n        /* \"#utility.yul\":13934:13938   */\n      0x00\n        /* \"#utility.yul\":13972:13974   */\n      0x20\n        /* \"#utility.yul\":13961:13970   */\n      dup3\n        /* \"#utility.yul\":13957:13975   */\n      add\n        /* \"#utility.yul\":13949:13975   */\n      swap1\n      pop\n        /* \"#utility.yul\":14021:14030   */\n      dup2\n        /* \"#utility.yul\":14015:14019   */\n      dup2\n        /* \"#utility.yul\":14011:14031   */\n      sub\n        /* \"#utility.yul\":14007:14008   */\n      0x00\n        /* \"#utility.yul\":13996:14005   */\n      dup4\n        /* \"#utility.yul\":13992:14009   */\n      add\n        /* \"#utility.yul\":13985:14032   */\n      mstore\n        /* \"#utility.yul\":14049:14151   */\n      tag_618\n        /* \"#utility.yul\":14146:14150   */\n      dup2\n        /* \"#utility.yul\":14137:14143   */\n      dup5\n        /* \"#utility.yul\":14049:14151   */\n      tag_445\n      jump\t// in\n    tag_618:\n        /* \"#utility.yul\":14041:14151   */\n      swap1\n      pop\n        /* \"#utility.yul\":13797:14158   */\n      swap3\n      swap2\n      pop\n      pop\n      jump\t// out\n        /* \"#utility.yul\":14164:14328   */\n    tag_446:\n        /* \"#utility.yul\":14304:14320   */\n      0x4e6f7420617574686f72697a6564000000000000000000000000000000000000\n        /* \"#utility.yul\":14300:14301   */\n      0x00\n        /* \"#utility.yul\":14292:14298   */\n      dup3\n        /* \"#utility.yul\":14288:14302   */\n      add\n        /* \"#utility.yul\":14281:14321   */\n      mstore\n        /* \"#utility.yul\":14164:14328   */\n      pop\n      jump\t// out\n        /* \"#utility.yul\":14334:14700   */\n    tag_447:\n        /* \"#utility.yul\":14476:14479   */\n      0x00\n        /* \"#utility.yul\":14497:14564   */\n      tag_621\n        /* \"#utility.yul\":14561:14563   */\n      0x0e\n        /* \"#utility.yul\":14556:14559   */\n      dup4\n        /* \"#utility.yul\":14497:14564   */\n      tag_433\n      jump\t// in\n    tag_621:\n        /* \"#utility.yul\":14490:14564   */\n      swap2\n      pop\n        /* \"#utility.yul\":14573:14666   */\n      tag_622\n        /* \"#utility.yul\":14662:14665   */\n      dup3\n        /* \"#utility.yul\":14573:14666   */\n      tag_446\n      jump\t// in\n    tag_622:\n        /* \"#utility.yul\":14691:14693   */\n      0x20\n        /* \"#utility.yul\":14686:14689   */\n      dup3\n        /* \"#utility.yul\":14682:14694   */\n      add\n        /* \"#utility.yul\":14675:14694   */\n      swap1\n      pop\n        /* \"#utility.yul\":14334:14700   */\n      swap2\n      swap1\n      pop\n      jump\t// out\n        /* \"#utility.yul\":14706:15125   */\n    tag_112:\n        /* \"#utility.yul\":14872:14876   */\n      0x00\n        /* \"#utility.yul\":14910:14912   */\n      0x20\n        /* \"#utility.yul\":14899:14908   */\n      dup3\n        /* \"#utility.yul\":14895:14913   */\n      add\n        /* \"#utility.yul\":14887:14913   */\n      swap1\n      pop\n        /* \"#utility.yul\":14959:14968   */\n      dup2\n        /* \"#utility.yul\":14953:14957   */\n      dup2\n        /* \"#utility.yul\":14949:14969   */\n      sub\n        /* \"#utility.yul\":14945:14946   */\n      0x00\n        /* \"#utility.yul\":14934:14943   */\n      dup4\n        /* \"#utility.yul\":14930:14947   */\n      add\n        /* \"#utility.yul\":14923:14970   */\n      mstore\n        /* \"#utility.yul\":14987:15118   */\n      tag_624\n        /* \"#utility.yul\":15113:15117   */\n      dup2\n        /* \"#utility.yul\":14987:15118   */\n      tag_447\n      jump\t// in\n    tag_624:\n        /* \"#utility.yul\":14979:15118   */\n      swap1\n      pop\n        /* \"#utility.yul\":14706:15125   */\n      swap2\n      swap1\n      pop\n      jump\t// out\n        /* \"#utility.yul\":15131:15311   */\n    tag_448:\n        /* \"#utility.yul\":15179:15256   */\n      0x4e487b7100000000000000000000000000000000000000000000000000000000\n        /* \"#utility.yul\":15176:15177   */\n      0x00\n        /* \"#utility.yul\":15169:15257   */\n      mstore\n        /* \"#utility.yul\":15276:15280   */\n      0x12\n        /* \"#utility.yul\":15273:15274   */\n      0x04\n        /* \"#utility.yul\":15266:15281   */\n      mstore\n        /* \"#utility.yul\":15300:15304   */\n      0x24\n        /* \"#utility.yul\":15297:15298   */\n      0x00\n        /* \"#utility.yul\":15290:15305   */\n      revert\n        /* \"#utility.yul\":15317:15493   */\n    tag_117:\n        /* \"#utility.yul\":15349:15350   */\n      0x00\n        /* \"#utility.yul\":15366:15386   */\n      tag_627\n        /* \"#utility.yul\":15384:15385   */\n      dup3\n        /* \"#utility.yul\":15366:15386   */\n      tag_436\n      jump\t// in\n    tag_627:\n        /* \"#utility.yul\":15361:15386   */\n      swap2\n      pop\n        /* \"#utility.yul\":15400:15420   */\n      tag_628\n        /* \"#utility.yul\":15418:15419   */\n      dup4\n        /* \"#utility.yul\":15400:15420   */\n      tag_436\n      jump\t// in\n    tag_628:\n        /* \"#utility.yul\":15395:15420   */\n      swap3\n      pop\n        /* \"#utility.yul\":15439:15440   */\n      dup3\n        /* \"#utility.yul\":15429:15464   */\n      tag_629\n      jumpi\n        /* \"#utility.yul\":15444:15462   */\n      tag_630\n      tag_448\n      jump\t// in\n    tag_630:\n        /* \"#utility.yul\":15429:15464   */\n    tag_629:\n        /* \"#utility.yul\":15485:15486   */\n      dup3\n        /* \"#utility.yul\":15482:15483   */\n      dup3\n        /* \"#utility.yul\":15478:15487   */\n      mod\n        /* \"#utility.yul\":15473:15487   */\n      swap1\n      pop\n        /* \"#utility.yul\":15317:15493   */\n      swap3\n      swap2\n      pop\n      pop\n      jump\t// out\n        /* \"#utility.yul\":15499:15669   */\n    tag_449:\n        /* \"#utility.yul\":15639:15661   */\n      0x496e76616c696420696e70757420737472696e67000000000000000000000000\n        /* \"#utility.yul\":15635:15636   */\n      0x00\n        /* \"#utility.yul\":15627:15633   */\n      dup3\n        /* \"#utility.yul\":15623:15637   */\n      add\n        /* \"#utility.yul\":15616:15662   */\n      mstore\n        /* \"#utility.yul\":15499:15669   */\n      pop\n      jump\t// out\n        /* \"#utility.yul\":15675:16041   */\n    tag_450:\n        /* \"#utility.yul\":15817:15820   */\n      0x00\n        /* \"#utility.yul\":15838:15905   */\n      tag_633\n        /* \"#utility.yul\":15902:15904   */\n      0x14\n        /* \"#utility.yul\":15897:15900   */\n      dup4\n        /* \"#utility.yul\":15838:15905   */\n      tag_433\n      jump\t// in\n    tag_633:\n        /* \"#utility.yul\":15831:15905   */\n      swap2\n      pop\n        /* \"#utility.yul\":15914:16007   */\n      tag_634\n        /* \"#utility.yul\":16003:16006   */\n      dup3\n        /* \"#utility.yul\":15914:16007   */\n      tag_449\n      jump\t// in\n    tag_634:\n        /* \"#utility.yul\":16032:16034   */\n      0x20\n        /* \"#utility.yul\":16027:16030   */\n      dup3\n        /* \"#utility.yul\":16023:16035   */\n      add\n        /* \"#utility.yul\":16016:16035   */\n      swap1\n      pop\n        /* \"#utility.yul\":15675:16041   */\n      swap2\n      swap1\n      pop\n      jump\t// out\n        /* \"#utility.yul\":16047:16466   */\n    tag_120:\n        /* \"#utility.yul\":16213:16217   */\n      0x00\n        /* \"#utility.yul\":16251:16253   */\n      0x20\n        /* \"#utility.yul\":16240:16249   */\n      dup3\n        /* \"#utility.yul\":16236:16254   */\n      add\n        /* \"#utility.yul\":16228:16254   */\n      swap1\n      pop\n        /* \"#utility.yul\":16300:16309   */\n      dup2\n        /* \"#utility.yul\":16294:16298   */\n      dup2\n        /* \"#utility.yul\":16290:16310   */\n      sub\n        /* \"#utility.yul\":16286:16287   */\n      0x00\n        /* \"#utility.yul\":16275:16284   */\n      dup4\n        /* \"#utility.yul\":16271:16288   */\n      add\n        /* \"#utility.yul\":16264:16311   */\n      mstore\n        /* \"#utility.yul\":16328:16459   */\n      tag_636\n        /* \"#utility.yul\":16454:16458   */\n      dup2\n        /* \"#utility.yul\":16328:16459   */\n      tag_450\n      jump\t// in\n    tag_636:\n        /* \"#utility.yul\":16320:16459   */\n      swap1\n      pop\n        /* \"#utility.yul\":16047:16466   */\n      swap2\n      swap1\n      pop\n      jump\t// out\n        /* \"#utility.yul\":16472:16652   */\n    tag_126:\n        /* \"#utility.yul\":16520:16597   */\n      0x4e487b7100000000000000000000000000000000000000000000000000000000\n        /* \"#utility.yul\":16517:16518   */\n      0x00\n        /* \"#utility.yul\":16510:16598   */\n      mstore\n        /* \"#utility.yul\":16617:16621   */\n      0x32\n        /* \"#utility.yul\":16614:16615   */\n      0x04\n        /* \"#utility.yul\":16607:16622   */\n      mstore\n        /* \"#utility.yul\":16641:16645   */\n      0x24\n        /* \"#utility.yul\":16638:16639   */\n      0x00\n        /* \"#utility.yul\":16631:16646   */\n      revert\n        /* \"#utility.yul\":16658:16838   */\n    tag_451:\n        /* \"#utility.yul\":16706:16783   */\n      0x4e487b7100000000000000000000000000000000000000000000000000000000\n        /* \"#utility.yul\":16703:16704   */\n      0x00\n        /* \"#utility.yul\":16696:16784   */\n      mstore\n        /* \"#utility.yul\":16803:16807   */\n      0x11\n        /* \"#utility.yul\":16800:16801   */\n      0x04\n        /* \"#utility.yul\":16793:16808   */\n      mstore\n        /* \"#utility.yul\":16827:16831   */\n      0x24\n        /* \"#utility.yul\":16824:16825   */\n      0x00\n        /* \"#utility.yul\":16817:16832   */\n      revert\n        /* \"#utility.yul\":16844:17035   */\n    tag_128:\n        /* \"#utility.yul\":16884:16887   */\n      0x00\n        /* \"#utility.yul\":16903:16923   */\n      tag_640\n        /* \"#utility.yul\":16921:16922   */\n      dup3\n        /* \"#utility.yul\":16903:16923   */\n      tag_436\n      jump\t// in\n    tag_640:\n        /* \"#utility.yul\":16898:16923   */\n      swap2\n      pop\n        /* \"#utility.yul\":16937:16957   */\n      tag_641\n        /* \"#utility.yul\":16955:16956   */\n      dup4\n        /* \"#utility.yul\":16937:16957   */\n      tag_436\n      jump\t// in\n    tag_641:\n        /* \"#utility.yul\":16932:16957   */\n      swap3\n      pop\n        /* \"#utility.yul\":16980:16981   */\n      dup3\n        /* \"#utility.yul\":16977:16978   */\n      dup3\n        /* \"#utility.yul\":16973:16982   */\n      add\n        /* \"#utility.yul\":16966:16982   */\n      swap1\n      pop\n        /* \"#utility.yul\":17001:17004   */\n      dup1\n        /* \"#utility.yul\":16998:16999   */\n      dup3\n        /* \"#utility.yul\":16995:17005   */\n      gt\n        /* \"#utility.yul\":16992:17028   */\n      iszero\n      tag_642\n      jumpi\n        /* \"#utility.yul\":17008:17026   */\n      tag_643\n      tag_451\n      jump\t// in\n    tag_643:\n        /* \"#utility.yul\":16992:17028   */\n    tag_642:\n        /* \"#utility.yul\":16844:17035   */\n      swap3\n      swap2\n      pop\n      pop\n      jump\t// out\n        /* \"#utility.yul\":17041:17221   */\n    tag_452:\n        /* \"#utility.yul\":17089:17166   */\n      0x4e487b7100000000000000000000000000000000000000000000000000000000\n        /* \"#utility.yul\":17086:17087   */\n      0x00\n        /* \"#utility.yul\":17079:17167   */\n      mstore\n        /* \"#utility.yul\":17186:17190   */\n      0x22\n        /* \"#utility.yul\":17183:17184   */\n      0x04\n        /* \"#utility.yul\":17176:17191   */\n      mstore\n        /* \"#utility.yul\":17210:17214   */\n      0x24\n        /* \"#utility.yul\":17207:17208   */\n      0x00\n        /* \"#utility.yul\":17200:17215   */\n      revert\n        /* \"#utility.yul\":17227:17547   */\n    tag_155:\n        /* \"#utility.yul\":17271:17277   */\n      0x00\n        /* \"#utility.yul\":17308:17309   */\n      0x02\n        /* \"#utility.yul\":17302:17306   */\n      dup3\n        /* \"#utility.yul\":17298:17310   */\n      div\n        /* \"#utility.yul\":17288:17310   */\n      swap1\n      pop\n        /* \"#utility.yul\":17355:17356   */\n      0x01\n        /* \"#utility.yul\":17349:17353   */\n      dup3\n        /* \"#utility.yul\":17345:17357   */\n      and\n        /* \"#utility.yul\":17376:17394   */\n      dup1\n        /* \"#utility.yul\":17366:17447   */\n      tag_646\n      jumpi\n        /* \"#utility.yul\":17432:17436   */\n      0x7f\n        /* \"#utility.yul\":17424:17430   */\n      dup3\n        /* \"#utility.yul\":17420:17437   */\n      and\n        /* \"#utility.yul\":17410:17437   */\n      swap2\n      pop\n        /* \"#utility.yul\":17366:17447   */\n    tag_646:\n        /* \"#utility.yul\":17494:17496   */\n      0x20\n        /* \"#utility.yul\":17486:17492   */\n      dup3\n        /* \"#utility.yul\":17483:17497   */\n      lt\n        /* \"#utility.yul\":17463:17481   */\n      dup2\n        /* \"#utility.yul\":17460:17498   */\n      sub\n        /* \"#utility.yul\":17457:17541   */\n      tag_647\n      jumpi\n        /* \"#utility.yul\":17513:17531   */\n      tag_648\n      tag_452\n      jump\t// in\n    tag_648:\n        /* \"#utility.yul\":17457:17541   */\n    tag_647:\n        /* \"#utility.yul\":17278:17547   */\n      pop\n        /* \"#utility.yul\":17227:17547   */\n      swap2\n      swap1\n      pop\n      jump\t// out\n        /* \"#utility.yul\":17553:17694   */\n    tag_453:\n        /* \"#utility.yul\":17602:17606   */\n      0x00\n        /* \"#utility.yul\":17625:17628   */\n      dup2\n        /* \"#utility.yul\":17617:17628   */\n      swap1\n      pop\n        /* \"#utility.yul\":17648:17651   */\n      dup2\n        /* \"#utility.yul\":17645:17646   */\n      0x00\n        /* \"#utility.yul\":17638:17652   */\n      mstore\n        /* \"#utility.yul\":17682:17686   */\n      0x20\n        /* \"#utility.yul\":17679:17680   */\n      0x00\n        /* \"#utility.yul\":17669:17687   */\n      keccak256\n        /* \"#utility.yul\":17661:17687   */\n      swap1\n      pop\n        /* \"#utility.yul\":17553:17694   */\n      swap2\n      swap1\n      pop\n      jump\t// out\n        /* \"#utility.yul\":17700:17793   */\n    tag_454:\n        /* \"#utility.yul\":17737:17743   */\n      0x00\n        /* \"#utility.yul\":17784:17786   */\n      0x20\n        /* \"#utility.yul\":17779:17781   */\n      0x1f\n        /* \"#utility.yul\":17772:17777   */\n      dup4\n        /* \"#utility.yul\":17768:17782   */\n      add\n        /* \"#utility.yul\":17764:17787   */\n      div\n        /* \"#utility.yul\":17754:17787   */\n      swap1\n      pop\n        /* \"#utility.yul\":17700:17793   */\n      swap2\n      swap1\n      pop\n      jump\t// out\n        /* \"#utility.yul\":17799:17906   */\n    tag_455:\n        /* \"#utility.yul\":17843:17851   */\n      0x00\n        /* \"#utility.yul\":17893:17898   */\n      dup3\n        /* \"#utility.yul\":17887:17891   */\n      dup3\n        /* \"#utility.yul\":17883:17899   */\n      shl\n        /* \"#utility.yul\":17862:17899   */\n      swap1\n      pop\n        /* \"#utility.yul\":17799:17906   */\n      swap3\n      swap2\n      pop\n      pop\n      jump\t// out\n        /* \"#utility.yul\":17912:18305   */\n    tag_456:\n        /* \"#utility.yul\":17981:17987   */\n      0x00\n        /* \"#utility.yul\":18031:18032   */\n      0x08\n        /* \"#utility.yul\":18019:18029   */\n      dup4\n        /* \"#utility.yul\":18015:18033   */\n      mul\n        /* \"#utility.yul\":18054:18151   */\n      tag_653\n        /* \"#utility.yul\":18084:18150   */\n      0xffffffffffffffffffffffffffffffffffffffffffffffffffffffffffffffff\n        /* \"#utility.yul\":18073:18082   */\n      dup3\n        /* \"#utility.yul\":18054:18151   */\n      tag_455\n      jump\t// in\n    tag_653:\n        /* \"#utility.yul\":18172:18211   */\n      tag_654\n        /* \"#utility.yul\":18202:18210   */\n      dup7\n        /* \"#utility.yul\":18191:18200   */\n      dup4\n        /* \"#utility.yul\":18172:18211   */\n      tag_455\n      jump\t// in\n    tag_654:\n        /* \"#utility.yul\":18160:18211   */\n      swap6\n      pop\n        /* \"#utility.yul\":18244:18248   */\n      dup1\n        /* \"#utility.yul\":18240:18249   */\n      not\n        /* \"#utility.yul\":18233:18238   */\n      dup5\n        /* \"#utility.yul\":18229:18250   */\n      and\n        /* \"#utility.yul\":18220:18250   */\n      swap4\n      pop\n        /* \"#utility.yul\":18293:18297   */\n      dup1\n        /* \"#utility.yul\":18283:18291   */\n      dup7\n        /* \"#utility.yul\":18279:18298   */\n      and\n        /* \"#utility.yul\":18272:18277   */\n      dup5\n        /* \"#utility.yul\":18269:18299   */\n      or\n        /* \"#utility.yul\":18259:18299   */\n      swap3\n      pop\n        /* \"#utility.yul\":17988:18305   */\n      pop\n      pop\n        /* \"#utility.yul\":17912:18305   */\n      swap4\n      swap3\n      pop\n      pop\n      pop\n      jump\t// out\n        /* \"#utility.yul\":18311:18371   */\n    tag_457:\n        /* \"#utility.yul\":18339:18342   */\n      0x00\n        /* \"#utility.yul\":18360:18365   */\n      dup2\n        /* \"#utility.yul\":18353:18365   */\n      swap1\n      pop\n        /* \"#utility.yul\":18311:18371   */\n      swap2\n      swap1\n      pop\n      jump\t// out\n        /* \"#utility.yul\":18377:18519   */\n    tag_458:\n        /* \"#utility.yul\":18427:18436   */\n      0x00\n        /* \"#utility.yul\":18460:18513   */\n      tag_657\n        /* \"#utility.yul\":18478:18512   */\n      tag_658\n        /* \"#utility.yul\":18487:18511   */\n      tag_659\n        /* \"#utility.yul\":18505:18510   */\n      dup5\n        /* \"#utility.yul\":18487:18511   */\n      tag_436\n      jump\t// in\n    tag_659:\n        /* \"#utility.yul\":18478:18512   */\n      tag_457\n      jump\t// in\n    tag_658:\n        /* \"#utility.yul\":18460:18513   */\n      tag_436\n      jump\t// in\n    tag_657:\n        /* \"#utility.yul\":18447:18513   */\n      swap1\n      pop\n        /* \"#utility.yul\":18377:18519   */\n      swap2\n      swap1\n      pop\n      jump\t// out\n        /* \"#utility.yul\":18525:18600   */\n    tag_459:\n        /* \"#utility.yul\":18568:18571   */\n      0x00\n        /* \"#utility.yul\":18589:18594   */\n      dup2\n        /* \"#utility.yul\":18582:18594   */\n      swap1\n      pop\n        /* \"#utility.yul\":18525:18600   */\n      swap2\n      swap1\n      pop\n      jump\t// out\n        /* \"#utility.yul\":18606:18875   */\n    tag_460:\n        /* \"#utility.yul\":18716:18755   */\n      tag_662\n        /* \"#utility.yul\":18747:18754   */\n      dup4\n        /* \"#utility.yul\":18716:18755   */\n      tag_458\n      jump\t// in\n    tag_662:\n        /* \"#utility.yul\":18777:18868   */\n      tag_663\n        /* \"#utility.yul\":18826:18867   */\n      tag_664\n        /* \"#utility.yul\":18850:18866   */\n      dup3\n        /* \"#utility.yul\":18826:18867   */\n      tag_459\n      jump\t// in\n    tag_664:\n        /* \"#utility.yul\":18818:18824   */\n      dup5\n        /* \"#utility.yul\":18811:18815   */\n      dup5\n        /* \"#utility.yul\":18805:18816   */\n      sload\n        /* \"#utility.yul\":18777:18868   */\n      tag_456\n      jump\t// in\n    tag_663:\n        /* \"#utility.yul\":18771:18775   */\n      dup3\n        /* \"#utility.yul\":18764:18869   */\n      sstore\n        /* \"#utility.yul\":18682:18875   */\n      pop\n        /* \"#utility.yul\":18606:18875   */\n      pop\n      pop\n      pop\n      jump\t// out\n        /* \"#utility.yul\":18881:18954   */\n    tag_461:\n        /* \"#utility.yul\":18926:18929   */\n      0x00\n        /* \"#utility.yul\":18881:18954   */\n      swap1\n      jump\t// out\n        /* \"#utility.yul\":18960:19149   */\n    tag_462:\n        /* \"#utility.yul\":19037:19069   */\n      tag_667\n      tag_461\n      jump\t// in\n    tag_667:\n        /* \"#utility.yul\":19078:19143   */\n      tag_668\n        /* \"#utility.yul\":19136:19142   */\n      dup2\n        /* \"#utility.yul\":19128:19134   */\n      dup5\n        /* \"#utility.yul\":19122:19126   */\n      dup5\n        /* \"#utility.yul\":19078:19143   */\n      tag_460\n      jump\t// in\n    tag_668:\n        /* \"#utility.yul\":19013:19149   */\n      pop\n        /* \"#utility.yul\":18960:19149   */\n      pop\n      pop\n      jump\t// out\n        /* \"#utility.yul\":19155:19341   */\n    tag_463:\n        /* \"#utility.yul\":19215:19335   */\n    tag_670:\n        /* \"#utility.yul\":19232:19235   */\n      dup2\n        /* \"#utility.yul\":19225:19230   */\n      dup2\n        /* \"#utility.yul\":19222:19236   */\n      lt\n        /* \"#utility.yul\":19215:19335   */\n      iszero\n      tag_672\n      jumpi\n        /* \"#utility.yul\":19286:19325   */\n      tag_673\n        /* \"#utility.yul\":19323:19324   */\n      0x00\n        /* \"#utility.yul\":19316:19321   */\n      dup3\n        /* \"#utility.yul\":19286:19325   */\n      tag_462\n      jump\t// in\n    tag_673:\n        /* \"#utility.yul\":19259:19260   */\n      0x01\n        /* \"#utility.yul\":19252:19257   */\n      dup2\n        /* \"#utility.yul\":19248:19261   */\n      add\n        /* \"#utility.yul\":19239:19261   */\n      swap1\n      pop\n        /* \"#utility.yul\":19215:19335   */\n      jump(tag_670)\n    tag_672:\n        /* \"#utility.yul\":19155:19341   */\n      pop\n      pop\n      jump\t// out\n        /* \"#utility.yul\":19347:19890   */\n    tag_464:\n        /* \"#utility.yul\":19448:19450   */\n      0x1f\n        /* \"#utility.yul\":19443:19446   */\n      dup3\n        /* \"#utility.yul\":19440:19451   */\n      gt\n        /* \"#utility.yul\":19437:19883   */\n      iszero\n      tag_675\n      jumpi\n        /* \"#utility.yul\":19482:19520   */\n      tag_676\n        /* \"#utility.yul\":19514:19519   */\n      dup2\n        /* \"#utility.yul\":19482:19520   */\n      tag_453\n      jump\t// in\n    tag_676:\n        /* \"#utility.yul\":19566:19595   */\n      tag_677\n        /* \"#utility.yul\":19584:19594   */\n      dup5\n        /* \"#utility.yul\":19566:19595   */\n      tag_454\n      jump\t// in\n    tag_677:\n        /* \"#utility.yul\":19556:19564   */\n      dup2\n        /* \"#utility.yul\":19552:19596   */\n      add\n        /* \"#utility.yul\":19749:19751   */\n      0x20\n        /* \"#utility.yul\":19737:19747   */\n      dup6\n        /* \"#utility.yul\":19734:19752   */\n      lt\n        /* \"#utility.yul\":19731:19780   */\n      iszero\n      tag_678\n      jumpi\n        /* \"#utility.yul\":19770:19778   */\n      dup2\n        /* \"#utility.yul\":19755:19778   */\n      swap1\n      pop\n        /* \"#utility.yul\":19731:19780   */\n    tag_678:\n        /* \"#utility.yul\":19793:19873   */\n      tag_679\n        /* \"#utility.yul\":19849:19871   */\n      tag_680\n        /* \"#utility.yul\":19867:19870   */\n      dup6\n        /* \"#utility.yul\":19849:19871   */\n      tag_454\n      jump\t// in\n    tag_680:\n        /* \"#utility.yul\":19839:19847   */\n      dup4\n        /* \"#utility.yul\":19835:19872   */\n      add\n        /* \"#utility.yul\":19822:19833   */\n      dup3\n        /* \"#utility.yul\":19793:19873   */\n      tag_463\n      jump\t// in\n    tag_679:\n        /* \"#utility.yul\":19452:19883   */\n      pop\n      pop\n        /* \"#utility.yul\":19437:19883   */\n    tag_675:\n        /* \"#utility.yul\":19347:19890   */\n      pop\n      pop\n      pop\n      jump\t// out\n        /* \"#utility.yul\":19896:20013   */\n    tag_465:\n        /* \"#utility.yul\":19950:19958   */\n      0x00\n        /* \"#utility.yul\":20000:20005   */\n      dup3\n        /* \"#utility.yul\":19994:19998   */\n      dup3\n        /* \"#utility.yul\":19990:20006   */\n      shr\n        /* \"#utility.yul\":19969:20006   */\n      swap1\n      pop\n        /* \"#utility.yul\":19896:20013   */\n      swap3\n      swap2\n      pop\n      pop\n      jump\t// out\n        /* \"#utility.yul\":20019:20188   */\n    tag_466:\n        /* \"#utility.yul\":20063:20069   */\n      0x00\n        /* \"#utility.yul\":20096:20147   */\n      tag_683\n        /* \"#utility.yul\":20144:20145   */\n      0x00\n        /* \"#utility.yul\":20140:20146   */\n      not\n        /* \"#utility.yul\":20132:20137   */\n      dup5\n        /* \"#utility.yul\":20129:20130   */\n      0x08\n        /* \"#utility.yul\":20125:20138   */\n      mul\n        /* \"#utility.yul\":20096:20147   */\n      tag_465\n      jump\t// in\n    tag_683:\n        /* \"#utility.yul\":20092:20148   */\n      not\n        /* \"#utility.yul\":20177:20181   */\n      dup1\n        /* \"#utility.yul\":20171:20175   */\n      dup4\n        /* \"#utility.yul\":20167:20182   */\n      and\n        /* \"#utility.yul\":20157:20182   */\n      swap2\n      pop\n        /* \"#utility.yul\":20070:20188   */\n      pop\n        /* \"#utility.yul\":20019:20188   */\n      swap3\n      swap2\n      pop\n      pop\n      jump\t// out\n        /* \"#utility.yul\":20193:20488   */\n    tag_467:\n        /* \"#utility.yul\":20269:20273   */\n      0x00\n        /* \"#utility.yul\":20415:20444   */\n      tag_685\n        /* \"#utility.yul\":20440:20443   */\n      dup4\n        /* \"#utility.yul\":20434:20438   */\n      dup4\n        /* \"#utility.yul\":20415:20444   */\n      tag_466\n      jump\t// in\n    tag_685:\n        /* \"#utility.yul\":20407:20444   */\n      swap2\n      pop\n        /* \"#utility.yul\":20477:20480   */\n      dup3\n        /* \"#utility.yul\":20474:20475   */\n      0x02\n        /* \"#utility.yul\":20470:20481   */\n      mul\n        /* \"#utility.yul\":20464:20468   */\n      dup3\n        /* \"#utility.yul\":20461:20482   */\n      or\n        /* \"#utility.yul\":20453:20482   */\n      swap1\n      pop\n        /* \"#utility.yul\":20193:20488   */\n      swap3\n      swap2\n      pop\n      pop\n      jump\t// out\n        /* \"#utility.yul\":20493:21888   */\n    tag_142:\n        /* \"#utility.yul\":20610:20647   */\n      tag_687\n        /* \"#utility.yul\":20643:20646   */\n      dup3\n        /* \"#utility.yul\":20610:20647   */\n      tag_432\n      jump\t// in\n    tag_687:\n        /* \"#utility.yul\":20712:20730   */\n      0xffffffffffffffff\n        /* \"#utility.yul\":20704:20710   */\n      dup2\n        /* \"#utility.yul\":20701:20731   */\n      gt\n        /* \"#utility.yul\":20698:20754   */\n      iszero\n      tag_688\n      jumpi\n        /* \"#utility.yul\":20734:20752   */\n      tag_689\n      tag_358\n      jump\t// in\n    tag_689:\n        /* \"#utility.yul\":20698:20754   */\n    tag_688:\n        /* \"#utility.yul\":20778:20816   */\n      tag_690\n        /* \"#utility.yul\":20810:20814   */\n      dup3\n        /* \"#utility.yul\":20804:20815   */\n      sload\n        /* \"#utility.yul\":20778:20816   */\n      tag_155\n      jump\t// in\n    tag_690:\n        /* \"#utility.yul\":20863:20930   */\n      tag_691\n        /* \"#utility.yul\":20923:20929   */\n      dup3\n        /* \"#utility.yul\":20915:20921   */\n      dup3\n        /* \"#utility.yul\":20909:20913   */\n      dup6\n        /* \"#utility.yul\":20863:20930   */\n      tag_464\n      jump\t// in\n    tag_691:\n        /* \"#utility.yul\":20957:20958   */\n      0x00\n        /* \"#utility.yul\":20981:20985   */\n      0x20\n        /* \"#utility.yul\":20968:20985   */\n      swap1\n      pop\n        /* \"#utility.yul\":21013:21015   */\n      0x1f\n        /* \"#utility.yul\":21005:21011   */\n      dup4\n        /* \"#utility.yul\":21002:21016   */\n      gt\n        /* \"#utility.yul\":21030:21031   */\n      0x01\n        /* \"#utility.yul\":21025:21643   */\n      dup2\n      eq\n      tag_693\n      jumpi\n        /* \"#utility.yul\":21687:21688   */\n      0x00\n        /* \"#utility.yul\":21704:21710   */\n      dup5\n        /* \"#utility.yul\":21701:21778   */\n      iszero\n      tag_694\n      jumpi\n        /* \"#utility.yul\":21753:21762   */\n      dup3\n        /* \"#utility.yul\":21748:21751   */\n      dup8\n        /* \"#utility.yul\":21744:21763   */\n      add\n        /* \"#utility.yul\":21738:21764   */\n      mload\n        /* \"#utility.yul\":21729:21764   */\n      swap1\n      pop\n        /* \"#utility.yul\":21701:21778   */\n    tag_694:\n        /* \"#utility.yul\":21804:21871   */\n      tag_695\n        /* \"#utility.yul\":21864:21870   */\n      dup6\n        /* \"#utility.yul\":21857:21862   */\n      dup3\n        /* \"#utility.yul\":21804:21871   */\n      tag_467\n      jump\t// in\n    tag_695:\n        /* \"#utility.yul\":21798:21802   */\n      dup7\n        /* \"#utility.yul\":21791:21872   */\n      sstore\n        /* \"#utility.yul\":21660:21882   */\n      pop\n        /* \"#utility.yul\":20995:21882   */\n      jump(tag_692)\n        /* \"#utility.yul\":21025:21643   */\n    tag_693:\n        /* \"#utility.yul\":21077:21081   */\n      0x1f\n        /* \"#utility.yul\":21073:21082   */\n      not\n        /* \"#utility.yul\":21065:21071   */\n      dup5\n        /* \"#utility.yul\":21061:21083   */\n      and\n        /* \"#utility.yul\":21111:21148   */\n      tag_696\n        /* \"#utility.yul\":21143:21147   */\n      dup7\n        /* \"#utility.yul\":21111:21148   */\n      tag_453\n      jump\t// in\n    tag_696:\n        /* \"#utility.yul\":21170:21171   */\n      0x00\n        /* \"#utility.yul\":21184:21392   */\n    tag_697:\n        /* \"#utility.yul\":21198:21205   */\n      dup3\n        /* \"#utility.yul\":21195:21196   */\n      dup2\n        /* \"#utility.yul\":21192:21206   */\n      lt\n        /* \"#utility.yul\":21184:21392   */\n      iszero\n      tag_699\n      jumpi\n        /* \"#utility.yul\":21277:21286   */\n      dup5\n        /* \"#utility.yul\":21272:21275   */\n      dup10\n        /* \"#utility.yul\":21268:21287   */\n      add\n        /* \"#utility.yul\":21262:21288   */\n      mload\n        /* \"#utility.yul\":21254:21260   */\n      dup3\n        /* \"#utility.yul\":21247:21289   */\n      sstore\n        /* \"#utility.yul\":21328:21329   */\n      0x01\n        /* \"#utility.yul\":21320:21326   */\n      dup3\n        /* \"#utility.yul\":21316:21330   */\n      add\n        /* \"#utility.yul\":21306:21330   */\n      swap2\n      pop\n        /* \"#utility.yul\":21375:21377   */\n      0x20\n        /* \"#utility.yul\":21364:21373   */\n      dup6\n        /* \"#utility.yul\":21360:21378   */\n      add\n        /* \"#utility.yul\":21347:21378   */\n      swap5\n      pop\n        /* \"#utility.yul\":21221:21225   */\n      0x20\n        /* \"#utility.yul\":21218:21219   */\n      dup2\n        /* \"#utility.yul\":21214:21226   */\n      add\n        /* \"#utility.yul\":21209:21226   */\n      swap1\n      pop\n        /* \"#utility.yul\":21184:21392   */\n      jump(tag_697)\n    tag_699:\n        /* \"#utility.yul\":21420:21426   */\n      dup7\n        /* \"#utility.yul\":21411:21418   */\n      dup4\n        /* \"#utility.yul\":21408:21427   */\n      lt\n        /* \"#utility.yul\":21405:21584   */\n      iszero\n      tag_700\n      jumpi\n        /* \"#utility.yul\":21478:21487   */\n      dup5\n        /* \"#utility.yul\":21473:21476   */\n      dup10\n        /* \"#utility.yul\":21469:21488   */\n      add\n        /* \"#utility.yul\":21463:21489   */\n      mload\n        /* \"#utility.yul\":21521:21569   */\n      tag_701\n        /* \"#utility.yul\":21563:21567   */\n      0x1f\n        /* \"#utility.yul\":21555:21561   */\n      dup10\n        /* \"#utility.yul\":21551:21568   */\n      and\n        /* \"#utility.yul\":21540:21549   */\n      dup3\n        /* \"#utility.yul\":21521:21569   */\n      tag_466\n      jump\t// in\n    tag_701:\n        /* \"#utility.yul\":21513:21519   */\n      dup4\n        /* \"#utility.yul\":21506:21570   */\n      sstore\n        /* \"#utility.yul\":21428:21584   */\n      pop\n        /* \"#utility.yul\":21405:21584   */\n    tag_700:\n        /* \"#utility.yul\":21630:21631   */\n      0x01\n        /* \"#utility.yul\":21626:21627   */\n      0x02\n        /* \"#utility.yul\":21618:21624   */\n      dup9\n        /* \"#utility.yul\":21614:21628   */\n      mul\n        /* \"#utility.yul\":21610:21632   */\n      add\n        /* \"#utility.yul\":21604:21608   */\n      dup9\n        /* \"#utility.yul\":21597:21633   */\n      sstore\n        /* \"#utility.yul\":21032:21643   */\n      pop\n      pop\n      pop\n        /* \"#utility.yul\":20995:21882   */\n    tag_692:\n      pop\n        /* \"#utility.yul\":20585:21888   */\n      pop\n      pop\n      pop\n        /* \"#utility.yul\":20493:21888   */\n      pop\n      pop\n      jump\t// out\n        /* \"#utility.yul\":21894:22057   */\n    tag_468:\n        /* \"#utility.yul\":22034:22049   */\n      0x4e6f7420746865206f776e657200000000000000000000000000000000000000\n        /* \"#utility.yul\":22030:22031   */\n      0x00\n        /* \"#utility.yul\":22022:22028   */\n      dup3\n        /* \"#utility.yul\":22018:22032   */\n      add\n        /* \"#utility.yul\":22011:22050   */\n      mstore\n        /* \"#utility.yul\":21894:22057   */\n      pop\n      jump\t// out\n        /* \"#utility.yul\":22063:22429   */\n    tag_469:\n        /* \"#utility.yul\":22205:22208   */\n      0x00\n        /* \"#utility.yul\":22226:22293   */\n      tag_704\n        /* \"#utility.yul\":22290:22292   */\n      0x0d\n        /* \"#utility.yul\":22285:22288   */\n      dup4\n        /* \"#utility.yul\":22226:22293   */\n      tag_433\n      jump\t// in\n    tag_704:\n        /* \"#utility.yul\":22219:22293   */\n      swap2\n      pop\n        /* \"#utility.yul\":22302:22395   */\n      tag_705\n        /* \"#utility.yul\":22391:22394   */\n      dup3\n        /* \"#utility.yul\":22302:22395   */\n      tag_468\n      jump\t// in\n    tag_705:\n        /* \"#utility.yul\":22420:22422   */\n      0x20\n        /* \"#utility.yul\":22415:22418   */\n      dup3\n        /* \"#utility.yul\":22411:22423   */\n      add\n        /* \"#utility.yul\":22404:22423   */\n      swap1\n      pop\n        /* \"#utility.yul\":22063:22429   */\n      swap2\n      swap1\n      pop\n      jump\t// out\n        /* \"#utility.yul\":22435:22854   */\n    tag_151:\n        /* \"#utility.yul\":22601:22605   */\n      0x00\n        /* \"#utility.yul\":22639:22641   */\n      0x20\n        /* \"#utility.yul\":22628:22637   */\n      dup3\n        /* \"#utility.yul\":22624:22642   */\n      add\n        /* \"#utility.yul\":22616:22642   */\n      swap1\n      pop\n        /* \"#utility.yul\":22688:22697   */\n      dup2\n        /* \"#utility.yul\":22682:22686   */\n      dup2\n        /* \"#utility.yul\":22678:22698   */\n      sub\n        /* \"#utility.yul\":22674:22675   */\n      0x00\n        /* \"#utility.yul\":22663:22672   */\n      dup4\n        /* \"#utility.yul\":22659:22676   */\n      add\n        /* \"#utility.yul\":22652:22699   */\n      mstore\n        /* \"#utility.yul\":22716:22847   */\n      tag_707\n        /* \"#utility.yul\":22842:22846   */\n      dup2\n        /* \"#utility.yul\":22716:22847   */\n      tag_469\n      jump\t// in\n    tag_707:\n        /* \"#utility.yul\":22708:22847   */\n      swap1\n      pop\n        /* \"#utility.yul\":22435:22854   */\n      swap2\n      swap1\n      pop\n      jump\t// out\n        /* \"#utility.yul\":22860:23054   */\n    tag_176:\n        /* \"#utility.yul\":22900:22904   */\n      0x00\n        /* \"#utility.yul\":22920:22940   */\n      tag_709\n        /* \"#utility.yul\":22938:22939   */\n      dup3\n        /* \"#utility.yul\":22920:22940   */\n      tag_436\n      jump\t// in\n    tag_709:\n        /* \"#utility.yul\":22915:22940   */\n      swap2\n      pop\n        /* \"#utility.yul\":22954:22974   */\n      tag_710\n        /* \"#utility.yul\":22972:22973   */\n      dup4\n        /* \"#utility.yul\":22954:22974   */\n      tag_436\n      jump\t// in\n    tag_710:\n        /* \"#utility.yul\":22949:22974   */\n      swap3\n      pop\n        /* \"#utility.yul\":22998:22999   */\n      dup3\n        /* \"#utility.yul\":22995:22996   */\n      dup3\n        /* \"#utility.yul\":22991:23000   */\n      sub\n        /* \"#utility.yul\":22983:23000   */\n      swap1\n      pop\n        /* \"#utility.yul\":23022:23023   */\n      dup2\n        /* \"#utility.yul\":23016:23020   */\n      dup2\n        /* \"#utility.yul\":23013:23024   */\n      gt\n        /* \"#utility.yul\":23010:23047   */\n      iszero\n      tag_711\n      jumpi\n        /* \"#utility.yul\":23027:23045   */\n      tag_712\n      tag_451\n      jump\t// in\n    tag_712:\n        /* \"#utility.yul\":23010:23047   */\n    tag_711:\n        /* \"#utility.yul\":22860:23054   */\n      swap3\n      swap2\n      pop\n      pop\n      jump\t// out\n        /* \"#utility.yul\":23060:23240   */\n    tag_184:\n        /* \"#utility.yul\":23108:23185   */\n      0x4e487b7100000000000000000000000000000000000000000000000000000000\n        /* \"#utility.yul\":23105:23106   */\n      0x00\n        /* \"#utility.yul\":23098:23186   */\n      mstore\n        /* \"#utility.yul\":23205:23209   */\n      0x31\n        /* \"#utility.yul\":23202:23203   */\n      0x04\n        /* \"#utility.yul\":23195:23210   */\n      mstore\n        /* \"#utility.yul\":23229:23233   */\n      0x24\n        /* \"#utility.yul\":23226:23227   */\n      0x00\n        /* \"#utility.yul\":23219:23234   */\n      revert\n        /* \"#utility.yul\":23246:23417   */\n    tag_194:\n        /* \"#utility.yul\":23285:23288   */\n      0x00\n        /* \"#utility.yul\":23308:23332   */\n      tag_715\n        /* \"#utility.yul\":23326:23331   */\n      dup3\n        /* \"#utility.yul\":23308:23332   */\n      tag_436\n      jump\t// in\n    tag_715:\n        /* \"#utility.yul\":23299:23332   */\n      swap2\n      pop\n        /* \"#utility.yul\":23354:23358   */\n      0x00\n        /* \"#utility.yul\":23347:23352   */\n      dup3\n        /* \"#utility.yul\":23344:23359   */\n      sub\n        /* \"#utility.yul\":23341:23382   */\n      tag_716\n      jumpi\n        /* \"#utility.yul\":23362:23380   */\n      tag_717\n      tag_451\n      jump\t// in\n    tag_717:\n        /* \"#utility.yul\":23341:23382   */\n    tag_716:\n        /* \"#utility.yul\":23409:23410   */\n      0x01\n        /* \"#utility.yul\":23402:23407   */\n      dup3\n        /* \"#utility.yul\":23398:23411   */\n      sub\n        /* \"#utility.yul\":23391:23411   */\n      swap1\n      pop\n        /* \"#utility.yul\":23246:23417   */\n      swap2\n      swap1\n      pop\n      jump\t// out\n        /* \"#utility.yul\":23423:23571   */\n    tag_470:\n        /* \"#utility.yul\":23525:23536   */\n      0x00\n        /* \"#utility.yul\":23562:23565   */\n      dup2\n        /* \"#utility.yul\":23547:23565   */\n      swap1\n      pop\n        /* \"#utility.yul\":23423:23571   */\n      swap3\n      swap2\n      pop\n      pop\n      jump\t// out\n        /* \"#utility.yul\":23577:23728   */\n    tag_471:\n        /* \"#utility.yul\":23717:23720   */\n      0x3000000000000000000000000000000000000000000000000000000000000000\n        /* \"#utility.yul\":23713:23714   */\n      0x00\n        /* \"#utility.yul\":23705:23711   */\n      dup3\n        /* \"#utility.yul\":23701:23715   */\n      add\n        /* \"#utility.yul\":23694:23721   */\n      mstore\n        /* \"#utility.yul\":23577:23728   */\n      pop\n      jump\t// out\n        /* \"#utility.yul\":23734:24134   */\n    tag_472:\n        /* \"#utility.yul\":23894:23897   */\n      0x00\n        /* \"#utility.yul\":23915:23999   */\n      tag_721\n        /* \"#utility.yul\":23997:23998   */\n      0x01\n        /* \"#utility.yul\":23992:23995   */\n      dup4\n        /* \"#utility.yul\":23915:23999   */\n      tag_470\n      jump\t// in\n    tag_721:\n        /* \"#utility.yul\":23908:23999   */\n      swap2\n      pop\n        /* \"#utility.yul\":24008:24101   */\n      tag_722\n        /* \"#utility.yul\":24097:24100   */\n      dup3\n        /* \"#utility.yul\":24008:24101   */\n      tag_471\n      jump\t// in\n    tag_722:\n        /* \"#utility.yul\":24126:24127   */\n      0x01\n        /* \"#utility.yul\":24121:24124   */\n      dup3\n        /* \"#utility.yul\":24117:24128   */\n      add\n        /* \"#utility.yul\":24110:24128   */\n      swap1\n      pop\n        /* \"#utility.yul\":23734:24134   */\n      swap2\n      swap1\n      pop\n      jump\t// out\n        /* \"#utility.yul\":24140:24521   */\n    tag_197:\n        /* \"#utility.yul\":24325:24328   */\n      0x00\n        /* \"#utility.yul\":24347:24495   */\n      tag_724\n        /* \"#utility.yul\":24491:24494   */\n      dup3\n        /* \"#utility.yul\":24347:24495   */\n      tag_472\n      jump\t// in\n    tag_724:\n        /* \"#utility.yul\":24340:24495   */\n      swap2\n      pop\n        /* \"#utility.yul\":24512:24515   */\n      dup2\n        /* \"#utility.yul\":24505:24515   */\n      swap1\n      pop\n        /* \"#utility.yul\":24140:24521   */\n      swap2\n      swap1\n      pop\n      jump\t// out\n        /* \"#utility.yul\":24551:25425   */\n    tag_473:\n        /* \"#utility.yul\":24654:24657   */\n      0x00\n        /* \"#utility.yul\":24691:24696   */\n      dup2\n        /* \"#utility.yul\":24685:24697   */\n      sload\n        /* \"#utility.yul\":24720:24756   */\n      tag_726\n        /* \"#utility.yul\":24746:24755   */\n      dup2\n        /* \"#utility.yul\":24720:24756   */\n      tag_155\n      jump\t// in\n    tag_726:\n        /* \"#utility.yul\":24772:24861   */\n      tag_727\n        /* \"#utility.yul\":24854:24860   */\n      dup2\n        /* \"#utility.yul\":24849:24852   */\n      dup7\n        /* \"#utility.yul\":24772:24861   */\n      tag_470\n      jump\t// in\n    tag_727:\n        /* \"#utility.yul\":24765:24861   */\n      swap5\n      pop\n        /* \"#utility.yul\":24892:24893   */\n      0x01\n        /* \"#utility.yul\":24881:24890   */\n      dup3\n        /* \"#utility.yul\":24877:24894   */\n      and\n        /* \"#utility.yul\":24908:24909   */\n      0x00\n        /* \"#utility.yul\":24903:25069   */\n      dup2\n      eq\n      tag_729\n      jumpi\n        /* \"#utility.yul\":25083:25084   */\n      0x01\n        /* \"#utility.yul\":25078:25419   */\n      dup2\n      eq\n      tag_730\n      jumpi\n        /* \"#utility.yul\":24870:25419   */\n      jump(tag_728)\n        /* \"#utility.yul\":24903:25069   */\n    tag_729:\n        /* \"#utility.yul\":24987:24991   */\n      0xff\n        /* \"#utility.yul\":24983:24992   */\n      not\n        /* \"#utility.yul\":24972:24981   */\n      dup4\n        /* \"#utility.yul\":24968:24993   */\n      and\n        /* \"#utility.yul\":24963:24966   */\n      dup7\n        /* \"#utility.yul\":24956:24994   */\n      mstore\n        /* \"#utility.yul\":25049:25055   */\n      dup2\n        /* \"#utility.yul\":25042:25056   */\n      iszero\n        /* \"#utility.yul\":25035:25057   */\n      iszero\n        /* \"#utility.yul\":25027:25033   */\n      dup3\n        /* \"#utility.yul\":25023:25058   */\n      mul\n        /* \"#utility.yul\":25018:25021   */\n      dup7\n        /* \"#utility.yul\":25014:25059   */\n      add\n        /* \"#utility.yul\":25007:25059   */\n      swap4\n      pop\n        /* \"#utility.yul\":24903:25069   */\n      jump(tag_728)\n        /* \"#utility.yul\":25078:25419   */\n    tag_730:\n        /* \"#utility.yul\":25145:25183   */\n      tag_731\n        /* \"#utility.yul\":25177:25182   */\n      dup6\n        /* \"#utility.yul\":25145:25183   */\n      tag_453\n      jump\t// in\n    tag_731:\n        /* \"#utility.yul\":25205:25206   */\n      0x00\n        /* \"#utility.yul\":25219:25373   */\n    tag_732:\n        /* \"#utility.yul\":25233:25239   */\n      dup4\n        /* \"#utility.yul\":25230:25231   */\n      dup2\n        /* \"#utility.yul\":25227:25240   */\n      lt\n        /* \"#utility.yul\":25219:25373   */\n      iszero\n      tag_734\n      jumpi\n        /* \"#utility.yul\":25307:25314   */\n      dup2\n        /* \"#utility.yul\":25301:25315   */\n      sload\n        /* \"#utility.yul\":25297:25298   */\n      dup2\n        /* \"#utility.yul\":25292:25295   */\n      dup10\n        /* \"#utility.yul\":25288:25299   */\n      add\n        /* \"#utility.yul\":25281:25316   */\n      mstore\n        /* \"#utility.yul\":25357:25358   */\n      0x01\n        /* \"#utility.yul\":25348:25355   */\n      dup3\n        /* \"#utility.yul\":25344:25359   */\n      add\n        /* \"#utility.yul\":25333:25359   */\n      swap2\n      pop\n        /* \"#utility.yul\":25255:25259   */\n      0x20\n        /* \"#utility.yul\":25252:25253   */\n      dup2\n        /* \"#utility.yul\":25248:25260   */\n      add\n        /* \"#utility.yul\":25243:25260   */\n      swap1\n      pop\n        /* \"#utility.yul\":25219:25373   */\n      jump(tag_732)\n    tag_734:\n        /* \"#utility.yul\":25402:25408   */\n      dup4\n        /* \"#utility.yul\":25397:25400   */\n      dup9\n        /* \"#utility.yul\":25393:25409   */\n      add\n        /* \"#utility.yul\":25386:25409   */\n      swap6\n      pop\n        /* \"#utility.yul\":25085:25419   */\n      pop\n      pop\n        /* \"#utility.yul\":24870:25419   */\n    tag_728:\n      pop\n        /* \"#utility.yul\":24658:25425   */\n      pop\n      pop\n        /* \"#utility.yul\":24551:25425   */\n      swap3\n      swap2\n      pop\n      pop\n      jump\t// out\n        /* \"#utility.yul\":25431:25700   */\n    tag_199:\n        /* \"#utility.yul\":25560:25563   */\n      0x00\n        /* \"#utility.yul\":25582:25674   */\n      tag_736\n        /* \"#utility.yul\":25670:25673   */\n      dup3\n        /* \"#utility.yul\":25661:25667   */\n      dup5\n        /* \"#utility.yul\":25582:25674   */\n      tag_473\n      jump\t// in\n    tag_736:\n        /* \"#utility.yul\":25575:25674   */\n      swap2\n      pop\n        /* \"#utility.yul\":25691:25694   */\n      dup2\n        /* \"#utility.yul\":25684:25694   */\n      swap1\n      pop\n        /* \"#utility.yul\":25431:25700   */\n      swap3\n      swap2\n      pop\n      pop\n      jump\t// out\n        /* \"#utility.yul\":25706:25869   */\n    tag_474:\n        /* \"#utility.yul\":25846:25861   */\n      0x496e76616c696420696e64657800000000000000000000000000000000000000\n        /* \"#utility.yul\":25842:25843   */\n      0x00\n        /* \"#utility.yul\":25834:25840   */\n      dup3\n        /* \"#utility.yul\":25830:25844   */\n      add\n        /* \"#utility.yul\":25823:25862   */\n      mstore\n        /* \"#utility.yul\":25706:25869   */\n      pop\n      jump\t// out\n        /* \"#utility.yul\":25875:26241   */\n    tag_475:\n        /* \"#utility.yul\":26017:26020   */\n      0x00\n        /* \"#utility.yul\":26038:26105   */\n      tag_739\n        /* \"#utility.yul\":26102:26104   */\n      0x0d\n        /* \"#utility.yul\":26097:26100   */\n      dup4\n        /* \"#utility.yul\":26038:26105   */\n      tag_433\n      jump\t// in\n    tag_739:\n        /* \"#utility.yul\":26031:26105   */\n      swap2\n      pop\n        /* \"#utility.yul\":26114:26207   */\n      tag_740\n        /* \"#utility.yul\":26203:26206   */\n      dup3\n        /* \"#utility.yul\":26114:26207   */\n      tag_474\n      jump\t// in\n    tag_740:\n        /* \"#utility.yul\":26232:26234   */\n      0x20\n        /* \"#utility.yul\":26227:26230   */\n      dup3\n        /* \"#utility.yul\":26223:26235   */\n      add\n        /* \"#utility.yul\":26216:26235   */\n      swap1\n      pop\n        /* \"#utility.yul\":25875:26241   */\n      swap2\n      swap1\n      pop\n      jump\t// out\n        /* \"#utility.yul\":26247:26666   */\n    tag_232:\n        /* \"#utility.yul\":26413:26417   */\n      0x00\n        /* \"#utility.yul\":26451:26453   */\n      0x20\n        /* \"#utility.yul\":26440:26449   */\n      dup3\n        /* \"#utility.yul\":26436:26454   */\n      add\n        /* \"#utility.yul\":26428:26454   */\n      swap1\n      pop\n        /* \"#utility.yul\":26500:26509   */\n      dup2\n        /* \"#utility.yul\":26494:26498   */\n      dup2\n        /* \"#utility.yul\":26490:26510   */\n      sub\n        /* \"#utility.yul\":26486:26487   */\n      0x00\n        /* \"#utility.yul\":26475:26484   */\n      dup4\n        /* \"#utility.yul\":26471:26488   */\n      add\n        /* \"#utility.yul\":26464:26511   */\n      mstore\n        /* \"#utility.yul\":26528:26659   */\n      tag_742\n        /* \"#utility.yul\":26654:26658   */\n      dup2\n        /* \"#utility.yul\":26528:26659   */\n      tag_475\n      jump\t// in\n    tag_742:\n        /* \"#utility.yul\":26520:26659   */\n      swap1\n      pop\n        /* \"#utility.yul\":26247:26666   */\n      swap2\n      swap1\n      pop\n      jump\t// out\n        /* \"#utility.yul\":26672:27062   */\n    tag_476:\n        /* \"#utility.yul\":26778:26781   */\n      0x00\n        /* \"#utility.yul\":26806:26845   */\n      tag_744\n        /* \"#utility.yul\":26839:26844   */\n      dup3\n        /* \"#utility.yul\":26806:26845   */\n      tag_432\n      jump\t// in\n    tag_744:\n        /* \"#utility.yul\":26861:26950   */\n      tag_745\n        /* \"#utility.yul\":26943:26949   */\n      dup2\n        /* \"#utility.yul\":26938:26941   */\n      dup6\n        /* \"#utility.yul\":26861:26950   */\n      tag_470\n      jump\t// in\n    tag_745:\n        /* \"#utility.yul\":26854:26950   */\n      swap4\n      pop\n        /* \"#utility.yul\":26959:27024   */\n      tag_746\n        /* \"#utility.yul\":27017:27023   */\n      dup2\n        /* \"#utility.yul\":27012:27015   */\n      dup6\n        /* \"#utility.yul\":27005:27009   */\n      0x20\n        /* \"#utility.yul\":26998:27003   */\n      dup7\n        /* \"#utility.yul\":26994:27010   */\n      add\n        /* \"#utility.yul\":26959:27024   */\n      tag_434\n      jump\t// in\n    tag_746:\n        /* \"#utility.yul\":27049:27055   */\n      dup1\n        /* \"#utility.yul\":27044:27047   */\n      dup5\n        /* \"#utility.yul\":27040:27056   */\n      add\n        /* \"#utility.yul\":27033:27056   */\n      swap2\n      pop\n        /* \"#utility.yul\":26782:27062   */\n      pop\n        /* \"#utility.yul\":26672:27062   */\n      swap3\n      swap2\n      pop\n      pop\n      jump\t// out\n        /* \"#utility.yul\":27068:27343   */\n    tag_259:\n        /* \"#utility.yul\":27200:27203   */\n      0x00\n        /* \"#utility.yul\":27222:27317   */\n      tag_748\n        /* \"#utility.yul\":27313:27316   */\n      dup3\n        /* \"#utility.yul\":27304:27310   */\n      dup5\n        /* \"#utility.yul\":27222:27317   */\n      tag_476\n      jump\t// in\n    tag_748:\n        /* \"#utility.yul\":27215:27317   */\n      swap2\n      pop\n        /* \"#utility.yul\":27334:27337   */\n      dup2\n        /* \"#utility.yul\":27327:27337   */\n      swap1\n      pop\n        /* \"#utility.yul\":27068:27343   */\n      swap3\n      swap2\n      pop\n      pop\n      jump\t// out\n        /* \"#utility.yul\":27349:27500   */\n    tag_477:\n        /* \"#utility.yul\":27489:27492   */\n      0x3100000000000000000000000000000000000000000000000000000000000000\n        /* \"#utility.yul\":27485:27486   */\n      0x00\n        /* \"#utility.yul\":27477:27483   */\n      dup3\n        /* \"#utility.yul\":27473:27487   */\n      add\n        /* \"#utility.yul\":27466:27493   */\n      mstore\n        /* \"#utility.yul\":27349:27500   */\n      pop\n      jump\t// out\n        /* \"#utility.yul\":27506:27906   */\n    tag_478:\n        /* \"#utility.yul\":27666:27669   */\n      0x00\n        /* \"#utility.yul\":27687:27771   */\n      tag_751\n        /* \"#utility.yul\":27769:27770   */\n      0x01\n        /* \"#utility.yul\":27764:27767   */\n      dup4\n        /* \"#utility.yul\":27687:27771   */\n      tag_470\n      jump\t// in\n    tag_751:\n        /* \"#utility.yul\":27680:27771   */\n      swap2\n      pop\n        /* \"#utility.yul\":27780:27873   */\n      tag_752\n        /* \"#utility.yul\":27869:27872   */\n      dup3\n        /* \"#utility.yul\":27780:27873   */\n      tag_477\n      jump\t// in\n    tag_752:\n        /* \"#utility.yul\":27898:27899   */\n      0x01\n        /* \"#utility.yul\":27893:27896   */\n      dup3\n        /* \"#utility.yul\":27889:27900   */\n      add\n        /* \"#utility.yul\":27882:27900   */\n      swap1\n      pop\n        /* \"#utility.yul\":27506:27906   */\n      swap2\n      swap1\n      pop\n      jump\t// out\n        /* \"#utility.yul\":27912:28293   */\n    tag_262:\n        /* \"#utility.yul\":28097:28100   */\n      0x00\n        /* \"#utility.yul\":28119:28267   */\n      tag_754\n        /* \"#utility.yul\":28263:28266   */\n      dup3\n        /* \"#utility.yul\":28119:28267   */\n      tag_478\n      jump\t// in\n    tag_754:\n        /* \"#utility.yul\":28112:28267   */\n      swap2\n      pop\n        /* \"#utility.yul\":28284:28287   */\n      dup2\n        /* \"#utility.yul\":28277:28287   */\n      swap1\n      pop\n        /* \"#utility.yul\":27912:28293   */\n      swap2\n      swap1\n      pop\n      jump\t// out\n        /* \"#utility.yul\":28299:28472   */\n    tag_479:\n        /* \"#utility.yul\":28439:28464   */\n      0x4d6f6465206d75737420626520273027206f7220273127000000000000000000\n        /* \"#utility.yul\":28435:28436   */\n      0x00\n        /* \"#utility.yul\":28427:28433   */\n      dup3\n        /* \"#utility.yul\":28423:28437   */\n      add\n        /* \"#utility.yul\":28416:28465   */\n      mstore\n        /* \"#utility.yul\":28299:28472   */\n      pop\n      jump\t// out\n        /* \"#utility.yul\":28478:28844   */\n    tag_480:\n        /* \"#utility.yul\":28620:28623   */\n      0x00\n        /* \"#utility.yul\":28641:28708   */\n      tag_757\n        /* \"#utility.yul\":28705:28707   */\n      0x17\n        /* \"#utility.yul\":28700:28703   */\n      dup4\n        /* \"#utility.yul\":28641:28708   */\n      tag_433\n      jump\t// in\n    tag_757:\n        /* \"#utility.yul\":28634:28708   */\n      swap2\n      pop\n        /* \"#utility.yul\":28717:28810   */\n      tag_758\n        /* \"#utility.yul\":28806:28809   */\n      dup3\n        /* \"#utility.yul\":28717:28810   */\n      tag_479\n      jump\t// in\n    tag_758:\n        /* \"#utility.yul\":28835:28837   */\n      0x20\n        /* \"#utility.yul\":28830:28833   */\n      dup3\n        /* \"#utility.yul\":28826:28838   */\n      add\n        /* \"#utility.yul\":28819:28838   */\n      swap1\n      pop\n        /* \"#utility.yul\":28478:28844   */\n      swap2\n      swap1\n      pop\n      jump\t// out\n        /* \"#utility.yul\":28850:29269   */\n    tag_266:\n        /* \"#utility.yul\":29016:29020   */\n      0x00\n        /* \"#utility.yul\":29054:29056   */\n      0x20\n        /* \"#utility.yul\":29043:29052   */\n      dup3\n        /* \"#utility.yul\":29039:29057   */\n      add\n        /* \"#utility.yul\":29031:29057   */\n      swap1\n      pop\n        /* \"#utility.yul\":29103:29112   */\n      dup2\n        /* \"#utility.yul\":29097:29101   */\n      dup2\n        /* \"#utility.yul\":29093:29113   */\n      sub\n        /* \"#utility.yul\":29089:29090   */\n      0x00\n        /* \"#utility.yul\":29078:29087   */\n      dup4\n        /* \"#utility.yul\":29074:29091   */\n      add\n        /* \"#utility.yul\":29067:29114   */\n      mstore\n        /* \"#utility.yul\":29131:29262   */\n      tag_760\n        /* \"#utility.yul\":29257:29261   */\n      dup2\n        /* \"#utility.yul\":29131:29262   */\n      tag_480\n      jump\t// in\n    tag_760:\n        /* \"#utility.yul\":29123:29262   */\n      swap1\n      pop\n        /* \"#utility.yul\":28850:29269   */\n      swap2\n      swap1\n      pop\n      jump\t// out\n        /* \"#utility.yul\":29275:29508   */\n    tag_354:\n        /* \"#utility.yul\":29314:29317   */\n      0x00\n        /* \"#utility.yul\":29337:29361   */\n      tag_762\n        /* \"#utility.yul\":29355:29360   */\n      dup3\n        /* \"#utility.yul\":29337:29361   */\n      tag_436\n      jump\t// in\n    tag_762:\n        /* \"#utility.yul\":29328:29361   */\n      swap2\n      pop\n        /* \"#utility.yul\":29383:29449   */\n      0xffffffffffffffffffffffffffffffffffffffffffffffffffffffffffffffff\n        /* \"#utility.yul\":29376:29381   */\n      dup3\n        /* \"#utility.yul\":29373:29450   */\n      sub\n        /* \"#utility.yul\":29370:29473   */\n      tag_763\n      jumpi\n        /* \"#utility.yul\":29453:29471   */\n      tag_764\n      tag_451\n      jump\t// in\n    tag_764:\n        /* \"#utility.yul\":29370:29473   */\n    tag_763:\n        /* \"#utility.yul\":29500:29501   */\n      0x01\n        /* \"#utility.yul\":29493:29498   */\n      dup3\n        /* \"#utility.yul\":29489:29502   */\n      add\n        /* \"#utility.yul\":29482:29502   */\n      swap1\n      pop\n        /* \"#utility.yul\":29275:29508   */\n      swap2\n      swap1\n      pop\n      jump\t// out\n        /* \"#utility.yul\":29514:29699   */\n    tag_384:\n        /* \"#utility.yul\":29554:29555   */\n      0x00\n        /* \"#utility.yul\":29571:29591   */\n      tag_766\n        /* \"#utility.yul\":29589:29590   */\n      dup3\n        /* \"#utility.yul\":29571:29591   */\n      tag_436\n      jump\t// in\n    tag_766:\n        /* \"#utility.yul\":29566:29591   */\n      swap2\n      pop\n        /* \"#utility.yul\":29605:29625   */\n      tag_767\n        /* \"#utility.yul\":29623:29624   */\n      dup4\n        /* \"#utility.yul\":29605:29625   */\n      tag_436\n      jump\t// in\n    tag_767:\n        /* \"#utility.yul\":29600:29625   */\n      swap3\n      pop\n        /* \"#utility.yul\":29644:29645   */\n      dup3\n        /* \"#utility.yul\":29634:29669   */\n      tag_768\n      jumpi\n        /* \"#utility.yul\":29649:29667   */\n      tag_769\n      tag_448\n      jump\t// in\n    tag_769:\n        /* \"#utility.yul\":29634:29669   */\n    tag_768:\n        /* \"#utility.yul\":29691:29692   */\n      dup3\n        /* \"#utility.yul\":29688:29689   */\n      dup3\n        /* \"#utility.yul\":29684:29693   */\n      div\n        /* \"#utility.yul\":29679:29693   */\n      swap1\n      pop\n        /* \"#utility.yul\":29514:29699   */\n      swap3\n      swap2\n      pop\n      pop\n      jump\t// out\n\n    auxdata: 0xa264697066735822122060085bcb4438133b99347c337c97ca77132d7eecce8ccc67dc8c77299efc7d3464736f6c634300081a0033\n}\n",
				"bytecode": {
					"linkReferences": {},
					"object": "60806040526040518060400160405280600181526020017f30000000000000000000000000000000000000000000000000000000000000008152505f9081610047919061040b565b506040518060400160405280601481526020017f68747470733a2f2f7777772e746a6f2e6172742f0000000000000000000000008152506004908161008c919061040b565b506040518060400160405280601881526020017f68747470733a2f2f65746865727363616e2e696f2f74782f0000000000000000815250600590816100d1919061040b565b506040518060400160405280601a81526020017f68747470733a2f2f616e647265776d69746368656c6c2e78797a00000000000081525060069081610116919061040b565b50348015610122575f80fd5b503360035f6101000a81548173ffffffffffffffffffffffffffffffffffffffff021916908373ffffffffffffffffffffffffffffffffffffffff160217905550600160025f73f1da6e2d387e9da611dac8a7fc587eaa4b01001373ffffffffffffffffffffffffffffffffffffffff1673ffffffffffffffffffffffffffffffffffffffff1681526020019081526020015f205f6101000a81548160ff0219169083151502179055506104da565b5f81519050919050565b7f4e487b71000000000000000000000000000000000000000000000000000000005f52604160045260245ffd5b7f4e487b71000000000000000000000000000000000000000000000000000000005f52602260045260245ffd5b5f600282049050600182168061024c57607f821691505b60208210810361025f5761025e610208565b5b50919050565b5f819050815f5260205f209050919050565b5f6020601f8301049050919050565b5f82821b905092915050565b5f600883026102c17fffffffffffffffffffffffffffffffffffffffffffffffffffffffffffffffff82610286565b6102cb8683610286565b95508019841693508086168417925050509392505050565b5f819050919050565b5f819050919050565b5f61030f61030a610305846102e3565b6102ec565b6102e3565b9050919050565b5f819050919050565b610328836102f5565b61033c61033482610316565b848454610292565b825550505050565b5f90565b610350610344565b61035b81848461031f565b505050565b5b8181101561037e576103735f82610348565b600181019050610361565b5050565b601f8211156103c35761039481610265565b61039d84610277565b810160208510156103ac578190505b6103c06103b885610277565b830182610360565b50505b505050565b5f82821c905092915050565b5f6103e35f19846008026103c8565b1980831691505092915050565b5f6103fb83836103d4565b9150826002028217905092915050565b610414826101d1565b67ffffffffffffffff81111561042d5761042c6101db565b5b6104378254610235565b610442828285610382565b5f60209050601f831160018114610473575f8415610461578287015190505b61046b85826103f0565b8655506104d2565b601f19841661048186610265565b5f5b828110156104a857848901518255600182019150602085019450602081019050610483565b868310156104c557848901516104c1601f8916826103d4565b8355505b6001600288020188555050505b505050505050565b613139806104e75f395ff3fe608060405234801561000f575f80fd5b5060043610610140575f3560e01c806385e68531116100b6578063a84fd0ed1161007a578063a84fd0ed14610328578063a9c598b914610344578063b30906d414610360578063bae78d7b14610394578063c41f0cac146103c4578063c5532468146103e057610140565b806385e685311461028257806387a5b67c1461029e5780638da5cb5b146102ce578063927947b4146102ec5780639ef96d1f1461030a57610140565b806348cece841161010857806348cece84146101d65780634b4fd03b146101f257806352baf08f1461021057806357c8be661461022c578063721768581461024857806382cb36f61461026657610140565b806306a7bd99146101445780630ae5e739146101605780630d8550e11461017c57806312d491c91461019a578063295a5212146101b8575b5f80fd5b61015e600480360381019061015991906122f8565b6103fe565b005b61017a60048036038101906101759190612399565b610702565b005b6101846107e9565b6040516101919190612424565b60405180910390f35b6101a2610879565b6040516101af9190612424565b60405180910390f35b6101c061088e565b6040516101cd9190612424565b60405180910390f35b6101f060048036038101906101eb9190612477565b610919565b005b6101fa610ad9565b6040516102079190612424565b60405180910390f35b61022a600480360381019061022591906122f8565b610ba3565b005b610246600480360381019061024191906124a2565b610c96565b005b610250610e3a565b60405161025d9190612424565b60405180910390f35b610280600480360381019061027b91906125a5565b610eca565b005b61029c60048036038101906102979190612399565b6110af565b005b6102b860048036038101906102b39190612399565b611195565b6040516102c591906126d4565b60405180910390f35b6102d66111b2565b6040516102e391906126fc565b60405180910390f35b6102f46111d7565b6040516103019190612724565b60405180910390f35b6103126111e3565b60405161031f9190612424565b60405180910390f35b610342600480360381019061033d91906122f8565b611273565b005b61035e600480360381019061035991906122f8565b611445565b005b61037a60048036038101906103759190612477565b611538565b60405161038b95949392919061273d565b60405180910390f35b6103ae60048036038101906103a99190612477565b611817565b6040516103bb9190612888565b60405180910390f35b6103de60048036038101906103d991906122f8565b611b20565b005b6103e8611c13565b6040516103f59190612424565b60405180910390f35b60035f9054906101000a900473ffffffffffffffffffffffffffffffffffffffff1673ffffffffffffffffffffffffffffffffffffffff163373ffffffffffffffffffffffffffffffffffffffff16148061049f575060025f3373ffffffffffffffffffffffffffffffffffffffff1673ffffffffffffffffffffffffffffffffffffffff1681526020019081526020015f205f9054906101000a900460ff165b6104de576040517f08c379a00000000000000000000000000000000000000000000000000000000081526004016104d5906128f2565b60405180910390fd5b5f61051e826040518060400160405280600181526020017f7c00000000000000000000000000000000000000000000000000000000000000815250611ca2565b90505f6005825161052f919061293d565b1461056f576040517f08c379a0000000000000000000000000000000000000000000000000000000008152600401610566906129b7565b60405180910390fd5b5f5b81518110156106fd5760016040518060a0016040528084848151811061059a576105996129d5565b5b60200260200101518152602001846001856105b59190612a2f565b815181106105c6576105c56129d5565b5b60200260200101518152602001846002856105e19190612a2f565b815181106105f2576105f16129d5565b5b602002602001015181526020018460038561060d9190612a2f565b8151811061061e5761061d6129d5565b5b60200260200101518152602001846004856106399190612a2f565b8151811061064a576106496129d5565b5b6020026020010151815250908060018154018082558091505060019003905f5260205f2090600502015f909190919091505f820151815f01908161068e9190612c5c565b5060208201518160010190816106a49190612c5c565b5060408201518160020190816106ba9190612c5c565b5060608201518160030190816106d09190612c5c565b5060808201518160040190816106e69190612c5c565b5050506005816106f69190612a2f565b9050610571565b505050565b60035f9054906101000a900473ffffffffffffffffffffffffffffffffffffffff1673ffffffffffffffffffffffffffffffffffffffff163373ffffffffffffffffffffffffffffffffffffffff1614610791576040517f08c379a000000000000000000000000000000000000000000000000000000000815260040161078890612d75565b60405180910390fd5b600160025f8373ffffffffffffffffffffffffffffffffffffffff1673ffffffffffffffffffffffffffffffffffffffff1681526020019081526020015f205f6101000a81548160ff02191690831515021790555050565b6060600480546107f890612a8f565b80601f016020809104026020016040519081016040528092919081815260200182805461082490612a8f565b801561086f5780601f106108465761010080835404028352916020019161086f565b820191905f5260205f20905b81548152906001019060200180831161085257829003601f168201915b5050505050905090565b6060610889600180549050611ede565b905090565b5f805461089a90612a8f565b80601f01602080910402602001604051908101604052809291908181526020018280546108c690612a8f565b80156109115780601f106108e857610100808354040283529160200191610911565b820191905f5260205f20905b8154815290600101906020018083116108f457829003601f168201915b505050505081565b60035f9054906101000a900473ffffffffffffffffffffffffffffffffffffffff1673ffffffffffffffffffffffffffffffffffffffff163373ffffffffffffffffffffffffffffffffffffffff1614806109ba575060025f3373ffffffffffffffffffffffffffffffffffffffff1673ffffffffffffffffffffffffffffffffffffffff1681526020019081526020015f205f9054906101000a900460ff165b6109f9576040517f08c379a00000000000000000000000000000000000000000000000000000000081526004016109f0906128f2565b60405180910390fd5b5f60018054905090505f8103610a0f5750610ad6565b5f828210610a28578282610a239190612d93565b610a2a565b5f5b90505f600183610a3a9190612d93565b90505b818110610ad2576001805480610a5657610a55612dc6565b5b600190038181905f5260205f2090600502015f8082015f610a779190612124565b600182015f610a869190612124565b600282015f610a959190612124565b600382015f610aa49190612124565b600482015f610ab39190612124565b505090555f810315610ad2578080610aca90612df3565b915050610a3d565b5050505b50565b6060604051602001610aea90612e6e565b604051602081830303815290604052805190602001205f604051602001610b119190612f02565b6040516020818303038152906040528051906020012014610b67576040518060400160405280600581526020017f6c69676874000000000000000000000000000000000000000000000000000000815250610b9e565b6040518060400160405280600481526020017f6461726b000000000000000000000000000000000000000000000000000000008152505b905090565b60035f9054906101000a900473ffffffffffffffffffffffffffffffffffffffff1673ffffffffffffffffffffffffffffffffffffffff163373ffffffffffffffffffffffffffffffffffffffff161480610c44575060025f3373ffffffffffffffffffffffffffffffffffffffff1673ffffffffffffffffffffffffffffffffffffffff1681526020019081526020015f205f9054906101000a900460ff165b610c83576040517f08c379a0000000000000000000000000000000000000000000000000000000008152600401610c7a906128f2565b60405180910390fd5b8060069081610c929190612c5c565b5050565b60035f9054906101000a900473ffffffffffffffffffffffffffffffffffffffff1673ffffffffffffffffffffffffffffffffffffffff163373ffffffffffffffffffffffffffffffffffffffff161480610d37575060025f3373ffffffffffffffffffffffffffffffffffffffff1673ffffffffffffffffffffffffffffffffffffffff1681526020019081526020015f205f9054906101000a900460ff165b610d76576040517f08c379a0000000000000000000000000000000000000000000000000000000008152600401610d6d906128f2565b60405180910390fd5b60016040518060a0016040528087815260200186815260200185815260200184815260200183815250908060018154018082558091505060019003905f5260205f2090600502015f909190919091505f820151815f019081610dd89190612c5c565b506020820151816001019081610dee9190612c5c565b506040820151816002019081610e049190612c5c565b506060820151816003019081610e1a9190612c5c565b506080820151816004019081610e309190612c5c565b5050505050505050565b606060058054610e4990612a8f565b80601f0160208091040260200160405190810160405280929190818152602001828054610e7590612a8f565b8015610ec05780601f10610e9757610100808354040283529160200191610ec0565b820191905f5260205f20905b815481529060010190602001808311610ea357829003601f168201915b5050505050905090565b60035f9054906101000a900473ffffffffffffffffffffffffffffffffffffffff1673ffffffffffffffffffffffffffffffffffffffff163373ffffffffffffffffffffffffffffffffffffffff161480610f6b575060025f3373ffffffffffffffffffffffffffffffffffffffff1673ffffffffffffffffffffffffffffffffffffffff1681526020019081526020015f205f9054906101000a900460ff165b610faa576040517f08c379a0000000000000000000000000000000000000000000000000000000008152600401610fa1906128f2565b60405180910390fd5b6001805490508610610ff1576040517f08c379a0000000000000000000000000000000000000000000000000000000008152600401610fe890612f62565b60405180910390fd5b6040518060a00160405280868152602001858152602001848152602001838152602001828152506001878154811061102c5761102b6129d5565b5b905f5260205f2090600502015f820151815f01908161104b9190612c5c565b5060208201518160010190816110619190612c5c565b5060408201518160020190816110779190612c5c565b50606082015181600301908161108d9190612c5c565b5060808201518160040190816110a39190612c5c565b50905050505050505050565b60035f9054906101000a900473ffffffffffffffffffffffffffffffffffffffff1673ffffffffffffffffffffffffffffffffffffffff163373ffffffffffffffffffffffffffffffffffffffff161461113e576040517f08c379a000000000000000000000000000000000000000000000000000000000815260040161113590612d75565b60405180910390fd5b5f60025f8373ffffffffffffffffffffffffffffffffffffffff1673ffffffffffffffffffffffffffffffffffffffff1681526020019081526020015f205f6101000a81548160ff02191690831515021790555050565b6002602052805f5260405f205f915054906101000a900460ff1681565b60035f9054906101000a900473ffffffffffffffffffffffffffffffffffffffff1681565b5f600180549050905090565b6060600680546111f290612a8f565b80601f016020809104026020016040519081016040528092919081815260200182805461121e90612a8f565b80156112695780601f1061124057610100808354040283529160200191611269565b820191905f5260205f20905b81548152906001019060200180831161124c57829003601f168201915b5050505050905090565b60035f9054906101000a900473ffffffffffffffffffffffffffffffffffffffff1673ffffffffffffffffffffffffffffffffffffffff163373ffffffffffffffffffffffffffffffffffffffff161480611314575060025f3373ffffffffffffffffffffffffffffffffffffffff1673ffffffffffffffffffffffffffffffffffffffff1681526020019081526020015f205f9054906101000a900460ff165b611353576040517f08c379a000000000000000000000000000000000000000000000000000000000815260040161134a906128f2565b60405180910390fd5b60405160200161136290612e6e565b60405160208183030381529060405280519060200120816040516020016113899190612fb0565b6040516020818303038152906040528051906020012014806113f457506040516020016113b590613010565b60405160208183030381529060405280519060200120816040516020016113dc9190612fb0565b60405160208183030381529060405280519060200120145b611433576040517f08c379a000000000000000000000000000000000000000000000000000000000815260040161142a9061306e565b60405180910390fd5b805f90816114419190612c5c565b5050565b60035f9054906101000a900473ffffffffffffffffffffffffffffffffffffffff1673ffffffffffffffffffffffffffffffffffffffff163373ffffffffffffffffffffffffffffffffffffffff1614806114e6575060025f3373ffffffffffffffffffffffffffffffffffffffff1673ffffffffffffffffffffffffffffffffffffffff1681526020019081526020015f205f9054906101000a900460ff165b611525576040517f08c379a000000000000000000000000000000000000000000000000000000000815260040161151c906128f2565b60405180910390fd5b80600590816115349190612c5c565b5050565b60018181548110611547575f80fd5b905f5260205f2090600502015f91509050805f01805461156690612a8f565b80601f016020809104026020016040519081016040528092919081815260200182805461159290612a8f565b80156115dd5780601f106115b4576101008083540402835291602001916115dd565b820191905f5260205f20905b8154815290600101906020018083116115c057829003601f168201915b5050505050908060010180546115f290612a8f565b80601f016020809104026020016040519081016040528092919081815260200182805461161e90612a8f565b80156116695780601f1061164057610100808354040283529160200191611669565b820191905f5260205f20905b81548152906001019060200180831161164c57829003601f168201915b50505050509080600201805461167e90612a8f565b80601f01602080910402602001604051908101604052809291908181526020018280546116aa90612a8f565b80156116f55780601f106116cc576101008083540402835291602001916116f5565b820191905f5260205f20905b8154815290600101906020018083116116d857829003601f168201915b50505050509080600301805461170a90612a8f565b80601f016020809104026020016040519081016040528092919081815260200182805461173690612a8f565b80156117815780601f1061175857610100808354040283529160200191611781565b820191905f5260205f20905b81548152906001019060200180831161176457829003601f168201915b50505050509080600401805461179690612a8f565b80601f01602080910402602001604051908101604052809291908181526020018280546117c290612a8f565b801561180d5780601f106117e45761010080835404028352916020019161180d565b820191905f5260205f20905b8154815290600101906020018083116117f057829003601f168201915b5050505050905085565b61181f612161565b60018281548110611833576118326129d5565b5b905f5260205f2090600502016040518060a00160405290815f8201805461185990612a8f565b80601f016020809104026020016040519081016040528092919081815260200182805461188590612a8f565b80156118d05780601f106118a7576101008083540402835291602001916118d0565b820191905f5260205f20905b8154815290600101906020018083116118b357829003601f168201915b505050505081526020016001820180546118e990612a8f565b80601f016020809104026020016040519081016040528092919081815260200182805461191590612a8f565b80156119605780601f1061193757610100808354040283529160200191611960565b820191905f5260205f20905b81548152906001019060200180831161194357829003601f168201915b5050505050815260200160028201805461197990612a8f565b80601f01602080910402602001604051908101604052809291908181526020018280546119a590612a8f565b80156119f05780601f106119c7576101008083540402835291602001916119f0565b820191905f5260205f20905b8154815290600101906020018083116119d357829003601f168201915b50505050508152602001600382018054611a0990612a8f565b80601f0160208091040260200160405190810160405280929190818152602001828054611a3590612a8f565b8015611a805780601f10611a5757610100808354040283529160200191611a80565b820191905f5260205f20905b815481529060010190602001808311611a6357829003601f168201915b50505050508152602001600482018054611a9990612a8f565b80601f0160208091040260200160405190810160405280929190818152602001828054611ac590612a8f565b8015611b105780601f10611ae757610100808354040283529160200191611b10565b820191905f5260205f20905b815481529060010190602001808311611af357829003601f168201915b5050505050815250509050919050565b60035f9054906101000a900473ffffffffffffffffffffffffffffffffffffffff1673ffffffffffffffffffffffffffffffffffffffff163373ffffffffffffffffffffffffffffffffffffffff161480611bc1575060025f3373ffffffffffffffffffffffffffffffffffffffff1673ffffffffffffffffffffffffffffffffffffffff1681526020019081526020015f205f9054906101000a900460ff165b611c00576040517f08c379a0000000000000000000000000000000000000000000000000000000008152600401611bf7906128f2565b60405180910390fd5b8060049081611c0f9190612c5c565b5050565b60605f8054611c2190612a8f565b80601f0160208091040260200160405190810160405280929190818152602001828054611c4d90612a8f565b8015611c985780601f10611c6f57610100808354040283529160200191611c98565b820191905f5260205f20905b815481529060010190602001808311611c7b57829003601f168201915b5050505050905090565b60605f8390505f8390505f805f90505b8351811015611d5c57825f81518110611cce57611ccd6129d5565b5b602001015160f81c60f81b7effffffffffffffffffffffffffffffffffffffffffffffffffffffffffffff1916848281518110611d0e57611d0d6129d5565b5b602001015160f81c60f81b7effffffffffffffffffffffffffffffffffffffffffffffffffffffffffffff191603611d4f578180611d4b9061308c565b9250505b8080600101915050611cb2565b5f600183611d6a9190612a2f565b67ffffffffffffffff811115611d8357611d826121d4565b5b604051908082528060200260200182016040528015611db657816020015b6060815260200190600190039081611da15790505b5090505f805f90505f93505b8651841015611ea457855f81518110611dde57611ddd6129d5565b5b602001015160f81c60f81b7effffffffffffffffffffffffffffffffffffffffffffffffffffffffffffff1916878581518110611e1e57611e1d6129d5565b5b602001015160f81c60f81b7effffffffffffffffffffffffffffffffffffffffffffffffffffffffffffff191603611e9757611e5b878286612037565b838381518110611e6e57611e6d6129d5565b5b60200260200101819052508180611e849061308c565b925050600184611e949190612a2f565b90505b8380600101945050611dc2565b611eb087828951612037565b838381518110611ec357611ec26129d5565b5b60200260200101819052508297505050505050505092915050565b60605f8203611f24576040518060400160405280600181526020017f30000000000000000000000000000000000000000000000000000000000000008152509050612032565b5f8290505f5b5f8214611f53578080611f3c9061308c565b915050600a82611f4c91906130d3565b9150611f2a565b5f8167ffffffffffffffff811115611f6e57611f6d6121d4565b5b6040519080825280601f01601f191660200182016040528015611fa05781602001600182028036833780820191505090505b5090505b5f851461202b57600182611fb89190612d93565b9150600a85611fc7919061293d565b6030611fd39190612a2f565b60f81b818381518110611fe957611fe86129d5565b5b60200101907effffffffffffffffffffffffffffffffffffffffffffffffffffffffffffff191690815f1a905350600a8561202491906130d3565b9450611fa4565b8093505050505b919050565b60605f83836120469190612d93565b67ffffffffffffffff81111561205f5761205e6121d4565b5b6040519080825280601f01601f1916602001820160405280156120915781602001600182028036833780820191505090505b5090505f8490505b83811015612118578581815181106120b4576120b36129d5565b5b602001015160f81c60f81b8286836120cc9190612d93565b815181106120dd576120dc6129d5565b5b60200101907effffffffffffffffffffffffffffffffffffffffffffffffffffffffffffff191690815f1a9053508080600101915050612099565b50809150509392505050565b50805461213090612a8f565b5f825580601f10612141575061215e565b601f0160209004905f5260205f209081019061215d9190612190565b5b50565b6040518060a0016040528060608152602001606081526020016060815260200160608152602001606081525090565b5b808211156121a7575f815f905550600101612191565b5090565b5f604051905090565b5f80fd5b5f80fd5b5f80fd5b5f80fd5b5f601f19601f8301169050919050565b7f4e487b71000000000000000000000000000000000000000000000000000000005f52604160045260245ffd5b61220a826121c4565b810181811067ffffffffffffffff82111715612229576122286121d4565b5b80604052505050565b5f61223b6121ab565b90506122478282612201565b919050565b5f67ffffffffffffffff821115612266576122656121d4565b5b61226f826121c4565b9050602081019050919050565b828183375f83830152505050565b5f61229c6122978461224c565b612232565b9050828152602081018484840111156122b8576122b76121c0565b5b6122c384828561227c565b509392505050565b5f82601f8301126122df576122de6121bc565b5b81356122ef84826020860161228a565b91505092915050565b5f6020828403121561230d5761230c6121b4565b5b5f82013567ffffffffffffffff81111561232a576123296121b8565b5b612336848285016122cb565b91505092915050565b5f73ffffffffffffffffffffffffffffffffffffffff82169050919050565b5f6123688261233f565b9050919050565b6123788161235e565b8114612382575f80fd5b50565b5f813590506123938161236f565b92915050565b5f602082840312156123ae576123ad6121b4565b5b5f6123bb84828501612385565b91505092915050565b5f81519050919050565b5f82825260208201905092915050565b8281835e5f83830152505050565b5f6123f6826123c4565b61240081856123ce565b93506124108185602086016123de565b612419816121c4565b840191505092915050565b5f6020820190508181035f83015261243c81846123ec565b905092915050565b5f819050919050565b61245681612444565b8114612460575f80fd5b50565b5f813590506124718161244d565b92915050565b5f6020828403121561248c5761248b6121b4565b5b5f61249984828501612463565b91505092915050565b5f805f805f60a086880312156124bb576124ba6121b4565b5b5f86013567ffffffffffffffff8111156124d8576124d76121b8565b5b6124e4888289016122cb565b955050602086013567ffffffffffffffff811115612505576125046121b8565b5b612511888289016122cb565b945050604086013567ffffffffffffffff811115612532576125316121b8565b5b61253e888289016122cb565b935050606086013567ffffffffffffffff81111561255f5761255e6121b8565b5b61256b888289016122cb565b925050608086013567ffffffffffffffff81111561258c5761258b6121b8565b5b612598888289016122cb565b9150509295509295909350565b5f805f805f8060c087890312156125bf576125be6121b4565b5b5f6125cc89828a01612463565b965050602087013567ffffffffffffffff8111156125ed576125ec6121b8565b5b6125f989828a016122cb565b955050604087013567ffffffffffffffff81111561261a576126196121b8565b5b61262689828a016122cb565b945050606087013567ffffffffffffffff811115612647576126466121b8565b5b61265389828a016122cb565b935050608087013567ffffffffffffffff811115612674576126736121b8565b5b61268089828a016122cb565b92505060a087013567ffffffffffffffff8111156126a1576126a06121b8565b5b6126ad89828a016122cb565b9150509295509295509295565b5f8115159050919050565b6126ce816126ba565b82525050565b5f6020820190506126e75f8301846126c5565b92915050565b6126f68161235e565b82525050565b5f60208201905061270f5f8301846126ed565b92915050565b61271e81612444565b82525050565b5f6020820190506127375f830184612715565b92915050565b5f60a0820190508181035f83015261275581886123ec565b9050818103602083015261276981876123ec565b9050818103604083015261277d81866123ec565b9050818103606083015261279181856123ec565b905081810360808301526127a581846123ec565b90509695505050505050565b5f82825260208201905092915050565b5f6127cb826123c4565b6127d581856127b1565b93506127e58185602086016123de565b6127ee816121c4565b840191505092915050565b5f60a083015f8301518482035f86015261281382826127c1565b9150506020830151848203602086015261282d82826127c1565b9150506040830151848203604086015261284782826127c1565b9150506060830151848203606086015261286182826127c1565b9150506080830151848203608086015261287b82826127c1565b9150508091505092915050565b5f6020820190508181035f8301526128a081846127f9565b905092915050565b7f4e6f7420617574686f72697a65640000000000000000000000000000000000005f82015250565b5f6128dc600e836123ce565b91506128e7826128a8565b602082019050919050565b5f6020820190508181035f830152612909816128d0565b9050919050565b7f4e487b71000000000000000000000000000000000000000000000000000000005f52601260045260245ffd5b5f61294782612444565b915061295283612444565b92508261296257612961612910565b5b828206905092915050565b7f496e76616c696420696e70757420737472696e670000000000000000000000005f82015250565b5f6129a16014836123ce565b91506129ac8261296d565b602082019050919050565b5f6020820190508181035f8301526129ce81612995565b9050919050565b7f4e487b71000000000000000000000000000000000000000000000000000000005f52603260045260245ffd5b7f4e487b71000000000000000000000000000000000000000000000000000000005f52601160045260245ffd5b5f612a3982612444565b9150612a4483612444565b9250828201905080821115612a5c57612a5b612a02565b5b92915050565b7f4e487b71000000000000000000000000000000000000000000000000000000005f52602260045260245ffd5b5f6002820490506001821680612aa657607f821691505b602082108103612ab957612ab8612a62565b5b50919050565b5f819050815f5260205f209050919050565b5f6020601f8301049050919050565b5f82821b905092915050565b5f60088302612b1b7fffffffffffffffffffffffffffffffffffffffffffffffffffffffffffffffff82612ae0565b612b258683612ae0565b95508019841693508086168417925050509392505050565b5f819050919050565b5f612b60612b5b612b5684612444565b612b3d565b612444565b9050919050565b5f819050919050565b612b7983612b46565b612b8d612b8582612b67565b848454612aec565b825550505050565b5f90565b612ba1612b95565b612bac818484612b70565b505050565b5b81811015612bcf57612bc45f82612b99565b600181019050612bb2565b5050565b601f821115612c1457612be581612abf565b612bee84612ad1565b81016020851015612bfd578190505b612c11612c0985612ad1565b830182612bb1565b50505b505050565b5f82821c905092915050565b5f612c345f1984600802612c19565b1980831691505092915050565b5f612c4c8383612c25565b9150826002028217905092915050565b612c65826123c4565b67ffffffffffffffff811115612c7e57612c7d6121d4565b5b612c888254612a8f565b612c93828285612bd3565b5f60209050601f831160018114612cc4575f8415612cb2578287015190505b612cbc8582612c41565b865550612d23565b601f198416612cd286612abf565b5f5b82811015612cf957848901518255600182019150602085019450602081019050612cd4565b86831015612d165784890151612d12601f891682612c25565b8355505b6001600288020188555050505b505050505050565b7f4e6f7420746865206f776e6572000000000000000000000000000000000000005f82015250565b5f612d5f600d836123ce565b9150612d6a82612d2b565b602082019050919050565b5f6020820190508181035f830152612d8c81612d53565b9050919050565b5f612d9d82612444565b9150612da883612444565b9250828203905081811115612dc057612dbf612a02565b5b92915050565b7f4e487b71000000000000000000000000000000000000000000000000000000005f52603160045260245ffd5b5f612dfd82612444565b91505f8203612e0f57612e0e612a02565b5b600182039050919050565b5f81905092915050565b7f30000000000000000000000000000000000000000000000000000000000000005f82015250565b5f612e58600183612e1a565b9150612e6382612e24565b600182019050919050565b5f612e7882612e4c565b9150819050919050565b5f8154612e8e81612a8f565b612e988186612e1a565b9450600182165f8114612eb25760018114612ec757612ef9565b60ff1983168652811515820286019350612ef9565b612ed085612abf565b5f5b83811015612ef157815481890152600182019150602081019050612ed2565b838801955050505b50505092915050565b5f612f0d8284612e82565b915081905092915050565b7f496e76616c696420696e646578000000000000000000000000000000000000005f82015250565b5f612f4c600d836123ce565b9150612f5782612f18565b602082019050919050565b5f6020820190508181035f830152612f7981612f40565b9050919050565b5f612f8a826123c4565b612f948185612e1a565b9350612fa48185602086016123de565b80840191505092915050565b5f612fbb8284612f80565b915081905092915050565b7f31000000000000000000000000000000000000000000000000000000000000005f82015250565b5f612ffa600183612e1a565b915061300582612fc6565b600182019050919050565b5f61301a82612fee565b9150819050919050565b7f4d6f6465206d75737420626520273027206f72202731270000000000000000005f82015250565b5f6130586017836123ce565b915061306382613024565b602082019050919050565b5f6020820190508181035f8301526130858161304c565b9050919050565b5f61309682612444565b91507fffffffffffffffffffffffffffffffffffffffffffffffffffffffffffffffff82036130c8576130c7612a02565b5b600182019050919050565b5f6130dd82612444565b91506130e883612444565b9250826130f8576130f7612910565b5b82820490509291505056fea264697066735822122060085bcb4438133b99347c337c97ca77132d7eecce8ccc67dc8c77299efc7d3464736f6c634300081a0033",
					"opcodes": "PUSH1 0x80 PUSH1 0x40 MSTORE PUSH1 0x40 MLOAD DUP1 PUSH1 0x40 ADD PUSH1 0x40 MSTORE DUP1 PUSH1 0x1 DUP2 MSTORE PUSH1 0x20 ADD PUSH32 0x3000000000000000000000000000000000000000000000000000000000000000 DUP2 MSTORE POP PUSH0 SWAP1 DUP2 PUSH2 0x47 SWAP2 SWAP1 PUSH2 0x40B JUMP JUMPDEST POP PUSH1 0x40 MLOAD DUP1 PUSH1 0x40 ADD PUSH1 0x40 MSTORE DUP1 PUSH1 0x14 DUP2 MSTORE PUSH1 0x20 ADD PUSH32 0x68747470733A2F2F7777772E746A6F2E6172742F000000000000000000000000 DUP2 MSTORE POP PUSH1 0x4 SWAP1 DUP2 PUSH2 0x8C SWAP2 SWAP1 PUSH2 0x40B JUMP JUMPDEST POP PUSH1 0x40 MLOAD DUP1 PUSH1 0x40 ADD PUSH1 0x40 MSTORE DUP1 PUSH1 0x18 DUP2 MSTORE PUSH1 0x20 ADD PUSH32 0x68747470733A2F2F65746865727363616E2E696F2F74782F0000000000000000 DUP2 MSTORE POP PUSH1 0x5 SWAP1 DUP2 PUSH2 0xD1 SWAP2 SWAP1 PUSH2 0x40B JUMP JUMPDEST POP PUSH1 0x40 MLOAD DUP1 PUSH1 0x40 ADD PUSH1 0x40 MSTORE DUP1 PUSH1 0x1A DUP2 MSTORE PUSH1 0x20 ADD PUSH32 0x68747470733A2F2F616E647265776D69746368656C6C2E78797A000000000000 DUP2 MSTORE POP PUSH1 0x6 SWAP1 DUP2 PUSH2 0x116 SWAP2 SWAP1 PUSH2 0x40B JUMP JUMPDEST POP CALLVALUE DUP1 ISZERO PUSH2 0x122 JUMPI PUSH0 DUP1 REVERT JUMPDEST POP CALLER PUSH1 0x3 PUSH0 PUSH2 0x100 EXP DUP2 SLOAD DUP2 PUSH20 0xFFFFFFFFFFFFFFFFFFFFFFFFFFFFFFFFFFFFFFFF MUL NOT AND SWAP1 DUP4 PUSH20 0xFFFFFFFFFFFFFFFFFFFFFFFFFFFFFFFFFFFFFFFF AND MUL OR SWAP1 SSTORE POP PUSH1 0x1 PUSH1 0x2 PUSH0 PUSH20 0xF1DA6E2D387E9DA611DAC8A7FC587EAA4B010013 PUSH20 0xFFFFFFFFFFFFFFFFFFFFFFFFFFFFFFFFFFFFFFFF AND PUSH20 0xFFFFFFFFFFFFFFFFFFFFFFFFFFFFFFFFFFFFFFFF AND DUP2 MSTORE PUSH1 0x20 ADD SWAP1 DUP2 MSTORE PUSH1 0x20 ADD PUSH0 KECCAK256 PUSH0 PUSH2 0x100 EXP DUP2 SLOAD DUP2 PUSH1 0xFF MUL NOT AND SWAP1 DUP4 ISZERO ISZERO MUL OR SWAP1 SSTORE POP PUSH2 0x4DA JUMP JUMPDEST PUSH0 DUP2 MLOAD SWAP1 POP SWAP2 SWAP1 POP JUMP JUMPDEST PUSH32 0x4E487B7100000000000000000000000000000000000000000000000000000000 PUSH0 MSTORE PUSH1 0x41 PUSH1 0x4 MSTORE PUSH1 0x24 PUSH0 REVERT JUMPDEST PUSH32 0x4E487B7100000000000000000000000000000000000000000000000000000000 PUSH0 MSTORE PUSH1 0x22 PUSH1 0x4 MSTORE PUSH1 0x24 PUSH0 REVERT JUMPDEST PUSH0 PUSH1 0x2 DUP3 DIV SWAP1 POP PUSH1 0x1 DUP3 AND DUP1 PUSH2 0x24C JUMPI PUSH1 0x7F DUP3 AND SWAP2 POP JUMPDEST PUSH1 0x20 DUP3 LT DUP2 SUB PUSH2 0x25F JUMPI PUSH2 0x25E PUSH2 0x208 JUMP JUMPDEST JUMPDEST POP SWAP2 SWAP1 POP JUMP JUMPDEST PUSH0 DUP2 SWAP1 POP DUP2 PUSH0 MSTORE PUSH1 0x20 PUSH0 KECCAK256 SWAP1 POP SWAP2 SWAP1 POP JUMP JUMPDEST PUSH0 PUSH1 0x20 PUSH1 0x1F DUP4 ADD DIV SWAP1 POP SWAP2 SWAP1 POP JUMP JUMPDEST PUSH0 DUP3 DUP3 SHL SWAP1 POP SWAP3 SWAP2 POP POP JUMP JUMPDEST PUSH0 PUSH1 0x8 DUP4 MUL PUSH2 0x2C1 PUSH32 0xFFFFFFFFFFFFFFFFFFFFFFFFFFFFFFFFFFFFFFFFFFFFFFFFFFFFFFFFFFFFFFFF DUP3 PUSH2 0x286 JUMP JUMPDEST PUSH2 0x2CB DUP7 DUP4 PUSH2 0x286 JUMP JUMPDEST SWAP6 POP DUP1 NOT DUP5 AND SWAP4 POP DUP1 DUP7 AND DUP5 OR SWAP3 POP POP POP SWAP4 SWAP3 POP POP POP JUMP JUMPDEST PUSH0 DUP2 SWAP1 POP SWAP2 SWAP1 POP JUMP JUMPDEST PUSH0 DUP2 SWAP1 POP SWAP2 SWAP1 POP JUMP JUMPDEST PUSH0 PUSH2 0x30F PUSH2 0x30A PUSH2 0x305 DUP5 PUSH2 0x2E3 JUMP JUMPDEST PUSH2 0x2EC JUMP JUMPDEST PUSH2 0x2E3 JUMP JUMPDEST SWAP1 POP SWAP2 SWAP1 POP JUMP JUMPDEST PUSH0 DUP2 SWAP1 POP SWAP2 SWAP1 POP JUMP JUMPDEST PUSH2 0x328 DUP4 PUSH2 0x2F5 JUMP JUMPDEST PUSH2 0x33C PUSH2 0x334 DUP3 PUSH2 0x316 JUMP JUMPDEST DUP5 DUP5 SLOAD PUSH2 0x292 JUMP JUMPDEST DUP3 SSTORE POP POP POP POP JUMP JUMPDEST PUSH0 SWAP1 JUMP JUMPDEST PUSH2 0x350 PUSH2 0x344 JUMP JUMPDEST PUSH2 0x35B DUP2 DUP5 DUP5 PUSH2 0x31F JUMP JUMPDEST POP POP POP JUMP JUMPDEST JUMPDEST DUP2 DUP2 LT ISZERO PUSH2 0x37E JUMPI PUSH2 0x373 PUSH0 DUP3 PUSH2 0x348 JUMP JUMPDEST PUSH1 0x1 DUP2 ADD SWAP1 POP PUSH2 0x361 JUMP JUMPDEST POP POP JUMP JUMPDEST PUSH1 0x1F DUP3 GT ISZERO PUSH2 0x3C3 JUMPI PUSH2 0x394 DUP2 PUSH2 0x265 JUMP JUMPDEST PUSH2 0x39D DUP5 PUSH2 0x277 JUMP JUMPDEST DUP2 ADD PUSH1 0x20 DUP6 LT ISZERO PUSH2 0x3AC JUMPI DUP2 SWAP1 POP JUMPDEST PUSH2 0x3C0 PUSH2 0x3B8 DUP6 PUSH2 0x277 JUMP JUMPDEST DUP4 ADD DUP3 PUSH2 0x360 JUMP JUMPDEST POP POP JUMPDEST POP POP POP JUMP JUMPDEST PUSH0 DUP3 DUP3 SHR SWAP1 POP SWAP3 SWAP2 POP POP JUMP JUMPDEST PUSH0 PUSH2 0x3E3 PUSH0 NOT DUP5 PUSH1 0x8 MUL PUSH2 0x3C8 JUMP JUMPDEST NOT DUP1 DUP4 AND SWAP2 POP POP SWAP3 SWAP2 POP POP JUMP JUMPDEST PUSH0 PUSH2 0x3FB DUP4 DUP4 PUSH2 0x3D4 JUMP JUMPDEST SWAP2 POP DUP3 PUSH1 0x2 MUL DUP3 OR SWAP1 POP SWAP3 SWAP2 POP POP JUMP JUMPDEST PUSH2 0x414 DUP3 PUSH2 0x1D1 JUMP JUMPDEST PUSH8 0xFFFFFFFFFFFFFFFF DUP2 GT ISZERO PUSH2 0x42D JUMPI PUSH2 0x42C PUSH2 0x1DB JUMP JUMPDEST JUMPDEST PUSH2 0x437 DUP3 SLOAD PUSH2 0x235 JUMP JUMPDEST PUSH2 0x442 DUP3 DUP3 DUP6 PUSH2 0x382 JUMP JUMPDEST PUSH0 PUSH1 0x20 SWAP1 POP PUSH1 0x1F DUP4 GT PUSH1 0x1 DUP2 EQ PUSH2 0x473 JUMPI PUSH0 DUP5 ISZERO PUSH2 0x461 JUMPI DUP3 DUP8 ADD MLOAD SWAP1 POP JUMPDEST PUSH2 0x46B DUP6 DUP3 PUSH2 0x3F0 JUMP JUMPDEST DUP7 SSTORE POP PUSH2 0x4D2 JUMP JUMPDEST PUSH1 0x1F NOT DUP5 AND PUSH2 0x481 DUP7 PUSH2 0x265 JUMP JUMPDEST PUSH0 JUMPDEST DUP3 DUP2 LT ISZERO PUSH2 0x4A8 JUMPI DUP5 DUP10 ADD MLOAD DUP3 SSTORE PUSH1 0x1 DUP3 ADD SWAP2 POP PUSH1 0x20 DUP6 ADD SWAP5 POP PUSH1 0x20 DUP2 ADD SWAP1 POP PUSH2 0x483 JUMP JUMPDEST DUP7 DUP4 LT ISZERO PUSH2 0x4C5 JUMPI DUP5 DUP10 ADD MLOAD PUSH2 0x4C1 PUSH1 0x1F DUP10 AND DUP3 PUSH2 0x3D4 JUMP JUMPDEST DUP4 SSTORE POP JUMPDEST PUSH1 0x1 PUSH1 0x2 DUP9 MUL ADD DUP9 SSTORE POP POP POP JUMPDEST POP POP POP POP POP POP JUMP JUMPDEST PUSH2 0x3139 DUP1 PUSH2 0x4E7 PUSH0 CODECOPY PUSH0 RETURN INVALID PUSH1 0x80 PUSH1 0x40 MSTORE CALLVALUE DUP1 ISZERO PUSH2 0xF JUMPI PUSH0 DUP1 REVERT JUMPDEST POP PUSH1 0x4 CALLDATASIZE LT PUSH2 0x140 JUMPI PUSH0 CALLDATALOAD PUSH1 0xE0 SHR DUP1 PUSH4 0x85E68531 GT PUSH2 0xB6 JUMPI DUP1 PUSH4 0xA84FD0ED GT PUSH2 0x7A JUMPI DUP1 PUSH4 0xA84FD0ED EQ PUSH2 0x328 JUMPI DUP1 PUSH4 0xA9C598B9 EQ PUSH2 0x344 JUMPI DUP1 PUSH4 0xB30906D4 EQ PUSH2 0x360 JUMPI DUP1 PUSH4 0xBAE78D7B EQ PUSH2 0x394 JUMPI DUP1 PUSH4 0xC41F0CAC EQ PUSH2 0x3C4 JUMPI DUP1 PUSH4 0xC5532468 EQ PUSH2 0x3E0 JUMPI PUSH2 0x140 JUMP JUMPDEST DUP1 PUSH4 0x85E68531 EQ PUSH2 0x282 JUMPI DUP1 PUSH4 0x87A5B67C EQ PUSH2 0x29E JUMPI DUP1 PUSH4 0x8DA5CB5B EQ PUSH2 0x2CE JUMPI DUP1 PUSH4 0x927947B4 EQ PUSH2 0x2EC JUMPI DUP1 PUSH4 0x9EF96D1F EQ PUSH2 0x30A JUMPI PUSH2 0x140 JUMP JUMPDEST DUP1 PUSH4 0x48CECE84 GT PUSH2 0x108 JUMPI DUP1 PUSH4 0x48CECE84 EQ PUSH2 0x1D6 JUMPI DUP1 PUSH4 0x4B4FD03B EQ PUSH2 0x1F2 JUMPI DUP1 PUSH4 0x52BAF08F EQ PUSH2 0x210 JUMPI DUP1 PUSH4 0x57C8BE66 EQ PUSH2 0x22C JUMPI DUP1 PUSH4 0x72176858 EQ PUSH2 0x248 JUMPI DUP1 PUSH4 0x82CB36F6 EQ PUSH2 0x266 JUMPI PUSH2 0x140 JUMP JUMPDEST DUP1 PUSH4 0x6A7BD99 EQ PUSH2 0x144 JUMPI DUP1 PUSH4 0xAE5E739 EQ PUSH2 0x160 JUMPI DUP1 PUSH4 0xD8550E1 EQ PUSH2 0x17C JUMPI DUP1 PUSH4 0x12D491C9 EQ PUSH2 0x19A JUMPI DUP1 PUSH4 0x295A5212 EQ PUSH2 0x1B8 JUMPI JUMPDEST PUSH0 DUP1 REVERT JUMPDEST PUSH2 0x15E PUSH1 0x4 DUP1 CALLDATASIZE SUB DUP2 ADD SWAP1 PUSH2 0x159 SWAP2 SWAP1 PUSH2 0x22F8 JUMP JUMPDEST PUSH2 0x3FE JUMP JUMPDEST STOP JUMPDEST PUSH2 0x17A PUSH1 0x4 DUP1 CALLDATASIZE SUB DUP2 ADD SWAP1 PUSH2 0x175 SWAP2 SWAP1 PUSH2 0x2399 JUMP JUMPDEST PUSH2 0x702 JUMP JUMPDEST STOP JUMPDEST PUSH2 0x184 PUSH2 0x7E9 JUMP JUMPDEST PUSH1 0x40 MLOAD PUSH2 0x191 SWAP2 SWAP1 PUSH2 0x2424 JUMP JUMPDEST PUSH1 0x40 MLOAD DUP1 SWAP2 SUB SWAP1 RETURN JUMPDEST PUSH2 0x1A2 PUSH2 0x879 JUMP JUMPDEST PUSH1 0x40 MLOAD PUSH2 0x1AF SWAP2 SWAP1 PUSH2 0x2424 JUMP JUMPDEST PUSH1 0x40 MLOAD DUP1 SWAP2 SUB SWAP1 RETURN JUMPDEST PUSH2 0x1C0 PUSH2 0x88E JUMP JUMPDEST PUSH1 0x40 MLOAD PUSH2 0x1CD SWAP2 SWAP1 PUSH2 0x2424 JUMP JUMPDEST PUSH1 0x40 MLOAD DUP1 SWAP2 SUB SWAP1 RETURN JUMPDEST PUSH2 0x1F0 PUSH1 0x4 DUP1 CALLDATASIZE SUB DUP2 ADD SWAP1 PUSH2 0x1EB SWAP2 SWAP1 PUSH2 0x2477 JUMP JUMPDEST PUSH2 0x919 JUMP JUMPDEST STOP JUMPDEST PUSH2 0x1FA PUSH2 0xAD9 JUMP JUMPDEST PUSH1 0x40 MLOAD PUSH2 0x207 SWAP2 SWAP1 PUSH2 0x2424 JUMP JUMPDEST PUSH1 0x40 MLOAD DUP1 SWAP2 SUB SWAP1 RETURN JUMPDEST PUSH2 0x22A PUSH1 0x4 DUP1 CALLDATASIZE SUB DUP2 ADD SWAP1 PUSH2 0x225 SWAP2 SWAP1 PUSH2 0x22F8 JUMP JUMPDEST PUSH2 0xBA3 JUMP JUMPDEST STOP JUMPDEST PUSH2 0x246 PUSH1 0x4 DUP1 CALLDATASIZE SUB DUP2 ADD SWAP1 PUSH2 0x241 SWAP2 SWAP1 PUSH2 0x24A2 JUMP JUMPDEST PUSH2 0xC96 JUMP JUMPDEST STOP JUMPDEST PUSH2 0x250 PUSH2 0xE3A JUMP JUMPDEST PUSH1 0x40 MLOAD PUSH2 0x25D SWAP2 SWAP1 PUSH2 0x2424 JUMP JUMPDEST PUSH1 0x40 MLOAD DUP1 SWAP2 SUB SWAP1 RETURN JUMPDEST PUSH2 0x280 PUSH1 0x4 DUP1 CALLDATASIZE SUB DUP2 ADD SWAP1 PUSH2 0x27B SWAP2 SWAP1 PUSH2 0x25A5 JUMP JUMPDEST PUSH2 0xECA JUMP JUMPDEST STOP JUMPDEST PUSH2 0x29C PUSH1 0x4 DUP1 CALLDATASIZE SUB DUP2 ADD SWAP1 PUSH2 0x297 SWAP2 SWAP1 PUSH2 0x2399 JUMP JUMPDEST PUSH2 0x10AF JUMP JUMPDEST STOP JUMPDEST PUSH2 0x2B8 PUSH1 0x4 DUP1 CALLDATASIZE SUB DUP2 ADD SWAP1 PUSH2 0x2B3 SWAP2 SWAP1 PUSH2 0x2399 JUMP JUMPDEST PUSH2 0x1195 JUMP JUMPDEST PUSH1 0x40 MLOAD PUSH2 0x2C5 SWAP2 SWAP1 PUSH2 0x26D4 JUMP JUMPDEST PUSH1 0x40 MLOAD DUP1 SWAP2 SUB SWAP1 RETURN JUMPDEST PUSH2 0x2D6 PUSH2 0x11B2 JUMP JUMPDEST PUSH1 0x40 MLOAD PUSH2 0x2E3 SWAP2 SWAP1 PUSH2 0x26FC JUMP JUMPDEST PUSH1 0x40 MLOAD DUP1 SWAP2 SUB SWAP1 RETURN JUMPDEST PUSH2 0x2F4 PUSH2 0x11D7 JUMP JUMPDEST PUSH1 0x40 MLOAD PUSH2 0x301 SWAP2 SWAP1 PUSH2 0x2724 JUMP JUMPDEST PUSH1 0x40 MLOAD DUP1 SWAP2 SUB SWAP1 RETURN JUMPDEST PUSH2 0x312 PUSH2 0x11E3 JUMP JUMPDEST PUSH1 0x40 MLOAD PUSH2 0x31F SWAP2 SWAP1 PUSH2 0x2424 JUMP JUMPDEST PUSH1 0x40 MLOAD DUP1 SWAP2 SUB SWAP1 RETURN JUMPDEST PUSH2 0x342 PUSH1 0x4 DUP1 CALLDATASIZE SUB DUP2 ADD SWAP1 PUSH2 0x33D SWAP2 SWAP1 PUSH2 0x22F8 JUMP JUMPDEST PUSH2 0x1273 JUMP JUMPDEST STOP JUMPDEST PUSH2 0x35E PUSH1 0x4 DUP1 CALLDATASIZE SUB DUP2 ADD SWAP1 PUSH2 0x359 SWAP2 SWAP1 PUSH2 0x22F8 JUMP JUMPDEST PUSH2 0x1445 JUMP JUMPDEST STOP JUMPDEST PUSH2 0x37A PUSH1 0x4 DUP1 CALLDATASIZE SUB DUP2 ADD SWAP1 PUSH2 0x375 SWAP2 SWAP1 PUSH2 0x2477 JUMP JUMPDEST PUSH2 0x1538 JUMP JUMPDEST PUSH1 0x40 MLOAD PUSH2 0x38B SWAP6 SWAP5 SWAP4 SWAP3 SWAP2 SWAP1 PUSH2 0x273D JUMP JUMPDEST PUSH1 0x40 MLOAD DUP1 SWAP2 SUB SWAP1 RETURN JUMPDEST PUSH2 0x3AE PUSH1 0x4 DUP1 CALLDATASIZE SUB DUP2 ADD SWAP1 PUSH2 0x3A9 SWAP2 SWAP1 PUSH2 0x2477 JUMP JUMPDEST PUSH2 0x1817 JUMP JUMPDEST PUSH1 0x40 MLOAD PUSH2 0x3BB SWAP2 SWAP1 PUSH2 0x2888 JUMP JUMPDEST PUSH1 0x40 MLOAD DUP1 SWAP2 SUB SWAP1 RETURN JUMPDEST PUSH2 0x3DE PUSH1 0x4 DUP1 CALLDATASIZE SUB DUP2 ADD SWAP1 PUSH2 0x3D9 SWAP2 SWAP1 PUSH2 0x22F8 JUMP JUMPDEST PUSH2 0x1B20 JUMP JUMPDEST STOP JUMPDEST PUSH2 0x3E8 PUSH2 0x1C13 JUMP JUMPDEST PUSH1 0x40 MLOAD PUSH2 0x3F5 SWAP2 SWAP1 PUSH2 0x2424 JUMP JUMPDEST PUSH1 0x40 MLOAD DUP1 SWAP2 SUB SWAP1 RETURN JUMPDEST PUSH1 0x3 PUSH0 SWAP1 SLOAD SWAP1 PUSH2 0x100 EXP SWAP1 DIV PUSH20 0xFFFFFFFFFFFFFFFFFFFFFFFFFFFFFFFFFFFFFFFF AND PUSH20 0xFFFFFFFFFFFFFFFFFFFFFFFFFFFFFFFFFFFFFFFF AND CALLER PUSH20 0xFFFFFFFFFFFFFFFFFFFFFFFFFFFFFFFFFFFFFFFF AND EQ DUP1 PUSH2 0x49F JUMPI POP PUSH1 0x2 PUSH0 CALLER PUSH20 0xFFFFFFFFFFFFFFFFFFFFFFFFFFFFFFFFFFFFFFFF AND PUSH20 0xFFFFFFFFFFFFFFFFFFFFFFFFFFFFFFFFFFFFFFFF AND DUP2 MSTORE PUSH1 0x20 ADD SWAP1 DUP2 MSTORE PUSH1 0x20 ADD PUSH0 KECCAK256 PUSH0 SWAP1 SLOAD SWAP1 PUSH2 0x100 EXP SWAP1 DIV PUSH1 0xFF AND JUMPDEST PUSH2 0x4DE JUMPI PUSH1 0x40 MLOAD PUSH32 0x8C379A000000000000000000000000000000000000000000000000000000000 DUP2 MSTORE PUSH1 0x4 ADD PUSH2 0x4D5 SWAP1 PUSH2 0x28F2 JUMP JUMPDEST PUSH1 0x40 MLOAD DUP1 SWAP2 SUB SWAP1 REVERT JUMPDEST PUSH0 PUSH2 0x51E DUP3 PUSH1 0x40 MLOAD DUP1 PUSH1 0x40 ADD PUSH1 0x40 MSTORE DUP1 PUSH1 0x1 DUP2 MSTORE PUSH1 0x20 ADD PUSH32 0x7C00000000000000000000000000000000000000000000000000000000000000 DUP2 MSTORE POP PUSH2 0x1CA2 JUMP JUMPDEST SWAP1 POP PUSH0 PUSH1 0x5 DUP3 MLOAD PUSH2 0x52F SWAP2 SWAP1 PUSH2 0x293D JUMP JUMPDEST EQ PUSH2 0x56F JUMPI PUSH1 0x40 MLOAD PUSH32 0x8C379A000000000000000000000000000000000000000000000000000000000 DUP2 MSTORE PUSH1 0x4 ADD PUSH2 0x566 SWAP1 PUSH2 0x29B7 JUMP JUMPDEST PUSH1 0x40 MLOAD DUP1 SWAP2 SUB SWAP1 REVERT JUMPDEST PUSH0 JUMPDEST DUP2 MLOAD DUP2 LT ISZERO PUSH2 0x6FD JUMPI PUSH1 0x1 PUSH1 0x40 MLOAD DUP1 PUSH1 0xA0 ADD PUSH1 0x40 MSTORE DUP1 DUP5 DUP5 DUP2 MLOAD DUP2 LT PUSH2 0x59A JUMPI PUSH2 0x599 PUSH2 0x29D5 JUMP JUMPDEST JUMPDEST PUSH1 0x20 MUL PUSH1 0x20 ADD ADD MLOAD DUP2 MSTORE PUSH1 0x20 ADD DUP5 PUSH1 0x1 DUP6 PUSH2 0x5B5 SWAP2 SWAP1 PUSH2 0x2A2F JUMP JUMPDEST DUP2 MLOAD DUP2 LT PUSH2 0x5C6 JUMPI PUSH2 0x5C5 PUSH2 0x29D5 JUMP JUMPDEST JUMPDEST PUSH1 0x20 MUL PUSH1 0x20 ADD ADD MLOAD DUP2 MSTORE PUSH1 0x20 ADD DUP5 PUSH1 0x2 DUP6 PUSH2 0x5E1 SWAP2 SWAP1 PUSH2 0x2A2F JUMP JUMPDEST DUP2 MLOAD DUP2 LT PUSH2 0x5F2 JUMPI PUSH2 0x5F1 PUSH2 0x29D5 JUMP JUMPDEST JUMPDEST PUSH1 0x20 MUL PUSH1 0x20 ADD ADD MLOAD DUP2 MSTORE PUSH1 0x20 ADD DUP5 PUSH1 0x3 DUP6 PUSH2 0x60D SWAP2 SWAP1 PUSH2 0x2A2F JUMP JUMPDEST DUP2 MLOAD DUP2 LT PUSH2 0x61E JUMPI PUSH2 0x61D PUSH2 0x29D5 JUMP JUMPDEST JUMPDEST PUSH1 0x20 MUL PUSH1 0x20 ADD ADD MLOAD DUP2 MSTORE PUSH1 0x20 ADD DUP5 PUSH1 0x4 DUP6 PUSH2 0x639 SWAP2 SWAP1 PUSH2 0x2A2F JUMP JUMPDEST DUP2 MLOAD DUP2 LT PUSH2 0x64A JUMPI PUSH2 0x649 PUSH2 0x29D5 JUMP JUMPDEST JUMPDEST PUSH1 0x20 MUL PUSH1 0x20 ADD ADD MLOAD DUP2 MSTORE POP SWAP1 DUP1 PUSH1 0x1 DUP2 SLOAD ADD DUP1 DUP3 SSTORE DUP1 SWAP2 POP POP PUSH1 0x1 SWAP1 SUB SWAP1 PUSH0 MSTORE PUSH1 0x20 PUSH0 KECCAK256 SWAP1 PUSH1 0x5 MUL ADD PUSH0 SWAP1 SWAP2 SWAP1 SWAP2 SWAP1 SWAP2 POP PUSH0 DUP3 ADD MLOAD DUP2 PUSH0 ADD SWAP1 DUP2 PUSH2 0x68E SWAP2 SWAP1 PUSH2 0x2C5C JUMP JUMPDEST POP PUSH1 0x20 DUP3 ADD MLOAD DUP2 PUSH1 0x1 ADD SWAP1 DUP2 PUSH2 0x6A4 SWAP2 SWAP1 PUSH2 0x2C5C JUMP JUMPDEST POP PUSH1 0x40 DUP3 ADD MLOAD DUP2 PUSH1 0x2 ADD SWAP1 DUP2 PUSH2 0x6BA SWAP2 SWAP1 PUSH2 0x2C5C JUMP JUMPDEST POP PUSH1 0x60 DUP3 ADD MLOAD DUP2 PUSH1 0x3 ADD SWAP1 DUP2 PUSH2 0x6D0 SWAP2 SWAP1 PUSH2 0x2C5C JUMP JUMPDEST POP PUSH1 0x80 DUP3 ADD MLOAD DUP2 PUSH1 0x4 ADD SWAP1 DUP2 PUSH2 0x6E6 SWAP2 SWAP1 PUSH2 0x2C5C JUMP JUMPDEST POP POP POP PUSH1 0x5 DUP2 PUSH2 0x6F6 SWAP2 SWAP1 PUSH2 0x2A2F JUMP JUMPDEST SWAP1 POP PUSH2 0x571 JUMP JUMPDEST POP POP POP JUMP JUMPDEST PUSH1 0x3 PUSH0 SWAP1 SLOAD SWAP1 PUSH2 0x100 EXP SWAP1 DIV PUSH20 0xFFFFFFFFFFFFFFFFFFFFFFFFFFFFFFFFFFFFFFFF AND PUSH20 0xFFFFFFFFFFFFFFFFFFFFFFFFFFFFFFFFFFFFFFFF AND CALLER PUSH20 0xFFFFFFFFFFFFFFFFFFFFFFFFFFFFFFFFFFFFFFFF AND EQ PUSH2 0x791 JUMPI PUSH1 0x40 MLOAD PUSH32 0x8C379A000000000000000000000000000000000000000000000000000000000 DUP2 MSTORE PUSH1 0x4 ADD PUSH2 0x788 SWAP1 PUSH2 0x2D75 JUMP JUMPDEST PUSH1 0x40 MLOAD DUP1 SWAP2 SUB SWAP1 REVERT JUMPDEST PUSH1 0x1 PUSH1 0x2 PUSH0 DUP4 PUSH20 0xFFFFFFFFFFFFFFFFFFFFFFFFFFFFFFFFFFFFFFFF AND PUSH20 0xFFFFFFFFFFFFFFFFFFFFFFFFFFFFFFFFFFFFFFFF AND DUP2 MSTORE PUSH1 0x20 ADD SWAP1 DUP2 MSTORE PUSH1 0x20 ADD PUSH0 KECCAK256 PUSH0 PUSH2 0x100 EXP DUP2 SLOAD DUP2 PUSH1 0xFF MUL NOT AND SWAP1 DUP4 ISZERO ISZERO MUL OR SWAP1 SSTORE POP POP JUMP JUMPDEST PUSH1 0x60 PUSH1 0x4 DUP1 SLOAD PUSH2 0x7F8 SWAP1 PUSH2 0x2A8F JUMP JUMPDEST DUP1 PUSH1 0x1F ADD PUSH1 0x20 DUP1 SWAP2 DIV MUL PUSH1 0x20 ADD PUSH1 0x40 MLOAD SWAP1 DUP2 ADD PUSH1 0x40 MSTORE DUP1 SWAP3 SWAP2 SWAP1 DUP2 DUP2 MSTORE PUSH1 0x20 ADD DUP3 DUP1 SLOAD PUSH2 0x824 SWAP1 PUSH2 0x2A8F JUMP JUMPDEST DUP1 ISZERO PUSH2 0x86F JUMPI DUP1 PUSH1 0x1F LT PUSH2 0x846 JUMPI PUSH2 0x100 DUP1 DUP4 SLOAD DIV MUL DUP4 MSTORE SWAP2 PUSH1 0x20 ADD SWAP2 PUSH2 0x86F JUMP JUMPDEST DUP3 ADD SWAP2 SWAP1 PUSH0 MSTORE PUSH1 0x20 PUSH0 KECCAK256 SWAP1 JUMPDEST DUP2 SLOAD DUP2 MSTORE SWAP1 PUSH1 0x1 ADD SWAP1 PUSH1 0x20 ADD DUP1 DUP4 GT PUSH2 0x852 JUMPI DUP3 SWAP1 SUB PUSH1 0x1F AND DUP3 ADD SWAP2 JUMPDEST POP POP POP POP POP SWAP1 POP SWAP1 JUMP JUMPDEST PUSH1 0x60 PUSH2 0x889 PUSH1 0x1 DUP1 SLOAD SWAP1 POP PUSH2 0x1EDE JUMP JUMPDEST SWAP1 POP SWAP1 JUMP JUMPDEST PUSH0 DUP1 SLOAD PUSH2 0x89A SWAP1 PUSH2 0x2A8F JUMP JUMPDEST DUP1 PUSH1 0x1F ADD PUSH1 0x20 DUP1 SWAP2 DIV MUL PUSH1 0x20 ADD PUSH1 0x40 MLOAD SWAP1 DUP2 ADD PUSH1 0x40 MSTORE DUP1 SWAP3 SWAP2 SWAP1 DUP2 DUP2 MSTORE PUSH1 0x20 ADD DUP3 DUP1 SLOAD PUSH2 0x8C6 SWAP1 PUSH2 0x2A8F JUMP JUMPDEST DUP1 ISZERO PUSH2 0x911 JUMPI DUP1 PUSH1 0x1F LT PUSH2 0x8E8 JUMPI PUSH2 0x100 DUP1 DUP4 SLOAD DIV MUL DUP4 MSTORE SWAP2 PUSH1 0x20 ADD SWAP2 PUSH2 0x911 JUMP JUMPDEST DUP3 ADD SWAP2 SWAP1 PUSH0 MSTORE PUSH1 0x20 PUSH0 KECCAK256 SWAP1 JUMPDEST DUP2 SLOAD DUP2 MSTORE SWAP1 PUSH1 0x1 ADD SWAP1 PUSH1 0x20 ADD DUP1 DUP4 GT PUSH2 0x8F4 JUMPI DUP3 SWAP1 SUB PUSH1 0x1F AND DUP3 ADD SWAP2 JUMPDEST POP POP POP POP POP DUP2 JUMP JUMPDEST PUSH1 0x3 PUSH0 SWAP1 SLOAD SWAP1 PUSH2 0x100 EXP SWAP1 DIV PUSH20 0xFFFFFFFFFFFFFFFFFFFFFFFFFFFFFFFFFFFFFFFF AND PUSH20 0xFFFFFFFFFFFFFFFFFFFFFFFFFFFFFFFFFFFFFFFF AND CALLER PUSH20 0xFFFFFFFFFFFFFFFFFFFFFFFFFFFFFFFFFFFFFFFF AND EQ DUP1 PUSH2 0x9BA JUMPI POP PUSH1 0x2 PUSH0 CALLER PUSH20 0xFFFFFFFFFFFFFFFFFFFFFFFFFFFFFFFFFFFFFFFF AND PUSH20 0xFFFFFFFFFFFFFFFFFFFFFFFFFFFFFFFFFFFFFFFF AND DUP2 MSTORE PUSH1 0x20 ADD SWAP1 DUP2 MSTORE PUSH1 0x20 ADD PUSH0 KECCAK256 PUSH0 SWAP1 SLOAD SWAP1 PUSH2 0x100 EXP SWAP1 DIV PUSH1 0xFF AND JUMPDEST PUSH2 0x9F9 JUMPI PUSH1 0x40 MLOAD PUSH32 0x8C379A000000000000000000000000000000000000000000000000000000000 DUP2 MSTORE PUSH1 0x4 ADD PUSH2 0x9F0 SWAP1 PUSH2 0x28F2 JUMP JUMPDEST PUSH1 0x40 MLOAD DUP1 SWAP2 SUB SWAP1 REVERT JUMPDEST PUSH0 PUSH1 0x1 DUP1 SLOAD SWAP1 POP SWAP1 POP PUSH0 DUP2 SUB PUSH2 0xA0F JUMPI POP PUSH2 0xAD6 JUMP JUMPDEST PUSH0 DUP3 DUP3 LT PUSH2 0xA28 JUMPI DUP3 DUP3 PUSH2 0xA23 SWAP2 SWAP1 PUSH2 0x2D93 JUMP JUMPDEST PUSH2 0xA2A JUMP JUMPDEST PUSH0 JUMPDEST SWAP1 POP PUSH0 PUSH1 0x1 DUP4 PUSH2 0xA3A SWAP2 SWAP1 PUSH2 0x2D93 JUMP JUMPDEST SWAP1 POP JUMPDEST DUP2 DUP2 LT PUSH2 0xAD2 JUMPI PUSH1 0x1 DUP1 SLOAD DUP1 PUSH2 0xA56 JUMPI PUSH2 0xA55 PUSH2 0x2DC6 JUMP JUMPDEST JUMPDEST PUSH1 0x1 SWAP1 SUB DUP2 DUP2 SWAP1 PUSH0 MSTORE PUSH1 0x20 PUSH0 KECCAK256 SWAP1 PUSH1 0x5 MUL ADD PUSH0 DUP1 DUP3 ADD PUSH0 PUSH2 0xA77 SWAP2 SWAP1 PUSH2 0x2124 JUMP JUMPDEST PUSH1 0x1 DUP3 ADD PUSH0 PUSH2 0xA86 SWAP2 SWAP1 PUSH2 0x2124 JUMP JUMPDEST PUSH1 0x2 DUP3 ADD PUSH0 PUSH2 0xA95 SWAP2 SWAP1 PUSH2 0x2124 JUMP JUMPDEST PUSH1 0x3 DUP3 ADD PUSH0 PUSH2 0xAA4 SWAP2 SWAP1 PUSH2 0x2124 JUMP JUMPDEST PUSH1 0x4 DUP3 ADD PUSH0 PUSH2 0xAB3 SWAP2 SWAP1 PUSH2 0x2124 JUMP JUMPDEST POP POP SWAP1 SSTORE PUSH0 DUP2 SUB ISZERO PUSH2 0xAD2 JUMPI DUP1 DUP1 PUSH2 0xACA SWAP1 PUSH2 0x2DF3 JUMP JUMPDEST SWAP2 POP POP PUSH2 0xA3D JUMP JUMPDEST POP POP POP JUMPDEST POP JUMP JUMPDEST PUSH1 0x60 PUSH1 0x40 MLOAD PUSH1 0x20 ADD PUSH2 0xAEA SWAP1 PUSH2 0x2E6E JUMP JUMPDEST PUSH1 0x40 MLOAD PUSH1 0x20 DUP2 DUP4 SUB SUB DUP2 MSTORE SWAP1 PUSH1 0x40 MSTORE DUP1 MLOAD SWAP1 PUSH1 0x20 ADD KECCAK256 PUSH0 PUSH1 0x40 MLOAD PUSH1 0x20 ADD PUSH2 0xB11 SWAP2 SWAP1 PUSH2 0x2F02 JUMP JUMPDEST PUSH1 0x40 MLOAD PUSH1 0x20 DUP2 DUP4 SUB SUB DUP2 MSTORE SWAP1 PUSH1 0x40 MSTORE DUP1 MLOAD SWAP1 PUSH1 0x20 ADD KECCAK256 EQ PUSH2 0xB67 JUMPI PUSH1 0x40 MLOAD DUP1 PUSH1 0x40 ADD PUSH1 0x40 MSTORE DUP1 PUSH1 0x5 DUP2 MSTORE PUSH1 0x20 ADD PUSH32 0x6C69676874000000000000000000000000000000000000000000000000000000 DUP2 MSTORE POP PUSH2 0xB9E JUMP JUMPDEST PUSH1 0x40 MLOAD DUP1 PUSH1 0x40 ADD PUSH1 0x40 MSTORE DUP1 PUSH1 0x4 DUP2 MSTORE PUSH1 0x20 ADD PUSH32 0x6461726B00000000000000000000000000000000000000000000000000000000 DUP2 MSTORE POP JUMPDEST SWAP1 POP SWAP1 JUMP JUMPDEST PUSH1 0x3 PUSH0 SWAP1 SLOAD SWAP1 PUSH2 0x100 EXP SWAP1 DIV PUSH20 0xFFFFFFFFFFFFFFFFFFFFFFFFFFFFFFFFFFFFFFFF AND PUSH20 0xFFFFFFFFFFFFFFFFFFFFFFFFFFFFFFFFFFFFFFFF AND CALLER PUSH20 0xFFFFFFFFFFFFFFFFFFFFFFFFFFFFFFFFFFFFFFFF AND EQ DUP1 PUSH2 0xC44 JUMPI POP PUSH1 0x2 PUSH0 CALLER PUSH20 0xFFFFFFFFFFFFFFFFFFFFFFFFFFFFFFFFFFFFFFFF AND PUSH20 0xFFFFFFFFFFFFFFFFFFFFFFFFFFFFFFFFFFFFFFFF AND DUP2 MSTORE PUSH1 0x20 ADD SWAP1 DUP2 MSTORE PUSH1 0x20 ADD PUSH0 KECCAK256 PUSH0 SWAP1 SLOAD SWAP1 PUSH2 0x100 EXP SWAP1 DIV PUSH1 0xFF AND JUMPDEST PUSH2 0xC83 JUMPI PUSH1 0x40 MLOAD PUSH32 0x8C379A000000000000000000000000000000000000000000000000000000000 DUP2 MSTORE PUSH1 0x4 ADD PUSH2 0xC7A SWAP1 PUSH2 0x28F2 JUMP JUMPDEST PUSH1 0x40 MLOAD DUP1 SWAP2 SUB SWAP1 REVERT JUMPDEST DUP1 PUSH1 0x6 SWAP1 DUP2 PUSH2 0xC92 SWAP2 SWAP1 PUSH2 0x2C5C JUMP JUMPDEST POP POP JUMP JUMPDEST PUSH1 0x3 PUSH0 SWAP1 SLOAD SWAP1 PUSH2 0x100 EXP SWAP1 DIV PUSH20 0xFFFFFFFFFFFFFFFFFFFFFFFFFFFFFFFFFFFFFFFF AND PUSH20 0xFFFFFFFFFFFFFFFFFFFFFFFFFFFFFFFFFFFFFFFF AND CALLER PUSH20 0xFFFFFFFFFFFFFFFFFFFFFFFFFFFFFFFFFFFFFFFF AND EQ DUP1 PUSH2 0xD37 JUMPI POP PUSH1 0x2 PUSH0 CALLER PUSH20 0xFFFFFFFFFFFFFFFFFFFFFFFFFFFFFFFFFFFFFFFF AND PUSH20 0xFFFFFFFFFFFFFFFFFFFFFFFFFFFFFFFFFFFFFFFF AND DUP2 MSTORE PUSH1 0x20 ADD SWAP1 DUP2 MSTORE PUSH1 0x20 ADD PUSH0 KECCAK256 PUSH0 SWAP1 SLOAD SWAP1 PUSH2 0x100 EXP SWAP1 DIV PUSH1 0xFF AND JUMPDEST PUSH2 0xD76 JUMPI PUSH1 0x40 MLOAD PUSH32 0x8C379A000000000000000000000000000000000000000000000000000000000 DUP2 MSTORE PUSH1 0x4 ADD PUSH2 0xD6D SWAP1 PUSH2 0x28F2 JUMP JUMPDEST PUSH1 0x40 MLOAD DUP1 SWAP2 SUB SWAP1 REVERT JUMPDEST PUSH1 0x1 PUSH1 0x40 MLOAD DUP1 PUSH1 0xA0 ADD PUSH1 0x40 MSTORE DUP1 DUP8 DUP2 MSTORE PUSH1 0x20 ADD DUP7 DUP2 MSTORE PUSH1 0x20 ADD DUP6 DUP2 MSTORE PUSH1 0x20 ADD DUP5 DUP2 MSTORE PUSH1 0x20 ADD DUP4 DUP2 MSTORE POP SWAP1 DUP1 PUSH1 0x1 DUP2 SLOAD ADD DUP1 DUP3 SSTORE DUP1 SWAP2 POP POP PUSH1 0x1 SWAP1 SUB SWAP1 PUSH0 MSTORE PUSH1 0x20 PUSH0 KECCAK256 SWAP1 PUSH1 0x5 MUL ADD PUSH0 SWAP1 SWAP2 SWAP1 SWAP2 SWAP1 SWAP2 POP PUSH0 DUP3 ADD MLOAD DUP2 PUSH0 ADD SWAP1 DUP2 PUSH2 0xDD8 SWAP2 SWAP1 PUSH2 0x2C5C JUMP JUMPDEST POP PUSH1 0x20 DUP3 ADD MLOAD DUP2 PUSH1 0x1 ADD SWAP1 DUP2 PUSH2 0xDEE SWAP2 SWAP1 PUSH2 0x2C5C JUMP JUMPDEST POP PUSH1 0x40 DUP3 ADD MLOAD DUP2 PUSH1 0x2 ADD SWAP1 DUP2 PUSH2 0xE04 SWAP2 SWAP1 PUSH2 0x2C5C JUMP JUMPDEST POP PUSH1 0x60 DUP3 ADD MLOAD DUP2 PUSH1 0x3 ADD SWAP1 DUP2 PUSH2 0xE1A SWAP2 SWAP1 PUSH2 0x2C5C JUMP JUMPDEST POP PUSH1 0x80 DUP3 ADD MLOAD DUP2 PUSH1 0x4 ADD SWAP1 DUP2 PUSH2 0xE30 SWAP2 SWAP1 PUSH2 0x2C5C JUMP JUMPDEST POP POP POP POP POP POP POP POP JUMP JUMPDEST PUSH1 0x60 PUSH1 0x5 DUP1 SLOAD PUSH2 0xE49 SWAP1 PUSH2 0x2A8F JUMP JUMPDEST DUP1 PUSH1 0x1F ADD PUSH1 0x20 DUP1 SWAP2 DIV MUL PUSH1 0x20 ADD PUSH1 0x40 MLOAD SWAP1 DUP2 ADD PUSH1 0x40 MSTORE DUP1 SWAP3 SWAP2 SWAP1 DUP2 DUP2 MSTORE PUSH1 0x20 ADD DUP3 DUP1 SLOAD PUSH2 0xE75 SWAP1 PUSH2 0x2A8F JUMP JUMPDEST DUP1 ISZERO PUSH2 0xEC0 JUMPI DUP1 PUSH1 0x1F LT PUSH2 0xE97 JUMPI PUSH2 0x100 DUP1 DUP4 SLOAD DIV MUL DUP4 MSTORE SWAP2 PUSH1 0x20 ADD SWAP2 PUSH2 0xEC0 JUMP JUMPDEST DUP3 ADD SWAP2 SWAP1 PUSH0 MSTORE PUSH1 0x20 PUSH0 KECCAK256 SWAP1 JUMPDEST DUP2 SLOAD DUP2 MSTORE SWAP1 PUSH1 0x1 ADD SWAP1 PUSH1 0x20 ADD DUP1 DUP4 GT PUSH2 0xEA3 JUMPI DUP3 SWAP1 SUB PUSH1 0x1F AND DUP3 ADD SWAP2 JUMPDEST POP POP POP POP POP SWAP1 POP SWAP1 JUMP JUMPDEST PUSH1 0x3 PUSH0 SWAP1 SLOAD SWAP1 PUSH2 0x100 EXP SWAP1 DIV PUSH20 0xFFFFFFFFFFFFFFFFFFFFFFFFFFFFFFFFFFFFFFFF AND PUSH20 0xFFFFFFFFFFFFFFFFFFFFFFFFFFFFFFFFFFFFFFFF AND CALLER PUSH20 0xFFFFFFFFFFFFFFFFFFFFFFFFFFFFFFFFFFFFFFFF AND EQ DUP1 PUSH2 0xF6B JUMPI POP PUSH1 0x2 PUSH0 CALLER PUSH20 0xFFFFFFFFFFFFFFFFFFFFFFFFFFFFFFFFFFFFFFFF AND PUSH20 0xFFFFFFFFFFFFFFFFFFFFFFFFFFFFFFFFFFFFFFFF AND DUP2 MSTORE PUSH1 0x20 ADD SWAP1 DUP2 MSTORE PUSH1 0x20 ADD PUSH0 KECCAK256 PUSH0 SWAP1 SLOAD SWAP1 PUSH2 0x100 EXP SWAP1 DIV PUSH1 0xFF AND JUMPDEST PUSH2 0xFAA JUMPI PUSH1 0x40 MLOAD PUSH32 0x8C379A000000000000000000000000000000000000000000000000000000000 DUP2 MSTORE PUSH1 0x4 ADD PUSH2 0xFA1 SWAP1 PUSH2 0x28F2 JUMP JUMPDEST PUSH1 0x40 MLOAD DUP1 SWAP2 SUB SWAP1 REVERT JUMPDEST PUSH1 0x1 DUP1 SLOAD SWAP1 POP DUP7 LT PUSH2 0xFF1 JUMPI PUSH1 0x40 MLOAD PUSH32 0x8C379A000000000000000000000000000000000000000000000000000000000 DUP2 MSTORE PUSH1 0x4 ADD PUSH2 0xFE8 SWAP1 PUSH2 0x2F62 JUMP JUMPDEST PUSH1 0x40 MLOAD DUP1 SWAP2 SUB SWAP1 REVERT JUMPDEST PUSH1 0x40 MLOAD DUP1 PUSH1 0xA0 ADD PUSH1 0x40 MSTORE DUP1 DUP7 DUP2 MSTORE PUSH1 0x20 ADD DUP6 DUP2 MSTORE PUSH1 0x20 ADD DUP5 DUP2 MSTORE PUSH1 0x20 ADD DUP4 DUP2 MSTORE PUSH1 0x20 ADD DUP3 DUP2 MSTORE POP PUSH1 0x1 DUP8 DUP2 SLOAD DUP2 LT PUSH2 0x102C JUMPI PUSH2 0x102B PUSH2 0x29D5 JUMP JUMPDEST JUMPDEST SWAP1 PUSH0 MSTORE PUSH1 0x20 PUSH0 KECCAK256 SWAP1 PUSH1 0x5 MUL ADD PUSH0 DUP3 ADD MLOAD DUP2 PUSH0 ADD SWAP1 DUP2 PUSH2 0x104B SWAP2 SWAP1 PUSH2 0x2C5C JUMP JUMPDEST POP PUSH1 0x20 DUP3 ADD MLOAD DUP2 PUSH1 0x1 ADD SWAP1 DUP2 PUSH2 0x1061 SWAP2 SWAP1 PUSH2 0x2C5C JUMP JUMPDEST POP PUSH1 0x40 DUP3 ADD MLOAD DUP2 PUSH1 0x2 ADD SWAP1 DUP2 PUSH2 0x1077 SWAP2 SWAP1 PUSH2 0x2C5C JUMP JUMPDEST POP PUSH1 0x60 DUP3 ADD MLOAD DUP2 PUSH1 0x3 ADD SWAP1 DUP2 PUSH2 0x108D SWAP2 SWAP1 PUSH2 0x2C5C JUMP JUMPDEST POP PUSH1 0x80 DUP3 ADD MLOAD DUP2 PUSH1 0x4 ADD SWAP1 DUP2 PUSH2 0x10A3 SWAP2 SWAP1 PUSH2 0x2C5C JUMP JUMPDEST POP SWAP1 POP POP POP POP POP POP POP POP JUMP JUMPDEST PUSH1 0x3 PUSH0 SWAP1 SLOAD SWAP1 PUSH2 0x100 EXP SWAP1 DIV PUSH20 0xFFFFFFFFFFFFFFFFFFFFFFFFFFFFFFFFFFFFFFFF AND PUSH20 0xFFFFFFFFFFFFFFFFFFFFFFFFFFFFFFFFFFFFFFFF AND CALLER PUSH20 0xFFFFFFFFFFFFFFFFFFFFFFFFFFFFFFFFFFFFFFFF AND EQ PUSH2 0x113E JUMPI PUSH1 0x40 MLOAD PUSH32 0x8C379A000000000000000000000000000000000000000000000000000000000 DUP2 MSTORE PUSH1 0x4 ADD PUSH2 0x1135 SWAP1 PUSH2 0x2D75 JUMP JUMPDEST PUSH1 0x40 MLOAD DUP1 SWAP2 SUB SWAP1 REVERT JUMPDEST PUSH0 PUSH1 0x2 PUSH0 DUP4 PUSH20 0xFFFFFFFFFFFFFFFFFFFFFFFFFFFFFFFFFFFFFFFF AND PUSH20 0xFFFFFFFFFFFFFFFFFFFFFFFFFFFFFFFFFFFFFFFF AND DUP2 MSTORE PUSH1 0x20 ADD SWAP1 DUP2 MSTORE PUSH1 0x20 ADD PUSH0 KECCAK256 PUSH0 PUSH2 0x100 EXP DUP2 SLOAD DUP2 PUSH1 0xFF MUL NOT AND SWAP1 DUP4 ISZERO ISZERO MUL OR SWAP1 SSTORE POP POP JUMP JUMPDEST PUSH1 0x2 PUSH1 0x20 MSTORE DUP1 PUSH0 MSTORE PUSH1 0x40 PUSH0 KECCAK256 PUSH0 SWAP2 POP SLOAD SWAP1 PUSH2 0x100 EXP SWAP1 DIV PUSH1 0xFF AND DUP2 JUMP JUMPDEST PUSH1 0x3 PUSH0 SWAP1 SLOAD SWAP1 PUSH2 0x100 EXP SWAP1 DIV PUSH20 0xFFFFFFFFFFFFFFFFFFFFFFFFFFFFFFFFFFFFFFFF AND DUP2 JUMP JUMPDEST PUSH0 PUSH1 0x1 DUP1 SLOAD SWAP1 POP SWAP1 POP SWAP1 JUMP JUMPDEST PUSH1 0x60 PUSH1 0x6 DUP1 SLOAD PUSH2 0x11F2 SWAP1 PUSH2 0x2A8F JUMP JUMPDEST DUP1 PUSH1 0x1F ADD PUSH1 0x20 DUP1 SWAP2 DIV MUL PUSH1 0x20 ADD PUSH1 0x40 MLOAD SWAP1 DUP2 ADD PUSH1 0x40 MSTORE DUP1 SWAP3 SWAP2 SWAP1 DUP2 DUP2 MSTORE PUSH1 0x20 ADD DUP3 DUP1 SLOAD PUSH2 0x121E SWAP1 PUSH2 0x2A8F JUMP JUMPDEST DUP1 ISZERO PUSH2 0x1269 JUMPI DUP1 PUSH1 0x1F LT PUSH2 0x1240 JUMPI PUSH2 0x100 DUP1 DUP4 SLOAD DIV MUL DUP4 MSTORE SWAP2 PUSH1 0x20 ADD SWAP2 PUSH2 0x1269 JUMP JUMPDEST DUP3 ADD SWAP2 SWAP1 PUSH0 MSTORE PUSH1 0x20 PUSH0 KECCAK256 SWAP1 JUMPDEST DUP2 SLOAD DUP2 MSTORE SWAP1 PUSH1 0x1 ADD SWAP1 PUSH1 0x20 ADD DUP1 DUP4 GT PUSH2 0x124C JUMPI DUP3 SWAP1 SUB PUSH1 0x1F AND DUP3 ADD SWAP2 JUMPDEST POP POP POP POP POP SWAP1 POP SWAP1 JUMP JUMPDEST PUSH1 0x3 PUSH0 SWAP1 SLOAD SWAP1 PUSH2 0x100 EXP SWAP1 DIV PUSH20 0xFFFFFFFFFFFFFFFFFFFFFFFFFFFFFFFFFFFFFFFF AND PUSH20 0xFFFFFFFFFFFFFFFFFFFFFFFFFFFFFFFFFFFFFFFF AND CALLER PUSH20 0xFFFFFFFFFFFFFFFFFFFFFFFFFFFFFFFFFFFFFFFF AND EQ DUP1 PUSH2 0x1314 JUMPI POP PUSH1 0x2 PUSH0 CALLER PUSH20 0xFFFFFFFFFFFFFFFFFFFFFFFFFFFFFFFFFFFFFFFF AND PUSH20 0xFFFFFFFFFFFFFFFFFFFFFFFFFFFFFFFFFFFFFFFF AND DUP2 MSTORE PUSH1 0x20 ADD SWAP1 DUP2 MSTORE PUSH1 0x20 ADD PUSH0 KECCAK256 PUSH0 SWAP1 SLOAD SWAP1 PUSH2 0x100 EXP SWAP1 DIV PUSH1 0xFF AND JUMPDEST PUSH2 0x1353 JUMPI PUSH1 0x40 MLOAD PUSH32 0x8C379A000000000000000000000000000000000000000000000000000000000 DUP2 MSTORE PUSH1 0x4 ADD PUSH2 0x134A SWAP1 PUSH2 0x28F2 JUMP JUMPDEST PUSH1 0x40 MLOAD DUP1 SWAP2 SUB SWAP1 REVERT JUMPDEST PUSH1 0x40 MLOAD PUSH1 0x20 ADD PUSH2 0x1362 SWAP1 PUSH2 0x2E6E JUMP JUMPDEST PUSH1 0x40 MLOAD PUSH1 0x20 DUP2 DUP4 SUB SUB DUP2 MSTORE SWAP1 PUSH1 0x40 MSTORE DUP1 MLOAD SWAP1 PUSH1 0x20 ADD KECCAK256 DUP2 PUSH1 0x40 MLOAD PUSH1 0x20 ADD PUSH2 0x1389 SWAP2 SWAP1 PUSH2 0x2FB0 JUMP JUMPDEST PUSH1 0x40 MLOAD PUSH1 0x20 DUP2 DUP4 SUB SUB DUP2 MSTORE SWAP1 PUSH1 0x40 MSTORE DUP1 MLOAD SWAP1 PUSH1 0x20 ADD KECCAK256 EQ DUP1 PUSH2 0x13F4 JUMPI POP PUSH1 0x40 MLOAD PUSH1 0x20 ADD PUSH2 0x13B5 SWAP1 PUSH2 0x3010 JUMP JUMPDEST PUSH1 0x40 MLOAD PUSH1 0x20 DUP2 DUP4 SUB SUB DUP2 MSTORE SWAP1 PUSH1 0x40 MSTORE DUP1 MLOAD SWAP1 PUSH1 0x20 ADD KECCAK256 DUP2 PUSH1 0x40 MLOAD PUSH1 0x20 ADD PUSH2 0x13DC SWAP2 SWAP1 PUSH2 0x2FB0 JUMP JUMPDEST PUSH1 0x40 MLOAD PUSH1 0x20 DUP2 DUP4 SUB SUB DUP2 MSTORE SWAP1 PUSH1 0x40 MSTORE DUP1 MLOAD SWAP1 PUSH1 0x20 ADD KECCAK256 EQ JUMPDEST PUSH2 0x1433 JUMPI PUSH1 0x40 MLOAD PUSH32 0x8C379A000000000000000000000000000000000000000000000000000000000 DUP2 MSTORE PUSH1 0x4 ADD PUSH2 0x142A SWAP1 PUSH2 0x306E JUMP JUMPDEST PUSH1 0x40 MLOAD DUP1 SWAP2 SUB SWAP1 REVERT JUMPDEST DUP1 PUSH0 SWAP1 DUP2 PUSH2 0x1441 SWAP2 SWAP1 PUSH2 0x2C5C JUMP JUMPDEST POP POP JUMP JUMPDEST PUSH1 0x3 PUSH0 SWAP1 SLOAD SWAP1 PUSH2 0x100 EXP SWAP1 DIV PUSH20 0xFFFFFFFFFFFFFFFFFFFFFFFFFFFFFFFFFFFFFFFF AND PUSH20 0xFFFFFFFFFFFFFFFFFFFFFFFFFFFFFFFFFFFFFFFF AND CALLER PUSH20 0xFFFFFFFFFFFFFFFFFFFFFFFFFFFFFFFFFFFFFFFF AND EQ DUP1 PUSH2 0x14E6 JUMPI POP PUSH1 0x2 PUSH0 CALLER PUSH20 0xFFFFFFFFFFFFFFFFFFFFFFFFFFFFFFFFFFFFFFFF AND PUSH20 0xFFFFFFFFFFFFFFFFFFFFFFFFFFFFFFFFFFFFFFFF AND DUP2 MSTORE PUSH1 0x20 ADD SWAP1 DUP2 MSTORE PUSH1 0x20 ADD PUSH0 KECCAK256 PUSH0 SWAP1 SLOAD SWAP1 PUSH2 0x100 EXP SWAP1 DIV PUSH1 0xFF AND JUMPDEST PUSH2 0x1525 JUMPI PUSH1 0x40 MLOAD PUSH32 0x8C379A000000000000000000000000000000000000000000000000000000000 DUP2 MSTORE PUSH1 0x4 ADD PUSH2 0x151C SWAP1 PUSH2 0x28F2 JUMP JUMPDEST PUSH1 0x40 MLOAD DUP1 SWAP2 SUB SWAP1 REVERT JUMPDEST DUP1 PUSH1 0x5 SWAP1 DUP2 PUSH2 0x1534 SWAP2 SWAP1 PUSH2 0x2C5C JUMP JUMPDEST POP POP JUMP JUMPDEST PUSH1 0x1 DUP2 DUP2 SLOAD DUP2 LT PUSH2 0x1547 JUMPI PUSH0 DUP1 REVERT JUMPDEST SWAP1 PUSH0 MSTORE PUSH1 0x20 PUSH0 KECCAK256 SWAP1 PUSH1 0x5 MUL ADD PUSH0 SWAP2 POP SWAP1 POP DUP1 PUSH0 ADD DUP1 SLOAD PUSH2 0x1566 SWAP1 PUSH2 0x2A8F JUMP JUMPDEST DUP1 PUSH1 0x1F ADD PUSH1 0x20 DUP1 SWAP2 DIV MUL PUSH1 0x20 ADD PUSH1 0x40 MLOAD SWAP1 DUP2 ADD PUSH1 0x40 MSTORE DUP1 SWAP3 SWAP2 SWAP1 DUP2 DUP2 MSTORE PUSH1 0x20 ADD DUP3 DUP1 SLOAD PUSH2 0x1592 SWAP1 PUSH2 0x2A8F JUMP JUMPDEST DUP1 ISZERO PUSH2 0x15DD JUMPI DUP1 PUSH1 0x1F LT PUSH2 0x15B4 JUMPI PUSH2 0x100 DUP1 DUP4 SLOAD DIV MUL DUP4 MSTORE SWAP2 PUSH1 0x20 ADD SWAP2 PUSH2 0x15DD JUMP JUMPDEST DUP3 ADD SWAP2 SWAP1 PUSH0 MSTORE PUSH1 0x20 PUSH0 KECCAK256 SWAP1 JUMPDEST DUP2 SLOAD DUP2 MSTORE SWAP1 PUSH1 0x1 ADD SWAP1 PUSH1 0x20 ADD DUP1 DUP4 GT PUSH2 0x15C0 JUMPI DUP3 SWAP1 SUB PUSH1 0x1F AND DUP3 ADD SWAP2 JUMPDEST POP POP POP POP POP SWAP1 DUP1 PUSH1 0x1 ADD DUP1 SLOAD PUSH2 0x15F2 SWAP1 PUSH2 0x2A8F JUMP JUMPDEST DUP1 PUSH1 0x1F ADD PUSH1 0x20 DUP1 SWAP2 DIV MUL PUSH1 0x20 ADD PUSH1 0x40 MLOAD SWAP1 DUP2 ADD PUSH1 0x40 MSTORE DUP1 SWAP3 SWAP2 SWAP1 DUP2 DUP2 MSTORE PUSH1 0x20 ADD DUP3 DUP1 SLOAD PUSH2 0x161E SWAP1 PUSH2 0x2A8F JUMP JUMPDEST DUP1 ISZERO PUSH2 0x1669 JUMPI DUP1 PUSH1 0x1F LT PUSH2 0x1640 JUMPI PUSH2 0x100 DUP1 DUP4 SLOAD DIV MUL DUP4 MSTORE SWAP2 PUSH1 0x20 ADD SWAP2 PUSH2 0x1669 JUMP JUMPDEST DUP3 ADD SWAP2 SWAP1 PUSH0 MSTORE PUSH1 0x20 PUSH0 KECCAK256 SWAP1 JUMPDEST DUP2 SLOAD DUP2 MSTORE SWAP1 PUSH1 0x1 ADD SWAP1 PUSH1 0x20 ADD DUP1 DUP4 GT PUSH2 0x164C JUMPI DUP3 SWAP1 SUB PUSH1 0x1F AND DUP3 ADD SWAP2 JUMPDEST POP POP POP POP POP SWAP1 DUP1 PUSH1 0x2 ADD DUP1 SLOAD PUSH2 0x167E SWAP1 PUSH2 0x2A8F JUMP JUMPDEST DUP1 PUSH1 0x1F ADD PUSH1 0x20 DUP1 SWAP2 DIV MUL PUSH1 0x20 ADD PUSH1 0x40 MLOAD SWAP1 DUP2 ADD PUSH1 0x40 MSTORE DUP1 SWAP3 SWAP2 SWAP1 DUP2 DUP2 MSTORE PUSH1 0x20 ADD DUP3 DUP1 SLOAD PUSH2 0x16AA SWAP1 PUSH2 0x2A8F JUMP JUMPDEST DUP1 ISZERO PUSH2 0x16F5 JUMPI DUP1 PUSH1 0x1F LT PUSH2 0x16CC JUMPI PUSH2 0x100 DUP1 DUP4 SLOAD DIV MUL DUP4 MSTORE SWAP2 PUSH1 0x20 ADD SWAP2 PUSH2 0x16F5 JUMP JUMPDEST DUP3 ADD SWAP2 SWAP1 PUSH0 MSTORE PUSH1 0x20 PUSH0 KECCAK256 SWAP1 JUMPDEST DUP2 SLOAD DUP2 MSTORE SWAP1 PUSH1 0x1 ADD SWAP1 PUSH1 0x20 ADD DUP1 DUP4 GT PUSH2 0x16D8 JUMPI DUP3 SWAP1 SUB PUSH1 0x1F AND DUP3 ADD SWAP2 JUMPDEST POP POP POP POP POP SWAP1 DUP1 PUSH1 0x3 ADD DUP1 SLOAD PUSH2 0x170A SWAP1 PUSH2 0x2A8F JUMP JUMPDEST DUP1 PUSH1 0x1F ADD PUSH1 0x20 DUP1 SWAP2 DIV MUL PUSH1 0x20 ADD PUSH1 0x40 MLOAD SWAP1 DUP2 ADD PUSH1 0x40 MSTORE DUP1 SWAP3 SWAP2 SWAP1 DUP2 DUP2 MSTORE PUSH1 0x20 ADD DUP3 DUP1 SLOAD PUSH2 0x1736 SWAP1 PUSH2 0x2A8F JUMP JUMPDEST DUP1 ISZERO PUSH2 0x1781 JUMPI DUP1 PUSH1 0x1F LT PUSH2 0x1758 JUMPI PUSH2 0x100 DUP1 DUP4 SLOAD DIV MUL DUP4 MSTORE SWAP2 PUSH1 0x20 ADD SWAP2 PUSH2 0x1781 JUMP JUMPDEST DUP3 ADD SWAP2 SWAP1 PUSH0 MSTORE PUSH1 0x20 PUSH0 KECCAK256 SWAP1 JUMPDEST DUP2 SLOAD DUP2 MSTORE SWAP1 PUSH1 0x1 ADD SWAP1 PUSH1 0x20 ADD DUP1 DUP4 GT PUSH2 0x1764 JUMPI DUP3 SWAP1 SUB PUSH1 0x1F AND DUP3 ADD SWAP2 JUMPDEST POP POP POP POP POP SWAP1 DUP1 PUSH1 0x4 ADD DUP1 SLOAD PUSH2 0x1796 SWAP1 PUSH2 0x2A8F JUMP JUMPDEST DUP1 PUSH1 0x1F ADD PUSH1 0x20 DUP1 SWAP2 DIV MUL PUSH1 0x20 ADD PUSH1 0x40 MLOAD SWAP1 DUP2 ADD PUSH1 0x40 MSTORE DUP1 SWAP3 SWAP2 SWAP1 DUP2 DUP2 MSTORE PUSH1 0x20 ADD DUP3 DUP1 SLOAD PUSH2 0x17C2 SWAP1 PUSH2 0x2A8F JUMP JUMPDEST DUP1 ISZERO PUSH2 0x180D JUMPI DUP1 PUSH1 0x1F LT PUSH2 0x17E4 JUMPI PUSH2 0x100 DUP1 DUP4 SLOAD DIV MUL DUP4 MSTORE SWAP2 PUSH1 0x20 ADD SWAP2 PUSH2 0x180D JUMP JUMPDEST DUP3 ADD SWAP2 SWAP1 PUSH0 MSTORE PUSH1 0x20 PUSH0 KECCAK256 SWAP1 JUMPDEST DUP2 SLOAD DUP2 MSTORE SWAP1 PUSH1 0x1 ADD SWAP1 PUSH1 0x20 ADD DUP1 DUP4 GT PUSH2 0x17F0 JUMPI DUP3 SWAP1 SUB PUSH1 0x1F AND DUP3 ADD SWAP2 JUMPDEST POP POP POP POP POP SWAP1 POP DUP6 JUMP JUMPDEST PUSH2 0x181F PUSH2 0x2161 JUMP JUMPDEST PUSH1 0x1 DUP3 DUP2 SLOAD DUP2 LT PUSH2 0x1833 JUMPI PUSH2 0x1832 PUSH2 0x29D5 JUMP JUMPDEST JUMPDEST SWAP1 PUSH0 MSTORE PUSH1 0x20 PUSH0 KECCAK256 SWAP1 PUSH1 0x5 MUL ADD PUSH1 0x40 MLOAD DUP1 PUSH1 0xA0 ADD PUSH1 0x40 MSTORE SWAP1 DUP2 PUSH0 DUP3 ADD DUP1 SLOAD PUSH2 0x1859 SWAP1 PUSH2 0x2A8F JUMP JUMPDEST DUP1 PUSH1 0x1F ADD PUSH1 0x20 DUP1 SWAP2 DIV MUL PUSH1 0x20 ADD PUSH1 0x40 MLOAD SWAP1 DUP2 ADD PUSH1 0x40 MSTORE DUP1 SWAP3 SWAP2 SWAP1 DUP2 DUP2 MSTORE PUSH1 0x20 ADD DUP3 DUP1 SLOAD PUSH2 0x1885 SWAP1 PUSH2 0x2A8F JUMP JUMPDEST DUP1 ISZERO PUSH2 0x18D0 JUMPI DUP1 PUSH1 0x1F LT PUSH2 0x18A7 JUMPI PUSH2 0x100 DUP1 DUP4 SLOAD DIV MUL DUP4 MSTORE SWAP2 PUSH1 0x20 ADD SWAP2 PUSH2 0x18D0 JUMP JUMPDEST DUP3 ADD SWAP2 SWAP1 PUSH0 MSTORE PUSH1 0x20 PUSH0 KECCAK256 SWAP1 JUMPDEST DUP2 SLOAD DUP2 MSTORE SWAP1 PUSH1 0x1 ADD SWAP1 PUSH1 0x20 ADD DUP1 DUP4 GT PUSH2 0x18B3 JUMPI DUP3 SWAP1 SUB PUSH1 0x1F AND DUP3 ADD SWAP2 JUMPDEST POP POP POP POP POP DUP2 MSTORE PUSH1 0x20 ADD PUSH1 0x1 DUP3 ADD DUP1 SLOAD PUSH2 0x18E9 SWAP1 PUSH2 0x2A8F JUMP JUMPDEST DUP1 PUSH1 0x1F ADD PUSH1 0x20 DUP1 SWAP2 DIV MUL PUSH1 0x20 ADD PUSH1 0x40 MLOAD SWAP1 DUP2 ADD PUSH1 0x40 MSTORE DUP1 SWAP3 SWAP2 SWAP1 DUP2 DUP2 MSTORE PUSH1 0x20 ADD DUP3 DUP1 SLOAD PUSH2 0x1915 SWAP1 PUSH2 0x2A8F JUMP JUMPDEST DUP1 ISZERO PUSH2 0x1960 JUMPI DUP1 PUSH1 0x1F LT PUSH2 0x1937 JUMPI PUSH2 0x100 DUP1 DUP4 SLOAD DIV MUL DUP4 MSTORE SWAP2 PUSH1 0x20 ADD SWAP2 PUSH2 0x1960 JUMP JUMPDEST DUP3 ADD SWAP2 SWAP1 PUSH0 MSTORE PUSH1 0x20 PUSH0 KECCAK256 SWAP1 JUMPDEST DUP2 SLOAD DUP2 MSTORE SWAP1 PUSH1 0x1 ADD SWAP1 PUSH1 0x20 ADD DUP1 DUP4 GT PUSH2 0x1943 JUMPI DUP3 SWAP1 SUB PUSH1 0x1F AND DUP3 ADD SWAP2 JUMPDEST POP POP POP POP POP DUP2 MSTORE PUSH1 0x20 ADD PUSH1 0x2 DUP3 ADD DUP1 SLOAD PUSH2 0x1979 SWAP1 PUSH2 0x2A8F JUMP JUMPDEST DUP1 PUSH1 0x1F ADD PUSH1 0x20 DUP1 SWAP2 DIV MUL PUSH1 0x20 ADD PUSH1 0x40 MLOAD SWAP1 DUP2 ADD PUSH1 0x40 MSTORE DUP1 SWAP3 SWAP2 SWAP1 DUP2 DUP2 MSTORE PUSH1 0x20 ADD DUP3 DUP1 SLOAD PUSH2 0x19A5 SWAP1 PUSH2 0x2A8F JUMP JUMPDEST DUP1 ISZERO PUSH2 0x19F0 JUMPI DUP1 PUSH1 0x1F LT PUSH2 0x19C7 JUMPI PUSH2 0x100 DUP1 DUP4 SLOAD DIV MUL DUP4 MSTORE SWAP2 PUSH1 0x20 ADD SWAP2 PUSH2 0x19F0 JUMP JUMPDEST DUP3 ADD SWAP2 SWAP1 PUSH0 MSTORE PUSH1 0x20 PUSH0 KECCAK256 SWAP1 JUMPDEST DUP2 SLOAD DUP2 MSTORE SWAP1 PUSH1 0x1 ADD SWAP1 PUSH1 0x20 ADD DUP1 DUP4 GT PUSH2 0x19D3 JUMPI DUP3 SWAP1 SUB PUSH1 0x1F AND DUP3 ADD SWAP2 JUMPDEST POP POP POP POP POP DUP2 MSTORE PUSH1 0x20 ADD PUSH1 0x3 DUP3 ADD DUP1 SLOAD PUSH2 0x1A09 SWAP1 PUSH2 0x2A8F JUMP JUMPDEST DUP1 PUSH1 0x1F ADD PUSH1 0x20 DUP1 SWAP2 DIV MUL PUSH1 0x20 ADD PUSH1 0x40 MLOAD SWAP1 DUP2 ADD PUSH1 0x40 MSTORE DUP1 SWAP3 SWAP2 SWAP1 DUP2 DUP2 MSTORE PUSH1 0x20 ADD DUP3 DUP1 SLOAD PUSH2 0x1A35 SWAP1 PUSH2 0x2A8F JUMP JUMPDEST DUP1 ISZERO PUSH2 0x1A80 JUMPI DUP1 PUSH1 0x1F LT PUSH2 0x1A57 JUMPI PUSH2 0x100 DUP1 DUP4 SLOAD DIV MUL DUP4 MSTORE SWAP2 PUSH1 0x20 ADD SWAP2 PUSH2 0x1A80 JUMP JUMPDEST DUP3 ADD SWAP2 SWAP1 PUSH0 MSTORE PUSH1 0x20 PUSH0 KECCAK256 SWAP1 JUMPDEST DUP2 SLOAD DUP2 MSTORE SWAP1 PUSH1 0x1 ADD SWAP1 PUSH1 0x20 ADD DUP1 DUP4 GT PUSH2 0x1A63 JUMPI DUP3 SWAP1 SUB PUSH1 0x1F AND DUP3 ADD SWAP2 JUMPDEST POP POP POP POP POP DUP2 MSTORE PUSH1 0x20 ADD PUSH1 0x4 DUP3 ADD DUP1 SLOAD PUSH2 0x1A99 SWAP1 PUSH2 0x2A8F JUMP JUMPDEST DUP1 PUSH1 0x1F ADD PUSH1 0x20 DUP1 SWAP2 DIV MUL PUSH1 0x20 ADD PUSH1 0x40 MLOAD SWAP1 DUP2 ADD PUSH1 0x40 MSTORE DUP1 SWAP3 SWAP2 SWAP1 DUP2 DUP2 MSTORE PUSH1 0x20 ADD DUP3 DUP1 SLOAD PUSH2 0x1AC5 SWAP1 PUSH2 0x2A8F JUMP JUMPDEST DUP1 ISZERO PUSH2 0x1B10 JUMPI DUP1 PUSH1 0x1F LT PUSH2 0x1AE7 JUMPI PUSH2 0x100 DUP1 DUP4 SLOAD DIV MUL DUP4 MSTORE SWAP2 PUSH1 0x20 ADD SWAP2 PUSH2 0x1B10 JUMP JUMPDEST DUP3 ADD SWAP2 SWAP1 PUSH0 MSTORE PUSH1 0x20 PUSH0 KECCAK256 SWAP1 JUMPDEST DUP2 SLOAD DUP2 MSTORE SWAP1 PUSH1 0x1 ADD SWAP1 PUSH1 0x20 ADD DUP1 DUP4 GT PUSH2 0x1AF3 JUMPI DUP3 SWAP1 SUB PUSH1 0x1F AND DUP3 ADD SWAP2 JUMPDEST POP POP POP POP POP DUP2 MSTORE POP POP SWAP1 POP SWAP2 SWAP1 POP JUMP JUMPDEST PUSH1 0x3 PUSH0 SWAP1 SLOAD SWAP1 PUSH2 0x100 EXP SWAP1 DIV PUSH20 0xFFFFFFFFFFFFFFFFFFFFFFFFFFFFFFFFFFFFFFFF AND PUSH20 0xFFFFFFFFFFFFFFFFFFFFFFFFFFFFFFFFFFFFFFFF AND CALLER PUSH20 0xFFFFFFFFFFFFFFFFFFFFFFFFFFFFFFFFFFFFFFFF AND EQ DUP1 PUSH2 0x1BC1 JUMPI POP PUSH1 0x2 PUSH0 CALLER PUSH20 0xFFFFFFFFFFFFFFFFFFFFFFFFFFFFFFFFFFFFFFFF AND PUSH20 0xFFFFFFFFFFFFFFFFFFFFFFFFFFFFFFFFFFFFFFFF AND DUP2 MSTORE PUSH1 0x20 ADD SWAP1 DUP2 MSTORE PUSH1 0x20 ADD PUSH0 KECCAK256 PUSH0 SWAP1 SLOAD SWAP1 PUSH2 0x100 EXP SWAP1 DIV PUSH1 0xFF AND JUMPDEST PUSH2 0x1C00 JUMPI PUSH1 0x40 MLOAD PUSH32 0x8C379A000000000000000000000000000000000000000000000000000000000 DUP2 MSTORE PUSH1 0x4 ADD PUSH2 0x1BF7 SWAP1 PUSH2 0x28F2 JUMP JUMPDEST PUSH1 0x40 MLOAD DUP1 SWAP2 SUB SWAP1 REVERT JUMPDEST DUP1 PUSH1 0x4 SWAP1 DUP2 PUSH2 0x1C0F SWAP2 SWAP1 PUSH2 0x2C5C JUMP JUMPDEST POP POP JUMP JUMPDEST PUSH1 0x60 PUSH0 DUP1 SLOAD PUSH2 0x1C21 SWAP1 PUSH2 0x2A8F JUMP JUMPDEST DUP1 PUSH1 0x1F ADD PUSH1 0x20 DUP1 SWAP2 DIV MUL PUSH1 0x20 ADD PUSH1 0x40 MLOAD SWAP1 DUP2 ADD PUSH1 0x40 MSTORE DUP1 SWAP3 SWAP2 SWAP1 DUP2 DUP2 MSTORE PUSH1 0x20 ADD DUP3 DUP1 SLOAD PUSH2 0x1C4D SWAP1 PUSH2 0x2A8F JUMP JUMPDEST DUP1 ISZERO PUSH2 0x1C98 JUMPI DUP1 PUSH1 0x1F LT PUSH2 0x1C6F JUMPI PUSH2 0x100 DUP1 DUP4 SLOAD DIV MUL DUP4 MSTORE SWAP2 PUSH1 0x20 ADD SWAP2 PUSH2 0x1C98 JUMP JUMPDEST DUP3 ADD SWAP2 SWAP1 PUSH0 MSTORE PUSH1 0x20 PUSH0 KECCAK256 SWAP1 JUMPDEST DUP2 SLOAD DUP2 MSTORE SWAP1 PUSH1 0x1 ADD SWAP1 PUSH1 0x20 ADD DUP1 DUP4 GT PUSH2 0x1C7B JUMPI DUP3 SWAP1 SUB PUSH1 0x1F AND DUP3 ADD SWAP2 JUMPDEST POP POP POP POP POP SWAP1 POP SWAP1 JUMP JUMPDEST PUSH1 0x60 PUSH0 DUP4 SWAP1 POP PUSH0 DUP4 SWAP1 POP PUSH0 DUP1 PUSH0 SWAP1 POP JUMPDEST DUP4 MLOAD DUP2 LT ISZERO PUSH2 0x1D5C JUMPI DUP3 PUSH0 DUP2 MLOAD DUP2 LT PUSH2 0x1CCE JUMPI PUSH2 0x1CCD PUSH2 0x29D5 JUMP JUMPDEST JUMPDEST PUSH1 0x20 ADD ADD MLOAD PUSH1 0xF8 SHR PUSH1 0xF8 SHL PUSH31 0xFFFFFFFFFFFFFFFFFFFFFFFFFFFFFFFFFFFFFFFFFFFFFFFFFFFFFFFFFFFFFF NOT AND DUP5 DUP3 DUP2 MLOAD DUP2 LT PUSH2 0x1D0E JUMPI PUSH2 0x1D0D PUSH2 0x29D5 JUMP JUMPDEST JUMPDEST PUSH1 0x20 ADD ADD MLOAD PUSH1 0xF8 SHR PUSH1 0xF8 SHL PUSH31 0xFFFFFFFFFFFFFFFFFFFFFFFFFFFFFFFFFFFFFFFFFFFFFFFFFFFFFFFFFFFFFF NOT AND SUB PUSH2 0x1D4F JUMPI DUP2 DUP1 PUSH2 0x1D4B SWAP1 PUSH2 0x308C JUMP JUMPDEST SWAP3 POP POP JUMPDEST DUP1 DUP1 PUSH1 0x1 ADD SWAP2 POP POP PUSH2 0x1CB2 JUMP JUMPDEST PUSH0 PUSH1 0x1 DUP4 PUSH2 0x1D6A SWAP2 SWAP1 PUSH2 0x2A2F JUMP JUMPDEST PUSH8 0xFFFFFFFFFFFFFFFF DUP2 GT ISZERO PUSH2 0x1D83 JUMPI PUSH2 0x1D82 PUSH2 0x21D4 JUMP JUMPDEST JUMPDEST PUSH1 0x40 MLOAD SWAP1 DUP1 DUP3 MSTORE DUP1 PUSH1 0x20 MUL PUSH1 0x20 ADD DUP3 ADD PUSH1 0x40 MSTORE DUP1 ISZERO PUSH2 0x1DB6 JUMPI DUP2 PUSH1 0x20 ADD JUMPDEST PUSH1 0x60 DUP2 MSTORE PUSH1 0x20 ADD SWAP1 PUSH1 0x1 SWAP1 SUB SWAP1 DUP2 PUSH2 0x1DA1 JUMPI SWAP1 POP JUMPDEST POP SWAP1 POP PUSH0 DUP1 PUSH0 SWAP1 POP PUSH0 SWAP4 POP JUMPDEST DUP7 MLOAD DUP5 LT ISZERO PUSH2 0x1EA4 JUMPI DUP6 PUSH0 DUP2 MLOAD DUP2 LT PUSH2 0x1DDE JUMPI PUSH2 0x1DDD PUSH2 0x29D5 JUMP JUMPDEST JUMPDEST PUSH1 0x20 ADD ADD MLOAD PUSH1 0xF8 SHR PUSH1 0xF8 SHL PUSH31 0xFFFFFFFFFFFFFFFFFFFFFFFFFFFFFFFFFFFFFFFFFFFFFFFFFFFFFFFFFFFFFF NOT AND DUP8 DUP6 DUP2 MLOAD DUP2 LT PUSH2 0x1E1E JUMPI PUSH2 0x1E1D PUSH2 0x29D5 JUMP JUMPDEST JUMPDEST PUSH1 0x20 ADD ADD MLOAD PUSH1 0xF8 SHR PUSH1 0xF8 SHL PUSH31 0xFFFFFFFFFFFFFFFFFFFFFFFFFFFFFFFFFFFFFFFFFFFFFFFFFFFFFFFFFFFFFF NOT AND SUB PUSH2 0x1E97 JUMPI PUSH2 0x1E5B DUP8 DUP3 DUP7 PUSH2 0x2037 JUMP JUMPDEST DUP4 DUP4 DUP2 MLOAD DUP2 LT PUSH2 0x1E6E JUMPI PUSH2 0x1E6D PUSH2 0x29D5 JUMP JUMPDEST JUMPDEST PUSH1 0x20 MUL PUSH1 0x20 ADD ADD DUP2 SWAP1 MSTORE POP DUP2 DUP1 PUSH2 0x1E84 SWAP1 PUSH2 0x308C JUMP JUMPDEST SWAP3 POP POP PUSH1 0x1 DUP5 PUSH2 0x1E94 SWAP2 SWAP1 PUSH2 0x2A2F JUMP JUMPDEST SWAP1 POP JUMPDEST DUP4 DUP1 PUSH1 0x1 ADD SWAP5 POP POP PUSH2 0x1DC2 JUMP JUMPDEST PUSH2 0x1EB0 DUP8 DUP3 DUP10 MLOAD PUSH2 0x2037 JUMP JUMPDEST DUP4 DUP4 DUP2 MLOAD DUP2 LT PUSH2 0x1EC3 JUMPI PUSH2 0x1EC2 PUSH2 0x29D5 JUMP JUMPDEST JUMPDEST PUSH1 0x20 MUL PUSH1 0x20 ADD ADD DUP2 SWAP1 MSTORE POP DUP3 SWAP8 POP POP POP POP POP POP POP POP SWAP3 SWAP2 POP POP JUMP JUMPDEST PUSH1 0x60 PUSH0 DUP3 SUB PUSH2 0x1F24 JUMPI PUSH1 0x40 MLOAD DUP1 PUSH1 0x40 ADD PUSH1 0x40 MSTORE DUP1 PUSH1 0x1 DUP2 MSTORE PUSH1 0x20 ADD PUSH32 0x3000000000000000000000000000000000000000000000000000000000000000 DUP2 MSTORE POP SWAP1 POP PUSH2 0x2032 JUMP JUMPDEST PUSH0 DUP3 SWAP1 POP PUSH0 JUMPDEST PUSH0 DUP3 EQ PUSH2 0x1F53 JUMPI DUP1 DUP1 PUSH2 0x1F3C SWAP1 PUSH2 0x308C JUMP JUMPDEST SWAP2 POP POP PUSH1 0xA DUP3 PUSH2 0x1F4C SWAP2 SWAP1 PUSH2 0x30D3 JUMP JUMPDEST SWAP2 POP PUSH2 0x1F2A JUMP JUMPDEST PUSH0 DUP2 PUSH8 0xFFFFFFFFFFFFFFFF DUP2 GT ISZERO PUSH2 0x1F6E JUMPI PUSH2 0x1F6D PUSH2 0x21D4 JUMP JUMPDEST JUMPDEST PUSH1 0x40 MLOAD SWAP1 DUP1 DUP3 MSTORE DUP1 PUSH1 0x1F ADD PUSH1 0x1F NOT AND PUSH1 0x20 ADD DUP3 ADD PUSH1 0x40 MSTORE DUP1 ISZERO PUSH2 0x1FA0 JUMPI DUP2 PUSH1 0x20 ADD PUSH1 0x1 DUP3 MUL DUP1 CALLDATASIZE DUP4 CALLDATACOPY DUP1 DUP3 ADD SWAP2 POP POP SWAP1 POP JUMPDEST POP SWAP1 POP JUMPDEST PUSH0 DUP6 EQ PUSH2 0x202B JUMPI PUSH1 0x1 DUP3 PUSH2 0x1FB8 SWAP2 SWAP1 PUSH2 0x2D93 JUMP JUMPDEST SWAP2 POP PUSH1 0xA DUP6 PUSH2 0x1FC7 SWAP2 SWAP1 PUSH2 0x293D JUMP JUMPDEST PUSH1 0x30 PUSH2 0x1FD3 SWAP2 SWAP1 PUSH2 0x2A2F JUMP JUMPDEST PUSH1 0xF8 SHL DUP2 DUP4 DUP2 MLOAD DUP2 LT PUSH2 0x1FE9 JUMPI PUSH2 0x1FE8 PUSH2 0x29D5 JUMP JUMPDEST JUMPDEST PUSH1 0x20 ADD ADD SWAP1 PUSH31 0xFFFFFFFFFFFFFFFFFFFFFFFFFFFFFFFFFFFFFFFFFFFFFFFFFFFFFFFFFFFFFF NOT AND SWAP1 DUP2 PUSH0 BYTE SWAP1 MSTORE8 POP PUSH1 0xA DUP6 PUSH2 0x2024 SWAP2 SWAP1 PUSH2 0x30D3 JUMP JUMPDEST SWAP5 POP PUSH2 0x1FA4 JUMP JUMPDEST DUP1 SWAP4 POP POP POP POP JUMPDEST SWAP2 SWAP1 POP JUMP JUMPDEST PUSH1 0x60 PUSH0 DUP4 DUP4 PUSH2 0x2046 SWAP2 SWAP1 PUSH2 0x2D93 JUMP JUMPDEST PUSH8 0xFFFFFFFFFFFFFFFF DUP2 GT ISZERO PUSH2 0x205F JUMPI PUSH2 0x205E PUSH2 0x21D4 JUMP JUMPDEST JUMPDEST PUSH1 0x40 MLOAD SWAP1 DUP1 DUP3 MSTORE DUP1 PUSH1 0x1F ADD PUSH1 0x1F NOT AND PUSH1 0x20 ADD DUP3 ADD PUSH1 0x40 MSTORE DUP1 ISZERO PUSH2 0x2091 JUMPI DUP2 PUSH1 0x20 ADD PUSH1 0x1 DUP3 MUL DUP1 CALLDATASIZE DUP4 CALLDATACOPY DUP1 DUP3 ADD SWAP2 POP POP SWAP1 POP JUMPDEST POP SWAP1 POP PUSH0 DUP5 SWAP1 POP JUMPDEST DUP4 DUP2 LT ISZERO PUSH2 0x2118 JUMPI DUP6 DUP2 DUP2 MLOAD DUP2 LT PUSH2 0x20B4 JUMPI PUSH2 0x20B3 PUSH2 0x29D5 JUMP JUMPDEST JUMPDEST PUSH1 0x20 ADD ADD MLOAD PUSH1 0xF8 SHR PUSH1 0xF8 SHL DUP3 DUP7 DUP4 PUSH2 0x20CC SWAP2 SWAP1 PUSH2 0x2D93 JUMP JUMPDEST DUP2 MLOAD DUP2 LT PUSH2 0x20DD JUMPI PUSH2 0x20DC PUSH2 0x29D5 JUMP JUMPDEST JUMPDEST PUSH1 0x20 ADD ADD SWAP1 PUSH31 0xFFFFFFFFFFFFFFFFFFFFFFFFFFFFFFFFFFFFFFFFFFFFFFFFFFFFFFFFFFFFFF NOT AND SWAP1 DUP2 PUSH0 BYTE SWAP1 MSTORE8 POP DUP1 DUP1 PUSH1 0x1 ADD SWAP2 POP POP PUSH2 0x2099 JUMP JUMPDEST POP DUP1 SWAP2 POP POP SWAP4 SWAP3 POP POP POP JUMP JUMPDEST POP DUP1 SLOAD PUSH2 0x2130 SWAP1 PUSH2 0x2A8F JUMP JUMPDEST PUSH0 DUP3 SSTORE DUP1 PUSH1 0x1F LT PUSH2 0x2141 JUMPI POP PUSH2 0x215E JUMP JUMPDEST PUSH1 0x1F ADD PUSH1 0x20 SWAP1 DIV SWAP1 PUSH0 MSTORE PUSH1 0x20 PUSH0 KECCAK256 SWAP1 DUP2 ADD SWAP1 PUSH2 0x215D SWAP2 SWAP1 PUSH2 0x2190 JUMP JUMPDEST JUMPDEST POP JUMP JUMPDEST PUSH1 0x40 MLOAD DUP1 PUSH1 0xA0 ADD PUSH1 0x40 MSTORE DUP1 PUSH1 0x60 DUP2 MSTORE PUSH1 0x20 ADD PUSH1 0x60 DUP2 MSTORE PUSH1 0x20 ADD PUSH1 0x60 DUP2 MSTORE PUSH1 0x20 ADD PUSH1 0x60 DUP2 MSTORE PUSH1 0x20 ADD PUSH1 0x60 DUP2 MSTORE POP SWAP1 JUMP JUMPDEST JUMPDEST DUP1 DUP3 GT ISZERO PUSH2 0x21A7 JUMPI PUSH0 DUP2 PUSH0 SWAP1 SSTORE POP PUSH1 0x1 ADD PUSH2 0x2191 JUMP JUMPDEST POP SWAP1 JUMP JUMPDEST PUSH0 PUSH1 0x40 MLOAD SWAP1 POP SWAP1 JUMP JUMPDEST PUSH0 DUP1 REVERT JUMPDEST PUSH0 DUP1 REVERT JUMPDEST PUSH0 DUP1 REVERT JUMPDEST PUSH0 DUP1 REVERT JUMPDEST PUSH0 PUSH1 0x1F NOT PUSH1 0x1F DUP4 ADD AND SWAP1 POP SWAP2 SWAP1 POP JUMP JUMPDEST PUSH32 0x4E487B7100000000000000000000000000000000000000000000000000000000 PUSH0 MSTORE PUSH1 0x41 PUSH1 0x4 MSTORE PUSH1 0x24 PUSH0 REVERT JUMPDEST PUSH2 0x220A DUP3 PUSH2 0x21C4 JUMP JUMPDEST DUP2 ADD DUP2 DUP2 LT PUSH8 0xFFFFFFFFFFFFFFFF DUP3 GT OR ISZERO PUSH2 0x2229 JUMPI PUSH2 0x2228 PUSH2 0x21D4 JUMP JUMPDEST JUMPDEST DUP1 PUSH1 0x40 MSTORE POP POP POP JUMP JUMPDEST PUSH0 PUSH2 0x223B PUSH2 0x21AB JUMP JUMPDEST SWAP1 POP PUSH2 0x2247 DUP3 DUP3 PUSH2 0x2201 JUMP JUMPDEST SWAP2 SWAP1 POP JUMP JUMPDEST PUSH0 PUSH8 0xFFFFFFFFFFFFFFFF DUP3 GT ISZERO PUSH2 0x2266 JUMPI PUSH2 0x2265 PUSH2 0x21D4 JUMP JUMPDEST JUMPDEST PUSH2 0x226F DUP3 PUSH2 0x21C4 JUMP JUMPDEST SWAP1 POP PUSH1 0x20 DUP2 ADD SWAP1 POP SWAP2 SWAP1 POP JUMP JUMPDEST DUP3 DUP2 DUP4 CALLDATACOPY PUSH0 DUP4 DUP4 ADD MSTORE POP POP POP JUMP JUMPDEST PUSH0 PUSH2 0x229C PUSH2 0x2297 DUP5 PUSH2 0x224C JUMP JUMPDEST PUSH2 0x2232 JUMP JUMPDEST SWAP1 POP DUP3 DUP2 MSTORE PUSH1 0x20 DUP2 ADD DUP5 DUP5 DUP5 ADD GT ISZERO PUSH2 0x22B8 JUMPI PUSH2 0x22B7 PUSH2 0x21C0 JUMP JUMPDEST JUMPDEST PUSH2 0x22C3 DUP5 DUP3 DUP6 PUSH2 0x227C JUMP JUMPDEST POP SWAP4 SWAP3 POP POP POP JUMP JUMPDEST PUSH0 DUP3 PUSH1 0x1F DUP4 ADD SLT PUSH2 0x22DF JUMPI PUSH2 0x22DE PUSH2 0x21BC JUMP JUMPDEST JUMPDEST DUP2 CALLDATALOAD PUSH2 0x22EF DUP5 DUP3 PUSH1 0x20 DUP7 ADD PUSH2 0x228A JUMP JUMPDEST SWAP2 POP POP SWAP3 SWAP2 POP POP JUMP JUMPDEST PUSH0 PUSH1 0x20 DUP3 DUP5 SUB SLT ISZERO PUSH2 0x230D JUMPI PUSH2 0x230C PUSH2 0x21B4 JUMP JUMPDEST JUMPDEST PUSH0 DUP3 ADD CALLDATALOAD PUSH8 0xFFFFFFFFFFFFFFFF DUP2 GT ISZERO PUSH2 0x232A JUMPI PUSH2 0x2329 PUSH2 0x21B8 JUMP JUMPDEST JUMPDEST PUSH2 0x2336 DUP5 DUP3 DUP6 ADD PUSH2 0x22CB JUMP JUMPDEST SWAP2 POP POP SWAP3 SWAP2 POP POP JUMP JUMPDEST PUSH0 PUSH20 0xFFFFFFFFFFFFFFFFFFFFFFFFFFFFFFFFFFFFFFFF DUP3 AND SWAP1 POP SWAP2 SWAP1 POP JUMP JUMPDEST PUSH0 PUSH2 0x2368 DUP3 PUSH2 0x233F JUMP JUMPDEST SWAP1 POP SWAP2 SWAP1 POP JUMP JUMPDEST PUSH2 0x2378 DUP2 PUSH2 0x235E JUMP JUMPDEST DUP2 EQ PUSH2 0x2382 JUMPI PUSH0 DUP1 REVERT JUMPDEST POP JUMP JUMPDEST PUSH0 DUP2 CALLDATALOAD SWAP1 POP PUSH2 0x2393 DUP2 PUSH2 0x236F JUMP JUMPDEST SWAP3 SWAP2 POP POP JUMP JUMPDEST PUSH0 PUSH1 0x20 DUP3 DUP5 SUB SLT ISZERO PUSH2 0x23AE JUMPI PUSH2 0x23AD PUSH2 0x21B4 JUMP JUMPDEST JUMPDEST PUSH0 PUSH2 0x23BB DUP5 DUP3 DUP6 ADD PUSH2 0x2385 JUMP JUMPDEST SWAP2 POP POP SWAP3 SWAP2 POP POP JUMP JUMPDEST PUSH0 DUP2 MLOAD SWAP1 POP SWAP2 SWAP1 POP JUMP JUMPDEST PUSH0 DUP3 DUP3 MSTORE PUSH1 0x20 DUP3 ADD SWAP1 POP SWAP3 SWAP2 POP POP JUMP JUMPDEST DUP3 DUP2 DUP4 MCOPY PUSH0 DUP4 DUP4 ADD MSTORE POP POP POP JUMP JUMPDEST PUSH0 PUSH2 0x23F6 DUP3 PUSH2 0x23C4 JUMP JUMPDEST PUSH2 0x2400 DUP2 DUP6 PUSH2 0x23CE JUMP JUMPDEST SWAP4 POP PUSH2 0x2410 DUP2 DUP6 PUSH1 0x20 DUP7 ADD PUSH2 0x23DE JUMP JUMPDEST PUSH2 0x2419 DUP2 PUSH2 0x21C4 JUMP JUMPDEST DUP5 ADD SWAP2 POP POP SWAP3 SWAP2 POP POP JUMP JUMPDEST PUSH0 PUSH1 0x20 DUP3 ADD SWAP1 POP DUP2 DUP2 SUB PUSH0 DUP4 ADD MSTORE PUSH2 0x243C DUP2 DUP5 PUSH2 0x23EC JUMP JUMPDEST SWAP1 POP SWAP3 SWAP2 POP POP JUMP JUMPDEST PUSH0 DUP2 SWAP1 POP SWAP2 SWAP1 POP JUMP JUMPDEST PUSH2 0x2456 DUP2 PUSH2 0x2444 JUMP JUMPDEST DUP2 EQ PUSH2 0x2460 JUMPI PUSH0 DUP1 REVERT JUMPDEST POP JUMP JUMPDEST PUSH0 DUP2 CALLDATALOAD SWAP1 POP PUSH2 0x2471 DUP2 PUSH2 0x244D JUMP JUMPDEST SWAP3 SWAP2 POP POP JUMP JUMPDEST PUSH0 PUSH1 0x20 DUP3 DUP5 SUB SLT ISZERO PUSH2 0x248C JUMPI PUSH2 0x248B PUSH2 0x21B4 JUMP JUMPDEST JUMPDEST PUSH0 PUSH2 0x2499 DUP5 DUP3 DUP6 ADD PUSH2 0x2463 JUMP JUMPDEST SWAP2 POP POP SWAP3 SWAP2 POP POP JUMP JUMPDEST PUSH0 DUP1 PUSH0 DUP1 PUSH0 PUSH1 0xA0 DUP7 DUP9 SUB SLT ISZERO PUSH2 0x24BB JUMPI PUSH2 0x24BA PUSH2 0x21B4 JUMP JUMPDEST JUMPDEST PUSH0 DUP7 ADD CALLDATALOAD PUSH8 0xFFFFFFFFFFFFFFFF DUP2 GT ISZERO PUSH2 0x24D8 JUMPI PUSH2 0x24D7 PUSH2 0x21B8 JUMP JUMPDEST JUMPDEST PUSH2 0x24E4 DUP9 DUP3 DUP10 ADD PUSH2 0x22CB JUMP JUMPDEST SWAP6 POP POP PUSH1 0x20 DUP7 ADD CALLDATALOAD PUSH8 0xFFFFFFFFFFFFFFFF DUP2 GT ISZERO PUSH2 0x2505 JUMPI PUSH2 0x2504 PUSH2 0x21B8 JUMP JUMPDEST JUMPDEST PUSH2 0x2511 DUP9 DUP3 DUP10 ADD PUSH2 0x22CB JUMP JUMPDEST SWAP5 POP POP PUSH1 0x40 DUP7 ADD CALLDATALOAD PUSH8 0xFFFFFFFFFFFFFFFF DUP2 GT ISZERO PUSH2 0x2532 JUMPI PUSH2 0x2531 PUSH2 0x21B8 JUMP JUMPDEST JUMPDEST PUSH2 0x253E DUP9 DUP3 DUP10 ADD PUSH2 0x22CB JUMP JUMPDEST SWAP4 POP POP PUSH1 0x60 DUP7 ADD CALLDATALOAD PUSH8 0xFFFFFFFFFFFFFFFF DUP2 GT ISZERO PUSH2 0x255F JUMPI PUSH2 0x255E PUSH2 0x21B8 JUMP JUMPDEST JUMPDEST PUSH2 0x256B DUP9 DUP3 DUP10 ADD PUSH2 0x22CB JUMP JUMPDEST SWAP3 POP POP PUSH1 0x80 DUP7 ADD CALLDATALOAD PUSH8 0xFFFFFFFFFFFFFFFF DUP2 GT ISZERO PUSH2 0x258C JUMPI PUSH2 0x258B PUSH2 0x21B8 JUMP JUMPDEST JUMPDEST PUSH2 0x2598 DUP9 DUP3 DUP10 ADD PUSH2 0x22CB JUMP JUMPDEST SWAP2 POP POP SWAP3 SWAP6 POP SWAP3 SWAP6 SWAP1 SWAP4 POP JUMP JUMPDEST PUSH0 DUP1 PUSH0 DUP1 PUSH0 DUP1 PUSH1 0xC0 DUP8 DUP10 SUB SLT ISZERO PUSH2 0x25BF JUMPI PUSH2 0x25BE PUSH2 0x21B4 JUMP JUMPDEST JUMPDEST PUSH0 PUSH2 0x25CC DUP10 DUP3 DUP11 ADD PUSH2 0x2463 JUMP JUMPDEST SWAP7 POP POP PUSH1 0x20 DUP8 ADD CALLDATALOAD PUSH8 0xFFFFFFFFFFFFFFFF DUP2 GT ISZERO PUSH2 0x25ED JUMPI PUSH2 0x25EC PUSH2 0x21B8 JUMP JUMPDEST JUMPDEST PUSH2 0x25F9 DUP10 DUP3 DUP11 ADD PUSH2 0x22CB JUMP JUMPDEST SWAP6 POP POP PUSH1 0x40 DUP8 ADD CALLDATALOAD PUSH8 0xFFFFFFFFFFFFFFFF DUP2 GT ISZERO PUSH2 0x261A JUMPI PUSH2 0x2619 PUSH2 0x21B8 JUMP JUMPDEST JUMPDEST PUSH2 0x2626 DUP10 DUP3 DUP11 ADD PUSH2 0x22CB JUMP JUMPDEST SWAP5 POP POP PUSH1 0x60 DUP8 ADD CALLDATALOAD PUSH8 0xFFFFFFFFFFFFFFFF DUP2 GT ISZERO PUSH2 0x2647 JUMPI PUSH2 0x2646 PUSH2 0x21B8 JUMP JUMPDEST JUMPDEST PUSH2 0x2653 DUP10 DUP3 DUP11 ADD PUSH2 0x22CB JUMP JUMPDEST SWAP4 POP POP PUSH1 0x80 DUP8 ADD CALLDATALOAD PUSH8 0xFFFFFFFFFFFFFFFF DUP2 GT ISZERO PUSH2 0x2674 JUMPI PUSH2 0x2673 PUSH2 0x21B8 JUMP JUMPDEST JUMPDEST PUSH2 0x2680 DUP10 DUP3 DUP11 ADD PUSH2 0x22CB JUMP JUMPDEST SWAP3 POP POP PUSH1 0xA0 DUP8 ADD CALLDATALOAD PUSH8 0xFFFFFFFFFFFFFFFF DUP2 GT ISZERO PUSH2 0x26A1 JUMPI PUSH2 0x26A0 PUSH2 0x21B8 JUMP JUMPDEST JUMPDEST PUSH2 0x26AD DUP10 DUP3 DUP11 ADD PUSH2 0x22CB JUMP JUMPDEST SWAP2 POP POP SWAP3 SWAP6 POP SWAP3 SWAP6 POP SWAP3 SWAP6 JUMP JUMPDEST PUSH0 DUP2 ISZERO ISZERO SWAP1 POP SWAP2 SWAP1 POP JUMP JUMPDEST PUSH2 0x26CE DUP2 PUSH2 0x26BA JUMP JUMPDEST DUP3 MSTORE POP POP JUMP JUMPDEST PUSH0 PUSH1 0x20 DUP3 ADD SWAP1 POP PUSH2 0x26E7 PUSH0 DUP4 ADD DUP5 PUSH2 0x26C5 JUMP JUMPDEST SWAP3 SWAP2 POP POP JUMP JUMPDEST PUSH2 0x26F6 DUP2 PUSH2 0x235E JUMP JUMPDEST DUP3 MSTORE POP POP JUMP JUMPDEST PUSH0 PUSH1 0x20 DUP3 ADD SWAP1 POP PUSH2 0x270F PUSH0 DUP4 ADD DUP5 PUSH2 0x26ED JUMP JUMPDEST SWAP3 SWAP2 POP POP JUMP JUMPDEST PUSH2 0x271E DUP2 PUSH2 0x2444 JUMP JUMPDEST DUP3 MSTORE POP POP JUMP JUMPDEST PUSH0 PUSH1 0x20 DUP3 ADD SWAP1 POP PUSH2 0x2737 PUSH0 DUP4 ADD DUP5 PUSH2 0x2715 JUMP JUMPDEST SWAP3 SWAP2 POP POP JUMP JUMPDEST PUSH0 PUSH1 0xA0 DUP3 ADD SWAP1 POP DUP2 DUP2 SUB PUSH0 DUP4 ADD MSTORE PUSH2 0x2755 DUP2 DUP9 PUSH2 0x23EC JUMP JUMPDEST SWAP1 POP DUP2 DUP2 SUB PUSH1 0x20 DUP4 ADD MSTORE PUSH2 0x2769 DUP2 DUP8 PUSH2 0x23EC JUMP JUMPDEST SWAP1 POP DUP2 DUP2 SUB PUSH1 0x40 DUP4 ADD MSTORE PUSH2 0x277D DUP2 DUP7 PUSH2 0x23EC JUMP JUMPDEST SWAP1 POP DUP2 DUP2 SUB PUSH1 0x60 DUP4 ADD MSTORE PUSH2 0x2791 DUP2 DUP6 PUSH2 0x23EC JUMP JUMPDEST SWAP1 POP DUP2 DUP2 SUB PUSH1 0x80 DUP4 ADD MSTORE PUSH2 0x27A5 DUP2 DUP5 PUSH2 0x23EC JUMP JUMPDEST SWAP1 POP SWAP7 SWAP6 POP POP POP POP POP POP JUMP JUMPDEST PUSH0 DUP3 DUP3 MSTORE PUSH1 0x20 DUP3 ADD SWAP1 POP SWAP3 SWAP2 POP POP JUMP JUMPDEST PUSH0 PUSH2 0x27CB DUP3 PUSH2 0x23C4 JUMP JUMPDEST PUSH2 0x27D5 DUP2 DUP6 PUSH2 0x27B1 JUMP JUMPDEST SWAP4 POP PUSH2 0x27E5 DUP2 DUP6 PUSH1 0x20 DUP7 ADD PUSH2 0x23DE JUMP JUMPDEST PUSH2 0x27EE DUP2 PUSH2 0x21C4 JUMP JUMPDEST DUP5 ADD SWAP2 POP POP SWAP3 SWAP2 POP POP JUMP JUMPDEST PUSH0 PUSH1 0xA0 DUP4 ADD PUSH0 DUP4 ADD MLOAD DUP5 DUP3 SUB PUSH0 DUP7 ADD MSTORE PUSH2 0x2813 DUP3 DUP3 PUSH2 0x27C1 JUMP JUMPDEST SWAP2 POP POP PUSH1 0x20 DUP4 ADD MLOAD DUP5 DUP3 SUB PUSH1 0x20 DUP7 ADD MSTORE PUSH2 0x282D DUP3 DUP3 PUSH2 0x27C1 JUMP JUMPDEST SWAP2 POP POP PUSH1 0x40 DUP4 ADD MLOAD DUP5 DUP3 SUB PUSH1 0x40 DUP7 ADD MSTORE PUSH2 0x2847 DUP3 DUP3 PUSH2 0x27C1 JUMP JUMPDEST SWAP2 POP POP PUSH1 0x60 DUP4 ADD MLOAD DUP5 DUP3 SUB PUSH1 0x60 DUP7 ADD MSTORE PUSH2 0x2861 DUP3 DUP3 PUSH2 0x27C1 JUMP JUMPDEST SWAP2 POP POP PUSH1 0x80 DUP4 ADD MLOAD DUP5 DUP3 SUB PUSH1 0x80 DUP7 ADD MSTORE PUSH2 0x287B DUP3 DUP3 PUSH2 0x27C1 JUMP JUMPDEST SWAP2 POP POP DUP1 SWAP2 POP POP SWAP3 SWAP2 POP POP JUMP JUMPDEST PUSH0 PUSH1 0x20 DUP3 ADD SWAP1 POP DUP2 DUP2 SUB PUSH0 DUP4 ADD MSTORE PUSH2 0x28A0 DUP2 DUP5 PUSH2 0x27F9 JUMP JUMPDEST SWAP1 POP SWAP3 SWAP2 POP POP JUMP JUMPDEST PUSH32 0x4E6F7420617574686F72697A6564000000000000000000000000000000000000 PUSH0 DUP3 ADD MSTORE POP JUMP JUMPDEST PUSH0 PUSH2 0x28DC PUSH1 0xE DUP4 PUSH2 0x23CE JUMP JUMPDEST SWAP2 POP PUSH2 0x28E7 DUP3 PUSH2 0x28A8 JUMP JUMPDEST PUSH1 0x20 DUP3 ADD SWAP1 POP SWAP2 SWAP1 POP JUMP JUMPDEST PUSH0 PUSH1 0x20 DUP3 ADD SWAP1 POP DUP2 DUP2 SUB PUSH0 DUP4 ADD MSTORE PUSH2 0x2909 DUP2 PUSH2 0x28D0 JUMP JUMPDEST SWAP1 POP SWAP2 SWAP1 POP JUMP JUMPDEST PUSH32 0x4E487B7100000000000000000000000000000000000000000000000000000000 PUSH0 MSTORE PUSH1 0x12 PUSH1 0x4 MSTORE PUSH1 0x24 PUSH0 REVERT JUMPDEST PUSH0 PUSH2 0x2947 DUP3 PUSH2 0x2444 JUMP JUMPDEST SWAP2 POP PUSH2 0x2952 DUP4 PUSH2 0x2444 JUMP JUMPDEST SWAP3 POP DUP3 PUSH2 0x2962 JUMPI PUSH2 0x2961 PUSH2 0x2910 JUMP JUMPDEST JUMPDEST DUP3 DUP3 MOD SWAP1 POP SWAP3 SWAP2 POP POP JUMP JUMPDEST PUSH32 0x496E76616C696420696E70757420737472696E67000000000000000000000000 PUSH0 DUP3 ADD MSTORE POP JUMP JUMPDEST PUSH0 PUSH2 0x29A1 PUSH1 0x14 DUP4 PUSH2 0x23CE JUMP JUMPDEST SWAP2 POP PUSH2 0x29AC DUP3 PUSH2 0x296D JUMP JUMPDEST PUSH1 0x20 DUP3 ADD SWAP1 POP SWAP2 SWAP1 POP JUMP JUMPDEST PUSH0 PUSH1 0x20 DUP3 ADD SWAP1 POP DUP2 DUP2 SUB PUSH0 DUP4 ADD MSTORE PUSH2 0x29CE DUP2 PUSH2 0x2995 JUMP JUMPDEST SWAP1 POP SWAP2 SWAP1 POP JUMP JUMPDEST PUSH32 0x4E487B7100000000000000000000000000000000000000000000000000000000 PUSH0 MSTORE PUSH1 0x32 PUSH1 0x4 MSTORE PUSH1 0x24 PUSH0 REVERT JUMPDEST PUSH32 0x4E487B7100000000000000000000000000000000000000000000000000000000 PUSH0 MSTORE PUSH1 0x11 PUSH1 0x4 MSTORE PUSH1 0x24 PUSH0 REVERT JUMPDEST PUSH0 PUSH2 0x2A39 DUP3 PUSH2 0x2444 JUMP JUMPDEST SWAP2 POP PUSH2 0x2A44 DUP4 PUSH2 0x2444 JUMP JUMPDEST SWAP3 POP DUP3 DUP3 ADD SWAP1 POP DUP1 DUP3 GT ISZERO PUSH2 0x2A5C JUMPI PUSH2 0x2A5B PUSH2 0x2A02 JUMP JUMPDEST JUMPDEST SWAP3 SWAP2 POP POP JUMP JUMPDEST PUSH32 0x4E487B7100000000000000000000000000000000000000000000000000000000 PUSH0 MSTORE PUSH1 0x22 PUSH1 0x4 MSTORE PUSH1 0x24 PUSH0 REVERT JUMPDEST PUSH0 PUSH1 0x2 DUP3 DIV SWAP1 POP PUSH1 0x1 DUP3 AND DUP1 PUSH2 0x2AA6 JUMPI PUSH1 0x7F DUP3 AND SWAP2 POP JUMPDEST PUSH1 0x20 DUP3 LT DUP2 SUB PUSH2 0x2AB9 JUMPI PUSH2 0x2AB8 PUSH2 0x2A62 JUMP JUMPDEST JUMPDEST POP SWAP2 SWAP1 POP JUMP JUMPDEST PUSH0 DUP2 SWAP1 POP DUP2 PUSH0 MSTORE PUSH1 0x20 PUSH0 KECCAK256 SWAP1 POP SWAP2 SWAP1 POP JUMP JUMPDEST PUSH0 PUSH1 0x20 PUSH1 0x1F DUP4 ADD DIV SWAP1 POP SWAP2 SWAP1 POP JUMP JUMPDEST PUSH0 DUP3 DUP3 SHL SWAP1 POP SWAP3 SWAP2 POP POP JUMP JUMPDEST PUSH0 PUSH1 0x8 DUP4 MUL PUSH2 0x2B1B PUSH32 0xFFFFFFFFFFFFFFFFFFFFFFFFFFFFFFFFFFFFFFFFFFFFFFFFFFFFFFFFFFFFFFFF DUP3 PUSH2 0x2AE0 JUMP JUMPDEST PUSH2 0x2B25 DUP7 DUP4 PUSH2 0x2AE0 JUMP JUMPDEST SWAP6 POP DUP1 NOT DUP5 AND SWAP4 POP DUP1 DUP7 AND DUP5 OR SWAP3 POP POP POP SWAP4 SWAP3 POP POP POP JUMP JUMPDEST PUSH0 DUP2 SWAP1 POP SWAP2 SWAP1 POP JUMP JUMPDEST PUSH0 PUSH2 0x2B60 PUSH2 0x2B5B PUSH2 0x2B56 DUP5 PUSH2 0x2444 JUMP JUMPDEST PUSH2 0x2B3D JUMP JUMPDEST PUSH2 0x2444 JUMP JUMPDEST SWAP1 POP SWAP2 SWAP1 POP JUMP JUMPDEST PUSH0 DUP2 SWAP1 POP SWAP2 SWAP1 POP JUMP JUMPDEST PUSH2 0x2B79 DUP4 PUSH2 0x2B46 JUMP JUMPDEST PUSH2 0x2B8D PUSH2 0x2B85 DUP3 PUSH2 0x2B67 JUMP JUMPDEST DUP5 DUP5 SLOAD PUSH2 0x2AEC JUMP JUMPDEST DUP3 SSTORE POP POP POP POP JUMP JUMPDEST PUSH0 SWAP1 JUMP JUMPDEST PUSH2 0x2BA1 PUSH2 0x2B95 JUMP JUMPDEST PUSH2 0x2BAC DUP2 DUP5 DUP5 PUSH2 0x2B70 JUMP JUMPDEST POP POP POP JUMP JUMPDEST JUMPDEST DUP2 DUP2 LT ISZERO PUSH2 0x2BCF JUMPI PUSH2 0x2BC4 PUSH0 DUP3 PUSH2 0x2B99 JUMP JUMPDEST PUSH1 0x1 DUP2 ADD SWAP1 POP PUSH2 0x2BB2 JUMP JUMPDEST POP POP JUMP JUMPDEST PUSH1 0x1F DUP3 GT ISZERO PUSH2 0x2C14 JUMPI PUSH2 0x2BE5 DUP2 PUSH2 0x2ABF JUMP JUMPDEST PUSH2 0x2BEE DUP5 PUSH2 0x2AD1 JUMP JUMPDEST DUP2 ADD PUSH1 0x20 DUP6 LT ISZERO PUSH2 0x2BFD JUMPI DUP2 SWAP1 POP JUMPDEST PUSH2 0x2C11 PUSH2 0x2C09 DUP6 PUSH2 0x2AD1 JUMP JUMPDEST DUP4 ADD DUP3 PUSH2 0x2BB1 JUMP JUMPDEST POP POP JUMPDEST POP POP POP JUMP JUMPDEST PUSH0 DUP3 DUP3 SHR SWAP1 POP SWAP3 SWAP2 POP POP JUMP JUMPDEST PUSH0 PUSH2 0x2C34 PUSH0 NOT DUP5 PUSH1 0x8 MUL PUSH2 0x2C19 JUMP JUMPDEST NOT DUP1 DUP4 AND SWAP2 POP POP SWAP3 SWAP2 POP POP JUMP JUMPDEST PUSH0 PUSH2 0x2C4C DUP4 DUP4 PUSH2 0x2C25 JUMP JUMPDEST SWAP2 POP DUP3 PUSH1 0x2 MUL DUP3 OR SWAP1 POP SWAP3 SWAP2 POP POP JUMP JUMPDEST PUSH2 0x2C65 DUP3 PUSH2 0x23C4 JUMP JUMPDEST PUSH8 0xFFFFFFFFFFFFFFFF DUP2 GT ISZERO PUSH2 0x2C7E JUMPI PUSH2 0x2C7D PUSH2 0x21D4 JUMP JUMPDEST JUMPDEST PUSH2 0x2C88 DUP3 SLOAD PUSH2 0x2A8F JUMP JUMPDEST PUSH2 0x2C93 DUP3 DUP3 DUP6 PUSH2 0x2BD3 JUMP JUMPDEST PUSH0 PUSH1 0x20 SWAP1 POP PUSH1 0x1F DUP4 GT PUSH1 0x1 DUP2 EQ PUSH2 0x2CC4 JUMPI PUSH0 DUP5 ISZERO PUSH2 0x2CB2 JUMPI DUP3 DUP8 ADD MLOAD SWAP1 POP JUMPDEST PUSH2 0x2CBC DUP6 DUP3 PUSH2 0x2C41 JUMP JUMPDEST DUP7 SSTORE POP PUSH2 0x2D23 JUMP JUMPDEST PUSH1 0x1F NOT DUP5 AND PUSH2 0x2CD2 DUP7 PUSH2 0x2ABF JUMP JUMPDEST PUSH0 JUMPDEST DUP3 DUP2 LT ISZERO PUSH2 0x2CF9 JUMPI DUP5 DUP10 ADD MLOAD DUP3 SSTORE PUSH1 0x1 DUP3 ADD SWAP2 POP PUSH1 0x20 DUP6 ADD SWAP5 POP PUSH1 0x20 DUP2 ADD SWAP1 POP PUSH2 0x2CD4 JUMP JUMPDEST DUP7 DUP4 LT ISZERO PUSH2 0x2D16 JUMPI DUP5 DUP10 ADD MLOAD PUSH2 0x2D12 PUSH1 0x1F DUP10 AND DUP3 PUSH2 0x2C25 JUMP JUMPDEST DUP4 SSTORE POP JUMPDEST PUSH1 0x1 PUSH1 0x2 DUP9 MUL ADD DUP9 SSTORE POP POP POP JUMPDEST POP POP POP POP POP POP JUMP JUMPDEST PUSH32 0x4E6F7420746865206F776E657200000000000000000000000000000000000000 PUSH0 DUP3 ADD MSTORE POP JUMP JUMPDEST PUSH0 PUSH2 0x2D5F PUSH1 0xD DUP4 PUSH2 0x23CE JUMP JUMPDEST SWAP2 POP PUSH2 0x2D6A DUP3 PUSH2 0x2D2B JUMP JUMPDEST PUSH1 0x20 DUP3 ADD SWAP1 POP SWAP2 SWAP1 POP JUMP JUMPDEST PUSH0 PUSH1 0x20 DUP3 ADD SWAP1 POP DUP2 DUP2 SUB PUSH0 DUP4 ADD MSTORE PUSH2 0x2D8C DUP2 PUSH2 0x2D53 JUMP JUMPDEST SWAP1 POP SWAP2 SWAP1 POP JUMP JUMPDEST PUSH0 PUSH2 0x2D9D DUP3 PUSH2 0x2444 JUMP JUMPDEST SWAP2 POP PUSH2 0x2DA8 DUP4 PUSH2 0x2444 JUMP JUMPDEST SWAP3 POP DUP3 DUP3 SUB SWAP1 POP DUP2 DUP2 GT ISZERO PUSH2 0x2DC0 JUMPI PUSH2 0x2DBF PUSH2 0x2A02 JUMP JUMPDEST JUMPDEST SWAP3 SWAP2 POP POP JUMP JUMPDEST PUSH32 0x4E487B7100000000000000000000000000000000000000000000000000000000 PUSH0 MSTORE PUSH1 0x31 PUSH1 0x4 MSTORE PUSH1 0x24 PUSH0 REVERT JUMPDEST PUSH0 PUSH2 0x2DFD DUP3 PUSH2 0x2444 JUMP JUMPDEST SWAP2 POP PUSH0 DUP3 SUB PUSH2 0x2E0F JUMPI PUSH2 0x2E0E PUSH2 0x2A02 JUMP JUMPDEST JUMPDEST PUSH1 0x1 DUP3 SUB SWAP1 POP SWAP2 SWAP1 POP JUMP JUMPDEST PUSH0 DUP2 SWAP1 POP SWAP3 SWAP2 POP POP JUMP JUMPDEST PUSH32 0x3000000000000000000000000000000000000000000000000000000000000000 PUSH0 DUP3 ADD MSTORE POP JUMP JUMPDEST PUSH0 PUSH2 0x2E58 PUSH1 0x1 DUP4 PUSH2 0x2E1A JUMP JUMPDEST SWAP2 POP PUSH2 0x2E63 DUP3 PUSH2 0x2E24 JUMP JUMPDEST PUSH1 0x1 DUP3 ADD SWAP1 POP SWAP2 SWAP1 POP JUMP JUMPDEST PUSH0 PUSH2 0x2E78 DUP3 PUSH2 0x2E4C JUMP JUMPDEST SWAP2 POP DUP2 SWAP1 POP SWAP2 SWAP1 POP JUMP JUMPDEST PUSH0 DUP2 SLOAD PUSH2 0x2E8E DUP2 PUSH2 0x2A8F JUMP JUMPDEST PUSH2 0x2E98 DUP2 DUP7 PUSH2 0x2E1A JUMP JUMPDEST SWAP5 POP PUSH1 0x1 DUP3 AND PUSH0 DUP2 EQ PUSH2 0x2EB2 JUMPI PUSH1 0x1 DUP2 EQ PUSH2 0x2EC7 JUMPI PUSH2 0x2EF9 JUMP JUMPDEST PUSH1 0xFF NOT DUP4 AND DUP7 MSTORE DUP2 ISZERO ISZERO DUP3 MUL DUP7 ADD SWAP4 POP PUSH2 0x2EF9 JUMP JUMPDEST PUSH2 0x2ED0 DUP6 PUSH2 0x2ABF JUMP JUMPDEST PUSH0 JUMPDEST DUP4 DUP2 LT ISZERO PUSH2 0x2EF1 JUMPI DUP2 SLOAD DUP2 DUP10 ADD MSTORE PUSH1 0x1 DUP3 ADD SWAP2 POP PUSH1 0x20 DUP2 ADD SWAP1 POP PUSH2 0x2ED2 JUMP JUMPDEST DUP4 DUP9 ADD SWAP6 POP POP POP JUMPDEST POP POP POP SWAP3 SWAP2 POP POP JUMP JUMPDEST PUSH0 PUSH2 0x2F0D DUP3 DUP5 PUSH2 0x2E82 JUMP JUMPDEST SWAP2 POP DUP2 SWAP1 POP SWAP3 SWAP2 POP POP JUMP JUMPDEST PUSH32 0x496E76616C696420696E64657800000000000000000000000000000000000000 PUSH0 DUP3 ADD MSTORE POP JUMP JUMPDEST PUSH0 PUSH2 0x2F4C PUSH1 0xD DUP4 PUSH2 0x23CE JUMP JUMPDEST SWAP2 POP PUSH2 0x2F57 DUP3 PUSH2 0x2F18 JUMP JUMPDEST PUSH1 0x20 DUP3 ADD SWAP1 POP SWAP2 SWAP1 POP JUMP JUMPDEST PUSH0 PUSH1 0x20 DUP3 ADD SWAP1 POP DUP2 DUP2 SUB PUSH0 DUP4 ADD MSTORE PUSH2 0x2F79 DUP2 PUSH2 0x2F40 JUMP JUMPDEST SWAP1 POP SWAP2 SWAP1 POP JUMP JUMPDEST PUSH0 PUSH2 0x2F8A DUP3 PUSH2 0x23C4 JUMP JUMPDEST PUSH2 0x2F94 DUP2 DUP6 PUSH2 0x2E1A JUMP JUMPDEST SWAP4 POP PUSH2 0x2FA4 DUP2 DUP6 PUSH1 0x20 DUP7 ADD PUSH2 0x23DE JUMP JUMPDEST DUP1 DUP5 ADD SWAP2 POP POP SWAP3 SWAP2 POP POP JUMP JUMPDEST PUSH0 PUSH2 0x2FBB DUP3 DUP5 PUSH2 0x2F80 JUMP JUMPDEST SWAP2 POP DUP2 SWAP1 POP SWAP3 SWAP2 POP POP JUMP JUMPDEST PUSH32 0x3100000000000000000000000000000000000000000000000000000000000000 PUSH0 DUP3 ADD MSTORE POP JUMP JUMPDEST PUSH0 PUSH2 0x2FFA PUSH1 0x1 DUP4 PUSH2 0x2E1A JUMP JUMPDEST SWAP2 POP PUSH2 0x3005 DUP3 PUSH2 0x2FC6 JUMP JUMPDEST PUSH1 0x1 DUP3 ADD SWAP1 POP SWAP2 SWAP1 POP JUMP JUMPDEST PUSH0 PUSH2 0x301A DUP3 PUSH2 0x2FEE JUMP JUMPDEST SWAP2 POP DUP2 SWAP1 POP SWAP2 SWAP1 POP JUMP JUMPDEST PUSH32 0x4D6F6465206D75737420626520273027206F7220273127000000000000000000 PUSH0 DUP3 ADD MSTORE POP JUMP JUMPDEST PUSH0 PUSH2 0x3058 PUSH1 0x17 DUP4 PUSH2 0x23CE JUMP JUMPDEST SWAP2 POP PUSH2 0x3063 DUP3 PUSH2 0x3024 JUMP JUMPDEST PUSH1 0x20 DUP3 ADD SWAP1 POP SWAP2 SWAP1 POP JUMP JUMPDEST PUSH0 PUSH1 0x20 DUP3 ADD SWAP1 POP DUP2 DUP2 SUB PUSH0 DUP4 ADD MSTORE PUSH2 0x3085 DUP2 PUSH2 0x304C JUMP JUMPDEST SWAP1 POP SWAP2 SWAP1 POP JUMP JUMPDEST PUSH0 PUSH2 0x3096 DUP3 PUSH2 0x2444 JUMP JUMPDEST SWAP2 POP PUSH32 0xFFFFFFFFFFFFFFFFFFFFFFFFFFFFFFFFFFFFFFFFFFFFFFFFFFFFFFFFFFFFFFFF DUP3 SUB PUSH2 0x30C8 JUMPI PUSH2 0x30C7 PUSH2 0x2A02 JUMP JUMPDEST JUMPDEST PUSH1 0x1 DUP3 ADD SWAP1 POP SWAP2 SWAP1 POP JUMP JUMPDEST PUSH0 PUSH2 0x30DD DUP3 PUSH2 0x2444 JUMP JUMPDEST SWAP2 POP PUSH2 0x30E8 DUP4 PUSH2 0x2444 JUMP JUMPDEST SWAP3 POP DUP3 PUSH2 0x30F8 JUMPI PUSH2 0x30F7 PUSH2 0x2910 JUMP JUMPDEST JUMPDEST DUP3 DUP3 DIV SWAP1 POP SWAP3 SWAP2 POP POP JUMP INVALID LOG2 PUSH5 0x6970667358 0x22 SLT KECCAK256 PUSH1 0x8 JUMPDEST 0xCB PREVRANDAO CODESIZE SGT EXTCODESIZE SWAP10 CALLVALUE PUSH29 0x337C97CA77132D7EECCE8CCC67DC8C77299EFC7D3464736F6C63430008 BYTE STOP CALLER "
				},
				"gasEstimates": {
					"creation": {
						"codeDepositCost": "2520200",
						"executionCost": "infinite",
						"totalCost": "infinite"
					},
					"external": {
						"accessList(address)": "2878",
						"addEntries(string)": "infinite",
						"addEntry(string,string,string,string,string)": "infinite",
						"clearEntriesBatch(uint256)": "infinite",
						"entries(uint256)": "infinite",
						"getAndrewUrl()": "infinite",
						"getEntry(uint256)": "infinite",
						"getEtherscanUrl()": "infinite",
						"getMode()": "infinite",
						"getModeRaw()": "infinite",
						"getTjoUrl()": "infinite",
						"getTotalEntries()": "infinite",
						"getTotalEntriesInt()": "2529",
						"grantAccess(address)": "27018",
						"mode()": "infinite",
						"owner()": "2575",
						"revokeAccess(address)": "26994",
						"setAndrewUrl(string)": "infinite",
						"setEtherscanUrl(string)": "infinite",
						"setMode(string)": "infinite",
						"setTjoUrl(string)": "infinite",
						"updateEntry(uint256,string,string,string,string,string)": "infinite"
					},
					"internal": {
						"split(string memory,string memory)": "infinite",
						"substring(bytes memory,uint256,uint256)": "infinite",
						"uintToString(uint256)": "infinite"
					}
				},
				"methodIdentifiers": {
					"accessList(address)": "87a5b67c",
					"addEntries(string)": "06a7bd99",
					"addEntry(string,string,string,string,string)": "57c8be66",
					"clearEntriesBatch(uint256)": "48cece84",
					"entries(uint256)": "b30906d4",
					"getAndrewUrl()": "9ef96d1f",
					"getEntry(uint256)": "bae78d7b",
					"getEtherscanUrl()": "72176858",
					"getMode()": "4b4fd03b",
					"getModeRaw()": "c5532468",
					"getTjoUrl()": "0d8550e1",
					"getTotalEntries()": "12d491c9",
					"getTotalEntriesInt()": "927947b4",
					"grantAccess(address)": "0ae5e739",
					"mode()": "295a5212",
					"owner()": "8da5cb5b",
					"revokeAccess(address)": "85e68531",
					"setAndrewUrl(string)": "52baf08f",
					"setEtherscanUrl(string)": "a9c598b9",
					"setMode(string)": "a84fd0ed",
					"setTjoUrl(string)": "c41f0cac",
					"updateEntry(uint256,string,string,string,string,string)": "82cb36f6"
				}
			},
			"storageLayout": {
				"storage": [
					{
						"astId": 140,
						"contract": "ProzacYouthUtils.sol:ProzacYouthUtils",
						"label": "mode",
						"offset": 0,
						"slot": "0",
						"type": "t_string_storage"
					},
					{
						"astId": 144,
						"contract": "ProzacYouthUtils.sol:ProzacYouthUtils",
						"label": "entries",
						"offset": 0,
						"slot": "1",
						"type": "t_array(t_struct(Entry)137_storage)dyn_storage"
					},
					{
						"astId": 148,
						"contract": "ProzacYouthUtils.sol:ProzacYouthUtils",
						"label": "accessList",
						"offset": 0,
						"slot": "2",
						"type": "t_mapping(t_address,t_bool)"
					},
					{
						"astId": 150,
						"contract": "ProzacYouthUtils.sol:ProzacYouthUtils",
						"label": "owner",
						"offset": 0,
						"slot": "3",
						"type": "t_address"
					},
					{
						"astId": 153,
						"contract": "ProzacYouthUtils.sol:ProzacYouthUtils",
						"label": "tjoUrl",
						"offset": 0,
						"slot": "4",
						"type": "t_string_storage"
					},
					{
						"astId": 156,
						"contract": "ProzacYouthUtils.sol:ProzacYouthUtils",
						"label": "etherscanUrl",
						"offset": 0,
						"slot": "5",
						"type": "t_string_storage"
					},
					{
						"astId": 159,
						"contract": "ProzacYouthUtils.sol:ProzacYouthUtils",
						"label": "andrewUrl",
						"offset": 0,
						"slot": "6",
						"type": "t_string_storage"
					}
				],
				"types": {
					"t_address": {
						"encoding": "inplace",
						"label": "address",
						"numberOfBytes": "20"
					},
					"t_array(t_struct(Entry)137_storage)dyn_storage": {
						"base": "t_struct(Entry)137_storage",
						"encoding": "dynamic_array",
						"label": "struct ProzacYouthUtils.Entry[]",
						"numberOfBytes": "32"
					},
					"t_bool": {
						"encoding": "inplace",
						"label": "bool",
						"numberOfBytes": "1"
					},
					"t_mapping(t_address,t_bool)": {
						"encoding": "mapping",
						"key": "t_address",
						"label": "mapping(address => bool)",
						"numberOfBytes": "32",
						"value": "t_bool"
					},
					"t_string_storage": {
						"encoding": "bytes",
						"label": "string",
						"numberOfBytes": "32"
					},
					"t_struct(Entry)137_storage": {
						"encoding": "inplace",
						"label": "struct ProzacYouthUtils.Entry",
						"members": [
							{
								"astId": 128,
								"contract": "ProzacYouthUtils.sol:ProzacYouthUtils",
								"label": "hash",
								"offset": 0,
								"slot": "0",
								"type": "t_string_storage"
							},
							{
								"astId": 130,
								"contract": "ProzacYouthUtils.sol:ProzacYouthUtils",
								"label": "blockNumber",
								"offset": 0,
								"slot": "1",
								"type": "t_string_storage"
							},
							{
								"astId": 132,
								"contract": "ProzacYouthUtils.sol:ProzacYouthUtils",
								"label": "timestamp",
								"offset": 0,
								"slot": "2",
								"type": "t_string_storage"
							},
							{
								"astId": 134,
								"contract": "ProzacYouthUtils.sol:ProzacYouthUtils",
								"label": "text",
								"offset": 0,
								"slot": "3",
								"type": "t_string_storage"
							},
							{
								"astId": 136,
								"contract": "ProzacYouthUtils.sol:ProzacYouthUtils",
								"label": "formattedTime",
								"offset": 0,
								"slot": "4",
								"type": "t_string_storage"
							}
						],
						"numberOfBytes": "160"
					}
				}
			},
			"userdoc": {
				"kind": "user",
				"methods": {},
				"version": 1
			}
		}
	}
}