{
	"ProzacYouthUtils.sol": {
		"ProzacYouthUtils": {
			"abi": [
				{
					"inputs": [],
					"stateMutability": "nonpayable",
					"type": "constructor"
				},
				{
					"inputs": [
						{
							"internalType": "address",
							"name": "",
							"type": "address"
						}
					],
					"name": "accessList",
					"outputs": [
						{
							"internalType": "bool",
							"name": "",
							"type": "bool"
						}
					],
					"stateMutability": "view",
					"type": "function"
				},
				{
					"inputs": [
						{
							"internalType": "string",
							"name": "_hash",
							"type": "string"
						},
						{
							"internalType": "string",
							"name": "_blockNumber",
							"type": "string"
						},
						{
							"internalType": "string",
							"name": "_timestamp",
							"type": "string"
						},
						{
							"internalType": "string",
							"name": "_text",
							"type": "string"
						},
						{
							"internalType": "string",
							"name": "_formattedTime",
							"type": "string"
						}
					],
					"name": "addEntry",
					"outputs": [],
					"stateMutability": "nonpayable",
					"type": "function"
				},
				{
					"inputs": [
						{
							"internalType": "uint256",
							"name": "",
							"type": "uint256"
						}
					],
					"name": "entries",
					"outputs": [
						{
							"internalType": "string",
							"name": "hash",
							"type": "string"
						},
						{
							"internalType": "string",
							"name": "blockNumber",
							"type": "string"
						},
						{
							"internalType": "string",
							"name": "timestamp",
							"type": "string"
						},
						{
							"internalType": "string",
							"name": "text",
							"type": "string"
						},
						{
							"internalType": "string",
							"name": "formattedTime",
							"type": "string"
						}
					],
					"stateMutability": "view",
					"type": "function"
				},
				{
					"inputs": [],
					"name": "getEntriesHTML",
					"outputs": [
						{
							"internalType": "string",
							"name": "",
							"type": "string"
						}
					],
					"stateMutability": "view",
					"type": "function"
				},
				{
					"inputs": [],
					"name": "getMode",
					"outputs": [
						{
							"internalType": "string",
							"name": "",
							"type": "string"
						}
					],
					"stateMutability": "view",
					"type": "function"
				},
				{
					"inputs": [],
					"name": "getTotalEntries",
					"outputs": [
						{
							"internalType": "uint256",
							"name": "",
							"type": "uint256"
						}
					],
					"stateMutability": "view",
					"type": "function"
				},
				{
					"inputs": [
						{
							"internalType": "address",
							"name": "_address",
							"type": "address"
						}
					],
					"name": "grantAccess",
					"outputs": [],
					"stateMutability": "nonpayable",
					"type": "function"
				},
				{
					"inputs": [],
					"name": "mode",
					"outputs": [
						{
							"internalType": "string",
							"name": "",
							"type": "string"
						}
					],
					"stateMutability": "view",
					"type": "function"
				},
				{
					"inputs": [],
					"name": "owner",
					"outputs": [
						{
							"internalType": "address",
							"name": "",
							"type": "address"
						}
					],
					"stateMutability": "view",
					"type": "function"
				},
				{
					"inputs": [
						{
							"internalType": "address",
							"name": "_address",
							"type": "address"
						}
					],
					"name": "revokeAccess",
					"outputs": [],
					"stateMutability": "nonpayable",
					"type": "function"
				},
				{
					"inputs": [
						{
							"internalType": "string",
							"name": "_andrewUrl",
							"type": "string"
						}
					],
					"name": "setAndrewUrl",
					"outputs": [],
					"stateMutability": "nonpayable",
					"type": "function"
				},
				{
					"inputs": [
						{
							"internalType": "string",
							"name": "_etherscanUrl",
							"type": "string"
						}
					],
					"name": "setEtherscanUrl",
					"outputs": [],
					"stateMutability": "nonpayable",
					"type": "function"
				},
				{
					"inputs": [
						{
							"internalType": "string",
							"name": "_mode",
							"type": "string"
						}
					],
					"name": "setMode",
					"outputs": [],
					"stateMutability": "nonpayable",
					"type": "function"
				},
				{
					"inputs": [
						{
							"internalType": "string",
							"name": "_tjoUrl",
							"type": "string"
						}
					],
					"name": "setTjoUrl",
					"outputs": [],
					"stateMutability": "nonpayable",
					"type": "function"
				}
			],
			"devdoc": {
				"kind": "dev",
				"methods": {},
				"version": 1
			},
			"evm": {
				"assembly": "    /* \"ProzacYouthUtils.sol\":57:4307  contract ProzacYouthUtils {... */\n  mstore(0x40, 0x80)\n    /* \"ProzacYouthUtils.sol\":240:264  string public mode = \"0\" */\n  mload(0x40)\n  dup1\n  0x40\n  add\n  0x40\n  mstore\n  dup1\n  0x01\n  dup2\n  mstore\n  0x20\n  add\n  0x3000000000000000000000000000000000000000000000000000000000000000\n  dup2\n  mstore\n  pop\n  0x00\n  swap1\n  dup2\n  tag_1\n  swap2\n  swap1\n  tag_2\n  jump\t// in\ntag_1:\n  pop\n    /* \"ProzacYouthUtils.sol\":372:418  string private tjoUrl = \"https://www.tjo.art/\" */\n  mload(0x40)\n  dup1\n  0x40\n  add\n  0x40\n  mstore\n  dup1\n  0x14\n  dup2\n  mstore\n  0x20\n  add\n  0x68747470733a2f2f7777772e746a6f2e6172742f000000000000000000000000\n  dup2\n  mstore\n  pop\n  0x04\n  swap1\n  dup2\n  tag_3\n  swap2\n  swap1\n  tag_2\n  jump\t// in\ntag_3:\n  pop\n    /* \"ProzacYouthUtils.sol\":424:480  string private etherscanUrl = \"https://etherscan.io/tx/\" */\n  mload(0x40)\n  dup1\n  0x40\n  add\n  0x40\n  mstore\n  dup1\n  0x18\n  dup2\n  mstore\n  0x20\n  add\n  0x68747470733a2f2f65746865727363616e2e696f2f74782f0000000000000000\n  dup2\n  mstore\n  pop\n  0x05\n  swap1\n  dup2\n  tag_4\n  swap2\n  swap1\n  tag_2\n  jump\t// in\ntag_4:\n  pop\n    /* \"ProzacYouthUtils.sol\":486:541  string private andrewUrl = \"https://andrewmitchell.xyz\" */\n  mload(0x40)\n  dup1\n  0x40\n  add\n  0x40\n  mstore\n  dup1\n  0x1a\n  dup2\n  mstore\n  0x20\n  add\n  0x68747470733a2f2f616e647265776d69746368656c6c2e78797a000000000000\n  dup2\n  mstore\n  pop\n  0x06\n  swap1\n  dup2\n  tag_5\n  swap2\n  swap1\n  tag_2\n  jump\t// in\ntag_5:\n  pop\n    /* \"ProzacYouthUtils.sol\":780:939  constructor() {... */\n  callvalue\n  dup1\n  iszero\n  tag_6\n  jumpi\n  0x00\n  dup1\n  revert\ntag_6:\n  pop\n    /* \"ProzacYouthUtils.sol\":812:822  msg.sender */\n  caller\n    /* \"ProzacYouthUtils.sol\":804:809  owner */\n  0x03\n  0x00\n    /* \"ProzacYouthUtils.sol\":804:822  owner = msg.sender */\n  0x0100\n  exp\n  dup2\n  sload\n  dup2\n  0xffffffffffffffffffffffffffffffffffffffff\n  mul\n  not\n  and\n  swap1\n  dup4\n  0xffffffffffffffffffffffffffffffffffffffff\n  and\n  mul\n  or\n  swap1\n  sstore\n  pop\n    /* \"ProzacYouthUtils.sol\":889:893  true */\n  0x01\n    /* \"ProzacYouthUtils.sol\":832:842  accessList */\n  0x02\n    /* \"ProzacYouthUtils.sol\":832:886  accessList[0xF1Da6E2d387e9DA611dAc8a7FC587Eaa4B010013] */\n  0x00\n    /* \"ProzacYouthUtils.sol\":843:885  0xF1Da6E2d387e9DA611dAc8a7FC587Eaa4B010013 */\n  0xf1da6e2d387e9da611dac8a7fc587eaa4b010013\n    /* \"ProzacYouthUtils.sol\":832:886  accessList[0xF1Da6E2d387e9DA611dAc8a7FC587Eaa4B010013] */\n  0xffffffffffffffffffffffffffffffffffffffff\n  and\n  0xffffffffffffffffffffffffffffffffffffffff\n  and\n  dup2\n  mstore\n  0x20\n  add\n  swap1\n  dup2\n  mstore\n  0x20\n  add\n  0x00\n  keccak256\n  0x00\n    /* \"ProzacYouthUtils.sol\":832:893  accessList[0xF1Da6E2d387e9DA611dAc8a7FC587Eaa4B010013] = true */\n  0x0100\n  exp\n  dup2\n  sload\n  dup2\n  0xff\n  mul\n  not\n  and\n  swap1\n  dup4\n  iszero\n  iszero\n  mul\n  or\n  swap1\n  sstore\n  pop\n    /* \"ProzacYouthUtils.sol\":57:4307  contract ProzacYouthUtils {... */\n  jump(tag_9)\n    /* \"#utility.yul\":7:106   */\ntag_10:\n    /* \"#utility.yul\":59:65   */\n  0x00\n    /* \"#utility.yul\":93:98   */\n  dup2\n    /* \"#utility.yul\":87:99   */\n  mload\n    /* \"#utility.yul\":77:99   */\n  swap1\n  pop\n    /* \"#utility.yul\":7:106   */\n  swap2\n  swap1\n  pop\n  jump\t// out\n    /* \"#utility.yul\":112:292   */\ntag_11:\n    /* \"#utility.yul\":160:237   */\n  0x4e487b7100000000000000000000000000000000000000000000000000000000\n    /* \"#utility.yul\":157:158   */\n  0x00\n    /* \"#utility.yul\":150:238   */\n  mstore\n    /* \"#utility.yul\":257:261   */\n  0x41\n    /* \"#utility.yul\":254:255   */\n  0x04\n    /* \"#utility.yul\":247:262   */\n  mstore\n    /* \"#utility.yul\":281:285   */\n  0x24\n    /* \"#utility.yul\":278:279   */\n  0x00\n    /* \"#utility.yul\":271:286   */\n  revert\n    /* \"#utility.yul\":298:478   */\ntag_12:\n    /* \"#utility.yul\":346:423   */\n  0x4e487b7100000000000000000000000000000000000000000000000000000000\n    /* \"#utility.yul\":343:344   */\n  0x00\n    /* \"#utility.yul\":336:424   */\n  mstore\n    /* \"#utility.yul\":443:447   */\n  0x22\n    /* \"#utility.yul\":440:441   */\n  0x04\n    /* \"#utility.yul\":433:448   */\n  mstore\n    /* \"#utility.yul\":467:471   */\n  0x24\n    /* \"#utility.yul\":464:465   */\n  0x00\n    /* \"#utility.yul\":457:472   */\n  revert\n    /* \"#utility.yul\":484:804   */\ntag_13:\n    /* \"#utility.yul\":528:534   */\n  0x00\n    /* \"#utility.yul\":565:566   */\n  0x02\n    /* \"#utility.yul\":559:563   */\n  dup3\n    /* \"#utility.yul\":555:567   */\n  div\n    /* \"#utility.yul\":545:567   */\n  swap1\n  pop\n    /* \"#utility.yul\":612:613   */\n  0x01\n    /* \"#utility.yul\":606:610   */\n  dup3\n    /* \"#utility.yul\":602:614   */\n  and\n    /* \"#utility.yul\":633:651   */\n  dup1\n    /* \"#utility.yul\":623:704   */\n  tag_35\n  jumpi\n    /* \"#utility.yul\":689:693   */\n  0x7f\n    /* \"#utility.yul\":681:687   */\n  dup3\n    /* \"#utility.yul\":677:694   */\n  and\n    /* \"#utility.yul\":667:694   */\n  swap2\n  pop\n    /* \"#utility.yul\":623:704   */\ntag_35:\n    /* \"#utility.yul\":751:753   */\n  0x20\n    /* \"#utility.yul\":743:749   */\n  dup3\n    /* \"#utility.yul\":740:754   */\n  lt\n    /* \"#utility.yul\":720:738   */\n  dup2\n    /* \"#utility.yul\":717:755   */\n  sub\n    /* \"#utility.yul\":714:798   */\n  tag_36\n  jumpi\n    /* \"#utility.yul\":770:788   */\n  tag_37\n  tag_12\n  jump\t// in\ntag_37:\n    /* \"#utility.yul\":714:798   */\ntag_36:\n    /* \"#utility.yul\":535:804   */\n  pop\n    /* \"#utility.yul\":484:804   */\n  swap2\n  swap1\n  pop\n  jump\t// out\n    /* \"#utility.yul\":810:951   */\ntag_14:\n    /* \"#utility.yul\":859:863   */\n  0x00\n    /* \"#utility.yul\":882:885   */\n  dup2\n    /* \"#utility.yul\":874:885   */\n  swap1\n  pop\n    /* \"#utility.yul\":905:908   */\n  dup2\n    /* \"#utility.yul\":902:903   */\n  0x00\n    /* \"#utility.yul\":895:909   */\n  mstore\n    /* \"#utility.yul\":939:943   */\n  0x20\n    /* \"#utility.yul\":936:937   */\n  0x00\n    /* \"#utility.yul\":926:944   */\n  keccak256\n    /* \"#utility.yul\":918:944   */\n  swap1\n  pop\n    /* \"#utility.yul\":810:951   */\n  swap2\n  swap1\n  pop\n  jump\t// out\n    /* \"#utility.yul\":957:1050   */\ntag_15:\n    /* \"#utility.yul\":994:1000   */\n  0x00\n    /* \"#utility.yul\":1041:1043   */\n  0x20\n    /* \"#utility.yul\":1036:1038   */\n  0x1f\n    /* \"#utility.yul\":1029:1034   */\n  dup4\n    /* \"#utility.yul\":1025:1039   */\n  add\n    /* \"#utility.yul\":1021:1044   */\n  div\n    /* \"#utility.yul\":1011:1044   */\n  swap1\n  pop\n    /* \"#utility.yul\":957:1050   */\n  swap2\n  swap1\n  pop\n  jump\t// out\n    /* \"#utility.yul\":1056:1163   */\ntag_16:\n    /* \"#utility.yul\":1100:1108   */\n  0x00\n    /* \"#utility.yul\":1150:1155   */\n  dup3\n    /* \"#utility.yul\":1144:1148   */\n  dup3\n    /* \"#utility.yul\":1140:1156   */\n  shl\n    /* \"#utility.yul\":1119:1156   */\n  swap1\n  pop\n    /* \"#utility.yul\":1056:1163   */\n  swap3\n  swap2\n  pop\n  pop\n  jump\t// out\n    /* \"#utility.yul\":1169:1562   */\ntag_17:\n    /* \"#utility.yul\":1238:1244   */\n  0x00\n    /* \"#utility.yul\":1288:1289   */\n  0x08\n    /* \"#utility.yul\":1276:1286   */\n  dup4\n    /* \"#utility.yul\":1272:1290   */\n  mul\n    /* \"#utility.yul\":1311:1408   */\n  tag_42\n    /* \"#utility.yul\":1341:1407   */\n  0xffffffffffffffffffffffffffffffffffffffffffffffffffffffffffffffff\n    /* \"#utility.yul\":1330:1339   */\n  dup3\n    /* \"#utility.yul\":1311:1408   */\n  tag_16\n  jump\t// in\ntag_42:\n    /* \"#utility.yul\":1429:1468   */\n  tag_43\n    /* \"#utility.yul\":1459:1467   */\n  dup7\n    /* \"#utility.yul\":1448:1457   */\n  dup4\n    /* \"#utility.yul\":1429:1468   */\n  tag_16\n  jump\t// in\ntag_43:\n    /* \"#utility.yul\":1417:1468   */\n  swap6\n  pop\n    /* \"#utility.yul\":1501:1505   */\n  dup1\n    /* \"#utility.yul\":1497:1506   */\n  not\n    /* \"#utility.yul\":1490:1495   */\n  dup5\n    /* \"#utility.yul\":1486:1507   */\n  and\n    /* \"#utility.yul\":1477:1507   */\n  swap4\n  pop\n    /* \"#utility.yul\":1550:1554   */\n  dup1\n    /* \"#utility.yul\":1540:1548   */\n  dup7\n    /* \"#utility.yul\":1536:1555   */\n  and\n    /* \"#utility.yul\":1529:1534   */\n  dup5\n    /* \"#utility.yul\":1526:1556   */\n  or\n    /* \"#utility.yul\":1516:1556   */\n  swap3\n  pop\n    /* \"#utility.yul\":1245:1562   */\n  pop\n  pop\n    /* \"#utility.yul\":1169:1562   */\n  swap4\n  swap3\n  pop\n  pop\n  pop\n  jump\t// out\n    /* \"#utility.yul\":1568:1645   */\ntag_18:\n    /* \"#utility.yul\":1605:1612   */\n  0x00\n    /* \"#utility.yul\":1634:1639   */\n  dup2\n    /* \"#utility.yul\":1623:1639   */\n  swap1\n  pop\n    /* \"#utility.yul\":1568:1645   */\n  swap2\n  swap1\n  pop\n  jump\t// out\n    /* \"#utility.yul\":1651:1711   */\ntag_19:\n    /* \"#utility.yul\":1679:1682   */\n  0x00\n    /* \"#utility.yul\":1700:1705   */\n  dup2\n    /* \"#utility.yul\":1693:1705   */\n  swap1\n  pop\n    /* \"#utility.yul\":1651:1711   */\n  swap2\n  swap1\n  pop\n  jump\t// out\n    /* \"#utility.yul\":1717:1859   */\ntag_20:\n    /* \"#utility.yul\":1767:1776   */\n  0x00\n    /* \"#utility.yul\":1800:1853   */\n  tag_47\n    /* \"#utility.yul\":1818:1852   */\n  tag_48\n    /* \"#utility.yul\":1827:1851   */\n  tag_49\n    /* \"#utility.yul\":1845:1850   */\n  dup5\n    /* \"#utility.yul\":1827:1851   */\n  tag_18\n  jump\t// in\ntag_49:\n    /* \"#utility.yul\":1818:1852   */\n  tag_19\n  jump\t// in\ntag_48:\n    /* \"#utility.yul\":1800:1853   */\n  tag_18\n  jump\t// in\ntag_47:\n    /* \"#utility.yul\":1787:1853   */\n  swap1\n  pop\n    /* \"#utility.yul\":1717:1859   */\n  swap2\n  swap1\n  pop\n  jump\t// out\n    /* \"#utility.yul\":1865:1940   */\ntag_21:\n    /* \"#utility.yul\":1908:1911   */\n  0x00\n    /* \"#utility.yul\":1929:1934   */\n  dup2\n    /* \"#utility.yul\":1922:1934   */\n  swap1\n  pop\n    /* \"#utility.yul\":1865:1940   */\n  swap2\n  swap1\n  pop\n  jump\t// out\n    /* \"#utility.yul\":1946:2215   */\ntag_22:\n    /* \"#utility.yul\":2056:2095   */\n  tag_52\n    /* \"#utility.yul\":2087:2094   */\n  dup4\n    /* \"#utility.yul\":2056:2095   */\n  tag_20\n  jump\t// in\ntag_52:\n    /* \"#utility.yul\":2117:2208   */\n  tag_53\n    /* \"#utility.yul\":2166:2207   */\n  tag_54\n    /* \"#utility.yul\":2190:2206   */\n  dup3\n    /* \"#utility.yul\":2166:2207   */\n  tag_21\n  jump\t// in\ntag_54:\n    /* \"#utility.yul\":2158:2164   */\n  dup5\n    /* \"#utility.yul\":2151:2155   */\n  dup5\n    /* \"#utility.yul\":2145:2156   */\n  sload\n    /* \"#utility.yul\":2117:2208   */\n  tag_17\n  jump\t// in\ntag_53:\n    /* \"#utility.yul\":2111:2115   */\n  dup3\n    /* \"#utility.yul\":2104:2209   */\n  sstore\n    /* \"#utility.yul\":2022:2215   */\n  pop\n    /* \"#utility.yul\":1946:2215   */\n  pop\n  pop\n  pop\n  jump\t// out\n    /* \"#utility.yul\":2221:2294   */\ntag_23:\n    /* \"#utility.yul\":2266:2269   */\n  0x00\n    /* \"#utility.yul\":2221:2294   */\n  swap1\n  jump\t// out\n    /* \"#utility.yul\":2300:2489   */\ntag_24:\n    /* \"#utility.yul\":2377:2409   */\n  tag_57\n  tag_23\n  jump\t// in\ntag_57:\n    /* \"#utility.yul\":2418:2483   */\n  tag_58\n    /* \"#utility.yul\":2476:2482   */\n  dup2\n    /* \"#utility.yul\":2468:2474   */\n  dup5\n    /* \"#utility.yul\":2462:2466   */\n  dup5\n    /* \"#utility.yul\":2418:2483   */\n  tag_22\n  jump\t// in\ntag_58:\n    /* \"#utility.yul\":2353:2489   */\n  pop\n    /* \"#utility.yul\":2300:2489   */\n  pop\n  pop\n  jump\t// out\n    /* \"#utility.yul\":2495:2681   */\ntag_25:\n    /* \"#utility.yul\":2555:2675   */\ntag_60:\n    /* \"#utility.yul\":2572:2575   */\n  dup2\n    /* \"#utility.yul\":2565:2570   */\n  dup2\n    /* \"#utility.yul\":2562:2576   */\n  lt\n    /* \"#utility.yul\":2555:2675   */\n  iszero\n  tag_62\n  jumpi\n    /* \"#utility.yul\":2626:2665   */\n  tag_63\n    /* \"#utility.yul\":2663:2664   */\n  0x00\n    /* \"#utility.yul\":2656:2661   */\n  dup3\n    /* \"#utility.yul\":2626:2665   */\n  tag_24\n  jump\t// in\ntag_63:\n    /* \"#utility.yul\":2599:2600   */\n  0x01\n    /* \"#utility.yul\":2592:2597   */\n  dup2\n    /* \"#utility.yul\":2588:2601   */\n  add\n    /* \"#utility.yul\":2579:2601   */\n  swap1\n  pop\n    /* \"#utility.yul\":2555:2675   */\n  jump(tag_60)\ntag_62:\n    /* \"#utility.yul\":2495:2681   */\n  pop\n  pop\n  jump\t// out\n    /* \"#utility.yul\":2687:3230   */\ntag_26:\n    /* \"#utility.yul\":2788:2790   */\n  0x1f\n    /* \"#utility.yul\":2783:2786   */\n  dup3\n    /* \"#utility.yul\":2780:2791   */\n  gt\n    /* \"#utility.yul\":2777:3223   */\n  iszero\n  tag_65\n  jumpi\n    /* \"#utility.yul\":2822:2860   */\n  tag_66\n    /* \"#utility.yul\":2854:2859   */\n  dup2\n    /* \"#utility.yul\":2822:2860   */\n  tag_14\n  jump\t// in\ntag_66:\n    /* \"#utility.yul\":2906:2935   */\n  tag_67\n    /* \"#utility.yul\":2924:2934   */\n  dup5\n    /* \"#utility.yul\":2906:2935   */\n  tag_15\n  jump\t// in\ntag_67:\n    /* \"#utility.yul\":2896:2904   */\n  dup2\n    /* \"#utility.yul\":2892:2936   */\n  add\n    /* \"#utility.yul\":3089:3091   */\n  0x20\n    /* \"#utility.yul\":3077:3087   */\n  dup6\n    /* \"#utility.yul\":3074:3092   */\n  lt\n    /* \"#utility.yul\":3071:3120   */\n  iszero\n  tag_68\n  jumpi\n    /* \"#utility.yul\":3110:3118   */\n  dup2\n    /* \"#utility.yul\":3095:3118   */\n  swap1\n  pop\n    /* \"#utility.yul\":3071:3120   */\ntag_68:\n    /* \"#utility.yul\":3133:3213   */\n  tag_69\n    /* \"#utility.yul\":3189:3211   */\n  tag_70\n    /* \"#utility.yul\":3207:3210   */\n  dup6\n    /* \"#utility.yul\":3189:3211   */\n  tag_15\n  jump\t// in\ntag_70:\n    /* \"#utility.yul\":3179:3187   */\n  dup4\n    /* \"#utility.yul\":3175:3212   */\n  add\n    /* \"#utility.yul\":3162:3173   */\n  dup3\n    /* \"#utility.yul\":3133:3213   */\n  tag_25\n  jump\t// in\ntag_69:\n    /* \"#utility.yul\":2792:3223   */\n  pop\n  pop\n    /* \"#utility.yul\":2777:3223   */\ntag_65:\n    /* \"#utility.yul\":2687:3230   */\n  pop\n  pop\n  pop\n  jump\t// out\n    /* \"#utility.yul\":3236:3353   */\ntag_27:\n    /* \"#utility.yul\":3290:3298   */\n  0x00\n    /* \"#utility.yul\":3340:3345   */\n  dup3\n    /* \"#utility.yul\":3334:3338   */\n  dup3\n    /* \"#utility.yul\":3330:3346   */\n  shr\n    /* \"#utility.yul\":3309:3346   */\n  swap1\n  pop\n    /* \"#utility.yul\":3236:3353   */\n  swap3\n  swap2\n  pop\n  pop\n  jump\t// out\n    /* \"#utility.yul\":3359:3528   */\ntag_28:\n    /* \"#utility.yul\":3403:3409   */\n  0x00\n    /* \"#utility.yul\":3436:3487   */\n  tag_73\n    /* \"#utility.yul\":3484:3485   */\n  0x00\n    /* \"#utility.yul\":3480:3486   */\n  not\n    /* \"#utility.yul\":3472:3477   */\n  dup5\n    /* \"#utility.yul\":3469:3470   */\n  0x08\n    /* \"#utility.yul\":3465:3478   */\n  mul\n    /* \"#utility.yul\":3436:3487   */\n  tag_27\n  jump\t// in\ntag_73:\n    /* \"#utility.yul\":3432:3488   */\n  not\n    /* \"#utility.yul\":3517:3521   */\n  dup1\n    /* \"#utility.yul\":3511:3515   */\n  dup4\n    /* \"#utility.yul\":3507:3522   */\n  and\n    /* \"#utility.yul\":3497:3522   */\n  swap2\n  pop\n    /* \"#utility.yul\":3410:3528   */\n  pop\n    /* \"#utility.yul\":3359:3528   */\n  swap3\n  swap2\n  pop\n  pop\n  jump\t// out\n    /* \"#utility.yul\":3533:3828   */\ntag_29:\n    /* \"#utility.yul\":3609:3613   */\n  0x00\n    /* \"#utility.yul\":3755:3784   */\n  tag_75\n    /* \"#utility.yul\":3780:3783   */\n  dup4\n    /* \"#utility.yul\":3774:3778   */\n  dup4\n    /* \"#utility.yul\":3755:3784   */\n  tag_28\n  jump\t// in\ntag_75:\n    /* \"#utility.yul\":3747:3784   */\n  swap2\n  pop\n    /* \"#utility.yul\":3817:3820   */\n  dup3\n    /* \"#utility.yul\":3814:3815   */\n  0x02\n    /* \"#utility.yul\":3810:3821   */\n  mul\n    /* \"#utility.yul\":3804:3808   */\n  dup3\n    /* \"#utility.yul\":3801:3822   */\n  or\n    /* \"#utility.yul\":3793:3822   */\n  swap1\n  pop\n    /* \"#utility.yul\":3533:3828   */\n  swap3\n  swap2\n  pop\n  pop\n  jump\t// out\n    /* \"#utility.yul\":3833:5228   */\ntag_2:\n    /* \"#utility.yul\":3950:3987   */\n  tag_77\n    /* \"#utility.yul\":3983:3986   */\n  dup3\n    /* \"#utility.yul\":3950:3987   */\n  tag_10\n  jump\t// in\ntag_77:\n    /* \"#utility.yul\":4052:4070   */\n  0xffffffffffffffff\n    /* \"#utility.yul\":4044:4050   */\n  dup2\n    /* \"#utility.yul\":4041:4071   */\n  gt\n    /* \"#utility.yul\":4038:4094   */\n  iszero\n  tag_78\n  jumpi\n    /* \"#utility.yul\":4074:4092   */\n  tag_79\n  tag_11\n  jump\t// in\ntag_79:\n    /* \"#utility.yul\":4038:4094   */\ntag_78:\n    /* \"#utility.yul\":4118:4156   */\n  tag_80\n    /* \"#utility.yul\":4150:4154   */\n  dup3\n    /* \"#utility.yul\":4144:4155   */\n  sload\n    /* \"#utility.yul\":4118:4156   */\n  tag_13\n  jump\t// in\ntag_80:\n    /* \"#utility.yul\":4203:4270   */\n  tag_81\n    /* \"#utility.yul\":4263:4269   */\n  dup3\n    /* \"#utility.yul\":4255:4261   */\n  dup3\n    /* \"#utility.yul\":4249:4253   */\n  dup6\n    /* \"#utility.yul\":4203:4270   */\n  tag_26\n  jump\t// in\ntag_81:\n    /* \"#utility.yul\":4297:4298   */\n  0x00\n    /* \"#utility.yul\":4321:4325   */\n  0x20\n    /* \"#utility.yul\":4308:4325   */\n  swap1\n  pop\n    /* \"#utility.yul\":4353:4355   */\n  0x1f\n    /* \"#utility.yul\":4345:4351   */\n  dup4\n    /* \"#utility.yul\":4342:4356   */\n  gt\n    /* \"#utility.yul\":4370:4371   */\n  0x01\n    /* \"#utility.yul\":4365:4983   */\n  dup2\n  eq\n  tag_83\n  jumpi\n    /* \"#utility.yul\":5027:5028   */\n  0x00\n    /* \"#utility.yul\":5044:5050   */\n  dup5\n    /* \"#utility.yul\":5041:5118   */\n  iszero\n  tag_84\n  jumpi\n    /* \"#utility.yul\":5093:5102   */\n  dup3\n    /* \"#utility.yul\":5088:5091   */\n  dup8\n    /* \"#utility.yul\":5084:5103   */\n  add\n    /* \"#utility.yul\":5078:5104   */\n  mload\n    /* \"#utility.yul\":5069:5104   */\n  swap1\n  pop\n    /* \"#utility.yul\":5041:5118   */\ntag_84:\n    /* \"#utility.yul\":5144:5211   */\n  tag_85\n    /* \"#utility.yul\":5204:5210   */\n  dup6\n    /* \"#utility.yul\":5197:5202   */\n  dup3\n    /* \"#utility.yul\":5144:5211   */\n  tag_29\n  jump\t// in\ntag_85:\n    /* \"#utility.yul\":5138:5142   */\n  dup7\n    /* \"#utility.yul\":5131:5212   */\n  sstore\n    /* \"#utility.yul\":5000:5222   */\n  pop\n    /* \"#utility.yul\":4335:5222   */\n  jump(tag_82)\n    /* \"#utility.yul\":4365:4983   */\ntag_83:\n    /* \"#utility.yul\":4417:4421   */\n  0x1f\n    /* \"#utility.yul\":4413:4422   */\n  not\n    /* \"#utility.yul\":4405:4411   */\n  dup5\n    /* \"#utility.yul\":4401:4423   */\n  and\n    /* \"#utility.yul\":4451:4488   */\n  tag_86\n    /* \"#utility.yul\":4483:4487   */\n  dup7\n    /* \"#utility.yul\":4451:4488   */\n  tag_14\n  jump\t// in\ntag_86:\n    /* \"#utility.yul\":4510:4511   */\n  0x00\n    /* \"#utility.yul\":4524:4732   */\ntag_87:\n    /* \"#utility.yul\":4538:4545   */\n  dup3\n    /* \"#utility.yul\":4535:4536   */\n  dup2\n    /* \"#utility.yul\":4532:4546   */\n  lt\n    /* \"#utility.yul\":4524:4732   */\n  iszero\n  tag_89\n  jumpi\n    /* \"#utility.yul\":4617:4626   */\n  dup5\n    /* \"#utility.yul\":4612:4615   */\n  dup10\n    /* \"#utility.yul\":4608:4627   */\n  add\n    /* \"#utility.yul\":4602:4628   */\n  mload\n    /* \"#utility.yul\":4594:4600   */\n  dup3\n    /* \"#utility.yul\":4587:4629   */\n  sstore\n    /* \"#utility.yul\":4668:4669   */\n  0x01\n    /* \"#utility.yul\":4660:4666   */\n  dup3\n    /* \"#utility.yul\":4656:4670   */\n  add\n    /* \"#utility.yul\":4646:4670   */\n  swap2\n  pop\n    /* \"#utility.yul\":4715:4717   */\n  0x20\n    /* \"#utility.yul\":4704:4713   */\n  dup6\n    /* \"#utility.yul\":4700:4718   */\n  add\n    /* \"#utility.yul\":4687:4718   */\n  swap5\n  pop\n    /* \"#utility.yul\":4561:4565   */\n  0x20\n    /* \"#utility.yul\":4558:4559   */\n  dup2\n    /* \"#utility.yul\":4554:4566   */\n  add\n    /* \"#utility.yul\":4549:4566   */\n  swap1\n  pop\n    /* \"#utility.yul\":4524:4732   */\n  jump(tag_87)\ntag_89:\n    /* \"#utility.yul\":4760:4766   */\n  dup7\n    /* \"#utility.yul\":4751:4758   */\n  dup4\n    /* \"#utility.yul\":4748:4767   */\n  lt\n    /* \"#utility.yul\":4745:4924   */\n  iszero\n  tag_90\n  jumpi\n    /* \"#utility.yul\":4818:4827   */\n  dup5\n    /* \"#utility.yul\":4813:4816   */\n  dup10\n    /* \"#utility.yul\":4809:4828   */\n  add\n    /* \"#utility.yul\":4803:4829   */\n  mload\n    /* \"#utility.yul\":4861:4909   */\n  tag_91\n    /* \"#utility.yul\":4903:4907   */\n  0x1f\n    /* \"#utility.yul\":4895:4901   */\n  dup10\n    /* \"#utility.yul\":4891:4908   */\n  and\n    /* \"#utility.yul\":4880:4889   */\n  dup3\n    /* \"#utility.yul\":4861:4909   */\n  tag_28\n  jump\t// in\ntag_91:\n    /* \"#utility.yul\":4853:4859   */\n  dup4\n    /* \"#utility.yul\":4846:4910   */\n  sstore\n    /* \"#utility.yul\":4768:4924   */\n  pop\n    /* \"#utility.yul\":4745:4924   */\ntag_90:\n    /* \"#utility.yul\":4970:4971   */\n  0x01\n    /* \"#utility.yul\":4966:4967   */\n  0x02\n    /* \"#utility.yul\":4958:4964   */\n  dup9\n    /* \"#utility.yul\":4954:4968   */\n  mul\n    /* \"#utility.yul\":4950:4972   */\n  add\n    /* \"#utility.yul\":4944:4948   */\n  dup9\n    /* \"#utility.yul\":4937:4973   */\n  sstore\n    /* \"#utility.yul\":4372:4983   */\n  pop\n  pop\n  pop\n    /* \"#utility.yul\":4335:5222   */\ntag_82:\n  pop\n    /* \"#utility.yul\":3925:5228   */\n  pop\n  pop\n  pop\n    /* \"#utility.yul\":3833:5228   */\n  pop\n  pop\n  jump\t// out\n    /* \"ProzacYouthUtils.sol\":57:4307  contract ProzacYouthUtils {... */\ntag_9:\n  dataSize(sub_0)\n  dup1\n  dataOffset(sub_0)\n  0x00\n  codecopy\n  0x00\n  return\nstop\n\nsub_0: assembly {\n        /* \"ProzacYouthUtils.sol\":57:4307  contract ProzacYouthUtils {... */\n      mstore(0x40, 0x80)\n      callvalue\n      dup1\n      iszero\n      tag_1\n      jumpi\n      0x00\n      dup1\n      revert\n    tag_1:\n      pop\n      jumpi(tag_2, lt(calldatasize, 0x04))\n      shr(0xe0, calldataload(0x00))\n      dup1\n      0x87a5b67c\n      gt\n      tag_17\n      jumpi\n      dup1\n      0xa9c598b9\n      gt\n      tag_18\n      jumpi\n      dup1\n      0xa9c598b9\n      eq\n      tag_13\n      jumpi\n      dup1\n      0xb0a69ab4\n      eq\n      tag_14\n      jumpi\n      dup1\n      0xb30906d4\n      eq\n      tag_15\n      jumpi\n      dup1\n      0xc41f0cac\n      eq\n      tag_16\n      jumpi\n      jump(tag_2)\n    tag_18:\n      dup1\n      0x87a5b67c\n      eq\n      tag_10\n      jumpi\n      dup1\n      0x8da5cb5b\n      eq\n      tag_11\n      jumpi\n      dup1\n      0xa84fd0ed\n      eq\n      tag_12\n      jumpi\n      jump(tag_2)\n    tag_17:\n      dup1\n      0x4b4fd03b\n      gt\n      tag_19\n      jumpi\n      dup1\n      0x4b4fd03b\n      eq\n      tag_6\n      jumpi\n      dup1\n      0x52baf08f\n      eq\n      tag_7\n      jumpi\n      dup1\n      0x57c8be66\n      eq\n      tag_8\n      jumpi\n      dup1\n      0x85e68531\n      eq\n      tag_9\n      jumpi\n      jump(tag_2)\n    tag_19:\n      dup1\n      0x0ae5e739\n      eq\n      tag_3\n      jumpi\n      dup1\n      0x12d491c9\n      eq\n      tag_4\n      jumpi\n      dup1\n      0x295a5212\n      eq\n      tag_5\n      jumpi\n    tag_2:\n      0x00\n      dup1\n      revert\n        /* \"ProzacYouthUtils.sol\":945:1047  function grantAccess(address _address) external onlyOwner {... */\n    tag_3:\n      tag_20\n      0x04\n      dup1\n      calldatasize\n      sub\n      dup2\n      add\n      swap1\n      tag_21\n      swap2\n      swap1\n      tag_22\n      jump\t// in\n    tag_21:\n      tag_23\n      jump\t// in\n    tag_20:\n      stop\n        /* \"ProzacYouthUtils.sol\":3700:3797  function getTotalEntries() external view returns (uint256) {... */\n    tag_4:\n      tag_24\n      tag_25\n      jump\t// in\n    tag_24:\n      mload(0x40)\n      tag_26\n      swap2\n      swap1\n      tag_27\n      jump\t// in\n    tag_26:\n      mload(0x40)\n      dup1\n      swap2\n      sub\n      swap1\n      return\n        /* \"ProzacYouthUtils.sol\":240:264  string public mode = \"0\" */\n    tag_5:\n      tag_28\n      tag_29\n      jump\t// in\n    tag_28:\n      mload(0x40)\n      tag_30\n      swap2\n      swap1\n      tag_31\n      jump\t// in\n    tag_30:\n      mload(0x40)\n      dup1\n      swap2\n      sub\n      swap1\n      return\n        /* \"ProzacYouthUtils.sol\":4137:4304  function getMode() public view returns (string memory) {... */\n    tag_6:\n      tag_32\n      tag_33\n      jump\t// in\n    tag_32:\n      mload(0x40)\n      tag_34\n      swap2\n      swap1\n      tag_31\n      jump\t// in\n    tag_34:\n      mload(0x40)\n      dup1\n      swap2\n      sub\n      swap1\n      return\n        /* \"ProzacYouthUtils.sol\":1709:1820  function setAndrewUrl(string memory _andrewUrl) external onlyAuthorized {... */\n    tag_7:\n      tag_35\n      0x04\n      dup1\n      calldatasize\n      sub\n      dup2\n      add\n      swap1\n      tag_36\n      swap2\n      swap1\n      tag_37\n      jump\t// in\n    tag_36:\n      tag_38\n      jump\t// in\n    tag_35:\n      stop\n        /* \"ProzacYouthUtils.sol\":1163:1469  function addEntry(... */\n    tag_8:\n      tag_39\n      0x04\n      dup1\n      calldatasize\n      sub\n      dup2\n      add\n      swap1\n      tag_40\n      swap2\n      swap1\n      tag_41\n      jump\t// in\n    tag_40:\n      tag_42\n      jump\t// in\n    tag_39:\n      stop\n        /* \"ProzacYouthUtils.sol\":1053:1157  function revokeAccess(address _address) external onlyOwner {... */\n    tag_9:\n      tag_43\n      0x04\n      dup1\n      calldatasize\n      sub\n      dup2\n      add\n      swap1\n      tag_44\n      swap2\n      swap1\n      tag_22\n      jump\t// in\n    tag_44:\n      tag_45\n      jump\t// in\n    tag_43:\n      stop\n        /* \"ProzacYouthUtils.sol\":298:340  mapping(address => bool) public accessList */\n    tag_10:\n      tag_46\n      0x04\n      dup1\n      calldatasize\n      sub\n      dup2\n      add\n      swap1\n      tag_47\n      swap2\n      swap1\n      tag_22\n      jump\t// in\n    tag_47:\n      tag_48\n      jump\t// in\n    tag_46:\n      mload(0x40)\n      tag_49\n      swap2\n      swap1\n      tag_50\n      jump\t// in\n    tag_49:\n      mload(0x40)\n      dup1\n      swap2\n      sub\n      swap1\n      return\n        /* \"ProzacYouthUtils.sol\":346:366  address public owner */\n    tag_11:\n      tag_51\n      tag_52\n      jump\t// in\n    tag_51:\n      mload(0x40)\n      tag_53\n      swap2\n      swap1\n      tag_54\n      jump\t// in\n    tag_53:\n      mload(0x40)\n      dup1\n      swap2\n      sub\n      swap1\n      return\n        /* \"ProzacYouthUtils.sol\":3804:4131  function setMode(string memory _mode) external onlyAuthorized {... */\n    tag_12:\n      tag_55\n      0x04\n      dup1\n      calldatasize\n      sub\n      dup2\n      add\n      swap1\n      tag_56\n      swap2\n      swap1\n      tag_37\n      jump\t// in\n    tag_56:\n      tag_57\n      jump\t// in\n    tag_55:\n      stop\n        /* \"ProzacYouthUtils.sol\":1580:1703  function setEtherscanUrl(string memory _etherscanUrl) external onlyAuthorized {... */\n    tag_13:\n      tag_58\n      0x04\n      dup1\n      calldatasize\n      sub\n      dup2\n      add\n      swap1\n      tag_59\n      swap2\n      swap1\n      tag_37\n      jump\t// in\n    tag_59:\n      tag_60\n      jump\t// in\n    tag_58:\n      stop\n        /* \"ProzacYouthUtils.sol\":1826:3694  function getEntriesHTML() external view returns (string memory) {... */\n    tag_14:\n      tag_61\n      tag_62\n      jump\t// in\n    tag_61:\n      mload(0x40)\n      tag_63\n      swap2\n      swap1\n      tag_31\n      jump\t// in\n    tag_63:\n      mload(0x40)\n      dup1\n      swap2\n      sub\n      swap1\n      return\n        /* \"ProzacYouthUtils.sol\":270:292  Entry[] public entries */\n    tag_15:\n      tag_64\n      0x04\n      dup1\n      calldatasize\n      sub\n      dup2\n      add\n      swap1\n      tag_65\n      swap2\n      swap1\n      tag_66\n      jump\t// in\n    tag_65:\n      tag_67\n      jump\t// in\n    tag_64:\n      mload(0x40)\n      tag_68\n      swap6\n      swap5\n      swap4\n      swap3\n      swap2\n      swap1\n      tag_69\n      jump\t// in\n    tag_68:\n      mload(0x40)\n      dup1\n      swap2\n      sub\n      swap1\n      return\n        /* \"ProzacYouthUtils.sol\":1475:1574  function setTjoUrl(string memory _tjoUrl) external onlyAuthorized {... */\n    tag_16:\n      tag_70\n      0x04\n      dup1\n      calldatasize\n      sub\n      dup2\n      add\n      swap1\n      tag_71\n      swap2\n      swap1\n      tag_37\n      jump\t// in\n    tag_71:\n      tag_72\n      jump\t// in\n    tag_70:\n      stop\n        /* \"ProzacYouthUtils.sol\":945:1047  function grantAccess(address _address) external onlyOwner {... */\n    tag_23:\n        /* \"ProzacYouthUtils.sol\":601:606  owner */\n      0x03\n      0x00\n      swap1\n      sload\n      swap1\n      0x0100\n      exp\n      swap1\n      div\n      0xffffffffffffffffffffffffffffffffffffffff\n      and\n        /* \"ProzacYouthUtils.sol\":587:606  msg.sender == owner */\n      0xffffffffffffffffffffffffffffffffffffffff\n      and\n        /* \"ProzacYouthUtils.sol\":587:597  msg.sender */\n      caller\n        /* \"ProzacYouthUtils.sol\":587:606  msg.sender == owner */\n      0xffffffffffffffffffffffffffffffffffffffff\n      and\n      eq\n        /* \"ProzacYouthUtils.sol\":579:624  require(msg.sender == owner, \"Not the owner\") */\n      tag_74\n      jumpi\n      mload(0x40)\n      0x08c379a000000000000000000000000000000000000000000000000000000000\n      dup2\n      mstore\n      0x04\n      add\n      tag_75\n      swap1\n      tag_76\n      jump\t// in\n    tag_75:\n      mload(0x40)\n      dup1\n      swap2\n      sub\n      swap1\n      revert\n    tag_74:\n        /* \"ProzacYouthUtils.sol\":1036:1040  true */\n      0x01\n        /* \"ProzacYouthUtils.sol\":1013:1023  accessList */\n      0x02\n        /* \"ProzacYouthUtils.sol\":1013:1033  accessList[_address] */\n      0x00\n        /* \"ProzacYouthUtils.sol\":1024:1032  _address */\n      dup4\n        /* \"ProzacYouthUtils.sol\":1013:1033  accessList[_address] */\n      0xffffffffffffffffffffffffffffffffffffffff\n      and\n      0xffffffffffffffffffffffffffffffffffffffff\n      and\n      dup2\n      mstore\n      0x20\n      add\n      swap1\n      dup2\n      mstore\n      0x20\n      add\n      0x00\n      keccak256\n      0x00\n        /* \"ProzacYouthUtils.sol\":1013:1040  accessList[_address] = true */\n      0x0100\n      exp\n      dup2\n      sload\n      dup2\n      0xff\n      mul\n      not\n      and\n      swap1\n      dup4\n      iszero\n      iszero\n      mul\n      or\n      swap1\n      sstore\n      pop\n        /* \"ProzacYouthUtils.sol\":945:1047  function grantAccess(address _address) external onlyOwner {... */\n      pop\n      jump\t// out\n        /* \"ProzacYouthUtils.sol\":3700:3797  function getTotalEntries() external view returns (uint256) {... */\n    tag_25:\n        /* \"ProzacYouthUtils.sol\":3750:3757  uint256 */\n      0x00\n        /* \"ProzacYouthUtils.sol\":3776:3783  entries */\n      0x01\n        /* \"ProzacYouthUtils.sol\":3776:3790  entries.length */\n      dup1\n      sload\n      swap1\n      pop\n        /* \"ProzacYouthUtils.sol\":3769:3790  return entries.length */\n      swap1\n      pop\n        /* \"ProzacYouthUtils.sol\":3700:3797  function getTotalEntries() external view returns (uint256) {... */\n      swap1\n      jump\t// out\n        /* \"ProzacYouthUtils.sol\":240:264  string public mode = \"0\" */\n    tag_29:\n      0x00\n      dup1\n      sload\n      tag_79\n      swap1\n      tag_80\n      jump\t// in\n    tag_79:\n      dup1\n      0x1f\n      add\n      0x20\n      dup1\n      swap2\n      div\n      mul\n      0x20\n      add\n      mload(0x40)\n      swap1\n      dup2\n      add\n      0x40\n      mstore\n      dup1\n      swap3\n      swap2\n      swap1\n      dup2\n      dup2\n      mstore\n      0x20\n      add\n      dup3\n      dup1\n      sload\n      tag_81\n      swap1\n      tag_80\n      jump\t// in\n    tag_81:\n      dup1\n      iszero\n      tag_82\n      jumpi\n      dup1\n      0x1f\n      lt\n      tag_83\n      jumpi\n      0x0100\n      dup1\n      dup4\n      sload\n      div\n      mul\n      dup4\n      mstore\n      swap2\n      0x20\n      add\n      swap2\n      jump(tag_82)\n    tag_83:\n      dup3\n      add\n      swap2\n      swap1\n      0x00\n      mstore\n      keccak256(0x00, 0x20)\n      swap1\n    tag_84:\n      dup2\n      sload\n      dup2\n      mstore\n      swap1\n      0x01\n      add\n      swap1\n      0x20\n      add\n      dup1\n      dup4\n      gt\n      tag_84\n      jumpi\n      dup3\n      swap1\n      sub\n      0x1f\n      and\n      dup3\n      add\n      swap2\n    tag_82:\n      pop\n      pop\n      pop\n      pop\n      pop\n      dup2\n      jump\t// out\n        /* \"ProzacYouthUtils.sol\":4137:4304  function getMode() public view returns (string memory) {... */\n    tag_33:\n        /* \"ProzacYouthUtils.sol\":4177:4190  string memory */\n      0x60\n        /* \"ProzacYouthUtils.sol\":4256:4277  abi.encodePacked(\"0\") */\n      add(0x20, mload(0x40))\n      tag_86\n      swap1\n      tag_87\n      jump\t// in\n    tag_86:\n      mload(0x40)\n      0x20\n      dup2\n      dup4\n      sub\n      sub\n      dup2\n      mstore\n      swap1\n      0x40\n      mstore\n        /* \"ProzacYouthUtils.sol\":4246:4278  keccak256(abi.encodePacked(\"0\")) */\n      dup1\n      mload\n      swap1\n      0x20\n      add\n      keccak256\n        /* \"ProzacYouthUtils.sol\":4236:4240  mode */\n      0x00\n        /* \"ProzacYouthUtils.sol\":4219:4241  abi.encodePacked(mode) */\n      add(0x20, mload(0x40))\n      tag_88\n      swap2\n      swap1\n      tag_89\n      jump\t// in\n    tag_88:\n      mload(0x40)\n      0x20\n      dup2\n      dup4\n      sub\n      sub\n      dup2\n      mstore\n      swap1\n      0x40\n      mstore\n        /* \"ProzacYouthUtils.sol\":4209:4242  keccak256(abi.encodePacked(mode)) */\n      dup1\n      mload\n      swap1\n      0x20\n      add\n      keccak256\n        /* \"ProzacYouthUtils.sol\":4209:4278  keccak256(abi.encodePacked(mode)) == keccak256(abi.encodePacked(\"0\")) */\n      eq\n        /* \"ProzacYouthUtils.sol\":4209:4297  keccak256(abi.encodePacked(mode)) == keccak256(abi.encodePacked(\"0\")) ? \"light\" : \"dark\" */\n      tag_90\n      jumpi\n      mload(0x40)\n      dup1\n      0x40\n      add\n      0x40\n      mstore\n      dup1\n      0x04\n      dup2\n      mstore\n      0x20\n      add\n      0x6461726b00000000000000000000000000000000000000000000000000000000\n      dup2\n      mstore\n      pop\n      jump(tag_91)\n    tag_90:\n      mload(0x40)\n      dup1\n      0x40\n      add\n      0x40\n      mstore\n      dup1\n      0x05\n      dup2\n      mstore\n      0x20\n      add\n      0x6c69676874000000000000000000000000000000000000000000000000000000\n      dup2\n      mstore\n      pop\n    tag_91:\n        /* \"ProzacYouthUtils.sol\":4202:4297  return keccak256(abi.encodePacked(mode)) == keccak256(abi.encodePacked(\"0\")) ? \"light\" : \"dark\" */\n      swap1\n      pop\n        /* \"ProzacYouthUtils.sol\":4137:4304  function getMode() public view returns (string memory) {... */\n      swap1\n      jump\t// out\n        /* \"ProzacYouthUtils.sol\":1709:1820  function setAndrewUrl(string memory _andrewUrl) external onlyAuthorized {... */\n    tag_38:\n        /* \"ProzacYouthUtils.sol\":706:711  owner */\n      0x03\n      0x00\n      swap1\n      sload\n      swap1\n      0x0100\n      exp\n      swap1\n      div\n      0xffffffffffffffffffffffffffffffffffffffff\n      and\n        /* \"ProzacYouthUtils.sol\":692:711  msg.sender == owner */\n      0xffffffffffffffffffffffffffffffffffffffff\n      and\n        /* \"ProzacYouthUtils.sol\":692:702  msg.sender */\n      caller\n        /* \"ProzacYouthUtils.sol\":692:711  msg.sender == owner */\n      0xffffffffffffffffffffffffffffffffffffffff\n      and\n      eq\n        /* \"ProzacYouthUtils.sol\":692:737  msg.sender == owner || accessList[msg.sender] */\n      dup1\n      tag_93\n      jumpi\n      pop\n        /* \"ProzacYouthUtils.sol\":715:725  accessList */\n      0x02\n        /* \"ProzacYouthUtils.sol\":715:737  accessList[msg.sender] */\n      0x00\n        /* \"ProzacYouthUtils.sol\":726:736  msg.sender */\n      caller\n        /* \"ProzacYouthUtils.sol\":715:737  accessList[msg.sender] */\n      0xffffffffffffffffffffffffffffffffffffffff\n      and\n      0xffffffffffffffffffffffffffffffffffffffff\n      and\n      dup2\n      mstore\n      0x20\n      add\n      swap1\n      dup2\n      mstore\n      0x20\n      add\n      0x00\n      keccak256\n      0x00\n      swap1\n      sload\n      swap1\n      0x0100\n      exp\n      swap1\n      div\n      0xff\n      and\n        /* \"ProzacYouthUtils.sol\":692:737  msg.sender == owner || accessList[msg.sender] */\n    tag_93:\n        /* \"ProzacYouthUtils.sol\":684:756  require(msg.sender == owner || accessList[msg.sender], \"Not authorized\") */\n      tag_94\n      jumpi\n      mload(0x40)\n      0x08c379a000000000000000000000000000000000000000000000000000000000\n      dup2\n      mstore\n      0x04\n      add\n      tag_95\n      swap1\n      tag_96\n      jump\t// in\n    tag_95:\n      mload(0x40)\n      dup1\n      swap2\n      sub\n      swap1\n      revert\n    tag_94:\n        /* \"ProzacYouthUtils.sol\":1803:1813  _andrewUrl */\n      dup1\n        /* \"ProzacYouthUtils.sol\":1791:1800  andrewUrl */\n      0x06\n        /* \"ProzacYouthUtils.sol\":1791:1813  andrewUrl = _andrewUrl */\n      swap1\n      dup2\n      tag_98\n      swap2\n      swap1\n      tag_99\n      jump\t// in\n    tag_98:\n      pop\n        /* \"ProzacYouthUtils.sol\":1709:1820  function setAndrewUrl(string memory _andrewUrl) external onlyAuthorized {... */\n      pop\n      jump\t// out\n        /* \"ProzacYouthUtils.sol\":1163:1469  function addEntry(... */\n    tag_42:\n        /* \"ProzacYouthUtils.sol\":706:711  owner */\n      0x03\n      0x00\n      swap1\n      sload\n      swap1\n      0x0100\n      exp\n      swap1\n      div\n      0xffffffffffffffffffffffffffffffffffffffff\n      and\n        /* \"ProzacYouthUtils.sol\":692:711  msg.sender == owner */\n      0xffffffffffffffffffffffffffffffffffffffff\n      and\n        /* \"ProzacYouthUtils.sol\":692:702  msg.sender */\n      caller\n        /* \"ProzacYouthUtils.sol\":692:711  msg.sender == owner */\n      0xffffffffffffffffffffffffffffffffffffffff\n      and\n      eq\n        /* \"ProzacYouthUtils.sol\":692:737  msg.sender == owner || accessList[msg.sender] */\n      dup1\n      tag_101\n      jumpi\n      pop\n        /* \"ProzacYouthUtils.sol\":715:725  accessList */\n      0x02\n        /* \"ProzacYouthUtils.sol\":715:737  accessList[msg.sender] */\n      0x00\n        /* \"ProzacYouthUtils.sol\":726:736  msg.sender */\n      caller\n        /* \"ProzacYouthUtils.sol\":715:737  accessList[msg.sender] */\n      0xffffffffffffffffffffffffffffffffffffffff\n      and\n      0xffffffffffffffffffffffffffffffffffffffff\n      and\n      dup2\n      mstore\n      0x20\n      add\n      swap1\n      dup2\n      mstore\n      0x20\n      add\n      0x00\n      keccak256\n      0x00\n      swap1\n      sload\n      swap1\n      0x0100\n      exp\n      swap1\n      div\n      0xff\n      and\n        /* \"ProzacYouthUtils.sol\":692:737  msg.sender == owner || accessList[msg.sender] */\n    tag_101:\n        /* \"ProzacYouthUtils.sol\":684:756  require(msg.sender == owner || accessList[msg.sender], \"Not authorized\") */\n      tag_102\n      jumpi\n      mload(0x40)\n      0x08c379a000000000000000000000000000000000000000000000000000000000\n      dup2\n      mstore\n      0x04\n      add\n      tag_103\n      swap1\n      tag_96\n      jump\t// in\n    tag_103:\n      mload(0x40)\n      dup1\n      swap2\n      sub\n      swap1\n      revert\n    tag_102:\n        /* \"ProzacYouthUtils.sol\":1387:1394  entries */\n      0x01\n        /* \"ProzacYouthUtils.sol\":1400:1461  Entry(_hash, _blockNumber, _timestamp, _text, _formattedTime) */\n      mload(0x40)\n      dup1\n      0xa0\n      add\n      0x40\n      mstore\n      dup1\n        /* \"ProzacYouthUtils.sol\":1406:1411  _hash */\n      dup8\n        /* \"ProzacYouthUtils.sol\":1400:1461  Entry(_hash, _blockNumber, _timestamp, _text, _formattedTime) */\n      dup2\n      mstore\n      0x20\n      add\n        /* \"ProzacYouthUtils.sol\":1413:1425  _blockNumber */\n      dup7\n        /* \"ProzacYouthUtils.sol\":1400:1461  Entry(_hash, _blockNumber, _timestamp, _text, _formattedTime) */\n      dup2\n      mstore\n      0x20\n      add\n        /* \"ProzacYouthUtils.sol\":1427:1437  _timestamp */\n      dup6\n        /* \"ProzacYouthUtils.sol\":1400:1461  Entry(_hash, _blockNumber, _timestamp, _text, _formattedTime) */\n      dup2\n      mstore\n      0x20\n      add\n        /* \"ProzacYouthUtils.sol\":1439:1444  _text */\n      dup5\n        /* \"ProzacYouthUtils.sol\":1400:1461  Entry(_hash, _blockNumber, _timestamp, _text, _formattedTime) */\n      dup2\n      mstore\n      0x20\n      add\n        /* \"ProzacYouthUtils.sol\":1446:1460  _formattedTime */\n      dup4\n        /* \"ProzacYouthUtils.sol\":1400:1461  Entry(_hash, _blockNumber, _timestamp, _text, _formattedTime) */\n      dup2\n      mstore\n      pop\n        /* \"ProzacYouthUtils.sol\":1387:1462  entries.push(Entry(_hash, _blockNumber, _timestamp, _text, _formattedTime)) */\n      swap1\n      dup1\n      0x01\n      dup2\n      sload\n      add\n      dup1\n      dup3\n      sstore\n      dup1\n      swap2\n      pop\n      pop\n      0x01\n      swap1\n      sub\n      swap1\n      0x00\n      mstore\n      keccak256(0x00, 0x20)\n      swap1\n      0x05\n      mul\n      add\n      0x00\n      swap1\n      swap2\n      swap1\n      swap2\n      swap1\n      swap2\n      pop\n      0x00\n      dup3\n      add\n      mload\n      dup2\n      0x00\n      add\n      swap1\n      dup2\n      tag_106\n      swap2\n      swap1\n      tag_99\n      jump\t// in\n    tag_106:\n      pop\n      0x20\n      dup3\n      add\n      mload\n      dup2\n      0x01\n      add\n      swap1\n      dup2\n      tag_107\n      swap2\n      swap1\n      tag_99\n      jump\t// in\n    tag_107:\n      pop\n      0x40\n      dup3\n      add\n      mload\n      dup2\n      0x02\n      add\n      swap1\n      dup2\n      tag_108\n      swap2\n      swap1\n      tag_99\n      jump\t// in\n    tag_108:\n      pop\n      0x60\n      dup3\n      add\n      mload\n      dup2\n      0x03\n      add\n      swap1\n      dup2\n      tag_109\n      swap2\n      swap1\n      tag_99\n      jump\t// in\n    tag_109:\n      pop\n      0x80\n      dup3\n      add\n      mload\n      dup2\n      0x04\n      add\n      swap1\n      dup2\n      tag_110\n      swap2\n      swap1\n      tag_99\n      jump\t// in\n    tag_110:\n      pop\n      pop\n      pop\n        /* \"ProzacYouthUtils.sol\":1163:1469  function addEntry(... */\n      pop\n      pop\n      pop\n      pop\n      pop\n      jump\t// out\n        /* \"ProzacYouthUtils.sol\":1053:1157  function revokeAccess(address _address) external onlyOwner {... */\n    tag_45:\n        /* \"ProzacYouthUtils.sol\":601:606  owner */\n      0x03\n      0x00\n      swap1\n      sload\n      swap1\n      0x0100\n      exp\n      swap1\n      div\n      0xffffffffffffffffffffffffffffffffffffffff\n      and\n        /* \"ProzacYouthUtils.sol\":587:606  msg.sender == owner */\n      0xffffffffffffffffffffffffffffffffffffffff\n      and\n        /* \"ProzacYouthUtils.sol\":587:597  msg.sender */\n      caller\n        /* \"ProzacYouthUtils.sol\":587:606  msg.sender == owner */\n      0xffffffffffffffffffffffffffffffffffffffff\n      and\n      eq\n        /* \"ProzacYouthUtils.sol\":579:624  require(msg.sender == owner, \"Not the owner\") */\n      tag_112\n      jumpi\n      mload(0x40)\n      0x08c379a000000000000000000000000000000000000000000000000000000000\n      dup2\n      mstore\n      0x04\n      add\n      tag_113\n      swap1\n      tag_76\n      jump\t// in\n    tag_113:\n      mload(0x40)\n      dup1\n      swap2\n      sub\n      swap1\n      revert\n    tag_112:\n        /* \"ProzacYouthUtils.sol\":1145:1150  false */\n      0x00\n        /* \"ProzacYouthUtils.sol\":1122:1132  accessList */\n      0x02\n        /* \"ProzacYouthUtils.sol\":1122:1142  accessList[_address] */\n      0x00\n        /* \"ProzacYouthUtils.sol\":1133:1141  _address */\n      dup4\n        /* \"ProzacYouthUtils.sol\":1122:1142  accessList[_address] */\n      0xffffffffffffffffffffffffffffffffffffffff\n      and\n      0xffffffffffffffffffffffffffffffffffffffff\n      and\n      dup2\n      mstore\n      0x20\n      add\n      swap1\n      dup2\n      mstore\n      0x20\n      add\n      0x00\n      keccak256\n      0x00\n        /* \"ProzacYouthUtils.sol\":1122:1150  accessList[_address] = false */\n      0x0100\n      exp\n      dup2\n      sload\n      dup2\n      0xff\n      mul\n      not\n      and\n      swap1\n      dup4\n      iszero\n      iszero\n      mul\n      or\n      swap1\n      sstore\n      pop\n        /* \"ProzacYouthUtils.sol\":1053:1157  function revokeAccess(address _address) external onlyOwner {... */\n      pop\n      jump\t// out\n        /* \"ProzacYouthUtils.sol\":298:340  mapping(address => bool) public accessList */\n    tag_48:\n      mstore(0x20, 0x02)\n      dup1\n      0x00\n      mstore\n      keccak256(0x00, 0x40)\n      0x00\n      swap2\n      pop\n      sload\n      swap1\n      0x0100\n      exp\n      swap1\n      div\n      0xff\n      and\n      dup2\n      jump\t// out\n        /* \"ProzacYouthUtils.sol\":346:366  address public owner */\n    tag_52:\n      0x03\n      0x00\n      swap1\n      sload\n      swap1\n      0x0100\n      exp\n      swap1\n      div\n      0xffffffffffffffffffffffffffffffffffffffff\n      and\n      dup2\n      jump\t// out\n        /* \"ProzacYouthUtils.sol\":3804:4131  function setMode(string memory _mode) external onlyAuthorized {... */\n    tag_57:\n        /* \"ProzacYouthUtils.sol\":706:711  owner */\n      0x03\n      0x00\n      swap1\n      sload\n      swap1\n      0x0100\n      exp\n      swap1\n      div\n      0xffffffffffffffffffffffffffffffffffffffff\n      and\n        /* \"ProzacYouthUtils.sol\":692:711  msg.sender == owner */\n      0xffffffffffffffffffffffffffffffffffffffff\n      and\n        /* \"ProzacYouthUtils.sol\":692:702  msg.sender */\n      caller\n        /* \"ProzacYouthUtils.sol\":692:711  msg.sender == owner */\n      0xffffffffffffffffffffffffffffffffffffffff\n      and\n      eq\n        /* \"ProzacYouthUtils.sol\":692:737  msg.sender == owner || accessList[msg.sender] */\n      dup1\n      tag_116\n      jumpi\n      pop\n        /* \"ProzacYouthUtils.sol\":715:725  accessList */\n      0x02\n        /* \"ProzacYouthUtils.sol\":715:737  accessList[msg.sender] */\n      0x00\n        /* \"ProzacYouthUtils.sol\":726:736  msg.sender */\n      caller\n        /* \"ProzacYouthUtils.sol\":715:737  accessList[msg.sender] */\n      0xffffffffffffffffffffffffffffffffffffffff\n      and\n      0xffffffffffffffffffffffffffffffffffffffff\n      and\n      dup2\n      mstore\n      0x20\n      add\n      swap1\n      dup2\n      mstore\n      0x20\n      add\n      0x00\n      keccak256\n      0x00\n      swap1\n      sload\n      swap1\n      0x0100\n      exp\n      swap1\n      div\n      0xff\n      and\n        /* \"ProzacYouthUtils.sol\":692:737  msg.sender == owner || accessList[msg.sender] */\n    tag_116:\n        /* \"ProzacYouthUtils.sol\":684:756  require(msg.sender == owner || accessList[msg.sender], \"Not authorized\") */\n      tag_117\n      jumpi\n      mload(0x40)\n      0x08c379a000000000000000000000000000000000000000000000000000000000\n      dup2\n      mstore\n      0x04\n      add\n      tag_118\n      swap1\n      tag_96\n      jump\t// in\n    tag_118:\n      mload(0x40)\n      dup1\n      swap2\n      sub\n      swap1\n      revert\n    tag_117:\n        /* \"ProzacYouthUtils.sol\":3945:3966  abi.encodePacked(\"0\") */\n      add(0x20, mload(0x40))\n      tag_120\n      swap1\n      tag_87\n      jump\t// in\n    tag_120:\n      mload(0x40)\n      0x20\n      dup2\n      dup4\n      sub\n      sub\n      dup2\n      mstore\n      swap1\n      0x40\n      mstore\n        /* \"ProzacYouthUtils.sol\":3935:3967  keccak256(abi.encodePacked(\"0\")) */\n      dup1\n      mload\n      swap1\n      0x20\n      add\n      keccak256\n        /* \"ProzacYouthUtils.sol\":3924:3929  _mode */\n      dup2\n        /* \"ProzacYouthUtils.sol\":3907:3930  abi.encodePacked(_mode) */\n      add(0x20, mload(0x40))\n      tag_121\n      swap2\n      swap1\n      tag_122\n      jump\t// in\n    tag_121:\n      mload(0x40)\n      0x20\n      dup2\n      dup4\n      sub\n      sub\n      dup2\n      mstore\n      swap1\n      0x40\n      mstore\n        /* \"ProzacYouthUtils.sol\":3897:3931  keccak256(abi.encodePacked(_mode)) */\n      dup1\n      mload\n      swap1\n      0x20\n      add\n      keccak256\n        /* \"ProzacYouthUtils.sol\":3897:3967  keccak256(abi.encodePacked(_mode)) == keccak256(abi.encodePacked(\"0\")) */\n      eq\n        /* \"ProzacYouthUtils.sol\":3897:4053  keccak256(abi.encodePacked(_mode)) == keccak256(abi.encodePacked(\"0\")) ||... */\n      dup1\n      tag_123\n      jumpi\n      pop\n        /* \"ProzacYouthUtils.sol\":4031:4052  abi.encodePacked(\"1\") */\n      add(0x20, mload(0x40))\n      tag_124\n      swap1\n      tag_125\n      jump\t// in\n    tag_124:\n      mload(0x40)\n      0x20\n      dup2\n      dup4\n      sub\n      sub\n      dup2\n      mstore\n      swap1\n      0x40\n      mstore\n        /* \"ProzacYouthUtils.sol\":4021:4053  keccak256(abi.encodePacked(\"1\")) */\n      dup1\n      mload\n      swap1\n      0x20\n      add\n      keccak256\n        /* \"ProzacYouthUtils.sol\":4010:4015  _mode */\n      dup2\n        /* \"ProzacYouthUtils.sol\":3993:4016  abi.encodePacked(_mode) */\n      add(0x20, mload(0x40))\n      tag_126\n      swap2\n      swap1\n      tag_122\n      jump\t// in\n    tag_126:\n      mload(0x40)\n      0x20\n      dup2\n      dup4\n      sub\n      sub\n      dup2\n      mstore\n      swap1\n      0x40\n      mstore\n        /* \"ProzacYouthUtils.sol\":3983:4017  keccak256(abi.encodePacked(_mode)) */\n      dup1\n      mload\n      swap1\n      0x20\n      add\n      keccak256\n        /* \"ProzacYouthUtils.sol\":3983:4053  keccak256(abi.encodePacked(_mode)) == keccak256(abi.encodePacked(\"1\")) */\n      eq\n        /* \"ProzacYouthUtils.sol\":3897:4053  keccak256(abi.encodePacked(_mode)) == keccak256(abi.encodePacked(\"0\")) ||... */\n    tag_123:\n        /* \"ProzacYouthUtils.sol\":3876:4102  require(... */\n      tag_127\n      jumpi\n      mload(0x40)\n      0x08c379a000000000000000000000000000000000000000000000000000000000\n      dup2\n      mstore\n      0x04\n      add\n      tag_128\n      swap1\n      tag_129\n      jump\t// in\n    tag_128:\n      mload(0x40)\n      dup1\n      swap2\n      sub\n      swap1\n      revert\n    tag_127:\n        /* \"ProzacYouthUtils.sol\":4119:4124  _mode */\n      dup1\n        /* \"ProzacYouthUtils.sol\":4112:4116  mode */\n      0x00\n        /* \"ProzacYouthUtils.sol\":4112:4124  mode = _mode */\n      swap1\n      dup2\n      tag_130\n      swap2\n      swap1\n      tag_99\n      jump\t// in\n    tag_130:\n      pop\n        /* \"ProzacYouthUtils.sol\":3804:4131  function setMode(string memory _mode) external onlyAuthorized {... */\n      pop\n      jump\t// out\n        /* \"ProzacYouthUtils.sol\":1580:1703  function setEtherscanUrl(string memory _etherscanUrl) external onlyAuthorized {... */\n    tag_60:\n        /* \"ProzacYouthUtils.sol\":706:711  owner */\n      0x03\n      0x00\n      swap1\n      sload\n      swap1\n      0x0100\n      exp\n      swap1\n      div\n      0xffffffffffffffffffffffffffffffffffffffff\n      and\n        /* \"ProzacYouthUtils.sol\":692:711  msg.sender == owner */\n      0xffffffffffffffffffffffffffffffffffffffff\n      and\n        /* \"ProzacYouthUtils.sol\":692:702  msg.sender */\n      caller\n        /* \"ProzacYouthUtils.sol\":692:711  msg.sender == owner */\n      0xffffffffffffffffffffffffffffffffffffffff\n      and\n      eq\n        /* \"ProzacYouthUtils.sol\":692:737  msg.sender == owner || accessList[msg.sender] */\n      dup1\n      tag_132\n      jumpi\n      pop\n        /* \"ProzacYouthUtils.sol\":715:725  accessList */\n      0x02\n        /* \"ProzacYouthUtils.sol\":715:737  accessList[msg.sender] */\n      0x00\n        /* \"ProzacYouthUtils.sol\":726:736  msg.sender */\n      caller\n        /* \"ProzacYouthUtils.sol\":715:737  accessList[msg.sender] */\n      0xffffffffffffffffffffffffffffffffffffffff\n      and\n      0xffffffffffffffffffffffffffffffffffffffff\n      and\n      dup2\n      mstore\n      0x20\n      add\n      swap1\n      dup2\n      mstore\n      0x20\n      add\n      0x00\n      keccak256\n      0x00\n      swap1\n      sload\n      swap1\n      0x0100\n      exp\n      swap1\n      div\n      0xff\n      and\n        /* \"ProzacYouthUtils.sol\":692:737  msg.sender == owner || accessList[msg.sender] */\n    tag_132:\n        /* \"ProzacYouthUtils.sol\":684:756  require(msg.sender == owner || accessList[msg.sender], \"Not authorized\") */\n      tag_133\n      jumpi\n      mload(0x40)\n      0x08c379a000000000000000000000000000000000000000000000000000000000\n      dup2\n      mstore\n      0x04\n      add\n      tag_134\n      swap1\n      tag_96\n      jump\t// in\n    tag_134:\n      mload(0x40)\n      dup1\n      swap2\n      sub\n      swap1\n      revert\n    tag_133:\n        /* \"ProzacYouthUtils.sol\":1683:1696  _etherscanUrl */\n      dup1\n        /* \"ProzacYouthUtils.sol\":1668:1680  etherscanUrl */\n      0x05\n        /* \"ProzacYouthUtils.sol\":1668:1696  etherscanUrl = _etherscanUrl */\n      swap1\n      dup2\n      tag_136\n      swap2\n      swap1\n      tag_99\n      jump\t// in\n    tag_136:\n      pop\n        /* \"ProzacYouthUtils.sol\":1580:1703  function setEtherscanUrl(string memory _etherscanUrl) external onlyAuthorized {... */\n      pop\n      jump\t// out\n        /* \"ProzacYouthUtils.sol\":1826:3694  function getEntriesHTML() external view returns (string memory) {... */\n    tag_62:\n        /* \"ProzacYouthUtils.sol\":1875:1888  string memory */\n      0x60\n        /* \"ProzacYouthUtils.sol\":1900:1918  string memory html */\n      dup1\n        /* \"ProzacYouthUtils.sol\":1934:1943  uint256 i */\n      0x00\n        /* \"ProzacYouthUtils.sol\":1929:3666  for (uint256 i = 0; i < entries.length; i++) {... */\n    tag_138:\n        /* \"ProzacYouthUtils.sol\":1953:1960  entries */\n      0x01\n        /* \"ProzacYouthUtils.sol\":1953:1967  entries.length */\n      dup1\n      sload\n      swap1\n      pop\n        /* \"ProzacYouthUtils.sol\":1949:1950  i */\n      dup2\n        /* \"ProzacYouthUtils.sol\":1949:1967  i < entries.length */\n      lt\n        /* \"ProzacYouthUtils.sol\":1929:3666  for (uint256 i = 0; i < entries.length; i++) {... */\n      iszero\n      tag_139\n      jumpi\n        /* \"ProzacYouthUtils.sol\":2036:2040  html */\n      dup2\n        /* \"ProzacYouthUtils.sol\":2325:2331  tjoUrl */\n      0x04\n        /* \"ProzacYouthUtils.sol\":2689:2701  etherscanUrl */\n      0x05\n        /* \"ProzacYouthUtils.sol\":2719:2726  entries */\n      0x01\n        /* \"ProzacYouthUtils.sol\":2727:2728  i */\n      dup5\n        /* \"ProzacYouthUtils.sol\":2719:2729  entries[i] */\n      dup2\n      sload\n      dup2\n      lt\n      tag_141\n      jumpi\n      tag_142\n      tag_143\n      jump\t// in\n    tag_142:\n    tag_141:\n      swap1\n      0x00\n      mstore\n      keccak256(0x00, 0x20)\n      swap1\n      0x05\n      mul\n      add\n        /* \"ProzacYouthUtils.sol\":2719:2734  entries[i].hash */\n      0x00\n      add\n        /* \"ProzacYouthUtils.sol\":2828:2835  entries */\n      0x01\n        /* \"ProzacYouthUtils.sol\":2836:2837  i */\n      dup6\n        /* \"ProzacYouthUtils.sol\":2828:2838  entries[i] */\n      dup2\n      sload\n      dup2\n      lt\n      tag_145\n      jumpi\n      tag_146\n      tag_143\n      jump\t// in\n    tag_146:\n    tag_145:\n      swap1\n      0x00\n      mstore\n      keccak256(0x00, 0x20)\n      swap1\n      0x05\n      mul\n      add\n        /* \"ProzacYouthUtils.sol\":2828:2852  entries[i].formattedTime */\n      0x04\n      add\n        /* \"ProzacYouthUtils.sol\":3136:3143  entries */\n      0x01\n        /* \"ProzacYouthUtils.sol\":3144:3145  i */\n      dup7\n        /* \"ProzacYouthUtils.sol\":3136:3146  entries[i] */\n      dup2\n      sload\n      dup2\n      lt\n      tag_148\n      jumpi\n      tag_149\n      tag_143\n      jump\t// in\n    tag_149:\n    tag_148:\n      swap1\n      0x00\n      mstore\n      keccak256(0x00, 0x20)\n      swap1\n      0x05\n      mul\n      add\n        /* \"ProzacYouthUtils.sol\":3136:3158  entries[i].blockNumber */\n      0x01\n      add\n        /* \"ProzacYouthUtils.sol\":3569:3576  entries */\n      0x01\n        /* \"ProzacYouthUtils.sol\":3577:3578  i */\n      dup8\n        /* \"ProzacYouthUtils.sol\":3569:3579  entries[i] */\n      dup2\n      sload\n      dup2\n      lt\n      tag_151\n      jumpi\n      tag_152\n      tag_143\n      jump\t// in\n    tag_152:\n    tag_151:\n      swap1\n      0x00\n      mstore\n      keccak256(0x00, 0x20)\n      swap1\n      0x05\n      mul\n      add\n        /* \"ProzacYouthUtils.sol\":3569:3584  entries[i].text */\n      0x03\n      add\n        /* \"ProzacYouthUtils.sol\":2002:3654  abi.encodePacked(... */\n      add(0x20, mload(0x40))\n      tag_154\n      swap8\n      swap7\n      swap6\n      swap5\n      swap4\n      swap3\n      swap2\n      swap1\n      tag_155\n      jump\t// in\n    tag_154:\n      mload(0x40)\n      0x20\n      dup2\n      dup4\n      sub\n      sub\n      dup2\n      mstore\n      swap1\n      0x40\n      mstore\n        /* \"ProzacYouthUtils.sol\":1988:3655  html = string(abi.encodePacked(... */\n      swap2\n      pop\n        /* \"ProzacYouthUtils.sol\":1969:1972  i++ */\n      dup1\n      dup1\n      0x01\n      add\n      swap2\n      pop\n      pop\n        /* \"ProzacYouthUtils.sol\":1929:3666  for (uint256 i = 0; i < entries.length; i++) {... */\n      jump(tag_138)\n    tag_139:\n      pop\n        /* \"ProzacYouthUtils.sol\":3683:3687  html */\n      dup1\n        /* \"ProzacYouthUtils.sol\":3676:3687  return html */\n      swap2\n      pop\n      pop\n        /* \"ProzacYouthUtils.sol\":1826:3694  function getEntriesHTML() external view returns (string memory) {... */\n      swap1\n      jump\t// out\n        /* \"ProzacYouthUtils.sol\":270:292  Entry[] public entries */\n    tag_67:\n      0x01\n      dup2\n      dup2\n      sload\n      dup2\n      lt\n      tag_156\n      jumpi\n      0x00\n      dup1\n      revert\n    tag_156:\n      swap1\n      0x00\n      mstore\n      keccak256(0x00, 0x20)\n      swap1\n      0x05\n      mul\n      add\n      0x00\n      swap2\n      pop\n      swap1\n      pop\n      dup1\n      0x00\n      add\n      dup1\n      sload\n      tag_158\n      swap1\n      tag_80\n      jump\t// in\n    tag_158:\n      dup1\n      0x1f\n      add\n      0x20\n      dup1\n      swap2\n      div\n      mul\n      0x20\n      add\n      mload(0x40)\n      swap1\n      dup2\n      add\n      0x40\n      mstore\n      dup1\n      swap3\n      swap2\n      swap1\n      dup2\n      dup2\n      mstore\n      0x20\n      add\n      dup3\n      dup1\n      sload\n      tag_159\n      swap1\n      tag_80\n      jump\t// in\n    tag_159:\n      dup1\n      iszero\n      tag_160\n      jumpi\n      dup1\n      0x1f\n      lt\n      tag_161\n      jumpi\n      0x0100\n      dup1\n      dup4\n      sload\n      div\n      mul\n      dup4\n      mstore\n      swap2\n      0x20\n      add\n      swap2\n      jump(tag_160)\n    tag_161:\n      dup3\n      add\n      swap2\n      swap1\n      0x00\n      mstore\n      keccak256(0x00, 0x20)\n      swap1\n    tag_162:\n      dup2\n      sload\n      dup2\n      mstore\n      swap1\n      0x01\n      add\n      swap1\n      0x20\n      add\n      dup1\n      dup4\n      gt\n      tag_162\n      jumpi\n      dup3\n      swap1\n      sub\n      0x1f\n      and\n      dup3\n      add\n      swap2\n    tag_160:\n      pop\n      pop\n      pop\n      pop\n      pop\n      swap1\n      dup1\n      0x01\n      add\n      dup1\n      sload\n      tag_163\n      swap1\n      tag_80\n      jump\t// in\n    tag_163:\n      dup1\n      0x1f\n      add\n      0x20\n      dup1\n      swap2\n      div\n      mul\n      0x20\n      add\n      mload(0x40)\n      swap1\n      dup2\n      add\n      0x40\n      mstore\n      dup1\n      swap3\n      swap2\n      swap1\n      dup2\n      dup2\n      mstore\n      0x20\n      add\n      dup3\n      dup1\n      sload\n      tag_164\n      swap1\n      tag_80\n      jump\t// in\n    tag_164:\n      dup1\n      iszero\n      tag_165\n      jumpi\n      dup1\n      0x1f\n      lt\n      tag_166\n      jumpi\n      0x0100\n      dup1\n      dup4\n      sload\n      div\n      mul\n      dup4\n      mstore\n      swap2\n      0x20\n      add\n      swap2\n      jump(tag_165)\n    tag_166:\n      dup3\n      add\n      swap2\n      swap1\n      0x00\n      mstore\n      keccak256(0x00, 0x20)\n      swap1\n    tag_167:\n      dup2\n      sload\n      dup2\n      mstore\n      swap1\n      0x01\n      add\n      swap1\n      0x20\n      add\n      dup1\n      dup4\n      gt\n      tag_167\n      jumpi\n      dup3\n      swap1\n      sub\n      0x1f\n      and\n      dup3\n      add\n      swap2\n    tag_165:\n      pop\n      pop\n      pop\n      pop\n      pop\n      swap1\n      dup1\n      0x02\n      add\n      dup1\n      sload\n      tag_168\n      swap1\n      tag_80\n      jump\t// in\n    tag_168:\n      dup1\n      0x1f\n      add\n      0x20\n      dup1\n      swap2\n      div\n      mul\n      0x20\n      add\n      mload(0x40)\n      swap1\n      dup2\n      add\n      0x40\n      mstore\n      dup1\n      swap3\n      swap2\n      swap1\n      dup2\n      dup2\n      mstore\n      0x20\n      add\n      dup3\n      dup1\n      sload\n      tag_169\n      swap1\n      tag_80\n      jump\t// in\n    tag_169:\n      dup1\n      iszero\n      tag_170\n      jumpi\n      dup1\n      0x1f\n      lt\n      tag_171\n      jumpi\n      0x0100\n      dup1\n      dup4\n      sload\n      div\n      mul\n      dup4\n      mstore\n      swap2\n      0x20\n      add\n      swap2\n      jump(tag_170)\n    tag_171:\n      dup3\n      add\n      swap2\n      swap1\n      0x00\n      mstore\n      keccak256(0x00, 0x20)\n      swap1\n    tag_172:\n      dup2\n      sload\n      dup2\n      mstore\n      swap1\n      0x01\n      add\n      swap1\n      0x20\n      add\n      dup1\n      dup4\n      gt\n      tag_172\n      jumpi\n      dup3\n      swap1\n      sub\n      0x1f\n      and\n      dup3\n      add\n      swap2\n    tag_170:\n      pop\n      pop\n      pop\n      pop\n      pop\n      swap1\n      dup1\n      0x03\n      add\n      dup1\n      sload\n      tag_173\n      swap1\n      tag_80\n      jump\t// in\n    tag_173:\n      dup1\n      0x1f\n      add\n      0x20\n      dup1\n      swap2\n      div\n      mul\n      0x20\n      add\n      mload(0x40)\n      swap1\n      dup2\n      add\n      0x40\n      mstore\n      dup1\n      swap3\n      swap2\n      swap1\n      dup2\n      dup2\n      mstore\n      0x20\n      add\n      dup3\n      dup1\n      sload\n      tag_174\n      swap1\n      tag_80\n      jump\t// in\n    tag_174:\n      dup1\n      iszero\n      tag_175\n      jumpi\n      dup1\n      0x1f\n      lt\n      tag_176\n      jumpi\n      0x0100\n      dup1\n      dup4\n      sload\n      div\n      mul\n      dup4\n      mstore\n      swap2\n      0x20\n      add\n      swap2\n      jump(tag_175)\n    tag_176:\n      dup3\n      add\n      swap2\n      swap1\n      0x00\n      mstore\n      keccak256(0x00, 0x20)\n      swap1\n    tag_177:\n      dup2\n      sload\n      dup2\n      mstore\n      swap1\n      0x01\n      add\n      swap1\n      0x20\n      add\n      dup1\n      dup4\n      gt\n      tag_177\n      jumpi\n      dup3\n      swap1\n      sub\n      0x1f\n      and\n      dup3\n      add\n      swap2\n    tag_175:\n      pop\n      pop\n      pop\n      pop\n      pop\n      swap1\n      dup1\n      0x04\n      add\n      dup1\n      sload\n      tag_178\n      swap1\n      tag_80\n      jump\t// in\n    tag_178:\n      dup1\n      0x1f\n      add\n      0x20\n      dup1\n      swap2\n      div\n      mul\n      0x20\n      add\n      mload(0x40)\n      swap1\n      dup2\n      add\n      0x40\n      mstore\n      dup1\n      swap3\n      swap2\n      swap1\n      dup2\n      dup2\n      mstore\n      0x20\n      add\n      dup3\n      dup1\n      sload\n      tag_179\n      swap1\n      tag_80\n      jump\t// in\n    tag_179:\n      dup1\n      iszero\n      tag_180\n      jumpi\n      dup1\n      0x1f\n      lt\n      tag_181\n      jumpi\n      0x0100\n      dup1\n      dup4\n      sload\n      div\n      mul\n      dup4\n      mstore\n      swap2\n      0x20\n      add\n      swap2\n      jump(tag_180)\n    tag_181:\n      dup3\n      add\n      swap2\n      swap1\n      0x00\n      mstore\n      keccak256(0x00, 0x20)\n      swap1\n    tag_182:\n      dup2\n      sload\n      dup2\n      mstore\n      swap1\n      0x01\n      add\n      swap1\n      0x20\n      add\n      dup1\n      dup4\n      gt\n      tag_182\n      jumpi\n      dup3\n      swap1\n      sub\n      0x1f\n      and\n      dup3\n      add\n      swap2\n    tag_180:\n      pop\n      pop\n      pop\n      pop\n      pop\n      swap1\n      pop\n      dup6\n      jump\t// out\n        /* \"ProzacYouthUtils.sol\":1475:1574  function setTjoUrl(string memory _tjoUrl) external onlyAuthorized {... */\n    tag_72:\n        /* \"ProzacYouthUtils.sol\":706:711  owner */\n      0x03\n      0x00\n      swap1\n      sload\n      swap1\n      0x0100\n      exp\n      swap1\n      div\n      0xffffffffffffffffffffffffffffffffffffffff\n      and\n        /* \"ProzacYouthUtils.sol\":692:711  msg.sender == owner */\n      0xffffffffffffffffffffffffffffffffffffffff\n      and\n        /* \"ProzacYouthUtils.sol\":692:702  msg.sender */\n      caller\n        /* \"ProzacYouthUtils.sol\":692:711  msg.sender == owner */\n      0xffffffffffffffffffffffffffffffffffffffff\n      and\n      eq\n        /* \"ProzacYouthUtils.sol\":692:737  msg.sender == owner || accessList[msg.sender] */\n      dup1\n      tag_184\n      jumpi\n      pop\n        /* \"ProzacYouthUtils.sol\":715:725  accessList */\n      0x02\n        /* \"ProzacYouthUtils.sol\":715:737  accessList[msg.sender] */\n      0x00\n        /* \"ProzacYouthUtils.sol\":726:736  msg.sender */\n      caller\n        /* \"ProzacYouthUtils.sol\":715:737  accessList[msg.sender] */\n      0xffffffffffffffffffffffffffffffffffffffff\n      and\n      0xffffffffffffffffffffffffffffffffffffffff\n      and\n      dup2\n      mstore\n      0x20\n      add\n      swap1\n      dup2\n      mstore\n      0x20\n      add\n      0x00\n      keccak256\n      0x00\n      swap1\n      sload\n      swap1\n      0x0100\n      exp\n      swap1\n      div\n      0xff\n      and\n        /* \"ProzacYouthUtils.sol\":692:737  msg.sender == owner || accessList[msg.sender] */\n    tag_184:\n        /* \"ProzacYouthUtils.sol\":684:756  require(msg.sender == owner || accessList[msg.sender], \"Not authorized\") */\n      tag_185\n      jumpi\n      mload(0x40)\n      0x08c379a000000000000000000000000000000000000000000000000000000000\n      dup2\n      mstore\n      0x04\n      add\n      tag_186\n      swap1\n      tag_96\n      jump\t// in\n    tag_186:\n      mload(0x40)\n      dup1\n      swap2\n      sub\n      swap1\n      revert\n    tag_185:\n        /* \"ProzacYouthUtils.sol\":1560:1567  _tjoUrl */\n      dup1\n        /* \"ProzacYouthUtils.sol\":1551:1557  tjoUrl */\n      0x04\n        /* \"ProzacYouthUtils.sol\":1551:1567  tjoUrl = _tjoUrl */\n      swap1\n      dup2\n      tag_188\n      swap2\n      swap1\n      tag_99\n      jump\t// in\n    tag_188:\n      pop\n        /* \"ProzacYouthUtils.sol\":1475:1574  function setTjoUrl(string memory _tjoUrl) external onlyAuthorized {... */\n      pop\n      jump\t// out\n        /* \"#utility.yul\":7:82   */\n    tag_189:\n        /* \"#utility.yul\":40:46   */\n      0x00\n        /* \"#utility.yul\":73:75   */\n      0x40\n        /* \"#utility.yul\":67:76   */\n      mload\n        /* \"#utility.yul\":57:76   */\n      swap1\n      pop\n        /* \"#utility.yul\":7:82   */\n      swap1\n      jump\t// out\n        /* \"#utility.yul\":88:205   */\n    tag_190:\n        /* \"#utility.yul\":197:198   */\n      0x00\n        /* \"#utility.yul\":194:195   */\n      dup1\n        /* \"#utility.yul\":187:199   */\n      revert\n        /* \"#utility.yul\":211:328   */\n    tag_191:\n        /* \"#utility.yul\":320:321   */\n      0x00\n        /* \"#utility.yul\":317:318   */\n      dup1\n        /* \"#utility.yul\":310:322   */\n      revert\n        /* \"#utility.yul\":334:460   */\n    tag_192:\n        /* \"#utility.yul\":371:378   */\n      0x00\n        /* \"#utility.yul\":411:453   */\n      0xffffffffffffffffffffffffffffffffffffffff\n        /* \"#utility.yul\":404:409   */\n      dup3\n        /* \"#utility.yul\":400:454   */\n      and\n        /* \"#utility.yul\":389:454   */\n      swap1\n      pop\n        /* \"#utility.yul\":334:460   */\n      swap2\n      swap1\n      pop\n      jump\t// out\n        /* \"#utility.yul\":466:562   */\n    tag_193:\n        /* \"#utility.yul\":503:510   */\n      0x00\n        /* \"#utility.yul\":532:556   */\n      tag_294\n        /* \"#utility.yul\":550:555   */\n      dup3\n        /* \"#utility.yul\":532:556   */\n      tag_192\n      jump\t// in\n    tag_294:\n        /* \"#utility.yul\":521:556   */\n      swap1\n      pop\n        /* \"#utility.yul\":466:562   */\n      swap2\n      swap1\n      pop\n      jump\t// out\n        /* \"#utility.yul\":568:690   */\n    tag_194:\n        /* \"#utility.yul\":641:665   */\n      tag_296\n        /* \"#utility.yul\":659:664   */\n      dup2\n        /* \"#utility.yul\":641:665   */\n      tag_193\n      jump\t// in\n    tag_296:\n        /* \"#utility.yul\":634:639   */\n      dup2\n        /* \"#utility.yul\":631:666   */\n      eq\n        /* \"#utility.yul\":621:684   */\n      tag_297\n      jumpi\n        /* \"#utility.yul\":680:681   */\n      0x00\n        /* \"#utility.yul\":677:678   */\n      dup1\n        /* \"#utility.yul\":670:682   */\n      revert\n        /* \"#utility.yul\":621:684   */\n    tag_297:\n        /* \"#utility.yul\":568:690   */\n      pop\n      jump\t// out\n        /* \"#utility.yul\":696:835   */\n    tag_195:\n        /* \"#utility.yul\":742:747   */\n      0x00\n        /* \"#utility.yul\":780:786   */\n      dup2\n        /* \"#utility.yul\":767:787   */\n      calldataload\n        /* \"#utility.yul\":758:787   */\n      swap1\n      pop\n        /* \"#utility.yul\":796:829   */\n      tag_299\n        /* \"#utility.yul\":823:828   */\n      dup2\n        /* \"#utility.yul\":796:829   */\n      tag_194\n      jump\t// in\n    tag_299:\n        /* \"#utility.yul\":696:835   */\n      swap3\n      swap2\n      pop\n      pop\n      jump\t// out\n        /* \"#utility.yul\":841:1170   */\n    tag_22:\n        /* \"#utility.yul\":900:906   */\n      0x00\n        /* \"#utility.yul\":949:951   */\n      0x20\n        /* \"#utility.yul\":937:946   */\n      dup3\n        /* \"#utility.yul\":928:935   */\n      dup5\n        /* \"#utility.yul\":924:947   */\n      sub\n        /* \"#utility.yul\":920:952   */\n      slt\n        /* \"#utility.yul\":917:1036   */\n      iszero\n      tag_301\n      jumpi\n        /* \"#utility.yul\":955:1034   */\n      tag_302\n      tag_190\n      jump\t// in\n    tag_302:\n        /* \"#utility.yul\":917:1036   */\n    tag_301:\n        /* \"#utility.yul\":1075:1076   */\n      0x00\n        /* \"#utility.yul\":1100:1153   */\n      tag_303\n        /* \"#utility.yul\":1145:1152   */\n      dup5\n        /* \"#utility.yul\":1136:1142   */\n      dup3\n        /* \"#utility.yul\":1125:1134   */\n      dup6\n        /* \"#utility.yul\":1121:1143   */\n      add\n        /* \"#utility.yul\":1100:1153   */\n      tag_195\n      jump\t// in\n    tag_303:\n        /* \"#utility.yul\":1090:1153   */\n      swap2\n      pop\n        /* \"#utility.yul\":1046:1163   */\n      pop\n        /* \"#utility.yul\":841:1170   */\n      swap3\n      swap2\n      pop\n      pop\n      jump\t// out\n        /* \"#utility.yul\":1176:1253   */\n    tag_196:\n        /* \"#utility.yul\":1213:1220   */\n      0x00\n        /* \"#utility.yul\":1242:1247   */\n      dup2\n        /* \"#utility.yul\":1231:1247   */\n      swap1\n      pop\n        /* \"#utility.yul\":1176:1253   */\n      swap2\n      swap1\n      pop\n      jump\t// out\n        /* \"#utility.yul\":1259:1377   */\n    tag_197:\n        /* \"#utility.yul\":1346:1370   */\n      tag_306\n        /* \"#utility.yul\":1364:1369   */\n      dup2\n        /* \"#utility.yul\":1346:1370   */\n      tag_196\n      jump\t// in\n    tag_306:\n        /* \"#utility.yul\":1341:1344   */\n      dup3\n        /* \"#utility.yul\":1334:1371   */\n      mstore\n        /* \"#utility.yul\":1259:1377   */\n      pop\n      pop\n      jump\t// out\n        /* \"#utility.yul\":1383:1605   */\n    tag_27:\n        /* \"#utility.yul\":1476:1480   */\n      0x00\n        /* \"#utility.yul\":1514:1516   */\n      0x20\n        /* \"#utility.yul\":1503:1512   */\n      dup3\n        /* \"#utility.yul\":1499:1517   */\n      add\n        /* \"#utility.yul\":1491:1517   */\n      swap1\n      pop\n        /* \"#utility.yul\":1527:1598   */\n      tag_308\n        /* \"#utility.yul\":1595:1596   */\n      0x00\n        /* \"#utility.yul\":1584:1593   */\n      dup4\n        /* \"#utility.yul\":1580:1597   */\n      add\n        /* \"#utility.yul\":1571:1577   */\n      dup5\n        /* \"#utility.yul\":1527:1598   */\n      tag_197\n      jump\t// in\n    tag_308:\n        /* \"#utility.yul\":1383:1605   */\n      swap3\n      swap2\n      pop\n      pop\n      jump\t// out\n        /* \"#utility.yul\":1611:1710   */\n    tag_198:\n        /* \"#utility.yul\":1663:1669   */\n      0x00\n        /* \"#utility.yul\":1697:1702   */\n      dup2\n        /* \"#utility.yul\":1691:1703   */\n      mload\n        /* \"#utility.yul\":1681:1703   */\n      swap1\n      pop\n        /* \"#utility.yul\":1611:1710   */\n      swap2\n      swap1\n      pop\n      jump\t// out\n        /* \"#utility.yul\":1716:1885   */\n    tag_199:\n        /* \"#utility.yul\":1800:1811   */\n      0x00\n        /* \"#utility.yul\":1834:1840   */\n      dup3\n        /* \"#utility.yul\":1829:1832   */\n      dup3\n        /* \"#utility.yul\":1822:1841   */\n      mstore\n        /* \"#utility.yul\":1874:1878   */\n      0x20\n        /* \"#utility.yul\":1869:1872   */\n      dup3\n        /* \"#utility.yul\":1865:1879   */\n      add\n        /* \"#utility.yul\":1850:1879   */\n      swap1\n      pop\n        /* \"#utility.yul\":1716:1885   */\n      swap3\n      swap2\n      pop\n      pop\n      jump\t// out\n        /* \"#utility.yul\":1891:2030   */\n    tag_200:\n        /* \"#utility.yul\":1980:1986   */\n      dup3\n        /* \"#utility.yul\":1975:1978   */\n      dup2\n        /* \"#utility.yul\":1970:1973   */\n      dup4\n        /* \"#utility.yul\":1964:1987   */\n      mcopy\n        /* \"#utility.yul\":2021:2022   */\n      0x00\n        /* \"#utility.yul\":2012:2018   */\n      dup4\n        /* \"#utility.yul\":2007:2010   */\n      dup4\n        /* \"#utility.yul\":2003:2019   */\n      add\n        /* \"#utility.yul\":1996:2023   */\n      mstore\n        /* \"#utility.yul\":1891:2030   */\n      pop\n      pop\n      pop\n      jump\t// out\n        /* \"#utility.yul\":2036:2138   */\n    tag_201:\n        /* \"#utility.yul\":2077:2083   */\n      0x00\n        /* \"#utility.yul\":2128:2130   */\n      0x1f\n        /* \"#utility.yul\":2124:2131   */\n      not\n        /* \"#utility.yul\":2119:2121   */\n      0x1f\n        /* \"#utility.yul\":2112:2117   */\n      dup4\n        /* \"#utility.yul\":2108:2122   */\n      add\n        /* \"#utility.yul\":2104:2132   */\n      and\n        /* \"#utility.yul\":2094:2132   */\n      swap1\n      pop\n        /* \"#utility.yul\":2036:2138   */\n      swap2\n      swap1\n      pop\n      jump\t// out\n        /* \"#utility.yul\":2144:2521   */\n    tag_202:\n        /* \"#utility.yul\":2232:2235   */\n      0x00\n        /* \"#utility.yul\":2260:2299   */\n      tag_314\n        /* \"#utility.yul\":2293:2298   */\n      dup3\n        /* \"#utility.yul\":2260:2299   */\n      tag_198\n      jump\t// in\n    tag_314:\n        /* \"#utility.yul\":2315:2386   */\n      tag_315\n        /* \"#utility.yul\":2379:2385   */\n      dup2\n        /* \"#utility.yul\":2374:2377   */\n      dup6\n        /* \"#utility.yul\":2315:2386   */\n      tag_199\n      jump\t// in\n    tag_315:\n        /* \"#utility.yul\":2308:2386   */\n      swap4\n      pop\n        /* \"#utility.yul\":2395:2460   */\n      tag_316\n        /* \"#utility.yul\":2453:2459   */\n      dup2\n        /* \"#utility.yul\":2448:2451   */\n      dup6\n        /* \"#utility.yul\":2441:2445   */\n      0x20\n        /* \"#utility.yul\":2434:2439   */\n      dup7\n        /* \"#utility.yul\":2430:2446   */\n      add\n        /* \"#utility.yul\":2395:2460   */\n      tag_200\n      jump\t// in\n    tag_316:\n        /* \"#utility.yul\":2485:2514   */\n      tag_317\n        /* \"#utility.yul\":2507:2513   */\n      dup2\n        /* \"#utility.yul\":2485:2514   */\n      tag_201\n      jump\t// in\n    tag_317:\n        /* \"#utility.yul\":2480:2483   */\n      dup5\n        /* \"#utility.yul\":2476:2515   */\n      add\n        /* \"#utility.yul\":2469:2515   */\n      swap2\n      pop\n        /* \"#utility.yul\":2236:2521   */\n      pop\n        /* \"#utility.yul\":2144:2521   */\n      swap3\n      swap2\n      pop\n      pop\n      jump\t// out\n        /* \"#utility.yul\":2527:2840   */\n    tag_31:\n        /* \"#utility.yul\":2640:2644   */\n      0x00\n        /* \"#utility.yul\":2678:2680   */\n      0x20\n        /* \"#utility.yul\":2667:2676   */\n      dup3\n        /* \"#utility.yul\":2663:2681   */\n      add\n        /* \"#utility.yul\":2655:2681   */\n      swap1\n      pop\n        /* \"#utility.yul\":2727:2736   */\n      dup2\n        /* \"#utility.yul\":2721:2725   */\n      dup2\n        /* \"#utility.yul\":2717:2737   */\n      sub\n        /* \"#utility.yul\":2713:2714   */\n      0x00\n        /* \"#utility.yul\":2702:2711   */\n      dup4\n        /* \"#utility.yul\":2698:2715   */\n      add\n        /* \"#utility.yul\":2691:2738   */\n      mstore\n        /* \"#utility.yul\":2755:2833   */\n      tag_319\n        /* \"#utility.yul\":2828:2832   */\n      dup2\n        /* \"#utility.yul\":2819:2825   */\n      dup5\n        /* \"#utility.yul\":2755:2833   */\n      tag_202\n      jump\t// in\n    tag_319:\n        /* \"#utility.yul\":2747:2833   */\n      swap1\n      pop\n        /* \"#utility.yul\":2527:2840   */\n      swap3\n      swap2\n      pop\n      pop\n      jump\t// out\n        /* \"#utility.yul\":2846:2963   */\n    tag_203:\n        /* \"#utility.yul\":2955:2956   */\n      0x00\n        /* \"#utility.yul\":2952:2953   */\n      dup1\n        /* \"#utility.yul\":2945:2957   */\n      revert\n        /* \"#utility.yul\":2969:3086   */\n    tag_204:\n        /* \"#utility.yul\":3078:3079   */\n      0x00\n        /* \"#utility.yul\":3075:3076   */\n      dup1\n        /* \"#utility.yul\":3068:3080   */\n      revert\n        /* \"#utility.yul\":3092:3272   */\n    tag_205:\n        /* \"#utility.yul\":3140:3217   */\n      0x4e487b7100000000000000000000000000000000000000000000000000000000\n        /* \"#utility.yul\":3137:3138   */\n      0x00\n        /* \"#utility.yul\":3130:3218   */\n      mstore\n        /* \"#utility.yul\":3237:3241   */\n      0x41\n        /* \"#utility.yul\":3234:3235   */\n      0x04\n        /* \"#utility.yul\":3227:3242   */\n      mstore\n        /* \"#utility.yul\":3261:3265   */\n      0x24\n        /* \"#utility.yul\":3258:3259   */\n      0x00\n        /* \"#utility.yul\":3251:3266   */\n      revert\n        /* \"#utility.yul\":3278:3559   */\n    tag_206:\n        /* \"#utility.yul\":3361:3388   */\n      tag_324\n        /* \"#utility.yul\":3383:3387   */\n      dup3\n        /* \"#utility.yul\":3361:3388   */\n      tag_201\n      jump\t// in\n    tag_324:\n        /* \"#utility.yul\":3353:3359   */\n      dup2\n        /* \"#utility.yul\":3349:3389   */\n      add\n        /* \"#utility.yul\":3491:3497   */\n      dup2\n        /* \"#utility.yul\":3479:3489   */\n      dup2\n        /* \"#utility.yul\":3476:3498   */\n      lt\n        /* \"#utility.yul\":3455:3473   */\n      0xffffffffffffffff\n        /* \"#utility.yul\":3443:3453   */\n      dup3\n        /* \"#utility.yul\":3440:3474   */\n      gt\n        /* \"#utility.yul\":3437:3499   */\n      or\n        /* \"#utility.yul\":3434:3522   */\n      iszero\n      tag_325\n      jumpi\n        /* \"#utility.yul\":3502:3520   */\n      tag_326\n      tag_205\n      jump\t// in\n    tag_326:\n        /* \"#utility.yul\":3434:3522   */\n    tag_325:\n        /* \"#utility.yul\":3542:3552   */\n      dup1\n        /* \"#utility.yul\":3538:3540   */\n      0x40\n        /* \"#utility.yul\":3531:3553   */\n      mstore\n        /* \"#utility.yul\":3321:3559   */\n      pop\n        /* \"#utility.yul\":3278:3559   */\n      pop\n      pop\n      jump\t// out\n        /* \"#utility.yul\":3565:3694   */\n    tag_207:\n        /* \"#utility.yul\":3599:3605   */\n      0x00\n        /* \"#utility.yul\":3626:3646   */\n      tag_328\n      tag_189\n      jump\t// in\n    tag_328:\n        /* \"#utility.yul\":3616:3646   */\n      swap1\n      pop\n        /* \"#utility.yul\":3655:3688   */\n      tag_329\n        /* \"#utility.yul\":3683:3687   */\n      dup3\n        /* \"#utility.yul\":3675:3681   */\n      dup3\n        /* \"#utility.yul\":3655:3688   */\n      tag_206\n      jump\t// in\n    tag_329:\n        /* \"#utility.yul\":3565:3694   */\n      swap2\n      swap1\n      pop\n      jump\t// out\n        /* \"#utility.yul\":3700:4008   */\n    tag_208:\n        /* \"#utility.yul\":3762:3766   */\n      0x00\n        /* \"#utility.yul\":3852:3870   */\n      0xffffffffffffffff\n        /* \"#utility.yul\":3844:3850   */\n      dup3\n        /* \"#utility.yul\":3841:3871   */\n      gt\n        /* \"#utility.yul\":3838:3894   */\n      iszero\n      tag_331\n      jumpi\n        /* \"#utility.yul\":3874:3892   */\n      tag_332\n      tag_205\n      jump\t// in\n    tag_332:\n        /* \"#utility.yul\":3838:3894   */\n    tag_331:\n        /* \"#utility.yul\":3912:3941   */\n      tag_333\n        /* \"#utility.yul\":3934:3940   */\n      dup3\n        /* \"#utility.yul\":3912:3941   */\n      tag_201\n      jump\t// in\n    tag_333:\n        /* \"#utility.yul\":3904:3941   */\n      swap1\n      pop\n        /* \"#utility.yul\":3996:4000   */\n      0x20\n        /* \"#utility.yul\":3990:3994   */\n      dup2\n        /* \"#utility.yul\":3986:4001   */\n      add\n        /* \"#utility.yul\":3978:4001   */\n      swap1\n      pop\n        /* \"#utility.yul\":3700:4008   */\n      swap2\n      swap1\n      pop\n      jump\t// out\n        /* \"#utility.yul\":4014:4162   */\n    tag_209:\n        /* \"#utility.yul\":4112:4118   */\n      dup3\n        /* \"#utility.yul\":4107:4110   */\n      dup2\n        /* \"#utility.yul\":4102:4105   */\n      dup4\n        /* \"#utility.yul\":4089:4119   */\n      calldatacopy\n        /* \"#utility.yul\":4153:4154   */\n      0x00\n        /* \"#utility.yul\":4144:4150   */\n      dup4\n        /* \"#utility.yul\":4139:4142   */\n      dup4\n        /* \"#utility.yul\":4135:4151   */\n      add\n        /* \"#utility.yul\":4128:4155   */\n      mstore\n        /* \"#utility.yul\":4014:4162   */\n      pop\n      pop\n      pop\n      jump\t// out\n        /* \"#utility.yul\":4168:4593   */\n    tag_210:\n        /* \"#utility.yul\":4246:4251   */\n      0x00\n        /* \"#utility.yul\":4271:4337   */\n      tag_336\n        /* \"#utility.yul\":4287:4336   */\n      tag_337\n        /* \"#utility.yul\":4329:4335   */\n      dup5\n        /* \"#utility.yul\":4287:4336   */\n      tag_208\n      jump\t// in\n    tag_337:\n        /* \"#utility.yul\":4271:4337   */\n      tag_207\n      jump\t// in\n    tag_336:\n        /* \"#utility.yul\":4262:4337   */\n      swap1\n      pop\n        /* \"#utility.yul\":4360:4366   */\n      dup3\n        /* \"#utility.yul\":4353:4358   */\n      dup2\n        /* \"#utility.yul\":4346:4367   */\n      mstore\n        /* \"#utility.yul\":4398:4402   */\n      0x20\n        /* \"#utility.yul\":4391:4396   */\n      dup2\n        /* \"#utility.yul\":4387:4403   */\n      add\n        /* \"#utility.yul\":4436:4439   */\n      dup5\n        /* \"#utility.yul\":4427:4433   */\n      dup5\n        /* \"#utility.yul\":4422:4425   */\n      dup5\n        /* \"#utility.yul\":4418:4434   */\n      add\n        /* \"#utility.yul\":4415:4440   */\n      gt\n        /* \"#utility.yul\":4412:4524   */\n      iszero\n      tag_338\n      jumpi\n        /* \"#utility.yul\":4443:4522   */\n      tag_339\n      tag_204\n      jump\t// in\n    tag_339:\n        /* \"#utility.yul\":4412:4524   */\n    tag_338:\n        /* \"#utility.yul\":4533:4587   */\n      tag_340\n        /* \"#utility.yul\":4580:4586   */\n      dup5\n        /* \"#utility.yul\":4575:4578   */\n      dup3\n        /* \"#utility.yul\":4570:4573   */\n      dup6\n        /* \"#utility.yul\":4533:4587   */\n      tag_209\n      jump\t// in\n    tag_340:\n        /* \"#utility.yul\":4252:4593   */\n      pop\n        /* \"#utility.yul\":4168:4593   */\n      swap4\n      swap3\n      pop\n      pop\n      pop\n      jump\t// out\n        /* \"#utility.yul\":4613:4953   */\n    tag_211:\n        /* \"#utility.yul\":4669:4674   */\n      0x00\n        /* \"#utility.yul\":4718:4721   */\n      dup3\n        /* \"#utility.yul\":4711:4715   */\n      0x1f\n        /* \"#utility.yul\":4703:4709   */\n      dup4\n        /* \"#utility.yul\":4699:4716   */\n      add\n        /* \"#utility.yul\":4695:4722   */\n      slt\n        /* \"#utility.yul\":4685:4807   */\n      tag_342\n      jumpi\n        /* \"#utility.yul\":4726:4805   */\n      tag_343\n      tag_203\n      jump\t// in\n    tag_343:\n        /* \"#utility.yul\":4685:4807   */\n    tag_342:\n        /* \"#utility.yul\":4843:4849   */\n      dup2\n        /* \"#utility.yul\":4830:4850   */\n      calldataload\n        /* \"#utility.yul\":4868:4947   */\n      tag_344\n        /* \"#utility.yul\":4943:4946   */\n      dup5\n        /* \"#utility.yul\":4935:4941   */\n      dup3\n        /* \"#utility.yul\":4928:4932   */\n      0x20\n        /* \"#utility.yul\":4920:4926   */\n      dup7\n        /* \"#utility.yul\":4916:4933   */\n      add\n        /* \"#utility.yul\":4868:4947   */\n      tag_210\n      jump\t// in\n    tag_344:\n        /* \"#utility.yul\":4859:4947   */\n      swap2\n      pop\n        /* \"#utility.yul\":4675:4953   */\n      pop\n        /* \"#utility.yul\":4613:4953   */\n      swap3\n      swap2\n      pop\n      pop\n      jump\t// out\n        /* \"#utility.yul\":4959:5468   */\n    tag_37:\n        /* \"#utility.yul\":5028:5034   */\n      0x00\n        /* \"#utility.yul\":5077:5079   */\n      0x20\n        /* \"#utility.yul\":5065:5074   */\n      dup3\n        /* \"#utility.yul\":5056:5063   */\n      dup5\n        /* \"#utility.yul\":5052:5075   */\n      sub\n        /* \"#utility.yul\":5048:5080   */\n      slt\n        /* \"#utility.yul\":5045:5164   */\n      iszero\n      tag_346\n      jumpi\n        /* \"#utility.yul\":5083:5162   */\n      tag_347\n      tag_190\n      jump\t// in\n    tag_347:\n        /* \"#utility.yul\":5045:5164   */\n    tag_346:\n        /* \"#utility.yul\":5231:5232   */\n      0x00\n        /* \"#utility.yul\":5220:5229   */\n      dup3\n        /* \"#utility.yul\":5216:5233   */\n      add\n        /* \"#utility.yul\":5203:5234   */\n      calldataload\n        /* \"#utility.yul\":5261:5279   */\n      0xffffffffffffffff\n        /* \"#utility.yul\":5253:5259   */\n      dup2\n        /* \"#utility.yul\":5250:5280   */\n      gt\n        /* \"#utility.yul\":5247:5364   */\n      iszero\n      tag_348\n      jumpi\n        /* \"#utility.yul\":5283:5362   */\n      tag_349\n      tag_191\n      jump\t// in\n    tag_349:\n        /* \"#utility.yul\":5247:5364   */\n    tag_348:\n        /* \"#utility.yul\":5388:5451   */\n      tag_350\n        /* \"#utility.yul\":5443:5450   */\n      dup5\n        /* \"#utility.yul\":5434:5440   */\n      dup3\n        /* \"#utility.yul\":5423:5432   */\n      dup6\n        /* \"#utility.yul\":5419:5441   */\n      add\n        /* \"#utility.yul\":5388:5451   */\n      tag_211\n      jump\t// in\n    tag_350:\n        /* \"#utility.yul\":5378:5451   */\n      swap2\n      pop\n        /* \"#utility.yul\":5174:5461   */\n      pop\n        /* \"#utility.yul\":4959:5468   */\n      swap3\n      swap2\n      pop\n      pop\n      jump\t// out\n        /* \"#utility.yul\":5474:7285   */\n    tag_41:\n        /* \"#utility.yul\":5619:5625   */\n      0x00\n        /* \"#utility.yul\":5627:5633   */\n      dup1\n        /* \"#utility.yul\":5635:5641   */\n      0x00\n        /* \"#utility.yul\":5643:5649   */\n      dup1\n        /* \"#utility.yul\":5651:5657   */\n      0x00\n        /* \"#utility.yul\":5700:5703   */\n      0xa0\n        /* \"#utility.yul\":5688:5697   */\n      dup7\n        /* \"#utility.yul\":5679:5686   */\n      dup9\n        /* \"#utility.yul\":5675:5698   */\n      sub\n        /* \"#utility.yul\":5671:5704   */\n      slt\n        /* \"#utility.yul\":5668:5788   */\n      iszero\n      tag_352\n      jumpi\n        /* \"#utility.yul\":5707:5786   */\n      tag_353\n      tag_190\n      jump\t// in\n    tag_353:\n        /* \"#utility.yul\":5668:5788   */\n    tag_352:\n        /* \"#utility.yul\":5855:5856   */\n      0x00\n        /* \"#utility.yul\":5844:5853   */\n      dup7\n        /* \"#utility.yul\":5840:5857   */\n      add\n        /* \"#utility.yul\":5827:5858   */\n      calldataload\n        /* \"#utility.yul\":5885:5903   */\n      0xffffffffffffffff\n        /* \"#utility.yul\":5877:5883   */\n      dup2\n        /* \"#utility.yul\":5874:5904   */\n      gt\n        /* \"#utility.yul\":5871:5988   */\n      iszero\n      tag_354\n      jumpi\n        /* \"#utility.yul\":5907:5986   */\n      tag_355\n      tag_191\n      jump\t// in\n    tag_355:\n        /* \"#utility.yul\":5871:5988   */\n    tag_354:\n        /* \"#utility.yul\":6012:6075   */\n      tag_356\n        /* \"#utility.yul\":6067:6074   */\n      dup9\n        /* \"#utility.yul\":6058:6064   */\n      dup3\n        /* \"#utility.yul\":6047:6056   */\n      dup10\n        /* \"#utility.yul\":6043:6065   */\n      add\n        /* \"#utility.yul\":6012:6075   */\n      tag_211\n      jump\t// in\n    tag_356:\n        /* \"#utility.yul\":6002:6075   */\n      swap6\n      pop\n        /* \"#utility.yul\":5798:6085   */\n      pop\n        /* \"#utility.yul\":6152:6154   */\n      0x20\n        /* \"#utility.yul\":6141:6150   */\n      dup7\n        /* \"#utility.yul\":6137:6155   */\n      add\n        /* \"#utility.yul\":6124:6156   */\n      calldataload\n        /* \"#utility.yul\":6183:6201   */\n      0xffffffffffffffff\n        /* \"#utility.yul\":6175:6181   */\n      dup2\n        /* \"#utility.yul\":6172:6202   */\n      gt\n        /* \"#utility.yul\":6169:6286   */\n      iszero\n      tag_357\n      jumpi\n        /* \"#utility.yul\":6205:6284   */\n      tag_358\n      tag_191\n      jump\t// in\n    tag_358:\n        /* \"#utility.yul\":6169:6286   */\n    tag_357:\n        /* \"#utility.yul\":6310:6373   */\n      tag_359\n        /* \"#utility.yul\":6365:6372   */\n      dup9\n        /* \"#utility.yul\":6356:6362   */\n      dup3\n        /* \"#utility.yul\":6345:6354   */\n      dup10\n        /* \"#utility.yul\":6341:6363   */\n      add\n        /* \"#utility.yul\":6310:6373   */\n      tag_211\n      jump\t// in\n    tag_359:\n        /* \"#utility.yul\":6300:6373   */\n      swap5\n      pop\n        /* \"#utility.yul\":6095:6383   */\n      pop\n        /* \"#utility.yul\":6450:6452   */\n      0x40\n        /* \"#utility.yul\":6439:6448   */\n      dup7\n        /* \"#utility.yul\":6435:6453   */\n      add\n        /* \"#utility.yul\":6422:6454   */\n      calldataload\n        /* \"#utility.yul\":6481:6499   */\n      0xffffffffffffffff\n        /* \"#utility.yul\":6473:6479   */\n      dup2\n        /* \"#utility.yul\":6470:6500   */\n      gt\n        /* \"#utility.yul\":6467:6584   */\n      iszero\n      tag_360\n      jumpi\n        /* \"#utility.yul\":6503:6582   */\n      tag_361\n      tag_191\n      jump\t// in\n    tag_361:\n        /* \"#utility.yul\":6467:6584   */\n    tag_360:\n        /* \"#utility.yul\":6608:6671   */\n      tag_362\n        /* \"#utility.yul\":6663:6670   */\n      dup9\n        /* \"#utility.yul\":6654:6660   */\n      dup3\n        /* \"#utility.yul\":6643:6652   */\n      dup10\n        /* \"#utility.yul\":6639:6661   */\n      add\n        /* \"#utility.yul\":6608:6671   */\n      tag_211\n      jump\t// in\n    tag_362:\n        /* \"#utility.yul\":6598:6671   */\n      swap4\n      pop\n        /* \"#utility.yul\":6393:6681   */\n      pop\n        /* \"#utility.yul\":6748:6750   */\n      0x60\n        /* \"#utility.yul\":6737:6746   */\n      dup7\n        /* \"#utility.yul\":6733:6751   */\n      add\n        /* \"#utility.yul\":6720:6752   */\n      calldataload\n        /* \"#utility.yul\":6779:6797   */\n      0xffffffffffffffff\n        /* \"#utility.yul\":6771:6777   */\n      dup2\n        /* \"#utility.yul\":6768:6798   */\n      gt\n        /* \"#utility.yul\":6765:6882   */\n      iszero\n      tag_363\n      jumpi\n        /* \"#utility.yul\":6801:6880   */\n      tag_364\n      tag_191\n      jump\t// in\n    tag_364:\n        /* \"#utility.yul\":6765:6882   */\n    tag_363:\n        /* \"#utility.yul\":6906:6969   */\n      tag_365\n        /* \"#utility.yul\":6961:6968   */\n      dup9\n        /* \"#utility.yul\":6952:6958   */\n      dup3\n        /* \"#utility.yul\":6941:6950   */\n      dup10\n        /* \"#utility.yul\":6937:6959   */\n      add\n        /* \"#utility.yul\":6906:6969   */\n      tag_211\n      jump\t// in\n    tag_365:\n        /* \"#utility.yul\":6896:6969   */\n      swap3\n      pop\n        /* \"#utility.yul\":6691:6979   */\n      pop\n        /* \"#utility.yul\":7046:7049   */\n      0x80\n        /* \"#utility.yul\":7035:7044   */\n      dup7\n        /* \"#utility.yul\":7031:7050   */\n      add\n        /* \"#utility.yul\":7018:7051   */\n      calldataload\n        /* \"#utility.yul\":7078:7096   */\n      0xffffffffffffffff\n        /* \"#utility.yul\":7070:7076   */\n      dup2\n        /* \"#utility.yul\":7067:7097   */\n      gt\n        /* \"#utility.yul\":7064:7181   */\n      iszero\n      tag_366\n      jumpi\n        /* \"#utility.yul\":7100:7179   */\n      tag_367\n      tag_191\n      jump\t// in\n    tag_367:\n        /* \"#utility.yul\":7064:7181   */\n    tag_366:\n        /* \"#utility.yul\":7205:7268   */\n      tag_368\n        /* \"#utility.yul\":7260:7267   */\n      dup9\n        /* \"#utility.yul\":7251:7257   */\n      dup3\n        /* \"#utility.yul\":7240:7249   */\n      dup10\n        /* \"#utility.yul\":7236:7258   */\n      add\n        /* \"#utility.yul\":7205:7268   */\n      tag_211\n      jump\t// in\n    tag_368:\n        /* \"#utility.yul\":7195:7268   */\n      swap2\n      pop\n        /* \"#utility.yul\":6989:7278   */\n      pop\n        /* \"#utility.yul\":5474:7285   */\n      swap3\n      swap6\n      pop\n      swap3\n      swap6\n      swap1\n      swap4\n      pop\n      jump\t// out\n        /* \"#utility.yul\":7291:7381   */\n    tag_212:\n        /* \"#utility.yul\":7325:7332   */\n      0x00\n        /* \"#utility.yul\":7368:7373   */\n      dup2\n        /* \"#utility.yul\":7361:7374   */\n      iszero\n        /* \"#utility.yul\":7354:7375   */\n      iszero\n        /* \"#utility.yul\":7343:7375   */\n      swap1\n      pop\n        /* \"#utility.yul\":7291:7381   */\n      swap2\n      swap1\n      pop\n      jump\t// out\n        /* \"#utility.yul\":7387:7496   */\n    tag_213:\n        /* \"#utility.yul\":7468:7489   */\n      tag_371\n        /* \"#utility.yul\":7483:7488   */\n      dup2\n        /* \"#utility.yul\":7468:7489   */\n      tag_212\n      jump\t// in\n    tag_371:\n        /* \"#utility.yul\":7463:7466   */\n      dup3\n        /* \"#utility.yul\":7456:7490   */\n      mstore\n        /* \"#utility.yul\":7387:7496   */\n      pop\n      pop\n      jump\t// out\n        /* \"#utility.yul\":7502:7712   */\n    tag_50:\n        /* \"#utility.yul\":7589:7593   */\n      0x00\n        /* \"#utility.yul\":7627:7629   */\n      0x20\n        /* \"#utility.yul\":7616:7625   */\n      dup3\n        /* \"#utility.yul\":7612:7630   */\n      add\n        /* \"#utility.yul\":7604:7630   */\n      swap1\n      pop\n        /* \"#utility.yul\":7640:7705   */\n      tag_373\n        /* \"#utility.yul\":7702:7703   */\n      0x00\n        /* \"#utility.yul\":7691:7700   */\n      dup4\n        /* \"#utility.yul\":7687:7704   */\n      add\n        /* \"#utility.yul\":7678:7684   */\n      dup5\n        /* \"#utility.yul\":7640:7705   */\n      tag_213\n      jump\t// in\n    tag_373:\n        /* \"#utility.yul\":7502:7712   */\n      swap3\n      swap2\n      pop\n      pop\n      jump\t// out\n        /* \"#utility.yul\":7718:7836   */\n    tag_214:\n        /* \"#utility.yul\":7805:7829   */\n      tag_375\n        /* \"#utility.yul\":7823:7828   */\n      dup2\n        /* \"#utility.yul\":7805:7829   */\n      tag_193\n      jump\t// in\n    tag_375:\n        /* \"#utility.yul\":7800:7803   */\n      dup3\n        /* \"#utility.yul\":7793:7830   */\n      mstore\n        /* \"#utility.yul\":7718:7836   */\n      pop\n      pop\n      jump\t// out\n        /* \"#utility.yul\":7842:8064   */\n    tag_54:\n        /* \"#utility.yul\":7935:7939   */\n      0x00\n        /* \"#utility.yul\":7973:7975   */\n      0x20\n        /* \"#utility.yul\":7962:7971   */\n      dup3\n        /* \"#utility.yul\":7958:7976   */\n      add\n        /* \"#utility.yul\":7950:7976   */\n      swap1\n      pop\n        /* \"#utility.yul\":7986:8057   */\n      tag_377\n        /* \"#utility.yul\":8054:8055   */\n      0x00\n        /* \"#utility.yul\":8043:8052   */\n      dup4\n        /* \"#utility.yul\":8039:8056   */\n      add\n        /* \"#utility.yul\":8030:8036   */\n      dup5\n        /* \"#utility.yul\":7986:8057   */\n      tag_214\n      jump\t// in\n    tag_377:\n        /* \"#utility.yul\":7842:8064   */\n      swap3\n      swap2\n      pop\n      pop\n      jump\t// out\n        /* \"#utility.yul\":8070:8192   */\n    tag_215:\n        /* \"#utility.yul\":8143:8167   */\n      tag_379\n        /* \"#utility.yul\":8161:8166   */\n      dup2\n        /* \"#utility.yul\":8143:8167   */\n      tag_196\n      jump\t// in\n    tag_379:\n        /* \"#utility.yul\":8136:8141   */\n      dup2\n        /* \"#utility.yul\":8133:8168   */\n      eq\n        /* \"#utility.yul\":8123:8186   */\n      tag_380\n      jumpi\n        /* \"#utility.yul\":8182:8183   */\n      0x00\n        /* \"#utility.yul\":8179:8180   */\n      dup1\n        /* \"#utility.yul\":8172:8184   */\n      revert\n        /* \"#utility.yul\":8123:8186   */\n    tag_380:\n        /* \"#utility.yul\":8070:8192   */\n      pop\n      jump\t// out\n        /* \"#utility.yul\":8198:8337   */\n    tag_216:\n        /* \"#utility.yul\":8244:8249   */\n      0x00\n        /* \"#utility.yul\":8282:8288   */\n      dup2\n        /* \"#utility.yul\":8269:8289   */\n      calldataload\n        /* \"#utility.yul\":8260:8289   */\n      swap1\n      pop\n        /* \"#utility.yul\":8298:8331   */\n      tag_382\n        /* \"#utility.yul\":8325:8330   */\n      dup2\n        /* \"#utility.yul\":8298:8331   */\n      tag_215\n      jump\t// in\n    tag_382:\n        /* \"#utility.yul\":8198:8337   */\n      swap3\n      swap2\n      pop\n      pop\n      jump\t// out\n        /* \"#utility.yul\":8343:8672   */\n    tag_66:\n        /* \"#utility.yul\":8402:8408   */\n      0x00\n        /* \"#utility.yul\":8451:8453   */\n      0x20\n        /* \"#utility.yul\":8439:8448   */\n      dup3\n        /* \"#utility.yul\":8430:8437   */\n      dup5\n        /* \"#utility.yul\":8426:8449   */\n      sub\n        /* \"#utility.yul\":8422:8454   */\n      slt\n        /* \"#utility.yul\":8419:8538   */\n      iszero\n      tag_384\n      jumpi\n        /* \"#utility.yul\":8457:8536   */\n      tag_385\n      tag_190\n      jump\t// in\n    tag_385:\n        /* \"#utility.yul\":8419:8538   */\n    tag_384:\n        /* \"#utility.yul\":8577:8578   */\n      0x00\n        /* \"#utility.yul\":8602:8655   */\n      tag_386\n        /* \"#utility.yul\":8647:8654   */\n      dup5\n        /* \"#utility.yul\":8638:8644   */\n      dup3\n        /* \"#utility.yul\":8627:8636   */\n      dup6\n        /* \"#utility.yul\":8623:8645   */\n      add\n        /* \"#utility.yul\":8602:8655   */\n      tag_216\n      jump\t// in\n    tag_386:\n        /* \"#utility.yul\":8592:8655   */\n      swap2\n      pop\n        /* \"#utility.yul\":8548:8665   */\n      pop\n        /* \"#utility.yul\":8343:8672   */\n      swap3\n      swap2\n      pop\n      pop\n      jump\t// out\n        /* \"#utility.yul\":8678:9797   */\n    tag_69:\n        /* \"#utility.yul\":8983:8987   */\n      0x00\n        /* \"#utility.yul\":9021:9024   */\n      0xa0\n        /* \"#utility.yul\":9010:9019   */\n      dup3\n        /* \"#utility.yul\":9006:9025   */\n      add\n        /* \"#utility.yul\":8998:9025   */\n      swap1\n      pop\n        /* \"#utility.yul\":9071:9080   */\n      dup2\n        /* \"#utility.yul\":9065:9069   */\n      dup2\n        /* \"#utility.yul\":9061:9081   */\n      sub\n        /* \"#utility.yul\":9057:9058   */\n      0x00\n        /* \"#utility.yul\":9046:9055   */\n      dup4\n        /* \"#utility.yul\":9042:9059   */\n      add\n        /* \"#utility.yul\":9035:9082   */\n      mstore\n        /* \"#utility.yul\":9099:9177   */\n      tag_388\n        /* \"#utility.yul\":9172:9176   */\n      dup2\n        /* \"#utility.yul\":9163:9169   */\n      dup9\n        /* \"#utility.yul\":9099:9177   */\n      tag_202\n      jump\t// in\n    tag_388:\n        /* \"#utility.yul\":9091:9177   */\n      swap1\n      pop\n        /* \"#utility.yul\":9224:9233   */\n      dup2\n        /* \"#utility.yul\":9218:9222   */\n      dup2\n        /* \"#utility.yul\":9214:9234   */\n      sub\n        /* \"#utility.yul\":9209:9211   */\n      0x20\n        /* \"#utility.yul\":9198:9207   */\n      dup4\n        /* \"#utility.yul\":9194:9212   */\n      add\n        /* \"#utility.yul\":9187:9235   */\n      mstore\n        /* \"#utility.yul\":9252:9330   */\n      tag_389\n        /* \"#utility.yul\":9325:9329   */\n      dup2\n        /* \"#utility.yul\":9316:9322   */\n      dup8\n        /* \"#utility.yul\":9252:9330   */\n      tag_202\n      jump\t// in\n    tag_389:\n        /* \"#utility.yul\":9244:9330   */\n      swap1\n      pop\n        /* \"#utility.yul\":9377:9386   */\n      dup2\n        /* \"#utility.yul\":9371:9375   */\n      dup2\n        /* \"#utility.yul\":9367:9387   */\n      sub\n        /* \"#utility.yul\":9362:9364   */\n      0x40\n        /* \"#utility.yul\":9351:9360   */\n      dup4\n        /* \"#utility.yul\":9347:9365   */\n      add\n        /* \"#utility.yul\":9340:9388   */\n      mstore\n        /* \"#utility.yul\":9405:9483   */\n      tag_390\n        /* \"#utility.yul\":9478:9482   */\n      dup2\n        /* \"#utility.yul\":9469:9475   */\n      dup7\n        /* \"#utility.yul\":9405:9483   */\n      tag_202\n      jump\t// in\n    tag_390:\n        /* \"#utility.yul\":9397:9483   */\n      swap1\n      pop\n        /* \"#utility.yul\":9530:9539   */\n      dup2\n        /* \"#utility.yul\":9524:9528   */\n      dup2\n        /* \"#utility.yul\":9520:9540   */\n      sub\n        /* \"#utility.yul\":9515:9517   */\n      0x60\n        /* \"#utility.yul\":9504:9513   */\n      dup4\n        /* \"#utility.yul\":9500:9518   */\n      add\n        /* \"#utility.yul\":9493:9541   */\n      mstore\n        /* \"#utility.yul\":9558:9636   */\n      tag_391\n        /* \"#utility.yul\":9631:9635   */\n      dup2\n        /* \"#utility.yul\":9622:9628   */\n      dup6\n        /* \"#utility.yul\":9558:9636   */\n      tag_202\n      jump\t// in\n    tag_391:\n        /* \"#utility.yul\":9550:9636   */\n      swap1\n      pop\n        /* \"#utility.yul\":9684:9693   */\n      dup2\n        /* \"#utility.yul\":9678:9682   */\n      dup2\n        /* \"#utility.yul\":9674:9694   */\n      sub\n        /* \"#utility.yul\":9668:9671   */\n      0x80\n        /* \"#utility.yul\":9657:9666   */\n      dup4\n        /* \"#utility.yul\":9653:9672   */\n      add\n        /* \"#utility.yul\":9646:9695   */\n      mstore\n        /* \"#utility.yul\":9712:9790   */\n      tag_392\n        /* \"#utility.yul\":9785:9789   */\n      dup2\n        /* \"#utility.yul\":9776:9782   */\n      dup5\n        /* \"#utility.yul\":9712:9790   */\n      tag_202\n      jump\t// in\n    tag_392:\n        /* \"#utility.yul\":9704:9790   */\n      swap1\n      pop\n        /* \"#utility.yul\":8678:9797   */\n      swap7\n      swap6\n      pop\n      pop\n      pop\n      pop\n      pop\n      pop\n      jump\t// out\n        /* \"#utility.yul\":9803:9966   */\n    tag_217:\n        /* \"#utility.yul\":9943:9958   */\n      0x4e6f7420746865206f776e657200000000000000000000000000000000000000\n        /* \"#utility.yul\":9939:9940   */\n      0x00\n        /* \"#utility.yul\":9931:9937   */\n      dup3\n        /* \"#utility.yul\":9927:9941   */\n      add\n        /* \"#utility.yul\":9920:9959   */\n      mstore\n        /* \"#utility.yul\":9803:9966   */\n      pop\n      jump\t// out\n        /* \"#utility.yul\":9972:10338   */\n    tag_218:\n        /* \"#utility.yul\":10114:10117   */\n      0x00\n        /* \"#utility.yul\":10135:10202   */\n      tag_395\n        /* \"#utility.yul\":10199:10201   */\n      0x0d\n        /* \"#utility.yul\":10194:10197   */\n      dup4\n        /* \"#utility.yul\":10135:10202   */\n      tag_199\n      jump\t// in\n    tag_395:\n        /* \"#utility.yul\":10128:10202   */\n      swap2\n      pop\n        /* \"#utility.yul\":10211:10304   */\n      tag_396\n        /* \"#utility.yul\":10300:10303   */\n      dup3\n        /* \"#utility.yul\":10211:10304   */\n      tag_217\n      jump\t// in\n    tag_396:\n        /* \"#utility.yul\":10329:10331   */\n      0x20\n        /* \"#utility.yul\":10324:10327   */\n      dup3\n        /* \"#utility.yul\":10320:10332   */\n      add\n        /* \"#utility.yul\":10313:10332   */\n      swap1\n      pop\n        /* \"#utility.yul\":9972:10338   */\n      swap2\n      swap1\n      pop\n      jump\t// out\n        /* \"#utility.yul\":10344:10763   */\n    tag_76:\n        /* \"#utility.yul\":10510:10514   */\n      0x00\n        /* \"#utility.yul\":10548:10550   */\n      0x20\n        /* \"#utility.yul\":10537:10546   */\n      dup3\n        /* \"#utility.yul\":10533:10551   */\n      add\n        /* \"#utility.yul\":10525:10551   */\n      swap1\n      pop\n        /* \"#utility.yul\":10597:10606   */\n      dup2\n        /* \"#utility.yul\":10591:10595   */\n      dup2\n        /* \"#utility.yul\":10587:10607   */\n      sub\n        /* \"#utility.yul\":10583:10584   */\n      0x00\n        /* \"#utility.yul\":10572:10581   */\n      dup4\n        /* \"#utility.yul\":10568:10585   */\n      add\n        /* \"#utility.yul\":10561:10608   */\n      mstore\n        /* \"#utility.yul\":10625:10756   */\n      tag_398\n        /* \"#utility.yul\":10751:10755   */\n      dup2\n        /* \"#utility.yul\":10625:10756   */\n      tag_218\n      jump\t// in\n    tag_398:\n        /* \"#utility.yul\":10617:10756   */\n      swap1\n      pop\n        /* \"#utility.yul\":10344:10763   */\n      swap2\n      swap1\n      pop\n      jump\t// out\n        /* \"#utility.yul\":10769:10949   */\n    tag_219:\n        /* \"#utility.yul\":10817:10894   */\n      0x4e487b7100000000000000000000000000000000000000000000000000000000\n        /* \"#utility.yul\":10814:10815   */\n      0x00\n        /* \"#utility.yul\":10807:10895   */\n      mstore\n        /* \"#utility.yul\":10914:10918   */\n      0x22\n        /* \"#utility.yul\":10911:10912   */\n      0x04\n        /* \"#utility.yul\":10904:10919   */\n      mstore\n        /* \"#utility.yul\":10938:10942   */\n      0x24\n        /* \"#utility.yul\":10935:10936   */\n      0x00\n        /* \"#utility.yul\":10928:10943   */\n      revert\n        /* \"#utility.yul\":10955:11275   */\n    tag_80:\n        /* \"#utility.yul\":10999:11005   */\n      0x00\n        /* \"#utility.yul\":11036:11037   */\n      0x02\n        /* \"#utility.yul\":11030:11034   */\n      dup3\n        /* \"#utility.yul\":11026:11038   */\n      div\n        /* \"#utility.yul\":11016:11038   */\n      swap1\n      pop\n        /* \"#utility.yul\":11083:11084   */\n      0x01\n        /* \"#utility.yul\":11077:11081   */\n      dup3\n        /* \"#utility.yul\":11073:11085   */\n      and\n        /* \"#utility.yul\":11104:11122   */\n      dup1\n        /* \"#utility.yul\":11094:11175   */\n      tag_401\n      jumpi\n        /* \"#utility.yul\":11160:11164   */\n      0x7f\n        /* \"#utility.yul\":11152:11158   */\n      dup3\n        /* \"#utility.yul\":11148:11165   */\n      and\n        /* \"#utility.yul\":11138:11165   */\n      swap2\n      pop\n        /* \"#utility.yul\":11094:11175   */\n    tag_401:\n        /* \"#utility.yul\":11222:11224   */\n      0x20\n        /* \"#utility.yul\":11214:11220   */\n      dup3\n        /* \"#utility.yul\":11211:11225   */\n      lt\n        /* \"#utility.yul\":11191:11209   */\n      dup2\n        /* \"#utility.yul\":11188:11226   */\n      sub\n        /* \"#utility.yul\":11185:11269   */\n      tag_402\n      jumpi\n        /* \"#utility.yul\":11241:11259   */\n      tag_403\n      tag_219\n      jump\t// in\n    tag_403:\n        /* \"#utility.yul\":11185:11269   */\n    tag_402:\n        /* \"#utility.yul\":11006:11275   */\n      pop\n        /* \"#utility.yul\":10955:11275   */\n      swap2\n      swap1\n      pop\n      jump\t// out\n        /* \"#utility.yul\":11281:11429   */\n    tag_220:\n        /* \"#utility.yul\":11383:11394   */\n      0x00\n        /* \"#utility.yul\":11420:11423   */\n      dup2\n        /* \"#utility.yul\":11405:11423   */\n      swap1\n      pop\n        /* \"#utility.yul\":11281:11429   */\n      swap3\n      swap2\n      pop\n      pop\n      jump\t// out\n        /* \"#utility.yul\":11435:11586   */\n    tag_221:\n        /* \"#utility.yul\":11575:11578   */\n      0x3000000000000000000000000000000000000000000000000000000000000000\n        /* \"#utility.yul\":11571:11572   */\n      0x00\n        /* \"#utility.yul\":11563:11569   */\n      dup3\n        /* \"#utility.yul\":11559:11573   */\n      add\n        /* \"#utility.yul\":11552:11579   */\n      mstore\n        /* \"#utility.yul\":11435:11586   */\n      pop\n      jump\t// out\n        /* \"#utility.yul\":11592:11992   */\n    tag_222:\n        /* \"#utility.yul\":11752:11755   */\n      0x00\n        /* \"#utility.yul\":11773:11857   */\n      tag_407\n        /* \"#utility.yul\":11855:11856   */\n      0x01\n        /* \"#utility.yul\":11850:11853   */\n      dup4\n        /* \"#utility.yul\":11773:11857   */\n      tag_220\n      jump\t// in\n    tag_407:\n        /* \"#utility.yul\":11766:11857   */\n      swap2\n      pop\n        /* \"#utility.yul\":11866:11959   */\n      tag_408\n        /* \"#utility.yul\":11955:11958   */\n      dup3\n        /* \"#utility.yul\":11866:11959   */\n      tag_221\n      jump\t// in\n    tag_408:\n        /* \"#utility.yul\":11984:11985   */\n      0x01\n        /* \"#utility.yul\":11979:11982   */\n      dup3\n        /* \"#utility.yul\":11975:11986   */\n      add\n        /* \"#utility.yul\":11968:11986   */\n      swap1\n      pop\n        /* \"#utility.yul\":11592:11992   */\n      swap2\n      swap1\n      pop\n      jump\t// out\n        /* \"#utility.yul\":11998:12379   */\n    tag_87:\n        /* \"#utility.yul\":12183:12186   */\n      0x00\n        /* \"#utility.yul\":12205:12353   */\n      tag_410\n        /* \"#utility.yul\":12349:12352   */\n      dup3\n        /* \"#utility.yul\":12205:12353   */\n      tag_222\n      jump\t// in\n    tag_410:\n        /* \"#utility.yul\":12198:12353   */\n      swap2\n      pop\n        /* \"#utility.yul\":12370:12373   */\n      dup2\n        /* \"#utility.yul\":12363:12373   */\n      swap1\n      pop\n        /* \"#utility.yul\":11998:12379   */\n      swap2\n      swap1\n      pop\n      jump\t// out\n        /* \"#utility.yul\":12385:12526   */\n    tag_223:\n        /* \"#utility.yul\":12434:12438   */\n      0x00\n        /* \"#utility.yul\":12457:12460   */\n      dup2\n        /* \"#utility.yul\":12449:12460   */\n      swap1\n      pop\n        /* \"#utility.yul\":12480:12483   */\n      dup2\n        /* \"#utility.yul\":12477:12478   */\n      0x00\n        /* \"#utility.yul\":12470:12484   */\n      mstore\n        /* \"#utility.yul\":12514:12518   */\n      0x20\n        /* \"#utility.yul\":12511:12512   */\n      0x00\n        /* \"#utility.yul\":12501:12519   */\n      keccak256\n        /* \"#utility.yul\":12493:12519   */\n      swap1\n      pop\n        /* \"#utility.yul\":12385:12526   */\n      swap2\n      swap1\n      pop\n      jump\t// out\n        /* \"#utility.yul\":12556:13430   */\n    tag_224:\n        /* \"#utility.yul\":12659:12662   */\n      0x00\n        /* \"#utility.yul\":12696:12701   */\n      dup2\n        /* \"#utility.yul\":12690:12702   */\n      sload\n        /* \"#utility.yul\":12725:12761   */\n      tag_413\n        /* \"#utility.yul\":12751:12760   */\n      dup2\n        /* \"#utility.yul\":12725:12761   */\n      tag_80\n      jump\t// in\n    tag_413:\n        /* \"#utility.yul\":12777:12866   */\n      tag_414\n        /* \"#utility.yul\":12859:12865   */\n      dup2\n        /* \"#utility.yul\":12854:12857   */\n      dup7\n        /* \"#utility.yul\":12777:12866   */\n      tag_220\n      jump\t// in\n    tag_414:\n        /* \"#utility.yul\":12770:12866   */\n      swap5\n      pop\n        /* \"#utility.yul\":12897:12898   */\n      0x01\n        /* \"#utility.yul\":12886:12895   */\n      dup3\n        /* \"#utility.yul\":12882:12899   */\n      and\n        /* \"#utility.yul\":12913:12914   */\n      0x00\n        /* \"#utility.yul\":12908:13074   */\n      dup2\n      eq\n      tag_416\n      jumpi\n        /* \"#utility.yul\":13088:13089   */\n      0x01\n        /* \"#utility.yul\":13083:13424   */\n      dup2\n      eq\n      tag_417\n      jumpi\n        /* \"#utility.yul\":12875:13424   */\n      jump(tag_415)\n        /* \"#utility.yul\":12908:13074   */\n    tag_416:\n        /* \"#utility.yul\":12992:12996   */\n      0xff\n        /* \"#utility.yul\":12988:12997   */\n      not\n        /* \"#utility.yul\":12977:12986   */\n      dup4\n        /* \"#utility.yul\":12973:12998   */\n      and\n        /* \"#utility.yul\":12968:12971   */\n      dup7\n        /* \"#utility.yul\":12961:12999   */\n      mstore\n        /* \"#utility.yul\":13054:13060   */\n      dup2\n        /* \"#utility.yul\":13047:13061   */\n      iszero\n        /* \"#utility.yul\":13040:13062   */\n      iszero\n        /* \"#utility.yul\":13032:13038   */\n      dup3\n        /* \"#utility.yul\":13028:13063   */\n      mul\n        /* \"#utility.yul\":13023:13026   */\n      dup7\n        /* \"#utility.yul\":13019:13064   */\n      add\n        /* \"#utility.yul\":13012:13064   */\n      swap4\n      pop\n        /* \"#utility.yul\":12908:13074   */\n      jump(tag_415)\n        /* \"#utility.yul\":13083:13424   */\n    tag_417:\n        /* \"#utility.yul\":13150:13188   */\n      tag_418\n        /* \"#utility.yul\":13182:13187   */\n      dup6\n        /* \"#utility.yul\":13150:13188   */\n      tag_223\n      jump\t// in\n    tag_418:\n        /* \"#utility.yul\":13210:13211   */\n      0x00\n        /* \"#utility.yul\":13224:13378   */\n    tag_419:\n        /* \"#utility.yul\":13238:13244   */\n      dup4\n        /* \"#utility.yul\":13235:13236   */\n      dup2\n        /* \"#utility.yul\":13232:13245   */\n      lt\n        /* \"#utility.yul\":13224:13378   */\n      iszero\n      tag_421\n      jumpi\n        /* \"#utility.yul\":13312:13319   */\n      dup2\n        /* \"#utility.yul\":13306:13320   */\n      sload\n        /* \"#utility.yul\":13302:13303   */\n      dup2\n        /* \"#utility.yul\":13297:13300   */\n      dup10\n        /* \"#utility.yul\":13293:13304   */\n      add\n        /* \"#utility.yul\":13286:13321   */\n      mstore\n        /* \"#utility.yul\":13362:13363   */\n      0x01\n        /* \"#utility.yul\":13353:13360   */\n      dup3\n        /* \"#utility.yul\":13349:13364   */\n      add\n        /* \"#utility.yul\":13338:13364   */\n      swap2\n      pop\n        /* \"#utility.yul\":13260:13264   */\n      0x20\n        /* \"#utility.yul\":13257:13258   */\n      dup2\n        /* \"#utility.yul\":13253:13265   */\n      add\n        /* \"#utility.yul\":13248:13265   */\n      swap1\n      pop\n        /* \"#utility.yul\":13224:13378   */\n      jump(tag_419)\n    tag_421:\n        /* \"#utility.yul\":13407:13413   */\n      dup4\n        /* \"#utility.yul\":13402:13405   */\n      dup9\n        /* \"#utility.yul\":13398:13414   */\n      add\n        /* \"#utility.yul\":13391:13414   */\n      swap6\n      pop\n        /* \"#utility.yul\":13090:13424   */\n      pop\n      pop\n        /* \"#utility.yul\":12875:13424   */\n    tag_415:\n      pop\n        /* \"#utility.yul\":12663:13430   */\n      pop\n      pop\n        /* \"#utility.yul\":12556:13430   */\n      swap3\n      swap2\n      pop\n      pop\n      jump\t// out\n        /* \"#utility.yul\":13436:13705   */\n    tag_89:\n        /* \"#utility.yul\":13565:13568   */\n      0x00\n        /* \"#utility.yul\":13587:13679   */\n      tag_423\n        /* \"#utility.yul\":13675:13678   */\n      dup3\n        /* \"#utility.yul\":13666:13672   */\n      dup5\n        /* \"#utility.yul\":13587:13679   */\n      tag_224\n      jump\t// in\n    tag_423:\n        /* \"#utility.yul\":13580:13679   */\n      swap2\n      pop\n        /* \"#utility.yul\":13696:13699   */\n      dup2\n        /* \"#utility.yul\":13689:13699   */\n      swap1\n      pop\n        /* \"#utility.yul\":13436:13705   */\n      swap3\n      swap2\n      pop\n      pop\n      jump\t// out\n        /* \"#utility.yul\":13711:13875   */\n    tag_225:\n        /* \"#utility.yul\":13851:13867   */\n      0x4e6f7420617574686f72697a6564000000000000000000000000000000000000\n        /* \"#utility.yul\":13847:13848   */\n      0x00\n        /* \"#utility.yul\":13839:13845   */\n      dup3\n        /* \"#utility.yul\":13835:13849   */\n      add\n        /* \"#utility.yul\":13828:13868   */\n      mstore\n        /* \"#utility.yul\":13711:13875   */\n      pop\n      jump\t// out\n        /* \"#utility.yul\":13881:14247   */\n    tag_226:\n        /* \"#utility.yul\":14023:14026   */\n      0x00\n        /* \"#utility.yul\":14044:14111   */\n      tag_426\n        /* \"#utility.yul\":14108:14110   */\n      0x0e\n        /* \"#utility.yul\":14103:14106   */\n      dup4\n        /* \"#utility.yul\":14044:14111   */\n      tag_199\n      jump\t// in\n    tag_426:\n        /* \"#utility.yul\":14037:14111   */\n      swap2\n      pop\n        /* \"#utility.yul\":14120:14213   */\n      tag_427\n        /* \"#utility.yul\":14209:14212   */\n      dup3\n        /* \"#utility.yul\":14120:14213   */\n      tag_225\n      jump\t// in\n    tag_427:\n        /* \"#utility.yul\":14238:14240   */\n      0x20\n        /* \"#utility.yul\":14233:14236   */\n      dup3\n        /* \"#utility.yul\":14229:14241   */\n      add\n        /* \"#utility.yul\":14222:14241   */\n      swap1\n      pop\n        /* \"#utility.yul\":13881:14247   */\n      swap2\n      swap1\n      pop\n      jump\t// out\n        /* \"#utility.yul\":14253:14672   */\n    tag_96:\n        /* \"#utility.yul\":14419:14423   */\n      0x00\n        /* \"#utility.yul\":14457:14459   */\n      0x20\n        /* \"#utility.yul\":14446:14455   */\n      dup3\n        /* \"#utility.yul\":14442:14460   */\n      add\n        /* \"#utility.yul\":14434:14460   */\n      swap1\n      pop\n        /* \"#utility.yul\":14506:14515   */\n      dup2\n        /* \"#utility.yul\":14500:14504   */\n      dup2\n        /* \"#utility.yul\":14496:14516   */\n      sub\n        /* \"#utility.yul\":14492:14493   */\n      0x00\n        /* \"#utility.yul\":14481:14490   */\n      dup4\n        /* \"#utility.yul\":14477:14494   */\n      add\n        /* \"#utility.yul\":14470:14517   */\n      mstore\n        /* \"#utility.yul\":14534:14665   */\n      tag_429\n        /* \"#utility.yul\":14660:14664   */\n      dup2\n        /* \"#utility.yul\":14534:14665   */\n      tag_226\n      jump\t// in\n    tag_429:\n        /* \"#utility.yul\":14526:14665   */\n      swap1\n      pop\n        /* \"#utility.yul\":14253:14672   */\n      swap2\n      swap1\n      pop\n      jump\t// out\n        /* \"#utility.yul\":14678:14771   */\n    tag_227:\n        /* \"#utility.yul\":14715:14721   */\n      0x00\n        /* \"#utility.yul\":14762:14764   */\n      0x20\n        /* \"#utility.yul\":14757:14759   */\n      0x1f\n        /* \"#utility.yul\":14750:14755   */\n      dup4\n        /* \"#utility.yul\":14746:14760   */\n      add\n        /* \"#utility.yul\":14742:14765   */\n      div\n        /* \"#utility.yul\":14732:14765   */\n      swap1\n      pop\n        /* \"#utility.yul\":14678:14771   */\n      swap2\n      swap1\n      pop\n      jump\t// out\n        /* \"#utility.yul\":14777:14884   */\n    tag_228:\n        /* \"#utility.yul\":14821:14829   */\n      0x00\n        /* \"#utility.yul\":14871:14876   */\n      dup3\n        /* \"#utility.yul\":14865:14869   */\n      dup3\n        /* \"#utility.yul\":14861:14877   */\n      shl\n        /* \"#utility.yul\":14840:14877   */\n      swap1\n      pop\n        /* \"#utility.yul\":14777:14884   */\n      swap3\n      swap2\n      pop\n      pop\n      jump\t// out\n        /* \"#utility.yul\":14890:15283   */\n    tag_229:\n        /* \"#utility.yul\":14959:14965   */\n      0x00\n        /* \"#utility.yul\":15009:15010   */\n      0x08\n        /* \"#utility.yul\":14997:15007   */\n      dup4\n        /* \"#utility.yul\":14993:15011   */\n      mul\n        /* \"#utility.yul\":15032:15129   */\n      tag_433\n        /* \"#utility.yul\":15062:15128   */\n      0xffffffffffffffffffffffffffffffffffffffffffffffffffffffffffffffff\n        /* \"#utility.yul\":15051:15060   */\n      dup3\n        /* \"#utility.yul\":15032:15129   */\n      tag_228\n      jump\t// in\n    tag_433:\n        /* \"#utility.yul\":15150:15189   */\n      tag_434\n        /* \"#utility.yul\":15180:15188   */\n      dup7\n        /* \"#utility.yul\":15169:15178   */\n      dup4\n        /* \"#utility.yul\":15150:15189   */\n      tag_228\n      jump\t// in\n    tag_434:\n        /* \"#utility.yul\":15138:15189   */\n      swap6\n      pop\n        /* \"#utility.yul\":15222:15226   */\n      dup1\n        /* \"#utility.yul\":15218:15227   */\n      not\n        /* \"#utility.yul\":15211:15216   */\n      dup5\n        /* \"#utility.yul\":15207:15228   */\n      and\n        /* \"#utility.yul\":15198:15228   */\n      swap4\n      pop\n        /* \"#utility.yul\":15271:15275   */\n      dup1\n        /* \"#utility.yul\":15261:15269   */\n      dup7\n        /* \"#utility.yul\":15257:15276   */\n      and\n        /* \"#utility.yul\":15250:15255   */\n      dup5\n        /* \"#utility.yul\":15247:15277   */\n      or\n        /* \"#utility.yul\":15237:15277   */\n      swap3\n      pop\n        /* \"#utility.yul\":14966:15283   */\n      pop\n      pop\n        /* \"#utility.yul\":14890:15283   */\n      swap4\n      swap3\n      pop\n      pop\n      pop\n      jump\t// out\n        /* \"#utility.yul\":15289:15349   */\n    tag_230:\n        /* \"#utility.yul\":15317:15320   */\n      0x00\n        /* \"#utility.yul\":15338:15343   */\n      dup2\n        /* \"#utility.yul\":15331:15343   */\n      swap1\n      pop\n        /* \"#utility.yul\":15289:15349   */\n      swap2\n      swap1\n      pop\n      jump\t// out\n        /* \"#utility.yul\":15355:15497   */\n    tag_231:\n        /* \"#utility.yul\":15405:15414   */\n      0x00\n        /* \"#utility.yul\":15438:15491   */\n      tag_437\n        /* \"#utility.yul\":15456:15490   */\n      tag_438\n        /* \"#utility.yul\":15465:15489   */\n      tag_439\n        /* \"#utility.yul\":15483:15488   */\n      dup5\n        /* \"#utility.yul\":15465:15489   */\n      tag_196\n      jump\t// in\n    tag_439:\n        /* \"#utility.yul\":15456:15490   */\n      tag_230\n      jump\t// in\n    tag_438:\n        /* \"#utility.yul\":15438:15491   */\n      tag_196\n      jump\t// in\n    tag_437:\n        /* \"#utility.yul\":15425:15491   */\n      swap1\n      pop\n        /* \"#utility.yul\":15355:15497   */\n      swap2\n      swap1\n      pop\n      jump\t// out\n        /* \"#utility.yul\":15503:15578   */\n    tag_232:\n        /* \"#utility.yul\":15546:15549   */\n      0x00\n        /* \"#utility.yul\":15567:15572   */\n      dup2\n        /* \"#utility.yul\":15560:15572   */\n      swap1\n      pop\n        /* \"#utility.yul\":15503:15578   */\n      swap2\n      swap1\n      pop\n      jump\t// out\n        /* \"#utility.yul\":15584:15853   */\n    tag_233:\n        /* \"#utility.yul\":15694:15733   */\n      tag_442\n        /* \"#utility.yul\":15725:15732   */\n      dup4\n        /* \"#utility.yul\":15694:15733   */\n      tag_231\n      jump\t// in\n    tag_442:\n        /* \"#utility.yul\":15755:15846   */\n      tag_443\n        /* \"#utility.yul\":15804:15845   */\n      tag_444\n        /* \"#utility.yul\":15828:15844   */\n      dup3\n        /* \"#utility.yul\":15804:15845   */\n      tag_232\n      jump\t// in\n    tag_444:\n        /* \"#utility.yul\":15796:15802   */\n      dup5\n        /* \"#utility.yul\":15789:15793   */\n      dup5\n        /* \"#utility.yul\":15783:15794   */\n      sload\n        /* \"#utility.yul\":15755:15846   */\n      tag_229\n      jump\t// in\n    tag_443:\n        /* \"#utility.yul\":15749:15753   */\n      dup3\n        /* \"#utility.yul\":15742:15847   */\n      sstore\n        /* \"#utility.yul\":15660:15853   */\n      pop\n        /* \"#utility.yul\":15584:15853   */\n      pop\n      pop\n      pop\n      jump\t// out\n        /* \"#utility.yul\":15859:15932   */\n    tag_234:\n        /* \"#utility.yul\":15904:15907   */\n      0x00\n        /* \"#utility.yul\":15859:15932   */\n      swap1\n      jump\t// out\n        /* \"#utility.yul\":15938:16127   */\n    tag_235:\n        /* \"#utility.yul\":16015:16047   */\n      tag_447\n      tag_234\n      jump\t// in\n    tag_447:\n        /* \"#utility.yul\":16056:16121   */\n      tag_448\n        /* \"#utility.yul\":16114:16120   */\n      dup2\n        /* \"#utility.yul\":16106:16112   */\n      dup5\n        /* \"#utility.yul\":16100:16104   */\n      dup5\n        /* \"#utility.yul\":16056:16121   */\n      tag_233\n      jump\t// in\n    tag_448:\n        /* \"#utility.yul\":15991:16127   */\n      pop\n        /* \"#utility.yul\":15938:16127   */\n      pop\n      pop\n      jump\t// out\n        /* \"#utility.yul\":16133:16319   */\n    tag_236:\n        /* \"#utility.yul\":16193:16313   */\n    tag_450:\n        /* \"#utility.yul\":16210:16213   */\n      dup2\n        /* \"#utility.yul\":16203:16208   */\n      dup2\n        /* \"#utility.yul\":16200:16214   */\n      lt\n        /* \"#utility.yul\":16193:16313   */\n      iszero\n      tag_452\n      jumpi\n        /* \"#utility.yul\":16264:16303   */\n      tag_453\n        /* \"#utility.yul\":16301:16302   */\n      0x00\n        /* \"#utility.yul\":16294:16299   */\n      dup3\n        /* \"#utility.yul\":16264:16303   */\n      tag_235\n      jump\t// in\n    tag_453:\n        /* \"#utility.yul\":16237:16238   */\n      0x01\n        /* \"#utility.yul\":16230:16235   */\n      dup2\n        /* \"#utility.yul\":16226:16239   */\n      add\n        /* \"#utility.yul\":16217:16239   */\n      swap1\n      pop\n        /* \"#utility.yul\":16193:16313   */\n      jump(tag_450)\n    tag_452:\n        /* \"#utility.yul\":16133:16319   */\n      pop\n      pop\n      jump\t// out\n        /* \"#utility.yul\":16325:16868   */\n    tag_237:\n        /* \"#utility.yul\":16426:16428   */\n      0x1f\n        /* \"#utility.yul\":16421:16424   */\n      dup3\n        /* \"#utility.yul\":16418:16429   */\n      gt\n        /* \"#utility.yul\":16415:16861   */\n      iszero\n      tag_455\n      jumpi\n        /* \"#utility.yul\":16460:16498   */\n      tag_456\n        /* \"#utility.yul\":16492:16497   */\n      dup2\n        /* \"#utility.yul\":16460:16498   */\n      tag_223\n      jump\t// in\n    tag_456:\n        /* \"#utility.yul\":16544:16573   */\n      tag_457\n        /* \"#utility.yul\":16562:16572   */\n      dup5\n        /* \"#utility.yul\":16544:16573   */\n      tag_227\n      jump\t// in\n    tag_457:\n        /* \"#utility.yul\":16534:16542   */\n      dup2\n        /* \"#utility.yul\":16530:16574   */\n      add\n        /* \"#utility.yul\":16727:16729   */\n      0x20\n        /* \"#utility.yul\":16715:16725   */\n      dup6\n        /* \"#utility.yul\":16712:16730   */\n      lt\n        /* \"#utility.yul\":16709:16758   */\n      iszero\n      tag_458\n      jumpi\n        /* \"#utility.yul\":16748:16756   */\n      dup2\n        /* \"#utility.yul\":16733:16756   */\n      swap1\n      pop\n        /* \"#utility.yul\":16709:16758   */\n    tag_458:\n        /* \"#utility.yul\":16771:16851   */\n      tag_459\n        /* \"#utility.yul\":16827:16849   */\n      tag_460\n        /* \"#utility.yul\":16845:16848   */\n      dup6\n        /* \"#utility.yul\":16827:16849   */\n      tag_227\n      jump\t// in\n    tag_460:\n        /* \"#utility.yul\":16817:16825   */\n      dup4\n        /* \"#utility.yul\":16813:16850   */\n      add\n        /* \"#utility.yul\":16800:16811   */\n      dup3\n        /* \"#utility.yul\":16771:16851   */\n      tag_236\n      jump\t// in\n    tag_459:\n        /* \"#utility.yul\":16430:16861   */\n      pop\n      pop\n        /* \"#utility.yul\":16415:16861   */\n    tag_455:\n        /* \"#utility.yul\":16325:16868   */\n      pop\n      pop\n      pop\n      jump\t// out\n        /* \"#utility.yul\":16874:16991   */\n    tag_238:\n        /* \"#utility.yul\":16928:16936   */\n      0x00\n        /* \"#utility.yul\":16978:16983   */\n      dup3\n        /* \"#utility.yul\":16972:16976   */\n      dup3\n        /* \"#utility.yul\":16968:16984   */\n      shr\n        /* \"#utility.yul\":16947:16984   */\n      swap1\n      pop\n        /* \"#utility.yul\":16874:16991   */\n      swap3\n      swap2\n      pop\n      pop\n      jump\t// out\n        /* \"#utility.yul\":16997:17166   */\n    tag_239:\n        /* \"#utility.yul\":17041:17047   */\n      0x00\n        /* \"#utility.yul\":17074:17125   */\n      tag_463\n        /* \"#utility.yul\":17122:17123   */\n      0x00\n        /* \"#utility.yul\":17118:17124   */\n      not\n        /* \"#utility.yul\":17110:17115   */\n      dup5\n        /* \"#utility.yul\":17107:17108   */\n      0x08\n        /* \"#utility.yul\":17103:17116   */\n      mul\n        /* \"#utility.yul\":17074:17125   */\n      tag_238\n      jump\t// in\n    tag_463:\n        /* \"#utility.yul\":17070:17126   */\n      not\n        /* \"#utility.yul\":17155:17159   */\n      dup1\n        /* \"#utility.yul\":17149:17153   */\n      dup4\n        /* \"#utility.yul\":17145:17160   */\n      and\n        /* \"#utility.yul\":17135:17160   */\n      swap2\n      pop\n        /* \"#utility.yul\":17048:17166   */\n      pop\n        /* \"#utility.yul\":16997:17166   */\n      swap3\n      swap2\n      pop\n      pop\n      jump\t// out\n        /* \"#utility.yul\":17171:17466   */\n    tag_240:\n        /* \"#utility.yul\":17247:17251   */\n      0x00\n        /* \"#utility.yul\":17393:17422   */\n      tag_465\n        /* \"#utility.yul\":17418:17421   */\n      dup4\n        /* \"#utility.yul\":17412:17416   */\n      dup4\n        /* \"#utility.yul\":17393:17422   */\n      tag_239\n      jump\t// in\n    tag_465:\n        /* \"#utility.yul\":17385:17422   */\n      swap2\n      pop\n        /* \"#utility.yul\":17455:17458   */\n      dup3\n        /* \"#utility.yul\":17452:17453   */\n      0x02\n        /* \"#utility.yul\":17448:17459   */\n      mul\n        /* \"#utility.yul\":17442:17446   */\n      dup3\n        /* \"#utility.yul\":17439:17460   */\n      or\n        /* \"#utility.yul\":17431:17460   */\n      swap1\n      pop\n        /* \"#utility.yul\":17171:17466   */\n      swap3\n      swap2\n      pop\n      pop\n      jump\t// out\n        /* \"#utility.yul\":17471:18866   */\n    tag_99:\n        /* \"#utility.yul\":17588:17625   */\n      tag_467\n        /* \"#utility.yul\":17621:17624   */\n      dup3\n        /* \"#utility.yul\":17588:17625   */\n      tag_198\n      jump\t// in\n    tag_467:\n        /* \"#utility.yul\":17690:17708   */\n      0xffffffffffffffff\n        /* \"#utility.yul\":17682:17688   */\n      dup2\n        /* \"#utility.yul\":17679:17709   */\n      gt\n        /* \"#utility.yul\":17676:17732   */\n      iszero\n      tag_468\n      jumpi\n        /* \"#utility.yul\":17712:17730   */\n      tag_469\n      tag_205\n      jump\t// in\n    tag_469:\n        /* \"#utility.yul\":17676:17732   */\n    tag_468:\n        /* \"#utility.yul\":17756:17794   */\n      tag_470\n        /* \"#utility.yul\":17788:17792   */\n      dup3\n        /* \"#utility.yul\":17782:17793   */\n      sload\n        /* \"#utility.yul\":17756:17794   */\n      tag_80\n      jump\t// in\n    tag_470:\n        /* \"#utility.yul\":17841:17908   */\n      tag_471\n        /* \"#utility.yul\":17901:17907   */\n      dup3\n        /* \"#utility.yul\":17893:17899   */\n      dup3\n        /* \"#utility.yul\":17887:17891   */\n      dup6\n        /* \"#utility.yul\":17841:17908   */\n      tag_237\n      jump\t// in\n    tag_471:\n        /* \"#utility.yul\":17935:17936   */\n      0x00\n        /* \"#utility.yul\":17959:17963   */\n      0x20\n        /* \"#utility.yul\":17946:17963   */\n      swap1\n      pop\n        /* \"#utility.yul\":17991:17993   */\n      0x1f\n        /* \"#utility.yul\":17983:17989   */\n      dup4\n        /* \"#utility.yul\":17980:17994   */\n      gt\n        /* \"#utility.yul\":18008:18009   */\n      0x01\n        /* \"#utility.yul\":18003:18621   */\n      dup2\n      eq\n      tag_473\n      jumpi\n        /* \"#utility.yul\":18665:18666   */\n      0x00\n        /* \"#utility.yul\":18682:18688   */\n      dup5\n        /* \"#utility.yul\":18679:18756   */\n      iszero\n      tag_474\n      jumpi\n        /* \"#utility.yul\":18731:18740   */\n      dup3\n        /* \"#utility.yul\":18726:18729   */\n      dup8\n        /* \"#utility.yul\":18722:18741   */\n      add\n        /* \"#utility.yul\":18716:18742   */\n      mload\n        /* \"#utility.yul\":18707:18742   */\n      swap1\n      pop\n        /* \"#utility.yul\":18679:18756   */\n    tag_474:\n        /* \"#utility.yul\":18782:18849   */\n      tag_475\n        /* \"#utility.yul\":18842:18848   */\n      dup6\n        /* \"#utility.yul\":18835:18840   */\n      dup3\n        /* \"#utility.yul\":18782:18849   */\n      tag_240\n      jump\t// in\n    tag_475:\n        /* \"#utility.yul\":18776:18780   */\n      dup7\n        /* \"#utility.yul\":18769:18850   */\n      sstore\n        /* \"#utility.yul\":18638:18860   */\n      pop\n        /* \"#utility.yul\":17973:18860   */\n      jump(tag_472)\n        /* \"#utility.yul\":18003:18621   */\n    tag_473:\n        /* \"#utility.yul\":18055:18059   */\n      0x1f\n        /* \"#utility.yul\":18051:18060   */\n      not\n        /* \"#utility.yul\":18043:18049   */\n      dup5\n        /* \"#utility.yul\":18039:18061   */\n      and\n        /* \"#utility.yul\":18089:18126   */\n      tag_476\n        /* \"#utility.yul\":18121:18125   */\n      dup7\n        /* \"#utility.yul\":18089:18126   */\n      tag_223\n      jump\t// in\n    tag_476:\n        /* \"#utility.yul\":18148:18149   */\n      0x00\n        /* \"#utility.yul\":18162:18370   */\n    tag_477:\n        /* \"#utility.yul\":18176:18183   */\n      dup3\n        /* \"#utility.yul\":18173:18174   */\n      dup2\n        /* \"#utility.yul\":18170:18184   */\n      lt\n        /* \"#utility.yul\":18162:18370   */\n      iszero\n      tag_479\n      jumpi\n        /* \"#utility.yul\":18255:18264   */\n      dup5\n        /* \"#utility.yul\":18250:18253   */\n      dup10\n        /* \"#utility.yul\":18246:18265   */\n      add\n        /* \"#utility.yul\":18240:18266   */\n      mload\n        /* \"#utility.yul\":18232:18238   */\n      dup3\n        /* \"#utility.yul\":18225:18267   */\n      sstore\n        /* \"#utility.yul\":18306:18307   */\n      0x01\n        /* \"#utility.yul\":18298:18304   */\n      dup3\n        /* \"#utility.yul\":18294:18308   */\n      add\n        /* \"#utility.yul\":18284:18308   */\n      swap2\n      pop\n        /* \"#utility.yul\":18353:18355   */\n      0x20\n        /* \"#utility.yul\":18342:18351   */\n      dup6\n        /* \"#utility.yul\":18338:18356   */\n      add\n        /* \"#utility.yul\":18325:18356   */\n      swap5\n      pop\n        /* \"#utility.yul\":18199:18203   */\n      0x20\n        /* \"#utility.yul\":18196:18197   */\n      dup2\n        /* \"#utility.yul\":18192:18204   */\n      add\n        /* \"#utility.yul\":18187:18204   */\n      swap1\n      pop\n        /* \"#utility.yul\":18162:18370   */\n      jump(tag_477)\n    tag_479:\n        /* \"#utility.yul\":18398:18404   */\n      dup7\n        /* \"#utility.yul\":18389:18396   */\n      dup4\n        /* \"#utility.yul\":18386:18405   */\n      lt\n        /* \"#utility.yul\":18383:18562   */\n      iszero\n      tag_480\n      jumpi\n        /* \"#utility.yul\":18456:18465   */\n      dup5\n        /* \"#utility.yul\":18451:18454   */\n      dup10\n        /* \"#utility.yul\":18447:18466   */\n      add\n        /* \"#utility.yul\":18441:18467   */\n      mload\n        /* \"#utility.yul\":18499:18547   */\n      tag_481\n        /* \"#utility.yul\":18541:18545   */\n      0x1f\n        /* \"#utility.yul\":18533:18539   */\n      dup10\n        /* \"#utility.yul\":18529:18546   */\n      and\n        /* \"#utility.yul\":18518:18527   */\n      dup3\n        /* \"#utility.yul\":18499:18547   */\n      tag_239\n      jump\t// in\n    tag_481:\n        /* \"#utility.yul\":18491:18497   */\n      dup4\n        /* \"#utility.yul\":18484:18548   */\n      sstore\n        /* \"#utility.yul\":18406:18562   */\n      pop\n        /* \"#utility.yul\":18383:18562   */\n    tag_480:\n        /* \"#utility.yul\":18608:18609   */\n      0x01\n        /* \"#utility.yul\":18604:18605   */\n      0x02\n        /* \"#utility.yul\":18596:18602   */\n      dup9\n        /* \"#utility.yul\":18592:18606   */\n      mul\n        /* \"#utility.yul\":18588:18610   */\n      add\n        /* \"#utility.yul\":18582:18586   */\n      dup9\n        /* \"#utility.yul\":18575:18611   */\n      sstore\n        /* \"#utility.yul\":18010:18621   */\n      pop\n      pop\n      pop\n        /* \"#utility.yul\":17973:18860   */\n    tag_472:\n      pop\n        /* \"#utility.yul\":17563:18866   */\n      pop\n      pop\n      pop\n        /* \"#utility.yul\":17471:18866   */\n      pop\n      pop\n      jump\t// out\n        /* \"#utility.yul\":18872:19262   */\n    tag_241:\n        /* \"#utility.yul\":18978:18981   */\n      0x00\n        /* \"#utility.yul\":19006:19045   */\n      tag_483\n        /* \"#utility.yul\":19039:19044   */\n      dup3\n        /* \"#utility.yul\":19006:19045   */\n      tag_198\n      jump\t// in\n    tag_483:\n        /* \"#utility.yul\":19061:19150   */\n      tag_484\n        /* \"#utility.yul\":19143:19149   */\n      dup2\n        /* \"#utility.yul\":19138:19141   */\n      dup6\n        /* \"#utility.yul\":19061:19150   */\n      tag_220\n      jump\t// in\n    tag_484:\n        /* \"#utility.yul\":19054:19150   */\n      swap4\n      pop\n        /* \"#utility.yul\":19159:19224   */\n      tag_485\n        /* \"#utility.yul\":19217:19223   */\n      dup2\n        /* \"#utility.yul\":19212:19215   */\n      dup6\n        /* \"#utility.yul\":19205:19209   */\n      0x20\n        /* \"#utility.yul\":19198:19203   */\n      dup7\n        /* \"#utility.yul\":19194:19210   */\n      add\n        /* \"#utility.yul\":19159:19224   */\n      tag_200\n      jump\t// in\n    tag_485:\n        /* \"#utility.yul\":19249:19255   */\n      dup1\n        /* \"#utility.yul\":19244:19247   */\n      dup5\n        /* \"#utility.yul\":19240:19256   */\n      add\n        /* \"#utility.yul\":19233:19256   */\n      swap2\n      pop\n        /* \"#utility.yul\":18982:19262   */\n      pop\n        /* \"#utility.yul\":18872:19262   */\n      swap3\n      swap2\n      pop\n      pop\n      jump\t// out\n        /* \"#utility.yul\":19268:19543   */\n    tag_122:\n        /* \"#utility.yul\":19400:19403   */\n      0x00\n        /* \"#utility.yul\":19422:19517   */\n      tag_487\n        /* \"#utility.yul\":19513:19516   */\n      dup3\n        /* \"#utility.yul\":19504:19510   */\n      dup5\n        /* \"#utility.yul\":19422:19517   */\n      tag_241\n      jump\t// in\n    tag_487:\n        /* \"#utility.yul\":19415:19517   */\n      swap2\n      pop\n        /* \"#utility.yul\":19534:19537   */\n      dup2\n        /* \"#utility.yul\":19527:19537   */\n      swap1\n      pop\n        /* \"#utility.yul\":19268:19543   */\n      swap3\n      swap2\n      pop\n      pop\n      jump\t// out\n        /* \"#utility.yul\":19549:19700   */\n    tag_242:\n        /* \"#utility.yul\":19689:19692   */\n      0x3100000000000000000000000000000000000000000000000000000000000000\n        /* \"#utility.yul\":19685:19686   */\n      0x00\n        /* \"#utility.yul\":19677:19683   */\n      dup3\n        /* \"#utility.yul\":19673:19687   */\n      add\n        /* \"#utility.yul\":19666:19693   */\n      mstore\n        /* \"#utility.yul\":19549:19700   */\n      pop\n      jump\t// out\n        /* \"#utility.yul\":19706:20106   */\n    tag_243:\n        /* \"#utility.yul\":19866:19869   */\n      0x00\n        /* \"#utility.yul\":19887:19971   */\n      tag_490\n        /* \"#utility.yul\":19969:19970   */\n      0x01\n        /* \"#utility.yul\":19964:19967   */\n      dup4\n        /* \"#utility.yul\":19887:19971   */\n      tag_220\n      jump\t// in\n    tag_490:\n        /* \"#utility.yul\":19880:19971   */\n      swap2\n      pop\n        /* \"#utility.yul\":19980:20073   */\n      tag_491\n        /* \"#utility.yul\":20069:20072   */\n      dup3\n        /* \"#utility.yul\":19980:20073   */\n      tag_242\n      jump\t// in\n    tag_491:\n        /* \"#utility.yul\":20098:20099   */\n      0x01\n        /* \"#utility.yul\":20093:20096   */\n      dup3\n        /* \"#utility.yul\":20089:20100   */\n      add\n        /* \"#utility.yul\":20082:20100   */\n      swap1\n      pop\n        /* \"#utility.yul\":19706:20106   */\n      swap2\n      swap1\n      pop\n      jump\t// out\n        /* \"#utility.yul\":20112:20493   */\n    tag_125:\n        /* \"#utility.yul\":20297:20300   */\n      0x00\n        /* \"#utility.yul\":20319:20467   */\n      tag_493\n        /* \"#utility.yul\":20463:20466   */\n      dup3\n        /* \"#utility.yul\":20319:20467   */\n      tag_243\n      jump\t// in\n    tag_493:\n        /* \"#utility.yul\":20312:20467   */\n      swap2\n      pop\n        /* \"#utility.yul\":20484:20487   */\n      dup2\n        /* \"#utility.yul\":20477:20487   */\n      swap1\n      pop\n        /* \"#utility.yul\":20112:20493   */\n      swap2\n      swap1\n      pop\n      jump\t// out\n        /* \"#utility.yul\":20499:20672   */\n    tag_244:\n        /* \"#utility.yul\":20639:20664   */\n      0x4d6f6465206d75737420626520273027206f7220273127000000000000000000\n        /* \"#utility.yul\":20635:20636   */\n      0x00\n        /* \"#utility.yul\":20627:20633   */\n      dup3\n        /* \"#utility.yul\":20623:20637   */\n      add\n        /* \"#utility.yul\":20616:20665   */\n      mstore\n        /* \"#utility.yul\":20499:20672   */\n      pop\n      jump\t// out\n        /* \"#utility.yul\":20678:21044   */\n    tag_245:\n        /* \"#utility.yul\":20820:20823   */\n      0x00\n        /* \"#utility.yul\":20841:20908   */\n      tag_496\n        /* \"#utility.yul\":20905:20907   */\n      0x17\n        /* \"#utility.yul\":20900:20903   */\n      dup4\n        /* \"#utility.yul\":20841:20908   */\n      tag_199\n      jump\t// in\n    tag_496:\n        /* \"#utility.yul\":20834:20908   */\n      swap2\n      pop\n        /* \"#utility.yul\":20917:21010   */\n      tag_497\n        /* \"#utility.yul\":21006:21009   */\n      dup3\n        /* \"#utility.yul\":20917:21010   */\n      tag_244\n      jump\t// in\n    tag_497:\n        /* \"#utility.yul\":21035:21037   */\n      0x20\n        /* \"#utility.yul\":21030:21033   */\n      dup3\n        /* \"#utility.yul\":21026:21038   */\n      add\n        /* \"#utility.yul\":21019:21038   */\n      swap1\n      pop\n        /* \"#utility.yul\":20678:21044   */\n      swap2\n      swap1\n      pop\n      jump\t// out\n        /* \"#utility.yul\":21050:21469   */\n    tag_129:\n        /* \"#utility.yul\":21216:21220   */\n      0x00\n        /* \"#utility.yul\":21254:21256   */\n      0x20\n        /* \"#utility.yul\":21243:21252   */\n      dup3\n        /* \"#utility.yul\":21239:21257   */\n      add\n        /* \"#utility.yul\":21231:21257   */\n      swap1\n      pop\n        /* \"#utility.yul\":21303:21312   */\n      dup2\n        /* \"#utility.yul\":21297:21301   */\n      dup2\n        /* \"#utility.yul\":21293:21313   */\n      sub\n        /* \"#utility.yul\":21289:21290   */\n      0x00\n        /* \"#utility.yul\":21278:21287   */\n      dup4\n        /* \"#utility.yul\":21274:21291   */\n      add\n        /* \"#utility.yul\":21267:21314   */\n      mstore\n        /* \"#utility.yul\":21331:21462   */\n      tag_499\n        /* \"#utility.yul\":21457:21461   */\n      dup2\n        /* \"#utility.yul\":21331:21462   */\n      tag_245\n      jump\t// in\n    tag_499:\n        /* \"#utility.yul\":21323:21462   */\n      swap1\n      pop\n        /* \"#utility.yul\":21050:21469   */\n      swap2\n      swap1\n      pop\n      jump\t// out\n        /* \"#utility.yul\":21475:21655   */\n    tag_143:\n        /* \"#utility.yul\":21523:21600   */\n      0x4e487b7100000000000000000000000000000000000000000000000000000000\n        /* \"#utility.yul\":21520:21521   */\n      0x00\n        /* \"#utility.yul\":21513:21601   */\n      mstore\n        /* \"#utility.yul\":21620:21624   */\n      0x32\n        /* \"#utility.yul\":21617:21618   */\n      0x04\n        /* \"#utility.yul\":21610:21625   */\n      mstore\n        /* \"#utility.yul\":21644:21648   */\n      0x24\n        /* \"#utility.yul\":21641:21642   */\n      0x00\n        /* \"#utility.yul\":21634:21649   */\n      revert\n        /* \"#utility.yul\":21661:21976   */\n    tag_246:\n        /* \"#utility.yul\":21801:21867   */\n      0x3c747220636c6173733d227461626c652d726f77206c696768742d6267206c69\n        /* \"#utility.yul\":21797:21798   */\n      0x00\n        /* \"#utility.yul\":21789:21795   */\n      dup3\n        /* \"#utility.yul\":21785:21799   */\n      add\n        /* \"#utility.yul\":21778:21868   */\n      mstore\n        /* \"#utility.yul\":21902:21968   */\n      0x6768742d626f72646572206c696768742d74657874223e000000000000000000\n        /* \"#utility.yul\":21897:21899   */\n      0x20\n        /* \"#utility.yul\":21889:21895   */\n      dup3\n        /* \"#utility.yul\":21885:21900   */\n      add\n        /* \"#utility.yul\":21878:21969   */\n      mstore\n        /* \"#utility.yul\":21661:21976   */\n      pop\n      jump\t// out\n        /* \"#utility.yul\":21982:22384   */\n    tag_247:\n        /* \"#utility.yul\":22142:22145   */\n      0x00\n        /* \"#utility.yul\":22163:22248   */\n      tag_503\n        /* \"#utility.yul\":22245:22247   */\n      0x37\n        /* \"#utility.yul\":22240:22243   */\n      dup4\n        /* \"#utility.yul\":22163:22248   */\n      tag_220\n      jump\t// in\n    tag_503:\n        /* \"#utility.yul\":22156:22248   */\n      swap2\n      pop\n        /* \"#utility.yul\":22257:22350   */\n      tag_504\n        /* \"#utility.yul\":22346:22349   */\n      dup3\n        /* \"#utility.yul\":22257:22350   */\n      tag_246\n      jump\t// in\n    tag_504:\n        /* \"#utility.yul\":22375:22377   */\n      0x37\n        /* \"#utility.yul\":22370:22373   */\n      dup3\n        /* \"#utility.yul\":22366:22378   */\n      add\n        /* \"#utility.yul\":22359:22378   */\n      swap1\n      pop\n        /* \"#utility.yul\":21982:22384   */\n      swap2\n      swap1\n      pop\n      jump\t// out\n        /* \"#utility.yul\":22390:22705   */\n    tag_248:\n        /* \"#utility.yul\":22530:22596   */\n      0x3c746420636c6173733d226c696768742d6267222077696474683d2233302522\n        /* \"#utility.yul\":22526:22527   */\n      0x00\n        /* \"#utility.yul\":22518:22524   */\n      dup3\n        /* \"#utility.yul\":22514:22528   */\n      add\n        /* \"#utility.yul\":22507:22597   */\n      mstore\n        /* \"#utility.yul\":22631:22697   */\n      0x20616c69676e3d2263656e746572223e00000000000000000000000000000000\n        /* \"#utility.yul\":22626:22628   */\n      0x20\n        /* \"#utility.yul\":22618:22624   */\n      dup3\n        /* \"#utility.yul\":22614:22629   */\n      add\n        /* \"#utility.yul\":22607:22698   */\n      mstore\n        /* \"#utility.yul\":22390:22705   */\n      pop\n      jump\t// out\n        /* \"#utility.yul\":22711:23113   */\n    tag_249:\n        /* \"#utility.yul\":22871:22874   */\n      0x00\n        /* \"#utility.yul\":22892:22977   */\n      tag_507\n        /* \"#utility.yul\":22974:22976   */\n      0x30\n        /* \"#utility.yul\":22969:22972   */\n      dup4\n        /* \"#utility.yul\":22892:22977   */\n      tag_220\n      jump\t// in\n    tag_507:\n        /* \"#utility.yul\":22885:22977   */\n      swap2\n      pop\n        /* \"#utility.yul\":22986:23079   */\n      tag_508\n        /* \"#utility.yul\":23075:23078   */\n      dup3\n        /* \"#utility.yul\":22986:23079   */\n      tag_248\n      jump\t// in\n    tag_508:\n        /* \"#utility.yul\":23104:23106   */\n      0x30\n        /* \"#utility.yul\":23099:23102   */\n      dup3\n        /* \"#utility.yul\":23095:23107   */\n      add\n        /* \"#utility.yul\":23088:23107   */\n      swap1\n      pop\n        /* \"#utility.yul\":22711:23113   */\n      swap2\n      swap1\n      pop\n      jump\t// out\n        /* \"#utility.yul\":23119:23333   */\n    tag_250:\n        /* \"#utility.yul\":23259:23325   */\n      0x3c666f6e7420636c6173733d22736d616c6c5f74657874223e00000000000000\n        /* \"#utility.yul\":23255:23256   */\n      0x00\n        /* \"#utility.yul\":23247:23253   */\n      dup3\n        /* \"#utility.yul\":23243:23257   */\n      add\n        /* \"#utility.yul\":23236:23326   */\n      mstore\n        /* \"#utility.yul\":23119:23333   */\n      pop\n      jump\t// out\n        /* \"#utility.yul\":23339:23741   */\n    tag_251:\n        /* \"#utility.yul\":23499:23502   */\n      0x00\n        /* \"#utility.yul\":23520:23605   */\n      tag_511\n        /* \"#utility.yul\":23602:23604   */\n      0x19\n        /* \"#utility.yul\":23597:23600   */\n      dup4\n        /* \"#utility.yul\":23520:23605   */\n      tag_220\n      jump\t// in\n    tag_511:\n        /* \"#utility.yul\":23513:23605   */\n      swap2\n      pop\n        /* \"#utility.yul\":23614:23707   */\n      tag_512\n        /* \"#utility.yul\":23703:23706   */\n      dup3\n        /* \"#utility.yul\":23614:23707   */\n      tag_250\n      jump\t// in\n    tag_512:\n        /* \"#utility.yul\":23732:23734   */\n      0x19\n        /* \"#utility.yul\":23727:23730   */\n      dup3\n        /* \"#utility.yul\":23723:23735   */\n      add\n        /* \"#utility.yul\":23716:23735   */\n      swap1\n      pop\n        /* \"#utility.yul\":23339:23741   */\n      swap2\n      swap1\n      pop\n      jump\t// out\n        /* \"#utility.yul\":23747:24062   */\n    tag_252:\n        /* \"#utility.yul\":23887:23953   */\n      0x3c6120636c6173733d226c696768742d6c696e6b22207461726765743d225f62\n        /* \"#utility.yul\":23883:23884   */\n      0x00\n        /* \"#utility.yul\":23875:23881   */\n      dup3\n        /* \"#utility.yul\":23871:23885   */\n      add\n        /* \"#utility.yul\":23864:23954   */\n      mstore\n        /* \"#utility.yul\":23988:24054   */\n      0x6c616e6b2220687265663d220000000000000000000000000000000000000000\n        /* \"#utility.yul\":23983:23985   */\n      0x20\n        /* \"#utility.yul\":23975:23981   */\n      dup3\n        /* \"#utility.yul\":23971:23986   */\n      add\n        /* \"#utility.yul\":23964:24055   */\n      mstore\n        /* \"#utility.yul\":23747:24062   */\n      pop\n      jump\t// out\n        /* \"#utility.yul\":24068:24470   */\n    tag_253:\n        /* \"#utility.yul\":24228:24231   */\n      0x00\n        /* \"#utility.yul\":24249:24334   */\n      tag_515\n        /* \"#utility.yul\":24331:24333   */\n      0x2c\n        /* \"#utility.yul\":24326:24329   */\n      dup4\n        /* \"#utility.yul\":24249:24334   */\n      tag_220\n      jump\t// in\n    tag_515:\n        /* \"#utility.yul\":24242:24334   */\n      swap2\n      pop\n        /* \"#utility.yul\":24343:24436   */\n      tag_516\n        /* \"#utility.yul\":24432:24435   */\n      dup3\n        /* \"#utility.yul\":24343:24436   */\n      tag_252\n      jump\t// in\n    tag_516:\n        /* \"#utility.yul\":24461:24463   */\n      0x2c\n        /* \"#utility.yul\":24456:24459   */\n      dup3\n        /* \"#utility.yul\":24452:24464   */\n      add\n        /* \"#utility.yul\":24445:24464   */\n      swap1\n      pop\n        /* \"#utility.yul\":24068:24470   */\n      swap2\n      swap1\n      pop\n      jump\t// out\n        /* \"#utility.yul\":24476:24690   */\n    tag_254:\n        /* \"#utility.yul\":24616:24682   */\n      0x223e546a6f3c2f613e0000000000000000000000000000000000000000000000\n        /* \"#utility.yul\":24612:24613   */\n      0x00\n        /* \"#utility.yul\":24604:24610   */\n      dup3\n        /* \"#utility.yul\":24600:24614   */\n      add\n        /* \"#utility.yul\":24593:24683   */\n      mstore\n        /* \"#utility.yul\":24476:24690   */\n      pop\n      jump\t// out\n        /* \"#utility.yul\":24696:25096   */\n    tag_255:\n        /* \"#utility.yul\":24856:24859   */\n      0x00\n        /* \"#utility.yul\":24877:24961   */\n      tag_519\n        /* \"#utility.yul\":24959:24960   */\n      0x09\n        /* \"#utility.yul\":24954:24957   */\n      dup4\n        /* \"#utility.yul\":24877:24961   */\n      tag_220\n      jump\t// in\n    tag_519:\n        /* \"#utility.yul\":24870:24961   */\n      swap2\n      pop\n        /* \"#utility.yul\":24970:25063   */\n      tag_520\n        /* \"#utility.yul\":25059:25062   */\n      dup3\n        /* \"#utility.yul\":24970:25063   */\n      tag_254\n      jump\t// in\n    tag_520:\n        /* \"#utility.yul\":25088:25089   */\n      0x09\n        /* \"#utility.yul\":25083:25086   */\n      dup3\n        /* \"#utility.yul\":25079:25090   */\n      add\n        /* \"#utility.yul\":25072:25090   */\n      swap1\n      pop\n        /* \"#utility.yul\":24696:25096   */\n      swap2\n      swap1\n      pop\n      jump\t// out\n        /* \"#utility.yul\":25102:25277   */\n    tag_256:\n        /* \"#utility.yul\":25242:25269   */\n      0x3c666f6e743e3c2f666f6e743e3c2f666f6e743e3c2f74643e00000000000000\n        /* \"#utility.yul\":25238:25239   */\n      0x00\n        /* \"#utility.yul\":25230:25236   */\n      dup3\n        /* \"#utility.yul\":25226:25240   */\n      add\n        /* \"#utility.yul\":25219:25270   */\n      mstore\n        /* \"#utility.yul\":25102:25277   */\n      pop\n      jump\t// out\n        /* \"#utility.yul\":25283:25685   */\n    tag_257:\n        /* \"#utility.yul\":25443:25446   */\n      0x00\n        /* \"#utility.yul\":25464:25549   */\n      tag_523\n        /* \"#utility.yul\":25546:25548   */\n      0x19\n        /* \"#utility.yul\":25541:25544   */\n      dup4\n        /* \"#utility.yul\":25464:25549   */\n      tag_220\n      jump\t// in\n    tag_523:\n        /* \"#utility.yul\":25457:25549   */\n      swap2\n      pop\n        /* \"#utility.yul\":25558:25651   */\n      tag_524\n        /* \"#utility.yul\":25647:25650   */\n      dup3\n        /* \"#utility.yul\":25558:25651   */\n      tag_256\n      jump\t// in\n    tag_524:\n        /* \"#utility.yul\":25676:25678   */\n      0x19\n        /* \"#utility.yul\":25671:25674   */\n      dup3\n        /* \"#utility.yul\":25667:25679   */\n      add\n        /* \"#utility.yul\":25660:25679   */\n      swap1\n      pop\n        /* \"#utility.yul\":25283:25685   */\n      swap2\n      swap1\n      pop\n      jump\t// out\n        /* \"#utility.yul\":25691:26006   */\n    tag_258:\n        /* \"#utility.yul\":25831:25897   */\n      0x3c746420616c69676e3d227269676874222077696474683d223730252220636c\n        /* \"#utility.yul\":25827:25828   */\n      0x00\n        /* \"#utility.yul\":25819:25825   */\n      dup3\n        /* \"#utility.yul\":25815:25829   */\n      add\n        /* \"#utility.yul\":25808:25898   */\n      mstore\n        /* \"#utility.yul\":25932:25998   */\n      0x6173733d226c696768742d6267206c696768742d6c696e6b223e000000000000\n        /* \"#utility.yul\":25927:25929   */\n      0x20\n        /* \"#utility.yul\":25919:25925   */\n      dup3\n        /* \"#utility.yul\":25915:25930   */\n      add\n        /* \"#utility.yul\":25908:25999   */\n      mstore\n        /* \"#utility.yul\":25691:26006   */\n      pop\n      jump\t// out\n        /* \"#utility.yul\":26012:26414   */\n    tag_259:\n        /* \"#utility.yul\":26172:26175   */\n      0x00\n        /* \"#utility.yul\":26193:26278   */\n      tag_527\n        /* \"#utility.yul\":26275:26277   */\n      0x3a\n        /* \"#utility.yul\":26270:26273   */\n      dup4\n        /* \"#utility.yul\":26193:26278   */\n      tag_220\n      jump\t// in\n    tag_527:\n        /* \"#utility.yul\":26186:26278   */\n      swap2\n      pop\n        /* \"#utility.yul\":26287:26380   */\n      tag_528\n        /* \"#utility.yul\":26376:26379   */\n      dup3\n        /* \"#utility.yul\":26287:26380   */\n      tag_258\n      jump\t// in\n    tag_528:\n        /* \"#utility.yul\":26405:26407   */\n      0x3a\n        /* \"#utility.yul\":26400:26403   */\n      dup3\n        /* \"#utility.yul\":26396:26408   */\n      add\n        /* \"#utility.yul\":26389:26408   */\n      swap1\n      pop\n        /* \"#utility.yul\":26012:26414   */\n      swap2\n      swap1\n      pop\n      jump\t// out\n        /* \"#utility.yul\":26420:26634   */\n    tag_260:\n        /* \"#utility.yul\":26560:26626   */\n      0x3c64697620636c6173733d22706f7374496e666f206465736b746f70223e0000\n        /* \"#utility.yul\":26556:26557   */\n      0x00\n        /* \"#utility.yul\":26548:26554   */\n      dup3\n        /* \"#utility.yul\":26544:26558   */\n      add\n        /* \"#utility.yul\":26537:26627   */\n      mstore\n        /* \"#utility.yul\":26420:26634   */\n      pop\n      jump\t// out\n        /* \"#utility.yul\":26640:27042   */\n    tag_261:\n        /* \"#utility.yul\":26800:26803   */\n      0x00\n        /* \"#utility.yul\":26821:26906   */\n      tag_531\n        /* \"#utility.yul\":26903:26905   */\n      0x1e\n        /* \"#utility.yul\":26898:26901   */\n      dup4\n        /* \"#utility.yul\":26821:26906   */\n      tag_220\n      jump\t// in\n    tag_531:\n        /* \"#utility.yul\":26814:26906   */\n      swap2\n      pop\n        /* \"#utility.yul\":26915:27008   */\n      tag_532\n        /* \"#utility.yul\":27004:27007   */\n      dup3\n        /* \"#utility.yul\":26915:27008   */\n      tag_260\n      jump\t// in\n    tag_532:\n        /* \"#utility.yul\":27033:27035   */\n      0x1e\n        /* \"#utility.yul\":27028:27031   */\n      dup3\n        /* \"#utility.yul\":27024:27036   */\n      add\n        /* \"#utility.yul\":27017:27036   */\n      swap1\n      pop\n        /* \"#utility.yul\":26640:27042   */\n      swap2\n      swap1\n      pop\n      jump\t// out\n        /* \"#utility.yul\":27048:27262   */\n    tag_262:\n        /* \"#utility.yul\":27188:27254   */\n      0x3c7370616e20636c6173733d22706f73744e756d206465736b746f70223e0000\n        /* \"#utility.yul\":27184:27185   */\n      0x00\n        /* \"#utility.yul\":27176:27182   */\n      dup3\n        /* \"#utility.yul\":27172:27186   */\n      add\n        /* \"#utility.yul\":27165:27255   */\n      mstore\n        /* \"#utility.yul\":27048:27262   */\n      pop\n      jump\t// out\n        /* \"#utility.yul\":27268:27670   */\n    tag_263:\n        /* \"#utility.yul\":27428:27431   */\n      0x00\n        /* \"#utility.yul\":27449:27534   */\n      tag_535\n        /* \"#utility.yul\":27531:27533   */\n      0x1e\n        /* \"#utility.yul\":27526:27529   */\n      dup4\n        /* \"#utility.yul\":27449:27534   */\n      tag_220\n      jump\t// in\n    tag_535:\n        /* \"#utility.yul\":27442:27534   */\n      swap2\n      pop\n        /* \"#utility.yul\":27543:27636   */\n      tag_536\n        /* \"#utility.yul\":27632:27635   */\n      dup3\n        /* \"#utility.yul\":27543:27636   */\n      tag_262\n      jump\t// in\n    tag_536:\n        /* \"#utility.yul\":27661:27663   */\n      0x1e\n        /* \"#utility.yul\":27656:27659   */\n      dup3\n        /* \"#utility.yul\":27652:27664   */\n      add\n        /* \"#utility.yul\":27645:27664   */\n      swap1\n      pop\n        /* \"#utility.yul\":27268:27670   */\n      swap2\n      swap1\n      pop\n      jump\t// out\n        /* \"#utility.yul\":27676:27991   */\n    tag_264:\n        /* \"#utility.yul\":27816:27882   */\n      0x3c6120636c6173733d226c696768742d6c696e6b22207374796c653d22666f6e\n        /* \"#utility.yul\":27812:27813   */\n      0x00\n        /* \"#utility.yul\":27804:27810   */\n      dup3\n        /* \"#utility.yul\":27800:27814   */\n      add\n        /* \"#utility.yul\":27793:27883   */\n      mstore\n        /* \"#utility.yul\":27917:27983   */\n      0x742d73697a653a313270783b2220687265663d22000000000000000000000000\n        /* \"#utility.yul\":27912:27914   */\n      0x20\n        /* \"#utility.yul\":27904:27910   */\n      dup3\n        /* \"#utility.yul\":27900:27915   */\n      add\n        /* \"#utility.yul\":27893:27984   */\n      mstore\n        /* \"#utility.yul\":27676:27991   */\n      pop\n      jump\t// out\n        /* \"#utility.yul\":27997:28399   */\n    tag_265:\n        /* \"#utility.yul\":28157:28160   */\n      0x00\n        /* \"#utility.yul\":28178:28263   */\n      tag_539\n        /* \"#utility.yul\":28260:28262   */\n      0x34\n        /* \"#utility.yul\":28255:28258   */\n      dup4\n        /* \"#utility.yul\":28178:28263   */\n      tag_220\n      jump\t// in\n    tag_539:\n        /* \"#utility.yul\":28171:28263   */\n      swap2\n      pop\n        /* \"#utility.yul\":28272:28365   */\n      tag_540\n        /* \"#utility.yul\":28361:28364   */\n      dup3\n        /* \"#utility.yul\":28272:28365   */\n      tag_264\n      jump\t// in\n    tag_540:\n        /* \"#utility.yul\":28390:28392   */\n      0x34\n        /* \"#utility.yul\":28385:28388   */\n      dup3\n        /* \"#utility.yul\":28381:28393   */\n      add\n        /* \"#utility.yul\":28374:28393   */\n      swap1\n      pop\n        /* \"#utility.yul\":27997:28399   */\n      swap2\n      swap1\n      pop\n      jump\t// out\n        /* \"#utility.yul\":28405:28720   */\n    tag_266:\n        /* \"#utility.yul\":28545:28611   */\n      0x22207461726765743d225f626c616e6b22207469746c653d224c696e6b20746f\n        /* \"#utility.yul\":28541:28542   */\n      0x00\n        /* \"#utility.yul\":28533:28539   */\n      dup3\n        /* \"#utility.yul\":28529:28543   */\n      add\n        /* \"#utility.yul\":28522:28612   */\n      mstore\n        /* \"#utility.yul\":28646:28712   */\n      0x2074686973207472616e73616374696f6e223e00000000000000000000000000\n        /* \"#utility.yul\":28641:28643   */\n      0x20\n        /* \"#utility.yul\":28633:28639   */\n      dup3\n        /* \"#utility.yul\":28629:28644   */\n      add\n        /* \"#utility.yul\":28622:28713   */\n      mstore\n        /* \"#utility.yul\":28405:28720   */\n      pop\n      jump\t// out\n        /* \"#utility.yul\":28726:29128   */\n    tag_267:\n        /* \"#utility.yul\":28886:28889   */\n      0x00\n        /* \"#utility.yul\":28907:28992   */\n      tag_543\n        /* \"#utility.yul\":28989:28991   */\n      0x33\n        /* \"#utility.yul\":28984:28987   */\n      dup4\n        /* \"#utility.yul\":28907:28992   */\n      tag_220\n      jump\t// in\n    tag_543:\n        /* \"#utility.yul\":28900:28992   */\n      swap2\n      pop\n        /* \"#utility.yul\":29001:29094   */\n      tag_544\n        /* \"#utility.yul\":29090:29093   */\n      dup3\n        /* \"#utility.yul\":29001:29094   */\n      tag_266\n      jump\t// in\n    tag_544:\n        /* \"#utility.yul\":29119:29121   */\n      0x33\n        /* \"#utility.yul\":29114:29117   */\n      dup3\n        /* \"#utility.yul\":29110:29122   */\n      add\n        /* \"#utility.yul\":29103:29122   */\n      swap1\n      pop\n        /* \"#utility.yul\":28726:29128   */\n      swap2\n      swap1\n      pop\n      jump\t// out\n        /* \"#utility.yul\":29134:29311   */\n    tag_268:\n        /* \"#utility.yul\":29274:29303   */\n      0x3c2f613e3c2f7370616e3e3c2f6469763e3c2f74643e3c2f74723e0000000000\n        /* \"#utility.yul\":29270:29271   */\n      0x00\n        /* \"#utility.yul\":29262:29268   */\n      dup3\n        /* \"#utility.yul\":29258:29272   */\n      add\n        /* \"#utility.yul\":29251:29304   */\n      mstore\n        /* \"#utility.yul\":29134:29311   */\n      pop\n      jump\t// out\n        /* \"#utility.yul\":29317:29719   */\n    tag_269:\n        /* \"#utility.yul\":29477:29480   */\n      0x00\n        /* \"#utility.yul\":29498:29583   */\n      tag_547\n        /* \"#utility.yul\":29580:29582   */\n      0x1b\n        /* \"#utility.yul\":29575:29578   */\n      dup4\n        /* \"#utility.yul\":29498:29583   */\n      tag_220\n      jump\t// in\n    tag_547:\n        /* \"#utility.yul\":29491:29583   */\n      swap2\n      pop\n        /* \"#utility.yul\":29592:29685   */\n      tag_548\n        /* \"#utility.yul\":29681:29684   */\n      dup3\n        /* \"#utility.yul\":29592:29685   */\n      tag_268\n      jump\t// in\n    tag_548:\n        /* \"#utility.yul\":29710:29712   */\n      0x1b\n        /* \"#utility.yul\":29705:29708   */\n      dup3\n        /* \"#utility.yul\":29701:29713   */\n      add\n        /* \"#utility.yul\":29694:29713   */\n      swap1\n      pop\n        /* \"#utility.yul\":29317:29719   */\n      swap2\n      swap1\n      pop\n      jump\t// out\n        /* \"#utility.yul\":29725:30040   */\n    tag_270:\n        /* \"#utility.yul\":29865:29931   */\n      0x3c74723e3c74642076616c69676e3d226d6964646c652220616c69676e3d226c\n        /* \"#utility.yul\":29861:29862   */\n      0x00\n        /* \"#utility.yul\":29853:29859   */\n      dup3\n        /* \"#utility.yul\":29849:29863   */\n      add\n        /* \"#utility.yul\":29842:29932   */\n      mstore\n        /* \"#utility.yul\":29966:30032   */\n      0x6566742220636c6173733d226c696768742d6267223e00000000000000000000\n        /* \"#utility.yul\":29961:29963   */\n      0x20\n        /* \"#utility.yul\":29953:29959   */\n      dup3\n        /* \"#utility.yul\":29949:29964   */\n      add\n        /* \"#utility.yul\":29942:30033   */\n      mstore\n        /* \"#utility.yul\":29725:30040   */\n      pop\n      jump\t// out\n        /* \"#utility.yul\":30046:30448   */\n    tag_271:\n        /* \"#utility.yul\":30206:30209   */\n      0x00\n        /* \"#utility.yul\":30227:30312   */\n      tag_551\n        /* \"#utility.yul\":30309:30311   */\n      0x36\n        /* \"#utility.yul\":30304:30307   */\n      dup4\n        /* \"#utility.yul\":30227:30312   */\n      tag_220\n      jump\t// in\n    tag_551:\n        /* \"#utility.yul\":30220:30312   */\n      swap2\n      pop\n        /* \"#utility.yul\":30321:30414   */\n      tag_552\n        /* \"#utility.yul\":30410:30413   */\n      dup3\n        /* \"#utility.yul\":30321:30414   */\n      tag_270\n      jump\t// in\n    tag_552:\n        /* \"#utility.yul\":30439:30441   */\n      0x36\n        /* \"#utility.yul\":30434:30437   */\n      dup3\n        /* \"#utility.yul\":30430:30442   */\n      add\n        /* \"#utility.yul\":30423:30442   */\n      swap1\n      pop\n        /* \"#utility.yul\":30046:30448   */\n      swap2\n      swap1\n      pop\n      jump\t// out\n        /* \"#utility.yul\":30454:30769   */\n    tag_272:\n        /* \"#utility.yul\":30594:30660   */\n      0x3c756c20616c69676e3d226c65667422207374796c653d2270616464696e672d\n        /* \"#utility.yul\":30590:30591   */\n      0x00\n        /* \"#utility.yul\":30582:30588   */\n      dup3\n        /* \"#utility.yul\":30578:30592   */\n      add\n        /* \"#utility.yul\":30571:30661   */\n      mstore\n        /* \"#utility.yul\":30695:30761   */\n      0x6c6566743a20313570783b666f6e742d73697a653a20313070783b223e000000\n        /* \"#utility.yul\":30690:30692   */\n      0x20\n        /* \"#utility.yul\":30682:30688   */\n      dup3\n        /* \"#utility.yul\":30678:30693   */\n      add\n        /* \"#utility.yul\":30671:30762   */\n      mstore\n        /* \"#utility.yul\":30454:30769   */\n      pop\n      jump\t// out\n        /* \"#utility.yul\":30775:31177   */\n    tag_273:\n        /* \"#utility.yul\":30935:30938   */\n      0x00\n        /* \"#utility.yul\":30956:31041   */\n      tag_555\n        /* \"#utility.yul\":31038:31040   */\n      0x3d\n        /* \"#utility.yul\":31033:31036   */\n      dup4\n        /* \"#utility.yul\":30956:31041   */\n      tag_220\n      jump\t// in\n    tag_555:\n        /* \"#utility.yul\":30949:31041   */\n      swap2\n      pop\n        /* \"#utility.yul\":31050:31143   */\n      tag_556\n        /* \"#utility.yul\":31139:31142   */\n      dup3\n        /* \"#utility.yul\":31050:31143   */\n      tag_272\n      jump\t// in\n    tag_556:\n        /* \"#utility.yul\":31168:31170   */\n      0x3d\n        /* \"#utility.yul\":31163:31166   */\n      dup3\n        /* \"#utility.yul\":31159:31171   */\n      add\n        /* \"#utility.yul\":31152:31171   */\n      swap1\n      pop\n        /* \"#utility.yul\":30775:31177   */\n      swap2\n      swap1\n      pop\n      jump\t// out\n        /* \"#utility.yul\":31183:31397   */\n    tag_274:\n        /* \"#utility.yul\":31323:31389   */\n      0x3c6c6920636c6173733d226c696768742d746578742d33223e426c6f636b3a20\n        /* \"#utility.yul\":31319:31320   */\n      0x00\n        /* \"#utility.yul\":31311:31317   */\n      dup3\n        /* \"#utility.yul\":31307:31321   */\n      add\n        /* \"#utility.yul\":31300:31390   */\n      mstore\n        /* \"#utility.yul\":31183:31397   */\n      pop\n      jump\t// out\n        /* \"#utility.yul\":31403:31805   */\n    tag_275:\n        /* \"#utility.yul\":31563:31566   */\n      0x00\n        /* \"#utility.yul\":31584:31669   */\n      tag_559\n        /* \"#utility.yul\":31666:31668   */\n      0x20\n        /* \"#utility.yul\":31661:31664   */\n      dup4\n        /* \"#utility.yul\":31584:31669   */\n      tag_220\n      jump\t// in\n    tag_559:\n        /* \"#utility.yul\":31577:31669   */\n      swap2\n      pop\n        /* \"#utility.yul\":31678:31771   */\n      tag_560\n        /* \"#utility.yul\":31767:31770   */\n      dup3\n        /* \"#utility.yul\":31678:31771   */\n      tag_274\n      jump\t// in\n    tag_560:\n        /* \"#utility.yul\":31796:31798   */\n      0x20\n        /* \"#utility.yul\":31791:31794   */\n      dup3\n        /* \"#utility.yul\":31787:31799   */\n      add\n        /* \"#utility.yul\":31780:31799   */\n      swap1\n      pop\n        /* \"#utility.yul\":31403:31805   */\n      swap2\n      swap1\n      pop\n      jump\t// out\n        /* \"#utility.yul\":31811:32092   */\n    tag_276:\n        /* \"#utility.yul\":31951:32017   */\n      0x3c2f6c693e3c6c6920636c6173733d226c696768742d746578742d33223e4c6f\n        /* \"#utility.yul\":31947:31948   */\n      0x00\n        /* \"#utility.yul\":31939:31945   */\n      dup3\n        /* \"#utility.yul\":31935:31949   */\n      add\n        /* \"#utility.yul\":31928:32018   */\n      mstore\n        /* \"#utility.yul\":32052:32084   */\n      0x636174696f6e3a20554e4b4e4f574e3c2f6c693e3c2f756c3e3c2f74643e0000\n        /* \"#utility.yul\":32047:32049   */\n      0x20\n        /* \"#utility.yul\":32039:32045   */\n      dup3\n        /* \"#utility.yul\":32035:32050   */\n      add\n        /* \"#utility.yul\":32028:32085   */\n      mstore\n        /* \"#utility.yul\":31811:32092   */\n      pop\n      jump\t// out\n        /* \"#utility.yul\":32098:32500   */\n    tag_277:\n        /* \"#utility.yul\":32258:32261   */\n      0x00\n        /* \"#utility.yul\":32279:32364   */\n      tag_563\n        /* \"#utility.yul\":32361:32363   */\n      0x3e\n        /* \"#utility.yul\":32356:32359   */\n      dup4\n        /* \"#utility.yul\":32279:32364   */\n      tag_220\n      jump\t// in\n    tag_563:\n        /* \"#utility.yul\":32272:32364   */\n      swap2\n      pop\n        /* \"#utility.yul\":32373:32466   */\n      tag_564\n        /* \"#utility.yul\":32462:32465   */\n      dup3\n        /* \"#utility.yul\":32373:32466   */\n      tag_276\n      jump\t// in\n    tag_564:\n        /* \"#utility.yul\":32491:32493   */\n      0x3e\n        /* \"#utility.yul\":32486:32489   */\n      dup3\n        /* \"#utility.yul\":32482:32494   */\n      add\n        /* \"#utility.yul\":32475:32494   */\n      swap1\n      pop\n        /* \"#utility.yul\":32098:32500   */\n      swap2\n      swap1\n      pop\n      jump\t// out\n        /* \"#utility.yul\":32506:32821   */\n    tag_278:\n        /* \"#utility.yul\":32646:32712   */\n      0x3c746420616c69676e3d2263656e746572222076616c69676e3d226d6964646c\n        /* \"#utility.yul\":32642:32643   */\n      0x00\n        /* \"#utility.yul\":32634:32640   */\n      dup3\n        /* \"#utility.yul\":32630:32644   */\n      add\n        /* \"#utility.yul\":32623:32713   */\n      mstore\n        /* \"#utility.yul\":32747:32813   */\n      0x652220636c6173733d226c696768742d6267223e000000000000000000000000\n        /* \"#utility.yul\":32742:32744   */\n      0x20\n        /* \"#utility.yul\":32734:32740   */\n      dup3\n        /* \"#utility.yul\":32730:32745   */\n      add\n        /* \"#utility.yul\":32723:32814   */\n      mstore\n        /* \"#utility.yul\":32506:32821   */\n      pop\n      jump\t// out\n        /* \"#utility.yul\":32827:33229   */\n    tag_279:\n        /* \"#utility.yul\":32987:32990   */\n      0x00\n        /* \"#utility.yul\":33008:33093   */\n      tag_567\n        /* \"#utility.yul\":33090:33092   */\n      0x34\n        /* \"#utility.yul\":33085:33088   */\n      dup4\n        /* \"#utility.yul\":33008:33093   */\n      tag_220\n      jump\t// in\n    tag_567:\n        /* \"#utility.yul\":33001:33093   */\n      swap2\n      pop\n        /* \"#utility.yul\":33102:33195   */\n      tag_568\n        /* \"#utility.yul\":33191:33194   */\n      dup3\n        /* \"#utility.yul\":33102:33195   */\n      tag_278\n      jump\t// in\n    tag_568:\n        /* \"#utility.yul\":33220:33222   */\n      0x34\n        /* \"#utility.yul\":33215:33218   */\n      dup3\n        /* \"#utility.yul\":33211:33223   */\n      add\n        /* \"#utility.yul\":33204:33223   */\n      swap1\n      pop\n        /* \"#utility.yul\":32827:33229   */\n      swap2\n      swap1\n      pop\n      jump\t// out\n        /* \"#utility.yul\":33235:33449   */\n    tag_280:\n        /* \"#utility.yul\":33375:33441   */\n      0x3c666f6e7420636c6173733d22726567756c61725f74657874223e0000000000\n        /* \"#utility.yul\":33371:33372   */\n      0x00\n        /* \"#utility.yul\":33363:33369   */\n      dup3\n        /* \"#utility.yul\":33359:33373   */\n      add\n        /* \"#utility.yul\":33352:33442   */\n      mstore\n        /* \"#utility.yul\":33235:33449   */\n      pop\n      jump\t// out\n        /* \"#utility.yul\":33455:33857   */\n    tag_281:\n        /* \"#utility.yul\":33615:33618   */\n      0x00\n        /* \"#utility.yul\":33636:33721   */\n      tag_571\n        /* \"#utility.yul\":33718:33720   */\n      0x1b\n        /* \"#utility.yul\":33713:33716   */\n      dup4\n        /* \"#utility.yul\":33636:33721   */\n      tag_220\n      jump\t// in\n    tag_571:\n        /* \"#utility.yul\":33629:33721   */\n      swap2\n      pop\n        /* \"#utility.yul\":33730:33823   */\n      tag_572\n        /* \"#utility.yul\":33819:33822   */\n      dup3\n        /* \"#utility.yul\":33730:33823   */\n      tag_280\n      jump\t// in\n    tag_572:\n        /* \"#utility.yul\":33848:33850   */\n      0x1b\n        /* \"#utility.yul\":33843:33846   */\n      dup3\n        /* \"#utility.yul\":33839:33851   */\n      add\n        /* \"#utility.yul\":33832:33851   */\n      swap1\n      pop\n        /* \"#utility.yul\":33455:33857   */\n      swap2\n      swap1\n      pop\n      jump\t// out\n        /* \"#utility.yul\":33863:34077   */\n    tag_282:\n        /* \"#utility.yul\":34003:34069   */\n      0x3c64697620636c6173733d22706f7374207265706c79223e0000000000000000\n        /* \"#utility.yul\":33999:34000   */\n      0x00\n        /* \"#utility.yul\":33991:33997   */\n      dup3\n        /* \"#utility.yul\":33987:34001   */\n      add\n        /* \"#utility.yul\":33980:34070   */\n      mstore\n        /* \"#utility.yul\":33863:34077   */\n      pop\n      jump\t// out\n        /* \"#utility.yul\":34083:34485   */\n    tag_283:\n        /* \"#utility.yul\":34243:34246   */\n      0x00\n        /* \"#utility.yul\":34264:34349   */\n      tag_575\n        /* \"#utility.yul\":34346:34348   */\n      0x18\n        /* \"#utility.yul\":34341:34344   */\n      dup4\n        /* \"#utility.yul\":34264:34349   */\n      tag_220\n      jump\t// in\n    tag_575:\n        /* \"#utility.yul\":34257:34349   */\n      swap2\n      pop\n        /* \"#utility.yul\":34358:34451   */\n      tag_576\n        /* \"#utility.yul\":34447:34450   */\n      dup3\n        /* \"#utility.yul\":34358:34451   */\n      tag_282\n      jump\t// in\n    tag_576:\n        /* \"#utility.yul\":34476:34478   */\n      0x18\n        /* \"#utility.yul\":34471:34474   */\n      dup3\n        /* \"#utility.yul\":34467:34479   */\n      add\n        /* \"#utility.yul\":34460:34479   */\n      swap1\n      pop\n        /* \"#utility.yul\":34083:34485   */\n      swap2\n      swap1\n      pop\n      jump\t// out\n        /* \"#utility.yul\":34491:35008   */\n    tag_284:\n        /* \"#utility.yul\":34631:34697   */\n      0x3c626c6f636b71756f7465207374796c653d2277686974652d73706163653a20\n        /* \"#utility.yul\":34627:34628   */\n      0x00\n        /* \"#utility.yul\":34619:34625   */\n      dup3\n        /* \"#utility.yul\":34615:34629   */\n      add\n        /* \"#utility.yul\":34608:34698   */\n      mstore\n        /* \"#utility.yul\":34732:34798   */\n      0x7072652d6c696e653b6d617267696e2d746f703a3070783b2220636c6173733d\n        /* \"#utility.yul\":34727:34729   */\n      0x20\n        /* \"#utility.yul\":34719:34725   */\n      dup3\n        /* \"#utility.yul\":34715:34730   */\n      add\n        /* \"#utility.yul\":34708:34799   */\n      mstore\n        /* \"#utility.yul\":34833:34899   */\n      0x22706f73744d657373616765206c696768742d746578742d32222069643d226d\n        /* \"#utility.yul\":34828:34830   */\n      0x40\n        /* \"#utility.yul\":34820:34826   */\n      dup3\n        /* \"#utility.yul\":34816:34831   */\n      add\n        /* \"#utility.yul\":34809:34900   */\n      mstore\n        /* \"#utility.yul\":34934:35000   */\n      0x3334303739393833223e3c62723e000000000000000000000000000000000000\n        /* \"#utility.yul\":34929:34931   */\n      0x60\n        /* \"#utility.yul\":34921:34927   */\n      dup3\n        /* \"#utility.yul\":34917:34932   */\n      add\n        /* \"#utility.yul\":34910:35001   */\n      mstore\n        /* \"#utility.yul\":34491:35008   */\n      pop\n      jump\t// out\n        /* \"#utility.yul\":35014:35418   */\n    tag_285:\n        /* \"#utility.yul\":35174:35177   */\n      0x00\n        /* \"#utility.yul\":35195:35281   */\n      tag_579\n        /* \"#utility.yul\":35277:35280   */\n      0x6e\n        /* \"#utility.yul\":35272:35275   */\n      dup4\n        /* \"#utility.yul\":35195:35281   */\n      tag_220\n      jump\t// in\n    tag_579:\n        /* \"#utility.yul\":35188:35281   */\n      swap2\n      pop\n        /* \"#utility.yul\":35290:35383   */\n      tag_580\n        /* \"#utility.yul\":35379:35382   */\n      dup3\n        /* \"#utility.yul\":35290:35383   */\n      tag_284\n      jump\t// in\n    tag_580:\n        /* \"#utility.yul\":35408:35411   */\n      0x6e\n        /* \"#utility.yul\":35403:35406   */\n      dup3\n        /* \"#utility.yul\":35399:35412   */\n      add\n        /* \"#utility.yul\":35392:35412   */\n      swap1\n      pop\n        /* \"#utility.yul\":35014:35418   */\n      swap2\n      swap1\n      pop\n      jump\t// out\n        /* \"#utility.yul\":35424:35647   */\n    tag_286:\n        /* \"#utility.yul\":35564:35598   */\n      0x3c2f626c6f636b71756f74653e3c2f6469763e3c2f666f6e743e3c2f74643e3c\n        /* \"#utility.yul\":35560:35561   */\n      0x00\n        /* \"#utility.yul\":35552:35558   */\n      dup3\n        /* \"#utility.yul\":35548:35562   */\n      add\n        /* \"#utility.yul\":35541:35599   */\n      mstore\n        /* \"#utility.yul\":35633:35639   */\n      0x2f74723e00000000000000000000000000000000000000000000000000000000\n        /* \"#utility.yul\":35628:35630   */\n      0x20\n        /* \"#utility.yul\":35620:35626   */\n      dup3\n        /* \"#utility.yul\":35616:35631   */\n      add\n        /* \"#utility.yul\":35609:35640   */\n      mstore\n        /* \"#utility.yul\":35424:35647   */\n      pop\n      jump\t// out\n        /* \"#utility.yul\":35653:36055   */\n    tag_287:\n        /* \"#utility.yul\":35813:35816   */\n      0x00\n        /* \"#utility.yul\":35834:35919   */\n      tag_583\n        /* \"#utility.yul\":35916:35918   */\n      0x24\n        /* \"#utility.yul\":35911:35914   */\n      dup4\n        /* \"#utility.yul\":35834:35919   */\n      tag_220\n      jump\t// in\n    tag_583:\n        /* \"#utility.yul\":35827:35919   */\n      swap2\n      pop\n        /* \"#utility.yul\":35928:36021   */\n      tag_584\n        /* \"#utility.yul\":36017:36020   */\n      dup3\n        /* \"#utility.yul\":35928:36021   */\n      tag_286\n      jump\t// in\n    tag_584:\n        /* \"#utility.yul\":36046:36048   */\n      0x24\n        /* \"#utility.yul\":36041:36044   */\n      dup3\n        /* \"#utility.yul\":36037:36049   */\n      add\n        /* \"#utility.yul\":36030:36049   */\n      swap1\n      pop\n        /* \"#utility.yul\":35653:36055   */\n      swap2\n      swap1\n      pop\n      jump\t// out\n        /* \"#utility.yul\":36061:42846   */\n    tag_155:\n        /* \"#utility.yul\":38584:38587   */\n      0x00\n        /* \"#utility.yul\":38606:38701   */\n      tag_586\n        /* \"#utility.yul\":38697:38700   */\n      dup3\n        /* \"#utility.yul\":38688:38694   */\n      dup11\n        /* \"#utility.yul\":38606:38701   */\n      tag_241\n      jump\t// in\n    tag_586:\n        /* \"#utility.yul\":38599:38701   */\n      swap2\n      pop\n        /* \"#utility.yul\":38718:38866   */\n      tag_587\n        /* \"#utility.yul\":38862:38865   */\n      dup3\n        /* \"#utility.yul\":38718:38866   */\n      tag_247\n      jump\t// in\n    tag_587:\n        /* \"#utility.yul\":38711:38866   */\n      swap2\n      pop\n        /* \"#utility.yul\":38883:39031   */\n      tag_588\n        /* \"#utility.yul\":39027:39030   */\n      dup3\n        /* \"#utility.yul\":38883:39031   */\n      tag_249\n      jump\t// in\n    tag_588:\n        /* \"#utility.yul\":38876:39031   */\n      swap2\n      pop\n        /* \"#utility.yul\":39048:39196   */\n      tag_589\n        /* \"#utility.yul\":39192:39195   */\n      dup3\n        /* \"#utility.yul\":39048:39196   */\n      tag_251\n      jump\t// in\n    tag_589:\n        /* \"#utility.yul\":39041:39196   */\n      swap2\n      pop\n        /* \"#utility.yul\":39213:39361   */\n      tag_590\n        /* \"#utility.yul\":39357:39360   */\n      dup3\n        /* \"#utility.yul\":39213:39361   */\n      tag_253\n      jump\t// in\n    tag_590:\n        /* \"#utility.yul\":39206:39361   */\n      swap2\n      pop\n        /* \"#utility.yul\":39378:39470   */\n      tag_591\n        /* \"#utility.yul\":39466:39469   */\n      dup3\n        /* \"#utility.yul\":39457:39463   */\n      dup10\n        /* \"#utility.yul\":39378:39470   */\n      tag_224\n      jump\t// in\n    tag_591:\n        /* \"#utility.yul\":39371:39470   */\n      swap2\n      pop\n        /* \"#utility.yul\":39487:39635   */\n      tag_592\n        /* \"#utility.yul\":39631:39634   */\n      dup3\n        /* \"#utility.yul\":39487:39635   */\n      tag_255\n      jump\t// in\n    tag_592:\n        /* \"#utility.yul\":39480:39635   */\n      swap2\n      pop\n        /* \"#utility.yul\":39652:39800   */\n      tag_593\n        /* \"#utility.yul\":39796:39799   */\n      dup3\n        /* \"#utility.yul\":39652:39800   */\n      tag_257\n      jump\t// in\n    tag_593:\n        /* \"#utility.yul\":39645:39800   */\n      swap2\n      pop\n        /* \"#utility.yul\":39817:39965   */\n      tag_594\n        /* \"#utility.yul\":39961:39964   */\n      dup3\n        /* \"#utility.yul\":39817:39965   */\n      tag_259\n      jump\t// in\n    tag_594:\n        /* \"#utility.yul\":39810:39965   */\n      swap2\n      pop\n        /* \"#utility.yul\":39982:40130   */\n      tag_595\n        /* \"#utility.yul\":40126:40129   */\n      dup3\n        /* \"#utility.yul\":39982:40130   */\n      tag_261\n      jump\t// in\n    tag_595:\n        /* \"#utility.yul\":39975:40130   */\n      swap2\n      pop\n        /* \"#utility.yul\":40147:40295   */\n      tag_596\n        /* \"#utility.yul\":40291:40294   */\n      dup3\n        /* \"#utility.yul\":40147:40295   */\n      tag_263\n      jump\t// in\n    tag_596:\n        /* \"#utility.yul\":40140:40295   */\n      swap2\n      pop\n        /* \"#utility.yul\":40312:40460   */\n      tag_597\n        /* \"#utility.yul\":40456:40459   */\n      dup3\n        /* \"#utility.yul\":40312:40460   */\n      tag_265\n      jump\t// in\n    tag_597:\n        /* \"#utility.yul\":40305:40460   */\n      swap2\n      pop\n        /* \"#utility.yul\":40477:40569   */\n      tag_598\n        /* \"#utility.yul\":40565:40568   */\n      dup3\n        /* \"#utility.yul\":40556:40562   */\n      dup9\n        /* \"#utility.yul\":40477:40569   */\n      tag_224\n      jump\t// in\n    tag_598:\n        /* \"#utility.yul\":40470:40569   */\n      swap2\n      pop\n        /* \"#utility.yul\":40586:40678   */\n      tag_599\n        /* \"#utility.yul\":40674:40677   */\n      dup3\n        /* \"#utility.yul\":40665:40671   */\n      dup8\n        /* \"#utility.yul\":40586:40678   */\n      tag_224\n      jump\t// in\n    tag_599:\n        /* \"#utility.yul\":40579:40678   */\n      swap2\n      pop\n        /* \"#utility.yul\":40695:40843   */\n      tag_600\n        /* \"#utility.yul\":40839:40842   */\n      dup3\n        /* \"#utility.yul\":40695:40843   */\n      tag_267\n      jump\t// in\n    tag_600:\n        /* \"#utility.yul\":40688:40843   */\n      swap2\n      pop\n        /* \"#utility.yul\":40860:40952   */\n      tag_601\n        /* \"#utility.yul\":40948:40951   */\n      dup3\n        /* \"#utility.yul\":40939:40945   */\n      dup7\n        /* \"#utility.yul\":40860:40952   */\n      tag_224\n      jump\t// in\n    tag_601:\n        /* \"#utility.yul\":40853:40952   */\n      swap2\n      pop\n        /* \"#utility.yul\":40969:41117   */\n      tag_602\n        /* \"#utility.yul\":41113:41116   */\n      dup3\n        /* \"#utility.yul\":40969:41117   */\n      tag_269\n      jump\t// in\n    tag_602:\n        /* \"#utility.yul\":40962:41117   */\n      swap2\n      pop\n        /* \"#utility.yul\":41134:41282   */\n      tag_603\n        /* \"#utility.yul\":41278:41281   */\n      dup3\n        /* \"#utility.yul\":41134:41282   */\n      tag_271\n      jump\t// in\n    tag_603:\n        /* \"#utility.yul\":41127:41282   */\n      swap2\n      pop\n        /* \"#utility.yul\":41299:41447   */\n      tag_604\n        /* \"#utility.yul\":41443:41446   */\n      dup3\n        /* \"#utility.yul\":41299:41447   */\n      tag_273\n      jump\t// in\n    tag_604:\n        /* \"#utility.yul\":41292:41447   */\n      swap2\n      pop\n        /* \"#utility.yul\":41464:41612   */\n      tag_605\n        /* \"#utility.yul\":41608:41611   */\n      dup3\n        /* \"#utility.yul\":41464:41612   */\n      tag_275\n      jump\t// in\n    tag_605:\n        /* \"#utility.yul\":41457:41612   */\n      swap2\n      pop\n        /* \"#utility.yul\":41629:41721   */\n      tag_606\n        /* \"#utility.yul\":41717:41720   */\n      dup3\n        /* \"#utility.yul\":41708:41714   */\n      dup6\n        /* \"#utility.yul\":41629:41721   */\n      tag_224\n      jump\t// in\n    tag_606:\n        /* \"#utility.yul\":41622:41721   */\n      swap2\n      pop\n        /* \"#utility.yul\":41738:41886   */\n      tag_607\n        /* \"#utility.yul\":41882:41885   */\n      dup3\n        /* \"#utility.yul\":41738:41886   */\n      tag_277\n      jump\t// in\n    tag_607:\n        /* \"#utility.yul\":41731:41886   */\n      swap2\n      pop\n        /* \"#utility.yul\":41903:42051   */\n      tag_608\n        /* \"#utility.yul\":42047:42050   */\n      dup3\n        /* \"#utility.yul\":41903:42051   */\n      tag_279\n      jump\t// in\n    tag_608:\n        /* \"#utility.yul\":41896:42051   */\n      swap2\n      pop\n        /* \"#utility.yul\":42068:42216   */\n      tag_609\n        /* \"#utility.yul\":42212:42215   */\n      dup3\n        /* \"#utility.yul\":42068:42216   */\n      tag_281\n      jump\t// in\n    tag_609:\n        /* \"#utility.yul\":42061:42216   */\n      swap2\n      pop\n        /* \"#utility.yul\":42233:42381   */\n      tag_610\n        /* \"#utility.yul\":42377:42380   */\n      dup3\n        /* \"#utility.yul\":42233:42381   */\n      tag_283\n      jump\t// in\n    tag_610:\n        /* \"#utility.yul\":42226:42381   */\n      swap2\n      pop\n        /* \"#utility.yul\":42398:42546   */\n      tag_611\n        /* \"#utility.yul\":42542:42545   */\n      dup3\n        /* \"#utility.yul\":42398:42546   */\n      tag_285\n      jump\t// in\n    tag_611:\n        /* \"#utility.yul\":42391:42546   */\n      swap2\n      pop\n        /* \"#utility.yul\":42563:42655   */\n      tag_612\n        /* \"#utility.yul\":42651:42654   */\n      dup3\n        /* \"#utility.yul\":42642:42648   */\n      dup5\n        /* \"#utility.yul\":42563:42655   */\n      tag_224\n      jump\t// in\n    tag_612:\n        /* \"#utility.yul\":42556:42655   */\n      swap2\n      pop\n        /* \"#utility.yul\":42672:42820   */\n      tag_613\n        /* \"#utility.yul\":42816:42819   */\n      dup3\n        /* \"#utility.yul\":42672:42820   */\n      tag_287\n      jump\t// in\n    tag_613:\n        /* \"#utility.yul\":42665:42820   */\n      swap2\n      pop\n        /* \"#utility.yul\":42837:42840   */\n      dup2\n        /* \"#utility.yul\":42830:42840   */\n      swap1\n      pop\n        /* \"#utility.yul\":36061:42846   */\n      swap9\n      swap8\n      pop\n      pop\n      pop\n      pop\n      pop\n      pop\n      pop\n      pop\n      jump\t// out\n\n    auxdata: 0xa2646970667358221220343fd0eb199b1fb48f80f64fd951f27a5b8ec2936922dd882e751a3dd03e362564736f6c634300081a0033\n}\n",
				"bytecode": {
					"linkReferences": {},
					"object": "60806040526040518060400160405280600181526020017f30000000000000000000000000000000000000000000000000000000000000008152505f9081610047919061040b565b506040518060400160405280601481526020017f68747470733a2f2f7777772e746a6f2e6172742f0000000000000000000000008152506004908161008c919061040b565b506040518060400160405280601881526020017f68747470733a2f2f65746865727363616e2e696f2f74782f0000000000000000815250600590816100d1919061040b565b506040518060400160405280601a81526020017f68747470733a2f2f616e647265776d69746368656c6c2e78797a00000000000081525060069081610116919061040b565b50348015610122575f80fd5b503360035f6101000a81548173ffffffffffffffffffffffffffffffffffffffff021916908373ffffffffffffffffffffffffffffffffffffffff160217905550600160025f73f1da6e2d387e9da611dac8a7fc587eaa4b01001373ffffffffffffffffffffffffffffffffffffffff1673ffffffffffffffffffffffffffffffffffffffff1681526020019081526020015f205f6101000a81548160ff0219169083151502179055506104da565b5f81519050919050565b7f4e487b71000000000000000000000000000000000000000000000000000000005f52604160045260245ffd5b7f4e487b71000000000000000000000000000000000000000000000000000000005f52602260045260245ffd5b5f600282049050600182168061024c57607f821691505b60208210810361025f5761025e610208565b5b50919050565b5f819050815f5260205f209050919050565b5f6020601f8301049050919050565b5f82821b905092915050565b5f600883026102c17fffffffffffffffffffffffffffffffffffffffffffffffffffffffffffffffff82610286565b6102cb8683610286565b95508019841693508086168417925050509392505050565b5f819050919050565b5f819050919050565b5f61030f61030a610305846102e3565b6102ec565b6102e3565b9050919050565b5f819050919050565b610328836102f5565b61033c61033482610316565b848454610292565b825550505050565b5f90565b610350610344565b61035b81848461031f565b505050565b5b8181101561037e576103735f82610348565b600181019050610361565b5050565b601f8211156103c35761039481610265565b61039d84610277565b810160208510156103ac578190505b6103c06103b885610277565b830182610360565b50505b505050565b5f82821c905092915050565b5f6103e35f19846008026103c8565b1980831691505092915050565b5f6103fb83836103d4565b9150826002028217905092915050565b610414826101d1565b67ffffffffffffffff81111561042d5761042c6101db565b5b6104378254610235565b610442828285610382565b5f60209050601f831160018114610473575f8415610461578287015190505b61046b85826103f0565b8655506104d2565b601f19841661048186610265565b5f5b828110156104a857848901518255600182019150602085019450602081019050610483565b868310156104c557848901516104c1601f8916826103d4565b8355505b6001600288020188555050505b505050505050565b61248e806104e75f395ff3fe608060405234801561000f575f80fd5b50600436106100e8575f3560e01c806387a5b67c1161008a578063a9c598b911610064578063a9c598b914610220578063b0a69ab41461023c578063b30906d41461025a578063c41f0cac1461028e576100e8565b806387a5b67c146101b65780638da5cb5b146101e6578063a84fd0ed14610204576100e8565b80634b4fd03b116100c65780634b4fd03b1461014457806352baf08f1461016257806357c8be661461017e57806385e685311461019a576100e8565b80630ae5e739146100ec57806312d491c914610108578063295a521214610126575b5f80fd5b61010660048036038101906101019190611091565b6102aa565b005b610110610391565b60405161011d91906110d4565b60405180910390f35b61012e61039d565b60405161013b919061115d565b60405180910390f35b61014c610428565b604051610159919061115d565b60405180910390f35b61017c600480360381019061017791906112a9565b6104f2565b005b610198600480360381019061019391906112f0565b6105e5565b005b6101b460048036038101906101af9190611091565b610789565b005b6101d060048036038101906101cb9190611091565b61086f565b6040516101dd919061140d565b60405180910390f35b6101ee61088c565b6040516101fb9190611435565b60405180910390f35b61021e600480360381019061021991906112a9565b6108b1565b005b61023a600480360381019061023591906112a9565b610a83565b005b610244610b76565b604051610251919061115d565b60405180910390f35b610274600480360381019061026f9190611478565b610c54565b6040516102859594939291906114a3565b60405180910390f35b6102a860048036038101906102a391906112a9565b610f33565b005b60035f9054906101000a900473ffffffffffffffffffffffffffffffffffffffff1673ffffffffffffffffffffffffffffffffffffffff163373ffffffffffffffffffffffffffffffffffffffff1614610339576040517f08c379a000000000000000000000000000000000000000000000000000000000815260040161033090611561565b60405180910390fd5b600160025f8373ffffffffffffffffffffffffffffffffffffffff1673ffffffffffffffffffffffffffffffffffffffff1681526020019081526020015f205f6101000a81548160ff02191690831515021790555050565b5f600180549050905090565b5f80546103a9906115ac565b80601f01602080910402602001604051908101604052809291908181526020018280546103d5906115ac565b80156104205780601f106103f757610100808354040283529160200191610420565b820191905f5260205f20905b81548152906001019060200180831161040357829003601f168201915b505050505081565b606060405160200161043990611630565b604051602081830303815290604052805190602001205f60405160200161046091906116d6565b60405160208183030381529060405280519060200120146104b6576040518060400160405280600481526020017f6461726b000000000000000000000000000000000000000000000000000000008152506104ed565b6040518060400160405280600581526020017f6c696768740000000000000000000000000000000000000000000000000000008152505b905090565b60035f9054906101000a900473ffffffffffffffffffffffffffffffffffffffff1673ffffffffffffffffffffffffffffffffffffffff163373ffffffffffffffffffffffffffffffffffffffff161480610593575060025f3373ffffffffffffffffffffffffffffffffffffffff1673ffffffffffffffffffffffffffffffffffffffff1681526020019081526020015f205f9054906101000a900460ff165b6105d2576040517f08c379a00000000000000000000000000000000000000000000000000000000081526004016105c990611736565b60405180910390fd5b80600690816105e191906118df565b5050565b60035f9054906101000a900473ffffffffffffffffffffffffffffffffffffffff1673ffffffffffffffffffffffffffffffffffffffff163373ffffffffffffffffffffffffffffffffffffffff161480610686575060025f3373ffffffffffffffffffffffffffffffffffffffff1673ffffffffffffffffffffffffffffffffffffffff1681526020019081526020015f205f9054906101000a900460ff165b6106c5576040517f08c379a00000000000000000000000000000000000000000000000000000000081526004016106bc90611736565b60405180910390fd5b60016040518060a0016040528087815260200186815260200185815260200184815260200183815250908060018154018082558091505060019003905f5260205f2090600502015f909190919091505f820151815f01908161072791906118df565b50602082015181600101908161073d91906118df565b50604082015181600201908161075391906118df565b50606082015181600301908161076991906118df565b50608082015181600401908161077f91906118df565b5050505050505050565b60035f9054906101000a900473ffffffffffffffffffffffffffffffffffffffff1673ffffffffffffffffffffffffffffffffffffffff163373ffffffffffffffffffffffffffffffffffffffff1614610818576040517f08c379a000000000000000000000000000000000000000000000000000000000815260040161080f90611561565b60405180910390fd5b5f60025f8373ffffffffffffffffffffffffffffffffffffffff1673ffffffffffffffffffffffffffffffffffffffff1681526020019081526020015f205f6101000a81548160ff02191690831515021790555050565b6002602052805f5260405f205f915054906101000a900460ff1681565b60035f9054906101000a900473ffffffffffffffffffffffffffffffffffffffff1681565b60035f9054906101000a900473ffffffffffffffffffffffffffffffffffffffff1673ffffffffffffffffffffffffffffffffffffffff163373ffffffffffffffffffffffffffffffffffffffff161480610952575060025f3373ffffffffffffffffffffffffffffffffffffffff1673ffffffffffffffffffffffffffffffffffffffff1681526020019081526020015f205f9054906101000a900460ff165b610991576040517f08c379a000000000000000000000000000000000000000000000000000000000815260040161098890611736565b60405180910390fd5b6040516020016109a090611630565b60405160208183030381529060405280519060200120816040516020016109c791906119de565b604051602081830303815290604052805190602001201480610a3257506040516020016109f390611a3e565b6040516020818303038152906040528051906020012081604051602001610a1a91906119de565b60405160208183030381529060405280519060200120145b610a71576040517f08c379a0000000000000000000000000000000000000000000000000000000008152600401610a6890611a9c565b60405180910390fd5b805f9081610a7f91906118df565b5050565b60035f9054906101000a900473ffffffffffffffffffffffffffffffffffffffff1673ffffffffffffffffffffffffffffffffffffffff163373ffffffffffffffffffffffffffffffffffffffff161480610b24575060025f3373ffffffffffffffffffffffffffffffffffffffff1673ffffffffffffffffffffffffffffffffffffffff1681526020019081526020015f205f9054906101000a900460ff165b610b63576040517f08c379a0000000000000000000000000000000000000000000000000000000008152600401610b5a90611736565b60405180910390fd5b8060059081610b7291906118df565b5050565b6060805f5b600180549050811015610c4c57816004600560018481548110610ba157610ba0611aba565b5b905f5260205f2090600502015f0160018581548110610bc357610bc2611aba565b5b905f5260205f20906005020160040160018681548110610be657610be5611aba565b5b905f5260205f20906005020160010160018781548110610c0957610c08611aba565b5b905f5260205f209060050201600301604051602001610c2e979695949392919061230d565b60405160208183030381529060405291508080600101915050610b7b565b508091505090565b60018181548110610c63575f80fd5b905f5260205f2090600502015f91509050805f018054610c82906115ac565b80601f0160208091040260200160405190810160405280929190818152602001828054610cae906115ac565b8015610cf95780601f10610cd057610100808354040283529160200191610cf9565b820191905f5260205f20905b815481529060010190602001808311610cdc57829003601f168201915b505050505090806001018054610d0e906115ac565b80601f0160208091040260200160405190810160405280929190818152602001828054610d3a906115ac565b8015610d855780601f10610d5c57610100808354040283529160200191610d85565b820191905f5260205f20905b815481529060010190602001808311610d6857829003601f168201915b505050505090806002018054610d9a906115ac565b80601f0160208091040260200160405190810160405280929190818152602001828054610dc6906115ac565b8015610e115780601f10610de857610100808354040283529160200191610e11565b820191905f5260205f20905b815481529060010190602001808311610df457829003601f168201915b505050505090806003018054610e26906115ac565b80601f0160208091040260200160405190810160405280929190818152602001828054610e52906115ac565b8015610e9d5780601f10610e7457610100808354040283529160200191610e9d565b820191905f5260205f20905b815481529060010190602001808311610e8057829003601f168201915b505050505090806004018054610eb2906115ac565b80601f0160208091040260200160405190810160405280929190818152602001828054610ede906115ac565b8015610f295780601f10610f0057610100808354040283529160200191610f29565b820191905f5260205f20905b815481529060010190602001808311610f0c57829003601f168201915b5050505050905085565b60035f9054906101000a900473ffffffffffffffffffffffffffffffffffffffff1673ffffffffffffffffffffffffffffffffffffffff163373ffffffffffffffffffffffffffffffffffffffff161480610fd4575060025f3373ffffffffffffffffffffffffffffffffffffffff1673ffffffffffffffffffffffffffffffffffffffff1681526020019081526020015f205f9054906101000a900460ff165b611013576040517f08c379a000000000000000000000000000000000000000000000000000000000815260040161100a90611736565b60405180910390fd5b806004908161102291906118df565b5050565b5f604051905090565b5f80fd5b5f80fd5b5f73ffffffffffffffffffffffffffffffffffffffff82169050919050565b5f61106082611037565b9050919050565b61107081611056565b811461107a575f80fd5b50565b5f8135905061108b81611067565b92915050565b5f602082840312156110a6576110a561102f565b5b5f6110b38482850161107d565b91505092915050565b5f819050919050565b6110ce816110bc565b82525050565b5f6020820190506110e75f8301846110c5565b92915050565b5f81519050919050565b5f82825260208201905092915050565b8281835e5f83830152505050565b5f601f19601f8301169050919050565b5f61112f826110ed565b61113981856110f7565b9350611149818560208601611107565b61115281611115565b840191505092915050565b5f6020820190508181035f8301526111758184611125565b905092915050565b5f80fd5b5f80fd5b7f4e487b71000000000000000000000000000000000000000000000000000000005f52604160045260245ffd5b6111bb82611115565b810181811067ffffffffffffffff821117156111da576111d9611185565b5b80604052505050565b5f6111ec611026565b90506111f882826111b2565b919050565b5f67ffffffffffffffff82111561121757611216611185565b5b61122082611115565b9050602081019050919050565b828183375f83830152505050565b5f61124d611248846111fd565b6111e3565b90508281526020810184848401111561126957611268611181565b5b61127484828561122d565b509392505050565b5f82601f8301126112905761128f61117d565b5b81356112a084826020860161123b565b91505092915050565b5f602082840312156112be576112bd61102f565b5b5f82013567ffffffffffffffff8111156112db576112da611033565b5b6112e78482850161127c565b91505092915050565b5f805f805f60a086880312156113095761130861102f565b5b5f86013567ffffffffffffffff81111561132657611325611033565b5b6113328882890161127c565b955050602086013567ffffffffffffffff81111561135357611352611033565b5b61135f8882890161127c565b945050604086013567ffffffffffffffff8111156113805761137f611033565b5b61138c8882890161127c565b935050606086013567ffffffffffffffff8111156113ad576113ac611033565b5b6113b98882890161127c565b925050608086013567ffffffffffffffff8111156113da576113d9611033565b5b6113e68882890161127c565b9150509295509295909350565b5f8115159050919050565b611407816113f3565b82525050565b5f6020820190506114205f8301846113fe565b92915050565b61142f81611056565b82525050565b5f6020820190506114485f830184611426565b92915050565b611457816110bc565b8114611461575f80fd5b50565b5f813590506114728161144e565b92915050565b5f6020828403121561148d5761148c61102f565b5b5f61149a84828501611464565b91505092915050565b5f60a0820190508181035f8301526114bb8188611125565b905081810360208301526114cf8187611125565b905081810360408301526114e38186611125565b905081810360608301526114f78185611125565b9050818103608083015261150b8184611125565b90509695505050505050565b7f4e6f7420746865206f776e6572000000000000000000000000000000000000005f82015250565b5f61154b600d836110f7565b915061155682611517565b602082019050919050565b5f6020820190508181035f8301526115788161153f565b9050919050565b7f4e487b71000000000000000000000000000000000000000000000000000000005f52602260045260245ffd5b5f60028204905060018216806115c357607f821691505b6020821081036115d6576115d561157f565b5b50919050565b5f81905092915050565b7f30000000000000000000000000000000000000000000000000000000000000005f82015250565b5f61161a6001836115dc565b9150611625826115e6565b600182019050919050565b5f61163a8261160e565b9150819050919050565b5f819050815f5260205f209050919050565b5f8154611662816115ac565b61166c81866115dc565b9450600182165f8114611686576001811461169b576116cd565b60ff19831686528115158202860193506116cd565b6116a485611644565b5f5b838110156116c5578154818901526001820191506020810190506116a6565b838801955050505b50505092915050565b5f6116e18284611656565b915081905092915050565b7f4e6f7420617574686f72697a65640000000000000000000000000000000000005f82015250565b5f611720600e836110f7565b915061172b826116ec565b602082019050919050565b5f6020820190508181035f83015261174d81611714565b9050919050565b5f6020601f8301049050919050565b5f82821b905092915050565b5f6008830261179e7fffffffffffffffffffffffffffffffffffffffffffffffffffffffffffffffff82611763565b6117a88683611763565b95508019841693508086168417925050509392505050565b5f819050919050565b5f6117e36117de6117d9846110bc565b6117c0565b6110bc565b9050919050565b5f819050919050565b6117fc836117c9565b611810611808826117ea565b84845461176f565b825550505050565b5f90565b611824611818565b61182f8184846117f3565b505050565b5b81811015611852576118475f8261181c565b600181019050611835565b5050565b601f8211156118975761186881611644565b61187184611754565b81016020851015611880578190505b61189461188c85611754565b830182611834565b50505b505050565b5f82821c905092915050565b5f6118b75f198460080261189c565b1980831691505092915050565b5f6118cf83836118a8565b9150826002028217905092915050565b6118e8826110ed565b67ffffffffffffffff81111561190157611900611185565b5b61190b82546115ac565b611916828285611856565b5f60209050601f831160018114611947575f8415611935578287015190505b61193f85826118c4565b8655506119a6565b601f19841661195586611644565b5f5b8281101561197c57848901518255600182019150602085019450602081019050611957565b868310156119995784890151611995601f8916826118a8565b8355505b6001600288020188555050505b505050505050565b5f6119b8826110ed565b6119c281856115dc565b93506119d2818560208601611107565b80840191505092915050565b5f6119e982846119ae565b915081905092915050565b7f31000000000000000000000000000000000000000000000000000000000000005f82015250565b5f611a286001836115dc565b9150611a33826119f4565b600182019050919050565b5f611a4882611a1c565b9150819050919050565b7f4d6f6465206d75737420626520273027206f72202731270000000000000000005f82015250565b5f611a866017836110f7565b9150611a9182611a52565b602082019050919050565b5f6020820190508181035f830152611ab381611a7a565b9050919050565b7f4e487b71000000000000000000000000000000000000000000000000000000005f52603260045260245ffd5b7f3c747220636c6173733d227461626c652d726f77206c696768742d6267206c695f8201527f6768742d626f72646572206c696768742d74657874223e000000000000000000602082015250565b5f611b416037836115dc565b9150611b4c82611ae7565b603782019050919050565b7f3c746420636c6173733d226c696768742d6267222077696474683d22333025225f8201527f20616c69676e3d2263656e746572223e00000000000000000000000000000000602082015250565b5f611bb16030836115dc565b9150611bbc82611b57565b603082019050919050565b7f3c666f6e7420636c6173733d22736d616c6c5f74657874223e000000000000005f82015250565b5f611bfb6019836115dc565b9150611c0682611bc7565b601982019050919050565b7f3c6120636c6173733d226c696768742d6c696e6b22207461726765743d225f625f8201527f6c616e6b2220687265663d220000000000000000000000000000000000000000602082015250565b5f611c6b602c836115dc565b9150611c7682611c11565b602c82019050919050565b7f223e546a6f3c2f613e00000000000000000000000000000000000000000000005f82015250565b5f611cb56009836115dc565b9150611cc082611c81565b600982019050919050565b7f3c666f6e743e3c2f666f6e743e3c2f666f6e743e3c2f74643e000000000000005f82015250565b5f611cff6019836115dc565b9150611d0a82611ccb565b601982019050919050565b7f3c746420616c69676e3d227269676874222077696474683d223730252220636c5f8201527f6173733d226c696768742d6267206c696768742d6c696e6b223e000000000000602082015250565b5f611d6f603a836115dc565b9150611d7a82611d15565b603a82019050919050565b7f3c64697620636c6173733d22706f7374496e666f206465736b746f70223e00005f82015250565b5f611db9601e836115dc565b9150611dc482611d85565b601e82019050919050565b7f3c7370616e20636c6173733d22706f73744e756d206465736b746f70223e00005f82015250565b5f611e03601e836115dc565b9150611e0e82611dcf565b601e82019050919050565b7f3c6120636c6173733d226c696768742d6c696e6b22207374796c653d22666f6e5f8201527f742d73697a653a313270783b2220687265663d22000000000000000000000000602082015250565b5f611e736034836115dc565b9150611e7e82611e19565b603482019050919050565b7f22207461726765743d225f626c616e6b22207469746c653d224c696e6b20746f5f8201527f2074686973207472616e73616374696f6e223e00000000000000000000000000602082015250565b5f611ee36033836115dc565b9150611eee82611e89565b603382019050919050565b7f3c2f613e3c2f7370616e3e3c2f6469763e3c2f74643e3c2f74723e00000000005f82015250565b5f611f2d601b836115dc565b9150611f3882611ef9565b601b82019050919050565b7f3c74723e3c74642076616c69676e3d226d6964646c652220616c69676e3d226c5f8201527f6566742220636c6173733d226c696768742d6267223e00000000000000000000602082015250565b5f611f9d6036836115dc565b9150611fa882611f43565b603682019050919050565b7f3c756c20616c69676e3d226c65667422207374796c653d2270616464696e672d5f8201527f6c6566743a20313570783b666f6e742d73697a653a20313070783b223e000000602082015250565b5f61200d603d836115dc565b915061201882611fb3565b603d82019050919050565b7f3c6c6920636c6173733d226c696768742d746578742d33223e426c6f636b3a205f82015250565b5f6120576020836115dc565b915061206282612023565b602082019050919050565b7f3c2f6c693e3c6c6920636c6173733d226c696768742d746578742d33223e4c6f5f8201527f636174696f6e3a20554e4b4e4f574e3c2f6c693e3c2f756c3e3c2f74643e0000602082015250565b5f6120c7603e836115dc565b91506120d28261206d565b603e82019050919050565b7f3c746420616c69676e3d2263656e746572222076616c69676e3d226d6964646c5f8201527f652220636c6173733d226c696768742d6267223e000000000000000000000000602082015250565b5f6121376034836115dc565b9150612142826120dd565b603482019050919050565b7f3c666f6e7420636c6173733d22726567756c61725f74657874223e00000000005f82015250565b5f612181601b836115dc565b915061218c8261214d565b601b82019050919050565b7f3c64697620636c6173733d22706f7374207265706c79223e00000000000000005f82015250565b5f6121cb6018836115dc565b91506121d682612197565b601882019050919050565b7f3c626c6f636b71756f7465207374796c653d2277686974652d73706163653a205f8201527f7072652d6c696e653b6d617267696e2d746f703a3070783b2220636c6173733d60208201527f22706f73744d657373616765206c696768742d746578742d32222069643d226d60408201527f3334303739393833223e3c62723e000000000000000000000000000000000000606082015250565b5f612287606e836115dc565b9150612292826121e1565b606e82019050919050565b7f3c2f626c6f636b71756f74653e3c2f6469763e3c2f666f6e743e3c2f74643e3c5f8201527f2f74723e00000000000000000000000000000000000000000000000000000000602082015250565b5f6122f76024836115dc565b91506123028261229d565b602482019050919050565b5f612318828a6119ae565b915061232382611b35565b915061232e82611ba5565b915061233982611bef565b915061234482611c5f565b91506123508289611656565b915061235b82611ca9565b915061236682611cf3565b915061237182611d63565b915061237c82611dad565b915061238782611df7565b915061239282611e67565b915061239e8288611656565b91506123aa8287611656565b91506123b582611ed7565b91506123c18286611656565b91506123cc82611f21565b91506123d782611f91565b91506123e282612001565b91506123ed8261204b565b91506123f98285611656565b9150612404826120bb565b915061240f8261212b565b915061241a82612175565b9150612425826121bf565b91506124308261227b565b915061243c8284611656565b9150612447826122eb565b91508190509897505050505050505056fea2646970667358221220343fd0eb199b1fb48f80f64fd951f27a5b8ec2936922dd882e751a3dd03e362564736f6c634300081a0033",
					"opcodes": "PUSH1 0x80 PUSH1 0x40 MSTORE PUSH1 0x40 MLOAD DUP1 PUSH1 0x40 ADD PUSH1 0x40 MSTORE DUP1 PUSH1 0x1 DUP2 MSTORE PUSH1 0x20 ADD PUSH32 0x3000000000000000000000000000000000000000000000000000000000000000 DUP2 MSTORE POP PUSH0 SWAP1 DUP2 PUSH2 0x47 SWAP2 SWAP1 PUSH2 0x40B JUMP JUMPDEST POP PUSH1 0x40 MLOAD DUP1 PUSH1 0x40 ADD PUSH1 0x40 MSTORE DUP1 PUSH1 0x14 DUP2 MSTORE PUSH1 0x20 ADD PUSH32 0x68747470733A2F2F7777772E746A6F2E6172742F000000000000000000000000 DUP2 MSTORE POP PUSH1 0x4 SWAP1 DUP2 PUSH2 0x8C SWAP2 SWAP1 PUSH2 0x40B JUMP JUMPDEST POP PUSH1 0x40 MLOAD DUP1 PUSH1 0x40 ADD PUSH1 0x40 MSTORE DUP1 PUSH1 0x18 DUP2 MSTORE PUSH1 0x20 ADD PUSH32 0x68747470733A2F2F65746865727363616E2E696F2F74782F0000000000000000 DUP2 MSTORE POP PUSH1 0x5 SWAP1 DUP2 PUSH2 0xD1 SWAP2 SWAP1 PUSH2 0x40B JUMP JUMPDEST POP PUSH1 0x40 MLOAD DUP1 PUSH1 0x40 ADD PUSH1 0x40 MSTORE DUP1 PUSH1 0x1A DUP2 MSTORE PUSH1 0x20 ADD PUSH32 0x68747470733A2F2F616E647265776D69746368656C6C2E78797A000000000000 DUP2 MSTORE POP PUSH1 0x6 SWAP1 DUP2 PUSH2 0x116 SWAP2 SWAP1 PUSH2 0x40B JUMP JUMPDEST POP CALLVALUE DUP1 ISZERO PUSH2 0x122 JUMPI PUSH0 DUP1 REVERT JUMPDEST POP CALLER PUSH1 0x3 PUSH0 PUSH2 0x100 EXP DUP2 SLOAD DUP2 PUSH20 0xFFFFFFFFFFFFFFFFFFFFFFFFFFFFFFFFFFFFFFFF MUL NOT AND SWAP1 DUP4 PUSH20 0xFFFFFFFFFFFFFFFFFFFFFFFFFFFFFFFFFFFFFFFF AND MUL OR SWAP1 SSTORE POP PUSH1 0x1 PUSH1 0x2 PUSH0 PUSH20 0xF1DA6E2D387E9DA611DAC8A7FC587EAA4B010013 PUSH20 0xFFFFFFFFFFFFFFFFFFFFFFFFFFFFFFFFFFFFFFFF AND PUSH20 0xFFFFFFFFFFFFFFFFFFFFFFFFFFFFFFFFFFFFFFFF AND DUP2 MSTORE PUSH1 0x20 ADD SWAP1 DUP2 MSTORE PUSH1 0x20 ADD PUSH0 KECCAK256 PUSH0 PUSH2 0x100 EXP DUP2 SLOAD DUP2 PUSH1 0xFF MUL NOT AND SWAP1 DUP4 ISZERO ISZERO MUL OR SWAP1 SSTORE POP PUSH2 0x4DA JUMP JUMPDEST PUSH0 DUP2 MLOAD SWAP1 POP SWAP2 SWAP1 POP JUMP JUMPDEST PUSH32 0x4E487B7100000000000000000000000000000000000000000000000000000000 PUSH0 MSTORE PUSH1 0x41 PUSH1 0x4 MSTORE PUSH1 0x24 PUSH0 REVERT JUMPDEST PUSH32 0x4E487B7100000000000000000000000000000000000000000000000000000000 PUSH0 MSTORE PUSH1 0x22 PUSH1 0x4 MSTORE PUSH1 0x24 PUSH0 REVERT JUMPDEST PUSH0 PUSH1 0x2 DUP3 DIV SWAP1 POP PUSH1 0x1 DUP3 AND DUP1 PUSH2 0x24C JUMPI PUSH1 0x7F DUP3 AND SWAP2 POP JUMPDEST PUSH1 0x20 DUP3 LT DUP2 SUB PUSH2 0x25F JUMPI PUSH2 0x25E PUSH2 0x208 JUMP JUMPDEST JUMPDEST POP SWAP2 SWAP1 POP JUMP JUMPDEST PUSH0 DUP2 SWAP1 POP DUP2 PUSH0 MSTORE PUSH1 0x20 PUSH0 KECCAK256 SWAP1 POP SWAP2 SWAP1 POP JUMP JUMPDEST PUSH0 PUSH1 0x20 PUSH1 0x1F DUP4 ADD DIV SWAP1 POP SWAP2 SWAP1 POP JUMP JUMPDEST PUSH0 DUP3 DUP3 SHL SWAP1 POP SWAP3 SWAP2 POP POP JUMP JUMPDEST PUSH0 PUSH1 0x8 DUP4 MUL PUSH2 0x2C1 PUSH32 0xFFFFFFFFFFFFFFFFFFFFFFFFFFFFFFFFFFFFFFFFFFFFFFFFFFFFFFFFFFFFFFFF DUP3 PUSH2 0x286 JUMP JUMPDEST PUSH2 0x2CB DUP7 DUP4 PUSH2 0x286 JUMP JUMPDEST SWAP6 POP DUP1 NOT DUP5 AND SWAP4 POP DUP1 DUP7 AND DUP5 OR SWAP3 POP POP POP SWAP4 SWAP3 POP POP POP JUMP JUMPDEST PUSH0 DUP2 SWAP1 POP SWAP2 SWAP1 POP JUMP JUMPDEST PUSH0 DUP2 SWAP1 POP SWAP2 SWAP1 POP JUMP JUMPDEST PUSH0 PUSH2 0x30F PUSH2 0x30A PUSH2 0x305 DUP5 PUSH2 0x2E3 JUMP JUMPDEST PUSH2 0x2EC JUMP JUMPDEST PUSH2 0x2E3 JUMP JUMPDEST SWAP1 POP SWAP2 SWAP1 POP JUMP JUMPDEST PUSH0 DUP2 SWAP1 POP SWAP2 SWAP1 POP JUMP JUMPDEST PUSH2 0x328 DUP4 PUSH2 0x2F5 JUMP JUMPDEST PUSH2 0x33C PUSH2 0x334 DUP3 PUSH2 0x316 JUMP JUMPDEST DUP5 DUP5 SLOAD PUSH2 0x292 JUMP JUMPDEST DUP3 SSTORE POP POP POP POP JUMP JUMPDEST PUSH0 SWAP1 JUMP JUMPDEST PUSH2 0x350 PUSH2 0x344 JUMP JUMPDEST PUSH2 0x35B DUP2 DUP5 DUP5 PUSH2 0x31F JUMP JUMPDEST POP POP POP JUMP JUMPDEST JUMPDEST DUP2 DUP2 LT ISZERO PUSH2 0x37E JUMPI PUSH2 0x373 PUSH0 DUP3 PUSH2 0x348 JUMP JUMPDEST PUSH1 0x1 DUP2 ADD SWAP1 POP PUSH2 0x361 JUMP JUMPDEST POP POP JUMP JUMPDEST PUSH1 0x1F DUP3 GT ISZERO PUSH2 0x3C3 JUMPI PUSH2 0x394 DUP2 PUSH2 0x265 JUMP JUMPDEST PUSH2 0x39D DUP5 PUSH2 0x277 JUMP JUMPDEST DUP2 ADD PUSH1 0x20 DUP6 LT ISZERO PUSH2 0x3AC JUMPI DUP2 SWAP1 POP JUMPDEST PUSH2 0x3C0 PUSH2 0x3B8 DUP6 PUSH2 0x277 JUMP JUMPDEST DUP4 ADD DUP3 PUSH2 0x360 JUMP JUMPDEST POP POP JUMPDEST POP POP POP JUMP JUMPDEST PUSH0 DUP3 DUP3 SHR SWAP1 POP SWAP3 SWAP2 POP POP JUMP JUMPDEST PUSH0 PUSH2 0x3E3 PUSH0 NOT DUP5 PUSH1 0x8 MUL PUSH2 0x3C8 JUMP JUMPDEST NOT DUP1 DUP4 AND SWAP2 POP POP SWAP3 SWAP2 POP POP JUMP JUMPDEST PUSH0 PUSH2 0x3FB DUP4 DUP4 PUSH2 0x3D4 JUMP JUMPDEST SWAP2 POP DUP3 PUSH1 0x2 MUL DUP3 OR SWAP1 POP SWAP3 SWAP2 POP POP JUMP JUMPDEST PUSH2 0x414 DUP3 PUSH2 0x1D1 JUMP JUMPDEST PUSH8 0xFFFFFFFFFFFFFFFF DUP2 GT ISZERO PUSH2 0x42D JUMPI PUSH2 0x42C PUSH2 0x1DB JUMP JUMPDEST JUMPDEST PUSH2 0x437 DUP3 SLOAD PUSH2 0x235 JUMP JUMPDEST PUSH2 0x442 DUP3 DUP3 DUP6 PUSH2 0x382 JUMP JUMPDEST PUSH0 PUSH1 0x20 SWAP1 POP PUSH1 0x1F DUP4 GT PUSH1 0x1 DUP2 EQ PUSH2 0x473 JUMPI PUSH0 DUP5 ISZERO PUSH2 0x461 JUMPI DUP3 DUP8 ADD MLOAD SWAP1 POP JUMPDEST PUSH2 0x46B DUP6 DUP3 PUSH2 0x3F0 JUMP JUMPDEST DUP7 SSTORE POP PUSH2 0x4D2 JUMP JUMPDEST PUSH1 0x1F NOT DUP5 AND PUSH2 0x481 DUP7 PUSH2 0x265 JUMP JUMPDEST PUSH0 JUMPDEST DUP3 DUP2 LT ISZERO PUSH2 0x4A8 JUMPI DUP5 DUP10 ADD MLOAD DUP3 SSTORE PUSH1 0x1 DUP3 ADD SWAP2 POP PUSH1 0x20 DUP6 ADD SWAP5 POP PUSH1 0x20 DUP2 ADD SWAP1 POP PUSH2 0x483 JUMP JUMPDEST DUP7 DUP4 LT ISZERO PUSH2 0x4C5 JUMPI DUP5 DUP10 ADD MLOAD PUSH2 0x4C1 PUSH1 0x1F DUP10 AND DUP3 PUSH2 0x3D4 JUMP JUMPDEST DUP4 SSTORE POP JUMPDEST PUSH1 0x1 PUSH1 0x2 DUP9 MUL ADD DUP9 SSTORE POP POP POP JUMPDEST POP POP POP POP POP POP JUMP JUMPDEST PUSH2 0x248E DUP1 PUSH2 0x4E7 PUSH0 CODECOPY PUSH0 RETURN INVALID PUSH1 0x80 PUSH1 0x40 MSTORE CALLVALUE DUP1 ISZERO PUSH2 0xF JUMPI PUSH0 DUP1 REVERT JUMPDEST POP PUSH1 0x4 CALLDATASIZE LT PUSH2 0xE8 JUMPI PUSH0 CALLDATALOAD PUSH1 0xE0 SHR DUP1 PUSH4 0x87A5B67C GT PUSH2 0x8A JUMPI DUP1 PUSH4 0xA9C598B9 GT PUSH2 0x64 JUMPI DUP1 PUSH4 0xA9C598B9 EQ PUSH2 0x220 JUMPI DUP1 PUSH4 0xB0A69AB4 EQ PUSH2 0x23C JUMPI DUP1 PUSH4 0xB30906D4 EQ PUSH2 0x25A JUMPI DUP1 PUSH4 0xC41F0CAC EQ PUSH2 0x28E JUMPI PUSH2 0xE8 JUMP JUMPDEST DUP1 PUSH4 0x87A5B67C EQ PUSH2 0x1B6 JUMPI DUP1 PUSH4 0x8DA5CB5B EQ PUSH2 0x1E6 JUMPI DUP1 PUSH4 0xA84FD0ED EQ PUSH2 0x204 JUMPI PUSH2 0xE8 JUMP JUMPDEST DUP1 PUSH4 0x4B4FD03B GT PUSH2 0xC6 JUMPI DUP1 PUSH4 0x4B4FD03B EQ PUSH2 0x144 JUMPI DUP1 PUSH4 0x52BAF08F EQ PUSH2 0x162 JUMPI DUP1 PUSH4 0x57C8BE66 EQ PUSH2 0x17E JUMPI DUP1 PUSH4 0x85E68531 EQ PUSH2 0x19A JUMPI PUSH2 0xE8 JUMP JUMPDEST DUP1 PUSH4 0xAE5E739 EQ PUSH2 0xEC JUMPI DUP1 PUSH4 0x12D491C9 EQ PUSH2 0x108 JUMPI DUP1 PUSH4 0x295A5212 EQ PUSH2 0x126 JUMPI JUMPDEST PUSH0 DUP1 REVERT JUMPDEST PUSH2 0x106 PUSH1 0x4 DUP1 CALLDATASIZE SUB DUP2 ADD SWAP1 PUSH2 0x101 SWAP2 SWAP1 PUSH2 0x1091 JUMP JUMPDEST PUSH2 0x2AA JUMP JUMPDEST STOP JUMPDEST PUSH2 0x110 PUSH2 0x391 JUMP JUMPDEST PUSH1 0x40 MLOAD PUSH2 0x11D SWAP2 SWAP1 PUSH2 0x10D4 JUMP JUMPDEST PUSH1 0x40 MLOAD DUP1 SWAP2 SUB SWAP1 RETURN JUMPDEST PUSH2 0x12E PUSH2 0x39D JUMP JUMPDEST PUSH1 0x40 MLOAD PUSH2 0x13B SWAP2 SWAP1 PUSH2 0x115D JUMP JUMPDEST PUSH1 0x40 MLOAD DUP1 SWAP2 SUB SWAP1 RETURN JUMPDEST PUSH2 0x14C PUSH2 0x428 JUMP JUMPDEST PUSH1 0x40 MLOAD PUSH2 0x159 SWAP2 SWAP1 PUSH2 0x115D JUMP JUMPDEST PUSH1 0x40 MLOAD DUP1 SWAP2 SUB SWAP1 RETURN JUMPDEST PUSH2 0x17C PUSH1 0x4 DUP1 CALLDATASIZE SUB DUP2 ADD SWAP1 PUSH2 0x177 SWAP2 SWAP1 PUSH2 0x12A9 JUMP JUMPDEST PUSH2 0x4F2 JUMP JUMPDEST STOP JUMPDEST PUSH2 0x198 PUSH1 0x4 DUP1 CALLDATASIZE SUB DUP2 ADD SWAP1 PUSH2 0x193 SWAP2 SWAP1 PUSH2 0x12F0 JUMP JUMPDEST PUSH2 0x5E5 JUMP JUMPDEST STOP JUMPDEST PUSH2 0x1B4 PUSH1 0x4 DUP1 CALLDATASIZE SUB DUP2 ADD SWAP1 PUSH2 0x1AF SWAP2 SWAP1 PUSH2 0x1091 JUMP JUMPDEST PUSH2 0x789 JUMP JUMPDEST STOP JUMPDEST PUSH2 0x1D0 PUSH1 0x4 DUP1 CALLDATASIZE SUB DUP2 ADD SWAP1 PUSH2 0x1CB SWAP2 SWAP1 PUSH2 0x1091 JUMP JUMPDEST PUSH2 0x86F JUMP JUMPDEST PUSH1 0x40 MLOAD PUSH2 0x1DD SWAP2 SWAP1 PUSH2 0x140D JUMP JUMPDEST PUSH1 0x40 MLOAD DUP1 SWAP2 SUB SWAP1 RETURN JUMPDEST PUSH2 0x1EE PUSH2 0x88C JUMP JUMPDEST PUSH1 0x40 MLOAD PUSH2 0x1FB SWAP2 SWAP1 PUSH2 0x1435 JUMP JUMPDEST PUSH1 0x40 MLOAD DUP1 SWAP2 SUB SWAP1 RETURN JUMPDEST PUSH2 0x21E PUSH1 0x4 DUP1 CALLDATASIZE SUB DUP2 ADD SWAP1 PUSH2 0x219 SWAP2 SWAP1 PUSH2 0x12A9 JUMP JUMPDEST PUSH2 0x8B1 JUMP JUMPDEST STOP JUMPDEST PUSH2 0x23A PUSH1 0x4 DUP1 CALLDATASIZE SUB DUP2 ADD SWAP1 PUSH2 0x235 SWAP2 SWAP1 PUSH2 0x12A9 JUMP JUMPDEST PUSH2 0xA83 JUMP JUMPDEST STOP JUMPDEST PUSH2 0x244 PUSH2 0xB76 JUMP JUMPDEST PUSH1 0x40 MLOAD PUSH2 0x251 SWAP2 SWAP1 PUSH2 0x115D JUMP JUMPDEST PUSH1 0x40 MLOAD DUP1 SWAP2 SUB SWAP1 RETURN JUMPDEST PUSH2 0x274 PUSH1 0x4 DUP1 CALLDATASIZE SUB DUP2 ADD SWAP1 PUSH2 0x26F SWAP2 SWAP1 PUSH2 0x1478 JUMP JUMPDEST PUSH2 0xC54 JUMP JUMPDEST PUSH1 0x40 MLOAD PUSH2 0x285 SWAP6 SWAP5 SWAP4 SWAP3 SWAP2 SWAP1 PUSH2 0x14A3 JUMP JUMPDEST PUSH1 0x40 MLOAD DUP1 SWAP2 SUB SWAP1 RETURN JUMPDEST PUSH2 0x2A8 PUSH1 0x4 DUP1 CALLDATASIZE SUB DUP2 ADD SWAP1 PUSH2 0x2A3 SWAP2 SWAP1 PUSH2 0x12A9 JUMP JUMPDEST PUSH2 0xF33 JUMP JUMPDEST STOP JUMPDEST PUSH1 0x3 PUSH0 SWAP1 SLOAD SWAP1 PUSH2 0x100 EXP SWAP1 DIV PUSH20 0xFFFFFFFFFFFFFFFFFFFFFFFFFFFFFFFFFFFFFFFF AND PUSH20 0xFFFFFFFFFFFFFFFFFFFFFFFFFFFFFFFFFFFFFFFF AND CALLER PUSH20 0xFFFFFFFFFFFFFFFFFFFFFFFFFFFFFFFFFFFFFFFF AND EQ PUSH2 0x339 JUMPI PUSH1 0x40 MLOAD PUSH32 0x8C379A000000000000000000000000000000000000000000000000000000000 DUP2 MSTORE PUSH1 0x4 ADD PUSH2 0x330 SWAP1 PUSH2 0x1561 JUMP JUMPDEST PUSH1 0x40 MLOAD DUP1 SWAP2 SUB SWAP1 REVERT JUMPDEST PUSH1 0x1 PUSH1 0x2 PUSH0 DUP4 PUSH20 0xFFFFFFFFFFFFFFFFFFFFFFFFFFFFFFFFFFFFFFFF AND PUSH20 0xFFFFFFFFFFFFFFFFFFFFFFFFFFFFFFFFFFFFFFFF AND DUP2 MSTORE PUSH1 0x20 ADD SWAP1 DUP2 MSTORE PUSH1 0x20 ADD PUSH0 KECCAK256 PUSH0 PUSH2 0x100 EXP DUP2 SLOAD DUP2 PUSH1 0xFF MUL NOT AND SWAP1 DUP4 ISZERO ISZERO MUL OR SWAP1 SSTORE POP POP JUMP JUMPDEST PUSH0 PUSH1 0x1 DUP1 SLOAD SWAP1 POP SWAP1 POP SWAP1 JUMP JUMPDEST PUSH0 DUP1 SLOAD PUSH2 0x3A9 SWAP1 PUSH2 0x15AC JUMP JUMPDEST DUP1 PUSH1 0x1F ADD PUSH1 0x20 DUP1 SWAP2 DIV MUL PUSH1 0x20 ADD PUSH1 0x40 MLOAD SWAP1 DUP2 ADD PUSH1 0x40 MSTORE DUP1 SWAP3 SWAP2 SWAP1 DUP2 DUP2 MSTORE PUSH1 0x20 ADD DUP3 DUP1 SLOAD PUSH2 0x3D5 SWAP1 PUSH2 0x15AC JUMP JUMPDEST DUP1 ISZERO PUSH2 0x420 JUMPI DUP1 PUSH1 0x1F LT PUSH2 0x3F7 JUMPI PUSH2 0x100 DUP1 DUP4 SLOAD DIV MUL DUP4 MSTORE SWAP2 PUSH1 0x20 ADD SWAP2 PUSH2 0x420 JUMP JUMPDEST DUP3 ADD SWAP2 SWAP1 PUSH0 MSTORE PUSH1 0x20 PUSH0 KECCAK256 SWAP1 JUMPDEST DUP2 SLOAD DUP2 MSTORE SWAP1 PUSH1 0x1 ADD SWAP1 PUSH1 0x20 ADD DUP1 DUP4 GT PUSH2 0x403 JUMPI DUP3 SWAP1 SUB PUSH1 0x1F AND DUP3 ADD SWAP2 JUMPDEST POP POP POP POP POP DUP2 JUMP JUMPDEST PUSH1 0x60 PUSH1 0x40 MLOAD PUSH1 0x20 ADD PUSH2 0x439 SWAP1 PUSH2 0x1630 JUMP JUMPDEST PUSH1 0x40 MLOAD PUSH1 0x20 DUP2 DUP4 SUB SUB DUP2 MSTORE SWAP1 PUSH1 0x40 MSTORE DUP1 MLOAD SWAP1 PUSH1 0x20 ADD KECCAK256 PUSH0 PUSH1 0x40 MLOAD PUSH1 0x20 ADD PUSH2 0x460 SWAP2 SWAP1 PUSH2 0x16D6 JUMP JUMPDEST PUSH1 0x40 MLOAD PUSH1 0x20 DUP2 DUP4 SUB SUB DUP2 MSTORE SWAP1 PUSH1 0x40 MSTORE DUP1 MLOAD SWAP1 PUSH1 0x20 ADD KECCAK256 EQ PUSH2 0x4B6 JUMPI PUSH1 0x40 MLOAD DUP1 PUSH1 0x40 ADD PUSH1 0x40 MSTORE DUP1 PUSH1 0x4 DUP2 MSTORE PUSH1 0x20 ADD PUSH32 0x6461726B00000000000000000000000000000000000000000000000000000000 DUP2 MSTORE POP PUSH2 0x4ED JUMP JUMPDEST PUSH1 0x40 MLOAD DUP1 PUSH1 0x40 ADD PUSH1 0x40 MSTORE DUP1 PUSH1 0x5 DUP2 MSTORE PUSH1 0x20 ADD PUSH32 0x6C69676874000000000000000000000000000000000000000000000000000000 DUP2 MSTORE POP JUMPDEST SWAP1 POP SWAP1 JUMP JUMPDEST PUSH1 0x3 PUSH0 SWAP1 SLOAD SWAP1 PUSH2 0x100 EXP SWAP1 DIV PUSH20 0xFFFFFFFFFFFFFFFFFFFFFFFFFFFFFFFFFFFFFFFF AND PUSH20 0xFFFFFFFFFFFFFFFFFFFFFFFFFFFFFFFFFFFFFFFF AND CALLER PUSH20 0xFFFFFFFFFFFFFFFFFFFFFFFFFFFFFFFFFFFFFFFF AND EQ DUP1 PUSH2 0x593 JUMPI POP PUSH1 0x2 PUSH0 CALLER PUSH20 0xFFFFFFFFFFFFFFFFFFFFFFFFFFFFFFFFFFFFFFFF AND PUSH20 0xFFFFFFFFFFFFFFFFFFFFFFFFFFFFFFFFFFFFFFFF AND DUP2 MSTORE PUSH1 0x20 ADD SWAP1 DUP2 MSTORE PUSH1 0x20 ADD PUSH0 KECCAK256 PUSH0 SWAP1 SLOAD SWAP1 PUSH2 0x100 EXP SWAP1 DIV PUSH1 0xFF AND JUMPDEST PUSH2 0x5D2 JUMPI PUSH1 0x40 MLOAD PUSH32 0x8C379A000000000000000000000000000000000000000000000000000000000 DUP2 MSTORE PUSH1 0x4 ADD PUSH2 0x5C9 SWAP1 PUSH2 0x1736 JUMP JUMPDEST PUSH1 0x40 MLOAD DUP1 SWAP2 SUB SWAP1 REVERT JUMPDEST DUP1 PUSH1 0x6 SWAP1 DUP2 PUSH2 0x5E1 SWAP2 SWAP1 PUSH2 0x18DF JUMP JUMPDEST POP POP JUMP JUMPDEST PUSH1 0x3 PUSH0 SWAP1 SLOAD SWAP1 PUSH2 0x100 EXP SWAP1 DIV PUSH20 0xFFFFFFFFFFFFFFFFFFFFFFFFFFFFFFFFFFFFFFFF AND PUSH20 0xFFFFFFFFFFFFFFFFFFFFFFFFFFFFFFFFFFFFFFFF AND CALLER PUSH20 0xFFFFFFFFFFFFFFFFFFFFFFFFFFFFFFFFFFFFFFFF AND EQ DUP1 PUSH2 0x686 JUMPI POP PUSH1 0x2 PUSH0 CALLER PUSH20 0xFFFFFFFFFFFFFFFFFFFFFFFFFFFFFFFFFFFFFFFF AND PUSH20 0xFFFFFFFFFFFFFFFFFFFFFFFFFFFFFFFFFFFFFFFF AND DUP2 MSTORE PUSH1 0x20 ADD SWAP1 DUP2 MSTORE PUSH1 0x20 ADD PUSH0 KECCAK256 PUSH0 SWAP1 SLOAD SWAP1 PUSH2 0x100 EXP SWAP1 DIV PUSH1 0xFF AND JUMPDEST PUSH2 0x6C5 JUMPI PUSH1 0x40 MLOAD PUSH32 0x8C379A000000000000000000000000000000000000000000000000000000000 DUP2 MSTORE PUSH1 0x4 ADD PUSH2 0x6BC SWAP1 PUSH2 0x1736 JUMP JUMPDEST PUSH1 0x40 MLOAD DUP1 SWAP2 SUB SWAP1 REVERT JUMPDEST PUSH1 0x1 PUSH1 0x40 MLOAD DUP1 PUSH1 0xA0 ADD PUSH1 0x40 MSTORE DUP1 DUP8 DUP2 MSTORE PUSH1 0x20 ADD DUP7 DUP2 MSTORE PUSH1 0x20 ADD DUP6 DUP2 MSTORE PUSH1 0x20 ADD DUP5 DUP2 MSTORE PUSH1 0x20 ADD DUP4 DUP2 MSTORE POP SWAP1 DUP1 PUSH1 0x1 DUP2 SLOAD ADD DUP1 DUP3 SSTORE DUP1 SWAP2 POP POP PUSH1 0x1 SWAP1 SUB SWAP1 PUSH0 MSTORE PUSH1 0x20 PUSH0 KECCAK256 SWAP1 PUSH1 0x5 MUL ADD PUSH0 SWAP1 SWAP2 SWAP1 SWAP2 SWAP1 SWAP2 POP PUSH0 DUP3 ADD MLOAD DUP2 PUSH0 ADD SWAP1 DUP2 PUSH2 0x727 SWAP2 SWAP1 PUSH2 0x18DF JUMP JUMPDEST POP PUSH1 0x20 DUP3 ADD MLOAD DUP2 PUSH1 0x1 ADD SWAP1 DUP2 PUSH2 0x73D SWAP2 SWAP1 PUSH2 0x18DF JUMP JUMPDEST POP PUSH1 0x40 DUP3 ADD MLOAD DUP2 PUSH1 0x2 ADD SWAP1 DUP2 PUSH2 0x753 SWAP2 SWAP1 PUSH2 0x18DF JUMP JUMPDEST POP PUSH1 0x60 DUP3 ADD MLOAD DUP2 PUSH1 0x3 ADD SWAP1 DUP2 PUSH2 0x769 SWAP2 SWAP1 PUSH2 0x18DF JUMP JUMPDEST POP PUSH1 0x80 DUP3 ADD MLOAD DUP2 PUSH1 0x4 ADD SWAP1 DUP2 PUSH2 0x77F SWAP2 SWAP1 PUSH2 0x18DF JUMP JUMPDEST POP POP POP POP POP POP POP POP JUMP JUMPDEST PUSH1 0x3 PUSH0 SWAP1 SLOAD SWAP1 PUSH2 0x100 EXP SWAP1 DIV PUSH20 0xFFFFFFFFFFFFFFFFFFFFFFFFFFFFFFFFFFFFFFFF AND PUSH20 0xFFFFFFFFFFFFFFFFFFFFFFFFFFFFFFFFFFFFFFFF AND CALLER PUSH20 0xFFFFFFFFFFFFFFFFFFFFFFFFFFFFFFFFFFFFFFFF AND EQ PUSH2 0x818 JUMPI PUSH1 0x40 MLOAD PUSH32 0x8C379A000000000000000000000000000000000000000000000000000000000 DUP2 MSTORE PUSH1 0x4 ADD PUSH2 0x80F SWAP1 PUSH2 0x1561 JUMP JUMPDEST PUSH1 0x40 MLOAD DUP1 SWAP2 SUB SWAP1 REVERT JUMPDEST PUSH0 PUSH1 0x2 PUSH0 DUP4 PUSH20 0xFFFFFFFFFFFFFFFFFFFFFFFFFFFFFFFFFFFFFFFF AND PUSH20 0xFFFFFFFFFFFFFFFFFFFFFFFFFFFFFFFFFFFFFFFF AND DUP2 MSTORE PUSH1 0x20 ADD SWAP1 DUP2 MSTORE PUSH1 0x20 ADD PUSH0 KECCAK256 PUSH0 PUSH2 0x100 EXP DUP2 SLOAD DUP2 PUSH1 0xFF MUL NOT AND SWAP1 DUP4 ISZERO ISZERO MUL OR SWAP1 SSTORE POP POP JUMP JUMPDEST PUSH1 0x2 PUSH1 0x20 MSTORE DUP1 PUSH0 MSTORE PUSH1 0x40 PUSH0 KECCAK256 PUSH0 SWAP2 POP SLOAD SWAP1 PUSH2 0x100 EXP SWAP1 DIV PUSH1 0xFF AND DUP2 JUMP JUMPDEST PUSH1 0x3 PUSH0 SWAP1 SLOAD SWAP1 PUSH2 0x100 EXP SWAP1 DIV PUSH20 0xFFFFFFFFFFFFFFFFFFFFFFFFFFFFFFFFFFFFFFFF AND DUP2 JUMP JUMPDEST PUSH1 0x3 PUSH0 SWAP1 SLOAD SWAP1 PUSH2 0x100 EXP SWAP1 DIV PUSH20 0xFFFFFFFFFFFFFFFFFFFFFFFFFFFFFFFFFFFFFFFF AND PUSH20 0xFFFFFFFFFFFFFFFFFFFFFFFFFFFFFFFFFFFFFFFF AND CALLER PUSH20 0xFFFFFFFFFFFFFFFFFFFFFFFFFFFFFFFFFFFFFFFF AND EQ DUP1 PUSH2 0x952 JUMPI POP PUSH1 0x2 PUSH0 CALLER PUSH20 0xFFFFFFFFFFFFFFFFFFFFFFFFFFFFFFFFFFFFFFFF AND PUSH20 0xFFFFFFFFFFFFFFFFFFFFFFFFFFFFFFFFFFFFFFFF AND DUP2 MSTORE PUSH1 0x20 ADD SWAP1 DUP2 MSTORE PUSH1 0x20 ADD PUSH0 KECCAK256 PUSH0 SWAP1 SLOAD SWAP1 PUSH2 0x100 EXP SWAP1 DIV PUSH1 0xFF AND JUMPDEST PUSH2 0x991 JUMPI PUSH1 0x40 MLOAD PUSH32 0x8C379A000000000000000000000000000000000000000000000000000000000 DUP2 MSTORE PUSH1 0x4 ADD PUSH2 0x988 SWAP1 PUSH2 0x1736 JUMP JUMPDEST PUSH1 0x40 MLOAD DUP1 SWAP2 SUB SWAP1 REVERT JUMPDEST PUSH1 0x40 MLOAD PUSH1 0x20 ADD PUSH2 0x9A0 SWAP1 PUSH2 0x1630 JUMP JUMPDEST PUSH1 0x40 MLOAD PUSH1 0x20 DUP2 DUP4 SUB SUB DUP2 MSTORE SWAP1 PUSH1 0x40 MSTORE DUP1 MLOAD SWAP1 PUSH1 0x20 ADD KECCAK256 DUP2 PUSH1 0x40 MLOAD PUSH1 0x20 ADD PUSH2 0x9C7 SWAP2 SWAP1 PUSH2 0x19DE JUMP JUMPDEST PUSH1 0x40 MLOAD PUSH1 0x20 DUP2 DUP4 SUB SUB DUP2 MSTORE SWAP1 PUSH1 0x40 MSTORE DUP1 MLOAD SWAP1 PUSH1 0x20 ADD KECCAK256 EQ DUP1 PUSH2 0xA32 JUMPI POP PUSH1 0x40 MLOAD PUSH1 0x20 ADD PUSH2 0x9F3 SWAP1 PUSH2 0x1A3E JUMP JUMPDEST PUSH1 0x40 MLOAD PUSH1 0x20 DUP2 DUP4 SUB SUB DUP2 MSTORE SWAP1 PUSH1 0x40 MSTORE DUP1 MLOAD SWAP1 PUSH1 0x20 ADD KECCAK256 DUP2 PUSH1 0x40 MLOAD PUSH1 0x20 ADD PUSH2 0xA1A SWAP2 SWAP1 PUSH2 0x19DE JUMP JUMPDEST PUSH1 0x40 MLOAD PUSH1 0x20 DUP2 DUP4 SUB SUB DUP2 MSTORE SWAP1 PUSH1 0x40 MSTORE DUP1 MLOAD SWAP1 PUSH1 0x20 ADD KECCAK256 EQ JUMPDEST PUSH2 0xA71 JUMPI PUSH1 0x40 MLOAD PUSH32 0x8C379A000000000000000000000000000000000000000000000000000000000 DUP2 MSTORE PUSH1 0x4 ADD PUSH2 0xA68 SWAP1 PUSH2 0x1A9C JUMP JUMPDEST PUSH1 0x40 MLOAD DUP1 SWAP2 SUB SWAP1 REVERT JUMPDEST DUP1 PUSH0 SWAP1 DUP2 PUSH2 0xA7F SWAP2 SWAP1 PUSH2 0x18DF JUMP JUMPDEST POP POP JUMP JUMPDEST PUSH1 0x3 PUSH0 SWAP1 SLOAD SWAP1 PUSH2 0x100 EXP SWAP1 DIV PUSH20 0xFFFFFFFFFFFFFFFFFFFFFFFFFFFFFFFFFFFFFFFF AND PUSH20 0xFFFFFFFFFFFFFFFFFFFFFFFFFFFFFFFFFFFFFFFF AND CALLER PUSH20 0xFFFFFFFFFFFFFFFFFFFFFFFFFFFFFFFFFFFFFFFF AND EQ DUP1 PUSH2 0xB24 JUMPI POP PUSH1 0x2 PUSH0 CALLER PUSH20 0xFFFFFFFFFFFFFFFFFFFFFFFFFFFFFFFFFFFFFFFF AND PUSH20 0xFFFFFFFFFFFFFFFFFFFFFFFFFFFFFFFFFFFFFFFF AND DUP2 MSTORE PUSH1 0x20 ADD SWAP1 DUP2 MSTORE PUSH1 0x20 ADD PUSH0 KECCAK256 PUSH0 SWAP1 SLOAD SWAP1 PUSH2 0x100 EXP SWAP1 DIV PUSH1 0xFF AND JUMPDEST PUSH2 0xB63 JUMPI PUSH1 0x40 MLOAD PUSH32 0x8C379A000000000000000000000000000000000000000000000000000000000 DUP2 MSTORE PUSH1 0x4 ADD PUSH2 0xB5A SWAP1 PUSH2 0x1736 JUMP JUMPDEST PUSH1 0x40 MLOAD DUP1 SWAP2 SUB SWAP1 REVERT JUMPDEST DUP1 PUSH1 0x5 SWAP1 DUP2 PUSH2 0xB72 SWAP2 SWAP1 PUSH2 0x18DF JUMP JUMPDEST POP POP JUMP JUMPDEST PUSH1 0x60 DUP1 PUSH0 JUMPDEST PUSH1 0x1 DUP1 SLOAD SWAP1 POP DUP2 LT ISZERO PUSH2 0xC4C JUMPI DUP2 PUSH1 0x4 PUSH1 0x5 PUSH1 0x1 DUP5 DUP2 SLOAD DUP2 LT PUSH2 0xBA1 JUMPI PUSH2 0xBA0 PUSH2 0x1ABA JUMP JUMPDEST JUMPDEST SWAP1 PUSH0 MSTORE PUSH1 0x20 PUSH0 KECCAK256 SWAP1 PUSH1 0x5 MUL ADD PUSH0 ADD PUSH1 0x1 DUP6 DUP2 SLOAD DUP2 LT PUSH2 0xBC3 JUMPI PUSH2 0xBC2 PUSH2 0x1ABA JUMP JUMPDEST JUMPDEST SWAP1 PUSH0 MSTORE PUSH1 0x20 PUSH0 KECCAK256 SWAP1 PUSH1 0x5 MUL ADD PUSH1 0x4 ADD PUSH1 0x1 DUP7 DUP2 SLOAD DUP2 LT PUSH2 0xBE6 JUMPI PUSH2 0xBE5 PUSH2 0x1ABA JUMP JUMPDEST JUMPDEST SWAP1 PUSH0 MSTORE PUSH1 0x20 PUSH0 KECCAK256 SWAP1 PUSH1 0x5 MUL ADD PUSH1 0x1 ADD PUSH1 0x1 DUP8 DUP2 SLOAD DUP2 LT PUSH2 0xC09 JUMPI PUSH2 0xC08 PUSH2 0x1ABA JUMP JUMPDEST JUMPDEST SWAP1 PUSH0 MSTORE PUSH1 0x20 PUSH0 KECCAK256 SWAP1 PUSH1 0x5 MUL ADD PUSH1 0x3 ADD PUSH1 0x40 MLOAD PUSH1 0x20 ADD PUSH2 0xC2E SWAP8 SWAP7 SWAP6 SWAP5 SWAP4 SWAP3 SWAP2 SWAP1 PUSH2 0x230D JUMP JUMPDEST PUSH1 0x40 MLOAD PUSH1 0x20 DUP2 DUP4 SUB SUB DUP2 MSTORE SWAP1 PUSH1 0x40 MSTORE SWAP2 POP DUP1 DUP1 PUSH1 0x1 ADD SWAP2 POP POP PUSH2 0xB7B JUMP JUMPDEST POP DUP1 SWAP2 POP POP SWAP1 JUMP JUMPDEST PUSH1 0x1 DUP2 DUP2 SLOAD DUP2 LT PUSH2 0xC63 JUMPI PUSH0 DUP1 REVERT JUMPDEST SWAP1 PUSH0 MSTORE PUSH1 0x20 PUSH0 KECCAK256 SWAP1 PUSH1 0x5 MUL ADD PUSH0 SWAP2 POP SWAP1 POP DUP1 PUSH0 ADD DUP1 SLOAD PUSH2 0xC82 SWAP1 PUSH2 0x15AC JUMP JUMPDEST DUP1 PUSH1 0x1F ADD PUSH1 0x20 DUP1 SWAP2 DIV MUL PUSH1 0x20 ADD PUSH1 0x40 MLOAD SWAP1 DUP2 ADD PUSH1 0x40 MSTORE DUP1 SWAP3 SWAP2 SWAP1 DUP2 DUP2 MSTORE PUSH1 0x20 ADD DUP3 DUP1 SLOAD PUSH2 0xCAE SWAP1 PUSH2 0x15AC JUMP JUMPDEST DUP1 ISZERO PUSH2 0xCF9 JUMPI DUP1 PUSH1 0x1F LT PUSH2 0xCD0 JUMPI PUSH2 0x100 DUP1 DUP4 SLOAD DIV MUL DUP4 MSTORE SWAP2 PUSH1 0x20 ADD SWAP2 PUSH2 0xCF9 JUMP JUMPDEST DUP3 ADD SWAP2 SWAP1 PUSH0 MSTORE PUSH1 0x20 PUSH0 KECCAK256 SWAP1 JUMPDEST DUP2 SLOAD DUP2 MSTORE SWAP1 PUSH1 0x1 ADD SWAP1 PUSH1 0x20 ADD DUP1 DUP4 GT PUSH2 0xCDC JUMPI DUP3 SWAP1 SUB PUSH1 0x1F AND DUP3 ADD SWAP2 JUMPDEST POP POP POP POP POP SWAP1 DUP1 PUSH1 0x1 ADD DUP1 SLOAD PUSH2 0xD0E SWAP1 PUSH2 0x15AC JUMP JUMPDEST DUP1 PUSH1 0x1F ADD PUSH1 0x20 DUP1 SWAP2 DIV MUL PUSH1 0x20 ADD PUSH1 0x40 MLOAD SWAP1 DUP2 ADD PUSH1 0x40 MSTORE DUP1 SWAP3 SWAP2 SWAP1 DUP2 DUP2 MSTORE PUSH1 0x20 ADD DUP3 DUP1 SLOAD PUSH2 0xD3A SWAP1 PUSH2 0x15AC JUMP JUMPDEST DUP1 ISZERO PUSH2 0xD85 JUMPI DUP1 PUSH1 0x1F LT PUSH2 0xD5C JUMPI PUSH2 0x100 DUP1 DUP4 SLOAD DIV MUL DUP4 MSTORE SWAP2 PUSH1 0x20 ADD SWAP2 PUSH2 0xD85 JUMP JUMPDEST DUP3 ADD SWAP2 SWAP1 PUSH0 MSTORE PUSH1 0x20 PUSH0 KECCAK256 SWAP1 JUMPDEST DUP2 SLOAD DUP2 MSTORE SWAP1 PUSH1 0x1 ADD SWAP1 PUSH1 0x20 ADD DUP1 DUP4 GT PUSH2 0xD68 JUMPI DUP3 SWAP1 SUB PUSH1 0x1F AND DUP3 ADD SWAP2 JUMPDEST POP POP POP POP POP SWAP1 DUP1 PUSH1 0x2 ADD DUP1 SLOAD PUSH2 0xD9A SWAP1 PUSH2 0x15AC JUMP JUMPDEST DUP1 PUSH1 0x1F ADD PUSH1 0x20 DUP1 SWAP2 DIV MUL PUSH1 0x20 ADD PUSH1 0x40 MLOAD SWAP1 DUP2 ADD PUSH1 0x40 MSTORE DUP1 SWAP3 SWAP2 SWAP1 DUP2 DUP2 MSTORE PUSH1 0x20 ADD DUP3 DUP1 SLOAD PUSH2 0xDC6 SWAP1 PUSH2 0x15AC JUMP JUMPDEST DUP1 ISZERO PUSH2 0xE11 JUMPI DUP1 PUSH1 0x1F LT PUSH2 0xDE8 JUMPI PUSH2 0x100 DUP1 DUP4 SLOAD DIV MUL DUP4 MSTORE SWAP2 PUSH1 0x20 ADD SWAP2 PUSH2 0xE11 JUMP JUMPDEST DUP3 ADD SWAP2 SWAP1 PUSH0 MSTORE PUSH1 0x20 PUSH0 KECCAK256 SWAP1 JUMPDEST DUP2 SLOAD DUP2 MSTORE SWAP1 PUSH1 0x1 ADD SWAP1 PUSH1 0x20 ADD DUP1 DUP4 GT PUSH2 0xDF4 JUMPI DUP3 SWAP1 SUB PUSH1 0x1F AND DUP3 ADD SWAP2 JUMPDEST POP POP POP POP POP SWAP1 DUP1 PUSH1 0x3 ADD DUP1 SLOAD PUSH2 0xE26 SWAP1 PUSH2 0x15AC JUMP JUMPDEST DUP1 PUSH1 0x1F ADD PUSH1 0x20 DUP1 SWAP2 DIV MUL PUSH1 0x20 ADD PUSH1 0x40 MLOAD SWAP1 DUP2 ADD PUSH1 0x40 MSTORE DUP1 SWAP3 SWAP2 SWAP1 DUP2 DUP2 MSTORE PUSH1 0x20 ADD DUP3 DUP1 SLOAD PUSH2 0xE52 SWAP1 PUSH2 0x15AC JUMP JUMPDEST DUP1 ISZERO PUSH2 0xE9D JUMPI DUP1 PUSH1 0x1F LT PUSH2 0xE74 JUMPI PUSH2 0x100 DUP1 DUP4 SLOAD DIV MUL DUP4 MSTORE SWAP2 PUSH1 0x20 ADD SWAP2 PUSH2 0xE9D JUMP JUMPDEST DUP3 ADD SWAP2 SWAP1 PUSH0 MSTORE PUSH1 0x20 PUSH0 KECCAK256 SWAP1 JUMPDEST DUP2 SLOAD DUP2 MSTORE SWAP1 PUSH1 0x1 ADD SWAP1 PUSH1 0x20 ADD DUP1 DUP4 GT PUSH2 0xE80 JUMPI DUP3 SWAP1 SUB PUSH1 0x1F AND DUP3 ADD SWAP2 JUMPDEST POP POP POP POP POP SWAP1 DUP1 PUSH1 0x4 ADD DUP1 SLOAD PUSH2 0xEB2 SWAP1 PUSH2 0x15AC JUMP JUMPDEST DUP1 PUSH1 0x1F ADD PUSH1 0x20 DUP1 SWAP2 DIV MUL PUSH1 0x20 ADD PUSH1 0x40 MLOAD SWAP1 DUP2 ADD PUSH1 0x40 MSTORE DUP1 SWAP3 SWAP2 SWAP1 DUP2 DUP2 MSTORE PUSH1 0x20 ADD DUP3 DUP1 SLOAD PUSH2 0xEDE SWAP1 PUSH2 0x15AC JUMP JUMPDEST DUP1 ISZERO PUSH2 0xF29 JUMPI DUP1 PUSH1 0x1F LT PUSH2 0xF00 JUMPI PUSH2 0x100 DUP1 DUP4 SLOAD DIV MUL DUP4 MSTORE SWAP2 PUSH1 0x20 ADD SWAP2 PUSH2 0xF29 JUMP JUMPDEST DUP3 ADD SWAP2 SWAP1 PUSH0 MSTORE PUSH1 0x20 PUSH0 KECCAK256 SWAP1 JUMPDEST DUP2 SLOAD DUP2 MSTORE SWAP1 PUSH1 0x1 ADD SWAP1 PUSH1 0x20 ADD DUP1 DUP4 GT PUSH2 0xF0C JUMPI DUP3 SWAP1 SUB PUSH1 0x1F AND DUP3 ADD SWAP2 JUMPDEST POP POP POP POP POP SWAP1 POP DUP6 JUMP JUMPDEST PUSH1 0x3 PUSH0 SWAP1 SLOAD SWAP1 PUSH2 0x100 EXP SWAP1 DIV PUSH20 0xFFFFFFFFFFFFFFFFFFFFFFFFFFFFFFFFFFFFFFFF AND PUSH20 0xFFFFFFFFFFFFFFFFFFFFFFFFFFFFFFFFFFFFFFFF AND CALLER PUSH20 0xFFFFFFFFFFFFFFFFFFFFFFFFFFFFFFFFFFFFFFFF AND EQ DUP1 PUSH2 0xFD4 JUMPI POP PUSH1 0x2 PUSH0 CALLER PUSH20 0xFFFFFFFFFFFFFFFFFFFFFFFFFFFFFFFFFFFFFFFF AND PUSH20 0xFFFFFFFFFFFFFFFFFFFFFFFFFFFFFFFFFFFFFFFF AND DUP2 MSTORE PUSH1 0x20 ADD SWAP1 DUP2 MSTORE PUSH1 0x20 ADD PUSH0 KECCAK256 PUSH0 SWAP1 SLOAD SWAP1 PUSH2 0x100 EXP SWAP1 DIV PUSH1 0xFF AND JUMPDEST PUSH2 0x1013 JUMPI PUSH1 0x40 MLOAD PUSH32 0x8C379A000000000000000000000000000000000000000000000000000000000 DUP2 MSTORE PUSH1 0x4 ADD PUSH2 0x100A SWAP1 PUSH2 0x1736 JUMP JUMPDEST PUSH1 0x40 MLOAD DUP1 SWAP2 SUB SWAP1 REVERT JUMPDEST DUP1 PUSH1 0x4 SWAP1 DUP2 PUSH2 0x1022 SWAP2 SWAP1 PUSH2 0x18DF JUMP JUMPDEST POP POP JUMP JUMPDEST PUSH0 PUSH1 0x40 MLOAD SWAP1 POP SWAP1 JUMP JUMPDEST PUSH0 DUP1 REVERT JUMPDEST PUSH0 DUP1 REVERT JUMPDEST PUSH0 PUSH20 0xFFFFFFFFFFFFFFFFFFFFFFFFFFFFFFFFFFFFFFFF DUP3 AND SWAP1 POP SWAP2 SWAP1 POP JUMP JUMPDEST PUSH0 PUSH2 0x1060 DUP3 PUSH2 0x1037 JUMP JUMPDEST SWAP1 POP SWAP2 SWAP1 POP JUMP JUMPDEST PUSH2 0x1070 DUP2 PUSH2 0x1056 JUMP JUMPDEST DUP2 EQ PUSH2 0x107A JUMPI PUSH0 DUP1 REVERT JUMPDEST POP JUMP JUMPDEST PUSH0 DUP2 CALLDATALOAD SWAP1 POP PUSH2 0x108B DUP2 PUSH2 0x1067 JUMP JUMPDEST SWAP3 SWAP2 POP POP JUMP JUMPDEST PUSH0 PUSH1 0x20 DUP3 DUP5 SUB SLT ISZERO PUSH2 0x10A6 JUMPI PUSH2 0x10A5 PUSH2 0x102F JUMP JUMPDEST JUMPDEST PUSH0 PUSH2 0x10B3 DUP5 DUP3 DUP6 ADD PUSH2 0x107D JUMP JUMPDEST SWAP2 POP POP SWAP3 SWAP2 POP POP JUMP JUMPDEST PUSH0 DUP2 SWAP1 POP SWAP2 SWAP1 POP JUMP JUMPDEST PUSH2 0x10CE DUP2 PUSH2 0x10BC JUMP JUMPDEST DUP3 MSTORE POP POP JUMP JUMPDEST PUSH0 PUSH1 0x20 DUP3 ADD SWAP1 POP PUSH2 0x10E7 PUSH0 DUP4 ADD DUP5 PUSH2 0x10C5 JUMP JUMPDEST SWAP3 SWAP2 POP POP JUMP JUMPDEST PUSH0 DUP2 MLOAD SWAP1 POP SWAP2 SWAP1 POP JUMP JUMPDEST PUSH0 DUP3 DUP3 MSTORE PUSH1 0x20 DUP3 ADD SWAP1 POP SWAP3 SWAP2 POP POP JUMP JUMPDEST DUP3 DUP2 DUP4 MCOPY PUSH0 DUP4 DUP4 ADD MSTORE POP POP POP JUMP JUMPDEST PUSH0 PUSH1 0x1F NOT PUSH1 0x1F DUP4 ADD AND SWAP1 POP SWAP2 SWAP1 POP JUMP JUMPDEST PUSH0 PUSH2 0x112F DUP3 PUSH2 0x10ED JUMP JUMPDEST PUSH2 0x1139 DUP2 DUP6 PUSH2 0x10F7 JUMP JUMPDEST SWAP4 POP PUSH2 0x1149 DUP2 DUP6 PUSH1 0x20 DUP7 ADD PUSH2 0x1107 JUMP JUMPDEST PUSH2 0x1152 DUP2 PUSH2 0x1115 JUMP JUMPDEST DUP5 ADD SWAP2 POP POP SWAP3 SWAP2 POP POP JUMP JUMPDEST PUSH0 PUSH1 0x20 DUP3 ADD SWAP1 POP DUP2 DUP2 SUB PUSH0 DUP4 ADD MSTORE PUSH2 0x1175 DUP2 DUP5 PUSH2 0x1125 JUMP JUMPDEST SWAP1 POP SWAP3 SWAP2 POP POP JUMP JUMPDEST PUSH0 DUP1 REVERT JUMPDEST PUSH0 DUP1 REVERT JUMPDEST PUSH32 0x4E487B7100000000000000000000000000000000000000000000000000000000 PUSH0 MSTORE PUSH1 0x41 PUSH1 0x4 MSTORE PUSH1 0x24 PUSH0 REVERT JUMPDEST PUSH2 0x11BB DUP3 PUSH2 0x1115 JUMP JUMPDEST DUP2 ADD DUP2 DUP2 LT PUSH8 0xFFFFFFFFFFFFFFFF DUP3 GT OR ISZERO PUSH2 0x11DA JUMPI PUSH2 0x11D9 PUSH2 0x1185 JUMP JUMPDEST JUMPDEST DUP1 PUSH1 0x40 MSTORE POP POP POP JUMP JUMPDEST PUSH0 PUSH2 0x11EC PUSH2 0x1026 JUMP JUMPDEST SWAP1 POP PUSH2 0x11F8 DUP3 DUP3 PUSH2 0x11B2 JUMP JUMPDEST SWAP2 SWAP1 POP JUMP JUMPDEST PUSH0 PUSH8 0xFFFFFFFFFFFFFFFF DUP3 GT ISZERO PUSH2 0x1217 JUMPI PUSH2 0x1216 PUSH2 0x1185 JUMP JUMPDEST JUMPDEST PUSH2 0x1220 DUP3 PUSH2 0x1115 JUMP JUMPDEST SWAP1 POP PUSH1 0x20 DUP2 ADD SWAP1 POP SWAP2 SWAP1 POP JUMP JUMPDEST DUP3 DUP2 DUP4 CALLDATACOPY PUSH0 DUP4 DUP4 ADD MSTORE POP POP POP JUMP JUMPDEST PUSH0 PUSH2 0x124D PUSH2 0x1248 DUP5 PUSH2 0x11FD JUMP JUMPDEST PUSH2 0x11E3 JUMP JUMPDEST SWAP1 POP DUP3 DUP2 MSTORE PUSH1 0x20 DUP2 ADD DUP5 DUP5 DUP5 ADD GT ISZERO PUSH2 0x1269 JUMPI PUSH2 0x1268 PUSH2 0x1181 JUMP JUMPDEST JUMPDEST PUSH2 0x1274 DUP5 DUP3 DUP6 PUSH2 0x122D JUMP JUMPDEST POP SWAP4 SWAP3 POP POP POP JUMP JUMPDEST PUSH0 DUP3 PUSH1 0x1F DUP4 ADD SLT PUSH2 0x1290 JUMPI PUSH2 0x128F PUSH2 0x117D JUMP JUMPDEST JUMPDEST DUP2 CALLDATALOAD PUSH2 0x12A0 DUP5 DUP3 PUSH1 0x20 DUP7 ADD PUSH2 0x123B JUMP JUMPDEST SWAP2 POP POP SWAP3 SWAP2 POP POP JUMP JUMPDEST PUSH0 PUSH1 0x20 DUP3 DUP5 SUB SLT ISZERO PUSH2 0x12BE JUMPI PUSH2 0x12BD PUSH2 0x102F JUMP JUMPDEST JUMPDEST PUSH0 DUP3 ADD CALLDATALOAD PUSH8 0xFFFFFFFFFFFFFFFF DUP2 GT ISZERO PUSH2 0x12DB JUMPI PUSH2 0x12DA PUSH2 0x1033 JUMP JUMPDEST JUMPDEST PUSH2 0x12E7 DUP5 DUP3 DUP6 ADD PUSH2 0x127C JUMP JUMPDEST SWAP2 POP POP SWAP3 SWAP2 POP POP JUMP JUMPDEST PUSH0 DUP1 PUSH0 DUP1 PUSH0 PUSH1 0xA0 DUP7 DUP9 SUB SLT ISZERO PUSH2 0x1309 JUMPI PUSH2 0x1308 PUSH2 0x102F JUMP JUMPDEST JUMPDEST PUSH0 DUP7 ADD CALLDATALOAD PUSH8 0xFFFFFFFFFFFFFFFF DUP2 GT ISZERO PUSH2 0x1326 JUMPI PUSH2 0x1325 PUSH2 0x1033 JUMP JUMPDEST JUMPDEST PUSH2 0x1332 DUP9 DUP3 DUP10 ADD PUSH2 0x127C JUMP JUMPDEST SWAP6 POP POP PUSH1 0x20 DUP7 ADD CALLDATALOAD PUSH8 0xFFFFFFFFFFFFFFFF DUP2 GT ISZERO PUSH2 0x1353 JUMPI PUSH2 0x1352 PUSH2 0x1033 JUMP JUMPDEST JUMPDEST PUSH2 0x135F DUP9 DUP3 DUP10 ADD PUSH2 0x127C JUMP JUMPDEST SWAP5 POP POP PUSH1 0x40 DUP7 ADD CALLDATALOAD PUSH8 0xFFFFFFFFFFFFFFFF DUP2 GT ISZERO PUSH2 0x1380 JUMPI PUSH2 0x137F PUSH2 0x1033 JUMP JUMPDEST JUMPDEST PUSH2 0x138C DUP9 DUP3 DUP10 ADD PUSH2 0x127C JUMP JUMPDEST SWAP4 POP POP PUSH1 0x60 DUP7 ADD CALLDATALOAD PUSH8 0xFFFFFFFFFFFFFFFF DUP2 GT ISZERO PUSH2 0x13AD JUMPI PUSH2 0x13AC PUSH2 0x1033 JUMP JUMPDEST JUMPDEST PUSH2 0x13B9 DUP9 DUP3 DUP10 ADD PUSH2 0x127C JUMP JUMPDEST SWAP3 POP POP PUSH1 0x80 DUP7 ADD CALLDATALOAD PUSH8 0xFFFFFFFFFFFFFFFF DUP2 GT ISZERO PUSH2 0x13DA JUMPI PUSH2 0x13D9 PUSH2 0x1033 JUMP JUMPDEST JUMPDEST PUSH2 0x13E6 DUP9 DUP3 DUP10 ADD PUSH2 0x127C JUMP JUMPDEST SWAP2 POP POP SWAP3 SWAP6 POP SWAP3 SWAP6 SWAP1 SWAP4 POP JUMP JUMPDEST PUSH0 DUP2 ISZERO ISZERO SWAP1 POP SWAP2 SWAP1 POP JUMP JUMPDEST PUSH2 0x1407 DUP2 PUSH2 0x13F3 JUMP JUMPDEST DUP3 MSTORE POP POP JUMP JUMPDEST PUSH0 PUSH1 0x20 DUP3 ADD SWAP1 POP PUSH2 0x1420 PUSH0 DUP4 ADD DUP5 PUSH2 0x13FE JUMP JUMPDEST SWAP3 SWAP2 POP POP JUMP JUMPDEST PUSH2 0x142F DUP2 PUSH2 0x1056 JUMP JUMPDEST DUP3 MSTORE POP POP JUMP JUMPDEST PUSH0 PUSH1 0x20 DUP3 ADD SWAP1 POP PUSH2 0x1448 PUSH0 DUP4 ADD DUP5 PUSH2 0x1426 JUMP JUMPDEST SWAP3 SWAP2 POP POP JUMP JUMPDEST PUSH2 0x1457 DUP2 PUSH2 0x10BC JUMP JUMPDEST DUP2 EQ PUSH2 0x1461 JUMPI PUSH0 DUP1 REVERT JUMPDEST POP JUMP JUMPDEST PUSH0 DUP2 CALLDATALOAD SWAP1 POP PUSH2 0x1472 DUP2 PUSH2 0x144E JUMP JUMPDEST SWAP3 SWAP2 POP POP JUMP JUMPDEST PUSH0 PUSH1 0x20 DUP3 DUP5 SUB SLT ISZERO PUSH2 0x148D JUMPI PUSH2 0x148C PUSH2 0x102F JUMP JUMPDEST JUMPDEST PUSH0 PUSH2 0x149A DUP5 DUP3 DUP6 ADD PUSH2 0x1464 JUMP JUMPDEST SWAP2 POP POP SWAP3 SWAP2 POP POP JUMP JUMPDEST PUSH0 PUSH1 0xA0 DUP3 ADD SWAP1 POP DUP2 DUP2 SUB PUSH0 DUP4 ADD MSTORE PUSH2 0x14BB DUP2 DUP9 PUSH2 0x1125 JUMP JUMPDEST SWAP1 POP DUP2 DUP2 SUB PUSH1 0x20 DUP4 ADD MSTORE PUSH2 0x14CF DUP2 DUP8 PUSH2 0x1125 JUMP JUMPDEST SWAP1 POP DUP2 DUP2 SUB PUSH1 0x40 DUP4 ADD MSTORE PUSH2 0x14E3 DUP2 DUP7 PUSH2 0x1125 JUMP JUMPDEST SWAP1 POP DUP2 DUP2 SUB PUSH1 0x60 DUP4 ADD MSTORE PUSH2 0x14F7 DUP2 DUP6 PUSH2 0x1125 JUMP JUMPDEST SWAP1 POP DUP2 DUP2 SUB PUSH1 0x80 DUP4 ADD MSTORE PUSH2 0x150B DUP2 DUP5 PUSH2 0x1125 JUMP JUMPDEST SWAP1 POP SWAP7 SWAP6 POP POP POP POP POP POP JUMP JUMPDEST PUSH32 0x4E6F7420746865206F776E657200000000000000000000000000000000000000 PUSH0 DUP3 ADD MSTORE POP JUMP JUMPDEST PUSH0 PUSH2 0x154B PUSH1 0xD DUP4 PUSH2 0x10F7 JUMP JUMPDEST SWAP2 POP PUSH2 0x1556 DUP3 PUSH2 0x1517 JUMP JUMPDEST PUSH1 0x20 DUP3 ADD SWAP1 POP SWAP2 SWAP1 POP JUMP JUMPDEST PUSH0 PUSH1 0x20 DUP3 ADD SWAP1 POP DUP2 DUP2 SUB PUSH0 DUP4 ADD MSTORE PUSH2 0x1578 DUP2 PUSH2 0x153F JUMP JUMPDEST SWAP1 POP SWAP2 SWAP1 POP JUMP JUMPDEST PUSH32 0x4E487B7100000000000000000000000000000000000000000000000000000000 PUSH0 MSTORE PUSH1 0x22 PUSH1 0x4 MSTORE PUSH1 0x24 PUSH0 REVERT JUMPDEST PUSH0 PUSH1 0x2 DUP3 DIV SWAP1 POP PUSH1 0x1 DUP3 AND DUP1 PUSH2 0x15C3 JUMPI PUSH1 0x7F DUP3 AND SWAP2 POP JUMPDEST PUSH1 0x20 DUP3 LT DUP2 SUB PUSH2 0x15D6 JUMPI PUSH2 0x15D5 PUSH2 0x157F JUMP JUMPDEST JUMPDEST POP SWAP2 SWAP1 POP JUMP JUMPDEST PUSH0 DUP2 SWAP1 POP SWAP3 SWAP2 POP POP JUMP JUMPDEST PUSH32 0x3000000000000000000000000000000000000000000000000000000000000000 PUSH0 DUP3 ADD MSTORE POP JUMP JUMPDEST PUSH0 PUSH2 0x161A PUSH1 0x1 DUP4 PUSH2 0x15DC JUMP JUMPDEST SWAP2 POP PUSH2 0x1625 DUP3 PUSH2 0x15E6 JUMP JUMPDEST PUSH1 0x1 DUP3 ADD SWAP1 POP SWAP2 SWAP1 POP JUMP JUMPDEST PUSH0 PUSH2 0x163A DUP3 PUSH2 0x160E JUMP JUMPDEST SWAP2 POP DUP2 SWAP1 POP SWAP2 SWAP1 POP JUMP JUMPDEST PUSH0 DUP2 SWAP1 POP DUP2 PUSH0 MSTORE PUSH1 0x20 PUSH0 KECCAK256 SWAP1 POP SWAP2 SWAP1 POP JUMP JUMPDEST PUSH0 DUP2 SLOAD PUSH2 0x1662 DUP2 PUSH2 0x15AC JUMP JUMPDEST PUSH2 0x166C DUP2 DUP7 PUSH2 0x15DC JUMP JUMPDEST SWAP5 POP PUSH1 0x1 DUP3 AND PUSH0 DUP2 EQ PUSH2 0x1686 JUMPI PUSH1 0x1 DUP2 EQ PUSH2 0x169B JUMPI PUSH2 0x16CD JUMP JUMPDEST PUSH1 0xFF NOT DUP4 AND DUP7 MSTORE DUP2 ISZERO ISZERO DUP3 MUL DUP7 ADD SWAP4 POP PUSH2 0x16CD JUMP JUMPDEST PUSH2 0x16A4 DUP6 PUSH2 0x1644 JUMP JUMPDEST PUSH0 JUMPDEST DUP4 DUP2 LT ISZERO PUSH2 0x16C5 JUMPI DUP2 SLOAD DUP2 DUP10 ADD MSTORE PUSH1 0x1 DUP3 ADD SWAP2 POP PUSH1 0x20 DUP2 ADD SWAP1 POP PUSH2 0x16A6 JUMP JUMPDEST DUP4 DUP9 ADD SWAP6 POP POP POP JUMPDEST POP POP POP SWAP3 SWAP2 POP POP JUMP JUMPDEST PUSH0 PUSH2 0x16E1 DUP3 DUP5 PUSH2 0x1656 JUMP JUMPDEST SWAP2 POP DUP2 SWAP1 POP SWAP3 SWAP2 POP POP JUMP JUMPDEST PUSH32 0x4E6F7420617574686F72697A6564000000000000000000000000000000000000 PUSH0 DUP3 ADD MSTORE POP JUMP JUMPDEST PUSH0 PUSH2 0x1720 PUSH1 0xE DUP4 PUSH2 0x10F7 JUMP JUMPDEST SWAP2 POP PUSH2 0x172B DUP3 PUSH2 0x16EC JUMP JUMPDEST PUSH1 0x20 DUP3 ADD SWAP1 POP SWAP2 SWAP1 POP JUMP JUMPDEST PUSH0 PUSH1 0x20 DUP3 ADD SWAP1 POP DUP2 DUP2 SUB PUSH0 DUP4 ADD MSTORE PUSH2 0x174D DUP2 PUSH2 0x1714 JUMP JUMPDEST SWAP1 POP SWAP2 SWAP1 POP JUMP JUMPDEST PUSH0 PUSH1 0x20 PUSH1 0x1F DUP4 ADD DIV SWAP1 POP SWAP2 SWAP1 POP JUMP JUMPDEST PUSH0 DUP3 DUP3 SHL SWAP1 POP SWAP3 SWAP2 POP POP JUMP JUMPDEST PUSH0 PUSH1 0x8 DUP4 MUL PUSH2 0x179E PUSH32 0xFFFFFFFFFFFFFFFFFFFFFFFFFFFFFFFFFFFFFFFFFFFFFFFFFFFFFFFFFFFFFFFF DUP3 PUSH2 0x1763 JUMP JUMPDEST PUSH2 0x17A8 DUP7 DUP4 PUSH2 0x1763 JUMP JUMPDEST SWAP6 POP DUP1 NOT DUP5 AND SWAP4 POP DUP1 DUP7 AND DUP5 OR SWAP3 POP POP POP SWAP4 SWAP3 POP POP POP JUMP JUMPDEST PUSH0 DUP2 SWAP1 POP SWAP2 SWAP1 POP JUMP JUMPDEST PUSH0 PUSH2 0x17E3 PUSH2 0x17DE PUSH2 0x17D9 DUP5 PUSH2 0x10BC JUMP JUMPDEST PUSH2 0x17C0 JUMP JUMPDEST PUSH2 0x10BC JUMP JUMPDEST SWAP1 POP SWAP2 SWAP1 POP JUMP JUMPDEST PUSH0 DUP2 SWAP1 POP SWAP2 SWAP1 POP JUMP JUMPDEST PUSH2 0x17FC DUP4 PUSH2 0x17C9 JUMP JUMPDEST PUSH2 0x1810 PUSH2 0x1808 DUP3 PUSH2 0x17EA JUMP JUMPDEST DUP5 DUP5 SLOAD PUSH2 0x176F JUMP JUMPDEST DUP3 SSTORE POP POP POP POP JUMP JUMPDEST PUSH0 SWAP1 JUMP JUMPDEST PUSH2 0x1824 PUSH2 0x1818 JUMP JUMPDEST PUSH2 0x182F DUP2 DUP5 DUP5 PUSH2 0x17F3 JUMP JUMPDEST POP POP POP JUMP JUMPDEST JUMPDEST DUP2 DUP2 LT ISZERO PUSH2 0x1852 JUMPI PUSH2 0x1847 PUSH0 DUP3 PUSH2 0x181C JUMP JUMPDEST PUSH1 0x1 DUP2 ADD SWAP1 POP PUSH2 0x1835 JUMP JUMPDEST POP POP JUMP JUMPDEST PUSH1 0x1F DUP3 GT ISZERO PUSH2 0x1897 JUMPI PUSH2 0x1868 DUP2 PUSH2 0x1644 JUMP JUMPDEST PUSH2 0x1871 DUP5 PUSH2 0x1754 JUMP JUMPDEST DUP2 ADD PUSH1 0x20 DUP6 LT ISZERO PUSH2 0x1880 JUMPI DUP2 SWAP1 POP JUMPDEST PUSH2 0x1894 PUSH2 0x188C DUP6 PUSH2 0x1754 JUMP JUMPDEST DUP4 ADD DUP3 PUSH2 0x1834 JUMP JUMPDEST POP POP JUMPDEST POP POP POP JUMP JUMPDEST PUSH0 DUP3 DUP3 SHR SWAP1 POP SWAP3 SWAP2 POP POP JUMP JUMPDEST PUSH0 PUSH2 0x18B7 PUSH0 NOT DUP5 PUSH1 0x8 MUL PUSH2 0x189C JUMP JUMPDEST NOT DUP1 DUP4 AND SWAP2 POP POP SWAP3 SWAP2 POP POP JUMP JUMPDEST PUSH0 PUSH2 0x18CF DUP4 DUP4 PUSH2 0x18A8 JUMP JUMPDEST SWAP2 POP DUP3 PUSH1 0x2 MUL DUP3 OR SWAP1 POP SWAP3 SWAP2 POP POP JUMP JUMPDEST PUSH2 0x18E8 DUP3 PUSH2 0x10ED JUMP JUMPDEST PUSH8 0xFFFFFFFFFFFFFFFF DUP2 GT ISZERO PUSH2 0x1901 JUMPI PUSH2 0x1900 PUSH2 0x1185 JUMP JUMPDEST JUMPDEST PUSH2 0x190B DUP3 SLOAD PUSH2 0x15AC JUMP JUMPDEST PUSH2 0x1916 DUP3 DUP3 DUP6 PUSH2 0x1856 JUMP JUMPDEST PUSH0 PUSH1 0x20 SWAP1 POP PUSH1 0x1F DUP4 GT PUSH1 0x1 DUP2 EQ PUSH2 0x1947 JUMPI PUSH0 DUP5 ISZERO PUSH2 0x1935 JUMPI DUP3 DUP8 ADD MLOAD SWAP1 POP JUMPDEST PUSH2 0x193F DUP6 DUP3 PUSH2 0x18C4 JUMP JUMPDEST DUP7 SSTORE POP PUSH2 0x19A6 JUMP JUMPDEST PUSH1 0x1F NOT DUP5 AND PUSH2 0x1955 DUP7 PUSH2 0x1644 JUMP JUMPDEST PUSH0 JUMPDEST DUP3 DUP2 LT ISZERO PUSH2 0x197C JUMPI DUP5 DUP10 ADD MLOAD DUP3 SSTORE PUSH1 0x1 DUP3 ADD SWAP2 POP PUSH1 0x20 DUP6 ADD SWAP5 POP PUSH1 0x20 DUP2 ADD SWAP1 POP PUSH2 0x1957 JUMP JUMPDEST DUP7 DUP4 LT ISZERO PUSH2 0x1999 JUMPI DUP5 DUP10 ADD MLOAD PUSH2 0x1995 PUSH1 0x1F DUP10 AND DUP3 PUSH2 0x18A8 JUMP JUMPDEST DUP4 SSTORE POP JUMPDEST PUSH1 0x1 PUSH1 0x2 DUP9 MUL ADD DUP9 SSTORE POP POP POP JUMPDEST POP POP POP POP POP POP JUMP JUMPDEST PUSH0 PUSH2 0x19B8 DUP3 PUSH2 0x10ED JUMP JUMPDEST PUSH2 0x19C2 DUP2 DUP6 PUSH2 0x15DC JUMP JUMPDEST SWAP4 POP PUSH2 0x19D2 DUP2 DUP6 PUSH1 0x20 DUP7 ADD PUSH2 0x1107 JUMP JUMPDEST DUP1 DUP5 ADD SWAP2 POP POP SWAP3 SWAP2 POP POP JUMP JUMPDEST PUSH0 PUSH2 0x19E9 DUP3 DUP5 PUSH2 0x19AE JUMP JUMPDEST SWAP2 POP DUP2 SWAP1 POP SWAP3 SWAP2 POP POP JUMP JUMPDEST PUSH32 0x3100000000000000000000000000000000000000000000000000000000000000 PUSH0 DUP3 ADD MSTORE POP JUMP JUMPDEST PUSH0 PUSH2 0x1A28 PUSH1 0x1 DUP4 PUSH2 0x15DC JUMP JUMPDEST SWAP2 POP PUSH2 0x1A33 DUP3 PUSH2 0x19F4 JUMP JUMPDEST PUSH1 0x1 DUP3 ADD SWAP1 POP SWAP2 SWAP1 POP JUMP JUMPDEST PUSH0 PUSH2 0x1A48 DUP3 PUSH2 0x1A1C JUMP JUMPDEST SWAP2 POP DUP2 SWAP1 POP SWAP2 SWAP1 POP JUMP JUMPDEST PUSH32 0x4D6F6465206D75737420626520273027206F7220273127000000000000000000 PUSH0 DUP3 ADD MSTORE POP JUMP JUMPDEST PUSH0 PUSH2 0x1A86 PUSH1 0x17 DUP4 PUSH2 0x10F7 JUMP JUMPDEST SWAP2 POP PUSH2 0x1A91 DUP3 PUSH2 0x1A52 JUMP JUMPDEST PUSH1 0x20 DUP3 ADD SWAP1 POP SWAP2 SWAP1 POP JUMP JUMPDEST PUSH0 PUSH1 0x20 DUP3 ADD SWAP1 POP DUP2 DUP2 SUB PUSH0 DUP4 ADD MSTORE PUSH2 0x1AB3 DUP2 PUSH2 0x1A7A JUMP JUMPDEST SWAP1 POP SWAP2 SWAP1 POP JUMP JUMPDEST PUSH32 0x4E487B7100000000000000000000000000000000000000000000000000000000 PUSH0 MSTORE PUSH1 0x32 PUSH1 0x4 MSTORE PUSH1 0x24 PUSH0 REVERT JUMPDEST PUSH32 0x3C747220636C6173733D227461626C652D726F77206C696768742D6267206C69 PUSH0 DUP3 ADD MSTORE PUSH32 0x6768742D626F72646572206C696768742D74657874223E000000000000000000 PUSH1 0x20 DUP3 ADD MSTORE POP JUMP JUMPDEST PUSH0 PUSH2 0x1B41 PUSH1 0x37 DUP4 PUSH2 0x15DC JUMP JUMPDEST SWAP2 POP PUSH2 0x1B4C DUP3 PUSH2 0x1AE7 JUMP JUMPDEST PUSH1 0x37 DUP3 ADD SWAP1 POP SWAP2 SWAP1 POP JUMP JUMPDEST PUSH32 0x3C746420636C6173733D226C696768742D6267222077696474683D2233302522 PUSH0 DUP3 ADD MSTORE PUSH32 0x20616C69676E3D2263656E746572223E00000000000000000000000000000000 PUSH1 0x20 DUP3 ADD MSTORE POP JUMP JUMPDEST PUSH0 PUSH2 0x1BB1 PUSH1 0x30 DUP4 PUSH2 0x15DC JUMP JUMPDEST SWAP2 POP PUSH2 0x1BBC DUP3 PUSH2 0x1B57 JUMP JUMPDEST PUSH1 0x30 DUP3 ADD SWAP1 POP SWAP2 SWAP1 POP JUMP JUMPDEST PUSH32 0x3C666F6E7420636C6173733D22736D616C6C5F74657874223E00000000000000 PUSH0 DUP3 ADD MSTORE POP JUMP JUMPDEST PUSH0 PUSH2 0x1BFB PUSH1 0x19 DUP4 PUSH2 0x15DC JUMP JUMPDEST SWAP2 POP PUSH2 0x1C06 DUP3 PUSH2 0x1BC7 JUMP JUMPDEST PUSH1 0x19 DUP3 ADD SWAP1 POP SWAP2 SWAP1 POP JUMP JUMPDEST PUSH32 0x3C6120636C6173733D226C696768742D6C696E6B22207461726765743D225F62 PUSH0 DUP3 ADD MSTORE PUSH32 0x6C616E6B2220687265663D220000000000000000000000000000000000000000 PUSH1 0x20 DUP3 ADD MSTORE POP JUMP JUMPDEST PUSH0 PUSH2 0x1C6B PUSH1 0x2C DUP4 PUSH2 0x15DC JUMP JUMPDEST SWAP2 POP PUSH2 0x1C76 DUP3 PUSH2 0x1C11 JUMP JUMPDEST PUSH1 0x2C DUP3 ADD SWAP1 POP SWAP2 SWAP1 POP JUMP JUMPDEST PUSH32 0x223E546A6F3C2F613E0000000000000000000000000000000000000000000000 PUSH0 DUP3 ADD MSTORE POP JUMP JUMPDEST PUSH0 PUSH2 0x1CB5 PUSH1 0x9 DUP4 PUSH2 0x15DC JUMP JUMPDEST SWAP2 POP PUSH2 0x1CC0 DUP3 PUSH2 0x1C81 JUMP JUMPDEST PUSH1 0x9 DUP3 ADD SWAP1 POP SWAP2 SWAP1 POP JUMP JUMPDEST PUSH32 0x3C666F6E743E3C2F666F6E743E3C2F666F6E743E3C2F74643E00000000000000 PUSH0 DUP3 ADD MSTORE POP JUMP JUMPDEST PUSH0 PUSH2 0x1CFF PUSH1 0x19 DUP4 PUSH2 0x15DC JUMP JUMPDEST SWAP2 POP PUSH2 0x1D0A DUP3 PUSH2 0x1CCB JUMP JUMPDEST PUSH1 0x19 DUP3 ADD SWAP1 POP SWAP2 SWAP1 POP JUMP JUMPDEST PUSH32 0x3C746420616C69676E3D227269676874222077696474683D223730252220636C PUSH0 DUP3 ADD MSTORE PUSH32 0x6173733D226C696768742D6267206C696768742D6C696E6B223E000000000000 PUSH1 0x20 DUP3 ADD MSTORE POP JUMP JUMPDEST PUSH0 PUSH2 0x1D6F PUSH1 0x3A DUP4 PUSH2 0x15DC JUMP JUMPDEST SWAP2 POP PUSH2 0x1D7A DUP3 PUSH2 0x1D15 JUMP JUMPDEST PUSH1 0x3A DUP3 ADD SWAP1 POP SWAP2 SWAP1 POP JUMP JUMPDEST PUSH32 0x3C64697620636C6173733D22706F7374496E666F206465736B746F70223E0000 PUSH0 DUP3 ADD MSTORE POP JUMP JUMPDEST PUSH0 PUSH2 0x1DB9 PUSH1 0x1E DUP4 PUSH2 0x15DC JUMP JUMPDEST SWAP2 POP PUSH2 0x1DC4 DUP3 PUSH2 0x1D85 JUMP JUMPDEST PUSH1 0x1E DUP3 ADD SWAP1 POP SWAP2 SWAP1 POP JUMP JUMPDEST PUSH32 0x3C7370616E20636C6173733D22706F73744E756D206465736B746F70223E0000 PUSH0 DUP3 ADD MSTORE POP JUMP JUMPDEST PUSH0 PUSH2 0x1E03 PUSH1 0x1E DUP4 PUSH2 0x15DC JUMP JUMPDEST SWAP2 POP PUSH2 0x1E0E DUP3 PUSH2 0x1DCF JUMP JUMPDEST PUSH1 0x1E DUP3 ADD SWAP1 POP SWAP2 SWAP1 POP JUMP JUMPDEST PUSH32 0x3C6120636C6173733D226C696768742D6C696E6B22207374796C653D22666F6E PUSH0 DUP3 ADD MSTORE PUSH32 0x742D73697A653A313270783B2220687265663D22000000000000000000000000 PUSH1 0x20 DUP3 ADD MSTORE POP JUMP JUMPDEST PUSH0 PUSH2 0x1E73 PUSH1 0x34 DUP4 PUSH2 0x15DC JUMP JUMPDEST SWAP2 POP PUSH2 0x1E7E DUP3 PUSH2 0x1E19 JUMP JUMPDEST PUSH1 0x34 DUP3 ADD SWAP1 POP SWAP2 SWAP1 POP JUMP JUMPDEST PUSH32 0x22207461726765743D225F626C616E6B22207469746C653D224C696E6B20746F PUSH0 DUP3 ADD MSTORE PUSH32 0x2074686973207472616E73616374696F6E223E00000000000000000000000000 PUSH1 0x20 DUP3 ADD MSTORE POP JUMP JUMPDEST PUSH0 PUSH2 0x1EE3 PUSH1 0x33 DUP4 PUSH2 0x15DC JUMP JUMPDEST SWAP2 POP PUSH2 0x1EEE DUP3 PUSH2 0x1E89 JUMP JUMPDEST PUSH1 0x33 DUP3 ADD SWAP1 POP SWAP2 SWAP1 POP JUMP JUMPDEST PUSH32 0x3C2F613E3C2F7370616E3E3C2F6469763E3C2F74643E3C2F74723E0000000000 PUSH0 DUP3 ADD MSTORE POP JUMP JUMPDEST PUSH0 PUSH2 0x1F2D PUSH1 0x1B DUP4 PUSH2 0x15DC JUMP JUMPDEST SWAP2 POP PUSH2 0x1F38 DUP3 PUSH2 0x1EF9 JUMP JUMPDEST PUSH1 0x1B DUP3 ADD SWAP1 POP SWAP2 SWAP1 POP JUMP JUMPDEST PUSH32 0x3C74723E3C74642076616C69676E3D226D6964646C652220616C69676E3D226C PUSH0 DUP3 ADD MSTORE PUSH32 0x6566742220636C6173733D226C696768742D6267223E00000000000000000000 PUSH1 0x20 DUP3 ADD MSTORE POP JUMP JUMPDEST PUSH0 PUSH2 0x1F9D PUSH1 0x36 DUP4 PUSH2 0x15DC JUMP JUMPDEST SWAP2 POP PUSH2 0x1FA8 DUP3 PUSH2 0x1F43 JUMP JUMPDEST PUSH1 0x36 DUP3 ADD SWAP1 POP SWAP2 SWAP1 POP JUMP JUMPDEST PUSH32 0x3C756C20616C69676E3D226C65667422207374796C653D2270616464696E672D PUSH0 DUP3 ADD MSTORE PUSH32 0x6C6566743A20313570783B666F6E742D73697A653A20313070783B223E000000 PUSH1 0x20 DUP3 ADD MSTORE POP JUMP JUMPDEST PUSH0 PUSH2 0x200D PUSH1 0x3D DUP4 PUSH2 0x15DC JUMP JUMPDEST SWAP2 POP PUSH2 0x2018 DUP3 PUSH2 0x1FB3 JUMP JUMPDEST PUSH1 0x3D DUP3 ADD SWAP1 POP SWAP2 SWAP1 POP JUMP JUMPDEST PUSH32 0x3C6C6920636C6173733D226C696768742D746578742D33223E426C6F636B3A20 PUSH0 DUP3 ADD MSTORE POP JUMP JUMPDEST PUSH0 PUSH2 0x2057 PUSH1 0x20 DUP4 PUSH2 0x15DC JUMP JUMPDEST SWAP2 POP PUSH2 0x2062 DUP3 PUSH2 0x2023 JUMP JUMPDEST PUSH1 0x20 DUP3 ADD SWAP1 POP SWAP2 SWAP1 POP JUMP JUMPDEST PUSH32 0x3C2F6C693E3C6C6920636C6173733D226C696768742D746578742D33223E4C6F PUSH0 DUP3 ADD MSTORE PUSH32 0x636174696F6E3A20554E4B4E4F574E3C2F6C693E3C2F756C3E3C2F74643E0000 PUSH1 0x20 DUP3 ADD MSTORE POP JUMP JUMPDEST PUSH0 PUSH2 0x20C7 PUSH1 0x3E DUP4 PUSH2 0x15DC JUMP JUMPDEST SWAP2 POP PUSH2 0x20D2 DUP3 PUSH2 0x206D JUMP JUMPDEST PUSH1 0x3E DUP3 ADD SWAP1 POP SWAP2 SWAP1 POP JUMP JUMPDEST PUSH32 0x3C746420616C69676E3D2263656E746572222076616C69676E3D226D6964646C PUSH0 DUP3 ADD MSTORE PUSH32 0x652220636C6173733D226C696768742D6267223E000000000000000000000000 PUSH1 0x20 DUP3 ADD MSTORE POP JUMP JUMPDEST PUSH0 PUSH2 0x2137 PUSH1 0x34 DUP4 PUSH2 0x15DC JUMP JUMPDEST SWAP2 POP PUSH2 0x2142 DUP3 PUSH2 0x20DD JUMP JUMPDEST PUSH1 0x34 DUP3 ADD SWAP1 POP SWAP2 SWAP1 POP JUMP JUMPDEST PUSH32 0x3C666F6E7420636C6173733D22726567756C61725F74657874223E0000000000 PUSH0 DUP3 ADD MSTORE POP JUMP JUMPDEST PUSH0 PUSH2 0x2181 PUSH1 0x1B DUP4 PUSH2 0x15DC JUMP JUMPDEST SWAP2 POP PUSH2 0x218C DUP3 PUSH2 0x214D JUMP JUMPDEST PUSH1 0x1B DUP3 ADD SWAP1 POP SWAP2 SWAP1 POP JUMP JUMPDEST PUSH32 0x3C64697620636C6173733D22706F7374207265706C79223E0000000000000000 PUSH0 DUP3 ADD MSTORE POP JUMP JUMPDEST PUSH0 PUSH2 0x21CB PUSH1 0x18 DUP4 PUSH2 0x15DC JUMP JUMPDEST SWAP2 POP PUSH2 0x21D6 DUP3 PUSH2 0x2197 JUMP JUMPDEST PUSH1 0x18 DUP3 ADD SWAP1 POP SWAP2 SWAP1 POP JUMP JUMPDEST PUSH32 0x3C626C6F636B71756F7465207374796C653D2277686974652D73706163653A20 PUSH0 DUP3 ADD MSTORE PUSH32 0x7072652D6C696E653B6D617267696E2D746F703A3070783B2220636C6173733D PUSH1 0x20 DUP3 ADD MSTORE PUSH32 0x22706F73744D657373616765206C696768742D746578742D32222069643D226D PUSH1 0x40 DUP3 ADD MSTORE PUSH32 0x3334303739393833223E3C62723E000000000000000000000000000000000000 PUSH1 0x60 DUP3 ADD MSTORE POP JUMP JUMPDEST PUSH0 PUSH2 0x2287 PUSH1 0x6E DUP4 PUSH2 0x15DC JUMP JUMPDEST SWAP2 POP PUSH2 0x2292 DUP3 PUSH2 0x21E1 JUMP JUMPDEST PUSH1 0x6E DUP3 ADD SWAP1 POP SWAP2 SWAP1 POP JUMP JUMPDEST PUSH32 0x3C2F626C6F636B71756F74653E3C2F6469763E3C2F666F6E743E3C2F74643E3C PUSH0 DUP3 ADD MSTORE PUSH32 0x2F74723E00000000000000000000000000000000000000000000000000000000 PUSH1 0x20 DUP3 ADD MSTORE POP JUMP JUMPDEST PUSH0 PUSH2 0x22F7 PUSH1 0x24 DUP4 PUSH2 0x15DC JUMP JUMPDEST SWAP2 POP PUSH2 0x2302 DUP3 PUSH2 0x229D JUMP JUMPDEST PUSH1 0x24 DUP3 ADD SWAP1 POP SWAP2 SWAP1 POP JUMP JUMPDEST PUSH0 PUSH2 0x2318 DUP3 DUP11 PUSH2 0x19AE JUMP JUMPDEST SWAP2 POP PUSH2 0x2323 DUP3 PUSH2 0x1B35 JUMP JUMPDEST SWAP2 POP PUSH2 0x232E DUP3 PUSH2 0x1BA5 JUMP JUMPDEST SWAP2 POP PUSH2 0x2339 DUP3 PUSH2 0x1BEF JUMP JUMPDEST SWAP2 POP PUSH2 0x2344 DUP3 PUSH2 0x1C5F JUMP JUMPDEST SWAP2 POP PUSH2 0x2350 DUP3 DUP10 PUSH2 0x1656 JUMP JUMPDEST SWAP2 POP PUSH2 0x235B DUP3 PUSH2 0x1CA9 JUMP JUMPDEST SWAP2 POP PUSH2 0x2366 DUP3 PUSH2 0x1CF3 JUMP JUMPDEST SWAP2 POP PUSH2 0x2371 DUP3 PUSH2 0x1D63 JUMP JUMPDEST SWAP2 POP PUSH2 0x237C DUP3 PUSH2 0x1DAD JUMP JUMPDEST SWAP2 POP PUSH2 0x2387 DUP3 PUSH2 0x1DF7 JUMP JUMPDEST SWAP2 POP PUSH2 0x2392 DUP3 PUSH2 0x1E67 JUMP JUMPDEST SWAP2 POP PUSH2 0x239E DUP3 DUP9 PUSH2 0x1656 JUMP JUMPDEST SWAP2 POP PUSH2 0x23AA DUP3 DUP8 PUSH2 0x1656 JUMP JUMPDEST SWAP2 POP PUSH2 0x23B5 DUP3 PUSH2 0x1ED7 JUMP JUMPDEST SWAP2 POP PUSH2 0x23C1 DUP3 DUP7 PUSH2 0x1656 JUMP JUMPDEST SWAP2 POP PUSH2 0x23CC DUP3 PUSH2 0x1F21 JUMP JUMPDEST SWAP2 POP PUSH2 0x23D7 DUP3 PUSH2 0x1F91 JUMP JUMPDEST SWAP2 POP PUSH2 0x23E2 DUP3 PUSH2 0x2001 JUMP JUMPDEST SWAP2 POP PUSH2 0x23ED DUP3 PUSH2 0x204B JUMP JUMPDEST SWAP2 POP PUSH2 0x23F9 DUP3 DUP6 PUSH2 0x1656 JUMP JUMPDEST SWAP2 POP PUSH2 0x2404 DUP3 PUSH2 0x20BB JUMP JUMPDEST SWAP2 POP PUSH2 0x240F DUP3 PUSH2 0x212B JUMP JUMPDEST SWAP2 POP PUSH2 0x241A DUP3 PUSH2 0x2175 JUMP JUMPDEST SWAP2 POP PUSH2 0x2425 DUP3 PUSH2 0x21BF JUMP JUMPDEST SWAP2 POP PUSH2 0x2430 DUP3 PUSH2 0x227B JUMP JUMPDEST SWAP2 POP PUSH2 0x243C DUP3 DUP5 PUSH2 0x1656 JUMP JUMPDEST SWAP2 POP PUSH2 0x2447 DUP3 PUSH2 0x22EB JUMP JUMPDEST SWAP2 POP DUP2 SWAP1 POP SWAP9 SWAP8 POP POP POP POP POP POP POP POP JUMP INVALID LOG2 PUSH5 0x6970667358 0x22 SLT KECCAK256 CALLVALUE EXTCODEHASH 0xD0 0xEB NOT SWAP12 0x1F 0xB4 DUP16 DUP1 0xF6 0x4F 0xD9 MLOAD CALLCODE PUSH27 0x5B8EC2936922DD882E751A3DD03E362564736F6C634300081A0033 "
				},
				"gasEstimates": {
					"creation": {
						"codeDepositCost": "1871600",
						"executionCost": "infinite",
						"totalCost": "infinite"
					},
					"external": {
						"accessList(address)": "2856",
						"addEntry(string,string,string,string,string)": "infinite",
						"entries(uint256)": "infinite",
						"getEntriesHTML()": "infinite",
						"getMode()": "infinite",
						"getTotalEntries()": "2486",
						"grantAccess(address)": "26996",
						"mode()": "infinite",
						"owner()": "2553",
						"revokeAccess(address)": "27060",
						"setAndrewUrl(string)": "infinite",
						"setEtherscanUrl(string)": "infinite",
						"setMode(string)": "infinite",
						"setTjoUrl(string)": "infinite"
					}
				},
				"methodIdentifiers": {
					"accessList(address)": "87a5b67c",
					"addEntry(string,string,string,string,string)": "57c8be66",
					"entries(uint256)": "b30906d4",
					"getEntriesHTML()": "b0a69ab4",
					"getMode()": "4b4fd03b",
					"getTotalEntries()": "12d491c9",
					"grantAccess(address)": "0ae5e739",
					"mode()": "295a5212",
					"owner()": "8da5cb5b",
					"revokeAccess(address)": "85e68531",
					"setAndrewUrl(string)": "52baf08f",
					"setEtherscanUrl(string)": "a9c598b9",
					"setMode(string)": "a84fd0ed",
					"setTjoUrl(string)": "c41f0cac"
				}
			},
			"storageLayout": {
				"storage": [
					{
						"astId": 15,
						"contract": "ProzacYouthUtils.sol:ProzacYouthUtils",
						"label": "mode",
						"offset": 0,
						"slot": "0",
						"type": "t_string_storage"
					},
					{
						"astId": 19,
						"contract": "ProzacYouthUtils.sol:ProzacYouthUtils",
						"label": "entries",
						"offset": 0,
						"slot": "1",
						"type": "t_array(t_struct(Entry)12_storage)dyn_storage"
					},
					{
						"astId": 23,
						"contract": "ProzacYouthUtils.sol:ProzacYouthUtils",
						"label": "accessList",
						"offset": 0,
						"slot": "2",
						"type": "t_mapping(t_address,t_bool)"
					},
					{
						"astId": 25,
						"contract": "ProzacYouthUtils.sol:ProzacYouthUtils",
						"label": "owner",
						"offset": 0,
						"slot": "3",
						"type": "t_address"
					},
					{
						"astId": 28,
						"contract": "ProzacYouthUtils.sol:ProzacYouthUtils",
						"label": "tjoUrl",
						"offset": 0,
						"slot": "4",
						"type": "t_string_storage"
					},
					{
						"astId": 31,
						"contract": "ProzacYouthUtils.sol:ProzacYouthUtils",
						"label": "etherscanUrl",
						"offset": 0,
						"slot": "5",
						"type": "t_string_storage"
					},
					{
						"astId": 34,
						"contract": "ProzacYouthUtils.sol:ProzacYouthUtils",
						"label": "andrewUrl",
						"offset": 0,
						"slot": "6",
						"type": "t_string_storage"
					}
				],
				"types": {
					"t_address": {
						"encoding": "inplace",
						"label": "address",
						"numberOfBytes": "20"
					},
					"t_array(t_struct(Entry)12_storage)dyn_storage": {
						"base": "t_struct(Entry)12_storage",
						"encoding": "dynamic_array",
						"label": "struct ProzacYouthUtils.Entry[]",
						"numberOfBytes": "32"
					},
					"t_bool": {
						"encoding": "inplace",
						"label": "bool",
						"numberOfBytes": "1"
					},
					"t_mapping(t_address,t_bool)": {
						"encoding": "mapping",
						"key": "t_address",
						"label": "mapping(address => bool)",
						"numberOfBytes": "32",
						"value": "t_bool"
					},
					"t_string_storage": {
						"encoding": "bytes",
						"label": "string",
						"numberOfBytes": "32"
					},
					"t_struct(Entry)12_storage": {
						"encoding": "inplace",
						"label": "struct ProzacYouthUtils.Entry",
						"members": [
							{
								"astId": 3,
								"contract": "ProzacYouthUtils.sol:ProzacYouthUtils",
								"label": "hash",
								"offset": 0,
								"slot": "0",
								"type": "t_string_storage"
							},
							{
								"astId": 5,
								"contract": "ProzacYouthUtils.sol:ProzacYouthUtils",
								"label": "blockNumber",
								"offset": 0,
								"slot": "1",
								"type": "t_string_storage"
							},
							{
								"astId": 7,
								"contract": "ProzacYouthUtils.sol:ProzacYouthUtils",
								"label": "timestamp",
								"offset": 0,
								"slot": "2",
								"type": "t_string_storage"
							},
							{
								"astId": 9,
								"contract": "ProzacYouthUtils.sol:ProzacYouthUtils",
								"label": "text",
								"offset": 0,
								"slot": "3",
								"type": "t_string_storage"
							},
							{
								"astId": 11,
								"contract": "ProzacYouthUtils.sol:ProzacYouthUtils",
								"label": "formattedTime",
								"offset": 0,
								"slot": "4",
								"type": "t_string_storage"
							}
						],
						"numberOfBytes": "160"
					}
				}
			},
			"userdoc": {
				"kind": "user",
				"methods": {},
				"version": 1
			}
		}
	}
}