{
	"ProzacYouthEngine_1.sol": {
		"ProzacYouthEngine_1": {
			"abi": [
				{
					"inputs": [],
					"name": "getAnimFooter",
					"outputs": [
						{
							"internalType": "string",
							"name": "",
							"type": "string"
						}
					],
					"stateMutability": "pure",
					"type": "function"
				},
				{
					"inputs": [
						{
							"internalType": "string",
							"name": "iconHref",
							"type": "string"
						}
					],
					"name": "getAnimHeader",
					"outputs": [
						{
							"internalType": "string",
							"name": "",
							"type": "string"
						}
					],
					"stateMutability": "pure",
					"type": "function"
				}
			],
			"devdoc": {
				"kind": "dev",
				"methods": {},
				"version": 1
			},
			"evm": {
				"assembly": "    /* \"ProzacYouthEngine_1.sol\":20631:27154  contract ProzacYouthEngine_1 {... */\n  mstore(0x40, 0x80)\n  callvalue\n  dup1\n  iszero\n  tag_1\n  jumpi\n  0x00\n  dup1\n  revert\ntag_1:\n  pop\n  dataSize(sub_0)\n  dup1\n  dataOffset(sub_0)\n  0x00\n  codecopy\n  0x00\n  return\nstop\n\nsub_0: assembly {\n        /* \"ProzacYouthEngine_1.sol\":20631:27154  contract ProzacYouthEngine_1 {... */\n      mstore(0x40, 0x80)\n      callvalue\n      dup1\n      iszero\n      tag_1\n      jumpi\n      0x00\n      dup1\n      revert\n    tag_1:\n      pop\n      jumpi(tag_2, lt(calldatasize, 0x04))\n      shr(0xe0, calldataload(0x00))\n      dup1\n      0x7899ff8f\n      eq\n      tag_3\n      jumpi\n      dup1\n      0xb6823613\n      eq\n      tag_4\n      jumpi\n    tag_2:\n      0x00\n      dup1\n      revert\n        /* \"ProzacYouthEngine_1.sol\":27045:27152  function getAnimFooter() public pure returns (string memory) {... */\n    tag_3:\n      tag_5\n      tag_6\n      jump\t// in\n    tag_5:\n      mload(0x40)\n      tag_7\n      swap2\n      swap1\n      tag_8\n      jump\t// in\n    tag_7:\n      mload(0x40)\n      dup1\n      swap2\n      sub\n      swap1\n      return\n        /* \"ProzacYouthEngine_1.sol\":20666:27039  function getAnimHeader(string memory iconHref) public pure returns (string memory) {... */\n    tag_4:\n      tag_9\n      0x04\n      dup1\n      calldatasize\n      sub\n      dup2\n      add\n      swap1\n      tag_10\n      swap2\n      swap1\n      tag_11\n      jump\t// in\n    tag_10:\n      tag_12\n      jump\t// in\n    tag_9:\n      mload(0x40)\n      tag_13\n      swap2\n      swap1\n      tag_8\n      jump\t// in\n    tag_13:\n      mload(0x40)\n      dup1\n      swap2\n      sub\n      swap1\n      return\n        /* \"ProzacYouthEngine_1.sol\":27045:27152  function getAnimFooter() public pure returns (string memory) {... */\n    tag_6:\n        /* \"ProzacYouthEngine_1.sol\":27091:27104  string memory */\n      0x60\n        /* \"ProzacYouthEngine_1.sol\":27116:27145  return \"<body></body></html>\" */\n      mload(0x40)\n      dup1\n      0x40\n      add\n      0x40\n      mstore\n      dup1\n      0x14\n      dup2\n      mstore\n      0x20\n      add\n      0x3c626f64793e3c2f626f64793e3c2f68746d6c3e000000000000000000000000\n      dup2\n      mstore\n      pop\n      swap1\n      pop\n        /* \"ProzacYouthEngine_1.sol\":27045:27152  function getAnimFooter() public pure returns (string memory) {... */\n      swap1\n      jump\t// out\n        /* \"ProzacYouthEngine_1.sol\":20666:27039  function getAnimHeader(string memory iconHref) public pure returns (string memory) {... */\n    tag_12:\n        /* \"ProzacYouthEngine_1.sol\":20734:20747  string memory */\n      0x60\n        /* \"ProzacYouthEngine_1.sol\":21086:21094  iconHref */\n      dup2\n        /* \"ProzacYouthEngine_1.sol\":20787:27031  abi.encodePacked(\"<!doctypehtml><html lang=en><meta content='text/html; charset=UTF-8'http-equiv=Content-Type><meta content='width=device-width,initial-scale=1'name=viewport><meta content='ie=edge'http-equiv=X-UA-Compatible><meta developer='Andrew Mitchell'><title>Prozac Youth</title><link href='\",iconHref,\"' rel=icon sizes=16x16 type=image/png><script src=https://cdn.jsdelivr.net/npm/web3@4.10.0/dist/web3.min.js></script><script src=https://code.jquery.com/jquery-3.6.0.min.js></script><link href=https://stackpath.bootstrapcdn.com/bootstrap/5.1.0/css/bootstrap.min.css rel=stylesheet><link href='https://fonts.googleapis.com/css2?family=Roboto:wght@300;400;700&display=swap'rel=stylesheet><style>body{font-family:Roboto,Arial,Helvetica,sans-serif;font-size:10pt;margin:0;padding:5px}.andrews-container{margin:auto;width:60%}@media only screen and (max-width:600px){.andrews-container{width:100%}}.table{margin:20px auto;width:60%;border-collapse:collapse}@media only screen and (max-width:600px){.table{width:100%}}.fade-in{opacity:1;animation-name:fadeInOpacity;animation-iteration-count:1;animation-timing-function:ease-in;animation-duration:2s}@keyframes fadeInOpacity{0%{opacity:0}100%{opacity:1}}#loading-text{font-size:10pt;text-align:right}#loading{width:100%}.header-title{font-size:16pt;font-weight:700;text-align:center;background-color:#243f98;padding:10px 0;border-radius:5px}.breadcrumbs{font-size:9pt;color:#777;margin-bottom:10px}#mode-switch{cursor:pointer;position:absolute;top:10px;right:10px}.forum-rules{border-radius:5px;padding:10px;font-size:9pt;margin-bottom:20px}.table-header,.table-row{padding:8px}.table-header{background-color:#243f98;font-weight:700}.table>.light-bg:nth-child(even){background-color:#e0e7ff!important}.light-bg{background-color:#f7f6f1!important}.light-border{border:1px solid #ccc!important}.light-border-2{border:1px solid #c5d2ff!important}.light-bg-2{background-color:#e0e7ff!important}.light-text{color:#f7f6f1!important}.light-text-2{color:#243f98!important}.error-text{color:#f03}.dark-link{color:#3055cc!important}.dark-text-2{color:#4566d3!important}.light-text-3{color:#1f1f1f!important}.dark-text-3{color:#2643a2!important}.light-text-4{color:#1f1f1f!important}.dark-text-4{color:#cdcdcd!important}.table>.dark-bg:nth-child(even){background-color:#1f1f1f!important}.dark-bg{background-color:#121212!important}.dark-border{border:1px solid #555!important}.dark-border-2{border:1px solid #333!important}.dark-bg-2{background-color:#444!important}.dark-text{color:#121212!important}.post-wrapper{display:none}.small-text{font-size:8pt;color:#555}.current-time{font-size:8pt;color:#777;vertical-align:super;margin-right:2px}#table-body{table-layout:fixed}.time-wrapper{display:inline}.loading-cell{display:flex;border:0;text-align:right}.post-info{display:flex;justify-content:space-between;align-items:center}.post-info span{font-size:10pt;color:#243f98;font-weight:700}.post-message{font-size:10pt;line-height:1.5}.footer{margin-top:20px;text-align:center;font-size:9pt;color:#777}</style><body class='light-text-2 light-bg'><div class='fade-in post-wrapper'id=post-wrapper><div class='light-text-2 andrews-container'><div class='light-text header-title'>Forums</div><div class=breadcrumbs>Prozac Youth > Forums > TJO > Dear Human</div><div class='forum-rules light-bg-2 light-border-2 light-text-4'>The only rules we request you to follow, are to keep things polite, and to please put your messages in the appropriate sections.</div><div class=post-info><span class=light-text-2>Total Posts: <b id=total-posts>9999999</b></span><div class=time-wrapper><span class='light-text-2 current-time'>Apr 27 2024 14:22:40</span></div></div><table class=table style=table-layout:fixed><thead><tr class='light-border light-text table-header'><th>Author<th>Thread<tbody id=table-body></table><span id=mode-switch onclick=toggleMode()><svg fill=#000000 height=20px id=Capa_1 version=1.1 viewBox='0 0 207.628 207.628'width=20px xml:space=preserve xmlns=http://www.w3.org/2000/svg xmlns:xlink=http://www.w3.org/1999/xlink><circle cx=103.814 cy=103.814 r=45.868 /><path d='M103.814,157.183c-29.427,0-53.368-23.941-53.368-53.368s23.941-53.368,53.368-53.368s53.368,23.941,53.368,53.368  S133.241,157.183,103.814,157.183z M103.814,65.446c-21.156,0-38.368,17.212-38.368,38.368s17.212,38.368,38.368,38.368  s38.368-17.212,38.368-38.368S124.97,65.446,103.814,65.446z'/><path d='M103.814,39.385c-4.142,0-7.5-3.358-7.5-7.5V7.5c0-4.142,3.358-7.5,7.5-7.5s7.5,3.358,7.5,7.5v24.385  C111.314,36.027,107.956,39.385,103.814,39.385z'/><path d='M103.814,207.628c-4.142,0-7.5-3.358-7.5-7.5v-24.385c0-4.142,3.358-7.5,7.5-7.5s7.5,3.358,7.5,7.5v24.385  C111.314,204.271,107.956,207.628,103.814,207.628z'/><path d='M200.128,111.314h-24.385c-4.142,0-7.5-3.358-7.5-7.5s3.358-7.5,7.5-7.5h24.385c4.142,0,7.5,3.358,7.5,7.5  S204.271,111.314,200.128,111.314z'/><path d='M31.885,111.314H7.5c-4.142,0-7.5-3.358-7.5-7.5s3.358-7.5,7.5-7.5h24.385c4.142,0,7.5,3.358,7.5,7.5  S36.027,111.314,31.885,111.314z'/><path d='M154.676,60.452c-1.919,0-3.839-0.732-5.303-2.197c-2.929-2.929-2.929-7.678,0-10.606l17.243-17.242  c2.929-2.929,7.678-2.93,10.606,0c2.929,2.929,2.929,7.678,0,10.606l-17.243,17.242C158.515,59.72,156.595,60.452,154.676,60.452z'/><path d='M35.709,179.419c-1.919,0-3.839-0.732-5.303-2.197c-2.929-2.929-2.929-7.678,0-10.606l17.243-17.243  c2.929-2.929,7.678-2.929,10.606,0c2.929,2.929,2.929,7.678,0,10.606l-17.243,17.243C39.548,178.687,37.629,179.419,35.709,179.419z  '/><path d='M171.918,179.419c-1.919,0-3.839-0.732-5.303-2.197l-17.243-17.243c-2.929-2.929-2.929-7.678,0-10.606  c2.929-2.929,7.678-2.929,10.606,0l17.243,17.243c2.929,2.929,2.929,7.678,0,10.606  C175.757,178.687,173.838,179.419,171.918,179.419z'/><path d='M52.952,60.452c-1.919,0-3.839-0.732-5.303-2.197L30.406,41.013c-2.929-2.929-2.929-7.677,0-10.606  c2.929-2.929,7.678-2.93,10.606,0l17.243,17.242c2.929,2.929,2.929,7.677,0,10.606C56.791,59.72,54.872,60.452,52.952,60.452z'/></svg></span><div id=andrew style=margin-top:15px;text-align:center;width:100%><span>Designed by <a class=light-link href=https://andrewmitchell.xyz target=_blank>Andrew Mitchell</a></span></div><div class=footer>&#169; Prozac Youth. All rights reserved.</div></div></div>\") */\n      add(0x20, mload(0x40))\n      tag_16\n      swap2\n      swap1\n      tag_17\n      jump\t// in\n    tag_16:\n      mload(0x40)\n      0x20\n      dup2\n      dup4\n      sub\n      sub\n      dup2\n      mstore\n      swap1\n      0x40\n      mstore\n        /* \"ProzacYouthEngine_1.sol\":20760:27032  return ... */\n      swap1\n      pop\n        /* \"ProzacYouthEngine_1.sol\":20666:27039  function getAnimHeader(string memory iconHref) public pure returns (string memory) {... */\n      swap2\n      swap1\n      pop\n      jump\t// out\n        /* \"#utility.yul\":7:106   */\n    tag_18:\n        /* \"#utility.yul\":59:65   */\n      0x00\n        /* \"#utility.yul\":93:98   */\n      dup2\n        /* \"#utility.yul\":87:99   */\n      mload\n        /* \"#utility.yul\":77:99   */\n      swap1\n      pop\n        /* \"#utility.yul\":7:106   */\n      swap2\n      swap1\n      pop\n      jump\t// out\n        /* \"#utility.yul\":112:281   */\n    tag_19:\n        /* \"#utility.yul\":196:207   */\n      0x00\n        /* \"#utility.yul\":230:236   */\n      dup3\n        /* \"#utility.yul\":225:228   */\n      dup3\n        /* \"#utility.yul\":218:237   */\n      mstore\n        /* \"#utility.yul\":270:274   */\n      0x20\n        /* \"#utility.yul\":265:268   */\n      dup3\n        /* \"#utility.yul\":261:275   */\n      add\n        /* \"#utility.yul\":246:275   */\n      swap1\n      pop\n        /* \"#utility.yul\":112:281   */\n      swap3\n      swap2\n      pop\n      pop\n      jump\t// out\n        /* \"#utility.yul\":287:426   */\n    tag_20:\n        /* \"#utility.yul\":376:382   */\n      dup3\n        /* \"#utility.yul\":371:374   */\n      dup2\n        /* \"#utility.yul\":366:369   */\n      dup4\n        /* \"#utility.yul\":360:383   */\n      mcopy\n        /* \"#utility.yul\":417:418   */\n      0x00\n        /* \"#utility.yul\":408:414   */\n      dup4\n        /* \"#utility.yul\":403:406   */\n      dup4\n        /* \"#utility.yul\":399:415   */\n      add\n        /* \"#utility.yul\":392:419   */\n      mstore\n        /* \"#utility.yul\":287:426   */\n      pop\n      pop\n      pop\n      jump\t// out\n        /* \"#utility.yul\":432:534   */\n    tag_21:\n        /* \"#utility.yul\":473:479   */\n      0x00\n        /* \"#utility.yul\":524:526   */\n      0x1f\n        /* \"#utility.yul\":520:527   */\n      not\n        /* \"#utility.yul\":515:517   */\n      0x1f\n        /* \"#utility.yul\":508:513   */\n      dup4\n        /* \"#utility.yul\":504:518   */\n      add\n        /* \"#utility.yul\":500:528   */\n      and\n        /* \"#utility.yul\":490:528   */\n      swap1\n      pop\n        /* \"#utility.yul\":432:534   */\n      swap2\n      swap1\n      pop\n      jump\t// out\n        /* \"#utility.yul\":540:917   */\n    tag_22:\n        /* \"#utility.yul\":628:631   */\n      0x00\n        /* \"#utility.yul\":656:695   */\n      tag_47\n        /* \"#utility.yul\":689:694   */\n      dup3\n        /* \"#utility.yul\":656:695   */\n      tag_18\n      jump\t// in\n    tag_47:\n        /* \"#utility.yul\":711:782   */\n      tag_48\n        /* \"#utility.yul\":775:781   */\n      dup2\n        /* \"#utility.yul\":770:773   */\n      dup6\n        /* \"#utility.yul\":711:782   */\n      tag_19\n      jump\t// in\n    tag_48:\n        /* \"#utility.yul\":704:782   */\n      swap4\n      pop\n        /* \"#utility.yul\":791:856   */\n      tag_49\n        /* \"#utility.yul\":849:855   */\n      dup2\n        /* \"#utility.yul\":844:847   */\n      dup6\n        /* \"#utility.yul\":837:841   */\n      0x20\n        /* \"#utility.yul\":830:835   */\n      dup7\n        /* \"#utility.yul\":826:842   */\n      add\n        /* \"#utility.yul\":791:856   */\n      tag_20\n      jump\t// in\n    tag_49:\n        /* \"#utility.yul\":881:910   */\n      tag_50\n        /* \"#utility.yul\":903:909   */\n      dup2\n        /* \"#utility.yul\":881:910   */\n      tag_21\n      jump\t// in\n    tag_50:\n        /* \"#utility.yul\":876:879   */\n      dup5\n        /* \"#utility.yul\":872:911   */\n      add\n        /* \"#utility.yul\":865:911   */\n      swap2\n      pop\n        /* \"#utility.yul\":632:917   */\n      pop\n        /* \"#utility.yul\":540:917   */\n      swap3\n      swap2\n      pop\n      pop\n      jump\t// out\n        /* \"#utility.yul\":923:1236   */\n    tag_8:\n        /* \"#utility.yul\":1036:1040   */\n      0x00\n        /* \"#utility.yul\":1074:1076   */\n      0x20\n        /* \"#utility.yul\":1063:1072   */\n      dup3\n        /* \"#utility.yul\":1059:1077   */\n      add\n        /* \"#utility.yul\":1051:1077   */\n      swap1\n      pop\n        /* \"#utility.yul\":1123:1132   */\n      dup2\n        /* \"#utility.yul\":1117:1121   */\n      dup2\n        /* \"#utility.yul\":1113:1133   */\n      sub\n        /* \"#utility.yul\":1109:1110   */\n      0x00\n        /* \"#utility.yul\":1098:1107   */\n      dup4\n        /* \"#utility.yul\":1094:1111   */\n      add\n        /* \"#utility.yul\":1087:1134   */\n      mstore\n        /* \"#utility.yul\":1151:1229   */\n      tag_52\n        /* \"#utility.yul\":1224:1228   */\n      dup2\n        /* \"#utility.yul\":1215:1221   */\n      dup5\n        /* \"#utility.yul\":1151:1229   */\n      tag_22\n      jump\t// in\n    tag_52:\n        /* \"#utility.yul\":1143:1229   */\n      swap1\n      pop\n        /* \"#utility.yul\":923:1236   */\n      swap3\n      swap2\n      pop\n      pop\n      jump\t// out\n        /* \"#utility.yul\":1242:1317   */\n    tag_23:\n        /* \"#utility.yul\":1275:1281   */\n      0x00\n        /* \"#utility.yul\":1308:1310   */\n      0x40\n        /* \"#utility.yul\":1302:1311   */\n      mload\n        /* \"#utility.yul\":1292:1311   */\n      swap1\n      pop\n        /* \"#utility.yul\":1242:1317   */\n      swap1\n      jump\t// out\n        /* \"#utility.yul\":1323:1440   */\n    tag_24:\n        /* \"#utility.yul\":1432:1433   */\n      0x00\n        /* \"#utility.yul\":1429:1430   */\n      dup1\n        /* \"#utility.yul\":1422:1434   */\n      revert\n        /* \"#utility.yul\":1446:1563   */\n    tag_25:\n        /* \"#utility.yul\":1555:1556   */\n      0x00\n        /* \"#utility.yul\":1552:1553   */\n      dup1\n        /* \"#utility.yul\":1545:1557   */\n      revert\n        /* \"#utility.yul\":1569:1686   */\n    tag_26:\n        /* \"#utility.yul\":1678:1679   */\n      0x00\n        /* \"#utility.yul\":1675:1676   */\n      dup1\n        /* \"#utility.yul\":1668:1680   */\n      revert\n        /* \"#utility.yul\":1692:1809   */\n    tag_27:\n        /* \"#utility.yul\":1801:1802   */\n      0x00\n        /* \"#utility.yul\":1798:1799   */\n      dup1\n        /* \"#utility.yul\":1791:1803   */\n      revert\n        /* \"#utility.yul\":1815:1995   */\n    tag_28:\n        /* \"#utility.yul\":1863:1940   */\n      0x4e487b7100000000000000000000000000000000000000000000000000000000\n        /* \"#utility.yul\":1860:1861   */\n      0x00\n        /* \"#utility.yul\":1853:1941   */\n      mstore\n        /* \"#utility.yul\":1960:1964   */\n      0x41\n        /* \"#utility.yul\":1957:1958   */\n      0x04\n        /* \"#utility.yul\":1950:1965   */\n      mstore\n        /* \"#utility.yul\":1984:1988   */\n      0x24\n        /* \"#utility.yul\":1981:1982   */\n      0x00\n        /* \"#utility.yul\":1974:1989   */\n      revert\n        /* \"#utility.yul\":2001:2282   */\n    tag_29:\n        /* \"#utility.yul\":2084:2111   */\n      tag_60\n        /* \"#utility.yul\":2106:2110   */\n      dup3\n        /* \"#utility.yul\":2084:2111   */\n      tag_21\n      jump\t// in\n    tag_60:\n        /* \"#utility.yul\":2076:2082   */\n      dup2\n        /* \"#utility.yul\":2072:2112   */\n      add\n        /* \"#utility.yul\":2214:2220   */\n      dup2\n        /* \"#utility.yul\":2202:2212   */\n      dup2\n        /* \"#utility.yul\":2199:2221   */\n      lt\n        /* \"#utility.yul\":2178:2196   */\n      0xffffffffffffffff\n        /* \"#utility.yul\":2166:2176   */\n      dup3\n        /* \"#utility.yul\":2163:2197   */\n      gt\n        /* \"#utility.yul\":2160:2222   */\n      or\n        /* \"#utility.yul\":2157:2245   */\n      iszero\n      tag_61\n      jumpi\n        /* \"#utility.yul\":2225:2243   */\n      tag_62\n      tag_28\n      jump\t// in\n    tag_62:\n        /* \"#utility.yul\":2157:2245   */\n    tag_61:\n        /* \"#utility.yul\":2265:2275   */\n      dup1\n        /* \"#utility.yul\":2261:2263   */\n      0x40\n        /* \"#utility.yul\":2254:2276   */\n      mstore\n        /* \"#utility.yul\":2044:2282   */\n      pop\n        /* \"#utility.yul\":2001:2282   */\n      pop\n      pop\n      jump\t// out\n        /* \"#utility.yul\":2288:2417   */\n    tag_30:\n        /* \"#utility.yul\":2322:2328   */\n      0x00\n        /* \"#utility.yul\":2349:2369   */\n      tag_64\n      tag_23\n      jump\t// in\n    tag_64:\n        /* \"#utility.yul\":2339:2369   */\n      swap1\n      pop\n        /* \"#utility.yul\":2378:2411   */\n      tag_65\n        /* \"#utility.yul\":2406:2410   */\n      dup3\n        /* \"#utility.yul\":2398:2404   */\n      dup3\n        /* \"#utility.yul\":2378:2411   */\n      tag_29\n      jump\t// in\n    tag_65:\n        /* \"#utility.yul\":2288:2417   */\n      swap2\n      swap1\n      pop\n      jump\t// out\n        /* \"#utility.yul\":2423:2731   */\n    tag_31:\n        /* \"#utility.yul\":2485:2489   */\n      0x00\n        /* \"#utility.yul\":2575:2593   */\n      0xffffffffffffffff\n        /* \"#utility.yul\":2567:2573   */\n      dup3\n        /* \"#utility.yul\":2564:2594   */\n      gt\n        /* \"#utility.yul\":2561:2617   */\n      iszero\n      tag_67\n      jumpi\n        /* \"#utility.yul\":2597:2615   */\n      tag_68\n      tag_28\n      jump\t// in\n    tag_68:\n        /* \"#utility.yul\":2561:2617   */\n    tag_67:\n        /* \"#utility.yul\":2635:2664   */\n      tag_69\n        /* \"#utility.yul\":2657:2663   */\n      dup3\n        /* \"#utility.yul\":2635:2664   */\n      tag_21\n      jump\t// in\n    tag_69:\n        /* \"#utility.yul\":2627:2664   */\n      swap1\n      pop\n        /* \"#utility.yul\":2719:2723   */\n      0x20\n        /* \"#utility.yul\":2713:2717   */\n      dup2\n        /* \"#utility.yul\":2709:2724   */\n      add\n        /* \"#utility.yul\":2701:2724   */\n      swap1\n      pop\n        /* \"#utility.yul\":2423:2731   */\n      swap2\n      swap1\n      pop\n      jump\t// out\n        /* \"#utility.yul\":2737:2885   */\n    tag_32:\n        /* \"#utility.yul\":2835:2841   */\n      dup3\n        /* \"#utility.yul\":2830:2833   */\n      dup2\n        /* \"#utility.yul\":2825:2828   */\n      dup4\n        /* \"#utility.yul\":2812:2842   */\n      calldatacopy\n        /* \"#utility.yul\":2876:2877   */\n      0x00\n        /* \"#utility.yul\":2867:2873   */\n      dup4\n        /* \"#utility.yul\":2862:2865   */\n      dup4\n        /* \"#utility.yul\":2858:2874   */\n      add\n        /* \"#utility.yul\":2851:2878   */\n      mstore\n        /* \"#utility.yul\":2737:2885   */\n      pop\n      pop\n      pop\n      jump\t// out\n        /* \"#utility.yul\":2891:3316   */\n    tag_33:\n        /* \"#utility.yul\":2969:2974   */\n      0x00\n        /* \"#utility.yul\":2994:3060   */\n      tag_72\n        /* \"#utility.yul\":3010:3059   */\n      tag_73\n        /* \"#utility.yul\":3052:3058   */\n      dup5\n        /* \"#utility.yul\":3010:3059   */\n      tag_31\n      jump\t// in\n    tag_73:\n        /* \"#utility.yul\":2994:3060   */\n      tag_30\n      jump\t// in\n    tag_72:\n        /* \"#utility.yul\":2985:3060   */\n      swap1\n      pop\n        /* \"#utility.yul\":3083:3089   */\n      dup3\n        /* \"#utility.yul\":3076:3081   */\n      dup2\n        /* \"#utility.yul\":3069:3090   */\n      mstore\n        /* \"#utility.yul\":3121:3125   */\n      0x20\n        /* \"#utility.yul\":3114:3119   */\n      dup2\n        /* \"#utility.yul\":3110:3126   */\n      add\n        /* \"#utility.yul\":3159:3162   */\n      dup5\n        /* \"#utility.yul\":3150:3156   */\n      dup5\n        /* \"#utility.yul\":3145:3148   */\n      dup5\n        /* \"#utility.yul\":3141:3157   */\n      add\n        /* \"#utility.yul\":3138:3163   */\n      gt\n        /* \"#utility.yul\":3135:3247   */\n      iszero\n      tag_74\n      jumpi\n        /* \"#utility.yul\":3166:3245   */\n      tag_75\n      tag_27\n      jump\t// in\n    tag_75:\n        /* \"#utility.yul\":3135:3247   */\n    tag_74:\n        /* \"#utility.yul\":3256:3310   */\n      tag_76\n        /* \"#utility.yul\":3303:3309   */\n      dup5\n        /* \"#utility.yul\":3298:3301   */\n      dup3\n        /* \"#utility.yul\":3293:3296   */\n      dup6\n        /* \"#utility.yul\":3256:3310   */\n      tag_32\n      jump\t// in\n    tag_76:\n        /* \"#utility.yul\":2975:3316   */\n      pop\n        /* \"#utility.yul\":2891:3316   */\n      swap4\n      swap3\n      pop\n      pop\n      pop\n      jump\t// out\n        /* \"#utility.yul\":3336:3676   */\n    tag_34:\n        /* \"#utility.yul\":3392:3397   */\n      0x00\n        /* \"#utility.yul\":3441:3444   */\n      dup3\n        /* \"#utility.yul\":3434:3438   */\n      0x1f\n        /* \"#utility.yul\":3426:3432   */\n      dup4\n        /* \"#utility.yul\":3422:3439   */\n      add\n        /* \"#utility.yul\":3418:3445   */\n      slt\n        /* \"#utility.yul\":3408:3530   */\n      tag_78\n      jumpi\n        /* \"#utility.yul\":3449:3528   */\n      tag_79\n      tag_26\n      jump\t// in\n    tag_79:\n        /* \"#utility.yul\":3408:3530   */\n    tag_78:\n        /* \"#utility.yul\":3566:3572   */\n      dup2\n        /* \"#utility.yul\":3553:3573   */\n      calldataload\n        /* \"#utility.yul\":3591:3670   */\n      tag_80\n        /* \"#utility.yul\":3666:3669   */\n      dup5\n        /* \"#utility.yul\":3658:3664   */\n      dup3\n        /* \"#utility.yul\":3651:3655   */\n      0x20\n        /* \"#utility.yul\":3643:3649   */\n      dup7\n        /* \"#utility.yul\":3639:3656   */\n      add\n        /* \"#utility.yul\":3591:3670   */\n      tag_33\n      jump\t// in\n    tag_80:\n        /* \"#utility.yul\":3582:3670   */\n      swap2\n      pop\n        /* \"#utility.yul\":3398:3676   */\n      pop\n        /* \"#utility.yul\":3336:3676   */\n      swap3\n      swap2\n      pop\n      pop\n      jump\t// out\n        /* \"#utility.yul\":3682:4191   */\n    tag_11:\n        /* \"#utility.yul\":3751:3757   */\n      0x00\n        /* \"#utility.yul\":3800:3802   */\n      0x20\n        /* \"#utility.yul\":3788:3797   */\n      dup3\n        /* \"#utility.yul\":3779:3786   */\n      dup5\n        /* \"#utility.yul\":3775:3798   */\n      sub\n        /* \"#utility.yul\":3771:3803   */\n      slt\n        /* \"#utility.yul\":3768:3887   */\n      iszero\n      tag_82\n      jumpi\n        /* \"#utility.yul\":3806:3885   */\n      tag_83\n      tag_24\n      jump\t// in\n    tag_83:\n        /* \"#utility.yul\":3768:3887   */\n    tag_82:\n        /* \"#utility.yul\":3954:3955   */\n      0x00\n        /* \"#utility.yul\":3943:3952   */\n      dup3\n        /* \"#utility.yul\":3939:3956   */\n      add\n        /* \"#utility.yul\":3926:3957   */\n      calldataload\n        /* \"#utility.yul\":3984:4002   */\n      0xffffffffffffffff\n        /* \"#utility.yul\":3976:3982   */\n      dup2\n        /* \"#utility.yul\":3973:4003   */\n      gt\n        /* \"#utility.yul\":3970:4087   */\n      iszero\n      tag_84\n      jumpi\n        /* \"#utility.yul\":4006:4085   */\n      tag_85\n      tag_25\n      jump\t// in\n    tag_85:\n        /* \"#utility.yul\":3970:4087   */\n    tag_84:\n        /* \"#utility.yul\":4111:4174   */\n      tag_86\n        /* \"#utility.yul\":4166:4173   */\n      dup5\n        /* \"#utility.yul\":4157:4163   */\n      dup3\n        /* \"#utility.yul\":4146:4155   */\n      dup6\n        /* \"#utility.yul\":4142:4164   */\n      add\n        /* \"#utility.yul\":4111:4174   */\n      tag_34\n      jump\t// in\n    tag_86:\n        /* \"#utility.yul\":4101:4174   */\n      swap2\n      pop\n        /* \"#utility.yul\":3897:4184   */\n      pop\n        /* \"#utility.yul\":3682:4191   */\n      swap3\n      swap2\n      pop\n      pop\n      jump\t// out\n        /* \"#utility.yul\":4197:4345   */\n    tag_35:\n        /* \"#utility.yul\":4299:4310   */\n      0x00\n        /* \"#utility.yul\":4336:4339   */\n      dup2\n        /* \"#utility.yul\":4321:4339   */\n      swap1\n      pop\n        /* \"#utility.yul\":4197:4345   */\n      swap3\n      swap2\n      pop\n      pop\n      jump\t// out\n        /* \"#utility.yul\":4351:5081   */\n    tag_36:\n        /* \"#utility.yul\":4491:4525   */\n      0x3c21646f637479706568746d6c3e3c68746d6c206c616e673d656e3e3c6d6574\n        /* \"#utility.yul\":4487:4488   */\n      0x00\n        /* \"#utility.yul\":4479:4485   */\n      dup3\n        /* \"#utility.yul\":4475:4489   */\n      add\n        /* \"#utility.yul\":4468:4526   */\n      mstore\n        /* \"#utility.yul\":4560:4594   */\n      0x6120636f6e74656e743d27746578742f68746d6c3b20636861727365743d5554\n        /* \"#utility.yul\":4555:4557   */\n      0x20\n        /* \"#utility.yul\":4547:4553   */\n      dup3\n        /* \"#utility.yul\":4543:4558   */\n      add\n        /* \"#utility.yul\":4536:4595   */\n      mstore\n        /* \"#utility.yul\":4629:4663   */\n      0x462d3827687474702d65717569763d436f6e74656e742d547970653e3c6d6574\n        /* \"#utility.yul\":4624:4626   */\n      0x40\n        /* \"#utility.yul\":4616:4622   */\n      dup3\n        /* \"#utility.yul\":4612:4627   */\n      add\n        /* \"#utility.yul\":4605:4664   */\n      mstore\n        /* \"#utility.yul\":4698:4732   */\n      0x6120636f6e74656e743d2777696474683d6465766963652d77696474682c696e\n        /* \"#utility.yul\":4693:4695   */\n      0x60\n        /* \"#utility.yul\":4685:4691   */\n      dup3\n        /* \"#utility.yul\":4681:4696   */\n      add\n        /* \"#utility.yul\":4674:4733   */\n      mstore\n        /* \"#utility.yul\":4768:4802   */\n      0x697469616c2d7363616c653d31276e616d653d76696577706f72743e3c6d6574\n        /* \"#utility.yul\":4762:4765   */\n      0x80\n        /* \"#utility.yul\":4754:4760   */\n      dup3\n        /* \"#utility.yul\":4750:4766   */\n      add\n        /* \"#utility.yul\":4743:4803   */\n      mstore\n        /* \"#utility.yul\":4838:4872   */\n      0x6120636f6e74656e743d2769653d6564676527687474702d65717569763d582d\n        /* \"#utility.yul\":4832:4835   */\n      0xa0\n        /* \"#utility.yul\":4824:4830   */\n      dup3\n        /* \"#utility.yul\":4820:4836   */\n      add\n        /* \"#utility.yul\":4813:4873   */\n      mstore\n        /* \"#utility.yul\":4908:4942   */\n      0x55412d436f6d70617469626c653e3c6d65746120646576656c6f7065723d2741\n        /* \"#utility.yul\":4902:4905   */\n      0xc0\n        /* \"#utility.yul\":4894:4900   */\n      dup3\n        /* \"#utility.yul\":4890:4906   */\n      add\n        /* \"#utility.yul\":4883:4943   */\n      mstore\n        /* \"#utility.yul\":4978:5012   */\n      0x6e64726577204d69746368656c6c273e3c7469746c653e50726f7a616320596f\n        /* \"#utility.yul\":4972:4975   */\n      0xe0\n        /* \"#utility.yul\":4964:4970   */\n      dup3\n        /* \"#utility.yul\":4960:4976   */\n      add\n        /* \"#utility.yul\":4953:5013   */\n      mstore\n        /* \"#utility.yul\":5048:5073   */\n      0x7574683c2f7469746c653e3c6c696e6b20687265663d27000000000000000000\n        /* \"#utility.yul\":5042:5045   */\n      0x0100\n        /* \"#utility.yul\":5034:5040   */\n      dup3\n        /* \"#utility.yul\":5030:5046   */\n      add\n        /* \"#utility.yul\":5023:5074   */\n      mstore\n        /* \"#utility.yul\":4351:5081   */\n      pop\n      jump\t// out\n        /* \"#utility.yul\":5087:5491   */\n    tag_37:\n        /* \"#utility.yul\":5247:5250   */\n      0x00\n        /* \"#utility.yul\":5268:5354   */\n      tag_90\n        /* \"#utility.yul\":5350:5353   */\n      0x0117\n        /* \"#utility.yul\":5345:5348   */\n      dup4\n        /* \"#utility.yul\":5268:5354   */\n      tag_35\n      jump\t// in\n    tag_90:\n        /* \"#utility.yul\":5261:5354   */\n      swap2\n      pop\n        /* \"#utility.yul\":5363:5456   */\n      tag_91\n        /* \"#utility.yul\":5452:5455   */\n      dup3\n        /* \"#utility.yul\":5363:5456   */\n      tag_36\n      jump\t// in\n    tag_91:\n        /* \"#utility.yul\":5481:5484   */\n      0x0117\n        /* \"#utility.yul\":5476:5479   */\n      dup3\n        /* \"#utility.yul\":5472:5485   */\n      add\n        /* \"#utility.yul\":5465:5485   */\n      swap1\n      pop\n        /* \"#utility.yul\":5087:5491   */\n      swap2\n      swap1\n      pop\n      jump\t// out\n        /* \"#utility.yul\":5497:5887   */\n    tag_38:\n        /* \"#utility.yul\":5603:5606   */\n      0x00\n        /* \"#utility.yul\":5631:5670   */\n      tag_93\n        /* \"#utility.yul\":5664:5669   */\n      dup3\n        /* \"#utility.yul\":5631:5670   */\n      tag_18\n      jump\t// in\n    tag_93:\n        /* \"#utility.yul\":5686:5775   */\n      tag_94\n        /* \"#utility.yul\":5768:5774   */\n      dup2\n        /* \"#utility.yul\":5763:5766   */\n      dup6\n        /* \"#utility.yul\":5686:5775   */\n      tag_35\n      jump\t// in\n    tag_94:\n        /* \"#utility.yul\":5679:5775   */\n      swap4\n      pop\n        /* \"#utility.yul\":5784:5849   */\n      tag_95\n        /* \"#utility.yul\":5842:5848   */\n      dup2\n        /* \"#utility.yul\":5837:5840   */\n      dup6\n        /* \"#utility.yul\":5830:5834   */\n      0x20\n        /* \"#utility.yul\":5823:5828   */\n      dup7\n        /* \"#utility.yul\":5819:5835   */\n      add\n        /* \"#utility.yul\":5784:5849   */\n      tag_20\n      jump\t// in\n    tag_95:\n        /* \"#utility.yul\":5874:5880   */\n      dup1\n        /* \"#utility.yul\":5869:5872   */\n      dup5\n        /* \"#utility.yul\":5865:5881   */\n      add\n        /* \"#utility.yul\":5858:5881   */\n      swap2\n      pop\n        /* \"#utility.yul\":5607:5887   */\n      pop\n        /* \"#utility.yul\":5497:5887   */\n      swap3\n      swap2\n      pop\n      pop\n      jump\t// out\n        /* \"#utility.yul\":5893:22801   */\n    tag_39:\n        /* \"#utility.yul\":6033:6067   */\n      0x272072656c3d69636f6e2073697a65733d313678313620747970653d696d6167\n        /* \"#utility.yul\":6029:6030   */\n      0x00\n        /* \"#utility.yul\":6021:6027   */\n      dup3\n        /* \"#utility.yul\":6017:6031   */\n      add\n        /* \"#utility.yul\":6010:6068   */\n      mstore\n        /* \"#utility.yul\":6102:6136   */\n      0x652f706e673e3c736372697074207372633d68747470733a2f2f63646e2e6a73\n        /* \"#utility.yul\":6097:6099   */\n      0x20\n        /* \"#utility.yul\":6089:6095   */\n      dup3\n        /* \"#utility.yul\":6085:6100   */\n      add\n        /* \"#utility.yul\":6078:6137   */\n      mstore\n        /* \"#utility.yul\":6175:6209   */\n      0x64656c6976722e6e65742f6e706d2f7765623340342e31302e302f646973742f\n        /* \"#utility.yul\":6170:6172   */\n      0x40\n        /* \"#utility.yul\":6162:6168   */\n      dup3\n        /* \"#utility.yul\":6158:6173   */\n      add\n        /* \"#utility.yul\":6151:6210   */\n      mstore\n        /* \"#utility.yul\":6248:6282   */\n      0x776562332e6d696e2e6a733e3c2f7363726970743e3c73637269707420737263\n        /* \"#utility.yul\":6243:6245   */\n      0x60\n        /* \"#utility.yul\":6235:6241   */\n      dup3\n        /* \"#utility.yul\":6231:6246   */\n      add\n        /* \"#utility.yul\":6224:6283   */\n      mstore\n        /* \"#utility.yul\":6322:6356   */\n      0x3d68747470733a2f2f636f64652e6a71756572792e636f6d2f6a71756572792d\n        /* \"#utility.yul\":6316:6319   */\n      0x80\n        /* \"#utility.yul\":6308:6314   */\n      dup3\n        /* \"#utility.yul\":6304:6320   */\n      add\n        /* \"#utility.yul\":6297:6357   */\n      mstore\n        /* \"#utility.yul\":6400:6434   */\n      0x332e362e302e6d696e2e6a733e3c2f7363726970743e3c6c696e6b2068726566\n        /* \"#utility.yul\":6394:6397   */\n      0xa0\n        /* \"#utility.yul\":6386:6392   */\n      dup3\n        /* \"#utility.yul\":6382:6398   */\n      add\n        /* \"#utility.yul\":6375:6435   */\n      mstore\n        /* \"#utility.yul\":6478:6512   */\n      0x3d68747470733a2f2f737461636b706174682e626f6f74737472617063646e2e\n        /* \"#utility.yul\":6472:6475   */\n      0xc0\n        /* \"#utility.yul\":6464:6470   */\n      dup3\n        /* \"#utility.yul\":6460:6476   */\n      add\n        /* \"#utility.yul\":6453:6513   */\n      mstore\n        /* \"#utility.yul\":6560:6594   */\n      0x636f6d2f626f6f7473747261702f352e312e302f6373732f626f6f7473747261\n        /* \"#utility.yul\":6554:6557   */\n      0xe0\n        /* \"#utility.yul\":6546:6552   */\n      dup3\n        /* \"#utility.yul\":6542:6558   */\n      add\n        /* \"#utility.yul\":6535:6595   */\n      mstore\n        /* \"#utility.yul\":6642:6676   */\n      0x702e6d696e2e6373732072656c3d7374796c6573686565743e3c6c696e6b2068\n        /* \"#utility.yul\":6636:6639   */\n      0x0100\n        /* \"#utility.yul\":6628:6634   */\n      dup3\n        /* \"#utility.yul\":6624:6640   */\n      add\n        /* \"#utility.yul\":6617:6677   */\n      mstore\n        /* \"#utility.yul\":6724:6758   */\n      0x7265663d2768747470733a2f2f666f6e74732e676f6f676c65617069732e636f\n        /* \"#utility.yul\":6718:6721   */\n      0x0120\n        /* \"#utility.yul\":6710:6716   */\n      dup3\n        /* \"#utility.yul\":6706:6722   */\n      add\n        /* \"#utility.yul\":6699:6759   */\n      mstore\n        /* \"#utility.yul\":6810:6844   */\n      0x6d2f637373323f66616d696c793d526f626f746f3a77676874403330303b3430\n        /* \"#utility.yul\":6804:6807   */\n      0x0140\n        /* \"#utility.yul\":6796:6802   */\n      dup3\n        /* \"#utility.yul\":6792:6808   */\n      add\n        /* \"#utility.yul\":6785:6845   */\n      mstore\n        /* \"#utility.yul\":6896:6930   */\n      0x303b37303026646973706c61793d737761702772656c3d7374796c6573686565\n        /* \"#utility.yul\":6890:6893   */\n      0x0160\n        /* \"#utility.yul\":6882:6888   */\n      dup3\n        /* \"#utility.yul\":6878:6894   */\n      add\n        /* \"#utility.yul\":6871:6931   */\n      mstore\n        /* \"#utility.yul\":6982:7016   */\n      0x743e3c7374796c653e626f64797b666f6e742d66616d696c793a526f626f746f\n        /* \"#utility.yul\":6976:6979   */\n      0x0180\n        /* \"#utility.yul\":6968:6974   */\n      dup3\n        /* \"#utility.yul\":6964:6980   */\n      add\n        /* \"#utility.yul\":6957:7017   */\n      mstore\n        /* \"#utility.yul\":7072:7106   */\n      0x2c417269616c2c48656c7665746963612c73616e732d73657269663b666f6e74\n        /* \"#utility.yul\":7066:7069   */\n      0x01a0\n        /* \"#utility.yul\":7058:7064   */\n      dup3\n        /* \"#utility.yul\":7054:7070   */\n      add\n        /* \"#utility.yul\":7047:7107   */\n      mstore\n        /* \"#utility.yul\":7158:7192   */\n      0x2d73697a653a313070743b6d617267696e3a303b70616464696e673a3570787d\n        /* \"#utility.yul\":7152:7155   */\n      0x01c0\n        /* \"#utility.yul\":7144:7150   */\n      dup3\n        /* \"#utility.yul\":7140:7156   */\n      add\n        /* \"#utility.yul\":7133:7193   */\n      mstore\n        /* \"#utility.yul\":7244:7278   */\n      0x2e616e64726577732d636f6e7461696e65727b6d617267696e3a6175746f3b77\n        /* \"#utility.yul\":7238:7241   */\n      0x01e0\n        /* \"#utility.yul\":7230:7236   */\n      dup3\n        /* \"#utility.yul\":7226:7242   */\n      add\n        /* \"#utility.yul\":7219:7279   */\n      mstore\n        /* \"#utility.yul\":7330:7364   */\n      0x696474683a3630257d406d65646961206f6e6c792073637265656e20616e6420\n        /* \"#utility.yul\":7324:7327   */\n      0x0200\n        /* \"#utility.yul\":7316:7322   */\n      dup3\n        /* \"#utility.yul\":7312:7328   */\n      add\n        /* \"#utility.yul\":7305:7365   */\n      mstore\n        /* \"#utility.yul\":7416:7450   */\n      0x286d61782d77696474683a3630307078297b2e616e64726577732d636f6e7461\n        /* \"#utility.yul\":7410:7413   */\n      0x0220\n        /* \"#utility.yul\":7402:7408   */\n      dup3\n        /* \"#utility.yul\":7398:7414   */\n      add\n        /* \"#utility.yul\":7391:7451   */\n      mstore\n        /* \"#utility.yul\":7506:7540   */\n      0x696e65727b77696474683a313030257d7d2e7461626c657b6d617267696e3a32\n        /* \"#utility.yul\":7500:7503   */\n      0x0240\n        /* \"#utility.yul\":7492:7498   */\n      dup3\n        /* \"#utility.yul\":7488:7504   */\n      add\n        /* \"#utility.yul\":7481:7541   */\n      mstore\n        /* \"#utility.yul\":7596:7630   */\n      0x307078206175746f3b77696474683a3630253b626f726465722d636f6c6c6170\n        /* \"#utility.yul\":7590:7593   */\n      0x0260\n        /* \"#utility.yul\":7582:7588   */\n      dup3\n        /* \"#utility.yul\":7578:7594   */\n      add\n        /* \"#utility.yul\":7571:7631   */\n      mstore\n        /* \"#utility.yul\":7682:7716   */\n      0x73653a636f6c6c617073657d406d65646961206f6e6c792073637265656e2061\n        /* \"#utility.yul\":7676:7679   */\n      0x0280\n        /* \"#utility.yul\":7668:7674   */\n      dup3\n        /* \"#utility.yul\":7664:7680   */\n      add\n        /* \"#utility.yul\":7657:7717   */\n      mstore\n        /* \"#utility.yul\":7768:7802   */\n      0x6e6420286d61782d77696474683a3630307078297b2e7461626c657b77696474\n        /* \"#utility.yul\":7762:7765   */\n      0x02a0\n        /* \"#utility.yul\":7754:7760   */\n      dup3\n        /* \"#utility.yul\":7750:7766   */\n      add\n        /* \"#utility.yul\":7743:7803   */\n      mstore\n        /* \"#utility.yul\":7858:7892   */\n      0x683a313030257d7d2e666164652d696e7b6f7061636974793a313b616e696d61\n        /* \"#utility.yul\":7852:7855   */\n      0x02c0\n        /* \"#utility.yul\":7844:7850   */\n      dup3\n        /* \"#utility.yul\":7840:7856   */\n      add\n        /* \"#utility.yul\":7833:7893   */\n      mstore\n        /* \"#utility.yul\":7948:7982   */\n      0x74696f6e2d6e616d653a66616465496e4f7061636974793b616e696d6174696f\n        /* \"#utility.yul\":7942:7945   */\n      0x02e0\n        /* \"#utility.yul\":7934:7940   */\n      dup3\n        /* \"#utility.yul\":7930:7946   */\n      add\n        /* \"#utility.yul\":7923:7983   */\n      mstore\n        /* \"#utility.yul\":8038:8072   */\n      0x6e2d697465726174696f6e2d636f756e743a313b616e696d6174696f6e2d7469\n        /* \"#utility.yul\":8032:8035   */\n      0x0300\n        /* \"#utility.yul\":8024:8030   */\n      dup3\n        /* \"#utility.yul\":8020:8036   */\n      add\n        /* \"#utility.yul\":8013:8073   */\n      mstore\n        /* \"#utility.yul\":8128:8162   */\n      0x6d696e672d66756e6374696f6e3a656173652d696e3b616e696d6174696f6e2d\n        /* \"#utility.yul\":8122:8125   */\n      0x0320\n        /* \"#utility.yul\":8114:8120   */\n      dup3\n        /* \"#utility.yul\":8110:8126   */\n      add\n        /* \"#utility.yul\":8103:8163   */\n      mstore\n        /* \"#utility.yul\":8214:8248   */\n      0x6475726174696f6e3a32737d406b65796672616d65732066616465496e4f7061\n        /* \"#utility.yul\":8208:8211   */\n      0x0340\n        /* \"#utility.yul\":8200:8206   */\n      dup3\n        /* \"#utility.yul\":8196:8212   */\n      add\n        /* \"#utility.yul\":8189:8249   */\n      mstore\n        /* \"#utility.yul\":8300:8334   */\n      0x636974797b30257b6f7061636974793a307d313030257b6f7061636974793a31\n        /* \"#utility.yul\":8294:8297   */\n      0x0360\n        /* \"#utility.yul\":8286:8292   */\n      dup3\n        /* \"#utility.yul\":8282:8298   */\n      add\n        /* \"#utility.yul\":8275:8335   */\n      mstore\n        /* \"#utility.yul\":8390:8424   */\n      0x7d7d236c6f6164696e672d746578747b666f6e742d73697a653a313070743b74\n        /* \"#utility.yul\":8384:8387   */\n      0x0380\n        /* \"#utility.yul\":8376:8382   */\n      dup3\n        /* \"#utility.yul\":8372:8388   */\n      add\n        /* \"#utility.yul\":8365:8425   */\n      mstore\n        /* \"#utility.yul\":8480:8514   */\n      0x6578742d616c69676e3a72696768747d236c6f6164696e677b77696474683a31\n        /* \"#utility.yul\":8474:8477   */\n      0x03a0\n        /* \"#utility.yul\":8466:8472   */\n      dup3\n        /* \"#utility.yul\":8462:8478   */\n      add\n        /* \"#utility.yul\":8455:8515   */\n      mstore\n        /* \"#utility.yul\":8570:8604   */\n      0x3030257d2e6865616465722d7469746c657b666f6e742d73697a653a31367074\n        /* \"#utility.yul\":8564:8567   */\n      0x03c0\n        /* \"#utility.yul\":8556:8562   */\n      dup3\n        /* \"#utility.yul\":8552:8568   */\n      add\n        /* \"#utility.yul\":8545:8605   */\n      mstore\n        /* \"#utility.yul\":8660:8694   */\n      0x3b666f6e742d7765696768743a3730303b746578742d616c69676e3a63656e74\n        /* \"#utility.yul\":8654:8657   */\n      0x03e0\n        /* \"#utility.yul\":8646:8652   */\n      dup3\n        /* \"#utility.yul\":8642:8658   */\n      add\n        /* \"#utility.yul\":8635:8695   */\n      mstore\n        /* \"#utility.yul\":8751:8785   */\n      0x65723b6261636b67726f756e642d636f6c6f723a233234336639383b70616464\n        /* \"#utility.yul\":8744:8748   */\n      0x0400\n        /* \"#utility.yul\":8736:8742   */\n      dup3\n        /* \"#utility.yul\":8732:8749   */\n      add\n        /* \"#utility.yul\":8725:8786   */\n      mstore\n        /* \"#utility.yul\":8838:8872   */\n      0x696e673a3130707820303b626f726465722d7261646975733a3570787d2e6272\n        /* \"#utility.yul\":8831:8835   */\n      0x0420\n        /* \"#utility.yul\":8823:8829   */\n      dup3\n        /* \"#utility.yul\":8819:8836   */\n      add\n        /* \"#utility.yul\":8812:8873   */\n      mstore\n        /* \"#utility.yul\":8925:8959   */\n      0x6561646372756d62737b666f6e742d73697a653a3970743b636f6c6f723a2337\n        /* \"#utility.yul\":8918:8922   */\n      0x0440\n        /* \"#utility.yul\":8910:8916   */\n      dup3\n        /* \"#utility.yul\":8906:8923   */\n      add\n        /* \"#utility.yul\":8899:8960   */\n      mstore\n        /* \"#utility.yul\":9012:9046   */\n      0x37373b6d617267696e2d626f74746f6d3a313070787d236d6f64652d73776974\n        /* \"#utility.yul\":9005:9009   */\n      0x0460\n        /* \"#utility.yul\":8997:9003   */\n      dup3\n        /* \"#utility.yul\":8993:9010   */\n      add\n        /* \"#utility.yul\":8986:9047   */\n      mstore\n        /* \"#utility.yul\":9099:9133   */\n      0x63687b637572736f723a706f696e7465723b706f736974696f6e3a6162736f6c\n        /* \"#utility.yul\":9092:9096   */\n      0x0480\n        /* \"#utility.yul\":9084:9090   */\n      dup3\n        /* \"#utility.yul\":9080:9097   */\n      add\n        /* \"#utility.yul\":9073:9134   */\n      mstore\n        /* \"#utility.yul\":9186:9220   */\n      0x7574653b746f703a313070783b72696768743a313070787d2e666f72756d2d72\n        /* \"#utility.yul\":9179:9183   */\n      0x04a0\n        /* \"#utility.yul\":9171:9177   */\n      dup3\n        /* \"#utility.yul\":9167:9184   */\n      add\n        /* \"#utility.yul\":9160:9221   */\n      mstore\n        /* \"#utility.yul\":9273:9307   */\n      0x756c65737b626f726465722d7261646975733a3570783b70616464696e673a31\n        /* \"#utility.yul\":9266:9270   */\n      0x04c0\n        /* \"#utility.yul\":9258:9264   */\n      dup3\n        /* \"#utility.yul\":9254:9271   */\n      add\n        /* \"#utility.yul\":9247:9308   */\n      mstore\n        /* \"#utility.yul\":9364:9398   */\n      0x3070783b666f6e742d73697a653a3970743b6d617267696e2d626f74746f6d3a\n        /* \"#utility.yul\":9357:9361   */\n      0x04e0\n        /* \"#utility.yul\":9349:9355   */\n      dup3\n        /* \"#utility.yul\":9345:9362   */\n      add\n        /* \"#utility.yul\":9338:9399   */\n      mstore\n        /* \"#utility.yul\":9455:9489   */\n      0x323070787d2e7461626c652d6865616465722c2e7461626c652d726f777b7061\n        /* \"#utility.yul\":9448:9452   */\n      0x0500\n        /* \"#utility.yul\":9440:9446   */\n      dup3\n        /* \"#utility.yul\":9436:9453   */\n      add\n        /* \"#utility.yul\":9429:9490   */\n      mstore\n        /* \"#utility.yul\":9546:9580   */\n      0x6464696e673a3870787d2e7461626c652d6865616465727b6261636b67726f75\n        /* \"#utility.yul\":9539:9543   */\n      0x0520\n        /* \"#utility.yul\":9531:9537   */\n      dup3\n        /* \"#utility.yul\":9527:9544   */\n      add\n        /* \"#utility.yul\":9520:9581   */\n      mstore\n        /* \"#utility.yul\":9637:9671   */\n      0x6e642d636f6c6f723a233234336639383b666f6e742d7765696768743a373030\n        /* \"#utility.yul\":9630:9634   */\n      0x0540\n        /* \"#utility.yul\":9622:9628   */\n      dup3\n        /* \"#utility.yul\":9618:9635   */\n      add\n        /* \"#utility.yul\":9611:9672   */\n      mstore\n        /* \"#utility.yul\":9728:9762   */\n      0x7d2e7461626c653e2e6c696768742d62673a6e74682d6368696c64286576656e\n        /* \"#utility.yul\":9721:9725   */\n      0x0560\n        /* \"#utility.yul\":9713:9719   */\n      dup3\n        /* \"#utility.yul\":9709:9726   */\n      add\n        /* \"#utility.yul\":9702:9763   */\n      mstore\n        /* \"#utility.yul\":9819:9853   */\n      0x297b6261636b67726f756e642d636f6c6f723a2365306537666621696d706f72\n        /* \"#utility.yul\":9812:9816   */\n      0x0580\n        /* \"#utility.yul\":9804:9810   */\n      dup3\n        /* \"#utility.yul\":9800:9817   */\n      add\n        /* \"#utility.yul\":9793:9854   */\n      mstore\n        /* \"#utility.yul\":9910:9944   */\n      0x74616e747d2e6c696768742d62677b6261636b67726f756e642d636f6c6f723a\n        /* \"#utility.yul\":9903:9907   */\n      0x05a0\n        /* \"#utility.yul\":9895:9901   */\n      dup3\n        /* \"#utility.yul\":9891:9908   */\n      add\n        /* \"#utility.yul\":9884:9945   */\n      mstore\n        /* \"#utility.yul\":10001:10035   */\n      0x2366376636663121696d706f7274616e747d2e6c696768742d626f726465727b\n        /* \"#utility.yul\":9994:9998   */\n      0x05c0\n        /* \"#utility.yul\":9986:9992   */\n      dup3\n        /* \"#utility.yul\":9982:9999   */\n      add\n        /* \"#utility.yul\":9975:10036   */\n      mstore\n        /* \"#utility.yul\":10088:10122   */\n      0x626f726465723a31707820736f6c6964202363636321696d706f7274616e747d\n        /* \"#utility.yul\":10081:10085   */\n      0x05e0\n        /* \"#utility.yul\":10073:10079   */\n      dup3\n        /* \"#utility.yul\":10069:10086   */\n      add\n        /* \"#utility.yul\":10062:10123   */\n      mstore\n        /* \"#utility.yul\":10175:10209   */\n      0x2e6c696768742d626f726465722d327b626f726465723a31707820736f6c6964\n        /* \"#utility.yul\":10168:10172   */\n      0x0600\n        /* \"#utility.yul\":10160:10166   */\n      dup3\n        /* \"#utility.yul\":10156:10173   */\n      add\n        /* \"#utility.yul\":10149:10210   */\n      mstore\n        /* \"#utility.yul\":10266:10300   */\n      0x202363356432666621696d706f7274616e747d2e6c696768742d62672d327b62\n        /* \"#utility.yul\":10259:10263   */\n      0x0620\n        /* \"#utility.yul\":10251:10257   */\n      dup3\n        /* \"#utility.yul\":10247:10264   */\n      add\n        /* \"#utility.yul\":10240:10301   */\n      mstore\n        /* \"#utility.yul\":10357:10391   */\n      0x61636b67726f756e642d636f6c6f723a2365306537666621696d706f7274616e\n        /* \"#utility.yul\":10350:10354   */\n      0x0640\n        /* \"#utility.yul\":10342:10348   */\n      dup3\n        /* \"#utility.yul\":10338:10355   */\n      add\n        /* \"#utility.yul\":10331:10392   */\n      mstore\n        /* \"#utility.yul\":10448:10482   */\n      0x747d2e6c696768742d746578747b636f6c6f723a2366376636663121696d706f\n        /* \"#utility.yul\":10441:10445   */\n      0x0660\n        /* \"#utility.yul\":10433:10439   */\n      dup3\n        /* \"#utility.yul\":10429:10446   */\n      add\n        /* \"#utility.yul\":10422:10483   */\n      mstore\n        /* \"#utility.yul\":10539:10573   */\n      0x7274616e747d2e6c696768742d746578742d327b636f6c6f723a233234336639\n        /* \"#utility.yul\":10532:10536   */\n      0x0680\n        /* \"#utility.yul\":10524:10530   */\n      dup3\n        /* \"#utility.yul\":10520:10537   */\n      add\n        /* \"#utility.yul\":10513:10574   */\n      mstore\n        /* \"#utility.yul\":10630:10664   */\n      0x3821696d706f7274616e747d2e6572726f722d746578747b636f6c6f723a2366\n        /* \"#utility.yul\":10623:10627   */\n      0x06a0\n        /* \"#utility.yul\":10615:10621   */\n      dup3\n        /* \"#utility.yul\":10611:10628   */\n      add\n        /* \"#utility.yul\":10604:10665   */\n      mstore\n        /* \"#utility.yul\":10721:10755   */\n      0x30337d2e6461726b2d6c696e6b7b636f6c6f723a2333303535636321696d706f\n        /* \"#utility.yul\":10714:10718   */\n      0x06c0\n        /* \"#utility.yul\":10706:10712   */\n      dup3\n        /* \"#utility.yul\":10702:10719   */\n      add\n        /* \"#utility.yul\":10695:10756   */\n      mstore\n        /* \"#utility.yul\":10812:10846   */\n      0x7274616e747d2e6461726b2d746578742d327b636f6c6f723a23343536366433\n        /* \"#utility.yul\":10805:10809   */\n      0x06e0\n        /* \"#utility.yul\":10797:10803   */\n      dup3\n        /* \"#utility.yul\":10793:10810   */\n      add\n        /* \"#utility.yul\":10786:10847   */\n      mstore\n        /* \"#utility.yul\":10903:10937   */\n      0x21696d706f7274616e747d2e6c696768742d746578742d337b636f6c6f723a23\n        /* \"#utility.yul\":10896:10900   */\n      0x0700\n        /* \"#utility.yul\":10888:10894   */\n      dup3\n        /* \"#utility.yul\":10884:10901   */\n      add\n        /* \"#utility.yul\":10877:10938   */\n      mstore\n        /* \"#utility.yul\":10994:11028   */\n      0x31663166316621696d706f7274616e747d2e6461726b2d746578742d337b636f\n        /* \"#utility.yul\":10987:10991   */\n      0x0720\n        /* \"#utility.yul\":10979:10985   */\n      dup3\n        /* \"#utility.yul\":10975:10992   */\n      add\n        /* \"#utility.yul\":10968:11029   */\n      mstore\n        /* \"#utility.yul\":11081:11115   */\n      0x6c6f723a2332363433613221696d706f7274616e747d2e6c696768742d746578\n        /* \"#utility.yul\":11074:11078   */\n      0x0740\n        /* \"#utility.yul\":11066:11072   */\n      dup3\n        /* \"#utility.yul\":11062:11079   */\n      add\n        /* \"#utility.yul\":11055:11116   */\n      mstore\n        /* \"#utility.yul\":11168:11202   */\n      0x742d347b636f6c6f723a2331663166316621696d706f7274616e747d2e646172\n        /* \"#utility.yul\":11161:11165   */\n      0x0760\n        /* \"#utility.yul\":11153:11159   */\n      dup3\n        /* \"#utility.yul\":11149:11166   */\n      add\n        /* \"#utility.yul\":11142:11203   */\n      mstore\n        /* \"#utility.yul\":11255:11289   */\n      0x6b2d746578742d347b636f6c6f723a2363646364636421696d706f7274616e74\n        /* \"#utility.yul\":11248:11252   */\n      0x0780\n        /* \"#utility.yul\":11240:11246   */\n      dup3\n        /* \"#utility.yul\":11236:11253   */\n      add\n        /* \"#utility.yul\":11229:11290   */\n      mstore\n        /* \"#utility.yul\":11342:11376   */\n      0x7d2e7461626c653e2e6461726b2d62673a6e74682d6368696c64286576656e29\n        /* \"#utility.yul\":11335:11339   */\n      0x07a0\n        /* \"#utility.yul\":11327:11333   */\n      dup3\n        /* \"#utility.yul\":11323:11340   */\n      add\n        /* \"#utility.yul\":11316:11377   */\n      mstore\n        /* \"#utility.yul\":11429:11463   */\n      0x7b6261636b67726f756e642d636f6c6f723a2331663166316621696d706f7274\n        /* \"#utility.yul\":11422:11426   */\n      0x07c0\n        /* \"#utility.yul\":11414:11420   */\n      dup3\n        /* \"#utility.yul\":11410:11427   */\n      add\n        /* \"#utility.yul\":11403:11464   */\n      mstore\n        /* \"#utility.yul\":11520:11554   */\n      0x616e747d2e6461726b2d62677b6261636b67726f756e642d636f6c6f723a2331\n        /* \"#utility.yul\":11513:11517   */\n      0x07e0\n        /* \"#utility.yul\":11505:11511   */\n      dup3\n        /* \"#utility.yul\":11501:11518   */\n      add\n        /* \"#utility.yul\":11494:11555   */\n      mstore\n        /* \"#utility.yul\":11611:11645   */\n      0x323132313221696d706f7274616e747d2e6461726b2d626f726465727b626f72\n        /* \"#utility.yul\":11604:11608   */\n      0x0800\n        /* \"#utility.yul\":11596:11602   */\n      dup3\n        /* \"#utility.yul\":11592:11609   */\n      add\n        /* \"#utility.yul\":11585:11646   */\n      mstore\n        /* \"#utility.yul\":11698:11732   */\n      0x6465723a31707820736f6c6964202335353521696d706f7274616e747d2e6461\n        /* \"#utility.yul\":11691:11695   */\n      0x0820\n        /* \"#utility.yul\":11683:11689   */\n      dup3\n        /* \"#utility.yul\":11679:11696   */\n      add\n        /* \"#utility.yul\":11672:11733   */\n      mstore\n        /* \"#utility.yul\":11785:11819   */\n      0x726b2d626f726465722d327b626f726465723a31707820736f6c696420233333\n        /* \"#utility.yul\":11778:11782   */\n      0x0840\n        /* \"#utility.yul\":11770:11776   */\n      dup3\n        /* \"#utility.yul\":11766:11783   */\n      add\n        /* \"#utility.yul\":11759:11820   */\n      mstore\n        /* \"#utility.yul\":11876:11910   */\n      0x3321696d706f7274616e747d2e6461726b2d62672d327b6261636b67726f756e\n        /* \"#utility.yul\":11869:11873   */\n      0x0860\n        /* \"#utility.yul\":11861:11867   */\n      dup3\n        /* \"#utility.yul\":11857:11874   */\n      add\n        /* \"#utility.yul\":11850:11911   */\n      mstore\n        /* \"#utility.yul\":11963:11997   */\n      0x642d636f6c6f723a2334343421696d706f7274616e747d2e6461726b2d746578\n        /* \"#utility.yul\":11956:11960   */\n      0x0880\n        /* \"#utility.yul\":11948:11954   */\n      dup3\n        /* \"#utility.yul\":11944:11961   */\n      add\n        /* \"#utility.yul\":11937:11998   */\n      mstore\n        /* \"#utility.yul\":12050:12084   */\n      0x747b636f6c6f723a2331323132313221696d706f7274616e747d2e706f73742d\n        /* \"#utility.yul\":12043:12047   */\n      0x08a0\n        /* \"#utility.yul\":12035:12041   */\n      dup3\n        /* \"#utility.yul\":12031:12048   */\n      add\n        /* \"#utility.yul\":12024:12085   */\n      mstore\n        /* \"#utility.yul\":12137:12171   */\n      0x777261707065727b646973706c61793a6e6f6e657d2e736d616c6c2d74657874\n        /* \"#utility.yul\":12130:12134   */\n      0x08c0\n        /* \"#utility.yul\":12122:12128   */\n      dup3\n        /* \"#utility.yul\":12118:12135   */\n      add\n        /* \"#utility.yul\":12111:12172   */\n      mstore\n        /* \"#utility.yul\":12224:12258   */\n      0x7b666f6e742d73697a653a3870743b636f6c6f723a233535357d2e6375727265\n        /* \"#utility.yul\":12217:12221   */\n      0x08e0\n        /* \"#utility.yul\":12209:12215   */\n      dup3\n        /* \"#utility.yul\":12205:12222   */\n      add\n        /* \"#utility.yul\":12198:12259   */\n      mstore\n        /* \"#utility.yul\":12311:12345   */\n      0x6e742d74696d657b666f6e742d73697a653a3870743b636f6c6f723a23373737\n        /* \"#utility.yul\":12304:12308   */\n      0x0900\n        /* \"#utility.yul\":12296:12302   */\n      dup3\n        /* \"#utility.yul\":12292:12309   */\n      add\n        /* \"#utility.yul\":12285:12346   */\n      mstore\n        /* \"#utility.yul\":12402:12436   */\n      0x3b766572746963616c2d616c69676e3a73757065723b6d617267696e2d726967\n        /* \"#utility.yul\":12395:12399   */\n      0x0920\n        /* \"#utility.yul\":12387:12393   */\n      dup3\n        /* \"#utility.yul\":12383:12400   */\n      add\n        /* \"#utility.yul\":12376:12437   */\n      mstore\n        /* \"#utility.yul\":12493:12527   */\n      0x68743a3270787d237461626c652d626f64797b7461626c652d6c61796f75743a\n        /* \"#utility.yul\":12486:12490   */\n      0x0940\n        /* \"#utility.yul\":12478:12484   */\n      dup3\n        /* \"#utility.yul\":12474:12491   */\n      add\n        /* \"#utility.yul\":12467:12528   */\n      mstore\n        /* \"#utility.yul\":12584:12618   */\n      0x66697865647d2e74696d652d777261707065727b646973706c61793a696e6c69\n        /* \"#utility.yul\":12577:12581   */\n      0x0960\n        /* \"#utility.yul\":12569:12575   */\n      dup3\n        /* \"#utility.yul\":12565:12582   */\n      add\n        /* \"#utility.yul\":12558:12619   */\n      mstore\n        /* \"#utility.yul\":12675:12709   */\n      0x6e657d2e6c6f6164696e672d63656c6c7b646973706c61793a666c65783b626f\n        /* \"#utility.yul\":12668:12672   */\n      0x0980\n        /* \"#utility.yul\":12660:12666   */\n      dup3\n        /* \"#utility.yul\":12656:12673   */\n      add\n        /* \"#utility.yul\":12649:12710   */\n      mstore\n        /* \"#utility.yul\":12762:12796   */\n      0x726465723a303b746578742d616c69676e3a72696768747d2e706f73742d696e\n        /* \"#utility.yul\":12755:12759   */\n      0x09a0\n        /* \"#utility.yul\":12747:12753   */\n      dup3\n        /* \"#utility.yul\":12743:12760   */\n      add\n        /* \"#utility.yul\":12736:12797   */\n      mstore\n        /* \"#utility.yul\":12849:12883   */\n      0x666f7b646973706c61793a666c65783b6a7573746966792d636f6e74656e743a\n        /* \"#utility.yul\":12842:12846   */\n      0x09c0\n        /* \"#utility.yul\":12834:12840   */\n      dup3\n        /* \"#utility.yul\":12830:12847   */\n      add\n        /* \"#utility.yul\":12823:12884   */\n      mstore\n        /* \"#utility.yul\":12940:12974   */\n      0x73706163652d6265747765656e3b616c69676e2d6974656d733a63656e746572\n        /* \"#utility.yul\":12933:12937   */\n      0x09e0\n        /* \"#utility.yul\":12925:12931   */\n      dup3\n        /* \"#utility.yul\":12921:12938   */\n      add\n        /* \"#utility.yul\":12914:12975   */\n      mstore\n        /* \"#utility.yul\":13031:13065   */\n      0x7d2e706f73742d696e666f207370616e7b666f6e742d73697a653a313070743b\n        /* \"#utility.yul\":13024:13028   */\n      0x0a00\n        /* \"#utility.yul\":13016:13022   */\n      dup3\n        /* \"#utility.yul\":13012:13029   */\n      add\n        /* \"#utility.yul\":13005:13066   */\n      mstore\n        /* \"#utility.yul\":13118:13152   */\n      0x636f6c6f723a233234336639383b666f6e742d7765696768743a3730307d2e70\n        /* \"#utility.yul\":13111:13115   */\n      0x0a20\n        /* \"#utility.yul\":13103:13109   */\n      dup3\n        /* \"#utility.yul\":13099:13116   */\n      add\n        /* \"#utility.yul\":13092:13153   */\n      mstore\n        /* \"#utility.yul\":13205:13239   */\n      0x6f73742d6d6573736167657b666f6e742d73697a653a313070743b6c696e652d\n        /* \"#utility.yul\":13198:13202   */\n      0x0a40\n        /* \"#utility.yul\":13190:13196   */\n      dup3\n        /* \"#utility.yul\":13186:13203   */\n      add\n        /* \"#utility.yul\":13179:13240   */\n      mstore\n        /* \"#utility.yul\":13296:13330   */\n      0x6865696768743a312e357d2e666f6f7465727b6d617267696e2d746f703a3230\n        /* \"#utility.yul\":13289:13293   */\n      0x0a60\n        /* \"#utility.yul\":13281:13287   */\n      dup3\n        /* \"#utility.yul\":13277:13294   */\n      add\n        /* \"#utility.yul\":13270:13331   */\n      mstore\n        /* \"#utility.yul\":13387:13421   */\n      0x70783b746578742d616c69676e3a63656e7465723b666f6e742d73697a653a39\n        /* \"#utility.yul\":13380:13384   */\n      0x0a80\n        /* \"#utility.yul\":13372:13378   */\n      dup3\n        /* \"#utility.yul\":13368:13385   */\n      add\n        /* \"#utility.yul\":13361:13422   */\n      mstore\n        /* \"#utility.yul\":13474:13508   */\n      0x70743b636f6c6f723a233737377d3c2f7374796c653e3c626f647920636c6173\n        /* \"#utility.yul\":13467:13471   */\n      0x0aa0\n        /* \"#utility.yul\":13459:13465   */\n      dup3\n        /* \"#utility.yul\":13455:13472   */\n      add\n        /* \"#utility.yul\":13448:13509   */\n      mstore\n        /* \"#utility.yul\":13561:13595   */\n      0x733d276c696768742d746578742d32206c696768742d6267273e3c6469762063\n        /* \"#utility.yul\":13554:13558   */\n      0x0ac0\n        /* \"#utility.yul\":13546:13552   */\n      dup3\n        /* \"#utility.yul\":13542:13559   */\n      add\n        /* \"#utility.yul\":13535:13596   */\n      mstore\n        /* \"#utility.yul\":13648:13682   */\n      0x6c6173733d27666164652d696e20706f73742d777261707065722769643d706f\n        /* \"#utility.yul\":13641:13645   */\n      0x0ae0\n        /* \"#utility.yul\":13633:13639   */\n      dup3\n        /* \"#utility.yul\":13629:13646   */\n      add\n        /* \"#utility.yul\":13622:13683   */\n      mstore\n        /* \"#utility.yul\":13735:13769   */\n      0x73742d777261707065723e3c64697620636c6173733d276c696768742d746578\n        /* \"#utility.yul\":13728:13732   */\n      0x0b00\n        /* \"#utility.yul\":13720:13726   */\n      dup3\n        /* \"#utility.yul\":13716:13733   */\n      add\n        /* \"#utility.yul\":13709:13770   */\n      mstore\n        /* \"#utility.yul\":13822:13856   */\n      0x742d3220616e64726577732d636f6e7461696e6572273e3c64697620636c6173\n        /* \"#utility.yul\":13815:13819   */\n      0x0b20\n        /* \"#utility.yul\":13807:13813   */\n      dup3\n        /* \"#utility.yul\":13803:13820   */\n      add\n        /* \"#utility.yul\":13796:13857   */\n      mstore\n        /* \"#utility.yul\":13909:13943   */\n      0x733d276c696768742d74657874206865616465722d7469746c65273e466f7275\n        /* \"#utility.yul\":13902:13906   */\n      0x0b40\n        /* \"#utility.yul\":13894:13900   */\n      dup3\n        /* \"#utility.yul\":13890:13907   */\n      add\n        /* \"#utility.yul\":13883:13944   */\n      mstore\n        /* \"#utility.yul\":13996:14030   */\n      0x6d733c2f6469763e3c64697620636c6173733d62726561646372756d62733e50\n        /* \"#utility.yul\":13989:13993   */\n      0x0b60\n        /* \"#utility.yul\":13981:13987   */\n      dup3\n        /* \"#utility.yul\":13977:13994   */\n      add\n        /* \"#utility.yul\":13970:14031   */\n      mstore\n        /* \"#utility.yul\":14083:14117   */\n      0x726f7a616320596f757468203e20466f72756d73203e20544a4f203e20446561\n        /* \"#utility.yul\":14076:14080   */\n      0x0b80\n        /* \"#utility.yul\":14068:14074   */\n      dup3\n        /* \"#utility.yul\":14064:14081   */\n      add\n        /* \"#utility.yul\":14057:14118   */\n      mstore\n        /* \"#utility.yul\":14170:14204   */\n      0x722048756d616e3c2f6469763e3c64697620636c6173733d27666f72756d2d72\n        /* \"#utility.yul\":14163:14167   */\n      0x0ba0\n        /* \"#utility.yul\":14155:14161   */\n      dup3\n        /* \"#utility.yul\":14151:14168   */\n      add\n        /* \"#utility.yul\":14144:14205   */\n      mstore\n        /* \"#utility.yul\":14257:14291   */\n      0x756c6573206c696768742d62672d32206c696768742d626f726465722d32206c\n        /* \"#utility.yul\":14250:14254   */\n      0x0bc0\n        /* \"#utility.yul\":14242:14248   */\n      dup3\n        /* \"#utility.yul\":14238:14255   */\n      add\n        /* \"#utility.yul\":14231:14292   */\n      mstore\n        /* \"#utility.yul\":14344:14378   */\n      0x696768742d746578742d34273e546865206f6e6c792072756c65732077652072\n        /* \"#utility.yul\":14337:14341   */\n      0x0be0\n        /* \"#utility.yul\":14329:14335   */\n      dup3\n        /* \"#utility.yul\":14325:14342   */\n      add\n        /* \"#utility.yul\":14318:14379   */\n      mstore\n        /* \"#utility.yul\":14431:14465   */\n      0x65717565737420796f7520746f20666f6c6c6f772c2061726520746f206b6565\n        /* \"#utility.yul\":14424:14428   */\n      0x0c00\n        /* \"#utility.yul\":14416:14422   */\n      dup3\n        /* \"#utility.yul\":14412:14429   */\n      add\n        /* \"#utility.yul\":14405:14466   */\n      mstore\n        /* \"#utility.yul\":14518:14552   */\n      0x70207468696e677320706f6c6974652c20616e6420746f20706c656173652070\n        /* \"#utility.yul\":14511:14515   */\n      0x0c20\n        /* \"#utility.yul\":14503:14509   */\n      dup3\n        /* \"#utility.yul\":14499:14516   */\n      add\n        /* \"#utility.yul\":14492:14553   */\n      mstore\n        /* \"#utility.yul\":14605:14639   */\n      0x757420796f7572206d6573736167657320696e2074686520617070726f707269\n        /* \"#utility.yul\":14598:14602   */\n      0x0c40\n        /* \"#utility.yul\":14590:14596   */\n      dup3\n        /* \"#utility.yul\":14586:14603   */\n      add\n        /* \"#utility.yul\":14579:14640   */\n      mstore\n        /* \"#utility.yul\":14692:14726   */\n      0x6174652073656374696f6e732e3c2f6469763e3c64697620636c6173733d706f\n        /* \"#utility.yul\":14685:14689   */\n      0x0c60\n        /* \"#utility.yul\":14677:14683   */\n      dup3\n        /* \"#utility.yul\":14673:14690   */\n      add\n        /* \"#utility.yul\":14666:14727   */\n      mstore\n        /* \"#utility.yul\":14779:14813   */\n      0x73742d696e666f3e3c7370616e20636c6173733d6c696768742d746578742d32\n        /* \"#utility.yul\":14772:14776   */\n      0x0c80\n        /* \"#utility.yul\":14764:14770   */\n      dup3\n        /* \"#utility.yul\":14760:14777   */\n      add\n        /* \"#utility.yul\":14753:14814   */\n      mstore\n        /* \"#utility.yul\":14866:14900   */\n      0x3e546f74616c20506f7374733a203c622069643d746f74616c2d706f7374733e\n        /* \"#utility.yul\":14859:14863   */\n      0x0ca0\n        /* \"#utility.yul\":14851:14857   */\n      dup3\n        /* \"#utility.yul\":14847:14864   */\n      add\n        /* \"#utility.yul\":14840:14901   */\n      mstore\n        /* \"#utility.yul\":14953:14987   */\n      0x393939393939393c2f623e3c2f7370616e3e3c64697620636c6173733d74696d\n        /* \"#utility.yul\":14946:14950   */\n      0x0cc0\n        /* \"#utility.yul\":14938:14944   */\n      dup3\n        /* \"#utility.yul\":14934:14951   */\n      add\n        /* \"#utility.yul\":14927:14988   */\n      mstore\n        /* \"#utility.yul\":15040:15074   */\n      0x652d777261707065723e3c7370616e20636c6173733d276c696768742d746578\n        /* \"#utility.yul\":15033:15037   */\n      0x0ce0\n        /* \"#utility.yul\":15025:15031   */\n      dup3\n        /* \"#utility.yul\":15021:15038   */\n      add\n        /* \"#utility.yul\":15014:15075   */\n      mstore\n        /* \"#utility.yul\":15127:15161   */\n      0x742d322063757272656e742d74696d65273e4170722032372032303234203134\n        /* \"#utility.yul\":15120:15124   */\n      0x0d00\n        /* \"#utility.yul\":15112:15118   */\n      dup3\n        /* \"#utility.yul\":15108:15125   */\n      add\n        /* \"#utility.yul\":15101:15162   */\n      mstore\n        /* \"#utility.yul\":15214:15248   */\n      0x3a32323a34303c2f7370616e3e3c2f6469763e3c2f6469763e3c7461626c6520\n        /* \"#utility.yul\":15207:15211   */\n      0x0d20\n        /* \"#utility.yul\":15199:15205   */\n      dup3\n        /* \"#utility.yul\":15195:15212   */\n      add\n        /* \"#utility.yul\":15188:15249   */\n      mstore\n        /* \"#utility.yul\":15301:15335   */\n      0x636c6173733d7461626c65207374796c653d7461626c652d6c61796f75743a66\n        /* \"#utility.yul\":15294:15298   */\n      0x0d40\n        /* \"#utility.yul\":15286:15292   */\n      dup3\n        /* \"#utility.yul\":15282:15299   */\n      add\n        /* \"#utility.yul\":15275:15336   */\n      mstore\n        /* \"#utility.yul\":15388:15422   */\n      0x697865643e3c74686561643e3c747220636c6173733d276c696768742d626f72\n        /* \"#utility.yul\":15381:15385   */\n      0x0d60\n        /* \"#utility.yul\":15373:15379   */\n      dup3\n        /* \"#utility.yul\":15369:15386   */\n      add\n        /* \"#utility.yul\":15362:15423   */\n      mstore\n        /* \"#utility.yul\":15475:15509   */\n      0x646572206c696768742d74657874207461626c652d686561646572273e3c7468\n        /* \"#utility.yul\":15468:15472   */\n      0x0d80\n        /* \"#utility.yul\":15460:15466   */\n      dup3\n        /* \"#utility.yul\":15456:15473   */\n      add\n        /* \"#utility.yul\":15449:15510   */\n      mstore\n        /* \"#utility.yul\":15562:15596   */\n      0x3e417574686f723c74683e5468726561643c74626f64792069643d7461626c65\n        /* \"#utility.yul\":15555:15559   */\n      0x0da0\n        /* \"#utility.yul\":15547:15553   */\n      dup3\n        /* \"#utility.yul\":15543:15560   */\n      add\n        /* \"#utility.yul\":15536:15597   */\n      mstore\n        /* \"#utility.yul\":15649:15683   */\n      0x2d626f64793e3c2f7461626c653e3c7370616e2069643d6d6f64652d73776974\n        /* \"#utility.yul\":15642:15646   */\n      0x0dc0\n        /* \"#utility.yul\":15634:15640   */\n      dup3\n        /* \"#utility.yul\":15630:15647   */\n      add\n        /* \"#utility.yul\":15623:15684   */\n      mstore\n        /* \"#utility.yul\":15736:15770   */\n      0x6368206f6e636c69636b3d746f67676c654d6f646528293e3c7376672066696c\n        /* \"#utility.yul\":15729:15733   */\n      0x0de0\n        /* \"#utility.yul\":15721:15727   */\n      dup3\n        /* \"#utility.yul\":15717:15734   */\n      add\n        /* \"#utility.yul\":15710:15771   */\n      mstore\n        /* \"#utility.yul\":15823:15857   */\n      0x6c3d23303030303030206865696768743d323070782069643d436170615f3120\n        /* \"#utility.yul\":15816:15820   */\n      0x0e00\n        /* \"#utility.yul\":15808:15814   */\n      dup3\n        /* \"#utility.yul\":15804:15821   */\n      add\n        /* \"#utility.yul\":15797:15858   */\n      mstore\n        /* \"#utility.yul\":15910:15944   */\n      0x76657273696f6e3d312e312076696577426f783d27302030203230372e363238\n        /* \"#utility.yul\":15903:15907   */\n      0x0e20\n        /* \"#utility.yul\":15895:15901   */\n      dup3\n        /* \"#utility.yul\":15891:15908   */\n      add\n        /* \"#utility.yul\":15884:15945   */\n      mstore\n        /* \"#utility.yul\":15997:16031   */\n      0x203230372e3632382777696474683d3230707820786d6c3a73706163653d7072\n        /* \"#utility.yul\":15990:15994   */\n      0x0e40\n        /* \"#utility.yul\":15982:15988   */\n      dup3\n        /* \"#utility.yul\":15978:15995   */\n      add\n        /* \"#utility.yul\":15971:16032   */\n      mstore\n        /* \"#utility.yul\":16084:16118   */\n      0x65736572766520786d6c6e733d687474703a2f2f7777772e77332e6f72672f32\n        /* \"#utility.yul\":16077:16081   */\n      0x0e60\n        /* \"#utility.yul\":16069:16075   */\n      dup3\n        /* \"#utility.yul\":16065:16082   */\n      add\n        /* \"#utility.yul\":16058:16119   */\n      mstore\n        /* \"#utility.yul\":16175:16209   */\n      0x3030302f73766720786d6c6e733a786c696e6b3d687474703a2f2f7777772e77\n        /* \"#utility.yul\":16168:16172   */\n      0x0e80\n        /* \"#utility.yul\":16160:16166   */\n      dup3\n        /* \"#utility.yul\":16156:16173   */\n      add\n        /* \"#utility.yul\":16149:16210   */\n      mstore\n        /* \"#utility.yul\":16270:16304   */\n      0x332e6f72672f313939392f786c696e6b3e3c636972636c652063783d3130332e\n        /* \"#utility.yul\":16263:16267   */\n      0x0ea0\n        /* \"#utility.yul\":16255:16261   */\n      dup3\n        /* \"#utility.yul\":16251:16268   */\n      add\n        /* \"#utility.yul\":16244:16305   */\n      mstore\n        /* \"#utility.yul\":16365:16399   */\n      0x3831342063793d3130332e38313420723d34352e383638202f3e3c7061746820\n        /* \"#utility.yul\":16358:16362   */\n      0x0ec0\n        /* \"#utility.yul\":16350:16356   */\n      dup3\n        /* \"#utility.yul\":16346:16363   */\n      add\n        /* \"#utility.yul\":16339:16400   */\n      mstore\n        /* \"#utility.yul\":16460:16494   */\n      0x643d274d3130332e3831342c3135372e313833632d32392e3432372c302d3533\n        /* \"#utility.yul\":16453:16457   */\n      0x0ee0\n        /* \"#utility.yul\":16445:16451   */\n      dup3\n        /* \"#utility.yul\":16441:16458   */\n      add\n        /* \"#utility.yul\":16434:16495   */\n      mstore\n        /* \"#utility.yul\":16555:16589   */\n      0x2e3336382d32332e3934312d35332e3336382d35332e3336387332332e393431\n        /* \"#utility.yul\":16548:16552   */\n      0x0f00\n        /* \"#utility.yul\":16540:16546   */\n      dup3\n        /* \"#utility.yul\":16536:16553   */\n      add\n        /* \"#utility.yul\":16529:16590   */\n      mstore\n        /* \"#utility.yul\":16650:16684   */\n      0x2d35332e3336382c35332e3336382d35332e3336387335332e3336382c32332e\n        /* \"#utility.yul\":16643:16647   */\n      0x0f20\n        /* \"#utility.yul\":16635:16641   */\n      dup3\n        /* \"#utility.yul\":16631:16648   */\n      add\n        /* \"#utility.yul\":16624:16685   */\n      mstore\n        /* \"#utility.yul\":16745:16779   */\n      0x3934312c35332e3336382c35332e3336382020533133332e3234312c3135372e\n        /* \"#utility.yul\":16738:16742   */\n      0x0f40\n        /* \"#utility.yul\":16730:16736   */\n      dup3\n        /* \"#utility.yul\":16726:16743   */\n      add\n        /* \"#utility.yul\":16719:16780   */\n      mstore\n        /* \"#utility.yul\":16840:16874   */\n      0x3138332c3130332e3831342c3135372e3138337a204d3130332e3831342c3635\n        /* \"#utility.yul\":16833:16837   */\n      0x0f60\n        /* \"#utility.yul\":16825:16831   */\n      dup3\n        /* \"#utility.yul\":16821:16838   */\n      add\n        /* \"#utility.yul\":16814:16875   */\n      mstore\n        /* \"#utility.yul\":16935:16969   */\n      0x2e343436632d32312e3135362c302d33382e3336382c31372e3231322d33382e\n        /* \"#utility.yul\":16928:16932   */\n      0x0f80\n        /* \"#utility.yul\":16920:16926   */\n      dup3\n        /* \"#utility.yul\":16916:16933   */\n      add\n        /* \"#utility.yul\":16909:16970   */\n      mstore\n        /* \"#utility.yul\":17030:17064   */\n      0x3336382c33382e3336387331372e3231322c33382e3336382c33382e3336382c\n        /* \"#utility.yul\":17023:17027   */\n      0x0fa0\n        /* \"#utility.yul\":17015:17021   */\n      dup3\n        /* \"#utility.yul\":17011:17028   */\n      add\n        /* \"#utility.yul\":17004:17065   */\n      mstore\n        /* \"#utility.yul\":17125:17159   */\n      0x33382e33363820207333382e3336382d31372e3231322c33382e3336382d3338\n        /* \"#utility.yul\":17118:17122   */\n      0x0fc0\n        /* \"#utility.yul\":17110:17116   */\n      dup3\n        /* \"#utility.yul\":17106:17123   */\n      add\n        /* \"#utility.yul\":17099:17160   */\n      mstore\n        /* \"#utility.yul\":17220:17254   */\n      0x2e333638533132342e39372c36352e3434362c3130332e3831342c36352e3434\n        /* \"#utility.yul\":17213:17217   */\n      0x0fe0\n        /* \"#utility.yul\":17205:17211   */\n      dup3\n        /* \"#utility.yul\":17201:17218   */\n      add\n        /* \"#utility.yul\":17194:17255   */\n      mstore\n        /* \"#utility.yul\":17315:17349   */\n      0x367a272f3e3c7061746820643d274d3130332e3831342c33392e333835632d34\n        /* \"#utility.yul\":17308:17312   */\n      0x1000\n        /* \"#utility.yul\":17300:17306   */\n      dup3\n        /* \"#utility.yul\":17296:17313   */\n      add\n        /* \"#utility.yul\":17289:17350   */\n      mstore\n        /* \"#utility.yul\":17410:17444   */\n      0x2e3134322c302d372e352d332e3335382d372e352d372e3556372e3563302d34\n        /* \"#utility.yul\":17403:17407   */\n      0x1020\n        /* \"#utility.yul\":17395:17401   */\n      dup3\n        /* \"#utility.yul\":17391:17408   */\n      add\n        /* \"#utility.yul\":17384:17445   */\n      mstore\n        /* \"#utility.yul\":17505:17539   */\n      0x2e3134322c332e3335382d372e352c372e352d372e3573372e352c332e333538\n        /* \"#utility.yul\":17498:17502   */\n      0x1040\n        /* \"#utility.yul\":17490:17496   */\n      dup3\n        /* \"#utility.yul\":17486:17503   */\n      add\n        /* \"#utility.yul\":17479:17540   */\n      mstore\n        /* \"#utility.yul\":17600:17634   */\n      0x2c372e352c372e357632342e3338352020433131312e3331342c33362e303237\n        /* \"#utility.yul\":17593:17597   */\n      0x1060\n        /* \"#utility.yul\":17585:17591   */\n      dup3\n        /* \"#utility.yul\":17581:17598   */\n      add\n        /* \"#utility.yul\":17574:17635   */\n      mstore\n        /* \"#utility.yul\":17695:17729   */\n      0x2c3130372e3935362c33392e3338352c3130332e3831342c33392e3338357a27\n        /* \"#utility.yul\":17688:17692   */\n      0x1080\n        /* \"#utility.yul\":17680:17686   */\n      dup3\n        /* \"#utility.yul\":17676:17693   */\n      add\n        /* \"#utility.yul\":17669:17730   */\n      mstore\n        /* \"#utility.yul\":17790:17824   */\n      0x2f3e3c7061746820643d274d3130332e3831342c3230372e363238632d342e31\n        /* \"#utility.yul\":17783:17787   */\n      0x10a0\n        /* \"#utility.yul\":17775:17781   */\n      dup3\n        /* \"#utility.yul\":17771:17788   */\n      add\n        /* \"#utility.yul\":17764:17825   */\n      mstore\n        /* \"#utility.yul\":17885:17919   */\n      0x34322c302d372e352d332e3335382d372e352d372e35762d32342e3338356330\n        /* \"#utility.yul\":17878:17882   */\n      0x10c0\n        /* \"#utility.yul\":17870:17876   */\n      dup3\n        /* \"#utility.yul\":17866:17883   */\n      add\n        /* \"#utility.yul\":17859:17920   */\n      mstore\n        /* \"#utility.yul\":17980:18014   */\n      0x2d342e3134322c332e3335382d372e352c372e352d372e3573372e352c332e33\n        /* \"#utility.yul\":17973:17977   */\n      0x10e0\n        /* \"#utility.yul\":17965:17971   */\n      dup3\n        /* \"#utility.yul\":17961:17978   */\n      add\n        /* \"#utility.yul\":17954:18015   */\n      mstore\n        /* \"#utility.yul\":18075:18109   */\n      0x35382c372e352c372e357632342e3338352020433131312e3331342c3230342e\n        /* \"#utility.yul\":18068:18072   */\n      0x1100\n        /* \"#utility.yul\":18060:18066   */\n      dup3\n        /* \"#utility.yul\":18056:18073   */\n      add\n        /* \"#utility.yul\":18049:18110   */\n      mstore\n        /* \"#utility.yul\":18170:18204   */\n      0x3237312c3130372e3935362c3230372e3632382c3130332e3831342c3230372e\n        /* \"#utility.yul\":18163:18167   */\n      0x1120\n        /* \"#utility.yul\":18155:18161   */\n      dup3\n        /* \"#utility.yul\":18151:18168   */\n      add\n        /* \"#utility.yul\":18144:18205   */\n      mstore\n        /* \"#utility.yul\":18265:18299   */\n      0x3632387a272f3e3c7061746820643d274d3230302e3132382c3131312e333134\n        /* \"#utility.yul\":18258:18262   */\n      0x1140\n        /* \"#utility.yul\":18250:18256   */\n      dup3\n        /* \"#utility.yul\":18246:18263   */\n      add\n        /* \"#utility.yul\":18239:18300   */\n      mstore\n        /* \"#utility.yul\":18360:18394   */\n      0x682d32342e333835632d342e3134322c302d372e352d332e3335382d372e352d\n        /* \"#utility.yul\":18353:18357   */\n      0x1160\n        /* \"#utility.yul\":18345:18351   */\n      dup3\n        /* \"#utility.yul\":18341:18358   */\n      add\n        /* \"#utility.yul\":18334:18395   */\n      mstore\n        /* \"#utility.yul\":18455:18489   */\n      0x372e3573332e3335382d372e352c372e352d372e356832342e33383563342e31\n        /* \"#utility.yul\":18448:18452   */\n      0x1180\n        /* \"#utility.yul\":18440:18446   */\n      dup3\n        /* \"#utility.yul\":18436:18453   */\n      add\n        /* \"#utility.yul\":18429:18490   */\n      mstore\n        /* \"#utility.yul\":18550:18584   */\n      0x34322c302c372e352c332e3335382c372e352c372e352020533230342e323731\n        /* \"#utility.yul\":18543:18547   */\n      0x11a0\n        /* \"#utility.yul\":18535:18541   */\n      dup3\n        /* \"#utility.yul\":18531:18548   */\n      add\n        /* \"#utility.yul\":18524:18585   */\n      mstore\n        /* \"#utility.yul\":18645:18679   */\n      0x2c3131312e3331342c3230302e3132382c3131312e3331347a272f3e3c706174\n        /* \"#utility.yul\":18638:18642   */\n      0x11c0\n        /* \"#utility.yul\":18630:18636   */\n      dup3\n        /* \"#utility.yul\":18626:18643   */\n      add\n        /* \"#utility.yul\":18619:18680   */\n      mstore\n        /* \"#utility.yul\":18740:18774   */\n      0x6820643d274d33312e3838352c3131312e33313448372e35632d342e3134322c\n        /* \"#utility.yul\":18733:18737   */\n      0x11e0\n        /* \"#utility.yul\":18725:18731   */\n      dup3\n        /* \"#utility.yul\":18721:18738   */\n      add\n        /* \"#utility.yul\":18714:18775   */\n      mstore\n        /* \"#utility.yul\":18835:18869   */\n      0x302d372e352d332e3335382d372e352d372e3573332e3335382d372e352c372e\n        /* \"#utility.yul\":18828:18832   */\n      0x1200\n        /* \"#utility.yul\":18820:18826   */\n      dup3\n        /* \"#utility.yul\":18816:18833   */\n      add\n        /* \"#utility.yul\":18809:18870   */\n      mstore\n        /* \"#utility.yul\":18930:18964   */\n      0x352d372e356832342e33383563342e3134322c302c372e352c332e3335382c37\n        /* \"#utility.yul\":18923:18927   */\n      0x1220\n        /* \"#utility.yul\":18915:18921   */\n      dup3\n        /* \"#utility.yul\":18911:18928   */\n      add\n        /* \"#utility.yul\":18904:18965   */\n      mstore\n        /* \"#utility.yul\":19025:19059   */\n      0x2e352c372e3520205333362e3032372c3131312e3331342c33312e3838352c31\n        /* \"#utility.yul\":19018:19022   */\n      0x1240\n        /* \"#utility.yul\":19010:19016   */\n      dup3\n        /* \"#utility.yul\":19006:19023   */\n      add\n        /* \"#utility.yul\":18999:19060   */\n      mstore\n        /* \"#utility.yul\":19120:19154   */\n      0x31312e3331347a272f3e3c7061746820643d274d3135342e3637362c36302e34\n        /* \"#utility.yul\":19113:19117   */\n      0x1260\n        /* \"#utility.yul\":19105:19111   */\n      dup3\n        /* \"#utility.yul\":19101:19118   */\n      add\n        /* \"#utility.yul\":19094:19155   */\n      mstore\n        /* \"#utility.yul\":19215:19249   */\n      0x3532632d312e3931392c302d332e3833392d302e3733322d352e3330332d322e\n        /* \"#utility.yul\":19208:19212   */\n      0x1280\n        /* \"#utility.yul\":19200:19206   */\n      dup3\n        /* \"#utility.yul\":19196:19213   */\n      add\n        /* \"#utility.yul\":19189:19250   */\n      mstore\n        /* \"#utility.yul\":19310:19344   */\n      0x313937632d322e3932392d322e3932392d322e3932392d372e3637382c302d31\n        /* \"#utility.yul\":19303:19307   */\n      0x12a0\n        /* \"#utility.yul\":19295:19301   */\n      dup3\n        /* \"#utility.yul\":19291:19308   */\n      add\n        /* \"#utility.yul\":19284:19345   */\n      mstore\n        /* \"#utility.yul\":19405:19439   */\n      0x302e3630366c31372e3234332d31372e323432202063322e3932392d322e3932\n        /* \"#utility.yul\":19398:19402   */\n      0x12c0\n        /* \"#utility.yul\":19390:19396   */\n      dup3\n        /* \"#utility.yul\":19386:19403   */\n      add\n        /* \"#utility.yul\":19379:19440   */\n      mstore\n        /* \"#utility.yul\":19500:19534   */\n      0x392c372e3637382d322e39332c31302e3630362c3063322e3932392c322e3932\n        /* \"#utility.yul\":19493:19497   */\n      0x12e0\n        /* \"#utility.yul\":19485:19491   */\n      dup3\n        /* \"#utility.yul\":19481:19498   */\n      add\n        /* \"#utility.yul\":19474:19535   */\n      mstore\n        /* \"#utility.yul\":19595:19629   */\n      0x392c322e3932392c372e3637382c302c31302e3630366c2d31372e3234332c31\n        /* \"#utility.yul\":19588:19592   */\n      0x1300\n        /* \"#utility.yul\":19580:19586   */\n      dup3\n        /* \"#utility.yul\":19576:19593   */\n      add\n        /* \"#utility.yul\":19569:19630   */\n      mstore\n        /* \"#utility.yul\":19690:19724   */\n      0x372e323432433135382e3531352c35392e37322c3135362e3539352c36302e34\n        /* \"#utility.yul\":19683:19687   */\n      0x1320\n        /* \"#utility.yul\":19675:19681   */\n      dup3\n        /* \"#utility.yul\":19671:19688   */\n      add\n        /* \"#utility.yul\":19664:19725   */\n      mstore\n        /* \"#utility.yul\":19785:19819   */\n      0x35322c3135342e3637362c36302e3435327a272f3e3c7061746820643d274d33\n        /* \"#utility.yul\":19778:19782   */\n      0x1340\n        /* \"#utility.yul\":19770:19776   */\n      dup3\n        /* \"#utility.yul\":19766:19783   */\n      add\n        /* \"#utility.yul\":19759:19820   */\n      mstore\n        /* \"#utility.yul\":19880:19914   */\n      0x352e3730392c3137392e343139632d312e3931392c302d332e3833392d302e37\n        /* \"#utility.yul\":19873:19877   */\n      0x1360\n        /* \"#utility.yul\":19865:19871   */\n      dup3\n        /* \"#utility.yul\":19861:19878   */\n      add\n        /* \"#utility.yul\":19854:19915   */\n      mstore\n        /* \"#utility.yul\":19975:20009   */\n      0x33322d352e3330332d322e313937632d322e3932392d322e3932392d322e3932\n        /* \"#utility.yul\":19968:19972   */\n      0x1380\n        /* \"#utility.yul\":19960:19966   */\n      dup3\n        /* \"#utility.yul\":19956:19973   */\n      add\n        /* \"#utility.yul\":19949:20010   */\n      mstore\n        /* \"#utility.yul\":20070:20104   */\n      0x392d372e3637382c302d31302e3630366c31372e3234332d31372e3234332020\n        /* \"#utility.yul\":20063:20067   */\n      0x13a0\n        /* \"#utility.yul\":20055:20061   */\n      dup3\n        /* \"#utility.yul\":20051:20068   */\n      add\n        /* \"#utility.yul\":20044:20105   */\n      mstore\n        /* \"#utility.yul\":20165:20199   */\n      0x63322e3932392d322e3932392c372e3637382d322e3932392c31302e3630362c\n        /* \"#utility.yul\":20158:20162   */\n      0x13c0\n        /* \"#utility.yul\":20150:20156   */\n      dup3\n        /* \"#utility.yul\":20146:20163   */\n      add\n        /* \"#utility.yul\":20139:20200   */\n      mstore\n        /* \"#utility.yul\":20260:20294   */\n      0x3063322e3932392c322e3932392c322e3932392c372e3637382c302c31302e36\n        /* \"#utility.yul\":20253:20257   */\n      0x13e0\n        /* \"#utility.yul\":20245:20251   */\n      dup3\n        /* \"#utility.yul\":20241:20258   */\n      add\n        /* \"#utility.yul\":20234:20295   */\n      mstore\n        /* \"#utility.yul\":20355:20389   */\n      0x30366c2d31372e3234332c31372e3234334333392e3534382c3137382e363837\n        /* \"#utility.yul\":20348:20352   */\n      0x1400\n        /* \"#utility.yul\":20340:20346   */\n      dup3\n        /* \"#utility.yul\":20336:20353   */\n      add\n        /* \"#utility.yul\":20329:20390   */\n      mstore\n        /* \"#utility.yul\":20450:20484   */\n      0x2c33372e3632392c3137392e3431392c33352e3730392c3137392e3431397a20\n        /* \"#utility.yul\":20443:20447   */\n      0x1420\n        /* \"#utility.yul\":20435:20441   */\n      dup3\n        /* \"#utility.yul\":20431:20448   */\n      add\n        /* \"#utility.yul\":20424:20485   */\n      mstore\n        /* \"#utility.yul\":20545:20579   */\n      0x20272f3e3c7061746820643d274d3137312e3931382c3137392e343139632d31\n        /* \"#utility.yul\":20538:20542   */\n      0x1440\n        /* \"#utility.yul\":20530:20536   */\n      dup3\n        /* \"#utility.yul\":20526:20543   */\n      add\n        /* \"#utility.yul\":20519:20580   */\n      mstore\n        /* \"#utility.yul\":20640:20674   */\n      0x2e3931392c302d332e3833392d302e3733322d352e3330332d322e3139376c2d\n        /* \"#utility.yul\":20633:20637   */\n      0x1460\n        /* \"#utility.yul\":20625:20631   */\n      dup3\n        /* \"#utility.yul\":20621:20638   */\n      add\n        /* \"#utility.yul\":20614:20675   */\n      mstore\n        /* \"#utility.yul\":20735:20769   */\n      0x31372e3234332d31372e323433632d322e3932392d322e3932392d322e393239\n        /* \"#utility.yul\":20728:20732   */\n      0x1480\n        /* \"#utility.yul\":20720:20726   */\n      dup3\n        /* \"#utility.yul\":20716:20733   */\n      add\n        /* \"#utility.yul\":20709:20770   */\n      mstore\n        /* \"#utility.yul\":20830:20864   */\n      0x2d372e3637382c302d31302e363036202063322e3932392d322e3932392c372e\n        /* \"#utility.yul\":20823:20827   */\n      0x14a0\n        /* \"#utility.yul\":20815:20821   */\n      dup3\n        /* \"#utility.yul\":20811:20828   */\n      add\n        /* \"#utility.yul\":20804:20865   */\n      mstore\n        /* \"#utility.yul\":20925:20959   */\n      0x3637382d322e3932392c31302e3630362c306c31372e3234332c31372e323433\n        /* \"#utility.yul\":20918:20922   */\n      0x14c0\n        /* \"#utility.yul\":20910:20916   */\n      dup3\n        /* \"#utility.yul\":20906:20923   */\n      add\n        /* \"#utility.yul\":20899:20960   */\n      mstore\n        /* \"#utility.yul\":21020:21054   */\n      0x63322e3932392c322e3932392c322e3932392c372e3637382c302c31302e3630\n        /* \"#utility.yul\":21013:21017   */\n      0x14e0\n        /* \"#utility.yul\":21005:21011   */\n      dup3\n        /* \"#utility.yul\":21001:21018   */\n      add\n        /* \"#utility.yul\":20994:21055   */\n      mstore\n        /* \"#utility.yul\":21115:21149   */\n      0x362020433137352e3735372c3137382e3638372c3137332e3833382c3137392e\n        /* \"#utility.yul\":21108:21112   */\n      0x1500\n        /* \"#utility.yul\":21100:21106   */\n      dup3\n        /* \"#utility.yul\":21096:21113   */\n      add\n        /* \"#utility.yul\":21089:21150   */\n      mstore\n        /* \"#utility.yul\":21210:21244   */\n      0x3431392c3137312e3931382c3137392e3431397a272f3e3c7061746820643d27\n        /* \"#utility.yul\":21203:21207   */\n      0x1520\n        /* \"#utility.yul\":21195:21201   */\n      dup3\n        /* \"#utility.yul\":21191:21208   */\n      add\n        /* \"#utility.yul\":21184:21245   */\n      mstore\n        /* \"#utility.yul\":21305:21339   */\n      0x4d35322e3935322c36302e343532632d312e3931392c302d332e3833392d302e\n        /* \"#utility.yul\":21298:21302   */\n      0x1540\n        /* \"#utility.yul\":21290:21296   */\n      dup3\n        /* \"#utility.yul\":21286:21303   */\n      add\n        /* \"#utility.yul\":21279:21340   */\n      mstore\n        /* \"#utility.yul\":21400:21434   */\n      0x3733322d352e3330332d322e3139374c33302e3430362c34312e303133632d32\n        /* \"#utility.yul\":21393:21397   */\n      0x1560\n        /* \"#utility.yul\":21385:21391   */\n      dup3\n        /* \"#utility.yul\":21381:21398   */\n      add\n        /* \"#utility.yul\":21374:21435   */\n      mstore\n        /* \"#utility.yul\":21495:21529   */\n      0x2e3932392d322e3932392d322e3932392d372e3637372c302d31302e36303620\n        /* \"#utility.yul\":21488:21492   */\n      0x1580\n        /* \"#utility.yul\":21480:21486   */\n      dup3\n        /* \"#utility.yul\":21476:21493   */\n      add\n        /* \"#utility.yul\":21469:21530   */\n      mstore\n        /* \"#utility.yul\":21590:21624   */\n      0x2063322e3932392d322e3932392c372e3637382d322e39332c31302e3630362c\n        /* \"#utility.yul\":21583:21587   */\n      0x15a0\n        /* \"#utility.yul\":21575:21581   */\n      dup3\n        /* \"#utility.yul\":21571:21588   */\n      add\n        /* \"#utility.yul\":21564:21625   */\n      mstore\n        /* \"#utility.yul\":21685:21719   */\n      0x306c31372e3234332c31372e32343263322e3932392c322e3932392c322e3932\n        /* \"#utility.yul\":21678:21682   */\n      0x15c0\n        /* \"#utility.yul\":21670:21676   */\n      dup3\n        /* \"#utility.yul\":21666:21683   */\n      add\n        /* \"#utility.yul\":21659:21720   */\n      mstore\n        /* \"#utility.yul\":21780:21814   */\n      0x392c372e3637372c302c31302e3630364335362e3739312c35392e37322c3534\n        /* \"#utility.yul\":21773:21777   */\n      0x15e0\n        /* \"#utility.yul\":21765:21771   */\n      dup3\n        /* \"#utility.yul\":21761:21778   */\n      add\n        /* \"#utility.yul\":21754:21815   */\n      mstore\n        /* \"#utility.yul\":21875:21909   */\n      0x2e3837322c36302e3435322c35322e3935322c36302e3435327a272f3e3c2f73\n        /* \"#utility.yul\":21868:21872   */\n      0x1600\n        /* \"#utility.yul\":21860:21866   */\n      dup3\n        /* \"#utility.yul\":21856:21873   */\n      add\n        /* \"#utility.yul\":21849:21910   */\n      mstore\n        /* \"#utility.yul\":21970:22004   */\n      0x76673e3c2f7370616e3e3c6469762069643d616e64726577207374796c653d6d\n        /* \"#utility.yul\":21963:21967   */\n      0x1620\n        /* \"#utility.yul\":21955:21961   */\n      dup3\n        /* \"#utility.yul\":21951:21968   */\n      add\n        /* \"#utility.yul\":21944:22005   */\n      mstore\n        /* \"#utility.yul\":22065:22099   */\n      0x617267696e2d746f703a313570783b746578742d616c69676e3a63656e746572\n        /* \"#utility.yul\":22058:22062   */\n      0x1640\n        /* \"#utility.yul\":22050:22056   */\n      dup3\n        /* \"#utility.yul\":22046:22063   */\n      add\n        /* \"#utility.yul\":22039:22100   */\n      mstore\n        /* \"#utility.yul\":22160:22194   */\n      0x3b77696474683a313030253e3c7370616e3e44657369676e6564206279203c61\n        /* \"#utility.yul\":22153:22157   */\n      0x1660\n        /* \"#utility.yul\":22145:22151   */\n      dup3\n        /* \"#utility.yul\":22141:22158   */\n      add\n        /* \"#utility.yul\":22134:22195   */\n      mstore\n        /* \"#utility.yul\":22255:22289   */\n      0x20636c6173733d6c696768742d6c696e6b20687265663d68747470733a2f2f61\n        /* \"#utility.yul\":22248:22252   */\n      0x1680\n        /* \"#utility.yul\":22240:22246   */\n      dup3\n        /* \"#utility.yul\":22236:22253   */\n      add\n        /* \"#utility.yul\":22229:22290   */\n      mstore\n        /* \"#utility.yul\":22354:22388   */\n      0x6e647265776d69746368656c6c2e78797a207461726765743d5f626c616e6b3e\n        /* \"#utility.yul\":22347:22351   */\n      0x16a0\n        /* \"#utility.yul\":22339:22345   */\n      dup3\n        /* \"#utility.yul\":22335:22352   */\n      add\n        /* \"#utility.yul\":22328:22389   */\n      mstore\n        /* \"#utility.yul\":22453:22487   */\n      0x416e64726577204d69746368656c6c3c2f613e3c2f7370616e3e3c2f6469763e\n        /* \"#utility.yul\":22446:22450   */\n      0x16c0\n        /* \"#utility.yul\":22438:22444   */\n      dup3\n        /* \"#utility.yul\":22434:22451   */\n      add\n        /* \"#utility.yul\":22427:22488   */\n      mstore\n        /* \"#utility.yul\":22552:22586   */\n      0x3c64697620636c6173733d666f6f7465723e26233136393b2050726f7a616320\n        /* \"#utility.yul\":22545:22549   */\n      0x16e0\n        /* \"#utility.yul\":22537:22543   */\n      dup3\n        /* \"#utility.yul\":22533:22550   */\n      add\n        /* \"#utility.yul\":22526:22587   */\n      mstore\n        /* \"#utility.yul\":22651:22685   */\n      0x596f7574682e20416c6c207269676874732072657365727665642e3c2f646976\n        /* \"#utility.yul\":22644:22648   */\n      0x1700\n        /* \"#utility.yul\":22636:22642   */\n      dup3\n        /* \"#utility.yul\":22632:22649   */\n      add\n        /* \"#utility.yul\":22625:22686   */\n      mstore\n        /* \"#utility.yul\":22750:22765   */\n      0x3e3c2f6469763e3c2f6469763e00000000000000000000000000000000000000\n        /* \"#utility.yul\":22743:22747   */\n      0x1720\n        /* \"#utility.yul\":22735:22741   */\n      dup3\n        /* \"#utility.yul\":22731:22748   */\n      add\n        /* \"#utility.yul\":22724:22766   */\n      mstore\n        /* \"#utility.yul\":5893:22801   */\n      pop\n      jump\t// out\n        /* \"#utility.yul\":22835:23353   */\n    tag_40:\n        /* \"#utility.yul\":22995:22998   */\n      0x00\n        /* \"#utility.yul\":23044:23131   */\n      tag_98\n        /* \"#utility.yul\":23126:23130   */\n      0x172d\n        /* \"#utility.yul\":23121:23124   */\n      dup4\n        /* \"#utility.yul\":23044:23131   */\n      tag_35\n      jump\t// in\n    tag_98:\n        /* \"#utility.yul\":23037:23131   */\n      swap2\n      pop\n        /* \"#utility.yul\":23168:23261   */\n      tag_99\n        /* \"#utility.yul\":23257:23260   */\n      dup3\n        /* \"#utility.yul\":23168:23261   */\n      tag_39\n      jump\t// in\n    tag_99:\n        /* \"#utility.yul\":23314:23318   */\n      0x172d\n        /* \"#utility.yul\":23309:23312   */\n      dup3\n        /* \"#utility.yul\":23305:23319   */\n      add\n        /* \"#utility.yul\":23298:23319   */\n      swap1\n      pop\n        /* \"#utility.yul\":22835:23353   */\n      swap2\n      swap1\n      pop\n      jump\t// out\n        /* \"#utility.yul\":23387:24334   */\n    tag_17:\n        /* \"#utility.yul\":23721:23724   */\n      0x00\n        /* \"#utility.yul\":23771:23919   */\n      tag_101\n        /* \"#utility.yul\":23915:23918   */\n      dup3\n        /* \"#utility.yul\":23771:23919   */\n      tag_37\n      jump\t// in\n    tag_101:\n        /* \"#utility.yul\":23764:23919   */\n      swap2\n      pop\n        /* \"#utility.yul\":23964:24059   */\n      tag_102\n        /* \"#utility.yul\":24055:24058   */\n      dup3\n        /* \"#utility.yul\":24046:24052   */\n      dup5\n        /* \"#utility.yul\":23964:24059   */\n      tag_38\n      jump\t// in\n    tag_102:\n        /* \"#utility.yul\":23957:24059   */\n      swap2\n      pop\n        /* \"#utility.yul\":24104:24252   */\n      tag_103\n        /* \"#utility.yul\":24248:24251   */\n      dup3\n        /* \"#utility.yul\":24104:24252   */\n      tag_40\n      jump\t// in\n    tag_103:\n        /* \"#utility.yul\":24097:24252   */\n      swap2\n      pop\n        /* \"#utility.yul\":24297:24300   */\n      dup2\n        /* \"#utility.yul\":24290:24300   */\n      swap1\n      pop\n        /* \"#utility.yul\":23387:24334   */\n      swap3\n      swap2\n      pop\n      pop\n      jump\t// out\n\n    auxdata: 0xa26469706673582212207e6e98963b2f831300da8579928013c5576d9745965255249e31e7864a9bf95f64736f6c634300081a0033\n}\n",
				"bytecode": {
					"linkReferences": {},
					"object": "6080604052348015600e575f80fd5b5061218d8061001c5f395ff3fe608060405234801561000f575f80fd5b5060043610610034575f3560e01c80637899ff8f14610038578063b682361314610056575b5f80fd5b610040610086565b60405161004d919061015c565b60405180910390f35b610070600480360381019061006b91906102b9565b6100c3565b60405161007d919061015c565b60405180910390f35b60606040518060400160405280601481526020017f3c626f64793e3c2f626f64793e3c2f68746d6c3e000000000000000000000000815250905090565b6060816040516020016100d6919061212b565b6040516020818303038152906040529050919050565b5f81519050919050565b5f82825260208201905092915050565b8281835e5f83830152505050565b5f601f19601f8301169050919050565b5f61012e826100ec565b61013881856100f6565b9350610148818560208601610106565b61015181610114565b840191505092915050565b5f6020820190508181035f8301526101748184610124565b905092915050565b5f604051905090565b5f80fd5b5f80fd5b5f80fd5b5f80fd5b7f4e487b71000000000000000000000000000000000000000000000000000000005f52604160045260245ffd5b6101cb82610114565b810181811067ffffffffffffffff821117156101ea576101e9610195565b5b80604052505050565b5f6101fc61017c565b905061020882826101c2565b919050565b5f67ffffffffffffffff82111561022757610226610195565b5b61023082610114565b9050602081019050919050565b828183375f83830152505050565b5f61025d6102588461020d565b6101f3565b90508281526020810184848401111561027957610278610191565b5b61028484828561023d565b509392505050565b5f82601f8301126102a05761029f61018d565b5b81356102b084826020860161024b565b91505092915050565b5f602082840312156102ce576102cd610185565b5b5f82013567ffffffffffffffff8111156102eb576102ea610189565b5b6102f78482850161028c565b91505092915050565b5f81905092915050565b7f3c21646f637479706568746d6c3e3c68746d6c206c616e673d656e3e3c6d65745f8201527f6120636f6e74656e743d27746578742f68746d6c3b20636861727365743d555460208201527f462d3827687474702d65717569763d436f6e74656e742d547970653e3c6d657460408201527f6120636f6e74656e743d2777696474683d6465766963652d77696474682c696e60608201527f697469616c2d7363616c653d31276e616d653d76696577706f72743e3c6d657460808201527f6120636f6e74656e743d2769653d6564676527687474702d65717569763d582d60a08201527f55412d436f6d70617469626c653e3c6d65746120646576656c6f7065723d274160c08201527f6e64726577204d69746368656c6c273e3c7469746c653e50726f7a616320596f60e08201527f7574683c2f7469746c653e3c6c696e6b20687265663d2700000000000000000061010082015250565b5f61047061011783610300565b915061047b8261030a565b61011782019050919050565b5f610491826100ec565b61049b8185610300565b93506104ab818560208601610106565b80840191505092915050565b7f272072656c3d69636f6e2073697a65733d313678313620747970653d696d61675f8201527f652f706e673e3c736372697074207372633d68747470733a2f2f63646e2e6a7360208201527f64656c6976722e6e65742f6e706d2f7765623340342e31302e302f646973742f60408201527f776562332e6d696e2e6a733e3c2f7363726970743e3c7363726970742073726360608201527f3d68747470733a2f2f636f64652e6a71756572792e636f6d2f6a71756572792d60808201527f332e362e302e6d696e2e6a733e3c2f7363726970743e3c6c696e6b206872656660a08201527f3d68747470733a2f2f737461636b706174682e626f6f74737472617063646e2e60c08201527f636f6d2f626f6f7473747261702f352e312e302f6373732f626f6f747374726160e08201527f702e6d696e2e6373732072656c3d7374796c6573686565743e3c6c696e6b20686101008201527f7265663d2768747470733a2f2f666f6e74732e676f6f676c65617069732e636f6101208201527f6d2f637373323f66616d696c793d526f626f746f3a77676874403330303b34306101408201527f303b37303026646973706c61793d737761702772656c3d7374796c65736865656101608201527f743e3c7374796c653e626f64797b666f6e742d66616d696c793a526f626f746f6101808201527f2c417269616c2c48656c7665746963612c73616e732d73657269663b666f6e746101a08201527f2d73697a653a313070743b6d617267696e3a303b70616464696e673a3570787d6101c08201527f2e616e64726577732d636f6e7461696e65727b6d617267696e3a6175746f3b776101e08201527f696474683a3630257d406d65646961206f6e6c792073637265656e20616e64206102008201527f286d61782d77696474683a3630307078297b2e616e64726577732d636f6e74616102208201527f696e65727b77696474683a313030257d7d2e7461626c657b6d617267696e3a326102408201527f307078206175746f3b77696474683a3630253b626f726465722d636f6c6c61706102608201527f73653a636f6c6c617073657d406d65646961206f6e6c792073637265656e20616102808201527f6e6420286d61782d77696474683a3630307078297b2e7461626c657b776964746102a08201527f683a313030257d7d2e666164652d696e7b6f7061636974793a313b616e696d616102c08201527f74696f6e2d6e616d653a66616465496e4f7061636974793b616e696d6174696f6102e08201527f6e2d697465726174696f6e2d636f756e743a313b616e696d6174696f6e2d74696103008201527f6d696e672d66756e6374696f6e3a656173652d696e3b616e696d6174696f6e2d6103208201527f6475726174696f6e3a32737d406b65796672616d65732066616465496e4f70616103408201527f636974797b30257b6f7061636974793a307d313030257b6f7061636974793a316103608201527f7d7d236c6f6164696e672d746578747b666f6e742d73697a653a313070743b746103808201527f6578742d616c69676e3a72696768747d236c6f6164696e677b77696474683a316103a08201527f3030257d2e6865616465722d7469746c657b666f6e742d73697a653a313670746103c08201527f3b666f6e742d7765696768743a3730303b746578742d616c69676e3a63656e746103e08201527f65723b6261636b67726f756e642d636f6c6f723a233234336639383b706164646104008201527f696e673a3130707820303b626f726465722d7261646975733a3570787d2e62726104208201527f6561646372756d62737b666f6e742d73697a653a3970743b636f6c6f723a23376104408201527f37373b6d617267696e2d626f74746f6d3a313070787d236d6f64652d737769746104608201527f63687b637572736f723a706f696e7465723b706f736974696f6e3a6162736f6c6104808201527f7574653b746f703a313070783b72696768743a313070787d2e666f72756d2d726104a08201527f756c65737b626f726465722d7261646975733a3570783b70616464696e673a316104c08201527f3070783b666f6e742d73697a653a3970743b6d617267696e2d626f74746f6d3a6104e08201527f323070787d2e7461626c652d6865616465722c2e7461626c652d726f777b70616105008201527f6464696e673a3870787d2e7461626c652d6865616465727b6261636b67726f756105208201527f6e642d636f6c6f723a233234336639383b666f6e742d7765696768743a3730306105408201527f7d2e7461626c653e2e6c696768742d62673a6e74682d6368696c64286576656e6105608201527f297b6261636b67726f756e642d636f6c6f723a2365306537666621696d706f726105808201527f74616e747d2e6c696768742d62677b6261636b67726f756e642d636f6c6f723a6105a08201527f2366376636663121696d706f7274616e747d2e6c696768742d626f726465727b6105c08201527f626f726465723a31707820736f6c6964202363636321696d706f7274616e747d6105e08201527f2e6c696768742d626f726465722d327b626f726465723a31707820736f6c69646106008201527f202363356432666621696d706f7274616e747d2e6c696768742d62672d327b626106208201527f61636b67726f756e642d636f6c6f723a2365306537666621696d706f7274616e6106408201527f747d2e6c696768742d746578747b636f6c6f723a2366376636663121696d706f6106608201527f7274616e747d2e6c696768742d746578742d327b636f6c6f723a2332343366396106808201527f3821696d706f7274616e747d2e6572726f722d746578747b636f6c6f723a23666106a08201527f30337d2e6461726b2d6c696e6b7b636f6c6f723a2333303535636321696d706f6106c08201527f7274616e747d2e6461726b2d746578742d327b636f6c6f723a233435363664336106e08201527f21696d706f7274616e747d2e6c696768742d746578742d337b636f6c6f723a236107008201527f31663166316621696d706f7274616e747d2e6461726b2d746578742d337b636f6107208201527f6c6f723a2332363433613221696d706f7274616e747d2e6c696768742d7465786107408201527f742d347b636f6c6f723a2331663166316621696d706f7274616e747d2e6461726107608201527f6b2d746578742d347b636f6c6f723a2363646364636421696d706f7274616e746107808201527f7d2e7461626c653e2e6461726b2d62673a6e74682d6368696c64286576656e296107a08201527f7b6261636b67726f756e642d636f6c6f723a2331663166316621696d706f72746107c08201527f616e747d2e6461726b2d62677b6261636b67726f756e642d636f6c6f723a23316107e08201527f323132313221696d706f7274616e747d2e6461726b2d626f726465727b626f726108008201527f6465723a31707820736f6c6964202335353521696d706f7274616e747d2e64616108208201527f726b2d626f726465722d327b626f726465723a31707820736f6c6964202333336108408201527f3321696d706f7274616e747d2e6461726b2d62672d327b6261636b67726f756e6108608201527f642d636f6c6f723a2334343421696d706f7274616e747d2e6461726b2d7465786108808201527f747b636f6c6f723a2331323132313221696d706f7274616e747d2e706f73742d6108a08201527f777261707065727b646973706c61793a6e6f6e657d2e736d616c6c2d746578746108c08201527f7b666f6e742d73697a653a3870743b636f6c6f723a233535357d2e63757272656108e08201527f6e742d74696d657b666f6e742d73697a653a3870743b636f6c6f723a233737376109008201527f3b766572746963616c2d616c69676e3a73757065723b6d617267696e2d7269676109208201527f68743a3270787d237461626c652d626f64797b7461626c652d6c61796f75743a6109408201527f66697865647d2e74696d652d777261707065727b646973706c61793a696e6c696109608201527f6e657d2e6c6f6164696e672d63656c6c7b646973706c61793a666c65783b626f6109808201527f726465723a303b746578742d616c69676e3a72696768747d2e706f73742d696e6109a08201527f666f7b646973706c61793a666c65783b6a7573746966792d636f6e74656e743a6109c08201527f73706163652d6265747765656e3b616c69676e2d6974656d733a63656e7465726109e08201527f7d2e706f73742d696e666f207370616e7b666f6e742d73697a653a313070743b610a008201527f636f6c6f723a233234336639383b666f6e742d7765696768743a3730307d2e70610a208201527f6f73742d6d6573736167657b666f6e742d73697a653a313070743b6c696e652d610a408201527f6865696768743a312e357d2e666f6f7465727b6d617267696e2d746f703a3230610a608201527f70783b746578742d616c69676e3a63656e7465723b666f6e742d73697a653a39610a808201527f70743b636f6c6f723a233737377d3c2f7374796c653e3c626f647920636c6173610aa08201527f733d276c696768742d746578742d32206c696768742d6267273e3c6469762063610ac08201527f6c6173733d27666164652d696e20706f73742d777261707065722769643d706f610ae08201527f73742d777261707065723e3c64697620636c6173733d276c696768742d746578610b008201527f742d3220616e64726577732d636f6e7461696e6572273e3c64697620636c6173610b208201527f733d276c696768742d74657874206865616465722d7469746c65273e466f7275610b408201527f6d733c2f6469763e3c64697620636c6173733d62726561646372756d62733e50610b608201527f726f7a616320596f757468203e20466f72756d73203e20544a4f203e20446561610b808201527f722048756d616e3c2f6469763e3c64697620636c6173733d27666f72756d2d72610ba08201527f756c6573206c696768742d62672d32206c696768742d626f726465722d32206c610bc08201527f696768742d746578742d34273e546865206f6e6c792072756c65732077652072610be08201527f65717565737420796f7520746f20666f6c6c6f772c2061726520746f206b6565610c008201527f70207468696e677320706f6c6974652c20616e6420746f20706c656173652070610c208201527f757420796f7572206d6573736167657320696e2074686520617070726f707269610c408201527f6174652073656374696f6e732e3c2f6469763e3c64697620636c6173733d706f610c608201527f73742d696e666f3e3c7370616e20636c6173733d6c696768742d746578742d32610c808201527f3e546f74616c20506f7374733a203c622069643d746f74616c2d706f7374733e610ca08201527f393939393939393c2f623e3c2f7370616e3e3c64697620636c6173733d74696d610cc08201527f652d777261707065723e3c7370616e20636c6173733d276c696768742d746578610ce08201527f742d322063757272656e742d74696d65273e4170722032372032303234203134610d008201527f3a32323a34303c2f7370616e3e3c2f6469763e3c2f6469763e3c7461626c6520610d208201527f636c6173733d7461626c65207374796c653d7461626c652d6c61796f75743a66610d408201527f697865643e3c74686561643e3c747220636c6173733d276c696768742d626f72610d608201527f646572206c696768742d74657874207461626c652d686561646572273e3c7468610d808201527f3e417574686f723c74683e5468726561643c74626f64792069643d7461626c65610da08201527f2d626f64793e3c2f7461626c653e3c7370616e2069643d6d6f64652d73776974610dc08201527f6368206f6e636c69636b3d746f67676c654d6f646528293e3c7376672066696c610de08201527f6c3d23303030303030206865696768743d323070782069643d436170615f3120610e008201527f76657273696f6e3d312e312076696577426f783d27302030203230372e363238610e208201527f203230372e3632382777696474683d3230707820786d6c3a73706163653d7072610e408201527f65736572766520786d6c6e733d687474703a2f2f7777772e77332e6f72672f32610e608201527f3030302f73766720786d6c6e733a786c696e6b3d687474703a2f2f7777772e77610e808201527f332e6f72672f313939392f786c696e6b3e3c636972636c652063783d3130332e610ea08201527f3831342063793d3130332e38313420723d34352e383638202f3e3c7061746820610ec08201527f643d274d3130332e3831342c3135372e313833632d32392e3432372c302d3533610ee08201527f2e3336382d32332e3934312d35332e3336382d35332e3336387332332e393431610f008201527f2d35332e3336382c35332e3336382d35332e3336387335332e3336382c32332e610f208201527f3934312c35332e3336382c35332e3336382020533133332e3234312c3135372e610f408201527f3138332c3130332e3831342c3135372e3138337a204d3130332e3831342c3635610f608201527f2e343436632d32312e3135362c302d33382e3336382c31372e3231322d33382e610f808201527f3336382c33382e3336387331372e3231322c33382e3336382c33382e3336382c610fa08201527f33382e33363820207333382e3336382d31372e3231322c33382e3336382d3338610fc08201527f2e333638533132342e39372c36352e3434362c3130332e3831342c36352e3434610fe08201527f367a272f3e3c7061746820643d274d3130332e3831342c33392e333835632d346110008201527f2e3134322c302d372e352d332e3335382d372e352d372e3556372e3563302d346110208201527f2e3134322c332e3335382d372e352c372e352d372e3573372e352c332e3335386110408201527f2c372e352c372e357632342e3338352020433131312e3331342c33362e3032376110608201527f2c3130372e3935362c33392e3338352c3130332e3831342c33392e3338357a276110808201527f2f3e3c7061746820643d274d3130332e3831342c3230372e363238632d342e316110a08201527f34322c302d372e352d332e3335382d372e352d372e35762d32342e33383563306110c08201527f2d342e3134322c332e3335382d372e352c372e352d372e3573372e352c332e336110e08201527f35382c372e352c372e357632342e3338352020433131312e3331342c3230342e6111008201527f3237312c3130372e3935362c3230372e3632382c3130332e3831342c3230372e6111208201527f3632387a272f3e3c7061746820643d274d3230302e3132382c3131312e3331346111408201527f682d32342e333835632d342e3134322c302d372e352d332e3335382d372e352d6111608201527f372e3573332e3335382d372e352c372e352d372e356832342e33383563342e316111808201527f34322c302c372e352c332e3335382c372e352c372e352020533230342e3237316111a08201527f2c3131312e3331342c3230302e3132382c3131312e3331347a272f3e3c7061746111c08201527f6820643d274d33312e3838352c3131312e33313448372e35632d342e3134322c6111e08201527f302d372e352d332e3335382d372e352d372e3573332e3335382d372e352c372e6112008201527f352d372e356832342e33383563342e3134322c302c372e352c332e3335382c376112208201527f2e352c372e3520205333362e3032372c3131312e3331342c33312e3838352c316112408201527f31312e3331347a272f3e3c7061746820643d274d3135342e3637362c36302e346112608201527f3532632d312e3931392c302d332e3833392d302e3733322d352e3330332d322e6112808201527f313937632d322e3932392d322e3932392d322e3932392d372e3637382c302d316112a08201527f302e3630366c31372e3234332d31372e323432202063322e3932392d322e39326112c08201527f392c372e3637382d322e39332c31302e3630362c3063322e3932392c322e39326112e08201527f392c322e3932392c372e3637382c302c31302e3630366c2d31372e3234332c316113008201527f372e323432433135382e3531352c35392e37322c3135362e3539352c36302e346113208201527f35322c3135342e3637362c36302e3435327a272f3e3c7061746820643d274d336113408201527f352e3730392c3137392e343139632d312e3931392c302d332e3833392d302e376113608201527f33322d352e3330332d322e313937632d322e3932392d322e3932392d322e39326113808201527f392d372e3637382c302d31302e3630366c31372e3234332d31372e32343320206113a08201527f63322e3932392d322e3932392c372e3637382d322e3932392c31302e3630362c6113c08201527f3063322e3932392c322e3932392c322e3932392c372e3637382c302c31302e366113e08201527f30366c2d31372e3234332c31372e3234334333392e3534382c3137382e3638376114008201527f2c33372e3632392c3137392e3431392c33352e3730392c3137392e3431397a206114208201527f20272f3e3c7061746820643d274d3137312e3931382c3137392e343139632d316114408201527f2e3931392c302d332e3833392d302e3733322d352e3330332d322e3139376c2d6114608201527f31372e3234332d31372e323433632d322e3932392d322e3932392d322e3932396114808201527f2d372e3637382c302d31302e363036202063322e3932392d322e3932392c372e6114a08201527f3637382d322e3932392c31302e3630362c306c31372e3234332c31372e3234336114c08201527f63322e3932392c322e3932392c322e3932392c372e3637382c302c31302e36306114e08201527f362020433137352e3735372c3137382e3638372c3137332e3833382c3137392e6115008201527f3431392c3137312e3931382c3137392e3431397a272f3e3c7061746820643d276115208201527f4d35322e3935322c36302e343532632d312e3931392c302d332e3833392d302e6115408201527f3733322d352e3330332d322e3139374c33302e3430362c34312e303133632d326115608201527f2e3932392d322e3932392d322e3932392d372e3637372c302d31302e363036206115808201527f2063322e3932392d322e3932392c372e3637382d322e39332c31302e3630362c6115a08201527f306c31372e3234332c31372e32343263322e3932392c322e3932392c322e39326115c08201527f392c372e3637372c302c31302e3630364335362e3739312c35392e37322c35346115e08201527f2e3837322c36302e3435322c35322e3935322c36302e3435327a272f3e3c2f736116008201527f76673e3c2f7370616e3e3c6469762069643d616e64726577207374796c653d6d6116208201527f617267696e2d746f703a313570783b746578742d616c69676e3a63656e7465726116408201527f3b77696474683a313030253e3c7370616e3e44657369676e6564206279203c616116608201527f20636c6173733d6c696768742d6c696e6b20687265663d68747470733a2f2f616116808201527f6e647265776d69746368656c6c2e78797a207461726765743d5f626c616e6b3e6116a08201527f416e64726577204d69746368656c6c3c2f613e3c2f7370616e3e3c2f6469763e6116c08201527f3c64697620636c6173733d666f6f7465723e26233136393b2050726f7a6163206116e08201527f596f7574682e20416c6c207269676874732072657365727665642e3c2f6469766117008201527f3e3c2f6469763e3c2f6469763e0000000000000000000000000000000000000061172082015250565b5f61211461172d83610300565b915061211f826104b7565b61172d82019050919050565b5f61213582610463565b91506121418284610487565b915061214c82612107565b91508190509291505056fea26469706673582212207e6e98963b2f831300da8579928013c5576d9745965255249e31e7864a9bf95f64736f6c634300081a0033",
					"opcodes": "PUSH1 0x80 PUSH1 0x40 MSTORE CALLVALUE DUP1 ISZERO PUSH1 0xE JUMPI PUSH0 DUP1 REVERT JUMPDEST POP PUSH2 0x218D DUP1 PUSH2 0x1C PUSH0 CODECOPY PUSH0 RETURN INVALID PUSH1 0x80 PUSH1 0x40 MSTORE CALLVALUE DUP1 ISZERO PUSH2 0xF JUMPI PUSH0 DUP1 REVERT JUMPDEST POP PUSH1 0x4 CALLDATASIZE LT PUSH2 0x34 JUMPI PUSH0 CALLDATALOAD PUSH1 0xE0 SHR DUP1 PUSH4 0x7899FF8F EQ PUSH2 0x38 JUMPI DUP1 PUSH4 0xB6823613 EQ PUSH2 0x56 JUMPI JUMPDEST PUSH0 DUP1 REVERT JUMPDEST PUSH2 0x40 PUSH2 0x86 JUMP JUMPDEST PUSH1 0x40 MLOAD PUSH2 0x4D SWAP2 SWAP1 PUSH2 0x15C JUMP JUMPDEST PUSH1 0x40 MLOAD DUP1 SWAP2 SUB SWAP1 RETURN JUMPDEST PUSH2 0x70 PUSH1 0x4 DUP1 CALLDATASIZE SUB DUP2 ADD SWAP1 PUSH2 0x6B SWAP2 SWAP1 PUSH2 0x2B9 JUMP JUMPDEST PUSH2 0xC3 JUMP JUMPDEST PUSH1 0x40 MLOAD PUSH2 0x7D SWAP2 SWAP1 PUSH2 0x15C JUMP JUMPDEST PUSH1 0x40 MLOAD DUP1 SWAP2 SUB SWAP1 RETURN JUMPDEST PUSH1 0x60 PUSH1 0x40 MLOAD DUP1 PUSH1 0x40 ADD PUSH1 0x40 MSTORE DUP1 PUSH1 0x14 DUP2 MSTORE PUSH1 0x20 ADD PUSH32 0x3C626F64793E3C2F626F64793E3C2F68746D6C3E000000000000000000000000 DUP2 MSTORE POP SWAP1 POP SWAP1 JUMP JUMPDEST PUSH1 0x60 DUP2 PUSH1 0x40 MLOAD PUSH1 0x20 ADD PUSH2 0xD6 SWAP2 SWAP1 PUSH2 0x212B JUMP JUMPDEST PUSH1 0x40 MLOAD PUSH1 0x20 DUP2 DUP4 SUB SUB DUP2 MSTORE SWAP1 PUSH1 0x40 MSTORE SWAP1 POP SWAP2 SWAP1 POP JUMP JUMPDEST PUSH0 DUP2 MLOAD SWAP1 POP SWAP2 SWAP1 POP JUMP JUMPDEST PUSH0 DUP3 DUP3 MSTORE PUSH1 0x20 DUP3 ADD SWAP1 POP SWAP3 SWAP2 POP POP JUMP JUMPDEST DUP3 DUP2 DUP4 MCOPY PUSH0 DUP4 DUP4 ADD MSTORE POP POP POP JUMP JUMPDEST PUSH0 PUSH1 0x1F NOT PUSH1 0x1F DUP4 ADD AND SWAP1 POP SWAP2 SWAP1 POP JUMP JUMPDEST PUSH0 PUSH2 0x12E DUP3 PUSH2 0xEC JUMP JUMPDEST PUSH2 0x138 DUP2 DUP6 PUSH2 0xF6 JUMP JUMPDEST SWAP4 POP PUSH2 0x148 DUP2 DUP6 PUSH1 0x20 DUP7 ADD PUSH2 0x106 JUMP JUMPDEST PUSH2 0x151 DUP2 PUSH2 0x114 JUMP JUMPDEST DUP5 ADD SWAP2 POP POP SWAP3 SWAP2 POP POP JUMP JUMPDEST PUSH0 PUSH1 0x20 DUP3 ADD SWAP1 POP DUP2 DUP2 SUB PUSH0 DUP4 ADD MSTORE PUSH2 0x174 DUP2 DUP5 PUSH2 0x124 JUMP JUMPDEST SWAP1 POP SWAP3 SWAP2 POP POP JUMP JUMPDEST PUSH0 PUSH1 0x40 MLOAD SWAP1 POP SWAP1 JUMP JUMPDEST PUSH0 DUP1 REVERT JUMPDEST PUSH0 DUP1 REVERT JUMPDEST PUSH0 DUP1 REVERT JUMPDEST PUSH0 DUP1 REVERT JUMPDEST PUSH32 0x4E487B7100000000000000000000000000000000000000000000000000000000 PUSH0 MSTORE PUSH1 0x41 PUSH1 0x4 MSTORE PUSH1 0x24 PUSH0 REVERT JUMPDEST PUSH2 0x1CB DUP3 PUSH2 0x114 JUMP JUMPDEST DUP2 ADD DUP2 DUP2 LT PUSH8 0xFFFFFFFFFFFFFFFF DUP3 GT OR ISZERO PUSH2 0x1EA JUMPI PUSH2 0x1E9 PUSH2 0x195 JUMP JUMPDEST JUMPDEST DUP1 PUSH1 0x40 MSTORE POP POP POP JUMP JUMPDEST PUSH0 PUSH2 0x1FC PUSH2 0x17C JUMP JUMPDEST SWAP1 POP PUSH2 0x208 DUP3 DUP3 PUSH2 0x1C2 JUMP JUMPDEST SWAP2 SWAP1 POP JUMP JUMPDEST PUSH0 PUSH8 0xFFFFFFFFFFFFFFFF DUP3 GT ISZERO PUSH2 0x227 JUMPI PUSH2 0x226 PUSH2 0x195 JUMP JUMPDEST JUMPDEST PUSH2 0x230 DUP3 PUSH2 0x114 JUMP JUMPDEST SWAP1 POP PUSH1 0x20 DUP2 ADD SWAP1 POP SWAP2 SWAP1 POP JUMP JUMPDEST DUP3 DUP2 DUP4 CALLDATACOPY PUSH0 DUP4 DUP4 ADD MSTORE POP POP POP JUMP JUMPDEST PUSH0 PUSH2 0x25D PUSH2 0x258 DUP5 PUSH2 0x20D JUMP JUMPDEST PUSH2 0x1F3 JUMP JUMPDEST SWAP1 POP DUP3 DUP2 MSTORE PUSH1 0x20 DUP2 ADD DUP5 DUP5 DUP5 ADD GT ISZERO PUSH2 0x279 JUMPI PUSH2 0x278 PUSH2 0x191 JUMP JUMPDEST JUMPDEST PUSH2 0x284 DUP5 DUP3 DUP6 PUSH2 0x23D JUMP JUMPDEST POP SWAP4 SWAP3 POP POP POP JUMP JUMPDEST PUSH0 DUP3 PUSH1 0x1F DUP4 ADD SLT PUSH2 0x2A0 JUMPI PUSH2 0x29F PUSH2 0x18D JUMP JUMPDEST JUMPDEST DUP2 CALLDATALOAD PUSH2 0x2B0 DUP5 DUP3 PUSH1 0x20 DUP7 ADD PUSH2 0x24B JUMP JUMPDEST SWAP2 POP POP SWAP3 SWAP2 POP POP JUMP JUMPDEST PUSH0 PUSH1 0x20 DUP3 DUP5 SUB SLT ISZERO PUSH2 0x2CE JUMPI PUSH2 0x2CD PUSH2 0x185 JUMP JUMPDEST JUMPDEST PUSH0 DUP3 ADD CALLDATALOAD PUSH8 0xFFFFFFFFFFFFFFFF DUP2 GT ISZERO PUSH2 0x2EB JUMPI PUSH2 0x2EA PUSH2 0x189 JUMP JUMPDEST JUMPDEST PUSH2 0x2F7 DUP5 DUP3 DUP6 ADD PUSH2 0x28C JUMP JUMPDEST SWAP2 POP POP SWAP3 SWAP2 POP POP JUMP JUMPDEST PUSH0 DUP2 SWAP1 POP SWAP3 SWAP2 POP POP JUMP JUMPDEST PUSH32 0x3C21646F637479706568746D6C3E3C68746D6C206C616E673D656E3E3C6D6574 PUSH0 DUP3 ADD MSTORE PUSH32 0x6120636F6E74656E743D27746578742F68746D6C3B20636861727365743D5554 PUSH1 0x20 DUP3 ADD MSTORE PUSH32 0x462D3827687474702D65717569763D436F6E74656E742D547970653E3C6D6574 PUSH1 0x40 DUP3 ADD MSTORE PUSH32 0x6120636F6E74656E743D2777696474683D6465766963652D77696474682C696E PUSH1 0x60 DUP3 ADD MSTORE PUSH32 0x697469616C2D7363616C653D31276E616D653D76696577706F72743E3C6D6574 PUSH1 0x80 DUP3 ADD MSTORE PUSH32 0x6120636F6E74656E743D2769653D6564676527687474702D65717569763D582D PUSH1 0xA0 DUP3 ADD MSTORE PUSH32 0x55412D436F6D70617469626C653E3C6D65746120646576656C6F7065723D2741 PUSH1 0xC0 DUP3 ADD MSTORE PUSH32 0x6E64726577204D69746368656C6C273E3C7469746C653E50726F7A616320596F PUSH1 0xE0 DUP3 ADD MSTORE PUSH32 0x7574683C2F7469746C653E3C6C696E6B20687265663D27000000000000000000 PUSH2 0x100 DUP3 ADD MSTORE POP JUMP JUMPDEST PUSH0 PUSH2 0x470 PUSH2 0x117 DUP4 PUSH2 0x300 JUMP JUMPDEST SWAP2 POP PUSH2 0x47B DUP3 PUSH2 0x30A JUMP JUMPDEST PUSH2 0x117 DUP3 ADD SWAP1 POP SWAP2 SWAP1 POP JUMP JUMPDEST PUSH0 PUSH2 0x491 DUP3 PUSH2 0xEC JUMP JUMPDEST PUSH2 0x49B DUP2 DUP6 PUSH2 0x300 JUMP JUMPDEST SWAP4 POP PUSH2 0x4AB DUP2 DUP6 PUSH1 0x20 DUP7 ADD PUSH2 0x106 JUMP JUMPDEST DUP1 DUP5 ADD SWAP2 POP POP SWAP3 SWAP2 POP POP JUMP JUMPDEST PUSH32 0x272072656C3D69636F6E2073697A65733D313678313620747970653D696D6167 PUSH0 DUP3 ADD MSTORE PUSH32 0x652F706E673E3C736372697074207372633D68747470733A2F2F63646E2E6A73 PUSH1 0x20 DUP3 ADD MSTORE PUSH32 0x64656C6976722E6E65742F6E706D2F7765623340342E31302E302F646973742F PUSH1 0x40 DUP3 ADD MSTORE PUSH32 0x776562332E6D696E2E6A733E3C2F7363726970743E3C73637269707420737263 PUSH1 0x60 DUP3 ADD MSTORE PUSH32 0x3D68747470733A2F2F636F64652E6A71756572792E636F6D2F6A71756572792D PUSH1 0x80 DUP3 ADD MSTORE PUSH32 0x332E362E302E6D696E2E6A733E3C2F7363726970743E3C6C696E6B2068726566 PUSH1 0xA0 DUP3 ADD MSTORE PUSH32 0x3D68747470733A2F2F737461636B706174682E626F6F74737472617063646E2E PUSH1 0xC0 DUP3 ADD MSTORE PUSH32 0x636F6D2F626F6F7473747261702F352E312E302F6373732F626F6F7473747261 PUSH1 0xE0 DUP3 ADD MSTORE PUSH32 0x702E6D696E2E6373732072656C3D7374796C6573686565743E3C6C696E6B2068 PUSH2 0x100 DUP3 ADD MSTORE PUSH32 0x7265663D2768747470733A2F2F666F6E74732E676F6F676C65617069732E636F PUSH2 0x120 DUP3 ADD MSTORE PUSH32 0x6D2F637373323F66616D696C793D526F626F746F3A77676874403330303B3430 PUSH2 0x140 DUP3 ADD MSTORE PUSH32 0x303B37303026646973706C61793D737761702772656C3D7374796C6573686565 PUSH2 0x160 DUP3 ADD MSTORE PUSH32 0x743E3C7374796C653E626F64797B666F6E742D66616D696C793A526F626F746F PUSH2 0x180 DUP3 ADD MSTORE PUSH32 0x2C417269616C2C48656C7665746963612C73616E732D73657269663B666F6E74 PUSH2 0x1A0 DUP3 ADD MSTORE PUSH32 0x2D73697A653A313070743B6D617267696E3A303B70616464696E673A3570787D PUSH2 0x1C0 DUP3 ADD MSTORE PUSH32 0x2E616E64726577732D636F6E7461696E65727B6D617267696E3A6175746F3B77 PUSH2 0x1E0 DUP3 ADD MSTORE PUSH32 0x696474683A3630257D406D65646961206F6E6C792073637265656E20616E6420 PUSH2 0x200 DUP3 ADD MSTORE PUSH32 0x286D61782D77696474683A3630307078297B2E616E64726577732D636F6E7461 PUSH2 0x220 DUP3 ADD MSTORE PUSH32 0x696E65727B77696474683A313030257D7D2E7461626C657B6D617267696E3A32 PUSH2 0x240 DUP3 ADD MSTORE PUSH32 0x307078206175746F3B77696474683A3630253B626F726465722D636F6C6C6170 PUSH2 0x260 DUP3 ADD MSTORE PUSH32 0x73653A636F6C6C617073657D406D65646961206F6E6C792073637265656E2061 PUSH2 0x280 DUP3 ADD MSTORE PUSH32 0x6E6420286D61782D77696474683A3630307078297B2E7461626C657B77696474 PUSH2 0x2A0 DUP3 ADD MSTORE PUSH32 0x683A313030257D7D2E666164652D696E7B6F7061636974793A313B616E696D61 PUSH2 0x2C0 DUP3 ADD MSTORE PUSH32 0x74696F6E2D6E616D653A66616465496E4F7061636974793B616E696D6174696F PUSH2 0x2E0 DUP3 ADD MSTORE PUSH32 0x6E2D697465726174696F6E2D636F756E743A313B616E696D6174696F6E2D7469 PUSH2 0x300 DUP3 ADD MSTORE PUSH32 0x6D696E672D66756E6374696F6E3A656173652D696E3B616E696D6174696F6E2D PUSH2 0x320 DUP3 ADD MSTORE PUSH32 0x6475726174696F6E3A32737D406B65796672616D65732066616465496E4F7061 PUSH2 0x340 DUP3 ADD MSTORE PUSH32 0x636974797B30257B6F7061636974793A307D313030257B6F7061636974793A31 PUSH2 0x360 DUP3 ADD MSTORE PUSH32 0x7D7D236C6F6164696E672D746578747B666F6E742D73697A653A313070743B74 PUSH2 0x380 DUP3 ADD MSTORE PUSH32 0x6578742D616C69676E3A72696768747D236C6F6164696E677B77696474683A31 PUSH2 0x3A0 DUP3 ADD MSTORE PUSH32 0x3030257D2E6865616465722D7469746C657B666F6E742D73697A653A31367074 PUSH2 0x3C0 DUP3 ADD MSTORE PUSH32 0x3B666F6E742D7765696768743A3730303B746578742D616C69676E3A63656E74 PUSH2 0x3E0 DUP3 ADD MSTORE PUSH32 0x65723B6261636B67726F756E642D636F6C6F723A233234336639383B70616464 PUSH2 0x400 DUP3 ADD MSTORE PUSH32 0x696E673A3130707820303B626F726465722D7261646975733A3570787D2E6272 PUSH2 0x420 DUP3 ADD MSTORE PUSH32 0x6561646372756D62737B666F6E742D73697A653A3970743B636F6C6F723A2337 PUSH2 0x440 DUP3 ADD MSTORE PUSH32 0x37373B6D617267696E2D626F74746F6D3A313070787D236D6F64652D73776974 PUSH2 0x460 DUP3 ADD MSTORE PUSH32 0x63687B637572736F723A706F696E7465723B706F736974696F6E3A6162736F6C PUSH2 0x480 DUP3 ADD MSTORE PUSH32 0x7574653B746F703A313070783B72696768743A313070787D2E666F72756D2D72 PUSH2 0x4A0 DUP3 ADD MSTORE PUSH32 0x756C65737B626F726465722D7261646975733A3570783B70616464696E673A31 PUSH2 0x4C0 DUP3 ADD MSTORE PUSH32 0x3070783B666F6E742D73697A653A3970743B6D617267696E2D626F74746F6D3A PUSH2 0x4E0 DUP3 ADD MSTORE PUSH32 0x323070787D2E7461626C652D6865616465722C2E7461626C652D726F777B7061 PUSH2 0x500 DUP3 ADD MSTORE PUSH32 0x6464696E673A3870787D2E7461626C652D6865616465727B6261636B67726F75 PUSH2 0x520 DUP3 ADD MSTORE PUSH32 0x6E642D636F6C6F723A233234336639383B666F6E742D7765696768743A373030 PUSH2 0x540 DUP3 ADD MSTORE PUSH32 0x7D2E7461626C653E2E6C696768742D62673A6E74682D6368696C64286576656E PUSH2 0x560 DUP3 ADD MSTORE PUSH32 0x297B6261636B67726F756E642D636F6C6F723A2365306537666621696D706F72 PUSH2 0x580 DUP3 ADD MSTORE PUSH32 0x74616E747D2E6C696768742D62677B6261636B67726F756E642D636F6C6F723A PUSH2 0x5A0 DUP3 ADD MSTORE PUSH32 0x2366376636663121696D706F7274616E747D2E6C696768742D626F726465727B PUSH2 0x5C0 DUP3 ADD MSTORE PUSH32 0x626F726465723A31707820736F6C6964202363636321696D706F7274616E747D PUSH2 0x5E0 DUP3 ADD MSTORE PUSH32 0x2E6C696768742D626F726465722D327B626F726465723A31707820736F6C6964 PUSH2 0x600 DUP3 ADD MSTORE PUSH32 0x202363356432666621696D706F7274616E747D2E6C696768742D62672D327B62 PUSH2 0x620 DUP3 ADD MSTORE PUSH32 0x61636B67726F756E642D636F6C6F723A2365306537666621696D706F7274616E PUSH2 0x640 DUP3 ADD MSTORE PUSH32 0x747D2E6C696768742D746578747B636F6C6F723A2366376636663121696D706F PUSH2 0x660 DUP3 ADD MSTORE PUSH32 0x7274616E747D2E6C696768742D746578742D327B636F6C6F723A233234336639 PUSH2 0x680 DUP3 ADD MSTORE PUSH32 0x3821696D706F7274616E747D2E6572726F722D746578747B636F6C6F723A2366 PUSH2 0x6A0 DUP3 ADD MSTORE PUSH32 0x30337D2E6461726B2D6C696E6B7B636F6C6F723A2333303535636321696D706F PUSH2 0x6C0 DUP3 ADD MSTORE PUSH32 0x7274616E747D2E6461726B2D746578742D327B636F6C6F723A23343536366433 PUSH2 0x6E0 DUP3 ADD MSTORE PUSH32 0x21696D706F7274616E747D2E6C696768742D746578742D337B636F6C6F723A23 PUSH2 0x700 DUP3 ADD MSTORE PUSH32 0x31663166316621696D706F7274616E747D2E6461726B2D746578742D337B636F PUSH2 0x720 DUP3 ADD MSTORE PUSH32 0x6C6F723A2332363433613221696D706F7274616E747D2E6C696768742D746578 PUSH2 0x740 DUP3 ADD MSTORE PUSH32 0x742D347B636F6C6F723A2331663166316621696D706F7274616E747D2E646172 PUSH2 0x760 DUP3 ADD MSTORE PUSH32 0x6B2D746578742D347B636F6C6F723A2363646364636421696D706F7274616E74 PUSH2 0x780 DUP3 ADD MSTORE PUSH32 0x7D2E7461626C653E2E6461726B2D62673A6E74682D6368696C64286576656E29 PUSH2 0x7A0 DUP3 ADD MSTORE PUSH32 0x7B6261636B67726F756E642D636F6C6F723A2331663166316621696D706F7274 PUSH2 0x7C0 DUP3 ADD MSTORE PUSH32 0x616E747D2E6461726B2D62677B6261636B67726F756E642D636F6C6F723A2331 PUSH2 0x7E0 DUP3 ADD MSTORE PUSH32 0x323132313221696D706F7274616E747D2E6461726B2D626F726465727B626F72 PUSH2 0x800 DUP3 ADD MSTORE PUSH32 0x6465723A31707820736F6C6964202335353521696D706F7274616E747D2E6461 PUSH2 0x820 DUP3 ADD MSTORE PUSH32 0x726B2D626F726465722D327B626F726465723A31707820736F6C696420233333 PUSH2 0x840 DUP3 ADD MSTORE PUSH32 0x3321696D706F7274616E747D2E6461726B2D62672D327B6261636B67726F756E PUSH2 0x860 DUP3 ADD MSTORE PUSH32 0x642D636F6C6F723A2334343421696D706F7274616E747D2E6461726B2D746578 PUSH2 0x880 DUP3 ADD MSTORE PUSH32 0x747B636F6C6F723A2331323132313221696D706F7274616E747D2E706F73742D PUSH2 0x8A0 DUP3 ADD MSTORE PUSH32 0x777261707065727B646973706C61793A6E6F6E657D2E736D616C6C2D74657874 PUSH2 0x8C0 DUP3 ADD MSTORE PUSH32 0x7B666F6E742D73697A653A3870743B636F6C6F723A233535357D2E6375727265 PUSH2 0x8E0 DUP3 ADD MSTORE PUSH32 0x6E742D74696D657B666F6E742D73697A653A3870743B636F6C6F723A23373737 PUSH2 0x900 DUP3 ADD MSTORE PUSH32 0x3B766572746963616C2D616C69676E3A73757065723B6D617267696E2D726967 PUSH2 0x920 DUP3 ADD MSTORE PUSH32 0x68743A3270787D237461626C652D626F64797B7461626C652D6C61796F75743A PUSH2 0x940 DUP3 ADD MSTORE PUSH32 0x66697865647D2E74696D652D777261707065727B646973706C61793A696E6C69 PUSH2 0x960 DUP3 ADD MSTORE PUSH32 0x6E657D2E6C6F6164696E672D63656C6C7B646973706C61793A666C65783B626F PUSH2 0x980 DUP3 ADD MSTORE PUSH32 0x726465723A303B746578742D616C69676E3A72696768747D2E706F73742D696E PUSH2 0x9A0 DUP3 ADD MSTORE PUSH32 0x666F7B646973706C61793A666C65783B6A7573746966792D636F6E74656E743A PUSH2 0x9C0 DUP3 ADD MSTORE PUSH32 0x73706163652D6265747765656E3B616C69676E2D6974656D733A63656E746572 PUSH2 0x9E0 DUP3 ADD MSTORE PUSH32 0x7D2E706F73742D696E666F207370616E7B666F6E742D73697A653A313070743B PUSH2 0xA00 DUP3 ADD MSTORE PUSH32 0x636F6C6F723A233234336639383B666F6E742D7765696768743A3730307D2E70 PUSH2 0xA20 DUP3 ADD MSTORE PUSH32 0x6F73742D6D6573736167657B666F6E742D73697A653A313070743B6C696E652D PUSH2 0xA40 DUP3 ADD MSTORE PUSH32 0x6865696768743A312E357D2E666F6F7465727B6D617267696E2D746F703A3230 PUSH2 0xA60 DUP3 ADD MSTORE PUSH32 0x70783B746578742D616C69676E3A63656E7465723B666F6E742D73697A653A39 PUSH2 0xA80 DUP3 ADD MSTORE PUSH32 0x70743B636F6C6F723A233737377D3C2F7374796C653E3C626F647920636C6173 PUSH2 0xAA0 DUP3 ADD MSTORE PUSH32 0x733D276C696768742D746578742D32206C696768742D6267273E3C6469762063 PUSH2 0xAC0 DUP3 ADD MSTORE PUSH32 0x6C6173733D27666164652D696E20706F73742D777261707065722769643D706F PUSH2 0xAE0 DUP3 ADD MSTORE PUSH32 0x73742D777261707065723E3C64697620636C6173733D276C696768742D746578 PUSH2 0xB00 DUP3 ADD MSTORE PUSH32 0x742D3220616E64726577732D636F6E7461696E6572273E3C64697620636C6173 PUSH2 0xB20 DUP3 ADD MSTORE PUSH32 0x733D276C696768742D74657874206865616465722D7469746C65273E466F7275 PUSH2 0xB40 DUP3 ADD MSTORE PUSH32 0x6D733C2F6469763E3C64697620636C6173733D62726561646372756D62733E50 PUSH2 0xB60 DUP3 ADD MSTORE PUSH32 0x726F7A616320596F757468203E20466F72756D73203E20544A4F203E20446561 PUSH2 0xB80 DUP3 ADD MSTORE PUSH32 0x722048756D616E3C2F6469763E3C64697620636C6173733D27666F72756D2D72 PUSH2 0xBA0 DUP3 ADD MSTORE PUSH32 0x756C6573206C696768742D62672D32206C696768742D626F726465722D32206C PUSH2 0xBC0 DUP3 ADD MSTORE PUSH32 0x696768742D746578742D34273E546865206F6E6C792072756C65732077652072 PUSH2 0xBE0 DUP3 ADD MSTORE PUSH32 0x65717565737420796F7520746F20666F6C6C6F772C2061726520746F206B6565 PUSH2 0xC00 DUP3 ADD MSTORE PUSH32 0x70207468696E677320706F6C6974652C20616E6420746F20706C656173652070 PUSH2 0xC20 DUP3 ADD MSTORE PUSH32 0x757420796F7572206D6573736167657320696E2074686520617070726F707269 PUSH2 0xC40 DUP3 ADD MSTORE PUSH32 0x6174652073656374696F6E732E3C2F6469763E3C64697620636C6173733D706F PUSH2 0xC60 DUP3 ADD MSTORE PUSH32 0x73742D696E666F3E3C7370616E20636C6173733D6C696768742D746578742D32 PUSH2 0xC80 DUP3 ADD MSTORE PUSH32 0x3E546F74616C20506F7374733A203C622069643D746F74616C2D706F7374733E PUSH2 0xCA0 DUP3 ADD MSTORE PUSH32 0x393939393939393C2F623E3C2F7370616E3E3C64697620636C6173733D74696D PUSH2 0xCC0 DUP3 ADD MSTORE PUSH32 0x652D777261707065723E3C7370616E20636C6173733D276C696768742D746578 PUSH2 0xCE0 DUP3 ADD MSTORE PUSH32 0x742D322063757272656E742D74696D65273E4170722032372032303234203134 PUSH2 0xD00 DUP3 ADD MSTORE PUSH32 0x3A32323A34303C2F7370616E3E3C2F6469763E3C2F6469763E3C7461626C6520 PUSH2 0xD20 DUP3 ADD MSTORE PUSH32 0x636C6173733D7461626C65207374796C653D7461626C652D6C61796F75743A66 PUSH2 0xD40 DUP3 ADD MSTORE PUSH32 0x697865643E3C74686561643E3C747220636C6173733D276C696768742D626F72 PUSH2 0xD60 DUP3 ADD MSTORE PUSH32 0x646572206C696768742D74657874207461626C652D686561646572273E3C7468 PUSH2 0xD80 DUP3 ADD MSTORE PUSH32 0x3E417574686F723C74683E5468726561643C74626F64792069643D7461626C65 PUSH2 0xDA0 DUP3 ADD MSTORE PUSH32 0x2D626F64793E3C2F7461626C653E3C7370616E2069643D6D6F64652D73776974 PUSH2 0xDC0 DUP3 ADD MSTORE PUSH32 0x6368206F6E636C69636B3D746F67676C654D6F646528293E3C7376672066696C PUSH2 0xDE0 DUP3 ADD MSTORE PUSH32 0x6C3D23303030303030206865696768743D323070782069643D436170615F3120 PUSH2 0xE00 DUP3 ADD MSTORE PUSH32 0x76657273696F6E3D312E312076696577426F783D27302030203230372E363238 PUSH2 0xE20 DUP3 ADD MSTORE PUSH32 0x203230372E3632382777696474683D3230707820786D6C3A73706163653D7072 PUSH2 0xE40 DUP3 ADD MSTORE PUSH32 0x65736572766520786D6C6E733D687474703A2F2F7777772E77332E6F72672F32 PUSH2 0xE60 DUP3 ADD MSTORE PUSH32 0x3030302F73766720786D6C6E733A786C696E6B3D687474703A2F2F7777772E77 PUSH2 0xE80 DUP3 ADD MSTORE PUSH32 0x332E6F72672F313939392F786C696E6B3E3C636972636C652063783D3130332E PUSH2 0xEA0 DUP3 ADD MSTORE PUSH32 0x3831342063793D3130332E38313420723D34352E383638202F3E3C7061746820 PUSH2 0xEC0 DUP3 ADD MSTORE PUSH32 0x643D274D3130332E3831342C3135372E313833632D32392E3432372C302D3533 PUSH2 0xEE0 DUP3 ADD MSTORE PUSH32 0x2E3336382D32332E3934312D35332E3336382D35332E3336387332332E393431 PUSH2 0xF00 DUP3 ADD MSTORE PUSH32 0x2D35332E3336382C35332E3336382D35332E3336387335332E3336382C32332E PUSH2 0xF20 DUP3 ADD MSTORE PUSH32 0x3934312C35332E3336382C35332E3336382020533133332E3234312C3135372E PUSH2 0xF40 DUP3 ADD MSTORE PUSH32 0x3138332C3130332E3831342C3135372E3138337A204D3130332E3831342C3635 PUSH2 0xF60 DUP3 ADD MSTORE PUSH32 0x2E343436632D32312E3135362C302D33382E3336382C31372E3231322D33382E PUSH2 0xF80 DUP3 ADD MSTORE PUSH32 0x3336382C33382E3336387331372E3231322C33382E3336382C33382E3336382C PUSH2 0xFA0 DUP3 ADD MSTORE PUSH32 0x33382E33363820207333382E3336382D31372E3231322C33382E3336382D3338 PUSH2 0xFC0 DUP3 ADD MSTORE PUSH32 0x2E333638533132342E39372C36352E3434362C3130332E3831342C36352E3434 PUSH2 0xFE0 DUP3 ADD MSTORE PUSH32 0x367A272F3E3C7061746820643D274D3130332E3831342C33392E333835632D34 PUSH2 0x1000 DUP3 ADD MSTORE PUSH32 0x2E3134322C302D372E352D332E3335382D372E352D372E3556372E3563302D34 PUSH2 0x1020 DUP3 ADD MSTORE PUSH32 0x2E3134322C332E3335382D372E352C372E352D372E3573372E352C332E333538 PUSH2 0x1040 DUP3 ADD MSTORE PUSH32 0x2C372E352C372E357632342E3338352020433131312E3331342C33362E303237 PUSH2 0x1060 DUP3 ADD MSTORE PUSH32 0x2C3130372E3935362C33392E3338352C3130332E3831342C33392E3338357A27 PUSH2 0x1080 DUP3 ADD MSTORE PUSH32 0x2F3E3C7061746820643D274D3130332E3831342C3230372E363238632D342E31 PUSH2 0x10A0 DUP3 ADD MSTORE PUSH32 0x34322C302D372E352D332E3335382D372E352D372E35762D32342E3338356330 PUSH2 0x10C0 DUP3 ADD MSTORE PUSH32 0x2D342E3134322C332E3335382D372E352C372E352D372E3573372E352C332E33 PUSH2 0x10E0 DUP3 ADD MSTORE PUSH32 0x35382C372E352C372E357632342E3338352020433131312E3331342C3230342E PUSH2 0x1100 DUP3 ADD MSTORE PUSH32 0x3237312C3130372E3935362C3230372E3632382C3130332E3831342C3230372E PUSH2 0x1120 DUP3 ADD MSTORE PUSH32 0x3632387A272F3E3C7061746820643D274D3230302E3132382C3131312E333134 PUSH2 0x1140 DUP3 ADD MSTORE PUSH32 0x682D32342E333835632D342E3134322C302D372E352D332E3335382D372E352D PUSH2 0x1160 DUP3 ADD MSTORE PUSH32 0x372E3573332E3335382D372E352C372E352D372E356832342E33383563342E31 PUSH2 0x1180 DUP3 ADD MSTORE PUSH32 0x34322C302C372E352C332E3335382C372E352C372E352020533230342E323731 PUSH2 0x11A0 DUP3 ADD MSTORE PUSH32 0x2C3131312E3331342C3230302E3132382C3131312E3331347A272F3E3C706174 PUSH2 0x11C0 DUP3 ADD MSTORE PUSH32 0x6820643D274D33312E3838352C3131312E33313448372E35632D342E3134322C PUSH2 0x11E0 DUP3 ADD MSTORE PUSH32 0x302D372E352D332E3335382D372E352D372E3573332E3335382D372E352C372E PUSH2 0x1200 DUP3 ADD MSTORE PUSH32 0x352D372E356832342E33383563342E3134322C302C372E352C332E3335382C37 PUSH2 0x1220 DUP3 ADD MSTORE PUSH32 0x2E352C372E3520205333362E3032372C3131312E3331342C33312E3838352C31 PUSH2 0x1240 DUP3 ADD MSTORE PUSH32 0x31312E3331347A272F3E3C7061746820643D274D3135342E3637362C36302E34 PUSH2 0x1260 DUP3 ADD MSTORE PUSH32 0x3532632D312E3931392C302D332E3833392D302E3733322D352E3330332D322E PUSH2 0x1280 DUP3 ADD MSTORE PUSH32 0x313937632D322E3932392D322E3932392D322E3932392D372E3637382C302D31 PUSH2 0x12A0 DUP3 ADD MSTORE PUSH32 0x302E3630366C31372E3234332D31372E323432202063322E3932392D322E3932 PUSH2 0x12C0 DUP3 ADD MSTORE PUSH32 0x392C372E3637382D322E39332C31302E3630362C3063322E3932392C322E3932 PUSH2 0x12E0 DUP3 ADD MSTORE PUSH32 0x392C322E3932392C372E3637382C302C31302E3630366C2D31372E3234332C31 PUSH2 0x1300 DUP3 ADD MSTORE PUSH32 0x372E323432433135382E3531352C35392E37322C3135362E3539352C36302E34 PUSH2 0x1320 DUP3 ADD MSTORE PUSH32 0x35322C3135342E3637362C36302E3435327A272F3E3C7061746820643D274D33 PUSH2 0x1340 DUP3 ADD MSTORE PUSH32 0x352E3730392C3137392E343139632D312E3931392C302D332E3833392D302E37 PUSH2 0x1360 DUP3 ADD MSTORE PUSH32 0x33322D352E3330332D322E313937632D322E3932392D322E3932392D322E3932 PUSH2 0x1380 DUP3 ADD MSTORE PUSH32 0x392D372E3637382C302D31302E3630366C31372E3234332D31372E3234332020 PUSH2 0x13A0 DUP3 ADD MSTORE PUSH32 0x63322E3932392D322E3932392C372E3637382D322E3932392C31302E3630362C PUSH2 0x13C0 DUP3 ADD MSTORE PUSH32 0x3063322E3932392C322E3932392C322E3932392C372E3637382C302C31302E36 PUSH2 0x13E0 DUP3 ADD MSTORE PUSH32 0x30366C2D31372E3234332C31372E3234334333392E3534382C3137382E363837 PUSH2 0x1400 DUP3 ADD MSTORE PUSH32 0x2C33372E3632392C3137392E3431392C33352E3730392C3137392E3431397A20 PUSH2 0x1420 DUP3 ADD MSTORE PUSH32 0x20272F3E3C7061746820643D274D3137312E3931382C3137392E343139632D31 PUSH2 0x1440 DUP3 ADD MSTORE PUSH32 0x2E3931392C302D332E3833392D302E3733322D352E3330332D322E3139376C2D PUSH2 0x1460 DUP3 ADD MSTORE PUSH32 0x31372E3234332D31372E323433632D322E3932392D322E3932392D322E393239 PUSH2 0x1480 DUP3 ADD MSTORE PUSH32 0x2D372E3637382C302D31302E363036202063322E3932392D322E3932392C372E PUSH2 0x14A0 DUP3 ADD MSTORE PUSH32 0x3637382D322E3932392C31302E3630362C306C31372E3234332C31372E323433 PUSH2 0x14C0 DUP3 ADD MSTORE PUSH32 0x63322E3932392C322E3932392C322E3932392C372E3637382C302C31302E3630 PUSH2 0x14E0 DUP3 ADD MSTORE PUSH32 0x362020433137352E3735372C3137382E3638372C3137332E3833382C3137392E PUSH2 0x1500 DUP3 ADD MSTORE PUSH32 0x3431392C3137312E3931382C3137392E3431397A272F3E3C7061746820643D27 PUSH2 0x1520 DUP3 ADD MSTORE PUSH32 0x4D35322E3935322C36302E343532632D312E3931392C302D332E3833392D302E PUSH2 0x1540 DUP3 ADD MSTORE PUSH32 0x3733322D352E3330332D322E3139374C33302E3430362C34312E303133632D32 PUSH2 0x1560 DUP3 ADD MSTORE PUSH32 0x2E3932392D322E3932392D322E3932392D372E3637372C302D31302E36303620 PUSH2 0x1580 DUP3 ADD MSTORE PUSH32 0x2063322E3932392D322E3932392C372E3637382D322E39332C31302E3630362C PUSH2 0x15A0 DUP3 ADD MSTORE PUSH32 0x306C31372E3234332C31372E32343263322E3932392C322E3932392C322E3932 PUSH2 0x15C0 DUP3 ADD MSTORE PUSH32 0x392C372E3637372C302C31302E3630364335362E3739312C35392E37322C3534 PUSH2 0x15E0 DUP3 ADD MSTORE PUSH32 0x2E3837322C36302E3435322C35322E3935322C36302E3435327A272F3E3C2F73 PUSH2 0x1600 DUP3 ADD MSTORE PUSH32 0x76673E3C2F7370616E3E3C6469762069643D616E64726577207374796C653D6D PUSH2 0x1620 DUP3 ADD MSTORE PUSH32 0x617267696E2D746F703A313570783B746578742D616C69676E3A63656E746572 PUSH2 0x1640 DUP3 ADD MSTORE PUSH32 0x3B77696474683A313030253E3C7370616E3E44657369676E6564206279203C61 PUSH2 0x1660 DUP3 ADD MSTORE PUSH32 0x20636C6173733D6C696768742D6C696E6B20687265663D68747470733A2F2F61 PUSH2 0x1680 DUP3 ADD MSTORE PUSH32 0x6E647265776D69746368656C6C2E78797A207461726765743D5F626C616E6B3E PUSH2 0x16A0 DUP3 ADD MSTORE PUSH32 0x416E64726577204D69746368656C6C3C2F613E3C2F7370616E3E3C2F6469763E PUSH2 0x16C0 DUP3 ADD MSTORE PUSH32 0x3C64697620636C6173733D666F6F7465723E26233136393B2050726F7A616320 PUSH2 0x16E0 DUP3 ADD MSTORE PUSH32 0x596F7574682E20416C6C207269676874732072657365727665642E3C2F646976 PUSH2 0x1700 DUP3 ADD MSTORE PUSH32 0x3E3C2F6469763E3C2F6469763E00000000000000000000000000000000000000 PUSH2 0x1720 DUP3 ADD MSTORE POP JUMP JUMPDEST PUSH0 PUSH2 0x2114 PUSH2 0x172D DUP4 PUSH2 0x300 JUMP JUMPDEST SWAP2 POP PUSH2 0x211F DUP3 PUSH2 0x4B7 JUMP JUMPDEST PUSH2 0x172D DUP3 ADD SWAP1 POP SWAP2 SWAP1 POP JUMP JUMPDEST PUSH0 PUSH2 0x2135 DUP3 PUSH2 0x463 JUMP JUMPDEST SWAP2 POP PUSH2 0x2141 DUP3 DUP5 PUSH2 0x487 JUMP JUMPDEST SWAP2 POP PUSH2 0x214C DUP3 PUSH2 0x2107 JUMP JUMPDEST SWAP2 POP DUP2 SWAP1 POP SWAP3 SWAP2 POP POP JUMP INVALID LOG2 PUSH5 0x6970667358 0x22 SLT KECCAK256 PUSH31 0x6E98963B2F831300DA8579928013C5576D9745965255249E31E7864A9BF95F PUSH5 0x736F6C6343 STOP ADDMOD BYTE STOP CALLER "
				},
				"gasEstimates": {
					"creation": {
						"codeDepositCost": "1717800",
						"executionCost": "1804",
						"totalCost": "1719604"
					},
					"external": {
						"getAnimFooter()": "infinite",
						"getAnimHeader(string)": "infinite"
					}
				},
				"methodIdentifiers": {
					"getAnimFooter()": "7899ff8f",
					"getAnimHeader(string)": "b6823613"
				}
			},
			"storageLayout": {
				"storage": [],
				"types": null
			},
			"userdoc": {
				"kind": "user",
				"methods": {},
				"version": 1
			}
		}
	}
}