{
	"InvertebratesRendererB.sol": {
		"InvertebratesEngine_2": {
			"abi": [
				{
					"inputs": [
						{
							"internalType": "uint256",
							"name": "tokenId",
							"type": "uint256"
						},
						{
							"internalType": "uint256",
							"name": "color",
							"type": "uint256"
						},
						{
							"internalType": "bytes32",
							"name": "hash",
							"type": "bytes32"
						},
						{
							"internalType": "string",
							"name": "mood",
							"type": "string"
						}
					],
					"name": "getScriptHeader",
					"outputs": [
						{
							"internalType": "string",
							"name": "",
							"type": "string"
						}
					],
					"stateMutability": "pure",
					"type": "function"
				}
			],
			"devdoc": {
				"kind": "dev",
				"methods": {},
				"version": 1
			},
			"evm": {
				"assembly": "    /* \"InvertebratesRendererB.sol\":57:18421  contract InvertebratesEngine_2 {... */\n  mstore(0x40, 0x80)\n  callvalue\n  dup1\n  iszero\n  tag_1\n  jumpi\n  0x00\n  dup1\n  revert\ntag_1:\n  pop\n  dataSize(sub_0)\n  dup1\n  dataOffset(sub_0)\n  0x00\n  codecopy\n  0x00\n  return\nstop\n\nsub_0: assembly {\n        /* \"InvertebratesRendererB.sol\":57:18421  contract InvertebratesEngine_2 {... */\n      mstore(0x40, 0x80)\n      callvalue\n      dup1\n      iszero\n      tag_1\n      jumpi\n      0x00\n      dup1\n      revert\n    tag_1:\n      pop\n      jumpi(tag_2, lt(calldatasize, 0x04))\n      shr(0xe0, calldataload(0x00))\n      dup1\n      0x5e9ff849\n      eq\n      tag_3\n      jumpi\n    tag_2:\n      0x00\n      dup1\n      revert\n        /* \"InvertebratesRendererB.sol\":91:18419  function getScriptHeader(uint256 tokenId, uint256 color, bytes32 hash, string memory mood) public pure returns (string memory) {... */\n    tag_3:\n      tag_4\n      0x04\n      dup1\n      calldatasize\n      sub\n      dup2\n      add\n      swap1\n      tag_5\n      swap2\n      swap1\n      tag_6\n      jump\t// in\n    tag_5:\n      tag_7\n      jump\t// in\n    tag_4:\n      mload(0x40)\n      tag_8\n      swap2\n      swap1\n      tag_9\n      jump\t// in\n    tag_8:\n      mload(0x40)\n      dup1\n      swap2\n      sub\n      swap1\n      return\n    tag_7:\n        /* \"InvertebratesRendererB.sol\":203:216  string memory */\n      0x60\n        /* \"InvertebratesRendererB.sol\":317:322  color */\n      dup4\n        /* \"InvertebratesRendererB.sol\":343:347  mood */\n      dup3\n        /* \"InvertebratesRendererB.sol\":371:375  hash */\n      dup5\n        /* \"InvertebratesRendererB.sol\":390:397  tokenId */\n      dup8\n        /* \"InvertebratesRendererB.sol\":242:18411  abi.encodePacked(\"<script type='application/javascript'>let color=colors[\",color,\"],mood=parseInt('\",mood,\"'),tokenData={hash:'\",hash,\"',tokenId:'\",tokenId,\"'},shouldLoadDrawing=!1;const draw=async function(){requestAnimationFrame((function(){addLoader('')})),await new Promise((e=>setTimeout(e,200))),requestAnimationFrame((function(){updateLoader('Loading variables')})),await new Promise((e=>setTimeout(e,200)));const e=new class{constructor(){this.useA=!1;let e=function(e){let n=parseInt(e.substr(0,8),16),t=parseInt(e.substr(8,8),16),o=parseInt(e.substr(16,8),16),a=parseInt(e.substr(24,8),16);return function(){n|=0,t|=0,o|=0,a|=0;let e=(n+t|0)+a|0;return a=a+1|0,n=t^t>>>9,t=o+(o<<3)|0,o=o<<21|o>>>11,o=o+e|0,(e>>>0)/4294967296}};this.prngA=new e(tokenData.hash.substr(2,32)),this.prngB=new e(tokenData.hash.substr(34,32));for(let e=0;e<1e6;e+=2)this.prngA(),this.prngB()}random_dec(){return this.useA=!this.useA,this.useA?this.prngA():this.prngB()}random_num(e,n){return e+(n-e)*this.random_dec()}random_int(e,n){return Math.floor(this.random_num(e,n+1))}random_bool(e){return this.random_dec()<e}random_choice(e){return e[this.random_int(0,e.length-1)]}},n=[{width:100,height:100},{width:3,height:4},{width:9,height:16},{width:1,height:1}];let t=0;const o=document.createElement('style');o.innerHTML='\\nbody {\\n    margin-top: 0;\\n    display: flex;\\n    justify-content: center;\\n    align-items: center;\\n    background-color: #FFFFE1;\\n}\\n\\nsvg {\\n    height: 100vh;\\n    width: 100vw;\\n    padding: 0vmin;\\n    box-shadow: .5vmin .5vmin 1vmin rgba(0, 0, 0, 0.5);\\n    box-sizing: border-box;\\n}\\n',document.head.appendChild(o);const a=document.createElementNS('http://www.w3.org/2000/svg','svg');a.setAttribute('id','mySvg'),a.setAttribute('viewBox','0 0 100 100'),document.body.appendChild(a),setRatio(n,t);let r,i,s,d,c,l,m,u,h,_,y,f,p,g,b,$,w,k,v,x,A,L,S,E,C,F,T,I,B,P,q,R,M,N,D,H=document.getElementById('mySvg'),G=!1,U=0,z='',O=function(){},V=function(){},j=function(e){},W='',K=findNameByColor(color[0].sub(1),colorNames);switch(document.getElementsByTagName('body')[0].style.backgroundColor='#'+color[0],requestAnimationFrame((function(){updateLoader('Loading variables')})),function(){switch(d=e.random_choice([0,2,3,4,2,0]),U=e.random_bool(.5)?e.random_num(-60,60):e.random_int(-5,5),b=e.random_bool(.5),x=e.random_choice([1,-1]),A=e.random_choice([1,-1]),j=function(n){return e.random_choice(color)},mood){case 0:i=1,s=8,g=5,D=100,r=.2,$=.03,l=3,c=e.random_int(800,1100),m=c/l,h=m/2,A*=2,x*=2,u=.06,w=e.random_int(100,800),U=e.random_choice([-45,45]);break;case 1:i=15,s=10,g=6,D=50,r=.025,$=.03,l=e.random_num(2,4),c=e.random_int(800,1200),m=c/l,h=m/e.random_int(6,15),u=.06,w=e.random_int(100,800),U=e.random_choice([-45,45]),b=!0;break;case 2:i=3,s=5,g=6,D=50,r=.045,$=.04,l=e.random_num(2,4),c=e.random_int(800,1200),m=c/l,h=m/20,u=.06,w=e.random_int(100,800),U=e.random_choice([-45,45]),b=!0;break;case 3:i=15,s=2,g=6,D=50,r=.03,$=.04,l=3,c=e.random_int(800,1200),m=c/l,h=m/10,u=.06,U=e.random_choice([-45,45]),w=e.random_int(100,800);break;case 4:i=3,s=3,g=5,D=10,r=.06,$=.009,l=e.random_num(2,4),c=e.random_int(800,1200),m=c/l,h=m/3,u=.06,w=e.random_int(100,800),U=e.random_choice([-45,45]);break;case 5:i=3,s=3,g=10,D=100,r=.04,$=.04,l=e.random_num(2,4),c=e.random_int(800,1200),m=c/l,h=m,u=.06,w=e.random_int(100,800),U=e.random_choice([-45,45]);break;case 6:i=3,s=1,g=10,D=100,r=.04,$=.04,l=e.random_num(2,4),c=e.random_int(800,1200),m=c/l,h=m,u=.06,w=e.random_int(100,800),U=e.random_choice([-45,45]);break;case 7:i=1,s=2,g=5,D=40,r=e.random_choice([.06,.07,.08,.09,.1]),$=e.random_choice([9e-4,8e-4,.001]),l=e.random_num(2,4),c=e.random_int(800,1200),m=c/l,h=2*m,u=.06,w=e.random_int(100,800),U=e.random_choice([-45,45]),d=e.random_choice([0,1,2,3]);break;case 8:i=1,s=1,g=15,D=80,r=.09,$=.04,l=e.random_num(2,4),c=e.random_int(400,500),m=c/l,h=8*m,u=.06,w=e.random_int(100,800),U=e.random_choice([-45,45]);break;case 9:i=9,s=1,g=50,D=e.random_int(50,100),r=.001,$=.06,l=e.random_num(2,4),c=1e3,m=c/l,h=10*m,u=.06,w=e.random_int(300,800),U=e.random_choice([-45,45]);break;case 10:i=5,s=1,g=50,D=e.random_int(80,150),r=.001,$=.09,l=e.random_num(2,4),c=500,m=c/l,h=10*m,u=.06,w=e.random_int(300,800),U=e.random_choice([-45,45]);break;case 11:i=1,s=1,g=5,D=e.random_choice([2,20]),r=.3,$=.09,l=e.random_num(2,4),c=10,m=c/l,h=10*m,u=e.random_dec(),w=e.random_int(300,800),U=e.random_choice([-45,45]),d=e.random_choice([0,1,2]);break;case 12:i=10,s=1,g=20,D=15,r=.1,$=.045,l=e.random_num(2,4),c=e.random_int(800,1100),m=c/l,h=m/10,u=.06,w=e.random_int(100,800);break;case 13:i=3,s=1,g=1,D=e.random_int(50,100),r=.01,$=e.random_num(.06,.09),l=e.random_num(2,4),c=e.random_int(150,200),m=c/l,h=10*m,u=.06,w=e.random_int(300,800),U=e.random_choice([-45,45]);break;case 14:i=3,s=1,g=4,D=40,r=.1,$=.03,l=3,c=e.random_int(700,1100),m=c/l,h=m/e.random_int(2,5),u=.06,w=e.random_int(100,800),U=e.random_choice([-30,30]),A*=3,x*=3,j=function(e){return color[e]};break;case 15:i=3,s=5,g=3,D=30,r=.025,$=.03,l=e.random_num(2,4),c=e.random_int(800,1200),m=c/l,h=m/50,u=.06,w=e.random_int(100,800),U=e.random_choice([-45,45]),b=!0;break;case 16:i=2,s=1,g=3,D=10,r=.015,$=.3,l=e.random_num(2,4),c=e.random_int(800,1200),m=c/l,h=m/100,u=.06,w=e.random_int(100,800),U=e.random_choice([-45,45]),x*=3,A*=3,d=e.random_choice([1,2,3]);break;case 17:i=5,s=2,g=3,D=10,r=.085,$=.5,l=e.random_num(2,4),c=e.random_int(800,1200),m=c/l,h=m/300,u=.06,w=e.random_int(100,800),U=e.random_choice([-45,45]),x*=3,A*=3,d=e.random_choice([1,2,3]);break;case 18:i=1,s=1,g=5,D=100,r=.1,$=.1,l=3,c=e.random_int(800,1100),m=c/l,h=m/2,u=.06,w=e.random_int(100,800),U=e.random_choice([-45,45]);break;case 19:i=10,s=1,g=6,D=10,r=.028,$=.02,l=4,c=e.random_int(800,1100),m=c/l,h=m/3,u=.06,w=e.random_int(100,800),U=e.random_choice([-45,45]);break;case 20:i=15,s=10,g=6,D=100,r=.03,$=.02,l=e.random_num(2,4),c=e.random_int(800,1100),m=c/l,h=m/10,u=.06,w=e.random_int(100,800),U=e.random_choice([-45,45]);break;case 21:i=8,s=1,g=10,D=50,r=.015,$=.02,l=3,c=e.random_int(800,1100),m=c/l,h=m/3,u=.06,w=e.random_int(100,800),U=e.random_choice([-45,45]);break;case 22:i=3,s=15,T=1,g=6,D=10,r=.02,$=.25,I=.01,l=4,c=e.random_int(500,1100),m=c/l,h=m/80,_=m/30,u=.06,w=e.random_int(100,800),U=e.random_choice([-45,45]),G=!0;break;case 23:i=5,s=1,T=10,g=30,D=100,r=.04,$=.1,I=.01,l=3,c=e.random_int(500,1100),m=c/l,h=3*m,_=m/50,u=.06,w=e.random_int(100,800),U=e.random_choice([-45,45]),G=!0;break;case 24:i=1,s=5,T=10,g=10,D=10,r=.01,$=.09,I=.09,l=4,c=e.random_int(800,1100),m=c/l,h=m/100,_=3*m,u=.06,w=e.random_int(100,800),U=e.random_choice([-45,45]),G=!0,d=e.random_choice([2,0]);break;case 25:i=3,s=3,T=10,g=10,D=30,r=.1,$=.01,I=.1,l=5,c=e.random_int(500,1100),m=c/l,h=m,_=m/10,u=.06,w=e.random_int(100,800),U=e.random_choice([-45,45]),G=!0;break;case 26:i=3,s=3,T=6,g=10,D=30,r=.1,$=.01,I=.1,l=5,c=e.random_int(500,1100),m=c/l,h=m,_=m/50,u=.06,w=e.random_int(100,800),U=e.random_choice([-45,45]),G=!0}U+=4===d?e.random_choice([-45,45]):0,$=$||0,s=s||0,P=!1,q=!0,M=e.random_choice([.994,.995,.996,.997,.998]),N=1-e.random_int(1,2)*M+1,L=-50,S=250,E=-100,C=150,v=(C-E)/4,f=e.random_int(E,C),p=e.random_int(0,100),y=e.random_int(1,1e3),W='',R=(C-E)/2,L=e.random_int(-12.5,12.5),console.log('baseFreq',r,'density',g,'strokeWidth',D,'scale',c,'scale2',m,'scale4',_,'densityIncrement',u,'scale divide',l,'numOctaves',i,'numOctaves2',s,'mood',mood,'type',d,'erosion',w,'isVertical',b,'color',color[0],'colorName',K)}(),await new Promise((e=>setTimeout(e,200))),requestAnimationFrame((function(){updateLoader('Loading filters')})),await new Promise((e=>setTimeout(e,200))),W+=' <defs>',W+='<filter id='f0'>',W+=`<feMorphology operator='erode' radius='${w}' />`,W+='</filter>',W+=`\\n      <filter id='f1'>\\n        <feTurbulence type='fractalNoise'\\n                      baseFrequency='${r}' numOctaves='${i}'\\n                      seed='${y}'\\n                      result='turbulence' />\\n        <feTurbulence type='fractalNoise'\\n                      baseFrequency='${$}' numOctaves='${s}'\\n                      seed='${y+1}'\\n                      result='turbulence2' />\\n        <feDisplacementMap in2='turbulence'\\n                           in='SourceGraphic' scale='${m}'\\n                           result='displacement'\\n                           xChannelSelector='A'\\n                           yChannelSelector='A' />\\n        <feDisplacementMap in2='turbulence'\\n                           in='SourceGraphic' scale='${m}'\\n                           result='displacementB'\\n                           xChannelSelector='A'\\n                           yChannelSelector='A' />`,W+=`\\n            <feDisplacementMap in2='turbulence2'\\n                           in='displacement' scale='${h}'\\n                           result='displacement2'\\n                           xChannelSelector='A'\\n                           yChannelSelector='A' />\\n                <feDisplacementMap in2='turbulence2'\\n                           in='displacementB' scale='${h}'\\n                           result='displacementB2'\\n                           xChannelSelector='A'\\n                           yChannelSelector='A' />\\n                           ;`,G&&(W+=`\\n            <feTurbulence type='fractalNoise'\\n                      baseFrequency='${I}' numOctaves='${T}'\\n                      seed='${y}'\\n                      result='turbulence3' />\\n            <feDisplacementMap in2='turbulence3'\\n                           in='displacement' scale='${_}'\\n                           result='displacement3'\\n                           xChannelSelector='B'\\n                           yChannelSelector='A' />\\n                           ;`),W+='\\n      <feBlend in='displacement2' in2='displacement2' result='burn' mode='normal'/>\\n     ',W+='\\n</filter>\\n    </defs>\\n  ',W+=`\\n    \\n  <rect fill='#${color[0]}' x='0' y='0' width='100' height='100' />\\n`,H.innerHTML+=W,requestAnimationFrame((function(){removeAllLoaders(),addLoader('Loading html')})),await new Promise((e=>setTimeout(e,200))),W='',d){case 2:b?(z=`translate(50,50) rotate(${U}) scale(${x} ${A}) translate(-50,-50)`,O=function(e,n,t,o,a){return`<line transform='${z}' filter='url(#${e})' stroke-opacity='.95'  stroke='#${n}' style='stroke-width:${a}' y1='${t}' x1='${o}' x2='${10^t}' y2='${o}' />`}):(z=`translate(50,50) rotate(${U}) scale(${x} ${A}) translate(-50,-50)`,O=function(e,n,t,o,a){return`<line transform='${z}' filter='url(#${e})' stroke-opacity='.95'  stroke='#${n}' style='stroke-width:${a}' x1='${t}' y1='${o}' y2='${10^t}' x2='${o}' />`});break;case 3:b?(z=`translate(50,50) rotate(${U}) scale(${x} ${A}) translate(-50,-50)`,O=function(e,n,t,o,a){return`<line transform='${z}' filter='url(#${e})' stroke-opacity='.95' stroke='#${n}' style='stroke-width:${a}' y1='${t}' x1='${o}' x2='${2*t}' y2='${2*o}' />`}):(z=`translate(50,50) rotate(${U}) scale(${x} ${A}) translate(-50,-50)`,O=function(e,n,t,o,a){return`<line transform='${z}' filter='url(#${e})'stroke-opacity='.95'  stroke='#${n}' style='stroke-width:${a}' x1='${t}' y1='${o}' y2='${2*t}' x2='${2*o}' />`});break;case 4:E-=100,b?(z=`translate(50,50) rotate(${U+e.random_choice([-45,45])}) scale(${x} ${A}) translate(-50,-50)`,O=function(e,n,t,o,a){return`<line transform='${z}'  filter='url(#${e})' stroke-opacity='.95'  stroke='#${n}' style='stroke-width:${a}' y1='${t}' x1='${o}' x2='${t+100}' y2='${o}' />`}):(z=`translate(50,50) rotate(${U+e.random_choice([-45,45])}) scale(${x} ${A}) translate(-50,-50)`,O=function(e,n,t,o,a){return`<line transform='${z}'   filter='url(#${e})' stroke-opacity='.95'  stroke='#${n}' style='stroke-width:${a}' x1='${t}' y1='${o}' y2='${t+100}' x2='${o}' />`});break;default:b?(z=`translate(50,50) rotate(${U}) scale(${x} ${A}) translate(-50,-50)`,O=function(e,n,t,o,a){return`<line transform='${z}'  filter='url(#${e})'stroke-opacity='.95'  stroke='#${n}' style='stroke-width:${a}' y1='${t}' x1='${o}' x2='${t}' y2='${o}' />`}):(z=`translate(50,50) rotate(${U}) scale(${x} ${A}) translate(-50,-50)`,O=function(e,n,t,o,a){return`<line transform='${z}'  filter='url(#${e})'stroke-opacity='.95'  stroke='#${n}' style='stroke-width:${a}' x1='${t}' y1='${o}' y2='${t}' x2='${o}' />`})}e.random_bool(.4)?V=function(e){D*=e<R?-M:-N}:(L=e.random_int(10,100/3.5),N=e.random_int(4,12),V=function(e){D*=M}),F=0,k=0;for(let n=L;n<=S;n+=g){F++,F>=color.length&&(F=0),g+=u,B=j(F);for(let t=0;t<2;t++){let o=n,a=`f${t}`;for(let n=E;n<C;n+=v)k++,V(n),W+=O(a,B,n,o,e.random_num(0,D),color[Math.abs(F-1)])}}W+=`<rect fill='#${color[0]}' x='0' y='${S+g}' width='100' height='100' />`,requestAnimationFrame((function(){updateLoader('Rendering SVG, this can take a few seconds')})),await new Promise((e=>setTimeout(e,200))),requestAnimationFrame((function(){H.innerHTML+=W})),requestAnimationFrame((function(){removeAllLoaders()})),document.addEventListener('keydown',(async function(e){if('s'===e.key||'S'===e.key){requestAnimationFrame((function(){addLoader('Saving SVG')})),await new Promise((e=>setTimeout(e,200)));const e=document.getElementById('mySvg'),n=document.createElement('style');n.textContent=`\\n    svg {\\n      width: 100vw;\\n      height: 100vh;\\n      padding: 0vmin;\\n      box-shadow: .5vmin .5vmin 1vmin rgba(0, 0, 0, 0.5);\\n      box-sizing: border-box;\\n    }\\n    \\x3c!-- If you want to display the SVG as it was in the generator, just put it into the <body> of an html page and add this styling --\\x3e\\n    body {\\n      display: flex;\\n      justify-content: center;\\n      align-items: center;\\n      background-color: #${color[0]};\\n    }\\n  `,e.prepend(n);const t=new XMLSerializer,o=new Blob([t.serializeToString(e)],{type:'image/svg+xml'}),a=URL.createObjectURL(o);document.write(e);const r=document.createElement('a');r.href=a,r.download='_________.svg',document.body.appendChild(r),r.click(),document.body.removeChild(r),URL.revokeObjectURL(a),removeAllLoaders()}})),document.addEventListener('keydown',(async function(e){requestAnimationFrame((function(){addLoader('Loading new aspect ratio')})),await new Promise((e=>setTimeout(e,200))),'ArrowRight'===e.key?t=(t+1)%n.length:'ArrowLeft'===e.key&&(t=(t-1+n.length)%n.length),setRatio(n,t),removeAllLoaders()})),H.addEventListener('touchend',(async function(e){requestAnimationFrame((function(){addLoader('Loading new aspect ratio')})),await new Promise((e=>setTimeout(e,200))),t=(t+1)%n.length;const o=n[t];document.getElementById('mySvg'),doRatio(o,document.getElementById('mySvg')),removeAllLoaders()}))};function doRatio(e,n){100===e.width&&100===e.height?(n.style.width='100vw',n.style.height='100vh'):e.width/e.height>1?(n.style.width='100vw',n.style.height=`calc(100vw * (${e.height} / ${e.width}))`):(n.style.height='100vh',n.style.width=`calc(100vh * (${e.width} / ${e.height}))`)}function findNameByColor(e,n){for(let t=0;t<n.length;t++)if(n[t].color===e)return n[t].name}function setRatio(e,n){doRatio(e[n],document.getElementById('mySvg'))}let isLoaded=!1;function isSafari(){return'undefined'!=typeof navigator&&null!=navigator&&/^((?!chrome|android).)*safari/i.test(navigator?.userAgent)}function removeAllLoaders(){document.querySelectorAll('.loader-container').forEach((e=>{e.parentNode.removeChild(e)}))}function addLoader(e){let n=document.createElement('div');n.className='loader-container',n.style.position='absolute',n.style.left='50%',n.style.top='50%',n.style.transform='translate(-50%, -50%)';const t=document.createElement('div');let o;if(t.innerText=e+'...',t.style.color='#FFFFFF',t.style.border='#000000',t.style.fontFamily='Helvetica, Arial, sans-serif',t.style.fontSize='14px',t.style.width='max-content',t.style.display='inline-block',t.className='loading-text',t.id='loader-text',n.appendChild(t),document.body.appendChild(n),document.styleSheets.length>0)o=document.styleSheets[0];else{const e=document.createElement('style');document.head.appendChild(e),o=e.sheet}o.insertRule('\\n    @keyframes spin {\\n        0% { transform: rotate(0deg); }\\n        100% { transform: rotate(360deg); }\\n    }\\n    ',o.cssRules.length)}function updateLoader(e){document.querySelectorAll('.loading-text').forEach((n=>{n.innerText=e+'...'}))}function addPotentialPopup(){var e=document.createElement('div');e.id='safari-popup',e.style='display: none; position: fixed; top: 50%; left: 50%; transform: translate(-50%, -50%); background-color: white; padding: 20px; border: 1px solid #ccc; z-index: 1000;',e.innerHTML='<p>We have detected you are using the web broser Safari. Safari currently uses <a target='_blank' href='https://en.wikipedia.org/wiki/Comparison_of_browser_engines'>WebKit</a>, which can have large memory leaks when loading SVGs with filters, making the system unresponsive. This <a target='_blank' href='https://bugs.webkit.org/show_bug.cgi?id=218422'>issue</a> has been reported to WebKit. I recommend <a target='_blank' href='https://en.wikipedia.org/wiki/Comparison_of_browser_engines'>Blink</a> based browsers (as of 2024) like Google Chrome and Microsoft Edge. If you would like to continue, knowing that Safari may have issues, or believing that Safari now correctly supports SVG files, you may.</p><button onclick='closePopup()'>I understand and wish to continue at my own risk.</button>',document.body.appendChild(e)}function closePopup(){var e=document.getElementById('safari-popup'),n=document.getElementById('safari-banner');e&&(shouldLoadDrawing=!0,e.style.display='none',n.style.display='none')}setInterval((function(){if(!isLoaded){isLoaded=!0,requestAnimationFrame(addPotentialPopup),requestAnimationFrame((function(){if(isSafari()){const e=document.createElement('div');e.style.position='fixed',e.style.bottom='0',e.style.left='0',e.style.width='100%',e.style.backgroundColor='red',e.style.color='white',e.style.textAlign='center',e.style.padding='10px',e.style.zIndex='1000',e.className='safari-banner',document.body.appendChild(e),document.getElementById('safari-popup').style.display='block'}else shouldLoadDrawing=!0}));let e=setInterval((function(){shouldLoadDrawing&&async function(){clearInterval(e),await new Promise((e=>setTimeout(e,200))),await draw()}()}),100)}}),1e3);</script></head>\") */\n      add(0x20, mload(0x40))\n      tag_11\n      swap5\n      swap4\n      swap3\n      swap2\n      swap1\n      tag_12\n      jump\t// in\n    tag_11:\n      mload(0x40)\n      0x20\n      dup2\n      dup4\n      sub\n      sub\n      dup2\n      mstore\n      swap1\n      0x40\n      mstore\n        /* \"InvertebratesRendererB.sol\":228:18412  return string(abi.encodePacked(\"<script type='application/javascript'>let color=colors[\",color,\"],mood=parseInt('\",mood,\"'),tokenData={hash:'\",hash,\"',tokenId:'\",tokenId,\"'},shouldLoadDrawing=!1;const draw=async function(){requestAnimationFrame((function(){addLoader('')})),await new Promise((e=>setTimeout(e,200))),requestAnimationFrame((function(){updateLoader('Loading variables')})),await new Promise((e=>setTimeout(e,200)));const e=new class{constructor(){this.useA=!1;let e=function(e){let n=parseInt(e.substr(0,8),16),t=parseInt(e.substr(8,8),16),o=parseInt(e.substr(16,8),16),a=parseInt(e.substr(24,8),16);return function(){n|=0,t|=0,o|=0,a|=0;let e=(n+t|0)+a|0;return a=a+1|0,n=t^t>>>9,t=o+(o<<3)|0,o=o<<21|o>>>11,o=o+e|0,(e>>>0)/4294967296}};this.prngA=new e(tokenData.hash.substr(2,32)),this.prngB=new e(tokenData.hash.substr(34,32));for(let e=0;e<1e6;e+=2)this.prngA(),this.prngB()}random_dec(){return this.useA=!this.useA,this.useA?this.prngA():this.prngB()}random_num(e,n){return e+(n-e)*this.random_dec()}random_int(e,n){return Math.floor(this.random_num(e,n+1))}random_bool(e){return this.random_dec()<e}random_choice(e){return e[this.random_int(0,e.length-1)]}},n=[{width:100,height:100},{width:3,height:4},{width:9,height:16},{width:1,height:1}];let t=0;const o=document.createElement('style');o.innerHTML='\\nbody {\\n    margin-top: 0;\\n    display: flex;\\n    justify-content: center;\\n    align-items: center;\\n    background-color: #FFFFE1;\\n}\\n\\nsvg {\\n    height: 100vh;\\n    width: 100vw;\\n    padding: 0vmin;\\n    box-shadow: .5vmin .5vmin 1vmin rgba(0, 0, 0, 0.5);\\n    box-sizing: border-box;\\n}\\n',document.head.appendChild(o);const a=document.createElementNS('http://www.w3.org/2000/svg','svg');a.setAttribute('id','mySvg'),a.setAttribute('viewBox','0 0 100 100'),document.body.appendChild(a),setRatio(n,t);let r,i,s,d,c,l,m,u,h,_,y,f,p,g,b,$,w,k,v,x,A,L,S,E,C,F,T,I,B,P,q,R,M,N,D,H=document.getElementById('mySvg'),G=!1,U=0,z='',O=function(){},V=function(){},j=function(e){},W='',K=findNameByColor(color[0].sub(1),colorNames);switch(document.getElementsByTagName('body')[0].style.backgroundColor='#'+color[0],requestAnimationFrame((function(){updateLoader('Loading variables')})),function(){switch(d=e.random_choice([0,2,3,4,2,0]),U=e.random_bool(.5)?e.random_num(-60,60):e.random_int(-5,5),b=e.random_bool(.5),x=e.random_choice([1,-1]),A=e.random_choice([1,-1]),j=function(n){return e.random_choice(color)},mood){case 0:i=1,s=8,g=5,D=100,r=.2,$=.03,l=3,c=e.random_int(800,1100),m=c/l,h=m/2,A*=2,x*=2,u=.06,w=e.random_int(100,800),U=e.random_choice([-45,45]);break;case 1:i=15,s=10,g=6,D=50,r=.025,$=.03,l=e.random_num(2,4),c=e.random_int(800,1200),m=c/l,h=m/e.random_int(6,15),u=.06,w=e.random_int(100,800),U=e.random_choice([-45,45]),b=!0;break;case 2:i=3,s=5,g=6,D=50,r=.045,$=.04,l=e.random_num(2,4),c=e.random_int(800,1200),m=c/l,h=m/20,u=.06,w=e.random_int(100,800),U=e.random_choice([-45,45]),b=!0;break;case 3:i=15,s=2,g=6,D=50,r=.03,$=.04,l=3,c=e.random_int(800,1200),m=c/l,h=m/10,u=.06,U=e.random_choice([-45,45]),w=e.random_int(100,800);break;case 4:i=3,s=3,g=5,D=10,r=.06,$=.009,l=e.random_num(2,4),c=e.random_int(800,1200),m=c/l,h=m/3,u=.06,w=e.random_int(100,800),U=e.random_choice([-45,45]);break;case 5:i=3,s=3,g=10,D=100,r=.04,$=.04,l=e.random_num(2,4),c=e.random_int(800,1200),m=c/l,h=m,u=.06,w=e.random_int(100,800),U=e.random_choice([-45,45]);break;case 6:i=3,s=1,g=10,D=100,r=.04,$=.04,l=e.random_num(2,4),c=e.random_int(800,1200),m=c/l,h=m,u=.06,w=e.random_int(100,800),U=e.random_choice([-45,45]);break;case 7:i=1,s=2,g=5,D=40,r=e.random_choice([.06,.07,.08,.09,.1]),$=e.random_choice([9e-4,8e-4,.001]),l=e.random_num(2,4),c=e.random_int(800,1200),m=c/l,h=2*m,u=.06,w=e.random_int(100,800),U=e.random_choice([-45,45]),d=e.random_choice([0,1,2,3]);break;case 8:i=1,s=1,g=15,D=80,r=.09,$=.04,l=e.random_num(2,4),c=e.random_int(400,500),m=c/l,h=8*m,u=.06,w=e.random_int(100,800),U=e.random_choice([-45,45]);break;case 9:i=9,s=1,g=50,D=e.random_int(50,100),r=.001,$=.06,l=e.random_num(2,4),c=1e3,m=c/l,h=10*m,u=.06,w=e.random_int(300,800),U=e.random_choice([-45,45]);break;case 10:i=5,s=1,g=50,D=e.random_int(80,150),r=.001,$=.09,l=e.random_num(2,4),c=500,m=c/l,h=10*m,u=.06,w=e.random_int(300,800),U=e.random_choice([-45,45]);break;case 11:i=1,s=1,g=5,D=e.random_choice([2,20]),r=.3,$=.09,l=e.random_num(2,4),c=10,m=c/l,h=10*m,u=e.random_dec(),w=e.random_int(300,800),U=e.random_choice([-45,45]),d=e.random_choice([0,1,2]);break;case 12:i=10,s=1,g=20,D=15,r=.1,$=.045,l=e.random_num(2,4),c=e.random_int(800,1100),m=c/l,h=m/10,u=.06,w=e.random_int(100,800);break;case 13:i=3,s=1,g=1,D=e.random_int(50,100),r=.01,$=e.random_num(.06,.09),l=e.random_num(2,4),c=e.random_int(150,200),m=c/l,h=10*m,u=.06,w=e.random_int(300,800),U=e.random_choice([-45,45]);break;case 14:i=3,s=1,g=4,D=40,r=.1,$=.03,l=3,c=e.random_int(700,1100),m=c/l,h=m/e.random_int(2,5),u=.06,w=e.random_int(100,800),U=e.random_choice([-30,30]),A*=3,x*=3,j=function(e){return color[e]};break;case 15:i=3,s=5,g=3,D=30,r=.025,$=.03,l=e.random_num(2,4),c=e.random_int(800,1200),m=c/l,h=m/50,u=.06,w=e.random_int(100,800),U=e.random_choice([-45,45]),b=!0;break;case 16:i=2,s=1,g=3,D=10,r=.015,$=.3,l=e.random_num(2,4),c=e.random_int(800,1200),m=c/l,h=m/100,u=.06,w=e.random_int(100,800),U=e.random_choice([-45,45]),x*=3,A*=3,d=e.random_choice([1,2,3]);break;case 17:i=5,s=2,g=3,D=10,r=.085,$=.5,l=e.random_num(2,4),c=e.random_int(800,1200),m=c/l,h=m/300,u=.06,w=e.random_int(100,800),U=e.random_choice([-45,45]),x*=3,A*=3,d=e.random_choice([1,2,3]);break;case 18:i=1,s=1,g=5,D=100,r=.1,$=.1,l=3,c=e.random_int(800,1100),m=c/l,h=m/2,u=.06,w=e.random_int(100,800),U=e.random_choice([-45,45]);break;case 19:i=10,s=1,g=6,D=10,r=.028,$=.02,l=4,c=e.random_int(800,1100),m=c/l,h=m/3,u=.06,w=e.random_int(100,800),U=e.random_choice([-45,45]);break;case 20:i=15,s=10,g=6,D=100,r=.03,$=.02,l=e.random_num(2,4),c=e.random_int(800,1100),m=c/l,h=m/10,u=.06,w=e.random_int(100,800),U=e.random_choice([-45,45]);break;case 21:i=8,s=1,g=10,D=50,r=.015,$=.02,l=3,c=e.random_int(800,1100),m=c/l,h=m/3,u=.06,w=e.random_int(100,800),U=e.random_choice([-45,45]);break;case 22:i=3,s=15,T=1,g=6,D=10,r=.02,$=.25,I=.01,l=4,c=e.random_int(500,1100),m=c/l,h=m/80,_=m/30,u=.06,w=e.random_int(100,800),U=e.random_choice([-45,45]),G=!0;break;case 23:i=5,s=1,T=10,g=30,D=100,r=.04,$=.1,I=.01,l=3,c=e.random_int(500,1100),m=c/l,h=3*m,_=m/50,u=.06,w=e.random_int(100,800),U=e.random_choice([-45,45]),G=!0;break;case 24:i=1,s=5,T=10,g=10,D=10,r=.01,$=.09,I=.09,l=4,c=e.random_int(800,1100),m=c/l,h=m/100,_=3*m,u=.06,w=e.random_int(100,800),U=e.random_choice([-45,45]),G=!0,d=e.random_choice([2,0]);break;case 25:i=3,s=3,T=10,g=10,D=30,r=.1,$=.01,I=.1,l=5,c=e.random_int(500,1100),m=c/l,h=m,_=m/10,u=.06,w=e.random_int(100,800),U=e.random_choice([-45,45]),G=!0;break;case 26:i=3,s=3,T=6,g=10,D=30,r=.1,$=.01,I=.1,l=5,c=e.random_int(500,1100),m=c/l,h=m,_=m/50,u=.06,w=e.random_int(100,800),U=e.random_choice([-45,45]),G=!0}U+=4===d?e.random_choice([-45,45]):0,$=$||0,s=s||0,P=!1,q=!0,M=e.random_choice([.994,.995,.996,.997,.998]),N=1-e.random_int(1,2)*M+1,L=-50,S=250,E=-100,C=150,v=(C-E)/4,f=e.random_int(E,C),p=e.random_int(0,100),y=e.random_int(1,1e3),W='',R=(C-E)/2,L=e.random_int(-12.5,12.5),console.log('baseFreq',r,'density',g,'strokeWidth',D,'scale',c,'scale2',m,'scale4',_,'densityIncrement',u,'scale divide',l,'numOctaves',i,'numOctaves2',s,'mood',mood,'type',d,'erosion',w,'isVertical',b,'color',color[0],'colorName',K)}(),await new Promise((e=>setTimeout(e,200))),requestAnimationFrame((function(){updateLoader('Loading filters')})),await new Promise((e=>setTimeout(e,200))),W+=' <defs>',W+='<filter id='f0'>',W+=`<feMorphology operator='erode' radius='${w}' />`,W+='</filter>',W+=`\\n      <filter id='f1'>\\n        <feTurbulence type='fractalNoise'\\n                      baseFrequency='${r}' numOctaves='${i}'\\n                      seed='${y}'\\n                      result='turbulence' />\\n        <feTurbulence type='fractalNoise'\\n                      baseFrequency='${$}' numOctaves='${s}'\\n                      seed='${y+1}'\\n                      result='turbulence2' />\\n        <feDisplacementMap in2='turbulence'\\n                           in='SourceGraphic' scale='${m}'\\n                           result='displacement'\\n                           xChannelSelector='A'\\n                           yChannelSelector='A' />\\n        <feDisplacementMap in2='turbulence'\\n                           in='SourceGraphic' scale='${m}'\\n                           result='displacementB'\\n                           xChannelSelector='A'\\n                           yChannelSelector='A' />`,W+=`\\n            <feDisplacementMap in2='turbulence2'\\n                           in='displacement' scale='${h}'\\n                           result='displacement2'\\n                           xChannelSelector='A'\\n                           yChannelSelector='A' />\\n                <feDisplacementMap in2='turbulence2'\\n                           in='displacementB' scale='${h}'\\n                           result='displacementB2'\\n                           xChannelSelector='A'\\n                           yChannelSelector='A' />\\n                           ;`,G&&(W+=`\\n            <feTurbulence type='fractalNoise'\\n                      baseFrequency='${I}' numOctaves='${T}'\\n                      seed='${y}'\\n                      result='turbulence3' />\\n            <feDisplacementMap in2='turbulence3'\\n                           in='displacement' scale='${_}'\\n                           result='displacement3'\\n                           xChannelSelector='B'\\n                           yChannelSelector='A' />\\n                           ;`),W+='\\n      <feBlend in='displacement2' in2='displacement2' result='burn' mode='normal'/>\\n     ',W+='\\n</filter>\\n    </defs>\\n  ',W+=`\\n    \\n  <rect fill='#${color[0]}' x='0' y='0' width='100' height='100' />\\n`,H.innerHTML+=W,requestAnimationFrame((function(){removeAllLoaders(),addLoader('Loading html')})),await new Promise((e=>setTimeout(e,200))),W='',d){case 2:b?(z=`translate(50,50) rotate(${U}) scale(${x} ${A}) translate(-50,-50)`,O=function(e,n,t,o,a){return`<line transform='${z}' filter='url(#${e})' stroke-opacity='.95'  stroke='#${n}' style='stroke-width:${a}' y1='${t}' x1='${o}' x2='${10^t}' y2='${o}' />`}):(z=`translate(50,50) rotate(${U}) scale(${x} ${A}) translate(-50,-50)`,O=function(e,n,t,o,a){return`<line transform='${z}' filter='url(#${e})' stroke-opacity='.95'  stroke='#${n}' style='stroke-width:${a}' x1='${t}' y1='${o}' y2='${10^t}' x2='${o}' />`});break;case 3:b?(z=`translate(50,50) rotate(${U}) scale(${x} ${A}) translate(-50,-50)`,O=function(e,n,t,o,a){return`<line transform='${z}' filter='url(#${e})' stroke-opacity='.95' stroke='#${n}' style='stroke-width:${a}' y1='${t}' x1='${o}' x2='${2*t}' y2='${2*o}' />`}):(z=`translate(50,50) rotate(${U}) scale(${x} ${A}) translate(-50,-50)`,O=function(e,n,t,o,a){return`<line transform='${z}' filter='url(#${e})'stroke-opacity='.95'  stroke='#${n}' style='stroke-width:${a}' x1='${t}' y1='${o}' y2='${2*t}' x2='${2*o}' />`});break;case 4:E-=100,b?(z=`translate(50,50) rotate(${U+e.random_choice([-45,45])}) scale(${x} ${A}) translate(-50,-50)`,O=function(e,n,t,o,a){return`<line transform='${z}'  filter='url(#${e})' stroke-opacity='.95'  stroke='#${n}' style='stroke-width:${a}' y1='${t}' x1='${o}' x2='${t+100}' y2='${o}' />`}):(z=`translate(50,50) rotate(${U+e.random_choice([-45,45])}) scale(${x} ${A}) translate(-50,-50)`,O=function(e,n,t,o,a){return`<line transform='${z}'   filter='url(#${e})' stroke-opacity='.95'  stroke='#${n}' style='stroke-width:${a}' x1='${t}' y1='${o}' y2='${t+100}' x2='${o}' />`});break;default:b?(z=`translate(50,50) rotate(${U}) scale(${x} ${A}) translate(-50,-50)`,O=function(e,n,t,o,a){return`<line transform='${z}'  filter='url(#${e})'stroke-opacity='.95'  stroke='#${n}' style='stroke-width:${a}' y1='${t}' x1='${o}' x2='${t}' y2='${o}' />`}):(z=`translate(50,50) rotate(${U}) scale(${x} ${A}) translate(-50,-50)`,O=function(e,n,t,o,a){return`<line transform='${z}'  filter='url(#${e})'stroke-opacity='.95'  stroke='#${n}' style='stroke-width:${a}' x1='${t}' y1='${o}' y2='${t}' x2='${o}' />`})}e.random_bool(.4)?V=function(e){D*=e<R?-M:-N}:(L=e.random_int(10,100/3.5),N=e.random_int(4,12),V=function(e){D*=M}),F=0,k=0;for(let n=L;n<=S;n+=g){F++,F>=color.length&&(F=0),g+=u,B=j(F);for(let t=0;t<2;t++){let o=n,a=`f${t}`;for(let n=E;n<C;n+=v)k++,V(n),W+=O(a,B,n,o,e.random_num(0,D),color[Math.abs(F-1)])}}W+=`<rect fill='#${color[0]}' x='0' y='${S+g}' width='100' height='100' />`,requestAnimationFrame((function(){updateLoader('Rendering SVG, this can take a few seconds')})),await new Promise((e=>setTimeout(e,200))),requestAnimationFrame((function(){H.innerHTML+=W})),requestAnimationFrame((function(){removeAllLoaders()})),document.addEventListener('keydown',(async function(e){if('s'===e.key||'S'===e.key){requestAnimationFrame((function(){addLoader('Saving SVG')})),await new Promise((e=>setTimeout(e,200)));const e=document.getElementById('mySvg'),n=document.createElement('style');n.textContent=`\\n    svg {\\n      width: 100vw;\\n      height: 100vh;\\n      padding: 0vmin;\\n      box-shadow: .5vmin .5vmin 1vmin rgba(0, 0, 0, 0.5);\\n      box-sizing: border-box;\\n    }\\n    \\x3c!-- If you want to display the SVG as it was in the generator, just put it into the <body> of an html page and add this styling --\\x3e\\n    body {\\n      display: flex;\\n      justify-content: center;\\n      align-items: center;\\n      background-color: #${color[0]};\\n    }\\n  `,e.prepend(n);const t=new XMLSerializer,o=new Blob([t.serializeToString(e)],{type:'image/svg+xml'}),a=URL.createObjectURL(o);document.write(e);const r=document.createElement('a');r.href=a,r.download='_________.svg',document.body.appendChild(r),r.click(),document.body.removeChild(r),URL.revokeObjectURL(a),removeAllLoaders()}})),document.addEventListener('keydown',(async function(e){requestAnimationFrame((function(){addLoader('Loading new aspect ratio')})),await new Promise((e=>setTimeout(e,200))),'ArrowRight'===e.key?t=(t+1)%n.length:'ArrowLeft'===e.key&&(t=(t-1+n.length)%n.length),setRatio(n,t),removeAllLoaders()})),H.addEventListener('touchend',(async function(e){requestAnimationFrame((function(){addLoader('Loading new aspect ratio')})),await new Promise((e=>setTimeout(e,200))),t=(t+1)%n.length;const o=n[t];document.getElementById('mySvg'),doRatio(o,document.getElementById('mySvg')),removeAllLoaders()}))};function doRatio(e,n){100===e.width&&100===e.height?(n.style.width='100vw',n.style.height='100vh'):e.width/e.height>1?(n.style.width='100vw',n.style.height=`calc(100vw * (${e.height} / ${e.width}))`):(n.style.height='100vh',n.style.width=`calc(100vh * (${e.width} / ${e.height}))`)}function findNameByColor(e,n){for(let t=0;t<n.length;t++)if(n[t].color===e)return n[t].name}function setRatio(e,n){doRatio(e[n],document.getElementById('mySvg'))}let isLoaded=!1;function isSafari(){return'undefined'!=typeof navigator&&null!=navigator&&/^((?!chrome|android).)*safari/i.test(navigator?.userAgent)}function removeAllLoaders(){document.querySelectorAll('.loader-container').forEach((e=>{e.parentNode.removeChild(e)}))}function addLoader(e){let n=document.createElement('div');n.className='loader-container',n.style.position='absolute',n.style.left='50%',n.style.top='50%',n.style.transform='translate(-50%, -50%)';const t=document.createElement('div');let o;if(t.innerText=e+'...',t.style.color='#FFFFFF',t.style.border='#000000',t.style.fontFamily='Helvetica, Arial, sans-serif',t.style.fontSize='14px',t.style.width='max-content',t.style.display='inline-block',t.className='loading-text',t.id='loader-text',n.appendChild(t),document.body.appendChild(n),document.styleSheets.length>0)o=document.styleSheets[0];else{const e=document.createElement('style');document.head.appendChild(e),o=e.sheet}o.insertRule('\\n    @keyframes spin {\\n        0% { transform: rotate(0deg); }\\n        100% { transform: rotate(360deg); }\\n    }\\n    ',o.cssRules.length)}function updateLoader(e){document.querySelectorAll('.loading-text').forEach((n=>{n.innerText=e+'...'}))}function addPotentialPopup(){var e=document.createElement('div');e.id='safari-popup',e.style='display: none; position: fixed; top: 50%; left: 50%; transform: translate(-50%, -50%); background-color: white; padding: 20px; border: 1px solid #ccc; z-index: 1000;',e.innerHTML='<p>We have detected you are using the web broser Safari. Safari currently uses <a target='_blank' href='https://en.wikipedia.org/wiki/Comparison_of_browser_engines'>WebKit</a>, which can have large memory leaks when loading SVGs with filters, making the system unresponsive. This <a target='_blank' href='https://bugs.webkit.org/show_bug.cgi?id=218422'>issue</a> has been reported to WebKit. I recommend <a target='_blank' href='https://en.wikipedia.org/wiki/Comparison_of_browser_engines'>Blink</a> based browsers (as of 2024) like Google Chrome and Microsoft Edge. If you would like to continue, knowing that Safari may have issues, or believing that Safari now correctly supports SVG files, you may.</p><button onclick='closePopup()'>I understand and wish to continue at my own risk.</button>',document.body.appendChild(e)}function closePopup(){var e=document.getElementById('safari-popup'),n=document.getElementById('safari-banner');e&&(shouldLoadDrawing=!0,e.style.display='none',n.style.display='none')}setInterval((function(){if(!isLoaded){isLoaded=!0,requestAnimationFrame(addPotentialPopup),requestAnimationFrame((function(){if(isSafari()){const e=document.createElement('div');e.style.position='fixed',e.style.bottom='0',e.style.left='0',e.style.width='100%',e.style.backgroundColor='red',e.style.color='white',e.style.textAlign='center',e.style.padding='10px',e.style.zIndex='1000',e.className='safari-banner',document.body.appendChild(e),document.getElementById('safari-popup').style.display='block'}else shouldLoadDrawing=!0}));let e=setInterval((function(){shouldLoadDrawing&&async function(){clearInterval(e),await new Promise((e=>setTimeout(e,200))),await draw()}()}),100)}}),1e3);</script></head>\")) */\n      swap1\n      pop\n        /* \"InvertebratesRendererB.sol\":91:18419  function getScriptHeader(uint256 tokenId, uint256 color, bytes32 hash, string memory mood) public pure returns (string memory) {... */\n      swap5\n      swap4\n      pop\n      pop\n      pop\n      pop\n      jump\t// out\n        /* \"#utility.yul\":7:82   */\n    tag_13:\n        /* \"#utility.yul\":40:46   */\n      0x00\n        /* \"#utility.yul\":73:75   */\n      0x40\n        /* \"#utility.yul\":67:76   */\n      mload\n        /* \"#utility.yul\":57:76   */\n      swap1\n      pop\n        /* \"#utility.yul\":7:82   */\n      swap1\n      jump\t// out\n        /* \"#utility.yul\":88:205   */\n    tag_14:\n        /* \"#utility.yul\":197:198   */\n      0x00\n        /* \"#utility.yul\":194:195   */\n      dup1\n        /* \"#utility.yul\":187:199   */\n      revert\n        /* \"#utility.yul\":211:328   */\n    tag_15:\n        /* \"#utility.yul\":320:321   */\n      0x00\n        /* \"#utility.yul\":317:318   */\n      dup1\n        /* \"#utility.yul\":310:322   */\n      revert\n        /* \"#utility.yul\":334:411   */\n    tag_16:\n        /* \"#utility.yul\":371:378   */\n      0x00\n        /* \"#utility.yul\":400:405   */\n      dup2\n        /* \"#utility.yul\":389:405   */\n      swap1\n      pop\n        /* \"#utility.yul\":334:411   */\n      swap2\n      swap1\n      pop\n      jump\t// out\n        /* \"#utility.yul\":417:539   */\n    tag_17:\n        /* \"#utility.yul\":490:514   */\n      tag_58\n        /* \"#utility.yul\":508:513   */\n      dup2\n        /* \"#utility.yul\":490:514   */\n      tag_16\n      jump\t// in\n    tag_58:\n        /* \"#utility.yul\":483:488   */\n      dup2\n        /* \"#utility.yul\":480:515   */\n      eq\n        /* \"#utility.yul\":470:533   */\n      tag_59\n      jumpi\n        /* \"#utility.yul\":529:530   */\n      0x00\n        /* \"#utility.yul\":526:527   */\n      dup1\n        /* \"#utility.yul\":519:531   */\n      revert\n        /* \"#utility.yul\":470:533   */\n    tag_59:\n        /* \"#utility.yul\":417:539   */\n      pop\n      jump\t// out\n        /* \"#utility.yul\":545:684   */\n    tag_18:\n        /* \"#utility.yul\":591:596   */\n      0x00\n        /* \"#utility.yul\":629:635   */\n      dup2\n        /* \"#utility.yul\":616:636   */\n      calldataload\n        /* \"#utility.yul\":607:636   */\n      swap1\n      pop\n        /* \"#utility.yul\":645:678   */\n      tag_61\n        /* \"#utility.yul\":672:677   */\n      dup2\n        /* \"#utility.yul\":645:678   */\n      tag_17\n      jump\t// in\n    tag_61:\n        /* \"#utility.yul\":545:684   */\n      swap3\n      swap2\n      pop\n      pop\n      jump\t// out\n        /* \"#utility.yul\":690:767   */\n    tag_19:\n        /* \"#utility.yul\":727:734   */\n      0x00\n        /* \"#utility.yul\":756:761   */\n      dup2\n        /* \"#utility.yul\":745:761   */\n      swap1\n      pop\n        /* \"#utility.yul\":690:767   */\n      swap2\n      swap1\n      pop\n      jump\t// out\n        /* \"#utility.yul\":773:895   */\n    tag_20:\n        /* \"#utility.yul\":846:870   */\n      tag_64\n        /* \"#utility.yul\":864:869   */\n      dup2\n        /* \"#utility.yul\":846:870   */\n      tag_19\n      jump\t// in\n    tag_64:\n        /* \"#utility.yul\":839:844   */\n      dup2\n        /* \"#utility.yul\":836:871   */\n      eq\n        /* \"#utility.yul\":826:889   */\n      tag_65\n      jumpi\n        /* \"#utility.yul\":885:886   */\n      0x00\n        /* \"#utility.yul\":882:883   */\n      dup1\n        /* \"#utility.yul\":875:887   */\n      revert\n        /* \"#utility.yul\":826:889   */\n    tag_65:\n        /* \"#utility.yul\":773:895   */\n      pop\n      jump\t// out\n        /* \"#utility.yul\":901:1040   */\n    tag_21:\n        /* \"#utility.yul\":947:952   */\n      0x00\n        /* \"#utility.yul\":985:991   */\n      dup2\n        /* \"#utility.yul\":972:992   */\n      calldataload\n        /* \"#utility.yul\":963:992   */\n      swap1\n      pop\n        /* \"#utility.yul\":1001:1034   */\n      tag_67\n        /* \"#utility.yul\":1028:1033   */\n      dup2\n        /* \"#utility.yul\":1001:1034   */\n      tag_20\n      jump\t// in\n    tag_67:\n        /* \"#utility.yul\":901:1040   */\n      swap3\n      swap2\n      pop\n      pop\n      jump\t// out\n        /* \"#utility.yul\":1046:1163   */\n    tag_22:\n        /* \"#utility.yul\":1155:1156   */\n      0x00\n        /* \"#utility.yul\":1152:1153   */\n      dup1\n        /* \"#utility.yul\":1145:1157   */\n      revert\n        /* \"#utility.yul\":1169:1286   */\n    tag_23:\n        /* \"#utility.yul\":1278:1279   */\n      0x00\n        /* \"#utility.yul\":1275:1276   */\n      dup1\n        /* \"#utility.yul\":1268:1280   */\n      revert\n        /* \"#utility.yul\":1292:1394   */\n    tag_24:\n        /* \"#utility.yul\":1333:1339   */\n      0x00\n        /* \"#utility.yul\":1384:1386   */\n      0x1f\n        /* \"#utility.yul\":1380:1387   */\n      not\n        /* \"#utility.yul\":1375:1377   */\n      0x1f\n        /* \"#utility.yul\":1368:1373   */\n      dup4\n        /* \"#utility.yul\":1364:1378   */\n      add\n        /* \"#utility.yul\":1360:1388   */\n      and\n        /* \"#utility.yul\":1350:1388   */\n      swap1\n      pop\n        /* \"#utility.yul\":1292:1394   */\n      swap2\n      swap1\n      pop\n      jump\t// out\n        /* \"#utility.yul\":1400:1580   */\n    tag_25:\n        /* \"#utility.yul\":1448:1525   */\n      0x4e487b7100000000000000000000000000000000000000000000000000000000\n        /* \"#utility.yul\":1445:1446   */\n      0x00\n        /* \"#utility.yul\":1438:1526   */\n      mstore\n        /* \"#utility.yul\":1545:1549   */\n      0x41\n        /* \"#utility.yul\":1542:1543   */\n      0x04\n        /* \"#utility.yul\":1535:1550   */\n      mstore\n        /* \"#utility.yul\":1569:1573   */\n      0x24\n        /* \"#utility.yul\":1566:1567   */\n      0x00\n        /* \"#utility.yul\":1559:1574   */\n      revert\n        /* \"#utility.yul\":1586:1867   */\n    tag_26:\n        /* \"#utility.yul\":1669:1696   */\n      tag_73\n        /* \"#utility.yul\":1691:1695   */\n      dup3\n        /* \"#utility.yul\":1669:1696   */\n      tag_24\n      jump\t// in\n    tag_73:\n        /* \"#utility.yul\":1661:1667   */\n      dup2\n        /* \"#utility.yul\":1657:1697   */\n      add\n        /* \"#utility.yul\":1799:1805   */\n      dup2\n        /* \"#utility.yul\":1787:1797   */\n      dup2\n        /* \"#utility.yul\":1784:1806   */\n      lt\n        /* \"#utility.yul\":1763:1781   */\n      0xffffffffffffffff\n        /* \"#utility.yul\":1751:1761   */\n      dup3\n        /* \"#utility.yul\":1748:1782   */\n      gt\n        /* \"#utility.yul\":1745:1807   */\n      or\n        /* \"#utility.yul\":1742:1830   */\n      iszero\n      tag_74\n      jumpi\n        /* \"#utility.yul\":1810:1828   */\n      tag_75\n      tag_25\n      jump\t// in\n    tag_75:\n        /* \"#utility.yul\":1742:1830   */\n    tag_74:\n        /* \"#utility.yul\":1850:1860   */\n      dup1\n        /* \"#utility.yul\":1846:1848   */\n      0x40\n        /* \"#utility.yul\":1839:1861   */\n      mstore\n        /* \"#utility.yul\":1629:1867   */\n      pop\n        /* \"#utility.yul\":1586:1867   */\n      pop\n      pop\n      jump\t// out\n        /* \"#utility.yul\":1873:2002   */\n    tag_27:\n        /* \"#utility.yul\":1907:1913   */\n      0x00\n        /* \"#utility.yul\":1934:1954   */\n      tag_77\n      tag_13\n      jump\t// in\n    tag_77:\n        /* \"#utility.yul\":1924:1954   */\n      swap1\n      pop\n        /* \"#utility.yul\":1963:1996   */\n      tag_78\n        /* \"#utility.yul\":1991:1995   */\n      dup3\n        /* \"#utility.yul\":1983:1989   */\n      dup3\n        /* \"#utility.yul\":1963:1996   */\n      tag_26\n      jump\t// in\n    tag_78:\n        /* \"#utility.yul\":1873:2002   */\n      swap2\n      swap1\n      pop\n      jump\t// out\n        /* \"#utility.yul\":2008:2316   */\n    tag_28:\n        /* \"#utility.yul\":2070:2074   */\n      0x00\n        /* \"#utility.yul\":2160:2178   */\n      0xffffffffffffffff\n        /* \"#utility.yul\":2152:2158   */\n      dup3\n        /* \"#utility.yul\":2149:2179   */\n      gt\n        /* \"#utility.yul\":2146:2202   */\n      iszero\n      tag_80\n      jumpi\n        /* \"#utility.yul\":2182:2200   */\n      tag_81\n      tag_25\n      jump\t// in\n    tag_81:\n        /* \"#utility.yul\":2146:2202   */\n    tag_80:\n        /* \"#utility.yul\":2220:2249   */\n      tag_82\n        /* \"#utility.yul\":2242:2248   */\n      dup3\n        /* \"#utility.yul\":2220:2249   */\n      tag_24\n      jump\t// in\n    tag_82:\n        /* \"#utility.yul\":2212:2249   */\n      swap1\n      pop\n        /* \"#utility.yul\":2304:2308   */\n      0x20\n        /* \"#utility.yul\":2298:2302   */\n      dup2\n        /* \"#utility.yul\":2294:2309   */\n      add\n        /* \"#utility.yul\":2286:2309   */\n      swap1\n      pop\n        /* \"#utility.yul\":2008:2316   */\n      swap2\n      swap1\n      pop\n      jump\t// out\n        /* \"#utility.yul\":2322:2470   */\n    tag_29:\n        /* \"#utility.yul\":2420:2426   */\n      dup3\n        /* \"#utility.yul\":2415:2418   */\n      dup2\n        /* \"#utility.yul\":2410:2413   */\n      dup4\n        /* \"#utility.yul\":2397:2427   */\n      calldatacopy\n        /* \"#utility.yul\":2461:2462   */\n      0x00\n        /* \"#utility.yul\":2452:2458   */\n      dup4\n        /* \"#utility.yul\":2447:2450   */\n      dup4\n        /* \"#utility.yul\":2443:2459   */\n      add\n        /* \"#utility.yul\":2436:2463   */\n      mstore\n        /* \"#utility.yul\":2322:2470   */\n      pop\n      pop\n      pop\n      jump\t// out\n        /* \"#utility.yul\":2476:2901   */\n    tag_30:\n        /* \"#utility.yul\":2554:2559   */\n      0x00\n        /* \"#utility.yul\":2579:2645   */\n      tag_85\n        /* \"#utility.yul\":2595:2644   */\n      tag_86\n        /* \"#utility.yul\":2637:2643   */\n      dup5\n        /* \"#utility.yul\":2595:2644   */\n      tag_28\n      jump\t// in\n    tag_86:\n        /* \"#utility.yul\":2579:2645   */\n      tag_27\n      jump\t// in\n    tag_85:\n        /* \"#utility.yul\":2570:2645   */\n      swap1\n      pop\n        /* \"#utility.yul\":2668:2674   */\n      dup3\n        /* \"#utility.yul\":2661:2666   */\n      dup2\n        /* \"#utility.yul\":2654:2675   */\n      mstore\n        /* \"#utility.yul\":2706:2710   */\n      0x20\n        /* \"#utility.yul\":2699:2704   */\n      dup2\n        /* \"#utility.yul\":2695:2711   */\n      add\n        /* \"#utility.yul\":2744:2747   */\n      dup5\n        /* \"#utility.yul\":2735:2741   */\n      dup5\n        /* \"#utility.yul\":2730:2733   */\n      dup5\n        /* \"#utility.yul\":2726:2742   */\n      add\n        /* \"#utility.yul\":2723:2748   */\n      gt\n        /* \"#utility.yul\":2720:2832   */\n      iszero\n      tag_87\n      jumpi\n        /* \"#utility.yul\":2751:2830   */\n      tag_88\n      tag_23\n      jump\t// in\n    tag_88:\n        /* \"#utility.yul\":2720:2832   */\n    tag_87:\n        /* \"#utility.yul\":2841:2895   */\n      tag_89\n        /* \"#utility.yul\":2888:2894   */\n      dup5\n        /* \"#utility.yul\":2883:2886   */\n      dup3\n        /* \"#utility.yul\":2878:2881   */\n      dup6\n        /* \"#utility.yul\":2841:2895   */\n      tag_29\n      jump\t// in\n    tag_89:\n        /* \"#utility.yul\":2560:2901   */\n      pop\n        /* \"#utility.yul\":2476:2901   */\n      swap4\n      swap3\n      pop\n      pop\n      pop\n      jump\t// out\n        /* \"#utility.yul\":2921:3261   */\n    tag_31:\n        /* \"#utility.yul\":2977:2982   */\n      0x00\n        /* \"#utility.yul\":3026:3029   */\n      dup3\n        /* \"#utility.yul\":3019:3023   */\n      0x1f\n        /* \"#utility.yul\":3011:3017   */\n      dup4\n        /* \"#utility.yul\":3007:3024   */\n      add\n        /* \"#utility.yul\":3003:3030   */\n      slt\n        /* \"#utility.yul\":2993:3115   */\n      tag_91\n      jumpi\n        /* \"#utility.yul\":3034:3113   */\n      tag_92\n      tag_22\n      jump\t// in\n    tag_92:\n        /* \"#utility.yul\":2993:3115   */\n    tag_91:\n        /* \"#utility.yul\":3151:3157   */\n      dup2\n        /* \"#utility.yul\":3138:3158   */\n      calldataload\n        /* \"#utility.yul\":3176:3255   */\n      tag_93\n        /* \"#utility.yul\":3251:3254   */\n      dup5\n        /* \"#utility.yul\":3243:3249   */\n      dup3\n        /* \"#utility.yul\":3236:3240   */\n      0x20\n        /* \"#utility.yul\":3228:3234   */\n      dup7\n        /* \"#utility.yul\":3224:3241   */\n      add\n        /* \"#utility.yul\":3176:3255   */\n      tag_30\n      jump\t// in\n    tag_93:\n        /* \"#utility.yul\":3167:3255   */\n      swap2\n      pop\n        /* \"#utility.yul\":2983:3261   */\n      pop\n        /* \"#utility.yul\":2921:3261   */\n      swap3\n      swap2\n      pop\n      pop\n      jump\t// out\n        /* \"#utility.yul\":3267:4212   */\n    tag_6:\n        /* \"#utility.yul\":3363:3369   */\n      0x00\n        /* \"#utility.yul\":3371:3377   */\n      dup1\n        /* \"#utility.yul\":3379:3385   */\n      0x00\n        /* \"#utility.yul\":3387:3393   */\n      dup1\n        /* \"#utility.yul\":3436:3439   */\n      0x80\n        /* \"#utility.yul\":3424:3433   */\n      dup6\n        /* \"#utility.yul\":3415:3422   */\n      dup8\n        /* \"#utility.yul\":3411:3434   */\n      sub\n        /* \"#utility.yul\":3407:3440   */\n      slt\n        /* \"#utility.yul\":3404:3524   */\n      iszero\n      tag_95\n      jumpi\n        /* \"#utility.yul\":3443:3522   */\n      tag_96\n      tag_14\n      jump\t// in\n    tag_96:\n        /* \"#utility.yul\":3404:3524   */\n    tag_95:\n        /* \"#utility.yul\":3563:3564   */\n      0x00\n        /* \"#utility.yul\":3588:3641   */\n      tag_97\n        /* \"#utility.yul\":3633:3640   */\n      dup8\n        /* \"#utility.yul\":3624:3630   */\n      dup3\n        /* \"#utility.yul\":3613:3622   */\n      dup9\n        /* \"#utility.yul\":3609:3631   */\n      add\n        /* \"#utility.yul\":3588:3641   */\n      tag_18\n      jump\t// in\n    tag_97:\n        /* \"#utility.yul\":3578:3641   */\n      swap5\n      pop\n        /* \"#utility.yul\":3534:3651   */\n      pop\n        /* \"#utility.yul\":3690:3692   */\n      0x20\n        /* \"#utility.yul\":3716:3769   */\n      tag_98\n        /* \"#utility.yul\":3761:3768   */\n      dup8\n        /* \"#utility.yul\":3752:3758   */\n      dup3\n        /* \"#utility.yul\":3741:3750   */\n      dup9\n        /* \"#utility.yul\":3737:3759   */\n      add\n        /* \"#utility.yul\":3716:3769   */\n      tag_18\n      jump\t// in\n    tag_98:\n        /* \"#utility.yul\":3706:3769   */\n      swap4\n      pop\n        /* \"#utility.yul\":3661:3779   */\n      pop\n        /* \"#utility.yul\":3818:3820   */\n      0x40\n        /* \"#utility.yul\":3844:3897   */\n      tag_99\n        /* \"#utility.yul\":3889:3896   */\n      dup8\n        /* \"#utility.yul\":3880:3886   */\n      dup3\n        /* \"#utility.yul\":3869:3878   */\n      dup9\n        /* \"#utility.yul\":3865:3887   */\n      add\n        /* \"#utility.yul\":3844:3897   */\n      tag_21\n      jump\t// in\n    tag_99:\n        /* \"#utility.yul\":3834:3897   */\n      swap3\n      pop\n        /* \"#utility.yul\":3789:3907   */\n      pop\n        /* \"#utility.yul\":3974:3976   */\n      0x60\n        /* \"#utility.yul\":3963:3972   */\n      dup6\n        /* \"#utility.yul\":3959:3977   */\n      add\n        /* \"#utility.yul\":3946:3978   */\n      calldataload\n        /* \"#utility.yul\":4005:4023   */\n      0xffffffffffffffff\n        /* \"#utility.yul\":3997:4003   */\n      dup2\n        /* \"#utility.yul\":3994:4024   */\n      gt\n        /* \"#utility.yul\":3991:4108   */\n      iszero\n      tag_100\n      jumpi\n        /* \"#utility.yul\":4027:4106   */\n      tag_101\n      tag_15\n      jump\t// in\n    tag_101:\n        /* \"#utility.yul\":3991:4108   */\n    tag_100:\n        /* \"#utility.yul\":4132:4195   */\n      tag_102\n        /* \"#utility.yul\":4187:4194   */\n      dup8\n        /* \"#utility.yul\":4178:4184   */\n      dup3\n        /* \"#utility.yul\":4167:4176   */\n      dup9\n        /* \"#utility.yul\":4163:4185   */\n      add\n        /* \"#utility.yul\":4132:4195   */\n      tag_31\n      jump\t// in\n    tag_102:\n        /* \"#utility.yul\":4122:4195   */\n      swap2\n      pop\n        /* \"#utility.yul\":3917:4205   */\n      pop\n        /* \"#utility.yul\":3267:4212   */\n      swap3\n      swap6\n      swap2\n      swap5\n      pop\n      swap3\n      pop\n      jump\t// out\n        /* \"#utility.yul\":4218:4317   */\n    tag_32:\n        /* \"#utility.yul\":4270:4276   */\n      0x00\n        /* \"#utility.yul\":4304:4309   */\n      dup2\n        /* \"#utility.yul\":4298:4310   */\n      mload\n        /* \"#utility.yul\":4288:4310   */\n      swap1\n      pop\n        /* \"#utility.yul\":4218:4317   */\n      swap2\n      swap1\n      pop\n      jump\t// out\n        /* \"#utility.yul\":4323:4492   */\n    tag_33:\n        /* \"#utility.yul\":4407:4418   */\n      0x00\n        /* \"#utility.yul\":4441:4447   */\n      dup3\n        /* \"#utility.yul\":4436:4439   */\n      dup3\n        /* \"#utility.yul\":4429:4448   */\n      mstore\n        /* \"#utility.yul\":4481:4485   */\n      0x20\n        /* \"#utility.yul\":4476:4479   */\n      dup3\n        /* \"#utility.yul\":4472:4486   */\n      add\n        /* \"#utility.yul\":4457:4486   */\n      swap1\n      pop\n        /* \"#utility.yul\":4323:4492   */\n      swap3\n      swap2\n      pop\n      pop\n      jump\t// out\n        /* \"#utility.yul\":4498:4637   */\n    tag_34:\n        /* \"#utility.yul\":4587:4593   */\n      dup3\n        /* \"#utility.yul\":4582:4585   */\n      dup2\n        /* \"#utility.yul\":4577:4580   */\n      dup4\n        /* \"#utility.yul\":4571:4594   */\n      mcopy\n        /* \"#utility.yul\":4628:4629   */\n      0x00\n        /* \"#utility.yul\":4619:4625   */\n      dup4\n        /* \"#utility.yul\":4614:4617   */\n      dup4\n        /* \"#utility.yul\":4610:4626   */\n      add\n        /* \"#utility.yul\":4603:4630   */\n      mstore\n        /* \"#utility.yul\":4498:4637   */\n      pop\n      pop\n      pop\n      jump\t// out\n        /* \"#utility.yul\":4643:5020   */\n    tag_35:\n        /* \"#utility.yul\":4731:4734   */\n      0x00\n        /* \"#utility.yul\":4759:4798   */\n      tag_107\n        /* \"#utility.yul\":4792:4797   */\n      dup3\n        /* \"#utility.yul\":4759:4798   */\n      tag_32\n      jump\t// in\n    tag_107:\n        /* \"#utility.yul\":4814:4885   */\n      tag_108\n        /* \"#utility.yul\":4878:4884   */\n      dup2\n        /* \"#utility.yul\":4873:4876   */\n      dup6\n        /* \"#utility.yul\":4814:4885   */\n      tag_33\n      jump\t// in\n    tag_108:\n        /* \"#utility.yul\":4807:4885   */\n      swap4\n      pop\n        /* \"#utility.yul\":4894:4959   */\n      tag_109\n        /* \"#utility.yul\":4952:4958   */\n      dup2\n        /* \"#utility.yul\":4947:4950   */\n      dup6\n        /* \"#utility.yul\":4940:4944   */\n      0x20\n        /* \"#utility.yul\":4933:4938   */\n      dup7\n        /* \"#utility.yul\":4929:4945   */\n      add\n        /* \"#utility.yul\":4894:4959   */\n      tag_34\n      jump\t// in\n    tag_109:\n        /* \"#utility.yul\":4984:5013   */\n      tag_110\n        /* \"#utility.yul\":5006:5012   */\n      dup2\n        /* \"#utility.yul\":4984:5013   */\n      tag_24\n      jump\t// in\n    tag_110:\n        /* \"#utility.yul\":4979:4982   */\n      dup5\n        /* \"#utility.yul\":4975:5014   */\n      add\n        /* \"#utility.yul\":4968:5014   */\n      swap2\n      pop\n        /* \"#utility.yul\":4735:5020   */\n      pop\n        /* \"#utility.yul\":4643:5020   */\n      swap3\n      swap2\n      pop\n      pop\n      jump\t// out\n        /* \"#utility.yul\":5026:5339   */\n    tag_9:\n        /* \"#utility.yul\":5139:5143   */\n      0x00\n        /* \"#utility.yul\":5177:5179   */\n      0x20\n        /* \"#utility.yul\":5166:5175   */\n      dup3\n        /* \"#utility.yul\":5162:5180   */\n      add\n        /* \"#utility.yul\":5154:5180   */\n      swap1\n      pop\n        /* \"#utility.yul\":5226:5235   */\n      dup2\n        /* \"#utility.yul\":5220:5224   */\n      dup2\n        /* \"#utility.yul\":5216:5236   */\n      sub\n        /* \"#utility.yul\":5212:5213   */\n      0x00\n        /* \"#utility.yul\":5201:5210   */\n      dup4\n        /* \"#utility.yul\":5197:5214   */\n      add\n        /* \"#utility.yul\":5190:5237   */\n      mstore\n        /* \"#utility.yul\":5254:5332   */\n      tag_112\n        /* \"#utility.yul\":5327:5331   */\n      dup2\n        /* \"#utility.yul\":5318:5324   */\n      dup5\n        /* \"#utility.yul\":5254:5332   */\n      tag_35\n      jump\t// in\n    tag_112:\n        /* \"#utility.yul\":5246:5332   */\n      swap1\n      pop\n        /* \"#utility.yul\":5026:5339   */\n      swap3\n      swap2\n      pop\n      pop\n      jump\t// out\n        /* \"#utility.yul\":5345:5493   */\n    tag_36:\n        /* \"#utility.yul\":5447:5458   */\n      0x00\n        /* \"#utility.yul\":5484:5487   */\n      dup2\n        /* \"#utility.yul\":5469:5487   */\n      swap1\n      pop\n        /* \"#utility.yul\":5345:5493   */\n      swap3\n      swap2\n      pop\n      pop\n      jump\t// out\n        /* \"#utility.yul\":5499:5741   */\n    tag_37:\n        /* \"#utility.yul\":5639:5673   */\n      0x3c73637269707420747970653d276170706c69636174696f6e2f6a6176617363\n        /* \"#utility.yul\":5635:5636   */\n      0x00\n        /* \"#utility.yul\":5627:5633   */\n      dup3\n        /* \"#utility.yul\":5623:5637   */\n      add\n        /* \"#utility.yul\":5616:5674   */\n      mstore\n        /* \"#utility.yul\":5708:5733   */\n      0x72697074273e6c657420636f6c6f723d636f6c6f72735b000000000000000000\n        /* \"#utility.yul\":5703:5705   */\n      0x20\n        /* \"#utility.yul\":5695:5701   */\n      dup3\n        /* \"#utility.yul\":5691:5706   */\n      add\n        /* \"#utility.yul\":5684:5734   */\n      mstore\n        /* \"#utility.yul\":5499:5741   */\n      pop\n      jump\t// out\n        /* \"#utility.yul\":5747:6149   */\n    tag_38:\n        /* \"#utility.yul\":5907:5910   */\n      0x00\n        /* \"#utility.yul\":5928:6013   */\n      tag_116\n        /* \"#utility.yul\":6010:6012   */\n      0x37\n        /* \"#utility.yul\":6005:6008   */\n      dup4\n        /* \"#utility.yul\":5928:6013   */\n      tag_36\n      jump\t// in\n    tag_116:\n        /* \"#utility.yul\":5921:6013   */\n      swap2\n      pop\n        /* \"#utility.yul\":6022:6115   */\n      tag_117\n        /* \"#utility.yul\":6111:6114   */\n      dup3\n        /* \"#utility.yul\":6022:6115   */\n      tag_37\n      jump\t// in\n    tag_117:\n        /* \"#utility.yul\":6140:6142   */\n      0x37\n        /* \"#utility.yul\":6135:6138   */\n      dup3\n        /* \"#utility.yul\":6131:6143   */\n      add\n        /* \"#utility.yul\":6124:6143   */\n      swap1\n      pop\n        /* \"#utility.yul\":5747:6149   */\n      swap2\n      swap1\n      pop\n      jump\t// out\n        /* \"#utility.yul\":6155:6234   */\n    tag_39:\n        /* \"#utility.yul\":6194:6201   */\n      0x00\n        /* \"#utility.yul\":6223:6228   */\n      dup2\n        /* \"#utility.yul\":6212:6228   */\n      swap1\n      pop\n        /* \"#utility.yul\":6155:6234   */\n      swap2\n      swap1\n      pop\n      jump\t// out\n        /* \"#utility.yul\":6240:6397   */\n    tag_40:\n        /* \"#utility.yul\":6345:6390   */\n      tag_120\n        /* \"#utility.yul\":6365:6389   */\n      tag_121\n        /* \"#utility.yul\":6383:6388   */\n      dup3\n        /* \"#utility.yul\":6365:6389   */\n      tag_16\n      jump\t// in\n    tag_121:\n        /* \"#utility.yul\":6345:6390   */\n      tag_39\n      jump\t// in\n    tag_120:\n        /* \"#utility.yul\":6340:6343   */\n      dup3\n        /* \"#utility.yul\":6333:6391   */\n      mstore\n        /* \"#utility.yul\":6240:6397   */\n      pop\n      pop\n      jump\t// out\n        /* \"#utility.yul\":6403:6574   */\n    tag_41:\n        /* \"#utility.yul\":6543:6562   */\n      0x5d2c6d6f6f643d7061727365496e742827000000000000000000000000000000\n        /* \"#utility.yul\":6539:6540   */\n      0x00\n        /* \"#utility.yul\":6531:6537   */\n      dup3\n        /* \"#utility.yul\":6527:6541   */\n      add\n        /* \"#utility.yul\":6520:6563   */\n      mstore\n        /* \"#utility.yul\":6403:6574   */\n      pop\n      jump\t// out\n        /* \"#utility.yul\":6584:7002   */\n    tag_42:\n        /* \"#utility.yul\":6744:6747   */\n      0x00\n        /* \"#utility.yul\":6769:6854   */\n      tag_124\n        /* \"#utility.yul\":6851:6853   */\n      0x11\n        /* \"#utility.yul\":6846:6849   */\n      dup4\n        /* \"#utility.yul\":6769:6854   */\n      tag_36\n      jump\t// in\n    tag_124:\n        /* \"#utility.yul\":6762:6854   */\n      swap2\n      pop\n        /* \"#utility.yul\":6867:6960   */\n      tag_125\n        /* \"#utility.yul\":6956:6959   */\n      dup3\n        /* \"#utility.yul\":6867:6960   */\n      tag_41\n      jump\t// in\n    tag_125:\n        /* \"#utility.yul\":6989:6991   */\n      0x11\n        /* \"#utility.yul\":6984:6987   */\n      dup3\n        /* \"#utility.yul\":6980:6992   */\n      add\n        /* \"#utility.yul\":6973:6992   */\n      swap1\n      pop\n        /* \"#utility.yul\":6584:7002   */\n      swap2\n      swap1\n      pop\n      jump\t// out\n        /* \"#utility.yul\":7012:7422   */\n    tag_43:\n        /* \"#utility.yul\":7118:7121   */\n      0x00\n        /* \"#utility.yul\":7150:7189   */\n      tag_127\n        /* \"#utility.yul\":7183:7188   */\n      dup3\n        /* \"#utility.yul\":7150:7189   */\n      tag_32\n      jump\t// in\n    tag_127:\n        /* \"#utility.yul\":7209:7298   */\n      tag_128\n        /* \"#utility.yul\":7291:7297   */\n      dup2\n        /* \"#utility.yul\":7286:7289   */\n      dup6\n        /* \"#utility.yul\":7209:7298   */\n      tag_36\n      jump\t// in\n    tag_128:\n        /* \"#utility.yul\":7202:7298   */\n      swap4\n      pop\n        /* \"#utility.yul\":7311:7376   */\n      tag_129\n        /* \"#utility.yul\":7369:7375   */\n      dup2\n        /* \"#utility.yul\":7364:7367   */\n      dup6\n        /* \"#utility.yul\":7357:7361   */\n      0x20\n        /* \"#utility.yul\":7350:7355   */\n      dup7\n        /* \"#utility.yul\":7346:7362   */\n      add\n        /* \"#utility.yul\":7311:7376   */\n      tag_34\n      jump\t// in\n    tag_129:\n        /* \"#utility.yul\":7405:7411   */\n      dup1\n        /* \"#utility.yul\":7400:7403   */\n      dup5\n        /* \"#utility.yul\":7396:7412   */\n      add\n        /* \"#utility.yul\":7389:7412   */\n      swap2\n      pop\n        /* \"#utility.yul\":7122:7422   */\n      pop\n        /* \"#utility.yul\":7012:7422   */\n      swap3\n      swap2\n      pop\n      pop\n      jump\t// out\n        /* \"#utility.yul\":7432:7610   */\n    tag_44:\n        /* \"#utility.yul\":7576:7598   */\n      0x27292c746f6b656e446174613d7b686173683a27000000000000000000000000\n        /* \"#utility.yul\":7572:7573   */\n      0x00\n        /* \"#utility.yul\":7564:7570   */\n      dup3\n        /* \"#utility.yul\":7560:7574   */\n      add\n        /* \"#utility.yul\":7553:7599   */\n      mstore\n        /* \"#utility.yul\":7432:7610   */\n      pop\n      jump\t// out\n        /* \"#utility.yul\":7620:8038   */\n    tag_45:\n        /* \"#utility.yul\":7780:7783   */\n      0x00\n        /* \"#utility.yul\":7805:7890   */\n      tag_132\n        /* \"#utility.yul\":7887:7889   */\n      0x14\n        /* \"#utility.yul\":7882:7885   */\n      dup4\n        /* \"#utility.yul\":7805:7890   */\n      tag_36\n      jump\t// in\n    tag_132:\n        /* \"#utility.yul\":7798:7890   */\n      swap2\n      pop\n        /* \"#utility.yul\":7903:7996   */\n      tag_133\n        /* \"#utility.yul\":7992:7995   */\n      dup3\n        /* \"#utility.yul\":7903:7996   */\n      tag_44\n      jump\t// in\n    tag_133:\n        /* \"#utility.yul\":8025:8027   */\n      0x14\n        /* \"#utility.yul\":8020:8023   */\n      dup3\n        /* \"#utility.yul\":8016:8028   */\n      add\n        /* \"#utility.yul\":8009:8028   */\n      swap1\n      pop\n        /* \"#utility.yul\":7620:8038   */\n      swap2\n      swap1\n      pop\n      jump\t// out\n        /* \"#utility.yul\":8048:8135   */\n    tag_46:\n        /* \"#utility.yul\":8087:8094   */\n      0x00\n        /* \"#utility.yul\":8120:8125   */\n      dup2\n        /* \"#utility.yul\":8109:8125   */\n      swap1\n      pop\n        /* \"#utility.yul\":8048:8135   */\n      swap2\n      swap1\n      pop\n      jump\t// out\n        /* \"#utility.yul\":8145:8310   */\n    tag_47:\n        /* \"#utility.yul\":8254:8299   */\n      tag_136\n        /* \"#utility.yul\":8274:8298   */\n      tag_137\n        /* \"#utility.yul\":8292:8297   */\n      dup3\n        /* \"#utility.yul\":8274:8298   */\n      tag_19\n      jump\t// in\n    tag_137:\n        /* \"#utility.yul\":8254:8299   */\n      tag_46\n      jump\t// in\n    tag_136:\n        /* \"#utility.yul\":8249:8252   */\n      dup3\n        /* \"#utility.yul\":8242:8300   */\n      mstore\n        /* \"#utility.yul\":8145:8310   */\n      pop\n      pop\n      jump\t// out\n        /* \"#utility.yul\":8320:8489   */\n    tag_48:\n        /* \"#utility.yul\":8464:8477   */\n      0x272c746f6b656e49643a27000000000000000000000000000000000000000000\n        /* \"#utility.yul\":8460:8461   */\n      0x00\n        /* \"#utility.yul\":8452:8458   */\n      dup3\n        /* \"#utility.yul\":8448:8462   */\n      add\n        /* \"#utility.yul\":8441:8478   */\n      mstore\n        /* \"#utility.yul\":8320:8489   */\n      pop\n      jump\t// out\n        /* \"#utility.yul\":8499:8917   */\n    tag_49:\n        /* \"#utility.yul\":8659:8662   */\n      0x00\n        /* \"#utility.yul\":8684:8769   */\n      tag_140\n        /* \"#utility.yul\":8766:8768   */\n      0x0b\n        /* \"#utility.yul\":8761:8764   */\n      dup4\n        /* \"#utility.yul\":8684:8769   */\n      tag_36\n      jump\t// in\n    tag_140:\n        /* \"#utility.yul\":8677:8769   */\n      swap2\n      pop\n        /* \"#utility.yul\":8782:8875   */\n      tag_141\n        /* \"#utility.yul\":8871:8874   */\n      dup3\n        /* \"#utility.yul\":8782:8875   */\n      tag_48\n      jump\t// in\n    tag_141:\n        /* \"#utility.yul\":8904:8906   */\n      0x0b\n        /* \"#utility.yul\":8899:8902   */\n      dup3\n        /* \"#utility.yul\":8895:8907   */\n      add\n        /* \"#utility.yul\":8888:8907   */\n      swap1\n      pop\n        /* \"#utility.yul\":8499:8917   */\n      swap2\n      swap1\n      pop\n      jump\t// out\n        /* \"#utility.yul\":8927:63803   */\n    tag_50:\n        /* \"#utility.yul\":9067:9101   */\n      0x277d2c73686f756c644c6f616444726177696e673d21313b636f6e7374206472\n        /* \"#utility.yul\":9063:9064   */\n      0x00\n        /* \"#utility.yul\":9055:9061   */\n      dup3\n        /* \"#utility.yul\":9051:9065   */\n      add\n        /* \"#utility.yul\":9044:9102   */\n      mstore\n        /* \"#utility.yul\":9136:9170   */\n      0x61773d6173796e632066756e6374696f6e28297b72657175657374416e696d61\n        /* \"#utility.yul\":9131:9133   */\n      0x20\n        /* \"#utility.yul\":9123:9129   */\n      dup3\n        /* \"#utility.yul\":9119:9134   */\n      add\n        /* \"#utility.yul\":9112:9171   */\n      mstore\n        /* \"#utility.yul\":9209:9243   */\n      0x74696f6e4672616d65282866756e6374696f6e28297b6164644c6f6164657228\n        /* \"#utility.yul\":9204:9206   */\n      0x40\n        /* \"#utility.yul\":9196:9202   */\n      dup3\n        /* \"#utility.yul\":9192:9207   */\n      add\n        /* \"#utility.yul\":9185:9244   */\n      mstore\n        /* \"#utility.yul\":9290:9324   */\n      0x2727297d29292c6177616974206e65772050726f6d6973652828653d3e736574\n        /* \"#utility.yul\":9285:9287   */\n      0x60\n        /* \"#utility.yul\":9277:9283   */\n      dup3\n        /* \"#utility.yul\":9273:9288   */\n      add\n        /* \"#utility.yul\":9266:9325   */\n      mstore\n        /* \"#utility.yul\":9364:9398   */\n      0x54696d656f757428652c3230302929292c72657175657374416e696d6174696f\n        /* \"#utility.yul\":9358:9361   */\n      0x80\n        /* \"#utility.yul\":9350:9356   */\n      dup3\n        /* \"#utility.yul\":9346:9362   */\n      add\n        /* \"#utility.yul\":9339:9399   */\n      mstore\n        /* \"#utility.yul\":9438:9472   */\n      0x6e4672616d65282866756e6374696f6e28297b7570646174654c6f6164657228\n        /* \"#utility.yul\":9432:9435   */\n      0xa0\n        /* \"#utility.yul\":9424:9430   */\n      dup3\n        /* \"#utility.yul\":9420:9436   */\n      add\n        /* \"#utility.yul\":9413:9473   */\n      mstore\n        /* \"#utility.yul\":9512:9546   */\n      0x274c6f6164696e67207661726961626c657327297d29292c6177616974206e65\n        /* \"#utility.yul\":9506:9509   */\n      0xc0\n        /* \"#utility.yul\":9498:9504   */\n      dup3\n        /* \"#utility.yul\":9494:9510   */\n      add\n        /* \"#utility.yul\":9487:9547   */\n      mstore\n        /* \"#utility.yul\":9586:9620   */\n      0x772050726f6d6973652828653d3e73657454696d656f757428652c3230302929\n        /* \"#utility.yul\":9580:9583   */\n      0xe0\n        /* \"#utility.yul\":9572:9578   */\n      dup3\n        /* \"#utility.yul\":9568:9584   */\n      add\n        /* \"#utility.yul\":9561:9621   */\n      mstore\n        /* \"#utility.yul\":9664:9698   */\n      0x293b636f6e737420653d6e657720636c6173737b636f6e7374727563746f7228\n        /* \"#utility.yul\":9658:9661   */\n      0x0100\n        /* \"#utility.yul\":9650:9656   */\n      dup3\n        /* \"#utility.yul\":9646:9662   */\n      add\n        /* \"#utility.yul\":9639:9699   */\n      mstore\n        /* \"#utility.yul\":9746:9780   */\n      0x297b746869732e757365413d21313b6c657420653d66756e6374696f6e286529\n        /* \"#utility.yul\":9740:9743   */\n      0x0120\n        /* \"#utility.yul\":9732:9738   */\n      dup3\n        /* \"#utility.yul\":9728:9744   */\n      add\n        /* \"#utility.yul\":9721:9781   */\n      mstore\n        /* \"#utility.yul\":9828:9862   */\n      0x7b6c6574206e3d7061727365496e7428652e73756273747228302c38292c3136\n        /* \"#utility.yul\":9822:9825   */\n      0x0140\n        /* \"#utility.yul\":9814:9820   */\n      dup3\n        /* \"#utility.yul\":9810:9826   */\n      add\n        /* \"#utility.yul\":9803:9863   */\n      mstore\n        /* \"#utility.yul\":9914:9948   */\n      0x292c743d7061727365496e7428652e73756273747228382c38292c3136292c6f\n        /* \"#utility.yul\":9908:9911   */\n      0x0160\n        /* \"#utility.yul\":9900:9906   */\n      dup3\n        /* \"#utility.yul\":9896:9912   */\n      add\n        /* \"#utility.yul\":9889:9949   */\n      mstore\n        /* \"#utility.yul\":10000:10034   */\n      0x3d7061727365496e7428652e7375627374722831362c38292c3136292c613d70\n        /* \"#utility.yul\":9994:9997   */\n      0x0180\n        /* \"#utility.yul\":9986:9992   */\n      dup3\n        /* \"#utility.yul\":9982:9998   */\n      add\n        /* \"#utility.yul\":9975:10035   */\n      mstore\n        /* \"#utility.yul\":10086:10120   */\n      0x61727365496e7428652e7375627374722832342c38292c3136293b7265747572\n        /* \"#utility.yul\":10080:10083   */\n      0x01a0\n        /* \"#utility.yul\":10072:10078   */\n      dup3\n        /* \"#utility.yul\":10068:10084   */\n      add\n        /* \"#utility.yul\":10061:10121   */\n      mstore\n        /* \"#utility.yul\":10172:10206   */\n      0x6e2066756e6374696f6e28297b6e7c3d302c747c3d302c6f7c3d302c617c3d30\n        /* \"#utility.yul\":10166:10169   */\n      0x01c0\n        /* \"#utility.yul\":10158:10164   */\n      dup3\n        /* \"#utility.yul\":10154:10170   */\n      add\n        /* \"#utility.yul\":10147:10207   */\n      mstore\n        /* \"#utility.yul\":10262:10296   */\n      0x3b6c657420653d286e2b747c30292b617c303b72657475726e20613d612b317c\n        /* \"#utility.yul\":10256:10259   */\n      0x01e0\n        /* \"#utility.yul\":10248:10254   */\n      dup3\n        /* \"#utility.yul\":10244:10260   */\n      add\n        /* \"#utility.yul\":10237:10297   */\n      mstore\n        /* \"#utility.yul\":10352:10386   */\n      0x302c6e3d745e743e3e3e392c743d6f2b286f3c3c33297c302c6f3d6f3c3c3231\n        /* \"#utility.yul\":10346:10349   */\n      0x0200\n        /* \"#utility.yul\":10338:10344   */\n      dup3\n        /* \"#utility.yul\":10334:10350   */\n      add\n        /* \"#utility.yul\":10327:10387   */\n      mstore\n        /* \"#utility.yul\":10442:10476   */\n      0x7c6f3e3e3e31312c6f3d6f2b657c302c28653e3e3e30292f3432393439363732\n        /* \"#utility.yul\":10436:10439   */\n      0x0220\n        /* \"#utility.yul\":10428:10434   */\n      dup3\n        /* \"#utility.yul\":10424:10440   */\n      add\n        /* \"#utility.yul\":10417:10477   */\n      mstore\n        /* \"#utility.yul\":10528:10562   */\n      0x39367d7d3b746869732e70726e67413d6e6577206528746f6b656e446174612e\n        /* \"#utility.yul\":10522:10525   */\n      0x0240\n        /* \"#utility.yul\":10514:10520   */\n      dup3\n        /* \"#utility.yul\":10510:10526   */\n      add\n        /* \"#utility.yul\":10503:10563   */\n      mstore\n        /* \"#utility.yul\":10610:10644   */\n      0x686173682e73756273747228322c333229292c746869732e70726e67423d6e65\n        /* \"#utility.yul\":10604:10607   */\n      0x0260\n        /* \"#utility.yul\":10596:10602   */\n      dup3\n        /* \"#utility.yul\":10592:10608   */\n      add\n        /* \"#utility.yul\":10585:10645   */\n      mstore\n        /* \"#utility.yul\":10692:10726   */\n      0x77206528746f6b656e446174612e686173682e7375627374722833342c333229\n        /* \"#utility.yul\":10686:10689   */\n      0x0280\n        /* \"#utility.yul\":10678:10684   */\n      dup3\n        /* \"#utility.yul\":10674:10690   */\n      add\n        /* \"#utility.yul\":10667:10727   */\n      mstore\n        /* \"#utility.yul\":10774:10808   */\n      0x293b666f72286c657420653d303b653c3165363b652b3d3229746869732e7072\n        /* \"#utility.yul\":10768:10771   */\n      0x02a0\n        /* \"#utility.yul\":10760:10766   */\n      dup3\n        /* \"#utility.yul\":10756:10772   */\n      add\n        /* \"#utility.yul\":10749:10809   */\n      mstore\n        /* \"#utility.yul\":10856:10890   */\n      0x6e674128292c746869732e70726e674228297d72616e646f6d5f64656328297b\n        /* \"#utility.yul\":10850:10853   */\n      0x02c0\n        /* \"#utility.yul\":10842:10848   */\n      dup3\n        /* \"#utility.yul\":10838:10854   */\n      add\n        /* \"#utility.yul\":10831:10891   */\n      mstore\n        /* \"#utility.yul\":10938:10972   */\n      0x72657475726e20746869732e757365413d21746869732e757365412c74686973\n        /* \"#utility.yul\":10932:10935   */\n      0x02e0\n        /* \"#utility.yul\":10924:10930   */\n      dup3\n        /* \"#utility.yul\":10920:10936   */\n      add\n        /* \"#utility.yul\":10913:10973   */\n      mstore\n        /* \"#utility.yul\":11016:11050   */\n      0x2e757365413f746869732e70726e674128293a746869732e70726e674228297d\n        /* \"#utility.yul\":11010:11013   */\n      0x0300\n        /* \"#utility.yul\":11002:11008   */\n      dup3\n        /* \"#utility.yul\":10998:11014   */\n      add\n        /* \"#utility.yul\":10991:11051   */\n      mstore\n        /* \"#utility.yul\":11094:11128   */\n      0x72616e646f6d5f6e756d28652c6e297b72657475726e20652b286e2d65292a74\n        /* \"#utility.yul\":11088:11091   */\n      0x0320\n        /* \"#utility.yul\":11080:11086   */\n      dup3\n        /* \"#utility.yul\":11076:11092   */\n      add\n        /* \"#utility.yul\":11069:11129   */\n      mstore\n        /* \"#utility.yul\":11172:11206   */\n      0x6869732e72616e646f6d5f64656328297d72616e646f6d5f696e7428652c6e29\n        /* \"#utility.yul\":11166:11169   */\n      0x0340\n        /* \"#utility.yul\":11158:11164   */\n      dup3\n        /* \"#utility.yul\":11154:11170   */\n      add\n        /* \"#utility.yul\":11147:11207   */\n      mstore\n        /* \"#utility.yul\":11250:11284   */\n      0x7b72657475726e204d6174682e666c6f6f7228746869732e72616e646f6d5f6e\n        /* \"#utility.yul\":11244:11247   */\n      0x0360\n        /* \"#utility.yul\":11236:11242   */\n      dup3\n        /* \"#utility.yul\":11232:11248   */\n      add\n        /* \"#utility.yul\":11225:11285   */\n      mstore\n        /* \"#utility.yul\":11332:11366   */\n      0x756d28652c6e2b3129297d72616e646f6d5f626f6f6c2865297b72657475726e\n        /* \"#utility.yul\":11326:11329   */\n      0x0380\n        /* \"#utility.yul\":11318:11324   */\n      dup3\n        /* \"#utility.yul\":11314:11330   */\n      add\n        /* \"#utility.yul\":11307:11367   */\n      mstore\n        /* \"#utility.yul\":11410:11444   */\n      0x20746869732e72616e646f6d5f64656328293c657d72616e646f6d5f63686f69\n        /* \"#utility.yul\":11404:11407   */\n      0x03a0\n        /* \"#utility.yul\":11396:11402   */\n      dup3\n        /* \"#utility.yul\":11392:11408   */\n      add\n        /* \"#utility.yul\":11385:11445   */\n      mstore\n        /* \"#utility.yul\":11488:11522   */\n      0x63652865297b72657475726e20655b746869732e72616e646f6d5f696e742830\n        /* \"#utility.yul\":11482:11485   */\n      0x03c0\n        /* \"#utility.yul\":11474:11480   */\n      dup3\n        /* \"#utility.yul\":11470:11486   */\n      add\n        /* \"#utility.yul\":11463:11523   */\n      mstore\n        /* \"#utility.yul\":11566:11600   */\n      0x2c652e6c656e6774682d31295d7d7d2c6e3d5b7b77696474683a3130302c6865\n        /* \"#utility.yul\":11560:11563   */\n      0x03e0\n        /* \"#utility.yul\":11552:11558   */\n      dup3\n        /* \"#utility.yul\":11548:11564   */\n      add\n        /* \"#utility.yul\":11541:11601   */\n      mstore\n        /* \"#utility.yul\":11645:11679   */\n      0x696768743a3130307d2c7b77696474683a332c6865696768743a347d2c7b7769\n        /* \"#utility.yul\":11638:11642   */\n      0x0400\n        /* \"#utility.yul\":11630:11636   */\n      dup3\n        /* \"#utility.yul\":11626:11643   */\n      add\n        /* \"#utility.yul\":11619:11680   */\n      mstore\n        /* \"#utility.yul\":11724:11758   */\n      0x6474683a392c6865696768743a31367d2c7b77696474683a312c686569676874\n        /* \"#utility.yul\":11717:11721   */\n      0x0420\n        /* \"#utility.yul\":11709:11715   */\n      dup3\n        /* \"#utility.yul\":11705:11722   */\n      add\n        /* \"#utility.yul\":11698:11759   */\n      mstore\n        /* \"#utility.yul\":11799:11833   */\n      0x3a317d5d3b6c657420743d303b636f6e7374206f3d646f63756d656e742e6372\n        /* \"#utility.yul\":11792:11796   */\n      0x0440\n        /* \"#utility.yul\":11784:11790   */\n      dup3\n        /* \"#utility.yul\":11780:11797   */\n      add\n        /* \"#utility.yul\":11773:11834   */\n      mstore\n        /* \"#utility.yul\":11874:11908   */\n      0x65617465456c656d656e7428277374796c6527293b6f2e696e6e657248544d4c\n        /* \"#utility.yul\":11867:11871   */\n      0x0460\n        /* \"#utility.yul\":11859:11865   */\n      dup3\n        /* \"#utility.yul\":11855:11872   */\n      add\n        /* \"#utility.yul\":11848:11909   */\n      mstore\n        /* \"#utility.yul\":11949:12015   */\n      0x3d270a626f6479207b0a202020206d617267696e2d746f703a20303b0a202020\n        /* \"#utility.yul\":11942:11946   */\n      0x0480\n        /* \"#utility.yul\":11934:11940   */\n      dup3\n        /* \"#utility.yul\":11930:11947   */\n      add\n        /* \"#utility.yul\":11923:12016   */\n      mstore\n        /* \"#utility.yul\":12056:12122   */\n      0x20646973706c61793a20666c65783b0a202020206a7573746966792d636f6e74\n        /* \"#utility.yul\":12049:12053   */\n      0x04a0\n        /* \"#utility.yul\":12041:12047   */\n      dup3\n        /* \"#utility.yul\":12037:12054   */\n      add\n        /* \"#utility.yul\":12030:12123   */\n      mstore\n        /* \"#utility.yul\":12163:12229   */\n      0x656e743a2063656e7465723b0a20202020616c69676e2d6974656d733a206365\n        /* \"#utility.yul\":12156:12160   */\n      0x04c0\n        /* \"#utility.yul\":12148:12154   */\n      dup3\n        /* \"#utility.yul\":12144:12161   */\n      add\n        /* \"#utility.yul\":12137:12230   */\n      mstore\n        /* \"#utility.yul\":12270:12336   */\n      0x6e7465723b0a202020206261636b67726f756e642d636f6c6f723a2023464646\n        /* \"#utility.yul\":12263:12267   */\n      0x04e0\n        /* \"#utility.yul\":12255:12261   */\n      dup3\n        /* \"#utility.yul\":12251:12268   */\n      add\n        /* \"#utility.yul\":12244:12337   */\n      mstore\n        /* \"#utility.yul\":12377:12443   */\n      0x4645313b0a7d0a0a737667207b0a202020206865696768743a2031303076683b\n        /* \"#utility.yul\":12370:12374   */\n      0x0500\n        /* \"#utility.yul\":12362:12368   */\n      dup3\n        /* \"#utility.yul\":12358:12375   */\n      add\n        /* \"#utility.yul\":12351:12444   */\n      mstore\n        /* \"#utility.yul\":12484:12550   */\n      0x0a2020202077696474683a2031303076773b0a2020202070616464696e673a20\n        /* \"#utility.yul\":12477:12481   */\n      0x0520\n        /* \"#utility.yul\":12469:12475   */\n      dup3\n        /* \"#utility.yul\":12465:12482   */\n      add\n        /* \"#utility.yul\":12458:12551   */\n      mstore\n        /* \"#utility.yul\":12591:12657   */\n      0x30766d696e3b0a20202020626f782d736861646f773a202e35766d696e202e35\n        /* \"#utility.yul\":12584:12588   */\n      0x0540\n        /* \"#utility.yul\":12576:12582   */\n      dup3\n        /* \"#utility.yul\":12572:12589   */\n      add\n        /* \"#utility.yul\":12565:12658   */\n      mstore\n        /* \"#utility.yul\":12698:12764   */\n      0x766d696e2031766d696e207267626128302c20302c20302c20302e35293b0a20\n        /* \"#utility.yul\":12691:12695   */\n      0x0560\n        /* \"#utility.yul\":12683:12689   */\n      dup3\n        /* \"#utility.yul\":12679:12696   */\n      add\n        /* \"#utility.yul\":12672:12765   */\n      mstore\n        /* \"#utility.yul\":12805:12871   */\n      0x202020626f782d73697a696e673a20626f726465722d626f783b0a7d0a272c64\n        /* \"#utility.yul\":12798:12802   */\n      0x0580\n        /* \"#utility.yul\":12790:12796   */\n      dup3\n        /* \"#utility.yul\":12786:12803   */\n      add\n        /* \"#utility.yul\":12779:12872   */\n      mstore\n        /* \"#utility.yul\":12912:12946   */\n      0x6f63756d656e742e686561642e617070656e644368696c64286f293b636f6e73\n        /* \"#utility.yul\":12905:12909   */\n      0x05a0\n        /* \"#utility.yul\":12897:12903   */\n      dup3\n        /* \"#utility.yul\":12893:12910   */\n      add\n        /* \"#utility.yul\":12886:12947   */\n      mstore\n        /* \"#utility.yul\":12987:13021   */\n      0x7420613d646f63756d656e742e637265617465456c656d656e744e5328276874\n        /* \"#utility.yul\":12980:12984   */\n      0x05c0\n        /* \"#utility.yul\":12972:12978   */\n      dup3\n        /* \"#utility.yul\":12968:12985   */\n      add\n        /* \"#utility.yul\":12961:13022   */\n      mstore\n        /* \"#utility.yul\":13066:13100   */\n      0x74703a2f2f7777772e77332e6f72672f323030302f737667272c277376672729\n        /* \"#utility.yul\":13059:13063   */\n      0x05e0\n        /* \"#utility.yul\":13051:13057   */\n      dup3\n        /* \"#utility.yul\":13047:13064   */\n      add\n        /* \"#utility.yul\":13040:13101   */\n      mstore\n        /* \"#utility.yul\":13149:13183   */\n      0x3b612e73657441747472696275746528276964272c276d7953766727292c612e\n        /* \"#utility.yul\":13142:13146   */\n      0x0600\n        /* \"#utility.yul\":13134:13140   */\n      dup3\n        /* \"#utility.yul\":13130:13147   */\n      add\n        /* \"#utility.yul\":13123:13184   */\n      mstore\n        /* \"#utility.yul\":13232:13266   */\n      0x736574417474726962757465282776696577426f78272c273020302031303020\n        /* \"#utility.yul\":13225:13229   */\n      0x0620\n        /* \"#utility.yul\":13217:13223   */\n      dup3\n        /* \"#utility.yul\":13213:13230   */\n      add\n        /* \"#utility.yul\":13206:13267   */\n      mstore\n        /* \"#utility.yul\":13319:13353   */\n      0x31303027292c646f63756d656e742e626f64792e617070656e644368696c6428\n        /* \"#utility.yul\":13312:13316   */\n      0x0640\n        /* \"#utility.yul\":13304:13310   */\n      dup3\n        /* \"#utility.yul\":13300:13317   */\n      add\n        /* \"#utility.yul\":13293:13354   */\n      mstore\n        /* \"#utility.yul\":13402:13436   */\n      0x61292c736574526174696f286e2c74293b6c657420722c692c732c642c632c6c\n        /* \"#utility.yul\":13395:13399   */\n      0x0660\n        /* \"#utility.yul\":13387:13393   */\n      dup3\n        /* \"#utility.yul\":13383:13400   */\n      add\n        /* \"#utility.yul\":13376:13437   */\n      mstore\n        /* \"#utility.yul\":13485:13519   */\n      0x2c6d2c752c682c5f2c792c662c702c672c622c242c772c6b2c762c782c412c4c\n        /* \"#utility.yul\":13478:13482   */\n      0x0680\n        /* \"#utility.yul\":13470:13476   */\n      dup3\n        /* \"#utility.yul\":13466:13483   */\n      add\n        /* \"#utility.yul\":13459:13520   */\n      mstore\n        /* \"#utility.yul\":13568:13602   */\n      0x2c532c452c432c462c542c492c422c502c712c522c4d2c4e2c442c483d646f63\n        /* \"#utility.yul\":13561:13565   */\n      0x06a0\n        /* \"#utility.yul\":13553:13559   */\n      dup3\n        /* \"#utility.yul\":13549:13566   */\n      add\n        /* \"#utility.yul\":13542:13603   */\n      mstore\n        /* \"#utility.yul\":13651:13685   */\n      0x756d656e742e676574456c656d656e744279496428276d7953766727292c473d\n        /* \"#utility.yul\":13644:13648   */\n      0x06c0\n        /* \"#utility.yul\":13636:13642   */\n      dup3\n        /* \"#utility.yul\":13632:13649   */\n      add\n        /* \"#utility.yul\":13625:13686   */\n      mstore\n        /* \"#utility.yul\":13734:13768   */\n      0x21312c553d302c7a3d27272c4f3d66756e6374696f6e28297b7d2c563d66756e\n        /* \"#utility.yul\":13727:13731   */\n      0x06e0\n        /* \"#utility.yul\":13719:13725   */\n      dup3\n        /* \"#utility.yul\":13715:13732   */\n      add\n        /* \"#utility.yul\":13708:13769   */\n      mstore\n        /* \"#utility.yul\":13817:13851   */\n      0x6374696f6e28297b7d2c6a3d66756e6374696f6e2865297b7d2c573d27272c4b\n        /* \"#utility.yul\":13810:13814   */\n      0x0700\n        /* \"#utility.yul\":13802:13808   */\n      dup3\n        /* \"#utility.yul\":13798:13815   */\n      add\n        /* \"#utility.yul\":13791:13852   */\n      mstore\n        /* \"#utility.yul\":13900:13934   */\n      0x3d66696e644e616d654279436f6c6f7228636f6c6f725b305d2e737562283129\n        /* \"#utility.yul\":13893:13897   */\n      0x0720\n        /* \"#utility.yul\":13885:13891   */\n      dup3\n        /* \"#utility.yul\":13881:13898   */\n      add\n        /* \"#utility.yul\":13874:13935   */\n      mstore\n        /* \"#utility.yul\":13987:14021   */\n      0x2c636f6c6f724e616d6573293b73776974636828646f63756d656e742e676574\n        /* \"#utility.yul\":13980:13984   */\n      0x0740\n        /* \"#utility.yul\":13972:13978   */\n      dup3\n        /* \"#utility.yul\":13968:13985   */\n      add\n        /* \"#utility.yul\":13961:14022   */\n      mstore\n        /* \"#utility.yul\":14074:14108   */\n      0x456c656d656e747342795461674e616d652827626f647927295b305d2e737479\n        /* \"#utility.yul\":14067:14071   */\n      0x0760\n        /* \"#utility.yul\":14059:14065   */\n      dup3\n        /* \"#utility.yul\":14055:14072   */\n      add\n        /* \"#utility.yul\":14048:14109   */\n      mstore\n        /* \"#utility.yul\":14161:14195   */\n      0x6c652e6261636b67726f756e64436f6c6f723d2723272b636f6c6f725b305d2c\n        /* \"#utility.yul\":14154:14158   */\n      0x0780\n        /* \"#utility.yul\":14146:14152   */\n      dup3\n        /* \"#utility.yul\":14142:14159   */\n      add\n        /* \"#utility.yul\":14135:14196   */\n      mstore\n        /* \"#utility.yul\":14248:14282   */\n      0x72657175657374416e696d6174696f6e4672616d65282866756e6374696f6e28\n        /* \"#utility.yul\":14241:14245   */\n      0x07a0\n        /* \"#utility.yul\":14233:14239   */\n      dup3\n        /* \"#utility.yul\":14229:14246   */\n      add\n        /* \"#utility.yul\":14222:14283   */\n      mstore\n        /* \"#utility.yul\":14347:14381   */\n      0x297b7570646174654c6f6164657228274c6f6164696e67207661726961626c65\n        /* \"#utility.yul\":14340:14344   */\n      0x07c0\n        /* \"#utility.yul\":14332:14338   */\n      dup3\n        /* \"#utility.yul\":14328:14345   */\n      add\n        /* \"#utility.yul\":14321:14382   */\n      mstore\n        /* \"#utility.yul\":14442:14476   */\n      0x7327297d29292c66756e6374696f6e28297b73776974636828643d652e72616e\n        /* \"#utility.yul\":14435:14439   */\n      0x07e0\n        /* \"#utility.yul\":14427:14433   */\n      dup3\n        /* \"#utility.yul\":14423:14440   */\n      add\n        /* \"#utility.yul\":14416:14477   */\n      mstore\n        /* \"#utility.yul\":14537:14571   */\n      0x646f6d5f63686f696365285b302c322c332c342c322c305d292c553d652e7261\n        /* \"#utility.yul\":14530:14534   */\n      0x0800\n        /* \"#utility.yul\":14522:14528   */\n      dup3\n        /* \"#utility.yul\":14518:14535   */\n      add\n        /* \"#utility.yul\":14511:14572   */\n      mstore\n        /* \"#utility.yul\":14632:14666   */\n      0x6e646f6d5f626f6f6c282e35293f652e72616e646f6d5f6e756d282d36302c36\n        /* \"#utility.yul\":14625:14629   */\n      0x0820\n        /* \"#utility.yul\":14617:14623   */\n      dup3\n        /* \"#utility.yul\":14613:14630   */\n      add\n        /* \"#utility.yul\":14606:14667   */\n      mstore\n        /* \"#utility.yul\":14727:14761   */\n      0x30293a652e72616e646f6d5f696e74282d352c35292c623d652e72616e646f6d\n        /* \"#utility.yul\":14720:14724   */\n      0x0840\n        /* \"#utility.yul\":14712:14718   */\n      dup3\n        /* \"#utility.yul\":14708:14725   */\n      add\n        /* \"#utility.yul\":14701:14762   */\n      mstore\n        /* \"#utility.yul\":14822:14856   */\n      0x5f626f6f6c282e35292c783d652e72616e646f6d5f63686f696365285b312c2d\n        /* \"#utility.yul\":14815:14819   */\n      0x0860\n        /* \"#utility.yul\":14807:14813   */\n      dup3\n        /* \"#utility.yul\":14803:14820   */\n      add\n        /* \"#utility.yul\":14796:14857   */\n      mstore\n        /* \"#utility.yul\":14917:14951   */\n      0x315d292c413d652e72616e646f6d5f63686f696365285b312c2d315d292c6a3d\n        /* \"#utility.yul\":14910:14914   */\n      0x0880\n        /* \"#utility.yul\":14902:14908   */\n      dup3\n        /* \"#utility.yul\":14898:14915   */\n      add\n        /* \"#utility.yul\":14891:14952   */\n      mstore\n        /* \"#utility.yul\":15012:15046   */\n      0x66756e6374696f6e286e297b72657475726e20652e72616e646f6d5f63686f69\n        /* \"#utility.yul\":15005:15009   */\n      0x08a0\n        /* \"#utility.yul\":14997:15003   */\n      dup3\n        /* \"#utility.yul\":14993:15010   */\n      add\n        /* \"#utility.yul\":14986:15047   */\n      mstore\n        /* \"#utility.yul\":15107:15141   */\n      0x636528636f6c6f72297d2c6d6f6f64297b6361736520303a693d312c733d382c\n        /* \"#utility.yul\":15100:15104   */\n      0x08c0\n        /* \"#utility.yul\":15092:15098   */\n      dup3\n        /* \"#utility.yul\":15088:15105   */\n      add\n        /* \"#utility.yul\":15081:15142   */\n      mstore\n        /* \"#utility.yul\":15202:15236   */\n      0x673d352c443d3130302c723d2e322c243d2e30332c6c3d332c633d652e72616e\n        /* \"#utility.yul\":15195:15199   */\n      0x08e0\n        /* \"#utility.yul\":15187:15193   */\n      dup3\n        /* \"#utility.yul\":15183:15200   */\n      add\n        /* \"#utility.yul\":15176:15237   */\n      mstore\n        /* \"#utility.yul\":15297:15331   */\n      0x646f6d5f696e74283830302c31313030292c6d3d632f6c2c683d6d2f322c412a\n        /* \"#utility.yul\":15290:15294   */\n      0x0900\n        /* \"#utility.yul\":15282:15288   */\n      dup3\n        /* \"#utility.yul\":15278:15295   */\n      add\n        /* \"#utility.yul\":15271:15332   */\n      mstore\n        /* \"#utility.yul\":15392:15426   */\n      0x3d322c782a3d322c753d2e30362c773d652e72616e646f6d5f696e7428313030\n        /* \"#utility.yul\":15385:15389   */\n      0x0920\n        /* \"#utility.yul\":15377:15383   */\n      dup3\n        /* \"#utility.yul\":15373:15390   */\n      add\n        /* \"#utility.yul\":15366:15427   */\n      mstore\n        /* \"#utility.yul\":15491:15525   */\n      0x2c383030292c553d652e72616e646f6d5f63686f696365285b2d34352c34355d\n        /* \"#utility.yul\":15484:15488   */\n      0x0940\n        /* \"#utility.yul\":15476:15482   */\n      dup3\n        /* \"#utility.yul\":15472:15489   */\n      add\n        /* \"#utility.yul\":15465:15526   */\n      mstore\n        /* \"#utility.yul\":15586:15620   */\n      0x293b627265616b3b6361736520313a693d31352c733d31302c673d362c443d35\n        /* \"#utility.yul\":15579:15583   */\n      0x0960\n        /* \"#utility.yul\":15571:15577   */\n      dup3\n        /* \"#utility.yul\":15567:15584   */\n      add\n        /* \"#utility.yul\":15560:15621   */\n      mstore\n        /* \"#utility.yul\":15681:15715   */\n      0x302c723d2e3032352c243d2e30332c6c3d652e72616e646f6d5f6e756d28322c\n        /* \"#utility.yul\":15674:15678   */\n      0x0980\n        /* \"#utility.yul\":15666:15672   */\n      dup3\n        /* \"#utility.yul\":15662:15679   */\n      add\n        /* \"#utility.yul\":15655:15716   */\n      mstore\n        /* \"#utility.yul\":15776:15810   */\n      0x34292c633d652e72616e646f6d5f696e74283830302c31323030292c6d3d632f\n        /* \"#utility.yul\":15769:15773   */\n      0x09a0\n        /* \"#utility.yul\":15761:15767   */\n      dup3\n        /* \"#utility.yul\":15757:15774   */\n      add\n        /* \"#utility.yul\":15750:15811   */\n      mstore\n        /* \"#utility.yul\":15871:15905   */\n      0x6c2c683d6d2f652e72616e646f6d5f696e7428362c3135292c753d2e30362c77\n        /* \"#utility.yul\":15864:15868   */\n      0x09c0\n        /* \"#utility.yul\":15856:15862   */\n      dup3\n        /* \"#utility.yul\":15852:15869   */\n      add\n        /* \"#utility.yul\":15845:15906   */\n      mstore\n        /* \"#utility.yul\":15966:16000   */\n      0x3d652e72616e646f6d5f696e74283130302c383030292c553d652e72616e646f\n        /* \"#utility.yul\":15959:15963   */\n      0x09e0\n        /* \"#utility.yul\":15951:15957   */\n      dup3\n        /* \"#utility.yul\":15947:15964   */\n      add\n        /* \"#utility.yul\":15940:16001   */\n      mstore\n        /* \"#utility.yul\":16061:16095   */\n      0x6d5f63686f696365285b2d34352c34355d292c623d21303b627265616b3b6361\n        /* \"#utility.yul\":16054:16058   */\n      0x0a00\n        /* \"#utility.yul\":16046:16052   */\n      dup3\n        /* \"#utility.yul\":16042:16059   */\n      add\n        /* \"#utility.yul\":16035:16096   */\n      mstore\n        /* \"#utility.yul\":16156:16190   */\n      0x736520323a693d332c733d352c673d362c443d35302c723d2e3034352c243d2e\n        /* \"#utility.yul\":16149:16153   */\n      0x0a20\n        /* \"#utility.yul\":16141:16147   */\n      dup3\n        /* \"#utility.yul\":16137:16154   */\n      add\n        /* \"#utility.yul\":16130:16191   */\n      mstore\n        /* \"#utility.yul\":16251:16285   */\n      0x30342c6c3d652e72616e646f6d5f6e756d28322c34292c633d652e72616e646f\n        /* \"#utility.yul\":16244:16248   */\n      0x0a40\n        /* \"#utility.yul\":16236:16242   */\n      dup3\n        /* \"#utility.yul\":16232:16249   */\n      add\n        /* \"#utility.yul\":16225:16286   */\n      mstore\n        /* \"#utility.yul\":16346:16380   */\n      0x6d5f696e74283830302c31323030292c6d3d632f6c2c683d6d2f32302c753d2e\n        /* \"#utility.yul\":16339:16343   */\n      0x0a60\n        /* \"#utility.yul\":16331:16337   */\n      dup3\n        /* \"#utility.yul\":16327:16344   */\n      add\n        /* \"#utility.yul\":16320:16381   */\n      mstore\n        /* \"#utility.yul\":16441:16475   */\n      0x30362c773d652e72616e646f6d5f696e74283130302c383030292c553d652e72\n        /* \"#utility.yul\":16434:16438   */\n      0x0a80\n        /* \"#utility.yul\":16426:16432   */\n      dup3\n        /* \"#utility.yul\":16422:16439   */\n      add\n        /* \"#utility.yul\":16415:16476   */\n      mstore\n        /* \"#utility.yul\":16536:16570   */\n      0x616e646f6d5f63686f696365285b2d34352c34355d292c623d21303b62726561\n        /* \"#utility.yul\":16529:16533   */\n      0x0aa0\n        /* \"#utility.yul\":16521:16527   */\n      dup3\n        /* \"#utility.yul\":16517:16534   */\n      add\n        /* \"#utility.yul\":16510:16571   */\n      mstore\n        /* \"#utility.yul\":16631:16665   */\n      0x6b3b6361736520333a693d31352c733d322c673d362c443d35302c723d2e3033\n        /* \"#utility.yul\":16624:16628   */\n      0x0ac0\n        /* \"#utility.yul\":16616:16622   */\n      dup3\n        /* \"#utility.yul\":16612:16629   */\n      add\n        /* \"#utility.yul\":16605:16666   */\n      mstore\n        /* \"#utility.yul\":16726:16760   */\n      0x2c243d2e30342c6c3d332c633d652e72616e646f6d5f696e74283830302c3132\n        /* \"#utility.yul\":16719:16723   */\n      0x0ae0\n        /* \"#utility.yul\":16711:16717   */\n      dup3\n        /* \"#utility.yul\":16707:16724   */\n      add\n        /* \"#utility.yul\":16700:16761   */\n      mstore\n        /* \"#utility.yul\":16821:16855   */\n      0x3030292c6d3d632f6c2c683d6d2f31302c753d2e30362c553d652e72616e646f\n        /* \"#utility.yul\":16814:16818   */\n      0x0b00\n        /* \"#utility.yul\":16806:16812   */\n      dup3\n        /* \"#utility.yul\":16802:16819   */\n      add\n        /* \"#utility.yul\":16795:16856   */\n      mstore\n        /* \"#utility.yul\":16916:16950   */\n      0x6d5f63686f696365285b2d34352c34355d292c773d652e72616e646f6d5f696e\n        /* \"#utility.yul\":16909:16913   */\n      0x0b20\n        /* \"#utility.yul\":16901:16907   */\n      dup3\n        /* \"#utility.yul\":16897:16914   */\n      add\n        /* \"#utility.yul\":16890:16951   */\n      mstore\n        /* \"#utility.yul\":17011:17045   */\n      0x74283130302c383030293b627265616b3b6361736520343a693d332c733d332c\n        /* \"#utility.yul\":17004:17008   */\n      0x0b40\n        /* \"#utility.yul\":16996:17002   */\n      dup3\n        /* \"#utility.yul\":16992:17009   */\n      add\n        /* \"#utility.yul\":16985:17046   */\n      mstore\n        /* \"#utility.yul\":17106:17140   */\n      0x673d352c443d31302c723d2e30362c243d2e3030392c6c3d652e72616e646f6d\n        /* \"#utility.yul\":17099:17103   */\n      0x0b60\n        /* \"#utility.yul\":17091:17097   */\n      dup3\n        /* \"#utility.yul\":17087:17104   */\n      add\n        /* \"#utility.yul\":17080:17141   */\n      mstore\n        /* \"#utility.yul\":17201:17235   */\n      0x5f6e756d28322c34292c633d652e72616e646f6d5f696e74283830302c313230\n        /* \"#utility.yul\":17194:17198   */\n      0x0b80\n        /* \"#utility.yul\":17186:17192   */\n      dup3\n        /* \"#utility.yul\":17182:17199   */\n      add\n        /* \"#utility.yul\":17175:17236   */\n      mstore\n        /* \"#utility.yul\":17296:17330   */\n      0x30292c6d3d632f6c2c683d6d2f332c753d2e30362c773d652e72616e646f6d5f\n        /* \"#utility.yul\":17289:17293   */\n      0x0ba0\n        /* \"#utility.yul\":17281:17287   */\n      dup3\n        /* \"#utility.yul\":17277:17294   */\n      add\n        /* \"#utility.yul\":17270:17331   */\n      mstore\n        /* \"#utility.yul\":17391:17425   */\n      0x696e74283130302c383030292c553d652e72616e646f6d5f63686f696365285b\n        /* \"#utility.yul\":17384:17388   */\n      0x0bc0\n        /* \"#utility.yul\":17376:17382   */\n      dup3\n        /* \"#utility.yul\":17372:17389   */\n      add\n        /* \"#utility.yul\":17365:17426   */\n      mstore\n        /* \"#utility.yul\":17486:17520   */\n      0x2d34352c34355d293b627265616b3b6361736520353a693d332c733d332c673d\n        /* \"#utility.yul\":17479:17483   */\n      0x0be0\n        /* \"#utility.yul\":17471:17477   */\n      dup3\n        /* \"#utility.yul\":17467:17484   */\n      add\n        /* \"#utility.yul\":17460:17521   */\n      mstore\n        /* \"#utility.yul\":17581:17615   */\n      0x31302c443d3130302c723d2e30342c243d2e30342c6c3d652e72616e646f6d5f\n        /* \"#utility.yul\":17574:17578   */\n      0x0c00\n        /* \"#utility.yul\":17566:17572   */\n      dup3\n        /* \"#utility.yul\":17562:17579   */\n      add\n        /* \"#utility.yul\":17555:17616   */\n      mstore\n        /* \"#utility.yul\":17676:17710   */\n      0x6e756d28322c34292c633d652e72616e646f6d5f696e74283830302c31323030\n        /* \"#utility.yul\":17669:17673   */\n      0x0c20\n        /* \"#utility.yul\":17661:17667   */\n      dup3\n        /* \"#utility.yul\":17657:17674   */\n      add\n        /* \"#utility.yul\":17650:17711   */\n      mstore\n        /* \"#utility.yul\":17771:17805   */\n      0x292c6d3d632f6c2c683d6d2c753d2e30362c773d652e72616e646f6d5f696e74\n        /* \"#utility.yul\":17764:17768   */\n      0x0c40\n        /* \"#utility.yul\":17756:17762   */\n      dup3\n        /* \"#utility.yul\":17752:17769   */\n      add\n        /* \"#utility.yul\":17745:17806   */\n      mstore\n        /* \"#utility.yul\":17866:17900   */\n      0x283130302c383030292c553d652e72616e646f6d5f63686f696365285b2d3435\n        /* \"#utility.yul\":17859:17863   */\n      0x0c60\n        /* \"#utility.yul\":17851:17857   */\n      dup3\n        /* \"#utility.yul\":17847:17864   */\n      add\n        /* \"#utility.yul\":17840:17901   */\n      mstore\n        /* \"#utility.yul\":17961:17995   */\n      0x2c34355d293b627265616b3b6361736520363a693d332c733d312c673d31302c\n        /* \"#utility.yul\":17954:17958   */\n      0x0c80\n        /* \"#utility.yul\":17946:17952   */\n      dup3\n        /* \"#utility.yul\":17942:17959   */\n      add\n        /* \"#utility.yul\":17935:17996   */\n      mstore\n        /* \"#utility.yul\":18056:18090   */\n      0x443d3130302c723d2e30342c243d2e30342c6c3d652e72616e646f6d5f6e756d\n        /* \"#utility.yul\":18049:18053   */\n      0x0ca0\n        /* \"#utility.yul\":18041:18047   */\n      dup3\n        /* \"#utility.yul\":18037:18054   */\n      add\n        /* \"#utility.yul\":18030:18091   */\n      mstore\n        /* \"#utility.yul\":18151:18185   */\n      0x28322c34292c633d652e72616e646f6d5f696e74283830302c31323030292c6d\n        /* \"#utility.yul\":18144:18148   */\n      0x0cc0\n        /* \"#utility.yul\":18136:18142   */\n      dup3\n        /* \"#utility.yul\":18132:18149   */\n      add\n        /* \"#utility.yul\":18125:18186   */\n      mstore\n        /* \"#utility.yul\":18246:18280   */\n      0x3d632f6c2c683d6d2c753d2e30362c773d652e72616e646f6d5f696e74283130\n        /* \"#utility.yul\":18239:18243   */\n      0x0ce0\n        /* \"#utility.yul\":18231:18237   */\n      dup3\n        /* \"#utility.yul\":18227:18244   */\n      add\n        /* \"#utility.yul\":18220:18281   */\n      mstore\n        /* \"#utility.yul\":18345:18379   */\n      0x302c383030292c553d652e72616e646f6d5f63686f696365285b2d34352c3435\n        /* \"#utility.yul\":18338:18342   */\n      0x0d00\n        /* \"#utility.yul\":18330:18336   */\n      dup3\n        /* \"#utility.yul\":18326:18343   */\n      add\n        /* \"#utility.yul\":18319:18380   */\n      mstore\n        /* \"#utility.yul\":18440:18474   */\n      0x5d293b627265616b3b6361736520373a693d312c733d322c673d352c443d3430\n        /* \"#utility.yul\":18433:18437   */\n      0x0d20\n        /* \"#utility.yul\":18425:18431   */\n      dup3\n        /* \"#utility.yul\":18421:18438   */\n      add\n        /* \"#utility.yul\":18414:18475   */\n      mstore\n        /* \"#utility.yul\":18535:18569   */\n      0x2c723d652e72616e646f6d5f63686f696365285b2e30362c2e30372c2e30382c\n        /* \"#utility.yul\":18528:18532   */\n      0x0d40\n        /* \"#utility.yul\":18520:18526   */\n      dup3\n        /* \"#utility.yul\":18516:18533   */\n      add\n        /* \"#utility.yul\":18509:18570   */\n      mstore\n        /* \"#utility.yul\":18634:18668   */\n      0x2e30392c2e315d292c243d652e72616e646f6d5f63686f696365285b39652d34\n        /* \"#utility.yul\":18627:18631   */\n      0x0d60\n        /* \"#utility.yul\":18619:18625   */\n      dup3\n        /* \"#utility.yul\":18615:18632   */\n      add\n        /* \"#utility.yul\":18608:18669   */\n      mstore\n        /* \"#utility.yul\":18729:18763   */\n      0x2c38652d342c2e3030315d292c6c3d652e72616e646f6d5f6e756d28322c3429\n        /* \"#utility.yul\":18722:18726   */\n      0x0d80\n        /* \"#utility.yul\":18714:18720   */\n      dup3\n        /* \"#utility.yul\":18710:18727   */\n      add\n        /* \"#utility.yul\":18703:18764   */\n      mstore\n        /* \"#utility.yul\":18824:18858   */\n      0x2c633d652e72616e646f6d5f696e74283830302c31323030292c6d3d632f6c2c\n        /* \"#utility.yul\":18817:18821   */\n      0x0da0\n        /* \"#utility.yul\":18809:18815   */\n      dup3\n        /* \"#utility.yul\":18805:18822   */\n      add\n        /* \"#utility.yul\":18798:18859   */\n      mstore\n        /* \"#utility.yul\":18919:18953   */\n      0x683d322a6d2c753d2e30362c773d652e72616e646f6d5f696e74283130302c38\n        /* \"#utility.yul\":18912:18916   */\n      0x0dc0\n        /* \"#utility.yul\":18904:18910   */\n      dup3\n        /* \"#utility.yul\":18900:18917   */\n      add\n        /* \"#utility.yul\":18893:18954   */\n      mstore\n        /* \"#utility.yul\":19014:19048   */\n      0x3030292c553d652e72616e646f6d5f63686f696365285b2d34352c34355d292c\n        /* \"#utility.yul\":19007:19011   */\n      0x0de0\n        /* \"#utility.yul\":18999:19005   */\n      dup3\n        /* \"#utility.yul\":18995:19012   */\n      add\n        /* \"#utility.yul\":18988:19049   */\n      mstore\n        /* \"#utility.yul\":19109:19143   */\n      0x643d652e72616e646f6d5f63686f696365285b302c312c322c335d293b627265\n        /* \"#utility.yul\":19102:19106   */\n      0x0e00\n        /* \"#utility.yul\":19094:19100   */\n      dup3\n        /* \"#utility.yul\":19090:19107   */\n      add\n        /* \"#utility.yul\":19083:19144   */\n      mstore\n        /* \"#utility.yul\":19204:19238   */\n      0x616b3b6361736520383a693d312c733d312c673d31352c443d38302c723d2e30\n        /* \"#utility.yul\":19197:19201   */\n      0x0e20\n        /* \"#utility.yul\":19189:19195   */\n      dup3\n        /* \"#utility.yul\":19185:19202   */\n      add\n        /* \"#utility.yul\":19178:19239   */\n      mstore\n        /* \"#utility.yul\":19299:19333   */\n      0x392c243d2e30342c6c3d652e72616e646f6d5f6e756d28322c34292c633d652e\n        /* \"#utility.yul\":19292:19296   */\n      0x0e40\n        /* \"#utility.yul\":19284:19290   */\n      dup3\n        /* \"#utility.yul\":19280:19297   */\n      add\n        /* \"#utility.yul\":19273:19334   */\n      mstore\n        /* \"#utility.yul\":19394:19428   */\n      0x72616e646f6d5f696e74283430302c353030292c6d3d632f6c2c683d382a6d2c\n        /* \"#utility.yul\":19387:19391   */\n      0x0e60\n        /* \"#utility.yul\":19379:19385   */\n      dup3\n        /* \"#utility.yul\":19375:19392   */\n      add\n        /* \"#utility.yul\":19368:19429   */\n      mstore\n        /* \"#utility.yul\":19489:19523   */\n      0x753d2e30362c773d652e72616e646f6d5f696e74283130302c383030292c553d\n        /* \"#utility.yul\":19482:19486   */\n      0x0e80\n        /* \"#utility.yul\":19474:19480   */\n      dup3\n        /* \"#utility.yul\":19470:19487   */\n      add\n        /* \"#utility.yul\":19463:19524   */\n      mstore\n        /* \"#utility.yul\":19584:19618   */\n      0x652e72616e646f6d5f63686f696365285b2d34352c34355d293b627265616b3b\n        /* \"#utility.yul\":19577:19581   */\n      0x0ea0\n        /* \"#utility.yul\":19569:19575   */\n      dup3\n        /* \"#utility.yul\":19565:19582   */\n      add\n        /* \"#utility.yul\":19558:19619   */\n      mstore\n        /* \"#utility.yul\":19679:19713   */\n      0x6361736520393a693d392c733d312c673d35302c443d652e72616e646f6d5f69\n        /* \"#utility.yul\":19672:19676   */\n      0x0ec0\n        /* \"#utility.yul\":19664:19670   */\n      dup3\n        /* \"#utility.yul\":19660:19677   */\n      add\n        /* \"#utility.yul\":19653:19714   */\n      mstore\n        /* \"#utility.yul\":19774:19808   */\n      0x6e742835302c313030292c723d2e3030312c243d2e30362c6c3d652e72616e64\n        /* \"#utility.yul\":19767:19771   */\n      0x0ee0\n        /* \"#utility.yul\":19759:19765   */\n      dup3\n        /* \"#utility.yul\":19755:19772   */\n      add\n        /* \"#utility.yul\":19748:19809   */\n      mstore\n        /* \"#utility.yul\":19869:19903   */\n      0x6f6d5f6e756d28322c34292c633d3165332c6d3d632f6c2c683d31302a6d2c75\n        /* \"#utility.yul\":19862:19866   */\n      0x0f00\n        /* \"#utility.yul\":19854:19860   */\n      dup3\n        /* \"#utility.yul\":19850:19867   */\n      add\n        /* \"#utility.yul\":19843:19904   */\n      mstore\n        /* \"#utility.yul\":19964:19998   */\n      0x3d2e30362c773d652e72616e646f6d5f696e74283330302c383030292c553d65\n        /* \"#utility.yul\":19957:19961   */\n      0x0f20\n        /* \"#utility.yul\":19949:19955   */\n      dup3\n        /* \"#utility.yul\":19945:19962   */\n      add\n        /* \"#utility.yul\":19938:19999   */\n      mstore\n        /* \"#utility.yul\":20059:20093   */\n      0x2e72616e646f6d5f63686f696365285b2d34352c34355d293b627265616b3b63\n        /* \"#utility.yul\":20052:20056   */\n      0x0f40\n        /* \"#utility.yul\":20044:20050   */\n      dup3\n        /* \"#utility.yul\":20040:20057   */\n      add\n        /* \"#utility.yul\":20033:20094   */\n      mstore\n        /* \"#utility.yul\":20154:20188   */\n      0x6173652031303a693d352c733d312c673d35302c443d652e72616e646f6d5f69\n        /* \"#utility.yul\":20147:20151   */\n      0x0f60\n        /* \"#utility.yul\":20139:20145   */\n      dup3\n        /* \"#utility.yul\":20135:20152   */\n      add\n        /* \"#utility.yul\":20128:20189   */\n      mstore\n        /* \"#utility.yul\":20249:20283   */\n      0x6e742838302c313530292c723d2e3030312c243d2e30392c6c3d652e72616e64\n        /* \"#utility.yul\":20242:20246   */\n      0x0f80\n        /* \"#utility.yul\":20234:20240   */\n      dup3\n        /* \"#utility.yul\":20230:20247   */\n      add\n        /* \"#utility.yul\":20223:20284   */\n      mstore\n        /* \"#utility.yul\":20344:20378   */\n      0x6f6d5f6e756d28322c34292c633d3530302c6d3d632f6c2c683d31302a6d2c75\n        /* \"#utility.yul\":20337:20341   */\n      0x0fa0\n        /* \"#utility.yul\":20329:20335   */\n      dup3\n        /* \"#utility.yul\":20325:20342   */\n      add\n        /* \"#utility.yul\":20318:20379   */\n      mstore\n        /* \"#utility.yul\":20439:20473   */\n      0x3d2e30362c773d652e72616e646f6d5f696e74283330302c383030292c553d65\n        /* \"#utility.yul\":20432:20436   */\n      0x0fc0\n        /* \"#utility.yul\":20424:20430   */\n      dup3\n        /* \"#utility.yul\":20420:20437   */\n      add\n        /* \"#utility.yul\":20413:20474   */\n      mstore\n        /* \"#utility.yul\":20534:20568   */\n      0x2e72616e646f6d5f63686f696365285b2d34352c34355d293b627265616b3b63\n        /* \"#utility.yul\":20527:20531   */\n      0x0fe0\n        /* \"#utility.yul\":20519:20525   */\n      dup3\n        /* \"#utility.yul\":20515:20532   */\n      add\n        /* \"#utility.yul\":20508:20569   */\n      mstore\n        /* \"#utility.yul\":20629:20663   */\n      0x6173652031313a693d312c733d312c673d352c443d652e72616e646f6d5f6368\n        /* \"#utility.yul\":20622:20626   */\n      0x1000\n        /* \"#utility.yul\":20614:20620   */\n      dup3\n        /* \"#utility.yul\":20610:20627   */\n      add\n        /* \"#utility.yul\":20603:20664   */\n      mstore\n        /* \"#utility.yul\":20724:20758   */\n      0x6f696365285b322c32305d292c723d2e332c243d2e30392c6c3d652e72616e64\n        /* \"#utility.yul\":20717:20721   */\n      0x1020\n        /* \"#utility.yul\":20709:20715   */\n      dup3\n        /* \"#utility.yul\":20705:20722   */\n      add\n        /* \"#utility.yul\":20698:20759   */\n      mstore\n        /* \"#utility.yul\":20819:20853   */\n      0x6f6d5f6e756d28322c34292c633d31302c6d3d632f6c2c683d31302a6d2c753d\n        /* \"#utility.yul\":20812:20816   */\n      0x1040\n        /* \"#utility.yul\":20804:20810   */\n      dup3\n        /* \"#utility.yul\":20800:20817   */\n      add\n        /* \"#utility.yul\":20793:20854   */\n      mstore\n        /* \"#utility.yul\":20914:20948   */\n      0x652e72616e646f6d5f64656328292c773d652e72616e646f6d5f696e74283330\n        /* \"#utility.yul\":20907:20911   */\n      0x1060\n        /* \"#utility.yul\":20899:20905   */\n      dup3\n        /* \"#utility.yul\":20895:20912   */\n      add\n        /* \"#utility.yul\":20888:20949   */\n      mstore\n        /* \"#utility.yul\":21013:21047   */\n      0x302c383030292c553d652e72616e646f6d5f63686f696365285b2d34352c3435\n        /* \"#utility.yul\":21006:21010   */\n      0x1080\n        /* \"#utility.yul\":20998:21004   */\n      dup3\n        /* \"#utility.yul\":20994:21011   */\n      add\n        /* \"#utility.yul\":20987:21048   */\n      mstore\n        /* \"#utility.yul\":21108:21142   */\n      0x5d292c643d652e72616e646f6d5f63686f696365285b302c312c325d293b6272\n        /* \"#utility.yul\":21101:21105   */\n      0x10a0\n        /* \"#utility.yul\":21093:21099   */\n      dup3\n        /* \"#utility.yul\":21089:21106   */\n      add\n        /* \"#utility.yul\":21082:21143   */\n      mstore\n        /* \"#utility.yul\":21203:21237   */\n      0x65616b3b636173652031323a693d31302c733d312c673d32302c443d31352c72\n        /* \"#utility.yul\":21196:21200   */\n      0x10c0\n        /* \"#utility.yul\":21188:21194   */\n      dup3\n        /* \"#utility.yul\":21184:21201   */\n      add\n        /* \"#utility.yul\":21177:21238   */\n      mstore\n        /* \"#utility.yul\":21298:21332   */\n      0x3d2e312c243d2e3034352c6c3d652e72616e646f6d5f6e756d28322c34292c63\n        /* \"#utility.yul\":21291:21295   */\n      0x10e0\n        /* \"#utility.yul\":21283:21289   */\n      dup3\n        /* \"#utility.yul\":21279:21296   */\n      add\n        /* \"#utility.yul\":21272:21333   */\n      mstore\n        /* \"#utility.yul\":21393:21427   */\n      0x3d652e72616e646f6d5f696e74283830302c31313030292c6d3d632f6c2c683d\n        /* \"#utility.yul\":21386:21390   */\n      0x1100\n        /* \"#utility.yul\":21378:21384   */\n      dup3\n        /* \"#utility.yul\":21374:21391   */\n      add\n        /* \"#utility.yul\":21367:21428   */\n      mstore\n        /* \"#utility.yul\":21488:21522   */\n      0x6d2f31302c753d2e30362c773d652e72616e646f6d5f696e74283130302c3830\n        /* \"#utility.yul\":21481:21485   */\n      0x1120\n        /* \"#utility.yul\":21473:21479   */\n      dup3\n        /* \"#utility.yul\":21469:21486   */\n      add\n        /* \"#utility.yul\":21462:21523   */\n      mstore\n        /* \"#utility.yul\":21583:21617   */\n      0x30293b627265616b3b636173652031333a693d332c733d312c673d312c443d65\n        /* \"#utility.yul\":21576:21580   */\n      0x1140\n        /* \"#utility.yul\":21568:21574   */\n      dup3\n        /* \"#utility.yul\":21564:21581   */\n      add\n        /* \"#utility.yul\":21557:21618   */\n      mstore\n        /* \"#utility.yul\":21678:21712   */\n      0x2e72616e646f6d5f696e742835302c313030292c723d2e30312c243d652e7261\n        /* \"#utility.yul\":21671:21675   */\n      0x1160\n        /* \"#utility.yul\":21663:21669   */\n      dup3\n        /* \"#utility.yul\":21659:21676   */\n      add\n        /* \"#utility.yul\":21652:21713   */\n      mstore\n        /* \"#utility.yul\":21773:21807   */\n      0x6e646f6d5f6e756d282e30362c2e3039292c6c3d652e72616e646f6d5f6e756d\n        /* \"#utility.yul\":21766:21770   */\n      0x1180\n        /* \"#utility.yul\":21758:21764   */\n      dup3\n        /* \"#utility.yul\":21754:21771   */\n      add\n        /* \"#utility.yul\":21747:21808   */\n      mstore\n        /* \"#utility.yul\":21868:21902   */\n      0x28322c34292c633d652e72616e646f6d5f696e74283135302c323030292c6d3d\n        /* \"#utility.yul\":21861:21865   */\n      0x11a0\n        /* \"#utility.yul\":21853:21859   */\n      dup3\n        /* \"#utility.yul\":21849:21866   */\n      add\n        /* \"#utility.yul\":21842:21903   */\n      mstore\n        /* \"#utility.yul\":21963:21997   */\n      0x632f6c2c683d31302a6d2c753d2e30362c773d652e72616e646f6d5f696e7428\n        /* \"#utility.yul\":21956:21960   */\n      0x11c0\n        /* \"#utility.yul\":21948:21954   */\n      dup3\n        /* \"#utility.yul\":21944:21961   */\n      add\n        /* \"#utility.yul\":21937:21998   */\n      mstore\n        /* \"#utility.yul\":22062:22096   */\n      0x3330302c383030292c553d652e72616e646f6d5f63686f696365285b2d34352c\n        /* \"#utility.yul\":22055:22059   */\n      0x11e0\n        /* \"#utility.yul\":22047:22053   */\n      dup3\n        /* \"#utility.yul\":22043:22060   */\n      add\n        /* \"#utility.yul\":22036:22097   */\n      mstore\n        /* \"#utility.yul\":22157:22191   */\n      0x34355d293b627265616b3b636173652031343a693d332c733d312c673d342c44\n        /* \"#utility.yul\":22150:22154   */\n      0x1200\n        /* \"#utility.yul\":22142:22148   */\n      dup3\n        /* \"#utility.yul\":22138:22155   */\n      add\n        /* \"#utility.yul\":22131:22192   */\n      mstore\n        /* \"#utility.yul\":22252:22286   */\n      0x3d34302c723d2e312c243d2e30332c6c3d332c633d652e72616e646f6d5f696e\n        /* \"#utility.yul\":22245:22249   */\n      0x1220\n        /* \"#utility.yul\":22237:22243   */\n      dup3\n        /* \"#utility.yul\":22233:22250   */\n      add\n        /* \"#utility.yul\":22226:22287   */\n      mstore\n        /* \"#utility.yul\":22347:22381   */\n      0x74283730302c31313030292c6d3d632f6c2c683d6d2f652e72616e646f6d5f69\n        /* \"#utility.yul\":22340:22344   */\n      0x1240\n        /* \"#utility.yul\":22332:22338   */\n      dup3\n        /* \"#utility.yul\":22328:22345   */\n      add\n        /* \"#utility.yul\":22321:22382   */\n      mstore\n        /* \"#utility.yul\":22442:22476   */\n      0x6e7428322c35292c753d2e30362c773d652e72616e646f6d5f696e7428313030\n        /* \"#utility.yul\":22435:22439   */\n      0x1260\n        /* \"#utility.yul\":22427:22433   */\n      dup3\n        /* \"#utility.yul\":22423:22440   */\n      add\n        /* \"#utility.yul\":22416:22477   */\n      mstore\n        /* \"#utility.yul\":22541:22575   */\n      0x2c383030292c553d652e72616e646f6d5f63686f696365285b2d33302c33305d\n        /* \"#utility.yul\":22534:22538   */\n      0x1280\n        /* \"#utility.yul\":22526:22532   */\n      dup3\n        /* \"#utility.yul\":22522:22539   */\n      add\n        /* \"#utility.yul\":22515:22576   */\n      mstore\n        /* \"#utility.yul\":22640:22674   */\n      0x292c412a3d332c782a3d332c6a3d66756e6374696f6e2865297b72657475726e\n        /* \"#utility.yul\":22633:22637   */\n      0x12a0\n        /* \"#utility.yul\":22625:22631   */\n      dup3\n        /* \"#utility.yul\":22621:22638   */\n      add\n        /* \"#utility.yul\":22614:22675   */\n      mstore\n        /* \"#utility.yul\":22735:22769   */\n      0x20636f6c6f725b655d7d3b627265616b3b636173652031353a693d332c733d35\n        /* \"#utility.yul\":22728:22732   */\n      0x12c0\n        /* \"#utility.yul\":22720:22726   */\n      dup3\n        /* \"#utility.yul\":22716:22733   */\n      add\n        /* \"#utility.yul\":22709:22770   */\n      mstore\n        /* \"#utility.yul\":22830:22864   */\n      0x2c673d332c443d33302c723d2e3032352c243d2e30332c6c3d652e72616e646f\n        /* \"#utility.yul\":22823:22827   */\n      0x12e0\n        /* \"#utility.yul\":22815:22821   */\n      dup3\n        /* \"#utility.yul\":22811:22828   */\n      add\n        /* \"#utility.yul\":22804:22865   */\n      mstore\n        /* \"#utility.yul\":22925:22959   */\n      0x6d5f6e756d28322c34292c633d652e72616e646f6d5f696e74283830302c3132\n        /* \"#utility.yul\":22918:22922   */\n      0x1300\n        /* \"#utility.yul\":22910:22916   */\n      dup3\n        /* \"#utility.yul\":22906:22923   */\n      add\n        /* \"#utility.yul\":22899:22960   */\n      mstore\n        /* \"#utility.yul\":23020:23054   */\n      0x3030292c6d3d632f6c2c683d6d2f35302c753d2e30362c773d652e72616e646f\n        /* \"#utility.yul\":23013:23017   */\n      0x1320\n        /* \"#utility.yul\":23005:23011   */\n      dup3\n        /* \"#utility.yul\":23001:23018   */\n      add\n        /* \"#utility.yul\":22994:23055   */\n      mstore\n        /* \"#utility.yul\":23115:23149   */\n      0x6d5f696e74283130302c383030292c553d652e72616e646f6d5f63686f696365\n        /* \"#utility.yul\":23108:23112   */\n      0x1340\n        /* \"#utility.yul\":23100:23106   */\n      dup3\n        /* \"#utility.yul\":23096:23113   */\n      add\n        /* \"#utility.yul\":23089:23150   */\n      mstore\n        /* \"#utility.yul\":23210:23244   */\n      0x285b2d34352c34355d292c623d21303b627265616b3b636173652031363a693d\n        /* \"#utility.yul\":23203:23207   */\n      0x1360\n        /* \"#utility.yul\":23195:23201   */\n      dup3\n        /* \"#utility.yul\":23191:23208   */\n      add\n        /* \"#utility.yul\":23184:23245   */\n      mstore\n        /* \"#utility.yul\":23305:23339   */\n      0x322c733d312c673d332c443d31302c723d2e3031352c243d2e332c6c3d652e72\n        /* \"#utility.yul\":23298:23302   */\n      0x1380\n        /* \"#utility.yul\":23290:23296   */\n      dup3\n        /* \"#utility.yul\":23286:23303   */\n      add\n        /* \"#utility.yul\":23279:23340   */\n      mstore\n        /* \"#utility.yul\":23400:23434   */\n      0x616e646f6d5f6e756d28322c34292c633d652e72616e646f6d5f696e74283830\n        /* \"#utility.yul\":23393:23397   */\n      0x13a0\n        /* \"#utility.yul\":23385:23391   */\n      dup3\n        /* \"#utility.yul\":23381:23398   */\n      add\n        /* \"#utility.yul\":23374:23435   */\n      mstore\n        /* \"#utility.yul\":23495:23529   */\n      0x302c31323030292c6d3d632f6c2c683d6d2f3130302c753d2e30362c773d652e\n        /* \"#utility.yul\":23488:23492   */\n      0x13c0\n        /* \"#utility.yul\":23480:23486   */\n      dup3\n        /* \"#utility.yul\":23476:23493   */\n      add\n        /* \"#utility.yul\":23469:23530   */\n      mstore\n        /* \"#utility.yul\":23590:23624   */\n      0x72616e646f6d5f696e74283130302c383030292c553d652e72616e646f6d5f63\n        /* \"#utility.yul\":23583:23587   */\n      0x13e0\n        /* \"#utility.yul\":23575:23581   */\n      dup3\n        /* \"#utility.yul\":23571:23588   */\n      add\n        /* \"#utility.yul\":23564:23625   */\n      mstore\n        /* \"#utility.yul\":23685:23719   */\n      0x686f696365285b2d34352c34355d292c782a3d332c412a3d332c643d652e7261\n        /* \"#utility.yul\":23678:23682   */\n      0x1400\n        /* \"#utility.yul\":23670:23676   */\n      dup3\n        /* \"#utility.yul\":23666:23683   */\n      add\n        /* \"#utility.yul\":23659:23720   */\n      mstore\n        /* \"#utility.yul\":23780:23814   */\n      0x6e646f6d5f63686f696365285b312c322c335d293b627265616b3b6361736520\n        /* \"#utility.yul\":23773:23777   */\n      0x1420\n        /* \"#utility.yul\":23765:23771   */\n      dup3\n        /* \"#utility.yul\":23761:23778   */\n      add\n        /* \"#utility.yul\":23754:23815   */\n      mstore\n        /* \"#utility.yul\":23875:23909   */\n      0x31373a693d352c733d322c673d332c443d31302c723d2e3038352c243d2e352c\n        /* \"#utility.yul\":23868:23872   */\n      0x1440\n        /* \"#utility.yul\":23860:23866   */\n      dup3\n        /* \"#utility.yul\":23856:23873   */\n      add\n        /* \"#utility.yul\":23849:23910   */\n      mstore\n        /* \"#utility.yul\":23970:24004   */\n      0x6c3d652e72616e646f6d5f6e756d28322c34292c633d652e72616e646f6d5f69\n        /* \"#utility.yul\":23963:23967   */\n      0x1460\n        /* \"#utility.yul\":23955:23961   */\n      dup3\n        /* \"#utility.yul\":23951:23968   */\n      add\n        /* \"#utility.yul\":23944:24005   */\n      mstore\n        /* \"#utility.yul\":24065:24099   */\n      0x6e74283830302c31323030292c6d3d632f6c2c683d6d2f3330302c753d2e3036\n        /* \"#utility.yul\":24058:24062   */\n      0x1480\n        /* \"#utility.yul\":24050:24056   */\n      dup3\n        /* \"#utility.yul\":24046:24063   */\n      add\n        /* \"#utility.yul\":24039:24100   */\n      mstore\n        /* \"#utility.yul\":24160:24194   */\n      0x2c773d652e72616e646f6d5f696e74283130302c383030292c553d652e72616e\n        /* \"#utility.yul\":24153:24157   */\n      0x14a0\n        /* \"#utility.yul\":24145:24151   */\n      dup3\n        /* \"#utility.yul\":24141:24158   */\n      add\n        /* \"#utility.yul\":24134:24195   */\n      mstore\n        /* \"#utility.yul\":24255:24289   */\n      0x646f6d5f63686f696365285b2d34352c34355d292c782a3d332c412a3d332c64\n        /* \"#utility.yul\":24248:24252   */\n      0x14c0\n        /* \"#utility.yul\":24240:24246   */\n      dup3\n        /* \"#utility.yul\":24236:24253   */\n      add\n        /* \"#utility.yul\":24229:24290   */\n      mstore\n        /* \"#utility.yul\":24350:24384   */\n      0x3d652e72616e646f6d5f63686f696365285b312c322c335d293b627265616b3b\n        /* \"#utility.yul\":24343:24347   */\n      0x14e0\n        /* \"#utility.yul\":24335:24341   */\n      dup3\n        /* \"#utility.yul\":24331:24348   */\n      add\n        /* \"#utility.yul\":24324:24385   */\n      mstore\n        /* \"#utility.yul\":24445:24479   */\n      0x636173652031383a693d312c733d312c673d352c443d3130302c723d2e312c24\n        /* \"#utility.yul\":24438:24442   */\n      0x1500\n        /* \"#utility.yul\":24430:24436   */\n      dup3\n        /* \"#utility.yul\":24426:24443   */\n      add\n        /* \"#utility.yul\":24419:24480   */\n      mstore\n        /* \"#utility.yul\":24540:24574   */\n      0x3d2e312c6c3d332c633d652e72616e646f6d5f696e74283830302c3131303029\n        /* \"#utility.yul\":24533:24537   */\n      0x1520\n        /* \"#utility.yul\":24525:24531   */\n      dup3\n        /* \"#utility.yul\":24521:24538   */\n      add\n        /* \"#utility.yul\":24514:24575   */\n      mstore\n        /* \"#utility.yul\":24635:24669   */\n      0x2c6d3d632f6c2c683d6d2f322c753d2e30362c773d652e72616e646f6d5f696e\n        /* \"#utility.yul\":24628:24632   */\n      0x1540\n        /* \"#utility.yul\":24620:24626   */\n      dup3\n        /* \"#utility.yul\":24616:24633   */\n      add\n        /* \"#utility.yul\":24609:24670   */\n      mstore\n        /* \"#utility.yul\":24730:24764   */\n      0x74283130302c383030292c553d652e72616e646f6d5f63686f696365285b2d34\n        /* \"#utility.yul\":24723:24727   */\n      0x1560\n        /* \"#utility.yul\":24715:24721   */\n      dup3\n        /* \"#utility.yul\":24711:24728   */\n      add\n        /* \"#utility.yul\":24704:24765   */\n      mstore\n        /* \"#utility.yul\":24825:24859   */\n      0x352c34355d293b627265616b3b636173652031393a693d31302c733d312c673d\n        /* \"#utility.yul\":24818:24822   */\n      0x1580\n        /* \"#utility.yul\":24810:24816   */\n      dup3\n        /* \"#utility.yul\":24806:24823   */\n      add\n        /* \"#utility.yul\":24799:24860   */\n      mstore\n        /* \"#utility.yul\":24920:24954   */\n      0x362c443d31302c723d2e3032382c243d2e30322c6c3d342c633d652e72616e64\n        /* \"#utility.yul\":24913:24917   */\n      0x15a0\n        /* \"#utility.yul\":24905:24911   */\n      dup3\n        /* \"#utility.yul\":24901:24918   */\n      add\n        /* \"#utility.yul\":24894:24955   */\n      mstore\n        /* \"#utility.yul\":25015:25049   */\n      0x6f6d5f696e74283830302c31313030292c6d3d632f6c2c683d6d2f332c753d2e\n        /* \"#utility.yul\":25008:25012   */\n      0x15c0\n        /* \"#utility.yul\":25000:25006   */\n      dup3\n        /* \"#utility.yul\":24996:25013   */\n      add\n        /* \"#utility.yul\":24989:25050   */\n      mstore\n        /* \"#utility.yul\":25110:25144   */\n      0x30362c773d652e72616e646f6d5f696e74283130302c383030292c553d652e72\n        /* \"#utility.yul\":25103:25107   */\n      0x15e0\n        /* \"#utility.yul\":25095:25101   */\n      dup3\n        /* \"#utility.yul\":25091:25108   */\n      add\n        /* \"#utility.yul\":25084:25145   */\n      mstore\n        /* \"#utility.yul\":25205:25239   */\n      0x616e646f6d5f63686f696365285b2d34352c34355d293b627265616b3b636173\n        /* \"#utility.yul\":25198:25202   */\n      0x1600\n        /* \"#utility.yul\":25190:25196   */\n      dup3\n        /* \"#utility.yul\":25186:25203   */\n      add\n        /* \"#utility.yul\":25179:25240   */\n      mstore\n        /* \"#utility.yul\":25300:25334   */\n      0x652032303a693d31352c733d31302c673d362c443d3130302c723d2e30332c24\n        /* \"#utility.yul\":25293:25297   */\n      0x1620\n        /* \"#utility.yul\":25285:25291   */\n      dup3\n        /* \"#utility.yul\":25281:25298   */\n      add\n        /* \"#utility.yul\":25274:25335   */\n      mstore\n        /* \"#utility.yul\":25395:25429   */\n      0x3d2e30322c6c3d652e72616e646f6d5f6e756d28322c34292c633d652e72616e\n        /* \"#utility.yul\":25388:25392   */\n      0x1640\n        /* \"#utility.yul\":25380:25386   */\n      dup3\n        /* \"#utility.yul\":25376:25393   */\n      add\n        /* \"#utility.yul\":25369:25430   */\n      mstore\n        /* \"#utility.yul\":25490:25524   */\n      0x646f6d5f696e74283830302c31313030292c6d3d632f6c2c683d6d2f31302c75\n        /* \"#utility.yul\":25483:25487   */\n      0x1660\n        /* \"#utility.yul\":25475:25481   */\n      dup3\n        /* \"#utility.yul\":25471:25488   */\n      add\n        /* \"#utility.yul\":25464:25525   */\n      mstore\n        /* \"#utility.yul\":25585:25619   */\n      0x3d2e30362c773d652e72616e646f6d5f696e74283130302c383030292c553d65\n        /* \"#utility.yul\":25578:25582   */\n      0x1680\n        /* \"#utility.yul\":25570:25576   */\n      dup3\n        /* \"#utility.yul\":25566:25583   */\n      add\n        /* \"#utility.yul\":25559:25620   */\n      mstore\n        /* \"#utility.yul\":25680:25714   */\n      0x2e72616e646f6d5f63686f696365285b2d34352c34355d293b627265616b3b63\n        /* \"#utility.yul\":25673:25677   */\n      0x16a0\n        /* \"#utility.yul\":25665:25671   */\n      dup3\n        /* \"#utility.yul\":25661:25678   */\n      add\n        /* \"#utility.yul\":25654:25715   */\n      mstore\n        /* \"#utility.yul\":25775:25809   */\n      0x6173652032313a693d382c733d312c673d31302c443d35302c723d2e3031352c\n        /* \"#utility.yul\":25768:25772   */\n      0x16c0\n        /* \"#utility.yul\":25760:25766   */\n      dup3\n        /* \"#utility.yul\":25756:25773   */\n      add\n        /* \"#utility.yul\":25749:25810   */\n      mstore\n        /* \"#utility.yul\":25870:25904   */\n      0x243d2e30322c6c3d332c633d652e72616e646f6d5f696e74283830302c313130\n        /* \"#utility.yul\":25863:25867   */\n      0x16e0\n        /* \"#utility.yul\":25855:25861   */\n      dup3\n        /* \"#utility.yul\":25851:25868   */\n      add\n        /* \"#utility.yul\":25844:25905   */\n      mstore\n        /* \"#utility.yul\":25965:25999   */\n      0x30292c6d3d632f6c2c683d6d2f332c753d2e30362c773d652e72616e646f6d5f\n        /* \"#utility.yul\":25958:25962   */\n      0x1700\n        /* \"#utility.yul\":25950:25956   */\n      dup3\n        /* \"#utility.yul\":25946:25963   */\n      add\n        /* \"#utility.yul\":25939:26000   */\n      mstore\n        /* \"#utility.yul\":26060:26094   */\n      0x696e74283130302c383030292c553d652e72616e646f6d5f63686f696365285b\n        /* \"#utility.yul\":26053:26057   */\n      0x1720\n        /* \"#utility.yul\":26045:26051   */\n      dup3\n        /* \"#utility.yul\":26041:26058   */\n      add\n        /* \"#utility.yul\":26034:26095   */\n      mstore\n        /* \"#utility.yul\":26155:26189   */\n      0x2d34352c34355d293b627265616b3b636173652032323a693d332c733d31352c\n        /* \"#utility.yul\":26148:26152   */\n      0x1740\n        /* \"#utility.yul\":26140:26146   */\n      dup3\n        /* \"#utility.yul\":26136:26153   */\n      add\n        /* \"#utility.yul\":26129:26190   */\n      mstore\n        /* \"#utility.yul\":26250:26284   */\n      0x543d312c673d362c443d31302c723d2e30322c243d2e32352c493d2e30312c6c\n        /* \"#utility.yul\":26243:26247   */\n      0x1760\n        /* \"#utility.yul\":26235:26241   */\n      dup3\n        /* \"#utility.yul\":26231:26248   */\n      add\n        /* \"#utility.yul\":26224:26285   */\n      mstore\n        /* \"#utility.yul\":26345:26379   */\n      0x3d342c633d652e72616e646f6d5f696e74283530302c31313030292c6d3d632f\n        /* \"#utility.yul\":26338:26342   */\n      0x1780\n        /* \"#utility.yul\":26330:26336   */\n      dup3\n        /* \"#utility.yul\":26326:26343   */\n      add\n        /* \"#utility.yul\":26319:26380   */\n      mstore\n        /* \"#utility.yul\":26440:26474   */\n      0x6c2c683d6d2f38302c5f3d6d2f33302c753d2e30362c773d652e72616e646f6d\n        /* \"#utility.yul\":26433:26437   */\n      0x17a0\n        /* \"#utility.yul\":26425:26431   */\n      dup3\n        /* \"#utility.yul\":26421:26438   */\n      add\n        /* \"#utility.yul\":26414:26475   */\n      mstore\n        /* \"#utility.yul\":26535:26569   */\n      0x5f696e74283130302c383030292c553d652e72616e646f6d5f63686f69636528\n        /* \"#utility.yul\":26528:26532   */\n      0x17c0\n        /* \"#utility.yul\":26520:26526   */\n      dup3\n        /* \"#utility.yul\":26516:26533   */\n      add\n        /* \"#utility.yul\":26509:26570   */\n      mstore\n        /* \"#utility.yul\":26630:26664   */\n      0x5b2d34352c34355d292c473d21303b627265616b3b636173652032333a693d35\n        /* \"#utility.yul\":26623:26627   */\n      0x17e0\n        /* \"#utility.yul\":26615:26621   */\n      dup3\n        /* \"#utility.yul\":26611:26628   */\n      add\n        /* \"#utility.yul\":26604:26665   */\n      mstore\n        /* \"#utility.yul\":26725:26759   */\n      0x2c733d312c543d31302c673d33302c443d3130302c723d2e30342c243d2e312c\n        /* \"#utility.yul\":26718:26722   */\n      0x1800\n        /* \"#utility.yul\":26710:26716   */\n      dup3\n        /* \"#utility.yul\":26706:26723   */\n      add\n        /* \"#utility.yul\":26699:26760   */\n      mstore\n        /* \"#utility.yul\":26820:26854   */\n      0x493d2e30312c6c3d332c633d652e72616e646f6d5f696e74283530302c313130\n        /* \"#utility.yul\":26813:26817   */\n      0x1820\n        /* \"#utility.yul\":26805:26811   */\n      dup3\n        /* \"#utility.yul\":26801:26818   */\n      add\n        /* \"#utility.yul\":26794:26855   */\n      mstore\n        /* \"#utility.yul\":26915:26949   */\n      0x30292c6d3d632f6c2c683d332a6d2c5f3d6d2f35302c753d2e30362c773d652e\n        /* \"#utility.yul\":26908:26912   */\n      0x1840\n        /* \"#utility.yul\":26900:26906   */\n      dup3\n        /* \"#utility.yul\":26896:26913   */\n      add\n        /* \"#utility.yul\":26889:26950   */\n      mstore\n        /* \"#utility.yul\":27010:27044   */\n      0x72616e646f6d5f696e74283130302c383030292c553d652e72616e646f6d5f63\n        /* \"#utility.yul\":27003:27007   */\n      0x1860\n        /* \"#utility.yul\":26995:27001   */\n      dup3\n        /* \"#utility.yul\":26991:27008   */\n      add\n        /* \"#utility.yul\":26984:27045   */\n      mstore\n        /* \"#utility.yul\":27105:27139   */\n      0x686f696365285b2d34352c34355d292c473d21303b627265616b3b6361736520\n        /* \"#utility.yul\":27098:27102   */\n      0x1880\n        /* \"#utility.yul\":27090:27096   */\n      dup3\n        /* \"#utility.yul\":27086:27103   */\n      add\n        /* \"#utility.yul\":27079:27140   */\n      mstore\n        /* \"#utility.yul\":27200:27234   */\n      0x32343a693d312c733d352c543d31302c673d31302c443d31302c723d2e30312c\n        /* \"#utility.yul\":27193:27197   */\n      0x18a0\n        /* \"#utility.yul\":27185:27191   */\n      dup3\n        /* \"#utility.yul\":27181:27198   */\n      add\n        /* \"#utility.yul\":27174:27235   */\n      mstore\n        /* \"#utility.yul\":27295:27329   */\n      0x243d2e30392c493d2e30392c6c3d342c633d652e72616e646f6d5f696e742838\n        /* \"#utility.yul\":27288:27292   */\n      0x18c0\n        /* \"#utility.yul\":27280:27286   */\n      dup3\n        /* \"#utility.yul\":27276:27293   */\n      add\n        /* \"#utility.yul\":27269:27330   */\n      mstore\n        /* \"#utility.yul\":27390:27424   */\n      0x30302c31313030292c6d3d632f6c2c683d6d2f3130302c5f3d332a6d2c753d2e\n        /* \"#utility.yul\":27383:27387   */\n      0x18e0\n        /* \"#utility.yul\":27375:27381   */\n      dup3\n        /* \"#utility.yul\":27371:27388   */\n      add\n        /* \"#utility.yul\":27364:27425   */\n      mstore\n        /* \"#utility.yul\":27485:27519   */\n      0x30362c773d652e72616e646f6d5f696e74283130302c383030292c553d652e72\n        /* \"#utility.yul\":27478:27482   */\n      0x1900\n        /* \"#utility.yul\":27470:27476   */\n      dup3\n        /* \"#utility.yul\":27466:27483   */\n      add\n        /* \"#utility.yul\":27459:27520   */\n      mstore\n        /* \"#utility.yul\":27580:27614   */\n      0x616e646f6d5f63686f696365285b2d34352c34355d292c473d21302c643d652e\n        /* \"#utility.yul\":27573:27577   */\n      0x1920\n        /* \"#utility.yul\":27565:27571   */\n      dup3\n        /* \"#utility.yul\":27561:27578   */\n      add\n        /* \"#utility.yul\":27554:27615   */\n      mstore\n        /* \"#utility.yul\":27675:27709   */\n      0x72616e646f6d5f63686f696365285b322c305d293b627265616b3b6361736520\n        /* \"#utility.yul\":27668:27672   */\n      0x1940\n        /* \"#utility.yul\":27660:27666   */\n      dup3\n        /* \"#utility.yul\":27656:27673   */\n      add\n        /* \"#utility.yul\":27649:27710   */\n      mstore\n        /* \"#utility.yul\":27770:27804   */\n      0x32353a693d332c733d332c543d31302c673d31302c443d33302c723d2e312c24\n        /* \"#utility.yul\":27763:27767   */\n      0x1960\n        /* \"#utility.yul\":27755:27761   */\n      dup3\n        /* \"#utility.yul\":27751:27768   */\n      add\n        /* \"#utility.yul\":27744:27805   */\n      mstore\n        /* \"#utility.yul\":27865:27899   */\n      0x3d2e30312c493d2e312c6c3d352c633d652e72616e646f6d5f696e7428353030\n        /* \"#utility.yul\":27858:27862   */\n      0x1980\n        /* \"#utility.yul\":27850:27856   */\n      dup3\n        /* \"#utility.yul\":27846:27863   */\n      add\n        /* \"#utility.yul\":27839:27900   */\n      mstore\n        /* \"#utility.yul\":27960:27994   */\n      0x2c31313030292c6d3d632f6c2c683d6d2c5f3d6d2f31302c753d2e30362c773d\n        /* \"#utility.yul\":27953:27957   */\n      0x19a0\n        /* \"#utility.yul\":27945:27951   */\n      dup3\n        /* \"#utility.yul\":27941:27958   */\n      add\n        /* \"#utility.yul\":27934:27995   */\n      mstore\n        /* \"#utility.yul\":28055:28089   */\n      0x652e72616e646f6d5f696e74283130302c383030292c553d652e72616e646f6d\n        /* \"#utility.yul\":28048:28052   */\n      0x19c0\n        /* \"#utility.yul\":28040:28046   */\n      dup3\n        /* \"#utility.yul\":28036:28053   */\n      add\n        /* \"#utility.yul\":28029:28090   */\n      mstore\n        /* \"#utility.yul\":28150:28184   */\n      0x5f63686f696365285b2d34352c34355d292c473d21303b627265616b3b636173\n        /* \"#utility.yul\":28143:28147   */\n      0x19e0\n        /* \"#utility.yul\":28135:28141   */\n      dup3\n        /* \"#utility.yul\":28131:28148   */\n      add\n        /* \"#utility.yul\":28124:28185   */\n      mstore\n        /* \"#utility.yul\":28245:28279   */\n      0x652032363a693d332c733d332c543d362c673d31302c443d33302c723d2e312c\n        /* \"#utility.yul\":28238:28242   */\n      0x1a00\n        /* \"#utility.yul\":28230:28236   */\n      dup3\n        /* \"#utility.yul\":28226:28243   */\n      add\n        /* \"#utility.yul\":28219:28280   */\n      mstore\n        /* \"#utility.yul\":28340:28374   */\n      0x243d2e30312c493d2e312c6c3d352c633d652e72616e646f6d5f696e74283530\n        /* \"#utility.yul\":28333:28337   */\n      0x1a20\n        /* \"#utility.yul\":28325:28331   */\n      dup3\n        /* \"#utility.yul\":28321:28338   */\n      add\n        /* \"#utility.yul\":28314:28375   */\n      mstore\n        /* \"#utility.yul\":28435:28469   */\n      0x302c31313030292c6d3d632f6c2c683d6d2c5f3d6d2f35302c753d2e30362c77\n        /* \"#utility.yul\":28428:28432   */\n      0x1a40\n        /* \"#utility.yul\":28420:28426   */\n      dup3\n        /* \"#utility.yul\":28416:28433   */\n      add\n        /* \"#utility.yul\":28409:28470   */\n      mstore\n        /* \"#utility.yul\":28530:28564   */\n      0x3d652e72616e646f6d5f696e74283130302c383030292c553d652e72616e646f\n        /* \"#utility.yul\":28523:28527   */\n      0x1a60\n        /* \"#utility.yul\":28515:28521   */\n      dup3\n        /* \"#utility.yul\":28511:28528   */\n      add\n        /* \"#utility.yul\":28504:28565   */\n      mstore\n        /* \"#utility.yul\":28621:28655   */\n      0x6d5f63686f696365285b2d34352c34355d292c473d21307d552b3d343d3d3d64\n        /* \"#utility.yul\":28614:28618   */\n      0x1a80\n        /* \"#utility.yul\":28606:28612   */\n      dup3\n        /* \"#utility.yul\":28602:28619   */\n      add\n        /* \"#utility.yul\":28595:28656   */\n      mstore\n        /* \"#utility.yul\":28712:28746   */\n      0x3f652e72616e646f6d5f63686f696365285b2d34352c34355d293a302c243d24\n        /* \"#utility.yul\":28705:28709   */\n      0x1aa0\n        /* \"#utility.yul\":28697:28703   */\n      dup3\n        /* \"#utility.yul\":28693:28710   */\n      add\n        /* \"#utility.yul\":28686:28747   */\n      mstore\n        /* \"#utility.yul\":28803:28837   */\n      0x7c7c302c733d737c7c302c503d21312c713d21302c4d3d652e72616e646f6d5f\n        /* \"#utility.yul\":28796:28800   */\n      0x1ac0\n        /* \"#utility.yul\":28788:28794   */\n      dup3\n        /* \"#utility.yul\":28784:28801   */\n      add\n        /* \"#utility.yul\":28777:28838   */\n      mstore\n        /* \"#utility.yul\":28894:28928   */\n      0x63686f696365285b2e3939342c2e3939352c2e3939362c2e3939372c2e393938\n        /* \"#utility.yul\":28887:28891   */\n      0x1ae0\n        /* \"#utility.yul\":28879:28885   */\n      dup3\n        /* \"#utility.yul\":28875:28892   */\n      add\n        /* \"#utility.yul\":28868:28929   */\n      mstore\n        /* \"#utility.yul\":28985:29019   */\n      0x5d292c4e3d312d652e72616e646f6d5f696e7428312c32292a4d2b312c4c3d2d\n        /* \"#utility.yul\":28978:28982   */\n      0x1b00\n        /* \"#utility.yul\":28970:28976   */\n      dup3\n        /* \"#utility.yul\":28966:28983   */\n      add\n        /* \"#utility.yul\":28959:29020   */\n      mstore\n        /* \"#utility.yul\":29076:29110   */\n      0x35302c533d3235302c453d2d3130302c433d3135302c763d28432d45292f342c\n        /* \"#utility.yul\":29069:29073   */\n      0x1b20\n        /* \"#utility.yul\":29061:29067   */\n      dup3\n        /* \"#utility.yul\":29057:29074   */\n      add\n        /* \"#utility.yul\":29050:29111   */\n      mstore\n        /* \"#utility.yul\":29167:29201   */\n      0x663d652e72616e646f6d5f696e7428452c43292c703d652e72616e646f6d5f69\n        /* \"#utility.yul\":29160:29164   */\n      0x1b40\n        /* \"#utility.yul\":29152:29158   */\n      dup3\n        /* \"#utility.yul\":29148:29165   */\n      add\n        /* \"#utility.yul\":29141:29202   */\n      mstore\n        /* \"#utility.yul\":29258:29292   */\n      0x6e7428302c313030292c793d652e72616e646f6d5f696e7428312c316533292c\n        /* \"#utility.yul\":29251:29255   */\n      0x1b60\n        /* \"#utility.yul\":29243:29249   */\n      dup3\n        /* \"#utility.yul\":29239:29256   */\n      add\n        /* \"#utility.yul\":29232:29293   */\n      mstore\n        /* \"#utility.yul\":29349:29383   */\n      0x573d27272c523d28432d45292f322c4c3d652e72616e646f6d5f696e74282d31\n        /* \"#utility.yul\":29342:29346   */\n      0x1b80\n        /* \"#utility.yul\":29334:29340   */\n      dup3\n        /* \"#utility.yul\":29330:29347   */\n      add\n        /* \"#utility.yul\":29323:29384   */\n      mstore\n        /* \"#utility.yul\":29444:29478   */\n      0x322e352c31322e35292c636f6e736f6c652e6c6f672827626173654672657127\n        /* \"#utility.yul\":29437:29441   */\n      0x1ba0\n        /* \"#utility.yul\":29429:29435   */\n      dup3\n        /* \"#utility.yul\":29425:29442   */\n      add\n        /* \"#utility.yul\":29418:29479   */\n      mstore\n        /* \"#utility.yul\":29539:29573   */\n      0x2c722c2764656e73697479272c672c277374726f6b655769647468272c442c27\n        /* \"#utility.yul\":29532:29536   */\n      0x1bc0\n        /* \"#utility.yul\":29524:29530   */\n      dup3\n        /* \"#utility.yul\":29520:29537   */\n      add\n        /* \"#utility.yul\":29513:29574   */\n      mstore\n        /* \"#utility.yul\":29634:29668   */\n      0x7363616c65272c632c277363616c6532272c6d2c277363616c6534272c5f2c27\n        /* \"#utility.yul\":29627:29631   */\n      0x1be0\n        /* \"#utility.yul\":29619:29625   */\n      dup3\n        /* \"#utility.yul\":29615:29632   */\n      add\n        /* \"#utility.yul\":29608:29669   */\n      mstore\n        /* \"#utility.yul\":29729:29763   */\n      0x64656e73697479496e6372656d656e74272c752c277363616c65206469766964\n        /* \"#utility.yul\":29722:29726   */\n      0x1c00\n        /* \"#utility.yul\":29714:29720   */\n      dup3\n        /* \"#utility.yul\":29710:29727   */\n      add\n        /* \"#utility.yul\":29703:29764   */\n      mstore\n        /* \"#utility.yul\":29824:29858   */\n      0x65272c6c2c276e756d4f637461766573272c692c276e756d4f63746176657332\n        /* \"#utility.yul\":29817:29821   */\n      0x1c20\n        /* \"#utility.yul\":29809:29815   */\n      dup3\n        /* \"#utility.yul\":29805:29822   */\n      add\n        /* \"#utility.yul\":29798:29859   */\n      mstore\n        /* \"#utility.yul\":29919:29953   */\n      0x272c732c276d6f6f64272c6d6f6f642c2774797065272c642c2765726f73696f\n        /* \"#utility.yul\":29912:29916   */\n      0x1c40\n        /* \"#utility.yul\":29904:29910   */\n      dup3\n        /* \"#utility.yul\":29900:29917   */\n      add\n        /* \"#utility.yul\":29893:29954   */\n      mstore\n        /* \"#utility.yul\":30014:30048   */\n      0x6e272c772c276973566572746963616c272c622c27636f6c6f72272c636f6c6f\n        /* \"#utility.yul\":30007:30011   */\n      0x1c60\n        /* \"#utility.yul\":29999:30005   */\n      dup3\n        /* \"#utility.yul\":29995:30012   */\n      add\n        /* \"#utility.yul\":29988:30049   */\n      mstore\n        /* \"#utility.yul\":30101:30135   */\n      0x725b305d2c27636f6c6f724e616d65272c4b297d28292c6177616974206e6577\n        /* \"#utility.yul\":30094:30098   */\n      0x1c80\n        /* \"#utility.yul\":30086:30092   */\n      dup3\n        /* \"#utility.yul\":30082:30099   */\n      add\n        /* \"#utility.yul\":30075:30136   */\n      mstore\n        /* \"#utility.yul\":30188:30222   */\n      0x2050726f6d6973652828653d3e73657454696d656f757428652c323030292929\n        /* \"#utility.yul\":30181:30185   */\n      0x1ca0\n        /* \"#utility.yul\":30173:30179   */\n      dup3\n        /* \"#utility.yul\":30169:30186   */\n      add\n        /* \"#utility.yul\":30162:30223   */\n      mstore\n        /* \"#utility.yul\":30275:30309   */\n      0x2c72657175657374416e696d6174696f6e4672616d65282866756e6374696f6e\n        /* \"#utility.yul\":30268:30272   */\n      0x1cc0\n        /* \"#utility.yul\":30260:30266   */\n      dup3\n        /* \"#utility.yul\":30256:30273   */\n      add\n        /* \"#utility.yul\":30249:30310   */\n      mstore\n        /* \"#utility.yul\":30370:30404   */\n      0x28297b7570646174654c6f6164657228274c6f6164696e672066696c74657273\n        /* \"#utility.yul\":30363:30367   */\n      0x1ce0\n        /* \"#utility.yul\":30355:30361   */\n      dup3\n        /* \"#utility.yul\":30351:30368   */\n      add\n        /* \"#utility.yul\":30344:30405   */\n      mstore\n        /* \"#utility.yul\":30465:30499   */\n      0x27297d29292c6177616974206e65772050726f6d6973652828653d3e73657454\n        /* \"#utility.yul\":30458:30462   */\n      0x1d00\n        /* \"#utility.yul\":30450:30456   */\n      dup3\n        /* \"#utility.yul\":30446:30463   */\n      add\n        /* \"#utility.yul\":30439:30500   */\n      mstore\n        /* \"#utility.yul\":30552:30586   */\n      0x696d656f757428652c3230302929292c572b3d27203c646566733e272c572b3d\n        /* \"#utility.yul\":30545:30549   */\n      0x1d20\n        /* \"#utility.yul\":30537:30543   */\n      dup3\n        /* \"#utility.yul\":30533:30550   */\n      add\n        /* \"#utility.yul\":30526:30587   */\n      mstore\n        /* \"#utility.yul\":30639:30673   */\n      0x273c66696c7465722069643d276630273e272c572b3d603c66654d6f7270686f\n        /* \"#utility.yul\":30632:30636   */\n      0x1d40\n        /* \"#utility.yul\":30624:30630   */\n      dup3\n        /* \"#utility.yul\":30620:30637   */\n      add\n        /* \"#utility.yul\":30613:30674   */\n      mstore\n        /* \"#utility.yul\":30726:30760   */\n      0x6c6f6779206f70657261746f723d2765726f646527207261646975733d27247b\n        /* \"#utility.yul\":30719:30723   */\n      0x1d60\n        /* \"#utility.yul\":30711:30717   */\n      dup3\n        /* \"#utility.yul\":30707:30724   */\n      add\n        /* \"#utility.yul\":30700:30761   */\n      mstore\n        /* \"#utility.yul\":30817:30883   */\n      0x777d27202f3e602c572b3d273c2f66696c7465723e272c572b3d600a20202020\n        /* \"#utility.yul\":30810:30814   */\n      0x1d80\n        /* \"#utility.yul\":30802:30808   */\n      dup3\n        /* \"#utility.yul\":30798:30815   */\n      add\n        /* \"#utility.yul\":30791:30884   */\n      mstore\n        /* \"#utility.yul\":30940:31006   */\n      0x20203c66696c7465722069643d276631273e0a20202020202020203c66655475\n        /* \"#utility.yul\":30933:30937   */\n      0x1da0\n        /* \"#utility.yul\":30925:30931   */\n      dup3\n        /* \"#utility.yul\":30921:30938   */\n      add\n        /* \"#utility.yul\":30914:31007   */\n      mstore\n        /* \"#utility.yul\":31063:31129   */\n      0x7262756c656e636520747970653d276672616374616c4e6f697365270a202020\n        /* \"#utility.yul\":31056:31060   */\n      0x1dc0\n        /* \"#utility.yul\":31048:31054   */\n      dup3\n        /* \"#utility.yul\":31044:31061   */\n      add\n        /* \"#utility.yul\":31037:31130   */\n      mstore\n        /* \"#utility.yul\":31186:31220   */\n      0x20202020202020202020202020202020202020626173654672657175656e6379\n        /* \"#utility.yul\":31179:31183   */\n      0x1de0\n        /* \"#utility.yul\":31171:31177   */\n      dup3\n        /* \"#utility.yul\":31167:31184   */\n      add\n        /* \"#utility.yul\":31160:31221   */\n      mstore\n        /* \"#utility.yul\":31277:31343   */\n      0x3d27247b727d27206e756d4f6374617665733d27247b697d270a202020202020\n        /* \"#utility.yul\":31270:31274   */\n      0x1e00\n        /* \"#utility.yul\":31262:31268   */\n      dup3\n        /* \"#utility.yul\":31258:31275   */\n      add\n        /* \"#utility.yul\":31251:31344   */\n      mstore\n        /* \"#utility.yul\":31400:31466   */\n      0x20202020202020202020202020202020736565643d27247b797d270a20202020\n        /* \"#utility.yul\":31393:31397   */\n      0x1e20\n        /* \"#utility.yul\":31385:31391   */\n      dup3\n        /* \"#utility.yul\":31381:31398   */\n      add\n        /* \"#utility.yul\":31374:31467   */\n      mstore\n        /* \"#utility.yul\":31523:31557   */\n      0x202020202020202020202020202020202020726573756c743d2774757262756c\n        /* \"#utility.yul\":31516:31520   */\n      0x1e40\n        /* \"#utility.yul\":31508:31514   */\n      dup3\n        /* \"#utility.yul\":31504:31521   */\n      add\n        /* \"#utility.yul\":31497:31558   */\n      mstore\n        /* \"#utility.yul\":31614:31680   */\n      0x656e636527202f3e0a20202020202020203c666554757262756c656e63652074\n        /* \"#utility.yul\":31607:31611   */\n      0x1e60\n        /* \"#utility.yul\":31599:31605   */\n      dup3\n        /* \"#utility.yul\":31595:31612   */\n      add\n        /* \"#utility.yul\":31588:31681   */\n      mstore\n        /* \"#utility.yul\":31737:31803   */\n      0x7970653d276672616374616c4e6f697365270a20202020202020202020202020\n        /* \"#utility.yul\":31730:31734   */\n      0x1e80\n        /* \"#utility.yul\":31722:31728   */\n      dup3\n        /* \"#utility.yul\":31718:31735   */\n      add\n        /* \"#utility.yul\":31711:31804   */\n      mstore\n        /* \"#utility.yul\":31860:31894   */\n      0x202020202020202020626173654672657175656e63793d27247b247d27206e75\n        /* \"#utility.yul\":31853:31857   */\n      0x1ea0\n        /* \"#utility.yul\":31845:31851   */\n      dup3\n        /* \"#utility.yul\":31841:31858   */\n      add\n        /* \"#utility.yul\":31834:31895   */\n      mstore\n        /* \"#utility.yul\":31951:32017   */\n      0x6d4f6374617665733d27247b737d270a20202020202020202020202020202020\n        /* \"#utility.yul\":31944:31948   */\n      0x1ec0\n        /* \"#utility.yul\":31936:31942   */\n      dup3\n        /* \"#utility.yul\":31932:31949   */\n      add\n        /* \"#utility.yul\":31925:32018   */\n      mstore\n        /* \"#utility.yul\":32074:32140   */\n      0x202020202020736565643d27247b792b317d270a202020202020202020202020\n        /* \"#utility.yul\":32067:32071   */\n      0x1ee0\n        /* \"#utility.yul\":32059:32065   */\n      dup3\n        /* \"#utility.yul\":32055:32072   */\n      add\n        /* \"#utility.yul\":32048:32141   */\n      mstore\n        /* \"#utility.yul\":32197:32231   */\n      0x20202020202020202020726573756c743d2774757262756c656e63653227202f\n        /* \"#utility.yul\":32190:32194   */\n      0x1f00\n        /* \"#utility.yul\":32182:32188   */\n      dup3\n        /* \"#utility.yul\":32178:32195   */\n      add\n        /* \"#utility.yul\":32171:32232   */\n      mstore\n        /* \"#utility.yul\":32288:32354   */\n      0x3e0a20202020202020203c6665446973706c6163656d656e744d617020696e32\n        /* \"#utility.yul\":32281:32285   */\n      0x1f20\n        /* \"#utility.yul\":32273:32279   */\n      dup3\n        /* \"#utility.yul\":32269:32286   */\n      add\n        /* \"#utility.yul\":32262:32355   */\n      mstore\n        /* \"#utility.yul\":32411:32477   */\n      0x3d2774757262756c656e6365270a202020202020202020202020202020202020\n        /* \"#utility.yul\":32404:32408   */\n      0x1f40\n        /* \"#utility.yul\":32396:32402   */\n      dup3\n        /* \"#utility.yul\":32392:32409   */\n      add\n        /* \"#utility.yul\":32385:32478   */\n      mstore\n        /* \"#utility.yul\":32534:32568   */\n      0x202020202020202020696e3d27536f757263654772617068696327207363616c\n        /* \"#utility.yul\":32527:32531   */\n      0x1f60\n        /* \"#utility.yul\":32519:32525   */\n      dup3\n        /* \"#utility.yul\":32515:32532   */\n      add\n        /* \"#utility.yul\":32508:32569   */\n      mstore\n        /* \"#utility.yul\":32625:32691   */\n      0x653d27247b6d7d270a2020202020202020202020202020202020202020202020\n        /* \"#utility.yul\":32618:32622   */\n      0x1f80\n        /* \"#utility.yul\":32610:32616   */\n      dup3\n        /* \"#utility.yul\":32606:32623   */\n      add\n        /* \"#utility.yul\":32599:32692   */\n      mstore\n        /* \"#utility.yul\":32748:32814   */\n      0x20202020726573756c743d27646973706c6163656d656e74270a202020202020\n        /* \"#utility.yul\":32741:32745   */\n      0x1fa0\n        /* \"#utility.yul\":32733:32739   */\n      dup3\n        /* \"#utility.yul\":32729:32746   */\n      add\n        /* \"#utility.yul\":32722:32815   */\n      mstore\n        /* \"#utility.yul\":32871:32905   */\n      0x202020202020202020202020202020202020202020784368616e6e656c53656c\n        /* \"#utility.yul\":32864:32868   */\n      0x1fc0\n        /* \"#utility.yul\":32856:32862   */\n      dup3\n        /* \"#utility.yul\":32852:32869   */\n      add\n        /* \"#utility.yul\":32845:32906   */\n      mstore\n        /* \"#utility.yul\":32962:33028   */\n      0x6563746f723d2741270a20202020202020202020202020202020202020202020\n        /* \"#utility.yul\":32955:32959   */\n      0x1fe0\n        /* \"#utility.yul\":32947:32953   */\n      dup3\n        /* \"#utility.yul\":32943:32960   */\n      add\n        /* \"#utility.yul\":32936:33029   */\n      mstore\n        /* \"#utility.yul\":33085:33151   */\n      0x2020202020794368616e6e656c53656c6563746f723d274127202f3e0a202020\n        /* \"#utility.yul\":33078:33082   */\n      0x2000\n        /* \"#utility.yul\":33070:33076   */\n      dup3\n        /* \"#utility.yul\":33066:33083   */\n      add\n        /* \"#utility.yul\":33059:33152   */\n      mstore\n        /* \"#utility.yul\":33208:33242   */\n      0x20202020203c6665446973706c6163656d656e744d617020696e323d27747572\n        /* \"#utility.yul\":33201:33205   */\n      0x2020\n        /* \"#utility.yul\":33193:33199   */\n      dup3\n        /* \"#utility.yul\":33189:33206   */\n      add\n        /* \"#utility.yul\":33182:33243   */\n      mstore\n        /* \"#utility.yul\":33299:33365   */\n      0x62756c656e6365270a2020202020202020202020202020202020202020202020\n        /* \"#utility.yul\":33292:33296   */\n      0x2040\n        /* \"#utility.yul\":33284:33290   */\n      dup3\n        /* \"#utility.yul\":33280:33297   */\n      add\n        /* \"#utility.yul\":33273:33366   */\n      mstore\n        /* \"#utility.yul\":33422:33456   */\n      0x20202020696e3d27536f757263654772617068696327207363616c653d27247b\n        /* \"#utility.yul\":33415:33419   */\n      0x2060\n        /* \"#utility.yul\":33407:33413   */\n      dup3\n        /* \"#utility.yul\":33403:33420   */\n      add\n        /* \"#utility.yul\":33396:33457   */\n      mstore\n        /* \"#utility.yul\":33517:33583   */\n      0x6d7d270a20202020202020202020202020202020202020202020202020202072\n        /* \"#utility.yul\":33510:33514   */\n      0x2080\n        /* \"#utility.yul\":33502:33508   */\n      dup3\n        /* \"#utility.yul\":33498:33515   */\n      add\n        /* \"#utility.yul\":33491:33584   */\n      mstore\n        /* \"#utility.yul\":33644:33710   */\n      0x6573756c743d27646973706c6163656d656e7442270a20202020202020202020\n        /* \"#utility.yul\":33637:33641   */\n      0x20a0\n        /* \"#utility.yul\":33629:33635   */\n      dup3\n        /* \"#utility.yul\":33625:33642   */\n      add\n        /* \"#utility.yul\":33618:33711   */\n      mstore\n        /* \"#utility.yul\":33771:33805   */\n      0x2020202020202020202020202020202020784368616e6e656c53656c6563746f\n        /* \"#utility.yul\":33764:33768   */\n      0x20c0\n        /* \"#utility.yul\":33756:33762   */\n      dup3\n        /* \"#utility.yul\":33752:33769   */\n      add\n        /* \"#utility.yul\":33745:33806   */\n      mstore\n        /* \"#utility.yul\":33866:33932   */\n      0x723d2741270a2020202020202020202020202020202020202020202020202020\n        /* \"#utility.yul\":33859:33863   */\n      0x20e0\n        /* \"#utility.yul\":33851:33857   */\n      dup3\n        /* \"#utility.yul\":33847:33864   */\n      add\n        /* \"#utility.yul\":33840:33933   */\n      mstore\n        /* \"#utility.yul\":33993:34059   */\n      0x20794368616e6e656c53656c6563746f723d274127202f3e602c572b3d600a20\n        /* \"#utility.yul\":33986:33990   */\n      0x2100\n        /* \"#utility.yul\":33978:33984   */\n      dup3\n        /* \"#utility.yul\":33974:33991   */\n      add\n        /* \"#utility.yul\":33967:34060   */\n      mstore\n        /* \"#utility.yul\":34120:34154   */\n      0x20202020202020202020203c6665446973706c6163656d656e744d617020696e\n        /* \"#utility.yul\":34113:34117   */\n      0x2120\n        /* \"#utility.yul\":34105:34111   */\n      dup3\n        /* \"#utility.yul\":34101:34118   */\n      add\n        /* \"#utility.yul\":34094:34155   */\n      mstore\n        /* \"#utility.yul\":34215:34281   */\n      0x323d2774757262756c656e636532270a20202020202020202020202020202020\n        /* \"#utility.yul\":34208:34212   */\n      0x2140\n        /* \"#utility.yul\":34200:34206   */\n      dup3\n        /* \"#utility.yul\":34196:34213   */\n      add\n        /* \"#utility.yul\":34189:34282   */\n      mstore\n        /* \"#utility.yul\":34342:34376   */\n      0x2020202020202020202020696e3d27646973706c6163656d656e742720736361\n        /* \"#utility.yul\":34335:34339   */\n      0x2160\n        /* \"#utility.yul\":34327:34333   */\n      dup3\n        /* \"#utility.yul\":34323:34340   */\n      add\n        /* \"#utility.yul\":34316:34377   */\n      mstore\n        /* \"#utility.yul\":34437:34503   */\n      0x6c653d27247b687d270a20202020202020202020202020202020202020202020\n        /* \"#utility.yul\":34430:34434   */\n      0x2180\n        /* \"#utility.yul\":34422:34428   */\n      dup3\n        /* \"#utility.yul\":34418:34435   */\n      add\n        /* \"#utility.yul\":34411:34504   */\n      mstore\n        /* \"#utility.yul\":34564:34630   */\n      0x2020202020726573756c743d27646973706c6163656d656e7432270a20202020\n        /* \"#utility.yul\":34557:34561   */\n      0x21a0\n        /* \"#utility.yul\":34549:34555   */\n      dup3\n        /* \"#utility.yul\":34545:34562   */\n      add\n        /* \"#utility.yul\":34538:34631   */\n      mstore\n        /* \"#utility.yul\":34691:34725   */\n      0x2020202020202020202020202020202020202020202020784368616e6e656c53\n        /* \"#utility.yul\":34684:34688   */\n      0x21c0\n        /* \"#utility.yul\":34676:34682   */\n      dup3\n        /* \"#utility.yul\":34672:34689   */\n      add\n        /* \"#utility.yul\":34665:34726   */\n      mstore\n        /* \"#utility.yul\":34786:34852   */\n      0x656c6563746f723d2741270a2020202020202020202020202020202020202020\n        /* \"#utility.yul\":34779:34783   */\n      0x21e0\n        /* \"#utility.yul\":34771:34777   */\n      dup3\n        /* \"#utility.yul\":34767:34784   */\n      add\n        /* \"#utility.yul\":34760:34853   */\n      mstore\n        /* \"#utility.yul\":34913:34979   */\n      0x20202020202020794368616e6e656c53656c6563746f723d274127202f3e0a20\n        /* \"#utility.yul\":34906:34910   */\n      0x2200\n        /* \"#utility.yul\":34898:34904   */\n      dup3\n        /* \"#utility.yul\":34894:34911   */\n      add\n        /* \"#utility.yul\":34887:34980   */\n      mstore\n        /* \"#utility.yul\":35040:35074   */\n      0x2020202020202020202020202020203c6665446973706c6163656d656e744d61\n        /* \"#utility.yul\":35033:35037   */\n      0x2220\n        /* \"#utility.yul\":35025:35031   */\n      dup3\n        /* \"#utility.yul\":35021:35038   */\n      add\n        /* \"#utility.yul\":35014:35075   */\n      mstore\n        /* \"#utility.yul\":35135:35201   */\n      0x7020696e323d2774757262756c656e636532270a202020202020202020202020\n        /* \"#utility.yul\":35128:35132   */\n      0x2240\n        /* \"#utility.yul\":35120:35126   */\n      dup3\n        /* \"#utility.yul\":35116:35133   */\n      add\n        /* \"#utility.yul\":35109:35202   */\n      mstore\n        /* \"#utility.yul\":35262:35296   */\n      0x202020202020202020202020202020696e3d27646973706c6163656d656e7442\n        /* \"#utility.yul\":35255:35259   */\n      0x2260\n        /* \"#utility.yul\":35247:35253   */\n      dup3\n        /* \"#utility.yul\":35243:35260   */\n      add\n        /* \"#utility.yul\":35236:35297   */\n      mstore\n        /* \"#utility.yul\":35357:35423   */\n      0x27207363616c653d27247b687d270a2020202020202020202020202020202020\n        /* \"#utility.yul\":35350:35354   */\n      0x2280\n        /* \"#utility.yul\":35342:35348   */\n      dup3\n        /* \"#utility.yul\":35338:35355   */\n      add\n        /* \"#utility.yul\":35331:35424   */\n      mstore\n        /* \"#utility.yul\":35484:35518   */\n      0x20202020202020202020726573756c743d27646973706c6163656d656e744232\n        /* \"#utility.yul\":35477:35481   */\n      0x22a0\n        /* \"#utility.yul\":35469:35475   */\n      dup3\n        /* \"#utility.yul\":35465:35482   */\n      add\n        /* \"#utility.yul\":35458:35519   */\n      mstore\n        /* \"#utility.yul\":35579:35645   */\n      0x270a202020202020202020202020202020202020202020202020202020784368\n        /* \"#utility.yul\":35572:35576   */\n      0x22c0\n        /* \"#utility.yul\":35564:35570   */\n      dup3\n        /* \"#utility.yul\":35560:35577   */\n      add\n        /* \"#utility.yul\":35553:35646   */\n      mstore\n        /* \"#utility.yul\":35706:35772   */\n      0x616e6e656c53656c6563746f723d2741270a2020202020202020202020202020\n        /* \"#utility.yul\":35699:35703   */\n      0x22e0\n        /* \"#utility.yul\":35691:35697   */\n      dup3\n        /* \"#utility.yul\":35687:35704   */\n      add\n        /* \"#utility.yul\":35680:35773   */\n      mstore\n        /* \"#utility.yul\":35833:35867   */\n      0x20202020202020202020202020794368616e6e656c53656c6563746f723d2741\n        /* \"#utility.yul\":35826:35830   */\n      0x2300\n        /* \"#utility.yul\":35818:35824   */\n      dup3\n        /* \"#utility.yul\":35814:35831   */\n      add\n        /* \"#utility.yul\":35807:35868   */\n      mstore\n        /* \"#utility.yul\":35928:35994   */\n      0x27202f3e0a202020202020202020202020202020202020202020202020202020\n        /* \"#utility.yul\":35921:35925   */\n      0x2320\n        /* \"#utility.yul\":35913:35919   */\n      dup3\n        /* \"#utility.yul\":35909:35926   */\n      add\n        /* \"#utility.yul\":35902:35995   */\n      mstore\n        /* \"#utility.yul\":36055:36121   */\n      0x3b602c47262628572b3d600a2020202020202020202020203c66655475726275\n        /* \"#utility.yul\":36048:36052   */\n      0x2340\n        /* \"#utility.yul\":36040:36046   */\n      dup3\n        /* \"#utility.yul\":36036:36053   */\n      add\n        /* \"#utility.yul\":36029:36122   */\n      mstore\n        /* \"#utility.yul\":36182:36248   */\n      0x6c656e636520747970653d276672616374616c4e6f697365270a202020202020\n        /* \"#utility.yul\":36175:36179   */\n      0x2360\n        /* \"#utility.yul\":36167:36173   */\n      dup3\n        /* \"#utility.yul\":36163:36180   */\n      add\n        /* \"#utility.yul\":36156:36249   */\n      mstore\n        /* \"#utility.yul\":36309:36343   */\n      0x20202020202020202020202020202020626173654672657175656e63793d2724\n        /* \"#utility.yul\":36302:36306   */\n      0x2380\n        /* \"#utility.yul\":36294:36300   */\n      dup3\n        /* \"#utility.yul\":36290:36307   */\n      add\n        /* \"#utility.yul\":36283:36344   */\n      mstore\n        /* \"#utility.yul\":36404:36470   */\n      0x7b497d27206e756d4f6374617665733d27247b547d270a202020202020202020\n        /* \"#utility.yul\":36397:36401   */\n      0x23a0\n        /* \"#utility.yul\":36389:36395   */\n      dup3\n        /* \"#utility.yul\":36385:36402   */\n      add\n        /* \"#utility.yul\":36378:36471   */\n      mstore\n        /* \"#utility.yul\":36531:36597   */\n      0x20202020202020202020202020736565643d27247b797d270a20202020202020\n        /* \"#utility.yul\":36524:36528   */\n      0x23c0\n        /* \"#utility.yul\":36516:36522   */\n      dup3\n        /* \"#utility.yul\":36512:36529   */\n      add\n        /* \"#utility.yul\":36505:36598   */\n      mstore\n        /* \"#utility.yul\":36658:36692   */\n      0x202020202020202020202020202020726573756c743d2774757262756c656e63\n        /* \"#utility.yul\":36651:36655   */\n      0x23e0\n        /* \"#utility.yul\":36643:36649   */\n      dup3\n        /* \"#utility.yul\":36639:36656   */\n      add\n        /* \"#utility.yul\":36632:36693   */\n      mstore\n        /* \"#utility.yul\":36753:36819   */\n      0x653327202f3e0a2020202020202020202020203c6665446973706c6163656d65\n        /* \"#utility.yul\":36746:36750   */\n      0x2400\n        /* \"#utility.yul\":36738:36744   */\n      dup3\n        /* \"#utility.yul\":36734:36751   */\n      add\n        /* \"#utility.yul\":36727:36820   */\n      mstore\n        /* \"#utility.yul\":36880:36946   */\n      0x6e744d617020696e323d2774757262756c656e636533270a2020202020202020\n        /* \"#utility.yul\":36873:36877   */\n      0x2420\n        /* \"#utility.yul\":36865:36871   */\n      dup3\n        /* \"#utility.yul\":36861:36878   */\n      add\n        /* \"#utility.yul\":36854:36947   */\n      mstore\n        /* \"#utility.yul\":37007:37041   */\n      0x20202020202020202020202020202020202020696e3d27646973706c6163656d\n        /* \"#utility.yul\":37000:37004   */\n      0x2440\n        /* \"#utility.yul\":36992:36998   */\n      dup3\n        /* \"#utility.yul\":36988:37005   */\n      add\n        /* \"#utility.yul\":36981:37042   */\n      mstore\n        /* \"#utility.yul\":37102:37168   */\n      0x656e7427207363616c653d27247b5f7d270a2020202020202020202020202020\n        /* \"#utility.yul\":37095:37099   */\n      0x2460\n        /* \"#utility.yul\":37087:37093   */\n      dup3\n        /* \"#utility.yul\":37083:37100   */\n      add\n        /* \"#utility.yul\":37076:37169   */\n      mstore\n        /* \"#utility.yul\":37229:37263   */\n      0x20202020202020202020202020726573756c743d27646973706c6163656d656e\n        /* \"#utility.yul\":37222:37226   */\n      0x2480\n        /* \"#utility.yul\":37214:37220   */\n      dup3\n        /* \"#utility.yul\":37210:37227   */\n      add\n        /* \"#utility.yul\":37203:37264   */\n      mstore\n        /* \"#utility.yul\":37324:37390   */\n      0x7433270a20202020202020202020202020202020202020202020202020202078\n        /* \"#utility.yul\":37317:37321   */\n      0x24a0\n        /* \"#utility.yul\":37309:37315   */\n      dup3\n        /* \"#utility.yul\":37305:37322   */\n      add\n        /* \"#utility.yul\":37298:37391   */\n      mstore\n        /* \"#utility.yul\":37451:37517   */\n      0x4368616e6e656c53656c6563746f723d2742270a202020202020202020202020\n        /* \"#utility.yul\":37444:37448   */\n      0x24c0\n        /* \"#utility.yul\":37436:37442   */\n      dup3\n        /* \"#utility.yul\":37432:37449   */\n      add\n        /* \"#utility.yul\":37425:37518   */\n      mstore\n        /* \"#utility.yul\":37578:37612   */\n      0x202020202020202020202020202020794368616e6e656c53656c6563746f723d\n        /* \"#utility.yul\":37571:37575   */\n      0x24e0\n        /* \"#utility.yul\":37563:37569   */\n      dup3\n        /* \"#utility.yul\":37559:37576   */\n      add\n        /* \"#utility.yul\":37552:37613   */\n      mstore\n        /* \"#utility.yul\":37673:37739   */\n      0x274127202f3e0a20202020202020202020202020202020202020202020202020\n        /* \"#utility.yul\":37666:37670   */\n      0x2500\n        /* \"#utility.yul\":37658:37664   */\n      dup3\n        /* \"#utility.yul\":37654:37671   */\n      add\n        /* \"#utility.yul\":37647:37740   */\n      mstore\n        /* \"#utility.yul\":37800:37866   */\n      0x20203b60292c572b3d270a2020202020203c6665426c656e6420696e3d276469\n        /* \"#utility.yul\":37793:37797   */\n      0x2520\n        /* \"#utility.yul\":37785:37791   */\n      dup3\n        /* \"#utility.yul\":37781:37798   */\n      add\n        /* \"#utility.yul\":37774:37867   */\n      mstore\n        /* \"#utility.yul\":37927:37961   */\n      0x73706c6163656d656e74322720696e323d27646973706c6163656d656e743227\n        /* \"#utility.yul\":37920:37924   */\n      0x2540\n        /* \"#utility.yul\":37912:37918   */\n      dup3\n        /* \"#utility.yul\":37908:37925   */\n      add\n        /* \"#utility.yul\":37901:37962   */\n      mstore\n        /* \"#utility.yul\":38022:38088   */\n      0x20726573756c743d276275726e27206d6f64653d276e6f726d616c272f3e0a20\n        /* \"#utility.yul\":38015:38019   */\n      0x2560\n        /* \"#utility.yul\":38007:38013   */\n      dup3\n        /* \"#utility.yul\":38003:38020   */\n      add\n        /* \"#utility.yul\":37996:38089   */\n      mstore\n        /* \"#utility.yul\":38149:38215   */\n      0x20202020272c572b3d270a3c2f66696c7465723e0a202020203c2f646566733e\n        /* \"#utility.yul\":38142:38146   */\n      0x2580\n        /* \"#utility.yul\":38134:38140   */\n      dup3\n        /* \"#utility.yul\":38130:38147   */\n      add\n        /* \"#utility.yul\":38123:38216   */\n      mstore\n        /* \"#utility.yul\":38276:38342   */\n      0x0a2020272c572b3d600a202020200a20203c726563742066696c6c3d2723247b\n        /* \"#utility.yul\":38269:38273   */\n      0x25a0\n        /* \"#utility.yul\":38261:38267   */\n      dup3\n        /* \"#utility.yul\":38257:38274   */\n      add\n        /* \"#utility.yul\":38250:38343   */\n      mstore\n        /* \"#utility.yul\":38399:38433   */\n      0x636f6c6f725b305d7d2720783d27302720793d2730272077696474683d273130\n        /* \"#utility.yul\":38392:38396   */\n      0x25c0\n        /* \"#utility.yul\":38384:38390   */\n      dup3\n        /* \"#utility.yul\":38380:38397   */\n      add\n        /* \"#utility.yul\":38373:38434   */\n      mstore\n        /* \"#utility.yul\":38490:38556   */\n      0x3027206865696768743d2731303027202f3e0a602c482e696e6e657248544d4c\n        /* \"#utility.yul\":38483:38487   */\n      0x25e0\n        /* \"#utility.yul\":38475:38481   */\n      dup3\n        /* \"#utility.yul\":38471:38488   */\n      add\n        /* \"#utility.yul\":38464:38557   */\n      mstore\n        /* \"#utility.yul\":38613:38647   */\n      0x2b3d572c72657175657374416e696d6174696f6e4672616d65282866756e6374\n        /* \"#utility.yul\":38606:38610   */\n      0x2600\n        /* \"#utility.yul\":38598:38604   */\n      dup3\n        /* \"#utility.yul\":38594:38611   */\n      add\n        /* \"#utility.yul\":38587:38648   */\n      mstore\n        /* \"#utility.yul\":38712:38746   */\n      0x696f6e28297b72656d6f7665416c6c4c6f616465727328292c6164644c6f6164\n        /* \"#utility.yul\":38705:38709   */\n      0x2620\n        /* \"#utility.yul\":38697:38703   */\n      dup3\n        /* \"#utility.yul\":38693:38710   */\n      add\n        /* \"#utility.yul\":38686:38747   */\n      mstore\n        /* \"#utility.yul\":38803:38837   */\n      0x657228274c6f6164696e672068746d6c27297d29292c6177616974206e657720\n        /* \"#utility.yul\":38796:38800   */\n      0x2640\n        /* \"#utility.yul\":38788:38794   */\n      dup3\n        /* \"#utility.yul\":38784:38801   */\n      add\n        /* \"#utility.yul\":38777:38838   */\n      mstore\n        /* \"#utility.yul\":38894:38928   */\n      0x50726f6d6973652828653d3e73657454696d656f757428652c3230302929292c\n        /* \"#utility.yul\":38887:38891   */\n      0x2660\n        /* \"#utility.yul\":38879:38885   */\n      dup3\n        /* \"#utility.yul\":38875:38892   */\n      add\n        /* \"#utility.yul\":38868:38929   */\n      mstore\n        /* \"#utility.yul\":38985:39019   */\n      0x573d27272c64297b6361736520323a623f287a3d607472616e736c6174652835\n        /* \"#utility.yul\":38978:38982   */\n      0x2680\n        /* \"#utility.yul\":38970:38976   */\n      dup3\n        /* \"#utility.yul\":38966:38983   */\n      add\n        /* \"#utility.yul\":38959:39020   */\n      mstore\n        /* \"#utility.yul\":39084:39118   */\n      0x302c35302920726f7461746528247b557d29207363616c6528247b787d20247b\n        /* \"#utility.yul\":39077:39081   */\n      0x26a0\n        /* \"#utility.yul\":39069:39075   */\n      dup3\n        /* \"#utility.yul\":39065:39082   */\n      add\n        /* \"#utility.yul\":39058:39119   */\n      mstore\n        /* \"#utility.yul\":39179:39213   */\n      0x417d29207472616e736c617465282d35302c2d353029602c4f3d66756e637469\n        /* \"#utility.yul\":39172:39176   */\n      0x26c0\n        /* \"#utility.yul\":39164:39170   */\n      dup3\n        /* \"#utility.yul\":39160:39177   */\n      add\n        /* \"#utility.yul\":39153:39214   */\n      mstore\n        /* \"#utility.yul\":39274:39308   */\n      0x6f6e28652c6e2c742c6f2c61297b72657475726e603c6c696e65207472616e73\n        /* \"#utility.yul\":39267:39271   */\n      0x26e0\n        /* \"#utility.yul\":39259:39265   */\n      dup3\n        /* \"#utility.yul\":39255:39272   */\n      add\n        /* \"#utility.yul\":39248:39309   */\n      mstore\n        /* \"#utility.yul\":39373:39407   */\n      0x666f726d3d27247b7a7d272066696c7465723d2775726c2823247b657d292720\n        /* \"#utility.yul\":39366:39370   */\n      0x2700\n        /* \"#utility.yul\":39358:39364   */\n      dup3\n        /* \"#utility.yul\":39354:39371   */\n      add\n        /* \"#utility.yul\":39347:39408   */\n      mstore\n        /* \"#utility.yul\":39473:39507   */\n      0x7374726f6b652d6f7061636974793d272e39352720207374726f6b653d272324\n        /* \"#utility.yul\":39465:39470   */\n      0x2720\n        /* \"#utility.yul\":39457:39463   */\n      dup3\n        /* \"#utility.yul\":39453:39471   */\n      add\n        /* \"#utility.yul\":39446:39508   */\n      mstore\n        /* \"#utility.yul\":39573:39607   */\n      0x7b6e7d27207374796c653d277374726f6b652d77696474683a247b617d272079\n        /* \"#utility.yul\":39565:39570   */\n      0x2740\n        /* \"#utility.yul\":39557:39563   */\n      dup3\n        /* \"#utility.yul\":39553:39571   */\n      add\n        /* \"#utility.yul\":39546:39608   */\n      mstore\n        /* \"#utility.yul\":39673:39707   */\n      0x313d27247b747d272078313d27247b6f7d272078323d27247b31305e747d2720\n        /* \"#utility.yul\":39665:39670   */\n      0x2760\n        /* \"#utility.yul\":39657:39663   */\n      dup3\n        /* \"#utility.yul\":39653:39671   */\n      add\n        /* \"#utility.yul\":39646:39708   */\n      mstore\n        /* \"#utility.yul\":39773:39807   */\n      0x79323d27247b6f7d27202f3e607d293a287a3d607472616e736c617465283530\n        /* \"#utility.yul\":39765:39770   */\n      0x2780\n        /* \"#utility.yul\":39757:39763   */\n      dup3\n        /* \"#utility.yul\":39753:39771   */\n      add\n        /* \"#utility.yul\":39746:39808   */\n      mstore\n        /* \"#utility.yul\":39873:39907   */\n      0x2c35302920726f7461746528247b557d29207363616c6528247b787d20247b41\n        /* \"#utility.yul\":39865:39870   */\n      0x27a0\n        /* \"#utility.yul\":39857:39863   */\n      dup3\n        /* \"#utility.yul\":39853:39871   */\n      add\n        /* \"#utility.yul\":39846:39908   */\n      mstore\n        /* \"#utility.yul\":39969:40003   */\n      0x7d29207472616e736c617465282d35302c2d353029602c4f3d66756e6374696f\n        /* \"#utility.yul\":39961:39966   */\n      0x27c0\n        /* \"#utility.yul\":39953:39959   */\n      dup3\n        /* \"#utility.yul\":39949:39967   */\n      add\n        /* \"#utility.yul\":39942:40004   */\n      mstore\n        /* \"#utility.yul\":40065:40099   */\n      0x6e28652c6e2c742c6f2c61297b72657475726e603c6c696e65207472616e7366\n        /* \"#utility.yul\":40057:40062   */\n      0x27e0\n        /* \"#utility.yul\":40049:40055   */\n      dup3\n        /* \"#utility.yul\":40045:40063   */\n      add\n        /* \"#utility.yul\":40038:40100   */\n      mstore\n        /* \"#utility.yul\":40165:40199   */\n      0x6f726d3d27247b7a7d272066696c7465723d2775726c2823247b657d29272073\n        /* \"#utility.yul\":40157:40162   */\n      0x2800\n        /* \"#utility.yul\":40149:40155   */\n      dup3\n        /* \"#utility.yul\":40145:40163   */\n      add\n        /* \"#utility.yul\":40138:40200   */\n      mstore\n        /* \"#utility.yul\":40265:40299   */\n      0x74726f6b652d6f7061636974793d272e39352720207374726f6b653d2723247b\n        /* \"#utility.yul\":40257:40262   */\n      0x2820\n        /* \"#utility.yul\":40249:40255   */\n      dup3\n        /* \"#utility.yul\":40245:40263   */\n      add\n        /* \"#utility.yul\":40238:40300   */\n      mstore\n        /* \"#utility.yul\":40365:40399   */\n      0x6e7d27207374796c653d277374726f6b652d77696474683a247b617d27207831\n        /* \"#utility.yul\":40357:40362   */\n      0x2840\n        /* \"#utility.yul\":40349:40355   */\n      dup3\n        /* \"#utility.yul\":40345:40363   */\n      add\n        /* \"#utility.yul\":40338:40400   */\n      mstore\n        /* \"#utility.yul\":40465:40499   */\n      0x3d27247b747d272079313d27247b6f7d272079323d27247b31305e747d272078\n        /* \"#utility.yul\":40457:40462   */\n      0x2860\n        /* \"#utility.yul\":40449:40455   */\n      dup3\n        /* \"#utility.yul\":40445:40463   */\n      add\n        /* \"#utility.yul\":40438:40500   */\n      mstore\n        /* \"#utility.yul\":40561:40595   */\n      0x323d27247b6f7d27202f3e607d293b627265616b3b6361736520333a623f287a\n        /* \"#utility.yul\":40553:40558   */\n      0x2880\n        /* \"#utility.yul\":40545:40551   */\n      dup3\n        /* \"#utility.yul\":40541:40559   */\n      add\n        /* \"#utility.yul\":40534:40596   */\n      mstore\n        /* \"#utility.yul\":40657:40691   */\n      0x3d607472616e736c6174652835302c35302920726f7461746528247b557d2920\n        /* \"#utility.yul\":40649:40654   */\n      0x28a0\n        /* \"#utility.yul\":40641:40647   */\n      dup3\n        /* \"#utility.yul\":40637:40655   */\n      add\n        /* \"#utility.yul\":40630:40692   */\n      mstore\n        /* \"#utility.yul\":40753:40787   */\n      0x7363616c6528247b787d20247b417d29207472616e736c617465282d35302c2d\n        /* \"#utility.yul\":40745:40750   */\n      0x28c0\n        /* \"#utility.yul\":40737:40743   */\n      dup3\n        /* \"#utility.yul\":40733:40751   */\n      add\n        /* \"#utility.yul\":40726:40788   */\n      mstore\n        /* \"#utility.yul\":40853:40887   */\n      0x353029602c4f3d66756e6374696f6e28652c6e2c742c6f2c61297b7265747572\n        /* \"#utility.yul\":40845:40850   */\n      0x28e0\n        /* \"#utility.yul\":40837:40843   */\n      dup3\n        /* \"#utility.yul\":40833:40851   */\n      add\n        /* \"#utility.yul\":40826:40888   */\n      mstore\n        /* \"#utility.yul\":40953:40987   */\n      0x6e603c6c696e65207472616e73666f726d3d27247b7a7d272066696c7465723d\n        /* \"#utility.yul\":40945:40950   */\n      0x2900\n        /* \"#utility.yul\":40937:40943   */\n      dup3\n        /* \"#utility.yul\":40933:40951   */\n      add\n        /* \"#utility.yul\":40926:40988   */\n      mstore\n        /* \"#utility.yul\":41053:41087   */\n      0x2775726c2823247b657d2927207374726f6b652d6f7061636974793d272e3935\n        /* \"#utility.yul\":41045:41050   */\n      0x2920\n        /* \"#utility.yul\":41037:41043   */\n      dup3\n        /* \"#utility.yul\":41033:41051   */\n      add\n        /* \"#utility.yul\":41026:41088   */\n      mstore\n        /* \"#utility.yul\":41153:41187   */\n      0x27207374726f6b653d2723247b6e7d27207374796c653d277374726f6b652d77\n        /* \"#utility.yul\":41145:41150   */\n      0x2940\n        /* \"#utility.yul\":41137:41143   */\n      dup3\n        /* \"#utility.yul\":41133:41151   */\n      add\n        /* \"#utility.yul\":41126:41188   */\n      mstore\n        /* \"#utility.yul\":41253:41287   */\n      0x696474683a247b617d272079313d27247b747d272078313d27247b6f7d272078\n        /* \"#utility.yul\":41245:41250   */\n      0x2960\n        /* \"#utility.yul\":41237:41243   */\n      dup3\n        /* \"#utility.yul\":41233:41251   */\n      add\n        /* \"#utility.yul\":41226:41288   */\n      mstore\n        /* \"#utility.yul\":41349:41383   */\n      0x323d27247b322a747d272079323d27247b322a6f7d27202f3e607d293a287a3d\n        /* \"#utility.yul\":41341:41346   */\n      0x2980\n        /* \"#utility.yul\":41333:41339   */\n      dup3\n        /* \"#utility.yul\":41329:41347   */\n      add\n        /* \"#utility.yul\":41322:41384   */\n      mstore\n        /* \"#utility.yul\":41445:41479   */\n      0x607472616e736c6174652835302c35302920726f7461746528247b557d292073\n        /* \"#utility.yul\":41437:41442   */\n      0x29a0\n        /* \"#utility.yul\":41429:41435   */\n      dup3\n        /* \"#utility.yul\":41425:41443   */\n      add\n        /* \"#utility.yul\":41418:41480   */\n      mstore\n        /* \"#utility.yul\":41541:41575   */\n      0x63616c6528247b787d20247b417d29207472616e736c617465282d35302c2d35\n        /* \"#utility.yul\":41533:41538   */\n      0x29c0\n        /* \"#utility.yul\":41525:41531   */\n      dup3\n        /* \"#utility.yul\":41521:41539   */\n      add\n        /* \"#utility.yul\":41514:41576   */\n      mstore\n        /* \"#utility.yul\":41641:41675   */\n      0x3029602c4f3d66756e6374696f6e28652c6e2c742c6f2c61297b72657475726e\n        /* \"#utility.yul\":41633:41638   */\n      0x29e0\n        /* \"#utility.yul\":41625:41631   */\n      dup3\n        /* \"#utility.yul\":41621:41639   */\n      add\n        /* \"#utility.yul\":41614:41676   */\n      mstore\n        /* \"#utility.yul\":41741:41775   */\n      0x603c6c696e65207472616e73666f726d3d27247b7a7d272066696c7465723d27\n        /* \"#utility.yul\":41733:41738   */\n      0x2a00\n        /* \"#utility.yul\":41725:41731   */\n      dup3\n        /* \"#utility.yul\":41721:41739   */\n      add\n        /* \"#utility.yul\":41714:41776   */\n      mstore\n        /* \"#utility.yul\":41841:41875   */\n      0x75726c2823247b657d29277374726f6b652d6f7061636974793d272e39352720\n        /* \"#utility.yul\":41833:41838   */\n      0x2a20\n        /* \"#utility.yul\":41825:41831   */\n      dup3\n        /* \"#utility.yul\":41821:41839   */\n      add\n        /* \"#utility.yul\":41814:41876   */\n      mstore\n        /* \"#utility.yul\":41941:41975   */\n      0x207374726f6b653d2723247b6e7d27207374796c653d277374726f6b652d7769\n        /* \"#utility.yul\":41933:41938   */\n      0x2a40\n        /* \"#utility.yul\":41925:41931   */\n      dup3\n        /* \"#utility.yul\":41921:41939   */\n      add\n        /* \"#utility.yul\":41914:41976   */\n      mstore\n        /* \"#utility.yul\":42041:42075   */\n      0x6474683a247b617d272078313d27247b747d272079313d27247b6f7d27207932\n        /* \"#utility.yul\":42033:42038   */\n      0x2a60\n        /* \"#utility.yul\":42025:42031   */\n      dup3\n        /* \"#utility.yul\":42021:42039   */\n      add\n        /* \"#utility.yul\":42014:42076   */\n      mstore\n        /* \"#utility.yul\":42133:42167   */\n      0x3d27247b322a747d272078323d27247b322a6f7d27202f3e607d293b62726561\n        /* \"#utility.yul\":42125:42130   */\n      0x2a80\n        /* \"#utility.yul\":42117:42123   */\n      dup3\n        /* \"#utility.yul\":42113:42131   */\n      add\n        /* \"#utility.yul\":42106:42168   */\n      mstore\n        /* \"#utility.yul\":42225:42259   */\n      0x6b3b6361736520343a452d3d3130302c623f287a3d607472616e736c61746528\n        /* \"#utility.yul\":42217:42222   */\n      0x2aa0\n        /* \"#utility.yul\":42209:42215   */\n      dup3\n        /* \"#utility.yul\":42205:42223   */\n      add\n        /* \"#utility.yul\":42198:42260   */\n      mstore\n        /* \"#utility.yul\":42325:42359   */\n      0x35302c35302920726f7461746528247b552b652e72616e646f6d5f63686f6963\n        /* \"#utility.yul\":42317:42322   */\n      0x2ac0\n        /* \"#utility.yul\":42309:42315   */\n      dup3\n        /* \"#utility.yul\":42305:42323   */\n      add\n        /* \"#utility.yul\":42298:42360   */\n      mstore\n        /* \"#utility.yul\":42421:42455   */\n      0x65285b2d34352c34355d297d29207363616c6528247b787d20247b417d292074\n        /* \"#utility.yul\":42413:42418   */\n      0x2ae0\n        /* \"#utility.yul\":42405:42411   */\n      dup3\n        /* \"#utility.yul\":42401:42419   */\n      add\n        /* \"#utility.yul\":42394:42456   */\n      mstore\n        /* \"#utility.yul\":42517:42551   */\n      0x72616e736c617465282d35302c2d353029602c4f3d66756e6374696f6e28652c\n        /* \"#utility.yul\":42509:42514   */\n      0x2b00\n        /* \"#utility.yul\":42501:42507   */\n      dup3\n        /* \"#utility.yul\":42497:42515   */\n      add\n        /* \"#utility.yul\":42490:42552   */\n      mstore\n        /* \"#utility.yul\":42617:42651   */\n      0x6e2c742c6f2c61297b72657475726e603c6c696e65207472616e73666f726d3d\n        /* \"#utility.yul\":42609:42614   */\n      0x2b20\n        /* \"#utility.yul\":42601:42607   */\n      dup3\n        /* \"#utility.yul\":42597:42615   */\n      add\n        /* \"#utility.yul\":42590:42652   */\n      mstore\n        /* \"#utility.yul\":42717:42751   */\n      0x27247b7a7d27202066696c7465723d2775726c2823247b657d2927207374726f\n        /* \"#utility.yul\":42709:42714   */\n      0x2b40\n        /* \"#utility.yul\":42701:42707   */\n      dup3\n        /* \"#utility.yul\":42697:42715   */\n      add\n        /* \"#utility.yul\":42690:42752   */\n      mstore\n        /* \"#utility.yul\":42817:42851   */\n      0x6b652d6f7061636974793d272e39352720207374726f6b653d2723247b6e7d27\n        /* \"#utility.yul\":42809:42814   */\n      0x2b60\n        /* \"#utility.yul\":42801:42807   */\n      dup3\n        /* \"#utility.yul\":42797:42815   */\n      add\n        /* \"#utility.yul\":42790:42852   */\n      mstore\n        /* \"#utility.yul\":42917:42951   */\n      0x207374796c653d277374726f6b652d77696474683a247b617d272079313d2724\n        /* \"#utility.yul\":42909:42914   */\n      0x2b80\n        /* \"#utility.yul\":42901:42907   */\n      dup3\n        /* \"#utility.yul\":42897:42915   */\n      add\n        /* \"#utility.yul\":42890:42952   */\n      mstore\n        /* \"#utility.yul\":43017:43051   */\n      0x7b747d272078313d27247b6f7d272078323d27247b742b3130307d272079323d\n        /* \"#utility.yul\":43009:43014   */\n      0x2ba0\n        /* \"#utility.yul\":43001:43007   */\n      dup3\n        /* \"#utility.yul\":42997:43015   */\n      add\n        /* \"#utility.yul\":42990:43052   */\n      mstore\n        /* \"#utility.yul\":43117:43151   */\n      0x27247b6f7d27202f3e607d293a287a3d607472616e736c6174652835302c3530\n        /* \"#utility.yul\":43109:43114   */\n      0x2bc0\n        /* \"#utility.yul\":43101:43107   */\n      dup3\n        /* \"#utility.yul\":43097:43115   */\n      add\n        /* \"#utility.yul\":43090:43152   */\n      mstore\n        /* \"#utility.yul\":43217:43251   */\n      0x2920726f7461746528247b552b652e72616e646f6d5f63686f696365285b2d34\n        /* \"#utility.yul\":43209:43214   */\n      0x2be0\n        /* \"#utility.yul\":43201:43207   */\n      dup3\n        /* \"#utility.yul\":43197:43215   */\n      add\n        /* \"#utility.yul\":43190:43252   */\n      mstore\n        /* \"#utility.yul\":43313:43347   */\n      0x352c34355d297d29207363616c6528247b787d20247b417d29207472616e736c\n        /* \"#utility.yul\":43305:43310   */\n      0x2c00\n        /* \"#utility.yul\":43297:43303   */\n      dup3\n        /* \"#utility.yul\":43293:43311   */\n      add\n        /* \"#utility.yul\":43286:43348   */\n      mstore\n        /* \"#utility.yul\":43409:43443   */\n      0x617465282d35302c2d353029602c4f3d66756e6374696f6e28652c6e2c742c6f\n        /* \"#utility.yul\":43401:43406   */\n      0x2c20\n        /* \"#utility.yul\":43393:43399   */\n      dup3\n        /* \"#utility.yul\":43389:43407   */\n      add\n        /* \"#utility.yul\":43382:43444   */\n      mstore\n        /* \"#utility.yul\":43509:43543   */\n      0x2c61297b72657475726e603c6c696e65207472616e73666f726d3d27247b7a7d\n        /* \"#utility.yul\":43501:43506   */\n      0x2c40\n        /* \"#utility.yul\":43493:43499   */\n      dup3\n        /* \"#utility.yul\":43489:43507   */\n      add\n        /* \"#utility.yul\":43482:43544   */\n      mstore\n        /* \"#utility.yul\":43609:43643   */\n      0x2720202066696c7465723d2775726c2823247b657d2927207374726f6b652d6f\n        /* \"#utility.yul\":43601:43606   */\n      0x2c60\n        /* \"#utility.yul\":43593:43599   */\n      dup3\n        /* \"#utility.yul\":43589:43607   */\n      add\n        /* \"#utility.yul\":43582:43644   */\n      mstore\n        /* \"#utility.yul\":43709:43743   */\n      0x7061636974793d272e39352720207374726f6b653d2723247b6e7d2720737479\n        /* \"#utility.yul\":43701:43706   */\n      0x2c80\n        /* \"#utility.yul\":43693:43699   */\n      dup3\n        /* \"#utility.yul\":43689:43707   */\n      add\n        /* \"#utility.yul\":43682:43744   */\n      mstore\n        /* \"#utility.yul\":43809:43843   */\n      0x6c653d277374726f6b652d77696474683a247b617d272078313d27247b747d27\n        /* \"#utility.yul\":43801:43806   */\n      0x2ca0\n        /* \"#utility.yul\":43793:43799   */\n      dup3\n        /* \"#utility.yul\":43789:43807   */\n      add\n        /* \"#utility.yul\":43782:43844   */\n      mstore\n        /* \"#utility.yul\":43909:43943   */\n      0x2079313d27247b6f7d272079323d27247b742b3130307d272078323d27247b6f\n        /* \"#utility.yul\":43901:43906   */\n      0x2cc0\n        /* \"#utility.yul\":43893:43899   */\n      dup3\n        /* \"#utility.yul\":43889:43907   */\n      add\n        /* \"#utility.yul\":43882:43944   */\n      mstore\n        /* \"#utility.yul\":44005:44039   */\n      0x7d27202f3e607d293b627265616b3b64656661756c743a623f287a3d60747261\n        /* \"#utility.yul\":43997:44002   */\n      0x2ce0\n        /* \"#utility.yul\":43989:43995   */\n      dup3\n        /* \"#utility.yul\":43985:44003   */\n      add\n        /* \"#utility.yul\":43978:44040   */\n      mstore\n        /* \"#utility.yul\":44101:44135   */\n      0x6e736c6174652835302c35302920726f7461746528247b557d29207363616c65\n        /* \"#utility.yul\":44093:44098   */\n      0x2d00\n        /* \"#utility.yul\":44085:44091   */\n      dup3\n        /* \"#utility.yul\":44081:44099   */\n      add\n        /* \"#utility.yul\":44074:44136   */\n      mstore\n        /* \"#utility.yul\":44197:44231   */\n      0x28247b787d20247b417d29207472616e736c617465282d35302c2d353029602c\n        /* \"#utility.yul\":44189:44194   */\n      0x2d20\n        /* \"#utility.yul\":44181:44187   */\n      dup3\n        /* \"#utility.yul\":44177:44195   */\n      add\n        /* \"#utility.yul\":44170:44232   */\n      mstore\n        /* \"#utility.yul\":44293:44327   */\n      0x4f3d66756e6374696f6e28652c6e2c742c6f2c61297b72657475726e603c6c69\n        /* \"#utility.yul\":44285:44290   */\n      0x2d40\n        /* \"#utility.yul\":44277:44283   */\n      dup3\n        /* \"#utility.yul\":44273:44291   */\n      add\n        /* \"#utility.yul\":44266:44328   */\n      mstore\n        /* \"#utility.yul\":44393:44427   */\n      0x6e65207472616e73666f726d3d27247b7a7d27202066696c7465723d2775726c\n        /* \"#utility.yul\":44385:44390   */\n      0x2d60\n        /* \"#utility.yul\":44377:44383   */\n      dup3\n        /* \"#utility.yul\":44373:44391   */\n      add\n        /* \"#utility.yul\":44366:44428   */\n      mstore\n        /* \"#utility.yul\":44493:44527   */\n      0x2823247b657d29277374726f6b652d6f7061636974793d272e39352720207374\n        /* \"#utility.yul\":44485:44490   */\n      0x2d80\n        /* \"#utility.yul\":44477:44483   */\n      dup3\n        /* \"#utility.yul\":44473:44491   */\n      add\n        /* \"#utility.yul\":44466:44528   */\n      mstore\n        /* \"#utility.yul\":44593:44627   */\n      0x726f6b653d2723247b6e7d27207374796c653d277374726f6b652d7769647468\n        /* \"#utility.yul\":44585:44590   */\n      0x2da0\n        /* \"#utility.yul\":44577:44583   */\n      dup3\n        /* \"#utility.yul\":44573:44591   */\n      add\n        /* \"#utility.yul\":44566:44628   */\n      mstore\n        /* \"#utility.yul\":44693:44727   */\n      0x3a247b617d272079313d27247b747d272078313d27247b6f7d272078323d2724\n        /* \"#utility.yul\":44685:44690   */\n      0x2dc0\n        /* \"#utility.yul\":44677:44683   */\n      dup3\n        /* \"#utility.yul\":44673:44691   */\n      add\n        /* \"#utility.yul\":44666:44728   */\n      mstore\n        /* \"#utility.yul\":44789:44823   */\n      0x7b747d272079323d27247b6f7d27202f3e607d293a287a3d607472616e736c61\n        /* \"#utility.yul\":44781:44786   */\n      0x2de0\n        /* \"#utility.yul\":44773:44779   */\n      dup3\n        /* \"#utility.yul\":44769:44787   */\n      add\n        /* \"#utility.yul\":44762:44824   */\n      mstore\n        /* \"#utility.yul\":44885:44919   */\n      0x74652835302c35302920726f7461746528247b557d29207363616c6528247b78\n        /* \"#utility.yul\":44877:44882   */\n      0x2e00\n        /* \"#utility.yul\":44869:44875   */\n      dup3\n        /* \"#utility.yul\":44865:44883   */\n      add\n        /* \"#utility.yul\":44858:44920   */\n      mstore\n        /* \"#utility.yul\":44981:45015   */\n      0x7d20247b417d29207472616e736c617465282d35302c2d353029602c4f3d6675\n        /* \"#utility.yul\":44973:44978   */\n      0x2e20\n        /* \"#utility.yul\":44965:44971   */\n      dup3\n        /* \"#utility.yul\":44961:44979   */\n      add\n        /* \"#utility.yul\":44954:45016   */\n      mstore\n        /* \"#utility.yul\":45077:45111   */\n      0x6e6374696f6e28652c6e2c742c6f2c61297b72657475726e603c6c696e652074\n        /* \"#utility.yul\":45069:45074   */\n      0x2e40\n        /* \"#utility.yul\":45061:45067   */\n      dup3\n        /* \"#utility.yul\":45057:45075   */\n      add\n        /* \"#utility.yul\":45050:45112   */\n      mstore\n        /* \"#utility.yul\":45177:45211   */\n      0x72616e73666f726d3d27247b7a7d27202066696c7465723d2775726c2823247b\n        /* \"#utility.yul\":45169:45174   */\n      0x2e60\n        /* \"#utility.yul\":45161:45167   */\n      dup3\n        /* \"#utility.yul\":45157:45175   */\n      add\n        /* \"#utility.yul\":45150:45212   */\n      mstore\n        /* \"#utility.yul\":45277:45311   */\n      0x657d29277374726f6b652d6f7061636974793d272e39352720207374726f6b65\n        /* \"#utility.yul\":45269:45274   */\n      0x2e80\n        /* \"#utility.yul\":45261:45267   */\n      dup3\n        /* \"#utility.yul\":45257:45275   */\n      add\n        /* \"#utility.yul\":45250:45312   */\n      mstore\n        /* \"#utility.yul\":45377:45411   */\n      0x3d2723247b6e7d27207374796c653d277374726f6b652d77696474683a247b61\n        /* \"#utility.yul\":45369:45374   */\n      0x2ea0\n        /* \"#utility.yul\":45361:45367   */\n      dup3\n        /* \"#utility.yul\":45357:45375   */\n      add\n        /* \"#utility.yul\":45350:45412   */\n      mstore\n        /* \"#utility.yul\":45477:45511   */\n      0x7d272078313d27247b747d272079313d27247b6f7d272079323d27247b747d27\n        /* \"#utility.yul\":45469:45474   */\n      0x2ec0\n        /* \"#utility.yul\":45461:45467   */\n      dup3\n        /* \"#utility.yul\":45457:45475   */\n      add\n        /* \"#utility.yul\":45450:45512   */\n      mstore\n        /* \"#utility.yul\":45569:45603   */\n      0x2078323d27247b6f7d27202f3e607d297d652e72616e646f6d5f626f6f6c282e\n        /* \"#utility.yul\":45561:45566   */\n      0x2ee0\n        /* \"#utility.yul\":45553:45559   */\n      dup3\n        /* \"#utility.yul\":45549:45567   */\n      add\n        /* \"#utility.yul\":45542:45604   */\n      mstore\n        /* \"#utility.yul\":45661:45695   */\n      0x34293f563d66756e6374696f6e2865297b442a3d653c523f2d4d3a2d4e7d3a28\n        /* \"#utility.yul\":45653:45658   */\n      0x2f00\n        /* \"#utility.yul\":45645:45651   */\n      dup3\n        /* \"#utility.yul\":45641:45659   */\n      add\n        /* \"#utility.yul\":45634:45696   */\n      mstore\n        /* \"#utility.yul\":45753:45787   */\n      0x4c3d652e72616e646f6d5f696e742831302c3130302f332e35292c4e3d652e72\n        /* \"#utility.yul\":45745:45750   */\n      0x2f20\n        /* \"#utility.yul\":45737:45743   */\n      dup3\n        /* \"#utility.yul\":45733:45751   */\n      add\n        /* \"#utility.yul\":45726:45788   */\n      mstore\n        /* \"#utility.yul\":45845:45879   */\n      0x616e646f6d5f696e7428342c3132292c563d66756e6374696f6e2865297b442a\n        /* \"#utility.yul\":45837:45842   */\n      0x2f40\n        /* \"#utility.yul\":45829:45835   */\n      dup3\n        /* \"#utility.yul\":45825:45843   */\n      add\n        /* \"#utility.yul\":45818:45880   */\n      mstore\n        /* \"#utility.yul\":45937:45971   */\n      0x3d4d7d292c463d302c6b3d303b666f72286c6574206e3d4c3b6e3c3d533b6e2b\n        /* \"#utility.yul\":45929:45934   */\n      0x2f60\n        /* \"#utility.yul\":45921:45927   */\n      dup3\n        /* \"#utility.yul\":45917:45935   */\n      add\n        /* \"#utility.yul\":45910:45972   */\n      mstore\n        /* \"#utility.yul\":46029:46063   */\n      0x3d67297b462b2b2c463e3d636f6c6f722e6c656e677468262628463d30292c67\n        /* \"#utility.yul\":46021:46026   */\n      0x2f80\n        /* \"#utility.yul\":46013:46019   */\n      dup3\n        /* \"#utility.yul\":46009:46027   */\n      add\n        /* \"#utility.yul\":46002:46064   */\n      mstore\n        /* \"#utility.yul\":46121:46155   */\n      0x2b3d752c423d6a2846293b666f72286c657420743d303b743c323b742b2b297b\n        /* \"#utility.yul\":46113:46118   */\n      0x2fa0\n        /* \"#utility.yul\":46105:46111   */\n      dup3\n        /* \"#utility.yul\":46101:46119   */\n      add\n        /* \"#utility.yul\":46094:46156   */\n      mstore\n        /* \"#utility.yul\":46217:46251   */\n      0x6c6574206f3d6e2c613d6066247b747d603b666f72286c6574206e3d453b6e3c\n        /* \"#utility.yul\":46209:46214   */\n      0x2fc0\n        /* \"#utility.yul\":46201:46207   */\n      dup3\n        /* \"#utility.yul\":46197:46215   */\n      add\n        /* \"#utility.yul\":46190:46252   */\n      mstore\n        /* \"#utility.yul\":46317:46351   */\n      0x433b6e2b3d76296b2b2b2c56286e292c572b3d4f28612c422c6e2c6f2c652e72\n        /* \"#utility.yul\":46309:46314   */\n      0x2fe0\n        /* \"#utility.yul\":46301:46307   */\n      dup3\n        /* \"#utility.yul\":46297:46315   */\n      add\n        /* \"#utility.yul\":46290:46352   */\n      mstore\n        /* \"#utility.yul\":46417:46451   */\n      0x616e646f6d5f6e756d28302c44292c636f6c6f725b4d6174682e61627328462d\n        /* \"#utility.yul\":46409:46414   */\n      0x3000\n        /* \"#utility.yul\":46401:46407   */\n      dup3\n        /* \"#utility.yul\":46397:46415   */\n      add\n        /* \"#utility.yul\":46390:46452   */\n      mstore\n        /* \"#utility.yul\":46509:46543   */\n      0x31295d297d7d572b3d603c726563742066696c6c3d2723247b636f6c6f725b30\n        /* \"#utility.yul\":46501:46506   */\n      0x3020\n        /* \"#utility.yul\":46493:46499   */\n      dup3\n        /* \"#utility.yul\":46489:46507   */\n      add\n        /* \"#utility.yul\":46482:46544   */\n      mstore\n        /* \"#utility.yul\":46597:46631   */\n      0x5d7d2720783d27302720793d27247b532b677d272077696474683d2731303027\n        /* \"#utility.yul\":46589:46594   */\n      0x3040\n        /* \"#utility.yul\":46581:46587   */\n      dup3\n        /* \"#utility.yul\":46577:46595   */\n      add\n        /* \"#utility.yul\":46570:46632   */\n      mstore\n        /* \"#utility.yul\":46685:46719   */\n      0x206865696768743d2731303027202f3e602c72657175657374416e696d617469\n        /* \"#utility.yul\":46677:46682   */\n      0x3060\n        /* \"#utility.yul\":46669:46675   */\n      dup3\n        /* \"#utility.yul\":46665:46683   */\n      add\n        /* \"#utility.yul\":46658:46720   */\n      mstore\n        /* \"#utility.yul\":46773:46807   */\n      0x6f6e4672616d65282866756e6374696f6e28297b7570646174654c6f61646572\n        /* \"#utility.yul\":46765:46770   */\n      0x3080\n        /* \"#utility.yul\":46757:46763   */\n      dup3\n        /* \"#utility.yul\":46753:46771   */\n      add\n        /* \"#utility.yul\":46746:46808   */\n      mstore\n        /* \"#utility.yul\":46873:46907   */\n      0x282752656e646572696e67205356472c20746869732063616e2074616b652061\n        /* \"#utility.yul\":46865:46870   */\n      0x30a0\n        /* \"#utility.yul\":46857:46863   */\n      dup3\n        /* \"#utility.yul\":46853:46871   */\n      add\n        /* \"#utility.yul\":46846:46908   */\n      mstore\n        /* \"#utility.yul\":46961:46995   */\n      0x20666577207365636f6e647327297d29292c6177616974206e65772050726f6d\n        /* \"#utility.yul\":46953:46958   */\n      0x30c0\n        /* \"#utility.yul\":46945:46951   */\n      dup3\n        /* \"#utility.yul\":46941:46959   */\n      add\n        /* \"#utility.yul\":46934:46996   */\n      mstore\n        /* \"#utility.yul\":47049:47083   */\n      0x6973652828653d3e73657454696d656f757428652c3230302929292c72657175\n        /* \"#utility.yul\":47041:47046   */\n      0x30e0\n        /* \"#utility.yul\":47033:47039   */\n      dup3\n        /* \"#utility.yul\":47029:47047   */\n      add\n        /* \"#utility.yul\":47022:47084   */\n      mstore\n        /* \"#utility.yul\":47137:47171   */\n      0x657374416e696d6174696f6e4672616d65282866756e6374696f6e28297b482e\n        /* \"#utility.yul\":47129:47134   */\n      0x3100\n        /* \"#utility.yul\":47121:47127   */\n      dup3\n        /* \"#utility.yul\":47117:47135   */\n      add\n        /* \"#utility.yul\":47110:47172   */\n      mstore\n        /* \"#utility.yul\":47225:47259   */\n      0x696e6e657248544d4c2b3d577d29292c72657175657374416e696d6174696f6e\n        /* \"#utility.yul\":47217:47222   */\n      0x3120\n        /* \"#utility.yul\":47209:47215   */\n      dup3\n        /* \"#utility.yul\":47205:47223   */\n      add\n        /* \"#utility.yul\":47198:47260   */\n      mstore\n        /* \"#utility.yul\":47313:47347   */\n      0x4672616d65282866756e6374696f6e28297b72656d6f7665416c6c4c6f616465\n        /* \"#utility.yul\":47305:47310   */\n      0x3140\n        /* \"#utility.yul\":47297:47303   */\n      dup3\n        /* \"#utility.yul\":47293:47311   */\n      add\n        /* \"#utility.yul\":47286:47348   */\n      mstore\n        /* \"#utility.yul\":47401:47435   */\n      0x727328297d29292c646f63756d656e742e6164644576656e744c697374656e65\n        /* \"#utility.yul\":47393:47398   */\n      0x3160\n        /* \"#utility.yul\":47385:47391   */\n      dup3\n        /* \"#utility.yul\":47381:47399   */\n      add\n        /* \"#utility.yul\":47374:47436   */\n      mstore\n        /* \"#utility.yul\":47489:47523   */\n      0x7228276b6579646f776e272c286173796e632066756e6374696f6e2865297b69\n        /* \"#utility.yul\":47481:47486   */\n      0x3180\n        /* \"#utility.yul\":47473:47479   */\n      dup3\n        /* \"#utility.yul\":47469:47487   */\n      add\n        /* \"#utility.yul\":47462:47524   */\n      mstore\n        /* \"#utility.yul\":47589:47623   */\n      0x66282773273d3d3d652e6b65797c7c2753273d3d3d652e6b6579297b72657175\n        /* \"#utility.yul\":47581:47586   */\n      0x31a0\n        /* \"#utility.yul\":47573:47579   */\n      dup3\n        /* \"#utility.yul\":47569:47587   */\n      add\n        /* \"#utility.yul\":47562:47624   */\n      mstore\n        /* \"#utility.yul\":47693:47727   */\n      0x657374416e696d6174696f6e4672616d65282866756e6374696f6e28297b6164\n        /* \"#utility.yul\":47685:47690   */\n      0x31c0\n        /* \"#utility.yul\":47677:47683   */\n      dup3\n        /* \"#utility.yul\":47673:47691   */\n      add\n        /* \"#utility.yul\":47666:47728   */\n      mstore\n        /* \"#utility.yul\":47797:47831   */\n      0x644c6f616465722827536176696e672053564727297d29292c6177616974206e\n        /* \"#utility.yul\":47789:47794   */\n      0x31e0\n        /* \"#utility.yul\":47781:47787   */\n      dup3\n        /* \"#utility.yul\":47777:47795   */\n      add\n        /* \"#utility.yul\":47770:47832   */\n      mstore\n        /* \"#utility.yul\":47901:47935   */\n      0x65772050726f6d6973652828653d3e73657454696d656f757428652c32303029\n        /* \"#utility.yul\":47893:47898   */\n      0x3200\n        /* \"#utility.yul\":47885:47891   */\n      dup3\n        /* \"#utility.yul\":47881:47899   */\n      add\n        /* \"#utility.yul\":47874:47936   */\n      mstore\n        /* \"#utility.yul\":48005:48039   */\n      0x29293b636f6e737420653d646f63756d656e742e676574456c656d656e744279\n        /* \"#utility.yul\":47997:48002   */\n      0x3220\n        /* \"#utility.yul\":47989:47995   */\n      dup3\n        /* \"#utility.yul\":47985:48003   */\n      add\n        /* \"#utility.yul\":47978:48040   */\n      mstore\n        /* \"#utility.yul\":48109:48143   */\n      0x496428276d7953766727292c6e3d646f63756d656e742e637265617465456c65\n        /* \"#utility.yul\":48101:48106   */\n      0x3240\n        /* \"#utility.yul\":48093:48099   */\n      dup3\n        /* \"#utility.yul\":48089:48107   */\n      add\n        /* \"#utility.yul\":48082:48144   */\n      mstore\n        /* \"#utility.yul\":48213:48279   */\n      0x6d656e7428277374796c6527293b6e2e74657874436f6e74656e743d600a2020\n        /* \"#utility.yul\":48205:48210   */\n      0x3260\n        /* \"#utility.yul\":48197:48203   */\n      dup3\n        /* \"#utility.yul\":48193:48211   */\n      add\n        /* \"#utility.yul\":48186:48280   */\n      mstore\n        /* \"#utility.yul\":48349:48415   */\n      0x2020737667207b0a20202020202077696474683a2031303076773b0a20202020\n        /* \"#utility.yul\":48341:48346   */\n      0x3280\n        /* \"#utility.yul\":48333:48339   */\n      dup3\n        /* \"#utility.yul\":48329:48347   */\n      add\n        /* \"#utility.yul\":48322:48416   */\n      mstore\n        /* \"#utility.yul\":48485:48551   */\n      0x20206865696768743a2031303076683b0a20202020202070616464696e673a20\n        /* \"#utility.yul\":48477:48482   */\n      0x32a0\n        /* \"#utility.yul\":48469:48475   */\n      dup3\n        /* \"#utility.yul\":48465:48483   */\n      add\n        /* \"#utility.yul\":48458:48552   */\n      mstore\n        /* \"#utility.yul\":48621:48687   */\n      0x30766d696e3b0a202020202020626f782d736861646f773a202e35766d696e20\n        /* \"#utility.yul\":48613:48618   */\n      0x32c0\n        /* \"#utility.yul\":48605:48611   */\n      dup3\n        /* \"#utility.yul\":48601:48619   */\n      add\n        /* \"#utility.yul\":48594:48688   */\n      mstore\n        /* \"#utility.yul\":48757:48791   */\n      0x2e35766d696e2031766d696e207267626128302c20302c20302c20302e35293b\n        /* \"#utility.yul\":48749:48754   */\n      0x32e0\n        /* \"#utility.yul\":48741:48747   */\n      dup3\n        /* \"#utility.yul\":48737:48755   */\n      add\n        /* \"#utility.yul\":48730:48792   */\n      mstore\n        /* \"#utility.yul\":48861:48927   */\n      0x0a202020202020626f782d73697a696e673a20626f726465722d626f783b0a20\n        /* \"#utility.yul\":48853:48858   */\n      0x3300\n        /* \"#utility.yul\":48845:48851   */\n      dup3\n        /* \"#utility.yul\":48841:48859   */\n      add\n        /* \"#utility.yul\":48834:48928   */\n      mstore\n        /* \"#utility.yul\":48997:49063   */\n      0x2020207d0a202020203c212d2d20496620796f752077616e7420746f20646973\n        /* \"#utility.yul\":48989:48994   */\n      0x3320\n        /* \"#utility.yul\":48981:48987   */\n      dup3\n        /* \"#utility.yul\":48977:48995   */\n      add\n        /* \"#utility.yul\":48970:49064   */\n      mstore\n        /* \"#utility.yul\":49133:49167   */\n      0x706c617920746865205356472061732069742077617320696e20746865206765\n        /* \"#utility.yul\":49125:49130   */\n      0x3340\n        /* \"#utility.yul\":49117:49123   */\n      dup3\n        /* \"#utility.yul\":49113:49131   */\n      add\n        /* \"#utility.yul\":49106:49168   */\n      mstore\n        /* \"#utility.yul\":49237:49271   */\n      0x6e657261746f722c206a7573742070757420697420696e746f20746865203c62\n        /* \"#utility.yul\":49229:49234   */\n      0x3360\n        /* \"#utility.yul\":49221:49227   */\n      dup3\n        /* \"#utility.yul\":49217:49235   */\n      add\n        /* \"#utility.yul\":49210:49272   */\n      mstore\n        /* \"#utility.yul\":49341:49375   */\n      0x6f64793e206f6620616e2068746d6c207061676520616e642061646420746869\n        /* \"#utility.yul\":49333:49338   */\n      0x3380\n        /* \"#utility.yul\":49325:49331   */\n      dup3\n        /* \"#utility.yul\":49321:49339   */\n      add\n        /* \"#utility.yul\":49314:49376   */\n      mstore\n        /* \"#utility.yul\":49445:49511   */\n      0x73207374796c696e67202d2d3e0a20202020626f6479207b0a20202020202064\n        /* \"#utility.yul\":49437:49442   */\n      0x33a0\n        /* \"#utility.yul\":49429:49435   */\n      dup3\n        /* \"#utility.yul\":49425:49443   */\n      add\n        /* \"#utility.yul\":49418:49512   */\n      mstore\n        /* \"#utility.yul\":49581:49647   */\n      0x6973706c61793a20666c65783b0a2020202020206a7573746966792d636f6e74\n        /* \"#utility.yul\":49573:49578   */\n      0x33c0\n        /* \"#utility.yul\":49565:49571   */\n      dup3\n        /* \"#utility.yul\":49561:49579   */\n      add\n        /* \"#utility.yul\":49554:49648   */\n      mstore\n        /* \"#utility.yul\":49717:49783   */\n      0x656e743a2063656e7465723b0a202020202020616c69676e2d6974656d733a20\n        /* \"#utility.yul\":49709:49714   */\n      0x33e0\n        /* \"#utility.yul\":49701:49707   */\n      dup3\n        /* \"#utility.yul\":49697:49715   */\n      add\n        /* \"#utility.yul\":49690:49784   */\n      mstore\n        /* \"#utility.yul\":49853:49919   */\n      0x63656e7465723b0a2020202020206261636b67726f756e642d636f6c6f723a20\n        /* \"#utility.yul\":49845:49850   */\n      0x3400\n        /* \"#utility.yul\":49837:49843   */\n      dup3\n        /* \"#utility.yul\":49833:49851   */\n      add\n        /* \"#utility.yul\":49826:49920   */\n      mstore\n        /* \"#utility.yul\":49989:50055   */\n      0x23247b636f6c6f725b305d7d3b0a202020207d0a2020602c652e70726570656e\n        /* \"#utility.yul\":49981:49986   */\n      0x3420\n        /* \"#utility.yul\":49973:49979   */\n      dup3\n        /* \"#utility.yul\":49969:49987   */\n      add\n        /* \"#utility.yul\":49962:50056   */\n      mstore\n        /* \"#utility.yul\":50125:50159   */\n      0x64286e293b636f6e737420743d6e657720584d4c53657269616c697a65722c6f\n        /* \"#utility.yul\":50117:50122   */\n      0x3440\n        /* \"#utility.yul\":50109:50115   */\n      dup3\n        /* \"#utility.yul\":50105:50123   */\n      add\n        /* \"#utility.yul\":50098:50160   */\n      mstore\n        /* \"#utility.yul\":50229:50263   */\n      0x3d6e657720426c6f62285b742e73657269616c697a65546f537472696e672865\n        /* \"#utility.yul\":50221:50226   */\n      0x3460\n        /* \"#utility.yul\":50213:50219   */\n      dup3\n        /* \"#utility.yul\":50209:50227   */\n      add\n        /* \"#utility.yul\":50202:50264   */\n      mstore\n        /* \"#utility.yul\":50333:50367   */\n      0x295d2c7b747970653a27696d6167652f7376672b786d6c277d292c613d55524c\n        /* \"#utility.yul\":50325:50330   */\n      0x3480\n        /* \"#utility.yul\":50317:50323   */\n      dup3\n        /* \"#utility.yul\":50313:50331   */\n      add\n        /* \"#utility.yul\":50306:50368   */\n      mstore\n        /* \"#utility.yul\":50437:50471   */\n      0x2e6372656174654f626a65637455524c286f293b646f63756d656e742e777269\n        /* \"#utility.yul\":50429:50434   */\n      0x34a0\n        /* \"#utility.yul\":50421:50427   */\n      dup3\n        /* \"#utility.yul\":50417:50435   */\n      add\n        /* \"#utility.yul\":50410:50472   */\n      mstore\n        /* \"#utility.yul\":50541:50575   */\n      0x74652865293b636f6e737420723d646f63756d656e742e637265617465456c65\n        /* \"#utility.yul\":50533:50538   */\n      0x34c0\n        /* \"#utility.yul\":50525:50531   */\n      dup3\n        /* \"#utility.yul\":50521:50539   */\n      add\n        /* \"#utility.yul\":50514:50576   */\n      mstore\n        /* \"#utility.yul\":50645:50679   */\n      0x6d656e7428276127293b722e687265663d612c722e646f776e6c6f61643d275f\n        /* \"#utility.yul\":50637:50642   */\n      0x34e0\n        /* \"#utility.yul\":50629:50635   */\n      dup3\n        /* \"#utility.yul\":50625:50643   */\n      add\n        /* \"#utility.yul\":50618:50680   */\n      mstore\n        /* \"#utility.yul\":50749:50783   */\n      0x5f5f5f5f5f5f5f5f2e737667272c646f63756d656e742e626f64792e61707065\n        /* \"#utility.yul\":50741:50746   */\n      0x3500\n        /* \"#utility.yul\":50733:50739   */\n      dup3\n        /* \"#utility.yul\":50729:50747   */\n      add\n        /* \"#utility.yul\":50722:50784   */\n      mstore\n        /* \"#utility.yul\":50853:50887   */\n      0x6e644368696c642872292c722e636c69636b28292c646f63756d656e742e626f\n        /* \"#utility.yul\":50845:50850   */\n      0x3520\n        /* \"#utility.yul\":50837:50843   */\n      dup3\n        /* \"#utility.yul\":50833:50851   */\n      add\n        /* \"#utility.yul\":50826:50888   */\n      mstore\n        /* \"#utility.yul\":50957:50991   */\n      0x64792e72656d6f76654368696c642872292c55524c2e7265766f6b654f626a65\n        /* \"#utility.yul\":50949:50954   */\n      0x3540\n        /* \"#utility.yul\":50941:50947   */\n      dup3\n        /* \"#utility.yul\":50937:50955   */\n      add\n        /* \"#utility.yul\":50930:50992   */\n      mstore\n        /* \"#utility.yul\":51045:51079   */\n      0x637455524c2861292c72656d6f7665416c6c4c6f616465727328297d7d29292c\n        /* \"#utility.yul\":51037:51042   */\n      0x3560\n        /* \"#utility.yul\":51029:51035   */\n      dup3\n        /* \"#utility.yul\":51025:51043   */\n      add\n        /* \"#utility.yul\":51018:51080   */\n      mstore\n        /* \"#utility.yul\":51133:51167   */\n      0x646f63756d656e742e6164644576656e744c697374656e657228276b6579646f\n        /* \"#utility.yul\":51125:51130   */\n      0x3580\n        /* \"#utility.yul\":51117:51123   */\n      dup3\n        /* \"#utility.yul\":51113:51131   */\n      add\n        /* \"#utility.yul\":51106:51168   */\n      mstore\n        /* \"#utility.yul\":51225:51259   */\n      0x776e272c286173796e632066756e6374696f6e2865297b72657175657374416e\n        /* \"#utility.yul\":51217:51222   */\n      0x35a0\n        /* \"#utility.yul\":51209:51215   */\n      dup3\n        /* \"#utility.yul\":51205:51223   */\n      add\n        /* \"#utility.yul\":51198:51260   */\n      mstore\n        /* \"#utility.yul\":51325:51359   */\n      0x696d6174696f6e4672616d65282866756e6374696f6e28297b6164644c6f6164\n        /* \"#utility.yul\":51317:51322   */\n      0x35c0\n        /* \"#utility.yul\":51309:51315   */\n      dup3\n        /* \"#utility.yul\":51305:51323   */\n      add\n        /* \"#utility.yul\":51298:51360   */\n      mstore\n        /* \"#utility.yul\":51429:51463   */\n      0x657228274c6f6164696e67206e65772061737065637420726174696f27297d29\n        /* \"#utility.yul\":51421:51426   */\n      0x35e0\n        /* \"#utility.yul\":51413:51419   */\n      dup3\n        /* \"#utility.yul\":51409:51427   */\n      add\n        /* \"#utility.yul\":51402:51464   */\n      mstore\n        /* \"#utility.yul\":51533:51567   */\n      0x292c6177616974206e65772050726f6d6973652828653d3e73657454696d656f\n        /* \"#utility.yul\":51525:51530   */\n      0x3600\n        /* \"#utility.yul\":51517:51523   */\n      dup3\n        /* \"#utility.yul\":51513:51531   */\n      add\n        /* \"#utility.yul\":51506:51568   */\n      mstore\n        /* \"#utility.yul\":51633:51667   */\n      0x757428652c3230302929292c274172726f775269676874273d3d3d652e6b6579\n        /* \"#utility.yul\":51625:51630   */\n      0x3620\n        /* \"#utility.yul\":51617:51623   */\n      dup3\n        /* \"#utility.yul\":51613:51631   */\n      add\n        /* \"#utility.yul\":51606:51668   */\n      mstore\n        /* \"#utility.yul\":51733:51767   */\n      0x3f743d28742b3129256e2e6c656e6774683a274172726f774c656674273d3d3d\n        /* \"#utility.yul\":51725:51730   */\n      0x3640\n        /* \"#utility.yul\":51717:51723   */\n      dup3\n        /* \"#utility.yul\":51713:51731   */\n      add\n        /* \"#utility.yul\":51706:51768   */\n      mstore\n        /* \"#utility.yul\":51833:51867   */\n      0x652e6b6579262628743d28742d312b6e2e6c656e67746829256e2e6c656e6774\n        /* \"#utility.yul\":51825:51830   */\n      0x3660\n        /* \"#utility.yul\":51817:51823   */\n      dup3\n        /* \"#utility.yul\":51813:51831   */\n      add\n        /* \"#utility.yul\":51806:51868   */\n      mstore\n        /* \"#utility.yul\":51933:51967   */\n      0x68292c736574526174696f286e2c74292c72656d6f7665416c6c4c6f61646572\n        /* \"#utility.yul\":51925:51930   */\n      0x3680\n        /* \"#utility.yul\":51917:51923   */\n      dup3\n        /* \"#utility.yul\":51913:51931   */\n      add\n        /* \"#utility.yul\":51906:51968   */\n      mstore\n        /* \"#utility.yul\":52025:52059   */\n      0x7328297d29292c482e6164644576656e744c697374656e65722827746f756368\n        /* \"#utility.yul\":52017:52022   */\n      0x36a0\n        /* \"#utility.yul\":52009:52015   */\n      dup3\n        /* \"#utility.yul\":52005:52023   */\n      add\n        /* \"#utility.yul\":51998:52060   */\n      mstore\n        /* \"#utility.yul\":52117:52151   */\n      0x656e64272c286173796e632066756e6374696f6e2865297b7265717565737441\n        /* \"#utility.yul\":52109:52114   */\n      0x36c0\n        /* \"#utility.yul\":52101:52107   */\n      dup3\n        /* \"#utility.yul\":52097:52115   */\n      add\n        /* \"#utility.yul\":52090:52152   */\n      mstore\n        /* \"#utility.yul\":52217:52251   */\n      0x6e696d6174696f6e4672616d65282866756e6374696f6e28297b6164644c6f61\n        /* \"#utility.yul\":52209:52214   */\n      0x36e0\n        /* \"#utility.yul\":52201:52207   */\n      dup3\n        /* \"#utility.yul\":52197:52215   */\n      add\n        /* \"#utility.yul\":52190:52252   */\n      mstore\n        /* \"#utility.yul\":52325:52359   */\n      0x64657228274c6f6164696e67206e65772061737065637420726174696f27297d\n        /* \"#utility.yul\":52317:52322   */\n      0x3700\n        /* \"#utility.yul\":52309:52315   */\n      dup3\n        /* \"#utility.yul\":52305:52323   */\n      add\n        /* \"#utility.yul\":52298:52360   */\n      mstore\n        /* \"#utility.yul\":52433:52467   */\n      0x29292c6177616974206e65772050726f6d6973652828653d3e73657454696d65\n        /* \"#utility.yul\":52425:52430   */\n      0x3720\n        /* \"#utility.yul\":52417:52423   */\n      dup3\n        /* \"#utility.yul\":52413:52431   */\n      add\n        /* \"#utility.yul\":52406:52468   */\n      mstore\n        /* \"#utility.yul\":52533:52567   */\n      0x6f757428652c3230302929292c743d28742b3129256e2e6c656e6774683b636f\n        /* \"#utility.yul\":52525:52530   */\n      0x3740\n        /* \"#utility.yul\":52517:52523   */\n      dup3\n        /* \"#utility.yul\":52513:52531   */\n      add\n        /* \"#utility.yul\":52506:52568   */\n      mstore\n        /* \"#utility.yul\":52633:52667   */\n      0x6e7374206f3d6e5b745d3b646f63756d656e742e676574456c656d656e744279\n        /* \"#utility.yul\":52625:52630   */\n      0x3760\n        /* \"#utility.yul\":52617:52623   */\n      dup3\n        /* \"#utility.yul\":52613:52631   */\n      add\n        /* \"#utility.yul\":52606:52668   */\n      mstore\n        /* \"#utility.yul\":52733:52767   */\n      0x496428276d7953766727292c646f526174696f286f2c646f63756d656e742e67\n        /* \"#utility.yul\":52725:52730   */\n      0x3780\n        /* \"#utility.yul\":52717:52723   */\n      dup3\n        /* \"#utility.yul\":52713:52731   */\n      add\n        /* \"#utility.yul\":52706:52768   */\n      mstore\n        /* \"#utility.yul\":52833:52867   */\n      0x6574456c656d656e744279496428276d795376672729292c72656d6f7665416c\n        /* \"#utility.yul\":52825:52830   */\n      0x37a0\n        /* \"#utility.yul\":52817:52823   */\n      dup3\n        /* \"#utility.yul\":52813:52831   */\n      add\n        /* \"#utility.yul\":52806:52868   */\n      mstore\n        /* \"#utility.yul\":52921:52955   */\n      0x6c4c6f616465727328297d29297d3b66756e6374696f6e20646f526174696f28\n        /* \"#utility.yul\":52913:52918   */\n      0x37c0\n        /* \"#utility.yul\":52905:52911   */\n      dup3\n        /* \"#utility.yul\":52901:52919   */\n      add\n        /* \"#utility.yul\":52894:52956   */\n      mstore\n        /* \"#utility.yul\":53009:53043   */\n      0x652c6e297b3130303d3d3d652e776964746826263130303d3d3d652e68656967\n        /* \"#utility.yul\":53001:53006   */\n      0x37e0\n        /* \"#utility.yul\":52993:52999   */\n      dup3\n        /* \"#utility.yul\":52989:53007   */\n      add\n        /* \"#utility.yul\":52982:53044   */\n      mstore\n        /* \"#utility.yul\":53097:53131   */\n      0x68743f286e2e7374796c652e77696474683d273130307677272c6e2e7374796c\n        /* \"#utility.yul\":53089:53094   */\n      0x3800\n        /* \"#utility.yul\":53081:53087   */\n      dup3\n        /* \"#utility.yul\":53077:53095   */\n      add\n        /* \"#utility.yul\":53070:53132   */\n      mstore\n        /* \"#utility.yul\":53185:53219   */\n      0x652e6865696768743d27313030766827293a652e77696474682f652e68656967\n        /* \"#utility.yul\":53177:53182   */\n      0x3820\n        /* \"#utility.yul\":53169:53175   */\n      dup3\n        /* \"#utility.yul\":53165:53183   */\n      add\n        /* \"#utility.yul\":53158:53220   */\n      mstore\n        /* \"#utility.yul\":53273:53307   */\n      0x68743e313f286e2e7374796c652e77696474683d273130307677272c6e2e7374\n        /* \"#utility.yul\":53265:53270   */\n      0x3840\n        /* \"#utility.yul\":53257:53263   */\n      dup3\n        /* \"#utility.yul\":53253:53271   */\n      add\n        /* \"#utility.yul\":53246:53308   */\n      mstore\n        /* \"#utility.yul\":53365:53399   */\n      0x796c652e6865696768743d6063616c63283130307677202a2028247b652e6865\n        /* \"#utility.yul\":53357:53362   */\n      0x3860\n        /* \"#utility.yul\":53349:53355   */\n      dup3\n        /* \"#utility.yul\":53345:53363   */\n      add\n        /* \"#utility.yul\":53338:53400   */\n      mstore\n        /* \"#utility.yul\":53457:53491   */\n      0x696768747d202f20247b652e77696474687d292960293a286e2e7374796c652e\n        /* \"#utility.yul\":53449:53454   */\n      0x3880\n        /* \"#utility.yul\":53441:53447   */\n      dup3\n        /* \"#utility.yul\":53437:53455   */\n      add\n        /* \"#utility.yul\":53430:53492   */\n      mstore\n        /* \"#utility.yul\":53549:53583   */\n      0x6865696768743d273130307668272c6e2e7374796c652e77696474683d606361\n        /* \"#utility.yul\":53541:53546   */\n      0x38a0\n        /* \"#utility.yul\":53533:53539   */\n      dup3\n        /* \"#utility.yul\":53529:53547   */\n      add\n        /* \"#utility.yul\":53522:53584   */\n      mstore\n        /* \"#utility.yul\":53641:53675   */\n      0x6c63283130307668202a2028247b652e77696474687d202f20247b652e686569\n        /* \"#utility.yul\":53633:53638   */\n      0x38c0\n        /* \"#utility.yul\":53625:53631   */\n      dup3\n        /* \"#utility.yul\":53621:53639   */\n      add\n        /* \"#utility.yul\":53614:53676   */\n      mstore\n        /* \"#utility.yul\":53725:53759   */\n      0x6768747d292960297d66756e6374696f6e2066696e644e616d654279436f6c6f\n        /* \"#utility.yul\":53717:53722   */\n      0x38e0\n        /* \"#utility.yul\":53709:53715   */\n      dup3\n        /* \"#utility.yul\":53705:53723   */\n      add\n        /* \"#utility.yul\":53698:53760   */\n      mstore\n        /* \"#utility.yul\":53809:53843   */\n      0x7228652c6e297b666f72286c657420743d303b743c6e2e6c656e6774683b742b\n        /* \"#utility.yul\":53801:53806   */\n      0x3900\n        /* \"#utility.yul\":53793:53799   */\n      dup3\n        /* \"#utility.yul\":53789:53807   */\n      add\n        /* \"#utility.yul\":53782:53844   */\n      mstore\n        /* \"#utility.yul\":53897:53931   */\n      0x2b296966286e5b745d2e636f6c6f723d3d3d652972657475726e206e5b745d2e\n        /* \"#utility.yul\":53889:53894   */\n      0x3920\n        /* \"#utility.yul\":53881:53887   */\n      dup3\n        /* \"#utility.yul\":53877:53895   */\n      add\n        /* \"#utility.yul\":53870:53932   */\n      mstore\n        /* \"#utility.yul\":53985:54019   */\n      0x6e616d657d66756e6374696f6e20736574526174696f28652c6e297b646f5261\n        /* \"#utility.yul\":53977:53982   */\n      0x3940\n        /* \"#utility.yul\":53969:53975   */\n      dup3\n        /* \"#utility.yul\":53965:53983   */\n      add\n        /* \"#utility.yul\":53958:54020   */\n      mstore\n        /* \"#utility.yul\":54073:54107   */\n      0x74696f28655b6e5d2c646f63756d656e742e676574456c656d656e7442794964\n        /* \"#utility.yul\":54065:54070   */\n      0x3960\n        /* \"#utility.yul\":54057:54063   */\n      dup3\n        /* \"#utility.yul\":54053:54071   */\n      add\n        /* \"#utility.yul\":54046:54108   */\n      mstore\n        /* \"#utility.yul\":54157:54191   */\n      0x28276d795376672729297d6c65742069734c6f616465643d21313b66756e6374\n        /* \"#utility.yul\":54149:54154   */\n      0x3980\n        /* \"#utility.yul\":54141:54147   */\n      dup3\n        /* \"#utility.yul\":54137:54155   */\n      add\n        /* \"#utility.yul\":54130:54192   */\n      mstore\n        /* \"#utility.yul\":54241:54275   */\n      0x696f6e20697353616661726928297b72657475726e27756e646566696e656427\n        /* \"#utility.yul\":54233:54238   */\n      0x39a0\n        /* \"#utility.yul\":54225:54231   */\n      dup3\n        /* \"#utility.yul\":54221:54239   */\n      add\n        /* \"#utility.yul\":54214:54276   */\n      mstore\n        /* \"#utility.yul\":54329:54363   */\n      0x213d747970656f66206e6176696761746f7226266e756c6c213d6e6176696761\n        /* \"#utility.yul\":54321:54326   */\n      0x39c0\n        /* \"#utility.yul\":54313:54319   */\n      dup3\n        /* \"#utility.yul\":54309:54327   */\n      add\n        /* \"#utility.yul\":54302:54364   */\n      mstore\n        /* \"#utility.yul\":54417:54451   */\n      0x746f7226262f5e28283f216368726f6d657c616e64726f6964292e292a736166\n        /* \"#utility.yul\":54409:54414   */\n      0x39e0\n        /* \"#utility.yul\":54401:54407   */\n      dup3\n        /* \"#utility.yul\":54397:54415   */\n      add\n        /* \"#utility.yul\":54390:54452   */\n      mstore\n        /* \"#utility.yul\":54505:54539   */\n      0x6172692f692e74657374286e6176696761746f723f2e757365724167656e7429\n        /* \"#utility.yul\":54497:54502   */\n      0x3a00\n        /* \"#utility.yul\":54489:54495   */\n      dup3\n        /* \"#utility.yul\":54485:54503   */\n      add\n        /* \"#utility.yul\":54478:54540   */\n      mstore\n        /* \"#utility.yul\":54593:54627   */\n      0x7d66756e6374696f6e2072656d6f7665416c6c4c6f616465727328297b646f63\n        /* \"#utility.yul\":54585:54590   */\n      0x3a20\n        /* \"#utility.yul\":54577:54583   */\n      dup3\n        /* \"#utility.yul\":54573:54591   */\n      add\n        /* \"#utility.yul\":54566:54628   */\n      mstore\n        /* \"#utility.yul\":54681:54715   */\n      0x756d656e742e717565727953656c6563746f72416c6c28272e6c6f616465722d\n        /* \"#utility.yul\":54673:54678   */\n      0x3a40\n        /* \"#utility.yul\":54665:54671   */\n      dup3\n        /* \"#utility.yul\":54661:54679   */\n      add\n        /* \"#utility.yul\":54654:54716   */\n      mstore\n        /* \"#utility.yul\":54773:54807   */\n      0x636f6e7461696e657227292e666f72456163682828653d3e7b652e706172656e\n        /* \"#utility.yul\":54765:54770   */\n      0x3a60\n        /* \"#utility.yul\":54757:54763   */\n      dup3\n        /* \"#utility.yul\":54753:54771   */\n      add\n        /* \"#utility.yul\":54746:54808   */\n      mstore\n        /* \"#utility.yul\":54857:54891   */\n      0x744e6f64652e72656d6f76654368696c642865297d29297d66756e6374696f6e\n        /* \"#utility.yul\":54849:54854   */\n      0x3a80\n        /* \"#utility.yul\":54841:54847   */\n      dup3\n        /* \"#utility.yul\":54837:54855   */\n      add\n        /* \"#utility.yul\":54830:54892   */\n      mstore\n        /* \"#utility.yul\":54941:54975   */\n      0x206164644c6f616465722865297b6c6574206e3d646f63756d656e742e637265\n        /* \"#utility.yul\":54933:54938   */\n      0x3aa0\n        /* \"#utility.yul\":54925:54931   */\n      dup3\n        /* \"#utility.yul\":54921:54939   */\n      add\n        /* \"#utility.yul\":54914:54976   */\n      mstore\n        /* \"#utility.yul\":55029:55063   */\n      0x617465456c656d656e74282764697627293b6e2e636c6173734e616d653d276c\n        /* \"#utility.yul\":55021:55026   */\n      0x3ac0\n        /* \"#utility.yul\":55013:55019   */\n      dup3\n        /* \"#utility.yul\":55009:55027   */\n      add\n        /* \"#utility.yul\":55002:55064   */\n      mstore\n        /* \"#utility.yul\":55117:55151   */\n      0x6f616465722d636f6e7461696e6572272c6e2e7374796c652e706f736974696f\n        /* \"#utility.yul\":55109:55114   */\n      0x3ae0\n        /* \"#utility.yul\":55101:55107   */\n      dup3\n        /* \"#utility.yul\":55097:55115   */\n      add\n        /* \"#utility.yul\":55090:55152   */\n      mstore\n        /* \"#utility.yul\":55205:55239   */\n      0x6e3d276162736f6c757465272c6e2e7374796c652e6c6566743d27353025272c\n        /* \"#utility.yul\":55197:55202   */\n      0x3b00\n        /* \"#utility.yul\":55189:55195   */\n      dup3\n        /* \"#utility.yul\":55185:55203   */\n      add\n        /* \"#utility.yul\":55178:55240   */\n      mstore\n        /* \"#utility.yul\":55293:55327   */\n      0x6e2e7374796c652e746f703d27353025272c6e2e7374796c652e7472616e7366\n        /* \"#utility.yul\":55285:55290   */\n      0x3b20\n        /* \"#utility.yul\":55277:55283   */\n      dup3\n        /* \"#utility.yul\":55273:55291   */\n      add\n        /* \"#utility.yul\":55266:55328   */\n      mstore\n        /* \"#utility.yul\":55381:55415   */\n      0x6f726d3d277472616e736c617465282d3530252c202d35302529273b636f6e73\n        /* \"#utility.yul\":55373:55378   */\n      0x3b40\n        /* \"#utility.yul\":55365:55371   */\n      dup3\n        /* \"#utility.yul\":55361:55379   */\n      add\n        /* \"#utility.yul\":55354:55416   */\n      mstore\n        /* \"#utility.yul\":55469:55503   */\n      0x7420743d646f63756d656e742e637265617465456c656d656e74282764697627\n        /* \"#utility.yul\":55461:55466   */\n      0x3b60\n        /* \"#utility.yul\":55453:55459   */\n      dup3\n        /* \"#utility.yul\":55449:55467   */\n      add\n        /* \"#utility.yul\":55442:55504   */\n      mstore\n        /* \"#utility.yul\":55561:55595   */\n      0x293b6c6574206f3b696628742e696e6e6572546578743d652b272e2e2e272c74\n        /* \"#utility.yul\":55553:55558   */\n      0x3b80\n        /* \"#utility.yul\":55545:55551   */\n      dup3\n        /* \"#utility.yul\":55541:55559   */\n      add\n        /* \"#utility.yul\":55534:55596   */\n      mstore\n        /* \"#utility.yul\":55653:55687   */\n      0x2e7374796c652e636f6c6f723d2723464646464646272c742e7374796c652e62\n        /* \"#utility.yul\":55645:55650   */\n      0x3ba0\n        /* \"#utility.yul\":55637:55643   */\n      dup3\n        /* \"#utility.yul\":55633:55651   */\n      add\n        /* \"#utility.yul\":55626:55688   */\n      mstore\n        /* \"#utility.yul\":55745:55779   */\n      0x6f726465723d2723303030303030272c742e7374796c652e666f6e7446616d69\n        /* \"#utility.yul\":55737:55742   */\n      0x3bc0\n        /* \"#utility.yul\":55729:55735   */\n      dup3\n        /* \"#utility.yul\":55725:55743   */\n      add\n        /* \"#utility.yul\":55718:55780   */\n      mstore\n        /* \"#utility.yul\":55837:55871   */\n      0x6c793d2748656c7665746963612c20417269616c2c2073616e732d7365726966\n        /* \"#utility.yul\":55829:55834   */\n      0x3be0\n        /* \"#utility.yul\":55821:55827   */\n      dup3\n        /* \"#utility.yul\":55817:55835   */\n      add\n        /* \"#utility.yul\":55810:55872   */\n      mstore\n        /* \"#utility.yul\":55929:55963   */\n      0x272c742e7374796c652e666f6e7453697a653d2731347078272c742e7374796c\n        /* \"#utility.yul\":55921:55926   */\n      0x3c00\n        /* \"#utility.yul\":55913:55919   */\n      dup3\n        /* \"#utility.yul\":55909:55927   */\n      add\n        /* \"#utility.yul\":55902:55964   */\n      mstore\n        /* \"#utility.yul\":56021:56055   */\n      0x652e77696474683d276d61782d636f6e74656e74272c742e7374796c652e6469\n        /* \"#utility.yul\":56013:56018   */\n      0x3c20\n        /* \"#utility.yul\":56005:56011   */\n      dup3\n        /* \"#utility.yul\":56001:56019   */\n      add\n        /* \"#utility.yul\":55994:56056   */\n      mstore\n        /* \"#utility.yul\":56113:56147   */\n      0x73706c61793d27696e6c696e652d626c6f636b272c742e636c6173734e616d65\n        /* \"#utility.yul\":56105:56110   */\n      0x3c40\n        /* \"#utility.yul\":56097:56103   */\n      dup3\n        /* \"#utility.yul\":56093:56111   */\n      add\n        /* \"#utility.yul\":56086:56148   */\n      mstore\n        /* \"#utility.yul\":56205:56239   */\n      0x3d276c6f6164696e672d74657874272c742e69643d276c6f616465722d746578\n        /* \"#utility.yul\":56197:56202   */\n      0x3c60\n        /* \"#utility.yul\":56189:56195   */\n      dup3\n        /* \"#utility.yul\":56185:56203   */\n      add\n        /* \"#utility.yul\":56178:56240   */\n      mstore\n        /* \"#utility.yul\":56297:56331   */\n      0x74272c6e2e617070656e644368696c642874292c646f63756d656e742e626f64\n        /* \"#utility.yul\":56289:56294   */\n      0x3c80\n        /* \"#utility.yul\":56281:56287   */\n      dup3\n        /* \"#utility.yul\":56277:56295   */\n      add\n        /* \"#utility.yul\":56270:56332   */\n      mstore\n        /* \"#utility.yul\":56389:56423   */\n      0x792e617070656e644368696c64286e292c646f63756d656e742e7374796c6553\n        /* \"#utility.yul\":56381:56386   */\n      0x3ca0\n        /* \"#utility.yul\":56373:56379   */\n      dup3\n        /* \"#utility.yul\":56369:56387   */\n      add\n        /* \"#utility.yul\":56362:56424   */\n      mstore\n        /* \"#utility.yul\":56477:56511   */\n      0x68656574732e6c656e6774683e30296f3d646f63756d656e742e7374796c6553\n        /* \"#utility.yul\":56469:56474   */\n      0x3cc0\n        /* \"#utility.yul\":56461:56467   */\n      dup3\n        /* \"#utility.yul\":56457:56475   */\n      add\n        /* \"#utility.yul\":56450:56512   */\n      mstore\n        /* \"#utility.yul\":56565:56599   */\n      0x68656574735b305d3b656c73657b636f6e737420653d646f63756d656e742e63\n        /* \"#utility.yul\":56557:56562   */\n      0x3ce0\n        /* \"#utility.yul\":56549:56555   */\n      dup3\n        /* \"#utility.yul\":56545:56563   */\n      add\n        /* \"#utility.yul\":56538:56600   */\n      mstore\n        /* \"#utility.yul\":56657:56691   */\n      0x7265617465456c656d656e7428277374796c6527293b646f63756d656e742e68\n        /* \"#utility.yul\":56649:56654   */\n      0x3d00\n        /* \"#utility.yul\":56641:56647   */\n      dup3\n        /* \"#utility.yul\":56637:56655   */\n      add\n        /* \"#utility.yul\":56630:56692   */\n      mstore\n        /* \"#utility.yul\":56745:56779   */\n      0x6561642e617070656e644368696c642865292c6f3d652e73686565747d6f2e69\n        /* \"#utility.yul\":56737:56742   */\n      0x3d20\n        /* \"#utility.yul\":56729:56735   */\n      dup3\n        /* \"#utility.yul\":56725:56743   */\n      add\n        /* \"#utility.yul\":56718:56780   */\n      mstore\n        /* \"#utility.yul\":56833:56899   */\n      0x6e7365727452756c6528270a20202020406b65796672616d6573207370696e20\n        /* \"#utility.yul\":56825:56830   */\n      0x3d40\n        /* \"#utility.yul\":56817:56823   */\n      dup3\n        /* \"#utility.yul\":56813:56831   */\n      add\n        /* \"#utility.yul\":56806:56900   */\n      mstore\n        /* \"#utility.yul\":56953:57019   */\n      0x7b0a20202020202020203025207b207472616e73666f726d3a20726f74617465\n        /* \"#utility.yul\":56945:56950   */\n      0x3d60\n        /* \"#utility.yul\":56937:56943   */\n      dup3\n        /* \"#utility.yul\":56933:56951   */\n      add\n        /* \"#utility.yul\":56926:57020   */\n      mstore\n        /* \"#utility.yul\":57073:57139   */\n      0x2830646567293b207d0a202020202020202031303025207b207472616e73666f\n        /* \"#utility.yul\":57065:57070   */\n      0x3d80\n        /* \"#utility.yul\":57057:57063   */\n      dup3\n        /* \"#utility.yul\":57053:57071   */\n      add\n        /* \"#utility.yul\":57046:57140   */\n      mstore\n        /* \"#utility.yul\":57193:57259   */\n      0x726d3a20726f7461746528333630646567293b207d0a202020207d0a20202020\n        /* \"#utility.yul\":57185:57190   */\n      0x3da0\n        /* \"#utility.yul\":57177:57183   */\n      dup3\n        /* \"#utility.yul\":57173:57191   */\n      add\n        /* \"#utility.yul\":57166:57260   */\n      mstore\n        /* \"#utility.yul\":57305:57339   */\n      0x272c6f2e63737352756c65732e6c656e677468297d66756e6374696f6e207570\n        /* \"#utility.yul\":57297:57302   */\n      0x3dc0\n        /* \"#utility.yul\":57289:57295   */\n      dup3\n        /* \"#utility.yul\":57285:57303   */\n      add\n        /* \"#utility.yul\":57278:57340   */\n      mstore\n        /* \"#utility.yul\":57385:57419   */\n      0x646174654c6f616465722865297b646f63756d656e742e717565727953656c65\n        /* \"#utility.yul\":57377:57382   */\n      0x3de0\n        /* \"#utility.yul\":57369:57375   */\n      dup3\n        /* \"#utility.yul\":57365:57383   */\n      add\n        /* \"#utility.yul\":57358:57420   */\n      mstore\n        /* \"#utility.yul\":57469:57503   */\n      0x63746f72416c6c28272e6c6f6164696e672d7465787427292e666f7245616368\n        /* \"#utility.yul\":57461:57466   */\n      0x3e00\n        /* \"#utility.yul\":57453:57459   */\n      dup3\n        /* \"#utility.yul\":57449:57467   */\n      add\n        /* \"#utility.yul\":57442:57504   */\n      mstore\n        /* \"#utility.yul\":57549:57583   */\n      0x28286e3d3e7b6e2e696e6e6572546578743d652b272e2e2e277d29297d66756e\n        /* \"#utility.yul\":57541:57546   */\n      0x3e20\n        /* \"#utility.yul\":57533:57539   */\n      dup3\n        /* \"#utility.yul\":57529:57547   */\n      add\n        /* \"#utility.yul\":57522:57584   */\n      mstore\n        /* \"#utility.yul\":57629:57663   */\n      0x6374696f6e20616464506f74656e7469616c506f70757028297b76617220653d\n        /* \"#utility.yul\":57621:57626   */\n      0x3e40\n        /* \"#utility.yul\":57613:57619   */\n      dup3\n        /* \"#utility.yul\":57609:57627   */\n      add\n        /* \"#utility.yul\":57602:57664   */\n      mstore\n        /* \"#utility.yul\":57713:57747   */\n      0x646f63756d656e742e637265617465456c656d656e74282764697627293b652e\n        /* \"#utility.yul\":57705:57710   */\n      0x3e60\n        /* \"#utility.yul\":57697:57703   */\n      dup3\n        /* \"#utility.yul\":57693:57711   */\n      add\n        /* \"#utility.yul\":57686:57748   */\n      mstore\n        /* \"#utility.yul\":57797:57831   */\n      0x69643d277361666172692d706f707570272c652e7374796c653d27646973706c\n        /* \"#utility.yul\":57789:57794   */\n      0x3e80\n        /* \"#utility.yul\":57781:57787   */\n      dup3\n        /* \"#utility.yul\":57777:57795   */\n      add\n        /* \"#utility.yul\":57770:57832   */\n      mstore\n        /* \"#utility.yul\":57881:57915   */\n      0x61793a206e6f6e653b20706f736974696f6e3a2066697865643b20746f703a20\n        /* \"#utility.yul\":57873:57878   */\n      0x3ea0\n        /* \"#utility.yul\":57865:57871   */\n      dup3\n        /* \"#utility.yul\":57861:57879   */\n      add\n        /* \"#utility.yul\":57854:57916   */\n      mstore\n        /* \"#utility.yul\":57965:57999   */\n      0x3530253b206c6566743a203530253b207472616e73666f726d3a207472616e73\n        /* \"#utility.yul\":57957:57962   */\n      0x3ec0\n        /* \"#utility.yul\":57949:57955   */\n      dup3\n        /* \"#utility.yul\":57945:57963   */\n      add\n        /* \"#utility.yul\":57938:58000   */\n      mstore\n        /* \"#utility.yul\":58049:58083   */\n      0x6c617465282d3530252c202d353025293b206261636b67726f756e642d636f6c\n        /* \"#utility.yul\":58041:58046   */\n      0x3ee0\n        /* \"#utility.yul\":58033:58039   */\n      dup3\n        /* \"#utility.yul\":58029:58047   */\n      add\n        /* \"#utility.yul\":58022:58084   */\n      mstore\n        /* \"#utility.yul\":58133:58167   */\n      0x6f723a2077686974653b2070616464696e673a20323070783b20626f72646572\n        /* \"#utility.yul\":58125:58130   */\n      0x3f00\n        /* \"#utility.yul\":58117:58123   */\n      dup3\n        /* \"#utility.yul\":58113:58131   */\n      add\n        /* \"#utility.yul\":58106:58168   */\n      mstore\n        /* \"#utility.yul\":58217:58251   */\n      0x3a2031707820736f6c696420236363633b207a2d696e6465783a20313030303b\n        /* \"#utility.yul\":58209:58214   */\n      0x3f20\n        /* \"#utility.yul\":58201:58207   */\n      dup3\n        /* \"#utility.yul\":58197:58215   */\n      add\n        /* \"#utility.yul\":58190:58252   */\n      mstore\n        /* \"#utility.yul\":58301:58335   */\n      0x272c652e696e6e657248544d4c3d273c703e5765206861766520646574656374\n        /* \"#utility.yul\":58293:58298   */\n      0x3f40\n        /* \"#utility.yul\":58285:58291   */\n      dup3\n        /* \"#utility.yul\":58281:58299   */\n      add\n        /* \"#utility.yul\":58274:58336   */\n      mstore\n        /* \"#utility.yul\":58385:58419   */\n      0x656420796f7520617265207573696e6720746865207765622062726f73657220\n        /* \"#utility.yul\":58377:58382   */\n      0x3f60\n        /* \"#utility.yul\":58369:58375   */\n      dup3\n        /* \"#utility.yul\":58365:58383   */\n      add\n        /* \"#utility.yul\":58358:58420   */\n      mstore\n        /* \"#utility.yul\":58469:58503   */\n      0x5361666172692e205361666172692063757272656e746c792075736573203c61\n        /* \"#utility.yul\":58461:58466   */\n      0x3f80\n        /* \"#utility.yul\":58453:58459   */\n      dup3\n        /* \"#utility.yul\":58449:58467   */\n      add\n        /* \"#utility.yul\":58442:58504   */\n      mstore\n        /* \"#utility.yul\":58553:58587   */\n      0x207461726765743d275f626c616e6b2720687265663d2768747470733a2f2f65\n        /* \"#utility.yul\":58545:58550   */\n      0x3fa0\n        /* \"#utility.yul\":58537:58543   */\n      dup3\n        /* \"#utility.yul\":58533:58551   */\n      add\n        /* \"#utility.yul\":58526:58588   */\n      mstore\n        /* \"#utility.yul\":58641:58675   */\n      0x6e2e77696b6970656469612e6f72672f77696b692f436f6d70617269736f6e5f\n        /* \"#utility.yul\":58633:58638   */\n      0x3fc0\n        /* \"#utility.yul\":58625:58631   */\n      dup3\n        /* \"#utility.yul\":58621:58639   */\n      add\n        /* \"#utility.yul\":58614:58676   */\n      mstore\n        /* \"#utility.yul\":58729:58763   */\n      0x6f665f62726f777365725f656e67696e6573273e5765624b69743c2f613e2c20\n        /* \"#utility.yul\":58721:58726   */\n      0x3fe0\n        /* \"#utility.yul\":58713:58719   */\n      dup3\n        /* \"#utility.yul\":58709:58727   */\n      add\n        /* \"#utility.yul\":58702:58764   */\n      mstore\n        /* \"#utility.yul\":58817:58851   */\n      0x77686963682063616e2068617665206c61726765206d656d6f7279206c65616b\n        /* \"#utility.yul\":58809:58814   */\n      0x4000\n        /* \"#utility.yul\":58801:58807   */\n      dup3\n        /* \"#utility.yul\":58797:58815   */\n      add\n        /* \"#utility.yul\":58790:58852   */\n      mstore\n        /* \"#utility.yul\":58905:58939   */\n      0x73207768656e206c6f6164696e67205356477320776974682066696c74657273\n        /* \"#utility.yul\":58897:58902   */\n      0x4020\n        /* \"#utility.yul\":58889:58895   */\n      dup3\n        /* \"#utility.yul\":58885:58903   */\n      add\n        /* \"#utility.yul\":58878:58940   */\n      mstore\n        /* \"#utility.yul\":58993:59027   */\n      0x2c206d616b696e67207468652073797374656d20756e726573706f6e73697665\n        /* \"#utility.yul\":58985:58990   */\n      0x4040\n        /* \"#utility.yul\":58977:58983   */\n      dup3\n        /* \"#utility.yul\":58973:58991   */\n      add\n        /* \"#utility.yul\":58966:59028   */\n      mstore\n        /* \"#utility.yul\":59081:59115   */\n      0x2e2054686973203c61207461726765743d275f626c616e6b2720687265663d27\n        /* \"#utility.yul\":59073:59078   */\n      0x4060\n        /* \"#utility.yul\":59065:59071   */\n      dup3\n        /* \"#utility.yul\":59061:59079   */\n      add\n        /* \"#utility.yul\":59054:59116   */\n      mstore\n        /* \"#utility.yul\":59169:59203   */\n      0x68747470733a2f2f627567732e7765626b69742e6f72672f73686f775f627567\n        /* \"#utility.yul\":59161:59166   */\n      0x4080\n        /* \"#utility.yul\":59153:59159   */\n      dup3\n        /* \"#utility.yul\":59149:59167   */\n      add\n        /* \"#utility.yul\":59142:59204   */\n      mstore\n        /* \"#utility.yul\":59261:59295   */\n      0x2e6367693f69643d323138343232273e69737375653c2f613e20686173206265\n        /* \"#utility.yul\":59253:59258   */\n      0x40a0\n        /* \"#utility.yul\":59245:59251   */\n      dup3\n        /* \"#utility.yul\":59241:59259   */\n      add\n        /* \"#utility.yul\":59234:59296   */\n      mstore\n        /* \"#utility.yul\":59353:59387   */\n      0x656e207265706f7274656420746f205765624b69742e2049207265636f6d6d65\n        /* \"#utility.yul\":59345:59350   */\n      0x40c0\n        /* \"#utility.yul\":59337:59343   */\n      dup3\n        /* \"#utility.yul\":59333:59351   */\n      add\n        /* \"#utility.yul\":59326:59388   */\n      mstore\n        /* \"#utility.yul\":59445:59479   */\n      0x6e64203c61207461726765743d275f626c616e6b2720687265663d2768747470\n        /* \"#utility.yul\":59437:59442   */\n      0x40e0\n        /* \"#utility.yul\":59429:59435   */\n      dup3\n        /* \"#utility.yul\":59425:59443   */\n      add\n        /* \"#utility.yul\":59418:59480   */\n      mstore\n        /* \"#utility.yul\":59537:59571   */\n      0x733a2f2f656e2e77696b6970656469612e6f72672f77696b692f436f6d706172\n        /* \"#utility.yul\":59529:59534   */\n      0x4100\n        /* \"#utility.yul\":59521:59527   */\n      dup3\n        /* \"#utility.yul\":59517:59535   */\n      add\n        /* \"#utility.yul\":59510:59572   */\n      mstore\n        /* \"#utility.yul\":59633:59667   */\n      0x69736f6e5f6f665f62726f777365725f656e67696e6573273e426c696e6b3c2f\n        /* \"#utility.yul\":59625:59630   */\n      0x4120\n        /* \"#utility.yul\":59617:59623   */\n      dup3\n        /* \"#utility.yul\":59613:59631   */\n      add\n        /* \"#utility.yul\":59606:59668   */\n      mstore\n        /* \"#utility.yul\":59729:59763   */\n      0x613e2062617365642062726f777365727320286173206f66203230323429206c\n        /* \"#utility.yul\":59721:59726   */\n      0x4140\n        /* \"#utility.yul\":59713:59719   */\n      dup3\n        /* \"#utility.yul\":59709:59727   */\n      add\n        /* \"#utility.yul\":59702:59764   */\n      mstore\n        /* \"#utility.yul\":59825:59859   */\n      0x696b6520476f6f676c65204368726f6d6520616e64204d6963726f736f667420\n        /* \"#utility.yul\":59817:59822   */\n      0x4160\n        /* \"#utility.yul\":59809:59815   */\n      dup3\n        /* \"#utility.yul\":59805:59823   */\n      add\n        /* \"#utility.yul\":59798:59860   */\n      mstore\n        /* \"#utility.yul\":59921:59955   */\n      0x456467652e20496620796f7520776f756c64206c696b6520746f20636f6e7469\n        /* \"#utility.yul\":59913:59918   */\n      0x4180\n        /* \"#utility.yul\":59905:59911   */\n      dup3\n        /* \"#utility.yul\":59901:59919   */\n      add\n        /* \"#utility.yul\":59894:59956   */\n      mstore\n        /* \"#utility.yul\":60017:60051   */\n      0x6e75652c206b6e6f77696e67207468617420536166617269206d617920686176\n        /* \"#utility.yul\":60009:60014   */\n      0x41a0\n        /* \"#utility.yul\":60001:60007   */\n      dup3\n        /* \"#utility.yul\":59997:60015   */\n      add\n        /* \"#utility.yul\":59990:60052   */\n      mstore\n        /* \"#utility.yul\":60113:60147   */\n      0x65206973737565732c206f722062656c696576696e6720746861742053616661\n        /* \"#utility.yul\":60105:60110   */\n      0x41c0\n        /* \"#utility.yul\":60097:60103   */\n      dup3\n        /* \"#utility.yul\":60093:60111   */\n      add\n        /* \"#utility.yul\":60086:60148   */\n      mstore\n        /* \"#utility.yul\":60209:60243   */\n      0x7269206e6f7720636f72726563746c7920737570706f72747320535647206669\n        /* \"#utility.yul\":60201:60206   */\n      0x41e0\n        /* \"#utility.yul\":60193:60199   */\n      dup3\n        /* \"#utility.yul\":60189:60207   */\n      add\n        /* \"#utility.yul\":60182:60244   */\n      mstore\n        /* \"#utility.yul\":60305:60339   */\n      0x6c65732c20796f75206d61792e3c2f703e3c627574746f6e206f6e636c69636b\n        /* \"#utility.yul\":60297:60302   */\n      0x4200\n        /* \"#utility.yul\":60289:60295   */\n      dup3\n        /* \"#utility.yul\":60285:60303   */\n      add\n        /* \"#utility.yul\":60278:60340   */\n      mstore\n        /* \"#utility.yul\":60401:60435   */\n      0x3d27636c6f7365506f7075702829273e4920756e6465727374616e6420616e64\n        /* \"#utility.yul\":60393:60398   */\n      0x4220\n        /* \"#utility.yul\":60385:60391   */\n      dup3\n        /* \"#utility.yul\":60381:60399   */\n      add\n        /* \"#utility.yul\":60374:60436   */\n      mstore\n        /* \"#utility.yul\":60497:60531   */\n      0x207769736820746f20636f6e74696e7565206174206d79206f776e207269736b\n        /* \"#utility.yul\":60489:60494   */\n      0x4240\n        /* \"#utility.yul\":60481:60487   */\n      dup3\n        /* \"#utility.yul\":60477:60495   */\n      add\n        /* \"#utility.yul\":60470:60532   */\n      mstore\n        /* \"#utility.yul\":60593:60627   */\n      0x2e3c2f627574746f6e3e272c646f63756d656e742e626f64792e617070656e64\n        /* \"#utility.yul\":60585:60590   */\n      0x4260\n        /* \"#utility.yul\":60577:60583   */\n      dup3\n        /* \"#utility.yul\":60573:60591   */\n      add\n        /* \"#utility.yul\":60566:60628   */\n      mstore\n        /* \"#utility.yul\":60689:60723   */\n      0x4368696c642865297d66756e6374696f6e20636c6f7365506f70757028297b76\n        /* \"#utility.yul\":60681:60686   */\n      0x4280\n        /* \"#utility.yul\":60673:60679   */\n      dup3\n        /* \"#utility.yul\":60669:60687   */\n      add\n        /* \"#utility.yul\":60662:60724   */\n      mstore\n        /* \"#utility.yul\":60785:60819   */\n      0x617220653d646f63756d656e742e676574456c656d656e744279496428277361\n        /* \"#utility.yul\":60777:60782   */\n      0x42a0\n        /* \"#utility.yul\":60769:60775   */\n      dup3\n        /* \"#utility.yul\":60765:60783   */\n      add\n        /* \"#utility.yul\":60758:60820   */\n      mstore\n        /* \"#utility.yul\":60881:60915   */\n      0x666172692d706f70757027292c6e3d646f63756d656e742e676574456c656d65\n        /* \"#utility.yul\":60873:60878   */\n      0x42c0\n        /* \"#utility.yul\":60865:60871   */\n      dup3\n        /* \"#utility.yul\":60861:60879   */\n      add\n        /* \"#utility.yul\":60854:60916   */\n      mstore\n        /* \"#utility.yul\":60977:61011   */\n      0x6e744279496428277361666172692d62616e6e657227293b6526262873686f75\n        /* \"#utility.yul\":60969:60974   */\n      0x42e0\n        /* \"#utility.yul\":60961:60967   */\n      dup3\n        /* \"#utility.yul\":60957:60975   */\n      add\n        /* \"#utility.yul\":60950:61012   */\n      mstore\n        /* \"#utility.yul\":61077:61111   */\n      0x6c644c6f616444726177696e673d21302c652e7374796c652e646973706c6179\n        /* \"#utility.yul\":61069:61074   */\n      0x4300\n        /* \"#utility.yul\":61061:61067   */\n      dup3\n        /* \"#utility.yul\":61057:61075   */\n      add\n        /* \"#utility.yul\":61050:61112   */\n      mstore\n        /* \"#utility.yul\":61169:61203   */\n      0x3d276e6f6e65272c6e2e7374796c652e646973706c61793d276e6f6e6527297d\n        /* \"#utility.yul\":61161:61166   */\n      0x4320\n        /* \"#utility.yul\":61153:61159   */\n      dup3\n        /* \"#utility.yul\":61149:61167   */\n      add\n        /* \"#utility.yul\":61142:61204   */\n      mstore\n        /* \"#utility.yul\":61261:61295   */\n      0x736574496e74657276616c282866756e6374696f6e28297b6966282169734c6f\n        /* \"#utility.yul\":61253:61258   */\n      0x4340\n        /* \"#utility.yul\":61245:61251   */\n      dup3\n        /* \"#utility.yul\":61241:61259   */\n      add\n        /* \"#utility.yul\":61234:61296   */\n      mstore\n        /* \"#utility.yul\":61369:61403   */\n      0x61646564297b69734c6f616465643d21302c72657175657374416e696d617469\n        /* \"#utility.yul\":61361:61366   */\n      0x4360\n        /* \"#utility.yul\":61353:61359   */\n      dup3\n        /* \"#utility.yul\":61349:61367   */\n      add\n        /* \"#utility.yul\":61342:61404   */\n      mstore\n        /* \"#utility.yul\":61477:61511   */\n      0x6f6e4672616d6528616464506f74656e7469616c506f707570292c7265717565\n        /* \"#utility.yul\":61469:61474   */\n      0x4380\n        /* \"#utility.yul\":61461:61467   */\n      dup3\n        /* \"#utility.yul\":61457:61475   */\n      add\n        /* \"#utility.yul\":61450:61512   */\n      mstore\n        /* \"#utility.yul\":61585:61619   */\n      0x7374416e696d6174696f6e4672616d65282866756e6374696f6e28297b696628\n        /* \"#utility.yul\":61577:61582   */\n      0x43a0\n        /* \"#utility.yul\":61569:61575   */\n      dup3\n        /* \"#utility.yul\":61565:61583   */\n      add\n        /* \"#utility.yul\":61558:61620   */\n      mstore\n        /* \"#utility.yul\":61709:61743   */\n      0x69735361666172692829297b636f6e737420653d646f63756d656e742e637265\n        /* \"#utility.yul\":61701:61706   */\n      0x43c0\n        /* \"#utility.yul\":61693:61699   */\n      dup3\n        /* \"#utility.yul\":61689:61707   */\n      add\n        /* \"#utility.yul\":61682:61744   */\n      mstore\n        /* \"#utility.yul\":61833:61867   */\n      0x617465456c656d656e74282764697627293b652e7374796c652e706f73697469\n        /* \"#utility.yul\":61825:61830   */\n      0x43e0\n        /* \"#utility.yul\":61817:61823   */\n      dup3\n        /* \"#utility.yul\":61813:61831   */\n      add\n        /* \"#utility.yul\":61806:61868   */\n      mstore\n        /* \"#utility.yul\":61957:61991   */\n      0x6f6e3d276669786564272c652e7374796c652e626f74746f6d3d2730272c652e\n        /* \"#utility.yul\":61949:61954   */\n      0x4400\n        /* \"#utility.yul\":61941:61947   */\n      dup3\n        /* \"#utility.yul\":61937:61955   */\n      add\n        /* \"#utility.yul\":61930:61992   */\n      mstore\n        /* \"#utility.yul\":62081:62115   */\n      0x7374796c652e6c6566743d2730272c652e7374796c652e77696474683d273130\n        /* \"#utility.yul\":62073:62078   */\n      0x4420\n        /* \"#utility.yul\":62065:62071   */\n      dup3\n        /* \"#utility.yul\":62061:62079   */\n      add\n        /* \"#utility.yul\":62054:62116   */\n      mstore\n        /* \"#utility.yul\":62205:62239   */\n      0x3025272c652e7374796c652e6261636b67726f756e64436f6c6f723d27726564\n        /* \"#utility.yul\":62197:62202   */\n      0x4440\n        /* \"#utility.yul\":62189:62195   */\n      dup3\n        /* \"#utility.yul\":62185:62203   */\n      add\n        /* \"#utility.yul\":62178:62240   */\n      mstore\n        /* \"#utility.yul\":62329:62363   */\n      0x272c652e7374796c652e636f6c6f723d277768697465272c652e7374796c652e\n        /* \"#utility.yul\":62321:62326   */\n      0x4460\n        /* \"#utility.yul\":62313:62319   */\n      dup3\n        /* \"#utility.yul\":62309:62327   */\n      add\n        /* \"#utility.yul\":62302:62364   */\n      mstore\n        /* \"#utility.yul\":62453:62487   */\n      0x74657874416c69676e3d2763656e746572272c652e7374796c652e7061646469\n        /* \"#utility.yul\":62445:62450   */\n      0x4480\n        /* \"#utility.yul\":62437:62443   */\n      dup3\n        /* \"#utility.yul\":62433:62451   */\n      add\n        /* \"#utility.yul\":62426:62488   */\n      mstore\n        /* \"#utility.yul\":62577:62611   */\n      0x6e673d2731307078272c652e7374796c652e7a496e6465783d2731303030272c\n        /* \"#utility.yul\":62569:62574   */\n      0x44a0\n        /* \"#utility.yul\":62561:62567   */\n      dup3\n        /* \"#utility.yul\":62557:62575   */\n      add\n        /* \"#utility.yul\":62550:62612   */\n      mstore\n        /* \"#utility.yul\":62701:62735   */\n      0x652e636c6173734e616d653d277361666172692d62616e6e6572272c646f6375\n        /* \"#utility.yul\":62693:62698   */\n      0x44c0\n        /* \"#utility.yul\":62685:62691   */\n      dup3\n        /* \"#utility.yul\":62681:62699   */\n      add\n        /* \"#utility.yul\":62674:62736   */\n      mstore\n        /* \"#utility.yul\":62825:62859   */\n      0x6d656e742e626f64792e617070656e644368696c642865292c646f63756d656e\n        /* \"#utility.yul\":62817:62822   */\n      0x44e0\n        /* \"#utility.yul\":62809:62815   */\n      dup3\n        /* \"#utility.yul\":62805:62823   */\n      add\n        /* \"#utility.yul\":62798:62860   */\n      mstore\n        /* \"#utility.yul\":62949:62983   */\n      0x742e676574456c656d656e744279496428277361666172692d706f7075702729\n        /* \"#utility.yul\":62941:62946   */\n      0x4500\n        /* \"#utility.yul\":62933:62939   */\n      dup3\n        /* \"#utility.yul\":62929:62947   */\n      add\n        /* \"#utility.yul\":62922:62984   */\n      mstore\n        /* \"#utility.yul\":63069:63103   */\n      0x2e7374796c652e646973706c61793d27626c6f636b277d656c73652073686f75\n        /* \"#utility.yul\":63061:63066   */\n      0x4520\n        /* \"#utility.yul\":63053:63059   */\n      dup3\n        /* \"#utility.yul\":63049:63067   */\n      add\n        /* \"#utility.yul\":63042:63104   */\n      mstore\n        /* \"#utility.yul\":63177:63211   */\n      0x6c644c6f616444726177696e673d21307d29293b6c657420653d736574496e74\n        /* \"#utility.yul\":63169:63174   */\n      0x4540\n        /* \"#utility.yul\":63161:63167   */\n      dup3\n        /* \"#utility.yul\":63157:63175   */\n      add\n        /* \"#utility.yul\":63150:63212   */\n      mstore\n        /* \"#utility.yul\":63285:63319   */\n      0x657276616c282866756e6374696f6e28297b73686f756c644c6f616444726177\n        /* \"#utility.yul\":63277:63282   */\n      0x4560\n        /* \"#utility.yul\":63269:63275   */\n      dup3\n        /* \"#utility.yul\":63265:63283   */\n      add\n        /* \"#utility.yul\":63258:63320   */\n      mstore\n        /* \"#utility.yul\":63405:63439   */\n      0x696e6726266173796e632066756e6374696f6e28297b636c656172496e746572\n        /* \"#utility.yul\":63397:63402   */\n      0x4580\n        /* \"#utility.yul\":63389:63395   */\n      dup3\n        /* \"#utility.yul\":63385:63403   */\n      add\n        /* \"#utility.yul\":63378:63440   */\n      mstore\n        /* \"#utility.yul\":63529:63563   */\n      0x76616c2865292c6177616974206e65772050726f6d6973652828653d3e736574\n        /* \"#utility.yul\":63521:63526   */\n      0x45a0\n        /* \"#utility.yul\":63513:63519   */\n      dup3\n        /* \"#utility.yul\":63509:63527   */\n      add\n        /* \"#utility.yul\":63502:63564   */\n      mstore\n        /* \"#utility.yul\":63649:63683   */\n      0x54696d656f757428652c3230302929292c6177616974206472617728297d2829\n        /* \"#utility.yul\":63641:63646   */\n      0x45c0\n        /* \"#utility.yul\":63633:63639   */\n      dup3\n        /* \"#utility.yul\":63629:63647   */\n      add\n        /* \"#utility.yul\":63622:63684   */\n      mstore\n        /* \"#utility.yul\":63741:63775   */\n      0x7d292c313030297d7d292c316533293b3c2f7363726970743e3c2f686561643e\n        /* \"#utility.yul\":63733:63738   */\n      0x45e0\n        /* \"#utility.yul\":63725:63731   */\n      dup3\n        /* \"#utility.yul\":63721:63739   */\n      add\n        /* \"#utility.yul\":63714:63776   */\n      mstore\n        /* \"#utility.yul\":8927:63803   */\n      pop\n      jump\t// out\n        /* \"#utility.yul\":63829:64317   */\n    tag_51:\n        /* \"#utility.yul\":63989:63992   */\n      0x00\n        /* \"#utility.yul\":64030:64118   */\n      tag_144\n        /* \"#utility.yul\":64112:64117   */\n      0x4600\n        /* \"#utility.yul\":64107:64110   */\n      dup4\n        /* \"#utility.yul\":64030:64118   */\n      tag_36\n      jump\t// in\n    tag_144:\n        /* \"#utility.yul\":64023:64118   */\n      swap2\n      pop\n        /* \"#utility.yul\":64147:64240   */\n      tag_145\n        /* \"#utility.yul\":64236:64239   */\n      dup3\n        /* \"#utility.yul\":64147:64240   */\n      tag_50\n      jump\t// in\n    tag_145:\n        /* \"#utility.yul\":64285:64290   */\n      0x4600\n        /* \"#utility.yul\":64280:64283   */\n      dup3\n        /* \"#utility.yul\":64276:64291   */\n      add\n        /* \"#utility.yul\":64269:64291   */\n      swap1\n      pop\n        /* \"#utility.yul\":63829:64317   */\n      swap2\n      swap1\n      pop\n      jump\t// out\n        /* \"#utility.yul\":64343:66651   */\n    tag_12:\n        /* \"#utility.yul\":65064:65067   */\n      0x00\n        /* \"#utility.yul\":65106:65254   */\n      tag_147\n        /* \"#utility.yul\":65250:65253   */\n      dup3\n        /* \"#utility.yul\":65106:65254   */\n      tag_38\n      jump\t// in\n    tag_147:\n        /* \"#utility.yul\":65099:65254   */\n      swap2\n      pop\n        /* \"#utility.yul\":65284:65359   */\n      tag_148\n        /* \"#utility.yul\":65355:65358   */\n      dup3\n        /* \"#utility.yul\":65346:65352   */\n      dup8\n        /* \"#utility.yul\":65284:65359   */\n      tag_40\n      jump\t// in\n    tag_148:\n        /* \"#utility.yul\":65404:65406   */\n      0x20\n        /* \"#utility.yul\":65399:65402   */\n      dup3\n        /* \"#utility.yul\":65395:65407   */\n      add\n        /* \"#utility.yul\":65388:65407   */\n      swap2\n      pop\n        /* \"#utility.yul\":65444:65592   */\n      tag_149\n        /* \"#utility.yul\":65588:65591   */\n      dup3\n        /* \"#utility.yul\":65444:65592   */\n      tag_42\n      jump\t// in\n    tag_149:\n        /* \"#utility.yul\":65437:65592   */\n      swap2\n      pop\n        /* \"#utility.yul\":65629:65724   */\n      tag_150\n        /* \"#utility.yul\":65720:65723   */\n      dup3\n        /* \"#utility.yul\":65711:65717   */\n      dup7\n        /* \"#utility.yul\":65629:65724   */\n      tag_43\n      jump\t// in\n    tag_150:\n        /* \"#utility.yul\":65622:65724   */\n      swap2\n      pop\n        /* \"#utility.yul\":65761:65909   */\n      tag_151\n        /* \"#utility.yul\":65905:65908   */\n      dup3\n        /* \"#utility.yul\":65761:65909   */\n      tag_45\n      jump\t// in\n    tag_151:\n        /* \"#utility.yul\":65754:65909   */\n      swap2\n      pop\n        /* \"#utility.yul\":65939:66014   */\n      tag_152\n        /* \"#utility.yul\":66010:66013   */\n      dup3\n        /* \"#utility.yul\":66001:66007   */\n      dup6\n        /* \"#utility.yul\":65939:66014   */\n      tag_47\n      jump\t// in\n    tag_152:\n        /* \"#utility.yul\":66059:66061   */\n      0x20\n        /* \"#utility.yul\":66054:66057   */\n      dup3\n        /* \"#utility.yul\":66050:66062   */\n      add\n        /* \"#utility.yul\":66043:66062   */\n      swap2\n      pop\n        /* \"#utility.yul\":66099:66247   */\n      tag_153\n        /* \"#utility.yul\":66243:66246   */\n      dup3\n        /* \"#utility.yul\":66099:66247   */\n      tag_49\n      jump\t// in\n    tag_153:\n        /* \"#utility.yul\":66092:66247   */\n      swap2\n      pop\n        /* \"#utility.yul\":66277:66352   */\n      tag_154\n        /* \"#utility.yul\":66348:66351   */\n      dup3\n        /* \"#utility.yul\":66339:66345   */\n      dup5\n        /* \"#utility.yul\":66277:66352   */\n      tag_40\n      jump\t// in\n    tag_154:\n        /* \"#utility.yul\":66397:66399   */\n      0x20\n        /* \"#utility.yul\":66392:66395   */\n      dup3\n        /* \"#utility.yul\":66388:66400   */\n      add\n        /* \"#utility.yul\":66381:66400   */\n      swap2\n      pop\n        /* \"#utility.yul\":66437:66585   */\n      tag_155\n        /* \"#utility.yul\":66581:66584   */\n      dup3\n        /* \"#utility.yul\":66437:66585   */\n      tag_51\n      jump\t// in\n    tag_155:\n        /* \"#utility.yul\":66430:66585   */\n      swap2\n      pop\n        /* \"#utility.yul\":66622:66625   */\n      dup2\n        /* \"#utility.yul\":66615:66625   */\n      swap1\n      pop\n        /* \"#utility.yul\":64343:66651   */\n      swap6\n      swap5\n      pop\n      pop\n      pop\n      pop\n      pop\n      jump\t// out\n\n    auxdata: 0xa26469706673582212206ca795ff32bdc0b9c181501a0aee576a0e4159809c05d170f37c4aa0238d012364736f6c63430008190033\n}\n",
				"bytecode": {
					"linkReferences": {},
					"object": "6080604052348015600e575f80fd5b50615b2e8061001c5f395ff3fe608060405234801561000f575f80fd5b5060043610610029575f3560e01c80635e9ff8491461002d575b5f80fd5b61004760048036038101906100429190610242565b61005d565b6040516100549190610322565b60405180910390f35b6060838284876040516020016100769493929190615a78565b6040516020818303038152906040529050949350505050565b5f604051905090565b5f80fd5b5f80fd5b5f819050919050565b6100b2816100a0565b81146100bc575f80fd5b50565b5f813590506100cd816100a9565b92915050565b5f819050919050565b6100e5816100d3565b81146100ef575f80fd5b50565b5f81359050610100816100dc565b92915050565b5f80fd5b5f80fd5b5f601f19601f8301169050919050565b7f4e487b71000000000000000000000000000000000000000000000000000000005f52604160045260245ffd5b6101548261010e565b810181811067ffffffffffffffff821117156101735761017261011e565b5b80604052505050565b5f61018561008f565b9050610191828261014b565b919050565b5f67ffffffffffffffff8211156101b0576101af61011e565b5b6101b98261010e565b9050602081019050919050565b828183375f83830152505050565b5f6101e66101e184610196565b61017c565b9050828152602081018484840111156102025761020161010a565b5b61020d8482856101c6565b509392505050565b5f82601f83011261022957610228610106565b5b81356102398482602086016101d4565b91505092915050565b5f805f806080858703121561025a57610259610098565b5b5f610267878288016100bf565b9450506020610278878288016100bf565b9350506040610289878288016100f2565b925050606085013567ffffffffffffffff8111156102aa576102a961009c565b5b6102b687828801610215565b91505092959194509250565b5f81519050919050565b5f82825260208201905092915050565b8281835e5f83830152505050565b5f6102f4826102c2565b6102fe81856102cc565b935061030e8185602086016102dc565b6103178161010e565b840191505092915050565b5f6020820190508181035f83015261033a81846102ea565b905092915050565b5f81905092915050565b7f3c73637269707420747970653d276170706c69636174696f6e2f6a61766173635f8201527f72697074273e6c657420636f6c6f723d636f6c6f72735b000000000000000000602082015250565b5f6103a6603783610342565b91506103b18261034c565b603782019050919050565b5f819050919050565b6103d66103d1826100a0565b6103bc565b82525050565b7f5d2c6d6f6f643d7061727365496e7428270000000000000000000000000000005f82015250565b5f610410601183610342565b915061041b826103dc565b601182019050919050565b5f610430826102c2565b61043a8185610342565b935061044a8185602086016102dc565b80840191505092915050565b7f27292c746f6b656e446174613d7b686173683a270000000000000000000000005f82015250565b5f61048a601483610342565b915061049582610456565b601482019050919050565b5f819050919050565b6104ba6104b5826100d3565b6104a0565b82525050565b7f272c746f6b656e49643a270000000000000000000000000000000000000000005f82015250565b5f6104f4600b83610342565b91506104ff826104c0565b600b82019050919050565b7f277d2c73686f756c644c6f616444726177696e673d21313b636f6e73742064725f8201527f61773d6173796e632066756e6374696f6e28297b72657175657374416e696d6160208201527f74696f6e4672616d65282866756e6374696f6e28297b6164644c6f616465722860408201527f2727297d29292c6177616974206e65772050726f6d6973652828653d3e73657460608201527f54696d656f757428652c3230302929292c72657175657374416e696d6174696f60808201527f6e4672616d65282866756e6374696f6e28297b7570646174654c6f616465722860a08201527f274c6f6164696e67207661726961626c657327297d29292c6177616974206e6560c08201527f772050726f6d6973652828653d3e73657454696d656f757428652c323030292960e08201527f293b636f6e737420653d6e657720636c6173737b636f6e7374727563746f72286101008201527f297b746869732e757365413d21313b6c657420653d66756e6374696f6e2865296101208201527f7b6c6574206e3d7061727365496e7428652e73756273747228302c38292c31366101408201527f292c743d7061727365496e7428652e73756273747228382c38292c3136292c6f6101608201527f3d7061727365496e7428652e7375627374722831362c38292c3136292c613d706101808201527f61727365496e7428652e7375627374722832342c38292c3136293b72657475726101a08201527f6e2066756e6374696f6e28297b6e7c3d302c747c3d302c6f7c3d302c617c3d306101c08201527f3b6c657420653d286e2b747c30292b617c303b72657475726e20613d612b317c6101e08201527f302c6e3d745e743e3e3e392c743d6f2b286f3c3c33297c302c6f3d6f3c3c32316102008201527f7c6f3e3e3e31312c6f3d6f2b657c302c28653e3e3e30292f34323934393637326102208201527f39367d7d3b746869732e70726e67413d6e6577206528746f6b656e446174612e6102408201527f686173682e73756273747228322c333229292c746869732e70726e67423d6e656102608201527f77206528746f6b656e446174612e686173682e7375627374722833342c3332296102808201527f293b666f72286c657420653d303b653c3165363b652b3d3229746869732e70726102a08201527f6e674128292c746869732e70726e674228297d72616e646f6d5f64656328297b6102c08201527f72657475726e20746869732e757365413d21746869732e757365412c746869736102e08201527f2e757365413f746869732e70726e674128293a746869732e70726e674228297d6103008201527f72616e646f6d5f6e756d28652c6e297b72657475726e20652b286e2d65292a746103208201527f6869732e72616e646f6d5f64656328297d72616e646f6d5f696e7428652c6e296103408201527f7b72657475726e204d6174682e666c6f6f7228746869732e72616e646f6d5f6e6103608201527f756d28652c6e2b3129297d72616e646f6d5f626f6f6c2865297b72657475726e6103808201527f20746869732e72616e646f6d5f64656328293c657d72616e646f6d5f63686f696103a08201527f63652865297b72657475726e20655b746869732e72616e646f6d5f696e7428306103c08201527f2c652e6c656e6774682d31295d7d7d2c6e3d5b7b77696474683a3130302c68656103e08201527f696768743a3130307d2c7b77696474683a332c6865696768743a347d2c7b77696104008201527f6474683a392c6865696768743a31367d2c7b77696474683a312c6865696768746104208201527f3a317d5d3b6c657420743d303b636f6e7374206f3d646f63756d656e742e63726104408201527f65617465456c656d656e7428277374796c6527293b6f2e696e6e657248544d4c6104608201527f3d270a626f6479207b0a202020206d617267696e2d746f703a20303b0a2020206104808201527f20646973706c61793a20666c65783b0a202020206a7573746966792d636f6e746104a08201527f656e743a2063656e7465723b0a20202020616c69676e2d6974656d733a2063656104c08201527f6e7465723b0a202020206261636b67726f756e642d636f6c6f723a20234646466104e08201527f4645313b0a7d0a0a737667207b0a202020206865696768743a2031303076683b6105008201527f0a2020202077696474683a2031303076773b0a2020202070616464696e673a206105208201527f30766d696e3b0a20202020626f782d736861646f773a202e35766d696e202e356105408201527f766d696e2031766d696e207267626128302c20302c20302c20302e35293b0a206105608201527f202020626f782d73697a696e673a20626f726465722d626f783b0a7d0a272c646105808201527f6f63756d656e742e686561642e617070656e644368696c64286f293b636f6e736105a08201527f7420613d646f63756d656e742e637265617465456c656d656e744e53282768746105c08201527f74703a2f2f7777772e77332e6f72672f323030302f737667272c2773766727296105e08201527f3b612e73657441747472696275746528276964272c276d7953766727292c612e6106008201527f736574417474726962757465282776696577426f78272c2730203020313030206106208201527f31303027292c646f63756d656e742e626f64792e617070656e644368696c64286106408201527f61292c736574526174696f286e2c74293b6c657420722c692c732c642c632c6c6106608201527f2c6d2c752c682c5f2c792c662c702c672c622c242c772c6b2c762c782c412c4c6106808201527f2c532c452c432c462c542c492c422c502c712c522c4d2c4e2c442c483d646f636106a08201527f756d656e742e676574456c656d656e744279496428276d7953766727292c473d6106c08201527f21312c553d302c7a3d27272c4f3d66756e6374696f6e28297b7d2c563d66756e6106e08201527f6374696f6e28297b7d2c6a3d66756e6374696f6e2865297b7d2c573d27272c4b6107008201527f3d66696e644e616d654279436f6c6f7228636f6c6f725b305d2e7375622831296107208201527f2c636f6c6f724e616d6573293b73776974636828646f63756d656e742e6765746107408201527f456c656d656e747342795461674e616d652827626f647927295b305d2e7374796107608201527f6c652e6261636b67726f756e64436f6c6f723d2723272b636f6c6f725b305d2c6107808201527f72657175657374416e696d6174696f6e4672616d65282866756e6374696f6e286107a08201527f297b7570646174654c6f6164657228274c6f6164696e67207661726961626c656107c08201527f7327297d29292c66756e6374696f6e28297b73776974636828643d652e72616e6107e08201527f646f6d5f63686f696365285b302c322c332c342c322c305d292c553d652e72616108008201527f6e646f6d5f626f6f6c282e35293f652e72616e646f6d5f6e756d282d36302c366108208201527f30293a652e72616e646f6d5f696e74282d352c35292c623d652e72616e646f6d6108408201527f5f626f6f6c282e35292c783d652e72616e646f6d5f63686f696365285b312c2d6108608201527f315d292c413d652e72616e646f6d5f63686f696365285b312c2d315d292c6a3d6108808201527f66756e6374696f6e286e297b72657475726e20652e72616e646f6d5f63686f696108a08201527f636528636f6c6f72297d2c6d6f6f64297b6361736520303a693d312c733d382c6108c08201527f673d352c443d3130302c723d2e322c243d2e30332c6c3d332c633d652e72616e6108e08201527f646f6d5f696e74283830302c31313030292c6d3d632f6c2c683d6d2f322c412a6109008201527f3d322c782a3d322c753d2e30362c773d652e72616e646f6d5f696e74283130306109208201527f2c383030292c553d652e72616e646f6d5f63686f696365285b2d34352c34355d6109408201527f293b627265616b3b6361736520313a693d31352c733d31302c673d362c443d356109608201527f302c723d2e3032352c243d2e30332c6c3d652e72616e646f6d5f6e756d28322c6109808201527f34292c633d652e72616e646f6d5f696e74283830302c31323030292c6d3d632f6109a08201527f6c2c683d6d2f652e72616e646f6d5f696e7428362c3135292c753d2e30362c776109c08201527f3d652e72616e646f6d5f696e74283130302c383030292c553d652e72616e646f6109e08201527f6d5f63686f696365285b2d34352c34355d292c623d21303b627265616b3b6361610a008201527f736520323a693d332c733d352c673d362c443d35302c723d2e3034352c243d2e610a208201527f30342c6c3d652e72616e646f6d5f6e756d28322c34292c633d652e72616e646f610a408201527f6d5f696e74283830302c31323030292c6d3d632f6c2c683d6d2f32302c753d2e610a608201527f30362c773d652e72616e646f6d5f696e74283130302c383030292c553d652e72610a808201527f616e646f6d5f63686f696365285b2d34352c34355d292c623d21303b62726561610aa08201527f6b3b6361736520333a693d31352c733d322c673d362c443d35302c723d2e3033610ac08201527f2c243d2e30342c6c3d332c633d652e72616e646f6d5f696e74283830302c3132610ae08201527f3030292c6d3d632f6c2c683d6d2f31302c753d2e30362c553d652e72616e646f610b008201527f6d5f63686f696365285b2d34352c34355d292c773d652e72616e646f6d5f696e610b208201527f74283130302c383030293b627265616b3b6361736520343a693d332c733d332c610b408201527f673d352c443d31302c723d2e30362c243d2e3030392c6c3d652e72616e646f6d610b608201527f5f6e756d28322c34292c633d652e72616e646f6d5f696e74283830302c313230610b808201527f30292c6d3d632f6c2c683d6d2f332c753d2e30362c773d652e72616e646f6d5f610ba08201527f696e74283130302c383030292c553d652e72616e646f6d5f63686f696365285b610bc08201527f2d34352c34355d293b627265616b3b6361736520353a693d332c733d332c673d610be08201527f31302c443d3130302c723d2e30342c243d2e30342c6c3d652e72616e646f6d5f610c008201527f6e756d28322c34292c633d652e72616e646f6d5f696e74283830302c31323030610c208201527f292c6d3d632f6c2c683d6d2c753d2e30362c773d652e72616e646f6d5f696e74610c408201527f283130302c383030292c553d652e72616e646f6d5f63686f696365285b2d3435610c608201527f2c34355d293b627265616b3b6361736520363a693d332c733d312c673d31302c610c808201527f443d3130302c723d2e30342c243d2e30342c6c3d652e72616e646f6d5f6e756d610ca08201527f28322c34292c633d652e72616e646f6d5f696e74283830302c31323030292c6d610cc08201527f3d632f6c2c683d6d2c753d2e30362c773d652e72616e646f6d5f696e74283130610ce08201527f302c383030292c553d652e72616e646f6d5f63686f696365285b2d34352c3435610d008201527f5d293b627265616b3b6361736520373a693d312c733d322c673d352c443d3430610d208201527f2c723d652e72616e646f6d5f63686f696365285b2e30362c2e30372c2e30382c610d408201527f2e30392c2e315d292c243d652e72616e646f6d5f63686f696365285b39652d34610d608201527f2c38652d342c2e3030315d292c6c3d652e72616e646f6d5f6e756d28322c3429610d808201527f2c633d652e72616e646f6d5f696e74283830302c31323030292c6d3d632f6c2c610da08201527f683d322a6d2c753d2e30362c773d652e72616e646f6d5f696e74283130302c38610dc08201527f3030292c553d652e72616e646f6d5f63686f696365285b2d34352c34355d292c610de08201527f643d652e72616e646f6d5f63686f696365285b302c312c322c335d293b627265610e008201527f616b3b6361736520383a693d312c733d312c673d31352c443d38302c723d2e30610e208201527f392c243d2e30342c6c3d652e72616e646f6d5f6e756d28322c34292c633d652e610e408201527f72616e646f6d5f696e74283430302c353030292c6d3d632f6c2c683d382a6d2c610e608201527f753d2e30362c773d652e72616e646f6d5f696e74283130302c383030292c553d610e808201527f652e72616e646f6d5f63686f696365285b2d34352c34355d293b627265616b3b610ea08201527f6361736520393a693d392c733d312c673d35302c443d652e72616e646f6d5f69610ec08201527f6e742835302c313030292c723d2e3030312c243d2e30362c6c3d652e72616e64610ee08201527f6f6d5f6e756d28322c34292c633d3165332c6d3d632f6c2c683d31302a6d2c75610f008201527f3d2e30362c773d652e72616e646f6d5f696e74283330302c383030292c553d65610f208201527f2e72616e646f6d5f63686f696365285b2d34352c34355d293b627265616b3b63610f408201527f6173652031303a693d352c733d312c673d35302c443d652e72616e646f6d5f69610f608201527f6e742838302c313530292c723d2e3030312c243d2e30392c6c3d652e72616e64610f808201527f6f6d5f6e756d28322c34292c633d3530302c6d3d632f6c2c683d31302a6d2c75610fa08201527f3d2e30362c773d652e72616e646f6d5f696e74283330302c383030292c553d65610fc08201527f2e72616e646f6d5f63686f696365285b2d34352c34355d293b627265616b3b63610fe08201527f6173652031313a693d312c733d312c673d352c443d652e72616e646f6d5f63686110008201527f6f696365285b322c32305d292c723d2e332c243d2e30392c6c3d652e72616e646110208201527f6f6d5f6e756d28322c34292c633d31302c6d3d632f6c2c683d31302a6d2c753d6110408201527f652e72616e646f6d5f64656328292c773d652e72616e646f6d5f696e742833306110608201527f302c383030292c553d652e72616e646f6d5f63686f696365285b2d34352c34356110808201527f5d292c643d652e72616e646f6d5f63686f696365285b302c312c325d293b62726110a08201527f65616b3b636173652031323a693d31302c733d312c673d32302c443d31352c726110c08201527f3d2e312c243d2e3034352c6c3d652e72616e646f6d5f6e756d28322c34292c636110e08201527f3d652e72616e646f6d5f696e74283830302c31313030292c6d3d632f6c2c683d6111008201527f6d2f31302c753d2e30362c773d652e72616e646f6d5f696e74283130302c38306111208201527f30293b627265616b3b636173652031333a693d332c733d312c673d312c443d656111408201527f2e72616e646f6d5f696e742835302c313030292c723d2e30312c243d652e72616111608201527f6e646f6d5f6e756d282e30362c2e3039292c6c3d652e72616e646f6d5f6e756d6111808201527f28322c34292c633d652e72616e646f6d5f696e74283135302c323030292c6d3d6111a08201527f632f6c2c683d31302a6d2c753d2e30362c773d652e72616e646f6d5f696e74286111c08201527f3330302c383030292c553d652e72616e646f6d5f63686f696365285b2d34352c6111e08201527f34355d293b627265616b3b636173652031343a693d332c733d312c673d342c446112008201527f3d34302c723d2e312c243d2e30332c6c3d332c633d652e72616e646f6d5f696e6112208201527f74283730302c31313030292c6d3d632f6c2c683d6d2f652e72616e646f6d5f696112408201527f6e7428322c35292c753d2e30362c773d652e72616e646f6d5f696e74283130306112608201527f2c383030292c553d652e72616e646f6d5f63686f696365285b2d33302c33305d6112808201527f292c412a3d332c782a3d332c6a3d66756e6374696f6e2865297b72657475726e6112a08201527f20636f6c6f725b655d7d3b627265616b3b636173652031353a693d332c733d356112c08201527f2c673d332c443d33302c723d2e3032352c243d2e30332c6c3d652e72616e646f6112e08201527f6d5f6e756d28322c34292c633d652e72616e646f6d5f696e74283830302c31326113008201527f3030292c6d3d632f6c2c683d6d2f35302c753d2e30362c773d652e72616e646f6113208201527f6d5f696e74283130302c383030292c553d652e72616e646f6d5f63686f6963656113408201527f285b2d34352c34355d292c623d21303b627265616b3b636173652031363a693d6113608201527f322c733d312c673d332c443d31302c723d2e3031352c243d2e332c6c3d652e726113808201527f616e646f6d5f6e756d28322c34292c633d652e72616e646f6d5f696e742838306113a08201527f302c31323030292c6d3d632f6c2c683d6d2f3130302c753d2e30362c773d652e6113c08201527f72616e646f6d5f696e74283130302c383030292c553d652e72616e646f6d5f636113e08201527f686f696365285b2d34352c34355d292c782a3d332c412a3d332c643d652e72616114008201527f6e646f6d5f63686f696365285b312c322c335d293b627265616b3b63617365206114208201527f31373a693d352c733d322c673d332c443d31302c723d2e3038352c243d2e352c6114408201527f6c3d652e72616e646f6d5f6e756d28322c34292c633d652e72616e646f6d5f696114608201527f6e74283830302c31323030292c6d3d632f6c2c683d6d2f3330302c753d2e30366114808201527f2c773d652e72616e646f6d5f696e74283130302c383030292c553d652e72616e6114a08201527f646f6d5f63686f696365285b2d34352c34355d292c782a3d332c412a3d332c646114c08201527f3d652e72616e646f6d5f63686f696365285b312c322c335d293b627265616b3b6114e08201527f636173652031383a693d312c733d312c673d352c443d3130302c723d2e312c246115008201527f3d2e312c6c3d332c633d652e72616e646f6d5f696e74283830302c31313030296115208201527f2c6d3d632f6c2c683d6d2f322c753d2e30362c773d652e72616e646f6d5f696e6115408201527f74283130302c383030292c553d652e72616e646f6d5f63686f696365285b2d346115608201527f352c34355d293b627265616b3b636173652031393a693d31302c733d312c673d6115808201527f362c443d31302c723d2e3032382c243d2e30322c6c3d342c633d652e72616e646115a08201527f6f6d5f696e74283830302c31313030292c6d3d632f6c2c683d6d2f332c753d2e6115c08201527f30362c773d652e72616e646f6d5f696e74283130302c383030292c553d652e726115e08201527f616e646f6d5f63686f696365285b2d34352c34355d293b627265616b3b6361736116008201527f652032303a693d31352c733d31302c673d362c443d3130302c723d2e30332c246116208201527f3d2e30322c6c3d652e72616e646f6d5f6e756d28322c34292c633d652e72616e6116408201527f646f6d5f696e74283830302c31313030292c6d3d632f6c2c683d6d2f31302c756116608201527f3d2e30362c773d652e72616e646f6d5f696e74283130302c383030292c553d656116808201527f2e72616e646f6d5f63686f696365285b2d34352c34355d293b627265616b3b636116a08201527f6173652032313a693d382c733d312c673d31302c443d35302c723d2e3031352c6116c08201527f243d2e30322c6c3d332c633d652e72616e646f6d5f696e74283830302c3131306116e08201527f30292c6d3d632f6c2c683d6d2f332c753d2e30362c773d652e72616e646f6d5f6117008201527f696e74283130302c383030292c553d652e72616e646f6d5f63686f696365285b6117208201527f2d34352c34355d293b627265616b3b636173652032323a693d332c733d31352c6117408201527f543d312c673d362c443d31302c723d2e30322c243d2e32352c493d2e30312c6c6117608201527f3d342c633d652e72616e646f6d5f696e74283530302c31313030292c6d3d632f6117808201527f6c2c683d6d2f38302c5f3d6d2f33302c753d2e30362c773d652e72616e646f6d6117a08201527f5f696e74283130302c383030292c553d652e72616e646f6d5f63686f696365286117c08201527f5b2d34352c34355d292c473d21303b627265616b3b636173652032333a693d356117e08201527f2c733d312c543d31302c673d33302c443d3130302c723d2e30342c243d2e312c6118008201527f493d2e30312c6c3d332c633d652e72616e646f6d5f696e74283530302c3131306118208201527f30292c6d3d632f6c2c683d332a6d2c5f3d6d2f35302c753d2e30362c773d652e6118408201527f72616e646f6d5f696e74283130302c383030292c553d652e72616e646f6d5f636118608201527f686f696365285b2d34352c34355d292c473d21303b627265616b3b63617365206118808201527f32343a693d312c733d352c543d31302c673d31302c443d31302c723d2e30312c6118a08201527f243d2e30392c493d2e30392c6c3d342c633d652e72616e646f6d5f696e7428386118c08201527f30302c31313030292c6d3d632f6c2c683d6d2f3130302c5f3d332a6d2c753d2e6118e08201527f30362c773d652e72616e646f6d5f696e74283130302c383030292c553d652e726119008201527f616e646f6d5f63686f696365285b2d34352c34355d292c473d21302c643d652e6119208201527f72616e646f6d5f63686f696365285b322c305d293b627265616b3b63617365206119408201527f32353a693d332c733d332c543d31302c673d31302c443d33302c723d2e312c246119608201527f3d2e30312c493d2e312c6c3d352c633d652e72616e646f6d5f696e74283530306119808201527f2c31313030292c6d3d632f6c2c683d6d2c5f3d6d2f31302c753d2e30362c773d6119a08201527f652e72616e646f6d5f696e74283130302c383030292c553d652e72616e646f6d6119c08201527f5f63686f696365285b2d34352c34355d292c473d21303b627265616b3b6361736119e08201527f652032363a693d332c733d332c543d362c673d31302c443d33302c723d2e312c611a008201527f243d2e30312c493d2e312c6c3d352c633d652e72616e646f6d5f696e74283530611a208201527f302c31313030292c6d3d632f6c2c683d6d2c5f3d6d2f35302c753d2e30362c77611a408201527f3d652e72616e646f6d5f696e74283130302c383030292c553d652e72616e646f611a608201527f6d5f63686f696365285b2d34352c34355d292c473d21307d552b3d343d3d3d64611a808201527f3f652e72616e646f6d5f63686f696365285b2d34352c34355d293a302c243d24611aa08201527f7c7c302c733d737c7c302c503d21312c713d21302c4d3d652e72616e646f6d5f611ac08201527f63686f696365285b2e3939342c2e3939352c2e3939362c2e3939372c2e393938611ae08201527f5d292c4e3d312d652e72616e646f6d5f696e7428312c32292a4d2b312c4c3d2d611b008201527f35302c533d3235302c453d2d3130302c433d3135302c763d28432d45292f342c611b208201527f663d652e72616e646f6d5f696e7428452c43292c703d652e72616e646f6d5f69611b408201527f6e7428302c313030292c793d652e72616e646f6d5f696e7428312c316533292c611b608201527f573d27272c523d28432d45292f322c4c3d652e72616e646f6d5f696e74282d31611b808201527f322e352c31322e35292c636f6e736f6c652e6c6f672827626173654672657127611ba08201527f2c722c2764656e73697479272c672c277374726f6b655769647468272c442c27611bc08201527f7363616c65272c632c277363616c6532272c6d2c277363616c6534272c5f2c27611be08201527f64656e73697479496e6372656d656e74272c752c277363616c65206469766964611c008201527f65272c6c2c276e756d4f637461766573272c692c276e756d4f63746176657332611c208201527f272c732c276d6f6f64272c6d6f6f642c2774797065272c642c2765726f73696f611c408201527f6e272c772c276973566572746963616c272c622c27636f6c6f72272c636f6c6f611c608201527f725b305d2c27636f6c6f724e616d65272c4b297d28292c6177616974206e6577611c808201527f2050726f6d6973652828653d3e73657454696d656f757428652c323030292929611ca08201527f2c72657175657374416e696d6174696f6e4672616d65282866756e6374696f6e611cc08201527f28297b7570646174654c6f6164657228274c6f6164696e672066696c74657273611ce08201527f27297d29292c6177616974206e65772050726f6d6973652828653d3e73657454611d008201527f696d656f757428652c3230302929292c572b3d27203c646566733e272c572b3d611d208201527f273c66696c7465722069643d276630273e272c572b3d603c66654d6f7270686f611d408201527f6c6f6779206f70657261746f723d2765726f646527207261646975733d27247b611d608201527f777d27202f3e602c572b3d273c2f66696c7465723e272c572b3d600a20202020611d808201527f20203c66696c7465722069643d276631273e0a20202020202020203c66655475611da08201527f7262756c656e636520747970653d276672616374616c4e6f697365270a202020611dc08201527f20202020202020202020202020202020202020626173654672657175656e6379611de08201527f3d27247b727d27206e756d4f6374617665733d27247b697d270a202020202020611e008201527f20202020202020202020202020202020736565643d27247b797d270a20202020611e208201527f202020202020202020202020202020202020726573756c743d2774757262756c611e408201527f656e636527202f3e0a20202020202020203c666554757262756c656e63652074611e608201527f7970653d276672616374616c4e6f697365270a20202020202020202020202020611e808201527f202020202020202020626173654672657175656e63793d27247b247d27206e75611ea08201527f6d4f6374617665733d27247b737d270a20202020202020202020202020202020611ec08201527f202020202020736565643d27247b792b317d270a202020202020202020202020611ee08201527f20202020202020202020726573756c743d2774757262756c656e63653227202f611f008201527f3e0a20202020202020203c6665446973706c6163656d656e744d617020696e32611f208201527f3d2774757262756c656e6365270a202020202020202020202020202020202020611f408201527f202020202020202020696e3d27536f757263654772617068696327207363616c611f608201527f653d27247b6d7d270a2020202020202020202020202020202020202020202020611f808201527f20202020726573756c743d27646973706c6163656d656e74270a202020202020611fa08201527f202020202020202020202020202020202020202020784368616e6e656c53656c611fc08201527f6563746f723d2741270a20202020202020202020202020202020202020202020611fe08201527f2020202020794368616e6e656c53656c6563746f723d274127202f3e0a2020206120008201527f20202020203c6665446973706c6163656d656e744d617020696e323d277475726120208201527f62756c656e6365270a20202020202020202020202020202020202020202020206120408201527f20202020696e3d27536f757263654772617068696327207363616c653d27247b6120608201527f6d7d270a202020202020202020202020202020202020202020202020202020726120808201527f6573756c743d27646973706c6163656d656e7442270a202020202020202020206120a08201527f2020202020202020202020202020202020784368616e6e656c53656c6563746f6120c08201527f723d2741270a20202020202020202020202020202020202020202020202020206120e08201527f20794368616e6e656c53656c6563746f723d274127202f3e602c572b3d600a206121008201527f20202020202020202020203c6665446973706c6163656d656e744d617020696e6121208201527f323d2774757262756c656e636532270a202020202020202020202020202020206121408201527f2020202020202020202020696e3d27646973706c6163656d656e7427207363616121608201527f6c653d27247b687d270a202020202020202020202020202020202020202020206121808201527f2020202020726573756c743d27646973706c6163656d656e7432270a202020206121a08201527f2020202020202020202020202020202020202020202020784368616e6e656c536121c08201527f656c6563746f723d2741270a20202020202020202020202020202020202020206121e08201527f20202020202020794368616e6e656c53656c6563746f723d274127202f3e0a206122008201527f2020202020202020202020202020203c6665446973706c6163656d656e744d616122208201527f7020696e323d2774757262756c656e636532270a2020202020202020202020206122408201527f202020202020202020202020202020696e3d27646973706c6163656d656e74426122608201527f27207363616c653d27247b687d270a20202020202020202020202020202020206122808201527f20202020202020202020726573756c743d27646973706c6163656d656e7442326122a08201527f270a2020202020202020202020202020202020202020202020202020207843686122c08201527f616e6e656c53656c6563746f723d2741270a20202020202020202020202020206122e08201527f20202020202020202020202020794368616e6e656c53656c6563746f723d27416123008201527f27202f3e0a2020202020202020202020202020202020202020202020202020206123208201527f3b602c47262628572b3d600a2020202020202020202020203c666554757262756123408201527f6c656e636520747970653d276672616374616c4e6f697365270a2020202020206123608201527f20202020202020202020202020202020626173654672657175656e63793d27246123808201527f7b497d27206e756d4f6374617665733d27247b547d270a2020202020202020206123a08201527f20202020202020202020202020736565643d27247b797d270a202020202020206123c08201527f202020202020202020202020202020726573756c743d2774757262756c656e636123e08201527f653327202f3e0a2020202020202020202020203c6665446973706c6163656d656124008201527f6e744d617020696e323d2774757262756c656e636533270a20202020202020206124208201527f20202020202020202020202020202020202020696e3d27646973706c6163656d6124408201527f656e7427207363616c653d27247b5f7d270a20202020202020202020202020206124608201527f20202020202020202020202020726573756c743d27646973706c6163656d656e6124808201527f7433270a202020202020202020202020202020202020202020202020202020786124a08201527f4368616e6e656c53656c6563746f723d2742270a2020202020202020202020206124c08201527f202020202020202020202020202020794368616e6e656c53656c6563746f723d6124e08201527f274127202f3e0a202020202020202020202020202020202020202020202020206125008201527f20203b60292c572b3d270a2020202020203c6665426c656e6420696e3d2764696125208201527f73706c6163656d656e74322720696e323d27646973706c6163656d656e7432276125408201527f20726573756c743d276275726e27206d6f64653d276e6f726d616c272f3e0a206125608201527f20202020272c572b3d270a3c2f66696c7465723e0a202020203c2f646566733e6125808201527f0a2020272c572b3d600a202020200a20203c726563742066696c6c3d2723247b6125a08201527f636f6c6f725b305d7d2720783d27302720793d2730272077696474683d2731306125c08201527f3027206865696768743d2731303027202f3e0a602c482e696e6e657248544d4c6125e08201527f2b3d572c72657175657374416e696d6174696f6e4672616d65282866756e63746126008201527f696f6e28297b72656d6f7665416c6c4c6f616465727328292c6164644c6f61646126208201527f657228274c6f6164696e672068746d6c27297d29292c6177616974206e6577206126408201527f50726f6d6973652828653d3e73657454696d656f757428652c3230302929292c6126608201527f573d27272c64297b6361736520323a623f287a3d607472616e736c61746528356126808201527f302c35302920726f7461746528247b557d29207363616c6528247b787d20247b6126a08201527f417d29207472616e736c617465282d35302c2d353029602c4f3d66756e6374696126c08201527f6f6e28652c6e2c742c6f2c61297b72657475726e603c6c696e65207472616e736126e08201527f666f726d3d27247b7a7d272066696c7465723d2775726c2823247b657d2927206127008201527f7374726f6b652d6f7061636974793d272e39352720207374726f6b653d2723246127208201527f7b6e7d27207374796c653d277374726f6b652d77696474683a247b617d2720796127408201527f313d27247b747d272078313d27247b6f7d272078323d27247b31305e747d27206127608201527f79323d27247b6f7d27202f3e607d293a287a3d607472616e736c6174652835306127808201527f2c35302920726f7461746528247b557d29207363616c6528247b787d20247b416127a08201527f7d29207472616e736c617465282d35302c2d353029602c4f3d66756e6374696f6127c08201527f6e28652c6e2c742c6f2c61297b72657475726e603c6c696e65207472616e73666127e08201527f6f726d3d27247b7a7d272066696c7465723d2775726c2823247b657d292720736128008201527f74726f6b652d6f7061636974793d272e39352720207374726f6b653d2723247b6128208201527f6e7d27207374796c653d277374726f6b652d77696474683a247b617d272078316128408201527f3d27247b747d272079313d27247b6f7d272079323d27247b31305e747d2720786128608201527f323d27247b6f7d27202f3e607d293b627265616b3b6361736520333a623f287a6128808201527f3d607472616e736c6174652835302c35302920726f7461746528247b557d29206128a08201527f7363616c6528247b787d20247b417d29207472616e736c617465282d35302c2d6128c08201527f353029602c4f3d66756e6374696f6e28652c6e2c742c6f2c61297b72657475726128e08201527f6e603c6c696e65207472616e73666f726d3d27247b7a7d272066696c7465723d6129008201527f2775726c2823247b657d2927207374726f6b652d6f7061636974793d272e39356129208201527f27207374726f6b653d2723247b6e7d27207374796c653d277374726f6b652d776129408201527f696474683a247b617d272079313d27247b747d272078313d27247b6f7d2720786129608201527f323d27247b322a747d272079323d27247b322a6f7d27202f3e607d293a287a3d6129808201527f607472616e736c6174652835302c35302920726f7461746528247b557d2920736129a08201527f63616c6528247b787d20247b417d29207472616e736c617465282d35302c2d356129c08201527f3029602c4f3d66756e6374696f6e28652c6e2c742c6f2c61297b72657475726e6129e08201527f603c6c696e65207472616e73666f726d3d27247b7a7d272066696c7465723d27612a008201527f75726c2823247b657d29277374726f6b652d6f7061636974793d272e39352720612a208201527f207374726f6b653d2723247b6e7d27207374796c653d277374726f6b652d7769612a408201527f6474683a247b617d272078313d27247b747d272079313d27247b6f7d27207932612a608201527f3d27247b322a747d272078323d27247b322a6f7d27202f3e607d293b62726561612a808201527f6b3b6361736520343a452d3d3130302c623f287a3d607472616e736c61746528612aa08201527f35302c35302920726f7461746528247b552b652e72616e646f6d5f63686f6963612ac08201527f65285b2d34352c34355d297d29207363616c6528247b787d20247b417d292074612ae08201527f72616e736c617465282d35302c2d353029602c4f3d66756e6374696f6e28652c612b008201527f6e2c742c6f2c61297b72657475726e603c6c696e65207472616e73666f726d3d612b208201527f27247b7a7d27202066696c7465723d2775726c2823247b657d2927207374726f612b408201527f6b652d6f7061636974793d272e39352720207374726f6b653d2723247b6e7d27612b608201527f207374796c653d277374726f6b652d77696474683a247b617d272079313d2724612b808201527f7b747d272078313d27247b6f7d272078323d27247b742b3130307d272079323d612ba08201527f27247b6f7d27202f3e607d293a287a3d607472616e736c6174652835302c3530612bc08201527f2920726f7461746528247b552b652e72616e646f6d5f63686f696365285b2d34612be08201527f352c34355d297d29207363616c6528247b787d20247b417d29207472616e736c612c008201527f617465282d35302c2d353029602c4f3d66756e6374696f6e28652c6e2c742c6f612c208201527f2c61297b72657475726e603c6c696e65207472616e73666f726d3d27247b7a7d612c408201527f2720202066696c7465723d2775726c2823247b657d2927207374726f6b652d6f612c608201527f7061636974793d272e39352720207374726f6b653d2723247b6e7d2720737479612c808201527f6c653d277374726f6b652d77696474683a247b617d272078313d27247b747d27612ca08201527f2079313d27247b6f7d272079323d27247b742b3130307d272078323d27247b6f612cc08201527f7d27202f3e607d293b627265616b3b64656661756c743a623f287a3d60747261612ce08201527f6e736c6174652835302c35302920726f7461746528247b557d29207363616c65612d008201527f28247b787d20247b417d29207472616e736c617465282d35302c2d353029602c612d208201527f4f3d66756e6374696f6e28652c6e2c742c6f2c61297b72657475726e603c6c69612d408201527f6e65207472616e73666f726d3d27247b7a7d27202066696c7465723d2775726c612d608201527f2823247b657d29277374726f6b652d6f7061636974793d272e39352720207374612d808201527f726f6b653d2723247b6e7d27207374796c653d277374726f6b652d7769647468612da08201527f3a247b617d272079313d27247b747d272078313d27247b6f7d272078323d2724612dc08201527f7b747d272079323d27247b6f7d27202f3e607d293a287a3d607472616e736c61612de08201527f74652835302c35302920726f7461746528247b557d29207363616c6528247b78612e008201527f7d20247b417d29207472616e736c617465282d35302c2d353029602c4f3d6675612e208201527f6e6374696f6e28652c6e2c742c6f2c61297b72657475726e603c6c696e652074612e408201527f72616e73666f726d3d27247b7a7d27202066696c7465723d2775726c2823247b612e608201527f657d29277374726f6b652d6f7061636974793d272e39352720207374726f6b65612e808201527f3d2723247b6e7d27207374796c653d277374726f6b652d77696474683a247b61612ea08201527f7d272078313d27247b747d272079313d27247b6f7d272079323d27247b747d27612ec08201527f2078323d27247b6f7d27202f3e607d297d652e72616e646f6d5f626f6f6c282e612ee08201527f34293f563d66756e6374696f6e2865297b442a3d653c523f2d4d3a2d4e7d3a28612f008201527f4c3d652e72616e646f6d5f696e742831302c3130302f332e35292c4e3d652e72612f208201527f616e646f6d5f696e7428342c3132292c563d66756e6374696f6e2865297b442a612f408201527f3d4d7d292c463d302c6b3d303b666f72286c6574206e3d4c3b6e3c3d533b6e2b612f608201527f3d67297b462b2b2c463e3d636f6c6f722e6c656e677468262628463d30292c67612f808201527f2b3d752c423d6a2846293b666f72286c657420743d303b743c323b742b2b297b612fa08201527f6c6574206f3d6e2c613d6066247b747d603b666f72286c6574206e3d453b6e3c612fc08201527f433b6e2b3d76296b2b2b2c56286e292c572b3d4f28612c422c6e2c6f2c652e72612fe08201527f616e646f6d5f6e756d28302c44292c636f6c6f725b4d6174682e61627328462d6130008201527f31295d297d7d572b3d603c726563742066696c6c3d2723247b636f6c6f725b306130208201527f5d7d2720783d27302720793d27247b532b677d272077696474683d27313030276130408201527f206865696768743d2731303027202f3e602c72657175657374416e696d6174696130608201527f6f6e4672616d65282866756e6374696f6e28297b7570646174654c6f616465726130808201527f282752656e646572696e67205356472c20746869732063616e2074616b6520616130a08201527f20666577207365636f6e647327297d29292c6177616974206e65772050726f6d6130c08201527f6973652828653d3e73657454696d656f757428652c3230302929292c726571756130e08201527f657374416e696d6174696f6e4672616d65282866756e6374696f6e28297b482e6131008201527f696e6e657248544d4c2b3d577d29292c72657175657374416e696d6174696f6e6131208201527f4672616d65282866756e6374696f6e28297b72656d6f7665416c6c4c6f6164656131408201527f727328297d29292c646f63756d656e742e6164644576656e744c697374656e656131608201527f7228276b6579646f776e272c286173796e632066756e6374696f6e2865297b696131808201527f66282773273d3d3d652e6b65797c7c2753273d3d3d652e6b6579297b726571756131a08201527f657374416e696d6174696f6e4672616d65282866756e6374696f6e28297b61646131c08201527f644c6f616465722827536176696e672053564727297d29292c6177616974206e6131e08201527f65772050726f6d6973652828653d3e73657454696d656f757428652c323030296132008201527f29293b636f6e737420653d646f63756d656e742e676574456c656d656e7442796132208201527f496428276d7953766727292c6e3d646f63756d656e742e637265617465456c656132408201527f6d656e7428277374796c6527293b6e2e74657874436f6e74656e743d600a20206132608201527f2020737667207b0a20202020202077696474683a2031303076773b0a202020206132808201527f20206865696768743a2031303076683b0a20202020202070616464696e673a206132a08201527f30766d696e3b0a202020202020626f782d736861646f773a202e35766d696e206132c08201527f2e35766d696e2031766d696e207267626128302c20302c20302c20302e35293b6132e08201527f0a202020202020626f782d73697a696e673a20626f726465722d626f783b0a206133008201527f2020207d0a202020203c212d2d20496620796f752077616e7420746f206469736133208201527f706c617920746865205356472061732069742077617320696e207468652067656133408201527f6e657261746f722c206a7573742070757420697420696e746f20746865203c626133608201527f6f64793e206f6620616e2068746d6c207061676520616e6420616464207468696133808201527f73207374796c696e67202d2d3e0a20202020626f6479207b0a202020202020646133a08201527f6973706c61793a20666c65783b0a2020202020206a7573746966792d636f6e746133c08201527f656e743a2063656e7465723b0a202020202020616c69676e2d6974656d733a206133e08201527f63656e7465723b0a2020202020206261636b67726f756e642d636f6c6f723a206134008201527f23247b636f6c6f725b305d7d3b0a202020207d0a2020602c652e70726570656e6134208201527f64286e293b636f6e737420743d6e657720584d4c53657269616c697a65722c6f6134408201527f3d6e657720426c6f62285b742e73657269616c697a65546f537472696e6728656134608201527f295d2c7b747970653a27696d6167652f7376672b786d6c277d292c613d55524c6134808201527f2e6372656174654f626a65637455524c286f293b646f63756d656e742e7772696134a08201527f74652865293b636f6e737420723d646f63756d656e742e637265617465456c656134c08201527f6d656e7428276127293b722e687265663d612c722e646f776e6c6f61643d275f6134e08201527f5f5f5f5f5f5f5f5f2e737667272c646f63756d656e742e626f64792e617070656135008201527f6e644368696c642872292c722e636c69636b28292c646f63756d656e742e626f6135208201527f64792e72656d6f76654368696c642872292c55524c2e7265766f6b654f626a656135408201527f637455524c2861292c72656d6f7665416c6c4c6f616465727328297d7d29292c6135608201527f646f63756d656e742e6164644576656e744c697374656e657228276b6579646f6135808201527f776e272c286173796e632066756e6374696f6e2865297b72657175657374416e6135a08201527f696d6174696f6e4672616d65282866756e6374696f6e28297b6164644c6f61646135c08201527f657228274c6f6164696e67206e65772061737065637420726174696f27297d296135e08201527f292c6177616974206e65772050726f6d6973652828653d3e73657454696d656f6136008201527f757428652c3230302929292c274172726f775269676874273d3d3d652e6b65796136208201527f3f743d28742b3129256e2e6c656e6774683a274172726f774c656674273d3d3d6136408201527f652e6b6579262628743d28742d312b6e2e6c656e67746829256e2e6c656e67746136608201527f68292c736574526174696f286e2c74292c72656d6f7665416c6c4c6f616465726136808201527f7328297d29292c482e6164644576656e744c697374656e65722827746f7563686136a08201527f656e64272c286173796e632066756e6374696f6e2865297b72657175657374416136c08201527f6e696d6174696f6e4672616d65282866756e6374696f6e28297b6164644c6f616136e08201527f64657228274c6f6164696e67206e65772061737065637420726174696f27297d6137008201527f29292c6177616974206e65772050726f6d6973652828653d3e73657454696d656137208201527f6f757428652c3230302929292c743d28742b3129256e2e6c656e6774683b636f6137408201527f6e7374206f3d6e5b745d3b646f63756d656e742e676574456c656d656e7442796137608201527f496428276d7953766727292c646f526174696f286f2c646f63756d656e742e676137808201527f6574456c656d656e744279496428276d795376672729292c72656d6f7665416c6137a08201527f6c4c6f616465727328297d29297d3b66756e6374696f6e20646f526174696f286137c08201527f652c6e297b3130303d3d3d652e776964746826263130303d3d3d652e686569676137e08201527f68743f286e2e7374796c652e77696474683d273130307677272c6e2e7374796c6138008201527f652e6865696768743d27313030766827293a652e77696474682f652e686569676138208201527f68743e313f286e2e7374796c652e77696474683d273130307677272c6e2e73746138408201527f796c652e6865696768743d6063616c63283130307677202a2028247b652e68656138608201527f696768747d202f20247b652e77696474687d292960293a286e2e7374796c652e6138808201527f6865696768743d273130307668272c6e2e7374796c652e77696474683d6063616138a08201527f6c63283130307668202a2028247b652e77696474687d202f20247b652e6865696138c08201527f6768747d292960297d66756e6374696f6e2066696e644e616d654279436f6c6f6138e08201527f7228652c6e297b666f72286c657420743d303b743c6e2e6c656e6774683b742b6139008201527f2b296966286e5b745d2e636f6c6f723d3d3d652972657475726e206e5b745d2e6139208201527f6e616d657d66756e6374696f6e20736574526174696f28652c6e297b646f52616139408201527f74696f28655b6e5d2c646f63756d656e742e676574456c656d656e74427949646139608201527f28276d795376672729297d6c65742069734c6f616465643d21313b66756e63746139808201527f696f6e20697353616661726928297b72657475726e27756e646566696e6564276139a08201527f213d747970656f66206e6176696761746f7226266e756c6c213d6e61766967616139c08201527f746f7226262f5e28283f216368726f6d657c616e64726f6964292e292a7361666139e08201527f6172692f692e74657374286e6176696761746f723f2e757365724167656e7429613a008201527f7d66756e6374696f6e2072656d6f7665416c6c4c6f616465727328297b646f63613a208201527f756d656e742e717565727953656c6563746f72416c6c28272e6c6f616465722d613a408201527f636f6e7461696e657227292e666f72456163682828653d3e7b652e706172656e613a608201527f744e6f64652e72656d6f76654368696c642865297d29297d66756e6374696f6e613a808201527f206164644c6f616465722865297b6c6574206e3d646f63756d656e742e637265613aa08201527f617465456c656d656e74282764697627293b6e2e636c6173734e616d653d276c613ac08201527f6f616465722d636f6e7461696e6572272c6e2e7374796c652e706f736974696f613ae08201527f6e3d276162736f6c757465272c6e2e7374796c652e6c6566743d27353025272c613b008201527f6e2e7374796c652e746f703d27353025272c6e2e7374796c652e7472616e7366613b208201527f6f726d3d277472616e736c617465282d3530252c202d35302529273b636f6e73613b408201527f7420743d646f63756d656e742e637265617465456c656d656e74282764697627613b608201527f293b6c6574206f3b696628742e696e6e6572546578743d652b272e2e2e272c74613b808201527f2e7374796c652e636f6c6f723d2723464646464646272c742e7374796c652e62613ba08201527f6f726465723d2723303030303030272c742e7374796c652e666f6e7446616d69613bc08201527f6c793d2748656c7665746963612c20417269616c2c2073616e732d7365726966613be08201527f272c742e7374796c652e666f6e7453697a653d2731347078272c742e7374796c613c008201527f652e77696474683d276d61782d636f6e74656e74272c742e7374796c652e6469613c208201527f73706c61793d27696e6c696e652d626c6f636b272c742e636c6173734e616d65613c408201527f3d276c6f6164696e672d74657874272c742e69643d276c6f616465722d746578613c608201527f74272c6e2e617070656e644368696c642874292c646f63756d656e742e626f64613c808201527f792e617070656e644368696c64286e292c646f63756d656e742e7374796c6553613ca08201527f68656574732e6c656e6774683e30296f3d646f63756d656e742e7374796c6553613cc08201527f68656574735b305d3b656c73657b636f6e737420653d646f63756d656e742e63613ce08201527f7265617465456c656d656e7428277374796c6527293b646f63756d656e742e68613d008201527f6561642e617070656e644368696c642865292c6f3d652e73686565747d6f2e69613d208201527f6e7365727452756c6528270a20202020406b65796672616d6573207370696e20613d408201527f7b0a20202020202020203025207b207472616e73666f726d3a20726f74617465613d608201527f2830646567293b207d0a202020202020202031303025207b207472616e73666f613d808201527f726d3a20726f7461746528333630646567293b207d0a202020207d0a20202020613da08201527f272c6f2e63737352756c65732e6c656e677468297d66756e6374696f6e207570613dc08201527f646174654c6f616465722865297b646f63756d656e742e717565727953656c65613de08201527f63746f72416c6c28272e6c6f6164696e672d7465787427292e666f7245616368613e008201527f28286e3d3e7b6e2e696e6e6572546578743d652b272e2e2e277d29297d66756e613e208201527f6374696f6e20616464506f74656e7469616c506f70757028297b76617220653d613e408201527f646f63756d656e742e637265617465456c656d656e74282764697627293b652e613e608201527f69643d277361666172692d706f707570272c652e7374796c653d27646973706c613e808201527f61793a206e6f6e653b20706f736974696f6e3a2066697865643b20746f703a20613ea08201527f3530253b206c6566743a203530253b207472616e73666f726d3a207472616e73613ec08201527f6c617465282d3530252c202d353025293b206261636b67726f756e642d636f6c613ee08201527f6f723a2077686974653b2070616464696e673a20323070783b20626f72646572613f008201527f3a2031707820736f6c696420236363633b207a2d696e6465783a20313030303b613f208201527f272c652e696e6e657248544d4c3d273c703e5765206861766520646574656374613f408201527f656420796f7520617265207573696e6720746865207765622062726f73657220613f608201527f5361666172692e205361666172692063757272656e746c792075736573203c61613f808201527f207461726765743d275f626c616e6b2720687265663d2768747470733a2f2f65613fa08201527f6e2e77696b6970656469612e6f72672f77696b692f436f6d70617269736f6e5f613fc08201527f6f665f62726f777365725f656e67696e6573273e5765624b69743c2f613e2c20613fe08201527f77686963682063616e2068617665206c61726765206d656d6f7279206c65616b6140008201527f73207768656e206c6f6164696e67205356477320776974682066696c746572736140208201527f2c206d616b696e67207468652073797374656d20756e726573706f6e736976656140408201527f2e2054686973203c61207461726765743d275f626c616e6b2720687265663d276140608201527f68747470733a2f2f627567732e7765626b69742e6f72672f73686f775f6275676140808201527f2e6367693f69643d323138343232273e69737375653c2f613e206861732062656140a08201527f656e207265706f7274656420746f205765624b69742e2049207265636f6d6d656140c08201527f6e64203c61207461726765743d275f626c616e6b2720687265663d27687474706140e08201527f733a2f2f656e2e77696b6970656469612e6f72672f77696b692f436f6d7061726141008201527f69736f6e5f6f665f62726f777365725f656e67696e6573273e426c696e6b3c2f6141208201527f613e2062617365642062726f777365727320286173206f66203230323429206c6141408201527f696b6520476f6f676c65204368726f6d6520616e64204d6963726f736f6674206141608201527f456467652e20496620796f7520776f756c64206c696b6520746f20636f6e74696141808201527f6e75652c206b6e6f77696e67207468617420536166617269206d6179206861766141a08201527f65206973737565732c206f722062656c696576696e67207468617420536166616141c08201527f7269206e6f7720636f72726563746c7920737570706f727473205356472066696141e08201527f6c65732c20796f75206d61792e3c2f703e3c627574746f6e206f6e636c69636b6142008201527f3d27636c6f7365506f7075702829273e4920756e6465727374616e6420616e646142208201527f207769736820746f20636f6e74696e7565206174206d79206f776e207269736b6142408201527f2e3c2f627574746f6e3e272c646f63756d656e742e626f64792e617070656e646142608201527f4368696c642865297d66756e6374696f6e20636c6f7365506f70757028297b766142808201527f617220653d646f63756d656e742e676574456c656d656e7442794964282773616142a08201527f666172692d706f70757027292c6e3d646f63756d656e742e676574456c656d656142c08201527f6e744279496428277361666172692d62616e6e657227293b6526262873686f756142e08201527f6c644c6f616444726177696e673d21302c652e7374796c652e646973706c61796143008201527f3d276e6f6e65272c6e2e7374796c652e646973706c61793d276e6f6e6527297d6143208201527f736574496e74657276616c282866756e6374696f6e28297b6966282169734c6f6143408201527f61646564297b69734c6f616465643d21302c72657175657374416e696d6174696143608201527f6f6e4672616d6528616464506f74656e7469616c506f707570292c72657175656143808201527f7374416e696d6174696f6e4672616d65282866756e6374696f6e28297b6966286143a08201527f69735361666172692829297b636f6e737420653d646f63756d656e742e6372656143c08201527f617465456c656d656e74282764697627293b652e7374796c652e706f736974696143e08201527f6f6e3d276669786564272c652e7374796c652e626f74746f6d3d2730272c652e6144008201527f7374796c652e6c6566743d2730272c652e7374796c652e77696474683d2731306144208201527f3025272c652e7374796c652e6261636b67726f756e64436f6c6f723d277265646144408201527f272c652e7374796c652e636f6c6f723d277768697465272c652e7374796c652e6144608201527f74657874416c69676e3d2763656e746572272c652e7374796c652e70616464696144808201527f6e673d2731307078272c652e7374796c652e7a496e6465783d2731303030272c6144a08201527f652e636c6173734e616d653d277361666172692d62616e6e6572272c646f63756144c08201527f6d656e742e626f64792e617070656e644368696c642865292c646f63756d656e6144e08201527f742e676574456c656d656e744279496428277361666172692d706f70757027296145008201527f2e7374796c652e646973706c61793d27626c6f636b277d656c73652073686f756145208201527f6c644c6f616444726177696e673d21307d29293b6c657420653d736574496e746145408201527f657276616c282866756e6374696f6e28297b73686f756c644c6f6164447261776145608201527f696e6726266173796e632066756e6374696f6e28297b636c656172496e7465726145808201527f76616c2865292c6177616974206e65772050726f6d6973652828653d3e7365746145a08201527f54696d656f757428652c3230302929292c6177616974206472617728297d28296145c08201527f7d292c313030297d7d292c316533293b3c2f7363726970743e3c2f686561643e6145e082015250565b5f615a6161460083610342565b9150615a6c8261050a565b61460082019050919050565b5f615a828261039a565b9150615a8e82876103c5565b602082019150615a9d82610404565b9150615aa98286610426565b9150615ab48261047e565b9150615ac082856104a9565b602082019150615acf826104e8565b9150615adb82846103c5565b602082019150615aea82615a54565b91508190509594505050505056fea26469706673582212206ca795ff32bdc0b9c181501a0aee576a0e4159809c05d170f37c4aa0238d012364736f6c63430008190033",
					"opcodes": "PUSH1 0x80 PUSH1 0x40 MSTORE CALLVALUE DUP1 ISZERO PUSH1 0xE JUMPI PUSH0 DUP1 REVERT JUMPDEST POP PUSH2 0x5B2E DUP1 PUSH2 0x1C PUSH0 CODECOPY PUSH0 RETURN INVALID PUSH1 0x80 PUSH1 0x40 MSTORE CALLVALUE DUP1 ISZERO PUSH2 0xF JUMPI PUSH0 DUP1 REVERT JUMPDEST POP PUSH1 0x4 CALLDATASIZE LT PUSH2 0x29 JUMPI PUSH0 CALLDATALOAD PUSH1 0xE0 SHR DUP1 PUSH4 0x5E9FF849 EQ PUSH2 0x2D JUMPI JUMPDEST PUSH0 DUP1 REVERT JUMPDEST PUSH2 0x47 PUSH1 0x4 DUP1 CALLDATASIZE SUB DUP2 ADD SWAP1 PUSH2 0x42 SWAP2 SWAP1 PUSH2 0x242 JUMP JUMPDEST PUSH2 0x5D JUMP JUMPDEST PUSH1 0x40 MLOAD PUSH2 0x54 SWAP2 SWAP1 PUSH2 0x322 JUMP JUMPDEST PUSH1 0x40 MLOAD DUP1 SWAP2 SUB SWAP1 RETURN JUMPDEST PUSH1 0x60 DUP4 DUP3 DUP5 DUP8 PUSH1 0x40 MLOAD PUSH1 0x20 ADD PUSH2 0x76 SWAP5 SWAP4 SWAP3 SWAP2 SWAP1 PUSH2 0x5A78 JUMP JUMPDEST PUSH1 0x40 MLOAD PUSH1 0x20 DUP2 DUP4 SUB SUB DUP2 MSTORE SWAP1 PUSH1 0x40 MSTORE SWAP1 POP SWAP5 SWAP4 POP POP POP POP JUMP JUMPDEST PUSH0 PUSH1 0x40 MLOAD SWAP1 POP SWAP1 JUMP JUMPDEST PUSH0 DUP1 REVERT JUMPDEST PUSH0 DUP1 REVERT JUMPDEST PUSH0 DUP2 SWAP1 POP SWAP2 SWAP1 POP JUMP JUMPDEST PUSH2 0xB2 DUP2 PUSH2 0xA0 JUMP JUMPDEST DUP2 EQ PUSH2 0xBC JUMPI PUSH0 DUP1 REVERT JUMPDEST POP JUMP JUMPDEST PUSH0 DUP2 CALLDATALOAD SWAP1 POP PUSH2 0xCD DUP2 PUSH2 0xA9 JUMP JUMPDEST SWAP3 SWAP2 POP POP JUMP JUMPDEST PUSH0 DUP2 SWAP1 POP SWAP2 SWAP1 POP JUMP JUMPDEST PUSH2 0xE5 DUP2 PUSH2 0xD3 JUMP JUMPDEST DUP2 EQ PUSH2 0xEF JUMPI PUSH0 DUP1 REVERT JUMPDEST POP JUMP JUMPDEST PUSH0 DUP2 CALLDATALOAD SWAP1 POP PUSH2 0x100 DUP2 PUSH2 0xDC JUMP JUMPDEST SWAP3 SWAP2 POP POP JUMP JUMPDEST PUSH0 DUP1 REVERT JUMPDEST PUSH0 DUP1 REVERT JUMPDEST PUSH0 PUSH1 0x1F NOT PUSH1 0x1F DUP4 ADD AND SWAP1 POP SWAP2 SWAP1 POP JUMP JUMPDEST PUSH32 0x4E487B7100000000000000000000000000000000000000000000000000000000 PUSH0 MSTORE PUSH1 0x41 PUSH1 0x4 MSTORE PUSH1 0x24 PUSH0 REVERT JUMPDEST PUSH2 0x154 DUP3 PUSH2 0x10E JUMP JUMPDEST DUP2 ADD DUP2 DUP2 LT PUSH8 0xFFFFFFFFFFFFFFFF DUP3 GT OR ISZERO PUSH2 0x173 JUMPI PUSH2 0x172 PUSH2 0x11E JUMP JUMPDEST JUMPDEST DUP1 PUSH1 0x40 MSTORE POP POP POP JUMP JUMPDEST PUSH0 PUSH2 0x185 PUSH2 0x8F JUMP JUMPDEST SWAP1 POP PUSH2 0x191 DUP3 DUP3 PUSH2 0x14B JUMP JUMPDEST SWAP2 SWAP1 POP JUMP JUMPDEST PUSH0 PUSH8 0xFFFFFFFFFFFFFFFF DUP3 GT ISZERO PUSH2 0x1B0 JUMPI PUSH2 0x1AF PUSH2 0x11E JUMP JUMPDEST JUMPDEST PUSH2 0x1B9 DUP3 PUSH2 0x10E JUMP JUMPDEST SWAP1 POP PUSH1 0x20 DUP2 ADD SWAP1 POP SWAP2 SWAP1 POP JUMP JUMPDEST DUP3 DUP2 DUP4 CALLDATACOPY PUSH0 DUP4 DUP4 ADD MSTORE POP POP POP JUMP JUMPDEST PUSH0 PUSH2 0x1E6 PUSH2 0x1E1 DUP5 PUSH2 0x196 JUMP JUMPDEST PUSH2 0x17C JUMP JUMPDEST SWAP1 POP DUP3 DUP2 MSTORE PUSH1 0x20 DUP2 ADD DUP5 DUP5 DUP5 ADD GT ISZERO PUSH2 0x202 JUMPI PUSH2 0x201 PUSH2 0x10A JUMP JUMPDEST JUMPDEST PUSH2 0x20D DUP5 DUP3 DUP6 PUSH2 0x1C6 JUMP JUMPDEST POP SWAP4 SWAP3 POP POP POP JUMP JUMPDEST PUSH0 DUP3 PUSH1 0x1F DUP4 ADD SLT PUSH2 0x229 JUMPI PUSH2 0x228 PUSH2 0x106 JUMP JUMPDEST JUMPDEST DUP2 CALLDATALOAD PUSH2 0x239 DUP5 DUP3 PUSH1 0x20 DUP7 ADD PUSH2 0x1D4 JUMP JUMPDEST SWAP2 POP POP SWAP3 SWAP2 POP POP JUMP JUMPDEST PUSH0 DUP1 PUSH0 DUP1 PUSH1 0x80 DUP6 DUP8 SUB SLT ISZERO PUSH2 0x25A JUMPI PUSH2 0x259 PUSH2 0x98 JUMP JUMPDEST JUMPDEST PUSH0 PUSH2 0x267 DUP8 DUP3 DUP9 ADD PUSH2 0xBF JUMP JUMPDEST SWAP5 POP POP PUSH1 0x20 PUSH2 0x278 DUP8 DUP3 DUP9 ADD PUSH2 0xBF JUMP JUMPDEST SWAP4 POP POP PUSH1 0x40 PUSH2 0x289 DUP8 DUP3 DUP9 ADD PUSH2 0xF2 JUMP JUMPDEST SWAP3 POP POP PUSH1 0x60 DUP6 ADD CALLDATALOAD PUSH8 0xFFFFFFFFFFFFFFFF DUP2 GT ISZERO PUSH2 0x2AA JUMPI PUSH2 0x2A9 PUSH2 0x9C JUMP JUMPDEST JUMPDEST PUSH2 0x2B6 DUP8 DUP3 DUP9 ADD PUSH2 0x215 JUMP JUMPDEST SWAP2 POP POP SWAP3 SWAP6 SWAP2 SWAP5 POP SWAP3 POP JUMP JUMPDEST PUSH0 DUP2 MLOAD SWAP1 POP SWAP2 SWAP1 POP JUMP JUMPDEST PUSH0 DUP3 DUP3 MSTORE PUSH1 0x20 DUP3 ADD SWAP1 POP SWAP3 SWAP2 POP POP JUMP JUMPDEST DUP3 DUP2 DUP4 MCOPY PUSH0 DUP4 DUP4 ADD MSTORE POP POP POP JUMP JUMPDEST PUSH0 PUSH2 0x2F4 DUP3 PUSH2 0x2C2 JUMP JUMPDEST PUSH2 0x2FE DUP2 DUP6 PUSH2 0x2CC JUMP JUMPDEST SWAP4 POP PUSH2 0x30E DUP2 DUP6 PUSH1 0x20 DUP7 ADD PUSH2 0x2DC JUMP JUMPDEST PUSH2 0x317 DUP2 PUSH2 0x10E JUMP JUMPDEST DUP5 ADD SWAP2 POP POP SWAP3 SWAP2 POP POP JUMP JUMPDEST PUSH0 PUSH1 0x20 DUP3 ADD SWAP1 POP DUP2 DUP2 SUB PUSH0 DUP4 ADD MSTORE PUSH2 0x33A DUP2 DUP5 PUSH2 0x2EA JUMP JUMPDEST SWAP1 POP SWAP3 SWAP2 POP POP JUMP JUMPDEST PUSH0 DUP2 SWAP1 POP SWAP3 SWAP2 POP POP JUMP JUMPDEST PUSH32 0x3C73637269707420747970653D276170706C69636174696F6E2F6A6176617363 PUSH0 DUP3 ADD MSTORE PUSH32 0x72697074273E6C657420636F6C6F723D636F6C6F72735B000000000000000000 PUSH1 0x20 DUP3 ADD MSTORE POP JUMP JUMPDEST PUSH0 PUSH2 0x3A6 PUSH1 0x37 DUP4 PUSH2 0x342 JUMP JUMPDEST SWAP2 POP PUSH2 0x3B1 DUP3 PUSH2 0x34C JUMP JUMPDEST PUSH1 0x37 DUP3 ADD SWAP1 POP SWAP2 SWAP1 POP JUMP JUMPDEST PUSH0 DUP2 SWAP1 POP SWAP2 SWAP1 POP JUMP JUMPDEST PUSH2 0x3D6 PUSH2 0x3D1 DUP3 PUSH2 0xA0 JUMP JUMPDEST PUSH2 0x3BC JUMP JUMPDEST DUP3 MSTORE POP POP JUMP JUMPDEST PUSH32 0x5D2C6D6F6F643D7061727365496E742827000000000000000000000000000000 PUSH0 DUP3 ADD MSTORE POP JUMP JUMPDEST PUSH0 PUSH2 0x410 PUSH1 0x11 DUP4 PUSH2 0x342 JUMP JUMPDEST SWAP2 POP PUSH2 0x41B DUP3 PUSH2 0x3DC JUMP JUMPDEST PUSH1 0x11 DUP3 ADD SWAP1 POP SWAP2 SWAP1 POP JUMP JUMPDEST PUSH0 PUSH2 0x430 DUP3 PUSH2 0x2C2 JUMP JUMPDEST PUSH2 0x43A DUP2 DUP6 PUSH2 0x342 JUMP JUMPDEST SWAP4 POP PUSH2 0x44A DUP2 DUP6 PUSH1 0x20 DUP7 ADD PUSH2 0x2DC JUMP JUMPDEST DUP1 DUP5 ADD SWAP2 POP POP SWAP3 SWAP2 POP POP JUMP JUMPDEST PUSH32 0x27292C746F6B656E446174613D7B686173683A27000000000000000000000000 PUSH0 DUP3 ADD MSTORE POP JUMP JUMPDEST PUSH0 PUSH2 0x48A PUSH1 0x14 DUP4 PUSH2 0x342 JUMP JUMPDEST SWAP2 POP PUSH2 0x495 DUP3 PUSH2 0x456 JUMP JUMPDEST PUSH1 0x14 DUP3 ADD SWAP1 POP SWAP2 SWAP1 POP JUMP JUMPDEST PUSH0 DUP2 SWAP1 POP SWAP2 SWAP1 POP JUMP JUMPDEST PUSH2 0x4BA PUSH2 0x4B5 DUP3 PUSH2 0xD3 JUMP JUMPDEST PUSH2 0x4A0 JUMP JUMPDEST DUP3 MSTORE POP POP JUMP JUMPDEST PUSH32 0x272C746F6B656E49643A27000000000000000000000000000000000000000000 PUSH0 DUP3 ADD MSTORE POP JUMP JUMPDEST PUSH0 PUSH2 0x4F4 PUSH1 0xB DUP4 PUSH2 0x342 JUMP JUMPDEST SWAP2 POP PUSH2 0x4FF DUP3 PUSH2 0x4C0 JUMP JUMPDEST PUSH1 0xB DUP3 ADD SWAP1 POP SWAP2 SWAP1 POP JUMP JUMPDEST PUSH32 0x277D2C73686F756C644C6F616444726177696E673D21313B636F6E7374206472 PUSH0 DUP3 ADD MSTORE PUSH32 0x61773D6173796E632066756E6374696F6E28297B72657175657374416E696D61 PUSH1 0x20 DUP3 ADD MSTORE PUSH32 0x74696F6E4672616D65282866756E6374696F6E28297B6164644C6F6164657228 PUSH1 0x40 DUP3 ADD MSTORE PUSH32 0x2727297D29292C6177616974206E65772050726F6D6973652828653D3E736574 PUSH1 0x60 DUP3 ADD MSTORE PUSH32 0x54696D656F757428652C3230302929292C72657175657374416E696D6174696F PUSH1 0x80 DUP3 ADD MSTORE PUSH32 0x6E4672616D65282866756E6374696F6E28297B7570646174654C6F6164657228 PUSH1 0xA0 DUP3 ADD MSTORE PUSH32 0x274C6F6164696E67207661726961626C657327297D29292C6177616974206E65 PUSH1 0xC0 DUP3 ADD MSTORE PUSH32 0x772050726F6D6973652828653D3E73657454696D656F757428652C3230302929 PUSH1 0xE0 DUP3 ADD MSTORE PUSH32 0x293B636F6E737420653D6E657720636C6173737B636F6E7374727563746F7228 PUSH2 0x100 DUP3 ADD MSTORE PUSH32 0x297B746869732E757365413D21313B6C657420653D66756E6374696F6E286529 PUSH2 0x120 DUP3 ADD MSTORE PUSH32 0x7B6C6574206E3D7061727365496E7428652E73756273747228302C38292C3136 PUSH2 0x140 DUP3 ADD MSTORE PUSH32 0x292C743D7061727365496E7428652E73756273747228382C38292C3136292C6F PUSH2 0x160 DUP3 ADD MSTORE PUSH32 0x3D7061727365496E7428652E7375627374722831362C38292C3136292C613D70 PUSH2 0x180 DUP3 ADD MSTORE PUSH32 0x61727365496E7428652E7375627374722832342C38292C3136293B7265747572 PUSH2 0x1A0 DUP3 ADD MSTORE PUSH32 0x6E2066756E6374696F6E28297B6E7C3D302C747C3D302C6F7C3D302C617C3D30 PUSH2 0x1C0 DUP3 ADD MSTORE PUSH32 0x3B6C657420653D286E2B747C30292B617C303B72657475726E20613D612B317C PUSH2 0x1E0 DUP3 ADD MSTORE PUSH32 0x302C6E3D745E743E3E3E392C743D6F2B286F3C3C33297C302C6F3D6F3C3C3231 PUSH2 0x200 DUP3 ADD MSTORE PUSH32 0x7C6F3E3E3E31312C6F3D6F2B657C302C28653E3E3E30292F3432393439363732 PUSH2 0x220 DUP3 ADD MSTORE PUSH32 0x39367D7D3B746869732E70726E67413D6E6577206528746F6B656E446174612E PUSH2 0x240 DUP3 ADD MSTORE PUSH32 0x686173682E73756273747228322C333229292C746869732E70726E67423D6E65 PUSH2 0x260 DUP3 ADD MSTORE PUSH32 0x77206528746F6B656E446174612E686173682E7375627374722833342C333229 PUSH2 0x280 DUP3 ADD MSTORE PUSH32 0x293B666F72286C657420653D303B653C3165363B652B3D3229746869732E7072 PUSH2 0x2A0 DUP3 ADD MSTORE PUSH32 0x6E674128292C746869732E70726E674228297D72616E646F6D5F64656328297B PUSH2 0x2C0 DUP3 ADD MSTORE PUSH32 0x72657475726E20746869732E757365413D21746869732E757365412C74686973 PUSH2 0x2E0 DUP3 ADD MSTORE PUSH32 0x2E757365413F746869732E70726E674128293A746869732E70726E674228297D PUSH2 0x300 DUP3 ADD MSTORE PUSH32 0x72616E646F6D5F6E756D28652C6E297B72657475726E20652B286E2D65292A74 PUSH2 0x320 DUP3 ADD MSTORE PUSH32 0x6869732E72616E646F6D5F64656328297D72616E646F6D5F696E7428652C6E29 PUSH2 0x340 DUP3 ADD MSTORE PUSH32 0x7B72657475726E204D6174682E666C6F6F7228746869732E72616E646F6D5F6E PUSH2 0x360 DUP3 ADD MSTORE PUSH32 0x756D28652C6E2B3129297D72616E646F6D5F626F6F6C2865297B72657475726E PUSH2 0x380 DUP3 ADD MSTORE PUSH32 0x20746869732E72616E646F6D5F64656328293C657D72616E646F6D5F63686F69 PUSH2 0x3A0 DUP3 ADD MSTORE PUSH32 0x63652865297B72657475726E20655B746869732E72616E646F6D5F696E742830 PUSH2 0x3C0 DUP3 ADD MSTORE PUSH32 0x2C652E6C656E6774682D31295D7D7D2C6E3D5B7B77696474683A3130302C6865 PUSH2 0x3E0 DUP3 ADD MSTORE PUSH32 0x696768743A3130307D2C7B77696474683A332C6865696768743A347D2C7B7769 PUSH2 0x400 DUP3 ADD MSTORE PUSH32 0x6474683A392C6865696768743A31367D2C7B77696474683A312C686569676874 PUSH2 0x420 DUP3 ADD MSTORE PUSH32 0x3A317D5D3B6C657420743D303B636F6E7374206F3D646F63756D656E742E6372 PUSH2 0x440 DUP3 ADD MSTORE PUSH32 0x65617465456C656D656E7428277374796C6527293B6F2E696E6E657248544D4C PUSH2 0x460 DUP3 ADD MSTORE PUSH32 0x3D270A626F6479207B0A202020206D617267696E2D746F703A20303B0A202020 PUSH2 0x480 DUP3 ADD MSTORE PUSH32 0x20646973706C61793A20666C65783B0A202020206A7573746966792D636F6E74 PUSH2 0x4A0 DUP3 ADD MSTORE PUSH32 0x656E743A2063656E7465723B0A20202020616C69676E2D6974656D733A206365 PUSH2 0x4C0 DUP3 ADD MSTORE PUSH32 0x6E7465723B0A202020206261636B67726F756E642D636F6C6F723A2023464646 PUSH2 0x4E0 DUP3 ADD MSTORE PUSH32 0x4645313B0A7D0A0A737667207B0A202020206865696768743A2031303076683B PUSH2 0x500 DUP3 ADD MSTORE PUSH32 0xA2020202077696474683A2031303076773B0A2020202070616464696E673A20 PUSH2 0x520 DUP3 ADD MSTORE PUSH32 0x30766D696E3B0A20202020626F782D736861646F773A202E35766D696E202E35 PUSH2 0x540 DUP3 ADD MSTORE PUSH32 0x766D696E2031766D696E207267626128302C20302C20302C20302E35293B0A20 PUSH2 0x560 DUP3 ADD MSTORE PUSH32 0x202020626F782D73697A696E673A20626F726465722D626F783B0A7D0A272C64 PUSH2 0x580 DUP3 ADD MSTORE PUSH32 0x6F63756D656E742E686561642E617070656E644368696C64286F293B636F6E73 PUSH2 0x5A0 DUP3 ADD MSTORE PUSH32 0x7420613D646F63756D656E742E637265617465456C656D656E744E5328276874 PUSH2 0x5C0 DUP3 ADD MSTORE PUSH32 0x74703A2F2F7777772E77332E6F72672F323030302F737667272C277376672729 PUSH2 0x5E0 DUP3 ADD MSTORE PUSH32 0x3B612E73657441747472696275746528276964272C276D7953766727292C612E PUSH2 0x600 DUP3 ADD MSTORE PUSH32 0x736574417474726962757465282776696577426F78272C273020302031303020 PUSH2 0x620 DUP3 ADD MSTORE PUSH32 0x31303027292C646F63756D656E742E626F64792E617070656E644368696C6428 PUSH2 0x640 DUP3 ADD MSTORE PUSH32 0x61292C736574526174696F286E2C74293B6C657420722C692C732C642C632C6C PUSH2 0x660 DUP3 ADD MSTORE PUSH32 0x2C6D2C752C682C5F2C792C662C702C672C622C242C772C6B2C762C782C412C4C PUSH2 0x680 DUP3 ADD MSTORE PUSH32 0x2C532C452C432C462C542C492C422C502C712C522C4D2C4E2C442C483D646F63 PUSH2 0x6A0 DUP3 ADD MSTORE PUSH32 0x756D656E742E676574456C656D656E744279496428276D7953766727292C473D PUSH2 0x6C0 DUP3 ADD MSTORE PUSH32 0x21312C553D302C7A3D27272C4F3D66756E6374696F6E28297B7D2C563D66756E PUSH2 0x6E0 DUP3 ADD MSTORE PUSH32 0x6374696F6E28297B7D2C6A3D66756E6374696F6E2865297B7D2C573D27272C4B PUSH2 0x700 DUP3 ADD MSTORE PUSH32 0x3D66696E644E616D654279436F6C6F7228636F6C6F725B305D2E737562283129 PUSH2 0x720 DUP3 ADD MSTORE PUSH32 0x2C636F6C6F724E616D6573293B73776974636828646F63756D656E742E676574 PUSH2 0x740 DUP3 ADD MSTORE PUSH32 0x456C656D656E747342795461674E616D652827626F647927295B305D2E737479 PUSH2 0x760 DUP3 ADD MSTORE PUSH32 0x6C652E6261636B67726F756E64436F6C6F723D2723272B636F6C6F725B305D2C PUSH2 0x780 DUP3 ADD MSTORE PUSH32 0x72657175657374416E696D6174696F6E4672616D65282866756E6374696F6E28 PUSH2 0x7A0 DUP3 ADD MSTORE PUSH32 0x297B7570646174654C6F6164657228274C6F6164696E67207661726961626C65 PUSH2 0x7C0 DUP3 ADD MSTORE PUSH32 0x7327297D29292C66756E6374696F6E28297B73776974636828643D652E72616E PUSH2 0x7E0 DUP3 ADD MSTORE PUSH32 0x646F6D5F63686F696365285B302C322C332C342C322C305D292C553D652E7261 PUSH2 0x800 DUP3 ADD MSTORE PUSH32 0x6E646F6D5F626F6F6C282E35293F652E72616E646F6D5F6E756D282D36302C36 PUSH2 0x820 DUP3 ADD MSTORE PUSH32 0x30293A652E72616E646F6D5F696E74282D352C35292C623D652E72616E646F6D PUSH2 0x840 DUP3 ADD MSTORE PUSH32 0x5F626F6F6C282E35292C783D652E72616E646F6D5F63686F696365285B312C2D PUSH2 0x860 DUP3 ADD MSTORE PUSH32 0x315D292C413D652E72616E646F6D5F63686F696365285B312C2D315D292C6A3D PUSH2 0x880 DUP3 ADD MSTORE PUSH32 0x66756E6374696F6E286E297B72657475726E20652E72616E646F6D5F63686F69 PUSH2 0x8A0 DUP3 ADD MSTORE PUSH32 0x636528636F6C6F72297D2C6D6F6F64297B6361736520303A693D312C733D382C PUSH2 0x8C0 DUP3 ADD MSTORE PUSH32 0x673D352C443D3130302C723D2E322C243D2E30332C6C3D332C633D652E72616E PUSH2 0x8E0 DUP3 ADD MSTORE PUSH32 0x646F6D5F696E74283830302C31313030292C6D3D632F6C2C683D6D2F322C412A PUSH2 0x900 DUP3 ADD MSTORE PUSH32 0x3D322C782A3D322C753D2E30362C773D652E72616E646F6D5F696E7428313030 PUSH2 0x920 DUP3 ADD MSTORE PUSH32 0x2C383030292C553D652E72616E646F6D5F63686F696365285B2D34352C34355D PUSH2 0x940 DUP3 ADD MSTORE PUSH32 0x293B627265616B3B6361736520313A693D31352C733D31302C673D362C443D35 PUSH2 0x960 DUP3 ADD MSTORE PUSH32 0x302C723D2E3032352C243D2E30332C6C3D652E72616E646F6D5F6E756D28322C PUSH2 0x980 DUP3 ADD MSTORE PUSH32 0x34292C633D652E72616E646F6D5F696E74283830302C31323030292C6D3D632F PUSH2 0x9A0 DUP3 ADD MSTORE PUSH32 0x6C2C683D6D2F652E72616E646F6D5F696E7428362C3135292C753D2E30362C77 PUSH2 0x9C0 DUP3 ADD MSTORE PUSH32 0x3D652E72616E646F6D5F696E74283130302C383030292C553D652E72616E646F PUSH2 0x9E0 DUP3 ADD MSTORE PUSH32 0x6D5F63686F696365285B2D34352C34355D292C623D21303B627265616B3B6361 PUSH2 0xA00 DUP3 ADD MSTORE PUSH32 0x736520323A693D332C733D352C673D362C443D35302C723D2E3034352C243D2E PUSH2 0xA20 DUP3 ADD MSTORE PUSH32 0x30342C6C3D652E72616E646F6D5F6E756D28322C34292C633D652E72616E646F PUSH2 0xA40 DUP3 ADD MSTORE PUSH32 0x6D5F696E74283830302C31323030292C6D3D632F6C2C683D6D2F32302C753D2E PUSH2 0xA60 DUP3 ADD MSTORE PUSH32 0x30362C773D652E72616E646F6D5F696E74283130302C383030292C553D652E72 PUSH2 0xA80 DUP3 ADD MSTORE PUSH32 0x616E646F6D5F63686F696365285B2D34352C34355D292C623D21303B62726561 PUSH2 0xAA0 DUP3 ADD MSTORE PUSH32 0x6B3B6361736520333A693D31352C733D322C673D362C443D35302C723D2E3033 PUSH2 0xAC0 DUP3 ADD MSTORE PUSH32 0x2C243D2E30342C6C3D332C633D652E72616E646F6D5F696E74283830302C3132 PUSH2 0xAE0 DUP3 ADD MSTORE PUSH32 0x3030292C6D3D632F6C2C683D6D2F31302C753D2E30362C553D652E72616E646F PUSH2 0xB00 DUP3 ADD MSTORE PUSH32 0x6D5F63686F696365285B2D34352C34355D292C773D652E72616E646F6D5F696E PUSH2 0xB20 DUP3 ADD MSTORE PUSH32 0x74283130302C383030293B627265616B3B6361736520343A693D332C733D332C PUSH2 0xB40 DUP3 ADD MSTORE PUSH32 0x673D352C443D31302C723D2E30362C243D2E3030392C6C3D652E72616E646F6D PUSH2 0xB60 DUP3 ADD MSTORE PUSH32 0x5F6E756D28322C34292C633D652E72616E646F6D5F696E74283830302C313230 PUSH2 0xB80 DUP3 ADD MSTORE PUSH32 0x30292C6D3D632F6C2C683D6D2F332C753D2E30362C773D652E72616E646F6D5F PUSH2 0xBA0 DUP3 ADD MSTORE PUSH32 0x696E74283130302C383030292C553D652E72616E646F6D5F63686F696365285B PUSH2 0xBC0 DUP3 ADD MSTORE PUSH32 0x2D34352C34355D293B627265616B3B6361736520353A693D332C733D332C673D PUSH2 0xBE0 DUP3 ADD MSTORE PUSH32 0x31302C443D3130302C723D2E30342C243D2E30342C6C3D652E72616E646F6D5F PUSH2 0xC00 DUP3 ADD MSTORE PUSH32 0x6E756D28322C34292C633D652E72616E646F6D5F696E74283830302C31323030 PUSH2 0xC20 DUP3 ADD MSTORE PUSH32 0x292C6D3D632F6C2C683D6D2C753D2E30362C773D652E72616E646F6D5F696E74 PUSH2 0xC40 DUP3 ADD MSTORE PUSH32 0x283130302C383030292C553D652E72616E646F6D5F63686F696365285B2D3435 PUSH2 0xC60 DUP3 ADD MSTORE PUSH32 0x2C34355D293B627265616B3B6361736520363A693D332C733D312C673D31302C PUSH2 0xC80 DUP3 ADD MSTORE PUSH32 0x443D3130302C723D2E30342C243D2E30342C6C3D652E72616E646F6D5F6E756D PUSH2 0xCA0 DUP3 ADD MSTORE PUSH32 0x28322C34292C633D652E72616E646F6D5F696E74283830302C31323030292C6D PUSH2 0xCC0 DUP3 ADD MSTORE PUSH32 0x3D632F6C2C683D6D2C753D2E30362C773D652E72616E646F6D5F696E74283130 PUSH2 0xCE0 DUP3 ADD MSTORE PUSH32 0x302C383030292C553D652E72616E646F6D5F63686F696365285B2D34352C3435 PUSH2 0xD00 DUP3 ADD MSTORE PUSH32 0x5D293B627265616B3B6361736520373A693D312C733D322C673D352C443D3430 PUSH2 0xD20 DUP3 ADD MSTORE PUSH32 0x2C723D652E72616E646F6D5F63686F696365285B2E30362C2E30372C2E30382C PUSH2 0xD40 DUP3 ADD MSTORE PUSH32 0x2E30392C2E315D292C243D652E72616E646F6D5F63686F696365285B39652D34 PUSH2 0xD60 DUP3 ADD MSTORE PUSH32 0x2C38652D342C2E3030315D292C6C3D652E72616E646F6D5F6E756D28322C3429 PUSH2 0xD80 DUP3 ADD MSTORE PUSH32 0x2C633D652E72616E646F6D5F696E74283830302C31323030292C6D3D632F6C2C PUSH2 0xDA0 DUP3 ADD MSTORE PUSH32 0x683D322A6D2C753D2E30362C773D652E72616E646F6D5F696E74283130302C38 PUSH2 0xDC0 DUP3 ADD MSTORE PUSH32 0x3030292C553D652E72616E646F6D5F63686F696365285B2D34352C34355D292C PUSH2 0xDE0 DUP3 ADD MSTORE PUSH32 0x643D652E72616E646F6D5F63686F696365285B302C312C322C335D293B627265 PUSH2 0xE00 DUP3 ADD MSTORE PUSH32 0x616B3B6361736520383A693D312C733D312C673D31352C443D38302C723D2E30 PUSH2 0xE20 DUP3 ADD MSTORE PUSH32 0x392C243D2E30342C6C3D652E72616E646F6D5F6E756D28322C34292C633D652E PUSH2 0xE40 DUP3 ADD MSTORE PUSH32 0x72616E646F6D5F696E74283430302C353030292C6D3D632F6C2C683D382A6D2C PUSH2 0xE60 DUP3 ADD MSTORE PUSH32 0x753D2E30362C773D652E72616E646F6D5F696E74283130302C383030292C553D PUSH2 0xE80 DUP3 ADD MSTORE PUSH32 0x652E72616E646F6D5F63686F696365285B2D34352C34355D293B627265616B3B PUSH2 0xEA0 DUP3 ADD MSTORE PUSH32 0x6361736520393A693D392C733D312C673D35302C443D652E72616E646F6D5F69 PUSH2 0xEC0 DUP3 ADD MSTORE PUSH32 0x6E742835302C313030292C723D2E3030312C243D2E30362C6C3D652E72616E64 PUSH2 0xEE0 DUP3 ADD MSTORE PUSH32 0x6F6D5F6E756D28322C34292C633D3165332C6D3D632F6C2C683D31302A6D2C75 PUSH2 0xF00 DUP3 ADD MSTORE PUSH32 0x3D2E30362C773D652E72616E646F6D5F696E74283330302C383030292C553D65 PUSH2 0xF20 DUP3 ADD MSTORE PUSH32 0x2E72616E646F6D5F63686F696365285B2D34352C34355D293B627265616B3B63 PUSH2 0xF40 DUP3 ADD MSTORE PUSH32 0x6173652031303A693D352C733D312C673D35302C443D652E72616E646F6D5F69 PUSH2 0xF60 DUP3 ADD MSTORE PUSH32 0x6E742838302C313530292C723D2E3030312C243D2E30392C6C3D652E72616E64 PUSH2 0xF80 DUP3 ADD MSTORE PUSH32 0x6F6D5F6E756D28322C34292C633D3530302C6D3D632F6C2C683D31302A6D2C75 PUSH2 0xFA0 DUP3 ADD MSTORE PUSH32 0x3D2E30362C773D652E72616E646F6D5F696E74283330302C383030292C553D65 PUSH2 0xFC0 DUP3 ADD MSTORE PUSH32 0x2E72616E646F6D5F63686F696365285B2D34352C34355D293B627265616B3B63 PUSH2 0xFE0 DUP3 ADD MSTORE PUSH32 0x6173652031313A693D312C733D312C673D352C443D652E72616E646F6D5F6368 PUSH2 0x1000 DUP3 ADD MSTORE PUSH32 0x6F696365285B322C32305D292C723D2E332C243D2E30392C6C3D652E72616E64 PUSH2 0x1020 DUP3 ADD MSTORE PUSH32 0x6F6D5F6E756D28322C34292C633D31302C6D3D632F6C2C683D31302A6D2C753D PUSH2 0x1040 DUP3 ADD MSTORE PUSH32 0x652E72616E646F6D5F64656328292C773D652E72616E646F6D5F696E74283330 PUSH2 0x1060 DUP3 ADD MSTORE PUSH32 0x302C383030292C553D652E72616E646F6D5F63686F696365285B2D34352C3435 PUSH2 0x1080 DUP3 ADD MSTORE PUSH32 0x5D292C643D652E72616E646F6D5F63686F696365285B302C312C325D293B6272 PUSH2 0x10A0 DUP3 ADD MSTORE PUSH32 0x65616B3B636173652031323A693D31302C733D312C673D32302C443D31352C72 PUSH2 0x10C0 DUP3 ADD MSTORE PUSH32 0x3D2E312C243D2E3034352C6C3D652E72616E646F6D5F6E756D28322C34292C63 PUSH2 0x10E0 DUP3 ADD MSTORE PUSH32 0x3D652E72616E646F6D5F696E74283830302C31313030292C6D3D632F6C2C683D PUSH2 0x1100 DUP3 ADD MSTORE PUSH32 0x6D2F31302C753D2E30362C773D652E72616E646F6D5F696E74283130302C3830 PUSH2 0x1120 DUP3 ADD MSTORE PUSH32 0x30293B627265616B3B636173652031333A693D332C733D312C673D312C443D65 PUSH2 0x1140 DUP3 ADD MSTORE PUSH32 0x2E72616E646F6D5F696E742835302C313030292C723D2E30312C243D652E7261 PUSH2 0x1160 DUP3 ADD MSTORE PUSH32 0x6E646F6D5F6E756D282E30362C2E3039292C6C3D652E72616E646F6D5F6E756D PUSH2 0x1180 DUP3 ADD MSTORE PUSH32 0x28322C34292C633D652E72616E646F6D5F696E74283135302C323030292C6D3D PUSH2 0x11A0 DUP3 ADD MSTORE PUSH32 0x632F6C2C683D31302A6D2C753D2E30362C773D652E72616E646F6D5F696E7428 PUSH2 0x11C0 DUP3 ADD MSTORE PUSH32 0x3330302C383030292C553D652E72616E646F6D5F63686F696365285B2D34352C PUSH2 0x11E0 DUP3 ADD MSTORE PUSH32 0x34355D293B627265616B3B636173652031343A693D332C733D312C673D342C44 PUSH2 0x1200 DUP3 ADD MSTORE PUSH32 0x3D34302C723D2E312C243D2E30332C6C3D332C633D652E72616E646F6D5F696E PUSH2 0x1220 DUP3 ADD MSTORE PUSH32 0x74283730302C31313030292C6D3D632F6C2C683D6D2F652E72616E646F6D5F69 PUSH2 0x1240 DUP3 ADD MSTORE PUSH32 0x6E7428322C35292C753D2E30362C773D652E72616E646F6D5F696E7428313030 PUSH2 0x1260 DUP3 ADD MSTORE PUSH32 0x2C383030292C553D652E72616E646F6D5F63686F696365285B2D33302C33305D PUSH2 0x1280 DUP3 ADD MSTORE PUSH32 0x292C412A3D332C782A3D332C6A3D66756E6374696F6E2865297B72657475726E PUSH2 0x12A0 DUP3 ADD MSTORE PUSH32 0x20636F6C6F725B655D7D3B627265616B3B636173652031353A693D332C733D35 PUSH2 0x12C0 DUP3 ADD MSTORE PUSH32 0x2C673D332C443D33302C723D2E3032352C243D2E30332C6C3D652E72616E646F PUSH2 0x12E0 DUP3 ADD MSTORE PUSH32 0x6D5F6E756D28322C34292C633D652E72616E646F6D5F696E74283830302C3132 PUSH2 0x1300 DUP3 ADD MSTORE PUSH32 0x3030292C6D3D632F6C2C683D6D2F35302C753D2E30362C773D652E72616E646F PUSH2 0x1320 DUP3 ADD MSTORE PUSH32 0x6D5F696E74283130302C383030292C553D652E72616E646F6D5F63686F696365 PUSH2 0x1340 DUP3 ADD MSTORE PUSH32 0x285B2D34352C34355D292C623D21303B627265616B3B636173652031363A693D PUSH2 0x1360 DUP3 ADD MSTORE PUSH32 0x322C733D312C673D332C443D31302C723D2E3031352C243D2E332C6C3D652E72 PUSH2 0x1380 DUP3 ADD MSTORE PUSH32 0x616E646F6D5F6E756D28322C34292C633D652E72616E646F6D5F696E74283830 PUSH2 0x13A0 DUP3 ADD MSTORE PUSH32 0x302C31323030292C6D3D632F6C2C683D6D2F3130302C753D2E30362C773D652E PUSH2 0x13C0 DUP3 ADD MSTORE PUSH32 0x72616E646F6D5F696E74283130302C383030292C553D652E72616E646F6D5F63 PUSH2 0x13E0 DUP3 ADD MSTORE PUSH32 0x686F696365285B2D34352C34355D292C782A3D332C412A3D332C643D652E7261 PUSH2 0x1400 DUP3 ADD MSTORE PUSH32 0x6E646F6D5F63686F696365285B312C322C335D293B627265616B3B6361736520 PUSH2 0x1420 DUP3 ADD MSTORE PUSH32 0x31373A693D352C733D322C673D332C443D31302C723D2E3038352C243D2E352C PUSH2 0x1440 DUP3 ADD MSTORE PUSH32 0x6C3D652E72616E646F6D5F6E756D28322C34292C633D652E72616E646F6D5F69 PUSH2 0x1460 DUP3 ADD MSTORE PUSH32 0x6E74283830302C31323030292C6D3D632F6C2C683D6D2F3330302C753D2E3036 PUSH2 0x1480 DUP3 ADD MSTORE PUSH32 0x2C773D652E72616E646F6D5F696E74283130302C383030292C553D652E72616E PUSH2 0x14A0 DUP3 ADD MSTORE PUSH32 0x646F6D5F63686F696365285B2D34352C34355D292C782A3D332C412A3D332C64 PUSH2 0x14C0 DUP3 ADD MSTORE PUSH32 0x3D652E72616E646F6D5F63686F696365285B312C322C335D293B627265616B3B PUSH2 0x14E0 DUP3 ADD MSTORE PUSH32 0x636173652031383A693D312C733D312C673D352C443D3130302C723D2E312C24 PUSH2 0x1500 DUP3 ADD MSTORE PUSH32 0x3D2E312C6C3D332C633D652E72616E646F6D5F696E74283830302C3131303029 PUSH2 0x1520 DUP3 ADD MSTORE PUSH32 0x2C6D3D632F6C2C683D6D2F322C753D2E30362C773D652E72616E646F6D5F696E PUSH2 0x1540 DUP3 ADD MSTORE PUSH32 0x74283130302C383030292C553D652E72616E646F6D5F63686F696365285B2D34 PUSH2 0x1560 DUP3 ADD MSTORE PUSH32 0x352C34355D293B627265616B3B636173652031393A693D31302C733D312C673D PUSH2 0x1580 DUP3 ADD MSTORE PUSH32 0x362C443D31302C723D2E3032382C243D2E30322C6C3D342C633D652E72616E64 PUSH2 0x15A0 DUP3 ADD MSTORE PUSH32 0x6F6D5F696E74283830302C31313030292C6D3D632F6C2C683D6D2F332C753D2E PUSH2 0x15C0 DUP3 ADD MSTORE PUSH32 0x30362C773D652E72616E646F6D5F696E74283130302C383030292C553D652E72 PUSH2 0x15E0 DUP3 ADD MSTORE PUSH32 0x616E646F6D5F63686F696365285B2D34352C34355D293B627265616B3B636173 PUSH2 0x1600 DUP3 ADD MSTORE PUSH32 0x652032303A693D31352C733D31302C673D362C443D3130302C723D2E30332C24 PUSH2 0x1620 DUP3 ADD MSTORE PUSH32 0x3D2E30322C6C3D652E72616E646F6D5F6E756D28322C34292C633D652E72616E PUSH2 0x1640 DUP3 ADD MSTORE PUSH32 0x646F6D5F696E74283830302C31313030292C6D3D632F6C2C683D6D2F31302C75 PUSH2 0x1660 DUP3 ADD MSTORE PUSH32 0x3D2E30362C773D652E72616E646F6D5F696E74283130302C383030292C553D65 PUSH2 0x1680 DUP3 ADD MSTORE PUSH32 0x2E72616E646F6D5F63686F696365285B2D34352C34355D293B627265616B3B63 PUSH2 0x16A0 DUP3 ADD MSTORE PUSH32 0x6173652032313A693D382C733D312C673D31302C443D35302C723D2E3031352C PUSH2 0x16C0 DUP3 ADD MSTORE PUSH32 0x243D2E30322C6C3D332C633D652E72616E646F6D5F696E74283830302C313130 PUSH2 0x16E0 DUP3 ADD MSTORE PUSH32 0x30292C6D3D632F6C2C683D6D2F332C753D2E30362C773D652E72616E646F6D5F PUSH2 0x1700 DUP3 ADD MSTORE PUSH32 0x696E74283130302C383030292C553D652E72616E646F6D5F63686F696365285B PUSH2 0x1720 DUP3 ADD MSTORE PUSH32 0x2D34352C34355D293B627265616B3B636173652032323A693D332C733D31352C PUSH2 0x1740 DUP3 ADD MSTORE PUSH32 0x543D312C673D362C443D31302C723D2E30322C243D2E32352C493D2E30312C6C PUSH2 0x1760 DUP3 ADD MSTORE PUSH32 0x3D342C633D652E72616E646F6D5F696E74283530302C31313030292C6D3D632F PUSH2 0x1780 DUP3 ADD MSTORE PUSH32 0x6C2C683D6D2F38302C5F3D6D2F33302C753D2E30362C773D652E72616E646F6D PUSH2 0x17A0 DUP3 ADD MSTORE PUSH32 0x5F696E74283130302C383030292C553D652E72616E646F6D5F63686F69636528 PUSH2 0x17C0 DUP3 ADD MSTORE PUSH32 0x5B2D34352C34355D292C473D21303B627265616B3B636173652032333A693D35 PUSH2 0x17E0 DUP3 ADD MSTORE PUSH32 0x2C733D312C543D31302C673D33302C443D3130302C723D2E30342C243D2E312C PUSH2 0x1800 DUP3 ADD MSTORE PUSH32 0x493D2E30312C6C3D332C633D652E72616E646F6D5F696E74283530302C313130 PUSH2 0x1820 DUP3 ADD MSTORE PUSH32 0x30292C6D3D632F6C2C683D332A6D2C5F3D6D2F35302C753D2E30362C773D652E PUSH2 0x1840 DUP3 ADD MSTORE PUSH32 0x72616E646F6D5F696E74283130302C383030292C553D652E72616E646F6D5F63 PUSH2 0x1860 DUP3 ADD MSTORE PUSH32 0x686F696365285B2D34352C34355D292C473D21303B627265616B3B6361736520 PUSH2 0x1880 DUP3 ADD MSTORE PUSH32 0x32343A693D312C733D352C543D31302C673D31302C443D31302C723D2E30312C PUSH2 0x18A0 DUP3 ADD MSTORE PUSH32 0x243D2E30392C493D2E30392C6C3D342C633D652E72616E646F6D5F696E742838 PUSH2 0x18C0 DUP3 ADD MSTORE PUSH32 0x30302C31313030292C6D3D632F6C2C683D6D2F3130302C5F3D332A6D2C753D2E PUSH2 0x18E0 DUP3 ADD MSTORE PUSH32 0x30362C773D652E72616E646F6D5F696E74283130302C383030292C553D652E72 PUSH2 0x1900 DUP3 ADD MSTORE PUSH32 0x616E646F6D5F63686F696365285B2D34352C34355D292C473D21302C643D652E PUSH2 0x1920 DUP3 ADD MSTORE PUSH32 0x72616E646F6D5F63686F696365285B322C305D293B627265616B3B6361736520 PUSH2 0x1940 DUP3 ADD MSTORE PUSH32 0x32353A693D332C733D332C543D31302C673D31302C443D33302C723D2E312C24 PUSH2 0x1960 DUP3 ADD MSTORE PUSH32 0x3D2E30312C493D2E312C6C3D352C633D652E72616E646F6D5F696E7428353030 PUSH2 0x1980 DUP3 ADD MSTORE PUSH32 0x2C31313030292C6D3D632F6C2C683D6D2C5F3D6D2F31302C753D2E30362C773D PUSH2 0x19A0 DUP3 ADD MSTORE PUSH32 0x652E72616E646F6D5F696E74283130302C383030292C553D652E72616E646F6D PUSH2 0x19C0 DUP3 ADD MSTORE PUSH32 0x5F63686F696365285B2D34352C34355D292C473D21303B627265616B3B636173 PUSH2 0x19E0 DUP3 ADD MSTORE PUSH32 0x652032363A693D332C733D332C543D362C673D31302C443D33302C723D2E312C PUSH2 0x1A00 DUP3 ADD MSTORE PUSH32 0x243D2E30312C493D2E312C6C3D352C633D652E72616E646F6D5F696E74283530 PUSH2 0x1A20 DUP3 ADD MSTORE PUSH32 0x302C31313030292C6D3D632F6C2C683D6D2C5F3D6D2F35302C753D2E30362C77 PUSH2 0x1A40 DUP3 ADD MSTORE PUSH32 0x3D652E72616E646F6D5F696E74283130302C383030292C553D652E72616E646F PUSH2 0x1A60 DUP3 ADD MSTORE PUSH32 0x6D5F63686F696365285B2D34352C34355D292C473D21307D552B3D343D3D3D64 PUSH2 0x1A80 DUP3 ADD MSTORE PUSH32 0x3F652E72616E646F6D5F63686F696365285B2D34352C34355D293A302C243D24 PUSH2 0x1AA0 DUP3 ADD MSTORE PUSH32 0x7C7C302C733D737C7C302C503D21312C713D21302C4D3D652E72616E646F6D5F PUSH2 0x1AC0 DUP3 ADD MSTORE PUSH32 0x63686F696365285B2E3939342C2E3939352C2E3939362C2E3939372C2E393938 PUSH2 0x1AE0 DUP3 ADD MSTORE PUSH32 0x5D292C4E3D312D652E72616E646F6D5F696E7428312C32292A4D2B312C4C3D2D PUSH2 0x1B00 DUP3 ADD MSTORE PUSH32 0x35302C533D3235302C453D2D3130302C433D3135302C763D28432D45292F342C PUSH2 0x1B20 DUP3 ADD MSTORE PUSH32 0x663D652E72616E646F6D5F696E7428452C43292C703D652E72616E646F6D5F69 PUSH2 0x1B40 DUP3 ADD MSTORE PUSH32 0x6E7428302C313030292C793D652E72616E646F6D5F696E7428312C316533292C PUSH2 0x1B60 DUP3 ADD MSTORE PUSH32 0x573D27272C523D28432D45292F322C4C3D652E72616E646F6D5F696E74282D31 PUSH2 0x1B80 DUP3 ADD MSTORE PUSH32 0x322E352C31322E35292C636F6E736F6C652E6C6F672827626173654672657127 PUSH2 0x1BA0 DUP3 ADD MSTORE PUSH32 0x2C722C2764656E73697479272C672C277374726F6B655769647468272C442C27 PUSH2 0x1BC0 DUP3 ADD MSTORE PUSH32 0x7363616C65272C632C277363616C6532272C6D2C277363616C6534272C5F2C27 PUSH2 0x1BE0 DUP3 ADD MSTORE PUSH32 0x64656E73697479496E6372656D656E74272C752C277363616C65206469766964 PUSH2 0x1C00 DUP3 ADD MSTORE PUSH32 0x65272C6C2C276E756D4F637461766573272C692C276E756D4F63746176657332 PUSH2 0x1C20 DUP3 ADD MSTORE PUSH32 0x272C732C276D6F6F64272C6D6F6F642C2774797065272C642C2765726F73696F PUSH2 0x1C40 DUP3 ADD MSTORE PUSH32 0x6E272C772C276973566572746963616C272C622C27636F6C6F72272C636F6C6F PUSH2 0x1C60 DUP3 ADD MSTORE PUSH32 0x725B305D2C27636F6C6F724E616D65272C4B297D28292C6177616974206E6577 PUSH2 0x1C80 DUP3 ADD MSTORE PUSH32 0x2050726F6D6973652828653D3E73657454696D656F757428652C323030292929 PUSH2 0x1CA0 DUP3 ADD MSTORE PUSH32 0x2C72657175657374416E696D6174696F6E4672616D65282866756E6374696F6E PUSH2 0x1CC0 DUP3 ADD MSTORE PUSH32 0x28297B7570646174654C6F6164657228274C6F6164696E672066696C74657273 PUSH2 0x1CE0 DUP3 ADD MSTORE PUSH32 0x27297D29292C6177616974206E65772050726F6D6973652828653D3E73657454 PUSH2 0x1D00 DUP3 ADD MSTORE PUSH32 0x696D656F757428652C3230302929292C572B3D27203C646566733E272C572B3D PUSH2 0x1D20 DUP3 ADD MSTORE PUSH32 0x273C66696C7465722069643D276630273E272C572B3D603C66654D6F7270686F PUSH2 0x1D40 DUP3 ADD MSTORE PUSH32 0x6C6F6779206F70657261746F723D2765726F646527207261646975733D27247B PUSH2 0x1D60 DUP3 ADD MSTORE PUSH32 0x777D27202F3E602C572B3D273C2F66696C7465723E272C572B3D600A20202020 PUSH2 0x1D80 DUP3 ADD MSTORE PUSH32 0x20203C66696C7465722069643D276631273E0A20202020202020203C66655475 PUSH2 0x1DA0 DUP3 ADD MSTORE PUSH32 0x7262756C656E636520747970653D276672616374616C4E6F697365270A202020 PUSH2 0x1DC0 DUP3 ADD MSTORE PUSH32 0x20202020202020202020202020202020202020626173654672657175656E6379 PUSH2 0x1DE0 DUP3 ADD MSTORE PUSH32 0x3D27247B727D27206E756D4F6374617665733D27247B697D270A202020202020 PUSH2 0x1E00 DUP3 ADD MSTORE PUSH32 0x20202020202020202020202020202020736565643D27247B797D270A20202020 PUSH2 0x1E20 DUP3 ADD MSTORE PUSH32 0x202020202020202020202020202020202020726573756C743D2774757262756C PUSH2 0x1E40 DUP3 ADD MSTORE PUSH32 0x656E636527202F3E0A20202020202020203C666554757262756C656E63652074 PUSH2 0x1E60 DUP3 ADD MSTORE PUSH32 0x7970653D276672616374616C4E6F697365270A20202020202020202020202020 PUSH2 0x1E80 DUP3 ADD MSTORE PUSH32 0x202020202020202020626173654672657175656E63793D27247B247D27206E75 PUSH2 0x1EA0 DUP3 ADD MSTORE PUSH32 0x6D4F6374617665733D27247B737D270A20202020202020202020202020202020 PUSH2 0x1EC0 DUP3 ADD MSTORE PUSH32 0x202020202020736565643D27247B792B317D270A202020202020202020202020 PUSH2 0x1EE0 DUP3 ADD MSTORE PUSH32 0x20202020202020202020726573756C743D2774757262756C656E63653227202F PUSH2 0x1F00 DUP3 ADD MSTORE PUSH32 0x3E0A20202020202020203C6665446973706C6163656D656E744D617020696E32 PUSH2 0x1F20 DUP3 ADD MSTORE PUSH32 0x3D2774757262756C656E6365270A202020202020202020202020202020202020 PUSH2 0x1F40 DUP3 ADD MSTORE PUSH32 0x202020202020202020696E3D27536F757263654772617068696327207363616C PUSH2 0x1F60 DUP3 ADD MSTORE PUSH32 0x653D27247B6D7D270A2020202020202020202020202020202020202020202020 PUSH2 0x1F80 DUP3 ADD MSTORE PUSH32 0x20202020726573756C743D27646973706C6163656D656E74270A202020202020 PUSH2 0x1FA0 DUP3 ADD MSTORE PUSH32 0x202020202020202020202020202020202020202020784368616E6E656C53656C PUSH2 0x1FC0 DUP3 ADD MSTORE PUSH32 0x6563746F723D2741270A20202020202020202020202020202020202020202020 PUSH2 0x1FE0 DUP3 ADD MSTORE PUSH32 0x2020202020794368616E6E656C53656C6563746F723D274127202F3E0A202020 PUSH2 0x2000 DUP3 ADD MSTORE PUSH32 0x20202020203C6665446973706C6163656D656E744D617020696E323D27747572 PUSH2 0x2020 DUP3 ADD MSTORE PUSH32 0x62756C656E6365270A2020202020202020202020202020202020202020202020 PUSH2 0x2040 DUP3 ADD MSTORE PUSH32 0x20202020696E3D27536F757263654772617068696327207363616C653D27247B PUSH2 0x2060 DUP3 ADD MSTORE PUSH32 0x6D7D270A20202020202020202020202020202020202020202020202020202072 PUSH2 0x2080 DUP3 ADD MSTORE PUSH32 0x6573756C743D27646973706C6163656D656E7442270A20202020202020202020 PUSH2 0x20A0 DUP3 ADD MSTORE PUSH32 0x2020202020202020202020202020202020784368616E6E656C53656C6563746F PUSH2 0x20C0 DUP3 ADD MSTORE PUSH32 0x723D2741270A2020202020202020202020202020202020202020202020202020 PUSH2 0x20E0 DUP3 ADD MSTORE PUSH32 0x20794368616E6E656C53656C6563746F723D274127202F3E602C572B3D600A20 PUSH2 0x2100 DUP3 ADD MSTORE PUSH32 0x20202020202020202020203C6665446973706C6163656D656E744D617020696E PUSH2 0x2120 DUP3 ADD MSTORE PUSH32 0x323D2774757262756C656E636532270A20202020202020202020202020202020 PUSH2 0x2140 DUP3 ADD MSTORE PUSH32 0x2020202020202020202020696E3D27646973706C6163656D656E742720736361 PUSH2 0x2160 DUP3 ADD MSTORE PUSH32 0x6C653D27247B687D270A20202020202020202020202020202020202020202020 PUSH2 0x2180 DUP3 ADD MSTORE PUSH32 0x2020202020726573756C743D27646973706C6163656D656E7432270A20202020 PUSH2 0x21A0 DUP3 ADD MSTORE PUSH32 0x2020202020202020202020202020202020202020202020784368616E6E656C53 PUSH2 0x21C0 DUP3 ADD MSTORE PUSH32 0x656C6563746F723D2741270A2020202020202020202020202020202020202020 PUSH2 0x21E0 DUP3 ADD MSTORE PUSH32 0x20202020202020794368616E6E656C53656C6563746F723D274127202F3E0A20 PUSH2 0x2200 DUP3 ADD MSTORE PUSH32 0x2020202020202020202020202020203C6665446973706C6163656D656E744D61 PUSH2 0x2220 DUP3 ADD MSTORE PUSH32 0x7020696E323D2774757262756C656E636532270A202020202020202020202020 PUSH2 0x2240 DUP3 ADD MSTORE PUSH32 0x202020202020202020202020202020696E3D27646973706C6163656D656E7442 PUSH2 0x2260 DUP3 ADD MSTORE PUSH32 0x27207363616C653D27247B687D270A2020202020202020202020202020202020 PUSH2 0x2280 DUP3 ADD MSTORE PUSH32 0x20202020202020202020726573756C743D27646973706C6163656D656E744232 PUSH2 0x22A0 DUP3 ADD MSTORE PUSH32 0x270A202020202020202020202020202020202020202020202020202020784368 PUSH2 0x22C0 DUP3 ADD MSTORE PUSH32 0x616E6E656C53656C6563746F723D2741270A2020202020202020202020202020 PUSH2 0x22E0 DUP3 ADD MSTORE PUSH32 0x20202020202020202020202020794368616E6E656C53656C6563746F723D2741 PUSH2 0x2300 DUP3 ADD MSTORE PUSH32 0x27202F3E0A202020202020202020202020202020202020202020202020202020 PUSH2 0x2320 DUP3 ADD MSTORE PUSH32 0x3B602C47262628572B3D600A2020202020202020202020203C66655475726275 PUSH2 0x2340 DUP3 ADD MSTORE PUSH32 0x6C656E636520747970653D276672616374616C4E6F697365270A202020202020 PUSH2 0x2360 DUP3 ADD MSTORE PUSH32 0x20202020202020202020202020202020626173654672657175656E63793D2724 PUSH2 0x2380 DUP3 ADD MSTORE PUSH32 0x7B497D27206E756D4F6374617665733D27247B547D270A202020202020202020 PUSH2 0x23A0 DUP3 ADD MSTORE PUSH32 0x20202020202020202020202020736565643D27247B797D270A20202020202020 PUSH2 0x23C0 DUP3 ADD MSTORE PUSH32 0x202020202020202020202020202020726573756C743D2774757262756C656E63 PUSH2 0x23E0 DUP3 ADD MSTORE PUSH32 0x653327202F3E0A2020202020202020202020203C6665446973706C6163656D65 PUSH2 0x2400 DUP3 ADD MSTORE PUSH32 0x6E744D617020696E323D2774757262756C656E636533270A2020202020202020 PUSH2 0x2420 DUP3 ADD MSTORE PUSH32 0x20202020202020202020202020202020202020696E3D27646973706C6163656D PUSH2 0x2440 DUP3 ADD MSTORE PUSH32 0x656E7427207363616C653D27247B5F7D270A2020202020202020202020202020 PUSH2 0x2460 DUP3 ADD MSTORE PUSH32 0x20202020202020202020202020726573756C743D27646973706C6163656D656E PUSH2 0x2480 DUP3 ADD MSTORE PUSH32 0x7433270A20202020202020202020202020202020202020202020202020202078 PUSH2 0x24A0 DUP3 ADD MSTORE PUSH32 0x4368616E6E656C53656C6563746F723D2742270A202020202020202020202020 PUSH2 0x24C0 DUP3 ADD MSTORE PUSH32 0x202020202020202020202020202020794368616E6E656C53656C6563746F723D PUSH2 0x24E0 DUP3 ADD MSTORE PUSH32 0x274127202F3E0A20202020202020202020202020202020202020202020202020 PUSH2 0x2500 DUP3 ADD MSTORE PUSH32 0x20203B60292C572B3D270A2020202020203C6665426C656E6420696E3D276469 PUSH2 0x2520 DUP3 ADD MSTORE PUSH32 0x73706C6163656D656E74322720696E323D27646973706C6163656D656E743227 PUSH2 0x2540 DUP3 ADD MSTORE PUSH32 0x20726573756C743D276275726E27206D6F64653D276E6F726D616C272F3E0A20 PUSH2 0x2560 DUP3 ADD MSTORE PUSH32 0x20202020272C572B3D270A3C2F66696C7465723E0A202020203C2F646566733E PUSH2 0x2580 DUP3 ADD MSTORE PUSH32 0xA2020272C572B3D600A202020200A20203C726563742066696C6C3D2723247B PUSH2 0x25A0 DUP3 ADD MSTORE PUSH32 0x636F6C6F725B305D7D2720783D27302720793D2730272077696474683D273130 PUSH2 0x25C0 DUP3 ADD MSTORE PUSH32 0x3027206865696768743D2731303027202F3E0A602C482E696E6E657248544D4C PUSH2 0x25E0 DUP3 ADD MSTORE PUSH32 0x2B3D572C72657175657374416E696D6174696F6E4672616D65282866756E6374 PUSH2 0x2600 DUP3 ADD MSTORE PUSH32 0x696F6E28297B72656D6F7665416C6C4C6F616465727328292C6164644C6F6164 PUSH2 0x2620 DUP3 ADD MSTORE PUSH32 0x657228274C6F6164696E672068746D6C27297D29292C6177616974206E657720 PUSH2 0x2640 DUP3 ADD MSTORE PUSH32 0x50726F6D6973652828653D3E73657454696D656F757428652C3230302929292C PUSH2 0x2660 DUP3 ADD MSTORE PUSH32 0x573D27272C64297B6361736520323A623F287A3D607472616E736C6174652835 PUSH2 0x2680 DUP3 ADD MSTORE PUSH32 0x302C35302920726F7461746528247B557D29207363616C6528247B787D20247B PUSH2 0x26A0 DUP3 ADD MSTORE PUSH32 0x417D29207472616E736C617465282D35302C2D353029602C4F3D66756E637469 PUSH2 0x26C0 DUP3 ADD MSTORE PUSH32 0x6F6E28652C6E2C742C6F2C61297B72657475726E603C6C696E65207472616E73 PUSH2 0x26E0 DUP3 ADD MSTORE PUSH32 0x666F726D3D27247B7A7D272066696C7465723D2775726C2823247B657D292720 PUSH2 0x2700 DUP3 ADD MSTORE PUSH32 0x7374726F6B652D6F7061636974793D272E39352720207374726F6B653D272324 PUSH2 0x2720 DUP3 ADD MSTORE PUSH32 0x7B6E7D27207374796C653D277374726F6B652D77696474683A247B617D272079 PUSH2 0x2740 DUP3 ADD MSTORE PUSH32 0x313D27247B747D272078313D27247B6F7D272078323D27247B31305E747D2720 PUSH2 0x2760 DUP3 ADD MSTORE PUSH32 0x79323D27247B6F7D27202F3E607D293A287A3D607472616E736C617465283530 PUSH2 0x2780 DUP3 ADD MSTORE PUSH32 0x2C35302920726F7461746528247B557D29207363616C6528247B787D20247B41 PUSH2 0x27A0 DUP3 ADD MSTORE PUSH32 0x7D29207472616E736C617465282D35302C2D353029602C4F3D66756E6374696F PUSH2 0x27C0 DUP3 ADD MSTORE PUSH32 0x6E28652C6E2C742C6F2C61297B72657475726E603C6C696E65207472616E7366 PUSH2 0x27E0 DUP3 ADD MSTORE PUSH32 0x6F726D3D27247B7A7D272066696C7465723D2775726C2823247B657D29272073 PUSH2 0x2800 DUP3 ADD MSTORE PUSH32 0x74726F6B652D6F7061636974793D272E39352720207374726F6B653D2723247B PUSH2 0x2820 DUP3 ADD MSTORE PUSH32 0x6E7D27207374796C653D277374726F6B652D77696474683A247B617D27207831 PUSH2 0x2840 DUP3 ADD MSTORE PUSH32 0x3D27247B747D272079313D27247B6F7D272079323D27247B31305E747D272078 PUSH2 0x2860 DUP3 ADD MSTORE PUSH32 0x323D27247B6F7D27202F3E607D293B627265616B3B6361736520333A623F287A PUSH2 0x2880 DUP3 ADD MSTORE PUSH32 0x3D607472616E736C6174652835302C35302920726F7461746528247B557D2920 PUSH2 0x28A0 DUP3 ADD MSTORE PUSH32 0x7363616C6528247B787D20247B417D29207472616E736C617465282D35302C2D PUSH2 0x28C0 DUP3 ADD MSTORE PUSH32 0x353029602C4F3D66756E6374696F6E28652C6E2C742C6F2C61297B7265747572 PUSH2 0x28E0 DUP3 ADD MSTORE PUSH32 0x6E603C6C696E65207472616E73666F726D3D27247B7A7D272066696C7465723D PUSH2 0x2900 DUP3 ADD MSTORE PUSH32 0x2775726C2823247B657D2927207374726F6B652D6F7061636974793D272E3935 PUSH2 0x2920 DUP3 ADD MSTORE PUSH32 0x27207374726F6B653D2723247B6E7D27207374796C653D277374726F6B652D77 PUSH2 0x2940 DUP3 ADD MSTORE PUSH32 0x696474683A247B617D272079313D27247B747D272078313D27247B6F7D272078 PUSH2 0x2960 DUP3 ADD MSTORE PUSH32 0x323D27247B322A747D272079323D27247B322A6F7D27202F3E607D293A287A3D PUSH2 0x2980 DUP3 ADD MSTORE PUSH32 0x607472616E736C6174652835302C35302920726F7461746528247B557D292073 PUSH2 0x29A0 DUP3 ADD MSTORE PUSH32 0x63616C6528247B787D20247B417D29207472616E736C617465282D35302C2D35 PUSH2 0x29C0 DUP3 ADD MSTORE PUSH32 0x3029602C4F3D66756E6374696F6E28652C6E2C742C6F2C61297B72657475726E PUSH2 0x29E0 DUP3 ADD MSTORE PUSH32 0x603C6C696E65207472616E73666F726D3D27247B7A7D272066696C7465723D27 PUSH2 0x2A00 DUP3 ADD MSTORE PUSH32 0x75726C2823247B657D29277374726F6B652D6F7061636974793D272E39352720 PUSH2 0x2A20 DUP3 ADD MSTORE PUSH32 0x207374726F6B653D2723247B6E7D27207374796C653D277374726F6B652D7769 PUSH2 0x2A40 DUP3 ADD MSTORE PUSH32 0x6474683A247B617D272078313D27247B747D272079313D27247B6F7D27207932 PUSH2 0x2A60 DUP3 ADD MSTORE PUSH32 0x3D27247B322A747D272078323D27247B322A6F7D27202F3E607D293B62726561 PUSH2 0x2A80 DUP3 ADD MSTORE PUSH32 0x6B3B6361736520343A452D3D3130302C623F287A3D607472616E736C61746528 PUSH2 0x2AA0 DUP3 ADD MSTORE PUSH32 0x35302C35302920726F7461746528247B552B652E72616E646F6D5F63686F6963 PUSH2 0x2AC0 DUP3 ADD MSTORE PUSH32 0x65285B2D34352C34355D297D29207363616C6528247B787D20247B417D292074 PUSH2 0x2AE0 DUP3 ADD MSTORE PUSH32 0x72616E736C617465282D35302C2D353029602C4F3D66756E6374696F6E28652C PUSH2 0x2B00 DUP3 ADD MSTORE PUSH32 0x6E2C742C6F2C61297B72657475726E603C6C696E65207472616E73666F726D3D PUSH2 0x2B20 DUP3 ADD MSTORE PUSH32 0x27247B7A7D27202066696C7465723D2775726C2823247B657D2927207374726F PUSH2 0x2B40 DUP3 ADD MSTORE PUSH32 0x6B652D6F7061636974793D272E39352720207374726F6B653D2723247B6E7D27 PUSH2 0x2B60 DUP3 ADD MSTORE PUSH32 0x207374796C653D277374726F6B652D77696474683A247B617D272079313D2724 PUSH2 0x2B80 DUP3 ADD MSTORE PUSH32 0x7B747D272078313D27247B6F7D272078323D27247B742B3130307D272079323D PUSH2 0x2BA0 DUP3 ADD MSTORE PUSH32 0x27247B6F7D27202F3E607D293A287A3D607472616E736C6174652835302C3530 PUSH2 0x2BC0 DUP3 ADD MSTORE PUSH32 0x2920726F7461746528247B552B652E72616E646F6D5F63686F696365285B2D34 PUSH2 0x2BE0 DUP3 ADD MSTORE PUSH32 0x352C34355D297D29207363616C6528247B787D20247B417D29207472616E736C PUSH2 0x2C00 DUP3 ADD MSTORE PUSH32 0x617465282D35302C2D353029602C4F3D66756E6374696F6E28652C6E2C742C6F PUSH2 0x2C20 DUP3 ADD MSTORE PUSH32 0x2C61297B72657475726E603C6C696E65207472616E73666F726D3D27247B7A7D PUSH2 0x2C40 DUP3 ADD MSTORE PUSH32 0x2720202066696C7465723D2775726C2823247B657D2927207374726F6B652D6F PUSH2 0x2C60 DUP3 ADD MSTORE PUSH32 0x7061636974793D272E39352720207374726F6B653D2723247B6E7D2720737479 PUSH2 0x2C80 DUP3 ADD MSTORE PUSH32 0x6C653D277374726F6B652D77696474683A247B617D272078313D27247B747D27 PUSH2 0x2CA0 DUP3 ADD MSTORE PUSH32 0x2079313D27247B6F7D272079323D27247B742B3130307D272078323D27247B6F PUSH2 0x2CC0 DUP3 ADD MSTORE PUSH32 0x7D27202F3E607D293B627265616B3B64656661756C743A623F287A3D60747261 PUSH2 0x2CE0 DUP3 ADD MSTORE PUSH32 0x6E736C6174652835302C35302920726F7461746528247B557D29207363616C65 PUSH2 0x2D00 DUP3 ADD MSTORE PUSH32 0x28247B787D20247B417D29207472616E736C617465282D35302C2D353029602C PUSH2 0x2D20 DUP3 ADD MSTORE PUSH32 0x4F3D66756E6374696F6E28652C6E2C742C6F2C61297B72657475726E603C6C69 PUSH2 0x2D40 DUP3 ADD MSTORE PUSH32 0x6E65207472616E73666F726D3D27247B7A7D27202066696C7465723D2775726C PUSH2 0x2D60 DUP3 ADD MSTORE PUSH32 0x2823247B657D29277374726F6B652D6F7061636974793D272E39352720207374 PUSH2 0x2D80 DUP3 ADD MSTORE PUSH32 0x726F6B653D2723247B6E7D27207374796C653D277374726F6B652D7769647468 PUSH2 0x2DA0 DUP3 ADD MSTORE PUSH32 0x3A247B617D272079313D27247B747D272078313D27247B6F7D272078323D2724 PUSH2 0x2DC0 DUP3 ADD MSTORE PUSH32 0x7B747D272079323D27247B6F7D27202F3E607D293A287A3D607472616E736C61 PUSH2 0x2DE0 DUP3 ADD MSTORE PUSH32 0x74652835302C35302920726F7461746528247B557D29207363616C6528247B78 PUSH2 0x2E00 DUP3 ADD MSTORE PUSH32 0x7D20247B417D29207472616E736C617465282D35302C2D353029602C4F3D6675 PUSH2 0x2E20 DUP3 ADD MSTORE PUSH32 0x6E6374696F6E28652C6E2C742C6F2C61297B72657475726E603C6C696E652074 PUSH2 0x2E40 DUP3 ADD MSTORE PUSH32 0x72616E73666F726D3D27247B7A7D27202066696C7465723D2775726C2823247B PUSH2 0x2E60 DUP3 ADD MSTORE PUSH32 0x657D29277374726F6B652D6F7061636974793D272E39352720207374726F6B65 PUSH2 0x2E80 DUP3 ADD MSTORE PUSH32 0x3D2723247B6E7D27207374796C653D277374726F6B652D77696474683A247B61 PUSH2 0x2EA0 DUP3 ADD MSTORE PUSH32 0x7D272078313D27247B747D272079313D27247B6F7D272079323D27247B747D27 PUSH2 0x2EC0 DUP3 ADD MSTORE PUSH32 0x2078323D27247B6F7D27202F3E607D297D652E72616E646F6D5F626F6F6C282E PUSH2 0x2EE0 DUP3 ADD MSTORE PUSH32 0x34293F563D66756E6374696F6E2865297B442A3D653C523F2D4D3A2D4E7D3A28 PUSH2 0x2F00 DUP3 ADD MSTORE PUSH32 0x4C3D652E72616E646F6D5F696E742831302C3130302F332E35292C4E3D652E72 PUSH2 0x2F20 DUP3 ADD MSTORE PUSH32 0x616E646F6D5F696E7428342C3132292C563D66756E6374696F6E2865297B442A PUSH2 0x2F40 DUP3 ADD MSTORE PUSH32 0x3D4D7D292C463D302C6B3D303B666F72286C6574206E3D4C3B6E3C3D533B6E2B PUSH2 0x2F60 DUP3 ADD MSTORE PUSH32 0x3D67297B462B2B2C463E3D636F6C6F722E6C656E677468262628463D30292C67 PUSH2 0x2F80 DUP3 ADD MSTORE PUSH32 0x2B3D752C423D6A2846293B666F72286C657420743D303B743C323B742B2B297B PUSH2 0x2FA0 DUP3 ADD MSTORE PUSH32 0x6C6574206F3D6E2C613D6066247B747D603B666F72286C6574206E3D453B6E3C PUSH2 0x2FC0 DUP3 ADD MSTORE PUSH32 0x433B6E2B3D76296B2B2B2C56286E292C572B3D4F28612C422C6E2C6F2C652E72 PUSH2 0x2FE0 DUP3 ADD MSTORE PUSH32 0x616E646F6D5F6E756D28302C44292C636F6C6F725B4D6174682E61627328462D PUSH2 0x3000 DUP3 ADD MSTORE PUSH32 0x31295D297D7D572B3D603C726563742066696C6C3D2723247B636F6C6F725B30 PUSH2 0x3020 DUP3 ADD MSTORE PUSH32 0x5D7D2720783D27302720793D27247B532B677D272077696474683D2731303027 PUSH2 0x3040 DUP3 ADD MSTORE PUSH32 0x206865696768743D2731303027202F3E602C72657175657374416E696D617469 PUSH2 0x3060 DUP3 ADD MSTORE PUSH32 0x6F6E4672616D65282866756E6374696F6E28297B7570646174654C6F61646572 PUSH2 0x3080 DUP3 ADD MSTORE PUSH32 0x282752656E646572696E67205356472C20746869732063616E2074616B652061 PUSH2 0x30A0 DUP3 ADD MSTORE PUSH32 0x20666577207365636F6E647327297D29292C6177616974206E65772050726F6D PUSH2 0x30C0 DUP3 ADD MSTORE PUSH32 0x6973652828653D3E73657454696D656F757428652C3230302929292C72657175 PUSH2 0x30E0 DUP3 ADD MSTORE PUSH32 0x657374416E696D6174696F6E4672616D65282866756E6374696F6E28297B482E PUSH2 0x3100 DUP3 ADD MSTORE PUSH32 0x696E6E657248544D4C2B3D577D29292C72657175657374416E696D6174696F6E PUSH2 0x3120 DUP3 ADD MSTORE PUSH32 0x4672616D65282866756E6374696F6E28297B72656D6F7665416C6C4C6F616465 PUSH2 0x3140 DUP3 ADD MSTORE PUSH32 0x727328297D29292C646F63756D656E742E6164644576656E744C697374656E65 PUSH2 0x3160 DUP3 ADD MSTORE PUSH32 0x7228276B6579646F776E272C286173796E632066756E6374696F6E2865297B69 PUSH2 0x3180 DUP3 ADD MSTORE PUSH32 0x66282773273D3D3D652E6B65797C7C2753273D3D3D652E6B6579297B72657175 PUSH2 0x31A0 DUP3 ADD MSTORE PUSH32 0x657374416E696D6174696F6E4672616D65282866756E6374696F6E28297B6164 PUSH2 0x31C0 DUP3 ADD MSTORE PUSH32 0x644C6F616465722827536176696E672053564727297D29292C6177616974206E PUSH2 0x31E0 DUP3 ADD MSTORE PUSH32 0x65772050726F6D6973652828653D3E73657454696D656F757428652C32303029 PUSH2 0x3200 DUP3 ADD MSTORE PUSH32 0x29293B636F6E737420653D646F63756D656E742E676574456C656D656E744279 PUSH2 0x3220 DUP3 ADD MSTORE PUSH32 0x496428276D7953766727292C6E3D646F63756D656E742E637265617465456C65 PUSH2 0x3240 DUP3 ADD MSTORE PUSH32 0x6D656E7428277374796C6527293B6E2E74657874436F6E74656E743D600A2020 PUSH2 0x3260 DUP3 ADD MSTORE PUSH32 0x2020737667207B0A20202020202077696474683A2031303076773B0A20202020 PUSH2 0x3280 DUP3 ADD MSTORE PUSH32 0x20206865696768743A2031303076683B0A20202020202070616464696E673A20 PUSH2 0x32A0 DUP3 ADD MSTORE PUSH32 0x30766D696E3B0A202020202020626F782D736861646F773A202E35766D696E20 PUSH2 0x32C0 DUP3 ADD MSTORE PUSH32 0x2E35766D696E2031766D696E207267626128302C20302C20302C20302E35293B PUSH2 0x32E0 DUP3 ADD MSTORE PUSH32 0xA202020202020626F782D73697A696E673A20626F726465722D626F783B0A20 PUSH2 0x3300 DUP3 ADD MSTORE PUSH32 0x2020207D0A202020203C212D2D20496620796F752077616E7420746F20646973 PUSH2 0x3320 DUP3 ADD MSTORE PUSH32 0x706C617920746865205356472061732069742077617320696E20746865206765 PUSH2 0x3340 DUP3 ADD MSTORE PUSH32 0x6E657261746F722C206A7573742070757420697420696E746F20746865203C62 PUSH2 0x3360 DUP3 ADD MSTORE PUSH32 0x6F64793E206F6620616E2068746D6C207061676520616E642061646420746869 PUSH2 0x3380 DUP3 ADD MSTORE PUSH32 0x73207374796C696E67202D2D3E0A20202020626F6479207B0A20202020202064 PUSH2 0x33A0 DUP3 ADD MSTORE PUSH32 0x6973706C61793A20666C65783B0A2020202020206A7573746966792D636F6E74 PUSH2 0x33C0 DUP3 ADD MSTORE PUSH32 0x656E743A2063656E7465723B0A202020202020616C69676E2D6974656D733A20 PUSH2 0x33E0 DUP3 ADD MSTORE PUSH32 0x63656E7465723B0A2020202020206261636B67726F756E642D636F6C6F723A20 PUSH2 0x3400 DUP3 ADD MSTORE PUSH32 0x23247B636F6C6F725B305D7D3B0A202020207D0A2020602C652E70726570656E PUSH2 0x3420 DUP3 ADD MSTORE PUSH32 0x64286E293B636F6E737420743D6E657720584D4C53657269616C697A65722C6F PUSH2 0x3440 DUP3 ADD MSTORE PUSH32 0x3D6E657720426C6F62285B742E73657269616C697A65546F537472696E672865 PUSH2 0x3460 DUP3 ADD MSTORE PUSH32 0x295D2C7B747970653A27696D6167652F7376672B786D6C277D292C613D55524C PUSH2 0x3480 DUP3 ADD MSTORE PUSH32 0x2E6372656174654F626A65637455524C286F293B646F63756D656E742E777269 PUSH2 0x34A0 DUP3 ADD MSTORE PUSH32 0x74652865293B636F6E737420723D646F63756D656E742E637265617465456C65 PUSH2 0x34C0 DUP3 ADD MSTORE PUSH32 0x6D656E7428276127293B722E687265663D612C722E646F776E6C6F61643D275F PUSH2 0x34E0 DUP3 ADD MSTORE PUSH32 0x5F5F5F5F5F5F5F5F2E737667272C646F63756D656E742E626F64792E61707065 PUSH2 0x3500 DUP3 ADD MSTORE PUSH32 0x6E644368696C642872292C722E636C69636B28292C646F63756D656E742E626F PUSH2 0x3520 DUP3 ADD MSTORE PUSH32 0x64792E72656D6F76654368696C642872292C55524C2E7265766F6B654F626A65 PUSH2 0x3540 DUP3 ADD MSTORE PUSH32 0x637455524C2861292C72656D6F7665416C6C4C6F616465727328297D7D29292C PUSH2 0x3560 DUP3 ADD MSTORE PUSH32 0x646F63756D656E742E6164644576656E744C697374656E657228276B6579646F PUSH2 0x3580 DUP3 ADD MSTORE PUSH32 0x776E272C286173796E632066756E6374696F6E2865297B72657175657374416E PUSH2 0x35A0 DUP3 ADD MSTORE PUSH32 0x696D6174696F6E4672616D65282866756E6374696F6E28297B6164644C6F6164 PUSH2 0x35C0 DUP3 ADD MSTORE PUSH32 0x657228274C6F6164696E67206E65772061737065637420726174696F27297D29 PUSH2 0x35E0 DUP3 ADD MSTORE PUSH32 0x292C6177616974206E65772050726F6D6973652828653D3E73657454696D656F PUSH2 0x3600 DUP3 ADD MSTORE PUSH32 0x757428652C3230302929292C274172726F775269676874273D3D3D652E6B6579 PUSH2 0x3620 DUP3 ADD MSTORE PUSH32 0x3F743D28742B3129256E2E6C656E6774683A274172726F774C656674273D3D3D PUSH2 0x3640 DUP3 ADD MSTORE PUSH32 0x652E6B6579262628743D28742D312B6E2E6C656E67746829256E2E6C656E6774 PUSH2 0x3660 DUP3 ADD MSTORE PUSH32 0x68292C736574526174696F286E2C74292C72656D6F7665416C6C4C6F61646572 PUSH2 0x3680 DUP3 ADD MSTORE PUSH32 0x7328297D29292C482E6164644576656E744C697374656E65722827746F756368 PUSH2 0x36A0 DUP3 ADD MSTORE PUSH32 0x656E64272C286173796E632066756E6374696F6E2865297B7265717565737441 PUSH2 0x36C0 DUP3 ADD MSTORE PUSH32 0x6E696D6174696F6E4672616D65282866756E6374696F6E28297B6164644C6F61 PUSH2 0x36E0 DUP3 ADD MSTORE PUSH32 0x64657228274C6F6164696E67206E65772061737065637420726174696F27297D PUSH2 0x3700 DUP3 ADD MSTORE PUSH32 0x29292C6177616974206E65772050726F6D6973652828653D3E73657454696D65 PUSH2 0x3720 DUP3 ADD MSTORE PUSH32 0x6F757428652C3230302929292C743D28742B3129256E2E6C656E6774683B636F PUSH2 0x3740 DUP3 ADD MSTORE PUSH32 0x6E7374206F3D6E5B745D3B646F63756D656E742E676574456C656D656E744279 PUSH2 0x3760 DUP3 ADD MSTORE PUSH32 0x496428276D7953766727292C646F526174696F286F2C646F63756D656E742E67 PUSH2 0x3780 DUP3 ADD MSTORE PUSH32 0x6574456C656D656E744279496428276D795376672729292C72656D6F7665416C PUSH2 0x37A0 DUP3 ADD MSTORE PUSH32 0x6C4C6F616465727328297D29297D3B66756E6374696F6E20646F526174696F28 PUSH2 0x37C0 DUP3 ADD MSTORE PUSH32 0x652C6E297B3130303D3D3D652E776964746826263130303D3D3D652E68656967 PUSH2 0x37E0 DUP3 ADD MSTORE PUSH32 0x68743F286E2E7374796C652E77696474683D273130307677272C6E2E7374796C PUSH2 0x3800 DUP3 ADD MSTORE PUSH32 0x652E6865696768743D27313030766827293A652E77696474682F652E68656967 PUSH2 0x3820 DUP3 ADD MSTORE PUSH32 0x68743E313F286E2E7374796C652E77696474683D273130307677272C6E2E7374 PUSH2 0x3840 DUP3 ADD MSTORE PUSH32 0x796C652E6865696768743D6063616C63283130307677202A2028247B652E6865 PUSH2 0x3860 DUP3 ADD MSTORE PUSH32 0x696768747D202F20247B652E77696474687D292960293A286E2E7374796C652E PUSH2 0x3880 DUP3 ADD MSTORE PUSH32 0x6865696768743D273130307668272C6E2E7374796C652E77696474683D606361 PUSH2 0x38A0 DUP3 ADD MSTORE PUSH32 0x6C63283130307668202A2028247B652E77696474687D202F20247B652E686569 PUSH2 0x38C0 DUP3 ADD MSTORE PUSH32 0x6768747D292960297D66756E6374696F6E2066696E644E616D654279436F6C6F PUSH2 0x38E0 DUP3 ADD MSTORE PUSH32 0x7228652C6E297B666F72286C657420743D303B743C6E2E6C656E6774683B742B PUSH2 0x3900 DUP3 ADD MSTORE PUSH32 0x2B296966286E5B745D2E636F6C6F723D3D3D652972657475726E206E5B745D2E PUSH2 0x3920 DUP3 ADD MSTORE PUSH32 0x6E616D657D66756E6374696F6E20736574526174696F28652C6E297B646F5261 PUSH2 0x3940 DUP3 ADD MSTORE PUSH32 0x74696F28655B6E5D2C646F63756D656E742E676574456C656D656E7442794964 PUSH2 0x3960 DUP3 ADD MSTORE PUSH32 0x28276D795376672729297D6C65742069734C6F616465643D21313B66756E6374 PUSH2 0x3980 DUP3 ADD MSTORE PUSH32 0x696F6E20697353616661726928297B72657475726E27756E646566696E656427 PUSH2 0x39A0 DUP3 ADD MSTORE PUSH32 0x213D747970656F66206E6176696761746F7226266E756C6C213D6E6176696761 PUSH2 0x39C0 DUP3 ADD MSTORE PUSH32 0x746F7226262F5E28283F216368726F6D657C616E64726F6964292E292A736166 PUSH2 0x39E0 DUP3 ADD MSTORE PUSH32 0x6172692F692E74657374286E6176696761746F723F2E757365724167656E7429 PUSH2 0x3A00 DUP3 ADD MSTORE PUSH32 0x7D66756E6374696F6E2072656D6F7665416C6C4C6F616465727328297B646F63 PUSH2 0x3A20 DUP3 ADD MSTORE PUSH32 0x756D656E742E717565727953656C6563746F72416C6C28272E6C6F616465722D PUSH2 0x3A40 DUP3 ADD MSTORE PUSH32 0x636F6E7461696E657227292E666F72456163682828653D3E7B652E706172656E PUSH2 0x3A60 DUP3 ADD MSTORE PUSH32 0x744E6F64652E72656D6F76654368696C642865297D29297D66756E6374696F6E PUSH2 0x3A80 DUP3 ADD MSTORE PUSH32 0x206164644C6F616465722865297B6C6574206E3D646F63756D656E742E637265 PUSH2 0x3AA0 DUP3 ADD MSTORE PUSH32 0x617465456C656D656E74282764697627293B6E2E636C6173734E616D653D276C PUSH2 0x3AC0 DUP3 ADD MSTORE PUSH32 0x6F616465722D636F6E7461696E6572272C6E2E7374796C652E706F736974696F PUSH2 0x3AE0 DUP3 ADD MSTORE PUSH32 0x6E3D276162736F6C757465272C6E2E7374796C652E6C6566743D27353025272C PUSH2 0x3B00 DUP3 ADD MSTORE PUSH32 0x6E2E7374796C652E746F703D27353025272C6E2E7374796C652E7472616E7366 PUSH2 0x3B20 DUP3 ADD MSTORE PUSH32 0x6F726D3D277472616E736C617465282D3530252C202D35302529273B636F6E73 PUSH2 0x3B40 DUP3 ADD MSTORE PUSH32 0x7420743D646F63756D656E742E637265617465456C656D656E74282764697627 PUSH2 0x3B60 DUP3 ADD MSTORE PUSH32 0x293B6C6574206F3B696628742E696E6E6572546578743D652B272E2E2E272C74 PUSH2 0x3B80 DUP3 ADD MSTORE PUSH32 0x2E7374796C652E636F6C6F723D2723464646464646272C742E7374796C652E62 PUSH2 0x3BA0 DUP3 ADD MSTORE PUSH32 0x6F726465723D2723303030303030272C742E7374796C652E666F6E7446616D69 PUSH2 0x3BC0 DUP3 ADD MSTORE PUSH32 0x6C793D2748656C7665746963612C20417269616C2C2073616E732D7365726966 PUSH2 0x3BE0 DUP3 ADD MSTORE PUSH32 0x272C742E7374796C652E666F6E7453697A653D2731347078272C742E7374796C PUSH2 0x3C00 DUP3 ADD MSTORE PUSH32 0x652E77696474683D276D61782D636F6E74656E74272C742E7374796C652E6469 PUSH2 0x3C20 DUP3 ADD MSTORE PUSH32 0x73706C61793D27696E6C696E652D626C6F636B272C742E636C6173734E616D65 PUSH2 0x3C40 DUP3 ADD MSTORE PUSH32 0x3D276C6F6164696E672D74657874272C742E69643D276C6F616465722D746578 PUSH2 0x3C60 DUP3 ADD MSTORE PUSH32 0x74272C6E2E617070656E644368696C642874292C646F63756D656E742E626F64 PUSH2 0x3C80 DUP3 ADD MSTORE PUSH32 0x792E617070656E644368696C64286E292C646F63756D656E742E7374796C6553 PUSH2 0x3CA0 DUP3 ADD MSTORE PUSH32 0x68656574732E6C656E6774683E30296F3D646F63756D656E742E7374796C6553 PUSH2 0x3CC0 DUP3 ADD MSTORE PUSH32 0x68656574735B305D3B656C73657B636F6E737420653D646F63756D656E742E63 PUSH2 0x3CE0 DUP3 ADD MSTORE PUSH32 0x7265617465456C656D656E7428277374796C6527293B646F63756D656E742E68 PUSH2 0x3D00 DUP3 ADD MSTORE PUSH32 0x6561642E617070656E644368696C642865292C6F3D652E73686565747D6F2E69 PUSH2 0x3D20 DUP3 ADD MSTORE PUSH32 0x6E7365727452756C6528270A20202020406B65796672616D6573207370696E20 PUSH2 0x3D40 DUP3 ADD MSTORE PUSH32 0x7B0A20202020202020203025207B207472616E73666F726D3A20726F74617465 PUSH2 0x3D60 DUP3 ADD MSTORE PUSH32 0x2830646567293B207D0A202020202020202031303025207B207472616E73666F PUSH2 0x3D80 DUP3 ADD MSTORE PUSH32 0x726D3A20726F7461746528333630646567293B207D0A202020207D0A20202020 PUSH2 0x3DA0 DUP3 ADD MSTORE PUSH32 0x272C6F2E63737352756C65732E6C656E677468297D66756E6374696F6E207570 PUSH2 0x3DC0 DUP3 ADD MSTORE PUSH32 0x646174654C6F616465722865297B646F63756D656E742E717565727953656C65 PUSH2 0x3DE0 DUP3 ADD MSTORE PUSH32 0x63746F72416C6C28272E6C6F6164696E672D7465787427292E666F7245616368 PUSH2 0x3E00 DUP3 ADD MSTORE PUSH32 0x28286E3D3E7B6E2E696E6E6572546578743D652B272E2E2E277D29297D66756E PUSH2 0x3E20 DUP3 ADD MSTORE PUSH32 0x6374696F6E20616464506F74656E7469616C506F70757028297B76617220653D PUSH2 0x3E40 DUP3 ADD MSTORE PUSH32 0x646F63756D656E742E637265617465456C656D656E74282764697627293B652E PUSH2 0x3E60 DUP3 ADD MSTORE PUSH32 0x69643D277361666172692D706F707570272C652E7374796C653D27646973706C PUSH2 0x3E80 DUP3 ADD MSTORE PUSH32 0x61793A206E6F6E653B20706F736974696F6E3A2066697865643B20746F703A20 PUSH2 0x3EA0 DUP3 ADD MSTORE PUSH32 0x3530253B206C6566743A203530253B207472616E73666F726D3A207472616E73 PUSH2 0x3EC0 DUP3 ADD MSTORE PUSH32 0x6C617465282D3530252C202D353025293B206261636B67726F756E642D636F6C PUSH2 0x3EE0 DUP3 ADD MSTORE PUSH32 0x6F723A2077686974653B2070616464696E673A20323070783B20626F72646572 PUSH2 0x3F00 DUP3 ADD MSTORE PUSH32 0x3A2031707820736F6C696420236363633B207A2D696E6465783A20313030303B PUSH2 0x3F20 DUP3 ADD MSTORE PUSH32 0x272C652E696E6E657248544D4C3D273C703E5765206861766520646574656374 PUSH2 0x3F40 DUP3 ADD MSTORE PUSH32 0x656420796F7520617265207573696E6720746865207765622062726F73657220 PUSH2 0x3F60 DUP3 ADD MSTORE PUSH32 0x5361666172692E205361666172692063757272656E746C792075736573203C61 PUSH2 0x3F80 DUP3 ADD MSTORE PUSH32 0x207461726765743D275F626C616E6B2720687265663D2768747470733A2F2F65 PUSH2 0x3FA0 DUP3 ADD MSTORE PUSH32 0x6E2E77696B6970656469612E6F72672F77696B692F436F6D70617269736F6E5F PUSH2 0x3FC0 DUP3 ADD MSTORE PUSH32 0x6F665F62726F777365725F656E67696E6573273E5765624B69743C2F613E2C20 PUSH2 0x3FE0 DUP3 ADD MSTORE PUSH32 0x77686963682063616E2068617665206C61726765206D656D6F7279206C65616B PUSH2 0x4000 DUP3 ADD MSTORE PUSH32 0x73207768656E206C6F6164696E67205356477320776974682066696C74657273 PUSH2 0x4020 DUP3 ADD MSTORE PUSH32 0x2C206D616B696E67207468652073797374656D20756E726573706F6E73697665 PUSH2 0x4040 DUP3 ADD MSTORE PUSH32 0x2E2054686973203C61207461726765743D275F626C616E6B2720687265663D27 PUSH2 0x4060 DUP3 ADD MSTORE PUSH32 0x68747470733A2F2F627567732E7765626B69742E6F72672F73686F775F627567 PUSH2 0x4080 DUP3 ADD MSTORE PUSH32 0x2E6367693F69643D323138343232273E69737375653C2F613E20686173206265 PUSH2 0x40A0 DUP3 ADD MSTORE PUSH32 0x656E207265706F7274656420746F205765624B69742E2049207265636F6D6D65 PUSH2 0x40C0 DUP3 ADD MSTORE PUSH32 0x6E64203C61207461726765743D275F626C616E6B2720687265663D2768747470 PUSH2 0x40E0 DUP3 ADD MSTORE PUSH32 0x733A2F2F656E2E77696B6970656469612E6F72672F77696B692F436F6D706172 PUSH2 0x4100 DUP3 ADD MSTORE PUSH32 0x69736F6E5F6F665F62726F777365725F656E67696E6573273E426C696E6B3C2F PUSH2 0x4120 DUP3 ADD MSTORE PUSH32 0x613E2062617365642062726F777365727320286173206F66203230323429206C PUSH2 0x4140 DUP3 ADD MSTORE PUSH32 0x696B6520476F6F676C65204368726F6D6520616E64204D6963726F736F667420 PUSH2 0x4160 DUP3 ADD MSTORE PUSH32 0x456467652E20496620796F7520776F756C64206C696B6520746F20636F6E7469 PUSH2 0x4180 DUP3 ADD MSTORE PUSH32 0x6E75652C206B6E6F77696E67207468617420536166617269206D617920686176 PUSH2 0x41A0 DUP3 ADD MSTORE PUSH32 0x65206973737565732C206F722062656C696576696E6720746861742053616661 PUSH2 0x41C0 DUP3 ADD MSTORE PUSH32 0x7269206E6F7720636F72726563746C7920737570706F72747320535647206669 PUSH2 0x41E0 DUP3 ADD MSTORE PUSH32 0x6C65732C20796F75206D61792E3C2F703E3C627574746F6E206F6E636C69636B PUSH2 0x4200 DUP3 ADD MSTORE PUSH32 0x3D27636C6F7365506F7075702829273E4920756E6465727374616E6420616E64 PUSH2 0x4220 DUP3 ADD MSTORE PUSH32 0x207769736820746F20636F6E74696E7565206174206D79206F776E207269736B PUSH2 0x4240 DUP3 ADD MSTORE PUSH32 0x2E3C2F627574746F6E3E272C646F63756D656E742E626F64792E617070656E64 PUSH2 0x4260 DUP3 ADD MSTORE PUSH32 0x4368696C642865297D66756E6374696F6E20636C6F7365506F70757028297B76 PUSH2 0x4280 DUP3 ADD MSTORE PUSH32 0x617220653D646F63756D656E742E676574456C656D656E744279496428277361 PUSH2 0x42A0 DUP3 ADD MSTORE PUSH32 0x666172692D706F70757027292C6E3D646F63756D656E742E676574456C656D65 PUSH2 0x42C0 DUP3 ADD MSTORE PUSH32 0x6E744279496428277361666172692D62616E6E657227293B6526262873686F75 PUSH2 0x42E0 DUP3 ADD MSTORE PUSH32 0x6C644C6F616444726177696E673D21302C652E7374796C652E646973706C6179 PUSH2 0x4300 DUP3 ADD MSTORE PUSH32 0x3D276E6F6E65272C6E2E7374796C652E646973706C61793D276E6F6E6527297D PUSH2 0x4320 DUP3 ADD MSTORE PUSH32 0x736574496E74657276616C282866756E6374696F6E28297B6966282169734C6F PUSH2 0x4340 DUP3 ADD MSTORE PUSH32 0x61646564297B69734C6F616465643D21302C72657175657374416E696D617469 PUSH2 0x4360 DUP3 ADD MSTORE PUSH32 0x6F6E4672616D6528616464506F74656E7469616C506F707570292C7265717565 PUSH2 0x4380 DUP3 ADD MSTORE PUSH32 0x7374416E696D6174696F6E4672616D65282866756E6374696F6E28297B696628 PUSH2 0x43A0 DUP3 ADD MSTORE PUSH32 0x69735361666172692829297B636F6E737420653D646F63756D656E742E637265 PUSH2 0x43C0 DUP3 ADD MSTORE PUSH32 0x617465456C656D656E74282764697627293B652E7374796C652E706F73697469 PUSH2 0x43E0 DUP3 ADD MSTORE PUSH32 0x6F6E3D276669786564272C652E7374796C652E626F74746F6D3D2730272C652E PUSH2 0x4400 DUP3 ADD MSTORE PUSH32 0x7374796C652E6C6566743D2730272C652E7374796C652E77696474683D273130 PUSH2 0x4420 DUP3 ADD MSTORE PUSH32 0x3025272C652E7374796C652E6261636B67726F756E64436F6C6F723D27726564 PUSH2 0x4440 DUP3 ADD MSTORE PUSH32 0x272C652E7374796C652E636F6C6F723D277768697465272C652E7374796C652E PUSH2 0x4460 DUP3 ADD MSTORE PUSH32 0x74657874416C69676E3D2763656E746572272C652E7374796C652E7061646469 PUSH2 0x4480 DUP3 ADD MSTORE PUSH32 0x6E673D2731307078272C652E7374796C652E7A496E6465783D2731303030272C PUSH2 0x44A0 DUP3 ADD MSTORE PUSH32 0x652E636C6173734E616D653D277361666172692D62616E6E6572272C646F6375 PUSH2 0x44C0 DUP3 ADD MSTORE PUSH32 0x6D656E742E626F64792E617070656E644368696C642865292C646F63756D656E PUSH2 0x44E0 DUP3 ADD MSTORE PUSH32 0x742E676574456C656D656E744279496428277361666172692D706F7075702729 PUSH2 0x4500 DUP3 ADD MSTORE PUSH32 0x2E7374796C652E646973706C61793D27626C6F636B277D656C73652073686F75 PUSH2 0x4520 DUP3 ADD MSTORE PUSH32 0x6C644C6F616444726177696E673D21307D29293B6C657420653D736574496E74 PUSH2 0x4540 DUP3 ADD MSTORE PUSH32 0x657276616C282866756E6374696F6E28297B73686F756C644C6F616444726177 PUSH2 0x4560 DUP3 ADD MSTORE PUSH32 0x696E6726266173796E632066756E6374696F6E28297B636C656172496E746572 PUSH2 0x4580 DUP3 ADD MSTORE PUSH32 0x76616C2865292C6177616974206E65772050726F6D6973652828653D3E736574 PUSH2 0x45A0 DUP3 ADD MSTORE PUSH32 0x54696D656F757428652C3230302929292C6177616974206472617728297D2829 PUSH2 0x45C0 DUP3 ADD MSTORE PUSH32 0x7D292C313030297D7D292C316533293B3C2F7363726970743E3C2F686561643E PUSH2 0x45E0 DUP3 ADD MSTORE POP JUMP JUMPDEST PUSH0 PUSH2 0x5A61 PUSH2 0x4600 DUP4 PUSH2 0x342 JUMP JUMPDEST SWAP2 POP PUSH2 0x5A6C DUP3 PUSH2 0x50A JUMP JUMPDEST PUSH2 0x4600 DUP3 ADD SWAP1 POP SWAP2 SWAP1 POP JUMP JUMPDEST PUSH0 PUSH2 0x5A82 DUP3 PUSH2 0x39A JUMP JUMPDEST SWAP2 POP PUSH2 0x5A8E DUP3 DUP8 PUSH2 0x3C5 JUMP JUMPDEST PUSH1 0x20 DUP3 ADD SWAP2 POP PUSH2 0x5A9D DUP3 PUSH2 0x404 JUMP JUMPDEST SWAP2 POP PUSH2 0x5AA9 DUP3 DUP7 PUSH2 0x426 JUMP JUMPDEST SWAP2 POP PUSH2 0x5AB4 DUP3 PUSH2 0x47E JUMP JUMPDEST SWAP2 POP PUSH2 0x5AC0 DUP3 DUP6 PUSH2 0x4A9 JUMP JUMPDEST PUSH1 0x20 DUP3 ADD SWAP2 POP PUSH2 0x5ACF DUP3 PUSH2 0x4E8 JUMP JUMPDEST SWAP2 POP PUSH2 0x5ADB DUP3 DUP5 PUSH2 0x3C5 JUMP JUMPDEST PUSH1 0x20 DUP3 ADD SWAP2 POP PUSH2 0x5AEA DUP3 PUSH2 0x5A54 JUMP JUMPDEST SWAP2 POP DUP2 SWAP1 POP SWAP6 SWAP5 POP POP POP POP POP JUMP INVALID LOG2 PUSH5 0x6970667358 0x22 SLT KECCAK256 PUSH13 0xA795FF32BDC0B9C181501A0AEE JUMPI PUSH11 0xE4159809C05D170F37C4A LOG0 0x23 DUP14 ADD 0x23 PUSH5 0x736F6C6343 STOP ADDMOD NOT STOP CALLER "
				},
				"gasEstimates": {
					"creation": {
						"codeDepositCost": "4668400",
						"executionCost": "5469",
						"totalCost": "4673869"
					},
					"external": {
						"getScriptHeader(uint256,uint256,bytes32,string)": "infinite"
					}
				},
				"methodIdentifiers": {
					"getScriptHeader(uint256,uint256,bytes32,string)": "5e9ff849"
				}
			},
			"storageLayout": {
				"storage": [],
				"types": null
			},
			"userdoc": {
				"kind": "user",
				"methods": {},
				"version": 1
			}
		}
	}
}