{
	"ProzacYouthEngine_2.sol": {
		"ProzacYouthEngine_2": {
			"abi": [
				{
					"inputs": [
						{
							"internalType": "string",
							"name": "mode",
							"type": "string"
						}
					],
					"name": "getScript",
					"outputs": [
						{
							"internalType": "string",
							"name": "",
							"type": "string"
						}
					],
					"stateMutability": "view",
					"type": "function"
				}
			],
			"devdoc": {
				"kind": "dev",
				"methods": {},
				"version": 1
			},
			"evm": {
				"assembly": "    /* \"ProzacYouthEngine_2.sol\":57:12591  contract ProzacYouthEngine_2 {... */\n  mstore(0x40, 0x80)\n    /* \"ProzacYouthEngine_2.sol\":88:176  string private _infura = \"https://mainnet.infura.io/v3/dd434b70c6a7487c92efdded13e7f1a3\" */\n  mload(0x40)\n  dup1\n  0x60\n  add\n  0x40\n  mstore\n  dup1\n  0x3d\n  dup2\n  mstore\n  0x20\n  add\n  data_c917c4be28745e0888138ec4cbf4f121a57ded09c4e1a0afd82785d2c8c4a3be\n  0x3d\n  swap2\n  codecopy\n  0x00\n  swap1\n  dup2\n  tag_1\n  swap2\n  swap1\n  tag_2\n  jump\t// in\ntag_1:\n  pop\n    /* \"ProzacYouthEngine_2.sol\":178:418  string private _etherscan = \"https://api.etherscan.io/api?module=account&action=txlist&address=0x002a3be63b3b312da5d58eb02d2b48869b46ec82&startblock=0&endblock=99999999&page=1&offset=10000&sort=asc&apikey=S52QEJX4FKNCS79K87XNXCAVXNPZ3Y99XI\" */\n  mload(0x40)\n  dup1\n  0x0100\n  add\n  0x40\n  mstore\n  dup1\n  0xd2\n  dup2\n  mstore\n  0x20\n  add\n  data_0d8dae9e60ec8c123bc6a12a2cc0638faec1ac2f06f5db6a900edd5783b3fc79\n  0xd2\n  swap2\n  codecopy\n  0x01\n  swap1\n  dup2\n  tag_3\n  swap2\n  swap1\n  tag_2\n  jump\t// in\ntag_3:\n  pop\n    /* \"ProzacYouthEngine_2.sol\":420:464  string private _tjo = \"https://www.tjo.art/\" */\n  mload(0x40)\n  dup1\n  0x40\n  add\n  0x40\n  mstore\n  dup1\n  0x14\n  dup2\n  mstore\n  0x20\n  add\n  0x68747470733a2f2f7777772e746a6f2e6172742f000000000000000000000000\n  dup2\n  mstore\n  pop\n  0x02\n  swap1\n  dup2\n  tag_4\n  swap2\n  swap1\n  tag_2\n  jump\t// in\ntag_4:\n  pop\n    /* \"ProzacYouthEngine_2.sol\":466:497  string private _delay = \"15000\" */\n  mload(0x40)\n  dup1\n  0x40\n  add\n  0x40\n  mstore\n  dup1\n  0x05\n  dup2\n  mstore\n  0x20\n  add\n  0x3135303030000000000000000000000000000000000000000000000000000000\n  dup2\n  mstore\n  pop\n  0x03\n  swap1\n  dup2\n  tag_5\n  swap2\n  swap1\n  tag_2\n  jump\t// in\ntag_5:\n  pop\n    /* \"ProzacYouthEngine_2.sol\":57:12591  contract ProzacYouthEngine_2 {... */\n  callvalue\n  dup1\n  iszero\n  tag_6\n  jumpi\n  0x00\n  dup1\n  revert\ntag_6:\n  pop\n  jump(tag_7)\n    /* \"#utility.yul\":7:106   */\ntag_8:\n    /* \"#utility.yul\":59:65   */\n  0x00\n    /* \"#utility.yul\":93:98   */\n  dup2\n    /* \"#utility.yul\":87:99   */\n  mload\n    /* \"#utility.yul\":77:99   */\n  swap1\n  pop\n    /* \"#utility.yul\":7:106   */\n  swap2\n  swap1\n  pop\n  jump\t// out\n    /* \"#utility.yul\":112:292   */\ntag_9:\n    /* \"#utility.yul\":160:237   */\n  0x4e487b7100000000000000000000000000000000000000000000000000000000\n    /* \"#utility.yul\":157:158   */\n  0x00\n    /* \"#utility.yul\":150:238   */\n  mstore\n    /* \"#utility.yul\":257:261   */\n  0x41\n    /* \"#utility.yul\":254:255   */\n  0x04\n    /* \"#utility.yul\":247:262   */\n  mstore\n    /* \"#utility.yul\":281:285   */\n  0x24\n    /* \"#utility.yul\":278:279   */\n  0x00\n    /* \"#utility.yul\":271:286   */\n  revert\n    /* \"#utility.yul\":298:478   */\ntag_10:\n    /* \"#utility.yul\":346:423   */\n  0x4e487b7100000000000000000000000000000000000000000000000000000000\n    /* \"#utility.yul\":343:344   */\n  0x00\n    /* \"#utility.yul\":336:424   */\n  mstore\n    /* \"#utility.yul\":443:447   */\n  0x22\n    /* \"#utility.yul\":440:441   */\n  0x04\n    /* \"#utility.yul\":433:448   */\n  mstore\n    /* \"#utility.yul\":467:471   */\n  0x24\n    /* \"#utility.yul\":464:465   */\n  0x00\n    /* \"#utility.yul\":457:472   */\n  revert\n    /* \"#utility.yul\":484:804   */\ntag_11:\n    /* \"#utility.yul\":528:534   */\n  0x00\n    /* \"#utility.yul\":565:566   */\n  0x02\n    /* \"#utility.yul\":559:563   */\n  dup3\n    /* \"#utility.yul\":555:567   */\n  div\n    /* \"#utility.yul\":545:567   */\n  swap1\n  pop\n    /* \"#utility.yul\":612:613   */\n  0x01\n    /* \"#utility.yul\":606:610   */\n  dup3\n    /* \"#utility.yul\":602:614   */\n  and\n    /* \"#utility.yul\":633:651   */\n  dup1\n    /* \"#utility.yul\":623:704   */\n  tag_33\n  jumpi\n    /* \"#utility.yul\":689:693   */\n  0x7f\n    /* \"#utility.yul\":681:687   */\n  dup3\n    /* \"#utility.yul\":677:694   */\n  and\n    /* \"#utility.yul\":667:694   */\n  swap2\n  pop\n    /* \"#utility.yul\":623:704   */\ntag_33:\n    /* \"#utility.yul\":751:753   */\n  0x20\n    /* \"#utility.yul\":743:749   */\n  dup3\n    /* \"#utility.yul\":740:754   */\n  lt\n    /* \"#utility.yul\":720:738   */\n  dup2\n    /* \"#utility.yul\":717:755   */\n  sub\n    /* \"#utility.yul\":714:798   */\n  tag_34\n  jumpi\n    /* \"#utility.yul\":770:788   */\n  tag_35\n  tag_10\n  jump\t// in\ntag_35:\n    /* \"#utility.yul\":714:798   */\ntag_34:\n    /* \"#utility.yul\":535:804   */\n  pop\n    /* \"#utility.yul\":484:804   */\n  swap2\n  swap1\n  pop\n  jump\t// out\n    /* \"#utility.yul\":810:951   */\ntag_12:\n    /* \"#utility.yul\":859:863   */\n  0x00\n    /* \"#utility.yul\":882:885   */\n  dup2\n    /* \"#utility.yul\":874:885   */\n  swap1\n  pop\n    /* \"#utility.yul\":905:908   */\n  dup2\n    /* \"#utility.yul\":902:903   */\n  0x00\n    /* \"#utility.yul\":895:909   */\n  mstore\n    /* \"#utility.yul\":939:943   */\n  0x20\n    /* \"#utility.yul\":936:937   */\n  0x00\n    /* \"#utility.yul\":926:944   */\n  keccak256\n    /* \"#utility.yul\":918:944   */\n  swap1\n  pop\n    /* \"#utility.yul\":810:951   */\n  swap2\n  swap1\n  pop\n  jump\t// out\n    /* \"#utility.yul\":957:1050   */\ntag_13:\n    /* \"#utility.yul\":994:1000   */\n  0x00\n    /* \"#utility.yul\":1041:1043   */\n  0x20\n    /* \"#utility.yul\":1036:1038   */\n  0x1f\n    /* \"#utility.yul\":1029:1034   */\n  dup4\n    /* \"#utility.yul\":1025:1039   */\n  add\n    /* \"#utility.yul\":1021:1044   */\n  div\n    /* \"#utility.yul\":1011:1044   */\n  swap1\n  pop\n    /* \"#utility.yul\":957:1050   */\n  swap2\n  swap1\n  pop\n  jump\t// out\n    /* \"#utility.yul\":1056:1163   */\ntag_14:\n    /* \"#utility.yul\":1100:1108   */\n  0x00\n    /* \"#utility.yul\":1150:1155   */\n  dup3\n    /* \"#utility.yul\":1144:1148   */\n  dup3\n    /* \"#utility.yul\":1140:1156   */\n  shl\n    /* \"#utility.yul\":1119:1156   */\n  swap1\n  pop\n    /* \"#utility.yul\":1056:1163   */\n  swap3\n  swap2\n  pop\n  pop\n  jump\t// out\n    /* \"#utility.yul\":1169:1562   */\ntag_15:\n    /* \"#utility.yul\":1238:1244   */\n  0x00\n    /* \"#utility.yul\":1288:1289   */\n  0x08\n    /* \"#utility.yul\":1276:1286   */\n  dup4\n    /* \"#utility.yul\":1272:1290   */\n  mul\n    /* \"#utility.yul\":1311:1408   */\n  tag_40\n    /* \"#utility.yul\":1341:1407   */\n  0xffffffffffffffffffffffffffffffffffffffffffffffffffffffffffffffff\n    /* \"#utility.yul\":1330:1339   */\n  dup3\n    /* \"#utility.yul\":1311:1408   */\n  tag_14\n  jump\t// in\ntag_40:\n    /* \"#utility.yul\":1429:1468   */\n  tag_41\n    /* \"#utility.yul\":1459:1467   */\n  dup7\n    /* \"#utility.yul\":1448:1457   */\n  dup4\n    /* \"#utility.yul\":1429:1468   */\n  tag_14\n  jump\t// in\ntag_41:\n    /* \"#utility.yul\":1417:1468   */\n  swap6\n  pop\n    /* \"#utility.yul\":1501:1505   */\n  dup1\n    /* \"#utility.yul\":1497:1506   */\n  not\n    /* \"#utility.yul\":1490:1495   */\n  dup5\n    /* \"#utility.yul\":1486:1507   */\n  and\n    /* \"#utility.yul\":1477:1507   */\n  swap4\n  pop\n    /* \"#utility.yul\":1550:1554   */\n  dup1\n    /* \"#utility.yul\":1540:1548   */\n  dup7\n    /* \"#utility.yul\":1536:1555   */\n  and\n    /* \"#utility.yul\":1529:1534   */\n  dup5\n    /* \"#utility.yul\":1526:1556   */\n  or\n    /* \"#utility.yul\":1516:1556   */\n  swap3\n  pop\n    /* \"#utility.yul\":1245:1562   */\n  pop\n  pop\n    /* \"#utility.yul\":1169:1562   */\n  swap4\n  swap3\n  pop\n  pop\n  pop\n  jump\t// out\n    /* \"#utility.yul\":1568:1645   */\ntag_16:\n    /* \"#utility.yul\":1605:1612   */\n  0x00\n    /* \"#utility.yul\":1634:1639   */\n  dup2\n    /* \"#utility.yul\":1623:1639   */\n  swap1\n  pop\n    /* \"#utility.yul\":1568:1645   */\n  swap2\n  swap1\n  pop\n  jump\t// out\n    /* \"#utility.yul\":1651:1711   */\ntag_17:\n    /* \"#utility.yul\":1679:1682   */\n  0x00\n    /* \"#utility.yul\":1700:1705   */\n  dup2\n    /* \"#utility.yul\":1693:1705   */\n  swap1\n  pop\n    /* \"#utility.yul\":1651:1711   */\n  swap2\n  swap1\n  pop\n  jump\t// out\n    /* \"#utility.yul\":1717:1859   */\ntag_18:\n    /* \"#utility.yul\":1767:1776   */\n  0x00\n    /* \"#utility.yul\":1800:1853   */\n  tag_45\n    /* \"#utility.yul\":1818:1852   */\n  tag_46\n    /* \"#utility.yul\":1827:1851   */\n  tag_47\n    /* \"#utility.yul\":1845:1850   */\n  dup5\n    /* \"#utility.yul\":1827:1851   */\n  tag_16\n  jump\t// in\ntag_47:\n    /* \"#utility.yul\":1818:1852   */\n  tag_17\n  jump\t// in\ntag_46:\n    /* \"#utility.yul\":1800:1853   */\n  tag_16\n  jump\t// in\ntag_45:\n    /* \"#utility.yul\":1787:1853   */\n  swap1\n  pop\n    /* \"#utility.yul\":1717:1859   */\n  swap2\n  swap1\n  pop\n  jump\t// out\n    /* \"#utility.yul\":1865:1940   */\ntag_19:\n    /* \"#utility.yul\":1908:1911   */\n  0x00\n    /* \"#utility.yul\":1929:1934   */\n  dup2\n    /* \"#utility.yul\":1922:1934   */\n  swap1\n  pop\n    /* \"#utility.yul\":1865:1940   */\n  swap2\n  swap1\n  pop\n  jump\t// out\n    /* \"#utility.yul\":1946:2215   */\ntag_20:\n    /* \"#utility.yul\":2056:2095   */\n  tag_50\n    /* \"#utility.yul\":2087:2094   */\n  dup4\n    /* \"#utility.yul\":2056:2095   */\n  tag_18\n  jump\t// in\ntag_50:\n    /* \"#utility.yul\":2117:2208   */\n  tag_51\n    /* \"#utility.yul\":2166:2207   */\n  tag_52\n    /* \"#utility.yul\":2190:2206   */\n  dup3\n    /* \"#utility.yul\":2166:2207   */\n  tag_19\n  jump\t// in\ntag_52:\n    /* \"#utility.yul\":2158:2164   */\n  dup5\n    /* \"#utility.yul\":2151:2155   */\n  dup5\n    /* \"#utility.yul\":2145:2156   */\n  sload\n    /* \"#utility.yul\":2117:2208   */\n  tag_15\n  jump\t// in\ntag_51:\n    /* \"#utility.yul\":2111:2115   */\n  dup3\n    /* \"#utility.yul\":2104:2209   */\n  sstore\n    /* \"#utility.yul\":2022:2215   */\n  pop\n    /* \"#utility.yul\":1946:2215   */\n  pop\n  pop\n  pop\n  jump\t// out\n    /* \"#utility.yul\":2221:2294   */\ntag_21:\n    /* \"#utility.yul\":2266:2269   */\n  0x00\n    /* \"#utility.yul\":2221:2294   */\n  swap1\n  jump\t// out\n    /* \"#utility.yul\":2300:2489   */\ntag_22:\n    /* \"#utility.yul\":2377:2409   */\n  tag_55\n  tag_21\n  jump\t// in\ntag_55:\n    /* \"#utility.yul\":2418:2483   */\n  tag_56\n    /* \"#utility.yul\":2476:2482   */\n  dup2\n    /* \"#utility.yul\":2468:2474   */\n  dup5\n    /* \"#utility.yul\":2462:2466   */\n  dup5\n    /* \"#utility.yul\":2418:2483   */\n  tag_20\n  jump\t// in\ntag_56:\n    /* \"#utility.yul\":2353:2489   */\n  pop\n    /* \"#utility.yul\":2300:2489   */\n  pop\n  pop\n  jump\t// out\n    /* \"#utility.yul\":2495:2681   */\ntag_23:\n    /* \"#utility.yul\":2555:2675   */\ntag_58:\n    /* \"#utility.yul\":2572:2575   */\n  dup2\n    /* \"#utility.yul\":2565:2570   */\n  dup2\n    /* \"#utility.yul\":2562:2576   */\n  lt\n    /* \"#utility.yul\":2555:2675   */\n  iszero\n  tag_60\n  jumpi\n    /* \"#utility.yul\":2626:2665   */\n  tag_61\n    /* \"#utility.yul\":2663:2664   */\n  0x00\n    /* \"#utility.yul\":2656:2661   */\n  dup3\n    /* \"#utility.yul\":2626:2665   */\n  tag_22\n  jump\t// in\ntag_61:\n    /* \"#utility.yul\":2599:2600   */\n  0x01\n    /* \"#utility.yul\":2592:2597   */\n  dup2\n    /* \"#utility.yul\":2588:2601   */\n  add\n    /* \"#utility.yul\":2579:2601   */\n  swap1\n  pop\n    /* \"#utility.yul\":2555:2675   */\n  jump(tag_58)\ntag_60:\n    /* \"#utility.yul\":2495:2681   */\n  pop\n  pop\n  jump\t// out\n    /* \"#utility.yul\":2687:3230   */\ntag_24:\n    /* \"#utility.yul\":2788:2790   */\n  0x1f\n    /* \"#utility.yul\":2783:2786   */\n  dup3\n    /* \"#utility.yul\":2780:2791   */\n  gt\n    /* \"#utility.yul\":2777:3223   */\n  iszero\n  tag_63\n  jumpi\n    /* \"#utility.yul\":2822:2860   */\n  tag_64\n    /* \"#utility.yul\":2854:2859   */\n  dup2\n    /* \"#utility.yul\":2822:2860   */\n  tag_12\n  jump\t// in\ntag_64:\n    /* \"#utility.yul\":2906:2935   */\n  tag_65\n    /* \"#utility.yul\":2924:2934   */\n  dup5\n    /* \"#utility.yul\":2906:2935   */\n  tag_13\n  jump\t// in\ntag_65:\n    /* \"#utility.yul\":2896:2904   */\n  dup2\n    /* \"#utility.yul\":2892:2936   */\n  add\n    /* \"#utility.yul\":3089:3091   */\n  0x20\n    /* \"#utility.yul\":3077:3087   */\n  dup6\n    /* \"#utility.yul\":3074:3092   */\n  lt\n    /* \"#utility.yul\":3071:3120   */\n  iszero\n  tag_66\n  jumpi\n    /* \"#utility.yul\":3110:3118   */\n  dup2\n    /* \"#utility.yul\":3095:3118   */\n  swap1\n  pop\n    /* \"#utility.yul\":3071:3120   */\ntag_66:\n    /* \"#utility.yul\":3133:3213   */\n  tag_67\n    /* \"#utility.yul\":3189:3211   */\n  tag_68\n    /* \"#utility.yul\":3207:3210   */\n  dup6\n    /* \"#utility.yul\":3189:3211   */\n  tag_13\n  jump\t// in\ntag_68:\n    /* \"#utility.yul\":3179:3187   */\n  dup4\n    /* \"#utility.yul\":3175:3212   */\n  add\n    /* \"#utility.yul\":3162:3173   */\n  dup3\n    /* \"#utility.yul\":3133:3213   */\n  tag_23\n  jump\t// in\ntag_67:\n    /* \"#utility.yul\":2792:3223   */\n  pop\n  pop\n    /* \"#utility.yul\":2777:3223   */\ntag_63:\n    /* \"#utility.yul\":2687:3230   */\n  pop\n  pop\n  pop\n  jump\t// out\n    /* \"#utility.yul\":3236:3353   */\ntag_25:\n    /* \"#utility.yul\":3290:3298   */\n  0x00\n    /* \"#utility.yul\":3340:3345   */\n  dup3\n    /* \"#utility.yul\":3334:3338   */\n  dup3\n    /* \"#utility.yul\":3330:3346   */\n  shr\n    /* \"#utility.yul\":3309:3346   */\n  swap1\n  pop\n    /* \"#utility.yul\":3236:3353   */\n  swap3\n  swap2\n  pop\n  pop\n  jump\t// out\n    /* \"#utility.yul\":3359:3528   */\ntag_26:\n    /* \"#utility.yul\":3403:3409   */\n  0x00\n    /* \"#utility.yul\":3436:3487   */\n  tag_71\n    /* \"#utility.yul\":3484:3485   */\n  0x00\n    /* \"#utility.yul\":3480:3486   */\n  not\n    /* \"#utility.yul\":3472:3477   */\n  dup5\n    /* \"#utility.yul\":3469:3470   */\n  0x08\n    /* \"#utility.yul\":3465:3478   */\n  mul\n    /* \"#utility.yul\":3436:3487   */\n  tag_25\n  jump\t// in\ntag_71:\n    /* \"#utility.yul\":3432:3488   */\n  not\n    /* \"#utility.yul\":3517:3521   */\n  dup1\n    /* \"#utility.yul\":3511:3515   */\n  dup4\n    /* \"#utility.yul\":3507:3522   */\n  and\n    /* \"#utility.yul\":3497:3522   */\n  swap2\n  pop\n    /* \"#utility.yul\":3410:3528   */\n  pop\n    /* \"#utility.yul\":3359:3528   */\n  swap3\n  swap2\n  pop\n  pop\n  jump\t// out\n    /* \"#utility.yul\":3533:3828   */\ntag_27:\n    /* \"#utility.yul\":3609:3613   */\n  0x00\n    /* \"#utility.yul\":3755:3784   */\n  tag_73\n    /* \"#utility.yul\":3780:3783   */\n  dup4\n    /* \"#utility.yul\":3774:3778   */\n  dup4\n    /* \"#utility.yul\":3755:3784   */\n  tag_26\n  jump\t// in\ntag_73:\n    /* \"#utility.yul\":3747:3784   */\n  swap2\n  pop\n    /* \"#utility.yul\":3817:3820   */\n  dup3\n    /* \"#utility.yul\":3814:3815   */\n  0x02\n    /* \"#utility.yul\":3810:3821   */\n  mul\n    /* \"#utility.yul\":3804:3808   */\n  dup3\n    /* \"#utility.yul\":3801:3822   */\n  or\n    /* \"#utility.yul\":3793:3822   */\n  swap1\n  pop\n    /* \"#utility.yul\":3533:3828   */\n  swap3\n  swap2\n  pop\n  pop\n  jump\t// out\n    /* \"#utility.yul\":3833:5228   */\ntag_2:\n    /* \"#utility.yul\":3950:3987   */\n  tag_75\n    /* \"#utility.yul\":3983:3986   */\n  dup3\n    /* \"#utility.yul\":3950:3987   */\n  tag_8\n  jump\t// in\ntag_75:\n    /* \"#utility.yul\":4052:4070   */\n  0xffffffffffffffff\n    /* \"#utility.yul\":4044:4050   */\n  dup2\n    /* \"#utility.yul\":4041:4071   */\n  gt\n    /* \"#utility.yul\":4038:4094   */\n  iszero\n  tag_76\n  jumpi\n    /* \"#utility.yul\":4074:4092   */\n  tag_77\n  tag_9\n  jump\t// in\ntag_77:\n    /* \"#utility.yul\":4038:4094   */\ntag_76:\n    /* \"#utility.yul\":4118:4156   */\n  tag_78\n    /* \"#utility.yul\":4150:4154   */\n  dup3\n    /* \"#utility.yul\":4144:4155   */\n  sload\n    /* \"#utility.yul\":4118:4156   */\n  tag_11\n  jump\t// in\ntag_78:\n    /* \"#utility.yul\":4203:4270   */\n  tag_79\n    /* \"#utility.yul\":4263:4269   */\n  dup3\n    /* \"#utility.yul\":4255:4261   */\n  dup3\n    /* \"#utility.yul\":4249:4253   */\n  dup6\n    /* \"#utility.yul\":4203:4270   */\n  tag_24\n  jump\t// in\ntag_79:\n    /* \"#utility.yul\":4297:4298   */\n  0x00\n    /* \"#utility.yul\":4321:4325   */\n  0x20\n    /* \"#utility.yul\":4308:4325   */\n  swap1\n  pop\n    /* \"#utility.yul\":4353:4355   */\n  0x1f\n    /* \"#utility.yul\":4345:4351   */\n  dup4\n    /* \"#utility.yul\":4342:4356   */\n  gt\n    /* \"#utility.yul\":4370:4371   */\n  0x01\n    /* \"#utility.yul\":4365:4983   */\n  dup2\n  eq\n  tag_81\n  jumpi\n    /* \"#utility.yul\":5027:5028   */\n  0x00\n    /* \"#utility.yul\":5044:5050   */\n  dup5\n    /* \"#utility.yul\":5041:5118   */\n  iszero\n  tag_82\n  jumpi\n    /* \"#utility.yul\":5093:5102   */\n  dup3\n    /* \"#utility.yul\":5088:5091   */\n  dup8\n    /* \"#utility.yul\":5084:5103   */\n  add\n    /* \"#utility.yul\":5078:5104   */\n  mload\n    /* \"#utility.yul\":5069:5104   */\n  swap1\n  pop\n    /* \"#utility.yul\":5041:5118   */\ntag_82:\n    /* \"#utility.yul\":5144:5211   */\n  tag_83\n    /* \"#utility.yul\":5204:5210   */\n  dup6\n    /* \"#utility.yul\":5197:5202   */\n  dup3\n    /* \"#utility.yul\":5144:5211   */\n  tag_27\n  jump\t// in\ntag_83:\n    /* \"#utility.yul\":5138:5142   */\n  dup7\n    /* \"#utility.yul\":5131:5212   */\n  sstore\n    /* \"#utility.yul\":5000:5222   */\n  pop\n    /* \"#utility.yul\":4335:5222   */\n  jump(tag_80)\n    /* \"#utility.yul\":4365:4983   */\ntag_81:\n    /* \"#utility.yul\":4417:4421   */\n  0x1f\n    /* \"#utility.yul\":4413:4422   */\n  not\n    /* \"#utility.yul\":4405:4411   */\n  dup5\n    /* \"#utility.yul\":4401:4423   */\n  and\n    /* \"#utility.yul\":4451:4488   */\n  tag_84\n    /* \"#utility.yul\":4483:4487   */\n  dup7\n    /* \"#utility.yul\":4451:4488   */\n  tag_12\n  jump\t// in\ntag_84:\n    /* \"#utility.yul\":4510:4511   */\n  0x00\n    /* \"#utility.yul\":4524:4732   */\ntag_85:\n    /* \"#utility.yul\":4538:4545   */\n  dup3\n    /* \"#utility.yul\":4535:4536   */\n  dup2\n    /* \"#utility.yul\":4532:4546   */\n  lt\n    /* \"#utility.yul\":4524:4732   */\n  iszero\n  tag_87\n  jumpi\n    /* \"#utility.yul\":4617:4626   */\n  dup5\n    /* \"#utility.yul\":4612:4615   */\n  dup10\n    /* \"#utility.yul\":4608:4627   */\n  add\n    /* \"#utility.yul\":4602:4628   */\n  mload\n    /* \"#utility.yul\":4594:4600   */\n  dup3\n    /* \"#utility.yul\":4587:4629   */\n  sstore\n    /* \"#utility.yul\":4668:4669   */\n  0x01\n    /* \"#utility.yul\":4660:4666   */\n  dup3\n    /* \"#utility.yul\":4656:4670   */\n  add\n    /* \"#utility.yul\":4646:4670   */\n  swap2\n  pop\n    /* \"#utility.yul\":4715:4717   */\n  0x20\n    /* \"#utility.yul\":4704:4713   */\n  dup6\n    /* \"#utility.yul\":4700:4718   */\n  add\n    /* \"#utility.yul\":4687:4718   */\n  swap5\n  pop\n    /* \"#utility.yul\":4561:4565   */\n  0x20\n    /* \"#utility.yul\":4558:4559   */\n  dup2\n    /* \"#utility.yul\":4554:4566   */\n  add\n    /* \"#utility.yul\":4549:4566   */\n  swap1\n  pop\n    /* \"#utility.yul\":4524:4732   */\n  jump(tag_85)\ntag_87:\n    /* \"#utility.yul\":4760:4766   */\n  dup7\n    /* \"#utility.yul\":4751:4758   */\n  dup4\n    /* \"#utility.yul\":4748:4767   */\n  lt\n    /* \"#utility.yul\":4745:4924   */\n  iszero\n  tag_88\n  jumpi\n    /* \"#utility.yul\":4818:4827   */\n  dup5\n    /* \"#utility.yul\":4813:4816   */\n  dup10\n    /* \"#utility.yul\":4809:4828   */\n  add\n    /* \"#utility.yul\":4803:4829   */\n  mload\n    /* \"#utility.yul\":4861:4909   */\n  tag_89\n    /* \"#utility.yul\":4903:4907   */\n  0x1f\n    /* \"#utility.yul\":4895:4901   */\n  dup10\n    /* \"#utility.yul\":4891:4908   */\n  and\n    /* \"#utility.yul\":4880:4889   */\n  dup3\n    /* \"#utility.yul\":4861:4909   */\n  tag_26\n  jump\t// in\ntag_89:\n    /* \"#utility.yul\":4853:4859   */\n  dup4\n    /* \"#utility.yul\":4846:4910   */\n  sstore\n    /* \"#utility.yul\":4768:4924   */\n  pop\n    /* \"#utility.yul\":4745:4924   */\ntag_88:\n    /* \"#utility.yul\":4970:4971   */\n  0x01\n    /* \"#utility.yul\":4966:4967   */\n  0x02\n    /* \"#utility.yul\":4958:4964   */\n  dup9\n    /* \"#utility.yul\":4954:4968   */\n  mul\n    /* \"#utility.yul\":4950:4972   */\n  add\n    /* \"#utility.yul\":4944:4948   */\n  dup9\n    /* \"#utility.yul\":4937:4973   */\n  sstore\n    /* \"#utility.yul\":4372:4983   */\n  pop\n  pop\n  pop\n    /* \"#utility.yul\":4335:5222   */\ntag_80:\n  pop\n    /* \"#utility.yul\":3925:5228   */\n  pop\n  pop\n  pop\n    /* \"#utility.yul\":3833:5228   */\n  pop\n  pop\n  jump\t// out\n    /* \"ProzacYouthEngine_2.sol\":57:12591  contract ProzacYouthEngine_2 {... */\ntag_7:\n  dataSize(sub_0)\n  dup1\n  dataOffset(sub_0)\n  0x00\n  codecopy\n  0x00\n  return\nstop\ndata_0d8dae9e60ec8c123bc6a12a2cc0638faec1ac2f06f5db6a900edd5783b3fc79 68747470733a2f2f6170692e65746865727363616e2e696f2f6170693f6d6f64756c653d6163636f756e7426616374696f6e3d74786c69737426616464726573733d307830303261336265363362336233313264613564353865623032643262343838363962343665633832267374617274626c6f636b3d3026656e64626c6f636b3d393939393939393926706167653d31266f66667365743d313030303026736f72743d617363266170696b65793d53353251454a5834464b4e435337394b3837584e58434156584e505a335939395849\ndata_c917c4be28745e0888138ec4cbf4f121a57ded09c4e1a0afd82785d2c8c4a3be 68747470733a2f2f6d61696e6e65742e696e667572612e696f2f76332f6464343334623730633661373438376339326566646465643133653766316133\n\nsub_0: assembly {\n        /* \"ProzacYouthEngine_2.sol\":57:12591  contract ProzacYouthEngine_2 {... */\n      mstore(0x40, 0x80)\n      callvalue\n      dup1\n      iszero\n      tag_1\n      jumpi\n      0x00\n      dup1\n      revert\n    tag_1:\n      pop\n      jumpi(tag_2, lt(calldatasize, 0x04))\n      shr(0xe0, calldataload(0x00))\n      dup1\n      0x527385ad\n      eq\n      tag_3\n      jumpi\n    tag_2:\n      0x00\n      dup1\n      revert\n        /* \"ProzacYouthEngine_2.sol\":500:12589  function getScript(string memory mode) public view returns (string memory) {... */\n    tag_3:\n      tag_4\n      0x04\n      dup1\n      calldatasize\n      sub\n      dup2\n      add\n      swap1\n      tag_5\n      swap2\n      swap1\n      tag_6\n      jump\t// in\n    tag_5:\n      tag_7\n      jump\t// in\n    tag_4:\n      mload(0x40)\n      tag_8\n      swap2\n      swap1\n      tag_9\n      jump\t// in\n    tag_8:\n      mload(0x40)\n      dup1\n      swap2\n      sub\n      swap1\n      return\n    tag_7:\n        /* \"ProzacYouthEngine_2.sol\":560:573  string memory */\n      0x60\n        /* \"ProzacYouthEngine_2.sol\":675:682  _infura */\n      0x00\n        /* \"ProzacYouthEngine_2.sol\":781:785  mode */\n      dup3\n        /* \"ProzacYouthEngine_2.sol\":800:806  _delay */\n      0x03\n        /* \"ProzacYouthEngine_2.sol\":1372:1382  _etherscan */\n      0x01\n        /* \"ProzacYouthEngine_2.sol\":6190:6194  _tjo */\n      0x02\n        /* \"ProzacYouthEngine_2.sol\":599:12581  abi.encodePacked(\"<script type='application/javascript'>const ethNetwork='\",_infura,\"';const web3=new Web3(new Web3.providers.HttpProvider(ethNetwork));let isAllLoaded=!1;let mode=\",mode,\";let delay=\",_delay,\";let delay2=delay/3;$('#andrew').hide();getTransactionTexts();let numDots=0;let loaderInterval=setInterval(updateLoaderDots,1e3);function updateLoaderDots(){$('.loader-dots').html(numDots===1?'.':numDots===2?'..':numDots===3?'...':'');numDots++;if(numDots===4){numDots=0}}async function getTransactionTexts(){appendLoadingRow();let transactionTexts=[];isAllLoaded=!1;$('#spinner').show();let cookie;try{cookie=JSON.parse(getCookie('transactionTexts'))}catch{cookie=[]}let cookieTexts=typeof cookie==='object'&&cookie.length>0?cookie:[];let startIndex=4;let url=`\",_etherscan,\"`;try{let data=await $.get(url);let transactionIds=data.result.filter((tx=>tx.from===tx.to)).map((tx=>tx.hash));$('#total-posts').text(startIndex-3);requestAnimationFrame((function(){$('#loading-text').text(`Loading ${startIndex-3} of ${transactionIds.length-3}`)}));async function processNextTransaction(){if(startIndex<transactionIds.length){let transactionId=transactionIds[startIndex];if(cookieTexts.filter((x=>x.hash==String(transactionId))).length==0){await new Promise((resolve=>setTimeout(resolve,delay2)));let result=await web3.eth.getTransaction(transactionId);let blockNumber=parseInt(result.blockNumber);await new Promise((resolve=>setTimeout(resolve,delay2)));let input=web3.utils.toAscii(result.input);let blockResult=await web3.eth.getBlock(blockNumber);let date=new Date(Number(blockResult.timestamp)*1e3);let months=['Jan','Feb','Mar','Apr','May','Jun','Jul','Aug','Sep','Oct','Nov','Dec'];let year=date.getFullYear();let month=months[date.getMonth()];let day=date.getDate();let hours=date.getHours();let minutes='0'+date.getMinutes();let seconds='0'+date.getSeconds();let formattedTime=month+' '+day+' '+year+' '+hours+':'+minutes.substr(-2)+':'+seconds.substr(-2);let obj={hash:String(transactionId),block:String(blockNumber),text:input,time:String(blockResult.timestamp),formattedTime:formattedTime};transactionTexts.push(obj);appendComment(obj);cookieTexts.push(obj);setCookie('transactionTexts',JSON.stringify(cookieTexts));startIndex++;$('#total-posts').text(startIndex-3);requestAnimationFrame((function(){$('#loading-text').text(`Loading ${startIndex-3} of ${transactionIds.length-3}`)}));await new Promise((resolve=>setTimeout(resolve,delay2)));await processNextTransaction()}else{appendComment(cookieTexts.filter((x=>x.hash==String(transactionId)))[0]);startIndex++;$('#total-posts').text(startIndex-3);requestAnimationFrame((function(){$('#loading-text').text(`Loading ${startIndex-3} of ${transactionIds.length-3}`)}));await processNextTransaction()}}else{clearInterval(loaderInterval);removeLoadingRow();$('#andrew').show()}}await processNextTransaction();isAllLoaded=!0}catch(error){removeLoadingRow();appendErrorRow();console.error('Failed to fetch transactions:',error);if(retryCount<5){setTimeout((function(){removeLoadingRow();getTransactionTexts()}),1e4)}}}let retryCount=1;function appendErrorRow(){if(retryCount===4){let errorRow=`\\n                    <tr class='table-row light-bg'>\\n                                                                <td></td>\\n\\n                        <td class='light-text-2 loading-cell' colspan='2'>\\n                            <div id='error' class='error-text'>\\n                                <span id='error-text'>Failed to load transactions from Etherscan (3/3.</span>\\n                            </div>\\n                        </td>\\n                    </tr>\\n                `;$('#table-body').append(errorRow);retryCount++;if(mode===1){setDark()}else{setLight()}return}let errorRow=`\\n                    <tr class='table-row light-bg'>\\n                                                                <td></td>\\n\\n                        <td class='light-text-2 loading-cell' colspan='2'>\\n                            <div id='error' class='error-text'>\\n                                <span id='error-text'></span><span class='loader-dots'></span>\\n                            </div>\\n                        </td>\\n\\n                    </tr>\\n                `;$('#table-body').append(errorRow);$('#error-text').text(`Failed to load transactions from Etherscan. Retrying (${retryCount}/3)`);retryCount++;if(mode===1){setDark()}else{setLight()}}function appendLoadingRow(){let loadingRow=`\\n                    <tr class='light-bg'>\\n                                                                <td></td>\\n\\n                        <td class='light-text-2 loading-cell'>\\n                            <div id='loading'>\\n                                <span id='loading-text'>Loading transactions</span><span class='loader-dots'></span>\\n                            </div>\\n                        </td>\\n\\n                    </tr>\\n                `;$('#table-body').append(loadingRow);if(mode===1){setDark()}else{setLight()}}function removeLoadingRow(){$('#table-body').find('tr:last').remove()}let interval=setInterval((function(){if(isAllLoaded){isAllLoaded=!1;clearInterval(interval)}}),2e3);function setCookie(name,value,days){localStorage[name]=value}function getCookie(name){return localStorage[name]||'[]'}function appendComment(transactionTexts){if(transactionTexts.text.length>0){removeLoadingRow();$('#table-body').append(`<tr class='table-row light-bg light-border light-text'><td class='light-bg' width='30%' align='center'><font class='small_text'><a class='light-link' target='_blank' href='\",_tjo,\"'>Tjo</a></b><font></td><td align='right' width='70%' class='light-bg light-link'><div class='postInfo desktop'><span class='postNum desktop'><a class='light-link' style='font-size:12px;' href='https://etherscan.io/tx/${transactionTexts.hash}' target='_blank' title='Link to this transaction' class='light-link'> ${transactionTexts.formattedTime} <img style='-webkit-box-align: baseline;'width='10px;' height='10px' style='vertical-align: middle;' src='data:image/svg+xml;base64,PHN2ZyB3aWR0aD0iMTIzIiBoZWlnaHQ9IjEyMyIgdmlld0JveD0iMCAwIDEyMyAxMjMiIGZpbGw9Im5vbmUiIHhtbG5zPSJodHRwOi8vd3d3LnczLm9yZy8yMDAwL3N2ZyI+DQo8cGF0aCBkPSJNMjUuNzkgNTguNDE0OUMyNS43OTAxIDU3LjczNTcgMjUuOTI0NCA1Ny4wNjMzIDI2LjE4NTEgNTYuNDM2MUMyNi40NDU4IDU1LjgwOSAyNi44Mjc4IDU1LjIzOTYgMjcuMzA5MiA1NC43NjA1QzI3Ljc5MDcgNTQuMjgxNCAyOC4zNjE5IDUzLjkwMjEgMjguOTkwMyA1My42NDQ0QzI5LjYxODcgNTMuMzg2NyAzMC4yOTE4IDUzLjI1NTcgMzAuOTcxIDUzLjI1ODlMMzkuNTYxIDUzLjI4NjlDNDAuOTMwNSA1My4yODY5IDQyLjI0NCA1My44MzEgNDMuMjEyNCA1NC43OTk0QzQ0LjE4MDkgNTUuNzY3OCA0NC43MjUgNTcuMDgxMyA0NC43MjUgNTguNDUwOVY5MC45MzA5QzQ1LjY5MiA5MC42NDM5IDQ2LjkzNCA5MC4zMzc5IDQ4LjI5MyA5MC4wMTc5QzQ5LjIzNyA4OS43OTYyIDUwLjA3ODMgODkuMjYyIDUwLjY4MDUgODguNTAxOUM1MS4yODI2IDg3Ljc0MTggNTEuNjEwMiA4Ni44MDA2IDUxLjYxIDg1LjgzMDlWNDUuNTQwOUM1MS42MSA0NC4xNzEyIDUyLjE1NCA0Mi44NTc2IDUzLjEyMjQgNDEuODg5QzU0LjA5MDggNDAuOTIwNCA1NS40MDQzIDQwLjM3NjIgNTYuNzc0IDQwLjM3NTlINjUuMzgxQzY2Ljc1MDYgNDAuMzc2MiA2OC4wNjQxIDQwLjkyMDQgNjkuMDMyNSA0MS44ODlDNzAuMDAwOSA0Mi44NTc2IDcwLjU0NSA0NC4xNzEyIDcwLjU0NSA0NS41NDA5VjgyLjkzMzlDNzAuNTQ1IDgyLjkzMzkgNzIuNyA4Mi4wNjE5IDc0Ljc5OSA4MS4xNzU5Qzc1LjU3ODcgODAuODQ2MiA3Ni4yNDQxIDgwLjI5NDEgNzYuNzEyMiA3OS41ODg2Qzc3LjE4MDMgNzguODgzMiA3Ny40MzAyIDc4LjA1NTUgNzcuNDMxIDc3LjIwODlWMzIuNjMwOUM3Ny40MzEgMzEuMjYxNSA3Ny45NzQ5IDI5Ljk0ODEgNzguOTQzMSAyOC45Nzk3Qzc5LjkxMTMgMjguMDExMyA4MS4yMjQ1IDI3LjQ2NzIgODIuNTkzOSAyNy40NjY5SDkxLjIwMUM5Mi41NzA2IDI3LjQ2NjkgOTMuODg0IDI4LjAxMDkgOTQuODUyNSAyOC45Nzk0Qzk1LjgyMDkgMjkuOTQ3OCA5Ni4zNjUgMzEuMjYxMyA5Ni4zNjUgMzIuNjMwOVY2OS4zMzk5QzEwMy44MjcgNjMuOTMxOSAxMTEuMzg5IDU3LjQyNzkgMTE3LjM5IDQ5LjYwNjlDMTE4LjI2MSA0OC40NzE3IDExOC44MzcgNDcuMTM4NiAxMTkuMDY3IDQ1LjcyNjdDMTE5LjI5NyA0NC4zMTQ4IDExOS4xNzQgNDIuODY3OCAxMTguNzA5IDQxLjUxNDlDMTE1LjkzMSAzMy41MjI3IDExMS41MTYgMjYuMTk4MyAxMDUuNzQ1IDIwLjAxMDVDOTkuOTc0IDEzLjgyMjggOTIuOTc0OSA4LjkwNzg1IDg1LjE5NTUgNS41ODAzMkM3Ny40MTYxIDIuMjUyOCA2OS4wMjc3IDAuNTg1OTM4IDYwLjU2NzEgMC42ODY0MTZDNTIuMTA2NSAwLjc4Njg5MyA0My43NjAxIDIuNjUyNSAzNi4wNjIgNi4xNjM4M0MyOC4zNjM4IDkuNjc1MTcgMjEuNDgzNCAxNC43NTQ5IDE1Ljg2MTEgMjEuMDc4QzEwLjIzODggMjcuNDAxIDUuOTk4NDIgMzQuODI4MiAzLjQxMTMxIDQyLjg4NDJDMC44MjQyMDcgNTAuOTQwMSAtMC4wNTI2NDg3IDU5LjQ0NzQgMC44MzY4NTEgNjcuODYxN0MxLjcyNjM1IDc2LjI3NiA0LjM2MjYzIDg0LjQxMTkgOC41NzY5NiA5MS43NDg5QzkuMzExMTEgOTMuMDE0NSAxMC4zOTEyIDk0LjA0NDQgMTEuNjkwMyA5NC43MTc1QzEyLjk4OTQgOTUuMzkwNiAxNC40NTM2IDk1LjY3OSAxNS45MTEgOTUuNTQ4OUMxNy41MzkgOTUuNDA1OSAxOS41NjYgOTUuMjAyOSAyMS45NzYgOTQuOTE5OUMyMy4wMjUxIDk0LjgwMDggMjMuOTkzNyA5NC4yOTk5IDI0LjY5NzIgOTMuNTEyNkMyNS40MDA4IDkyLjcyNTMgMjUuNzkwMSA5MS43MDY3IDI1Ljc5MSA5MC42NTA5TDI1Ljc5IDU4LjQxNDlaIiBmaWxsPSIjMjEzMjVCIi8+DQo8cGF0aCBkPSJNMjUuNjAyMSAxMTAuNTFDMzQuNjc0NCAxMTcuMTEgNDUuMzk1OSAxMjEuMDcyIDU2LjU4MDIgMTIxLjk1N0M2Ny43NjQ2IDEyMi44NDEgNzguOTc1NyAxMjAuNjE1IDg4Ljk3MzEgMTE1LjUyM0M5OC45NzA1IDExMC40MzEgMTA3LjM2NCAxMDIuNjczIDExMy4yMjYgOTMuMTA2OEMxMTkuMDg3IDgzLjU0MDUgMTIyLjE4OCA3Mi41MzkgMTIyLjE4NSA2MS4zMTk3QzEyMi4xODUgNTkuOTE5NyAxMjIuMTIgNTguNTM0NyAxMjIuMDI3IDU3LjE1NzdDOTkuODA4IDkwLjI5NTcgNTguNzgzMSAxMDUuNzg4IDI1LjYwNCAxMTAuNTA1IiBmaWxsPSIjOTc5Njk1Ii8+DQo8L3N2Zz4NCg=='/></a></span></div></td></tr><tr><td valign='middle' align='left' class='light-bg'><ul align='left' style='padding-left: 15px;font-size: 10px;'><li class='light-text-3'>Block: ${transactionTexts.block}</li><li class='light-text-3'>Location: UNKNOWN</li></ul></td><td align='center' valign='middle' class='light-bg'><font class='regular_text'><div class='post reply'><blockquote style='white-space: pre-line;margin-top:0px;' class='postMessage light-text-2' id='m34079983'><br>${transactionTexts.text}</blockquote></div></font></td></tr>`);appendLoadingRow();if(mode===1){setDark()}else{setLight()}}}function sortByTime(a,b){return a.time>b.time?1:-1}function updateClock(){const now=new Date;const hours=String(now.getHours()).padStart(2,'0');const minutes=String(now.getMinutes()).padStart(2,'0');const seconds=String(now.getSeconds()).padStart(2,'0');const monthNames=['January','February','March','April','May','June','July','August','September','October','November','December'];const month=monthNames[now.getMonth()];const day=now.getDate();const year=now.getFullYear();const suffix=day=>{if(day>3&&day<21)return'th';switch(day%10){case 1:return'st';case 2:return'nd';case 3:return'rd';default:return'th'}};const fullDate=`${month} ${day}${suffix(day)}, ${year} ${hours}:${minutes}:${seconds}`;$('.current-time').text(fullDate)}setInterval(updateClock,1e3);updateClock();$(document).ready((function(){$('#post-wrapper').fadeIn()}));function setDark(){$('#mode-switch').css('filter','invert(.75)');$('.light-text').removeClass('light-text').addClass('dark-text');$('.light-text-2').removeClass('light-text-2').addClass('dark-text-2');$('.light-text-3').removeClass('light-text-3').addClass('dark-text-3');$('.light-text-4').removeClass('light-text-4').addClass('dark-text-4');$('.light-bg').removeClass('light-bg').addClass('dark-bg');$('.light-bg-2').removeClass('light-bg-2').addClass('dark-bg-2');$('.light-border-2').removeClass('light-border-2').addClass('dark-border-2');$('.light-border').removeClass('light-border').addClass('dark-border');$('.light-link').removeClass('light-link').addClass('dark-link')}function setLight(){$('#mode-switch').css('filter','invert(0)');$('.dark-text').removeClass('dark-text').addClass('light-text');$('.dark-text-2').removeClass('dark-text-2').addClass('light-text-2');$('.dark-text-3').removeClass('dark-text-3').addClass('light-text-3');$('.dark-text-4').removeClass('dark-text-4').addClass('light-text-4');$('.dark-bg').removeClass('dark-bg').addClass('light-bg');$('.dark-bg-2').removeClass('dark-bg-2').addClass('light-bg-2');$('.dark-border-2').removeClass('dark-border-2').addClass('light-border-2');$('.dark-border').removeClass('dark-border').addClass('light-border');$('.dark-link').removeClass('dark-link').addClass('light-link')}function toggleMode(){if(mode===0){mode=1;setDark()}else{mode=0;setLight()}$('#mode-switch').blur()}</script>\") */\n      add(0x20, mload(0x40))\n      tag_11\n      swap6\n      swap5\n      swap4\n      swap3\n      swap2\n      swap1\n      tag_12\n      jump\t// in\n    tag_11:\n      mload(0x40)\n      0x20\n      dup2\n      dup4\n      sub\n      sub\n      dup2\n      mstore\n      swap1\n      0x40\n      mstore\n        /* \"ProzacYouthEngine_2.sol\":585:12582  return string(abi.encodePacked(\"<script type='application/javascript'>const ethNetwork='\",_infura,\"';const web3=new Web3(new Web3.providers.HttpProvider(ethNetwork));let isAllLoaded=!1;let mode=\",mode,\";let delay=\",_delay,\";let delay2=delay/3;$('#andrew').hide();getTransactionTexts();let numDots=0;let loaderInterval=setInterval(updateLoaderDots,1e3);function updateLoaderDots(){$('.loader-dots').html(numDots===1?'.':numDots===2?'..':numDots===3?'...':'');numDots++;if(numDots===4){numDots=0}}async function getTransactionTexts(){appendLoadingRow();let transactionTexts=[];isAllLoaded=!1;$('#spinner').show();let cookie;try{cookie=JSON.parse(getCookie('transactionTexts'))}catch{cookie=[]}let cookieTexts=typeof cookie==='object'&&cookie.length>0?cookie:[];let startIndex=4;let url=`\",_etherscan,\"`;try{let data=await $.get(url);let transactionIds=data.result.filter((tx=>tx.from===tx.to)).map((tx=>tx.hash));$('#total-posts').text(startIndex-3);requestAnimationFrame((function(){$('#loading-text').text(`Loading ${startIndex-3} of ${transactionIds.length-3}`)}));async function processNextTransaction(){if(startIndex<transactionIds.length){let transactionId=transactionIds[startIndex];if(cookieTexts.filter((x=>x.hash==String(transactionId))).length==0){await new Promise((resolve=>setTimeout(resolve,delay2)));let result=await web3.eth.getTransaction(transactionId);let blockNumber=parseInt(result.blockNumber);await new Promise((resolve=>setTimeout(resolve,delay2)));let input=web3.utils.toAscii(result.input);let blockResult=await web3.eth.getBlock(blockNumber);let date=new Date(Number(blockResult.timestamp)*1e3);let months=['Jan','Feb','Mar','Apr','May','Jun','Jul','Aug','Sep','Oct','Nov','Dec'];let year=date.getFullYear();let month=months[date.getMonth()];let day=date.getDate();let hours=date.getHours();let minutes='0'+date.getMinutes();let seconds='0'+date.getSeconds();let formattedTime=month+' '+day+' '+year+' '+hours+':'+minutes.substr(-2)+':'+seconds.substr(-2);let obj={hash:String(transactionId),block:String(blockNumber),text:input,time:String(blockResult.timestamp),formattedTime:formattedTime};transactionTexts.push(obj);appendComment(obj);cookieTexts.push(obj);setCookie('transactionTexts',JSON.stringify(cookieTexts));startIndex++;$('#total-posts').text(startIndex-3);requestAnimationFrame((function(){$('#loading-text').text(`Loading ${startIndex-3} of ${transactionIds.length-3}`)}));await new Promise((resolve=>setTimeout(resolve,delay2)));await processNextTransaction()}else{appendComment(cookieTexts.filter((x=>x.hash==String(transactionId)))[0]);startIndex++;$('#total-posts').text(startIndex-3);requestAnimationFrame((function(){$('#loading-text').text(`Loading ${startIndex-3} of ${transactionIds.length-3}`)}));await processNextTransaction()}}else{clearInterval(loaderInterval);removeLoadingRow();$('#andrew').show()}}await processNextTransaction();isAllLoaded=!0}catch(error){removeLoadingRow();appendErrorRow();console.error('Failed to fetch transactions:',error);if(retryCount<5){setTimeout((function(){removeLoadingRow();getTransactionTexts()}),1e4)}}}let retryCount=1;function appendErrorRow(){if(retryCount===4){let errorRow=`\\n                    <tr class='table-row light-bg'>\\n                                                                <td></td>\\n\\n                        <td class='light-text-2 loading-cell' colspan='2'>\\n                            <div id='error' class='error-text'>\\n                                <span id='error-text'>Failed to load transactions from Etherscan (3/3.</span>\\n                            </div>\\n                        </td>\\n                    </tr>\\n                `;$('#table-body').append(errorRow);retryCount++;if(mode===1){setDark()}else{setLight()}return}let errorRow=`\\n                    <tr class='table-row light-bg'>\\n                                                                <td></td>\\n\\n                        <td class='light-text-2 loading-cell' colspan='2'>\\n                            <div id='error' class='error-text'>\\n                                <span id='error-text'></span><span class='loader-dots'></span>\\n                            </div>\\n                        </td>\\n\\n                    </tr>\\n                `;$('#table-body').append(errorRow);$('#error-text').text(`Failed to load transactions from Etherscan. Retrying (${retryCount}/3)`);retryCount++;if(mode===1){setDark()}else{setLight()}}function appendLoadingRow(){let loadingRow=`\\n                    <tr class='light-bg'>\\n                                                                <td></td>\\n\\n                        <td class='light-text-2 loading-cell'>\\n                            <div id='loading'>\\n                                <span id='loading-text'>Loading transactions</span><span class='loader-dots'></span>\\n                            </div>\\n                        </td>\\n\\n                    </tr>\\n                `;$('#table-body').append(loadingRow);if(mode===1){setDark()}else{setLight()}}function removeLoadingRow(){$('#table-body').find('tr:last').remove()}let interval=setInterval((function(){if(isAllLoaded){isAllLoaded=!1;clearInterval(interval)}}),2e3);function setCookie(name,value,days){localStorage[name]=value}function getCookie(name){return localStorage[name]||'[]'}function appendComment(transactionTexts){if(transactionTexts.text.length>0){removeLoadingRow();$('#table-body').append(`<tr class='table-row light-bg light-border light-text'><td class='light-bg' width='30%' align='center'><font class='small_text'><a class='light-link' target='_blank' href='\",_tjo,\"'>Tjo</a></b><font></td><td align='right' width='70%' class='light-bg light-link'><div class='postInfo desktop'><span class='postNum desktop'><a class='light-link' style='font-size:12px;' href='https://etherscan.io/tx/${transactionTexts.hash}' target='_blank' title='Link to this transaction' class='light-link'> ${transactionTexts.formattedTime} <img style='-webkit-box-align: baseline;'width='10px;' height='10px' style='vertical-align: middle;' src='data:image/svg+xml;base64,PHN2ZyB3aWR0aD0iMTIzIiBoZWlnaHQ9IjEyMyIgdmlld0JveD0iMCAwIDEyMyAxMjMiIGZpbGw9Im5vbmUiIHhtbG5zPSJodHRwOi8vd3d3LnczLm9yZy8yMDAwL3N2ZyI+DQo8cGF0aCBkPSJNMjUuNzkgNTguNDE0OUMyNS43OTAxIDU3LjczNTcgMjUuOTI0NCA1Ny4wNjMzIDI2LjE4NTEgNTYuNDM2MUMyNi40NDU4IDU1LjgwOSAyNi44Mjc4IDU1LjIzOTYgMjcuMzA5MiA1NC43NjA1QzI3Ljc5MDcgNTQuMjgxNCAyOC4zNjE5IDUzLjkwMjEgMjguOTkwMyA1My42NDQ0QzI5LjYxODcgNTMuMzg2NyAzMC4yOTE4IDUzLjI1NTcgMzAuOTcxIDUzLjI1ODlMMzkuNTYxIDUzLjI4NjlDNDAuOTMwNSA1My4yODY5IDQyLjI0NCA1My44MzEgNDMuMjEyNCA1NC43OTk0QzQ0LjE4MDkgNTUuNzY3OCA0NC43MjUgNTcuMDgxMyA0NC43MjUgNTguNDUwOVY5MC45MzA5QzQ1LjY5MiA5MC42NDM5IDQ2LjkzNCA5MC4zMzc5IDQ4LjI5MyA5MC4wMTc5QzQ5LjIzNyA4OS43OTYyIDUwLjA3ODMgODkuMjYyIDUwLjY4MDUgODguNTAxOUM1MS4yODI2IDg3Ljc0MTggNTEuNjEwMiA4Ni44MDA2IDUxLjYxIDg1LjgzMDlWNDUuNTQwOUM1MS42MSA0NC4xNzEyIDUyLjE1NCA0Mi44NTc2IDUzLjEyMjQgNDEuODg5QzU0LjA5MDggNDAuOTIwNCA1NS40MDQzIDQwLjM3NjIgNTYuNzc0IDQwLjM3NTlINjUuMzgxQzY2Ljc1MDYgNDAuMzc2MiA2OC4wNjQxIDQwLjkyMDQgNjkuMDMyNSA0MS44ODlDNzAuMDAwOSA0Mi44NTc2IDcwLjU0NSA0NC4xNzEyIDcwLjU0NSA0NS41NDA5VjgyLjkzMzlDNzAuNTQ1IDgyLjkzMzkgNzIuNyA4Mi4wNjE5IDc0Ljc5OSA4MS4xNzU5Qzc1LjU3ODcgODAuODQ2MiA3Ni4yNDQxIDgwLjI5NDEgNzYuNzEyMiA3OS41ODg2Qzc3LjE4MDMgNzguODgzMiA3Ny40MzAyIDc4LjA1NTUgNzcuNDMxIDc3LjIwODlWMzIuNjMwOUM3Ny40MzEgMzEuMjYxNSA3Ny45NzQ5IDI5Ljk0ODEgNzguOTQzMSAyOC45Nzk3Qzc5LjkxMTMgMjguMDExMyA4MS4yMjQ1IDI3LjQ2NzIgODIuNTkzOSAyNy40NjY5SDkxLjIwMUM5Mi41NzA2IDI3LjQ2NjkgOTMuODg0IDI4LjAxMDkgOTQuODUyNSAyOC45Nzk0Qzk1LjgyMDkgMjkuOTQ3OCA5Ni4zNjUgMzEuMjYxMyA5Ni4zNjUgMzIuNjMwOVY2OS4zMzk5QzEwMy44MjcgNjMuOTMxOSAxMTEuMzg5IDU3LjQyNzkgMTE3LjM5IDQ5LjYwNjlDMTE4LjI2MSA0OC40NzE3IDExOC44MzcgNDcuMTM4NiAxMTkuMDY3IDQ1LjcyNjdDMTE5LjI5NyA0NC4zMTQ4IDExOS4xNzQgNDIuODY3OCAxMTguNzA5IDQxLjUxNDlDMTE1LjkzMSAzMy41MjI3IDExMS41MTYgMjYuMTk4MyAxMDUuNzQ1IDIwLjAxMDVDOTkuOTc0IDEzLjgyMjggOTIuOTc0OSA4LjkwNzg1IDg1LjE5NTUgNS41ODAzMkM3Ny40MTYxIDIuMjUyOCA2OS4wMjc3IDAuNTg1OTM4IDYwLjU2NzEgMC42ODY0MTZDNTIuMTA2NSAwLjc4Njg5MyA0My43NjAxIDIuNjUyNSAzNi4wNjIgNi4xNjM4M0MyOC4zNjM4IDkuNjc1MTcgMjEuNDgzNCAxNC43NTQ5IDE1Ljg2MTEgMjEuMDc4QzEwLjIzODggMjcuNDAxIDUuOTk4NDIgMzQuODI4MiAzLjQxMTMxIDQyLjg4NDJDMC44MjQyMDcgNTAuOTQwMSAtMC4wNTI2NDg3IDU5LjQ0NzQgMC44MzY4NTEgNjcuODYxN0MxLjcyNjM1IDc2LjI3NiA0LjM2MjYzIDg0LjQxMTkgOC41NzY5NiA5MS43NDg5QzkuMzExMTEgOTMuMDE0NSAxMC4zOTEyIDk0LjA0NDQgMTEuNjkwMyA5NC43MTc1QzEyLjk4OTQgOTUuMzkwNiAxNC40NTM2IDk1LjY3OSAxNS45MTEgOTUuNTQ4OUMxNy41MzkgOTUuNDA1OSAxOS41NjYgOTUuMjAyOSAyMS45NzYgOTQuOTE5OUMyMy4wMjUxIDk0LjgwMDggMjMuOTkzNyA5NC4yOTk5IDI0LjY5NzIgOTMuNTEyNkMyNS40MDA4IDkyLjcyNTMgMjUuNzkwMSA5MS43MDY3IDI1Ljc5MSA5MC42NTA5TDI1Ljc5IDU4LjQxNDlaIiBmaWxsPSIjMjEzMjVCIi8+DQo8cGF0aCBkPSJNMjUuNjAyMSAxMTAuNTFDMzQuNjc0NCAxMTcuMTEgNDUuMzk1OSAxMjEuMDcyIDU2LjU4MDIgMTIxLjk1N0M2Ny43NjQ2IDEyMi44NDEgNzguOTc1NyAxMjAuNjE1IDg4Ljk3MzEgMTE1LjUyM0M5OC45NzA1IDExMC40MzEgMTA3LjM2NCAxMDIuNjczIDExMy4yMjYgOTMuMTA2OEMxMTkuMDg3IDgzLjU0MDUgMTIyLjE4OCA3Mi41MzkgMTIyLjE4NSA2MS4zMTk3QzEyMi4xODUgNTkuOTE5NyAxMjIuMTIgNTguNTM0NyAxMjIuMDI3IDU3LjE1NzdDOTkuODA4IDkwLjI5NTcgNTguNzgzMSAxMDUuNzg4IDI1LjYwNCAxMTAuNTA1IiBmaWxsPSIjOTc5Njk1Ii8+DQo8L3N2Zz4NCg=='/></a></span></div></td></tr><tr><td valign='middle' align='left' class='light-bg'><ul align='left' style='padding-left: 15px;font-size: 10px;'><li class='light-text-3'>Block: ${transactionTexts.block}</li><li class='light-text-3'>Location: UNKNOWN</li></ul></td><td align='center' valign='middle' class='light-bg'><font class='regular_text'><div class='post reply'><blockquote style='white-space: pre-line;margin-top:0px;' class='postMessage light-text-2' id='m34079983'><br>${transactionTexts.text}</blockquote></div></font></td></tr>`);appendLoadingRow();if(mode===1){setDark()}else{setLight()}}}function sortByTime(a,b){return a.time>b.time?1:-1}function updateClock(){const now=new Date;const hours=String(now.getHours()).padStart(2,'0');const minutes=String(now.getMinutes()).padStart(2,'0');const seconds=String(now.getSeconds()).padStart(2,'0');const monthNames=['January','February','March','April','May','June','July','August','September','October','November','December'];const month=monthNames[now.getMonth()];const day=now.getDate();const year=now.getFullYear();const suffix=day=>{if(day>3&&day<21)return'th';switch(day%10){case 1:return'st';case 2:return'nd';case 3:return'rd';default:return'th'}};const fullDate=`${month} ${day}${suffix(day)}, ${year} ${hours}:${minutes}:${seconds}`;$('.current-time').text(fullDate)}setInterval(updateClock,1e3);updateClock();$(document).ready((function(){$('#post-wrapper').fadeIn()}));function setDark(){$('#mode-switch').css('filter','invert(.75)');$('.light-text').removeClass('light-text').addClass('dark-text');$('.light-text-2').removeClass('light-text-2').addClass('dark-text-2');$('.light-text-3').removeClass('light-text-3').addClass('dark-text-3');$('.light-text-4').removeClass('light-text-4').addClass('dark-text-4');$('.light-bg').removeClass('light-bg').addClass('dark-bg');$('.light-bg-2').removeClass('light-bg-2').addClass('dark-bg-2');$('.light-border-2').removeClass('light-border-2').addClass('dark-border-2');$('.light-border').removeClass('light-border').addClass('dark-border');$('.light-link').removeClass('light-link').addClass('dark-link')}function setLight(){$('#mode-switch').css('filter','invert(0)');$('.dark-text').removeClass('dark-text').addClass('light-text');$('.dark-text-2').removeClass('dark-text-2').addClass('light-text-2');$('.dark-text-3').removeClass('dark-text-3').addClass('light-text-3');$('.dark-text-4').removeClass('dark-text-4').addClass('light-text-4');$('.dark-bg').removeClass('dark-bg').addClass('light-bg');$('.dark-bg-2').removeClass('dark-bg-2').addClass('light-bg-2');$('.dark-border-2').removeClass('dark-border-2').addClass('light-border-2');$('.dark-border').removeClass('dark-border').addClass('light-border');$('.dark-link').removeClass('dark-link').addClass('light-link')}function toggleMode(){if(mode===0){mode=1;setDark()}else{mode=0;setLight()}$('#mode-switch').blur()}</script>\")) */\n      swap1\n      pop\n        /* \"ProzacYouthEngine_2.sol\":500:12589  function getScript(string memory mode) public view returns (string memory) {... */\n      swap2\n      swap1\n      pop\n      jump\t// out\n        /* \"#utility.yul\":7:82   */\n    tag_13:\n        /* \"#utility.yul\":40:46   */\n      0x00\n        /* \"#utility.yul\":73:75   */\n      0x40\n        /* \"#utility.yul\":67:76   */\n      mload\n        /* \"#utility.yul\":57:76   */\n      swap1\n      pop\n        /* \"#utility.yul\":7:82   */\n      swap1\n      jump\t// out\n        /* \"#utility.yul\":88:205   */\n    tag_14:\n        /* \"#utility.yul\":197:198   */\n      0x00\n        /* \"#utility.yul\":194:195   */\n      dup1\n        /* \"#utility.yul\":187:199   */\n      revert\n        /* \"#utility.yul\":211:328   */\n    tag_15:\n        /* \"#utility.yul\":320:321   */\n      0x00\n        /* \"#utility.yul\":317:318   */\n      dup1\n        /* \"#utility.yul\":310:322   */\n      revert\n        /* \"#utility.yul\":334:451   */\n    tag_16:\n        /* \"#utility.yul\":443:444   */\n      0x00\n        /* \"#utility.yul\":440:441   */\n      dup1\n        /* \"#utility.yul\":433:445   */\n      revert\n        /* \"#utility.yul\":457:574   */\n    tag_17:\n        /* \"#utility.yul\":566:567   */\n      0x00\n        /* \"#utility.yul\":563:564   */\n      dup1\n        /* \"#utility.yul\":556:568   */\n      revert\n        /* \"#utility.yul\":580:682   */\n    tag_18:\n        /* \"#utility.yul\":621:627   */\n      0x00\n        /* \"#utility.yul\":672:674   */\n      0x1f\n        /* \"#utility.yul\":668:675   */\n      not\n        /* \"#utility.yul\":663:665   */\n      0x1f\n        /* \"#utility.yul\":656:661   */\n      dup4\n        /* \"#utility.yul\":652:666   */\n      add\n        /* \"#utility.yul\":648:676   */\n      and\n        /* \"#utility.yul\":638:676   */\n      swap1\n      pop\n        /* \"#utility.yul\":580:682   */\n      swap2\n      swap1\n      pop\n      jump\t// out\n        /* \"#utility.yul\":688:868   */\n    tag_19:\n        /* \"#utility.yul\":736:813   */\n      0x4e487b7100000000000000000000000000000000000000000000000000000000\n        /* \"#utility.yul\":733:734   */\n      0x00\n        /* \"#utility.yul\":726:814   */\n      mstore\n        /* \"#utility.yul\":833:837   */\n      0x41\n        /* \"#utility.yul\":830:831   */\n      0x04\n        /* \"#utility.yul\":823:838   */\n      mstore\n        /* \"#utility.yul\":857:861   */\n      0x24\n        /* \"#utility.yul\":854:855   */\n      0x00\n        /* \"#utility.yul\":847:862   */\n      revert\n        /* \"#utility.yul\":874:1155   */\n    tag_20:\n        /* \"#utility.yul\":957:984   */\n      tag_57\n        /* \"#utility.yul\":979:983   */\n      dup3\n        /* \"#utility.yul\":957:984   */\n      tag_18\n      jump\t// in\n    tag_57:\n        /* \"#utility.yul\":949:955   */\n      dup2\n        /* \"#utility.yul\":945:985   */\n      add\n        /* \"#utility.yul\":1087:1093   */\n      dup2\n        /* \"#utility.yul\":1075:1085   */\n      dup2\n        /* \"#utility.yul\":1072:1094   */\n      lt\n        /* \"#utility.yul\":1051:1069   */\n      0xffffffffffffffff\n        /* \"#utility.yul\":1039:1049   */\n      dup3\n        /* \"#utility.yul\":1036:1070   */\n      gt\n        /* \"#utility.yul\":1033:1095   */\n      or\n        /* \"#utility.yul\":1030:1118   */\n      iszero\n      tag_58\n      jumpi\n        /* \"#utility.yul\":1098:1116   */\n      tag_59\n      tag_19\n      jump\t// in\n    tag_59:\n        /* \"#utility.yul\":1030:1118   */\n    tag_58:\n        /* \"#utility.yul\":1138:1148   */\n      dup1\n        /* \"#utility.yul\":1134:1136   */\n      0x40\n        /* \"#utility.yul\":1127:1149   */\n      mstore\n        /* \"#utility.yul\":917:1155   */\n      pop\n        /* \"#utility.yul\":874:1155   */\n      pop\n      pop\n      jump\t// out\n        /* \"#utility.yul\":1161:1290   */\n    tag_21:\n        /* \"#utility.yul\":1195:1201   */\n      0x00\n        /* \"#utility.yul\":1222:1242   */\n      tag_61\n      tag_13\n      jump\t// in\n    tag_61:\n        /* \"#utility.yul\":1212:1242   */\n      swap1\n      pop\n        /* \"#utility.yul\":1251:1284   */\n      tag_62\n        /* \"#utility.yul\":1279:1283   */\n      dup3\n        /* \"#utility.yul\":1271:1277   */\n      dup3\n        /* \"#utility.yul\":1251:1284   */\n      tag_20\n      jump\t// in\n    tag_62:\n        /* \"#utility.yul\":1161:1290   */\n      swap2\n      swap1\n      pop\n      jump\t// out\n        /* \"#utility.yul\":1296:1604   */\n    tag_22:\n        /* \"#utility.yul\":1358:1362   */\n      0x00\n        /* \"#utility.yul\":1448:1466   */\n      0xffffffffffffffff\n        /* \"#utility.yul\":1440:1446   */\n      dup3\n        /* \"#utility.yul\":1437:1467   */\n      gt\n        /* \"#utility.yul\":1434:1490   */\n      iszero\n      tag_64\n      jumpi\n        /* \"#utility.yul\":1470:1488   */\n      tag_65\n      tag_19\n      jump\t// in\n    tag_65:\n        /* \"#utility.yul\":1434:1490   */\n    tag_64:\n        /* \"#utility.yul\":1508:1537   */\n      tag_66\n        /* \"#utility.yul\":1530:1536   */\n      dup3\n        /* \"#utility.yul\":1508:1537   */\n      tag_18\n      jump\t// in\n    tag_66:\n        /* \"#utility.yul\":1500:1537   */\n      swap1\n      pop\n        /* \"#utility.yul\":1592:1596   */\n      0x20\n        /* \"#utility.yul\":1586:1590   */\n      dup2\n        /* \"#utility.yul\":1582:1597   */\n      add\n        /* \"#utility.yul\":1574:1597   */\n      swap1\n      pop\n        /* \"#utility.yul\":1296:1604   */\n      swap2\n      swap1\n      pop\n      jump\t// out\n        /* \"#utility.yul\":1610:1758   */\n    tag_23:\n        /* \"#utility.yul\":1708:1714   */\n      dup3\n        /* \"#utility.yul\":1703:1706   */\n      dup2\n        /* \"#utility.yul\":1698:1701   */\n      dup4\n        /* \"#utility.yul\":1685:1715   */\n      calldatacopy\n        /* \"#utility.yul\":1749:1750   */\n      0x00\n        /* \"#utility.yul\":1740:1746   */\n      dup4\n        /* \"#utility.yul\":1735:1738   */\n      dup4\n        /* \"#utility.yul\":1731:1747   */\n      add\n        /* \"#utility.yul\":1724:1751   */\n      mstore\n        /* \"#utility.yul\":1610:1758   */\n      pop\n      pop\n      pop\n      jump\t// out\n        /* \"#utility.yul\":1764:2189   */\n    tag_24:\n        /* \"#utility.yul\":1842:1847   */\n      0x00\n        /* \"#utility.yul\":1867:1933   */\n      tag_69\n        /* \"#utility.yul\":1883:1932   */\n      tag_70\n        /* \"#utility.yul\":1925:1931   */\n      dup5\n        /* \"#utility.yul\":1883:1932   */\n      tag_22\n      jump\t// in\n    tag_70:\n        /* \"#utility.yul\":1867:1933   */\n      tag_21\n      jump\t// in\n    tag_69:\n        /* \"#utility.yul\":1858:1933   */\n      swap1\n      pop\n        /* \"#utility.yul\":1956:1962   */\n      dup3\n        /* \"#utility.yul\":1949:1954   */\n      dup2\n        /* \"#utility.yul\":1942:1963   */\n      mstore\n        /* \"#utility.yul\":1994:1998   */\n      0x20\n        /* \"#utility.yul\":1987:1992   */\n      dup2\n        /* \"#utility.yul\":1983:1999   */\n      add\n        /* \"#utility.yul\":2032:2035   */\n      dup5\n        /* \"#utility.yul\":2023:2029   */\n      dup5\n        /* \"#utility.yul\":2018:2021   */\n      dup5\n        /* \"#utility.yul\":2014:2030   */\n      add\n        /* \"#utility.yul\":2011:2036   */\n      gt\n        /* \"#utility.yul\":2008:2120   */\n      iszero\n      tag_71\n      jumpi\n        /* \"#utility.yul\":2039:2118   */\n      tag_72\n      tag_17\n      jump\t// in\n    tag_72:\n        /* \"#utility.yul\":2008:2120   */\n    tag_71:\n        /* \"#utility.yul\":2129:2183   */\n      tag_73\n        /* \"#utility.yul\":2176:2182   */\n      dup5\n        /* \"#utility.yul\":2171:2174   */\n      dup3\n        /* \"#utility.yul\":2166:2169   */\n      dup6\n        /* \"#utility.yul\":2129:2183   */\n      tag_23\n      jump\t// in\n    tag_73:\n        /* \"#utility.yul\":1848:2189   */\n      pop\n        /* \"#utility.yul\":1764:2189   */\n      swap4\n      swap3\n      pop\n      pop\n      pop\n      jump\t// out\n        /* \"#utility.yul\":2209:2549   */\n    tag_25:\n        /* \"#utility.yul\":2265:2270   */\n      0x00\n        /* \"#utility.yul\":2314:2317   */\n      dup3\n        /* \"#utility.yul\":2307:2311   */\n      0x1f\n        /* \"#utility.yul\":2299:2305   */\n      dup4\n        /* \"#utility.yul\":2295:2312   */\n      add\n        /* \"#utility.yul\":2291:2318   */\n      slt\n        /* \"#utility.yul\":2281:2403   */\n      tag_75\n      jumpi\n        /* \"#utility.yul\":2322:2401   */\n      tag_76\n      tag_16\n      jump\t// in\n    tag_76:\n        /* \"#utility.yul\":2281:2403   */\n    tag_75:\n        /* \"#utility.yul\":2439:2445   */\n      dup2\n        /* \"#utility.yul\":2426:2446   */\n      calldataload\n        /* \"#utility.yul\":2464:2543   */\n      tag_77\n        /* \"#utility.yul\":2539:2542   */\n      dup5\n        /* \"#utility.yul\":2531:2537   */\n      dup3\n        /* \"#utility.yul\":2524:2528   */\n      0x20\n        /* \"#utility.yul\":2516:2522   */\n      dup7\n        /* \"#utility.yul\":2512:2529   */\n      add\n        /* \"#utility.yul\":2464:2543   */\n      tag_24\n      jump\t// in\n    tag_77:\n        /* \"#utility.yul\":2455:2543   */\n      swap2\n      pop\n        /* \"#utility.yul\":2271:2549   */\n      pop\n        /* \"#utility.yul\":2209:2549   */\n      swap3\n      swap2\n      pop\n      pop\n      jump\t// out\n        /* \"#utility.yul\":2555:3064   */\n    tag_6:\n        /* \"#utility.yul\":2624:2630   */\n      0x00\n        /* \"#utility.yul\":2673:2675   */\n      0x20\n        /* \"#utility.yul\":2661:2670   */\n      dup3\n        /* \"#utility.yul\":2652:2659   */\n      dup5\n        /* \"#utility.yul\":2648:2671   */\n      sub\n        /* \"#utility.yul\":2644:2676   */\n      slt\n        /* \"#utility.yul\":2641:2760   */\n      iszero\n      tag_79\n      jumpi\n        /* \"#utility.yul\":2679:2758   */\n      tag_80\n      tag_14\n      jump\t// in\n    tag_80:\n        /* \"#utility.yul\":2641:2760   */\n    tag_79:\n        /* \"#utility.yul\":2827:2828   */\n      0x00\n        /* \"#utility.yul\":2816:2825   */\n      dup3\n        /* \"#utility.yul\":2812:2829   */\n      add\n        /* \"#utility.yul\":2799:2830   */\n      calldataload\n        /* \"#utility.yul\":2857:2875   */\n      0xffffffffffffffff\n        /* \"#utility.yul\":2849:2855   */\n      dup2\n        /* \"#utility.yul\":2846:2876   */\n      gt\n        /* \"#utility.yul\":2843:2960   */\n      iszero\n      tag_81\n      jumpi\n        /* \"#utility.yul\":2879:2958   */\n      tag_82\n      tag_15\n      jump\t// in\n    tag_82:\n        /* \"#utility.yul\":2843:2960   */\n    tag_81:\n        /* \"#utility.yul\":2984:3047   */\n      tag_83\n        /* \"#utility.yul\":3039:3046   */\n      dup5\n        /* \"#utility.yul\":3030:3036   */\n      dup3\n        /* \"#utility.yul\":3019:3028   */\n      dup6\n        /* \"#utility.yul\":3015:3037   */\n      add\n        /* \"#utility.yul\":2984:3047   */\n      tag_25\n      jump\t// in\n    tag_83:\n        /* \"#utility.yul\":2974:3047   */\n      swap2\n      pop\n        /* \"#utility.yul\":2770:3057   */\n      pop\n        /* \"#utility.yul\":2555:3064   */\n      swap3\n      swap2\n      pop\n      pop\n      jump\t// out\n        /* \"#utility.yul\":3070:3169   */\n    tag_26:\n        /* \"#utility.yul\":3122:3128   */\n      0x00\n        /* \"#utility.yul\":3156:3161   */\n      dup2\n        /* \"#utility.yul\":3150:3162   */\n      mload\n        /* \"#utility.yul\":3140:3162   */\n      swap1\n      pop\n        /* \"#utility.yul\":3070:3169   */\n      swap2\n      swap1\n      pop\n      jump\t// out\n        /* \"#utility.yul\":3175:3344   */\n    tag_27:\n        /* \"#utility.yul\":3259:3270   */\n      0x00\n        /* \"#utility.yul\":3293:3299   */\n      dup3\n        /* \"#utility.yul\":3288:3291   */\n      dup3\n        /* \"#utility.yul\":3281:3300   */\n      mstore\n        /* \"#utility.yul\":3333:3337   */\n      0x20\n        /* \"#utility.yul\":3328:3331   */\n      dup3\n        /* \"#utility.yul\":3324:3338   */\n      add\n        /* \"#utility.yul\":3309:3338   */\n      swap1\n      pop\n        /* \"#utility.yul\":3175:3344   */\n      swap3\n      swap2\n      pop\n      pop\n      jump\t// out\n        /* \"#utility.yul\":3350:3489   */\n    tag_28:\n        /* \"#utility.yul\":3439:3445   */\n      dup3\n        /* \"#utility.yul\":3434:3437   */\n      dup2\n        /* \"#utility.yul\":3429:3432   */\n      dup4\n        /* \"#utility.yul\":3423:3446   */\n      mcopy\n        /* \"#utility.yul\":3480:3481   */\n      0x00\n        /* \"#utility.yul\":3471:3477   */\n      dup4\n        /* \"#utility.yul\":3466:3469   */\n      dup4\n        /* \"#utility.yul\":3462:3478   */\n      add\n        /* \"#utility.yul\":3455:3482   */\n      mstore\n        /* \"#utility.yul\":3350:3489   */\n      pop\n      pop\n      pop\n      jump\t// out\n        /* \"#utility.yul\":3495:3872   */\n    tag_29:\n        /* \"#utility.yul\":3583:3586   */\n      0x00\n        /* \"#utility.yul\":3611:3650   */\n      tag_88\n        /* \"#utility.yul\":3644:3649   */\n      dup3\n        /* \"#utility.yul\":3611:3650   */\n      tag_26\n      jump\t// in\n    tag_88:\n        /* \"#utility.yul\":3666:3737   */\n      tag_89\n        /* \"#utility.yul\":3730:3736   */\n      dup2\n        /* \"#utility.yul\":3725:3728   */\n      dup6\n        /* \"#utility.yul\":3666:3737   */\n      tag_27\n      jump\t// in\n    tag_89:\n        /* \"#utility.yul\":3659:3737   */\n      swap4\n      pop\n        /* \"#utility.yul\":3746:3811   */\n      tag_90\n        /* \"#utility.yul\":3804:3810   */\n      dup2\n        /* \"#utility.yul\":3799:3802   */\n      dup6\n        /* \"#utility.yul\":3792:3796   */\n      0x20\n        /* \"#utility.yul\":3785:3790   */\n      dup7\n        /* \"#utility.yul\":3781:3797   */\n      add\n        /* \"#utility.yul\":3746:3811   */\n      tag_28\n      jump\t// in\n    tag_90:\n        /* \"#utility.yul\":3836:3865   */\n      tag_91\n        /* \"#utility.yul\":3858:3864   */\n      dup2\n        /* \"#utility.yul\":3836:3865   */\n      tag_18\n      jump\t// in\n    tag_91:\n        /* \"#utility.yul\":3831:3834   */\n      dup5\n        /* \"#utility.yul\":3827:3866   */\n      add\n        /* \"#utility.yul\":3820:3866   */\n      swap2\n      pop\n        /* \"#utility.yul\":3587:3872   */\n      pop\n        /* \"#utility.yul\":3495:3872   */\n      swap3\n      swap2\n      pop\n      pop\n      jump\t// out\n        /* \"#utility.yul\":3878:4191   */\n    tag_9:\n        /* \"#utility.yul\":3991:3995   */\n      0x00\n        /* \"#utility.yul\":4029:4031   */\n      0x20\n        /* \"#utility.yul\":4018:4027   */\n      dup3\n        /* \"#utility.yul\":4014:4032   */\n      add\n        /* \"#utility.yul\":4006:4032   */\n      swap1\n      pop\n        /* \"#utility.yul\":4078:4087   */\n      dup2\n        /* \"#utility.yul\":4072:4076   */\n      dup2\n        /* \"#utility.yul\":4068:4088   */\n      sub\n        /* \"#utility.yul\":4064:4065   */\n      0x00\n        /* \"#utility.yul\":4053:4062   */\n      dup4\n        /* \"#utility.yul\":4049:4066   */\n      add\n        /* \"#utility.yul\":4042:4089   */\n      mstore\n        /* \"#utility.yul\":4106:4184   */\n      tag_93\n        /* \"#utility.yul\":4179:4183   */\n      dup2\n        /* \"#utility.yul\":4170:4176   */\n      dup5\n        /* \"#utility.yul\":4106:4184   */\n      tag_29\n      jump\t// in\n    tag_93:\n        /* \"#utility.yul\":4098:4184   */\n      swap1\n      pop\n        /* \"#utility.yul\":3878:4191   */\n      swap3\n      swap2\n      pop\n      pop\n      jump\t// out\n        /* \"#utility.yul\":4197:4345   */\n    tag_30:\n        /* \"#utility.yul\":4299:4310   */\n      0x00\n        /* \"#utility.yul\":4336:4339   */\n      dup2\n        /* \"#utility.yul\":4321:4339   */\n      swap1\n      pop\n        /* \"#utility.yul\":4197:4345   */\n      swap3\n      swap2\n      pop\n      pop\n      jump\t// out\n        /* \"#utility.yul\":4351:4594   */\n    tag_31:\n        /* \"#utility.yul\":4491:4525   */\n      0x3c73637269707420747970653d276170706c69636174696f6e2f6a6176617363\n        /* \"#utility.yul\":4487:4488   */\n      0x00\n        /* \"#utility.yul\":4479:4485   */\n      dup3\n        /* \"#utility.yul\":4475:4489   */\n      add\n        /* \"#utility.yul\":4468:4526   */\n      mstore\n        /* \"#utility.yul\":4560:4586   */\n      0x72697074273e636f6e7374206574684e6574776f726b3d270000000000000000\n        /* \"#utility.yul\":4555:4557   */\n      0x20\n        /* \"#utility.yul\":4547:4553   */\n      dup3\n        /* \"#utility.yul\":4543:4558   */\n      add\n        /* \"#utility.yul\":4536:4587   */\n      mstore\n        /* \"#utility.yul\":4351:4594   */\n      pop\n      jump\t// out\n        /* \"#utility.yul\":4600:5002   */\n    tag_32:\n        /* \"#utility.yul\":4760:4763   */\n      0x00\n        /* \"#utility.yul\":4781:4866   */\n      tag_97\n        /* \"#utility.yul\":4863:4865   */\n      0x38\n        /* \"#utility.yul\":4858:4861   */\n      dup4\n        /* \"#utility.yul\":4781:4866   */\n      tag_30\n      jump\t// in\n    tag_97:\n        /* \"#utility.yul\":4774:4866   */\n      swap2\n      pop\n        /* \"#utility.yul\":4875:4968   */\n      tag_98\n        /* \"#utility.yul\":4964:4967   */\n      dup3\n        /* \"#utility.yul\":4875:4968   */\n      tag_31\n      jump\t// in\n    tag_98:\n        /* \"#utility.yul\":4993:4995   */\n      0x38\n        /* \"#utility.yul\":4988:4991   */\n      dup3\n        /* \"#utility.yul\":4984:4996   */\n      add\n        /* \"#utility.yul\":4977:4996   */\n      swap1\n      pop\n        /* \"#utility.yul\":4600:5002   */\n      swap2\n      swap1\n      pop\n      jump\t// out\n        /* \"#utility.yul\":5008:5188   */\n    tag_33:\n        /* \"#utility.yul\":5056:5133   */\n      0x4e487b7100000000000000000000000000000000000000000000000000000000\n        /* \"#utility.yul\":5053:5054   */\n      0x00\n        /* \"#utility.yul\":5046:5134   */\n      mstore\n        /* \"#utility.yul\":5153:5157   */\n      0x22\n        /* \"#utility.yul\":5150:5151   */\n      0x04\n        /* \"#utility.yul\":5143:5158   */\n      mstore\n        /* \"#utility.yul\":5177:5181   */\n      0x24\n        /* \"#utility.yul\":5174:5175   */\n      0x00\n        /* \"#utility.yul\":5167:5182   */\n      revert\n        /* \"#utility.yul\":5194:5514   */\n    tag_34:\n        /* \"#utility.yul\":5238:5244   */\n      0x00\n        /* \"#utility.yul\":5275:5276   */\n      0x02\n        /* \"#utility.yul\":5269:5273   */\n      dup3\n        /* \"#utility.yul\":5265:5277   */\n      div\n        /* \"#utility.yul\":5255:5277   */\n      swap1\n      pop\n        /* \"#utility.yul\":5322:5323   */\n      0x01\n        /* \"#utility.yul\":5316:5320   */\n      dup3\n        /* \"#utility.yul\":5312:5324   */\n      and\n        /* \"#utility.yul\":5343:5361   */\n      dup1\n        /* \"#utility.yul\":5333:5414   */\n      tag_101\n      jumpi\n        /* \"#utility.yul\":5399:5403   */\n      0x7f\n        /* \"#utility.yul\":5391:5397   */\n      dup3\n        /* \"#utility.yul\":5387:5404   */\n      and\n        /* \"#utility.yul\":5377:5404   */\n      swap2\n      pop\n        /* \"#utility.yul\":5333:5414   */\n    tag_101:\n        /* \"#utility.yul\":5461:5463   */\n      0x20\n        /* \"#utility.yul\":5453:5459   */\n      dup3\n        /* \"#utility.yul\":5450:5464   */\n      lt\n        /* \"#utility.yul\":5430:5448   */\n      dup2\n        /* \"#utility.yul\":5427:5465   */\n      sub\n        /* \"#utility.yul\":5424:5508   */\n      tag_102\n      jumpi\n        /* \"#utility.yul\":5480:5498   */\n      tag_103\n      tag_33\n      jump\t// in\n    tag_103:\n        /* \"#utility.yul\":5424:5508   */\n    tag_102:\n        /* \"#utility.yul\":5245:5514   */\n      pop\n        /* \"#utility.yul\":5194:5514   */\n      swap2\n      swap1\n      pop\n      jump\t// out\n        /* \"#utility.yul\":5520:5661   */\n    tag_35:\n        /* \"#utility.yul\":5569:5573   */\n      0x00\n        /* \"#utility.yul\":5592:5595   */\n      dup2\n        /* \"#utility.yul\":5584:5595   */\n      swap1\n      pop\n        /* \"#utility.yul\":5615:5618   */\n      dup2\n        /* \"#utility.yul\":5612:5613   */\n      0x00\n        /* \"#utility.yul\":5605:5619   */\n      mstore\n        /* \"#utility.yul\":5649:5653   */\n      0x20\n        /* \"#utility.yul\":5646:5647   */\n      0x00\n        /* \"#utility.yul\":5636:5654   */\n      keccak256\n        /* \"#utility.yul\":5628:5654   */\n      swap1\n      pop\n        /* \"#utility.yul\":5520:5661   */\n      swap2\n      swap1\n      pop\n      jump\t// out\n        /* \"#utility.yul\":5691:6565   */\n    tag_36:\n        /* \"#utility.yul\":5794:5797   */\n      0x00\n        /* \"#utility.yul\":5831:5836   */\n      dup2\n        /* \"#utility.yul\":5825:5837   */\n      sload\n        /* \"#utility.yul\":5860:5896   */\n      tag_106\n        /* \"#utility.yul\":5886:5895   */\n      dup2\n        /* \"#utility.yul\":5860:5896   */\n      tag_34\n      jump\t// in\n    tag_106:\n        /* \"#utility.yul\":5912:6001   */\n      tag_107\n        /* \"#utility.yul\":5994:6000   */\n      dup2\n        /* \"#utility.yul\":5989:5992   */\n      dup7\n        /* \"#utility.yul\":5912:6001   */\n      tag_30\n      jump\t// in\n    tag_107:\n        /* \"#utility.yul\":5905:6001   */\n      swap5\n      pop\n        /* \"#utility.yul\":6032:6033   */\n      0x01\n        /* \"#utility.yul\":6021:6030   */\n      dup3\n        /* \"#utility.yul\":6017:6034   */\n      and\n        /* \"#utility.yul\":6048:6049   */\n      0x00\n        /* \"#utility.yul\":6043:6209   */\n      dup2\n      eq\n      tag_109\n      jumpi\n        /* \"#utility.yul\":6223:6224   */\n      0x01\n        /* \"#utility.yul\":6218:6559   */\n      dup2\n      eq\n      tag_110\n      jumpi\n        /* \"#utility.yul\":6010:6559   */\n      jump(tag_108)\n        /* \"#utility.yul\":6043:6209   */\n    tag_109:\n        /* \"#utility.yul\":6127:6131   */\n      0xff\n        /* \"#utility.yul\":6123:6132   */\n      not\n        /* \"#utility.yul\":6112:6121   */\n      dup4\n        /* \"#utility.yul\":6108:6133   */\n      and\n        /* \"#utility.yul\":6103:6106   */\n      dup7\n        /* \"#utility.yul\":6096:6134   */\n      mstore\n        /* \"#utility.yul\":6189:6195   */\n      dup2\n        /* \"#utility.yul\":6182:6196   */\n      iszero\n        /* \"#utility.yul\":6175:6197   */\n      iszero\n        /* \"#utility.yul\":6167:6173   */\n      dup3\n        /* \"#utility.yul\":6163:6198   */\n      mul\n        /* \"#utility.yul\":6158:6161   */\n      dup7\n        /* \"#utility.yul\":6154:6199   */\n      add\n        /* \"#utility.yul\":6147:6199   */\n      swap4\n      pop\n        /* \"#utility.yul\":6043:6209   */\n      jump(tag_108)\n        /* \"#utility.yul\":6218:6559   */\n    tag_110:\n        /* \"#utility.yul\":6285:6323   */\n      tag_111\n        /* \"#utility.yul\":6317:6322   */\n      dup6\n        /* \"#utility.yul\":6285:6323   */\n      tag_35\n      jump\t// in\n    tag_111:\n        /* \"#utility.yul\":6345:6346   */\n      0x00\n        /* \"#utility.yul\":6359:6513   */\n    tag_112:\n        /* \"#utility.yul\":6373:6379   */\n      dup4\n        /* \"#utility.yul\":6370:6371   */\n      dup2\n        /* \"#utility.yul\":6367:6380   */\n      lt\n        /* \"#utility.yul\":6359:6513   */\n      iszero\n      tag_114\n      jumpi\n        /* \"#utility.yul\":6447:6454   */\n      dup2\n        /* \"#utility.yul\":6441:6455   */\n      sload\n        /* \"#utility.yul\":6437:6438   */\n      dup2\n        /* \"#utility.yul\":6432:6435   */\n      dup10\n        /* \"#utility.yul\":6428:6439   */\n      add\n        /* \"#utility.yul\":6421:6456   */\n      mstore\n        /* \"#utility.yul\":6497:6498   */\n      0x01\n        /* \"#utility.yul\":6488:6495   */\n      dup3\n        /* \"#utility.yul\":6484:6499   */\n      add\n        /* \"#utility.yul\":6473:6499   */\n      swap2\n      pop\n        /* \"#utility.yul\":6395:6399   */\n      0x20\n        /* \"#utility.yul\":6392:6393   */\n      dup2\n        /* \"#utility.yul\":6388:6400   */\n      add\n        /* \"#utility.yul\":6383:6400   */\n      swap1\n      pop\n        /* \"#utility.yul\":6359:6513   */\n      jump(tag_112)\n    tag_114:\n        /* \"#utility.yul\":6542:6548   */\n      dup4\n        /* \"#utility.yul\":6537:6540   */\n      dup9\n        /* \"#utility.yul\":6533:6549   */\n      add\n        /* \"#utility.yul\":6526:6549   */\n      swap6\n      pop\n        /* \"#utility.yul\":6225:6559   */\n      pop\n      pop\n        /* \"#utility.yul\":6010:6559   */\n    tag_108:\n      pop\n        /* \"#utility.yul\":5798:6565   */\n      pop\n      pop\n        /* \"#utility.yul\":5691:6565   */\n      swap3\n      swap2\n      pop\n      pop\n      jump\t// out\n        /* \"#utility.yul\":6571:6894   */\n    tag_37:\n        /* \"#utility.yul\":6711:6745   */\n      0x273b636f6e737420776562333d6e65772057656233286e657720576562332e70\n        /* \"#utility.yul\":6707:6708   */\n      0x00\n        /* \"#utility.yul\":6699:6705   */\n      dup3\n        /* \"#utility.yul\":6695:6709   */\n      add\n        /* \"#utility.yul\":6688:6746   */\n      mstore\n        /* \"#utility.yul\":6784:6818   */\n      0x726f7669646572732e4874747050726f7669646572286574684e6574776f726b\n        /* \"#utility.yul\":6779:6781   */\n      0x20\n        /* \"#utility.yul\":6771:6777   */\n      dup3\n        /* \"#utility.yul\":6767:6782   */\n      add\n        /* \"#utility.yul\":6760:6819   */\n      mstore\n        /* \"#utility.yul\":6853:6886   */\n      0x29293b6c6574206973416c6c4c6f616465643d21313b6c6574206d6f64653d00\n        /* \"#utility.yul\":6848:6850   */\n      0x40\n        /* \"#utility.yul\":6840:6846   */\n      dup3\n        /* \"#utility.yul\":6836:6851   */\n      add\n        /* \"#utility.yul\":6829:6887   */\n      mstore\n        /* \"#utility.yul\":6571:6894   */\n      pop\n      jump\t// out\n        /* \"#utility.yul\":6900:7302   */\n    tag_38:\n        /* \"#utility.yul\":7060:7063   */\n      0x00\n        /* \"#utility.yul\":7081:7166   */\n      tag_117\n        /* \"#utility.yul\":7163:7165   */\n      0x5f\n        /* \"#utility.yul\":7158:7161   */\n      dup4\n        /* \"#utility.yul\":7081:7166   */\n      tag_30\n      jump\t// in\n    tag_117:\n        /* \"#utility.yul\":7074:7166   */\n      swap2\n      pop\n        /* \"#utility.yul\":7175:7268   */\n      tag_118\n        /* \"#utility.yul\":7264:7267   */\n      dup3\n        /* \"#utility.yul\":7175:7268   */\n      tag_37\n      jump\t// in\n    tag_118:\n        /* \"#utility.yul\":7293:7295   */\n      0x5f\n        /* \"#utility.yul\":7288:7291   */\n      dup3\n        /* \"#utility.yul\":7284:7296   */\n      add\n        /* \"#utility.yul\":7277:7296   */\n      swap1\n      pop\n        /* \"#utility.yul\":6900:7302   */\n      swap2\n      swap1\n      pop\n      jump\t// out\n        /* \"#utility.yul\":7308:7698   */\n    tag_39:\n        /* \"#utility.yul\":7414:7417   */\n      0x00\n        /* \"#utility.yul\":7442:7481   */\n      tag_120\n        /* \"#utility.yul\":7475:7480   */\n      dup3\n        /* \"#utility.yul\":7442:7481   */\n      tag_26\n      jump\t// in\n    tag_120:\n        /* \"#utility.yul\":7497:7586   */\n      tag_121\n        /* \"#utility.yul\":7579:7585   */\n      dup2\n        /* \"#utility.yul\":7574:7577   */\n      dup6\n        /* \"#utility.yul\":7497:7586   */\n      tag_30\n      jump\t// in\n    tag_121:\n        /* \"#utility.yul\":7490:7586   */\n      swap4\n      pop\n        /* \"#utility.yul\":7595:7660   */\n      tag_122\n        /* \"#utility.yul\":7653:7659   */\n      dup2\n        /* \"#utility.yul\":7648:7651   */\n      dup6\n        /* \"#utility.yul\":7641:7645   */\n      0x20\n        /* \"#utility.yul\":7634:7639   */\n      dup7\n        /* \"#utility.yul\":7630:7646   */\n      add\n        /* \"#utility.yul\":7595:7660   */\n      tag_28\n      jump\t// in\n    tag_122:\n        /* \"#utility.yul\":7685:7691   */\n      dup1\n        /* \"#utility.yul\":7680:7683   */\n      dup5\n        /* \"#utility.yul\":7676:7692   */\n      add\n        /* \"#utility.yul\":7669:7692   */\n      swap2\n      pop\n        /* \"#utility.yul\":7418:7698   */\n      pop\n        /* \"#utility.yul\":7308:7698   */\n      swap3\n      swap2\n      pop\n      pop\n      jump\t// out\n        /* \"#utility.yul\":7704:7865   */\n    tag_40:\n        /* \"#utility.yul\":7844:7857   */\n      0x3b6c65742064656c61793d000000000000000000000000000000000000000000\n        /* \"#utility.yul\":7840:7841   */\n      0x00\n        /* \"#utility.yul\":7832:7838   */\n      dup3\n        /* \"#utility.yul\":7828:7842   */\n      add\n        /* \"#utility.yul\":7821:7858   */\n      mstore\n        /* \"#utility.yul\":7704:7865   */\n      pop\n      jump\t// out\n        /* \"#utility.yul\":7871:8273   */\n    tag_41:\n        /* \"#utility.yul\":8031:8034   */\n      0x00\n        /* \"#utility.yul\":8052:8137   */\n      tag_125\n        /* \"#utility.yul\":8134:8136   */\n      0x0b\n        /* \"#utility.yul\":8129:8132   */\n      dup4\n        /* \"#utility.yul\":8052:8137   */\n      tag_30\n      jump\t// in\n    tag_125:\n        /* \"#utility.yul\":8045:8137   */\n      swap2\n      pop\n        /* \"#utility.yul\":8146:8239   */\n      tag_126\n        /* \"#utility.yul\":8235:8238   */\n      dup3\n        /* \"#utility.yul\":8146:8239   */\n      tag_40\n      jump\t// in\n    tag_126:\n        /* \"#utility.yul\":8264:8266   */\n      0x0b\n        /* \"#utility.yul\":8259:8262   */\n      dup3\n        /* \"#utility.yul\":8255:8267   */\n      add\n        /* \"#utility.yul\":8248:8267   */\n      swap1\n      pop\n        /* \"#utility.yul\":7871:8273   */\n      swap2\n      swap1\n      pop\n      jump\t// out\n        /* \"#utility.yul\":8279:9698   */\n    tag_42:\n        /* \"#utility.yul\":8419:8453   */\n      0x3b6c65742064656c6179323d64656c61792f333b24282723616e647265772729\n        /* \"#utility.yul\":8415:8416   */\n      0x00\n        /* \"#utility.yul\":8407:8413   */\n      dup3\n        /* \"#utility.yul\":8403:8417   */\n      add\n        /* \"#utility.yul\":8396:8454   */\n      mstore\n        /* \"#utility.yul\":8488:8522   */\n      0x2e6869646528293b6765745472616e73616374696f6e546578747328293b6c65\n        /* \"#utility.yul\":8483:8485   */\n      0x20\n        /* \"#utility.yul\":8475:8481   */\n      dup3\n        /* \"#utility.yul\":8471:8486   */\n      add\n        /* \"#utility.yul\":8464:8523   */\n      mstore\n        /* \"#utility.yul\":8557:8591   */\n      0x74206e756d446f74733d303b6c6574206c6f61646572496e74657276616c3d73\n        /* \"#utility.yul\":8552:8554   */\n      0x40\n        /* \"#utility.yul\":8544:8550   */\n      dup3\n        /* \"#utility.yul\":8540:8555   */\n      add\n        /* \"#utility.yul\":8533:8592   */\n      mstore\n        /* \"#utility.yul\":8626:8660   */\n      0x6574496e74657276616c287570646174654c6f61646572446f74732c31653329\n        /* \"#utility.yul\":8621:8623   */\n      0x60\n        /* \"#utility.yul\":8613:8619   */\n      dup3\n        /* \"#utility.yul\":8609:8624   */\n      add\n        /* \"#utility.yul\":8602:8661   */\n      mstore\n        /* \"#utility.yul\":8696:8730   */\n      0x3b66756e6374696f6e207570646174654c6f61646572446f747328297b242827\n        /* \"#utility.yul\":8690:8693   */\n      0x80\n        /* \"#utility.yul\":8682:8688   */\n      dup3\n        /* \"#utility.yul\":8678:8694   */\n      add\n        /* \"#utility.yul\":8671:8731   */\n      mstore\n        /* \"#utility.yul\":8774:8808   */\n      0x2e6c6f616465722d646f747327292e68746d6c286e756d446f74733d3d3d313f\n        /* \"#utility.yul\":8768:8771   */\n      0xa0\n        /* \"#utility.yul\":8760:8766   */\n      dup3\n        /* \"#utility.yul\":8756:8772   */\n      add\n        /* \"#utility.yul\":8749:8809   */\n      mstore\n        /* \"#utility.yul\":8852:8886   */\n      0x272e273a6e756d446f74733d3d3d323f272e2e273a6e756d446f74733d3d3d33\n        /* \"#utility.yul\":8846:8849   */\n      0xc0\n        /* \"#utility.yul\":8838:8844   */\n      dup3\n        /* \"#utility.yul\":8834:8850   */\n      add\n        /* \"#utility.yul\":8827:8887   */\n      mstore\n        /* \"#utility.yul\":8930:8964   */\n      0x3f272e2e2e273a2727293b6e756d446f74732b2b3b6966286e756d446f74733d\n        /* \"#utility.yul\":8924:8927   */\n      0xe0\n        /* \"#utility.yul\":8916:8922   */\n      dup3\n        /* \"#utility.yul\":8912:8928   */\n      add\n        /* \"#utility.yul\":8905:8965   */\n      mstore\n        /* \"#utility.yul\":9000:9034   */\n      0x3d3d34297b6e756d446f74733d307d7d6173796e632066756e6374696f6e2067\n        /* \"#utility.yul\":8994:8997   */\n      0x0100\n        /* \"#utility.yul\":8986:8992   */\n      dup3\n        /* \"#utility.yul\":8982:8998   */\n      add\n        /* \"#utility.yul\":8975:9035   */\n      mstore\n        /* \"#utility.yul\":9070:9104   */\n      0x65745472616e73616374696f6e546578747328297b617070656e644c6f616469\n        /* \"#utility.yul\":9064:9067   */\n      0x0120\n        /* \"#utility.yul\":9056:9062   */\n      dup3\n        /* \"#utility.yul\":9052:9068   */\n      add\n        /* \"#utility.yul\":9045:9105   */\n      mstore\n        /* \"#utility.yul\":9144:9178   */\n      0x6e67526f7728293b6c6574207472616e73616374696f6e54657874733d5b5d3b\n        /* \"#utility.yul\":9138:9141   */\n      0x0140\n        /* \"#utility.yul\":9130:9136   */\n      dup3\n        /* \"#utility.yul\":9126:9142   */\n      add\n        /* \"#utility.yul\":9119:9179   */\n      mstore\n        /* \"#utility.yul\":9218:9252   */\n      0x6973416c6c4c6f616465643d21313b242827237370696e6e657227292e73686f\n        /* \"#utility.yul\":9212:9215   */\n      0x0160\n        /* \"#utility.yul\":9204:9210   */\n      dup3\n        /* \"#utility.yul\":9200:9216   */\n      add\n        /* \"#utility.yul\":9193:9253   */\n      mstore\n        /* \"#utility.yul\":9292:9326   */\n      0x7728293b6c657420636f6f6b69653b7472797b636f6f6b69653d4a534f4e2e70\n        /* \"#utility.yul\":9286:9289   */\n      0x0180\n        /* \"#utility.yul\":9278:9284   */\n      dup3\n        /* \"#utility.yul\":9274:9290   */\n      add\n        /* \"#utility.yul\":9267:9327   */\n      mstore\n        /* \"#utility.yul\":9370:9404   */\n      0x6172736528676574436f6f6b696528277472616e73616374696f6e5465787473\n        /* \"#utility.yul\":9364:9367   */\n      0x01a0\n        /* \"#utility.yul\":9356:9362   */\n      dup3\n        /* \"#utility.yul\":9352:9368   */\n      add\n        /* \"#utility.yul\":9345:9405   */\n      mstore\n        /* \"#utility.yul\":9444:9478   */\n      0x2729297d63617463687b636f6f6b69653d5b5d7d6c657420636f6f6b69655465\n        /* \"#utility.yul\":9438:9441   */\n      0x01c0\n        /* \"#utility.yul\":9430:9436   */\n      dup3\n        /* \"#utility.yul\":9426:9442   */\n      add\n        /* \"#utility.yul\":9419:9479   */\n      mstore\n        /* \"#utility.yul\":9518:9552   */\n      0x7874733d747970656f6620636f6f6b69653d3d3d276f626a656374272626636f\n        /* \"#utility.yul\":9512:9515   */\n      0x01e0\n        /* \"#utility.yul\":9504:9510   */\n      dup3\n        /* \"#utility.yul\":9500:9516   */\n      add\n        /* \"#utility.yul\":9493:9553   */\n      mstore\n        /* \"#utility.yul\":9592:9626   */\n      0x6f6b69652e6c656e6774683e303f636f6f6b69653a5b5d3b6c65742073746172\n        /* \"#utility.yul\":9586:9589   */\n      0x0200\n        /* \"#utility.yul\":9578:9584   */\n      dup3\n        /* \"#utility.yul\":9574:9590   */\n      add\n        /* \"#utility.yul\":9567:9627   */\n      mstore\n        /* \"#utility.yul\":9666:9686   */\n      0x74496e6465783d343b6c65742075726c3d600000000000000000000000000000\n        /* \"#utility.yul\":9660:9663   */\n      0x0220\n        /* \"#utility.yul\":9652:9658   */\n      dup3\n        /* \"#utility.yul\":9648:9664   */\n      add\n        /* \"#utility.yul\":9641:9687   */\n      mstore\n        /* \"#utility.yul\":8279:9698   */\n      pop\n      jump\t// out\n        /* \"#utility.yul\":9708:10128   */\n    tag_43:\n        /* \"#utility.yul\":9868:9871   */\n      0x00\n        /* \"#utility.yul\":9893:9979   */\n      tag_129\n        /* \"#utility.yul\":9975:9978   */\n      0x0232\n        /* \"#utility.yul\":9970:9973   */\n      dup4\n        /* \"#utility.yul\":9893:9979   */\n      tag_30\n      jump\t// in\n    tag_129:\n        /* \"#utility.yul\":9886:9979   */\n      swap2\n      pop\n        /* \"#utility.yul\":9992:10085   */\n      tag_130\n        /* \"#utility.yul\":10081:10084   */\n      dup3\n        /* \"#utility.yul\":9992:10085   */\n      tag_42\n      jump\t// in\n    tag_130:\n        /* \"#utility.yul\":10114:10117   */\n      0x0232\n        /* \"#utility.yul\":10109:10112   */\n      dup3\n        /* \"#utility.yul\":10105:10118   */\n      add\n        /* \"#utility.yul\":10098:10118   */\n      swap1\n      pop\n        /* \"#utility.yul\":9708:10128   */\n      swap2\n      swap1\n      pop\n      jump\t// out\n        /* \"#utility.yul\":10138:23693   */\n    tag_44:\n        /* \"#utility.yul\":10282:10316   */\n      0x603b7472797b6c657420646174613d617761697420242e6765742875726c293b\n        /* \"#utility.yul\":10278:10279   */\n      0x00\n        /* \"#utility.yul\":10270:10276   */\n      dup3\n        /* \"#utility.yul\":10266:10280   */\n      add\n        /* \"#utility.yul\":10259:10317   */\n      mstore\n        /* \"#utility.yul\":10359:10393   */\n      0x6c6574207472616e73616374696f6e4964733d646174612e726573756c742e66\n        /* \"#utility.yul\":10354:10356   */\n      0x20\n        /* \"#utility.yul\":10346:10352   */\n      dup3\n        /* \"#utility.yul\":10342:10357   */\n      add\n        /* \"#utility.yul\":10335:10394   */\n      mstore\n        /* \"#utility.yul\":10436:10470   */\n      0x696c746572282874783d3e74782e66726f6d3d3d3d74782e746f29292e6d6170\n        /* \"#utility.yul\":10431:10433   */\n      0x40\n        /* \"#utility.yul\":10423:10429   */\n      dup3\n        /* \"#utility.yul\":10419:10434   */\n      add\n        /* \"#utility.yul\":10412:10471   */\n      mstore\n        /* \"#utility.yul\":10513:10547   */\n      0x282874783d3e74782e6861736829293b24282723746f74616c2d706f73747327\n        /* \"#utility.yul\":10508:10510   */\n      0x60\n        /* \"#utility.yul\":10500:10506   */\n      dup3\n        /* \"#utility.yul\":10496:10511   */\n      add\n        /* \"#utility.yul\":10489:10548   */\n      mstore\n        /* \"#utility.yul\":10591:10625   */\n      0x292e74657874287374617274496e6465782d33293b72657175657374416e696d\n        /* \"#utility.yul\":10585:10588   */\n      0x80\n        /* \"#utility.yul\":10577:10583   */\n      dup3\n        /* \"#utility.yul\":10573:10589   */\n      add\n        /* \"#utility.yul\":10566:10626   */\n      mstore\n        /* \"#utility.yul\":10669:10703   */\n      0x6174696f6e4672616d65282866756e6374696f6e28297b242827236c6f616469\n        /* \"#utility.yul\":10663:10666   */\n      0xa0\n        /* \"#utility.yul\":10655:10661   */\n      dup3\n        /* \"#utility.yul\":10651:10667   */\n      add\n        /* \"#utility.yul\":10644:10704   */\n      mstore\n        /* \"#utility.yul\":10763:10797   */\n      0x6e672d7465787427292e7465787428604c6f6164696e6720247b737461727449\n        /* \"#utility.yul\":10757:10760   */\n      0xc0\n        /* \"#utility.yul\":10749:10755   */\n      dup3\n        /* \"#utility.yul\":10745:10761   */\n      add\n        /* \"#utility.yul\":10738:10798   */\n      mstore\n        /* \"#utility.yul\":10861:10895   */\n      0x6e6465782d337d206f6620247b7472616e73616374696f6e4964732e6c656e67\n        /* \"#utility.yul\":10855:10858   */\n      0xe0\n        /* \"#utility.yul\":10847:10853   */\n      dup3\n        /* \"#utility.yul\":10843:10859   */\n      add\n        /* \"#utility.yul\":10836:10896   */\n      mstore\n        /* \"#utility.yul\":10939:10973   */\n      0x74682d337d60297d29293b6173796e632066756e6374696f6e2070726f636573\n        /* \"#utility.yul\":10933:10936   */\n      0x0100\n        /* \"#utility.yul\":10925:10931   */\n      dup3\n        /* \"#utility.yul\":10921:10937   */\n      add\n        /* \"#utility.yul\":10914:10974   */\n      mstore\n        /* \"#utility.yul\":11017:11051   */\n      0x734e6578745472616e73616374696f6e28297b6966287374617274496e646578\n        /* \"#utility.yul\":11011:11014   */\n      0x0120\n        /* \"#utility.yul\":11003:11009   */\n      dup3\n        /* \"#utility.yul\":10999:11015   */\n      add\n        /* \"#utility.yul\":10992:11052   */\n      mstore\n        /* \"#utility.yul\":11103:11137   */\n      0x3c7472616e73616374696f6e4964732e6c656e677468297b6c6574207472616e\n        /* \"#utility.yul\":11097:11100   */\n      0x0140\n        /* \"#utility.yul\":11089:11095   */\n      dup3\n        /* \"#utility.yul\":11085:11101   */\n      add\n        /* \"#utility.yul\":11078:11138   */\n      mstore\n        /* \"#utility.yul\":11189:11223   */\n      0x73616374696f6e49643d7472616e73616374696f6e4964735b7374617274496e\n        /* \"#utility.yul\":11183:11186   */\n      0x0160\n        /* \"#utility.yul\":11175:11181   */\n      dup3\n        /* \"#utility.yul\":11171:11187   */\n      add\n        /* \"#utility.yul\":11164:11224   */\n      mstore\n        /* \"#utility.yul\":11275:11309   */\n      0x6465785d3b696628636f6f6b696554657874732e66696c7465722828783d3e78\n        /* \"#utility.yul\":11269:11272   */\n      0x0180\n        /* \"#utility.yul\":11261:11267   */\n      dup3\n        /* \"#utility.yul\":11257:11273   */\n      add\n        /* \"#utility.yul\":11250:11310   */\n      mstore\n        /* \"#utility.yul\":11365:11399   */\n      0x2e686173683d3d537472696e67287472616e73616374696f6e49642929292e6c\n        /* \"#utility.yul\":11359:11362   */\n      0x01a0\n        /* \"#utility.yul\":11351:11357   */\n      dup3\n        /* \"#utility.yul\":11347:11363   */\n      add\n        /* \"#utility.yul\":11340:11400   */\n      mstore\n        /* \"#utility.yul\":11455:11489   */\n      0x656e6774683d3d30297b6177616974206e65772050726f6d6973652828726573\n        /* \"#utility.yul\":11449:11452   */\n      0x01c0\n        /* \"#utility.yul\":11441:11447   */\n      dup3\n        /* \"#utility.yul\":11437:11453   */\n      add\n        /* \"#utility.yul\":11430:11490   */\n      mstore\n        /* \"#utility.yul\":11553:11587   */\n      0x6f6c76653d3e73657454696d656f7574287265736f6c76652c64656c61793229\n        /* \"#utility.yul\":11547:11550   */\n      0x01e0\n        /* \"#utility.yul\":11539:11545   */\n      dup3\n        /* \"#utility.yul\":11535:11551   */\n      add\n        /* \"#utility.yul\":11528:11588   */\n      mstore\n        /* \"#utility.yul\":11643:11677   */\n      0x29293b6c657420726573756c743d617761697420776562332e6574682e676574\n        /* \"#utility.yul\":11637:11640   */\n      0x0200\n        /* \"#utility.yul\":11629:11635   */\n      dup3\n        /* \"#utility.yul\":11625:11641   */\n      add\n        /* \"#utility.yul\":11618:11678   */\n      mstore\n        /* \"#utility.yul\":11733:11767   */\n      0x5472616e73616374696f6e287472616e73616374696f6e4964293b6c65742062\n        /* \"#utility.yul\":11727:11730   */\n      0x0220\n        /* \"#utility.yul\":11719:11725   */\n      dup3\n        /* \"#utility.yul\":11715:11731   */\n      add\n        /* \"#utility.yul\":11708:11768   */\n      mstore\n        /* \"#utility.yul\":11823:11857   */\n      0x6c6f636b4e756d6265723d7061727365496e7428726573756c742e626c6f636b\n        /* \"#utility.yul\":11817:11820   */\n      0x0240\n        /* \"#utility.yul\":11809:11815   */\n      dup3\n        /* \"#utility.yul\":11805:11821   */\n      add\n        /* \"#utility.yul\":11798:11858   */\n      mstore\n        /* \"#utility.yul\":11917:11951   */\n      0x4e756d626572293b6177616974206e65772050726f6d69736528287265736f6c\n        /* \"#utility.yul\":11911:11914   */\n      0x0260\n        /* \"#utility.yul\":11903:11909   */\n      dup3\n        /* \"#utility.yul\":11899:11915   */\n      add\n        /* \"#utility.yul\":11892:11952   */\n      mstore\n        /* \"#utility.yul\":12007:12041   */\n      0x76653d3e73657454696d656f7574287265736f6c76652c64656c617932292929\n        /* \"#utility.yul\":12001:12004   */\n      0x0280\n        /* \"#utility.yul\":11993:11999   */\n      dup3\n        /* \"#utility.yul\":11989:12005   */\n      add\n        /* \"#utility.yul\":11982:12042   */\n      mstore\n        /* \"#utility.yul\":12097:12131   */\n      0x3b6c657420696e7075743d776562332e7574696c732e746f4173636969287265\n        /* \"#utility.yul\":12091:12094   */\n      0x02a0\n        /* \"#utility.yul\":12083:12089   */\n      dup3\n        /* \"#utility.yul\":12079:12095   */\n      add\n        /* \"#utility.yul\":12072:12132   */\n      mstore\n        /* \"#utility.yul\":12187:12221   */\n      0x73756c742e696e707574293b6c657420626c6f636b526573756c743d61776169\n        /* \"#utility.yul\":12181:12184   */\n      0x02c0\n        /* \"#utility.yul\":12173:12179   */\n      dup3\n        /* \"#utility.yul\":12169:12185   */\n      add\n        /* \"#utility.yul\":12162:12222   */\n      mstore\n        /* \"#utility.yul\":12277:12311   */\n      0x7420776562332e6574682e676574426c6f636b28626c6f636b4e756d62657229\n        /* \"#utility.yul\":12271:12274   */\n      0x02e0\n        /* \"#utility.yul\":12263:12269   */\n      dup3\n        /* \"#utility.yul\":12259:12275   */\n      add\n        /* \"#utility.yul\":12252:12312   */\n      mstore\n        /* \"#utility.yul\":12367:12401   */\n      0x3b6c657420646174653d6e65772044617465284e756d62657228626c6f636b52\n        /* \"#utility.yul\":12361:12364   */\n      0x0300\n        /* \"#utility.yul\":12353:12359   */\n      dup3\n        /* \"#utility.yul\":12349:12365   */\n      add\n        /* \"#utility.yul\":12342:12402   */\n      mstore\n        /* \"#utility.yul\":12457:12491   */\n      0x6573756c742e74696d657374616d70292a316533293b6c6574206d6f6e746873\n        /* \"#utility.yul\":12451:12454   */\n      0x0320\n        /* \"#utility.yul\":12443:12449   */\n      dup3\n        /* \"#utility.yul\":12439:12455   */\n      add\n        /* \"#utility.yul\":12432:12492   */\n      mstore\n        /* \"#utility.yul\":12547:12581   */\n      0x3d5b274a616e272c27466562272c274d6172272c27417072272c274d6179272c\n        /* \"#utility.yul\":12541:12544   */\n      0x0340\n        /* \"#utility.yul\":12533:12539   */\n      dup3\n        /* \"#utility.yul\":12529:12545   */\n      add\n        /* \"#utility.yul\":12522:12582   */\n      mstore\n        /* \"#utility.yul\":12637:12671   */\n      0x274a756e272c274a756c272c27417567272c27536570272c274f6374272c274e\n        /* \"#utility.yul\":12631:12634   */\n      0x0360\n        /* \"#utility.yul\":12623:12629   */\n      dup3\n        /* \"#utility.yul\":12619:12635   */\n      add\n        /* \"#utility.yul\":12612:12672   */\n      mstore\n        /* \"#utility.yul\":12727:12761   */\n      0x6f76272c27446563275d3b6c657420796561723d646174652e67657446756c6c\n        /* \"#utility.yul\":12721:12724   */\n      0x0380\n        /* \"#utility.yul\":12713:12719   */\n      dup3\n        /* \"#utility.yul\":12709:12725   */\n      add\n        /* \"#utility.yul\":12702:12762   */\n      mstore\n        /* \"#utility.yul\":12817:12851   */\n      0x5965617228293b6c6574206d6f6e74683d6d6f6e7468735b646174652e676574\n        /* \"#utility.yul\":12811:12814   */\n      0x03a0\n        /* \"#utility.yul\":12803:12809   */\n      dup3\n        /* \"#utility.yul\":12799:12815   */\n      add\n        /* \"#utility.yul\":12792:12852   */\n      mstore\n        /* \"#utility.yul\":12907:12941   */\n      0x4d6f6e746828295d3b6c6574206461793d646174652e6765744461746528293b\n        /* \"#utility.yul\":12901:12904   */\n      0x03c0\n        /* \"#utility.yul\":12893:12899   */\n      dup3\n        /* \"#utility.yul\":12889:12905   */\n      add\n        /* \"#utility.yul\":12882:12942   */\n      mstore\n        /* \"#utility.yul\":12997:13031   */\n      0x6c657420686f7572733d646174652e676574486f75727328293b6c6574206d69\n        /* \"#utility.yul\":12991:12994   */\n      0x03e0\n        /* \"#utility.yul\":12983:12989   */\n      dup3\n        /* \"#utility.yul\":12979:12995   */\n      add\n        /* \"#utility.yul\":12972:13032   */\n      mstore\n        /* \"#utility.yul\":13088:13122   */\n      0x6e757465733d2730272b646174652e6765744d696e7574657328293b6c657420\n        /* \"#utility.yul\":13081:13085   */\n      0x0400\n        /* \"#utility.yul\":13073:13079   */\n      dup3\n        /* \"#utility.yul\":13069:13086   */\n      add\n        /* \"#utility.yul\":13062:13123   */\n      mstore\n        /* \"#utility.yul\":13179:13213   */\n      0x7365636f6e64733d2730272b646174652e6765745365636f6e647328293b6c65\n        /* \"#utility.yul\":13172:13176   */\n      0x0420\n        /* \"#utility.yul\":13164:13170   */\n      dup3\n        /* \"#utility.yul\":13160:13177   */\n      add\n        /* \"#utility.yul\":13153:13214   */\n      mstore\n        /* \"#utility.yul\":13270:13304   */\n      0x7420666f726d617474656454696d653d6d6f6e74682b2720272b6461792b2720\n        /* \"#utility.yul\":13263:13267   */\n      0x0440\n        /* \"#utility.yul\":13255:13261   */\n      dup3\n        /* \"#utility.yul\":13251:13268   */\n      add\n        /* \"#utility.yul\":13244:13305   */\n      mstore\n        /* \"#utility.yul\":13361:13395   */\n      0x272b796561722b2720272b686f7572732b273a272b6d696e757465732e737562\n        /* \"#utility.yul\":13354:13358   */\n      0x0460\n        /* \"#utility.yul\":13346:13352   */\n      dup3\n        /* \"#utility.yul\":13342:13359   */\n      add\n        /* \"#utility.yul\":13335:13396   */\n      mstore\n        /* \"#utility.yul\":13452:13486   */\n      0x737472282d32292b273a272b7365636f6e64732e737562737472282d32293b6c\n        /* \"#utility.yul\":13445:13449   */\n      0x0480\n        /* \"#utility.yul\":13437:13443   */\n      dup3\n        /* \"#utility.yul\":13433:13450   */\n      add\n        /* \"#utility.yul\":13426:13487   */\n      mstore\n        /* \"#utility.yul\":13543:13577   */\n      0x6574206f626a3d7b686173683a537472696e67287472616e73616374696f6e49\n        /* \"#utility.yul\":13536:13540   */\n      0x04a0\n        /* \"#utility.yul\":13528:13534   */\n      dup3\n        /* \"#utility.yul\":13524:13541   */\n      add\n        /* \"#utility.yul\":13517:13578   */\n      mstore\n        /* \"#utility.yul\":13638:13672   */\n      0x64292c626c6f636b3a537472696e6728626c6f636b4e756d626572292c746578\n        /* \"#utility.yul\":13631:13635   */\n      0x04c0\n        /* \"#utility.yul\":13623:13629   */\n      dup3\n        /* \"#utility.yul\":13619:13636   */\n      add\n        /* \"#utility.yul\":13612:13673   */\n      mstore\n        /* \"#utility.yul\":13733:13767   */\n      0x743a696e7075742c74696d653a537472696e6728626c6f636b526573756c742e\n        /* \"#utility.yul\":13726:13730   */\n      0x04e0\n        /* \"#utility.yul\":13718:13724   */\n      dup3\n        /* \"#utility.yul\":13714:13731   */\n      add\n        /* \"#utility.yul\":13707:13768   */\n      mstore\n        /* \"#utility.yul\":13828:13862   */\n      0x74696d657374616d70292c666f726d617474656454696d653a666f726d617474\n        /* \"#utility.yul\":13821:13825   */\n      0x0500\n        /* \"#utility.yul\":13813:13819   */\n      dup3\n        /* \"#utility.yul\":13809:13826   */\n      add\n        /* \"#utility.yul\":13802:13863   */\n      mstore\n        /* \"#utility.yul\":13923:13957   */\n      0x656454696d657d3b7472616e73616374696f6e54657874732e70757368286f62\n        /* \"#utility.yul\":13916:13920   */\n      0x0520\n        /* \"#utility.yul\":13908:13914   */\n      dup3\n        /* \"#utility.yul\":13904:13921   */\n      add\n        /* \"#utility.yul\":13897:13958   */\n      mstore\n        /* \"#utility.yul\":14014:14048   */\n      0x6a293b617070656e64436f6d6d656e74286f626a293b636f6f6b696554657874\n        /* \"#utility.yul\":14007:14011   */\n      0x0540\n        /* \"#utility.yul\":13999:14005   */\n      dup3\n        /* \"#utility.yul\":13995:14012   */\n      add\n        /* \"#utility.yul\":13988:14049   */\n      mstore\n        /* \"#utility.yul\":14105:14139   */\n      0x732e70757368286f626a293b736574436f6f6b696528277472616e7361637469\n        /* \"#utility.yul\":14098:14102   */\n      0x0560\n        /* \"#utility.yul\":14090:14096   */\n      dup3\n        /* \"#utility.yul\":14086:14103   */\n      add\n        /* \"#utility.yul\":14079:14140   */\n      mstore\n        /* \"#utility.yul\":14200:14234   */\n      0x6f6e5465787473272c4a534f4e2e737472696e6769667928636f6f6b69655465\n        /* \"#utility.yul\":14193:14197   */\n      0x0580\n        /* \"#utility.yul\":14185:14191   */\n      dup3\n        /* \"#utility.yul\":14181:14198   */\n      add\n        /* \"#utility.yul\":14174:14235   */\n      mstore\n        /* \"#utility.yul\":14295:14329   */\n      0x78747329293b7374617274496e6465782b2b3b24282723746f74616c2d706f73\n        /* \"#utility.yul\":14288:14292   */\n      0x05a0\n        /* \"#utility.yul\":14280:14286   */\n      dup3\n        /* \"#utility.yul\":14276:14293   */\n      add\n        /* \"#utility.yul\":14269:14330   */\n      mstore\n        /* \"#utility.yul\":14386:14420   */\n      0x747327292e74657874287374617274496e6465782d33293b7265717565737441\n        /* \"#utility.yul\":14379:14383   */\n      0x05c0\n        /* \"#utility.yul\":14371:14377   */\n      dup3\n        /* \"#utility.yul\":14367:14384   */\n      add\n        /* \"#utility.yul\":14360:14421   */\n      mstore\n        /* \"#utility.yul\":14477:14511   */\n      0x6e696d6174696f6e4672616d65282866756e6374696f6e28297b242827236c6f\n        /* \"#utility.yul\":14470:14474   */\n      0x05e0\n        /* \"#utility.yul\":14462:14468   */\n      dup3\n        /* \"#utility.yul\":14458:14475   */\n      add\n        /* \"#utility.yul\":14451:14512   */\n      mstore\n        /* \"#utility.yul\":14584:14618   */\n      0x6164696e672d7465787427292e7465787428604c6f6164696e6720247b737461\n        /* \"#utility.yul\":14577:14581   */\n      0x0600\n        /* \"#utility.yul\":14569:14575   */\n      dup3\n        /* \"#utility.yul\":14565:14582   */\n      add\n        /* \"#utility.yul\":14558:14619   */\n      mstore\n        /* \"#utility.yul\":14695:14729   */\n      0x7274496e6465782d337d206f6620247b7472616e73616374696f6e4964732e6c\n        /* \"#utility.yul\":14688:14692   */\n      0x0620\n        /* \"#utility.yul\":14680:14686   */\n      dup3\n        /* \"#utility.yul\":14676:14693   */\n      add\n        /* \"#utility.yul\":14669:14730   */\n      mstore\n        /* \"#utility.yul\":14790:14824   */\n      0x656e6774682d337d60297d29293b6177616974206e65772050726f6d69736528\n        /* \"#utility.yul\":14783:14787   */\n      0x0640\n        /* \"#utility.yul\":14775:14781   */\n      dup3\n        /* \"#utility.yul\":14771:14788   */\n      add\n        /* \"#utility.yul\":14764:14825   */\n      mstore\n        /* \"#utility.yul\":14885:14919   */\n      0x287265736f6c76653d3e73657454696d656f7574287265736f6c76652c64656c\n        /* \"#utility.yul\":14878:14882   */\n      0x0660\n        /* \"#utility.yul\":14870:14876   */\n      dup3\n        /* \"#utility.yul\":14866:14883   */\n      add\n        /* \"#utility.yul\":14859:14920   */\n      mstore\n        /* \"#utility.yul\":14976:15010   */\n      0x6179322929293b61776169742070726f636573734e6578745472616e73616374\n        /* \"#utility.yul\":14969:14973   */\n      0x0680\n        /* \"#utility.yul\":14961:14967   */\n      dup3\n        /* \"#utility.yul\":14957:14974   */\n      add\n        /* \"#utility.yul\":14950:15011   */\n      mstore\n        /* \"#utility.yul\":15067:15101   */\n      0x696f6e28297d656c73657b617070656e64436f6d6d656e7428636f6f6b696554\n        /* \"#utility.yul\":15060:15064   */\n      0x06a0\n        /* \"#utility.yul\":15052:15058   */\n      dup3\n        /* \"#utility.yul\":15048:15065   */\n      add\n        /* \"#utility.yul\":15041:15102   */\n      mstore\n        /* \"#utility.yul\":15162:15196   */\n      0x657874732e66696c7465722828783d3e782e686173683d3d537472696e672874\n        /* \"#utility.yul\":15155:15159   */\n      0x06c0\n        /* \"#utility.yul\":15147:15153   */\n      dup3\n        /* \"#utility.yul\":15143:15160   */\n      add\n        /* \"#utility.yul\":15136:15197   */\n      mstore\n        /* \"#utility.yul\":15253:15287   */\n      0x72616e73616374696f6e49642929295b305d293b7374617274496e6465782b2b\n        /* \"#utility.yul\":15246:15250   */\n      0x06e0\n        /* \"#utility.yul\":15238:15244   */\n      dup3\n        /* \"#utility.yul\":15234:15251   */\n      add\n        /* \"#utility.yul\":15227:15288   */\n      mstore\n        /* \"#utility.yul\":15344:15378   */\n      0x3b24282723746f74616c2d706f73747327292e74657874287374617274496e64\n        /* \"#utility.yul\":15337:15341   */\n      0x0700\n        /* \"#utility.yul\":15329:15335   */\n      dup3\n        /* \"#utility.yul\":15325:15342   */\n      add\n        /* \"#utility.yul\":15318:15379   */\n      mstore\n        /* \"#utility.yul\":15439:15473   */\n      0x65782d33293b72657175657374416e696d6174696f6e4672616d65282866756e\n        /* \"#utility.yul\":15432:15436   */\n      0x0720\n        /* \"#utility.yul\":15424:15430   */\n      dup3\n        /* \"#utility.yul\":15420:15437   */\n      add\n        /* \"#utility.yul\":15413:15474   */\n      mstore\n        /* \"#utility.yul\":15538:15572   */\n      0x6374696f6e28297b242827236c6f6164696e672d7465787427292e7465787428\n        /* \"#utility.yul\":15531:15535   */\n      0x0740\n        /* \"#utility.yul\":15523:15529   */\n      dup3\n        /* \"#utility.yul\":15519:15536   */\n      add\n        /* \"#utility.yul\":15512:15573   */\n      mstore\n        /* \"#utility.yul\":15645:15679   */\n      0x604c6f6164696e6720247b7374617274496e6465782d337d206f6620247b7472\n        /* \"#utility.yul\":15638:15642   */\n      0x0760\n        /* \"#utility.yul\":15630:15636   */\n      dup3\n        /* \"#utility.yul\":15626:15643   */\n      add\n        /* \"#utility.yul\":15619:15680   */\n      mstore\n        /* \"#utility.yul\":15736:15770   */\n      0x616e73616374696f6e4964732e6c656e6774682d337d60297d29293b61776169\n        /* \"#utility.yul\":15729:15733   */\n      0x0780\n        /* \"#utility.yul\":15721:15727   */\n      dup3\n        /* \"#utility.yul\":15717:15734   */\n      add\n        /* \"#utility.yul\":15710:15771   */\n      mstore\n        /* \"#utility.yul\":15819:15853   */\n      0x742070726f636573734e6578745472616e73616374696f6e28297d7d656c7365\n        /* \"#utility.yul\":15812:15816   */\n      0x07a0\n        /* \"#utility.yul\":15804:15810   */\n      dup3\n        /* \"#utility.yul\":15800:15817   */\n      add\n        /* \"#utility.yul\":15793:15854   */\n      mstore\n        /* \"#utility.yul\":15902:15936   */\n      0x7b636c656172496e74657276616c286c6f61646572496e74657276616c293b72\n        /* \"#utility.yul\":15895:15899   */\n      0x07c0\n        /* \"#utility.yul\":15887:15893   */\n      dup3\n        /* \"#utility.yul\":15883:15900   */\n      add\n        /* \"#utility.yul\":15876:15937   */\n      mstore\n        /* \"#utility.yul\":15989:16023   */\n      0x656d6f76654c6f6164696e67526f7728293b24282723616e6472657727292e73\n        /* \"#utility.yul\":15982:15986   */\n      0x07e0\n        /* \"#utility.yul\":15974:15980   */\n      dup3\n        /* \"#utility.yul\":15970:15987   */\n      add\n        /* \"#utility.yul\":15963:16024   */\n      mstore\n        /* \"#utility.yul\":16068:16102   */\n      0x686f7728297d7d61776169742070726f636573734e6578745472616e73616374\n        /* \"#utility.yul\":16061:16065   */\n      0x0800\n        /* \"#utility.yul\":16053:16059   */\n      dup3\n        /* \"#utility.yul\":16049:16066   */\n      add\n        /* \"#utility.yul\":16042:16103   */\n      mstore\n        /* \"#utility.yul\":16147:16181   */\n      0x696f6e28293b6973416c6c4c6f616465643d21307d6361746368286572726f72\n        /* \"#utility.yul\":16140:16144   */\n      0x0820\n        /* \"#utility.yul\":16132:16138   */\n      dup3\n        /* \"#utility.yul\":16128:16145   */\n      add\n        /* \"#utility.yul\":16121:16182   */\n      mstore\n        /* \"#utility.yul\":16226:16260   */\n      0x297b72656d6f76654c6f6164696e67526f7728293b617070656e644572726f72\n        /* \"#utility.yul\":16219:16223   */\n      0x0840\n        /* \"#utility.yul\":16211:16217   */\n      dup3\n        /* \"#utility.yul\":16207:16224   */\n      add\n        /* \"#utility.yul\":16200:16261   */\n      mstore\n        /* \"#utility.yul\":16305:16339   */\n      0x526f7728293b636f6e736f6c652e6572726f7228274661696c656420746f2066\n        /* \"#utility.yul\":16298:16302   */\n      0x0860\n        /* \"#utility.yul\":16290:16296   */\n      dup3\n        /* \"#utility.yul\":16286:16303   */\n      add\n        /* \"#utility.yul\":16279:16340   */\n      mstore\n        /* \"#utility.yul\":16388:16422   */\n      0x65746368207472616e73616374696f6e733a272c6572726f72293b6966287265\n        /* \"#utility.yul\":16381:16385   */\n      0x0880\n        /* \"#utility.yul\":16373:16379   */\n      dup3\n        /* \"#utility.yul\":16369:16386   */\n      add\n        /* \"#utility.yul\":16362:16423   */\n      mstore\n        /* \"#utility.yul\":16471:16505   */\n      0x747279436f756e743c35297b73657454696d656f7574282866756e6374696f6e\n        /* \"#utility.yul\":16464:16468   */\n      0x08a0\n        /* \"#utility.yul\":16456:16462   */\n      dup3\n        /* \"#utility.yul\":16452:16469   */\n      add\n        /* \"#utility.yul\":16445:16506   */\n      mstore\n        /* \"#utility.yul\":16562:16596   */\n      0x28297b72656d6f76654c6f6164696e67526f7728293b6765745472616e736163\n        /* \"#utility.yul\":16555:16559   */\n      0x08c0\n        /* \"#utility.yul\":16547:16553   */\n      dup3\n        /* \"#utility.yul\":16543:16560   */\n      add\n        /* \"#utility.yul\":16536:16597   */\n      mstore\n        /* \"#utility.yul\":16633:16667   */\n      0x74696f6e546578747328297d292c316534297d7d7d6c6574207265747279436f\n        /* \"#utility.yul\":16626:16630   */\n      0x08e0\n        /* \"#utility.yul\":16618:16624   */\n      dup3\n        /* \"#utility.yul\":16614:16631   */\n      add\n        /* \"#utility.yul\":16607:16668   */\n      mstore\n        /* \"#utility.yul\":16704:16738   */\n      0x756e743d313b66756e6374696f6e20617070656e644572726f72526f7728297b\n        /* \"#utility.yul\":16697:16701   */\n      0x0900\n        /* \"#utility.yul\":16689:16695   */\n      dup3\n        /* \"#utility.yul\":16685:16702   */\n      add\n        /* \"#utility.yul\":16678:16739   */\n      mstore\n        /* \"#utility.yul\":16779:16813   */\n      0x6966287265747279436f756e743d3d3d34297b6c6574206572726f72526f773d\n        /* \"#utility.yul\":16772:16776   */\n      0x0920\n        /* \"#utility.yul\":16764:16770   */\n      dup3\n        /* \"#utility.yul\":16760:16777   */\n      add\n        /* \"#utility.yul\":16753:16814   */\n      mstore\n        /* \"#utility.yul\":16858:16924   */\n      0x600a20202020202020202020202020202020202020203c747220636c6173733d\n        /* \"#utility.yul\":16851:16855   */\n      0x0940\n        /* \"#utility.yul\":16843:16849   */\n      dup3\n        /* \"#utility.yul\":16839:16856   */\n      add\n        /* \"#utility.yul\":16832:16925   */\n      mstore\n        /* \"#utility.yul\":16969:17035   */\n      0x277461626c652d726f77206c696768742d6267273e0a20202020202020202020\n        /* \"#utility.yul\":16962:16966   */\n      0x0960\n        /* \"#utility.yul\":16954:16960   */\n      dup3\n        /* \"#utility.yul\":16950:16967   */\n      add\n        /* \"#utility.yul\":16943:17036   */\n      mstore\n        /* \"#utility.yul\":17080:17114   */\n      0x2020202020202020202020202020202020202020202020202020202020202020\n        /* \"#utility.yul\":17073:17077   */\n      0x0980\n        /* \"#utility.yul\":17065:17071   */\n      dup3\n        /* \"#utility.yul\":17061:17078   */\n      add\n        /* \"#utility.yul\":17054:17115   */\n      mstore\n        /* \"#utility.yul\":17159:17225   */\n      0x202020202020202020202020202020202020202020203c74643e3c2f74643e0a\n        /* \"#utility.yul\":17152:17156   */\n      0x09a0\n        /* \"#utility.yul\":17144:17150   */\n      dup3\n        /* \"#utility.yul\":17140:17157   */\n      add\n        /* \"#utility.yul\":17133:17226   */\n      mstore\n        /* \"#utility.yul\":17270:17336   */\n      0x0a2020202020202020202020202020202020202020202020203c746420636c61\n        /* \"#utility.yul\":17263:17267   */\n      0x09c0\n        /* \"#utility.yul\":17255:17261   */\n      dup3\n        /* \"#utility.yul\":17251:17268   */\n      add\n        /* \"#utility.yul\":17244:17337   */\n      mstore\n        /* \"#utility.yul\":17381:17415   */\n      0x73733d276c696768742d746578742d32206c6f6164696e672d63656c6c272063\n        /* \"#utility.yul\":17374:17378   */\n      0x09e0\n        /* \"#utility.yul\":17366:17372   */\n      dup3\n        /* \"#utility.yul\":17362:17379   */\n      add\n        /* \"#utility.yul\":17355:17416   */\n      mstore\n        /* \"#utility.yul\":17460:17526   */\n      0x6f6c7370616e3d2732273e0a2020202020202020202020202020202020202020\n        /* \"#utility.yul\":17453:17457   */\n      0x0a00\n        /* \"#utility.yul\":17445:17451   */\n      dup3\n        /* \"#utility.yul\":17441:17458   */\n      add\n        /* \"#utility.yul\":17434:17527   */\n      mstore\n        /* \"#utility.yul\":17571:17605   */\n      0x20202020202020203c6469762069643d276572726f722720636c6173733d2765\n        /* \"#utility.yul\":17564:17568   */\n      0x0a20\n        /* \"#utility.yul\":17556:17562   */\n      dup3\n        /* \"#utility.yul\":17552:17569   */\n      add\n        /* \"#utility.yul\":17545:17606   */\n      mstore\n        /* \"#utility.yul\":17650:17716   */\n      0x72726f722d74657874273e0a2020202020202020202020202020202020202020\n        /* \"#utility.yul\":17643:17647   */\n      0x0a40\n        /* \"#utility.yul\":17635:17641   */\n      dup3\n        /* \"#utility.yul\":17631:17648   */\n      add\n        /* \"#utility.yul\":17624:17717   */\n      mstore\n        /* \"#utility.yul\":17761:17795   */\n      0x2020202020202020202020203c7370616e2069643d276572726f722d74657874\n        /* \"#utility.yul\":17754:17758   */\n      0x0a60\n        /* \"#utility.yul\":17746:17752   */\n      dup3\n        /* \"#utility.yul\":17742:17759   */\n      add\n        /* \"#utility.yul\":17735:17796   */\n      mstore\n        /* \"#utility.yul\":17840:17874   */\n      0x273e4661696c656420746f206c6f6164207472616e73616374696f6e73206672\n        /* \"#utility.yul\":17833:17837   */\n      0x0a80\n        /* \"#utility.yul\":17825:17831   */\n      dup3\n        /* \"#utility.yul\":17821:17838   */\n      add\n        /* \"#utility.yul\":17814:17875   */\n      mstore\n        /* \"#utility.yul\":17919:17985   */\n      0x6f6d2045746865727363616e2028332f332e3c2f7370616e3e0a202020202020\n        /* \"#utility.yul\":17912:17916   */\n      0x0aa0\n        /* \"#utility.yul\":17904:17910   */\n      dup3\n        /* \"#utility.yul\":17900:17917   */\n      add\n        /* \"#utility.yul\":17893:17986   */\n      mstore\n        /* \"#utility.yul\":18030:18096   */\n      0x202020202020202020202020202020202020202020203c2f6469763e0a202020\n        /* \"#utility.yul\":18023:18027   */\n      0x0ac0\n        /* \"#utility.yul\":18015:18021   */\n      dup3\n        /* \"#utility.yul\":18011:18028   */\n      add\n        /* \"#utility.yul\":18004:18097   */\n      mstore\n        /* \"#utility.yul\":18141:18207   */\n      0x2020202020202020202020202020202020202020203c2f74643e0a2020202020\n        /* \"#utility.yul\":18134:18138   */\n      0x0ae0\n        /* \"#utility.yul\":18126:18132   */\n      dup3\n        /* \"#utility.yul\":18122:18139   */\n      add\n        /* \"#utility.yul\":18115:18208   */\n      mstore\n        /* \"#utility.yul\":18252:18318   */\n      0x2020202020202020202020202020203c2f74723e0a2020202020202020202020\n        /* \"#utility.yul\":18245:18249   */\n      0x0b00\n        /* \"#utility.yul\":18237:18243   */\n      dup3\n        /* \"#utility.yul\":18233:18250   */\n      add\n        /* \"#utility.yul\":18226:18319   */\n      mstore\n        /* \"#utility.yul\":18363:18397   */\n      0x2020202020603b242827237461626c652d626f647927292e617070656e642865\n        /* \"#utility.yul\":18356:18360   */\n      0x0b20\n        /* \"#utility.yul\":18348:18354   */\n      dup3\n        /* \"#utility.yul\":18344:18361   */\n      add\n        /* \"#utility.yul\":18337:18398   */\n      mstore\n        /* \"#utility.yul\":18446:18480   */\n      0x72726f72526f77293b7265747279436f756e742b2b3b6966286d6f64653d3d3d\n        /* \"#utility.yul\":18439:18443   */\n      0x0b40\n        /* \"#utility.yul\":18431:18437   */\n      dup3\n        /* \"#utility.yul\":18427:18444   */\n      add\n        /* \"#utility.yul\":18420:18481   */\n      mstore\n        /* \"#utility.yul\":18525:18559   */\n      0x31297b7365744461726b28297d656c73657b7365744c6967687428297d726574\n        /* \"#utility.yul\":18518:18522   */\n      0x0b60\n        /* \"#utility.yul\":18510:18516   */\n      dup3\n        /* \"#utility.yul\":18506:18523   */\n      add\n        /* \"#utility.yul\":18499:18560   */\n      mstore\n        /* \"#utility.yul\":18604:18670   */\n      0x75726e7d6c6574206572726f72526f773d600a20202020202020202020202020\n        /* \"#utility.yul\":18597:18601   */\n      0x0b80\n        /* \"#utility.yul\":18589:18595   */\n      dup3\n        /* \"#utility.yul\":18585:18602   */\n      add\n        /* \"#utility.yul\":18578:18671   */\n      mstore\n        /* \"#utility.yul\":18715:18749   */\n      0x202020202020203c747220636c6173733d277461626c652d726f77206c696768\n        /* \"#utility.yul\":18708:18712   */\n      0x0ba0\n        /* \"#utility.yul\":18700:18706   */\n      dup3\n        /* \"#utility.yul\":18696:18713   */\n      add\n        /* \"#utility.yul\":18689:18750   */\n      mstore\n        /* \"#utility.yul\":18794:18860   */\n      0x742d6267273e0a20202020202020202020202020202020202020202020202020\n        /* \"#utility.yul\":18787:18791   */\n      0x0bc0\n        /* \"#utility.yul\":18779:18785   */\n      dup3\n        /* \"#utility.yul\":18775:18792   */\n      add\n        /* \"#utility.yul\":18768:18861   */\n      mstore\n        /* \"#utility.yul\":18905:18939   */\n      0x2020202020202020202020202020202020202020202020202020202020202020\n        /* \"#utility.yul\":18898:18902   */\n      0x0be0\n        /* \"#utility.yul\":18890:18896   */\n      dup3\n        /* \"#utility.yul\":18886:18903   */\n      add\n        /* \"#utility.yul\":18879:18940   */\n      mstore\n        /* \"#utility.yul\":18984:19050   */\n      0x202020202020203c74643e3c2f74643e0a0a2020202020202020202020202020\n        /* \"#utility.yul\":18977:18981   */\n      0x0c00\n        /* \"#utility.yul\":18969:18975   */\n      dup3\n        /* \"#utility.yul\":18965:18982   */\n      add\n        /* \"#utility.yul\":18958:19051   */\n      mstore\n        /* \"#utility.yul\":19095:19129   */\n      0x202020202020202020203c746420636c6173733d276c696768742d746578742d\n        /* \"#utility.yul\":19088:19092   */\n      0x0c20\n        /* \"#utility.yul\":19080:19086   */\n      dup3\n        /* \"#utility.yul\":19076:19093   */\n      add\n        /* \"#utility.yul\":19069:19130   */\n      mstore\n        /* \"#utility.yul\":19174:19240   */\n      0x32206c6f6164696e672d63656c6c2720636f6c7370616e3d2732273e0a202020\n        /* \"#utility.yul\":19167:19171   */\n      0x0c40\n        /* \"#utility.yul\":19159:19165   */\n      dup3\n        /* \"#utility.yul\":19155:19172   */\n      add\n        /* \"#utility.yul\":19148:19241   */\n      mstore\n        /* \"#utility.yul\":19285:19319   */\n      0x202020202020202020202020202020202020202020202020203c646976206964\n        /* \"#utility.yul\":19278:19282   */\n      0x0c60\n        /* \"#utility.yul\":19270:19276   */\n      dup3\n        /* \"#utility.yul\":19266:19283   */\n      add\n        /* \"#utility.yul\":19259:19320   */\n      mstore\n        /* \"#utility.yul\":19364:19430   */\n      0x3d276572726f722720636c6173733d276572726f722d74657874273e0a202020\n        /* \"#utility.yul\":19357:19361   */\n      0x0c80\n        /* \"#utility.yul\":19349:19355   */\n      dup3\n        /* \"#utility.yul\":19345:19362   */\n      add\n        /* \"#utility.yul\":19338:19431   */\n      mstore\n        /* \"#utility.yul\":19475:19509   */\n      0x20202020202020202020202020202020202020202020202020202020203c7370\n        /* \"#utility.yul\":19468:19472   */\n      0x0ca0\n        /* \"#utility.yul\":19460:19466   */\n      dup3\n        /* \"#utility.yul\":19456:19473   */\n      add\n        /* \"#utility.yul\":19449:19510   */\n      mstore\n        /* \"#utility.yul\":19554:19588   */\n      0x616e2069643d276572726f722d74657874273e3c2f7370616e3e3c7370616e20\n        /* \"#utility.yul\":19547:19551   */\n      0x0cc0\n        /* \"#utility.yul\":19539:19545   */\n      dup3\n        /* \"#utility.yul\":19535:19552   */\n      add\n        /* \"#utility.yul\":19528:19589   */\n      mstore\n        /* \"#utility.yul\":19633:19699   */\n      0x636c6173733d276c6f616465722d646f7473273e3c2f7370616e3e0a20202020\n        /* \"#utility.yul\":19626:19630   */\n      0x0ce0\n        /* \"#utility.yul\":19618:19624   */\n      dup3\n        /* \"#utility.yul\":19614:19631   */\n      add\n        /* \"#utility.yul\":19607:19700   */\n      mstore\n        /* \"#utility.yul\":19744:19810   */\n      0x2020202020202020202020202020202020202020202020203c2f6469763e0a20\n        /* \"#utility.yul\":19737:19741   */\n      0x0d00\n        /* \"#utility.yul\":19729:19735   */\n      dup3\n        /* \"#utility.yul\":19725:19742   */\n      add\n        /* \"#utility.yul\":19718:19811   */\n      mstore\n        /* \"#utility.yul\":19855:19921   */\n      0x20202020202020202020202020202020202020202020203c2f74643e0a0a2020\n        /* \"#utility.yul\":19848:19852   */\n      0x0d20\n        /* \"#utility.yul\":19840:19846   */\n      dup3\n        /* \"#utility.yul\":19836:19853   */\n      add\n        /* \"#utility.yul\":19829:19922   */\n      mstore\n        /* \"#utility.yul\":19966:20032   */\n      0x2020202020202020202020202020202020203c2f74723e0a2020202020202020\n        /* \"#utility.yul\":19959:19963   */\n      0x0d40\n        /* \"#utility.yul\":19951:19957   */\n      dup3\n        /* \"#utility.yul\":19947:19964   */\n      add\n        /* \"#utility.yul\":19940:20033   */\n      mstore\n        /* \"#utility.yul\":20077:20111   */\n      0x2020202020202020603b242827237461626c652d626f647927292e617070656e\n        /* \"#utility.yul\":20070:20074   */\n      0x0d60\n        /* \"#utility.yul\":20062:20068   */\n      dup3\n        /* \"#utility.yul\":20058:20075   */\n      add\n        /* \"#utility.yul\":20051:20112   */\n      mstore\n        /* \"#utility.yul\":20156:20190   */\n      0x64286572726f72526f77293b242827236572726f722d7465787427292e746578\n        /* \"#utility.yul\":20149:20153   */\n      0x0d80\n        /* \"#utility.yul\":20141:20147   */\n      dup3\n        /* \"#utility.yul\":20137:20154   */\n      add\n        /* \"#utility.yul\":20130:20191   */\n      mstore\n        /* \"#utility.yul\":20235:20269   */\n      0x7428604661696c656420746f206c6f6164207472616e73616374696f6e732066\n        /* \"#utility.yul\":20228:20232   */\n      0x0da0\n        /* \"#utility.yul\":20220:20226   */\n      dup3\n        /* \"#utility.yul\":20216:20233   */\n      add\n        /* \"#utility.yul\":20209:20270   */\n      mstore\n        /* \"#utility.yul\":20318:20352   */\n      0x726f6d2045746865727363616e2e205265747279696e672028247b7265747279\n        /* \"#utility.yul\":20311:20315   */\n      0x0dc0\n        /* \"#utility.yul\":20303:20309   */\n      dup3\n        /* \"#utility.yul\":20299:20316   */\n      add\n        /* \"#utility.yul\":20292:20353   */\n      mstore\n        /* \"#utility.yul\":20401:20435   */\n      0x436f756e747d2f332960293b7265747279436f756e742b2b3b6966286d6f6465\n        /* \"#utility.yul\":20394:20398   */\n      0x0de0\n        /* \"#utility.yul\":20386:20392   */\n      dup3\n        /* \"#utility.yul\":20382:20399   */\n      add\n        /* \"#utility.yul\":20375:20436   */\n      mstore\n        /* \"#utility.yul\":20480:20514   */\n      0x3d3d3d31297b7365744461726b28297d656c73657b7365744c6967687428297d\n        /* \"#utility.yul\":20473:20477   */\n      0x0e00\n        /* \"#utility.yul\":20465:20471   */\n      dup3\n        /* \"#utility.yul\":20461:20478   */\n      add\n        /* \"#utility.yul\":20454:20515   */\n      mstore\n        /* \"#utility.yul\":20559:20593   */\n      0x7d66756e6374696f6e20617070656e644c6f6164696e67526f7728297b6c6574\n        /* \"#utility.yul\":20552:20556   */\n      0x0e20\n        /* \"#utility.yul\":20544:20550   */\n      dup3\n        /* \"#utility.yul\":20540:20557   */\n      add\n        /* \"#utility.yul\":20533:20594   */\n      mstore\n        /* \"#utility.yul\":20638:20704   */\n      0x206c6f6164696e67526f773d600a202020202020202020202020202020202020\n        /* \"#utility.yul\":20631:20635   */\n      0x0e40\n        /* \"#utility.yul\":20623:20629   */\n      dup3\n        /* \"#utility.yul\":20619:20636   */\n      add\n        /* \"#utility.yul\":20612:20705   */\n      mstore\n        /* \"#utility.yul\":20749:20815   */\n      0x20203c747220636c6173733d276c696768742d6267273e0a2020202020202020\n        /* \"#utility.yul\":20742:20746   */\n      0x0e60\n        /* \"#utility.yul\":20734:20740   */\n      dup3\n        /* \"#utility.yul\":20730:20747   */\n      add\n        /* \"#utility.yul\":20723:20816   */\n      mstore\n        /* \"#utility.yul\":20860:20894   */\n      0x2020202020202020202020202020202020202020202020202020202020202020\n        /* \"#utility.yul\":20853:20857   */\n      0x0e80\n        /* \"#utility.yul\":20845:20851   */\n      dup3\n        /* \"#utility.yul\":20841:20858   */\n      add\n        /* \"#utility.yul\":20834:20895   */\n      mstore\n        /* \"#utility.yul\":20939:20973   */\n      0x2020202020202020202020202020202020202020202020203c74643e3c2f7464\n        /* \"#utility.yul\":20932:20936   */\n      0x0ea0\n        /* \"#utility.yul\":20924:20930   */\n      dup3\n        /* \"#utility.yul\":20920:20937   */\n      add\n        /* \"#utility.yul\":20913:20974   */\n      mstore\n        /* \"#utility.yul\":21018:21084   */\n      0x3e0a0a2020202020202020202020202020202020202020202020203c74642063\n        /* \"#utility.yul\":21011:21015   */\n      0x0ec0\n        /* \"#utility.yul\":21003:21009   */\n      dup3\n        /* \"#utility.yul\":20999:21016   */\n      add\n        /* \"#utility.yul\":20992:21085   */\n      mstore\n        /* \"#utility.yul\":21129:21163   */\n      0x6c6173733d276c696768742d746578742d32206c6f6164696e672d63656c6c27\n        /* \"#utility.yul\":21122:21126   */\n      0x0ee0\n        /* \"#utility.yul\":21114:21120   */\n      dup3\n        /* \"#utility.yul\":21110:21127   */\n      add\n        /* \"#utility.yul\":21103:21164   */\n      mstore\n        /* \"#utility.yul\":21208:21274   */\n      0x3e0a202020202020202020202020202020202020202020202020202020203c64\n        /* \"#utility.yul\":21201:21205   */\n      0x0f00\n        /* \"#utility.yul\":21193:21199   */\n      dup3\n        /* \"#utility.yul\":21189:21206   */\n      add\n        /* \"#utility.yul\":21182:21275   */\n      mstore\n        /* \"#utility.yul\":21319:21385   */\n      0x69762069643d276c6f6164696e67273e0a202020202020202020202020202020\n        /* \"#utility.yul\":21312:21316   */\n      0x0f20\n        /* \"#utility.yul\":21304:21310   */\n      dup3\n        /* \"#utility.yul\":21300:21317   */\n      add\n        /* \"#utility.yul\":21293:21386   */\n      mstore\n        /* \"#utility.yul\":21430:21464   */\n      0x20202020202020202020202020202020203c7370616e2069643d276c6f616469\n        /* \"#utility.yul\":21423:21427   */\n      0x0f40\n        /* \"#utility.yul\":21415:21421   */\n      dup3\n        /* \"#utility.yul\":21411:21428   */\n      add\n        /* \"#utility.yul\":21404:21465   */\n      mstore\n        /* \"#utility.yul\":21509:21543   */\n      0x6e672d74657874273e4c6f6164696e67207472616e73616374696f6e733c2f73\n        /* \"#utility.yul\":21502:21506   */\n      0x0f60\n        /* \"#utility.yul\":21494:21500   */\n      dup3\n        /* \"#utility.yul\":21490:21507   */\n      add\n        /* \"#utility.yul\":21483:21544   */\n      mstore\n        /* \"#utility.yul\":21588:21622   */\n      0x70616e3e3c7370616e20636c6173733d276c6f616465722d646f7473273e3c2f\n        /* \"#utility.yul\":21581:21585   */\n      0x0f80\n        /* \"#utility.yul\":21573:21579   */\n      dup3\n        /* \"#utility.yul\":21569:21586   */\n      add\n        /* \"#utility.yul\":21562:21623   */\n      mstore\n        /* \"#utility.yul\":21667:21733   */\n      0x7370616e3e0a2020202020202020202020202020202020202020202020202020\n        /* \"#utility.yul\":21660:21664   */\n      0x0fa0\n        /* \"#utility.yul\":21652:21658   */\n      dup3\n        /* \"#utility.yul\":21648:21665   */\n      add\n        /* \"#utility.yul\":21641:21734   */\n      mstore\n        /* \"#utility.yul\":21778:21844   */\n      0x20203c2f6469763e0a2020202020202020202020202020202020202020202020\n        /* \"#utility.yul\":21771:21775   */\n      0x0fc0\n        /* \"#utility.yul\":21763:21769   */\n      dup3\n        /* \"#utility.yul\":21759:21776   */\n      add\n        /* \"#utility.yul\":21752:21845   */\n      mstore\n        /* \"#utility.yul\":21889:21955   */\n      0x203c2f74643e0a0a20202020202020202020202020202020202020203c2f7472\n        /* \"#utility.yul\":21882:21886   */\n      0x0fe0\n        /* \"#utility.yul\":21874:21880   */\n      dup3\n        /* \"#utility.yul\":21870:21887   */\n      add\n        /* \"#utility.yul\":21863:21956   */\n      mstore\n        /* \"#utility.yul\":22000:22066   */\n      0x3e0a20202020202020202020202020202020603b242827237461626c652d626f\n        /* \"#utility.yul\":21993:21997   */\n      0x1000\n        /* \"#utility.yul\":21985:21991   */\n      dup3\n        /* \"#utility.yul\":21981:21998   */\n      add\n        /* \"#utility.yul\":21974:22067   */\n      mstore\n        /* \"#utility.yul\":22111:22145   */\n      0x647927292e617070656e64286c6f6164696e67526f77293b6966286d6f64653d\n        /* \"#utility.yul\":22104:22108   */\n      0x1020\n        /* \"#utility.yul\":22096:22102   */\n      dup3\n        /* \"#utility.yul\":22092:22109   */\n      add\n        /* \"#utility.yul\":22085:22146   */\n      mstore\n        /* \"#utility.yul\":22182:22216   */\n      0x3d3d31297b7365744461726b28297d656c73657b7365744c6967687428297d7d\n        /* \"#utility.yul\":22175:22179   */\n      0x1040\n        /* \"#utility.yul\":22167:22173   */\n      dup3\n        /* \"#utility.yul\":22163:22180   */\n      add\n        /* \"#utility.yul\":22156:22217   */\n      mstore\n        /* \"#utility.yul\":22253:22287   */\n      0x66756e6374696f6e2072656d6f76654c6f6164696e67526f7728297b24282723\n        /* \"#utility.yul\":22246:22250   */\n      0x1060\n        /* \"#utility.yul\":22238:22244   */\n      dup3\n        /* \"#utility.yul\":22234:22251   */\n      add\n        /* \"#utility.yul\":22227:22288   */\n      mstore\n        /* \"#utility.yul\":22328:22362   */\n      0x7461626c652d626f647927292e66696e64282774723a6c61737427292e72656d\n        /* \"#utility.yul\":22321:22325   */\n      0x1080\n        /* \"#utility.yul\":22313:22319   */\n      dup3\n        /* \"#utility.yul\":22309:22326   */\n      add\n        /* \"#utility.yul\":22302:22363   */\n      mstore\n        /* \"#utility.yul\":22403:22437   */\n      0x6f766528297d6c657420696e74657276616c3d736574496e74657276616c2828\n        /* \"#utility.yul\":22396:22400   */\n      0x10a0\n        /* \"#utility.yul\":22388:22394   */\n      dup3\n        /* \"#utility.yul\":22384:22401   */\n      add\n        /* \"#utility.yul\":22377:22438   */\n      mstore\n        /* \"#utility.yul\":22482:22516   */\n      0x66756e6374696f6e28297b6966286973416c6c4c6f61646564297b6973416c6c\n        /* \"#utility.yul\":22475:22479   */\n      0x10c0\n        /* \"#utility.yul\":22467:22473   */\n      dup3\n        /* \"#utility.yul\":22463:22480   */\n      add\n        /* \"#utility.yul\":22456:22517   */\n      mstore\n        /* \"#utility.yul\":22569:22603   */\n      0x4c6f616465643d21313b636c656172496e74657276616c28696e74657276616c\n        /* \"#utility.yul\":22562:22566   */\n      0x10e0\n        /* \"#utility.yul\":22554:22560   */\n      dup3\n        /* \"#utility.yul\":22550:22567   */\n      add\n        /* \"#utility.yul\":22543:22604   */\n      mstore\n        /* \"#utility.yul\":22644:22678   */\n      0x297d7d292c326533293b66756e6374696f6e20736574436f6f6b6965286e616d\n        /* \"#utility.yul\":22637:22641   */\n      0x1100\n        /* \"#utility.yul\":22629:22635   */\n      dup3\n        /* \"#utility.yul\":22625:22642   */\n      add\n        /* \"#utility.yul\":22618:22679   */\n      mstore\n        /* \"#utility.yul\":22719:22753   */\n      0x652c76616c75652c64617973297b6c6f63616c53746f726167655b6e616d655d\n        /* \"#utility.yul\":22712:22716   */\n      0x1120\n        /* \"#utility.yul\":22704:22710   */\n      dup3\n        /* \"#utility.yul\":22700:22717   */\n      add\n        /* \"#utility.yul\":22693:22754   */\n      mstore\n        /* \"#utility.yul\":22794:22828   */\n      0x3d76616c75657d66756e6374696f6e20676574436f6f6b6965286e616d65297b\n        /* \"#utility.yul\":22787:22791   */\n      0x1140\n        /* \"#utility.yul\":22779:22785   */\n      dup3\n        /* \"#utility.yul\":22775:22792   */\n      add\n        /* \"#utility.yul\":22768:22829   */\n      mstore\n        /* \"#utility.yul\":22865:22899   */\n      0x72657475726e206c6f63616c53746f726167655b6e616d655d7c7c275b5d277d\n        /* \"#utility.yul\":22858:22862   */\n      0x1160\n        /* \"#utility.yul\":22850:22856   */\n      dup3\n        /* \"#utility.yul\":22846:22863   */\n      add\n        /* \"#utility.yul\":22839:22900   */\n      mstore\n        /* \"#utility.yul\":22936:22970   */\n      0x66756e6374696f6e20617070656e64436f6d6d656e74287472616e7361637469\n        /* \"#utility.yul\":22929:22933   */\n      0x1180\n        /* \"#utility.yul\":22921:22927   */\n      dup3\n        /* \"#utility.yul\":22917:22934   */\n      add\n        /* \"#utility.yul\":22910:22971   */\n      mstore\n        /* \"#utility.yul\":23011:23045   */\n      0x6f6e5465787473297b6966287472616e73616374696f6e54657874732e746578\n        /* \"#utility.yul\":23004:23008   */\n      0x11a0\n        /* \"#utility.yul\":22996:23002   */\n      dup3\n        /* \"#utility.yul\":22992:23009   */\n      add\n        /* \"#utility.yul\":22985:23046   */\n      mstore\n        /* \"#utility.yul\":23090:23124   */\n      0x742e6c656e6774683e30297b72656d6f76654c6f6164696e67526f7728293b24\n        /* \"#utility.yul\":23083:23087   */\n      0x11c0\n        /* \"#utility.yul\":23075:23081   */\n      dup3\n        /* \"#utility.yul\":23071:23088   */\n      add\n        /* \"#utility.yul\":23064:23125   */\n      mstore\n        /* \"#utility.yul\":23169:23203   */\n      0x2827237461626c652d626f647927292e617070656e6428603c747220636c6173\n        /* \"#utility.yul\":23162:23166   */\n      0x11e0\n        /* \"#utility.yul\":23154:23160   */\n      dup3\n        /* \"#utility.yul\":23150:23167   */\n      add\n        /* \"#utility.yul\":23143:23204   */\n      mstore\n        /* \"#utility.yul\":23252:23286   */\n      0x733d277461626c652d726f77206c696768742d6267206c696768742d626f7264\n        /* \"#utility.yul\":23245:23249   */\n      0x1200\n        /* \"#utility.yul\":23237:23243   */\n      dup3\n        /* \"#utility.yul\":23233:23250   */\n      add\n        /* \"#utility.yul\":23226:23287   */\n      mstore\n        /* \"#utility.yul\":23335:23369   */\n      0x6572206c696768742d74657874273e3c746420636c6173733d276c696768742d\n        /* \"#utility.yul\":23328:23332   */\n      0x1220\n        /* \"#utility.yul\":23320:23326   */\n      dup3\n        /* \"#utility.yul\":23316:23333   */\n      add\n        /* \"#utility.yul\":23309:23370   */\n      mstore\n        /* \"#utility.yul\":23418:23452   */\n      0x6267272077696474683d273330252720616c69676e3d2763656e746572273e3c\n        /* \"#utility.yul\":23411:23415   */\n      0x1240\n        /* \"#utility.yul\":23403:23409   */\n      dup3\n        /* \"#utility.yul\":23399:23416   */\n      add\n        /* \"#utility.yul\":23392:23453   */\n      mstore\n        /* \"#utility.yul\":23501:23535   */\n      0x666f6e7420636c6173733d27736d616c6c5f74657874273e3c6120636c617373\n        /* \"#utility.yul\":23494:23498   */\n      0x1260\n        /* \"#utility.yul\":23486:23492   */\n      dup3\n        /* \"#utility.yul\":23482:23499   */\n      add\n        /* \"#utility.yul\":23475:23536   */\n      mstore\n        /* \"#utility.yul\":23584:23618   */\n      0x3d276c696768742d6c696e6b27207461726765743d275f626c616e6b27206872\n        /* \"#utility.yul\":23577:23581   */\n      0x1280\n        /* \"#utility.yul\":23569:23575   */\n      dup3\n        /* \"#utility.yul\":23565:23582   */\n      add\n        /* \"#utility.yul\":23558:23619   */\n      mstore\n        /* \"#utility.yul\":23667:23673   */\n      0x65663d2700000000000000000000000000000000000000000000000000000000\n        /* \"#utility.yul\":23660:23664   */\n      0x12a0\n        /* \"#utility.yul\":23652:23658   */\n      dup3\n        /* \"#utility.yul\":23648:23665   */\n      add\n        /* \"#utility.yul\":23641:23674   */\n      mstore\n        /* \"#utility.yul\":10138:23693   */\n      pop\n      jump\t// out\n        /* \"#utility.yul\":23711:24165   */\n    tag_45:\n        /* \"#utility.yul\":23871:23874   */\n      0x00\n        /* \"#utility.yul\":23904:23991   */\n      tag_133\n        /* \"#utility.yul\":23986:23990   */\n      0x12a4\n        /* \"#utility.yul\":23981:23984   */\n      dup4\n        /* \"#utility.yul\":23904:23991   */\n      tag_30\n      jump\t// in\n    tag_133:\n        /* \"#utility.yul\":23897:23991   */\n      swap2\n      pop\n        /* \"#utility.yul\":24012:24105   */\n      tag_134\n        /* \"#utility.yul\":24101:24104   */\n      dup3\n        /* \"#utility.yul\":24012:24105   */\n      tag_44\n      jump\t// in\n    tag_134:\n        /* \"#utility.yul\":24142:24146   */\n      0x12a4\n        /* \"#utility.yul\":24137:24140   */\n      dup3\n        /* \"#utility.yul\":24133:24147   */\n      add\n        /* \"#utility.yul\":24126:24147   */\n      swap1\n      pop\n        /* \"#utility.yul\":23711:24165   */\n      swap2\n      swap1\n      pop\n      jump\t// out\n        /* \"#utility.yul\":24183:40323   */\n    tag_46:\n        /* \"#utility.yul\":24335:24369   */\n      0x273e546a6f3c2f613e3c2f623e3c666f6e743e3c2f74643e3c746420616c6967\n        /* \"#utility.yul\":24331:24332   */\n      0x00\n        /* \"#utility.yul\":24323:24329   */\n      dup3\n        /* \"#utility.yul\":24319:24333   */\n      add\n        /* \"#utility.yul\":24312:24370   */\n      mstore\n        /* \"#utility.yul\":24416:24450   */\n      0x6e3d277269676874272077696474683d273730252720636c6173733d276c6967\n        /* \"#utility.yul\":24411:24413   */\n      0x20\n        /* \"#utility.yul\":24403:24409   */\n      dup3\n        /* \"#utility.yul\":24399:24414   */\n      add\n        /* \"#utility.yul\":24392:24451   */\n      mstore\n        /* \"#utility.yul\":24497:24531   */\n      0x68742d6267206c696768742d6c696e6b273e3c64697620636c6173733d27706f\n        /* \"#utility.yul\":24492:24494   */\n      0x40\n        /* \"#utility.yul\":24484:24490   */\n      dup3\n        /* \"#utility.yul\":24480:24495   */\n      add\n        /* \"#utility.yul\":24473:24532   */\n      mstore\n        /* \"#utility.yul\":24578:24612   */\n      0x7374496e666f206465736b746f70273e3c7370616e20636c6173733d27706f73\n        /* \"#utility.yul\":24573:24575   */\n      0x60\n        /* \"#utility.yul\":24565:24571   */\n      dup3\n        /* \"#utility.yul\":24561:24576   */\n      add\n        /* \"#utility.yul\":24554:24613   */\n      mstore\n        /* \"#utility.yul\":24660:24694   */\n      0x744e756d206465736b746f70273e3c6120636c6173733d276c696768742d6c69\n        /* \"#utility.yul\":24654:24657   */\n      0x80\n        /* \"#utility.yul\":24646:24652   */\n      dup3\n        /* \"#utility.yul\":24642:24658   */\n      add\n        /* \"#utility.yul\":24635:24695   */\n      mstore\n        /* \"#utility.yul\":24742:24776   */\n      0x6e6b27207374796c653d27666f6e742d73697a653a313270783b272068726566\n        /* \"#utility.yul\":24736:24739   */\n      0xa0\n        /* \"#utility.yul\":24728:24734   */\n      dup3\n        /* \"#utility.yul\":24724:24740   */\n      add\n        /* \"#utility.yul\":24717:24777   */\n      mstore\n        /* \"#utility.yul\":24824:24858   */\n      0x3d2768747470733a2f2f65746865727363616e2e696f2f74782f247b7472616e\n        /* \"#utility.yul\":24818:24821   */\n      0xc0\n        /* \"#utility.yul\":24810:24816   */\n      dup3\n        /* \"#utility.yul\":24806:24822   */\n      add\n        /* \"#utility.yul\":24799:24859   */\n      mstore\n        /* \"#utility.yul\":24906:24940   */\n      0x73616374696f6e54657874732e686173687d27207461726765743d275f626c61\n        /* \"#utility.yul\":24900:24903   */\n      0xe0\n        /* \"#utility.yul\":24892:24898   */\n      dup3\n        /* \"#utility.yul\":24888:24904   */\n      add\n        /* \"#utility.yul\":24881:24941   */\n      mstore\n        /* \"#utility.yul\":24988:25022   */\n      0x6e6b27207469746c653d274c696e6b20746f2074686973207472616e73616374\n        /* \"#utility.yul\":24982:24985   */\n      0x0100\n        /* \"#utility.yul\":24974:24980   */\n      dup3\n        /* \"#utility.yul\":24970:24986   */\n      add\n        /* \"#utility.yul\":24963:25023   */\n      mstore\n        /* \"#utility.yul\":25070:25104   */\n      0x696f6e2720636c6173733d276c696768742d6c696e6b273e20247b7472616e73\n        /* \"#utility.yul\":25064:25067   */\n      0x0120\n        /* \"#utility.yul\":25056:25062   */\n      dup3\n        /* \"#utility.yul\":25052:25068   */\n      add\n        /* \"#utility.yul\":25045:25105   */\n      mstore\n        /* \"#utility.yul\":25152:25186   */\n      0x616374696f6e54657874732e666f726d617474656454696d657d203c696d6720\n        /* \"#utility.yul\":25146:25149   */\n      0x0140\n        /* \"#utility.yul\":25138:25144   */\n      dup3\n        /* \"#utility.yul\":25134:25150   */\n      add\n        /* \"#utility.yul\":25127:25187   */\n      mstore\n        /* \"#utility.yul\":25234:25268   */\n      0x7374796c653d272d7765626b69742d626f782d616c69676e3a20626173656c69\n        /* \"#utility.yul\":25228:25231   */\n      0x0160\n        /* \"#utility.yul\":25220:25226   */\n      dup3\n        /* \"#utility.yul\":25216:25232   */\n      add\n        /* \"#utility.yul\":25209:25269   */\n      mstore\n        /* \"#utility.yul\":25316:25350   */\n      0x6e653b2777696474683d27313070783b27206865696768743d27313070782720\n        /* \"#utility.yul\":25310:25313   */\n      0x0180\n        /* \"#utility.yul\":25302:25308   */\n      dup3\n        /* \"#utility.yul\":25298:25314   */\n      add\n        /* \"#utility.yul\":25291:25351   */\n      mstore\n        /* \"#utility.yul\":25398:25432   */\n      0x7374796c653d27766572746963616c2d616c69676e3a206d6964646c653b2720\n        /* \"#utility.yul\":25392:25395   */\n      0x01a0\n        /* \"#utility.yul\":25384:25390   */\n      dup3\n        /* \"#utility.yul\":25380:25396   */\n      add\n        /* \"#utility.yul\":25373:25433   */\n      mstore\n        /* \"#utility.yul\":25480:25514   */\n      0x7372633d27646174613a696d6167652f7376672b786d6c3b6261736536342c50\n        /* \"#utility.yul\":25474:25477   */\n      0x01c0\n        /* \"#utility.yul\":25466:25472   */\n      dup3\n        /* \"#utility.yul\":25462:25478   */\n      add\n        /* \"#utility.yul\":25455:25515   */\n      mstore\n        /* \"#utility.yul\":25562:25596   */\n      0x484e325a79423361575230614430694d54497a4969426f5a576c6e6148513949\n        /* \"#utility.yul\":25556:25559   */\n      0x01e0\n        /* \"#utility.yul\":25548:25554   */\n      dup3\n        /* \"#utility.yul\":25544:25560   */\n      add\n        /* \"#utility.yul\":25537:25597   */\n      mstore\n        /* \"#utility.yul\":25644:25678   */\n      0x6a45794d794967646d6c6c64304a76654430694d434177494445794d7941784d\n        /* \"#utility.yul\":25638:25641   */\n      0x0200\n        /* \"#utility.yul\":25630:25636   */\n      dup3\n        /* \"#utility.yul\":25626:25642   */\n      add\n        /* \"#utility.yul\":25619:25679   */\n      mstore\n        /* \"#utility.yul\":25726:25760   */\n      0x6a4d6949475a7062477739496d3576626d5569494868746247357a50534a6f64\n        /* \"#utility.yul\":25720:25723   */\n      0x0220\n        /* \"#utility.yul\":25712:25718   */\n      dup3\n        /* \"#utility.yul\":25708:25724   */\n      add\n        /* \"#utility.yul\":25701:25761   */\n      mstore\n        /* \"#utility.yul\":25808:25842   */\n      0x4852774f693876643364334c6e637a4c6d39795a7938794d4441774c334e325a\n        /* \"#utility.yul\":25802:25805   */\n      0x0240\n        /* \"#utility.yul\":25794:25800   */\n      dup3\n        /* \"#utility.yul\":25790:25806   */\n      add\n        /* \"#utility.yul\":25783:25843   */\n      mstore\n        /* \"#utility.yul\":25890:25924   */\n      0x79492b44516f38634746306143426b50534a4e4d6a55754e7a6b674e5467754e\n        /* \"#utility.yul\":25884:25887   */\n      0x0260\n        /* \"#utility.yul\":25876:25882   */\n      dup3\n        /* \"#utility.yul\":25872:25888   */\n      add\n        /* \"#utility.yul\":25865:25925   */\n      mstore\n        /* \"#utility.yul\":25972:26006   */\n      0x4445304f554d794e5334334f544178494455334c6a637a4e5463674d6a55754f\n        /* \"#utility.yul\":25966:25969   */\n      0x0280\n        /* \"#utility.yul\":25958:25964   */\n      dup3\n        /* \"#utility.yul\":25954:25970   */\n      add\n        /* \"#utility.yul\":25947:26007   */\n      mstore\n        /* \"#utility.yul\":26054:26088   */\n      0x5449304e4341314e7934774e6a4d7a494449324c6a45344e5445674e5459754e\n        /* \"#utility.yul\":26048:26051   */\n      0x02a0\n        /* \"#utility.yul\":26040:26046   */\n      dup3\n        /* \"#utility.yul\":26036:26052   */\n      add\n        /* \"#utility.yul\":26029:26089   */\n      mstore\n        /* \"#utility.yul\":26136:26170   */\n      0x444d324d554d794e6934304e445534494455314c6a67774f5341794e6934344d\n        /* \"#utility.yul\":26130:26133   */\n      0x02c0\n        /* \"#utility.yul\":26122:26128   */\n      dup3\n        /* \"#utility.yul\":26118:26134   */\n      add\n        /* \"#utility.yul\":26111:26171   */\n      mstore\n        /* \"#utility.yul\":26218:26252   */\n      0x6a6334494455314c6a497a4f5459674d6a63754d7a41354d6941314e4334334e\n        /* \"#utility.yul\":26212:26215   */\n      0x02e0\n        /* \"#utility.yul\":26204:26210   */\n      dup3\n        /* \"#utility.yul\":26200:26216   */\n      add\n        /* \"#utility.yul\":26193:26253   */\n      mstore\n        /* \"#utility.yul\":26300:26334   */\n      0x6a4131517a49334c6a63354d4463674e5451754d6a67784e4341794f43347a4e\n        /* \"#utility.yul\":26294:26297   */\n      0x0300\n        /* \"#utility.yul\":26286:26292   */\n      dup3\n        /* \"#utility.yul\":26282:26298   */\n      add\n        /* \"#utility.yul\":26275:26335   */\n      mstore\n        /* \"#utility.yul\":26382:26416   */\n      0x6a45354944557a4c6a6b774d6a45674d6a67754f546b774d7941314d7934324e\n        /* \"#utility.yul\":26376:26379   */\n      0x0320\n        /* \"#utility.yul\":26368:26374   */\n      dup3\n        /* \"#utility.yul\":26364:26380   */\n      add\n        /* \"#utility.yul\":26357:26417   */\n      mstore\n        /* \"#utility.yul\":26464:26498   */\n      0x445130517a49354c6a59784f4463674e544d754d7a67324e79417a4d4334794f\n        /* \"#utility.yul\":26458:26461   */\n      0x0340\n        /* \"#utility.yul\":26450:26456   */\n      dup3\n        /* \"#utility.yul\":26446:26462   */\n      add\n        /* \"#utility.yul\":26439:26499   */\n      mstore\n        /* \"#utility.yul\":26546:26580   */\n      0x5445344944557a4c6a49314e5463674d7a41754f5463784944557a4c6a49314f\n        /* \"#utility.yul\":26540:26543   */\n      0x0360\n        /* \"#utility.yul\":26532:26538   */\n      dup3\n        /* \"#utility.yul\":26528:26544   */\n      add\n        /* \"#utility.yul\":26521:26581   */\n      mstore\n        /* \"#utility.yul\":26628:26662   */\n      0x446c4d4d7a6b754e5459784944557a4c6a49344e6a6c444e4441754f544d774e\n        /* \"#utility.yul\":26622:26625   */\n      0x0380\n        /* \"#utility.yul\":26614:26620   */\n      dup3\n        /* \"#utility.yul\":26610:26626   */\n      add\n        /* \"#utility.yul\":26603:26663   */\n      mstore\n        /* \"#utility.yul\":26710:26744   */\n      0x5341314d7934794f445935494451794c6a49304e4341314d7934344d7a45674e\n        /* \"#utility.yul\":26704:26707   */\n      0x03a0\n        /* \"#utility.yul\":26696:26702   */\n      dup3\n        /* \"#utility.yul\":26692:26708   */\n      add\n        /* \"#utility.yul\":26685:26745   */\n      mstore\n        /* \"#utility.yul\":26792:26826   */\n      0x444d754d6a45794e4341314e4334334f546b30517a51304c6a45344d446b674e\n        /* \"#utility.yul\":26786:26789   */\n      0x03c0\n        /* \"#utility.yul\":26778:26784   */\n      dup3\n        /* \"#utility.yul\":26774:26790   */\n      add\n        /* \"#utility.yul\":26767:26827   */\n      mstore\n        /* \"#utility.yul\":26874:26908   */\n      0x5455754e7a59334f4341304e4334334d6a55674e5463754d4467784d7941304e\n        /* \"#utility.yul\":26868:26871   */\n      0x03e0\n        /* \"#utility.yul\":26860:26866   */\n      dup3\n        /* \"#utility.yul\":26856:26872   */\n      add\n        /* \"#utility.yul\":26849:26909   */\n      mstore\n        /* \"#utility.yul\":26957:26991   */\n      0x4334334d6a55674e5467754e4455774f5659354d4334354d7a4135517a51314c\n        /* \"#utility.yul\":26950:26954   */\n      0x0400\n        /* \"#utility.yul\":26942:26948   */\n      dup3\n        /* \"#utility.yul\":26938:26955   */\n      add\n        /* \"#utility.yul\":26931:26992   */\n      mstore\n        /* \"#utility.yul\":27040:27074   */\n      0x6a59354d6941354d4334324e444d35494451324c6a6b7a4e4341354d43347a4d\n        /* \"#utility.yul\":27033:27037   */\n      0x0420\n        /* \"#utility.yul\":27025:27031   */\n      dup3\n        /* \"#utility.yul\":27021:27038   */\n      add\n        /* \"#utility.yul\":27014:27075   */\n      mstore\n        /* \"#utility.yul\":27123:27157   */\n      0x7a6335494451344c6a49354d7941354d4334774d546335517a51354c6a497a4e\n        /* \"#utility.yul\":27116:27120   */\n      0x0440\n        /* \"#utility.yul\":27108:27114   */\n      dup3\n        /* \"#utility.yul\":27104:27121   */\n      add\n        /* \"#utility.yul\":27097:27158   */\n      mstore\n        /* \"#utility.yul\":27206:27240   */\n      0x7941344f5334334f545979494455774c6a41334f444d674f446b754d6a597949\n        /* \"#utility.yul\":27199:27203   */\n      0x0460\n        /* \"#utility.yul\":27191:27197   */\n      dup3\n        /* \"#utility.yul\":27187:27204   */\n      add\n        /* \"#utility.yul\":27180:27241   */\n      mstore\n        /* \"#utility.yul\":27289:27323   */\n      0x4455774c6a59344d4455674f4467754e5441784f554d314d5334794f44493249\n        /* \"#utility.yul\":27282:27286   */\n      0x0480\n        /* \"#utility.yul\":27274:27280   */\n      dup3\n        /* \"#utility.yul\":27270:27287   */\n      add\n        /* \"#utility.yul\":27263:27324   */\n      mstore\n        /* \"#utility.yul\":27372:27406   */\n      0x4467334c6a63304d5467674e5445754e6a45774d6941344e6934344d44413249\n        /* \"#utility.yul\":27365:27369   */\n      0x04a0\n        /* \"#utility.yul\":27357:27363   */\n      dup3\n        /* \"#utility.yul\":27353:27370   */\n      add\n        /* \"#utility.yul\":27346:27407   */\n      mstore\n        /* \"#utility.yul\":27455:27489   */\n      0x4455784c6a5978494467314c6a677a4d446c574e4455754e5451774f554d314d\n        /* \"#utility.yul\":27448:27452   */\n      0x04c0\n        /* \"#utility.yul\":27440:27446   */\n      dup3\n        /* \"#utility.yul\":27436:27453   */\n      add\n        /* \"#utility.yul\":27429:27490   */\n      mstore\n        /* \"#utility.yul\":27538:27572   */\n      0x5334324d5341304e4334784e7a4579494455794c6a45314e4341304d6934344e\n        /* \"#utility.yul\":27531:27535   */\n      0x04e0\n        /* \"#utility.yul\":27523:27529   */\n      dup3\n        /* \"#utility.yul\":27519:27536   */\n      add\n        /* \"#utility.yul\":27512:27573   */\n      mstore\n        /* \"#utility.yul\":27621:27655   */\n      0x5463324944557a4c6a45794d6a51674e4445754f446735517a55304c6a41354d\n        /* \"#utility.yul\":27614:27618   */\n      0x0500\n        /* \"#utility.yul\":27606:27612   */\n      dup3\n        /* \"#utility.yul\":27602:27619   */\n      add\n        /* \"#utility.yul\":27595:27656   */\n      mstore\n        /* \"#utility.yul\":27704:27738   */\n      0x4467674e4441754f5449774e4341314e5334304d44517a494451774c6a4d334e\n        /* \"#utility.yul\":27697:27701   */\n      0x0520\n        /* \"#utility.yul\":27689:27695   */\n      dup3\n        /* \"#utility.yul\":27685:27702   */\n      add\n        /* \"#utility.yul\":27678:27739   */\n      mstore\n        /* \"#utility.yul\":27787:27821   */\n      0x6a49674e5459754e7a6330494451774c6a4d334e546c494e6a55754d7a677851\n        /* \"#utility.yul\":27780:27784   */\n      0x0540\n        /* \"#utility.yul\":27772:27778   */\n      dup3\n        /* \"#utility.yul\":27768:27785   */\n      add\n        /* \"#utility.yul\":27761:27822   */\n      mstore\n        /* \"#utility.yul\":27870:27904   */\n      0x7a59324c6a63314d4459674e4441754d7a63324d6941324f4334774e6a517849\n        /* \"#utility.yul\":27863:27867   */\n      0x0560\n        /* \"#utility.yul\":27855:27861   */\n      dup3\n        /* \"#utility.yul\":27851:27868   */\n      add\n        /* \"#utility.yul\":27844:27905   */\n      mstore\n        /* \"#utility.yul\":27953:27987   */\n      0x4451774c6a6b794d4451674e6a6b754d444d794e5341304d5334344f446c444e\n        /* \"#utility.yul\":27946:27950   */\n      0x0580\n        /* \"#utility.yul\":27938:27944   */\n      dup3\n        /* \"#utility.yul\":27934:27951   */\n      add\n        /* \"#utility.yul\":27927:27988   */\n      mstore\n        /* \"#utility.yul\":28036:28070   */\n      0x7a41754d4441774f5341304d6934344e546332494463774c6a55304e5341304e\n        /* \"#utility.yul\":28029:28033   */\n      0x05a0\n        /* \"#utility.yul\":28021:28027   */\n      dup3\n        /* \"#utility.yul\":28017:28034   */\n      add\n        /* \"#utility.yul\":28010:28071   */\n      mstore\n        /* \"#utility.yul\":28119:28153   */\n      0x4334784e7a4579494463774c6a55304e5341304e5334314e444135566a67794c\n        /* \"#utility.yul\":28112:28116   */\n      0x05c0\n        /* \"#utility.yul\":28104:28110   */\n      dup3\n        /* \"#utility.yul\":28100:28117   */\n      add\n        /* \"#utility.yul\":28093:28154   */\n      mstore\n        /* \"#utility.yul\":28202:28236   */\n      0x6a6b7a4d7a6c444e7a41754e545131494467794c6a6b7a4d7a6b674e7a49754e\n        /* \"#utility.yul\":28195:28199   */\n      0x05e0\n        /* \"#utility.yul\":28187:28193   */\n      dup3\n        /* \"#utility.yul\":28183:28200   */\n      add\n        /* \"#utility.yul\":28176:28237   */\n      mstore\n        /* \"#utility.yul\":28285:28319   */\n      0x7941344d6934774e6a4535494463304c6a63354f5341344d5334784e7a553551\n        /* \"#utility.yul\":28278:28282   */\n      0x0600\n        /* \"#utility.yul\":28270:28276   */\n      dup3\n        /* \"#utility.yul\":28266:28283   */\n      add\n        /* \"#utility.yul\":28259:28320   */\n      mstore\n        /* \"#utility.yul\":28368:28402   */\n      0x7a63314c6a55334f4463674f4441754f4451324d6941334e6934794e44517849\n        /* \"#utility.yul\":28361:28365   */\n      0x0620\n        /* \"#utility.yul\":28353:28359   */\n      dup3\n        /* \"#utility.yul\":28349:28366   */\n      add\n        /* \"#utility.yul\":28342:28403   */\n      mstore\n        /* \"#utility.yul\":28451:28485   */\n      0x4467774c6a49354e4445674e7a59754e7a45794d6941334f5334314f44673251\n        /* \"#utility.yul\":28444:28448   */\n      0x0640\n        /* \"#utility.yul\":28436:28442   */\n      dup3\n        /* \"#utility.yul\":28432:28449   */\n      add\n        /* \"#utility.yul\":28425:28486   */\n      mstore\n        /* \"#utility.yul\":28534:28568   */\n      0x7a63334c6a45344d444d674e7a67754f44677a4d6941334e7934304d7a417949\n        /* \"#utility.yul\":28527:28531   */\n      0x0660\n        /* \"#utility.yul\":28519:28525   */\n      dup3\n        /* \"#utility.yul\":28515:28532   */\n      add\n        /* \"#utility.yul\":28508:28569   */\n      mstore\n        /* \"#utility.yul\":28617:28651   */\n      0x4463344c6a41314e5455674e7a63754e444d78494463334c6a49774f446c574d\n        /* \"#utility.yul\":28610:28614   */\n      0x0680\n        /* \"#utility.yul\":28602:28608   */\n      dup3\n        /* \"#utility.yul\":28598:28615   */\n      add\n        /* \"#utility.yul\":28591:28652   */\n      mstore\n        /* \"#utility.yul\":28700:28734   */\n      0x7a49754e6a4d774f554d334e7934304d7a45674d7a45754d6a59784e5341334e\n        /* \"#utility.yul\":28693:28697   */\n      0x06a0\n        /* \"#utility.yul\":28685:28691   */\n      dup3\n        /* \"#utility.yul\":28681:28698   */\n      add\n        /* \"#utility.yul\":28674:28735   */\n      mstore\n        /* \"#utility.yul\":28783:28817   */\n      0x7934354e7a5135494449354c6a6b304f4445674e7a67754f54517a4d5341794f\n        /* \"#utility.yul\":28776:28780   */\n      0x06c0\n        /* \"#utility.yul\":28768:28774   */\n      dup3\n        /* \"#utility.yul\":28764:28781   */\n      add\n        /* \"#utility.yul\":28757:28818   */\n      mstore\n        /* \"#utility.yul\":28866:28900   */\n      0x4334354e7a6b33517a63354c6a6b784d544d674d6a67754d4445784d7941344d\n        /* \"#utility.yul\":28859:28863   */\n      0x06e0\n        /* \"#utility.yul\":28851:28857   */\n      dup3\n        /* \"#utility.yul\":28847:28864   */\n      add\n        /* \"#utility.yul\":28840:28901   */\n      mstore\n        /* \"#utility.yul\":28949:28983   */\n      0x5334794d6a5131494449334c6a51324e7a49674f4449754e546b7a4f5341794e\n        /* \"#utility.yul\":28942:28946   */\n      0x0700\n        /* \"#utility.yul\":28934:28940   */\n      dup3\n        /* \"#utility.yul\":28930:28947   */\n      add\n        /* \"#utility.yul\":28923:28984   */\n      mstore\n        /* \"#utility.yul\":29032:29066   */\n      0x7934304e6a593553446b784c6a49774d554d354d6934314e7a4132494449334c\n        /* \"#utility.yul\":29025:29029   */\n      0x0720\n        /* \"#utility.yul\":29017:29023   */\n      dup3\n        /* \"#utility.yul\":29013:29030   */\n      add\n        /* \"#utility.yul\":29006:29067   */\n      mstore\n        /* \"#utility.yul\":29115:29149   */\n      0x6a51324e6a6b674f544d754f446730494449344c6a41784d446b674f5451754f\n        /* \"#utility.yul\":29108:29112   */\n      0x0740\n        /* \"#utility.yul\":29100:29106   */\n      dup3\n        /* \"#utility.yul\":29096:29113   */\n      add\n        /* \"#utility.yul\":29089:29150   */\n      mstore\n        /* \"#utility.yul\":29198:29232   */\n      0x4455794e5341794f4334354e7a6b30517a6b314c6a67794d446b674d6a6b754f\n        /* \"#utility.yul\":29191:29195   */\n      0x0760\n        /* \"#utility.yul\":29183:29189   */\n      dup3\n        /* \"#utility.yul\":29179:29196   */\n      add\n        /* \"#utility.yul\":29172:29233   */\n      mstore\n        /* \"#utility.yul\":29281:29315   */\n      0x5451334f4341354e69347a4e6a55674d7a45754d6a59784d7941354e69347a4e\n        /* \"#utility.yul\":29274:29278   */\n      0x0780\n        /* \"#utility.yul\":29266:29272   */\n      dup3\n        /* \"#utility.yul\":29262:29279   */\n      add\n        /* \"#utility.yul\":29255:29316   */\n      mstore\n        /* \"#utility.yul\":29364:29398   */\n      0x6a55674d7a49754e6a4d774f5659324f53347a4d7a6b35517a45774d7934344d\n        /* \"#utility.yul\":29357:29361   */\n      0x07a0\n        /* \"#utility.yul\":29349:29355   */\n      dup3\n        /* \"#utility.yul\":29345:29362   */\n      add\n        /* \"#utility.yul\":29338:29399   */\n      mstore\n        /* \"#utility.yul\":29447:29481   */\n      0x6a63674e6a4d754f544d784f5341784d5445754d7a6735494455334c6a51794e\n        /* \"#utility.yul\":29440:29444   */\n      0x07c0\n        /* \"#utility.yul\":29432:29438   */\n      dup3\n        /* \"#utility.yul\":29428:29445   */\n      add\n        /* \"#utility.yul\":29421:29482   */\n      mstore\n        /* \"#utility.yul\":29530:29564   */\n      0x7a6b674d5445334c6a4d35494451354c6a59774e6a6c444d5445344c6a49324d\n        /* \"#utility.yul\":29523:29527   */\n      0x07e0\n        /* \"#utility.yul\":29515:29521   */\n      dup3\n        /* \"#utility.yul\":29511:29528   */\n      add\n        /* \"#utility.yul\":29504:29565   */\n      mstore\n        /* \"#utility.yul\":29613:29647   */\n      0x5341304f4334304e7a4533494445784f4334344d7a63674e4463754d544d344e\n        /* \"#utility.yul\":29606:29610   */\n      0x0800\n        /* \"#utility.yul\":29598:29604   */\n      dup3\n        /* \"#utility.yul\":29594:29611   */\n      add\n        /* \"#utility.yul\":29587:29648   */\n      mstore\n        /* \"#utility.yul\":29696:29730   */\n      0x6941784d546b754d445933494451314c6a63794e6a64444d5445354c6a49354e\n        /* \"#utility.yul\":29689:29693   */\n      0x0820\n        /* \"#utility.yul\":29681:29687   */\n      dup3\n        /* \"#utility.yul\":29677:29694   */\n      add\n        /* \"#utility.yul\":29670:29731   */\n      mstore\n        /* \"#utility.yul\":29779:29813   */\n      0x7941304e43347a4d545134494445784f5334784e7a51674e4449754f4459334f\n        /* \"#utility.yul\":29772:29776   */\n      0x0840\n        /* \"#utility.yul\":29764:29770   */\n      dup3\n        /* \"#utility.yul\":29760:29777   */\n      add\n        /* \"#utility.yul\":29753:29814   */\n      mstore\n        /* \"#utility.yul\":29862:29896   */\n      0x4341784d5467754e7a4135494451784c6a55784e446c444d5445314c6a6b7a4d\n        /* \"#utility.yul\":29855:29859   */\n      0x0860\n        /* \"#utility.yul\":29847:29853   */\n      dup3\n        /* \"#utility.yul\":29843:29860   */\n      add\n        /* \"#utility.yul\":29836:29897   */\n      mstore\n        /* \"#utility.yul\":29945:29979   */\n      0x53417a4d7934314d6a4933494445784d5334314d5459674d6a59754d546b344d\n        /* \"#utility.yul\":29938:29942   */\n      0x0880\n        /* \"#utility.yul\":29930:29936   */\n      dup3\n        /* \"#utility.yul\":29926:29943   */\n      add\n        /* \"#utility.yul\":29919:29980   */\n      mstore\n        /* \"#utility.yul\":30028:30062   */\n      0x7941784d4455754e7a5131494449774c6a41784d4456444f546b754f54633049\n        /* \"#utility.yul\":30021:30025   */\n      0x08a0\n        /* \"#utility.yul\":30013:30019   */\n      dup3\n        /* \"#utility.yul\":30009:30026   */\n      add\n        /* \"#utility.yul\":30002:30063   */\n      mstore\n        /* \"#utility.yul\":30111:30145   */\n      0x44457a4c6a67794d6a67674f5449754f5463304f5341344c6a6b774e7a673149\n        /* \"#utility.yul\":30104:30108   */\n      0x08c0\n        /* \"#utility.yul\":30096:30102   */\n      dup3\n        /* \"#utility.yul\":30092:30109   */\n      add\n        /* \"#utility.yul\":30085:30146   */\n      mstore\n        /* \"#utility.yul\":30194:30228   */\n      0x4467314c6a45354e5455674e5334314f44417a4d6b4d334e7934304d54597849\n        /* \"#utility.yul\":30187:30191   */\n      0x08e0\n        /* \"#utility.yul\":30179:30185   */\n      dup3\n        /* \"#utility.yul\":30175:30192   */\n      add\n        /* \"#utility.yul\":30168:30229   */\n      mstore\n        /* \"#utility.yul\":30277:30311   */\n      0x4449754d6a55794f4341324f5334774d6a6333494441754e5467314f544d3449\n        /* \"#utility.yul\":30270:30274   */\n      0x0900\n        /* \"#utility.yul\":30262:30268   */\n      dup3\n        /* \"#utility.yul\":30258:30275   */\n      add\n        /* \"#utility.yul\":30251:30312   */\n      mstore\n        /* \"#utility.yul\":30360:30394   */\n      0x4459774c6a55324e7a45674d4334324f4459304d545a444e5449754d5441324e\n        /* \"#utility.yul\":30353:30357   */\n      0x0920\n        /* \"#utility.yul\":30345:30351   */\n      dup3\n        /* \"#utility.yul\":30341:30358   */\n      add\n        /* \"#utility.yul\":30334:30395   */\n      mstore\n        /* \"#utility.yul\":30443:30477   */\n      0x5341774c6a63344e6a67354d7941304d7934334e6a4178494449754e6a55794e\n        /* \"#utility.yul\":30436:30440   */\n      0x0940\n        /* \"#utility.yul\":30428:30434   */\n      dup3\n        /* \"#utility.yul\":30424:30441   */\n      add\n        /* \"#utility.yul\":30417:30478   */\n      mstore\n        /* \"#utility.yul\":30526:30560   */\n      0x53417a4e6934774e6a49674e6934784e6a4d344d304d794f43347a4e6a4d3449\n        /* \"#utility.yul\":30519:30523   */\n      0x0960\n        /* \"#utility.yul\":30511:30517   */\n      dup3\n        /* \"#utility.yul\":30507:30524   */\n      add\n        /* \"#utility.yul\":30500:30561   */\n      mstore\n        /* \"#utility.yul\":30609:30643   */\n      0x446b754e6a63314d5463674d6a45754e44677a4e4341784e4334334e54513549\n        /* \"#utility.yul\":30602:30606   */\n      0x0980\n        /* \"#utility.yul\":30594:30600   */\n      dup3\n        /* \"#utility.yul\":30590:30607   */\n      add\n        /* \"#utility.yul\":30583:30644   */\n      mstore\n        /* \"#utility.yul\":30692:30726   */\n      0x4445314c6a67324d5445674d6a45754d446334517a45774c6a497a4f4467674d\n        /* \"#utility.yul\":30685:30689   */\n      0x09a0\n        /* \"#utility.yul\":30677:30683   */\n      dup3\n        /* \"#utility.yul\":30673:30690   */\n      add\n        /* \"#utility.yul\":30666:30727   */\n      mstore\n        /* \"#utility.yul\":30775:30809   */\n      0x6a63754e444178494455754f546b344e4449674d7a51754f4449344d69417a4c\n        /* \"#utility.yul\":30768:30772   */\n      0x09c0\n        /* \"#utility.yul\":30760:30766   */\n      dup3\n        /* \"#utility.yul\":30756:30773   */\n      add\n        /* \"#utility.yul\":30749:30810   */\n      mstore\n        /* \"#utility.yul\":30858:30892   */\n      0x6a51784d544d78494451794c6a67344e444a444d4334344d6a51794d4463674e\n        /* \"#utility.yul\":30851:30855   */\n      0x09e0\n        /* \"#utility.yul\":30843:30849   */\n      dup3\n        /* \"#utility.yul\":30839:30856   */\n      add\n        /* \"#utility.yul\":30832:30893   */\n      mstore\n        /* \"#utility.yul\":30941:30975   */\n      0x5441754f5451774d5341744d4334774e5449324e446733494455354c6a51304e\n        /* \"#utility.yul\":30934:30938   */\n      0x0a00\n        /* \"#utility.yul\":30926:30932   */\n      dup3\n        /* \"#utility.yul\":30922:30939   */\n      add\n        /* \"#utility.yul\":30915:30976   */\n      mstore\n        /* \"#utility.yul\":31024:31058   */\n      0x7a51674d4334344d7a59344e5445674e6a63754f4459784e304d784c6a63794e\n        /* \"#utility.yul\":31017:31021   */\n      0x0a20\n        /* \"#utility.yul\":31009:31015   */\n      dup3\n        /* \"#utility.yul\":31005:31022   */\n      add\n        /* \"#utility.yul\":30998:31059   */\n      mstore\n        /* \"#utility.yul\":31107:31141   */\n      0x6a4d31494463324c6a49334e6941304c6a4d324d6a597a494467304c6a51784d\n        /* \"#utility.yul\":31100:31104   */\n      0x0a40\n        /* \"#utility.yul\":31092:31098   */\n      dup3\n        /* \"#utility.yul\":31088:31105   */\n      add\n        /* \"#utility.yul\":31081:31142   */\n      mstore\n        /* \"#utility.yul\":31190:31224   */\n      0x546b674f4334314e7a59354e6941354d5334334e446735517a6b754d7a45784d\n        /* \"#utility.yul\":31183:31187   */\n      0x0a60\n        /* \"#utility.yul\":31175:31181   */\n      dup3\n        /* \"#utility.yul\":31171:31188   */\n      add\n        /* \"#utility.yul\":31164:31225   */\n      mstore\n        /* \"#utility.yul\":31273:31307   */\n      0x5445674f544d754d4445304e5341784d43347a4f54457949446b304c6a41304e\n        /* \"#utility.yul\":31266:31270   */\n      0x0a80\n        /* \"#utility.yul\":31258:31264   */\n      dup3\n        /* \"#utility.yul\":31254:31271   */\n      add\n        /* \"#utility.yul\":31247:31308   */\n      mstore\n        /* \"#utility.yul\":31356:31390   */\n      0x4451674d5445754e6a6b774d7941354e4334334d546331517a45794c6a6b344f\n        /* \"#utility.yul\":31349:31353   */\n      0x0aa0\n        /* \"#utility.yul\":31341:31347   */\n      dup3\n        /* \"#utility.yul\":31337:31354   */\n      add\n        /* \"#utility.yul\":31330:31391   */\n      mstore\n        /* \"#utility.yul\":31439:31473   */\n      0x5451674f5455754d7a6b774e6941784e4334304e544d3249446b314c6a59334f\n        /* \"#utility.yul\":31432:31436   */\n      0x0ac0\n        /* \"#utility.yul\":31424:31430   */\n      dup3\n        /* \"#utility.yul\":31420:31437   */\n      add\n        /* \"#utility.yul\":31413:31474   */\n      mstore\n        /* \"#utility.yul\":31522:31556   */\n      0x5341784e5334354d5445674f5455754e5451344f554d784e7934314d7a6b674f\n        /* \"#utility.yul\":31515:31519   */\n      0x0ae0\n        /* \"#utility.yul\":31507:31513   */\n      dup3\n        /* \"#utility.yul\":31503:31520   */\n      add\n        /* \"#utility.yul\":31496:31557   */\n      mstore\n        /* \"#utility.yul\":31605:31639   */\n      0x5455754e4441314f5341784f5334314e6a59674f5455754d6a41794f5341794d\n        /* \"#utility.yul\":31598:31602   */\n      0x0b00\n        /* \"#utility.yul\":31590:31596   */\n      dup3\n        /* \"#utility.yul\":31586:31603   */\n      add\n        /* \"#utility.yul\":31579:31640   */\n      mstore\n        /* \"#utility.yul\":31688:31722   */\n      0x5334354e7a59674f5451754f5445354f554d794d7934774d6a557849446b304c\n        /* \"#utility.yul\":31681:31685   */\n      0x0b20\n        /* \"#utility.yul\":31673:31679   */\n      dup3\n        /* \"#utility.yul\":31669:31686   */\n      add\n        /* \"#utility.yul\":31662:31723   */\n      mstore\n        /* \"#utility.yul\":31771:31805   */\n      0x6a67774d4467674d6a4d754f546b7a4e7941354e4334794f546b35494449304c\n        /* \"#utility.yul\":31764:31768   */\n      0x0b40\n        /* \"#utility.yul\":31756:31762   */\n      dup3\n        /* \"#utility.yul\":31752:31769   */\n      add\n        /* \"#utility.yul\":31745:31806   */\n      mstore\n        /* \"#utility.yul\":31854:31888   */\n      0x6a59354e7a49674f544d754e5445794e6b4d794e5334304d44413449446b794c\n        /* \"#utility.yul\":31847:31851   */\n      0x0b60\n        /* \"#utility.yul\":31839:31845   */\n      dup3\n        /* \"#utility.yul\":31835:31852   */\n      add\n        /* \"#utility.yul\":31828:31889   */\n      mstore\n        /* \"#utility.yul\":31937:31971   */\n      0x6a63794e544d674d6a55754e7a6b774d5341354d5334334d445933494449314c\n        /* \"#utility.yul\":31930:31934   */\n      0x0b80\n        /* \"#utility.yul\":31922:31928   */\n      dup3\n        /* \"#utility.yul\":31918:31935   */\n      add\n        /* \"#utility.yul\":31911:31972   */\n      mstore\n        /* \"#utility.yul\":32020:32054   */\n      0x6a63354d5341354d4334324e544135544449314c6a6335494455344c6a51784e\n        /* \"#utility.yul\":32013:32017   */\n      0x0ba0\n        /* \"#utility.yul\":32005:32011   */\n      dup3\n        /* \"#utility.yul\":32001:32018   */\n      add\n        /* \"#utility.yul\":31994:32055   */\n      mstore\n        /* \"#utility.yul\":32103:32137   */\n      0x446c614969426d615778735053496a4d6a457a4d6a56434969382b44516f3863\n        /* \"#utility.yul\":32096:32100   */\n      0x0bc0\n        /* \"#utility.yul\":32088:32094   */\n      dup3\n        /* \"#utility.yul\":32084:32101   */\n      add\n        /* \"#utility.yul\":32077:32138   */\n      mstore\n        /* \"#utility.yul\":32186:32220   */\n      0x4746306143426b50534a4e4d6a55754e6a41794d5341784d5441754e5446444d\n        /* \"#utility.yul\":32179:32183   */\n      0x0be0\n        /* \"#utility.yul\":32171:32177   */\n      dup3\n        /* \"#utility.yul\":32167:32184   */\n      add\n        /* \"#utility.yul\":32160:32221   */\n      mstore\n        /* \"#utility.yul\":32269:32303   */\n      0x7a51754e6a63304e4341784d5463754d5445674e4455754d7a6b314f5341784d\n        /* \"#utility.yul\":32262:32266   */\n      0x0c00\n        /* \"#utility.yul\":32254:32260   */\n      dup3\n        /* \"#utility.yul\":32250:32267   */\n      add\n        /* \"#utility.yul\":32243:32304   */\n      mstore\n        /* \"#utility.yul\":32352:32386   */\n      0x6a45754d446379494455324c6a55344d4449674d5449784c6a6b314e304d324e\n        /* \"#utility.yul\":32345:32349   */\n      0x0c20\n        /* \"#utility.yul\":32337:32343   */\n      dup3\n        /* \"#utility.yul\":32333:32350   */\n      add\n        /* \"#utility.yul\":32326:32387   */\n      mstore\n        /* \"#utility.yul\":32435:32469   */\n      0x7934334e6a5132494445794d6934344e4445674e7a67754f5463314e7941784d\n        /* \"#utility.yul\":32428:32432   */\n      0x0c40\n        /* \"#utility.yul\":32420:32426   */\n      dup3\n        /* \"#utility.yul\":32416:32433   */\n      add\n        /* \"#utility.yul\":32409:32470   */\n      mstore\n        /* \"#utility.yul\":32518:32552   */\n      0x6a41754e6a4531494467344c6a6b334d7a45674d5445314c6a55794d304d354f\n        /* \"#utility.yul\":32511:32515   */\n      0x0c60\n        /* \"#utility.yul\":32503:32509   */\n      dup3\n        /* \"#utility.yul\":32499:32516   */\n      add\n        /* \"#utility.yul\":32492:32553   */\n      mstore\n        /* \"#utility.yul\":32601:32635   */\n      0x4334354e7a4131494445784d4334304d7a45674d5441334c6a4d324e4341784d\n        /* \"#utility.yul\":32594:32598   */\n      0x0c80\n        /* \"#utility.yul\":32586:32592   */\n      dup3\n        /* \"#utility.yul\":32582:32599   */\n      add\n        /* \"#utility.yul\":32575:32636   */\n      mstore\n        /* \"#utility.yul\":32684:32718   */\n      0x4449754e6a637a494445784d7934794d6a59674f544d754d5441324f454d784d\n        /* \"#utility.yul\":32677:32681   */\n      0x0ca0\n        /* \"#utility.yul\":32669:32675   */\n      dup3\n        /* \"#utility.yul\":32665:32682   */\n      add\n        /* \"#utility.yul\":32658:32719   */\n      mstore\n        /* \"#utility.yul\":32767:32801   */\n      0x546b754d4467334944677a4c6a55304d4455674d5449794c6a45344f4341334d\n        /* \"#utility.yul\":32760:32764   */\n      0x0cc0\n        /* \"#utility.yul\":32752:32758   */\n      dup3\n        /* \"#utility.yul\":32748:32765   */\n      add\n        /* \"#utility.yul\":32741:32802   */\n      mstore\n        /* \"#utility.yul\":32850:32884   */\n      0x6934314d7a6b674d5449794c6a45344e5341324d53347a4d546b33517a45794d\n        /* \"#utility.yul\":32843:32847   */\n      0x0ce0\n        /* \"#utility.yul\":32835:32841   */\n      dup3\n        /* \"#utility.yul\":32831:32848   */\n      add\n        /* \"#utility.yul\":32824:32885   */\n      mstore\n        /* \"#utility.yul\":32933:32967   */\n      0x6934784f4455674e546b754f5445354e7941784d6a49754d5449674e5467754e\n        /* \"#utility.yul\":32926:32930   */\n      0x0d00\n        /* \"#utility.yul\":32918:32924   */\n      dup3\n        /* \"#utility.yul\":32914:32931   */\n      add\n        /* \"#utility.yul\":32907:32968   */\n      mstore\n        /* \"#utility.yul\":33016:33050   */\n      0x544d304e7941784d6a49754d444933494455334c6a45314e7a64444f546b754f\n        /* \"#utility.yul\":33009:33013   */\n      0x0d20\n        /* \"#utility.yul\":33001:33007   */\n      dup3\n        /* \"#utility.yul\":32997:33014   */\n      add\n        /* \"#utility.yul\":32990:33051   */\n      mstore\n        /* \"#utility.yul\":33099:33133   */\n      0x44413449446b774c6a49354e5463674e5467754e7a677a4d5341784d4455754e\n        /* \"#utility.yul\":33092:33096   */\n      0x0d40\n        /* \"#utility.yul\":33084:33090   */\n      dup3\n        /* \"#utility.yul\":33080:33097   */\n      add\n        /* \"#utility.yul\":33073:33134   */\n      mstore\n        /* \"#utility.yul\":33182:33216   */\n      0x7a6734494449314c6a59774e4341784d5441754e5441314969426d6157787350\n        /* \"#utility.yul\":33175:33179   */\n      0x0d60\n        /* \"#utility.yul\":33167:33173   */\n      dup3\n        /* \"#utility.yul\":33163:33180   */\n      add\n        /* \"#utility.yul\":33156:33217   */\n      mstore\n        /* \"#utility.yul\":33265:33299   */\n      0x53496a4f5463354e6a6b314969382b44516f384c334e325a7a344e43673d3d27\n        /* \"#utility.yul\":33258:33262   */\n      0x0d80\n        /* \"#utility.yul\":33250:33256   */\n      dup3\n        /* \"#utility.yul\":33246:33263   */\n      add\n        /* \"#utility.yul\":33239:33300   */\n      mstore\n        /* \"#utility.yul\":33348:33382   */\n      0x2f3e3c2f613e3c2f7370616e3e3c2f6469763e3c2f74643e3c2f74723e3c7472\n        /* \"#utility.yul\":33341:33345   */\n      0x0da0\n        /* \"#utility.yul\":33333:33339   */\n      dup3\n        /* \"#utility.yul\":33329:33346   */\n      add\n        /* \"#utility.yul\":33322:33383   */\n      mstore\n        /* \"#utility.yul\":33431:33465   */\n      0x3e3c74642076616c69676e3d276d6964646c652720616c69676e3d276c656674\n        /* \"#utility.yul\":33424:33428   */\n      0x0dc0\n        /* \"#utility.yul\":33416:33422   */\n      dup3\n        /* \"#utility.yul\":33412:33429   */\n      add\n        /* \"#utility.yul\":33405:33466   */\n      mstore\n        /* \"#utility.yul\":33514:33548   */\n      0x2720636c6173733d276c696768742d6267273e3c756c20616c69676e3d276c65\n        /* \"#utility.yul\":33507:33511   */\n      0x0de0\n        /* \"#utility.yul\":33499:33505   */\n      dup3\n        /* \"#utility.yul\":33495:33512   */\n      add\n        /* \"#utility.yul\":33488:33549   */\n      mstore\n        /* \"#utility.yul\":33597:33631   */\n      0x667427207374796c653d2770616464696e672d6c6566743a20313570783b666f\n        /* \"#utility.yul\":33590:33594   */\n      0x0e00\n        /* \"#utility.yul\":33582:33588   */\n      dup3\n        /* \"#utility.yul\":33578:33595   */\n      add\n        /* \"#utility.yul\":33571:33632   */\n      mstore\n        /* \"#utility.yul\":33680:33714   */\n      0x6e742d73697a653a20313070783b273e3c6c6920636c6173733d276c69676874\n        /* \"#utility.yul\":33673:33677   */\n      0x0e20\n        /* \"#utility.yul\":33665:33671   */\n      dup3\n        /* \"#utility.yul\":33661:33678   */\n      add\n        /* \"#utility.yul\":33654:33715   */\n      mstore\n        /* \"#utility.yul\":33763:33797   */\n      0x2d746578742d33273e426c6f636b3a20247b7472616e73616374696f6e546578\n        /* \"#utility.yul\":33756:33760   */\n      0x0e40\n        /* \"#utility.yul\":33748:33754   */\n      dup3\n        /* \"#utility.yul\":33744:33761   */\n      add\n        /* \"#utility.yul\":33737:33798   */\n      mstore\n        /* \"#utility.yul\":33846:33880   */\n      0x74732e626c6f636b7d3c2f6c693e3c6c6920636c6173733d276c696768742d74\n        /* \"#utility.yul\":33839:33843   */\n      0x0e60\n        /* \"#utility.yul\":33831:33837   */\n      dup3\n        /* \"#utility.yul\":33827:33844   */\n      add\n        /* \"#utility.yul\":33820:33881   */\n      mstore\n        /* \"#utility.yul\":33929:33963   */\n      0x6578742d33273e4c6f636174696f6e3a20554e4b4e4f574e3c2f6c693e3c2f75\n        /* \"#utility.yul\":33922:33926   */\n      0x0e80\n        /* \"#utility.yul\":33914:33920   */\n      dup3\n        /* \"#utility.yul\":33910:33927   */\n      add\n        /* \"#utility.yul\":33903:33964   */\n      mstore\n        /* \"#utility.yul\":34012:34046   */\n      0x6c3e3c2f74643e3c746420616c69676e3d2763656e746572272076616c69676e\n        /* \"#utility.yul\":34005:34009   */\n      0x0ea0\n        /* \"#utility.yul\":33997:34003   */\n      dup3\n        /* \"#utility.yul\":33993:34010   */\n      add\n        /* \"#utility.yul\":33986:34047   */\n      mstore\n        /* \"#utility.yul\":34095:34129   */\n      0x3d276d6964646c652720636c6173733d276c696768742d6267273e3c666f6e74\n        /* \"#utility.yul\":34088:34092   */\n      0x0ec0\n        /* \"#utility.yul\":34080:34086   */\n      dup3\n        /* \"#utility.yul\":34076:34093   */\n      add\n        /* \"#utility.yul\":34069:34130   */\n      mstore\n        /* \"#utility.yul\":34178:34212   */\n      0x20636c6173733d27726567756c61725f74657874273e3c64697620636c617373\n        /* \"#utility.yul\":34171:34175   */\n      0x0ee0\n        /* \"#utility.yul\":34163:34169   */\n      dup3\n        /* \"#utility.yul\":34159:34176   */\n      add\n        /* \"#utility.yul\":34152:34213   */\n      mstore\n        /* \"#utility.yul\":34261:34295   */\n      0x3d27706f7374207265706c79273e3c626c6f636b71756f7465207374796c653d\n        /* \"#utility.yul\":34254:34258   */\n      0x0f00\n        /* \"#utility.yul\":34246:34252   */\n      dup3\n        /* \"#utility.yul\":34242:34259   */\n      add\n        /* \"#utility.yul\":34235:34296   */\n      mstore\n        /* \"#utility.yul\":34344:34378   */\n      0x2777686974652d73706163653a207072652d6c696e653b6d617267696e2d746f\n        /* \"#utility.yul\":34337:34341   */\n      0x0f20\n        /* \"#utility.yul\":34329:34335   */\n      dup3\n        /* \"#utility.yul\":34325:34342   */\n      add\n        /* \"#utility.yul\":34318:34379   */\n      mstore\n        /* \"#utility.yul\":34427:34461   */\n      0x703a3070783b2720636c6173733d27706f73744d657373616765206c69676874\n        /* \"#utility.yul\":34420:34424   */\n      0x0f40\n        /* \"#utility.yul\":34412:34418   */\n      dup3\n        /* \"#utility.yul\":34408:34425   */\n      add\n        /* \"#utility.yul\":34401:34462   */\n      mstore\n        /* \"#utility.yul\":34510:34544   */\n      0x2d746578742d32272069643d276d3334303739393833273e3c62723e247b7472\n        /* \"#utility.yul\":34503:34507   */\n      0x0f60\n        /* \"#utility.yul\":34495:34501   */\n      dup3\n        /* \"#utility.yul\":34491:34508   */\n      add\n        /* \"#utility.yul\":34484:34545   */\n      mstore\n        /* \"#utility.yul\":34593:34627   */\n      0x616e73616374696f6e54657874732e746578747d3c2f626c6f636b71756f7465\n        /* \"#utility.yul\":34586:34590   */\n      0x0f80\n        /* \"#utility.yul\":34578:34584   */\n      dup3\n        /* \"#utility.yul\":34574:34591   */\n      add\n        /* \"#utility.yul\":34567:34628   */\n      mstore\n        /* \"#utility.yul\":34672:34706   */\n      0x3e3c2f6469763e3c2f666f6e743e3c2f74643e3c2f74723e60293b617070656e\n        /* \"#utility.yul\":34665:34669   */\n      0x0fa0\n        /* \"#utility.yul\":34657:34663   */\n      dup3\n        /* \"#utility.yul\":34653:34670   */\n      add\n        /* \"#utility.yul\":34646:34707   */\n      mstore\n        /* \"#utility.yul\":34751:34785   */\n      0x644c6f6164696e67526f7728293b6966286d6f64653d3d3d31297b7365744461\n        /* \"#utility.yul\":34744:34748   */\n      0x0fc0\n        /* \"#utility.yul\":34736:34742   */\n      dup3\n        /* \"#utility.yul\":34732:34749   */\n      add\n        /* \"#utility.yul\":34725:34786   */\n      mstore\n        /* \"#utility.yul\":34822:34856   */\n      0x726b28297d656c73657b7365744c6967687428297d7d7d66756e6374696f6e20\n        /* \"#utility.yul\":34815:34819   */\n      0x0fe0\n        /* \"#utility.yul\":34807:34813   */\n      dup3\n        /* \"#utility.yul\":34803:34820   */\n      add\n        /* \"#utility.yul\":34796:34857   */\n      mstore\n        /* \"#utility.yul\":34893:34927   */\n      0x736f7274427954696d6528612c62297b72657475726e20612e74696d653e622e\n        /* \"#utility.yul\":34886:34890   */\n      0x1000\n        /* \"#utility.yul\":34878:34884   */\n      dup3\n        /* \"#utility.yul\":34874:34891   */\n      add\n        /* \"#utility.yul\":34867:34928   */\n      mstore\n        /* \"#utility.yul\":34964:34998   */\n      0x74696d653f313a2d317d66756e6374696f6e20757064617465436c6f636b2829\n        /* \"#utility.yul\":34957:34961   */\n      0x1020\n        /* \"#utility.yul\":34949:34955   */\n      dup3\n        /* \"#utility.yul\":34945:34962   */\n      add\n        /* \"#utility.yul\":34938:34999   */\n      mstore\n        /* \"#utility.yul\":35035:35069   */\n      0x7b636f6e7374206e6f773d6e657720446174653b636f6e737420686f7572733d\n        /* \"#utility.yul\":35028:35032   */\n      0x1040\n        /* \"#utility.yul\":35020:35026   */\n      dup3\n        /* \"#utility.yul\":35016:35033   */\n      add\n        /* \"#utility.yul\":35009:35070   */\n      mstore\n        /* \"#utility.yul\":35110:35144   */\n      0x537472696e67286e6f772e676574486f7572732829292e706164537461727428\n        /* \"#utility.yul\":35103:35107   */\n      0x1060\n        /* \"#utility.yul\":35095:35101   */\n      dup3\n        /* \"#utility.yul\":35091:35108   */\n      add\n        /* \"#utility.yul\":35084:35145   */\n      mstore\n        /* \"#utility.yul\":35189:35223   */\n      0x322c273027293b636f6e7374206d696e757465733d537472696e67286e6f772e\n        /* \"#utility.yul\":35182:35186   */\n      0x1080\n        /* \"#utility.yul\":35174:35180   */\n      dup3\n        /* \"#utility.yul\":35170:35187   */\n      add\n        /* \"#utility.yul\":35163:35224   */\n      mstore\n        /* \"#utility.yul\":35264:35298   */\n      0x6765744d696e757465732829292e706164537461727428322c273027293b636f\n        /* \"#utility.yul\":35257:35261   */\n      0x10a0\n        /* \"#utility.yul\":35249:35255   */\n      dup3\n        /* \"#utility.yul\":35245:35262   */\n      add\n        /* \"#utility.yul\":35238:35299   */\n      mstore\n        /* \"#utility.yul\":35339:35373   */\n      0x6e7374207365636f6e64733d537472696e67286e6f772e6765745365636f6e64\n        /* \"#utility.yul\":35332:35336   */\n      0x10c0\n        /* \"#utility.yul\":35324:35330   */\n      dup3\n        /* \"#utility.yul\":35320:35337   */\n      add\n        /* \"#utility.yul\":35313:35374   */\n      mstore\n        /* \"#utility.yul\":35414:35448   */\n      0x732829292e706164537461727428322c273027293b636f6e7374206d6f6e7468\n        /* \"#utility.yul\":35407:35411   */\n      0x10e0\n        /* \"#utility.yul\":35399:35405   */\n      dup3\n        /* \"#utility.yul\":35395:35412   */\n      add\n        /* \"#utility.yul\":35388:35449   */\n      mstore\n        /* \"#utility.yul\":35489:35523   */\n      0x4e616d65733d5b274a616e75617279272c274665627275617279272c274d6172\n        /* \"#utility.yul\":35482:35486   */\n      0x1100\n        /* \"#utility.yul\":35474:35480   */\n      dup3\n        /* \"#utility.yul\":35470:35487   */\n      add\n        /* \"#utility.yul\":35463:35524   */\n      mstore\n        /* \"#utility.yul\":35564:35598   */\n      0x6368272c27417072696c272c274d6179272c274a756e65272c274a756c79272c\n        /* \"#utility.yul\":35557:35561   */\n      0x1120\n        /* \"#utility.yul\":35549:35555   */\n      dup3\n        /* \"#utility.yul\":35545:35562   */\n      add\n        /* \"#utility.yul\":35538:35599   */\n      mstore\n        /* \"#utility.yul\":35639:35673   */\n      0x27417567757374272c2753657074656d626572272c274f63746f626572272c27\n        /* \"#utility.yul\":35632:35636   */\n      0x1140\n        /* \"#utility.yul\":35624:35630   */\n      dup3\n        /* \"#utility.yul\":35620:35637   */\n      add\n        /* \"#utility.yul\":35613:35674   */\n      mstore\n        /* \"#utility.yul\":35714:35748   */\n      0x4e6f76656d626572272c27446563656d626572275d3b636f6e7374206d6f6e74\n        /* \"#utility.yul\":35707:35711   */\n      0x1160\n        /* \"#utility.yul\":35699:35705   */\n      dup3\n        /* \"#utility.yul\":35695:35712   */\n      add\n        /* \"#utility.yul\":35688:35749   */\n      mstore\n        /* \"#utility.yul\":35789:35823   */\n      0x683d6d6f6e74684e616d65735b6e6f772e6765744d6f6e746828295d3b636f6e\n        /* \"#utility.yul\":35782:35786   */\n      0x1180\n        /* \"#utility.yul\":35774:35780   */\n      dup3\n        /* \"#utility.yul\":35770:35787   */\n      add\n        /* \"#utility.yul\":35763:35824   */\n      mstore\n        /* \"#utility.yul\":35864:35898   */\n      0x7374206461793d6e6f772e6765744461746528293b636f6e737420796561723d\n        /* \"#utility.yul\":35857:35861   */\n      0x11a0\n        /* \"#utility.yul\":35849:35855   */\n      dup3\n        /* \"#utility.yul\":35845:35862   */\n      add\n        /* \"#utility.yul\":35838:35899   */\n      mstore\n        /* \"#utility.yul\":35939:35973   */\n      0x6e6f772e67657446756c6c5965617228293b636f6e7374207375666669783d64\n        /* \"#utility.yul\":35932:35936   */\n      0x11c0\n        /* \"#utility.yul\":35924:35930   */\n      dup3\n        /* \"#utility.yul\":35920:35937   */\n      add\n        /* \"#utility.yul\":35913:35974   */\n      mstore\n        /* \"#utility.yul\":36014:36048   */\n      0x61793d3e7b6966286461793e3326266461793c32312972657475726e27746827\n        /* \"#utility.yul\":36007:36011   */\n      0x11e0\n        /* \"#utility.yul\":35999:36005   */\n      dup3\n        /* \"#utility.yul\":35995:36012   */\n      add\n        /* \"#utility.yul\":35988:36049   */\n      mstore\n        /* \"#utility.yul\":36093:36127   */\n      0x3b73776974636828646179253130297b6361736520313a72657475726e277374\n        /* \"#utility.yul\":36086:36090   */\n      0x1200\n        /* \"#utility.yul\":36078:36084   */\n      dup3\n        /* \"#utility.yul\":36074:36091   */\n      add\n        /* \"#utility.yul\":36067:36128   */\n      mstore\n        /* \"#utility.yul\":36176:36210   */\n      0x273b6361736520323a72657475726e276e64273b6361736520333a7265747572\n        /* \"#utility.yul\":36169:36173   */\n      0x1220\n        /* \"#utility.yul\":36161:36167   */\n      dup3\n        /* \"#utility.yul\":36157:36174   */\n      add\n        /* \"#utility.yul\":36150:36211   */\n      mstore\n        /* \"#utility.yul\":36251:36285   */\n      0x6e277264273b64656661756c743a72657475726e277468277d7d3b636f6e7374\n        /* \"#utility.yul\":36244:36248   */\n      0x1240\n        /* \"#utility.yul\":36236:36242   */\n      dup3\n        /* \"#utility.yul\":36232:36249   */\n      add\n        /* \"#utility.yul\":36225:36286   */\n      mstore\n        /* \"#utility.yul\":36326:36360   */\n      0x2066756c6c446174653d60247b6d6f6e74687d20247b6461797d247b73756666\n        /* \"#utility.yul\":36319:36323   */\n      0x1260\n        /* \"#utility.yul\":36311:36317   */\n      dup3\n        /* \"#utility.yul\":36307:36324   */\n      add\n        /* \"#utility.yul\":36300:36361   */\n      mstore\n        /* \"#utility.yul\":36405:36439   */\n      0x697828646179297d2c20247b796561727d20247b686f7572737d3a247b6d696e\n        /* \"#utility.yul\":36398:36402   */\n      0x1280\n        /* \"#utility.yul\":36390:36396   */\n      dup3\n        /* \"#utility.yul\":36386:36403   */\n      add\n        /* \"#utility.yul\":36379:36440   */\n      mstore\n        /* \"#utility.yul\":36484:36518   */\n      0x757465737d3a247b7365636f6e64737d603b2428272e63757272656e742d7469\n        /* \"#utility.yul\":36477:36481   */\n      0x12a0\n        /* \"#utility.yul\":36469:36475   */\n      dup3\n        /* \"#utility.yul\":36465:36482   */\n      add\n        /* \"#utility.yul\":36458:36519   */\n      mstore\n        /* \"#utility.yul\":36559:36593   */\n      0x6d6527292e746578742866756c6c44617465297d736574496e74657276616c28\n        /* \"#utility.yul\":36552:36556   */\n      0x12c0\n        /* \"#utility.yul\":36544:36550   */\n      dup3\n        /* \"#utility.yul\":36540:36557   */\n      add\n        /* \"#utility.yul\":36533:36594   */\n      mstore\n        /* \"#utility.yul\":36630:36664   */\n      0x757064617465436c6f636b2c316533293b757064617465436c6f636b28293b24\n        /* \"#utility.yul\":36623:36627   */\n      0x12e0\n        /* \"#utility.yul\":36615:36621   */\n      dup3\n        /* \"#utility.yul\":36611:36628   */\n      add\n        /* \"#utility.yul\":36604:36665   */\n      mstore\n        /* \"#utility.yul\":36701:36735   */\n      0x28646f63756d656e74292e7265616479282866756e6374696f6e28297b242827\n        /* \"#utility.yul\":36694:36698   */\n      0x1300\n        /* \"#utility.yul\":36686:36692   */\n      dup3\n        /* \"#utility.yul\":36682:36699   */\n      add\n        /* \"#utility.yul\":36675:36736   */\n      mstore\n        /* \"#utility.yul\":36772:36806   */\n      0x23706f73742d7772617070657227292e66616465496e28297d29293b66756e63\n        /* \"#utility.yul\":36765:36769   */\n      0x1320\n        /* \"#utility.yul\":36757:36763   */\n      dup3\n        /* \"#utility.yul\":36753:36770   */\n      add\n        /* \"#utility.yul\":36746:36807   */\n      mstore\n        /* \"#utility.yul\":36843:36877   */\n      0x74696f6e207365744461726b28297b242827236d6f64652d7377697463682729\n        /* \"#utility.yul\":36836:36840   */\n      0x1340\n        /* \"#utility.yul\":36828:36834   */\n      dup3\n        /* \"#utility.yul\":36824:36841   */\n      add\n        /* \"#utility.yul\":36817:36878   */\n      mstore\n        /* \"#utility.yul\":36918:36952   */\n      0x2e637373282766696c746572272c27696e76657274282e37352927293b242827\n        /* \"#utility.yul\":36911:36915   */\n      0x1360\n        /* \"#utility.yul\":36903:36909   */\n      dup3\n        /* \"#utility.yul\":36899:36916   */\n      add\n        /* \"#utility.yul\":36892:36953   */\n      mstore\n        /* \"#utility.yul\":36997:37031   */\n      0x2e6c696768742d7465787427292e72656d6f7665436c61737328276c69676874\n        /* \"#utility.yul\":36990:36994   */\n      0x1380\n        /* \"#utility.yul\":36982:36988   */\n      dup3\n        /* \"#utility.yul\":36978:36995   */\n      add\n        /* \"#utility.yul\":36971:37032   */\n      mstore\n        /* \"#utility.yul\":37076:37110   */\n      0x2d7465787427292e616464436c61737328276461726b2d7465787427293b2428\n        /* \"#utility.yul\":37069:37073   */\n      0x13a0\n        /* \"#utility.yul\":37061:37067   */\n      dup3\n        /* \"#utility.yul\":37057:37074   */\n      add\n        /* \"#utility.yul\":37050:37111   */\n      mstore\n        /* \"#utility.yul\":37155:37189   */\n      0x272e6c696768742d746578742d3227292e72656d6f7665436c61737328276c69\n        /* \"#utility.yul\":37148:37152   */\n      0x13c0\n        /* \"#utility.yul\":37140:37146   */\n      dup3\n        /* \"#utility.yul\":37136:37153   */\n      add\n        /* \"#utility.yul\":37129:37190   */\n      mstore\n        /* \"#utility.yul\":37234:37268   */\n      0x6768742d746578742d3227292e616464436c61737328276461726b2d74657874\n        /* \"#utility.yul\":37227:37231   */\n      0x13e0\n        /* \"#utility.yul\":37219:37225   */\n      dup3\n        /* \"#utility.yul\":37215:37232   */\n      add\n        /* \"#utility.yul\":37208:37269   */\n      mstore\n        /* \"#utility.yul\":37309:37343   */\n      0x2d3227293b2428272e6c696768742d746578742d3327292e72656d6f7665436c\n        /* \"#utility.yul\":37302:37306   */\n      0x1400\n        /* \"#utility.yul\":37294:37300   */\n      dup3\n        /* \"#utility.yul\":37290:37307   */\n      add\n        /* \"#utility.yul\":37283:37344   */\n      mstore\n        /* \"#utility.yul\":37384:37418   */\n      0x61737328276c696768742d746578742d3327292e616464436c61737328276461\n        /* \"#utility.yul\":37377:37381   */\n      0x1420\n        /* \"#utility.yul\":37369:37375   */\n      dup3\n        /* \"#utility.yul\":37365:37382   */\n      add\n        /* \"#utility.yul\":37358:37419   */\n      mstore\n        /* \"#utility.yul\":37459:37493   */\n      0x726b2d746578742d3327293b2428272e6c696768742d746578742d3427292e72\n        /* \"#utility.yul\":37452:37456   */\n      0x1440\n        /* \"#utility.yul\":37444:37450   */\n      dup3\n        /* \"#utility.yul\":37440:37457   */\n      add\n        /* \"#utility.yul\":37433:37494   */\n      mstore\n        /* \"#utility.yul\":37534:37568   */\n      0x656d6f7665436c61737328276c696768742d746578742d3427292e616464436c\n        /* \"#utility.yul\":37527:37531   */\n      0x1460\n        /* \"#utility.yul\":37519:37525   */\n      dup3\n        /* \"#utility.yul\":37515:37532   */\n      add\n        /* \"#utility.yul\":37508:37569   */\n      mstore\n        /* \"#utility.yul\":37609:37643   */\n      0x61737328276461726b2d746578742d3427293b2428272e6c696768742d626727\n        /* \"#utility.yul\":37602:37606   */\n      0x1480\n        /* \"#utility.yul\":37594:37600   */\n      dup3\n        /* \"#utility.yul\":37590:37607   */\n      add\n        /* \"#utility.yul\":37583:37644   */\n      mstore\n        /* \"#utility.yul\":37684:37718   */\n      0x292e72656d6f7665436c61737328276c696768742d626727292e616464436c61\n        /* \"#utility.yul\":37677:37681   */\n      0x14a0\n        /* \"#utility.yul\":37669:37675   */\n      dup3\n        /* \"#utility.yul\":37665:37682   */\n      add\n        /* \"#utility.yul\":37658:37719   */\n      mstore\n        /* \"#utility.yul\":37759:37793   */\n      0x737328276461726b2d626727293b2428272e6c696768742d62672d3227292e72\n        /* \"#utility.yul\":37752:37756   */\n      0x14c0\n        /* \"#utility.yul\":37744:37750   */\n      dup3\n        /* \"#utility.yul\":37740:37757   */\n      add\n        /* \"#utility.yul\":37733:37794   */\n      mstore\n        /* \"#utility.yul\":37834:37868   */\n      0x656d6f7665436c61737328276c696768742d62672d3227292e616464436c6173\n        /* \"#utility.yul\":37827:37831   */\n      0x14e0\n        /* \"#utility.yul\":37819:37825   */\n      dup3\n        /* \"#utility.yul\":37815:37832   */\n      add\n        /* \"#utility.yul\":37808:37869   */\n      mstore\n        /* \"#utility.yul\":37909:37943   */\n      0x7328276461726b2d62672d3227293b2428272e6c696768742d626f726465722d\n        /* \"#utility.yul\":37902:37906   */\n      0x1500\n        /* \"#utility.yul\":37894:37900   */\n      dup3\n        /* \"#utility.yul\":37890:37907   */\n      add\n        /* \"#utility.yul\":37883:37944   */\n      mstore\n        /* \"#utility.yul\":37988:38022   */\n      0x3227292e72656d6f7665436c61737328276c696768742d626f726465722d3227\n        /* \"#utility.yul\":37981:37985   */\n      0x1520\n        /* \"#utility.yul\":37973:37979   */\n      dup3\n        /* \"#utility.yul\":37969:37986   */\n      add\n        /* \"#utility.yul\":37962:38023   */\n      mstore\n        /* \"#utility.yul\":38067:38101   */\n      0x292e616464436c61737328276461726b2d626f726465722d3227293b2428272e\n        /* \"#utility.yul\":38060:38064   */\n      0x1540\n        /* \"#utility.yul\":38052:38058   */\n      dup3\n        /* \"#utility.yul\":38048:38065   */\n      add\n        /* \"#utility.yul\":38041:38102   */\n      mstore\n        /* \"#utility.yul\":38146:38180   */\n      0x6c696768742d626f7264657227292e72656d6f7665436c61737328276c696768\n        /* \"#utility.yul\":38139:38143   */\n      0x1560\n        /* \"#utility.yul\":38131:38137   */\n      dup3\n        /* \"#utility.yul\":38127:38144   */\n      add\n        /* \"#utility.yul\":38120:38181   */\n      mstore\n        /* \"#utility.yul\":38225:38259   */\n      0x742d626f7264657227292e616464436c61737328276461726b2d626f72646572\n        /* \"#utility.yul\":38218:38222   */\n      0x1580\n        /* \"#utility.yul\":38210:38216   */\n      dup3\n        /* \"#utility.yul\":38206:38223   */\n      add\n        /* \"#utility.yul\":38199:38260   */\n      mstore\n        /* \"#utility.yul\":38304:38338   */\n      0x27293b2428272e6c696768742d6c696e6b27292e72656d6f7665436c61737328\n        /* \"#utility.yul\":38297:38301   */\n      0x15a0\n        /* \"#utility.yul\":38289:38295   */\n      dup3\n        /* \"#utility.yul\":38285:38302   */\n      add\n        /* \"#utility.yul\":38278:38339   */\n      mstore\n        /* \"#utility.yul\":38383:38417   */\n      0x276c696768742d6c696e6b27292e616464436c61737328276461726b2d6c696e\n        /* \"#utility.yul\":38376:38380   */\n      0x15c0\n        /* \"#utility.yul\":38368:38374   */\n      dup3\n        /* \"#utility.yul\":38364:38381   */\n      add\n        /* \"#utility.yul\":38357:38418   */\n      mstore\n        /* \"#utility.yul\":38462:38496   */\n      0x6b27297d66756e6374696f6e207365744c6967687428297b242827236d6f6465\n        /* \"#utility.yul\":38455:38459   */\n      0x15e0\n        /* \"#utility.yul\":38447:38453   */\n      dup3\n        /* \"#utility.yul\":38443:38460   */\n      add\n        /* \"#utility.yul\":38436:38497   */\n      mstore\n        /* \"#utility.yul\":38541:38575   */\n      0x2d73776974636827292e637373282766696c746572272c27696e766572742830\n        /* \"#utility.yul\":38534:38538   */\n      0x1600\n        /* \"#utility.yul\":38526:38532   */\n      dup3\n        /* \"#utility.yul\":38522:38539   */\n      add\n        /* \"#utility.yul\":38515:38576   */\n      mstore\n        /* \"#utility.yul\":38620:38654   */\n      0x2927293b2428272e6461726b2d7465787427292e72656d6f7665436c61737328\n        /* \"#utility.yul\":38613:38617   */\n      0x1620\n        /* \"#utility.yul\":38605:38611   */\n      dup3\n        /* \"#utility.yul\":38601:38618   */\n      add\n        /* \"#utility.yul\":38594:38655   */\n      mstore\n        /* \"#utility.yul\":38699:38733   */\n      0x276461726b2d7465787427292e616464436c61737328276c696768742d746578\n        /* \"#utility.yul\":38692:38696   */\n      0x1640\n        /* \"#utility.yul\":38684:38690   */\n      dup3\n        /* \"#utility.yul\":38680:38697   */\n      add\n        /* \"#utility.yul\":38673:38734   */\n      mstore\n        /* \"#utility.yul\":38774:38808   */\n      0x7427293b2428272e6461726b2d746578742d3227292e72656d6f7665436c6173\n        /* \"#utility.yul\":38767:38771   */\n      0x1660\n        /* \"#utility.yul\":38759:38765   */\n      dup3\n        /* \"#utility.yul\":38755:38772   */\n      add\n        /* \"#utility.yul\":38748:38809   */\n      mstore\n        /* \"#utility.yul\":38849:38883   */\n      0x7328276461726b2d746578742d3227292e616464436c61737328276c69676874\n        /* \"#utility.yul\":38842:38846   */\n      0x1680\n        /* \"#utility.yul\":38834:38840   */\n      dup3\n        /* \"#utility.yul\":38830:38847   */\n      add\n        /* \"#utility.yul\":38823:38884   */\n      mstore\n        /* \"#utility.yul\":38924:38958   */\n      0x2d746578742d3227293b2428272e6461726b2d746578742d3327292e72656d6f\n        /* \"#utility.yul\":38917:38921   */\n      0x16a0\n        /* \"#utility.yul\":38909:38915   */\n      dup3\n        /* \"#utility.yul\":38905:38922   */\n      add\n        /* \"#utility.yul\":38898:38959   */\n      mstore\n        /* \"#utility.yul\":38999:39033   */\n      0x7665436c61737328276461726b2d746578742d3327292e616464436c61737328\n        /* \"#utility.yul\":38992:38996   */\n      0x16c0\n        /* \"#utility.yul\":38984:38990   */\n      dup3\n        /* \"#utility.yul\":38980:38997   */\n      add\n        /* \"#utility.yul\":38973:39034   */\n      mstore\n        /* \"#utility.yul\":39078:39112   */\n      0x276c696768742d746578742d3327293b2428272e6461726b2d746578742d3427\n        /* \"#utility.yul\":39071:39075   */\n      0x16e0\n        /* \"#utility.yul\":39063:39069   */\n      dup3\n        /* \"#utility.yul\":39059:39076   */\n      add\n        /* \"#utility.yul\":39052:39113   */\n      mstore\n        /* \"#utility.yul\":39153:39187   */\n      0x292e72656d6f7665436c61737328276461726b2d746578742d3427292e616464\n        /* \"#utility.yul\":39146:39150   */\n      0x1700\n        /* \"#utility.yul\":39138:39144   */\n      dup3\n        /* \"#utility.yul\":39134:39151   */\n      add\n        /* \"#utility.yul\":39127:39188   */\n      mstore\n        /* \"#utility.yul\":39228:39262   */\n      0x436c61737328276c696768742d746578742d3427293b2428272e6461726b2d62\n        /* \"#utility.yul\":39221:39225   */\n      0x1720\n        /* \"#utility.yul\":39213:39219   */\n      dup3\n        /* \"#utility.yul\":39209:39226   */\n      add\n        /* \"#utility.yul\":39202:39263   */\n      mstore\n        /* \"#utility.yul\":39303:39337   */\n      0x6727292e72656d6f7665436c61737328276461726b2d626727292e616464436c\n        /* \"#utility.yul\":39296:39300   */\n      0x1740\n        /* \"#utility.yul\":39288:39294   */\n      dup3\n        /* \"#utility.yul\":39284:39301   */\n      add\n        /* \"#utility.yul\":39277:39338   */\n      mstore\n        /* \"#utility.yul\":39378:39412   */\n      0x61737328276c696768742d626727293b2428272e6461726b2d62672d3227292e\n        /* \"#utility.yul\":39371:39375   */\n      0x1760\n        /* \"#utility.yul\":39363:39369   */\n      dup3\n        /* \"#utility.yul\":39359:39376   */\n      add\n        /* \"#utility.yul\":39352:39413   */\n      mstore\n        /* \"#utility.yul\":39453:39487   */\n      0x72656d6f7665436c61737328276461726b2d62672d3227292e616464436c6173\n        /* \"#utility.yul\":39446:39450   */\n      0x1780\n        /* \"#utility.yul\":39438:39444   */\n      dup3\n        /* \"#utility.yul\":39434:39451   */\n      add\n        /* \"#utility.yul\":39427:39488   */\n      mstore\n        /* \"#utility.yul\":39528:39562   */\n      0x7328276c696768742d62672d3227293b2428272e6461726b2d626f726465722d\n        /* \"#utility.yul\":39521:39525   */\n      0x17a0\n        /* \"#utility.yul\":39513:39519   */\n      dup3\n        /* \"#utility.yul\":39509:39526   */\n      add\n        /* \"#utility.yul\":39502:39563   */\n      mstore\n        /* \"#utility.yul\":39603:39637   */\n      0x3227292e72656d6f7665436c61737328276461726b2d626f726465722d322729\n        /* \"#utility.yul\":39596:39600   */\n      0x17c0\n        /* \"#utility.yul\":39588:39594   */\n      dup3\n        /* \"#utility.yul\":39584:39601   */\n      add\n        /* \"#utility.yul\":39577:39638   */\n      mstore\n        /* \"#utility.yul\":39678:39712   */\n      0x2e616464436c61737328276c696768742d626f726465722d3227293b2428272e\n        /* \"#utility.yul\":39671:39675   */\n      0x17e0\n        /* \"#utility.yul\":39663:39669   */\n      dup3\n        /* \"#utility.yul\":39659:39676   */\n      add\n        /* \"#utility.yul\":39652:39713   */\n      mstore\n        /* \"#utility.yul\":39757:39791   */\n      0x6461726b2d626f7264657227292e72656d6f7665436c61737328276461726b2d\n        /* \"#utility.yul\":39750:39754   */\n      0x1800\n        /* \"#utility.yul\":39742:39748   */\n      dup3\n        /* \"#utility.yul\":39738:39755   */\n      add\n        /* \"#utility.yul\":39731:39792   */\n      mstore\n        /* \"#utility.yul\":39836:39870   */\n      0x626f7264657227292e616464436c61737328276c696768742d626f7264657227\n        /* \"#utility.yul\":39829:39833   */\n      0x1820\n        /* \"#utility.yul\":39821:39827   */\n      dup3\n        /* \"#utility.yul\":39817:39834   */\n      add\n        /* \"#utility.yul\":39810:39871   */\n      mstore\n        /* \"#utility.yul\":39915:39949   */\n      0x293b2428272e6461726b2d6c696e6b27292e72656d6f7665436c617373282764\n        /* \"#utility.yul\":39908:39912   */\n      0x1840\n        /* \"#utility.yul\":39900:39906   */\n      dup3\n        /* \"#utility.yul\":39896:39913   */\n      add\n        /* \"#utility.yul\":39889:39950   */\n      mstore\n        /* \"#utility.yul\":39994:40028   */\n      0x61726b2d6c696e6b27292e616464436c61737328276c696768742d6c696e6b27\n        /* \"#utility.yul\":39987:39991   */\n      0x1860\n        /* \"#utility.yul\":39979:39985   */\n      dup3\n        /* \"#utility.yul\":39975:39992   */\n      add\n        /* \"#utility.yul\":39968:40029   */\n      mstore\n        /* \"#utility.yul\":40073:40107   */\n      0x297d66756e6374696f6e20746f67676c654d6f646528297b6966286d6f64653d\n        /* \"#utility.yul\":40066:40070   */\n      0x1880\n        /* \"#utility.yul\":40058:40064   */\n      dup3\n        /* \"#utility.yul\":40054:40071   */\n      add\n        /* \"#utility.yul\":40047:40108   */\n      mstore\n        /* \"#utility.yul\":40152:40186   */\n      0x3d3d30297b6d6f64653d313b7365744461726b28297d656c73657b6d6f64653d\n        /* \"#utility.yul\":40145:40149   */\n      0x18a0\n        /* \"#utility.yul\":40137:40143   */\n      dup3\n        /* \"#utility.yul\":40133:40150   */\n      add\n        /* \"#utility.yul\":40126:40187   */\n      mstore\n        /* \"#utility.yul\":40227:40261   */\n      0x303b7365744c6967687428297d242827236d6f64652d73776974636827292e62\n        /* \"#utility.yul\":40220:40224   */\n      0x18c0\n        /* \"#utility.yul\":40212:40218   */\n      dup3\n        /* \"#utility.yul\":40208:40225   */\n      add\n        /* \"#utility.yul\":40201:40262   */\n      mstore\n        /* \"#utility.yul\":40298:40315   */\n      0x6c757228297d3c2f7363726970743e0000000000000000000000000000000000\n        /* \"#utility.yul\":40291:40295   */\n      0x18e0\n        /* \"#utility.yul\":40283:40289   */\n      dup3\n        /* \"#utility.yul\":40279:40296   */\n      add\n        /* \"#utility.yul\":40272:40316   */\n      mstore\n        /* \"#utility.yul\":24183:40323   */\n      pop\n      jump\t// out\n        /* \"#utility.yul\":40329:40735   */\n    tag_47:\n        /* \"#utility.yul\":40489:40492   */\n      0x00\n        /* \"#utility.yul\":40510:40597   */\n      tag_137\n        /* \"#utility.yul\":40592:40596   */\n      0x18ef\n        /* \"#utility.yul\":40587:40590   */\n      dup4\n        /* \"#utility.yul\":40510:40597   */\n      tag_30\n      jump\t// in\n    tag_137:\n        /* \"#utility.yul\":40503:40597   */\n      swap2\n      pop\n        /* \"#utility.yul\":40606:40699   */\n      tag_138\n        /* \"#utility.yul\":40695:40698   */\n      dup3\n        /* \"#utility.yul\":40606:40699   */\n      tag_46\n      jump\t// in\n    tag_138:\n        /* \"#utility.yul\":40724:40728   */\n      0x18ef\n        /* \"#utility.yul\":40719:40722   */\n      dup3\n        /* \"#utility.yul\":40715:40729   */\n      add\n        /* \"#utility.yul\":40708:40729   */\n      swap1\n      pop\n        /* \"#utility.yul\":40329:40735   */\n      swap2\n      swap1\n      pop\n      jump\t// out\n        /* \"#utility.yul\":40741:43228   */\n    tag_12:\n        /* \"#utility.yul\":41659:41662   */\n      0x00\n        /* \"#utility.yul\":41681:41829   */\n      tag_140\n        /* \"#utility.yul\":41825:41828   */\n      dup3\n        /* \"#utility.yul\":41681:41829   */\n      tag_32\n      jump\t// in\n    tag_140:\n        /* \"#utility.yul\":41674:41829   */\n      swap2\n      pop\n        /* \"#utility.yul\":41846:41938   */\n      tag_141\n        /* \"#utility.yul\":41934:41937   */\n      dup3\n        /* \"#utility.yul\":41925:41931   */\n      dup9\n        /* \"#utility.yul\":41846:41938   */\n      tag_36\n      jump\t// in\n    tag_141:\n        /* \"#utility.yul\":41839:41938   */\n      swap2\n      pop\n        /* \"#utility.yul\":41955:42103   */\n      tag_142\n        /* \"#utility.yul\":42099:42102   */\n      dup3\n        /* \"#utility.yul\":41955:42103   */\n      tag_38\n      jump\t// in\n    tag_142:\n        /* \"#utility.yul\":41948:42103   */\n      swap2\n      pop\n        /* \"#utility.yul\":42120:42215   */\n      tag_143\n        /* \"#utility.yul\":42211:42214   */\n      dup3\n        /* \"#utility.yul\":42202:42208   */\n      dup8\n        /* \"#utility.yul\":42120:42215   */\n      tag_39\n      jump\t// in\n    tag_143:\n        /* \"#utility.yul\":42113:42215   */\n      swap2\n      pop\n        /* \"#utility.yul\":42232:42380   */\n      tag_144\n        /* \"#utility.yul\":42376:42379   */\n      dup3\n        /* \"#utility.yul\":42232:42380   */\n      tag_41\n      jump\t// in\n    tag_144:\n        /* \"#utility.yul\":42225:42380   */\n      swap2\n      pop\n        /* \"#utility.yul\":42397:42489   */\n      tag_145\n        /* \"#utility.yul\":42485:42488   */\n      dup3\n        /* \"#utility.yul\":42476:42482   */\n      dup7\n        /* \"#utility.yul\":42397:42489   */\n      tag_36\n      jump\t// in\n    tag_145:\n        /* \"#utility.yul\":42390:42489   */\n      swap2\n      pop\n        /* \"#utility.yul\":42506:42654   */\n      tag_146\n        /* \"#utility.yul\":42650:42653   */\n      dup3\n        /* \"#utility.yul\":42506:42654   */\n      tag_43\n      jump\t// in\n    tag_146:\n        /* \"#utility.yul\":42499:42654   */\n      swap2\n      pop\n        /* \"#utility.yul\":42671:42763   */\n      tag_147\n        /* \"#utility.yul\":42759:42762   */\n      dup3\n        /* \"#utility.yul\":42750:42756   */\n      dup6\n        /* \"#utility.yul\":42671:42763   */\n      tag_36\n      jump\t// in\n    tag_147:\n        /* \"#utility.yul\":42664:42763   */\n      swap2\n      pop\n        /* \"#utility.yul\":42780:42928   */\n      tag_148\n        /* \"#utility.yul\":42924:42927   */\n      dup3\n        /* \"#utility.yul\":42780:42928   */\n      tag_45\n      jump\t// in\n    tag_148:\n        /* \"#utility.yul\":42773:42928   */\n      swap2\n      pop\n        /* \"#utility.yul\":42945:43037   */\n      tag_149\n        /* \"#utility.yul\":43033:43036   */\n      dup3\n        /* \"#utility.yul\":43024:43030   */\n      dup5\n        /* \"#utility.yul\":42945:43037   */\n      tag_36\n      jump\t// in\n    tag_149:\n        /* \"#utility.yul\":42938:43037   */\n      swap2\n      pop\n        /* \"#utility.yul\":43054:43202   */\n      tag_150\n        /* \"#utility.yul\":43198:43201   */\n      dup3\n        /* \"#utility.yul\":43054:43202   */\n      tag_47\n      jump\t// in\n    tag_150:\n        /* \"#utility.yul\":43047:43202   */\n      swap2\n      pop\n        /* \"#utility.yul\":43219:43222   */\n      dup2\n        /* \"#utility.yul\":43212:43222   */\n      swap1\n      pop\n        /* \"#utility.yul\":40741:43228   */\n      swap7\n      swap6\n      pop\n      pop\n      pop\n      pop\n      pop\n      pop\n      jump\t// out\n\n    auxdata: 0xa26469706673582212205f3e01de124616b16476d9dbf7ccead4b38864946d487533e309d52c2b834ffa64736f6c634300081a0033\n}\n",
				"bytecode": {
					"linkReferences": {},
					"object": "60806040526040518060600160405280603d8152602001614321603d91395f908161002a9190610329565b5060405180610100016040528060d2815260200161424f60d29139600190816100539190610329565b506040518060400160405280601481526020017f68747470733a2f2f7777772e746a6f2e6172742f000000000000000000000000815250600290816100989190610329565b506040518060400160405280600581526020017f3135303030000000000000000000000000000000000000000000000000000000815250600390816100dd9190610329565b503480156100e9575f80fd5b506103f8565b5f81519050919050565b7f4e487b71000000000000000000000000000000000000000000000000000000005f52604160045260245ffd5b7f4e487b71000000000000000000000000000000000000000000000000000000005f52602260045260245ffd5b5f600282049050600182168061016a57607f821691505b60208210810361017d5761017c610126565b5b50919050565b5f819050815f5260205f209050919050565b5f6020601f8301049050919050565b5f82821b905092915050565b5f600883026101df7fffffffffffffffffffffffffffffffffffffffffffffffffffffffffffffffff826101a4565b6101e986836101a4565b95508019841693508086168417925050509392505050565b5f819050919050565b5f819050919050565b5f61022d61022861022384610201565b61020a565b610201565b9050919050565b5f819050919050565b61024683610213565b61025a61025282610234565b8484546101b0565b825550505050565b5f90565b61026e610262565b61027981848461023d565b505050565b5b8181101561029c576102915f82610266565b60018101905061027f565b5050565b601f8211156102e1576102b281610183565b6102bb84610195565b810160208510156102ca578190505b6102de6102d685610195565b83018261027e565b50505b505050565b5f82821c905092915050565b5f6103015f19846008026102e6565b1980831691505092915050565b5f61031983836102f2565b9150826002028217905092915050565b610332826100ef565b67ffffffffffffffff81111561034b5761034a6100f9565b5b6103558254610153565b6103608282856102a0565b5f60209050601f831160018114610391575f841561037f578287015190505b610389858261030e565b8655506103f0565b601f19841661039f86610183565b5f5b828110156103c6578489015182556001820191506020850194506020810190506103a1565b868310156103e357848901516103df601f8916826102f2565b8355505b6001600288020188555050505b505050505050565b613e4a806104055f395ff3fe608060405234801561000f575f80fd5b5060043610610029575f3560e01c8063527385ad1461002d575b5f80fd5b610047600480360381019061004291906101de565b61005d565b6040516100549190610285565b60405180910390f35b60605f8260036001600260405160200161007b959493929190613d88565b6040516020818303038152906040529050919050565b5f604051905090565b5f80fd5b5f80fd5b5f80fd5b5f80fd5b5f601f19601f8301169050919050565b7f4e487b71000000000000000000000000000000000000000000000000000000005f52604160045260245ffd5b6100f0826100aa565b810181811067ffffffffffffffff8211171561010f5761010e6100ba565b5b80604052505050565b5f610121610091565b905061012d82826100e7565b919050565b5f67ffffffffffffffff82111561014c5761014b6100ba565b5b610155826100aa565b9050602081019050919050565b828183375f83830152505050565b5f61018261017d84610132565b610118565b90508281526020810184848401111561019e5761019d6100a6565b5b6101a9848285610162565b509392505050565b5f82601f8301126101c5576101c46100a2565b5b81356101d5848260208601610170565b91505092915050565b5f602082840312156101f3576101f261009a565b5b5f82013567ffffffffffffffff8111156102105761020f61009e565b5b61021c848285016101b1565b91505092915050565b5f81519050919050565b5f82825260208201905092915050565b8281835e5f83830152505050565b5f61025782610225565b610261818561022f565b935061027181856020860161023f565b61027a816100aa565b840191505092915050565b5f6020820190508181035f83015261029d818461024d565b905092915050565b5f81905092915050565b7f3c73637269707420747970653d276170706c69636174696f6e2f6a61766173635f8201527f72697074273e636f6e7374206574684e6574776f726b3d270000000000000000602082015250565b5f6103096038836102a5565b9150610314826102af565b603882019050919050565b7f4e487b71000000000000000000000000000000000000000000000000000000005f52602260045260245ffd5b5f600282049050600182168061036357607f821691505b6020821081036103765761037561031f565b5b50919050565b5f819050815f5260205f209050919050565b5f815461039a8161034c565b6103a481866102a5565b9450600182165f81146103be57600181146103d357610405565b60ff1983168652811515820286019350610405565b6103dc8561037c565b5f5b838110156103fd578154818901526001820191506020810190506103de565b838801955050505b50505092915050565b7f273b636f6e737420776562333d6e65772057656233286e657720576562332e705f8201527f726f7669646572732e4874747050726f7669646572286574684e6574776f726b60208201527f29293b6c6574206973416c6c4c6f616465643d21313b6c6574206d6f64653d00604082015250565b5f61048e605f836102a5565b91506104998261040e565b605f82019050919050565b5f6104ae82610225565b6104b881856102a5565b93506104c881856020860161023f565b80840191505092915050565b7f3b6c65742064656c61793d0000000000000000000000000000000000000000005f82015250565b5f610508600b836102a5565b9150610513826104d4565b600b82019050919050565b7f3b6c65742064656c6179323d64656c61792f333b24282723616e6472657727295f8201527f2e6869646528293b6765745472616e73616374696f6e546578747328293b6c6560208201527f74206e756d446f74733d303b6c6574206c6f61646572496e74657276616c3d7360408201527f6574496e74657276616c287570646174654c6f61646572446f74732c3165332960608201527f3b66756e6374696f6e207570646174654c6f61646572446f747328297b24282760808201527f2e6c6f616465722d646f747327292e68746d6c286e756d446f74733d3d3d313f60a08201527f272e273a6e756d446f74733d3d3d323f272e2e273a6e756d446f74733d3d3d3360c08201527f3f272e2e2e273a2727293b6e756d446f74732b2b3b6966286e756d446f74733d60e08201527f3d3d34297b6e756d446f74733d307d7d6173796e632066756e6374696f6e20676101008201527f65745472616e73616374696f6e546578747328297b617070656e644c6f6164696101208201527f6e67526f7728293b6c6574207472616e73616374696f6e54657874733d5b5d3b6101408201527f6973416c6c4c6f616465643d21313b242827237370696e6e657227292e73686f6101608201527f7728293b6c657420636f6f6b69653b7472797b636f6f6b69653d4a534f4e2e706101808201527f6172736528676574436f6f6b696528277472616e73616374696f6e54657874736101a08201527f2729297d63617463687b636f6f6b69653d5b5d7d6c657420636f6f6b696554656101c08201527f7874733d747970656f6620636f6f6b69653d3d3d276f626a656374272626636f6101e08201527f6f6b69652e6c656e6774683e303f636f6f6b69653a5b5d3b6c657420737461726102008201527f74496e6465783d343b6c65742075726c3d60000000000000000000000000000061022082015250565b5f6107e3610232836102a5565b91506107ee8261051e565b61023282019050919050565b7f603b7472797b6c657420646174613d617761697420242e6765742875726c293b5f8201527f6c6574207472616e73616374696f6e4964733d646174612e726573756c742e6660208201527f696c746572282874783d3e74782e66726f6d3d3d3d74782e746f29292e6d617060408201527f282874783d3e74782e6861736829293b24282723746f74616c2d706f7374732760608201527f292e74657874287374617274496e6465782d33293b72657175657374416e696d60808201527f6174696f6e4672616d65282866756e6374696f6e28297b242827236c6f61646960a08201527f6e672d7465787427292e7465787428604c6f6164696e6720247b73746172744960c08201527f6e6465782d337d206f6620247b7472616e73616374696f6e4964732e6c656e6760e08201527f74682d337d60297d29293b6173796e632066756e6374696f6e2070726f6365736101008201527f734e6578745472616e73616374696f6e28297b6966287374617274496e6465786101208201527f3c7472616e73616374696f6e4964732e6c656e677468297b6c6574207472616e6101408201527f73616374696f6e49643d7472616e73616374696f6e4964735b7374617274496e6101608201527f6465785d3b696628636f6f6b696554657874732e66696c7465722828783d3e786101808201527f2e686173683d3d537472696e67287472616e73616374696f6e49642929292e6c6101a08201527f656e6774683d3d30297b6177616974206e65772050726f6d69736528287265736101c08201527f6f6c76653d3e73657454696d656f7574287265736f6c76652c64656c617932296101e08201527f29293b6c657420726573756c743d617761697420776562332e6574682e6765746102008201527f5472616e73616374696f6e287472616e73616374696f6e4964293b6c657420626102208201527f6c6f636b4e756d6265723d7061727365496e7428726573756c742e626c6f636b6102408201527f4e756d626572293b6177616974206e65772050726f6d69736528287265736f6c6102608201527f76653d3e73657454696d656f7574287265736f6c76652c64656c6179322929296102808201527f3b6c657420696e7075743d776562332e7574696c732e746f41736369692872656102a08201527f73756c742e696e707574293b6c657420626c6f636b526573756c743d617761696102c08201527f7420776562332e6574682e676574426c6f636b28626c6f636b4e756d626572296102e08201527f3b6c657420646174653d6e65772044617465284e756d62657228626c6f636b526103008201527f6573756c742e74696d657374616d70292a316533293b6c6574206d6f6e7468736103208201527f3d5b274a616e272c27466562272c274d6172272c27417072272c274d6179272c6103408201527f274a756e272c274a756c272c27417567272c27536570272c274f6374272c274e6103608201527f6f76272c27446563275d3b6c657420796561723d646174652e67657446756c6c6103808201527f5965617228293b6c6574206d6f6e74683d6d6f6e7468735b646174652e6765746103a08201527f4d6f6e746828295d3b6c6574206461793d646174652e6765744461746528293b6103c08201527f6c657420686f7572733d646174652e676574486f75727328293b6c6574206d696103e08201527f6e757465733d2730272b646174652e6765744d696e7574657328293b6c6574206104008201527f7365636f6e64733d2730272b646174652e6765745365636f6e647328293b6c656104208201527f7420666f726d617474656454696d653d6d6f6e74682b2720272b6461792b27206104408201527f272b796561722b2720272b686f7572732b273a272b6d696e757465732e7375626104608201527f737472282d32292b273a272b7365636f6e64732e737562737472282d32293b6c6104808201527f6574206f626a3d7b686173683a537472696e67287472616e73616374696f6e496104a08201527f64292c626c6f636b3a537472696e6728626c6f636b4e756d626572292c7465786104c08201527f743a696e7075742c74696d653a537472696e6728626c6f636b526573756c742e6104e08201527f74696d657374616d70292c666f726d617474656454696d653a666f726d6174746105008201527f656454696d657d3b7472616e73616374696f6e54657874732e70757368286f626105208201527f6a293b617070656e64436f6d6d656e74286f626a293b636f6f6b6965546578746105408201527f732e70757368286f626a293b736574436f6f6b696528277472616e73616374696105608201527f6f6e5465787473272c4a534f4e2e737472696e6769667928636f6f6b696554656105808201527f78747329293b7374617274496e6465782b2b3b24282723746f74616c2d706f736105a08201527f747327292e74657874287374617274496e6465782d33293b72657175657374416105c08201527f6e696d6174696f6e4672616d65282866756e6374696f6e28297b242827236c6f6105e08201527f6164696e672d7465787427292e7465787428604c6f6164696e6720247b7374616106008201527f7274496e6465782d337d206f6620247b7472616e73616374696f6e4964732e6c6106208201527f656e6774682d337d60297d29293b6177616974206e65772050726f6d697365286106408201527f287265736f6c76653d3e73657454696d656f7574287265736f6c76652c64656c6106608201527f6179322929293b61776169742070726f636573734e6578745472616e736163746106808201527f696f6e28297d656c73657b617070656e64436f6d6d656e7428636f6f6b6965546106a08201527f657874732e66696c7465722828783d3e782e686173683d3d537472696e6728746106c08201527f72616e73616374696f6e49642929295b305d293b7374617274496e6465782b2b6106e08201527f3b24282723746f74616c2d706f73747327292e74657874287374617274496e646107008201527f65782d33293b72657175657374416e696d6174696f6e4672616d65282866756e6107208201527f6374696f6e28297b242827236c6f6164696e672d7465787427292e74657874286107408201527f604c6f6164696e6720247b7374617274496e6465782d337d206f6620247b74726107608201527f616e73616374696f6e4964732e6c656e6774682d337d60297d29293b617761696107808201527f742070726f636573734e6578745472616e73616374696f6e28297d7d656c73656107a08201527f7b636c656172496e74657276616c286c6f61646572496e74657276616c293b726107c08201527f656d6f76654c6f6164696e67526f7728293b24282723616e6472657727292e736107e08201527f686f7728297d7d61776169742070726f636573734e6578745472616e736163746108008201527f696f6e28293b6973416c6c4c6f616465643d21307d6361746368286572726f726108208201527f297b72656d6f76654c6f6164696e67526f7728293b617070656e644572726f726108408201527f526f7728293b636f6e736f6c652e6572726f7228274661696c656420746f20666108608201527f65746368207472616e73616374696f6e733a272c6572726f72293b69662872656108808201527f747279436f756e743c35297b73657454696d656f7574282866756e6374696f6e6108a08201527f28297b72656d6f76654c6f6164696e67526f7728293b6765745472616e7361636108c08201527f74696f6e546578747328297d292c316534297d7d7d6c6574207265747279436f6108e08201527f756e743d313b66756e6374696f6e20617070656e644572726f72526f7728297b6109008201527f6966287265747279436f756e743d3d3d34297b6c6574206572726f72526f773d6109208201527f600a20202020202020202020202020202020202020203c747220636c6173733d6109408201527f277461626c652d726f77206c696768742d6267273e0a202020202020202020206109608201527f20202020202020202020202020202020202020202020202020202020202020206109808201527f202020202020202020202020202020202020202020203c74643e3c2f74643e0a6109a08201527f0a2020202020202020202020202020202020202020202020203c746420636c616109c08201527f73733d276c696768742d746578742d32206c6f6164696e672d63656c6c2720636109e08201527f6f6c7370616e3d2732273e0a2020202020202020202020202020202020202020610a008201527f20202020202020203c6469762069643d276572726f722720636c6173733d2765610a208201527f72726f722d74657874273e0a2020202020202020202020202020202020202020610a408201527f2020202020202020202020203c7370616e2069643d276572726f722d74657874610a608201527f273e4661696c656420746f206c6f6164207472616e73616374696f6e73206672610a808201527f6f6d2045746865727363616e2028332f332e3c2f7370616e3e0a202020202020610aa08201527f202020202020202020202020202020202020202020203c2f6469763e0a202020610ac08201527f2020202020202020202020202020202020202020203c2f74643e0a2020202020610ae08201527f2020202020202020202020202020203c2f74723e0a2020202020202020202020610b008201527f2020202020603b242827237461626c652d626f647927292e617070656e642865610b208201527f72726f72526f77293b7265747279436f756e742b2b3b6966286d6f64653d3d3d610b408201527f31297b7365744461726b28297d656c73657b7365744c6967687428297d726574610b608201527f75726e7d6c6574206572726f72526f773d600a20202020202020202020202020610b808201527f202020202020203c747220636c6173733d277461626c652d726f77206c696768610ba08201527f742d6267273e0a20202020202020202020202020202020202020202020202020610bc08201527f2020202020202020202020202020202020202020202020202020202020202020610be08201527f202020202020203c74643e3c2f74643e0a0a2020202020202020202020202020610c008201527f202020202020202020203c746420636c6173733d276c696768742d746578742d610c208201527f32206c6f6164696e672d63656c6c2720636f6c7370616e3d2732273e0a202020610c408201527f202020202020202020202020202020202020202020202020203c646976206964610c608201527f3d276572726f722720636c6173733d276572726f722d74657874273e0a202020610c808201527f20202020202020202020202020202020202020202020202020202020203c7370610ca08201527f616e2069643d276572726f722d74657874273e3c2f7370616e3e3c7370616e20610cc08201527f636c6173733d276c6f616465722d646f7473273e3c2f7370616e3e0a20202020610ce08201527f2020202020202020202020202020202020202020202020203c2f6469763e0a20610d008201527f20202020202020202020202020202020202020202020203c2f74643e0a0a2020610d208201527f2020202020202020202020202020202020203c2f74723e0a2020202020202020610d408201527f2020202020202020603b242827237461626c652d626f647927292e617070656e610d608201527f64286572726f72526f77293b242827236572726f722d7465787427292e746578610d808201527f7428604661696c656420746f206c6f6164207472616e73616374696f6e732066610da08201527f726f6d2045746865727363616e2e205265747279696e672028247b7265747279610dc08201527f436f756e747d2f332960293b7265747279436f756e742b2b3b6966286d6f6465610de08201527f3d3d3d31297b7365744461726b28297d656c73657b7365744c6967687428297d610e008201527f7d66756e6374696f6e20617070656e644c6f6164696e67526f7728297b6c6574610e208201527f206c6f6164696e67526f773d600a202020202020202020202020202020202020610e408201527f20203c747220636c6173733d276c696768742d6267273e0a2020202020202020610e608201527f2020202020202020202020202020202020202020202020202020202020202020610e808201527f2020202020202020202020202020202020202020202020203c74643e3c2f7464610ea08201527f3e0a0a2020202020202020202020202020202020202020202020203c74642063610ec08201527f6c6173733d276c696768742d746578742d32206c6f6164696e672d63656c6c27610ee08201527f3e0a202020202020202020202020202020202020202020202020202020203c64610f008201527f69762069643d276c6f6164696e67273e0a202020202020202020202020202020610f208201527f20202020202020202020202020202020203c7370616e2069643d276c6f616469610f408201527f6e672d74657874273e4c6f6164696e67207472616e73616374696f6e733c2f73610f608201527f70616e3e3c7370616e20636c6173733d276c6f616465722d646f7473273e3c2f610f808201527f7370616e3e0a2020202020202020202020202020202020202020202020202020610fa08201527f20203c2f6469763e0a2020202020202020202020202020202020202020202020610fc08201527f203c2f74643e0a0a20202020202020202020202020202020202020203c2f7472610fe08201527f3e0a20202020202020202020202020202020603b242827237461626c652d626f6110008201527f647927292e617070656e64286c6f6164696e67526f77293b6966286d6f64653d6110208201527f3d3d31297b7365744461726b28297d656c73657b7365744c6967687428297d7d6110408201527f66756e6374696f6e2072656d6f76654c6f6164696e67526f7728297b242827236110608201527f7461626c652d626f647927292e66696e64282774723a6c61737427292e72656d6110808201527f6f766528297d6c657420696e74657276616c3d736574496e74657276616c28286110a08201527f66756e6374696f6e28297b6966286973416c6c4c6f61646564297b6973416c6c6110c08201527f4c6f616465643d21313b636c656172496e74657276616c28696e74657276616c6110e08201527f297d7d292c326533293b66756e6374696f6e20736574436f6f6b6965286e616d6111008201527f652c76616c75652c64617973297b6c6f63616c53746f726167655b6e616d655d6111208201527f3d76616c75657d66756e6374696f6e20676574436f6f6b6965286e616d65297b6111408201527f72657475726e206c6f63616c53746f726167655b6e616d655d7c7c275b5d277d6111608201527f66756e6374696f6e20617070656e64436f6d6d656e74287472616e73616374696111808201527f6f6e5465787473297b6966287472616e73616374696f6e54657874732e7465786111a08201527f742e6c656e6774683e30297b72656d6f76654c6f6164696e67526f7728293b246111c08201527f2827237461626c652d626f647927292e617070656e6428603c747220636c61736111e08201527f733d277461626c652d726f77206c696768742d6267206c696768742d626f72646112008201527f6572206c696768742d74657874273e3c746420636c6173733d276c696768742d6112208201527f6267272077696474683d273330252720616c69676e3d2763656e746572273e3c6112408201527f666f6e7420636c6173733d27736d616c6c5f74657874273e3c6120636c6173736112608201527f3d276c696768742d6c696e6b27207461726765743d275f626c616e6b272068726112808201527f65663d27000000000000000000000000000000000000000000000000000000006112a082015250565b5f611edb6112a4836102a5565b9150611ee6826107fa565b6112a482019050919050565b7f273e546a6f3c2f613e3c2f623e3c666f6e743e3c2f74643e3c746420616c69675f8201527f6e3d277269676874272077696474683d273730252720636c6173733d276c696760208201527f68742d6267206c696768742d6c696e6b273e3c64697620636c6173733d27706f60408201527f7374496e666f206465736b746f70273e3c7370616e20636c6173733d27706f7360608201527f744e756d206465736b746f70273e3c6120636c6173733d276c696768742d6c6960808201527f6e6b27207374796c653d27666f6e742d73697a653a313270783b27206872656660a08201527f3d2768747470733a2f2f65746865727363616e2e696f2f74782f247b7472616e60c08201527f73616374696f6e54657874732e686173687d27207461726765743d275f626c6160e08201527f6e6b27207469746c653d274c696e6b20746f2074686973207472616e736163746101008201527f696f6e2720636c6173733d276c696768742d6c696e6b273e20247b7472616e736101208201527f616374696f6e54657874732e666f726d617474656454696d657d203c696d67206101408201527f7374796c653d272d7765626b69742d626f782d616c69676e3a20626173656c696101608201527f6e653b2777696474683d27313070783b27206865696768743d273130707827206101808201527f7374796c653d27766572746963616c2d616c69676e3a206d6964646c653b27206101a08201527f7372633d27646174613a696d6167652f7376672b786d6c3b6261736536342c506101c08201527f484e325a79423361575230614430694d54497a4969426f5a576c6e61485139496101e08201527f6a45794d794967646d6c6c64304a76654430694d434177494445794d7941784d6102008201527f6a4d6949475a7062477739496d3576626d5569494868746247357a50534a6f646102208201527f4852774f693876643364334c6e637a4c6d39795a7938794d4441774c334e325a6102408201527f79492b44516f38634746306143426b50534a4e4d6a55754e7a6b674e5467754e6102608201527f4445304f554d794e5334334f544178494455334c6a637a4e5463674d6a55754f6102808201527f5449304e4341314e7934774e6a4d7a494449324c6a45344e5445674e5459754e6102a08201527f444d324d554d794e6934304e445534494455314c6a67774f5341794e6934344d6102c08201527f6a6334494455314c6a497a4f5459674d6a63754d7a41354d6941314e4334334e6102e08201527f6a4131517a49334c6a63354d4463674e5451754d6a67784e4341794f43347a4e6103008201527f6a45354944557a4c6a6b774d6a45674d6a67754f546b774d7941314d7934324e6103208201527f445130517a49354c6a59784f4463674e544d754d7a67324e79417a4d4334794f6103408201527f5445344944557a4c6a49314e5463674d7a41754f5463784944557a4c6a49314f6103608201527f446c4d4d7a6b754e5459784944557a4c6a49344e6a6c444e4441754f544d774e6103808201527f5341314d7934794f445935494451794c6a49304e4341314d7934344d7a45674e6103a08201527f444d754d6a45794e4341314e4334334f546b30517a51304c6a45344d446b674e6103c08201527f5455754e7a59334f4341304e4334334d6a55674e5463754d4467784d7941304e6103e08201527f4334334d6a55674e5467754e4455774f5659354d4334354d7a4135517a51314c6104008201527f6a59354d6941354d4334324e444d35494451324c6a6b7a4e4341354d43347a4d6104208201527f7a6335494451344c6a49354d7941354d4334774d546335517a51354c6a497a4e6104408201527f7941344f5334334f545979494455774c6a41334f444d674f446b754d6a5979496104608201527f4455774c6a59344d4455674f4467754e5441784f554d314d5334794f444932496104808201527f4467334c6a63304d5467674e5445754e6a45774d6941344e6934344d444132496104a08201527f4455784c6a5978494467314c6a677a4d446c574e4455754e5451774f554d314d6104c08201527f5334324d5341304e4334784e7a4579494455794c6a45314e4341304d6934344e6104e08201527f5463324944557a4c6a45794d6a51674e4445754f446735517a55304c6a41354d6105008201527f4467674e4441754f5449774e4341314e5334304d44517a494451774c6a4d334e6105208201527f6a49674e5459754e7a6330494451774c6a4d334e546c494e6a55754d7a6778516105408201527f7a59324c6a63314d4459674e4441754d7a63324d6941324f4334774e6a5178496105608201527f4451774c6a6b794d4451674e6a6b754d444d794e5341304d5334344f446c444e6105808201527f7a41754d4441774f5341304d6934344e546332494463774c6a55304e5341304e6105a08201527f4334784e7a4579494463774c6a55304e5341304e5334314e444135566a67794c6105c08201527f6a6b7a4d7a6c444e7a41754e545131494467794c6a6b7a4d7a6b674e7a49754e6105e08201527f7941344d6934774e6a4535494463304c6a63354f5341344d5334784e7a5535516106008201527f7a63314c6a55334f4463674f4441754f4451324d6941334e6934794e445178496106208201527f4467774c6a49354e4445674e7a59754e7a45794d6941334f5334314f446732516106408201527f7a63334c6a45344d444d674e7a67754f44677a4d6941334e7934304d7a4179496106608201527f4463344c6a41314e5455674e7a63754e444d78494463334c6a49774f446c574d6106808201527f7a49754e6a4d774f554d334e7934304d7a45674d7a45754d6a59784e5341334e6106a08201527f7934354e7a5135494449354c6a6b304f4445674e7a67754f54517a4d5341794f6106c08201527f4334354e7a6b33517a63354c6a6b784d544d674d6a67754d4445784d7941344d6106e08201527f5334794d6a5131494449334c6a51324e7a49674f4449754e546b7a4f5341794e6107008201527f7934304e6a593553446b784c6a49774d554d354d6934314e7a4132494449334c6107208201527f6a51324e6a6b674f544d754f446730494449344c6a41784d446b674f5451754f6107408201527f4455794e5341794f4334354e7a6b30517a6b314c6a67794d446b674d6a6b754f6107608201527f5451334f4341354e69347a4e6a55674d7a45754d6a59784d7941354e69347a4e6107808201527f6a55674d7a49754e6a4d774f5659324f53347a4d7a6b35517a45774d7934344d6107a08201527f6a63674e6a4d754f544d784f5341784d5445754d7a6735494455334c6a51794e6107c08201527f7a6b674d5445334c6a4d35494451354c6a59774e6a6c444d5445344c6a49324d6107e08201527f5341304f4334304e7a4533494445784f4334344d7a63674e4463754d544d344e6108008201527f6941784d546b754d445933494451314c6a63794e6a64444d5445354c6a49354e6108208201527f7941304e43347a4d545134494445784f5334784e7a51674e4449754f4459334f6108408201527f4341784d5467754e7a4135494451784c6a55784e446c444d5445314c6a6b7a4d6108608201527f53417a4d7934314d6a4933494445784d5334314d5459674d6a59754d546b344d6108808201527f7941784d4455754e7a5131494449774c6a41784d4456444f546b754f546330496108a08201527f44457a4c6a67794d6a67674f5449754f5463304f5341344c6a6b774e7a6731496108c08201527f4467314c6a45354e5455674e5334314f44417a4d6b4d334e7934304d545978496108e08201527f4449754d6a55794f4341324f5334774d6a6333494441754e5467314f544d34496109008201527f4459774c6a55324e7a45674d4334324f4459304d545a444e5449754d5441324e6109208201527f5341774c6a63344e6a67354d7941304d7934334e6a4178494449754e6a55794e6109408201527f53417a4e6934774e6a49674e6934784e6a4d344d304d794f43347a4e6a4d34496109608201527f446b754e6a63314d5463674d6a45754e44677a4e4341784e4334334e545135496109808201527f4445314c6a67324d5445674d6a45754d446334517a45774c6a497a4f4467674d6109a08201527f6a63754e444178494455754f546b344e4449674d7a51754f4449344d69417a4c6109c08201527f6a51784d544d78494451794c6a67344e444a444d4334344d6a51794d4463674e6109e08201527f5441754f5451774d5341744d4334774e5449324e446733494455354c6a51304e610a008201527f7a51674d4334344d7a59344e5445674e6a63754f4459784e304d784c6a63794e610a208201527f6a4d31494463324c6a49334e6941304c6a4d324d6a597a494467304c6a51784d610a408201527f546b674f4334314e7a59354e6941354d5334334e446735517a6b754d7a45784d610a608201527f5445674f544d754d4445304e5341784d43347a4f54457949446b304c6a41304e610a808201527f4451674d5445754e6a6b774d7941354e4334334d546331517a45794c6a6b344f610aa08201527f5451674f5455754d7a6b774e6941784e4334304e544d3249446b314c6a59334f610ac08201527f5341784e5334354d5445674f5455754e5451344f554d784e7934314d7a6b674f610ae08201527f5455754e4441314f5341784f5334314e6a59674f5455754d6a41794f5341794d610b008201527f5334354e7a59674f5451754f5445354f554d794d7934774d6a557849446b304c610b208201527f6a67774d4467674d6a4d754f546b7a4e7941354e4334794f546b35494449304c610b408201527f6a59354e7a49674f544d754e5445794e6b4d794e5334304d44413449446b794c610b608201527f6a63794e544d674d6a55754e7a6b774d5341354d5334334d445933494449314c610b808201527f6a63354d5341354d4334324e544135544449314c6a6335494455344c6a51784e610ba08201527f446c614969426d615778735053496a4d6a457a4d6a56434969382b44516f3863610bc08201527f4746306143426b50534a4e4d6a55754e6a41794d5341784d5441754e5446444d610be08201527f7a51754e6a63304e4341784d5463754d5445674e4455754d7a6b314f5341784d610c008201527f6a45754d446379494455324c6a55344d4449674d5449784c6a6b314e304d324e610c208201527f7934334e6a5132494445794d6934344e4445674e7a67754f5463314e7941784d610c408201527f6a41754e6a4531494467344c6a6b334d7a45674d5445314c6a55794d304d354f610c608201527f4334354e7a4131494445784d4334304d7a45674d5441334c6a4d324e4341784d610c808201527f4449754e6a637a494445784d7934794d6a59674f544d754d5441324f454d784d610ca08201527f546b754d4467334944677a4c6a55304d4455674d5449794c6a45344f4341334d610cc08201527f6934314d7a6b674d5449794c6a45344e5341324d53347a4d546b33517a45794d610ce08201527f6934784f4455674e546b754f5445354e7941784d6a49754d5449674e5467754e610d008201527f544d304e7941784d6a49754d444933494455334c6a45314e7a64444f546b754f610d208201527f44413449446b774c6a49354e5463674e5467754e7a677a4d5341784d4455754e610d408201527f7a6734494449314c6a59774e4341784d5441754e5441314969426d6157787350610d608201527f53496a4f5463354e6a6b314969382b44516f384c334e325a7a344e43673d3d27610d808201527f2f3e3c2f613e3c2f7370616e3e3c2f6469763e3c2f74643e3c2f74723e3c7472610da08201527f3e3c74642076616c69676e3d276d6964646c652720616c69676e3d276c656674610dc08201527f2720636c6173733d276c696768742d6267273e3c756c20616c69676e3d276c65610de08201527f667427207374796c653d2770616464696e672d6c6566743a20313570783b666f610e008201527f6e742d73697a653a20313070783b273e3c6c6920636c6173733d276c69676874610e208201527f2d746578742d33273e426c6f636b3a20247b7472616e73616374696f6e546578610e408201527f74732e626c6f636b7d3c2f6c693e3c6c6920636c6173733d276c696768742d74610e608201527f6578742d33273e4c6f636174696f6e3a20554e4b4e4f574e3c2f6c693e3c2f75610e808201527f6c3e3c2f74643e3c746420616c69676e3d2763656e746572272076616c69676e610ea08201527f3d276d6964646c652720636c6173733d276c696768742d6267273e3c666f6e74610ec08201527f20636c6173733d27726567756c61725f74657874273e3c64697620636c617373610ee08201527f3d27706f7374207265706c79273e3c626c6f636b71756f7465207374796c653d610f008201527f2777686974652d73706163653a207072652d6c696e653b6d617267696e2d746f610f208201527f703a3070783b2720636c6173733d27706f73744d657373616765206c69676874610f408201527f2d746578742d32272069643d276d3334303739393833273e3c62723e247b7472610f608201527f616e73616374696f6e54657874732e746578747d3c2f626c6f636b71756f7465610f808201527f3e3c2f6469763e3c2f666f6e743e3c2f74643e3c2f74723e60293b617070656e610fa08201527f644c6f6164696e67526f7728293b6966286d6f64653d3d3d31297b7365744461610fc08201527f726b28297d656c73657b7365744c6967687428297d7d7d66756e6374696f6e20610fe08201527f736f7274427954696d6528612c62297b72657475726e20612e74696d653e622e6110008201527f74696d653f313a2d317d66756e6374696f6e20757064617465436c6f636b28296110208201527f7b636f6e7374206e6f773d6e657720446174653b636f6e737420686f7572733d6110408201527f537472696e67286e6f772e676574486f7572732829292e7061645374617274286110608201527f322c273027293b636f6e7374206d696e757465733d537472696e67286e6f772e6110808201527f6765744d696e757465732829292e706164537461727428322c273027293b636f6110a08201527f6e7374207365636f6e64733d537472696e67286e6f772e6765745365636f6e646110c08201527f732829292e706164537461727428322c273027293b636f6e7374206d6f6e74686110e08201527f4e616d65733d5b274a616e75617279272c274665627275617279272c274d61726111008201527f6368272c27417072696c272c274d6179272c274a756e65272c274a756c79272c6111208201527f27417567757374272c2753657074656d626572272c274f63746f626572272c276111408201527f4e6f76656d626572272c27446563656d626572275d3b636f6e7374206d6f6e746111608201527f683d6d6f6e74684e616d65735b6e6f772e6765744d6f6e746828295d3b636f6e6111808201527f7374206461793d6e6f772e6765744461746528293b636f6e737420796561723d6111a08201527f6e6f772e67657446756c6c5965617228293b636f6e7374207375666669783d646111c08201527f61793d3e7b6966286461793e3326266461793c32312972657475726e277468276111e08201527f3b73776974636828646179253130297b6361736520313a72657475726e2773746112008201527f273b6361736520323a72657475726e276e64273b6361736520333a72657475726112208201527f6e277264273b64656661756c743a72657475726e277468277d7d3b636f6e73746112408201527f2066756c6c446174653d60247b6d6f6e74687d20247b6461797d247b737566666112608201527f697828646179297d2c20247b796561727d20247b686f7572737d3a247b6d696e6112808201527f757465737d3a247b7365636f6e64737d603b2428272e63757272656e742d74696112a08201527f6d6527292e746578742866756c6c44617465297d736574496e74657276616c286112c08201527f757064617465436c6f636b2c316533293b757064617465436c6f636b28293b246112e08201527f28646f63756d656e74292e7265616479282866756e6374696f6e28297b2428276113008201527f23706f73742d7772617070657227292e66616465496e28297d29293b66756e636113208201527f74696f6e207365744461726b28297b242827236d6f64652d73776974636827296113408201527f2e637373282766696c746572272c27696e76657274282e37352927293b2428276113608201527f2e6c696768742d7465787427292e72656d6f7665436c61737328276c696768746113808201527f2d7465787427292e616464436c61737328276461726b2d7465787427293b24286113a08201527f272e6c696768742d746578742d3227292e72656d6f7665436c61737328276c696113c08201527f6768742d746578742d3227292e616464436c61737328276461726b2d746578746113e08201527f2d3227293b2428272e6c696768742d746578742d3327292e72656d6f7665436c6114008201527f61737328276c696768742d746578742d3327292e616464436c617373282764616114208201527f726b2d746578742d3327293b2428272e6c696768742d746578742d3427292e726114408201527f656d6f7665436c61737328276c696768742d746578742d3427292e616464436c6114608201527f61737328276461726b2d746578742d3427293b2428272e6c696768742d6267276114808201527f292e72656d6f7665436c61737328276c696768742d626727292e616464436c616114a08201527f737328276461726b2d626727293b2428272e6c696768742d62672d3227292e726114c08201527f656d6f7665436c61737328276c696768742d62672d3227292e616464436c61736114e08201527f7328276461726b2d62672d3227293b2428272e6c696768742d626f726465722d6115008201527f3227292e72656d6f7665436c61737328276c696768742d626f726465722d32276115208201527f292e616464436c61737328276461726b2d626f726465722d3227293b2428272e6115408201527f6c696768742d626f7264657227292e72656d6f7665436c61737328276c6967686115608201527f742d626f7264657227292e616464436c61737328276461726b2d626f726465726115808201527f27293b2428272e6c696768742d6c696e6b27292e72656d6f7665436c617373286115a08201527f276c696768742d6c696e6b27292e616464436c61737328276461726b2d6c696e6115c08201527f6b27297d66756e6374696f6e207365744c6967687428297b242827236d6f64656115e08201527f2d73776974636827292e637373282766696c746572272c27696e7665727428306116008201527f2927293b2428272e6461726b2d7465787427292e72656d6f7665436c617373286116208201527f276461726b2d7465787427292e616464436c61737328276c696768742d7465786116408201527f7427293b2428272e6461726b2d746578742d3227292e72656d6f7665436c61736116608201527f7328276461726b2d746578742d3227292e616464436c61737328276c696768746116808201527f2d746578742d3227293b2428272e6461726b2d746578742d3327292e72656d6f6116a08201527f7665436c61737328276461726b2d746578742d3327292e616464436c617373286116c08201527f276c696768742d746578742d3327293b2428272e6461726b2d746578742d34276116e08201527f292e72656d6f7665436c61737328276461726b2d746578742d3427292e6164646117008201527f436c61737328276c696768742d746578742d3427293b2428272e6461726b2d626117208201527f6727292e72656d6f7665436c61737328276461726b2d626727292e616464436c6117408201527f61737328276c696768742d626727293b2428272e6461726b2d62672d3227292e6117608201527f72656d6f7665436c61737328276461726b2d62672d3227292e616464436c61736117808201527f7328276c696768742d62672d3227293b2428272e6461726b2d626f726465722d6117a08201527f3227292e72656d6f7665436c61737328276461726b2d626f726465722d3227296117c08201527f2e616464436c61737328276c696768742d626f726465722d3227293b2428272e6117e08201527f6461726b2d626f7264657227292e72656d6f7665436c61737328276461726b2d6118008201527f626f7264657227292e616464436c61737328276c696768742d626f72646572276118208201527f293b2428272e6461726b2d6c696e6b27292e72656d6f7665436c6173732827646118408201527f61726b2d6c696e6b27292e616464436c61737328276c696768742d6c696e6b276118608201527f297d66756e6374696f6e20746f67676c654d6f646528297b6966286d6f64653d6118808201527f3d3d30297b6d6f64653d313b7365744461726b28297d656c73657b6d6f64653d6118a08201527f303b7365744c6967687428297d242827236d6f64652d73776974636827292e626118c08201527f6c757228297d3c2f7363726970743e00000000000000000000000000000000006118e082015250565b5f613d716118ef836102a5565b9150613d7c82611ef2565b6118ef82019050919050565b5f613d92826102fd565b9150613d9e828861038e565b9150613da982610482565b9150613db582876104a4565b9150613dc0826104fc565b9150613dcc828661038e565b9150613dd7826107d6565b9150613de3828561038e565b9150613dee82611ece565b9150613dfa828461038e565b9150613e0582613d64565b9150819050969550505050505056fea26469706673582212205f3e01de124616b16476d9dbf7ccead4b38864946d487533e309d52c2b834ffa64736f6c634300081a003368747470733a2f2f6170692e65746865727363616e2e696f2f6170693f6d6f64756c653d6163636f756e7426616374696f6e3d74786c69737426616464726573733d307830303261336265363362336233313264613564353865623032643262343838363962343665633832267374617274626c6f636b3d3026656e64626c6f636b3d393939393939393926706167653d31266f66667365743d313030303026736f72743d617363266170696b65793d53353251454a5834464b4e435337394b3837584e58434156584e505a33593939584968747470733a2f2f6d61696e6e65742e696e667572612e696f2f76332f6464343334623730633661373438376339326566646465643133653766316133",
					"opcodes": "PUSH1 0x80 PUSH1 0x40 MSTORE PUSH1 0x40 MLOAD DUP1 PUSH1 0x60 ADD PUSH1 0x40 MSTORE DUP1 PUSH1 0x3D DUP2 MSTORE PUSH1 0x20 ADD PUSH2 0x4321 PUSH1 0x3D SWAP2 CODECOPY PUSH0 SWAP1 DUP2 PUSH2 0x2A SWAP2 SWAP1 PUSH2 0x329 JUMP JUMPDEST POP PUSH1 0x40 MLOAD DUP1 PUSH2 0x100 ADD PUSH1 0x40 MSTORE DUP1 PUSH1 0xD2 DUP2 MSTORE PUSH1 0x20 ADD PUSH2 0x424F PUSH1 0xD2 SWAP2 CODECOPY PUSH1 0x1 SWAP1 DUP2 PUSH2 0x53 SWAP2 SWAP1 PUSH2 0x329 JUMP JUMPDEST POP PUSH1 0x40 MLOAD DUP1 PUSH1 0x40 ADD PUSH1 0x40 MSTORE DUP1 PUSH1 0x14 DUP2 MSTORE PUSH1 0x20 ADD PUSH32 0x68747470733A2F2F7777772E746A6F2E6172742F000000000000000000000000 DUP2 MSTORE POP PUSH1 0x2 SWAP1 DUP2 PUSH2 0x98 SWAP2 SWAP1 PUSH2 0x329 JUMP JUMPDEST POP PUSH1 0x40 MLOAD DUP1 PUSH1 0x40 ADD PUSH1 0x40 MSTORE DUP1 PUSH1 0x5 DUP2 MSTORE PUSH1 0x20 ADD PUSH32 0x3135303030000000000000000000000000000000000000000000000000000000 DUP2 MSTORE POP PUSH1 0x3 SWAP1 DUP2 PUSH2 0xDD SWAP2 SWAP1 PUSH2 0x329 JUMP JUMPDEST POP CALLVALUE DUP1 ISZERO PUSH2 0xE9 JUMPI PUSH0 DUP1 REVERT JUMPDEST POP PUSH2 0x3F8 JUMP JUMPDEST PUSH0 DUP2 MLOAD SWAP1 POP SWAP2 SWAP1 POP JUMP JUMPDEST PUSH32 0x4E487B7100000000000000000000000000000000000000000000000000000000 PUSH0 MSTORE PUSH1 0x41 PUSH1 0x4 MSTORE PUSH1 0x24 PUSH0 REVERT JUMPDEST PUSH32 0x4E487B7100000000000000000000000000000000000000000000000000000000 PUSH0 MSTORE PUSH1 0x22 PUSH1 0x4 MSTORE PUSH1 0x24 PUSH0 REVERT JUMPDEST PUSH0 PUSH1 0x2 DUP3 DIV SWAP1 POP PUSH1 0x1 DUP3 AND DUP1 PUSH2 0x16A JUMPI PUSH1 0x7F DUP3 AND SWAP2 POP JUMPDEST PUSH1 0x20 DUP3 LT DUP2 SUB PUSH2 0x17D JUMPI PUSH2 0x17C PUSH2 0x126 JUMP JUMPDEST JUMPDEST POP SWAP2 SWAP1 POP JUMP JUMPDEST PUSH0 DUP2 SWAP1 POP DUP2 PUSH0 MSTORE PUSH1 0x20 PUSH0 KECCAK256 SWAP1 POP SWAP2 SWAP1 POP JUMP JUMPDEST PUSH0 PUSH1 0x20 PUSH1 0x1F DUP4 ADD DIV SWAP1 POP SWAP2 SWAP1 POP JUMP JUMPDEST PUSH0 DUP3 DUP3 SHL SWAP1 POP SWAP3 SWAP2 POP POP JUMP JUMPDEST PUSH0 PUSH1 0x8 DUP4 MUL PUSH2 0x1DF PUSH32 0xFFFFFFFFFFFFFFFFFFFFFFFFFFFFFFFFFFFFFFFFFFFFFFFFFFFFFFFFFFFFFFFF DUP3 PUSH2 0x1A4 JUMP JUMPDEST PUSH2 0x1E9 DUP7 DUP4 PUSH2 0x1A4 JUMP JUMPDEST SWAP6 POP DUP1 NOT DUP5 AND SWAP4 POP DUP1 DUP7 AND DUP5 OR SWAP3 POP POP POP SWAP4 SWAP3 POP POP POP JUMP JUMPDEST PUSH0 DUP2 SWAP1 POP SWAP2 SWAP1 POP JUMP JUMPDEST PUSH0 DUP2 SWAP1 POP SWAP2 SWAP1 POP JUMP JUMPDEST PUSH0 PUSH2 0x22D PUSH2 0x228 PUSH2 0x223 DUP5 PUSH2 0x201 JUMP JUMPDEST PUSH2 0x20A JUMP JUMPDEST PUSH2 0x201 JUMP JUMPDEST SWAP1 POP SWAP2 SWAP1 POP JUMP JUMPDEST PUSH0 DUP2 SWAP1 POP SWAP2 SWAP1 POP JUMP JUMPDEST PUSH2 0x246 DUP4 PUSH2 0x213 JUMP JUMPDEST PUSH2 0x25A PUSH2 0x252 DUP3 PUSH2 0x234 JUMP JUMPDEST DUP5 DUP5 SLOAD PUSH2 0x1B0 JUMP JUMPDEST DUP3 SSTORE POP POP POP POP JUMP JUMPDEST PUSH0 SWAP1 JUMP JUMPDEST PUSH2 0x26E PUSH2 0x262 JUMP JUMPDEST PUSH2 0x279 DUP2 DUP5 DUP5 PUSH2 0x23D JUMP JUMPDEST POP POP POP JUMP JUMPDEST JUMPDEST DUP2 DUP2 LT ISZERO PUSH2 0x29C JUMPI PUSH2 0x291 PUSH0 DUP3 PUSH2 0x266 JUMP JUMPDEST PUSH1 0x1 DUP2 ADD SWAP1 POP PUSH2 0x27F JUMP JUMPDEST POP POP JUMP JUMPDEST PUSH1 0x1F DUP3 GT ISZERO PUSH2 0x2E1 JUMPI PUSH2 0x2B2 DUP2 PUSH2 0x183 JUMP JUMPDEST PUSH2 0x2BB DUP5 PUSH2 0x195 JUMP JUMPDEST DUP2 ADD PUSH1 0x20 DUP6 LT ISZERO PUSH2 0x2CA JUMPI DUP2 SWAP1 POP JUMPDEST PUSH2 0x2DE PUSH2 0x2D6 DUP6 PUSH2 0x195 JUMP JUMPDEST DUP4 ADD DUP3 PUSH2 0x27E JUMP JUMPDEST POP POP JUMPDEST POP POP POP JUMP JUMPDEST PUSH0 DUP3 DUP3 SHR SWAP1 POP SWAP3 SWAP2 POP POP JUMP JUMPDEST PUSH0 PUSH2 0x301 PUSH0 NOT DUP5 PUSH1 0x8 MUL PUSH2 0x2E6 JUMP JUMPDEST NOT DUP1 DUP4 AND SWAP2 POP POP SWAP3 SWAP2 POP POP JUMP JUMPDEST PUSH0 PUSH2 0x319 DUP4 DUP4 PUSH2 0x2F2 JUMP JUMPDEST SWAP2 POP DUP3 PUSH1 0x2 MUL DUP3 OR SWAP1 POP SWAP3 SWAP2 POP POP JUMP JUMPDEST PUSH2 0x332 DUP3 PUSH2 0xEF JUMP JUMPDEST PUSH8 0xFFFFFFFFFFFFFFFF DUP2 GT ISZERO PUSH2 0x34B JUMPI PUSH2 0x34A PUSH2 0xF9 JUMP JUMPDEST JUMPDEST PUSH2 0x355 DUP3 SLOAD PUSH2 0x153 JUMP JUMPDEST PUSH2 0x360 DUP3 DUP3 DUP6 PUSH2 0x2A0 JUMP JUMPDEST PUSH0 PUSH1 0x20 SWAP1 POP PUSH1 0x1F DUP4 GT PUSH1 0x1 DUP2 EQ PUSH2 0x391 JUMPI PUSH0 DUP5 ISZERO PUSH2 0x37F JUMPI DUP3 DUP8 ADD MLOAD SWAP1 POP JUMPDEST PUSH2 0x389 DUP6 DUP3 PUSH2 0x30E JUMP JUMPDEST DUP7 SSTORE POP PUSH2 0x3F0 JUMP JUMPDEST PUSH1 0x1F NOT DUP5 AND PUSH2 0x39F DUP7 PUSH2 0x183 JUMP JUMPDEST PUSH0 JUMPDEST DUP3 DUP2 LT ISZERO PUSH2 0x3C6 JUMPI DUP5 DUP10 ADD MLOAD DUP3 SSTORE PUSH1 0x1 DUP3 ADD SWAP2 POP PUSH1 0x20 DUP6 ADD SWAP5 POP PUSH1 0x20 DUP2 ADD SWAP1 POP PUSH2 0x3A1 JUMP JUMPDEST DUP7 DUP4 LT ISZERO PUSH2 0x3E3 JUMPI DUP5 DUP10 ADD MLOAD PUSH2 0x3DF PUSH1 0x1F DUP10 AND DUP3 PUSH2 0x2F2 JUMP JUMPDEST DUP4 SSTORE POP JUMPDEST PUSH1 0x1 PUSH1 0x2 DUP9 MUL ADD DUP9 SSTORE POP POP POP JUMPDEST POP POP POP POP POP POP JUMP JUMPDEST PUSH2 0x3E4A DUP1 PUSH2 0x405 PUSH0 CODECOPY PUSH0 RETURN INVALID PUSH1 0x80 PUSH1 0x40 MSTORE CALLVALUE DUP1 ISZERO PUSH2 0xF JUMPI PUSH0 DUP1 REVERT JUMPDEST POP PUSH1 0x4 CALLDATASIZE LT PUSH2 0x29 JUMPI PUSH0 CALLDATALOAD PUSH1 0xE0 SHR DUP1 PUSH4 0x527385AD EQ PUSH2 0x2D JUMPI JUMPDEST PUSH0 DUP1 REVERT JUMPDEST PUSH2 0x47 PUSH1 0x4 DUP1 CALLDATASIZE SUB DUP2 ADD SWAP1 PUSH2 0x42 SWAP2 SWAP1 PUSH2 0x1DE JUMP JUMPDEST PUSH2 0x5D JUMP JUMPDEST PUSH1 0x40 MLOAD PUSH2 0x54 SWAP2 SWAP1 PUSH2 0x285 JUMP JUMPDEST PUSH1 0x40 MLOAD DUP1 SWAP2 SUB SWAP1 RETURN JUMPDEST PUSH1 0x60 PUSH0 DUP3 PUSH1 0x3 PUSH1 0x1 PUSH1 0x2 PUSH1 0x40 MLOAD PUSH1 0x20 ADD PUSH2 0x7B SWAP6 SWAP5 SWAP4 SWAP3 SWAP2 SWAP1 PUSH2 0x3D88 JUMP JUMPDEST PUSH1 0x40 MLOAD PUSH1 0x20 DUP2 DUP4 SUB SUB DUP2 MSTORE SWAP1 PUSH1 0x40 MSTORE SWAP1 POP SWAP2 SWAP1 POP JUMP JUMPDEST PUSH0 PUSH1 0x40 MLOAD SWAP1 POP SWAP1 JUMP JUMPDEST PUSH0 DUP1 REVERT JUMPDEST PUSH0 DUP1 REVERT JUMPDEST PUSH0 DUP1 REVERT JUMPDEST PUSH0 DUP1 REVERT JUMPDEST PUSH0 PUSH1 0x1F NOT PUSH1 0x1F DUP4 ADD AND SWAP1 POP SWAP2 SWAP1 POP JUMP JUMPDEST PUSH32 0x4E487B7100000000000000000000000000000000000000000000000000000000 PUSH0 MSTORE PUSH1 0x41 PUSH1 0x4 MSTORE PUSH1 0x24 PUSH0 REVERT JUMPDEST PUSH2 0xF0 DUP3 PUSH2 0xAA JUMP JUMPDEST DUP2 ADD DUP2 DUP2 LT PUSH8 0xFFFFFFFFFFFFFFFF DUP3 GT OR ISZERO PUSH2 0x10F JUMPI PUSH2 0x10E PUSH2 0xBA JUMP JUMPDEST JUMPDEST DUP1 PUSH1 0x40 MSTORE POP POP POP JUMP JUMPDEST PUSH0 PUSH2 0x121 PUSH2 0x91 JUMP JUMPDEST SWAP1 POP PUSH2 0x12D DUP3 DUP3 PUSH2 0xE7 JUMP JUMPDEST SWAP2 SWAP1 POP JUMP JUMPDEST PUSH0 PUSH8 0xFFFFFFFFFFFFFFFF DUP3 GT ISZERO PUSH2 0x14C JUMPI PUSH2 0x14B PUSH2 0xBA JUMP JUMPDEST JUMPDEST PUSH2 0x155 DUP3 PUSH2 0xAA JUMP JUMPDEST SWAP1 POP PUSH1 0x20 DUP2 ADD SWAP1 POP SWAP2 SWAP1 POP JUMP JUMPDEST DUP3 DUP2 DUP4 CALLDATACOPY PUSH0 DUP4 DUP4 ADD MSTORE POP POP POP JUMP JUMPDEST PUSH0 PUSH2 0x182 PUSH2 0x17D DUP5 PUSH2 0x132 JUMP JUMPDEST PUSH2 0x118 JUMP JUMPDEST SWAP1 POP DUP3 DUP2 MSTORE PUSH1 0x20 DUP2 ADD DUP5 DUP5 DUP5 ADD GT ISZERO PUSH2 0x19E JUMPI PUSH2 0x19D PUSH2 0xA6 JUMP JUMPDEST JUMPDEST PUSH2 0x1A9 DUP5 DUP3 DUP6 PUSH2 0x162 JUMP JUMPDEST POP SWAP4 SWAP3 POP POP POP JUMP JUMPDEST PUSH0 DUP3 PUSH1 0x1F DUP4 ADD SLT PUSH2 0x1C5 JUMPI PUSH2 0x1C4 PUSH2 0xA2 JUMP JUMPDEST JUMPDEST DUP2 CALLDATALOAD PUSH2 0x1D5 DUP5 DUP3 PUSH1 0x20 DUP7 ADD PUSH2 0x170 JUMP JUMPDEST SWAP2 POP POP SWAP3 SWAP2 POP POP JUMP JUMPDEST PUSH0 PUSH1 0x20 DUP3 DUP5 SUB SLT ISZERO PUSH2 0x1F3 JUMPI PUSH2 0x1F2 PUSH2 0x9A JUMP JUMPDEST JUMPDEST PUSH0 DUP3 ADD CALLDATALOAD PUSH8 0xFFFFFFFFFFFFFFFF DUP2 GT ISZERO PUSH2 0x210 JUMPI PUSH2 0x20F PUSH2 0x9E JUMP JUMPDEST JUMPDEST PUSH2 0x21C DUP5 DUP3 DUP6 ADD PUSH2 0x1B1 JUMP JUMPDEST SWAP2 POP POP SWAP3 SWAP2 POP POP JUMP JUMPDEST PUSH0 DUP2 MLOAD SWAP1 POP SWAP2 SWAP1 POP JUMP JUMPDEST PUSH0 DUP3 DUP3 MSTORE PUSH1 0x20 DUP3 ADD SWAP1 POP SWAP3 SWAP2 POP POP JUMP JUMPDEST DUP3 DUP2 DUP4 MCOPY PUSH0 DUP4 DUP4 ADD MSTORE POP POP POP JUMP JUMPDEST PUSH0 PUSH2 0x257 DUP3 PUSH2 0x225 JUMP JUMPDEST PUSH2 0x261 DUP2 DUP6 PUSH2 0x22F JUMP JUMPDEST SWAP4 POP PUSH2 0x271 DUP2 DUP6 PUSH1 0x20 DUP7 ADD PUSH2 0x23F JUMP JUMPDEST PUSH2 0x27A DUP2 PUSH2 0xAA JUMP JUMPDEST DUP5 ADD SWAP2 POP POP SWAP3 SWAP2 POP POP JUMP JUMPDEST PUSH0 PUSH1 0x20 DUP3 ADD SWAP1 POP DUP2 DUP2 SUB PUSH0 DUP4 ADD MSTORE PUSH2 0x29D DUP2 DUP5 PUSH2 0x24D JUMP JUMPDEST SWAP1 POP SWAP3 SWAP2 POP POP JUMP JUMPDEST PUSH0 DUP2 SWAP1 POP SWAP3 SWAP2 POP POP JUMP JUMPDEST PUSH32 0x3C73637269707420747970653D276170706C69636174696F6E2F6A6176617363 PUSH0 DUP3 ADD MSTORE PUSH32 0x72697074273E636F6E7374206574684E6574776F726B3D270000000000000000 PUSH1 0x20 DUP3 ADD MSTORE POP JUMP JUMPDEST PUSH0 PUSH2 0x309 PUSH1 0x38 DUP4 PUSH2 0x2A5 JUMP JUMPDEST SWAP2 POP PUSH2 0x314 DUP3 PUSH2 0x2AF JUMP JUMPDEST PUSH1 0x38 DUP3 ADD SWAP1 POP SWAP2 SWAP1 POP JUMP JUMPDEST PUSH32 0x4E487B7100000000000000000000000000000000000000000000000000000000 PUSH0 MSTORE PUSH1 0x22 PUSH1 0x4 MSTORE PUSH1 0x24 PUSH0 REVERT JUMPDEST PUSH0 PUSH1 0x2 DUP3 DIV SWAP1 POP PUSH1 0x1 DUP3 AND DUP1 PUSH2 0x363 JUMPI PUSH1 0x7F DUP3 AND SWAP2 POP JUMPDEST PUSH1 0x20 DUP3 LT DUP2 SUB PUSH2 0x376 JUMPI PUSH2 0x375 PUSH2 0x31F JUMP JUMPDEST JUMPDEST POP SWAP2 SWAP1 POP JUMP JUMPDEST PUSH0 DUP2 SWAP1 POP DUP2 PUSH0 MSTORE PUSH1 0x20 PUSH0 KECCAK256 SWAP1 POP SWAP2 SWAP1 POP JUMP JUMPDEST PUSH0 DUP2 SLOAD PUSH2 0x39A DUP2 PUSH2 0x34C JUMP JUMPDEST PUSH2 0x3A4 DUP2 DUP7 PUSH2 0x2A5 JUMP JUMPDEST SWAP5 POP PUSH1 0x1 DUP3 AND PUSH0 DUP2 EQ PUSH2 0x3BE JUMPI PUSH1 0x1 DUP2 EQ PUSH2 0x3D3 JUMPI PUSH2 0x405 JUMP JUMPDEST PUSH1 0xFF NOT DUP4 AND DUP7 MSTORE DUP2 ISZERO ISZERO DUP3 MUL DUP7 ADD SWAP4 POP PUSH2 0x405 JUMP JUMPDEST PUSH2 0x3DC DUP6 PUSH2 0x37C JUMP JUMPDEST PUSH0 JUMPDEST DUP4 DUP2 LT ISZERO PUSH2 0x3FD JUMPI DUP2 SLOAD DUP2 DUP10 ADD MSTORE PUSH1 0x1 DUP3 ADD SWAP2 POP PUSH1 0x20 DUP2 ADD SWAP1 POP PUSH2 0x3DE JUMP JUMPDEST DUP4 DUP9 ADD SWAP6 POP POP POP JUMPDEST POP POP POP SWAP3 SWAP2 POP POP JUMP JUMPDEST PUSH32 0x273B636F6E737420776562333D6E65772057656233286E657720576562332E70 PUSH0 DUP3 ADD MSTORE PUSH32 0x726F7669646572732E4874747050726F7669646572286574684E6574776F726B PUSH1 0x20 DUP3 ADD MSTORE PUSH32 0x29293B6C6574206973416C6C4C6F616465643D21313B6C6574206D6F64653D00 PUSH1 0x40 DUP3 ADD MSTORE POP JUMP JUMPDEST PUSH0 PUSH2 0x48E PUSH1 0x5F DUP4 PUSH2 0x2A5 JUMP JUMPDEST SWAP2 POP PUSH2 0x499 DUP3 PUSH2 0x40E JUMP JUMPDEST PUSH1 0x5F DUP3 ADD SWAP1 POP SWAP2 SWAP1 POP JUMP JUMPDEST PUSH0 PUSH2 0x4AE DUP3 PUSH2 0x225 JUMP JUMPDEST PUSH2 0x4B8 DUP2 DUP6 PUSH2 0x2A5 JUMP JUMPDEST SWAP4 POP PUSH2 0x4C8 DUP2 DUP6 PUSH1 0x20 DUP7 ADD PUSH2 0x23F JUMP JUMPDEST DUP1 DUP5 ADD SWAP2 POP POP SWAP3 SWAP2 POP POP JUMP JUMPDEST PUSH32 0x3B6C65742064656C61793D000000000000000000000000000000000000000000 PUSH0 DUP3 ADD MSTORE POP JUMP JUMPDEST PUSH0 PUSH2 0x508 PUSH1 0xB DUP4 PUSH2 0x2A5 JUMP JUMPDEST SWAP2 POP PUSH2 0x513 DUP3 PUSH2 0x4D4 JUMP JUMPDEST PUSH1 0xB DUP3 ADD SWAP1 POP SWAP2 SWAP1 POP JUMP JUMPDEST PUSH32 0x3B6C65742064656C6179323D64656C61792F333B24282723616E647265772729 PUSH0 DUP3 ADD MSTORE PUSH32 0x2E6869646528293B6765745472616E73616374696F6E546578747328293B6C65 PUSH1 0x20 DUP3 ADD MSTORE PUSH32 0x74206E756D446F74733D303B6C6574206C6F61646572496E74657276616C3D73 PUSH1 0x40 DUP3 ADD MSTORE PUSH32 0x6574496E74657276616C287570646174654C6F61646572446F74732C31653329 PUSH1 0x60 DUP3 ADD MSTORE PUSH32 0x3B66756E6374696F6E207570646174654C6F61646572446F747328297B242827 PUSH1 0x80 DUP3 ADD MSTORE PUSH32 0x2E6C6F616465722D646F747327292E68746D6C286E756D446F74733D3D3D313F PUSH1 0xA0 DUP3 ADD MSTORE PUSH32 0x272E273A6E756D446F74733D3D3D323F272E2E273A6E756D446F74733D3D3D33 PUSH1 0xC0 DUP3 ADD MSTORE PUSH32 0x3F272E2E2E273A2727293B6E756D446F74732B2B3B6966286E756D446F74733D PUSH1 0xE0 DUP3 ADD MSTORE PUSH32 0x3D3D34297B6E756D446F74733D307D7D6173796E632066756E6374696F6E2067 PUSH2 0x100 DUP3 ADD MSTORE PUSH32 0x65745472616E73616374696F6E546578747328297B617070656E644C6F616469 PUSH2 0x120 DUP3 ADD MSTORE PUSH32 0x6E67526F7728293B6C6574207472616E73616374696F6E54657874733D5B5D3B PUSH2 0x140 DUP3 ADD MSTORE PUSH32 0x6973416C6C4C6F616465643D21313B242827237370696E6E657227292E73686F PUSH2 0x160 DUP3 ADD MSTORE PUSH32 0x7728293B6C657420636F6F6B69653B7472797B636F6F6B69653D4A534F4E2E70 PUSH2 0x180 DUP3 ADD MSTORE PUSH32 0x6172736528676574436F6F6B696528277472616E73616374696F6E5465787473 PUSH2 0x1A0 DUP3 ADD MSTORE PUSH32 0x2729297D63617463687B636F6F6B69653D5B5D7D6C657420636F6F6B69655465 PUSH2 0x1C0 DUP3 ADD MSTORE PUSH32 0x7874733D747970656F6620636F6F6B69653D3D3D276F626A656374272626636F PUSH2 0x1E0 DUP3 ADD MSTORE PUSH32 0x6F6B69652E6C656E6774683E303F636F6F6B69653A5B5D3B6C65742073746172 PUSH2 0x200 DUP3 ADD MSTORE PUSH32 0x74496E6465783D343B6C65742075726C3D600000000000000000000000000000 PUSH2 0x220 DUP3 ADD MSTORE POP JUMP JUMPDEST PUSH0 PUSH2 0x7E3 PUSH2 0x232 DUP4 PUSH2 0x2A5 JUMP JUMPDEST SWAP2 POP PUSH2 0x7EE DUP3 PUSH2 0x51E JUMP JUMPDEST PUSH2 0x232 DUP3 ADD SWAP1 POP SWAP2 SWAP1 POP JUMP JUMPDEST PUSH32 0x603B7472797B6C657420646174613D617761697420242E6765742875726C293B PUSH0 DUP3 ADD MSTORE PUSH32 0x6C6574207472616E73616374696F6E4964733D646174612E726573756C742E66 PUSH1 0x20 DUP3 ADD MSTORE PUSH32 0x696C746572282874783D3E74782E66726F6D3D3D3D74782E746F29292E6D6170 PUSH1 0x40 DUP3 ADD MSTORE PUSH32 0x282874783D3E74782E6861736829293B24282723746F74616C2D706F73747327 PUSH1 0x60 DUP3 ADD MSTORE PUSH32 0x292E74657874287374617274496E6465782D33293B72657175657374416E696D PUSH1 0x80 DUP3 ADD MSTORE PUSH32 0x6174696F6E4672616D65282866756E6374696F6E28297B242827236C6F616469 PUSH1 0xA0 DUP3 ADD MSTORE PUSH32 0x6E672D7465787427292E7465787428604C6F6164696E6720247B737461727449 PUSH1 0xC0 DUP3 ADD MSTORE PUSH32 0x6E6465782D337D206F6620247B7472616E73616374696F6E4964732E6C656E67 PUSH1 0xE0 DUP3 ADD MSTORE PUSH32 0x74682D337D60297D29293B6173796E632066756E6374696F6E2070726F636573 PUSH2 0x100 DUP3 ADD MSTORE PUSH32 0x734E6578745472616E73616374696F6E28297B6966287374617274496E646578 PUSH2 0x120 DUP3 ADD MSTORE PUSH32 0x3C7472616E73616374696F6E4964732E6C656E677468297B6C6574207472616E PUSH2 0x140 DUP3 ADD MSTORE PUSH32 0x73616374696F6E49643D7472616E73616374696F6E4964735B7374617274496E PUSH2 0x160 DUP3 ADD MSTORE PUSH32 0x6465785D3B696628636F6F6B696554657874732E66696C7465722828783D3E78 PUSH2 0x180 DUP3 ADD MSTORE PUSH32 0x2E686173683D3D537472696E67287472616E73616374696F6E49642929292E6C PUSH2 0x1A0 DUP3 ADD MSTORE PUSH32 0x656E6774683D3D30297B6177616974206E65772050726F6D6973652828726573 PUSH2 0x1C0 DUP3 ADD MSTORE PUSH32 0x6F6C76653D3E73657454696D656F7574287265736F6C76652C64656C61793229 PUSH2 0x1E0 DUP3 ADD MSTORE PUSH32 0x29293B6C657420726573756C743D617761697420776562332E6574682E676574 PUSH2 0x200 DUP3 ADD MSTORE PUSH32 0x5472616E73616374696F6E287472616E73616374696F6E4964293B6C65742062 PUSH2 0x220 DUP3 ADD MSTORE PUSH32 0x6C6F636B4E756D6265723D7061727365496E7428726573756C742E626C6F636B PUSH2 0x240 DUP3 ADD MSTORE PUSH32 0x4E756D626572293B6177616974206E65772050726F6D69736528287265736F6C PUSH2 0x260 DUP3 ADD MSTORE PUSH32 0x76653D3E73657454696D656F7574287265736F6C76652C64656C617932292929 PUSH2 0x280 DUP3 ADD MSTORE PUSH32 0x3B6C657420696E7075743D776562332E7574696C732E746F4173636969287265 PUSH2 0x2A0 DUP3 ADD MSTORE PUSH32 0x73756C742E696E707574293B6C657420626C6F636B526573756C743D61776169 PUSH2 0x2C0 DUP3 ADD MSTORE PUSH32 0x7420776562332E6574682E676574426C6F636B28626C6F636B4E756D62657229 PUSH2 0x2E0 DUP3 ADD MSTORE PUSH32 0x3B6C657420646174653D6E65772044617465284E756D62657228626C6F636B52 PUSH2 0x300 DUP3 ADD MSTORE PUSH32 0x6573756C742E74696D657374616D70292A316533293B6C6574206D6F6E746873 PUSH2 0x320 DUP3 ADD MSTORE PUSH32 0x3D5B274A616E272C27466562272C274D6172272C27417072272C274D6179272C PUSH2 0x340 DUP3 ADD MSTORE PUSH32 0x274A756E272C274A756C272C27417567272C27536570272C274F6374272C274E PUSH2 0x360 DUP3 ADD MSTORE PUSH32 0x6F76272C27446563275D3B6C657420796561723D646174652E67657446756C6C PUSH2 0x380 DUP3 ADD MSTORE PUSH32 0x5965617228293B6C6574206D6F6E74683D6D6F6E7468735B646174652E676574 PUSH2 0x3A0 DUP3 ADD MSTORE PUSH32 0x4D6F6E746828295D3B6C6574206461793D646174652E6765744461746528293B PUSH2 0x3C0 DUP3 ADD MSTORE PUSH32 0x6C657420686F7572733D646174652E676574486F75727328293B6C6574206D69 PUSH2 0x3E0 DUP3 ADD MSTORE PUSH32 0x6E757465733D2730272B646174652E6765744D696E7574657328293B6C657420 PUSH2 0x400 DUP3 ADD MSTORE PUSH32 0x7365636F6E64733D2730272B646174652E6765745365636F6E647328293B6C65 PUSH2 0x420 DUP3 ADD MSTORE PUSH32 0x7420666F726D617474656454696D653D6D6F6E74682B2720272B6461792B2720 PUSH2 0x440 DUP3 ADD MSTORE PUSH32 0x272B796561722B2720272B686F7572732B273A272B6D696E757465732E737562 PUSH2 0x460 DUP3 ADD MSTORE PUSH32 0x737472282D32292B273A272B7365636F6E64732E737562737472282D32293B6C PUSH2 0x480 DUP3 ADD MSTORE PUSH32 0x6574206F626A3D7B686173683A537472696E67287472616E73616374696F6E49 PUSH2 0x4A0 DUP3 ADD MSTORE PUSH32 0x64292C626C6F636B3A537472696E6728626C6F636B4E756D626572292C746578 PUSH2 0x4C0 DUP3 ADD MSTORE PUSH32 0x743A696E7075742C74696D653A537472696E6728626C6F636B526573756C742E PUSH2 0x4E0 DUP3 ADD MSTORE PUSH32 0x74696D657374616D70292C666F726D617474656454696D653A666F726D617474 PUSH2 0x500 DUP3 ADD MSTORE PUSH32 0x656454696D657D3B7472616E73616374696F6E54657874732E70757368286F62 PUSH2 0x520 DUP3 ADD MSTORE PUSH32 0x6A293B617070656E64436F6D6D656E74286F626A293B636F6F6B696554657874 PUSH2 0x540 DUP3 ADD MSTORE PUSH32 0x732E70757368286F626A293B736574436F6F6B696528277472616E7361637469 PUSH2 0x560 DUP3 ADD MSTORE PUSH32 0x6F6E5465787473272C4A534F4E2E737472696E6769667928636F6F6B69655465 PUSH2 0x580 DUP3 ADD MSTORE PUSH32 0x78747329293B7374617274496E6465782B2B3B24282723746F74616C2D706F73 PUSH2 0x5A0 DUP3 ADD MSTORE PUSH32 0x747327292E74657874287374617274496E6465782D33293B7265717565737441 PUSH2 0x5C0 DUP3 ADD MSTORE PUSH32 0x6E696D6174696F6E4672616D65282866756E6374696F6E28297B242827236C6F PUSH2 0x5E0 DUP3 ADD MSTORE PUSH32 0x6164696E672D7465787427292E7465787428604C6F6164696E6720247B737461 PUSH2 0x600 DUP3 ADD MSTORE PUSH32 0x7274496E6465782D337D206F6620247B7472616E73616374696F6E4964732E6C PUSH2 0x620 DUP3 ADD MSTORE PUSH32 0x656E6774682D337D60297D29293B6177616974206E65772050726F6D69736528 PUSH2 0x640 DUP3 ADD MSTORE PUSH32 0x287265736F6C76653D3E73657454696D656F7574287265736F6C76652C64656C PUSH2 0x660 DUP3 ADD MSTORE PUSH32 0x6179322929293B61776169742070726F636573734E6578745472616E73616374 PUSH2 0x680 DUP3 ADD MSTORE PUSH32 0x696F6E28297D656C73657B617070656E64436F6D6D656E7428636F6F6B696554 PUSH2 0x6A0 DUP3 ADD MSTORE PUSH32 0x657874732E66696C7465722828783D3E782E686173683D3D537472696E672874 PUSH2 0x6C0 DUP3 ADD MSTORE PUSH32 0x72616E73616374696F6E49642929295B305D293B7374617274496E6465782B2B PUSH2 0x6E0 DUP3 ADD MSTORE PUSH32 0x3B24282723746F74616C2D706F73747327292E74657874287374617274496E64 PUSH2 0x700 DUP3 ADD MSTORE PUSH32 0x65782D33293B72657175657374416E696D6174696F6E4672616D65282866756E PUSH2 0x720 DUP3 ADD MSTORE PUSH32 0x6374696F6E28297B242827236C6F6164696E672D7465787427292E7465787428 PUSH2 0x740 DUP3 ADD MSTORE PUSH32 0x604C6F6164696E6720247B7374617274496E6465782D337D206F6620247B7472 PUSH2 0x760 DUP3 ADD MSTORE PUSH32 0x616E73616374696F6E4964732E6C656E6774682D337D60297D29293B61776169 PUSH2 0x780 DUP3 ADD MSTORE PUSH32 0x742070726F636573734E6578745472616E73616374696F6E28297D7D656C7365 PUSH2 0x7A0 DUP3 ADD MSTORE PUSH32 0x7B636C656172496E74657276616C286C6F61646572496E74657276616C293B72 PUSH2 0x7C0 DUP3 ADD MSTORE PUSH32 0x656D6F76654C6F6164696E67526F7728293B24282723616E6472657727292E73 PUSH2 0x7E0 DUP3 ADD MSTORE PUSH32 0x686F7728297D7D61776169742070726F636573734E6578745472616E73616374 PUSH2 0x800 DUP3 ADD MSTORE PUSH32 0x696F6E28293B6973416C6C4C6F616465643D21307D6361746368286572726F72 PUSH2 0x820 DUP3 ADD MSTORE PUSH32 0x297B72656D6F76654C6F6164696E67526F7728293B617070656E644572726F72 PUSH2 0x840 DUP3 ADD MSTORE PUSH32 0x526F7728293B636F6E736F6C652E6572726F7228274661696C656420746F2066 PUSH2 0x860 DUP3 ADD MSTORE PUSH32 0x65746368207472616E73616374696F6E733A272C6572726F72293B6966287265 PUSH2 0x880 DUP3 ADD MSTORE PUSH32 0x747279436F756E743C35297B73657454696D656F7574282866756E6374696F6E PUSH2 0x8A0 DUP3 ADD MSTORE PUSH32 0x28297B72656D6F76654C6F6164696E67526F7728293B6765745472616E736163 PUSH2 0x8C0 DUP3 ADD MSTORE PUSH32 0x74696F6E546578747328297D292C316534297D7D7D6C6574207265747279436F PUSH2 0x8E0 DUP3 ADD MSTORE PUSH32 0x756E743D313B66756E6374696F6E20617070656E644572726F72526F7728297B PUSH2 0x900 DUP3 ADD MSTORE PUSH32 0x6966287265747279436F756E743D3D3D34297B6C6574206572726F72526F773D PUSH2 0x920 DUP3 ADD MSTORE PUSH32 0x600A20202020202020202020202020202020202020203C747220636C6173733D PUSH2 0x940 DUP3 ADD MSTORE PUSH32 0x277461626C652D726F77206C696768742D6267273E0A20202020202020202020 PUSH2 0x960 DUP3 ADD MSTORE PUSH32 0x2020202020202020202020202020202020202020202020202020202020202020 PUSH2 0x980 DUP3 ADD MSTORE PUSH32 0x202020202020202020202020202020202020202020203C74643E3C2F74643E0A PUSH2 0x9A0 DUP3 ADD MSTORE PUSH32 0xA2020202020202020202020202020202020202020202020203C746420636C61 PUSH2 0x9C0 DUP3 ADD MSTORE PUSH32 0x73733D276C696768742D746578742D32206C6F6164696E672D63656C6C272063 PUSH2 0x9E0 DUP3 ADD MSTORE PUSH32 0x6F6C7370616E3D2732273E0A2020202020202020202020202020202020202020 PUSH2 0xA00 DUP3 ADD MSTORE PUSH32 0x20202020202020203C6469762069643D276572726F722720636C6173733D2765 PUSH2 0xA20 DUP3 ADD MSTORE PUSH32 0x72726F722D74657874273E0A2020202020202020202020202020202020202020 PUSH2 0xA40 DUP3 ADD MSTORE PUSH32 0x2020202020202020202020203C7370616E2069643D276572726F722D74657874 PUSH2 0xA60 DUP3 ADD MSTORE PUSH32 0x273E4661696C656420746F206C6F6164207472616E73616374696F6E73206672 PUSH2 0xA80 DUP3 ADD MSTORE PUSH32 0x6F6D2045746865727363616E2028332F332E3C2F7370616E3E0A202020202020 PUSH2 0xAA0 DUP3 ADD MSTORE PUSH32 0x202020202020202020202020202020202020202020203C2F6469763E0A202020 PUSH2 0xAC0 DUP3 ADD MSTORE PUSH32 0x2020202020202020202020202020202020202020203C2F74643E0A2020202020 PUSH2 0xAE0 DUP3 ADD MSTORE PUSH32 0x2020202020202020202020202020203C2F74723E0A2020202020202020202020 PUSH2 0xB00 DUP3 ADD MSTORE PUSH32 0x2020202020603B242827237461626C652D626F647927292E617070656E642865 PUSH2 0xB20 DUP3 ADD MSTORE PUSH32 0x72726F72526F77293B7265747279436F756E742B2B3B6966286D6F64653D3D3D PUSH2 0xB40 DUP3 ADD MSTORE PUSH32 0x31297B7365744461726B28297D656C73657B7365744C6967687428297D726574 PUSH2 0xB60 DUP3 ADD MSTORE PUSH32 0x75726E7D6C6574206572726F72526F773D600A20202020202020202020202020 PUSH2 0xB80 DUP3 ADD MSTORE PUSH32 0x202020202020203C747220636C6173733D277461626C652D726F77206C696768 PUSH2 0xBA0 DUP3 ADD MSTORE PUSH32 0x742D6267273E0A20202020202020202020202020202020202020202020202020 PUSH2 0xBC0 DUP3 ADD MSTORE PUSH32 0x2020202020202020202020202020202020202020202020202020202020202020 PUSH2 0xBE0 DUP3 ADD MSTORE PUSH32 0x202020202020203C74643E3C2F74643E0A0A2020202020202020202020202020 PUSH2 0xC00 DUP3 ADD MSTORE PUSH32 0x202020202020202020203C746420636C6173733D276C696768742D746578742D PUSH2 0xC20 DUP3 ADD MSTORE PUSH32 0x32206C6F6164696E672D63656C6C2720636F6C7370616E3D2732273E0A202020 PUSH2 0xC40 DUP3 ADD MSTORE PUSH32 0x202020202020202020202020202020202020202020202020203C646976206964 PUSH2 0xC60 DUP3 ADD MSTORE PUSH32 0x3D276572726F722720636C6173733D276572726F722D74657874273E0A202020 PUSH2 0xC80 DUP3 ADD MSTORE PUSH32 0x20202020202020202020202020202020202020202020202020202020203C7370 PUSH2 0xCA0 DUP3 ADD MSTORE PUSH32 0x616E2069643D276572726F722D74657874273E3C2F7370616E3E3C7370616E20 PUSH2 0xCC0 DUP3 ADD MSTORE PUSH32 0x636C6173733D276C6F616465722D646F7473273E3C2F7370616E3E0A20202020 PUSH2 0xCE0 DUP3 ADD MSTORE PUSH32 0x2020202020202020202020202020202020202020202020203C2F6469763E0A20 PUSH2 0xD00 DUP3 ADD MSTORE PUSH32 0x20202020202020202020202020202020202020202020203C2F74643E0A0A2020 PUSH2 0xD20 DUP3 ADD MSTORE PUSH32 0x2020202020202020202020202020202020203C2F74723E0A2020202020202020 PUSH2 0xD40 DUP3 ADD MSTORE PUSH32 0x2020202020202020603B242827237461626C652D626F647927292E617070656E PUSH2 0xD60 DUP3 ADD MSTORE PUSH32 0x64286572726F72526F77293B242827236572726F722D7465787427292E746578 PUSH2 0xD80 DUP3 ADD MSTORE PUSH32 0x7428604661696C656420746F206C6F6164207472616E73616374696F6E732066 PUSH2 0xDA0 DUP3 ADD MSTORE PUSH32 0x726F6D2045746865727363616E2E205265747279696E672028247B7265747279 PUSH2 0xDC0 DUP3 ADD MSTORE PUSH32 0x436F756E747D2F332960293B7265747279436F756E742B2B3B6966286D6F6465 PUSH2 0xDE0 DUP3 ADD MSTORE PUSH32 0x3D3D3D31297B7365744461726B28297D656C73657B7365744C6967687428297D PUSH2 0xE00 DUP3 ADD MSTORE PUSH32 0x7D66756E6374696F6E20617070656E644C6F6164696E67526F7728297B6C6574 PUSH2 0xE20 DUP3 ADD MSTORE PUSH32 0x206C6F6164696E67526F773D600A202020202020202020202020202020202020 PUSH2 0xE40 DUP3 ADD MSTORE PUSH32 0x20203C747220636C6173733D276C696768742D6267273E0A2020202020202020 PUSH2 0xE60 DUP3 ADD MSTORE PUSH32 0x2020202020202020202020202020202020202020202020202020202020202020 PUSH2 0xE80 DUP3 ADD MSTORE PUSH32 0x2020202020202020202020202020202020202020202020203C74643E3C2F7464 PUSH2 0xEA0 DUP3 ADD MSTORE PUSH32 0x3E0A0A2020202020202020202020202020202020202020202020203C74642063 PUSH2 0xEC0 DUP3 ADD MSTORE PUSH32 0x6C6173733D276C696768742D746578742D32206C6F6164696E672D63656C6C27 PUSH2 0xEE0 DUP3 ADD MSTORE PUSH32 0x3E0A202020202020202020202020202020202020202020202020202020203C64 PUSH2 0xF00 DUP3 ADD MSTORE PUSH32 0x69762069643D276C6F6164696E67273E0A202020202020202020202020202020 PUSH2 0xF20 DUP3 ADD MSTORE PUSH32 0x20202020202020202020202020202020203C7370616E2069643D276C6F616469 PUSH2 0xF40 DUP3 ADD MSTORE PUSH32 0x6E672D74657874273E4C6F6164696E67207472616E73616374696F6E733C2F73 PUSH2 0xF60 DUP3 ADD MSTORE PUSH32 0x70616E3E3C7370616E20636C6173733D276C6F616465722D646F7473273E3C2F PUSH2 0xF80 DUP3 ADD MSTORE PUSH32 0x7370616E3E0A2020202020202020202020202020202020202020202020202020 PUSH2 0xFA0 DUP3 ADD MSTORE PUSH32 0x20203C2F6469763E0A2020202020202020202020202020202020202020202020 PUSH2 0xFC0 DUP3 ADD MSTORE PUSH32 0x203C2F74643E0A0A20202020202020202020202020202020202020203C2F7472 PUSH2 0xFE0 DUP3 ADD MSTORE PUSH32 0x3E0A20202020202020202020202020202020603B242827237461626C652D626F PUSH2 0x1000 DUP3 ADD MSTORE PUSH32 0x647927292E617070656E64286C6F6164696E67526F77293B6966286D6F64653D PUSH2 0x1020 DUP3 ADD MSTORE PUSH32 0x3D3D31297B7365744461726B28297D656C73657B7365744C6967687428297D7D PUSH2 0x1040 DUP3 ADD MSTORE PUSH32 0x66756E6374696F6E2072656D6F76654C6F6164696E67526F7728297B24282723 PUSH2 0x1060 DUP3 ADD MSTORE PUSH32 0x7461626C652D626F647927292E66696E64282774723A6C61737427292E72656D PUSH2 0x1080 DUP3 ADD MSTORE PUSH32 0x6F766528297D6C657420696E74657276616C3D736574496E74657276616C2828 PUSH2 0x10A0 DUP3 ADD MSTORE PUSH32 0x66756E6374696F6E28297B6966286973416C6C4C6F61646564297B6973416C6C PUSH2 0x10C0 DUP3 ADD MSTORE PUSH32 0x4C6F616465643D21313B636C656172496E74657276616C28696E74657276616C PUSH2 0x10E0 DUP3 ADD MSTORE PUSH32 0x297D7D292C326533293B66756E6374696F6E20736574436F6F6B6965286E616D PUSH2 0x1100 DUP3 ADD MSTORE PUSH32 0x652C76616C75652C64617973297B6C6F63616C53746F726167655B6E616D655D PUSH2 0x1120 DUP3 ADD MSTORE PUSH32 0x3D76616C75657D66756E6374696F6E20676574436F6F6B6965286E616D65297B PUSH2 0x1140 DUP3 ADD MSTORE PUSH32 0x72657475726E206C6F63616C53746F726167655B6E616D655D7C7C275B5D277D PUSH2 0x1160 DUP3 ADD MSTORE PUSH32 0x66756E6374696F6E20617070656E64436F6D6D656E74287472616E7361637469 PUSH2 0x1180 DUP3 ADD MSTORE PUSH32 0x6F6E5465787473297B6966287472616E73616374696F6E54657874732E746578 PUSH2 0x11A0 DUP3 ADD MSTORE PUSH32 0x742E6C656E6774683E30297B72656D6F76654C6F6164696E67526F7728293B24 PUSH2 0x11C0 DUP3 ADD MSTORE PUSH32 0x2827237461626C652D626F647927292E617070656E6428603C747220636C6173 PUSH2 0x11E0 DUP3 ADD MSTORE PUSH32 0x733D277461626C652D726F77206C696768742D6267206C696768742D626F7264 PUSH2 0x1200 DUP3 ADD MSTORE PUSH32 0x6572206C696768742D74657874273E3C746420636C6173733D276C696768742D PUSH2 0x1220 DUP3 ADD MSTORE PUSH32 0x6267272077696474683D273330252720616C69676E3D2763656E746572273E3C PUSH2 0x1240 DUP3 ADD MSTORE PUSH32 0x666F6E7420636C6173733D27736D616C6C5F74657874273E3C6120636C617373 PUSH2 0x1260 DUP3 ADD MSTORE PUSH32 0x3D276C696768742D6C696E6B27207461726765743D275F626C616E6B27206872 PUSH2 0x1280 DUP3 ADD MSTORE PUSH32 0x65663D2700000000000000000000000000000000000000000000000000000000 PUSH2 0x12A0 DUP3 ADD MSTORE POP JUMP JUMPDEST PUSH0 PUSH2 0x1EDB PUSH2 0x12A4 DUP4 PUSH2 0x2A5 JUMP JUMPDEST SWAP2 POP PUSH2 0x1EE6 DUP3 PUSH2 0x7FA JUMP JUMPDEST PUSH2 0x12A4 DUP3 ADD SWAP1 POP SWAP2 SWAP1 POP JUMP JUMPDEST PUSH32 0x273E546A6F3C2F613E3C2F623E3C666F6E743E3C2F74643E3C746420616C6967 PUSH0 DUP3 ADD MSTORE PUSH32 0x6E3D277269676874272077696474683D273730252720636C6173733D276C6967 PUSH1 0x20 DUP3 ADD MSTORE PUSH32 0x68742D6267206C696768742D6C696E6B273E3C64697620636C6173733D27706F PUSH1 0x40 DUP3 ADD MSTORE PUSH32 0x7374496E666F206465736B746F70273E3C7370616E20636C6173733D27706F73 PUSH1 0x60 DUP3 ADD MSTORE PUSH32 0x744E756D206465736B746F70273E3C6120636C6173733D276C696768742D6C69 PUSH1 0x80 DUP3 ADD MSTORE PUSH32 0x6E6B27207374796C653D27666F6E742D73697A653A313270783B272068726566 PUSH1 0xA0 DUP3 ADD MSTORE PUSH32 0x3D2768747470733A2F2F65746865727363616E2E696F2F74782F247B7472616E PUSH1 0xC0 DUP3 ADD MSTORE PUSH32 0x73616374696F6E54657874732E686173687D27207461726765743D275F626C61 PUSH1 0xE0 DUP3 ADD MSTORE PUSH32 0x6E6B27207469746C653D274C696E6B20746F2074686973207472616E73616374 PUSH2 0x100 DUP3 ADD MSTORE PUSH32 0x696F6E2720636C6173733D276C696768742D6C696E6B273E20247B7472616E73 PUSH2 0x120 DUP3 ADD MSTORE PUSH32 0x616374696F6E54657874732E666F726D617474656454696D657D203C696D6720 PUSH2 0x140 DUP3 ADD MSTORE PUSH32 0x7374796C653D272D7765626B69742D626F782D616C69676E3A20626173656C69 PUSH2 0x160 DUP3 ADD MSTORE PUSH32 0x6E653B2777696474683D27313070783B27206865696768743D27313070782720 PUSH2 0x180 DUP3 ADD MSTORE PUSH32 0x7374796C653D27766572746963616C2D616C69676E3A206D6964646C653B2720 PUSH2 0x1A0 DUP3 ADD MSTORE PUSH32 0x7372633D27646174613A696D6167652F7376672B786D6C3B6261736536342C50 PUSH2 0x1C0 DUP3 ADD MSTORE PUSH32 0x484E325A79423361575230614430694D54497A4969426F5A576C6E6148513949 PUSH2 0x1E0 DUP3 ADD MSTORE PUSH32 0x6A45794D794967646D6C6C64304A76654430694D434177494445794D7941784D PUSH2 0x200 DUP3 ADD MSTORE PUSH32 0x6A4D6949475A7062477739496D3576626D5569494868746247357A50534A6F64 PUSH2 0x220 DUP3 ADD MSTORE PUSH32 0x4852774F693876643364334C6E637A4C6D39795A7938794D4441774C334E325A PUSH2 0x240 DUP3 ADD MSTORE PUSH32 0x79492B44516F38634746306143426B50534A4E4D6A55754E7A6B674E5467754E PUSH2 0x260 DUP3 ADD MSTORE PUSH32 0x4445304F554D794E5334334F544178494455334C6A637A4E5463674D6A55754F PUSH2 0x280 DUP3 ADD MSTORE PUSH32 0x5449304E4341314E7934774E6A4D7A494449324C6A45344E5445674E5459754E PUSH2 0x2A0 DUP3 ADD MSTORE PUSH32 0x444D324D554D794E6934304E445534494455314C6A67774F5341794E6934344D PUSH2 0x2C0 DUP3 ADD MSTORE PUSH32 0x6A6334494455314C6A497A4F5459674D6A63754D7A41354D6941314E4334334E PUSH2 0x2E0 DUP3 ADD MSTORE PUSH32 0x6A4131517A49334C6A63354D4463674E5451754D6A67784E4341794F43347A4E PUSH2 0x300 DUP3 ADD MSTORE PUSH32 0x6A45354944557A4C6A6B774D6A45674D6A67754F546B774D7941314D7934324E PUSH2 0x320 DUP3 ADD MSTORE PUSH32 0x445130517A49354C6A59784F4463674E544D754D7A67324E79417A4D4334794F PUSH2 0x340 DUP3 ADD MSTORE PUSH32 0x5445344944557A4C6A49314E5463674D7A41754F5463784944557A4C6A49314F PUSH2 0x360 DUP3 ADD MSTORE PUSH32 0x446C4D4D7A6B754E5459784944557A4C6A49344E6A6C444E4441754F544D774E PUSH2 0x380 DUP3 ADD MSTORE PUSH32 0x5341314D7934794F445935494451794C6A49304E4341314D7934344D7A45674E PUSH2 0x3A0 DUP3 ADD MSTORE PUSH32 0x444D754D6A45794E4341314E4334334F546B30517A51304C6A45344D446B674E PUSH2 0x3C0 DUP3 ADD MSTORE PUSH32 0x5455754E7A59334F4341304E4334334D6A55674E5463754D4467784D7941304E PUSH2 0x3E0 DUP3 ADD MSTORE PUSH32 0x4334334D6A55674E5467754E4455774F5659354D4334354D7A4135517A51314C PUSH2 0x400 DUP3 ADD MSTORE PUSH32 0x6A59354D6941354D4334324E444D35494451324C6A6B7A4E4341354D43347A4D PUSH2 0x420 DUP3 ADD MSTORE PUSH32 0x7A6335494451344C6A49354D7941354D4334774D546335517A51354C6A497A4E PUSH2 0x440 DUP3 ADD MSTORE PUSH32 0x7941344F5334334F545979494455774C6A41334F444D674F446B754D6A597949 PUSH2 0x460 DUP3 ADD MSTORE PUSH32 0x4455774C6A59344D4455674F4467754E5441784F554D314D5334794F44493249 PUSH2 0x480 DUP3 ADD MSTORE PUSH32 0x4467334C6A63304D5467674E5445754E6A45774D6941344E6934344D44413249 PUSH2 0x4A0 DUP3 ADD MSTORE PUSH32 0x4455784C6A5978494467314C6A677A4D446C574E4455754E5451774F554D314D PUSH2 0x4C0 DUP3 ADD MSTORE PUSH32 0x5334324D5341304E4334784E7A4579494455794C6A45314E4341304D6934344E PUSH2 0x4E0 DUP3 ADD MSTORE PUSH32 0x5463324944557A4C6A45794D6A51674E4445754F446735517A55304C6A41354D PUSH2 0x500 DUP3 ADD MSTORE PUSH32 0x4467674E4441754F5449774E4341314E5334304D44517A494451774C6A4D334E PUSH2 0x520 DUP3 ADD MSTORE PUSH32 0x6A49674E5459754E7A6330494451774C6A4D334E546C494E6A55754D7A677851 PUSH2 0x540 DUP3 ADD MSTORE PUSH32 0x7A59324C6A63314D4459674E4441754D7A63324D6941324F4334774E6A517849 PUSH2 0x560 DUP3 ADD MSTORE PUSH32 0x4451774C6A6B794D4451674E6A6B754D444D794E5341304D5334344F446C444E PUSH2 0x580 DUP3 ADD MSTORE PUSH32 0x7A41754D4441774F5341304D6934344E546332494463774C6A55304E5341304E PUSH2 0x5A0 DUP3 ADD MSTORE PUSH32 0x4334784E7A4579494463774C6A55304E5341304E5334314E444135566A67794C PUSH2 0x5C0 DUP3 ADD MSTORE PUSH32 0x6A6B7A4D7A6C444E7A41754E545131494467794C6A6B7A4D7A6B674E7A49754E PUSH2 0x5E0 DUP3 ADD MSTORE PUSH32 0x7941344D6934774E6A4535494463304C6A63354F5341344D5334784E7A553551 PUSH2 0x600 DUP3 ADD MSTORE PUSH32 0x7A63314C6A55334F4463674F4441754F4451324D6941334E6934794E44517849 PUSH2 0x620 DUP3 ADD MSTORE PUSH32 0x4467774C6A49354E4445674E7A59754E7A45794D6941334F5334314F44673251 PUSH2 0x640 DUP3 ADD MSTORE PUSH32 0x7A63334C6A45344D444D674E7A67754F44677A4D6941334E7934304D7A417949 PUSH2 0x660 DUP3 ADD MSTORE PUSH32 0x4463344C6A41314E5455674E7A63754E444D78494463334C6A49774F446C574D PUSH2 0x680 DUP3 ADD MSTORE PUSH32 0x7A49754E6A4D774F554D334E7934304D7A45674D7A45754D6A59784E5341334E PUSH2 0x6A0 DUP3 ADD MSTORE PUSH32 0x7934354E7A5135494449354C6A6B304F4445674E7A67754F54517A4D5341794F PUSH2 0x6C0 DUP3 ADD MSTORE PUSH32 0x4334354E7A6B33517A63354C6A6B784D544D674D6A67754D4445784D7941344D PUSH2 0x6E0 DUP3 ADD MSTORE PUSH32 0x5334794D6A5131494449334C6A51324E7A49674F4449754E546B7A4F5341794E PUSH2 0x700 DUP3 ADD MSTORE PUSH32 0x7934304E6A593553446B784C6A49774D554D354D6934314E7A4132494449334C PUSH2 0x720 DUP3 ADD MSTORE PUSH32 0x6A51324E6A6B674F544D754F446730494449344C6A41784D446B674F5451754F PUSH2 0x740 DUP3 ADD MSTORE PUSH32 0x4455794E5341794F4334354E7A6B30517A6B314C6A67794D446B674D6A6B754F PUSH2 0x760 DUP3 ADD MSTORE PUSH32 0x5451334F4341354E69347A4E6A55674D7A45754D6A59784D7941354E69347A4E PUSH2 0x780 DUP3 ADD MSTORE PUSH32 0x6A55674D7A49754E6A4D774F5659324F53347A4D7A6B35517A45774D7934344D PUSH2 0x7A0 DUP3 ADD MSTORE PUSH32 0x6A63674E6A4D754F544D784F5341784D5445754D7A6735494455334C6A51794E PUSH2 0x7C0 DUP3 ADD MSTORE PUSH32 0x7A6B674D5445334C6A4D35494451354C6A59774E6A6C444D5445344C6A49324D PUSH2 0x7E0 DUP3 ADD MSTORE PUSH32 0x5341304F4334304E7A4533494445784F4334344D7A63674E4463754D544D344E PUSH2 0x800 DUP3 ADD MSTORE PUSH32 0x6941784D546B754D445933494451314C6A63794E6A64444D5445354C6A49354E PUSH2 0x820 DUP3 ADD MSTORE PUSH32 0x7941304E43347A4D545134494445784F5334784E7A51674E4449754F4459334F PUSH2 0x840 DUP3 ADD MSTORE PUSH32 0x4341784D5467754E7A4135494451784C6A55784E446C444D5445314C6A6B7A4D PUSH2 0x860 DUP3 ADD MSTORE PUSH32 0x53417A4D7934314D6A4933494445784D5334314D5459674D6A59754D546B344D PUSH2 0x880 DUP3 ADD MSTORE PUSH32 0x7941784D4455754E7A5131494449774C6A41784D4456444F546B754F54633049 PUSH2 0x8A0 DUP3 ADD MSTORE PUSH32 0x44457A4C6A67794D6A67674F5449754F5463304F5341344C6A6B774E7A673149 PUSH2 0x8C0 DUP3 ADD MSTORE PUSH32 0x4467314C6A45354E5455674E5334314F44417A4D6B4D334E7934304D54597849 PUSH2 0x8E0 DUP3 ADD MSTORE PUSH32 0x4449754D6A55794F4341324F5334774D6A6333494441754E5467314F544D3449 PUSH2 0x900 DUP3 ADD MSTORE PUSH32 0x4459774C6A55324E7A45674D4334324F4459304D545A444E5449754D5441324E PUSH2 0x920 DUP3 ADD MSTORE PUSH32 0x5341774C6A63344E6A67354D7941304D7934334E6A4178494449754E6A55794E PUSH2 0x940 DUP3 ADD MSTORE PUSH32 0x53417A4E6934774E6A49674E6934784E6A4D344D304D794F43347A4E6A4D3449 PUSH2 0x960 DUP3 ADD MSTORE PUSH32 0x446B754E6A63314D5463674D6A45754E44677A4E4341784E4334334E54513549 PUSH2 0x980 DUP3 ADD MSTORE PUSH32 0x4445314C6A67324D5445674D6A45754D446334517A45774C6A497A4F4467674D PUSH2 0x9A0 DUP3 ADD MSTORE PUSH32 0x6A63754E444178494455754F546B344E4449674D7A51754F4449344D69417A4C PUSH2 0x9C0 DUP3 ADD MSTORE PUSH32 0x6A51784D544D78494451794C6A67344E444A444D4334344D6A51794D4463674E PUSH2 0x9E0 DUP3 ADD MSTORE PUSH32 0x5441754F5451774D5341744D4334774E5449324E446733494455354C6A51304E PUSH2 0xA00 DUP3 ADD MSTORE PUSH32 0x7A51674D4334344D7A59344E5445674E6A63754F4459784E304D784C6A63794E PUSH2 0xA20 DUP3 ADD MSTORE PUSH32 0x6A4D31494463324C6A49334E6941304C6A4D324D6A597A494467304C6A51784D PUSH2 0xA40 DUP3 ADD MSTORE PUSH32 0x546B674F4334314E7A59354E6941354D5334334E446735517A6B754D7A45784D PUSH2 0xA60 DUP3 ADD MSTORE PUSH32 0x5445674F544D754D4445304E5341784D43347A4F54457949446B304C6A41304E PUSH2 0xA80 DUP3 ADD MSTORE PUSH32 0x4451674D5445754E6A6B774D7941354E4334334D546331517A45794C6A6B344F PUSH2 0xAA0 DUP3 ADD MSTORE PUSH32 0x5451674F5455754D7A6B774E6941784E4334304E544D3249446B314C6A59334F PUSH2 0xAC0 DUP3 ADD MSTORE PUSH32 0x5341784E5334354D5445674F5455754E5451344F554D784E7934314D7A6B674F PUSH2 0xAE0 DUP3 ADD MSTORE PUSH32 0x5455754E4441314F5341784F5334314E6A59674F5455754D6A41794F5341794D PUSH2 0xB00 DUP3 ADD MSTORE PUSH32 0x5334354E7A59674F5451754F5445354F554D794D7934774D6A557849446B304C PUSH2 0xB20 DUP3 ADD MSTORE PUSH32 0x6A67774D4467674D6A4D754F546B7A4E7941354E4334794F546B35494449304C PUSH2 0xB40 DUP3 ADD MSTORE PUSH32 0x6A59354E7A49674F544D754E5445794E6B4D794E5334304D44413449446B794C PUSH2 0xB60 DUP3 ADD MSTORE PUSH32 0x6A63794E544D674D6A55754E7A6B774D5341354D5334334D445933494449314C PUSH2 0xB80 DUP3 ADD MSTORE PUSH32 0x6A63354D5341354D4334324E544135544449314C6A6335494455344C6A51784E PUSH2 0xBA0 DUP3 ADD MSTORE PUSH32 0x446C614969426D615778735053496A4D6A457A4D6A56434969382B44516F3863 PUSH2 0xBC0 DUP3 ADD MSTORE PUSH32 0x4746306143426B50534A4E4D6A55754E6A41794D5341784D5441754E5446444D PUSH2 0xBE0 DUP3 ADD MSTORE PUSH32 0x7A51754E6A63304E4341784D5463754D5445674E4455754D7A6B314F5341784D PUSH2 0xC00 DUP3 ADD MSTORE PUSH32 0x6A45754D446379494455324C6A55344D4449674D5449784C6A6B314E304D324E PUSH2 0xC20 DUP3 ADD MSTORE PUSH32 0x7934334E6A5132494445794D6934344E4445674E7A67754F5463314E7941784D PUSH2 0xC40 DUP3 ADD MSTORE PUSH32 0x6A41754E6A4531494467344C6A6B334D7A45674D5445314C6A55794D304D354F PUSH2 0xC60 DUP3 ADD MSTORE PUSH32 0x4334354E7A4131494445784D4334304D7A45674D5441334C6A4D324E4341784D PUSH2 0xC80 DUP3 ADD MSTORE PUSH32 0x4449754E6A637A494445784D7934794D6A59674F544D754D5441324F454D784D PUSH2 0xCA0 DUP3 ADD MSTORE PUSH32 0x546B754D4467334944677A4C6A55304D4455674D5449794C6A45344F4341334D PUSH2 0xCC0 DUP3 ADD MSTORE PUSH32 0x6934314D7A6B674D5449794C6A45344E5341324D53347A4D546B33517A45794D PUSH2 0xCE0 DUP3 ADD MSTORE PUSH32 0x6934784F4455674E546B754F5445354E7941784D6A49754D5449674E5467754E PUSH2 0xD00 DUP3 ADD MSTORE PUSH32 0x544D304E7941784D6A49754D444933494455334C6A45314E7A64444F546B754F PUSH2 0xD20 DUP3 ADD MSTORE PUSH32 0x44413449446B774C6A49354E5463674E5467754E7A677A4D5341784D4455754E PUSH2 0xD40 DUP3 ADD MSTORE PUSH32 0x7A6734494449314C6A59774E4341784D5441754E5441314969426D6157787350 PUSH2 0xD60 DUP3 ADD MSTORE PUSH32 0x53496A4F5463354E6A6B314969382B44516F384C334E325A7A344E43673D3D27 PUSH2 0xD80 DUP3 ADD MSTORE PUSH32 0x2F3E3C2F613E3C2F7370616E3E3C2F6469763E3C2F74643E3C2F74723E3C7472 PUSH2 0xDA0 DUP3 ADD MSTORE PUSH32 0x3E3C74642076616C69676E3D276D6964646C652720616C69676E3D276C656674 PUSH2 0xDC0 DUP3 ADD MSTORE PUSH32 0x2720636C6173733D276C696768742D6267273E3C756C20616C69676E3D276C65 PUSH2 0xDE0 DUP3 ADD MSTORE PUSH32 0x667427207374796C653D2770616464696E672D6C6566743A20313570783B666F PUSH2 0xE00 DUP3 ADD MSTORE PUSH32 0x6E742D73697A653A20313070783B273E3C6C6920636C6173733D276C69676874 PUSH2 0xE20 DUP3 ADD MSTORE PUSH32 0x2D746578742D33273E426C6F636B3A20247B7472616E73616374696F6E546578 PUSH2 0xE40 DUP3 ADD MSTORE PUSH32 0x74732E626C6F636B7D3C2F6C693E3C6C6920636C6173733D276C696768742D74 PUSH2 0xE60 DUP3 ADD MSTORE PUSH32 0x6578742D33273E4C6F636174696F6E3A20554E4B4E4F574E3C2F6C693E3C2F75 PUSH2 0xE80 DUP3 ADD MSTORE PUSH32 0x6C3E3C2F74643E3C746420616C69676E3D2763656E746572272076616C69676E PUSH2 0xEA0 DUP3 ADD MSTORE PUSH32 0x3D276D6964646C652720636C6173733D276C696768742D6267273E3C666F6E74 PUSH2 0xEC0 DUP3 ADD MSTORE PUSH32 0x20636C6173733D27726567756C61725F74657874273E3C64697620636C617373 PUSH2 0xEE0 DUP3 ADD MSTORE PUSH32 0x3D27706F7374207265706C79273E3C626C6F636B71756F7465207374796C653D PUSH2 0xF00 DUP3 ADD MSTORE PUSH32 0x2777686974652D73706163653A207072652D6C696E653B6D617267696E2D746F PUSH2 0xF20 DUP3 ADD MSTORE PUSH32 0x703A3070783B2720636C6173733D27706F73744D657373616765206C69676874 PUSH2 0xF40 DUP3 ADD MSTORE PUSH32 0x2D746578742D32272069643D276D3334303739393833273E3C62723E247B7472 PUSH2 0xF60 DUP3 ADD MSTORE PUSH32 0x616E73616374696F6E54657874732E746578747D3C2F626C6F636B71756F7465 PUSH2 0xF80 DUP3 ADD MSTORE PUSH32 0x3E3C2F6469763E3C2F666F6E743E3C2F74643E3C2F74723E60293B617070656E PUSH2 0xFA0 DUP3 ADD MSTORE PUSH32 0x644C6F6164696E67526F7728293B6966286D6F64653D3D3D31297B7365744461 PUSH2 0xFC0 DUP3 ADD MSTORE PUSH32 0x726B28297D656C73657B7365744C6967687428297D7D7D66756E6374696F6E20 PUSH2 0xFE0 DUP3 ADD MSTORE PUSH32 0x736F7274427954696D6528612C62297B72657475726E20612E74696D653E622E PUSH2 0x1000 DUP3 ADD MSTORE PUSH32 0x74696D653F313A2D317D66756E6374696F6E20757064617465436C6F636B2829 PUSH2 0x1020 DUP3 ADD MSTORE PUSH32 0x7B636F6E7374206E6F773D6E657720446174653B636F6E737420686F7572733D PUSH2 0x1040 DUP3 ADD MSTORE PUSH32 0x537472696E67286E6F772E676574486F7572732829292E706164537461727428 PUSH2 0x1060 DUP3 ADD MSTORE PUSH32 0x322C273027293B636F6E7374206D696E757465733D537472696E67286E6F772E PUSH2 0x1080 DUP3 ADD MSTORE PUSH32 0x6765744D696E757465732829292E706164537461727428322C273027293B636F PUSH2 0x10A0 DUP3 ADD MSTORE PUSH32 0x6E7374207365636F6E64733D537472696E67286E6F772E6765745365636F6E64 PUSH2 0x10C0 DUP3 ADD MSTORE PUSH32 0x732829292E706164537461727428322C273027293B636F6E7374206D6F6E7468 PUSH2 0x10E0 DUP3 ADD MSTORE PUSH32 0x4E616D65733D5B274A616E75617279272C274665627275617279272C274D6172 PUSH2 0x1100 DUP3 ADD MSTORE PUSH32 0x6368272C27417072696C272C274D6179272C274A756E65272C274A756C79272C PUSH2 0x1120 DUP3 ADD MSTORE PUSH32 0x27417567757374272C2753657074656D626572272C274F63746F626572272C27 PUSH2 0x1140 DUP3 ADD MSTORE PUSH32 0x4E6F76656D626572272C27446563656D626572275D3B636F6E7374206D6F6E74 PUSH2 0x1160 DUP3 ADD MSTORE PUSH32 0x683D6D6F6E74684E616D65735B6E6F772E6765744D6F6E746828295D3B636F6E PUSH2 0x1180 DUP3 ADD MSTORE PUSH32 0x7374206461793D6E6F772E6765744461746528293B636F6E737420796561723D PUSH2 0x11A0 DUP3 ADD MSTORE PUSH32 0x6E6F772E67657446756C6C5965617228293B636F6E7374207375666669783D64 PUSH2 0x11C0 DUP3 ADD MSTORE PUSH32 0x61793D3E7B6966286461793E3326266461793C32312972657475726E27746827 PUSH2 0x11E0 DUP3 ADD MSTORE PUSH32 0x3B73776974636828646179253130297B6361736520313A72657475726E277374 PUSH2 0x1200 DUP3 ADD MSTORE PUSH32 0x273B6361736520323A72657475726E276E64273B6361736520333A7265747572 PUSH2 0x1220 DUP3 ADD MSTORE PUSH32 0x6E277264273B64656661756C743A72657475726E277468277D7D3B636F6E7374 PUSH2 0x1240 DUP3 ADD MSTORE PUSH32 0x2066756C6C446174653D60247B6D6F6E74687D20247B6461797D247B73756666 PUSH2 0x1260 DUP3 ADD MSTORE PUSH32 0x697828646179297D2C20247B796561727D20247B686F7572737D3A247B6D696E PUSH2 0x1280 DUP3 ADD MSTORE PUSH32 0x757465737D3A247B7365636F6E64737D603B2428272E63757272656E742D7469 PUSH2 0x12A0 DUP3 ADD MSTORE PUSH32 0x6D6527292E746578742866756C6C44617465297D736574496E74657276616C28 PUSH2 0x12C0 DUP3 ADD MSTORE PUSH32 0x757064617465436C6F636B2C316533293B757064617465436C6F636B28293B24 PUSH2 0x12E0 DUP3 ADD MSTORE PUSH32 0x28646F63756D656E74292E7265616479282866756E6374696F6E28297B242827 PUSH2 0x1300 DUP3 ADD MSTORE PUSH32 0x23706F73742D7772617070657227292E66616465496E28297D29293B66756E63 PUSH2 0x1320 DUP3 ADD MSTORE PUSH32 0x74696F6E207365744461726B28297B242827236D6F64652D7377697463682729 PUSH2 0x1340 DUP3 ADD MSTORE PUSH32 0x2E637373282766696C746572272C27696E76657274282E37352927293B242827 PUSH2 0x1360 DUP3 ADD MSTORE PUSH32 0x2E6C696768742D7465787427292E72656D6F7665436C61737328276C69676874 PUSH2 0x1380 DUP3 ADD MSTORE PUSH32 0x2D7465787427292E616464436C61737328276461726B2D7465787427293B2428 PUSH2 0x13A0 DUP3 ADD MSTORE PUSH32 0x272E6C696768742D746578742D3227292E72656D6F7665436C61737328276C69 PUSH2 0x13C0 DUP3 ADD MSTORE PUSH32 0x6768742D746578742D3227292E616464436C61737328276461726B2D74657874 PUSH2 0x13E0 DUP3 ADD MSTORE PUSH32 0x2D3227293B2428272E6C696768742D746578742D3327292E72656D6F7665436C PUSH2 0x1400 DUP3 ADD MSTORE PUSH32 0x61737328276C696768742D746578742D3327292E616464436C61737328276461 PUSH2 0x1420 DUP3 ADD MSTORE PUSH32 0x726B2D746578742D3327293B2428272E6C696768742D746578742D3427292E72 PUSH2 0x1440 DUP3 ADD MSTORE PUSH32 0x656D6F7665436C61737328276C696768742D746578742D3427292E616464436C PUSH2 0x1460 DUP3 ADD MSTORE PUSH32 0x61737328276461726B2D746578742D3427293B2428272E6C696768742D626727 PUSH2 0x1480 DUP3 ADD MSTORE PUSH32 0x292E72656D6F7665436C61737328276C696768742D626727292E616464436C61 PUSH2 0x14A0 DUP3 ADD MSTORE PUSH32 0x737328276461726B2D626727293B2428272E6C696768742D62672D3227292E72 PUSH2 0x14C0 DUP3 ADD MSTORE PUSH32 0x656D6F7665436C61737328276C696768742D62672D3227292E616464436C6173 PUSH2 0x14E0 DUP3 ADD MSTORE PUSH32 0x7328276461726B2D62672D3227293B2428272E6C696768742D626F726465722D PUSH2 0x1500 DUP3 ADD MSTORE PUSH32 0x3227292E72656D6F7665436C61737328276C696768742D626F726465722D3227 PUSH2 0x1520 DUP3 ADD MSTORE PUSH32 0x292E616464436C61737328276461726B2D626F726465722D3227293B2428272E PUSH2 0x1540 DUP3 ADD MSTORE PUSH32 0x6C696768742D626F7264657227292E72656D6F7665436C61737328276C696768 PUSH2 0x1560 DUP3 ADD MSTORE PUSH32 0x742D626F7264657227292E616464436C61737328276461726B2D626F72646572 PUSH2 0x1580 DUP3 ADD MSTORE PUSH32 0x27293B2428272E6C696768742D6C696E6B27292E72656D6F7665436C61737328 PUSH2 0x15A0 DUP3 ADD MSTORE PUSH32 0x276C696768742D6C696E6B27292E616464436C61737328276461726B2D6C696E PUSH2 0x15C0 DUP3 ADD MSTORE PUSH32 0x6B27297D66756E6374696F6E207365744C6967687428297B242827236D6F6465 PUSH2 0x15E0 DUP3 ADD MSTORE PUSH32 0x2D73776974636827292E637373282766696C746572272C27696E766572742830 PUSH2 0x1600 DUP3 ADD MSTORE PUSH32 0x2927293B2428272E6461726B2D7465787427292E72656D6F7665436C61737328 PUSH2 0x1620 DUP3 ADD MSTORE PUSH32 0x276461726B2D7465787427292E616464436C61737328276C696768742D746578 PUSH2 0x1640 DUP3 ADD MSTORE PUSH32 0x7427293B2428272E6461726B2D746578742D3227292E72656D6F7665436C6173 PUSH2 0x1660 DUP3 ADD MSTORE PUSH32 0x7328276461726B2D746578742D3227292E616464436C61737328276C69676874 PUSH2 0x1680 DUP3 ADD MSTORE PUSH32 0x2D746578742D3227293B2428272E6461726B2D746578742D3327292E72656D6F PUSH2 0x16A0 DUP3 ADD MSTORE PUSH32 0x7665436C61737328276461726B2D746578742D3327292E616464436C61737328 PUSH2 0x16C0 DUP3 ADD MSTORE PUSH32 0x276C696768742D746578742D3327293B2428272E6461726B2D746578742D3427 PUSH2 0x16E0 DUP3 ADD MSTORE PUSH32 0x292E72656D6F7665436C61737328276461726B2D746578742D3427292E616464 PUSH2 0x1700 DUP3 ADD MSTORE PUSH32 0x436C61737328276C696768742D746578742D3427293B2428272E6461726B2D62 PUSH2 0x1720 DUP3 ADD MSTORE PUSH32 0x6727292E72656D6F7665436C61737328276461726B2D626727292E616464436C PUSH2 0x1740 DUP3 ADD MSTORE PUSH32 0x61737328276C696768742D626727293B2428272E6461726B2D62672D3227292E PUSH2 0x1760 DUP3 ADD MSTORE PUSH32 0x72656D6F7665436C61737328276461726B2D62672D3227292E616464436C6173 PUSH2 0x1780 DUP3 ADD MSTORE PUSH32 0x7328276C696768742D62672D3227293B2428272E6461726B2D626F726465722D PUSH2 0x17A0 DUP3 ADD MSTORE PUSH32 0x3227292E72656D6F7665436C61737328276461726B2D626F726465722D322729 PUSH2 0x17C0 DUP3 ADD MSTORE PUSH32 0x2E616464436C61737328276C696768742D626F726465722D3227293B2428272E PUSH2 0x17E0 DUP3 ADD MSTORE PUSH32 0x6461726B2D626F7264657227292E72656D6F7665436C61737328276461726B2D PUSH2 0x1800 DUP3 ADD MSTORE PUSH32 0x626F7264657227292E616464436C61737328276C696768742D626F7264657227 PUSH2 0x1820 DUP3 ADD MSTORE PUSH32 0x293B2428272E6461726B2D6C696E6B27292E72656D6F7665436C617373282764 PUSH2 0x1840 DUP3 ADD MSTORE PUSH32 0x61726B2D6C696E6B27292E616464436C61737328276C696768742D6C696E6B27 PUSH2 0x1860 DUP3 ADD MSTORE PUSH32 0x297D66756E6374696F6E20746F67676C654D6F646528297B6966286D6F64653D PUSH2 0x1880 DUP3 ADD MSTORE PUSH32 0x3D3D30297B6D6F64653D313B7365744461726B28297D656C73657B6D6F64653D PUSH2 0x18A0 DUP3 ADD MSTORE PUSH32 0x303B7365744C6967687428297D242827236D6F64652D73776974636827292E62 PUSH2 0x18C0 DUP3 ADD MSTORE PUSH32 0x6C757228297D3C2F7363726970743E0000000000000000000000000000000000 PUSH2 0x18E0 DUP3 ADD MSTORE POP JUMP JUMPDEST PUSH0 PUSH2 0x3D71 PUSH2 0x18EF DUP4 PUSH2 0x2A5 JUMP JUMPDEST SWAP2 POP PUSH2 0x3D7C DUP3 PUSH2 0x1EF2 JUMP JUMPDEST PUSH2 0x18EF DUP3 ADD SWAP1 POP SWAP2 SWAP1 POP JUMP JUMPDEST PUSH0 PUSH2 0x3D92 DUP3 PUSH2 0x2FD JUMP JUMPDEST SWAP2 POP PUSH2 0x3D9E DUP3 DUP9 PUSH2 0x38E JUMP JUMPDEST SWAP2 POP PUSH2 0x3DA9 DUP3 PUSH2 0x482 JUMP JUMPDEST SWAP2 POP PUSH2 0x3DB5 DUP3 DUP8 PUSH2 0x4A4 JUMP JUMPDEST SWAP2 POP PUSH2 0x3DC0 DUP3 PUSH2 0x4FC JUMP JUMPDEST SWAP2 POP PUSH2 0x3DCC DUP3 DUP7 PUSH2 0x38E JUMP JUMPDEST SWAP2 POP PUSH2 0x3DD7 DUP3 PUSH2 0x7D6 JUMP JUMPDEST SWAP2 POP PUSH2 0x3DE3 DUP3 DUP6 PUSH2 0x38E JUMP JUMPDEST SWAP2 POP PUSH2 0x3DEE DUP3 PUSH2 0x1ECE JUMP JUMPDEST SWAP2 POP PUSH2 0x3DFA DUP3 DUP5 PUSH2 0x38E JUMP JUMPDEST SWAP2 POP PUSH2 0x3E05 DUP3 PUSH2 0x3D64 JUMP JUMPDEST SWAP2 POP DUP2 SWAP1 POP SWAP7 SWAP6 POP POP POP POP POP POP JUMP INVALID LOG2 PUSH5 0x6970667358 0x22 SLT KECCAK256 PUSH0 RETURNDATACOPY ADD 0xDE SLT CHAINID AND 0xB1 PUSH5 0x76D9DBF7CC 0xEA 0xD4 0xB3 DUP9 PUSH5 0x946D487533 0xE3 MULMOD 0xD5 0x2C 0x2B DUP4 0x4F STATICCALL PUSH5 0x736F6C6343 STOP ADDMOD BYTE STOP CALLER PUSH9 0x747470733A2F2F6170 PUSH10 0x2E65746865727363616E 0x2E PUSH10 0x6F2F6170693F6D6F6475 PUSH13 0x653D6163636F756E7426616374 PUSH10 0x6F6E3D74786C69737426 PUSH2 0x6464 PUSH19 0x6573733D307830303261336265363362336233 BALANCE ORIGIN PUSH5 0x6135643538 PUSH6 0x623032643262 CALLVALUE CODESIZE CODESIZE CALLDATASIZE CODECOPY PUSH3 0x343665 PUSH4 0x38322673 PUSH21 0x617274626C6F636B3D3026656E64626C6F636B3D39 CODECOPY CODECOPY CODECOPY CODECOPY CODECOPY CODECOPY CODECOPY 0x26 PUSH17 0x6167653D31266F66667365743D31303030 ADDRESS 0x26 PUSH20 0x6F72743D617363266170696B65793D5335325145 BLOBBASEFEE PC CALLVALUE CHAINID 0x4B 0x4E NUMBER MSTORE8 CALLDATACOPY CODECOPY 0x4B CODESIZE CALLDATACOPY PC 0x4E PC NUMBER COINBASE JUMP PC 0x4E POP GAS CALLER MSIZE CODECOPY CODECOPY PC BLOBHASH PUSH9 0x747470733A2F2F6D61 PUSH10 0x6E6E65742E696E667572 PUSH2 0x2E69 PUSH16 0x2F76332F646434333462373063366137 CALLVALUE CODESIZE CALLDATACOPY PUSH4 0x39326566 PUSH5 0x6465643133 PUSH6 0x376631613300 "
				},
				"gasEstimates": {
					"creation": {
						"codeDepositCost": "3189200",
						"executionCost": "infinite",
						"totalCost": "infinite"
					},
					"external": {
						"getScript(string)": "infinite"
					}
				},
				"methodIdentifiers": {
					"getScript(string)": "527385ad"
				}
			},
			"storageLayout": {
				"storage": [
					{
						"astId": 4,
						"contract": "ProzacYouthEngine_2.sol:ProzacYouthEngine_2",
						"label": "_infura",
						"offset": 0,
						"slot": "0",
						"type": "t_string_storage"
					},
					{
						"astId": 7,
						"contract": "ProzacYouthEngine_2.sol:ProzacYouthEngine_2",
						"label": "_etherscan",
						"offset": 0,
						"slot": "1",
						"type": "t_string_storage"
					},
					{
						"astId": 10,
						"contract": "ProzacYouthEngine_2.sol:ProzacYouthEngine_2",
						"label": "_tjo",
						"offset": 0,
						"slot": "2",
						"type": "t_string_storage"
					},
					{
						"astId": 13,
						"contract": "ProzacYouthEngine_2.sol:ProzacYouthEngine_2",
						"label": "_delay",
						"offset": 0,
						"slot": "3",
						"type": "t_string_storage"
					}
				],
				"types": {
					"t_string_storage": {
						"encoding": "bytes",
						"label": "string",
						"numberOfBytes": "32"
					}
				}
			},
			"userdoc": {
				"kind": "user",
				"methods": {},
				"version": 1
			}
		}
	}
}