{
	"data": {
		"bytecode": {
			"linkReferences": {},
			"object": "60806040526040516100109061237d565b604051809103905ff080158015610029573d5f803e3d5ffd5b5060035f6101000a81548173ffffffffffffffffffffffffffffffffffffffff021916908373ffffffffffffffffffffffffffffffffffffffff1602179055506103e86004555f6006555f60075f6101000a81548160ff0219169083151502179055505f600760016101000a81548160ff02191690831515021790555060405180610e4001604052806040518060400160405280600681526020017f386530643030000000000000000000000000000000000000000000000000000081525081526020016040518060400160405280600681526020017f633863363939000000000000000000000000000000000000000000000000000081525081526020016040518060400160405280600681526020017f303631343263000000000000000000000000000000000000000000000000000081525081526020016040518060400160405280600681526020017f633732323663000000000000000000000000000000000000000000000000000081525081526020016040518060400160405280600681526020017f373430303030000000000000000000000000000000000000000000000000000081525081526020016040518060400160405280600681526020017f383737623564000000000000000000000000000000000000000000000000000081525081526020016040518060400160405280600681526020017f653864326139000000000000000000000000000000000000000000000000000081525081526020016040518060400160405280600681526020017f313231353164000000000000000000000000000000000000000000000000000081525081526020016040518060400160405280600681526020017f633462663935000000000000000000000000000000000000000000000000000081525081526020016040518060400160405280600681526020017f643332353837000000000000000000000000000000000000000000000000000081525081526020016040518060400160405280600681526020017f633563616239000000000000000000000000000000000000000000000000000081525081526020016040518060400160405280600681526020017f313731623139000000000000000000000000000000000000000000000000000081525081526020016040518060400160405280600681526020017f626332633065000000000000000000000000000000000000000000000000000081525081526020016040518060400160405280600681526020017f373930323133000000000000000000000000000000000000000000000000000081525081526020016040518060400160405280600681526020017f313332653262000000000000000000000000000000000000000000000000000081525081526020016040518060400160405280600681526020017f393532383332000000000000000000000000000000000000000000000000000081525081526020016040518060400160405280600681526020017f656236353231000000000000000000000000000000000000000000000000000081525081526020016040518060400160405280600681526020017f653364366337000000000000000000000000000000000000000000000000000081525081526020016040518060400160405280600681526020017f663765626533000000000000000000000000000000000000000000000000000081525081526020016040518060400160405280600681526020017f303030333236000000000000000000000000000000000000000000000000000081525081526020016040518060400160405280600681526020017f656465646465000000000000000000000000000000000000000000000000000081525081526020016040518060400160405280600681526020017f643732613266000000000000000000000000000000000000000000000000000081525081526020016040518060400160405280600681526020017f646364376337000000000000000000000000000000000000000000000000000081525081526020016040518060400160405280600681526020017f643764396335000000000000000000000000000000000000000000000000000081525081526020016040518060400160405280600681526020017f393336623030000000000000000000000000000000000000000000000000000081525081526020016040518060400160405280600681526020017f323837363265000000000000000000000000000000000000000000000000000081525081526020016040518060400160405280600681526020017f306231353166000000000000000000000000000000000000000000000000000081525081526020016040518060400160405280600681526020017f613964633937000000000000000000000000000000000000000000000000000081525081526020016040518060400160405280600681526020017f383261356130000000000000000000000000000000000000000000000000000081525081526020016040518060400160405280600681526020017f616539613663000000000000000000000000000000000000000000000000000081525081526020016040518060400160405280600681526020017f626136363662000000000000000000000000000000000000000000000000000081525081526020016040518060400160405280600681526020017f633539653063000000000000000000000000000000000000000000000000000081525081526020016040518060400160405280600681526020017f326133623262000000000000000000000000000000000000000000000000000081525081526020016040518060400160405280600681526020017f303033323833000000000000000000000000000000000000000000000000000081525081526020016040518060400160405280600681526020017f643963666131000000000000000000000000000000000000000000000000000081525081526020016040518060400160405280600681526020017f316631393132000000000000000000000000000000000000000000000000000081525081526020016040518060400160405280600681526020017f314536414538000000000000000000000000000000000000000000000000000081525081526020016040518060400160405280600681526020017f636364316164000000000000000000000000000000000000000000000000000081525081526020016040518060400160405280600681526020017f326439326230000000000000000000000000000000000000000000000000000081525081526020016040518060400160405280600681526020017f316632393531000000000000000000000000000000000000000000000000000081525081526020016040518060400160405280600681526020017f616138303563000000000000000000000000000000000000000000000000000081525081526020016040518060400160405280600681526020017f313331613133000000000000000000000000000000000000000000000000000081525081526020016040518060400160405280600681526020017f613665336138000000000000000000000000000000000000000000000000000081525081526020016040518060400160405280600681526020017f646263376136000000000000000000000000000000000000000000000000000081525081526020016040518060400160405280600681526020017f353737393638000000000000000000000000000000000000000000000000000081525081526020016040518060400160405280600681526020017f653364656230000000000000000000000000000000000000000000000000000081525081526020016040518060400160405280600681526020017f346638343635000000000000000000000000000000000000000000000000000081525081526020016040518060400160405280600681526020017f346135636666000000000000000000000000000000000000000000000000000081525081526020016040518060400160405280600681526020017f646364636335000000000000000000000000000000000000000000000000000081525081526020016040518060400160405280600681526020017f323336323634000000000000000000000000000000000000000000000000000081525081526020016040518060400160405280600681526020017f303231393932000000000000000000000000000000000000000000000000000081525081526020016040518060400160405280600681526020017f366662313537000000000000000000000000000000000000000000000000000081525081526020016040518060400160405280600681526020017f643163323934000000000000000000000000000000000000000000000000000081525081526020016040518060400160405280600681526020017f383763666530000000000000000000000000000000000000000000000000000081525081526020016040518060400160405280600681526020017f373661343766000000000000000000000000000000000000000000000000000081525081526020016040518060400160405280600681526020017f303231303435000000000000000000000000000000000000000000000000000081525081526020016040518060400160405280600681526020017f656464656235000000000000000000000000000000000000000000000000000081525081526020016040518060400160405280600681526020017f313933353733000000000000000000000000000000000000000000000000000081525081526020016040518060400160405280600681526020017f363939626163000000000000000000000000000000000000000000000000000081525081526020016040518060400160405280600681526020017f346636643937000000000000000000000000000000000000000000000000000081525081526020016040518060400160405280600681526020017f313132623733000000000000000000000000000000000000000000000000000081525081526020016040518060400160405280600681526020017f343035333565000000000000000000000000000000000000000000000000000081525081526020016040518060400160405280600681526020017f386364343965000000000000000000000000000000000000000000000000000081525081526020016040518060400160405280600681526020017f333537643736000000000000000000000000000000000000000000000000000081525081526020016040518060400160405280600681526020017f646264346332000000000000000000000000000000000000000000000000000081525081526020016040518060400160405280600681526020017f616438313239000000000000000000000000000000000000000000000000000081525081526020016040518060400160405280600681526020017f633462643939000000000000000000000000000000000000000000000000000081525081526020016040518060400160405280600681526020017f633733323030000000000000000000000000000000000000000000000000000081525081526020016040518060400160405280600681526020017f343734393566000000000000000000000000000000000000000000000000000081525081526020016040518060400160405280600681526020017f653665626462000000000000000000000000000000000000000000000000000081525081526020016040518060400160405280600681526020017f646264346530000000000000000000000000000000000000000000000000000081525081526020016040518060400160405280600681526020017f313133653736000000000000000000000000000000000000000000000000000081525081526020016040518060400160405280600681526020017f376336313365000000000000000000000000000000000000000000000000000081525081526020016040518060400160405280600681526020017f303930643135000000000000000000000000000000000000000000000000000081525081526020016040518060400160405280600681526020017f313331653336000000000000000000000000000000000000000000000000000081525081526020016040518060400160405280600681526020017f633039333238000000000000000000000000000000000000000000000000000081525081526020016040518060400160405280600681526020017f613863326363000000000000000000000000000000000000000000000000000081525081526020016040518060400160405280600681526020017f626439323862000000000000000000000000000000000000000000000000000081525081526020016040518060400160405280600681526020017f653865626530000000000000000000000000000000000000000000000000000081525081526020016040518060400160405280600681526020017f643664656233000000000000000000000000000000000000000000000000000081525081526020016040518060400160405280600681526020017f656265366363000000000000000000000000000000000000000000000000000081525081526020016040518060400160405280600681526020017f663263376230000000000000000000000000000000000000000000000000000081525081526020016040518060400160405280600681526020017f656265366434000000000000000000000000000000000000000000000000000081525081526020016040518060400160405280600681526020017f393838323634000000000000000000000000000000000000000000000000000081525081526020016040518060400160405280600681526020017f306631383236000000000000000000000000000000000000000000000000000081525081526020016040518060400160405280600681526020017f646264656264000000000000000000000000000000000000000000000000000081525081526020016040518060400160405280600681526020017f636661343030000000000000000000000000000000000000000000000000000081525081526020016040518060400160405280600681526020017f616230303030000000000000000000000000000000000000000000000000000081525081526020016040518060400160405280600681526020017f663264366334000000000000000000000000000000000000000000000000000081525081526020016040518060400160405280600681526020017f613164656434000000000000000000000000000000000000000000000000000081525081526020016040518060400160405280600681526020017f376561333838000000000000000000000000000000000000000000000000000081525081526020016040518060400160405280600681526020017f633636373266000000000000000000000000000000000000000000000000000081525081526020016040518060400160405280600681526020017f336134653230000000000000000000000000000000000000000000000000000081525081526020016040518060400160405280600681526020017f383835383338000000000000000000000000000000000000000000000000000081525081526020016040518060400160405280600681526020017f386238393831000000000000000000000000000000000000000000000000000081525081526020016040518060400160405280600681526020017f653065336434000000000000000000000000000000000000000000000000000081525081526020016040518060400160405280600681526020017f373438613832000000000000000000000000000000000000000000000000000081525081526020016040518060400160405280600681526020017f356330333030000000000000000000000000000000000000000000000000000081525081526020016040518060400160405280600681526020017f643963393330000000000000000000000000000000000000000000000000000081525081526020016040518060400160405280600681526020017f653065366630000000000000000000000000000000000000000000000000000081525081526020016040518060400160405280600681526020017f326235623761000000000000000000000000000000000000000000000000000081525081526020016040518060400160405280600681526020017f373437303239000000000000000000000000000000000000000000000000000081525081526020016040518060400160405280600681526020017f666166306562000000000000000000000000000000000000000000000000000081525081526020016040518060400160405280600681526020017f313531663432000000000000000000000000000000000000000000000000000081525081526020016040518060400160405280600681526020017f316635636666000000000000000000000000000000000000000000000000000081525081526020016040518060400160405280600681526020017f313231343138000000000000000000000000000000000000000000000000000081525081526020016040518060400160405280600681526020017f663566306635000000000000000000000000000000000000000000000000000081525081526020016040518060400160405280600681526020017f623631303162000000000000000000000000000000000000000000000000000081525081526020016040518060400160405280600681526020017f346136643962000000000000000000000000000000000000000000000000000081525081526020016040518060400160405280600681526020017f663266376339000000000000000000000000000000000000000000000000000081525081526020016040518060400160405280600681526020017f303030613962000000000000000000000000000000000000000000000000000081525081526020016040518060400160405280600681526020017f623062616136000000000000000000000000000000000000000000000000000081525081526020016040518060400160405280600681526020017f643964656436000000000000000000000000000000000000000000000000000081525081526020016040518060400160405280600681526020017f31643139323100000000000000000000000000000000000000000000000000008152508152506010906072611b0692919061238b565b506040518061036001604052806040518060400160405280600181526020017f300000000000000000000000000000000000000000000000000000000000000081525081526020016040518060400160405280600181526020017f310000000000000000000000000000000000000000000000000000000000000081525081526020016040518060400160405280600181526020017f320000000000000000000000000000000000000000000000000000000000000081525081526020016040518060400160405280600181526020017f330000000000000000000000000000000000000000000000000000000000000081525081526020016040518060400160405280600181526020017f340000000000000000000000000000000000000000000000000000000000000081525081526020016040518060400160405280600181526020017f350000000000000000000000000000000000000000000000000000000000000081525081526020016040518060400160405280600181526020017f360000000000000000000000000000000000000000000000000000000000000081525081526020016040518060400160405280600181526020017f370000000000000000000000000000000000000000000000000000000000000081525081526020016040518060400160405280600181526020017f380000000000000000000000000000000000000000000000000000000000000081525081526020016040518060400160405280600181526020017f390000000000000000000000000000000000000000000000000000000000000081525081526020016040518060400160405280600281526020017f313000000000000000000000000000000000000000000000000000000000000081525081526020016040518060400160405280600281526020017f313100000000000000000000000000000000000000000000000000000000000081525081526020016040518060400160405280600281526020017f313200000000000000000000000000000000000000000000000000000000000081525081526020016040518060400160405280600281526020017f313300000000000000000000000000000000000000000000000000000000000081525081526020016040518060400160405280600281526020017f313400000000000000000000000000000000000000000000000000000000000081525081526020016040518060400160405280600281526020017f313500000000000000000000000000000000000000000000000000000000000081525081526020016040518060400160405280600281526020017f313600000000000000000000000000000000000000000000000000000000000081525081526020016040518060400160405280600281526020017f313700000000000000000000000000000000000000000000000000000000000081525081526020016040518060400160405280600281526020017f313800000000000000000000000000000000000000000000000000000000000081525081526020016040518060400160405280600281526020017f313900000000000000000000000000000000000000000000000000000000000081525081526020016040518060400160405280600281526020017f323000000000000000000000000000000000000000000000000000000000000081525081526020016040518060400160405280600281526020017f323100000000000000000000000000000000000000000000000000000000000081525081526020016040518060400160405280600281526020017f323200000000000000000000000000000000000000000000000000000000000081525081526020016040518060400160405280600281526020017f323300000000000000000000000000000000000000000000000000000000000081525081526020016040518060400160405280600281526020017f323400000000000000000000000000000000000000000000000000000000000081525081526020016040518060400160405280600281526020017f323500000000000000000000000000000000000000000000000000000000000081525081526020016040518060400160405280600281526020017f3236000000000000000000000000000000000000000000000000000000000000815250815250601190601b61215a9291906123e2565b50604051806060016040528060278152602001620116c3602791396013908161218391906126ee565b5034801561218f575f80fd5b50604051620116ea380380620116ea83398181016040528101906121b3919061281b565b815f73ffffffffffffffffffffffffffffffffffffffff168173ffffffffffffffffffffffffffffffffffffffff1603612224575f6040517f1e4fbdf700000000000000000000000000000000000000000000000000000000815260040161221b9190612868565b60405180910390fd5b612233816122bc60201b60201c565b5080600760026101000a81548173ffffffffffffffffffffffffffffffffffffffff021916908373ffffffffffffffffffffffffffffffffffffffff1602179055508160085f6101000a81548173ffffffffffffffffffffffffffffffffffffffff021916908373ffffffffffffffffffffffffffffffffffffffff1602179055505050612881565b5f805f9054906101000a900473ffffffffffffffffffffffffffffffffffffffff169050815f806101000a81548173ffffffffffffffffffffffffffffffffffffffff021916908373ffffffffffffffffffffffffffffffffffffffff1602179055508173ffffffffffffffffffffffffffffffffffffffff168173ffffffffffffffffffffffffffffffffffffffff167f8be0079c531659141344cd1fd0a4f28419497f9722a3daafe3b4186f6b6457e060405160405180910390a35050565b61aed780620067ec83390190565b828054828255905f5260205f209081019282156123d1579160200282015b828111156123d05782518290816123c091906126ee565b50916020019190600101906123a9565b5b5090506123de9190612439565b5090565b828054828255905f5260205f20908101928215612428579160200282015b8281111561242757825182908161241791906126ee565b5091602001919060010190612400565b5b5090506124359190612439565b5090565b5b80821115612458575f818161244f919061245c565b5060010161243a565b5090565b50805461246890612518565b5f825580601f106124795750612496565b601f0160209004905f5260205f20908101906124959190612499565b5b50565b5b808211156124b0575f815f90555060010161249a565b5090565b5f81519050919050565b7f4e487b71000000000000000000000000000000000000000000000000000000005f52604160045260245ffd5b7f4e487b71000000000000000000000000000000000000000000000000000000005f52602260045260245ffd5b5f600282049050600182168061252f57607f821691505b602082108103612542576125416124eb565b5b50919050565b5f819050815f5260205f209050919050565b5f6020601f8301049050919050565b5f82821b905092915050565b5f600883026125a47fffffffffffffffffffffffffffffffffffffffffffffffffffffffffffffffff82612569565b6125ae8683612569565b95508019841693508086168417925050509392505050565b5f819050919050565b5f819050919050565b5f6125f26125ed6125e8846125c6565b6125cf565b6125c6565b9050919050565b5f819050919050565b61260b836125d8565b61261f612617826125f9565b848454612575565b825550505050565b5f90565b612633612627565b61263e818484612602565b505050565b5b81811015612661576126565f8261262b565b600181019050612644565b5050565b601f8211156126a65761267781612548565b6126808461255a565b8101602085101561268f578190505b6126a361269b8561255a565b830182612643565b50505b505050565b5f82821c905092915050565b5f6126c65f19846008026126ab565b1980831691505092915050565b5f6126de83836126b7565b9150826002028217905092915050565b6126f7826124b4565b67ffffffffffffffff8111156127105761270f6124be565b5b61271a8254612518565b612725828285612665565b5f60209050601f831160018114612756575f8415612744578287015190505b61274e85826126d3565b8655506127b5565b601f19841661276486612548565b5f5b8281101561278b57848901518255600182019150602085019450602081019050612766565b868310156127a857848901516127a4601f8916826126b7565b8355505b6001600288020188555050505b505050505050565b5f80fd5b5f73ffffffffffffffffffffffffffffffffffffffff82169050919050565b5f6127ea826127c1565b9050919050565b6127fa816127e0565b8114612804575f80fd5b50565b5f81519050612815816127f1565b92915050565b5f8060408385031215612831576128306127bd565b5b5f61283e85828601612807565b925050602061284f85828601612807565b9150509250929050565b612862816127e0565b82525050565b5f60208201905061287b5f830184612859565b92915050565b613f5d806200288f5f395ff3fe608060405260043610610203575f3560e01c80638da5cb5b11610117578063d01f63f51161009f578063e2684f081161006e578063e2684f0814610751578063e5afc2eb1461077b578063e9dc6375146107b7578063f2fde38b146107f3578063f76f950e1461081b57610203565b8063d01f63f514610699578063d1afb7f5146106c3578063d5abeb01146106ff578063d89da2861461072957610203565b8063b2811b6a116100e6578063b2811b6a146105a5578063b2bdfa7b146105e1578063bc8bde641461060b578063bedb86fb14610635578063c038fe041461065d57610203565b80638da5cb5b1461050157806390c3f38f1461052b57806391b7f5ed14610553578063a4cad92b1461057b57610203565b806331ae450b1161019a578063662d46b911610169578063662d46b9146104695780636a627842146104915780636d73e669146104ad578063715018a6146104d5578063853828b6146104eb57610203565b806331ae450b1461039d5780633eaaf86b146103c7578063413620d4146103f15780635721421d1461042d57610203565b806322f4596f116101d657806322f4596f146102e5578063235b6ea11461030f57806324d7806c146103395780632d3456701461037557610203565b806301ffc9a71461020757806313cecd701461024357806318160ddd1461027f5780631e826fb4146102a9575b5f80fd5b348015610212575f80fd5b5061022d600480360381019061022891906126da565b610857565b60405161023a919061271f565b60405180910390f35b34801561024e575f80fd5b506102696004803603810190610264919061276b565b6109a0565b6040516102769190612806565b60405180910390f35b34801561028a575f80fd5b50610293610a46565b6040516102a09190612835565b60405180910390f35b3480156102b4575f80fd5b506102cf60048036038101906102ca9190612881565b610a4f565b6040516102dc9190612951565b60405180910390f35b3480156102f0575f80fd5b506102f9610ac6565b6040516103069190612835565b60405180910390f35b34801561031a575f80fd5b50610323610acc565b6040516103309190612835565b60405180910390f35b348015610344575f80fd5b5061035f600480360381019061035a91906129c5565b610ad2565b60405161036c919061271f565b60405180910390f35b348015610380575f80fd5b5061039b600480360381019061039691906129c5565b610b2b565b005b3480156103a8575f80fd5b506103b1610bbf565b6040516103be9190612aa7565b60405180910390f35b3480156103d2575f80fd5b506103db610c9a565b6040516103e89190612835565b60405180910390f35b3480156103fc575f80fd5b5061041760048036038101906104129190612bf3565b610ca0565b6040516104249190612806565b60405180910390f35b348015610438575f80fd5b50610453600480360381019061044e919061276b565b610cd1565b6040516104609190612806565b60405180910390f35b348015610474575f80fd5b5061048f600480360381019061048a9190612d1c565b611022565b005b6104ab60048036038101906104a691906129c5565b6110cb565b005b3480156104b8575f80fd5b506104d360048036038101906104ce91906129c5565b611591565b005b3480156104e0575f80fd5b506104e9611624565b005b3480156104f6575f80fd5b506104ff611637565b005b34801561050c575f80fd5b50610515611704565b6040516105229190612d72565b60405180910390f35b348015610536575f80fd5b50610551600480360381019061054c9190612bf3565b61172b565b005b34801561055e575f80fd5b506105796004803603810190610574919061276b565b6117cd565b005b348015610586575f80fd5b5061058f611866565b60405161059c919061271f565b60405180910390f35b3480156105b0575f80fd5b506105cb60048036038101906105c691906129c5565b611879565b6040516105d89190612835565b60405180910390f35b3480156105ec575f80fd5b506105f561188e565b6040516106029190612d72565b60405180910390f35b348015610616575f80fd5b5061061f6118b3565b60405161062c9190612d72565b60405180910390f35b348015610640575f80fd5b5061065b60048036038101906106569190612db5565b6118d9565b005b348015610668575f80fd5b50610683600480360381019061067e9190612bf3565b611984565b6040516106909190612806565b60405180910390f35b3480156106a4575f80fd5b506106ad6119b5565b6040516106ba9190612aa7565b60405180910390f35b3480156106ce575f80fd5b506106e960048036038101906106e4919061276b565b611ab5565b6040516106f69190612806565b60405180910390f35b34801561070a575f80fd5b50610713611b5b565b6040516107209190612835565b60405180910390f35b348015610734575f80fd5b5061074f600480360381019061074a9190612de0565b611b64565b005b34801561075c575f80fd5b50610765611c58565b604051610772919061271f565b60405180910390f35b348015610786575f80fd5b506107a1600480360381019061079c919061276b565b611c6a565b6040516107ae9190612806565b60405180910390f35b3480156107c2575f80fd5b506107dd60048036038101906107d89190612e1e565b611d10565b6040516107ea9190612806565b60405180910390f35b3480156107fe575f80fd5b50610819600480360381019061081491906129c5565b611d23565b005b348015610826575f80fd5b50610841600480360381019061083c919061276b565b611da7565b60405161084e9190612806565b60405180910390f35b5f7fe9dc6375000000000000000000000000000000000000000000000000000000007bffffffffffffffffffffffffffffffffffffffffffffffffffffffff1916827bffffffffffffffffffffffffffffffffffffffffffffffffffffffff1916148061092157507fa7df9e9e000000000000000000000000000000000000000000000000000000007bffffffffffffffffffffffffffffffffffffffffffffffffffffffff1916827bffffffffffffffffffffffffffffffffffffffffffffffffffffffff1916145b8061098957507f54c1bcd9000000000000000000000000000000000000000000000000000000007bffffffffffffffffffffffffffffffffffffffffffffffffffffffff1916827bffffffffffffffffffffffffffffffffffffffffffffffffffffffff1916145b80610999575061099882611f25565b5b9050919050565b601181815481106109af575f80fd5b905f5260205f20015f9150905080546109c790612e89565b80601f01602080910402602001604051908101604052809291908181526020018280546109f390612e89565b8015610a3e5780601f10610a1557610100808354040283529160200191610a3e565b820191905f5260205f20905b815481529060010190602001808311610a2157829003601f168201915b505050505081565b5f600654905090565b610a5761257f565b610a5f61257f565b5f5b600a811015610abc576065848260208110610a7f57610a7e612eb9565b5b1a60f81b60f81c60ff16610a939190612f13565b8282600a8110610aa657610aa5612eb9565b5b6020020181815250508080600101915050610a61565b5080915050919050565b60045481565b60055481565b5f8173ffffffffffffffffffffffffffffffffffffffff16610af2611704565b73ffffffffffffffffffffffffffffffffffffffff161480610b245750610b23826001611f8590919063ffffffff16565b5b9050919050565b610b33611fb2565b610b47816001611f8590919063ffffffff16565b15610bbc573373ffffffffffffffffffffffffffffffffffffffff168173ffffffffffffffffffffffffffffffffffffffff167f7c0c3c84c67c85fcac635147348bfe374c24a1a93d0366d1cfe9d8853cbf89d560405160405180910390a3610bba81600161203990919063ffffffff16565b505b50565b6060610bcb6001612066565b67ffffffffffffffff811115610be457610be3612acf565b5b604051908082528060200260200182016040528015610c125781602001602082028036833780820191505090505b5090505f5b610c216001612066565b811015610c9657610c3c81600161207990919063ffffffff16565b828281518110610c4f57610c4e612eb9565b5b602002602001019073ffffffffffffffffffffffffffffffffffffffff16908173ffffffffffffffffffffffffffffffffffffffff16815250508080600101915050610c17565b5090565b60065481565b6060610cab82612090565b604051602001610cbb9190612fc7565b6040516020818303038152906040529050919050565b60605f610d6d60035f9054906101000a900473ffffffffffffffffffffffffffffffffffffffff1673ffffffffffffffffffffffffffffffffffffffff16633ec28bbe6040518163ffffffff1660e01b81526004015f60405180830381865afa158015610d40573d5f803e3d5ffd5b505050506040513d5f823e3d601f19601f82011682018060405250810190610d689190613056565b610ca0565b90505f610f9a60035f9054906101000a900473ffffffffffffffffffffffffffffffffffffffff1673ffffffffffffffffffffffffffffffffffffffff166342882f5b866040518263ffffffff1660e01b8152600401610dcd9190612835565b5f60405180830381865afa158015610de7573d5f803e3d5ffd5b505050506040513d5f823e3d601f19601f82011682018060405250810190610e0f9190613056565b60035f9054906101000a900473ffffffffffffffffffffffffffffffffffffffff1673ffffffffffffffffffffffffffffffffffffffff16635e9ff84987600b5f8a81526020019081526020015f2054600c5f8b81526020019081526020015f2054600a5f8c81526020019081526020015f206040518563ffffffff1660e01b8152600401610ea1949392919061313f565b5f60405180830381865afa158015610ebb573d5f803e3d5ffd5b505050506040513d5f823e3d601f19601f82011682018060405250810190610ee39190613056565b60035f9054906101000a900473ffffffffffffffffffffffffffffffffffffffff1673ffffffffffffffffffffffffffffffffffffffff16637899ff8f6040518163ffffffff1660e01b81526004015f60405180830381865afa158015610f4c573d5f803e3d5ffd5b505050506040513d5f823e3d601f19601f82011682018060405250810190610f749190613056565b604051602001610f8693929190613189565b604051602081830303815290604052611984565b90505f610ff6610fa986611da7565b600a5f8881526020019081526020015f20600b5f8981526020019081526020015f20548686604051602001610fe29594939291906134d1565b604051602081830303815290604052612090565b90508060405160200161100991906135b6565b6040516020818303038152906040529350505050919050565b60085f9054906101000a900473ffffffffffffffffffffffffffffffffffffffff1673ffffffffffffffffffffffffffffffffffffffff163373ffffffffffffffffffffffffffffffffffffffff16146110b1576040517f08c379a00000000000000000000000000000000000000000000000000000000081526004016110a890613621565b60405180910390fd5b80601290805190602001906110c79291906125a2565b5050565b60085f9054906101000a900473ffffffffffffffffffffffffffffffffffffffff1673ffffffffffffffffffffffffffffffffffffffff163373ffffffffffffffffffffffffffffffffffffffff161461115a576040517f08c379a000000000000000000000000000000000000000000000000000000000815260040161115190613621565b60405180910390fd5b60075f9054906101000a900460ff16156111a9576040517f08c379a00000000000000000000000000000000000000000000000000000000081526004016111a090613689565b60405180910390fd5b600760019054906101000a900460ff16801561122257508073ffffffffffffffffffffffffffffffffffffffff16600d5f60065481526020019081526020015f205f9054906101000a900473ffffffffffffffffffffffffffffffffffffffff1673ffffffffffffffffffffffffffffffffffffffff16145b611261576040517f08c379a000000000000000000000000000000000000000000000000000000000815260040161125890613717565b60405180910390fd5b6005543410156112a6576040517f08c379a000000000000000000000000000000000000000000000000000000000815260040161129d9061377f565b60405180910390fd5b600454600654106112ec576040517f08c379a00000000000000000000000000000000000000000000000000000000081526004016112e3906137e7565b60405180910390fd5b6005600f5f8373ffffffffffffffffffffffffffffffffffffffff1673ffffffffffffffffffffffffffffffffffffffff1681526020019081526020015f20541061136c576040517f08c379a00000000000000000000000000000000000000000000000000000000081526004016113639061384f565b60405180910390fd5b600760029054906101000a900473ffffffffffffffffffffffffffffffffffffffff1673ffffffffffffffffffffffffffffffffffffffff16632928ca58826040518263ffffffff1660e01b81526004016113c79190612d72565b6020604051808303815f875af11580156113e3573d5f803e3d5ffd5b505050506040513d601f19601f820116820180604052508101906114079190613881565b50600f5f8273ffffffffffffffffffffffffffffffffffffffff1673ffffffffffffffffffffffffffffffffffffffff1681526020019081526020015f205f815480929190611455906138d9565b91905055505f424460014361146a9190613920565b408460405160200161147f94939291906139b8565b60405160208183030381529060405280519060200120905080600c5f60065481526020019081526020015f20819055505f6114b982610a4f565b905060656010805490506114cd9190613a05565b815f600a81106114e0576114df612eb9565b5b60200201516114ef9190613a35565b600b5f60065481526020019081526020015f20819055506011606560118054905061151a9190613a05565b825f600a811061152d5761152c612eb9565b5b602002015161153c9190613a35565b8154811061154d5761154c612eb9565b5b905f5260205f2001600a5f60065481526020019081526020015f2090816115749190613c28565b5060065f815480929190611587906138d9565b9190505550505050565b611599611fb2565b6115ad816001611f8590919063ffffffff16565b611621573373ffffffffffffffffffffffffffffffffffffffff168173ffffffffffffffffffffffffffffffffffffffff167f7e1a1a08d52e4ba0e21554733d66165fd5151f99460116223d9e3a608eec5cb160405160405180910390a361161f8160016121ef90919063ffffffff16565b505b50565b61162c611fb2565b6116355f61221c565b565b60085f9054906101000a900473ffffffffffffffffffffffffffffffffffffffff1673ffffffffffffffffffffffffffffffffffffffff163373ffffffffffffffffffffffffffffffffffffffff16146116c6576040517f08c379a00000000000000000000000000000000000000000000000000000000081526004016116bd90613621565b60405180910390fd5b3373ffffffffffffffffffffffffffffffffffffffff166108fc4790811502906040515f60405180830381858888f19350505050611702575f80fd5b565b5f805f9054906101000a900473ffffffffffffffffffffffffffffffffffffffff16905090565b60085f9054906101000a900473ffffffffffffffffffffffffffffffffffffffff1673ffffffffffffffffffffffffffffffffffffffff163373ffffffffffffffffffffffffffffffffffffffff16146117ba576040517f08c379a00000000000000000000000000000000000000000000000000000000081526004016117b190613621565b60405180910390fd5b80601390816117c99190613d0d565b5050565b60085f9054906101000a900473ffffffffffffffffffffffffffffffffffffffff1673ffffffffffffffffffffffffffffffffffffffff163373ffffffffffffffffffffffffffffffffffffffff161461185c576040517f08c379a000000000000000000000000000000000000000000000000000000000815260040161185390613621565b60405180910390fd5b8060058190555050565b600760019054906101000a900460ff1681565b600e602052805f5260405f205f915090505481565b60085f9054906101000a900473ffffffffffffffffffffffffffffffffffffffff1681565b600760029054906101000a900473ffffffffffffffffffffffffffffffffffffffff1681565b60085f9054906101000a900473ffffffffffffffffffffffffffffffffffffffff1673ffffffffffffffffffffffffffffffffffffffff163373ffffffffffffffffffffffffffffffffffffffff1614611968576040517f08c379a000000000000000000000000000000000000000000000000000000000815260040161195f90613621565b60405180910390fd5b8060075f6101000a81548160ff02191690831515021790555050565b606061198f82612090565b60405160200161199f9190613e26565b6040516020818303038152906040529050919050565b60605f60016009546119c79190613e47565b67ffffffffffffffff8111156119e0576119df612acf565b5b604051908082528060200260200182016040528015611a0e5781602001602082028036833780820191505090505b5090505f5b6009548111611aad57600d5f8281526020019081526020015f205f9054906101000a900473ffffffffffffffffffffffffffffffffffffffff16828281518110611a6057611a5f612eb9565b5b602002602001019073ffffffffffffffffffffffffffffffffffffffff16908173ffffffffffffffffffffffffffffffffffffffff16815250508080611aa5906138d9565b915050611a13565b508091505090565b60128181548110611ac4575f80fd5b905f5260205f20015f915090508054611adc90612e89565b80601f0160208091040260200160405190810160405280929190818152602001828054611b0890612e89565b8015611b535780601f10611b2a57610100808354040283529160200191611b53565b820191905f5260205f20905b815481529060010190602001808311611b3657829003601f168201915b505050505081565b5f600454905090565b60085f9054906101000a900473ffffffffffffffffffffffffffffffffffffffff1673ffffffffffffffffffffffffffffffffffffffff163373ffffffffffffffffffffffffffffffffffffffff1614611bf3576040517f08c379a0000000000000000000000000000000000000000000000000000000008152600401611bea90613621565b60405180910390fd5b80600d5f8481526020019081526020015f205f6101000a81548173ffffffffffffffffffffffffffffffffffffffff021916908373ffffffffffffffffffffffffffffffffffffffff160217905550600954821115611c5457816009819055505b5050565b60075f9054906101000a900460ff1681565b60108181548110611c79575f80fd5b905f5260205f20015f915090508054611c9190612e89565b80601f0160208091040260200160405190810160405280929190818152602001828054611cbd90612e89565b8015611d085780601f10611cdf57610100808354040283529160200191611d08565b820191905f5260205f20905b815481529060010190602001808311611ceb57829003601f168201915b505050505081565b6060611d1b82610cd1565b905092915050565b611d2b611fb2565b5f73ffffffffffffffffffffffffffffffffffffffff168173ffffffffffffffffffffffffffffffffffffffff1603611d9b575f6040517f1e4fbdf7000000000000000000000000000000000000000000000000000000008152600401611d929190612d72565b60405180910390fd5b611da48161221c565b50565b60605f8203611ded576040518060400160405280600181526020017f30000000000000000000000000000000000000000000000000000000000000008152509050611f20565b5f8290505f5b5f8214611e1c578080611e05906138d9565b915050600a82611e159190613a05565b9150611df3565b5f8167ffffffffffffffff811115611e3757611e36612acf565b5b6040519080825280601f01601f191660200182016040528015611e695781602001600182028036833780820191505090505b5090505f8290505b5f8614611f1857600181611e859190613920565b90505f600a8088611e969190613a05565b611ea09190613a35565b87611eab9190613920565b6030611eb79190613e86565b90505f8160f81b905080848481518110611ed457611ed3612eb9565b5b60200101907effffffffffffffffffffffffffffffffffffffffffffffffffffffffffffff191690815f1a905350600a88611f0f9190613a05565b97505050611e71565b819450505050505b919050565b5f637005caad60e01b7bffffffffffffffffffffffffffffffffffffffffffffffffffffffff1916827bffffffffffffffffffffffffffffffffffffffffffffffffffffffff19161480611f7e5750611f7d826122dd565b5b9050919050565b5f611faa835f018373ffffffffffffffffffffffffffffffffffffffff165f1b612356565b905092915050565b611fba612376565b73ffffffffffffffffffffffffffffffffffffffff16611fd8611704565b73ffffffffffffffffffffffffffffffffffffffff161461203757611ffb612376565b6040517f118cdaa700000000000000000000000000000000000000000000000000000000815260040161202e9190612d72565b60405180910390fd5b565b5f61205e835f018373ffffffffffffffffffffffffffffffffffffffff165f1b61237d565b905092915050565b5f612072825f01612479565b9050919050565b5f612086835f0183612488565b5f1c905092915050565b60605f8251036120b05760405180602001604052805f81525090506121ea565b5f604051806060016040528060408152602001613ee86040913990505f6003600285516120dd9190613e47565b6120e79190613a05565b60046120f39190613a35565b67ffffffffffffffff81111561210c5761210b612acf565b5b6040519080825280601f01601f19166020018201604052801561213e5781602001600182028036833780820191505090505b509050600182016020820185865187015b808210156121aa576003820191508151603f8160121c168501518453600184019350603f81600c1c168501518453600184019350603f8160061c168501518453600184019350603f811685015184536001840193505061214f565b50506003865106600181146121c657600281146121d9576121e1565b603d6001830353603d60028303536121e1565b603d60018303535b50505080925050505b919050565b5f612214835f018373ffffffffffffffffffffffffffffffffffffffff165f1b6124af565b905092915050565b5f805f9054906101000a900473ffffffffffffffffffffffffffffffffffffffff169050815f806101000a81548173ffffffffffffffffffffffffffffffffffffffff021916908373ffffffffffffffffffffffffffffffffffffffff1602179055508173ffffffffffffffffffffffffffffffffffffffff168173ffffffffffffffffffffffffffffffffffffffff167f8be0079c531659141344cd1fd0a4f28419497f9722a3daafe3b4186f6b6457e060405160405180910390a35050565b5f7f553e757e000000000000000000000000000000000000000000000000000000007bffffffffffffffffffffffffffffffffffffffffffffffffffffffff1916827bffffffffffffffffffffffffffffffffffffffffffffffffffffffff1916148061234f575061234e82612516565b5b9050919050565b5f80836001015f8481526020019081526020015f20541415905092915050565b5f33905090565b5f80836001015f8481526020019081526020015f205490505f811461246e575f6001826123aa9190613920565b90505f6001865f01805490506123c09190613920565b9050808214612426575f865f0182815481106123df576123de612eb9565b5b905f5260205f200154905080875f018481548110612400576123ff612eb9565b5b905f5260205f20018190555083876001015f8381526020019081526020015f2081905550505b855f0180548061243957612438613eba565b5b600190038181905f5260205f20015f90559055856001015f8681526020019081526020015f205f905560019350505050612473565b5f9150505b92915050565b5f815f01805490509050919050565b5f825f01828154811061249e5761249d612eb9565b5b905f5260205f200154905092915050565b5f6124ba8383612356565b61250c57825f0182908060018154018082558091505060019003905f5260205f20015f9091909190915055825f0180549050836001015f8481526020019081526020015f208190555060019050612510565b5f90505b92915050565b5f7f01ffc9a7000000000000000000000000000000000000000000000000000000007bffffffffffffffffffffffffffffffffffffffffffffffffffffffff1916827bffffffffffffffffffffffffffffffffffffffffffffffffffffffff1916149050919050565b604051806101400160405280600a90602082028036833780820191505090505090565b828054828255905f5260205f209081019282156125e8579160200282015b828111156125e75782518290816125d79190613d0d565b50916020019190600101906125c0565b5b5090506125f591906125f9565b5090565b5b80821115612618575f818161260f919061261c565b506001016125fa565b5090565b50805461262890612e89565b5f825580601f106126395750612656565b601f0160209004905f5260205f20908101906126559190612659565b5b50565b5b80821115612670575f815f90555060010161265a565b5090565b5f604051905090565b5f80fd5b5f80fd5b5f7fffffffff0000000000000000000000000000000000000000000000000000000082169050919050565b6126b981612685565b81146126c3575f80fd5b50565b5f813590506126d4816126b0565b92915050565b5f602082840312156126ef576126ee61267d565b5b5f6126fc848285016126c6565b91505092915050565b5f8115159050919050565b61271981612705565b82525050565b5f6020820190506127325f830184612710565b92915050565b5f819050919050565b61274a81612738565b8114612754575f80fd5b50565b5f8135905061276581612741565b92915050565b5f602082840312156127805761277f61267d565b5b5f61278d84828501612757565b91505092915050565b5f81519050919050565b5f82825260208201905092915050565b8281835e5f83830152505050565b5f601f19601f8301169050919050565b5f6127d882612796565b6127e281856127a0565b93506127f28185602086016127b0565b6127fb816127be565b840191505092915050565b5f6020820190508181035f83015261281e81846127ce565b905092915050565b61282f81612738565b82525050565b5f6020820190506128485f830184612826565b92915050565b5f819050919050565b6128608161284e565b811461286a575f80fd5b50565b5f8135905061287b81612857565b92915050565b5f602082840312156128965761289561267d565b5b5f6128a38482850161286d565b91505092915050565b5f600a9050919050565b5f81905092915050565b5f819050919050565b6128d281612738565b82525050565b5f6128e383836128c9565b60208301905092915050565b5f602082019050919050565b612904816128ac565b61290e81846128b6565b9250612919826128c0565b805f5b8381101561294957815161293087826128d8565b965061293b836128ef565b92505060018101905061291c565b505050505050565b5f610140820190506129655f8301846128fb565b92915050565b5f73ffffffffffffffffffffffffffffffffffffffff82169050919050565b5f6129948261296b565b9050919050565b6129a48161298a565b81146129ae575f80fd5b50565b5f813590506129bf8161299b565b92915050565b5f602082840312156129da576129d961267d565b5b5f6129e7848285016129b1565b91505092915050565b5f81519050919050565b5f82825260208201905092915050565b5f819050602082019050919050565b612a228161298a565b82525050565b5f612a338383612a19565b60208301905092915050565b5f602082019050919050565b5f612a55826129f0565b612a5f81856129fa565b9350612a6a83612a0a565b805f5b83811015612a9a578151612a818882612a28565b9750612a8c83612a3f565b925050600181019050612a6d565b5085935050505092915050565b5f6020820190508181035f830152612abf8184612a4b565b905092915050565b5f80fd5b5f80fd5b7f4e487b71000000000000000000000000000000000000000000000000000000005f52604160045260245ffd5b612b05826127be565b810181811067ffffffffffffffff82111715612b2457612b23612acf565b5b80604052505050565b5f612b36612674565b9050612b428282612afc565b919050565b5f67ffffffffffffffff821115612b6157612b60612acf565b5b612b6a826127be565b9050602081019050919050565b828183375f83830152505050565b5f612b97612b9284612b47565b612b2d565b905082815260208101848484011115612bb357612bb2612acb565b5b612bbe848285612b77565b509392505050565b5f82601f830112612bda57612bd9612ac7565b5b8135612bea848260208601612b85565b91505092915050565b5f60208284031215612c0857612c0761267d565b5b5f82013567ffffffffffffffff811115612c2557612c24612681565b5b612c3184828501612bc6565b91505092915050565b5f67ffffffffffffffff821115612c5457612c53612acf565b5b602082029050602081019050919050565b5f80fd5b5f612c7b612c7684612c3a565b612b2d565b90508083825260208201905060208402830185811115612c9e57612c9d612c65565b5b835b81811015612ce557803567ffffffffffffffff811115612cc357612cc2612ac7565b5b808601612cd08982612bc6565b85526020850194505050602081019050612ca0565b5050509392505050565b5f82601f830112612d0357612d02612ac7565b5b8135612d13848260208601612c69565b91505092915050565b5f60208284031215612d3157612d3061267d565b5b5f82013567ffffffffffffffff811115612d4e57612d4d612681565b5b612d5a84828501612cef565b91505092915050565b612d6c8161298a565b82525050565b5f602082019050612d855f830184612d63565b92915050565b612d9481612705565b8114612d9e575f80fd5b50565b5f81359050612daf81612d8b565b92915050565b5f60208284031215612dca57612dc961267d565b5b5f612dd784828501612da1565b91505092915050565b5f8060408385031215612df657612df561267d565b5b5f612e0385828601612757565b9250506020612e14858286016129b1565b9150509250929050565b5f8060408385031215612e3457612e3361267d565b5b5f612e41858286016129b1565b9250506020612e5285828601612757565b9150509250929050565b7f4e487b71000000000000000000000000000000000000000000000000000000005f52602260045260245ffd5b5f6002820490506001821680612ea057607f821691505b602082108103612eb357612eb2612e5c565b5b50919050565b7f4e487b71000000000000000000000000000000000000000000000000000000005f52603260045260245ffd5b7f4e487b71000000000000000000000000000000000000000000000000000000005f52601260045260245ffd5b5f612f1d82612738565b9150612f2883612738565b925082612f3857612f37612ee6565b5b828206905092915050565b5f81905092915050565b7f646174613a696d6167652f7376672b786d6c3b6261736536342c0000000000005f82015250565b5f612f81601a83612f43565b9150612f8c82612f4d565b601a82019050919050565b5f612fa182612796565b612fab8185612f43565b9350612fbb8185602086016127b0565b80840191505092915050565b5f612fd182612f75565b9150612fdd8284612f97565b915081905092915050565b5f612ffa612ff584612b47565b612b2d565b90508281526020810184848401111561301657613015612acb565b5b6130218482856127b0565b509392505050565b5f82601f83011261303d5761303c612ac7565b5b815161304d848260208601612fe8565b91505092915050565b5f6020828403121561306b5761306a61267d565b5b5f82015167ffffffffffffffff81111561308857613087612681565b5b61309484828501613029565b91505092915050565b6130a68161284e565b82525050565b5f819050815f5260205f209050919050565b5f81546130ca81612e89565b6130d481866127a0565b9450600182165f81146130ee576001811461310457613136565b60ff198316865281151560200286019350613136565b61310d856130ac565b5f5b8381101561312e5781548189015260018201915060208101905061310f565b808801955050505b50505092915050565b5f6080820190506131525f830187612826565b61315f6020830186612826565b61316c604083018561309d565b818103606083015261317e81846130be565b905095945050505050565b5f6131948286612f97565b91506131a08285612f97565b91506131ac8284612f97565b9150819050949350505050565b7f7b226e616d65223a2022496e76657274656272617465732023000000000000005f82015250565b5f6131ed601983612f43565b91506131f8826131b9565b601982019050919050565b7f222c20226465736372697074696f6e223a20225f6465736372697074696f6e225f8201527f2c20000000000000000000000000000000000000000000000000000000000000602082015250565b5f61325d602283612f43565b915061326882613203565b602282019050919050565b7f2261747472696275746573223a5b7b202274726169745f74797065223a20224d5f8201527f6f6f64222c202276616c7565223a202200000000000000000000000000000000602082015250565b5f6132cd603083612f43565b91506132d882613273565b603082019050919050565b5f81546132ef81612e89565b6132f98186612f43565b9450600182165f811461331357600181146133285761335a565b60ff198316865281151582028601935061335a565b613331856130ac565b5f5b8381101561335257815481890152600182019150602081019050613333565b838801955050505b50505092915050565b7f22207d2c207b202274726169745f74797065223a2022436f6c6f72222c2022765f8201527f616c7565223a2022000000000000000000000000000000000000000000000000602082015250565b5f6133bd602883612f43565b91506133c882613363565b602882019050919050565b5f819050919050565b6133ed6133e882612738565b6133d3565b82525050565b7f22207d5d2c2022696d616765223a2022000000000000000000000000000000005f82015250565b5f613427601083612f43565b9150613432826133f3565b601082019050919050565b7f222c2022616e696d6174696f6e5f75726c223a202200000000000000000000005f82015250565b5f613471601583612f43565b915061347c8261343d565b601582019050919050565b7f227d0000000000000000000000000000000000000000000000000000000000005f82015250565b5f6134bb600283612f43565b91506134c682613487565b600282019050919050565b5f6134db826131e1565b91506134e78288612f97565b91506134f282613251565b91506134fd826132c1565b915061350982876132e3565b9150613514826133b1565b915061352082866133dc565b60208201915061352f8261341b565b915061353b8285612f97565b915061354682613465565b91506135528284612f97565b915061355d826134af565b91508190509695505050505050565b7f646174613a6170706c69636174696f6e2f6a736f6e3b6261736536342c0000005f82015250565b5f6135a0601d83612f43565b91506135ab8261356c565b601d82019050919050565b5f6135c082613594565b91506135cc8284612f97565b915081905092915050565b7f556e617574686f72697a656400000000000000000000000000000000000000005f82015250565b5f61360b600c836127a0565b9150613616826135d7565b602082019050919050565b5f6020820190508181035f830152613638816135ff565b9050919050565b7f53616c6520686173206e6f7420737461727465640000000000000000000000005f82015250565b5f6136736014836127a0565b915061367e8261363f565b602082019050919050565b5f6020820190508181035f8301526136a081613667565b9050919050565b7f5468697320746f6b656e206973206e6f7420726573657276656420666f7220795f8201527f6f752e0000000000000000000000000000000000000000000000000000000000602082015250565b5f6137016023836127a0565b915061370c826136a7565b604082019050919050565b5f6020820190508181035f83015261372e816136f5565b9050919050565b7f4e6f7420656e6f756768204554482073656e74000000000000000000000000005f82015250565b5f6137696013836127a0565b915061377482613735565b602082019050919050565b5f6020820190508181035f8301526137968161375d565b9050919050565b7f4e6f206d6f726520746f6b656e73206c656674000000000000000000000000005f82015250565b5f6137d16013836127a0565b91506137dc8261379d565b602082019050919050565b5f6020820190508181035f8301526137fe816137c5565b9050919050565b7f4d6178206d696e7420636f756e742072656163686564000000000000000000005f82015250565b5f6138396016836127a0565b915061384482613805565b602082019050919050565b5f6020820190508181035f8301526138668161382d565b9050919050565b5f8151905061387b81612741565b92915050565b5f602082840312156138965761389561267d565b5b5f6138a38482850161386d565b91505092915050565b7f4e487b71000000000000000000000000000000000000000000000000000000005f52601160045260245ffd5b5f6138e382612738565b91507fffffffffffffffffffffffffffffffffffffffffffffffffffffffffffffffff8203613915576139146138ac565b5b600182019050919050565b5f61392a82612738565b915061393583612738565b925082820390508181111561394d5761394c6138ac565b5b92915050565b5f819050919050565b61396d6139688261284e565b613953565b82525050565b5f8160601b9050919050565b5f61398982613973565b9050919050565b5f61399a8261397f565b9050919050565b6139b26139ad8261298a565b613990565b82525050565b5f6139c382876133dc565b6020820191506139d382866133dc565b6020820191506139e3828561395c565b6020820191506139f382846139a1565b60148201915081905095945050505050565b5f613a0f82612738565b9150613a1a83612738565b925082613a2a57613a29612ee6565b5b828204905092915050565b5f613a3f82612738565b9150613a4a83612738565b9250828202613a5881612738565b91508282048414831517613a6f57613a6e6138ac565b5b5092915050565b5f81549050613a8481612e89565b9050919050565b5f819050815f5260205f209050919050565b5f6020601f8301049050919050565b5f82821b905092915050565b5f60088302613ae77fffffffffffffffffffffffffffffffffffffffffffffffffffffffffffffffff82613aac565b613af18683613aac565b95508019841693508086168417925050509392505050565b5f819050919050565b5f613b2c613b27613b2284612738565b613b09565b612738565b9050919050565b5f819050919050565b613b4583613b12565b613b59613b5182613b33565b848454613ab8565b825550505050565b5f90565b613b6d613b61565b613b78818484613b3c565b505050565b5b81811015613b9b57613b905f82613b65565b600181019050613b7e565b5050565b601f821115613be057613bb1816130ac565b613bba84613a9d565b81016020851015613bc9578190505b613bdd613bd585613a9d565b830182613b7d565b50505b505050565b5f82821c905092915050565b5f613c005f1984600802613be5565b1980831691505092915050565b5f613c188383613bf1565b9150826002028217905092915050565b818103613c36575050613d0b565b613c3f82613a76565b67ffffffffffffffff811115613c5857613c57612acf565b5b613c628254612e89565b613c6d828285613b9f565b5f601f831160018114613c9a575f8415613c88578287015490505b613c928582613c0d565b865550613d04565b601f198416613ca887613a8b565b9650613cb3866130ac565b5f5b82811015613cda57848901548255600182019150600185019450602081019050613cb5565b86831015613cf75784890154613cf3601f891682613bf1565b8355505b6001600288020188555050505b5050505050505b565b613d1682612796565b67ffffffffffffffff811115613d2f57613d2e612acf565b5b613d398254612e89565b613d44828285613b9f565b5f60209050601f831160018114613d75575f8415613d63578287015190505b613d6d8582613c0d565b865550613dd4565b601f198416613d83866130ac565b5f5b82811015613daa57848901518255600182019150602085019450602081019050613d85565b86831015613dc75784890151613dc3601f891682613bf1565b8355505b6001600288020188555050505b505050505050565b7f646174613a746578742f68746d6c3b6261736536342c000000000000000000005f82015250565b5f613e10601683612f43565b9150613e1b82613ddc565b601682019050919050565b5f613e3082613e04565b9150613e3c8284612f97565b915081905092915050565b5f613e5182612738565b9150613e5c83612738565b9250828201905080821115613e7457613e736138ac565b5b92915050565b5f60ff82169050919050565b5f613e9082613e7a565b9150613e9b83613e7a565b9250828201905060ff811115613eb457613eb36138ac565b5b92915050565b7f4e487b71000000000000000000000000000000000000000000000000000000005f52603160045260245ffdfe4142434445464748494a4b4c4d4e4f505152535455565758595a6162636465666768696a6b6c6d6e6f707172737475767778797a303132333435363738392b2fa2646970667358221220d9ee3c62e9db589fd6a017363b20c60b8a58dc588620effd4a5568939ab2b2a464736f6c634300081900336080604052348015600e575f80fd5b5061aebb8061001c5f395ff3fe608060405234801561000f575f80fd5b506004361061004a575f3560e01c80633ec28bbe1461004e57806342882f5b1461006c5780635e9ff8491461009c5780637899ff8f146100cc575b5f80fd5b6100566100ea565b6040516100639190610217565b60405180910390f35b6100866004803603810190610081919061027b565b61010f565b6040516100939190610217565b60405180910390f35b6100b660048036038101906100b19190610405565b610138565b6040516100c39190610217565b60405180910390f35b6100d461016a565b6040516100e19190610217565b60405180910390f35b60606040516020016100fb90610571565b604051602081830303815290604052905090565b60608160405160200161012291906156c9565b6040516020818303038152906040529050919050565b606083828487604051602001610151949392919061ae05565b6040516020818303038152906040529050949350505050565b60606040518060400160405280601481526020017f3c626f64793e3c2f626f64793e3c2f68746d6c3e000000000000000000000000815250905090565b5f81519050919050565b5f82825260208201905092915050565b8281835e5f83830152505050565b5f601f19601f8301169050919050565b5f6101e9826101a7565b6101f381856101b1565b93506102038185602086016101c1565b61020c816101cf565b840191505092915050565b5f6020820190508181035f83015261022f81846101df565b905092915050565b5f604051905090565b5f80fd5b5f80fd5b5f819050919050565b61025a81610248565b8114610264575f80fd5b50565b5f8135905061027581610251565b92915050565b5f602082840312156102905761028f610240565b5b5f61029d84828501610267565b91505092915050565b5f819050919050565b6102b8816102a6565b81146102c2575f80fd5b50565b5f813590506102d3816102af565b92915050565b5f80fd5b5f80fd5b7f4e487b71000000000000000000000000000000000000000000000000000000005f52604160045260245ffd5b610317826101cf565b810181811067ffffffffffffffff82111715610336576103356102e1565b5b80604052505050565b5f610348610237565b9050610354828261030e565b919050565b5f67ffffffffffffffff821115610373576103726102e1565b5b61037c826101cf565b9050602081019050919050565b828183375f83830152505050565b5f6103a96103a484610359565b61033f565b9050828152602081018484840111156103c5576103c46102dd565b5b6103d0848285610389565b509392505050565b5f82601f8301126103ec576103eb6102d9565b5b81356103fc848260208601610397565b91505092915050565b5f805f806080858703121561041d5761041c610240565b5b5f61042a87828801610267565b945050602061043b87828801610267565b935050604061044c878288016102c5565b925050606085013567ffffffffffffffff81111561046d5761046c610244565b5b610479878288016103d8565b91505092959194509250565b5f81905092915050565b7f3c7376672077696474683d2736333027206865696768743d27363330272076695f8201527f6577426f783d2730203020363330203633302720786d6c6e733d27687474703a60208201527f2f2f7777772e77332e6f72672f323030302f73766727207374796c653d27776960408201527f6474683a2033363070783b206865696768743a2033363070783b206f7665726660608201527f6c6f773a2068696464656e3b273e3c2f7376673e000000000000000000000000608082015250565b5f61055b609483610485565b91506105668261048f565b609482019050919050565b5f61057b8261054f565b9150819050919050565b7f3c21646f63747970652068746d6c3e3c68746d6c206c616e673d656e3e3c6d655f8201527f746120636861727365743d7574662d383e3c7469746c653e496e76657274656260208201527f7261746573202300000000000000000000000000000000000000000000000000604082015250565b5f610605604783610485565b915061061082610585565b604782019050919050565b5f819050919050565b61063561063082610248565b61061b565b82525050565b7f20627920416e64726577204d69746368656c6c203c2f7469746c653e3c7363725f8201527f6970743e6c657420636f6c6f724e616d65733d5b7b6e616d653a274372696d7360208201527f6f6e272c636f6c6f723a2723386530643030277d2c7b6e616d653a274d6f737360408201527f272c636f6c6f723a2723633863363939277d2c7b6e616d653a274d69646e696760608201527f6874272c636f6c6f723a2723303631343263277d2c7b6e616d653a274d61676560808201527f6e7461272c636f6c6f723a2723633732323663277d2c7b6e616d653a2753636160a08201527f726c6574272c636f6c6f723a2723373430303030277d2c7b6e616d653a27546160c08201527f757065272c636f6c6f723a2723383737623564277d2c7b6e616d653a2753616e60e08201527f64272c636f6c6f723a2723653864326139277d2c7b6e616d653a274f6e7978276101008201527f2c636f6c6f723a2723313231353164277d2c7b6e616d653a2750617374656c276101208201527f2c636f6c6f723a2723633462663935277d2c7b6e616d653a2750696e6b272c636101408201527f6f6c6f723a2723643332353837277d2c7b6e616d653a274f6c697665272c636f6101608201527f6c6f723a2723633563616239277d2c7b6e616d653a27536c617465272c636f6c6101808201527f6f723a2723313731623139277d2c7b6e616d653a2752756279272c636f6c6f726101a08201527f3a2723626332633065277d2c7b6e616d653a274d61726f6f6e272c636f6c6f726101c08201527f3a2723373930323133277d2c7b6e616d653a275465616c272c636f6c6f723a276101e08201527f23313332653262277d2c7b6e616d653a2742757267756e6479272c636f6c6f726102008201527f3a2723393532383332277d2c7b6e616d653a27416d626572272c636f6c6f723a6102208201527f2723656236353231277d2c7b6e616d653a2749766f7279272c636f6c6f723a276102408201527f23653364366337277d2c7b6e616d653a27536e6f77272c636f6c6f723a2723666102608201527f3765626533277d2c7b6e616d653a274e617679272c636f6c6f723a27233030306102808201527f333236277d2c7b6e616d653a274c696e656e272c636f6c6f723a2723656465646102a08201527f6465277d2c7b6e616d653a27417368272c636f6c6f723a2723643732613266276102c08201527f7d2c7b6e616d653a27436f616c272c636f6c6f723a2723646364376337277d2c6102e08201527f7b6e616d653a2752757374272c636f6c6f723a2723643764396335277d2c7b6e6103008201527f616d653a27456d6572616c64272c636f6c6f723a2723303036623362277d2c7b6103208201527f6e616d653a27417a757265272c636f6c6f723a2723303037666666277d2c7b6e6103408201527f616d653a2748617a656c272c636f6c6f723a2723306231353166277d2c7b6e616103608201527f6d653a274379616e272c636f6c6f723a2723303066666666277d2c7b6e616d656103808201527f3a27466f72657374272c636f6c6f723a2723323238623232277d2c7b6e616d656103a08201527f3a2743686573746e7574272c636f6c6f723a2723393534353335277d2c7b6e616103c08201527f6d653a2742726f6e7a65272c636f6c6f723a2723636437663332277d2c7b6e616103e08201527f6d653a27476f6c64272c636f6c6f723a2723666664373030277d2c7b6e616d656104008201527f3a275465616c272c636f6c6f723a2723303038303830277d2c7b6e616d653a276104208201527f436f62616c74272c636f6c6f723a2723303034376162277d2c7b6e616d653a276104408201527f4265696765272c636f6c6f723a2723663566356463277d2c7b6e616d653a27496104608201527f6e6469676f272c636f6c6f723a2723346230303832277d2c7b6e616d653a27466104808201527f61776e272c636f6c6f723a2723653662656666277d2c7b6e616d653a275361626104a08201527f6c65272c636f6c6f723a2723626261613937277d2c7b6e616d653a27536b79276104c08201527f2c636f6c6f723a2723383763656562277d2c7b6e616d653a275461776e79272c6104e08201527f636f6c6f723a2723636435373030277d2c7b6e616d653a274a616465272c636f6105008201527f6c6f723a2723303041383642277d2c7b6e616d653a274f6273696469616e272c6105208201527f636f6c6f723a2723303030303030277d2c7b6e616d653a27436f70706572272c6105408201527f636f6c6f723a2723623837333333277d2c7b6e616d653a274c696d65272c636f6105608201527f6c6f723a2723303066663030277d2c7b6e616d653a274f6365616e272c636f6c6105808201527f6f723a2723346139366164277d2c7b6e616d653a274d696e74272c636f6c6f726105a08201527f3a2723336562343839277d2c7b6e616d653a275361707068697265272c636f6c6105c08201527f6f723a2723306635326261277d2c7b6e616d653a27537465656c272c636f6c6f6105e08201527f723a2723343638326234277d2c7b6e616d653a275371756964272c636f6c6f726106008201527f3a2723383641353943277d2c7b6e616d653a27436572756c65616e272c636f6c6106208201527f6f723a2723303037626137277d2c7b6e616d653a2749766f7279272c636f6c6f6106408201527f723a2723666666666630277d2c7b6e616d653a27437265616d272c636f6c6f726106608201527f3a2723666666646430277d2c7b6e616d653a27506f77646572272c636f6c6f726106808201527f3a2723623065306536277d2c7b6e616d653a274d696e74272c636f6c6f723a276106a08201527f23393866663938277d2c7b6e616d653a274e617679272c636f6c6f723a2723306106c08201527f3030303830277d2c7b6e616d653a274f6c697665272c636f6c6f723a272338306106e08201527f38303030277d2c7b6e616d653a2745626f6e79272c636f6c6f723a27233535356107008201527f643530277d5d2c636f6c6f72733d5b5b27386530643030272c273761306130306107208201527f272c27613330653030272c27363630393030272c27396461333332272c2739376107408201527f39633330272c27623562623361272c27636262643532272c27633262333361276107608201527f2c27616235663465272c27613135623461272c27353636383436272c273733616107808201527f376139272c27623739373662272c27653164396332275d2c5b276338633639396107a08201527f272c27633463323932272c27636263383935272c27326336643431272c2732626107c08201527f36393366272c27326236653430272c27356661353935272c27363061333933276107e08201527f2c27386533663161272c27386133643139272c27633232643362272c273966626108008201527f343664272c27326131363136272c27633038303437275d2c5b273036313432636108208201527f272c27303731363331272c27303631343264272c27303531323239272c2765326108408201527f64326163272c27653364346231272c27653364356235272c27613662313564276108608201527f2c27613461663561272c27353638303437272c27353437653435272c276538616108808201527f653737272c27613737643464272c27623134343364272c27323736363837275d6108a08201527f2c5b27633732323663272c27636432333666272c27633732333664272c2763356108c08201527f32303661272c27626261643236272c27626561663237272c27623961623237276108e08201527f2c27343537613131272c27343737653131272c27326635313737272c273331356109008201527f343763272c27633234313937272c27643439366265272c27363139626137272c6109208201527f27626162633966275d2c5b27373430303030272c27376130303030272c2737306109408201527f30313031272c27373530313031272c27356439393861272c27356639623863276109608201527f2c27623638643037272c27626139303037272c27623538643038272c273563396109808201527f393861272c27643963666139272c27643963666136272c27336537323261272c6109a08201527f27393937393263275d2c5b27383737623564272c27383437393563272c2738396109c08201527f37633564272c27653363353661272c27653263323635272c27653363363664276109e08201527f2c27633462616136272c27633962666163272c27323632653132272c27323432610a008201527f633131272c27366438313533272c27383134663036272c27363430363133272c610a208201527f27346538303933275d2c5b27653864326139272c27656164336139272c276561610a408201527f64356165272c27653763666132272c27653864316136272c2765386433616227610a608201527f2c27623632303165272c27623332313165272c27336637393966272c27343037610a808201527f373963272c27613439323238272c27613038653237272c27356536643333272c610aa08201527f27353936383331275d2c5b27313231353164272c27313031323139272c273065610ac08201527f31303136272c27636562333162272c27636262313161272c2763376164316127610ae08201527f2c27376630623235272c27373530613231272c27626537313133272c27623436610b008201527f633133272c27333937373438272c27636234623436272c27343038313735272c610b208201527f27643764393862275d2c5b27633462663935272c27633863343964272c276363610b408201527f63386134272c27356137383064272c27353236653063272c2735363734306227610b608201527f2c27373939333431272c27376539613432272c27613438383563272c27613638610b808201527f633634272c27616462323739272c27616361663833272c27633863313438272c610ba08201527f27626338663264275d2c5b27643332353837272c27646434303939272c276430610bc08201527f32353836272c27646132663930272c27653663323262272c2765616339343827610be08201527f2c27366337653237272c27373938633262272c27653664323734272c27663566610c008201527f356635272c27616235643134275d2c5b27633563616239272c27636163666266610c208201527f272c27633063366233272c27633663646237272c27383230303330272c273761610c408201527f30303264272c27356238613363272c27353738333361272c2763323966303027610c608201527f2c27346531623166272c27326434633330272c27383562323835275d2c5b2731610c808201527f3731623139272c27323632633239272c27313331363134272c27323332393236610ca08201527f272c27613931343032272c27613231313031272c27636131363032272c276430610cc08201527f39353134272c27636339323134272c27653961393230272c2733613632316627610ce08201527f2c27376261313764272c27653665316134275d2c5b27626332633065272c2762610d008201527f3232363061272c27616433363166272c27323634653636272c27326135623739610d208201527f272c27316433653533272c27663065306233272c27633961323636272c276331610d408201527f39333465272c27636461373730272c27373138333163272c2737633866316527610d608201527f2c27663065306233272c27663365386338275d2c5b27373930323133272c2736610d808201527f3930323131272c27373430363137272c27373430323133272c27623138643336610da08201527f272c27616338383335272c27613438323332272c27646364396236272c276436610dc08201527f64326139272c27646264386238272c27333432333334272c2733663034313727610de08201527f2c27383763646265272c27633034303762275d2c5b27313332653262272c2730610e008201527f6632343232272c27313733363332272c27633062313164272c27623661363162610e208201527f272c27323737303364272c27323536613361272c27306535363837272c273130610e408201527f35663934272c27633532633131272c27623232383130272c2764393834373327610e608201527f2c27613438323332272c27366161383165272c27376563623939275d2c5b2739610e808201527f3532383332272c27383132323263272c27393732313264272c27393039643535610ea08201527f272c27393261313466272c27383238663464272c27666666616637272c276666610ec08201527f66666666272c27623739373564272c27626461303662272c2736303932353127610ee08201527f2c27373836633738272c27653638646238272c27396163616439275d2c5b2765610f008201527f6236353231272c27656437363362272c27653036333234272c27633734363138610f208201527f272c27626634343138272c27636634303063272c27613536613332272c276134610f408201527f36393332272c27643763333134272c27646563623162272c2731313164366627610f608201527f2c27613662636331272c27383630663231272c27326233373036275d2c5b2765610f808201527f3364366337272c27656565366464272c27653064336332272c27656164666431610fa08201527f272c27633030323264272c27623630323263272c27636130323331272c273732610fc08201527f31353433272c27356131313336272c27376461323964272c2738356138613327610fe08201527f2c27316434323630272c27316233653561272c27656238356337272c273835346110008201527f633863275d2c5b27663765626533272c27663966316562272c276637653864666110208201527f272c27663865626533272c27303130333035272c27303430643135272c2730376110408201527f31643533272c27303631383436272c27323430643132272c27316130393064276110608201527f2c27663765626533272c27303130333035272c27303731643533272c273234306110808201527f643132272c27653361633335272c27653562323433272c27366132323237272c6110a08201527f27623535653430272c27333834613334272c27623561303163275d2c5b2730306110c08201527f30333236272c27303030343333272c27303530303166272c27643061363232276110e08201527f2c27633739653233272c27613530303038272c27616130333063272c276363656111008201527f336439272c27643465376466272c27363338343966272c27373138666138272c6111208201527f27643938646330272c27303032386463272c27356437643637272c27623363346111408201527f3738275d2c5b27656465646465272c27653865386434272c27663166316535276111608201527f2c27653664323666272c27653864363764272c27653764333734272c273966376111808201527f653437272c27393737393434272c27656465386138272c27656665616166272c6111a08201527f27616337653961272c27656463346436272c27626133663666275d2c5b2764376111c08201527f32613266272c27643933363362272c27636532373264272c27643232383265276111e08201527f2c27343839316432272c27343238656431272c27353339306336272c276533666112008201527f326436272c27656166356530272c27643865396338272c27643738643534272c6112208201527f27306631643664272c27366662343664272c27643038323938275d2c5b2764636112408201527f64376337272c27643864326330272c27646564626365272c27643664306264276112608201527f2c27643063396234272c27643463646235272c27383830343138272c273931306112808201527f343161272c27343738313761272c27343337613734272c27623362643732272c6112a08201527f27323534333435272c27643738376135272c27643539633831275d2c5b2764376112c08201527f64396335272c27643564376331272c27643964626337272c27643964626337276112e08201527f2c27623332623434272c27623632623434272c27623932643436272c276335386113008201527f343831272c27633738383835272c27633638343830275d2c5b273933366230306113208201527f272c27396537343030272c27386636393030272c27383636333033272c2763626113408201527f35336136272c27636535616139272c27633734333964272c27636535356137276113608201527f2c27366130333430272c27373230343436272c27613731313138272c276235316113808201527f323161272c27313932333132272c27643561623030272c27353935313132272c6113a08201527f27383739643839275d2c5b27323837363265272c27323737323264272c2732656113c08201527f38353335272c27323236643238272c27326437623334272c27333037653336276113e08201527f2c27666631373639272c27666631663664272c27666664656536272c276666656114008201527f356563272c27303032623964272c27336539653039272c27663766663665272c6114208201527f27383432643564275d2c5b27306231353166272c27313031663264272c2730356114408201527f30613066272c27303431313166272c27366239373434272c27373761393463276114608201527f2c27623761643337272c27616461333334272c27363735353261272c276337656114808201527f366630272c27643939316637272c27336630613266275d2c5b276139646339376114a08201527f272c27626465346166272c27623765326137272c27613864393936272c2762306114c08201527f64663966272c27616564646136272c27343364323532272c27333863633437276114e08201527f2c27623939646131272c27616433353632272c27633264656236272c273265346115008201527f313362272c27616462393361272c27393561646136275d2c5b273832613561306115208201527f272c27366539363930272c27376461313962272c27383061333965272c2738666115408201527f61656139272c27383461343966272c27393539353835272c27396239623863276115608201527f2c27643464396366272c27636664346339272c27396561353533272c273730396115808201527f303137272c27326534343136275d2c5b27616539613663272c276233613037356115a08201527f272c27613639313565272c27393131643161272c27383631623138272c2761306115c08201527f32313163272c27323534303536272c27316633353437272c27363536623530276115e08201527f2c27366237313536272c27623135623564272c27623435663631272c273464326116008201527f643334272c27356133353364275d2c5b27626136363662272c276265366637346116208201527f272c27623936343661272c27626536303636272c27623335363563272c2763316116408201527f37363762272c27313630633066272c27306430373039272c27636261653961276116608201527f2c27643062366134272c27383430643262272c27346633333137272c276265366116808201527f333030272c27346631633432275d2c5b27633539653063272c276237393230626116a08201527f272c27643461393063272c27626339383135272c27636161313063272c2763626116c08201527f61323130272c27396231623138272c27396231623138272c27333033303331276116e08201527f2c27333833383339272c27303036653266272c27303035633238272c273365356117008201527f393631272c27343436313661275d2c5b27326133623262272c273236333632376117208201527f272c27326634323330272c27626330653032272c27623630653032272c2763636117408201527f31343030272c27653339663434272c27653239633430272c27663565336666276117608201527f2c27663865626666272c27336438326666272c27343238346666272c273135306117808201527f363138272c27313230353135275d2c5b27303033323833272c273030333738666117a08201527f272c27306332653634272c27306233343734272c27323734633836272c2730336117c08201527f33363836272c27306232663662272c27306433363737272c27623661373337276117e08201527f2c27613939623332272c27633264396332272c27636164656361272c273066336118008201527f343465272c27306332623430272c27333038386135272c27326538323965275d6118208201527f2c5b27643963666131272c27643363373932272c27646464346163272c2732306118408201527f35326434272c27316534656338272c27323635646538272c27626633643736276118608201527f2c27623233383664272c27636339613432272c27636239353361272c273831396118808201527f333339272c27386561323366272c27646564656465272c27653665366536275d6118a08201527f2c5b27316631393132272c27323731663136272c27316131353066272c2731626118c08201527f31353065272c27313731323064272c27313331303062272c27343938646337276118e08201527f2c27346639306339272c27346638656334272c27643962323038272c276434616119008201527f653038272c27636661613037275d2c5b27314536414538272c273137363344456119208201527f272c27323436666530272c27313736346439272c27326135333134272c2732366119408201527f34613132272c27373835303139272c27366534613137272c27363335306236276119608201527f2c27363835366238272c27383531613534272c27373731383463272c276134386119808201527f613135272c27396538343130272c27396633613034272c27393533373034275d6119a08201527f2c5b27636364316164272c27633863646137272c27643464386261272c2764306119c08201527f64356234272c27633763653963272c27636664346230272c27353261616161276119e08201527f2c27353139653965272c27623830373137272c27616330363134272c27623939611a008201527f383535272c27396563326235272c27396338623934272c27326231363230275d611a208201527f2c5b27326439326230272c27326639376236272c27323838666166272c273961611a408201527f37633332272c27393637393331272c27386537333265272c2763393161303027611a608201527f2c27626431393030272c27346239323039272c27343538363039272c27633934611a808201527f633237272c27643463373236272c27386136613735272c27313630653130275d611aa08201527f2c5b27316632393531272c27313932323433272c27323232643539272c276635611ac08201527f64313537272c27663664343635272c27663664353661272c2738303461306327611ae08201527f2c27373534333062272c27333131663132272c27326431633131272c27653836611b008201527f353132272c27656536663230272c27666666376337272c27666666616436275d611b208201527f2c5b27616138303563272c27616538373635272c27616538643666272c273534611b408201527f32383430272c27356132623435272c27343832333337272c2762313037323627611b608201527f2c27613630373234272c27343137373038272c27353238333165272c27373261611b808201527f323737272c27303032616432272c27373736623961272c27633964313931275d611ba08201527f2c5b27313331613133272c27306631353066272c27313531653135272c273161611bc08201527f32333161272c27646262353662272c27646362383666272c2764656263373827611be08201527f2c27643362303639272c27633463343761272c27636163613836272c27636463611c008201527f643865272c27343834313430272c27336533383337272c27313531653135272c611c208201527f27626637363435272c27663265336334275d2c5b27613665336138272c276165611c408201527f65356166272c27623165376233272c27623565386237272c2761313739363127611c608201527f2c27393336653538272c27393937333563272c27393637313561272c27636530611c808201527f373435272c27633530373433272c27323035613234272c27316435333231272c611ca08201527f27666134326131272c27643261343030272c27353539316239272c2731303065611cc08201527f3166275d2c5b27646263376136272c27646463616163272c2765316364616427611ce08201527f2c27306431323238272c27306130653166272c27313031363332272c27643730611d008201527f323030272c27653030343030272c27633330373034272c27343836393463272c611d208201527f27343436343438272c27343035653434272c27643662333262272c2764376235611d408201527f3264272c27313232393438272c27313032363431275d2c5b2735373739363827611d608201527f2c27356538323730272c27346537333631272c27343837303563272c27353437611d808201527f333633272c27396364313934272c27613664363966272c27613964376132272c611da08201527f27626164666234272c27613364343962272c27653663373534272c2765313134611dc08201527f3030272c27373630303030275d2c5b27653364656230272c2765376533626227611de08201527f2c27653665316237272c27653164626138272c27653565316238272c27653965611e008201527f346261272c27626663343761272c27633663613836272c27646564313665272c611e208201527f27653064333736272c27646537643764272c27633962613636272c2762313737611e408201527f3631272c27626462333863275d2c5b27346638343635272c2734643830363227611e608201527f2c27356339393735272c27363661333830272c27393962386339272c27393462611e808201527f356337272c27616663376435272c27353236383630272c27343835623534272c611ea08201527f27626261343838272c27633362303937272c27343832363261272c2735653331611ec08201527f3336272c27626132373237272c27326434396230272c27623038356264272c27611ee08201527f623039393461275d2c5b27346135636666272c27356336636666272c27373037611f008201527f656666272c27353136316630272c27353236336666272c27346135636666272c611f208201527f27663764623435272c27663865323632272c27663764623362272c2766356334611f408201527f6538272c27663362396534272c27663964636631272c27663765366334272c27611f608201527f386161633330272c27333633363339272c27623939643634275d2c5b27646364611f808201527f636335272c27643964396266272c27653865386439272c27643164316233272c611fa08201527f27626536643931272c27633638306130272c27623936343862272c2734393864611fc08201527f6133272c27343938646133272c27336636303162272c27333435303136272c27611fe08201527f373630303038272c27626338643137272c27333031663137272c2762383630316120008201527f37275d2c5b27323336323634272c27323035393562272c27326137363739272c6120208201527f27333038353838272c27666636366131272c27666638356234272c27666639396120408201527f6330272c27666635633961272c27393262383763272c27396362663838272c276120608201527f663731343234272c27663732363334272c27346432663262272c2764653734346120808201527f63272c27666365336564275d2c5b27303231393932272c27303332306235272c6120a08201527f27303231393864272c27616136303065272c27393735363063272c27643037376120c08201527f3131272c27336539643832272c27343661663931272c27656265386536272c276120e08201527f663566326630275d2c5b27366662313537272c27376262383635272c273635616121008201527f383464272c27356439613437272c27623830303030272c27613330303030272c6121208201527f27636330303030272c27303232663765272c27303132363635272c27306430656121408201527f3136272c27313731393237272c27643435363964272c27653332383030272c276121608201527f653639613030272c27356363376337275d2c5b27643163323934272c276461636121808201527f656139272c27653064366238272c27636562653864272c27356237313731272c6121a08201527f27363437643764272c27366438383838272c27633731313030272c27613330656121c08201527f3030272c27623830663030272c27383639633630272c27373738623535272c276121e08201527f636139353434272c27643261343630275d2c5b27383763666530272c273764636122008201527f636465272c27366463366439272c27396564396536272c27363939323862272c6122208201527f27373139383931272c27383961396134272c27376461313962272c27316536326122408201527f6437272c27323836636532272c27316235396335272c27313634396132272c276122608201527f613339383030272c27386638353030275d2c5b27373661343766272c273835616122808201527f643864272c27393162363938272c27396462656134272c27303330643537272c6122a08201527f27303431323736272c27303531343861272c27303631373964272c27636662646122c08201527f3735272c27643563353836272c27613636363032272c27636137643032272c276122e08201527f323635313265272c27326536313337272c27643464396436272c2764666532656123008201527f30275d2c5b27303231303435272c27303331383633272c27303431643737272c6123208201527f27303432313862272c27313037643461272c27306536633430272c27313339306123408201527f3536272c27313561323631272c27323762333834272c27326363393935272c276123608201527f336563363565272c27353263623665272c27386337343132272c2761323836316123808201527f35272c27373639653133272c27383962373135275d2c5b27656464656235272c6123a08201527f27663365396365272c27656264396164272c27653764343963272c27343336656123c08201527f3230272c27346437653235272c27333034663137272c27653338633132272c276123e08201527f656439363164272c27663061373432272c27623861323763272c2765313366346124008201527f34272c27343233373235272c27623035663035275d2c5b27313933353733272c6124208201527f27316433653836272c27323134363937272c27323534656137272c27356438636124408201527f6139272c27373961306239272c27366339376232272c27626462646235272c276124608201527f636663666339272c27623262326139272c27623838363864272c2763333938396124808201527f65272c27376638393836272c27373637663763275d2c5b27363939626163272c6124a08201527f27376261386237272c27383962316265272c27376635613034272c27396537306124c08201527f3035272c27623137653036272c27303830623064272c27313031353139272c276124e08201527f313732303236272c27386437653030272c27613339333030272c2731613437396125008201527f30272c27323035366163272c27393538333363272c27613435323030272c27646125208201527f6536663562272c27396631353030275d2c5b27346636643937272c27356637656125408201527f6162272c27366338396232272c27373939346239272c27333735343231272c276125608201527f333034393164272c27343336373238272c27346437363265272c2737653262386125808201527f30272c27393733333939272c27316631613231272c27326232343265272c27316125a08201527f6633613838272c27623138333431272c27633436626261272c273663393136336125c08201527f275d2c5b27313132623733272c27313333303831272c27306632353632272c276125e08201527f316538376333272c27316337616230272c27316638396337272c2735326135386126008201527f38272c27356261653931272c27346139363763272c27343834303638272c27346126208201527f6334343666272c27343433633632272c27616263666164272c273764393161636126408201527f272c27333638363766275d2c5b27343035333565272c27346136303664272c276126608201527f336134623535272c27353336623739272c27383238373266272c2739323937336126808201527f35272c27613161363361272c27616662353430272c27313832653161272c27326126a08201527f3334333236272c27623862313732272c27633162623835272c273936363635366126c08201527f272c27633562313262272c27616135373330272c27626131633135275d2c5b276126e08201527f386364343965272c27613664656234272c27623565336330272c2737396364386127008201527f65272c27633365396364272c27636366306363272c27646666366466272c27376127208201527f3563353631272c27386163643739272c27646262643537272c276236373132346127408201527f272c27653366326436272c27653064396462275d2c5b27333537643736272c276127608201527f343339643934272c27336438663837272c27333137323663272c2732333530326127808201527f31272c27326336353239272c27333337343266272c27333735643231272c27346127a08201527f3737393261272c27353038383330272c27386638343230272c273363343437396127c08201527f272c27396532373463272c27336634373436275d2c5b27646264346332272c276127e08201527f663065646535272c27643263396232272c27653965346438272c2762316264366128008201527f66272c27626263353831272c27396161383464272c27623162643666272c27396128208201527f3462333965272c27613062626138272c27376361323838272c273562373936366128408201527f272c27363938633736272c27646261383563272c27653262383739275d2c5b276128608201527f616438313239272c27633639343266272c27643039653339272c2764346136346128808201527f39272c27316633343436272c27323533663535272c27326334393633272c27336128a08201527f3235343731272c27626635303335272c27636135623366272c273630373264376128c08201527f272c27376338626465272c27643161626261272c27646262646339272c2734386128e08201527f33653565272c27353534393666275d2c5b27633462643939272c2762636233386129008201527f61272c27643263646231272c27326234633931272c27333435616164272c27336129208201527f3836326263272c27616232333238272c27626132363262272c276362326132666129408201527f272c27356433383735272c27353733353665272c27373834393937272c2735306129608201527f30643135272c27363931313162272c27616632663030272c27636333363030276129808201527f5d2c5b27633733323030272c27653033383030272c27663533643030272c27666129a08201527f6635373166272c27366361313665272c27356639353631272c273833616638346129c08201527f272c27386662373930272c27303031663830272c27303031663761272c2730306129e08201527f31393636272c27316531383137272c27326532353233272c2764346439633727612a008201527f2c27653365366462275d2c5b27343734393566272c27336433663531272c2735612a208201527f3835613734272c27363036333830272c27373939373531272c27383961393630612a408201527f272c27393362303664272c27393837363334272c27613738333339272c276236612a608201527f38653365272c27646561623137272c27333534623166272c2762386233393427612a808201527f2c27636534653030275d2c5b27653665626462272c27653465396438272c2764612aa08201527f6265326361272c27643164626264272c27613865336230272c27633165626337612ac08201527f272c27643166306435272c27626539623030272c27653062373030272c276635612ae08201527f63383030272c27663239313033272c27666439643064272c2731393332386127612b008201527f2c27316333383962275d2c5b27646264346530272c27643764306464272c2763612b208201527f6463346434272c27633362386363272c27316631383139272c27326532333235612b408201527f272c27336132633265272c27343533353338272c27376135383132272c273865612b608201527f36363135272c27346534333637272c27356435313762272c2733373464333827612b808201527f2c27343435663435272c27326232663732272c27326232663732275d2c5b2731612ba08201527f3133653736272c27313434623866272c27313735356131272c27313935656233612bc08201527f272c27633463636230272c27643164376331272c27646164666364272c276533612be08201527f65376461272c27376562383864272c27393663356132272c2736323563336627612c008201527f2c27373036393438272c27326632623232272c27353439326164272c27643036612c208201527f353030275d2c5b27376336313365272c27383836613434272c27393537353462612c408201527f272c27613338303532272c27663564343939272c27663463663930272c276632612c608201527f63373764272c27666163663239272c27663963613130272c2765666330303627612c808201527f2c27383032373266272c27323332343233272c27356562613737275d2c5b2730612ca08201527f3930643135272c27313231623262272c27313832333339272c27316632633437612cc08201527f272c27303832393630272c27303932663731272c27306233373834272c276533612ce08201527f30323030272c27666630653061272c27663264366465272c2765626331643127612d008201527f2c27363130623034272c27363166613437272c27303030376430272c27656461612d208201527f363735275d2c5b27313331653336272c27316232613462272c27323033333561612d408201527f272c27323533623661272c27326134333739272c27343536396666272c273333612d608201527f35636666272c27363438363664272c27373239373763272c2761326233393227612d808201527f2c27616462633966272c27626235633131272c27636436343133275d2c5b2763612da08201527f3039333238272c27626138653236272c27643561353334272c27643961633435612dc08201527f272c27646362343536272c27343334383866272c27346535346136272c273862612de08201527f34393030272c27376134313030272c27643663666334272c2764656438636627612e008201527f2c27353439323932272c27363461366136275d2c5b27613863326363272c2762612e208201527f6664326439272c27636364626531272c27643865346538272c27656465646363612e408201527f272c27656165616333272c27653465346234272c27646664666134272c273165612e608201527f32343331272c27323732663366272c27646333633339272c2765303534353227612e808201527f2c27396362616465272c27616536613432272c27656463666233275d2c5b2762612ea08201527f6439323862272c27633339643937272c27636261396134272c27373836663664612ec08201527f272c27386238313765272c27393438623839272c27636139373536272c276334612ee08201527f38643435272c27353239383539272c27363061393637272c2731613530333027612f008201527f2c27323336633430272c27366137613931272c27626531333264272c27643236612f208201527f303765272c27376633353766272c27303031336233272c27346431643062275d612f408201527f2c5b27653865626530272c27653465376461272c27646264666364272c276431612f608201527f64376331272c27323933386666272c27343735346666272c2735633637666627612f808201527f2c27653834633030272c27666635633061272c27373961383030272c27393263612fa08201527f633030272c27636661653030272c27663563633030272c27326431376163272c612fc08201527f27623638353035275d2c5b27643664656233272c27653065366336272c276538612fe08201527f65636434272c27643164616161272c27666166636436272c27666466656563276130008201527f2c27663866626336272c27626163323866272c27636564346230272c276336636130208201527f636133272c27383162383936272c27393763346138272c27393239323639272c6130408201527f27623864363934275d2c5b27656265366363272c27653865326334272c2765326130608201527f64626236272c27663466316532272c27663966386630272c27623565333832276130808201527f2c27633465383962272c27636565636163272c27333036383330272c273361376130a08201527f653361272c27393933363133272c27666631633030275d2c5b276632633762306130c08201527f272c27663163316137272c27656562353936272c27663664616361272c2765626130e08201527f61383834272c27373561323432272c27383862383531272c27356436333764276131008201527f2c27363836663864272c27643461343531272c27636436303238272c273066306131208201527f663161272c27633731643061275d2c5b27656265366434272c276564653964396131408201527f272c27656165356432272c27663165646466272c27343032643139272c2734326131608201527f32663161272c27343633313162272c27623564363236272c27626264613266276131808201527f2c27633565303464272c27353737393030272c27353037303030272c273234326131a08201527f313064272c27663731393234275d2c5b27393838323634272c276136393337376131c08201527f272c27616539643834272c27623661363930272c27396633363234272c2762376131e08201527f33663261272c27343835623734272c27353636643861272c27336531303134276132008201527f2c27353131353161272c27363434633361272c27373535383433272c276164386132208201527f393236272c27373235303030272c27306131663463272c27333631663133275d6132408201527f2c5b27306631383236272c27303630393066272c27313732353361272c2731646132608201527f32653439272c27373138363833272c27376139303863272c27383539393935276132808201527f2c27393061323966272c27376562353635272c27386362643735272c276137376132a08201527f323133272c27623837653134272c27643934643332272c27643163666266272c6132c08201527f27616363353562272c27373930303063275d2c5b27646264656264272c2764616132e08201527f64636331272c27653965616436272c27643464386231272c27633962333939276133008201527f2c27633561643931272c27633161383861272c27393462646164272c273964636133208201527f336234272c27616535333332272c27396534633265272c27633939346230272c6133408201527f27636661306261272c27643262313139272c27633461353137275d2c5b2763666133608201527f61343030272c27663563343030272c27636361333030272c27666663653061276133808201527f2c27633763666334272c27643464616432272c27646665336464272c273139316133a08201527f393163272c27323632363262272c27383739353839272c27376534653030275d6133c08201527f2c5b27616230303030272c27636330303030272c27653030303030272c2737376133e08201527f38316366272c27353936366335272c27363837336361272c27646534356233276134008201527f2c27653336336266272c27623562306462272c27636263376535272c276439306134208201527f353433272c27656630363463272c27643534613030272c27663535363030272c6134408201527f27313132333961272c27313432616238272c27373438313030272c27306330646134608201527f3064275d2c5b27663264366334272c27663064306263272c27656363356163276134808201527f2c27663865386465272c27633031353233272c27646331383239272c276238316134a08201527f343232272c27346636343931272c27353736643965272c27363137386138272c6134c08201527f27326232393264272c27666162383435272c27646238663835272c27383861346134e08201527f6335275d2c5b27613164656434272c27393764386366272c27623465346463276135008201527f2c27633365396533272c27373231303033272c27363330653033272c273862316135208201527f333034272c27663263396162272c27663965386463272c27653063326562272c6135408201527f27643962326536272c27616464626666272c27656262643061272c27666161646135608201527f6230272c27303030653837275d2c5b27376561333838272c27383561383865276135808201527f2c27393462333963272c27366439373738272c27383261623864272c273835616135a08201527f383865272c27366439373738272c27396662643966272c27393862393938272c6135c08201527f27613763336137272c27383633613135272c27376333363133272c27393234306135e08201527f3137275d2c5b27633636373266272c27643037303339272c27643838383561276136008201527f2c27643437633439272c27666366666661272c27653766666436272c276633666136208201527f666562272c27306430663066272c27326633373337272c27316332313231272c6136408201527f27666631393265272c27643965386666272c27353763613631275d2c5b2733616136608201527f34653230272c27333634383165272c27346236353239272c27353637343266276136808201527f2c27343266663835272c27356366663935272c27333366663761272c273730666136a08201527f666132272c27616563373564272c27626264303736272c27633138643030272c6136c08201527f27653061353030272c27316234303166272c27313031633137272c27653866666136e08201527f3435272c27663730333537275d2c5b27383835383338272c27383235343335276137008201527f2c27396636373431272c27616537303437272c27666364623435272c276664656137208201527f303565272c27666364383336272c27303930363064272c27313330643163272c6137408201527f27316431333261272c27663765646635272c27663265336566272c27653333666137608201527f3033272c27666234643065275d2c5b27386238393831272c27396439623935276137808201527f2c27376637643736272c27613761356130272c27326132633331272c273338336137a08201527f623432272c27343234353464272c27346234663538272c27653665306462272c6137c08201527f27643563626333272c27646564356366272c27386362333235272c27613063626137e08201527f3261272c27643662333333272c27646162393434275d2c5b27653065336434276138008201527f2c27646264666365272c27643264376331272c27633963666234272c273633396138208201527f383665272c27383461653862272c27373761363831272c27353837333536272c6138408201527f27363338303630272c27366338633639272c27366163356163272c27376263636138608201527f6236272c27366431393333272c27313931623163275d2c5b27373438613832276138808201527f2c27383539393931272c27393061323962272c27396261626135272c276439616138a08201527f383866272c27653062386134272c27653563356233272c27306630643130272c6138c08201527f27323031633232272c27326132353264272c27666166376564272c27663666316138e08201527f6466272c27663265383132272c27393163376663275d2c5b27356330333030276139008201527f2c27376130343030272c27386630353030272c27353230333030272c273364306139208201527f323030272c27303830613061272c27313231373137272c27316232323232272c6139408201527f27653861643163272c27656262373333272c27663766376663272c27376465366139608201527f3534275d2c5b27643963393330272c27636662653236272c27626561653233276139808201527f2c27616339653230272c27316231633164272c27313431343135272c273237326139a08201527f393261272c27366137323262272c27376238353332272c27643464396334272c6139c08201527f27653465376461272c27633561343030272c27323934383336272c27336132646139e08201527f3465272c27363337393737275d2c5b27653065366630272c2764366465656227613a008201527f2c27633864326534272c27626163376465272c27306230663164272c27313131613a208201527f373263272c27313631653362272c27373539373363272c27383861663436272c613a408201527f27393362393530272c27313833303234272c27323032343335272c2735393934613a608201527f3564275d2c5b27326235623761272c27333036353838272c2733353730393727613a808201527f2c27336137626136272c27643663666363272c27643263616336272c27656465613aa08201527f616538272c27623038313739272c27626239323862272c27633339663938272c613ac08201527f27376461336337272c27386461656365272c27623863323366272c2763356365613ae08201527f3634275d2c5b27373437303239272c27366136363235272c2735623538323027613b008201527f2c27383838333330272c27393739323335272c27613661313361272c27666639613b208201527f396439272c27666661646531272c27666663326539272c27663735373364272c613b408201527f27663836353466272c27663837363632272c27366535303264272c2738323565613b608201527f3335275d2c5b27666166306562272c27663765376465272c2766336461636527613b808201527f2c27656663656265272c27303633383534272c27303834623732272c27303935613ba08201527f383836272c27326464393664272c27323663663634272c27323362653563272c613bc08201527f27316233633139272c27323735363234272c27323538343030272c2739363931613be08201527f3030275d2c5b27313531663432272c27316432623564272c2732323332366427613c008201527f2c27323733613763272c27623131623039272c27396231373038272c27383831613c208201527f343037272c27616535626236272c27623937326330272c27633038306336272c613c408201527f27323134643536272c27323735643638272c27326436613736275d2c5b273166613c608201527f35636666272c27306134626666272c27343737386666272c2733333639666627613c808201527f2c27653065366538272c27663366366636272c27643064396463272c27393966613ca08201527f663333272c27613366663437272c27396430303030272c27623830303030272c613cc08201527f27383566356332272c27613166376430272c27316137313030272c2731383636613ce08201527f3030275d2c5b27313231343138272c27316131643233272c2732333237326627613d008201527f2c27373337653431272c27383739343463272c27393361323533272c27323735613d208201527f313236272c27326636313265272c27326131323161272c27626138636235272c613d408201527f27363839376332272c27376461346361272c27646563326131272c2761626533613d608201527f6332272c27326435393637272c27376433633030272c27346132633631272c27613d808201527f623239343534275d2c5b27663566306635272c27663365646633272c27663766613da08201527f336637272c27663766336637272c27323432643265272c27323232613262272c613dc08201527f27653066323030272c27653966353030272c27366266663066272c2766663631613de08201527f3033272c27346162616666272c27303064346139275d2c5b2762363130316227613e008201527f2c27636531323166272c27653131343231272c27306335326437272c27313836613e208201527f346632272c27326237316633272c27313861353934272c27316363346231272c613e408201527f27316664366331272c27666664623437272c27666664653563272c2766666537613e608201527f3835272c27613430373838272c27633430386131272c27666635343936272c27613e808201527f386363333238275d2c5b27346136643962272c27356137666166272c27363838613ea08201527f616236272c27373539346264272c27383339666231272c27373539356139272c613ec08201527f27363838626131272c27356538313937272c27616262616138272c2762646339613ee08201527f6261272c27613930303838272c27636330306133272c27636532343030272c27613f008201527f303332346666272c27636662333030272c27306531323136275d2c5b27663266613f208201527f376339272c27656466346238272c27653966326136272c27653565663935272c613f408201527f27666665333239272c27666665373437272c27333235343033272c2734373736613f608201527f3034272c27656236653931272c27656538316130272c27313135373463272c27613f808201527f313436363561272c27626464623038272c27643466363133272c273062326437613fa08201527f35272c27616634363030275d2c5b27303030613962272c27303030636238272c613fc08201527f27303030656363272c27303030666530272c27353062623864272c2735646330613fe08201527f3935272c27366363363966272c27376263636139272c27353530303866272c276140008201527f363230306133272c27333336613030272c27343538663030272c2730623063306140208201527f64272c27663038326439272c27626533643030272c27343763623030275d2c5b6140408201527f27623062616136272c27616262366130272c27613662313961272c27633763656140608201527f6330272c27623062376139272c27653065366533272c27653265346533272c276140808201527f653665626538272c27653865646562272c27646565386533272c2761623037316140a08201527f64272c27613230373162272c27396230383163272c27333133353262272c27326140c08201527f6333303237272c27393561373937272c27393861393961275d2c5b27643964656140e08201527f6436272c27643564626432272c27636264326336272c27633063396262272c276141008201527f623662666230272c27653664313330272c27653964363439272c2765626461356141208201527f63272c27633538363838272c27643139666130272c27643761636165272c27366141408201527f3537303765272c27363862383330272c27643935373030272c273739336335646141608201527f275d2c5b27316431393231272c27323932333266272c27313431323137272c276141808201527f333332633361272c27336433353436272c27633062313231272c2764316330326141a08201527f33272c27646363613265272c27643233623030272c27663534353030272c27636141c08201527f3263666264272c27643364646430275d5d3c2f7363726970743e0000000000006141e082015250565b5f6156b26141fa83610485565b91506156bd8261063b565b6141fa82019050919050565b5f6156d3826105f9565b91506156df8284610624565b6020820191506156ee826156a5565b915081905092915050565b7f3c73637269707420747970653d276170706c69636174696f6e2f6a61766173635f8201527f72697074273e6c657420636f6c6f723d636f6c6f72735b000000000000000000602082015250565b5f615753603783610485565b915061575e826156f9565b603782019050919050565b7f5d2c6d6f6f643d7061727365496e7428270000000000000000000000000000005f82015250565b5f61579d601183610485565b91506157a882615769565b601182019050919050565b5f6157bd826101a7565b6157c78185610485565b93506157d78185602086016101c1565b80840191505092915050565b7f27292c746f6b656e446174613d7b686173683a270000000000000000000000005f82015250565b5f615817601483610485565b9150615822826157e3565b601482019050919050565b5f819050919050565b615847615842826102a6565b61582d565b82525050565b7f272c746f6b656e49643a270000000000000000000000000000000000000000005f82015250565b5f615881600b83610485565b915061588c8261584d565b600b82019050919050565b7f277d2c73686f756c644c6f616444726177696e673d21313b636f6e73742064725f8201527f61773d6173796e632066756e6374696f6e28297b72657175657374416e696d6160208201527f74696f6e4672616d65282866756e6374696f6e28297b6164644c6f616465722860408201527f2727297d29292c6177616974206e65772050726f6d6973652828653d3e73657460608201527f54696d656f757428652c3230302929292c72657175657374416e696d6174696f60808201527f6e4672616d65282866756e6374696f6e28297b7570646174654c6f616465722860a08201527f274c6f6164696e67207661726961626c657327297d29292c6177616974206e6560c08201527f772050726f6d6973652828653d3e73657454696d656f757428652c323030292960e08201527f293b636f6e737420653d6e657720636c6173737b636f6e7374727563746f72286101008201527f297b746869732e757365413d21313b6c657420653d66756e6374696f6e2865296101208201527f7b6c6574206e3d7061727365496e7428652e73756273747228302c38292c31366101408201527f292c743d7061727365496e7428652e73756273747228382c38292c3136292c6f6101608201527f3d7061727365496e7428652e7375627374722831362c38292c3136292c613d706101808201527f61727365496e7428652e7375627374722832342c38292c3136293b72657475726101a08201527f6e2066756e6374696f6e28297b6e7c3d302c747c3d302c6f7c3d302c617c3d306101c08201527f3b6c657420653d286e2b747c30292b617c303b72657475726e20613d612b317c6101e08201527f302c6e3d745e743e3e3e392c743d6f2b286f3c3c33297c302c6f3d6f3c3c32316102008201527f7c6f3e3e3e31312c6f3d6f2b657c302c28653e3e3e30292f34323934393637326102208201527f39367d7d3b746869732e70726e67413d6e6577206528746f6b656e446174612e6102408201527f686173682e73756273747228322c333229292c746869732e70726e67423d6e656102608201527f77206528746f6b656e446174612e686173682e7375627374722833342c3332296102808201527f293b666f72286c657420653d303b653c3165363b652b3d3229746869732e70726102a08201527f6e674128292c746869732e70726e674228297d72616e646f6d5f64656328297b6102c08201527f72657475726e20746869732e757365413d21746869732e757365412c746869736102e08201527f2e757365413f746869732e70726e674128293a746869732e70726e674228297d6103008201527f72616e646f6d5f6e756d28652c6e297b72657475726e20652b286e2d65292a746103208201527f6869732e72616e646f6d5f64656328297d72616e646f6d5f696e7428652c6e296103408201527f7b72657475726e204d6174682e666c6f6f7228746869732e72616e646f6d5f6e6103608201527f756d28652c6e2b3129297d72616e646f6d5f626f6f6c2865297b72657475726e6103808201527f20746869732e72616e646f6d5f64656328293c657d72616e646f6d5f63686f696103a08201527f63652865297b72657475726e20655b746869732e72616e646f6d5f696e7428306103c08201527f2c652e6c656e6774682d31295d7d7d2c6e3d5b7b77696474683a3130302c68656103e08201527f696768743a3130307d2c7b77696474683a332c6865696768743a347d2c7b77696104008201527f6474683a392c6865696768743a31367d2c7b77696474683a312c6865696768746104208201527f3a317d5d3b6c657420743d303b636f6e7374206f3d646f63756d656e742e63726104408201527f65617465456c656d656e7428277374796c6527293b6f2e696e6e657248544d4c6104608201527f3d270a626f6479207b0a202020206d617267696e2d746f703a20303b0a2020206104808201527f20646973706c61793a20666c65783b0a202020206a7573746966792d636f6e746104a08201527f656e743a2063656e7465723b0a20202020616c69676e2d6974656d733a2063656104c08201527f6e7465723b0a202020206261636b67726f756e642d636f6c6f723a20234646466104e08201527f4645313b0a7d0a0a737667207b0a202020206865696768743a2031303076683b6105008201527f0a2020202077696474683a2031303076773b0a2020202070616464696e673a206105208201527f30766d696e3b0a20202020626f782d736861646f773a202e35766d696e202e356105408201527f766d696e2031766d696e207267626128302c20302c20302c20302e35293b0a206105608201527f202020626f782d73697a696e673a20626f726465722d626f783b0a7d0a272c646105808201527f6f63756d656e742e686561642e617070656e644368696c64286f293b636f6e736105a08201527f7420613d646f63756d656e742e637265617465456c656d656e744e53282768746105c08201527f74703a2f2f7777772e77332e6f72672f323030302f737667272c2773766727296105e08201527f3b612e73657441747472696275746528276964272c276d7953766727292c612e6106008201527f736574417474726962757465282776696577426f78272c2730203020313030206106208201527f31303027292c646f63756d656e742e626f64792e617070656e644368696c64286106408201527f61292c736574526174696f286e2c74293b6c657420722c692c732c642c632c6c6106608201527f2c6d2c752c682c5f2c792c662c702c672c622c242c772c6b2c762c782c412c4c6106808201527f2c532c452c432c462c542c492c422c502c712c522c4d2c4e2c442c483d646f636106a08201527f756d656e742e676574456c656d656e744279496428276d7953766727292c473d6106c08201527f21312c553d302c7a3d27272c4f3d66756e6374696f6e28297b7d2c563d66756e6106e08201527f6374696f6e28297b7d2c6a3d66756e6374696f6e2865297b7d2c573d27272c4b6107008201527f3d66696e644e616d654279436f6c6f7228636f6c6f725b305d2e7375622831296107208201527f2c636f6c6f724e616d6573293b73776974636828646f63756d656e742e6765746107408201527f456c656d656e747342795461674e616d652827626f647927295b305d2e7374796107608201527f6c652e6261636b67726f756e64436f6c6f723d2723272b636f6c6f725b305d2c6107808201527f72657175657374416e696d6174696f6e4672616d65282866756e6374696f6e286107a08201527f297b7570646174654c6f6164657228274c6f6164696e67207661726961626c656107c08201527f7327297d29292c66756e6374696f6e28297b73776974636828643d652e72616e6107e08201527f646f6d5f63686f696365285b302c322c332c342c322c305d292c553d652e72616108008201527f6e646f6d5f626f6f6c282e35293f652e72616e646f6d5f6e756d282d36302c366108208201527f30293a652e72616e646f6d5f696e74282d352c35292c623d652e72616e646f6d6108408201527f5f626f6f6c282e35292c783d652e72616e646f6d5f63686f696365285b312c2d6108608201527f315d292c413d652e72616e646f6d5f63686f696365285b312c2d315d292c6a3d6108808201527f66756e6374696f6e286e297b72657475726e20652e72616e646f6d5f63686f696108a08201527f636528636f6c6f72297d2c6d6f6f64297b6361736520303a693d312c733d382c6108c08201527f673d352c443d3130302c723d2e322c243d2e30332c6c3d332c633d652e72616e6108e08201527f646f6d5f696e74283830302c31313030292c6d3d632f6c2c683d6d2f322c412a6109008201527f3d322c782a3d322c753d2e30362c773d652e72616e646f6d5f696e74283130306109208201527f2c383030292c553d652e72616e646f6d5f63686f696365285b2d34352c34355d6109408201527f293b627265616b3b6361736520313a693d31352c733d31302c673d362c443d356109608201527f302c723d2e3032352c243d2e30332c6c3d652e72616e646f6d5f6e756d28322c6109808201527f34292c633d652e72616e646f6d5f696e74283830302c31323030292c6d3d632f6109a08201527f6c2c683d6d2f652e72616e646f6d5f696e7428362c3135292c753d2e30362c776109c08201527f3d652e72616e646f6d5f696e74283130302c383030292c553d652e72616e646f6109e08201527f6d5f63686f696365285b2d34352c34355d292c623d21303b627265616b3b6361610a008201527f736520323a693d332c733d352c673d362c443d35302c723d2e3034352c243d2e610a208201527f30342c6c3d652e72616e646f6d5f6e756d28322c34292c633d652e72616e646f610a408201527f6d5f696e74283830302c31323030292c6d3d632f6c2c683d6d2f32302c753d2e610a608201527f30362c773d652e72616e646f6d5f696e74283130302c383030292c553d652e72610a808201527f616e646f6d5f63686f696365285b2d34352c34355d292c623d21303b62726561610aa08201527f6b3b6361736520333a693d31352c733d322c673d362c443d35302c723d2e3033610ac08201527f2c243d2e30342c6c3d332c633d652e72616e646f6d5f696e74283830302c3132610ae08201527f3030292c6d3d632f6c2c683d6d2f31302c753d2e30362c553d652e72616e646f610b008201527f6d5f63686f696365285b2d34352c34355d292c773d652e72616e646f6d5f696e610b208201527f74283130302c383030293b627265616b3b6361736520343a693d332c733d332c610b408201527f673d352c443d31302c723d2e30362c243d2e3030392c6c3d652e72616e646f6d610b608201527f5f6e756d28322c34292c633d652e72616e646f6d5f696e74283830302c313230610b808201527f30292c6d3d632f6c2c683d6d2f332c753d2e30362c773d652e72616e646f6d5f610ba08201527f696e74283130302c383030292c553d652e72616e646f6d5f63686f696365285b610bc08201527f2d34352c34355d293b627265616b3b6361736520353a693d332c733d332c673d610be08201527f31302c443d3130302c723d2e30342c243d2e30342c6c3d652e72616e646f6d5f610c008201527f6e756d28322c34292c633d652e72616e646f6d5f696e74283830302c31323030610c208201527f292c6d3d632f6c2c683d6d2c753d2e30362c773d652e72616e646f6d5f696e74610c408201527f283130302c383030292c553d652e72616e646f6d5f63686f696365285b2d3435610c608201527f2c34355d293b627265616b3b6361736520363a693d332c733d312c673d31302c610c808201527f443d3130302c723d2e30342c243d2e30342c6c3d652e72616e646f6d5f6e756d610ca08201527f28322c34292c633d652e72616e646f6d5f696e74283830302c31323030292c6d610cc08201527f3d632f6c2c683d6d2c753d2e30362c773d652e72616e646f6d5f696e74283130610ce08201527f302c383030292c553d652e72616e646f6d5f63686f696365285b2d34352c3435610d008201527f5d293b627265616b3b6361736520373a693d312c733d322c673d352c443d3430610d208201527f2c723d652e72616e646f6d5f63686f696365285b2e30362c2e30372c2e30382c610d408201527f2e30392c2e315d292c243d652e72616e646f6d5f63686f696365285b39652d34610d608201527f2c38652d342c2e3030315d292c6c3d652e72616e646f6d5f6e756d28322c3429610d808201527f2c633d652e72616e646f6d5f696e74283830302c31323030292c6d3d632f6c2c610da08201527f683d322a6d2c753d2e30362c773d652e72616e646f6d5f696e74283130302c38610dc08201527f3030292c553d652e72616e646f6d5f63686f696365285b2d34352c34355d292c610de08201527f643d652e72616e646f6d5f63686f696365285b302c312c322c335d293b627265610e008201527f616b3b6361736520383a693d312c733d312c673d31352c443d38302c723d2e30610e208201527f392c243d2e30342c6c3d652e72616e646f6d5f6e756d28322c34292c633d652e610e408201527f72616e646f6d5f696e74283430302c353030292c6d3d632f6c2c683d382a6d2c610e608201527f753d2e30362c773d652e72616e646f6d5f696e74283130302c383030292c553d610e808201527f652e72616e646f6d5f63686f696365285b2d34352c34355d293b627265616b3b610ea08201527f6361736520393a693d392c733d312c673d35302c443d652e72616e646f6d5f69610ec08201527f6e742835302c313030292c723d2e3030312c243d2e30362c6c3d652e72616e64610ee08201527f6f6d5f6e756d28322c34292c633d3165332c6d3d632f6c2c683d31302a6d2c75610f008201527f3d2e30362c773d652e72616e646f6d5f696e74283330302c383030292c553d65610f208201527f2e72616e646f6d5f63686f696365285b2d34352c34355d293b627265616b3b63610f408201527f6173652031303a693d352c733d312c673d35302c443d652e72616e646f6d5f69610f608201527f6e742838302c313530292c723d2e3030312c243d2e30392c6c3d652e72616e64610f808201527f6f6d5f6e756d28322c34292c633d3530302c6d3d632f6c2c683d31302a6d2c75610fa08201527f3d2e30362c773d652e72616e646f6d5f696e74283330302c383030292c553d65610fc08201527f2e72616e646f6d5f63686f696365285b2d34352c34355d293b627265616b3b63610fe08201527f6173652031313a693d312c733d312c673d352c443d652e72616e646f6d5f63686110008201527f6f696365285b322c32305d292c723d2e332c243d2e30392c6c3d652e72616e646110208201527f6f6d5f6e756d28322c34292c633d31302c6d3d632f6c2c683d31302a6d2c753d6110408201527f652e72616e646f6d5f64656328292c773d652e72616e646f6d5f696e742833306110608201527f302c383030292c553d652e72616e646f6d5f63686f696365285b2d34352c34356110808201527f5d292c643d652e72616e646f6d5f63686f696365285b302c312c325d293b62726110a08201527f65616b3b636173652031323a693d31302c733d312c673d32302c443d31352c726110c08201527f3d2e312c243d2e3034352c6c3d652e72616e646f6d5f6e756d28322c34292c636110e08201527f3d652e72616e646f6d5f696e74283830302c31313030292c6d3d632f6c2c683d6111008201527f6d2f31302c753d2e30362c773d652e72616e646f6d5f696e74283130302c38306111208201527f30293b627265616b3b636173652031333a693d332c733d312c673d312c443d656111408201527f2e72616e646f6d5f696e742835302c313030292c723d2e30312c243d652e72616111608201527f6e646f6d5f6e756d282e30362c2e3039292c6c3d652e72616e646f6d5f6e756d6111808201527f28322c34292c633d652e72616e646f6d5f696e74283135302c323030292c6d3d6111a08201527f632f6c2c683d31302a6d2c753d2e30362c773d652e72616e646f6d5f696e74286111c08201527f3330302c383030292c553d652e72616e646f6d5f63686f696365285b2d34352c6111e08201527f34355d293b627265616b3b636173652031343a693d332c733d312c673d342c446112008201527f3d34302c723d2e312c243d2e30332c6c3d332c633d652e72616e646f6d5f696e6112208201527f74283730302c31313030292c6d3d632f6c2c683d6d2f652e72616e646f6d5f696112408201527f6e7428322c35292c753d2e30362c773d652e72616e646f6d5f696e74283130306112608201527f2c383030292c553d652e72616e646f6d5f63686f696365285b2d33302c33305d6112808201527f292c412a3d332c782a3d332c6a3d66756e6374696f6e2865297b72657475726e6112a08201527f20636f6c6f725b655d7d3b627265616b3b636173652031353a693d332c733d356112c08201527f2c673d332c443d33302c723d2e3032352c243d2e30332c6c3d652e72616e646f6112e08201527f6d5f6e756d28322c34292c633d652e72616e646f6d5f696e74283830302c31326113008201527f3030292c6d3d632f6c2c683d6d2f35302c753d2e30362c773d652e72616e646f6113208201527f6d5f696e74283130302c383030292c553d652e72616e646f6d5f63686f6963656113408201527f285b2d34352c34355d292c623d21303b627265616b3b636173652031363a693d6113608201527f322c733d312c673d332c443d31302c723d2e3031352c243d2e332c6c3d652e726113808201527f616e646f6d5f6e756d28322c34292c633d652e72616e646f6d5f696e742838306113a08201527f302c31323030292c6d3d632f6c2c683d6d2f3130302c753d2e30362c773d652e6113c08201527f72616e646f6d5f696e74283130302c383030292c553d652e72616e646f6d5f636113e08201527f686f696365285b2d34352c34355d292c782a3d332c412a3d332c643d652e72616114008201527f6e646f6d5f63686f696365285b312c322c335d293b627265616b3b63617365206114208201527f31373a693d352c733d322c673d332c443d31302c723d2e3038352c243d2e352c6114408201527f6c3d652e72616e646f6d5f6e756d28322c34292c633d652e72616e646f6d5f696114608201527f6e74283830302c31323030292c6d3d632f6c2c683d6d2f3330302c753d2e30366114808201527f2c773d652e72616e646f6d5f696e74283130302c383030292c553d652e72616e6114a08201527f646f6d5f63686f696365285b2d34352c34355d292c782a3d332c412a3d332c646114c08201527f3d652e72616e646f6d5f63686f696365285b312c322c335d293b627265616b3b6114e08201527f636173652031383a693d312c733d312c673d352c443d3130302c723d2e312c246115008201527f3d2e312c6c3d332c633d652e72616e646f6d5f696e74283830302c31313030296115208201527f2c6d3d632f6c2c683d6d2f322c753d2e30362c773d652e72616e646f6d5f696e6115408201527f74283130302c383030292c553d652e72616e646f6d5f63686f696365285b2d346115608201527f352c34355d293b627265616b3b636173652031393a693d31302c733d312c673d6115808201527f362c443d31302c723d2e3032382c243d2e30322c6c3d342c633d652e72616e646115a08201527f6f6d5f696e74283830302c31313030292c6d3d632f6c2c683d6d2f332c753d2e6115c08201527f30362c773d652e72616e646f6d5f696e74283130302c383030292c553d652e726115e08201527f616e646f6d5f63686f696365285b2d34352c34355d293b627265616b3b6361736116008201527f652032303a693d31352c733d31302c673d362c443d3130302c723d2e30332c246116208201527f3d2e30322c6c3d652e72616e646f6d5f6e756d28322c34292c633d652e72616e6116408201527f646f6d5f696e74283830302c31313030292c6d3d632f6c2c683d6d2f31302c756116608201527f3d2e30362c773d652e72616e646f6d5f696e74283130302c383030292c553d656116808201527f2e72616e646f6d5f63686f696365285b2d34352c34355d293b627265616b3b636116a08201527f6173652032313a693d382c733d312c673d31302c443d35302c723d2e3031352c6116c08201527f243d2e30322c6c3d332c633d652e72616e646f6d5f696e74283830302c3131306116e08201527f30292c6d3d632f6c2c683d6d2f332c753d2e30362c773d652e72616e646f6d5f6117008201527f696e74283130302c383030292c553d652e72616e646f6d5f63686f696365285b6117208201527f2d34352c34355d293b627265616b3b636173652032323a693d332c733d31352c6117408201527f543d312c673d362c443d31302c723d2e30322c243d2e32352c493d2e30312c6c6117608201527f3d342c633d652e72616e646f6d5f696e74283530302c31313030292c6d3d632f6117808201527f6c2c683d6d2f38302c5f3d6d2f33302c753d2e30362c773d652e72616e646f6d6117a08201527f5f696e74283130302c383030292c553d652e72616e646f6d5f63686f696365286117c08201527f5b2d34352c34355d292c473d21303b627265616b3b636173652032333a693d356117e08201527f2c733d312c543d31302c673d33302c443d3130302c723d2e30342c243d2e312c6118008201527f493d2e30312c6c3d332c633d652e72616e646f6d5f696e74283530302c3131306118208201527f30292c6d3d632f6c2c683d332a6d2c5f3d6d2f35302c753d2e30362c773d652e6118408201527f72616e646f6d5f696e74283130302c383030292c553d652e72616e646f6d5f636118608201527f686f696365285b2d34352c34355d292c473d21303b627265616b3b63617365206118808201527f32343a693d312c733d352c543d31302c673d31302c443d31302c723d2e30312c6118a08201527f243d2e30392c493d2e30392c6c3d342c633d652e72616e646f6d5f696e7428386118c08201527f30302c31313030292c6d3d632f6c2c683d6d2f3130302c5f3d332a6d2c753d2e6118e08201527f30362c773d652e72616e646f6d5f696e74283130302c383030292c553d652e726119008201527f616e646f6d5f63686f696365285b2d34352c34355d292c473d21302c643d652e6119208201527f72616e646f6d5f63686f696365285b322c305d293b627265616b3b63617365206119408201527f32353a693d332c733d332c543d31302c673d31302c443d33302c723d2e312c246119608201527f3d2e30312c493d2e312c6c3d352c633d652e72616e646f6d5f696e74283530306119808201527f2c31313030292c6d3d632f6c2c683d6d2c5f3d6d2f31302c753d2e30362c773d6119a08201527f652e72616e646f6d5f696e74283130302c383030292c553d652e72616e646f6d6119c08201527f5f63686f696365285b2d34352c34355d292c473d21303b627265616b3b6361736119e08201527f652032363a693d332c733d332c543d362c673d31302c443d33302c723d2e312c611a008201527f243d2e30312c493d2e312c6c3d352c633d652e72616e646f6d5f696e74283530611a208201527f302c31313030292c6d3d632f6c2c683d6d2c5f3d6d2f35302c753d2e30362c77611a408201527f3d652e72616e646f6d5f696e74283130302c383030292c553d652e72616e646f611a608201527f6d5f63686f696365285b2d34352c34355d292c473d21307d552b3d343d3d3d64611a808201527f3f652e72616e646f6d5f63686f696365285b2d34352c34355d293a302c243d24611aa08201527f7c7c302c733d737c7c302c503d21312c713d21302c4d3d652e72616e646f6d5f611ac08201527f63686f696365285b2e3939342c2e3939352c2e3939362c2e3939372c2e393938611ae08201527f5d292c4e3d312d652e72616e646f6d5f696e7428312c32292a4d2b312c4c3d2d611b008201527f35302c533d3235302c453d2d3130302c433d3135302c763d28432d45292f342c611b208201527f663d652e72616e646f6d5f696e7428452c43292c703d652e72616e646f6d5f69611b408201527f6e7428302c313030292c793d652e72616e646f6d5f696e7428312c316533292c611b608201527f573d27272c523d28432d45292f322c4c3d652e72616e646f6d5f696e74282d31611b808201527f322e352c31322e35292c636f6e736f6c652e6c6f672827626173654672657127611ba08201527f2c722c2764656e73697479272c672c277374726f6b655769647468272c442c27611bc08201527f7363616c65272c632c277363616c6532272c6d2c277363616c6534272c5f2c27611be08201527f64656e73697479496e6372656d656e74272c752c277363616c65206469766964611c008201527f65272c6c2c276e756d4f637461766573272c692c276e756d4f63746176657332611c208201527f272c732c276d6f6f64272c6d6f6f642c2774797065272c642c2765726f73696f611c408201527f6e272c772c276973566572746963616c272c622c27636f6c6f72272c636f6c6f611c608201527f725b305d2c27636f6c6f724e616d65272c4b297d28292c6177616974206e6577611c808201527f2050726f6d6973652828653d3e73657454696d656f757428652c323030292929611ca08201527f2c72657175657374416e696d6174696f6e4672616d65282866756e6374696f6e611cc08201527f28297b7570646174654c6f6164657228274c6f6164696e672066696c74657273611ce08201527f27297d29292c6177616974206e65772050726f6d6973652828653d3e73657454611d008201527f696d656f757428652c3230302929292c572b3d27203c646566733e272c572b3d611d208201527f273c66696c7465722069643d276630273e272c572b3d603c66654d6f7270686f611d408201527f6c6f6779206f70657261746f723d2765726f646527207261646975733d27247b611d608201527f777d27202f3e602c572b3d273c2f66696c7465723e272c572b3d600a20202020611d808201527f20203c66696c7465722069643d276631273e0a20202020202020203c66655475611da08201527f7262756c656e636520747970653d276672616374616c4e6f697365270a202020611dc08201527f20202020202020202020202020202020202020626173654672657175656e6379611de08201527f3d27247b727d27206e756d4f6374617665733d27247b697d270a202020202020611e008201527f20202020202020202020202020202020736565643d27247b797d270a20202020611e208201527f202020202020202020202020202020202020726573756c743d2774757262756c611e408201527f656e636527202f3e0a20202020202020203c666554757262756c656e63652074611e608201527f7970653d276672616374616c4e6f697365270a20202020202020202020202020611e808201527f202020202020202020626173654672657175656e63793d27247b247d27206e75611ea08201527f6d4f6374617665733d27247b737d270a20202020202020202020202020202020611ec08201527f202020202020736565643d27247b792b317d270a202020202020202020202020611ee08201527f20202020202020202020726573756c743d2774757262756c656e63653227202f611f008201527f3e0a20202020202020203c6665446973706c6163656d656e744d617020696e32611f208201527f3d2774757262756c656e6365270a202020202020202020202020202020202020611f408201527f202020202020202020696e3d27536f757263654772617068696327207363616c611f608201527f653d27247b6d7d270a2020202020202020202020202020202020202020202020611f808201527f20202020726573756c743d27646973706c6163656d656e74270a202020202020611fa08201527f202020202020202020202020202020202020202020784368616e6e656c53656c611fc08201527f6563746f723d2741270a20202020202020202020202020202020202020202020611fe08201527f2020202020794368616e6e656c53656c6563746f723d274127202f3e0a2020206120008201527f20202020203c6665446973706c6163656d656e744d617020696e323d277475726120208201527f62756c656e6365270a20202020202020202020202020202020202020202020206120408201527f20202020696e3d27536f757263654772617068696327207363616c653d27247b6120608201527f6d7d270a202020202020202020202020202020202020202020202020202020726120808201527f6573756c743d27646973706c6163656d656e7442270a202020202020202020206120a08201527f2020202020202020202020202020202020784368616e6e656c53656c6563746f6120c08201527f723d2741270a20202020202020202020202020202020202020202020202020206120e08201527f20794368616e6e656c53656c6563746f723d274127202f3e602c572b3d600a206121008201527f20202020202020202020203c6665446973706c6163656d656e744d617020696e6121208201527f323d2774757262756c656e636532270a202020202020202020202020202020206121408201527f2020202020202020202020696e3d27646973706c6163656d656e7427207363616121608201527f6c653d27247b687d270a202020202020202020202020202020202020202020206121808201527f2020202020726573756c743d27646973706c6163656d656e7432270a202020206121a08201527f2020202020202020202020202020202020202020202020784368616e6e656c536121c08201527f656c6563746f723d2741270a20202020202020202020202020202020202020206121e08201527f20202020202020794368616e6e656c53656c6563746f723d274127202f3e0a206122008201527f2020202020202020202020202020203c6665446973706c6163656d656e744d616122208201527f7020696e323d2774757262756c656e636532270a2020202020202020202020206122408201527f202020202020202020202020202020696e3d27646973706c6163656d656e74426122608201527f27207363616c653d27247b687d270a20202020202020202020202020202020206122808201527f20202020202020202020726573756c743d27646973706c6163656d656e7442326122a08201527f270a2020202020202020202020202020202020202020202020202020207843686122c08201527f616e6e656c53656c6563746f723d2741270a20202020202020202020202020206122e08201527f20202020202020202020202020794368616e6e656c53656c6563746f723d27416123008201527f27202f3e0a2020202020202020202020202020202020202020202020202020206123208201527f3b602c47262628572b3d600a2020202020202020202020203c666554757262756123408201527f6c656e636520747970653d276672616374616c4e6f697365270a2020202020206123608201527f20202020202020202020202020202020626173654672657175656e63793d27246123808201527f7b497d27206e756d4f6374617665733d27247b547d270a2020202020202020206123a08201527f20202020202020202020202020736565643d27247b797d270a202020202020206123c08201527f202020202020202020202020202020726573756c743d2774757262756c656e636123e08201527f653327202f3e0a2020202020202020202020203c6665446973706c6163656d656124008201527f6e744d617020696e323d2774757262756c656e636533270a20202020202020206124208201527f20202020202020202020202020202020202020696e3d27646973706c6163656d6124408201527f656e7427207363616c653d27247b5f7d270a20202020202020202020202020206124608201527f20202020202020202020202020726573756c743d27646973706c6163656d656e6124808201527f7433270a202020202020202020202020202020202020202020202020202020786124a08201527f4368616e6e656c53656c6563746f723d2742270a2020202020202020202020206124c08201527f202020202020202020202020202020794368616e6e656c53656c6563746f723d6124e08201527f274127202f3e0a202020202020202020202020202020202020202020202020206125008201527f20203b60292c572b3d270a2020202020203c6665426c656e6420696e3d2764696125208201527f73706c6163656d656e74322720696e323d27646973706c6163656d656e7432276125408201527f20726573756c743d276275726e27206d6f64653d276e6f726d616c272f3e0a206125608201527f20202020272c572b3d270a3c2f66696c7465723e0a202020203c2f646566733e6125808201527f0a2020272c572b3d600a202020200a20203c726563742066696c6c3d2723247b6125a08201527f636f6c6f725b305d7d2720783d27302720793d2730272077696474683d2731306125c08201527f3027206865696768743d2731303027202f3e0a602c482e696e6e657248544d4c6125e08201527f2b3d572c72657175657374416e696d6174696f6e4672616d65282866756e63746126008201527f696f6e28297b72656d6f7665416c6c4c6f616465727328292c6164644c6f61646126208201527f657228274c6f6164696e672068746d6c27297d29292c6177616974206e6577206126408201527f50726f6d6973652828653d3e73657454696d656f757428652c3230302929292c6126608201527f573d27272c64297b6361736520323a623f287a3d607472616e736c61746528356126808201527f302c35302920726f7461746528247b557d29207363616c6528247b787d20247b6126a08201527f417d29207472616e736c617465282d35302c2d353029602c4f3d66756e6374696126c08201527f6f6e28652c6e2c742c6f2c61297b72657475726e603c6c696e65207472616e736126e08201527f666f726d3d27247b7a7d272066696c7465723d2775726c2823247b657d2927206127008201527f7374726f6b652d6f7061636974793d272e39352720207374726f6b653d2723246127208201527f7b6e7d27207374796c653d277374726f6b652d77696474683a247b617d2720796127408201527f313d27247b747d272078313d27247b6f7d272078323d27247b31305e747d27206127608201527f79323d27247b6f7d27202f3e607d293a287a3d607472616e736c6174652835306127808201527f2c35302920726f7461746528247b557d29207363616c6528247b787d20247b416127a08201527f7d29207472616e736c617465282d35302c2d353029602c4f3d66756e6374696f6127c08201527f6e28652c6e2c742c6f2c61297b72657475726e603c6c696e65207472616e73666127e08201527f6f726d3d27247b7a7d272066696c7465723d2775726c2823247b657d292720736128008201527f74726f6b652d6f7061636974793d272e39352720207374726f6b653d2723247b6128208201527f6e7d27207374796c653d277374726f6b652d77696474683a247b617d272078316128408201527f3d27247b747d272079313d27247b6f7d272079323d27247b31305e747d2720786128608201527f323d27247b6f7d27202f3e607d293b627265616b3b6361736520333a623f287a6128808201527f3d607472616e736c6174652835302c35302920726f7461746528247b557d29206128a08201527f7363616c6528247b787d20247b417d29207472616e736c617465282d35302c2d6128c08201527f353029602c4f3d66756e6374696f6e28652c6e2c742c6f2c61297b72657475726128e08201527f6e603c6c696e65207472616e73666f726d3d27247b7a7d272066696c7465723d6129008201527f2775726c2823247b657d2927207374726f6b652d6f7061636974793d272e39356129208201527f27207374726f6b653d2723247b6e7d27207374796c653d277374726f6b652d776129408201527f696474683a247b617d272079313d27247b747d272078313d27247b6f7d2720786129608201527f323d27247b322a747d272079323d27247b322a6f7d27202f3e607d293a287a3d6129808201527f607472616e736c6174652835302c35302920726f7461746528247b557d2920736129a08201527f63616c6528247b787d20247b417d29207472616e736c617465282d35302c2d356129c08201527f3029602c4f3d66756e6374696f6e28652c6e2c742c6f2c61297b72657475726e6129e08201527f603c6c696e65207472616e73666f726d3d27247b7a7d272066696c7465723d27612a008201527f75726c2823247b657d29277374726f6b652d6f7061636974793d272e39352720612a208201527f207374726f6b653d2723247b6e7d27207374796c653d277374726f6b652d7769612a408201527f6474683a247b617d272078313d27247b747d272079313d27247b6f7d27207932612a608201527f3d27247b322a747d272078323d27247b322a6f7d27202f3e607d293b62726561612a808201527f6b3b6361736520343a452d3d3130302c623f287a3d607472616e736c61746528612aa08201527f35302c35302920726f7461746528247b552b652e72616e646f6d5f63686f6963612ac08201527f65285b2d34352c34355d297d29207363616c6528247b787d20247b417d292074612ae08201527f72616e736c617465282d35302c2d353029602c4f3d66756e6374696f6e28652c612b008201527f6e2c742c6f2c61297b72657475726e603c6c696e65207472616e73666f726d3d612b208201527f27247b7a7d27202066696c7465723d2775726c2823247b657d2927207374726f612b408201527f6b652d6f7061636974793d272e39352720207374726f6b653d2723247b6e7d27612b608201527f207374796c653d277374726f6b652d77696474683a247b617d272079313d2724612b808201527f7b747d272078313d27247b6f7d272078323d27247b742b3130307d272079323d612ba08201527f27247b6f7d27202f3e607d293a287a3d607472616e736c6174652835302c3530612bc08201527f2920726f7461746528247b552b652e72616e646f6d5f63686f696365285b2d34612be08201527f352c34355d297d29207363616c6528247b787d20247b417d29207472616e736c612c008201527f617465282d35302c2d353029602c4f3d66756e6374696f6e28652c6e2c742c6f612c208201527f2c61297b72657475726e603c6c696e65207472616e73666f726d3d27247b7a7d612c408201527f2720202066696c7465723d2775726c2823247b657d2927207374726f6b652d6f612c608201527f7061636974793d272e39352720207374726f6b653d2723247b6e7d2720737479612c808201527f6c653d277374726f6b652d77696474683a247b617d272078313d27247b747d27612ca08201527f2079313d27247b6f7d272079323d27247b742b3130307d272078323d27247b6f612cc08201527f7d27202f3e607d293b627265616b3b64656661756c743a623f287a3d60747261612ce08201527f6e736c6174652835302c35302920726f7461746528247b557d29207363616c65612d008201527f28247b787d20247b417d29207472616e736c617465282d35302c2d353029602c612d208201527f4f3d66756e6374696f6e28652c6e2c742c6f2c61297b72657475726e603c6c69612d408201527f6e65207472616e73666f726d3d27247b7a7d27202066696c7465723d2775726c612d608201527f2823247b657d29277374726f6b652d6f7061636974793d272e39352720207374612d808201527f726f6b653d2723247b6e7d27207374796c653d277374726f6b652d7769647468612da08201527f3a247b617d272079313d27247b747d272078313d27247b6f7d272078323d2724612dc08201527f7b747d272079323d27247b6f7d27202f3e607d293a287a3d607472616e736c61612de08201527f74652835302c35302920726f7461746528247b557d29207363616c6528247b78612e008201527f7d20247b417d29207472616e736c617465282d35302c2d353029602c4f3d6675612e208201527f6e6374696f6e28652c6e2c742c6f2c61297b72657475726e603c6c696e652074612e408201527f72616e73666f726d3d27247b7a7d27202066696c7465723d2775726c2823247b612e608201527f657d29277374726f6b652d6f7061636974793d272e39352720207374726f6b65612e808201527f3d2723247b6e7d27207374796c653d277374726f6b652d77696474683a247b61612ea08201527f7d272078313d27247b747d272079313d27247b6f7d272079323d27247b747d27612ec08201527f2078323d27247b6f7d27202f3e607d297d652e72616e646f6d5f626f6f6c282e612ee08201527f34293f563d66756e6374696f6e2865297b442a3d653c523f2d4d3a2d4e7d3a28612f008201527f4c3d652e72616e646f6d5f696e742831302c3130302f332e35292c4e3d652e72612f208201527f616e646f6d5f696e7428342c3132292c563d66756e6374696f6e2865297b442a612f408201527f3d4d7d292c463d302c6b3d303b666f72286c6574206e3d4c3b6e3c3d533b6e2b612f608201527f3d67297b462b2b2c463e3d636f6c6f722e6c656e677468262628463d30292c67612f808201527f2b3d752c423d6a2846293b666f72286c657420743d303b743c323b742b2b297b612fa08201527f6c6574206f3d6e2c613d6066247b747d603b666f72286c6574206e3d453b6e3c612fc08201527f433b6e2b3d76296b2b2b2c56286e292c572b3d4f28612c422c6e2c6f2c652e72612fe08201527f616e646f6d5f6e756d28302c44292c636f6c6f725b4d6174682e61627328462d6130008201527f31295d297d7d572b3d603c726563742066696c6c3d2723247b636f6c6f725b306130208201527f5d7d2720783d27302720793d27247b532b677d272077696474683d27313030276130408201527f206865696768743d2731303027202f3e602c72657175657374416e696d6174696130608201527f6f6e4672616d65282866756e6374696f6e28297b7570646174654c6f616465726130808201527f282752656e646572696e67205356472c20746869732063616e2074616b6520616130a08201527f20666577207365636f6e647327297d29292c6177616974206e65772050726f6d6130c08201527f6973652828653d3e73657454696d656f757428652c3230302929292c726571756130e08201527f657374416e696d6174696f6e4672616d65282866756e6374696f6e28297b482e6131008201527f696e6e657248544d4c2b3d577d29292c72657175657374416e696d6174696f6e6131208201527f4672616d65282866756e6374696f6e28297b72656d6f7665416c6c4c6f6164656131408201527f727328297d29292c646f63756d656e742e6164644576656e744c697374656e656131608201527f7228276b6579646f776e272c286173796e632066756e6374696f6e2865297b696131808201527f66282773273d3d3d652e6b65797c7c2753273d3d3d652e6b6579297b726571756131a08201527f657374416e696d6174696f6e4672616d65282866756e6374696f6e28297b61646131c08201527f644c6f616465722827536176696e672053564727297d29292c6177616974206e6131e08201527f65772050726f6d6973652828653d3e73657454696d656f757428652c323030296132008201527f29293b636f6e737420653d646f63756d656e742e676574456c656d656e7442796132208201527f496428276d7953766727292c6e3d646f63756d656e742e637265617465456c656132408201527f6d656e7428277374796c6527293b6e2e74657874436f6e74656e743d600a20206132608201527f2020737667207b0a20202020202077696474683a2031303076773b0a202020206132808201527f20206865696768743a2031303076683b0a20202020202070616464696e673a206132a08201527f30766d696e3b0a202020202020626f782d736861646f773a202e35766d696e206132c08201527f2e35766d696e2031766d696e207267626128302c20302c20302c20302e35293b6132e08201527f0a202020202020626f782d73697a696e673a20626f726465722d626f783b0a206133008201527f2020207d0a202020203c212d2d20496620796f752077616e7420746f206469736133208201527f706c617920746865205356472061732069742077617320696e207468652067656133408201527f6e657261746f722c206a7573742070757420697420696e746f20746865203c626133608201527f6f64793e206f6620616e2068746d6c207061676520616e6420616464207468696133808201527f73207374796c696e67202d2d3e0a20202020626f6479207b0a202020202020646133a08201527f6973706c61793a20666c65783b0a2020202020206a7573746966792d636f6e746133c08201527f656e743a2063656e7465723b0a202020202020616c69676e2d6974656d733a206133e08201527f63656e7465723b0a2020202020206261636b67726f756e642d636f6c6f723a206134008201527f23247b636f6c6f725b305d7d3b0a202020207d0a2020602c652e70726570656e6134208201527f64286e293b636f6e737420743d6e657720584d4c53657269616c697a65722c6f6134408201527f3d6e657720426c6f62285b742e73657269616c697a65546f537472696e6728656134608201527f295d2c7b747970653a27696d6167652f7376672b786d6c277d292c613d55524c6134808201527f2e6372656174654f626a65637455524c286f293b646f63756d656e742e7772696134a08201527f74652865293b636f6e737420723d646f63756d656e742e637265617465456c656134c08201527f6d656e7428276127293b722e687265663d612c722e646f776e6c6f61643d275f6134e08201527f5f5f5f5f5f5f5f5f2e737667272c646f63756d656e742e626f64792e617070656135008201527f6e644368696c642872292c722e636c69636b28292c646f63756d656e742e626f6135208201527f64792e72656d6f76654368696c642872292c55524c2e7265766f6b654f626a656135408201527f637455524c2861292c72656d6f7665416c6c4c6f616465727328297d7d29292c6135608201527f646f63756d656e742e6164644576656e744c697374656e657228276b6579646f6135808201527f776e272c286173796e632066756e6374696f6e2865297b72657175657374416e6135a08201527f696d6174696f6e4672616d65282866756e6374696f6e28297b6164644c6f61646135c08201527f657228274c6f6164696e67206e65772061737065637420726174696f27297d296135e08201527f292c6177616974206e65772050726f6d6973652828653d3e73657454696d656f6136008201527f757428652c3230302929292c274172726f775269676874273d3d3d652e6b65796136208201527f3f743d28742b3129256e2e6c656e6774683a274172726f774c656674273d3d3d6136408201527f652e6b6579262628743d28742d312b6e2e6c656e67746829256e2e6c656e67746136608201527f68292c736574526174696f286e2c74292c72656d6f7665416c6c4c6f616465726136808201527f7328297d29292c482e6164644576656e744c697374656e65722827746f7563686136a08201527f656e64272c286173796e632066756e6374696f6e2865297b72657175657374416136c08201527f6e696d6174696f6e4672616d65282866756e6374696f6e28297b6164644c6f616136e08201527f64657228274c6f6164696e67206e65772061737065637420726174696f27297d6137008201527f29292c6177616974206e65772050726f6d6973652828653d3e73657454696d656137208201527f6f757428652c3230302929292c743d28742b3129256e2e6c656e6774683b636f6137408201527f6e7374206f3d6e5b745d3b646f63756d656e742e676574456c656d656e7442796137608201527f496428276d7953766727292c646f526174696f286f2c646f63756d656e742e676137808201527f6574456c656d656e744279496428276d795376672729292c72656d6f7665416c6137a08201527f6c4c6f616465727328297d29297d3b66756e6374696f6e20646f526174696f286137c08201527f652c6e297b3130303d3d3d652e776964746826263130303d3d3d652e686569676137e08201527f68743f286e2e7374796c652e77696474683d273130307677272c6e2e7374796c6138008201527f652e6865696768743d27313030766827293a652e77696474682f652e686569676138208201527f68743e313f286e2e7374796c652e77696474683d273130307677272c6e2e73746138408201527f796c652e6865696768743d6063616c63283130307677202a2028247b652e68656138608201527f696768747d202f20247b652e77696474687d292960293a286e2e7374796c652e6138808201527f6865696768743d273130307668272c6e2e7374796c652e77696474683d6063616138a08201527f6c63283130307668202a2028247b652e77696474687d202f20247b652e6865696138c08201527f6768747d292960297d66756e6374696f6e2066696e644e616d654279436f6c6f6138e08201527f7228652c6e297b666f72286c657420743d303b743c6e2e6c656e6774683b742b6139008201527f2b296966286e5b745d2e636f6c6f723d3d3d652972657475726e206e5b745d2e6139208201527f6e616d657d66756e6374696f6e20736574526174696f28652c6e297b646f52616139408201527f74696f28655b6e5d2c646f63756d656e742e676574456c656d656e74427949646139608201527f28276d795376672729297d6c65742069734c6f616465643d21313b66756e63746139808201527f696f6e20697353616661726928297b72657475726e27756e646566696e6564276139a08201527f213d747970656f66206e6176696761746f7226266e756c6c213d6e61766967616139c08201527f746f7226262f5e28283f216368726f6d657c616e64726f6964292e292a7361666139e08201527f6172692f692e74657374286e6176696761746f723f2e757365724167656e7429613a008201527f7d66756e6374696f6e2072656d6f7665416c6c4c6f616465727328297b646f63613a208201527f756d656e742e717565727953656c6563746f72416c6c28272e6c6f616465722d613a408201527f636f6e7461696e657227292e666f72456163682828653d3e7b652e706172656e613a608201527f744e6f64652e72656d6f76654368696c642865297d29297d66756e6374696f6e613a808201527f206164644c6f616465722865297b6c6574206e3d646f63756d656e742e637265613aa08201527f617465456c656d656e74282764697627293b6e2e636c6173734e616d653d276c613ac08201527f6f616465722d636f6e7461696e6572272c6e2e7374796c652e706f736974696f613ae08201527f6e3d276162736f6c757465272c6e2e7374796c652e6c6566743d27353025272c613b008201527f6e2e7374796c652e746f703d27353025272c6e2e7374796c652e7472616e7366613b208201527f6f726d3d277472616e736c617465282d3530252c202d35302529273b636f6e73613b408201527f7420743d646f63756d656e742e637265617465456c656d656e74282764697627613b608201527f293b6c6574206f3b696628742e696e6e6572546578743d652b272e2e2e272c74613b808201527f2e7374796c652e636f6c6f723d2723464646464646272c742e7374796c652e62613ba08201527f6f726465723d2723303030303030272c742e7374796c652e666f6e7446616d69613bc08201527f6c793d2748656c7665746963612c20417269616c2c2073616e732d7365726966613be08201527f272c742e7374796c652e666f6e7453697a653d2731347078272c742e7374796c613c008201527f652e77696474683d276d61782d636f6e74656e74272c742e7374796c652e6469613c208201527f73706c61793d27696e6c696e652d626c6f636b272c742e636c6173734e616d65613c408201527f3d276c6f6164696e672d74657874272c742e69643d276c6f616465722d746578613c608201527f74272c6e2e617070656e644368696c642874292c646f63756d656e742e626f64613c808201527f792e617070656e644368696c64286e292c646f63756d656e742e7374796c6553613ca08201527f68656574732e6c656e6774683e30296f3d646f63756d656e742e7374796c6553613cc08201527f68656574735b305d3b656c73657b636f6e737420653d646f63756d656e742e63613ce08201527f7265617465456c656d656e7428277374796c6527293b646f63756d656e742e68613d008201527f6561642e617070656e644368696c642865292c6f3d652e73686565747d6f2e69613d208201527f6e7365727452756c6528270a20202020406b65796672616d6573207370696e20613d408201527f7b0a20202020202020203025207b207472616e73666f726d3a20726f74617465613d608201527f2830646567293b207d0a202020202020202031303025207b207472616e73666f613d808201527f726d3a20726f7461746528333630646567293b207d0a202020207d0a20202020613da08201527f272c6f2e63737352756c65732e6c656e677468297d66756e6374696f6e207570613dc08201527f646174654c6f616465722865297b646f63756d656e742e717565727953656c65613de08201527f63746f72416c6c28272e6c6f6164696e672d7465787427292e666f7245616368613e008201527f28286e3d3e7b6e2e696e6e6572546578743d652b272e2e2e277d29297d66756e613e208201527f6374696f6e20616464506f74656e7469616c506f70757028297b76617220653d613e408201527f646f63756d656e742e637265617465456c656d656e74282764697627293b652e613e608201527f69643d277361666172692d706f707570272c652e7374796c653d27646973706c613e808201527f61793a206e6f6e653b20706f736974696f6e3a2066697865643b20746f703a20613ea08201527f3530253b206c6566743a203530253b207472616e73666f726d3a207472616e73613ec08201527f6c617465282d3530252c202d353025293b206261636b67726f756e642d636f6c613ee08201527f6f723a2077686974653b2070616464696e673a20323070783b20626f72646572613f008201527f3a2031707820736f6c696420236363633b207a2d696e6465783a20313030303b613f208201527f272c652e696e6e657248544d4c3d273c703e5765206861766520646574656374613f408201527f656420796f7520617265207573696e6720746865207765622062726f73657220613f608201527f5361666172692e205361666172692063757272656e746c792075736573203c61613f808201527f207461726765743d275f626c616e6b2720687265663d2768747470733a2f2f65613fa08201527f6e2e77696b6970656469612e6f72672f77696b692f436f6d70617269736f6e5f613fc08201527f6f665f62726f777365725f656e67696e6573273e5765624b69743c2f613e2c20613fe08201527f77686963682063616e2068617665206c61726765206d656d6f7279206c65616b6140008201527f73207768656e206c6f6164696e67205356477320776974682066696c746572736140208201527f2c206d616b696e67207468652073797374656d20756e726573706f6e736976656140408201527f2e2054686973203c61207461726765743d275f626c616e6b2720687265663d276140608201527f68747470733a2f2f627567732e7765626b69742e6f72672f73686f775f6275676140808201527f2e6367693f69643d323138343232273e69737375653c2f613e206861732062656140a08201527f656e207265706f7274656420746f205765624b69742e2049207265636f6d6d656140c08201527f6e64203c61207461726765743d275f626c616e6b2720687265663d27687474706140e08201527f733a2f2f656e2e77696b6970656469612e6f72672f77696b692f436f6d7061726141008201527f69736f6e5f6f665f62726f777365725f656e67696e6573273e426c696e6b3c2f6141208201527f613e2062617365642062726f777365727320286173206f66203230323429206c6141408201527f696b6520476f6f676c65204368726f6d6520616e64204d6963726f736f6674206141608201527f456467652e20496620796f7520776f756c64206c696b6520746f20636f6e74696141808201527f6e75652c206b6e6f77696e67207468617420536166617269206d6179206861766141a08201527f65206973737565732c206f722062656c696576696e67207468617420536166616141c08201527f7269206e6f7720636f72726563746c7920737570706f727473205356472066696141e08201527f6c65732c20796f75206d61792e3c2f703e3c627574746f6e206f6e636c69636b6142008201527f3d27636c6f7365506f7075702829273e4920756e6465727374616e6420616e646142208201527f207769736820746f20636f6e74696e7565206174206d79206f776e207269736b6142408201527f2e3c2f627574746f6e3e272c646f63756d656e742e626f64792e617070656e646142608201527f4368696c642865297d66756e6374696f6e20636c6f7365506f70757028297b766142808201527f617220653d646f63756d656e742e676574456c656d656e7442794964282773616142a08201527f666172692d706f70757027292c6e3d646f63756d656e742e676574456c656d656142c08201527f6e744279496428277361666172692d62616e6e657227293b6526262873686f756142e08201527f6c644c6f616444726177696e673d21302c652e7374796c652e646973706c61796143008201527f3d276e6f6e65272c6e2e7374796c652e646973706c61793d276e6f6e6527297d6143208201527f736574496e74657276616c282866756e6374696f6e28297b6966282169734c6f6143408201527f61646564297b69734c6f616465643d21302c72657175657374416e696d6174696143608201527f6f6e4672616d6528616464506f74656e7469616c506f707570292c72657175656143808201527f7374416e696d6174696f6e4672616d65282866756e6374696f6e28297b6966286143a08201527f69735361666172692829297b636f6e737420653d646f63756d656e742e6372656143c08201527f617465456c656d656e74282764697627293b652e7374796c652e706f736974696143e08201527f6f6e3d276669786564272c652e7374796c652e626f74746f6d3d2730272c652e6144008201527f7374796c652e6c6566743d2730272c652e7374796c652e77696474683d2731306144208201527f3025272c652e7374796c652e6261636b67726f756e64436f6c6f723d277265646144408201527f272c652e7374796c652e636f6c6f723d277768697465272c652e7374796c652e6144608201527f74657874416c69676e3d2763656e746572272c652e7374796c652e70616464696144808201527f6e673d2731307078272c652e7374796c652e7a496e6465783d2731303030272c6144a08201527f652e636c6173734e616d653d277361666172692d62616e6e6572272c646f63756144c08201527f6d656e742e626f64792e617070656e644368696c642865292c646f63756d656e6144e08201527f742e676574456c656d656e744279496428277361666172692d706f70757027296145008201527f2e7374796c652e646973706c61793d27626c6f636b277d656c73652073686f756145208201527f6c644c6f616444726177696e673d21307d29293b6c657420653d736574496e746145408201527f657276616c282866756e6374696f6e28297b73686f756c644c6f6164447261776145608201527f696e6726266173796e632066756e6374696f6e28297b636c656172496e7465726145808201527f76616c2865292c6177616974206e65772050726f6d6973652828653d3e7365746145a08201527f54696d656f757428652c3230302929292c6177616974206472617728297d28296145c08201527f7d292c313030297d7d292c316533293b3c2f7363726970743e3c2f686561643e6145e082015250565b5f61adee61460083610485565b915061adf982615897565b61460082019050919050565b5f61ae0f82615747565b915061ae1b8287610624565b60208201915061ae2a82615791565b915061ae3682866157b3565b915061ae418261580b565b915061ae4d8285615836565b60208201915061ae5c82615875565b915061ae688284610624565b60208201915061ae778261ade1565b91508190509594505050505056fea26469706673582212209557cb0341bc5345f8a487f45db14aa9464dd12d8b0a3a521b2f2328f709bf8564736f6c63430008190033496e766572746562726174657320627920416e64726577204d69746368656c6c20283230323429",
			"opcodes": "PUSH1 0x80 PUSH1 0x40 MSTORE PUSH1 0x40 MLOAD PUSH2 0x10 SWAP1 PUSH2 0x237D JUMP JUMPDEST PUSH1 0x40 MLOAD DUP1 SWAP2 SUB SWAP1 PUSH0 CREATE DUP1 ISZERO DUP1 ISZERO PUSH2 0x29 JUMPI RETURNDATASIZE PUSH0 DUP1 RETURNDATACOPY RETURNDATASIZE PUSH0 REVERT JUMPDEST POP PUSH1 0x3 PUSH0 PUSH2 0x100 EXP DUP2 SLOAD DUP2 PUSH20 0xFFFFFFFFFFFFFFFFFFFFFFFFFFFFFFFFFFFFFFFF MUL NOT AND SWAP1 DUP4 PUSH20 0xFFFFFFFFFFFFFFFFFFFFFFFFFFFFFFFFFFFFFFFF AND MUL OR SWAP1 SSTORE POP PUSH2 0x3E8 PUSH1 0x4 SSTORE PUSH0 PUSH1 0x6 SSTORE PUSH0 PUSH1 0x7 PUSH0 PUSH2 0x100 EXP DUP2 SLOAD DUP2 PUSH1 0xFF MUL NOT AND SWAP1 DUP4 ISZERO ISZERO MUL OR SWAP1 SSTORE POP PUSH0 PUSH1 0x7 PUSH1 0x1 PUSH2 0x100 EXP DUP2 SLOAD DUP2 PUSH1 0xFF MUL NOT AND SWAP1 DUP4 ISZERO ISZERO MUL OR SWAP1 SSTORE POP PUSH1 0x40 MLOAD DUP1 PUSH2 0xE40 ADD PUSH1 0x40 MSTORE DUP1 PUSH1 0x40 MLOAD DUP1 PUSH1 0x40 ADD PUSH1 0x40 MSTORE DUP1 PUSH1 0x6 DUP2 MSTORE PUSH1 0x20 ADD PUSH32 0x3865306430300000000000000000000000000000000000000000000000000000 DUP2 MSTORE POP DUP2 MSTORE PUSH1 0x20 ADD PUSH1 0x40 MLOAD DUP1 PUSH1 0x40 ADD PUSH1 0x40 MSTORE DUP1 PUSH1 0x6 DUP2 MSTORE PUSH1 0x20 ADD PUSH32 0x6338633639390000000000000000000000000000000000000000000000000000 DUP2 MSTORE POP DUP2 MSTORE PUSH1 0x20 ADD PUSH1 0x40 MLOAD DUP1 PUSH1 0x40 ADD PUSH1 0x40 MSTORE DUP1 PUSH1 0x6 DUP2 MSTORE PUSH1 0x20 ADD PUSH32 0x3036313432630000000000000000000000000000000000000000000000000000 DUP2 MSTORE POP DUP2 MSTORE PUSH1 0x20 ADD PUSH1 0x40 MLOAD DUP1 PUSH1 0x40 ADD PUSH1 0x40 MSTORE DUP1 PUSH1 0x6 DUP2 MSTORE PUSH1 0x20 ADD PUSH32 0x6337323236630000000000000000000000000000000000000000000000000000 DUP2 MSTORE POP DUP2 MSTORE PUSH1 0x20 ADD PUSH1 0x40 MLOAD DUP1 PUSH1 0x40 ADD PUSH1 0x40 MSTORE DUP1 PUSH1 0x6 DUP2 MSTORE PUSH1 0x20 ADD PUSH32 0x3734303030300000000000000000000000000000000000000000000000000000 DUP2 MSTORE POP DUP2 MSTORE PUSH1 0x20 ADD PUSH1 0x40 MLOAD DUP1 PUSH1 0x40 ADD PUSH1 0x40 MSTORE DUP1 PUSH1 0x6 DUP2 MSTORE PUSH1 0x20 ADD PUSH32 0x3837376235640000000000000000000000000000000000000000000000000000 DUP2 MSTORE POP DUP2 MSTORE PUSH1 0x20 ADD PUSH1 0x40 MLOAD DUP1 PUSH1 0x40 ADD PUSH1 0x40 MSTORE DUP1 PUSH1 0x6 DUP2 MSTORE PUSH1 0x20 ADD PUSH32 0x6538643261390000000000000000000000000000000000000000000000000000 DUP2 MSTORE POP DUP2 MSTORE PUSH1 0x20 ADD PUSH1 0x40 MLOAD DUP1 PUSH1 0x40 ADD PUSH1 0x40 MSTORE DUP1 PUSH1 0x6 DUP2 MSTORE PUSH1 0x20 ADD PUSH32 0x3132313531640000000000000000000000000000000000000000000000000000 DUP2 MSTORE POP DUP2 MSTORE PUSH1 0x20 ADD PUSH1 0x40 MLOAD DUP1 PUSH1 0x40 ADD PUSH1 0x40 MSTORE DUP1 PUSH1 0x6 DUP2 MSTORE PUSH1 0x20 ADD PUSH32 0x6334626639350000000000000000000000000000000000000000000000000000 DUP2 MSTORE POP DUP2 MSTORE PUSH1 0x20 ADD PUSH1 0x40 MLOAD DUP1 PUSH1 0x40 ADD PUSH1 0x40 MSTORE DUP1 PUSH1 0x6 DUP2 MSTORE PUSH1 0x20 ADD PUSH32 0x6433323538370000000000000000000000000000000000000000000000000000 DUP2 MSTORE POP DUP2 MSTORE PUSH1 0x20 ADD PUSH1 0x40 MLOAD DUP1 PUSH1 0x40 ADD PUSH1 0x40 MSTORE DUP1 PUSH1 0x6 DUP2 MSTORE PUSH1 0x20 ADD PUSH32 0x6335636162390000000000000000000000000000000000000000000000000000 DUP2 MSTORE POP DUP2 MSTORE PUSH1 0x20 ADD PUSH1 0x40 MLOAD DUP1 PUSH1 0x40 ADD PUSH1 0x40 MSTORE DUP1 PUSH1 0x6 DUP2 MSTORE PUSH1 0x20 ADD PUSH32 0x3137316231390000000000000000000000000000000000000000000000000000 DUP2 MSTORE POP DUP2 MSTORE PUSH1 0x20 ADD PUSH1 0x40 MLOAD DUP1 PUSH1 0x40 ADD PUSH1 0x40 MSTORE DUP1 PUSH1 0x6 DUP2 MSTORE PUSH1 0x20 ADD PUSH32 0x6263326330650000000000000000000000000000000000000000000000000000 DUP2 MSTORE POP DUP2 MSTORE PUSH1 0x20 ADD PUSH1 0x40 MLOAD DUP1 PUSH1 0x40 ADD PUSH1 0x40 MSTORE DUP1 PUSH1 0x6 DUP2 MSTORE PUSH1 0x20 ADD PUSH32 0x3739303231330000000000000000000000000000000000000000000000000000 DUP2 MSTORE POP DUP2 MSTORE PUSH1 0x20 ADD PUSH1 0x40 MLOAD DUP1 PUSH1 0x40 ADD PUSH1 0x40 MSTORE DUP1 PUSH1 0x6 DUP2 MSTORE PUSH1 0x20 ADD PUSH32 0x3133326532620000000000000000000000000000000000000000000000000000 DUP2 MSTORE POP DUP2 MSTORE PUSH1 0x20 ADD PUSH1 0x40 MLOAD DUP1 PUSH1 0x40 ADD PUSH1 0x40 MSTORE DUP1 PUSH1 0x6 DUP2 MSTORE PUSH1 0x20 ADD PUSH32 0x3935323833320000000000000000000000000000000000000000000000000000 DUP2 MSTORE POP DUP2 MSTORE PUSH1 0x20 ADD PUSH1 0x40 MLOAD DUP1 PUSH1 0x40 ADD PUSH1 0x40 MSTORE DUP1 PUSH1 0x6 DUP2 MSTORE PUSH1 0x20 ADD PUSH32 0x6562363532310000000000000000000000000000000000000000000000000000 DUP2 MSTORE POP DUP2 MSTORE PUSH1 0x20 ADD PUSH1 0x40 MLOAD DUP1 PUSH1 0x40 ADD PUSH1 0x40 MSTORE DUP1 PUSH1 0x6 DUP2 MSTORE PUSH1 0x20 ADD PUSH32 0x6533643663370000000000000000000000000000000000000000000000000000 DUP2 MSTORE POP DUP2 MSTORE PUSH1 0x20 ADD PUSH1 0x40 MLOAD DUP1 PUSH1 0x40 ADD PUSH1 0x40 MSTORE DUP1 PUSH1 0x6 DUP2 MSTORE PUSH1 0x20 ADD PUSH32 0x6637656265330000000000000000000000000000000000000000000000000000 DUP2 MSTORE POP DUP2 MSTORE PUSH1 0x20 ADD PUSH1 0x40 MLOAD DUP1 PUSH1 0x40 ADD PUSH1 0x40 MSTORE DUP1 PUSH1 0x6 DUP2 MSTORE PUSH1 0x20 ADD PUSH32 0x3030303332360000000000000000000000000000000000000000000000000000 DUP2 MSTORE POP DUP2 MSTORE PUSH1 0x20 ADD PUSH1 0x40 MLOAD DUP1 PUSH1 0x40 ADD PUSH1 0x40 MSTORE DUP1 PUSH1 0x6 DUP2 MSTORE PUSH1 0x20 ADD PUSH32 0x6564656464650000000000000000000000000000000000000000000000000000 DUP2 MSTORE POP DUP2 MSTORE PUSH1 0x20 ADD PUSH1 0x40 MLOAD DUP1 PUSH1 0x40 ADD PUSH1 0x40 MSTORE DUP1 PUSH1 0x6 DUP2 MSTORE PUSH1 0x20 ADD PUSH32 0x6437326132660000000000000000000000000000000000000000000000000000 DUP2 MSTORE POP DUP2 MSTORE PUSH1 0x20 ADD PUSH1 0x40 MLOAD DUP1 PUSH1 0x40 ADD PUSH1 0x40 MSTORE DUP1 PUSH1 0x6 DUP2 MSTORE PUSH1 0x20 ADD PUSH32 0x6463643763370000000000000000000000000000000000000000000000000000 DUP2 MSTORE POP DUP2 MSTORE PUSH1 0x20 ADD PUSH1 0x40 MLOAD DUP1 PUSH1 0x40 ADD PUSH1 0x40 MSTORE DUP1 PUSH1 0x6 DUP2 MSTORE PUSH1 0x20 ADD PUSH32 0x6437643963350000000000000000000000000000000000000000000000000000 DUP2 MSTORE POP DUP2 MSTORE PUSH1 0x20 ADD PUSH1 0x40 MLOAD DUP1 PUSH1 0x40 ADD PUSH1 0x40 MSTORE DUP1 PUSH1 0x6 DUP2 MSTORE PUSH1 0x20 ADD PUSH32 0x3933366230300000000000000000000000000000000000000000000000000000 DUP2 MSTORE POP DUP2 MSTORE PUSH1 0x20 ADD PUSH1 0x40 MLOAD DUP1 PUSH1 0x40 ADD PUSH1 0x40 MSTORE DUP1 PUSH1 0x6 DUP2 MSTORE PUSH1 0x20 ADD PUSH32 0x3238373632650000000000000000000000000000000000000000000000000000 DUP2 MSTORE POP DUP2 MSTORE PUSH1 0x20 ADD PUSH1 0x40 MLOAD DUP1 PUSH1 0x40 ADD PUSH1 0x40 MSTORE DUP1 PUSH1 0x6 DUP2 MSTORE PUSH1 0x20 ADD PUSH32 0x3062313531660000000000000000000000000000000000000000000000000000 DUP2 MSTORE POP DUP2 MSTORE PUSH1 0x20 ADD PUSH1 0x40 MLOAD DUP1 PUSH1 0x40 ADD PUSH1 0x40 MSTORE DUP1 PUSH1 0x6 DUP2 MSTORE PUSH1 0x20 ADD PUSH32 0x6139646339370000000000000000000000000000000000000000000000000000 DUP2 MSTORE POP DUP2 MSTORE PUSH1 0x20 ADD PUSH1 0x40 MLOAD DUP1 PUSH1 0x40 ADD PUSH1 0x40 MSTORE DUP1 PUSH1 0x6 DUP2 MSTORE PUSH1 0x20 ADD PUSH32 0x3832613561300000000000000000000000000000000000000000000000000000 DUP2 MSTORE POP DUP2 MSTORE PUSH1 0x20 ADD PUSH1 0x40 MLOAD DUP1 PUSH1 0x40 ADD PUSH1 0x40 MSTORE DUP1 PUSH1 0x6 DUP2 MSTORE PUSH1 0x20 ADD PUSH32 0x6165396136630000000000000000000000000000000000000000000000000000 DUP2 MSTORE POP DUP2 MSTORE PUSH1 0x20 ADD PUSH1 0x40 MLOAD DUP1 PUSH1 0x40 ADD PUSH1 0x40 MSTORE DUP1 PUSH1 0x6 DUP2 MSTORE PUSH1 0x20 ADD PUSH32 0x6261363636620000000000000000000000000000000000000000000000000000 DUP2 MSTORE POP DUP2 MSTORE PUSH1 0x20 ADD PUSH1 0x40 MLOAD DUP1 PUSH1 0x40 ADD PUSH1 0x40 MSTORE DUP1 PUSH1 0x6 DUP2 MSTORE PUSH1 0x20 ADD PUSH32 0x6335396530630000000000000000000000000000000000000000000000000000 DUP2 MSTORE POP DUP2 MSTORE PUSH1 0x20 ADD PUSH1 0x40 MLOAD DUP1 PUSH1 0x40 ADD PUSH1 0x40 MSTORE DUP1 PUSH1 0x6 DUP2 MSTORE PUSH1 0x20 ADD PUSH32 0x3261336232620000000000000000000000000000000000000000000000000000 DUP2 MSTORE POP DUP2 MSTORE PUSH1 0x20 ADD PUSH1 0x40 MLOAD DUP1 PUSH1 0x40 ADD PUSH1 0x40 MSTORE DUP1 PUSH1 0x6 DUP2 MSTORE PUSH1 0x20 ADD PUSH32 0x3030333238330000000000000000000000000000000000000000000000000000 DUP2 MSTORE POP DUP2 MSTORE PUSH1 0x20 ADD PUSH1 0x40 MLOAD DUP1 PUSH1 0x40 ADD PUSH1 0x40 MSTORE DUP1 PUSH1 0x6 DUP2 MSTORE PUSH1 0x20 ADD PUSH32 0x6439636661310000000000000000000000000000000000000000000000000000 DUP2 MSTORE POP DUP2 MSTORE PUSH1 0x20 ADD PUSH1 0x40 MLOAD DUP1 PUSH1 0x40 ADD PUSH1 0x40 MSTORE DUP1 PUSH1 0x6 DUP2 MSTORE PUSH1 0x20 ADD PUSH32 0x3166313931320000000000000000000000000000000000000000000000000000 DUP2 MSTORE POP DUP2 MSTORE PUSH1 0x20 ADD PUSH1 0x40 MLOAD DUP1 PUSH1 0x40 ADD PUSH1 0x40 MSTORE DUP1 PUSH1 0x6 DUP2 MSTORE PUSH1 0x20 ADD PUSH32 0x3145364145380000000000000000000000000000000000000000000000000000 DUP2 MSTORE POP DUP2 MSTORE PUSH1 0x20 ADD PUSH1 0x40 MLOAD DUP1 PUSH1 0x40 ADD PUSH1 0x40 MSTORE DUP1 PUSH1 0x6 DUP2 MSTORE PUSH1 0x20 ADD PUSH32 0x6363643161640000000000000000000000000000000000000000000000000000 DUP2 MSTORE POP DUP2 MSTORE PUSH1 0x20 ADD PUSH1 0x40 MLOAD DUP1 PUSH1 0x40 ADD PUSH1 0x40 MSTORE DUP1 PUSH1 0x6 DUP2 MSTORE PUSH1 0x20 ADD PUSH32 0x3264393262300000000000000000000000000000000000000000000000000000 DUP2 MSTORE POP DUP2 MSTORE PUSH1 0x20 ADD PUSH1 0x40 MLOAD DUP1 PUSH1 0x40 ADD PUSH1 0x40 MSTORE DUP1 PUSH1 0x6 DUP2 MSTORE PUSH1 0x20 ADD PUSH32 0x3166323935310000000000000000000000000000000000000000000000000000 DUP2 MSTORE POP DUP2 MSTORE PUSH1 0x20 ADD PUSH1 0x40 MLOAD DUP1 PUSH1 0x40 ADD PUSH1 0x40 MSTORE DUP1 PUSH1 0x6 DUP2 MSTORE PUSH1 0x20 ADD PUSH32 0x6161383035630000000000000000000000000000000000000000000000000000 DUP2 MSTORE POP DUP2 MSTORE PUSH1 0x20 ADD PUSH1 0x40 MLOAD DUP1 PUSH1 0x40 ADD PUSH1 0x40 MSTORE DUP1 PUSH1 0x6 DUP2 MSTORE PUSH1 0x20 ADD PUSH32 0x3133316131330000000000000000000000000000000000000000000000000000 DUP2 MSTORE POP DUP2 MSTORE PUSH1 0x20 ADD PUSH1 0x40 MLOAD DUP1 PUSH1 0x40 ADD PUSH1 0x40 MSTORE DUP1 PUSH1 0x6 DUP2 MSTORE PUSH1 0x20 ADD PUSH32 0x6136653361380000000000000000000000000000000000000000000000000000 DUP2 MSTORE POP DUP2 MSTORE PUSH1 0x20 ADD PUSH1 0x40 MLOAD DUP1 PUSH1 0x40 ADD PUSH1 0x40 MSTORE DUP1 PUSH1 0x6 DUP2 MSTORE PUSH1 0x20 ADD PUSH32 0x6462633761360000000000000000000000000000000000000000000000000000 DUP2 MSTORE POP DUP2 MSTORE PUSH1 0x20 ADD PUSH1 0x40 MLOAD DUP1 PUSH1 0x40 ADD PUSH1 0x40 MSTORE DUP1 PUSH1 0x6 DUP2 MSTORE PUSH1 0x20 ADD PUSH32 0x3537373936380000000000000000000000000000000000000000000000000000 DUP2 MSTORE POP DUP2 MSTORE PUSH1 0x20 ADD PUSH1 0x40 MLOAD DUP1 PUSH1 0x40 ADD PUSH1 0x40 MSTORE DUP1 PUSH1 0x6 DUP2 MSTORE PUSH1 0x20 ADD PUSH32 0x6533646562300000000000000000000000000000000000000000000000000000 DUP2 MSTORE POP DUP2 MSTORE PUSH1 0x20 ADD PUSH1 0x40 MLOAD DUP1 PUSH1 0x40 ADD PUSH1 0x40 MSTORE DUP1 PUSH1 0x6 DUP2 MSTORE PUSH1 0x20 ADD PUSH32 0x3466383436350000000000000000000000000000000000000000000000000000 DUP2 MSTORE POP DUP2 MSTORE PUSH1 0x20 ADD PUSH1 0x40 MLOAD DUP1 PUSH1 0x40 ADD PUSH1 0x40 MSTORE DUP1 PUSH1 0x6 DUP2 MSTORE PUSH1 0x20 ADD PUSH32 0x3461356366660000000000000000000000000000000000000000000000000000 DUP2 MSTORE POP DUP2 MSTORE PUSH1 0x20 ADD PUSH1 0x40 MLOAD DUP1 PUSH1 0x40 ADD PUSH1 0x40 MSTORE DUP1 PUSH1 0x6 DUP2 MSTORE PUSH1 0x20 ADD PUSH32 0x6463646363350000000000000000000000000000000000000000000000000000 DUP2 MSTORE POP DUP2 MSTORE PUSH1 0x20 ADD PUSH1 0x40 MLOAD DUP1 PUSH1 0x40 ADD PUSH1 0x40 MSTORE DUP1 PUSH1 0x6 DUP2 MSTORE PUSH1 0x20 ADD PUSH32 0x3233363236340000000000000000000000000000000000000000000000000000 DUP2 MSTORE POP DUP2 MSTORE PUSH1 0x20 ADD PUSH1 0x40 MLOAD DUP1 PUSH1 0x40 ADD PUSH1 0x40 MSTORE DUP1 PUSH1 0x6 DUP2 MSTORE PUSH1 0x20 ADD PUSH32 0x3032313939320000000000000000000000000000000000000000000000000000 DUP2 MSTORE POP DUP2 MSTORE PUSH1 0x20 ADD PUSH1 0x40 MLOAD DUP1 PUSH1 0x40 ADD PUSH1 0x40 MSTORE DUP1 PUSH1 0x6 DUP2 MSTORE PUSH1 0x20 ADD PUSH32 0x3666623135370000000000000000000000000000000000000000000000000000 DUP2 MSTORE POP DUP2 MSTORE PUSH1 0x20 ADD PUSH1 0x40 MLOAD DUP1 PUSH1 0x40 ADD PUSH1 0x40 MSTORE DUP1 PUSH1 0x6 DUP2 MSTORE PUSH1 0x20 ADD PUSH32 0x6431633239340000000000000000000000000000000000000000000000000000 DUP2 MSTORE POP DUP2 MSTORE PUSH1 0x20 ADD PUSH1 0x40 MLOAD DUP1 PUSH1 0x40 ADD PUSH1 0x40 MSTORE DUP1 PUSH1 0x6 DUP2 MSTORE PUSH1 0x20 ADD PUSH32 0x3837636665300000000000000000000000000000000000000000000000000000 DUP2 MSTORE POP DUP2 MSTORE PUSH1 0x20 ADD PUSH1 0x40 MLOAD DUP1 PUSH1 0x40 ADD PUSH1 0x40 MSTORE DUP1 PUSH1 0x6 DUP2 MSTORE PUSH1 0x20 ADD PUSH32 0x3736613437660000000000000000000000000000000000000000000000000000 DUP2 MSTORE POP DUP2 MSTORE PUSH1 0x20 ADD PUSH1 0x40 MLOAD DUP1 PUSH1 0x40 ADD PUSH1 0x40 MSTORE DUP1 PUSH1 0x6 DUP2 MSTORE PUSH1 0x20 ADD PUSH32 0x3032313034350000000000000000000000000000000000000000000000000000 DUP2 MSTORE POP DUP2 MSTORE PUSH1 0x20 ADD PUSH1 0x40 MLOAD DUP1 PUSH1 0x40 ADD PUSH1 0x40 MSTORE DUP1 PUSH1 0x6 DUP2 MSTORE PUSH1 0x20 ADD PUSH32 0x6564646562350000000000000000000000000000000000000000000000000000 DUP2 MSTORE POP DUP2 MSTORE PUSH1 0x20 ADD PUSH1 0x40 MLOAD DUP1 PUSH1 0x40 ADD PUSH1 0x40 MSTORE DUP1 PUSH1 0x6 DUP2 MSTORE PUSH1 0x20 ADD PUSH32 0x3139333537330000000000000000000000000000000000000000000000000000 DUP2 MSTORE POP DUP2 MSTORE PUSH1 0x20 ADD PUSH1 0x40 MLOAD DUP1 PUSH1 0x40 ADD PUSH1 0x40 MSTORE DUP1 PUSH1 0x6 DUP2 MSTORE PUSH1 0x20 ADD PUSH32 0x3639396261630000000000000000000000000000000000000000000000000000 DUP2 MSTORE POP DUP2 MSTORE PUSH1 0x20 ADD PUSH1 0x40 MLOAD DUP1 PUSH1 0x40 ADD PUSH1 0x40 MSTORE DUP1 PUSH1 0x6 DUP2 MSTORE PUSH1 0x20 ADD PUSH32 0x3466366439370000000000000000000000000000000000000000000000000000 DUP2 MSTORE POP DUP2 MSTORE PUSH1 0x20 ADD PUSH1 0x40 MLOAD DUP1 PUSH1 0x40 ADD PUSH1 0x40 MSTORE DUP1 PUSH1 0x6 DUP2 MSTORE PUSH1 0x20 ADD PUSH32 0x3131326237330000000000000000000000000000000000000000000000000000 DUP2 MSTORE POP DUP2 MSTORE PUSH1 0x20 ADD PUSH1 0x40 MLOAD DUP1 PUSH1 0x40 ADD PUSH1 0x40 MSTORE DUP1 PUSH1 0x6 DUP2 MSTORE PUSH1 0x20 ADD PUSH32 0x3430353335650000000000000000000000000000000000000000000000000000 DUP2 MSTORE POP DUP2 MSTORE PUSH1 0x20 ADD PUSH1 0x40 MLOAD DUP1 PUSH1 0x40 ADD PUSH1 0x40 MSTORE DUP1 PUSH1 0x6 DUP2 MSTORE PUSH1 0x20 ADD PUSH32 0x3863643439650000000000000000000000000000000000000000000000000000 DUP2 MSTORE POP DUP2 MSTORE PUSH1 0x20 ADD PUSH1 0x40 MLOAD DUP1 PUSH1 0x40 ADD PUSH1 0x40 MSTORE DUP1 PUSH1 0x6 DUP2 MSTORE PUSH1 0x20 ADD PUSH32 0x3335376437360000000000000000000000000000000000000000000000000000 DUP2 MSTORE POP DUP2 MSTORE PUSH1 0x20 ADD PUSH1 0x40 MLOAD DUP1 PUSH1 0x40 ADD PUSH1 0x40 MSTORE DUP1 PUSH1 0x6 DUP2 MSTORE PUSH1 0x20 ADD PUSH32 0x6462643463320000000000000000000000000000000000000000000000000000 DUP2 MSTORE POP DUP2 MSTORE PUSH1 0x20 ADD PUSH1 0x40 MLOAD DUP1 PUSH1 0x40 ADD PUSH1 0x40 MSTORE DUP1 PUSH1 0x6 DUP2 MSTORE PUSH1 0x20 ADD PUSH32 0x6164383132390000000000000000000000000000000000000000000000000000 DUP2 MSTORE POP DUP2 MSTORE PUSH1 0x20 ADD PUSH1 0x40 MLOAD DUP1 PUSH1 0x40 ADD PUSH1 0x40 MSTORE DUP1 PUSH1 0x6 DUP2 MSTORE PUSH1 0x20 ADD PUSH32 0x6334626439390000000000000000000000000000000000000000000000000000 DUP2 MSTORE POP DUP2 MSTORE PUSH1 0x20 ADD PUSH1 0x40 MLOAD DUP1 PUSH1 0x40 ADD PUSH1 0x40 MSTORE DUP1 PUSH1 0x6 DUP2 MSTORE PUSH1 0x20 ADD PUSH32 0x6337333230300000000000000000000000000000000000000000000000000000 DUP2 MSTORE POP DUP2 MSTORE PUSH1 0x20 ADD PUSH1 0x40 MLOAD DUP1 PUSH1 0x40 ADD PUSH1 0x40 MSTORE DUP1 PUSH1 0x6 DUP2 MSTORE PUSH1 0x20 ADD PUSH32 0x3437343935660000000000000000000000000000000000000000000000000000 DUP2 MSTORE POP DUP2 MSTORE PUSH1 0x20 ADD PUSH1 0x40 MLOAD DUP1 PUSH1 0x40 ADD PUSH1 0x40 MSTORE DUP1 PUSH1 0x6 DUP2 MSTORE PUSH1 0x20 ADD PUSH32 0x6536656264620000000000000000000000000000000000000000000000000000 DUP2 MSTORE POP DUP2 MSTORE PUSH1 0x20 ADD PUSH1 0x40 MLOAD DUP1 PUSH1 0x40 ADD PUSH1 0x40 MSTORE DUP1 PUSH1 0x6 DUP2 MSTORE PUSH1 0x20 ADD PUSH32 0x6462643465300000000000000000000000000000000000000000000000000000 DUP2 MSTORE POP DUP2 MSTORE PUSH1 0x20 ADD PUSH1 0x40 MLOAD DUP1 PUSH1 0x40 ADD PUSH1 0x40 MSTORE DUP1 PUSH1 0x6 DUP2 MSTORE PUSH1 0x20 ADD PUSH32 0x3131336537360000000000000000000000000000000000000000000000000000 DUP2 MSTORE POP DUP2 MSTORE PUSH1 0x20 ADD PUSH1 0x40 MLOAD DUP1 PUSH1 0x40 ADD PUSH1 0x40 MSTORE DUP1 PUSH1 0x6 DUP2 MSTORE PUSH1 0x20 ADD PUSH32 0x3763363133650000000000000000000000000000000000000000000000000000 DUP2 MSTORE POP DUP2 MSTORE PUSH1 0x20 ADD PUSH1 0x40 MLOAD DUP1 PUSH1 0x40 ADD PUSH1 0x40 MSTORE DUP1 PUSH1 0x6 DUP2 MSTORE PUSH1 0x20 ADD PUSH32 0x3039306431350000000000000000000000000000000000000000000000000000 DUP2 MSTORE POP DUP2 MSTORE PUSH1 0x20 ADD PUSH1 0x40 MLOAD DUP1 PUSH1 0x40 ADD PUSH1 0x40 MSTORE DUP1 PUSH1 0x6 DUP2 MSTORE PUSH1 0x20 ADD PUSH32 0x3133316533360000000000000000000000000000000000000000000000000000 DUP2 MSTORE POP DUP2 MSTORE PUSH1 0x20 ADD PUSH1 0x40 MLOAD DUP1 PUSH1 0x40 ADD PUSH1 0x40 MSTORE DUP1 PUSH1 0x6 DUP2 MSTORE PUSH1 0x20 ADD PUSH32 0x6330393332380000000000000000000000000000000000000000000000000000 DUP2 MSTORE POP DUP2 MSTORE PUSH1 0x20 ADD PUSH1 0x40 MLOAD DUP1 PUSH1 0x40 ADD PUSH1 0x40 MSTORE DUP1 PUSH1 0x6 DUP2 MSTORE PUSH1 0x20 ADD PUSH32 0x6138633263630000000000000000000000000000000000000000000000000000 DUP2 MSTORE POP DUP2 MSTORE PUSH1 0x20 ADD PUSH1 0x40 MLOAD DUP1 PUSH1 0x40 ADD PUSH1 0x40 MSTORE DUP1 PUSH1 0x6 DUP2 MSTORE PUSH1 0x20 ADD PUSH32 0x6264393238620000000000000000000000000000000000000000000000000000 DUP2 MSTORE POP DUP2 MSTORE PUSH1 0x20 ADD PUSH1 0x40 MLOAD DUP1 PUSH1 0x40 ADD PUSH1 0x40 MSTORE DUP1 PUSH1 0x6 DUP2 MSTORE PUSH1 0x20 ADD PUSH32 0x6538656265300000000000000000000000000000000000000000000000000000 DUP2 MSTORE POP DUP2 MSTORE PUSH1 0x20 ADD PUSH1 0x40 MLOAD DUP1 PUSH1 0x40 ADD PUSH1 0x40 MSTORE DUP1 PUSH1 0x6 DUP2 MSTORE PUSH1 0x20 ADD PUSH32 0x6436646562330000000000000000000000000000000000000000000000000000 DUP2 MSTORE POP DUP2 MSTORE PUSH1 0x20 ADD PUSH1 0x40 MLOAD DUP1 PUSH1 0x40 ADD PUSH1 0x40 MSTORE DUP1 PUSH1 0x6 DUP2 MSTORE PUSH1 0x20 ADD PUSH32 0x6562653663630000000000000000000000000000000000000000000000000000 DUP2 MSTORE POP DUP2 MSTORE PUSH1 0x20 ADD PUSH1 0x40 MLOAD DUP1 PUSH1 0x40 ADD PUSH1 0x40 MSTORE DUP1 PUSH1 0x6 DUP2 MSTORE PUSH1 0x20 ADD PUSH32 0x6632633762300000000000000000000000000000000000000000000000000000 DUP2 MSTORE POP DUP2 MSTORE PUSH1 0x20 ADD PUSH1 0x40 MLOAD DUP1 PUSH1 0x40 ADD PUSH1 0x40 MSTORE DUP1 PUSH1 0x6 DUP2 MSTORE PUSH1 0x20 ADD PUSH32 0x6562653664340000000000000000000000000000000000000000000000000000 DUP2 MSTORE POP DUP2 MSTORE PUSH1 0x20 ADD PUSH1 0x40 MLOAD DUP1 PUSH1 0x40 ADD PUSH1 0x40 MSTORE DUP1 PUSH1 0x6 DUP2 MSTORE PUSH1 0x20 ADD PUSH32 0x3938383236340000000000000000000000000000000000000000000000000000 DUP2 MSTORE POP DUP2 MSTORE PUSH1 0x20 ADD PUSH1 0x40 MLOAD DUP1 PUSH1 0x40 ADD PUSH1 0x40 MSTORE DUP1 PUSH1 0x6 DUP2 MSTORE PUSH1 0x20 ADD PUSH32 0x3066313832360000000000000000000000000000000000000000000000000000 DUP2 MSTORE POP DUP2 MSTORE PUSH1 0x20 ADD PUSH1 0x40 MLOAD DUP1 PUSH1 0x40 ADD PUSH1 0x40 MSTORE DUP1 PUSH1 0x6 DUP2 MSTORE PUSH1 0x20 ADD PUSH32 0x6462646562640000000000000000000000000000000000000000000000000000 DUP2 MSTORE POP DUP2 MSTORE PUSH1 0x20 ADD PUSH1 0x40 MLOAD DUP1 PUSH1 0x40 ADD PUSH1 0x40 MSTORE DUP1 PUSH1 0x6 DUP2 MSTORE PUSH1 0x20 ADD PUSH32 0x6366613430300000000000000000000000000000000000000000000000000000 DUP2 MSTORE POP DUP2 MSTORE PUSH1 0x20 ADD PUSH1 0x40 MLOAD DUP1 PUSH1 0x40 ADD PUSH1 0x40 MSTORE DUP1 PUSH1 0x6 DUP2 MSTORE PUSH1 0x20 ADD PUSH32 0x6162303030300000000000000000000000000000000000000000000000000000 DUP2 MSTORE POP DUP2 MSTORE PUSH1 0x20 ADD PUSH1 0x40 MLOAD DUP1 PUSH1 0x40 ADD PUSH1 0x40 MSTORE DUP1 PUSH1 0x6 DUP2 MSTORE PUSH1 0x20 ADD PUSH32 0x6632643663340000000000000000000000000000000000000000000000000000 DUP2 MSTORE POP DUP2 MSTORE PUSH1 0x20 ADD PUSH1 0x40 MLOAD DUP1 PUSH1 0x40 ADD PUSH1 0x40 MSTORE DUP1 PUSH1 0x6 DUP2 MSTORE PUSH1 0x20 ADD PUSH32 0x6131646564340000000000000000000000000000000000000000000000000000 DUP2 MSTORE POP DUP2 MSTORE PUSH1 0x20 ADD PUSH1 0x40 MLOAD DUP1 PUSH1 0x40 ADD PUSH1 0x40 MSTORE DUP1 PUSH1 0x6 DUP2 MSTORE PUSH1 0x20 ADD PUSH32 0x3765613338380000000000000000000000000000000000000000000000000000 DUP2 MSTORE POP DUP2 MSTORE PUSH1 0x20 ADD PUSH1 0x40 MLOAD DUP1 PUSH1 0x40 ADD PUSH1 0x40 MSTORE DUP1 PUSH1 0x6 DUP2 MSTORE PUSH1 0x20 ADD PUSH32 0x6336363732660000000000000000000000000000000000000000000000000000 DUP2 MSTORE POP DUP2 MSTORE PUSH1 0x20 ADD PUSH1 0x40 MLOAD DUP1 PUSH1 0x40 ADD PUSH1 0x40 MSTORE DUP1 PUSH1 0x6 DUP2 MSTORE PUSH1 0x20 ADD PUSH32 0x3361346532300000000000000000000000000000000000000000000000000000 DUP2 MSTORE POP DUP2 MSTORE PUSH1 0x20 ADD PUSH1 0x40 MLOAD DUP1 PUSH1 0x40 ADD PUSH1 0x40 MSTORE DUP1 PUSH1 0x6 DUP2 MSTORE PUSH1 0x20 ADD PUSH32 0x3838353833380000000000000000000000000000000000000000000000000000 DUP2 MSTORE POP DUP2 MSTORE PUSH1 0x20 ADD PUSH1 0x40 MLOAD DUP1 PUSH1 0x40 ADD PUSH1 0x40 MSTORE DUP1 PUSH1 0x6 DUP2 MSTORE PUSH1 0x20 ADD PUSH32 0x3862383938310000000000000000000000000000000000000000000000000000 DUP2 MSTORE POP DUP2 MSTORE PUSH1 0x20 ADD PUSH1 0x40 MLOAD DUP1 PUSH1 0x40 ADD PUSH1 0x40 MSTORE DUP1 PUSH1 0x6 DUP2 MSTORE PUSH1 0x20 ADD PUSH32 0x6530653364340000000000000000000000000000000000000000000000000000 DUP2 MSTORE POP DUP2 MSTORE PUSH1 0x20 ADD PUSH1 0x40 MLOAD DUP1 PUSH1 0x40 ADD PUSH1 0x40 MSTORE DUP1 PUSH1 0x6 DUP2 MSTORE PUSH1 0x20 ADD PUSH32 0x3734386138320000000000000000000000000000000000000000000000000000 DUP2 MSTORE POP DUP2 MSTORE PUSH1 0x20 ADD PUSH1 0x40 MLOAD DUP1 PUSH1 0x40 ADD PUSH1 0x40 MSTORE DUP1 PUSH1 0x6 DUP2 MSTORE PUSH1 0x20 ADD PUSH32 0x3563303330300000000000000000000000000000000000000000000000000000 DUP2 MSTORE POP DUP2 MSTORE PUSH1 0x20 ADD PUSH1 0x40 MLOAD DUP1 PUSH1 0x40 ADD PUSH1 0x40 MSTORE DUP1 PUSH1 0x6 DUP2 MSTORE PUSH1 0x20 ADD PUSH32 0x6439633933300000000000000000000000000000000000000000000000000000 DUP2 MSTORE POP DUP2 MSTORE PUSH1 0x20 ADD PUSH1 0x40 MLOAD DUP1 PUSH1 0x40 ADD PUSH1 0x40 MSTORE DUP1 PUSH1 0x6 DUP2 MSTORE PUSH1 0x20 ADD PUSH32 0x6530653666300000000000000000000000000000000000000000000000000000 DUP2 MSTORE POP DUP2 MSTORE PUSH1 0x20 ADD PUSH1 0x40 MLOAD DUP1 PUSH1 0x40 ADD PUSH1 0x40 MSTORE DUP1 PUSH1 0x6 DUP2 MSTORE PUSH1 0x20 ADD PUSH32 0x3262356237610000000000000000000000000000000000000000000000000000 DUP2 MSTORE POP DUP2 MSTORE PUSH1 0x20 ADD PUSH1 0x40 MLOAD DUP1 PUSH1 0x40 ADD PUSH1 0x40 MSTORE DUP1 PUSH1 0x6 DUP2 MSTORE PUSH1 0x20 ADD PUSH32 0x3734373032390000000000000000000000000000000000000000000000000000 DUP2 MSTORE POP DUP2 MSTORE PUSH1 0x20 ADD PUSH1 0x40 MLOAD DUP1 PUSH1 0x40 ADD PUSH1 0x40 MSTORE DUP1 PUSH1 0x6 DUP2 MSTORE PUSH1 0x20 ADD PUSH32 0x6661663065620000000000000000000000000000000000000000000000000000 DUP2 MSTORE POP DUP2 MSTORE PUSH1 0x20 ADD PUSH1 0x40 MLOAD DUP1 PUSH1 0x40 ADD PUSH1 0x40 MSTORE DUP1 PUSH1 0x6 DUP2 MSTORE PUSH1 0x20 ADD PUSH32 0x3135316634320000000000000000000000000000000000000000000000000000 DUP2 MSTORE POP DUP2 MSTORE PUSH1 0x20 ADD PUSH1 0x40 MLOAD DUP1 PUSH1 0x40 ADD PUSH1 0x40 MSTORE DUP1 PUSH1 0x6 DUP2 MSTORE PUSH1 0x20 ADD PUSH32 0x3166356366660000000000000000000000000000000000000000000000000000 DUP2 MSTORE POP DUP2 MSTORE PUSH1 0x20 ADD PUSH1 0x40 MLOAD DUP1 PUSH1 0x40 ADD PUSH1 0x40 MSTORE DUP1 PUSH1 0x6 DUP2 MSTORE PUSH1 0x20 ADD PUSH32 0x3132313431380000000000000000000000000000000000000000000000000000 DUP2 MSTORE POP DUP2 MSTORE PUSH1 0x20 ADD PUSH1 0x40 MLOAD DUP1 PUSH1 0x40 ADD PUSH1 0x40 MSTORE DUP1 PUSH1 0x6 DUP2 MSTORE PUSH1 0x20 ADD PUSH32 0x6635663066350000000000000000000000000000000000000000000000000000 DUP2 MSTORE POP DUP2 MSTORE PUSH1 0x20 ADD PUSH1 0x40 MLOAD DUP1 PUSH1 0x40 ADD PUSH1 0x40 MSTORE DUP1 PUSH1 0x6 DUP2 MSTORE PUSH1 0x20 ADD PUSH32 0x6236313031620000000000000000000000000000000000000000000000000000 DUP2 MSTORE POP DUP2 MSTORE PUSH1 0x20 ADD PUSH1 0x40 MLOAD DUP1 PUSH1 0x40 ADD PUSH1 0x40 MSTORE DUP1 PUSH1 0x6 DUP2 MSTORE PUSH1 0x20 ADD PUSH32 0x3461366439620000000000000000000000000000000000000000000000000000 DUP2 MSTORE POP DUP2 MSTORE PUSH1 0x20 ADD PUSH1 0x40 MLOAD DUP1 PUSH1 0x40 ADD PUSH1 0x40 MSTORE DUP1 PUSH1 0x6 DUP2 MSTORE PUSH1 0x20 ADD PUSH32 0x6632663763390000000000000000000000000000000000000000000000000000 DUP2 MSTORE POP DUP2 MSTORE PUSH1 0x20 ADD PUSH1 0x40 MLOAD DUP1 PUSH1 0x40 ADD PUSH1 0x40 MSTORE DUP1 PUSH1 0x6 DUP2 MSTORE PUSH1 0x20 ADD PUSH32 0x3030306139620000000000000000000000000000000000000000000000000000 DUP2 MSTORE POP DUP2 MSTORE PUSH1 0x20 ADD PUSH1 0x40 MLOAD DUP1 PUSH1 0x40 ADD PUSH1 0x40 MSTORE DUP1 PUSH1 0x6 DUP2 MSTORE PUSH1 0x20 ADD PUSH32 0x6230626161360000000000000000000000000000000000000000000000000000 DUP2 MSTORE POP DUP2 MSTORE PUSH1 0x20 ADD PUSH1 0x40 MLOAD DUP1 PUSH1 0x40 ADD PUSH1 0x40 MSTORE DUP1 PUSH1 0x6 DUP2 MSTORE PUSH1 0x20 ADD PUSH32 0x6439646564360000000000000000000000000000000000000000000000000000 DUP2 MSTORE POP DUP2 MSTORE PUSH1 0x20 ADD PUSH1 0x40 MLOAD DUP1 PUSH1 0x40 ADD PUSH1 0x40 MSTORE DUP1 PUSH1 0x6 DUP2 MSTORE PUSH1 0x20 ADD PUSH32 0x3164313932310000000000000000000000000000000000000000000000000000 DUP2 MSTORE POP DUP2 MSTORE POP PUSH1 0x10 SWAP1 PUSH1 0x72 PUSH2 0x1B06 SWAP3 SWAP2 SWAP1 PUSH2 0x238B JUMP JUMPDEST POP PUSH1 0x40 MLOAD DUP1 PUSH2 0x360 ADD PUSH1 0x40 MSTORE DUP1 PUSH1 0x40 MLOAD DUP1 PUSH1 0x40 ADD PUSH1 0x40 MSTORE DUP1 PUSH1 0x1 DUP2 MSTORE PUSH1 0x20 ADD PUSH32 0x3000000000000000000000000000000000000000000000000000000000000000 DUP2 MSTORE POP DUP2 MSTORE PUSH1 0x20 ADD PUSH1 0x40 MLOAD DUP1 PUSH1 0x40 ADD PUSH1 0x40 MSTORE DUP1 PUSH1 0x1 DUP2 MSTORE PUSH1 0x20 ADD PUSH32 0x3100000000000000000000000000000000000000000000000000000000000000 DUP2 MSTORE POP DUP2 MSTORE PUSH1 0x20 ADD PUSH1 0x40 MLOAD DUP1 PUSH1 0x40 ADD PUSH1 0x40 MSTORE DUP1 PUSH1 0x1 DUP2 MSTORE PUSH1 0x20 ADD PUSH32 0x3200000000000000000000000000000000000000000000000000000000000000 DUP2 MSTORE POP DUP2 MSTORE PUSH1 0x20 ADD PUSH1 0x40 MLOAD DUP1 PUSH1 0x40 ADD PUSH1 0x40 MSTORE DUP1 PUSH1 0x1 DUP2 MSTORE PUSH1 0x20 ADD PUSH32 0x3300000000000000000000000000000000000000000000000000000000000000 DUP2 MSTORE POP DUP2 MSTORE PUSH1 0x20 ADD PUSH1 0x40 MLOAD DUP1 PUSH1 0x40 ADD PUSH1 0x40 MSTORE DUP1 PUSH1 0x1 DUP2 MSTORE PUSH1 0x20 ADD PUSH32 0x3400000000000000000000000000000000000000000000000000000000000000 DUP2 MSTORE POP DUP2 MSTORE PUSH1 0x20 ADD PUSH1 0x40 MLOAD DUP1 PUSH1 0x40 ADD PUSH1 0x40 MSTORE DUP1 PUSH1 0x1 DUP2 MSTORE PUSH1 0x20 ADD PUSH32 0x3500000000000000000000000000000000000000000000000000000000000000 DUP2 MSTORE POP DUP2 MSTORE PUSH1 0x20 ADD PUSH1 0x40 MLOAD DUP1 PUSH1 0x40 ADD PUSH1 0x40 MSTORE DUP1 PUSH1 0x1 DUP2 MSTORE PUSH1 0x20 ADD PUSH32 0x3600000000000000000000000000000000000000000000000000000000000000 DUP2 MSTORE POP DUP2 MSTORE PUSH1 0x20 ADD PUSH1 0x40 MLOAD DUP1 PUSH1 0x40 ADD PUSH1 0x40 MSTORE DUP1 PUSH1 0x1 DUP2 MSTORE PUSH1 0x20 ADD PUSH32 0x3700000000000000000000000000000000000000000000000000000000000000 DUP2 MSTORE POP DUP2 MSTORE PUSH1 0x20 ADD PUSH1 0x40 MLOAD DUP1 PUSH1 0x40 ADD PUSH1 0x40 MSTORE DUP1 PUSH1 0x1 DUP2 MSTORE PUSH1 0x20 ADD PUSH32 0x3800000000000000000000000000000000000000000000000000000000000000 DUP2 MSTORE POP DUP2 MSTORE PUSH1 0x20 ADD PUSH1 0x40 MLOAD DUP1 PUSH1 0x40 ADD PUSH1 0x40 MSTORE DUP1 PUSH1 0x1 DUP2 MSTORE PUSH1 0x20 ADD PUSH32 0x3900000000000000000000000000000000000000000000000000000000000000 DUP2 MSTORE POP DUP2 MSTORE PUSH1 0x20 ADD PUSH1 0x40 MLOAD DUP1 PUSH1 0x40 ADD PUSH1 0x40 MSTORE DUP1 PUSH1 0x2 DUP2 MSTORE PUSH1 0x20 ADD PUSH32 0x3130000000000000000000000000000000000000000000000000000000000000 DUP2 MSTORE POP DUP2 MSTORE PUSH1 0x20 ADD PUSH1 0x40 MLOAD DUP1 PUSH1 0x40 ADD PUSH1 0x40 MSTORE DUP1 PUSH1 0x2 DUP2 MSTORE PUSH1 0x20 ADD PUSH32 0x3131000000000000000000000000000000000000000000000000000000000000 DUP2 MSTORE POP DUP2 MSTORE PUSH1 0x20 ADD PUSH1 0x40 MLOAD DUP1 PUSH1 0x40 ADD PUSH1 0x40 MSTORE DUP1 PUSH1 0x2 DUP2 MSTORE PUSH1 0x20 ADD PUSH32 0x3132000000000000000000000000000000000000000000000000000000000000 DUP2 MSTORE POP DUP2 MSTORE PUSH1 0x20 ADD PUSH1 0x40 MLOAD DUP1 PUSH1 0x40 ADD PUSH1 0x40 MSTORE DUP1 PUSH1 0x2 DUP2 MSTORE PUSH1 0x20 ADD PUSH32 0x3133000000000000000000000000000000000000000000000000000000000000 DUP2 MSTORE POP DUP2 MSTORE PUSH1 0x20 ADD PUSH1 0x40 MLOAD DUP1 PUSH1 0x40 ADD PUSH1 0x40 MSTORE DUP1 PUSH1 0x2 DUP2 MSTORE PUSH1 0x20 ADD PUSH32 0x3134000000000000000000000000000000000000000000000000000000000000 DUP2 MSTORE POP DUP2 MSTORE PUSH1 0x20 ADD PUSH1 0x40 MLOAD DUP1 PUSH1 0x40 ADD PUSH1 0x40 MSTORE DUP1 PUSH1 0x2 DUP2 MSTORE PUSH1 0x20 ADD PUSH32 0x3135000000000000000000000000000000000000000000000000000000000000 DUP2 MSTORE POP DUP2 MSTORE PUSH1 0x20 ADD PUSH1 0x40 MLOAD DUP1 PUSH1 0x40 ADD PUSH1 0x40 MSTORE DUP1 PUSH1 0x2 DUP2 MSTORE PUSH1 0x20 ADD PUSH32 0x3136000000000000000000000000000000000000000000000000000000000000 DUP2 MSTORE POP DUP2 MSTORE PUSH1 0x20 ADD PUSH1 0x40 MLOAD DUP1 PUSH1 0x40 ADD PUSH1 0x40 MSTORE DUP1 PUSH1 0x2 DUP2 MSTORE PUSH1 0x20 ADD PUSH32 0x3137000000000000000000000000000000000000000000000000000000000000 DUP2 MSTORE POP DUP2 MSTORE PUSH1 0x20 ADD PUSH1 0x40 MLOAD DUP1 PUSH1 0x40 ADD PUSH1 0x40 MSTORE DUP1 PUSH1 0x2 DUP2 MSTORE PUSH1 0x20 ADD PUSH32 0x3138000000000000000000000000000000000000000000000000000000000000 DUP2 MSTORE POP DUP2 MSTORE PUSH1 0x20 ADD PUSH1 0x40 MLOAD DUP1 PUSH1 0x40 ADD PUSH1 0x40 MSTORE DUP1 PUSH1 0x2 DUP2 MSTORE PUSH1 0x20 ADD PUSH32 0x3139000000000000000000000000000000000000000000000000000000000000 DUP2 MSTORE POP DUP2 MSTORE PUSH1 0x20 ADD PUSH1 0x40 MLOAD DUP1 PUSH1 0x40 ADD PUSH1 0x40 MSTORE DUP1 PUSH1 0x2 DUP2 MSTORE PUSH1 0x20 ADD PUSH32 0x3230000000000000000000000000000000000000000000000000000000000000 DUP2 MSTORE POP DUP2 MSTORE PUSH1 0x20 ADD PUSH1 0x40 MLOAD DUP1 PUSH1 0x40 ADD PUSH1 0x40 MSTORE DUP1 PUSH1 0x2 DUP2 MSTORE PUSH1 0x20 ADD PUSH32 0x3231000000000000000000000000000000000000000000000000000000000000 DUP2 MSTORE POP DUP2 MSTORE PUSH1 0x20 ADD PUSH1 0x40 MLOAD DUP1 PUSH1 0x40 ADD PUSH1 0x40 MSTORE DUP1 PUSH1 0x2 DUP2 MSTORE PUSH1 0x20 ADD PUSH32 0x3232000000000000000000000000000000000000000000000000000000000000 DUP2 MSTORE POP DUP2 MSTORE PUSH1 0x20 ADD PUSH1 0x40 MLOAD DUP1 PUSH1 0x40 ADD PUSH1 0x40 MSTORE DUP1 PUSH1 0x2 DUP2 MSTORE PUSH1 0x20 ADD PUSH32 0x3233000000000000000000000000000000000000000000000000000000000000 DUP2 MSTORE POP DUP2 MSTORE PUSH1 0x20 ADD PUSH1 0x40 MLOAD DUP1 PUSH1 0x40 ADD PUSH1 0x40 MSTORE DUP1 PUSH1 0x2 DUP2 MSTORE PUSH1 0x20 ADD PUSH32 0x3234000000000000000000000000000000000000000000000000000000000000 DUP2 MSTORE POP DUP2 MSTORE PUSH1 0x20 ADD PUSH1 0x40 MLOAD DUP1 PUSH1 0x40 ADD PUSH1 0x40 MSTORE DUP1 PUSH1 0x2 DUP2 MSTORE PUSH1 0x20 ADD PUSH32 0x3235000000000000000000000000000000000000000000000000000000000000 DUP2 MSTORE POP DUP2 MSTORE PUSH1 0x20 ADD PUSH1 0x40 MLOAD DUP1 PUSH1 0x40 ADD PUSH1 0x40 MSTORE DUP1 PUSH1 0x2 DUP2 MSTORE PUSH1 0x20 ADD PUSH32 0x3236000000000000000000000000000000000000000000000000000000000000 DUP2 MSTORE POP DUP2 MSTORE POP PUSH1 0x11 SWAP1 PUSH1 0x1B PUSH2 0x215A SWAP3 SWAP2 SWAP1 PUSH2 0x23E2 JUMP JUMPDEST POP PUSH1 0x40 MLOAD DUP1 PUSH1 0x60 ADD PUSH1 0x40 MSTORE DUP1 PUSH1 0x27 DUP2 MSTORE PUSH1 0x20 ADD PUSH3 0x116C3 PUSH1 0x27 SWAP2 CODECOPY PUSH1 0x13 SWAP1 DUP2 PUSH2 0x2183 SWAP2 SWAP1 PUSH2 0x26EE JUMP JUMPDEST POP CALLVALUE DUP1 ISZERO PUSH2 0x218F JUMPI PUSH0 DUP1 REVERT JUMPDEST POP PUSH1 0x40 MLOAD PUSH3 0x116EA CODESIZE SUB DUP1 PUSH3 0x116EA DUP4 CODECOPY DUP2 DUP2 ADD PUSH1 0x40 MSTORE DUP2 ADD SWAP1 PUSH2 0x21B3 SWAP2 SWAP1 PUSH2 0x281B JUMP JUMPDEST DUP2 PUSH0 PUSH20 0xFFFFFFFFFFFFFFFFFFFFFFFFFFFFFFFFFFFFFFFF AND DUP2 PUSH20 0xFFFFFFFFFFFFFFFFFFFFFFFFFFFFFFFFFFFFFFFF AND SUB PUSH2 0x2224 JUMPI PUSH0 PUSH1 0x40 MLOAD PUSH32 0x1E4FBDF700000000000000000000000000000000000000000000000000000000 DUP2 MSTORE PUSH1 0x4 ADD PUSH2 0x221B SWAP2 SWAP1 PUSH2 0x2868 JUMP JUMPDEST PUSH1 0x40 MLOAD DUP1 SWAP2 SUB SWAP1 REVERT JUMPDEST PUSH2 0x2233 DUP2 PUSH2 0x22BC PUSH1 0x20 SHL PUSH1 0x20 SHR JUMP JUMPDEST POP DUP1 PUSH1 0x7 PUSH1 0x2 PUSH2 0x100 EXP DUP2 SLOAD DUP2 PUSH20 0xFFFFFFFFFFFFFFFFFFFFFFFFFFFFFFFFFFFFFFFF MUL NOT AND SWAP1 DUP4 PUSH20 0xFFFFFFFFFFFFFFFFFFFFFFFFFFFFFFFFFFFFFFFF AND MUL OR SWAP1 SSTORE POP DUP2 PUSH1 0x8 PUSH0 PUSH2 0x100 EXP DUP2 SLOAD DUP2 PUSH20 0xFFFFFFFFFFFFFFFFFFFFFFFFFFFFFFFFFFFFFFFF MUL NOT AND SWAP1 DUP4 PUSH20 0xFFFFFFFFFFFFFFFFFFFFFFFFFFFFFFFFFFFFFFFF AND MUL OR SWAP1 SSTORE POP POP POP PUSH2 0x2881 JUMP JUMPDEST PUSH0 DUP1 PUSH0 SWAP1 SLOAD SWAP1 PUSH2 0x100 EXP SWAP1 DIV PUSH20 0xFFFFFFFFFFFFFFFFFFFFFFFFFFFFFFFFFFFFFFFF AND SWAP1 POP DUP2 PUSH0 DUP1 PUSH2 0x100 EXP DUP2 SLOAD DUP2 PUSH20 0xFFFFFFFFFFFFFFFFFFFFFFFFFFFFFFFFFFFFFFFF MUL NOT AND SWAP1 DUP4 PUSH20 0xFFFFFFFFFFFFFFFFFFFFFFFFFFFFFFFFFFFFFFFF AND MUL OR SWAP1 SSTORE POP DUP2 PUSH20 0xFFFFFFFFFFFFFFFFFFFFFFFFFFFFFFFFFFFFFFFF AND DUP2 PUSH20 0xFFFFFFFFFFFFFFFFFFFFFFFFFFFFFFFFFFFFFFFF AND PUSH32 0x8BE0079C531659141344CD1FD0A4F28419497F9722A3DAAFE3B4186F6B6457E0 PUSH1 0x40 MLOAD PUSH1 0x40 MLOAD DUP1 SWAP2 SUB SWAP1 LOG3 POP POP JUMP JUMPDEST PUSH2 0xAED7 DUP1 PUSH3 0x67EC DUP4 CODECOPY ADD SWAP1 JUMP JUMPDEST DUP3 DUP1 SLOAD DUP3 DUP3 SSTORE SWAP1 PUSH0 MSTORE PUSH1 0x20 PUSH0 KECCAK256 SWAP1 DUP2 ADD SWAP3 DUP3 ISZERO PUSH2 0x23D1 JUMPI SWAP2 PUSH1 0x20 MUL DUP3 ADD JUMPDEST DUP3 DUP2 GT ISZERO PUSH2 0x23D0 JUMPI DUP3 MLOAD DUP3 SWAP1 DUP2 PUSH2 0x23C0 SWAP2 SWAP1 PUSH2 0x26EE JUMP JUMPDEST POP SWAP2 PUSH1 0x20 ADD SWAP2 SWAP1 PUSH1 0x1 ADD SWAP1 PUSH2 0x23A9 JUMP JUMPDEST JUMPDEST POP SWAP1 POP PUSH2 0x23DE SWAP2 SWAP1 PUSH2 0x2439 JUMP JUMPDEST POP SWAP1 JUMP JUMPDEST DUP3 DUP1 SLOAD DUP3 DUP3 SSTORE SWAP1 PUSH0 MSTORE PUSH1 0x20 PUSH0 KECCAK256 SWAP1 DUP2 ADD SWAP3 DUP3 ISZERO PUSH2 0x2428 JUMPI SWAP2 PUSH1 0x20 MUL DUP3 ADD JUMPDEST DUP3 DUP2 GT ISZERO PUSH2 0x2427 JUMPI DUP3 MLOAD DUP3 SWAP1 DUP2 PUSH2 0x2417 SWAP2 SWAP1 PUSH2 0x26EE JUMP JUMPDEST POP SWAP2 PUSH1 0x20 ADD SWAP2 SWAP1 PUSH1 0x1 ADD SWAP1 PUSH2 0x2400 JUMP JUMPDEST JUMPDEST POP SWAP1 POP PUSH2 0x2435 SWAP2 SWAP1 PUSH2 0x2439 JUMP JUMPDEST POP SWAP1 JUMP JUMPDEST JUMPDEST DUP1 DUP3 GT ISZERO PUSH2 0x2458 JUMPI PUSH0 DUP2 DUP2 PUSH2 0x244F SWAP2 SWAP1 PUSH2 0x245C JUMP JUMPDEST POP PUSH1 0x1 ADD PUSH2 0x243A JUMP JUMPDEST POP SWAP1 JUMP JUMPDEST POP DUP1 SLOAD PUSH2 0x2468 SWAP1 PUSH2 0x2518 JUMP JUMPDEST PUSH0 DUP3 SSTORE DUP1 PUSH1 0x1F LT PUSH2 0x2479 JUMPI POP PUSH2 0x2496 JUMP JUMPDEST PUSH1 0x1F ADD PUSH1 0x20 SWAP1 DIV SWAP1 PUSH0 MSTORE PUSH1 0x20 PUSH0 KECCAK256 SWAP1 DUP2 ADD SWAP1 PUSH2 0x2495 SWAP2 SWAP1 PUSH2 0x2499 JUMP JUMPDEST JUMPDEST POP JUMP JUMPDEST JUMPDEST DUP1 DUP3 GT ISZERO PUSH2 0x24B0 JUMPI PUSH0 DUP2 PUSH0 SWAP1 SSTORE POP PUSH1 0x1 ADD PUSH2 0x249A JUMP JUMPDEST POP SWAP1 JUMP JUMPDEST PUSH0 DUP2 MLOAD SWAP1 POP SWAP2 SWAP1 POP JUMP JUMPDEST PUSH32 0x4E487B7100000000000000000000000000000000000000000000000000000000 PUSH0 MSTORE PUSH1 0x41 PUSH1 0x4 MSTORE PUSH1 0x24 PUSH0 REVERT JUMPDEST PUSH32 0x4E487B7100000000000000000000000000000000000000000000000000000000 PUSH0 MSTORE PUSH1 0x22 PUSH1 0x4 MSTORE PUSH1 0x24 PUSH0 REVERT JUMPDEST PUSH0 PUSH1 0x2 DUP3 DIV SWAP1 POP PUSH1 0x1 DUP3 AND DUP1 PUSH2 0x252F JUMPI PUSH1 0x7F DUP3 AND SWAP2 POP JUMPDEST PUSH1 0x20 DUP3 LT DUP2 SUB PUSH2 0x2542 JUMPI PUSH2 0x2541 PUSH2 0x24EB JUMP JUMPDEST JUMPDEST POP SWAP2 SWAP1 POP JUMP JUMPDEST PUSH0 DUP2 SWAP1 POP DUP2 PUSH0 MSTORE PUSH1 0x20 PUSH0 KECCAK256 SWAP1 POP SWAP2 SWAP1 POP JUMP JUMPDEST PUSH0 PUSH1 0x20 PUSH1 0x1F DUP4 ADD DIV SWAP1 POP SWAP2 SWAP1 POP JUMP JUMPDEST PUSH0 DUP3 DUP3 SHL SWAP1 POP SWAP3 SWAP2 POP POP JUMP JUMPDEST PUSH0 PUSH1 0x8 DUP4 MUL PUSH2 0x25A4 PUSH32 0xFFFFFFFFFFFFFFFFFFFFFFFFFFFFFFFFFFFFFFFFFFFFFFFFFFFFFFFFFFFFFFFF DUP3 PUSH2 0x2569 JUMP JUMPDEST PUSH2 0x25AE DUP7 DUP4 PUSH2 0x2569 JUMP JUMPDEST SWAP6 POP DUP1 NOT DUP5 AND SWAP4 POP DUP1 DUP7 AND DUP5 OR SWAP3 POP POP POP SWAP4 SWAP3 POP POP POP JUMP JUMPDEST PUSH0 DUP2 SWAP1 POP SWAP2 SWAP1 POP JUMP JUMPDEST PUSH0 DUP2 SWAP1 POP SWAP2 SWAP1 POP JUMP JUMPDEST PUSH0 PUSH2 0x25F2 PUSH2 0x25ED PUSH2 0x25E8 DUP5 PUSH2 0x25C6 JUMP JUMPDEST PUSH2 0x25CF JUMP JUMPDEST PUSH2 0x25C6 JUMP JUMPDEST SWAP1 POP SWAP2 SWAP1 POP JUMP JUMPDEST PUSH0 DUP2 SWAP1 POP SWAP2 SWAP1 POP JUMP JUMPDEST PUSH2 0x260B DUP4 PUSH2 0x25D8 JUMP JUMPDEST PUSH2 0x261F PUSH2 0x2617 DUP3 PUSH2 0x25F9 JUMP JUMPDEST DUP5 DUP5 SLOAD PUSH2 0x2575 JUMP JUMPDEST DUP3 SSTORE POP POP POP POP JUMP JUMPDEST PUSH0 SWAP1 JUMP JUMPDEST PUSH2 0x2633 PUSH2 0x2627 JUMP JUMPDEST PUSH2 0x263E DUP2 DUP5 DUP5 PUSH2 0x2602 JUMP JUMPDEST POP POP POP JUMP JUMPDEST JUMPDEST DUP2 DUP2 LT ISZERO PUSH2 0x2661 JUMPI PUSH2 0x2656 PUSH0 DUP3 PUSH2 0x262B JUMP JUMPDEST PUSH1 0x1 DUP2 ADD SWAP1 POP PUSH2 0x2644 JUMP JUMPDEST POP POP JUMP JUMPDEST PUSH1 0x1F DUP3 GT ISZERO PUSH2 0x26A6 JUMPI PUSH2 0x2677 DUP2 PUSH2 0x2548 JUMP JUMPDEST PUSH2 0x2680 DUP5 PUSH2 0x255A JUMP JUMPDEST DUP2 ADD PUSH1 0x20 DUP6 LT ISZERO PUSH2 0x268F JUMPI DUP2 SWAP1 POP JUMPDEST PUSH2 0x26A3 PUSH2 0x269B DUP6 PUSH2 0x255A JUMP JUMPDEST DUP4 ADD DUP3 PUSH2 0x2643 JUMP JUMPDEST POP POP JUMPDEST POP POP POP JUMP JUMPDEST PUSH0 DUP3 DUP3 SHR SWAP1 POP SWAP3 SWAP2 POP POP JUMP JUMPDEST PUSH0 PUSH2 0x26C6 PUSH0 NOT DUP5 PUSH1 0x8 MUL PUSH2 0x26AB JUMP JUMPDEST NOT DUP1 DUP4 AND SWAP2 POP POP SWAP3 SWAP2 POP POP JUMP JUMPDEST PUSH0 PUSH2 0x26DE DUP4 DUP4 PUSH2 0x26B7 JUMP JUMPDEST SWAP2 POP DUP3 PUSH1 0x2 MUL DUP3 OR SWAP1 POP SWAP3 SWAP2 POP POP JUMP JUMPDEST PUSH2 0x26F7 DUP3 PUSH2 0x24B4 JUMP JUMPDEST PUSH8 0xFFFFFFFFFFFFFFFF DUP2 GT ISZERO PUSH2 0x2710 JUMPI PUSH2 0x270F PUSH2 0x24BE JUMP JUMPDEST JUMPDEST PUSH2 0x271A DUP3 SLOAD PUSH2 0x2518 JUMP JUMPDEST PUSH2 0x2725 DUP3 DUP3 DUP6 PUSH2 0x2665 JUMP JUMPDEST PUSH0 PUSH1 0x20 SWAP1 POP PUSH1 0x1F DUP4 GT PUSH1 0x1 DUP2 EQ PUSH2 0x2756 JUMPI PUSH0 DUP5 ISZERO PUSH2 0x2744 JUMPI DUP3 DUP8 ADD MLOAD SWAP1 POP JUMPDEST PUSH2 0x274E DUP6 DUP3 PUSH2 0x26D3 JUMP JUMPDEST DUP7 SSTORE POP PUSH2 0x27B5 JUMP JUMPDEST PUSH1 0x1F NOT DUP5 AND PUSH2 0x2764 DUP7 PUSH2 0x2548 JUMP JUMPDEST PUSH0 JUMPDEST DUP3 DUP2 LT ISZERO PUSH2 0x278B JUMPI DUP5 DUP10 ADD MLOAD DUP3 SSTORE PUSH1 0x1 DUP3 ADD SWAP2 POP PUSH1 0x20 DUP6 ADD SWAP5 POP PUSH1 0x20 DUP2 ADD SWAP1 POP PUSH2 0x2766 JUMP JUMPDEST DUP7 DUP4 LT ISZERO PUSH2 0x27A8 JUMPI DUP5 DUP10 ADD MLOAD PUSH2 0x27A4 PUSH1 0x1F DUP10 AND DUP3 PUSH2 0x26B7 JUMP JUMPDEST DUP4 SSTORE POP JUMPDEST PUSH1 0x1 PUSH1 0x2 DUP9 MUL ADD DUP9 SSTORE POP POP POP JUMPDEST POP POP POP POP POP POP JUMP JUMPDEST PUSH0 DUP1 REVERT JUMPDEST PUSH0 PUSH20 0xFFFFFFFFFFFFFFFFFFFFFFFFFFFFFFFFFFFFFFFF DUP3 AND SWAP1 POP SWAP2 SWAP1 POP JUMP JUMPDEST PUSH0 PUSH2 0x27EA DUP3 PUSH2 0x27C1 JUMP JUMPDEST SWAP1 POP SWAP2 SWAP1 POP JUMP JUMPDEST PUSH2 0x27FA DUP2 PUSH2 0x27E0 JUMP JUMPDEST DUP2 EQ PUSH2 0x2804 JUMPI PUSH0 DUP1 REVERT JUMPDEST POP JUMP JUMPDEST PUSH0 DUP2 MLOAD SWAP1 POP PUSH2 0x2815 DUP2 PUSH2 0x27F1 JUMP JUMPDEST SWAP3 SWAP2 POP POP JUMP JUMPDEST PUSH0 DUP1 PUSH1 0x40 DUP4 DUP6 SUB SLT ISZERO PUSH2 0x2831 JUMPI PUSH2 0x2830 PUSH2 0x27BD JUMP JUMPDEST JUMPDEST PUSH0 PUSH2 0x283E DUP6 DUP3 DUP7 ADD PUSH2 0x2807 JUMP JUMPDEST SWAP3 POP POP PUSH1 0x20 PUSH2 0x284F DUP6 DUP3 DUP7 ADD PUSH2 0x2807 JUMP JUMPDEST SWAP2 POP POP SWAP3 POP SWAP3 SWAP1 POP JUMP JUMPDEST PUSH2 0x2862 DUP2 PUSH2 0x27E0 JUMP JUMPDEST DUP3 MSTORE POP POP JUMP JUMPDEST PUSH0 PUSH1 0x20 DUP3 ADD SWAP1 POP PUSH2 0x287B PUSH0 DUP4 ADD DUP5 PUSH2 0x2859 JUMP JUMPDEST SWAP3 SWAP2 POP POP JUMP JUMPDEST PUSH2 0x3F5D DUP1 PUSH3 0x288F PUSH0 CODECOPY PUSH0 RETURN INVALID PUSH1 0x80 PUSH1 0x40 MSTORE PUSH1 0x4 CALLDATASIZE LT PUSH2 0x203 JUMPI PUSH0 CALLDATALOAD PUSH1 0xE0 SHR DUP1 PUSH4 0x8DA5CB5B GT PUSH2 0x117 JUMPI DUP1 PUSH4 0xD01F63F5 GT PUSH2 0x9F JUMPI DUP1 PUSH4 0xE2684F08 GT PUSH2 0x6E JUMPI DUP1 PUSH4 0xE2684F08 EQ PUSH2 0x751 JUMPI DUP1 PUSH4 0xE5AFC2EB EQ PUSH2 0x77B JUMPI DUP1 PUSH4 0xE9DC6375 EQ PUSH2 0x7B7 JUMPI DUP1 PUSH4 0xF2FDE38B EQ PUSH2 0x7F3 JUMPI DUP1 PUSH4 0xF76F950E EQ PUSH2 0x81B JUMPI PUSH2 0x203 JUMP JUMPDEST DUP1 PUSH4 0xD01F63F5 EQ PUSH2 0x699 JUMPI DUP1 PUSH4 0xD1AFB7F5 EQ PUSH2 0x6C3 JUMPI DUP1 PUSH4 0xD5ABEB01 EQ PUSH2 0x6FF JUMPI DUP1 PUSH4 0xD89DA286 EQ PUSH2 0x729 JUMPI PUSH2 0x203 JUMP JUMPDEST DUP1 PUSH4 0xB2811B6A GT PUSH2 0xE6 JUMPI DUP1 PUSH4 0xB2811B6A EQ PUSH2 0x5A5 JUMPI DUP1 PUSH4 0xB2BDFA7B EQ PUSH2 0x5E1 JUMPI DUP1 PUSH4 0xBC8BDE64 EQ PUSH2 0x60B JUMPI DUP1 PUSH4 0xBEDB86FB EQ PUSH2 0x635 JUMPI DUP1 PUSH4 0xC038FE04 EQ PUSH2 0x65D JUMPI PUSH2 0x203 JUMP JUMPDEST DUP1 PUSH4 0x8DA5CB5B EQ PUSH2 0x501 JUMPI DUP1 PUSH4 0x90C3F38F EQ PUSH2 0x52B JUMPI DUP1 PUSH4 0x91B7F5ED EQ PUSH2 0x553 JUMPI DUP1 PUSH4 0xA4CAD92B EQ PUSH2 0x57B JUMPI PUSH2 0x203 JUMP JUMPDEST DUP1 PUSH4 0x31AE450B GT PUSH2 0x19A JUMPI DUP1 PUSH4 0x662D46B9 GT PUSH2 0x169 JUMPI DUP1 PUSH4 0x662D46B9 EQ PUSH2 0x469 JUMPI DUP1 PUSH4 0x6A627842 EQ PUSH2 0x491 JUMPI DUP1 PUSH4 0x6D73E669 EQ PUSH2 0x4AD JUMPI DUP1 PUSH4 0x715018A6 EQ PUSH2 0x4D5 JUMPI DUP1 PUSH4 0x853828B6 EQ PUSH2 0x4EB JUMPI PUSH2 0x203 JUMP JUMPDEST DUP1 PUSH4 0x31AE450B EQ PUSH2 0x39D JUMPI DUP1 PUSH4 0x3EAAF86B EQ PUSH2 0x3C7 JUMPI DUP1 PUSH4 0x413620D4 EQ PUSH2 0x3F1 JUMPI DUP1 PUSH4 0x5721421D EQ PUSH2 0x42D JUMPI PUSH2 0x203 JUMP JUMPDEST DUP1 PUSH4 0x22F4596F GT PUSH2 0x1D6 JUMPI DUP1 PUSH4 0x22F4596F EQ PUSH2 0x2E5 JUMPI DUP1 PUSH4 0x235B6EA1 EQ PUSH2 0x30F JUMPI DUP1 PUSH4 0x24D7806C EQ PUSH2 0x339 JUMPI DUP1 PUSH4 0x2D345670 EQ PUSH2 0x375 JUMPI PUSH2 0x203 JUMP JUMPDEST DUP1 PUSH4 0x1FFC9A7 EQ PUSH2 0x207 JUMPI DUP1 PUSH4 0x13CECD70 EQ PUSH2 0x243 JUMPI DUP1 PUSH4 0x18160DDD EQ PUSH2 0x27F JUMPI DUP1 PUSH4 0x1E826FB4 EQ PUSH2 0x2A9 JUMPI JUMPDEST PUSH0 DUP1 REVERT JUMPDEST CALLVALUE DUP1 ISZERO PUSH2 0x212 JUMPI PUSH0 DUP1 REVERT JUMPDEST POP PUSH2 0x22D PUSH1 0x4 DUP1 CALLDATASIZE SUB DUP2 ADD SWAP1 PUSH2 0x228 SWAP2 SWAP1 PUSH2 0x26DA JUMP JUMPDEST PUSH2 0x857 JUMP JUMPDEST PUSH1 0x40 MLOAD PUSH2 0x23A SWAP2 SWAP1 PUSH2 0x271F JUMP JUMPDEST PUSH1 0x40 MLOAD DUP1 SWAP2 SUB SWAP1 RETURN JUMPDEST CALLVALUE DUP1 ISZERO PUSH2 0x24E JUMPI PUSH0 DUP1 REVERT JUMPDEST POP PUSH2 0x269 PUSH1 0x4 DUP1 CALLDATASIZE SUB DUP2 ADD SWAP1 PUSH2 0x264 SWAP2 SWAP1 PUSH2 0x276B JUMP JUMPDEST PUSH2 0x9A0 JUMP JUMPDEST PUSH1 0x40 MLOAD PUSH2 0x276 SWAP2 SWAP1 PUSH2 0x2806 JUMP JUMPDEST PUSH1 0x40 MLOAD DUP1 SWAP2 SUB SWAP1 RETURN JUMPDEST CALLVALUE DUP1 ISZERO PUSH2 0x28A JUMPI PUSH0 DUP1 REVERT JUMPDEST POP PUSH2 0x293 PUSH2 0xA46 JUMP JUMPDEST PUSH1 0x40 MLOAD PUSH2 0x2A0 SWAP2 SWAP1 PUSH2 0x2835 JUMP JUMPDEST PUSH1 0x40 MLOAD DUP1 SWAP2 SUB SWAP1 RETURN JUMPDEST CALLVALUE DUP1 ISZERO PUSH2 0x2B4 JUMPI PUSH0 DUP1 REVERT JUMPDEST POP PUSH2 0x2CF PUSH1 0x4 DUP1 CALLDATASIZE SUB DUP2 ADD SWAP1 PUSH2 0x2CA SWAP2 SWAP1 PUSH2 0x2881 JUMP JUMPDEST PUSH2 0xA4F JUMP JUMPDEST PUSH1 0x40 MLOAD PUSH2 0x2DC SWAP2 SWAP1 PUSH2 0x2951 JUMP JUMPDEST PUSH1 0x40 MLOAD DUP1 SWAP2 SUB SWAP1 RETURN JUMPDEST CALLVALUE DUP1 ISZERO PUSH2 0x2F0 JUMPI PUSH0 DUP1 REVERT JUMPDEST POP PUSH2 0x2F9 PUSH2 0xAC6 JUMP JUMPDEST PUSH1 0x40 MLOAD PUSH2 0x306 SWAP2 SWAP1 PUSH2 0x2835 JUMP JUMPDEST PUSH1 0x40 MLOAD DUP1 SWAP2 SUB SWAP1 RETURN JUMPDEST CALLVALUE DUP1 ISZERO PUSH2 0x31A JUMPI PUSH0 DUP1 REVERT JUMPDEST POP PUSH2 0x323 PUSH2 0xACC JUMP JUMPDEST PUSH1 0x40 MLOAD PUSH2 0x330 SWAP2 SWAP1 PUSH2 0x2835 JUMP JUMPDEST PUSH1 0x40 MLOAD DUP1 SWAP2 SUB SWAP1 RETURN JUMPDEST CALLVALUE DUP1 ISZERO PUSH2 0x344 JUMPI PUSH0 DUP1 REVERT JUMPDEST POP PUSH2 0x35F PUSH1 0x4 DUP1 CALLDATASIZE SUB DUP2 ADD SWAP1 PUSH2 0x35A SWAP2 SWAP1 PUSH2 0x29C5 JUMP JUMPDEST PUSH2 0xAD2 JUMP JUMPDEST PUSH1 0x40 MLOAD PUSH2 0x36C SWAP2 SWAP1 PUSH2 0x271F JUMP JUMPDEST PUSH1 0x40 MLOAD DUP1 SWAP2 SUB SWAP1 RETURN JUMPDEST CALLVALUE DUP1 ISZERO PUSH2 0x380 JUMPI PUSH0 DUP1 REVERT JUMPDEST POP PUSH2 0x39B PUSH1 0x4 DUP1 CALLDATASIZE SUB DUP2 ADD SWAP1 PUSH2 0x396 SWAP2 SWAP1 PUSH2 0x29C5 JUMP JUMPDEST PUSH2 0xB2B JUMP JUMPDEST STOP JUMPDEST CALLVALUE DUP1 ISZERO PUSH2 0x3A8 JUMPI PUSH0 DUP1 REVERT JUMPDEST POP PUSH2 0x3B1 PUSH2 0xBBF JUMP JUMPDEST PUSH1 0x40 MLOAD PUSH2 0x3BE SWAP2 SWAP1 PUSH2 0x2AA7 JUMP JUMPDEST PUSH1 0x40 MLOAD DUP1 SWAP2 SUB SWAP1 RETURN JUMPDEST CALLVALUE DUP1 ISZERO PUSH2 0x3D2 JUMPI PUSH0 DUP1 REVERT JUMPDEST POP PUSH2 0x3DB PUSH2 0xC9A JUMP JUMPDEST PUSH1 0x40 MLOAD PUSH2 0x3E8 SWAP2 SWAP1 PUSH2 0x2835 JUMP JUMPDEST PUSH1 0x40 MLOAD DUP1 SWAP2 SUB SWAP1 RETURN JUMPDEST CALLVALUE DUP1 ISZERO PUSH2 0x3FC JUMPI PUSH0 DUP1 REVERT JUMPDEST POP PUSH2 0x417 PUSH1 0x4 DUP1 CALLDATASIZE SUB DUP2 ADD SWAP1 PUSH2 0x412 SWAP2 SWAP1 PUSH2 0x2BF3 JUMP JUMPDEST PUSH2 0xCA0 JUMP JUMPDEST PUSH1 0x40 MLOAD PUSH2 0x424 SWAP2 SWAP1 PUSH2 0x2806 JUMP JUMPDEST PUSH1 0x40 MLOAD DUP1 SWAP2 SUB SWAP1 RETURN JUMPDEST CALLVALUE DUP1 ISZERO PUSH2 0x438 JUMPI PUSH0 DUP1 REVERT JUMPDEST POP PUSH2 0x453 PUSH1 0x4 DUP1 CALLDATASIZE SUB DUP2 ADD SWAP1 PUSH2 0x44E SWAP2 SWAP1 PUSH2 0x276B JUMP JUMPDEST PUSH2 0xCD1 JUMP JUMPDEST PUSH1 0x40 MLOAD PUSH2 0x460 SWAP2 SWAP1 PUSH2 0x2806 JUMP JUMPDEST PUSH1 0x40 MLOAD DUP1 SWAP2 SUB SWAP1 RETURN JUMPDEST CALLVALUE DUP1 ISZERO PUSH2 0x474 JUMPI PUSH0 DUP1 REVERT JUMPDEST POP PUSH2 0x48F PUSH1 0x4 DUP1 CALLDATASIZE SUB DUP2 ADD SWAP1 PUSH2 0x48A SWAP2 SWAP1 PUSH2 0x2D1C JUMP JUMPDEST PUSH2 0x1022 JUMP JUMPDEST STOP JUMPDEST PUSH2 0x4AB PUSH1 0x4 DUP1 CALLDATASIZE SUB DUP2 ADD SWAP1 PUSH2 0x4A6 SWAP2 SWAP1 PUSH2 0x29C5 JUMP JUMPDEST PUSH2 0x10CB JUMP JUMPDEST STOP JUMPDEST CALLVALUE DUP1 ISZERO PUSH2 0x4B8 JUMPI PUSH0 DUP1 REVERT JUMPDEST POP PUSH2 0x4D3 PUSH1 0x4 DUP1 CALLDATASIZE SUB DUP2 ADD SWAP1 PUSH2 0x4CE SWAP2 SWAP1 PUSH2 0x29C5 JUMP JUMPDEST PUSH2 0x1591 JUMP JUMPDEST STOP JUMPDEST CALLVALUE DUP1 ISZERO PUSH2 0x4E0 JUMPI PUSH0 DUP1 REVERT JUMPDEST POP PUSH2 0x4E9 PUSH2 0x1624 JUMP JUMPDEST STOP JUMPDEST CALLVALUE DUP1 ISZERO PUSH2 0x4F6 JUMPI PUSH0 DUP1 REVERT JUMPDEST POP PUSH2 0x4FF PUSH2 0x1637 JUMP JUMPDEST STOP JUMPDEST CALLVALUE DUP1 ISZERO PUSH2 0x50C JUMPI PUSH0 DUP1 REVERT JUMPDEST POP PUSH2 0x515 PUSH2 0x1704 JUMP JUMPDEST PUSH1 0x40 MLOAD PUSH2 0x522 SWAP2 SWAP1 PUSH2 0x2D72 JUMP JUMPDEST PUSH1 0x40 MLOAD DUP1 SWAP2 SUB SWAP1 RETURN JUMPDEST CALLVALUE DUP1 ISZERO PUSH2 0x536 JUMPI PUSH0 DUP1 REVERT JUMPDEST POP PUSH2 0x551 PUSH1 0x4 DUP1 CALLDATASIZE SUB DUP2 ADD SWAP1 PUSH2 0x54C SWAP2 SWAP1 PUSH2 0x2BF3 JUMP JUMPDEST PUSH2 0x172B JUMP JUMPDEST STOP JUMPDEST CALLVALUE DUP1 ISZERO PUSH2 0x55E JUMPI PUSH0 DUP1 REVERT JUMPDEST POP PUSH2 0x579 PUSH1 0x4 DUP1 CALLDATASIZE SUB DUP2 ADD SWAP1 PUSH2 0x574 SWAP2 SWAP1 PUSH2 0x276B JUMP JUMPDEST PUSH2 0x17CD JUMP JUMPDEST STOP JUMPDEST CALLVALUE DUP1 ISZERO PUSH2 0x586 JUMPI PUSH0 DUP1 REVERT JUMPDEST POP PUSH2 0x58F PUSH2 0x1866 JUMP JUMPDEST PUSH1 0x40 MLOAD PUSH2 0x59C SWAP2 SWAP1 PUSH2 0x271F JUMP JUMPDEST PUSH1 0x40 MLOAD DUP1 SWAP2 SUB SWAP1 RETURN JUMPDEST CALLVALUE DUP1 ISZERO PUSH2 0x5B0 JUMPI PUSH0 DUP1 REVERT JUMPDEST POP PUSH2 0x5CB PUSH1 0x4 DUP1 CALLDATASIZE SUB DUP2 ADD SWAP1 PUSH2 0x5C6 SWAP2 SWAP1 PUSH2 0x29C5 JUMP JUMPDEST PUSH2 0x1879 JUMP JUMPDEST PUSH1 0x40 MLOAD PUSH2 0x5D8 SWAP2 SWAP1 PUSH2 0x2835 JUMP JUMPDEST PUSH1 0x40 MLOAD DUP1 SWAP2 SUB SWAP1 RETURN JUMPDEST CALLVALUE DUP1 ISZERO PUSH2 0x5EC JUMPI PUSH0 DUP1 REVERT JUMPDEST POP PUSH2 0x5F5 PUSH2 0x188E JUMP JUMPDEST PUSH1 0x40 MLOAD PUSH2 0x602 SWAP2 SWAP1 PUSH2 0x2D72 JUMP JUMPDEST PUSH1 0x40 MLOAD DUP1 SWAP2 SUB SWAP1 RETURN JUMPDEST CALLVALUE DUP1 ISZERO PUSH2 0x616 JUMPI PUSH0 DUP1 REVERT JUMPDEST POP PUSH2 0x61F PUSH2 0x18B3 JUMP JUMPDEST PUSH1 0x40 MLOAD PUSH2 0x62C SWAP2 SWAP1 PUSH2 0x2D72 JUMP JUMPDEST PUSH1 0x40 MLOAD DUP1 SWAP2 SUB SWAP1 RETURN JUMPDEST CALLVALUE DUP1 ISZERO PUSH2 0x640 JUMPI PUSH0 DUP1 REVERT JUMPDEST POP PUSH2 0x65B PUSH1 0x4 DUP1 CALLDATASIZE SUB DUP2 ADD SWAP1 PUSH2 0x656 SWAP2 SWAP1 PUSH2 0x2DB5 JUMP JUMPDEST PUSH2 0x18D9 JUMP JUMPDEST STOP JUMPDEST CALLVALUE DUP1 ISZERO PUSH2 0x668 JUMPI PUSH0 DUP1 REVERT JUMPDEST POP PUSH2 0x683 PUSH1 0x4 DUP1 CALLDATASIZE SUB DUP2 ADD SWAP1 PUSH2 0x67E SWAP2 SWAP1 PUSH2 0x2BF3 JUMP JUMPDEST PUSH2 0x1984 JUMP JUMPDEST PUSH1 0x40 MLOAD PUSH2 0x690 SWAP2 SWAP1 PUSH2 0x2806 JUMP JUMPDEST PUSH1 0x40 MLOAD DUP1 SWAP2 SUB SWAP1 RETURN JUMPDEST CALLVALUE DUP1 ISZERO PUSH2 0x6A4 JUMPI PUSH0 DUP1 REVERT JUMPDEST POP PUSH2 0x6AD PUSH2 0x19B5 JUMP JUMPDEST PUSH1 0x40 MLOAD PUSH2 0x6BA SWAP2 SWAP1 PUSH2 0x2AA7 JUMP JUMPDEST PUSH1 0x40 MLOAD DUP1 SWAP2 SUB SWAP1 RETURN JUMPDEST CALLVALUE DUP1 ISZERO PUSH2 0x6CE JUMPI PUSH0 DUP1 REVERT JUMPDEST POP PUSH2 0x6E9 PUSH1 0x4 DUP1 CALLDATASIZE SUB DUP2 ADD SWAP1 PUSH2 0x6E4 SWAP2 SWAP1 PUSH2 0x276B JUMP JUMPDEST PUSH2 0x1AB5 JUMP JUMPDEST PUSH1 0x40 MLOAD PUSH2 0x6F6 SWAP2 SWAP1 PUSH2 0x2806 JUMP JUMPDEST PUSH1 0x40 MLOAD DUP1 SWAP2 SUB SWAP1 RETURN JUMPDEST CALLVALUE DUP1 ISZERO PUSH2 0x70A JUMPI PUSH0 DUP1 REVERT JUMPDEST POP PUSH2 0x713 PUSH2 0x1B5B JUMP JUMPDEST PUSH1 0x40 MLOAD PUSH2 0x720 SWAP2 SWAP1 PUSH2 0x2835 JUMP JUMPDEST PUSH1 0x40 MLOAD DUP1 SWAP2 SUB SWAP1 RETURN JUMPDEST CALLVALUE DUP1 ISZERO PUSH2 0x734 JUMPI PUSH0 DUP1 REVERT JUMPDEST POP PUSH2 0x74F PUSH1 0x4 DUP1 CALLDATASIZE SUB DUP2 ADD SWAP1 PUSH2 0x74A SWAP2 SWAP1 PUSH2 0x2DE0 JUMP JUMPDEST PUSH2 0x1B64 JUMP JUMPDEST STOP JUMPDEST CALLVALUE DUP1 ISZERO PUSH2 0x75C JUMPI PUSH0 DUP1 REVERT JUMPDEST POP PUSH2 0x765 PUSH2 0x1C58 JUMP JUMPDEST PUSH1 0x40 MLOAD PUSH2 0x772 SWAP2 SWAP1 PUSH2 0x271F JUMP JUMPDEST PUSH1 0x40 MLOAD DUP1 SWAP2 SUB SWAP1 RETURN JUMPDEST CALLVALUE DUP1 ISZERO PUSH2 0x786 JUMPI PUSH0 DUP1 REVERT JUMPDEST POP PUSH2 0x7A1 PUSH1 0x4 DUP1 CALLDATASIZE SUB DUP2 ADD SWAP1 PUSH2 0x79C SWAP2 SWAP1 PUSH2 0x276B JUMP JUMPDEST PUSH2 0x1C6A JUMP JUMPDEST PUSH1 0x40 MLOAD PUSH2 0x7AE SWAP2 SWAP1 PUSH2 0x2806 JUMP JUMPDEST PUSH1 0x40 MLOAD DUP1 SWAP2 SUB SWAP1 RETURN JUMPDEST CALLVALUE DUP1 ISZERO PUSH2 0x7C2 JUMPI PUSH0 DUP1 REVERT JUMPDEST POP PUSH2 0x7DD PUSH1 0x4 DUP1 CALLDATASIZE SUB DUP2 ADD SWAP1 PUSH2 0x7D8 SWAP2 SWAP1 PUSH2 0x2E1E JUMP JUMPDEST PUSH2 0x1D10 JUMP JUMPDEST PUSH1 0x40 MLOAD PUSH2 0x7EA SWAP2 SWAP1 PUSH2 0x2806 JUMP JUMPDEST PUSH1 0x40 MLOAD DUP1 SWAP2 SUB SWAP1 RETURN JUMPDEST CALLVALUE DUP1 ISZERO PUSH2 0x7FE JUMPI PUSH0 DUP1 REVERT JUMPDEST POP PUSH2 0x819 PUSH1 0x4 DUP1 CALLDATASIZE SUB DUP2 ADD SWAP1 PUSH2 0x814 SWAP2 SWAP1 PUSH2 0x29C5 JUMP JUMPDEST PUSH2 0x1D23 JUMP JUMPDEST STOP JUMPDEST CALLVALUE DUP1 ISZERO PUSH2 0x826 JUMPI PUSH0 DUP1 REVERT JUMPDEST POP PUSH2 0x841 PUSH1 0x4 DUP1 CALLDATASIZE SUB DUP2 ADD SWAP1 PUSH2 0x83C SWAP2 SWAP1 PUSH2 0x276B JUMP JUMPDEST PUSH2 0x1DA7 JUMP JUMPDEST PUSH1 0x40 MLOAD PUSH2 0x84E SWAP2 SWAP1 PUSH2 0x2806 JUMP JUMPDEST PUSH1 0x40 MLOAD DUP1 SWAP2 SUB SWAP1 RETURN JUMPDEST PUSH0 PUSH32 0xE9DC637500000000000000000000000000000000000000000000000000000000 PUSH28 0xFFFFFFFFFFFFFFFFFFFFFFFFFFFFFFFFFFFFFFFFFFFFFFFFFFFFFFFF NOT AND DUP3 PUSH28 0xFFFFFFFFFFFFFFFFFFFFFFFFFFFFFFFFFFFFFFFFFFFFFFFFFFFFFFFF NOT AND EQ DUP1 PUSH2 0x921 JUMPI POP PUSH32 0xA7DF9E9E00000000000000000000000000000000000000000000000000000000 PUSH28 0xFFFFFFFFFFFFFFFFFFFFFFFFFFFFFFFFFFFFFFFFFFFFFFFFFFFFFFFF NOT AND DUP3 PUSH28 0xFFFFFFFFFFFFFFFFFFFFFFFFFFFFFFFFFFFFFFFFFFFFFFFFFFFFFFFF NOT AND EQ JUMPDEST DUP1 PUSH2 0x989 JUMPI POP PUSH32 0x54C1BCD900000000000000000000000000000000000000000000000000000000 PUSH28 0xFFFFFFFFFFFFFFFFFFFFFFFFFFFFFFFFFFFFFFFFFFFFFFFFFFFFFFFF NOT AND DUP3 PUSH28 0xFFFFFFFFFFFFFFFFFFFFFFFFFFFFFFFFFFFFFFFFFFFFFFFFFFFFFFFF NOT AND EQ JUMPDEST DUP1 PUSH2 0x999 JUMPI POP PUSH2 0x998 DUP3 PUSH2 0x1F25 JUMP JUMPDEST JUMPDEST SWAP1 POP SWAP2 SWAP1 POP JUMP JUMPDEST PUSH1 0x11 DUP2 DUP2 SLOAD DUP2 LT PUSH2 0x9AF JUMPI PUSH0 DUP1 REVERT JUMPDEST SWAP1 PUSH0 MSTORE PUSH1 0x20 PUSH0 KECCAK256 ADD PUSH0 SWAP2 POP SWAP1 POP DUP1 SLOAD PUSH2 0x9C7 SWAP1 PUSH2 0x2E89 JUMP JUMPDEST DUP1 PUSH1 0x1F ADD PUSH1 0x20 DUP1 SWAP2 DIV MUL PUSH1 0x20 ADD PUSH1 0x40 MLOAD SWAP1 DUP2 ADD PUSH1 0x40 MSTORE DUP1 SWAP3 SWAP2 SWAP1 DUP2 DUP2 MSTORE PUSH1 0x20 ADD DUP3 DUP1 SLOAD PUSH2 0x9F3 SWAP1 PUSH2 0x2E89 JUMP JUMPDEST DUP1 ISZERO PUSH2 0xA3E JUMPI DUP1 PUSH1 0x1F LT PUSH2 0xA15 JUMPI PUSH2 0x100 DUP1 DUP4 SLOAD DIV MUL DUP4 MSTORE SWAP2 PUSH1 0x20 ADD SWAP2 PUSH2 0xA3E JUMP JUMPDEST DUP3 ADD SWAP2 SWAP1 PUSH0 MSTORE PUSH1 0x20 PUSH0 KECCAK256 SWAP1 JUMPDEST DUP2 SLOAD DUP2 MSTORE SWAP1 PUSH1 0x1 ADD SWAP1 PUSH1 0x20 ADD DUP1 DUP4 GT PUSH2 0xA21 JUMPI DUP3 SWAP1 SUB PUSH1 0x1F AND DUP3 ADD SWAP2 JUMPDEST POP POP POP POP POP DUP2 JUMP JUMPDEST PUSH0 PUSH1 0x6 SLOAD SWAP1 POP SWAP1 JUMP JUMPDEST PUSH2 0xA57 PUSH2 0x257F JUMP JUMPDEST PUSH2 0xA5F PUSH2 0x257F JUMP JUMPDEST PUSH0 JUMPDEST PUSH1 0xA DUP2 LT ISZERO PUSH2 0xABC JUMPI PUSH1 0x65 DUP5 DUP3 PUSH1 0x20 DUP2 LT PUSH2 0xA7F JUMPI PUSH2 0xA7E PUSH2 0x2EB9 JUMP JUMPDEST JUMPDEST BYTE PUSH1 0xF8 SHL PUSH1 0xF8 SHR PUSH1 0xFF AND PUSH2 0xA93 SWAP2 SWAP1 PUSH2 0x2F13 JUMP JUMPDEST DUP3 DUP3 PUSH1 0xA DUP2 LT PUSH2 0xAA6 JUMPI PUSH2 0xAA5 PUSH2 0x2EB9 JUMP JUMPDEST JUMPDEST PUSH1 0x20 MUL ADD DUP2 DUP2 MSTORE POP POP DUP1 DUP1 PUSH1 0x1 ADD SWAP2 POP POP PUSH2 0xA61 JUMP JUMPDEST POP DUP1 SWAP2 POP POP SWAP2 SWAP1 POP JUMP JUMPDEST PUSH1 0x4 SLOAD DUP2 JUMP JUMPDEST PUSH1 0x5 SLOAD DUP2 JUMP JUMPDEST PUSH0 DUP2 PUSH20 0xFFFFFFFFFFFFFFFFFFFFFFFFFFFFFFFFFFFFFFFF AND PUSH2 0xAF2 PUSH2 0x1704 JUMP JUMPDEST PUSH20 0xFFFFFFFFFFFFFFFFFFFFFFFFFFFFFFFFFFFFFFFF AND EQ DUP1 PUSH2 0xB24 JUMPI POP PUSH2 0xB23 DUP3 PUSH1 0x1 PUSH2 0x1F85 SWAP1 SWAP2 SWAP1 PUSH4 0xFFFFFFFF AND JUMP JUMPDEST JUMPDEST SWAP1 POP SWAP2 SWAP1 POP JUMP JUMPDEST PUSH2 0xB33 PUSH2 0x1FB2 JUMP JUMPDEST PUSH2 0xB47 DUP2 PUSH1 0x1 PUSH2 0x1F85 SWAP1 SWAP2 SWAP1 PUSH4 0xFFFFFFFF AND JUMP JUMPDEST ISZERO PUSH2 0xBBC JUMPI CALLER PUSH20 0xFFFFFFFFFFFFFFFFFFFFFFFFFFFFFFFFFFFFFFFF AND DUP2 PUSH20 0xFFFFFFFFFFFFFFFFFFFFFFFFFFFFFFFFFFFFFFFF AND PUSH32 0x7C0C3C84C67C85FCAC635147348BFE374C24A1A93D0366D1CFE9D8853CBF89D5 PUSH1 0x40 MLOAD PUSH1 0x40 MLOAD DUP1 SWAP2 SUB SWAP1 LOG3 PUSH2 0xBBA DUP2 PUSH1 0x1 PUSH2 0x2039 SWAP1 SWAP2 SWAP1 PUSH4 0xFFFFFFFF AND JUMP JUMPDEST POP JUMPDEST POP JUMP JUMPDEST PUSH1 0x60 PUSH2 0xBCB PUSH1 0x1 PUSH2 0x2066 JUMP JUMPDEST PUSH8 0xFFFFFFFFFFFFFFFF DUP2 GT ISZERO PUSH2 0xBE4 JUMPI PUSH2 0xBE3 PUSH2 0x2ACF JUMP JUMPDEST JUMPDEST PUSH1 0x40 MLOAD SWAP1 DUP1 DUP3 MSTORE DUP1 PUSH1 0x20 MUL PUSH1 0x20 ADD DUP3 ADD PUSH1 0x40 MSTORE DUP1 ISZERO PUSH2 0xC12 JUMPI DUP2 PUSH1 0x20 ADD PUSH1 0x20 DUP3 MUL DUP1 CALLDATASIZE DUP4 CALLDATACOPY DUP1 DUP3 ADD SWAP2 POP POP SWAP1 POP JUMPDEST POP SWAP1 POP PUSH0 JUMPDEST PUSH2 0xC21 PUSH1 0x1 PUSH2 0x2066 JUMP JUMPDEST DUP2 LT ISZERO PUSH2 0xC96 JUMPI PUSH2 0xC3C DUP2 PUSH1 0x1 PUSH2 0x2079 SWAP1 SWAP2 SWAP1 PUSH4 0xFFFFFFFF AND JUMP JUMPDEST DUP3 DUP3 DUP2 MLOAD DUP2 LT PUSH2 0xC4F JUMPI PUSH2 0xC4E PUSH2 0x2EB9 JUMP JUMPDEST JUMPDEST PUSH1 0x20 MUL PUSH1 0x20 ADD ADD SWAP1 PUSH20 0xFFFFFFFFFFFFFFFFFFFFFFFFFFFFFFFFFFFFFFFF AND SWAP1 DUP2 PUSH20 0xFFFFFFFFFFFFFFFFFFFFFFFFFFFFFFFFFFFFFFFF AND DUP2 MSTORE POP POP DUP1 DUP1 PUSH1 0x1 ADD SWAP2 POP POP PUSH2 0xC17 JUMP JUMPDEST POP SWAP1 JUMP JUMPDEST PUSH1 0x6 SLOAD DUP2 JUMP JUMPDEST PUSH1 0x60 PUSH2 0xCAB DUP3 PUSH2 0x2090 JUMP JUMPDEST PUSH1 0x40 MLOAD PUSH1 0x20 ADD PUSH2 0xCBB SWAP2 SWAP1 PUSH2 0x2FC7 JUMP JUMPDEST PUSH1 0x40 MLOAD PUSH1 0x20 DUP2 DUP4 SUB SUB DUP2 MSTORE SWAP1 PUSH1 0x40 MSTORE SWAP1 POP SWAP2 SWAP1 POP JUMP JUMPDEST PUSH1 0x60 PUSH0 PUSH2 0xD6D PUSH1 0x3 PUSH0 SWAP1 SLOAD SWAP1 PUSH2 0x100 EXP SWAP1 DIV PUSH20 0xFFFFFFFFFFFFFFFFFFFFFFFFFFFFFFFFFFFFFFFF AND PUSH20 0xFFFFFFFFFFFFFFFFFFFFFFFFFFFFFFFFFFFFFFFF AND PUSH4 0x3EC28BBE PUSH1 0x40 MLOAD DUP2 PUSH4 0xFFFFFFFF AND PUSH1 0xE0 SHL DUP2 MSTORE PUSH1 0x4 ADD PUSH0 PUSH1 0x40 MLOAD DUP1 DUP4 SUB DUP2 DUP7 GAS STATICCALL ISZERO DUP1 ISZERO PUSH2 0xD40 JUMPI RETURNDATASIZE PUSH0 DUP1 RETURNDATACOPY RETURNDATASIZE PUSH0 REVERT JUMPDEST POP POP POP POP PUSH1 0x40 MLOAD RETURNDATASIZE PUSH0 DUP3 RETURNDATACOPY RETURNDATASIZE PUSH1 0x1F NOT PUSH1 0x1F DUP3 ADD AND DUP3 ADD DUP1 PUSH1 0x40 MSTORE POP DUP2 ADD SWAP1 PUSH2 0xD68 SWAP2 SWAP1 PUSH2 0x3056 JUMP JUMPDEST PUSH2 0xCA0 JUMP JUMPDEST SWAP1 POP PUSH0 PUSH2 0xF9A PUSH1 0x3 PUSH0 SWAP1 SLOAD SWAP1 PUSH2 0x100 EXP SWAP1 DIV PUSH20 0xFFFFFFFFFFFFFFFFFFFFFFFFFFFFFFFFFFFFFFFF AND PUSH20 0xFFFFFFFFFFFFFFFFFFFFFFFFFFFFFFFFFFFFFFFF AND PUSH4 0x42882F5B DUP7 PUSH1 0x40 MLOAD DUP3 PUSH4 0xFFFFFFFF AND PUSH1 0xE0 SHL DUP2 MSTORE PUSH1 0x4 ADD PUSH2 0xDCD SWAP2 SWAP1 PUSH2 0x2835 JUMP JUMPDEST PUSH0 PUSH1 0x40 MLOAD DUP1 DUP4 SUB DUP2 DUP7 GAS STATICCALL ISZERO DUP1 ISZERO PUSH2 0xDE7 JUMPI RETURNDATASIZE PUSH0 DUP1 RETURNDATACOPY RETURNDATASIZE PUSH0 REVERT JUMPDEST POP POP POP POP PUSH1 0x40 MLOAD RETURNDATASIZE PUSH0 DUP3 RETURNDATACOPY RETURNDATASIZE PUSH1 0x1F NOT PUSH1 0x1F DUP3 ADD AND DUP3 ADD DUP1 PUSH1 0x40 MSTORE POP DUP2 ADD SWAP1 PUSH2 0xE0F SWAP2 SWAP1 PUSH2 0x3056 JUMP JUMPDEST PUSH1 0x3 PUSH0 SWAP1 SLOAD SWAP1 PUSH2 0x100 EXP SWAP1 DIV PUSH20 0xFFFFFFFFFFFFFFFFFFFFFFFFFFFFFFFFFFFFFFFF AND PUSH20 0xFFFFFFFFFFFFFFFFFFFFFFFFFFFFFFFFFFFFFFFF AND PUSH4 0x5E9FF849 DUP8 PUSH1 0xB PUSH0 DUP11 DUP2 MSTORE PUSH1 0x20 ADD SWAP1 DUP2 MSTORE PUSH1 0x20 ADD PUSH0 KECCAK256 SLOAD PUSH1 0xC PUSH0 DUP12 DUP2 MSTORE PUSH1 0x20 ADD SWAP1 DUP2 MSTORE PUSH1 0x20 ADD PUSH0 KECCAK256 SLOAD PUSH1 0xA PUSH0 DUP13 DUP2 MSTORE PUSH1 0x20 ADD SWAP1 DUP2 MSTORE PUSH1 0x20 ADD PUSH0 KECCAK256 PUSH1 0x40 MLOAD DUP6 PUSH4 0xFFFFFFFF AND PUSH1 0xE0 SHL DUP2 MSTORE PUSH1 0x4 ADD PUSH2 0xEA1 SWAP5 SWAP4 SWAP3 SWAP2 SWAP1 PUSH2 0x313F JUMP JUMPDEST PUSH0 PUSH1 0x40 MLOAD DUP1 DUP4 SUB DUP2 DUP7 GAS STATICCALL ISZERO DUP1 ISZERO PUSH2 0xEBB JUMPI RETURNDATASIZE PUSH0 DUP1 RETURNDATACOPY RETURNDATASIZE PUSH0 REVERT JUMPDEST POP POP POP POP PUSH1 0x40 MLOAD RETURNDATASIZE PUSH0 DUP3 RETURNDATACOPY RETURNDATASIZE PUSH1 0x1F NOT PUSH1 0x1F DUP3 ADD AND DUP3 ADD DUP1 PUSH1 0x40 MSTORE POP DUP2 ADD SWAP1 PUSH2 0xEE3 SWAP2 SWAP1 PUSH2 0x3056 JUMP JUMPDEST PUSH1 0x3 PUSH0 SWAP1 SLOAD SWAP1 PUSH2 0x100 EXP SWAP1 DIV PUSH20 0xFFFFFFFFFFFFFFFFFFFFFFFFFFFFFFFFFFFFFFFF AND PUSH20 0xFFFFFFFFFFFFFFFFFFFFFFFFFFFFFFFFFFFFFFFF AND PUSH4 0x7899FF8F PUSH1 0x40 MLOAD DUP2 PUSH4 0xFFFFFFFF AND PUSH1 0xE0 SHL DUP2 MSTORE PUSH1 0x4 ADD PUSH0 PUSH1 0x40 MLOAD DUP1 DUP4 SUB DUP2 DUP7 GAS STATICCALL ISZERO DUP1 ISZERO PUSH2 0xF4C JUMPI RETURNDATASIZE PUSH0 DUP1 RETURNDATACOPY RETURNDATASIZE PUSH0 REVERT JUMPDEST POP POP POP POP PUSH1 0x40 MLOAD RETURNDATASIZE PUSH0 DUP3 RETURNDATACOPY RETURNDATASIZE PUSH1 0x1F NOT PUSH1 0x1F DUP3 ADD AND DUP3 ADD DUP1 PUSH1 0x40 MSTORE POP DUP2 ADD SWAP1 PUSH2 0xF74 SWAP2 SWAP1 PUSH2 0x3056 JUMP JUMPDEST PUSH1 0x40 MLOAD PUSH1 0x20 ADD PUSH2 0xF86 SWAP4 SWAP3 SWAP2 SWAP1 PUSH2 0x3189 JUMP JUMPDEST PUSH1 0x40 MLOAD PUSH1 0x20 DUP2 DUP4 SUB SUB DUP2 MSTORE SWAP1 PUSH1 0x40 MSTORE PUSH2 0x1984 JUMP JUMPDEST SWAP1 POP PUSH0 PUSH2 0xFF6 PUSH2 0xFA9 DUP7 PUSH2 0x1DA7 JUMP JUMPDEST PUSH1 0xA PUSH0 DUP9 DUP2 MSTORE PUSH1 0x20 ADD SWAP1 DUP2 MSTORE PUSH1 0x20 ADD PUSH0 KECCAK256 PUSH1 0xB PUSH0 DUP10 DUP2 MSTORE PUSH1 0x20 ADD SWAP1 DUP2 MSTORE PUSH1 0x20 ADD PUSH0 KECCAK256 SLOAD DUP7 DUP7 PUSH1 0x40 MLOAD PUSH1 0x20 ADD PUSH2 0xFE2 SWAP6 SWAP5 SWAP4 SWAP3 SWAP2 SWAP1 PUSH2 0x34D1 JUMP JUMPDEST PUSH1 0x40 MLOAD PUSH1 0x20 DUP2 DUP4 SUB SUB DUP2 MSTORE SWAP1 PUSH1 0x40 MSTORE PUSH2 0x2090 JUMP JUMPDEST SWAP1 POP DUP1 PUSH1 0x40 MLOAD PUSH1 0x20 ADD PUSH2 0x1009 SWAP2 SWAP1 PUSH2 0x35B6 JUMP JUMPDEST PUSH1 0x40 MLOAD PUSH1 0x20 DUP2 DUP4 SUB SUB DUP2 MSTORE SWAP1 PUSH1 0x40 MSTORE SWAP4 POP POP POP POP SWAP2 SWAP1 POP JUMP JUMPDEST PUSH1 0x8 PUSH0 SWAP1 SLOAD SWAP1 PUSH2 0x100 EXP SWAP1 DIV PUSH20 0xFFFFFFFFFFFFFFFFFFFFFFFFFFFFFFFFFFFFFFFF AND PUSH20 0xFFFFFFFFFFFFFFFFFFFFFFFFFFFFFFFFFFFFFFFF AND CALLER PUSH20 0xFFFFFFFFFFFFFFFFFFFFFFFFFFFFFFFFFFFFFFFF AND EQ PUSH2 0x10B1 JUMPI PUSH1 0x40 MLOAD PUSH32 0x8C379A000000000000000000000000000000000000000000000000000000000 DUP2 MSTORE PUSH1 0x4 ADD PUSH2 0x10A8 SWAP1 PUSH2 0x3621 JUMP JUMPDEST PUSH1 0x40 MLOAD DUP1 SWAP2 SUB SWAP1 REVERT JUMPDEST DUP1 PUSH1 0x12 SWAP1 DUP1 MLOAD SWAP1 PUSH1 0x20 ADD SWAP1 PUSH2 0x10C7 SWAP3 SWAP2 SWAP1 PUSH2 0x25A2 JUMP JUMPDEST POP POP JUMP JUMPDEST PUSH1 0x8 PUSH0 SWAP1 SLOAD SWAP1 PUSH2 0x100 EXP SWAP1 DIV PUSH20 0xFFFFFFFFFFFFFFFFFFFFFFFFFFFFFFFFFFFFFFFF AND PUSH20 0xFFFFFFFFFFFFFFFFFFFFFFFFFFFFFFFFFFFFFFFF AND CALLER PUSH20 0xFFFFFFFFFFFFFFFFFFFFFFFFFFFFFFFFFFFFFFFF AND EQ PUSH2 0x115A JUMPI PUSH1 0x40 MLOAD PUSH32 0x8C379A000000000000000000000000000000000000000000000000000000000 DUP2 MSTORE PUSH1 0x4 ADD PUSH2 0x1151 SWAP1 PUSH2 0x3621 JUMP JUMPDEST PUSH1 0x40 MLOAD DUP1 SWAP2 SUB SWAP1 REVERT JUMPDEST PUSH1 0x7 PUSH0 SWAP1 SLOAD SWAP1 PUSH2 0x100 EXP SWAP1 DIV PUSH1 0xFF AND ISZERO PUSH2 0x11A9 JUMPI PUSH1 0x40 MLOAD PUSH32 0x8C379A000000000000000000000000000000000000000000000000000000000 DUP2 MSTORE PUSH1 0x4 ADD PUSH2 0x11A0 SWAP1 PUSH2 0x3689 JUMP JUMPDEST PUSH1 0x40 MLOAD DUP1 SWAP2 SUB SWAP1 REVERT JUMPDEST PUSH1 0x7 PUSH1 0x1 SWAP1 SLOAD SWAP1 PUSH2 0x100 EXP SWAP1 DIV PUSH1 0xFF AND DUP1 ISZERO PUSH2 0x1222 JUMPI POP DUP1 PUSH20 0xFFFFFFFFFFFFFFFFFFFFFFFFFFFFFFFFFFFFFFFF AND PUSH1 0xD PUSH0 PUSH1 0x6 SLOAD DUP2 MSTORE PUSH1 0x20 ADD SWAP1 DUP2 MSTORE PUSH1 0x20 ADD PUSH0 KECCAK256 PUSH0 SWAP1 SLOAD SWAP1 PUSH2 0x100 EXP SWAP1 DIV PUSH20 0xFFFFFFFFFFFFFFFFFFFFFFFFFFFFFFFFFFFFFFFF AND PUSH20 0xFFFFFFFFFFFFFFFFFFFFFFFFFFFFFFFFFFFFFFFF AND EQ JUMPDEST PUSH2 0x1261 JUMPI PUSH1 0x40 MLOAD PUSH32 0x8C379A000000000000000000000000000000000000000000000000000000000 DUP2 MSTORE PUSH1 0x4 ADD PUSH2 0x1258 SWAP1 PUSH2 0x3717 JUMP JUMPDEST PUSH1 0x40 MLOAD DUP1 SWAP2 SUB SWAP1 REVERT JUMPDEST PUSH1 0x5 SLOAD CALLVALUE LT ISZERO PUSH2 0x12A6 JUMPI PUSH1 0x40 MLOAD PUSH32 0x8C379A000000000000000000000000000000000000000000000000000000000 DUP2 MSTORE PUSH1 0x4 ADD PUSH2 0x129D SWAP1 PUSH2 0x377F JUMP JUMPDEST PUSH1 0x40 MLOAD DUP1 SWAP2 SUB SWAP1 REVERT JUMPDEST PUSH1 0x4 SLOAD PUSH1 0x6 SLOAD LT PUSH2 0x12EC JUMPI PUSH1 0x40 MLOAD PUSH32 0x8C379A000000000000000000000000000000000000000000000000000000000 DUP2 MSTORE PUSH1 0x4 ADD PUSH2 0x12E3 SWAP1 PUSH2 0x37E7 JUMP JUMPDEST PUSH1 0x40 MLOAD DUP1 SWAP2 SUB SWAP1 REVERT JUMPDEST PUSH1 0x5 PUSH1 0xF PUSH0 DUP4 PUSH20 0xFFFFFFFFFFFFFFFFFFFFFFFFFFFFFFFFFFFFFFFF AND PUSH20 0xFFFFFFFFFFFFFFFFFFFFFFFFFFFFFFFFFFFFFFFF AND DUP2 MSTORE PUSH1 0x20 ADD SWAP1 DUP2 MSTORE PUSH1 0x20 ADD PUSH0 KECCAK256 SLOAD LT PUSH2 0x136C JUMPI PUSH1 0x40 MLOAD PUSH32 0x8C379A000000000000000000000000000000000000000000000000000000000 DUP2 MSTORE PUSH1 0x4 ADD PUSH2 0x1363 SWAP1 PUSH2 0x384F JUMP JUMPDEST PUSH1 0x40 MLOAD DUP1 SWAP2 SUB SWAP1 REVERT JUMPDEST PUSH1 0x7 PUSH1 0x2 SWAP1 SLOAD SWAP1 PUSH2 0x100 EXP SWAP1 DIV PUSH20 0xFFFFFFFFFFFFFFFFFFFFFFFFFFFFFFFFFFFFFFFF AND PUSH20 0xFFFFFFFFFFFFFFFFFFFFFFFFFFFFFFFFFFFFFFFF AND PUSH4 0x2928CA58 DUP3 PUSH1 0x40 MLOAD DUP3 PUSH4 0xFFFFFFFF AND PUSH1 0xE0 SHL DUP2 MSTORE PUSH1 0x4 ADD PUSH2 0x13C7 SWAP2 SWAP1 PUSH2 0x2D72 JUMP JUMPDEST PUSH1 0x20 PUSH1 0x40 MLOAD DUP1 DUP4 SUB DUP2 PUSH0 DUP8 GAS CALL ISZERO DUP1 ISZERO PUSH2 0x13E3 JUMPI RETURNDATASIZE PUSH0 DUP1 RETURNDATACOPY RETURNDATASIZE PUSH0 REVERT JUMPDEST POP POP POP POP PUSH1 0x40 MLOAD RETURNDATASIZE PUSH1 0x1F NOT PUSH1 0x1F DUP3 ADD AND DUP3 ADD DUP1 PUSH1 0x40 MSTORE POP DUP2 ADD SWAP1 PUSH2 0x1407 SWAP2 SWAP1 PUSH2 0x3881 JUMP JUMPDEST POP PUSH1 0xF PUSH0 DUP3 PUSH20 0xFFFFFFFFFFFFFFFFFFFFFFFFFFFFFFFFFFFFFFFF AND PUSH20 0xFFFFFFFFFFFFFFFFFFFFFFFFFFFFFFFFFFFFFFFF AND DUP2 MSTORE PUSH1 0x20 ADD SWAP1 DUP2 MSTORE PUSH1 0x20 ADD PUSH0 KECCAK256 PUSH0 DUP2 SLOAD DUP1 SWAP3 SWAP2 SWAP1 PUSH2 0x1455 SWAP1 PUSH2 0x38D9 JUMP JUMPDEST SWAP2 SWAP1 POP SSTORE POP PUSH0 TIMESTAMP PREVRANDAO PUSH1 0x1 NUMBER PUSH2 0x146A SWAP2 SWAP1 PUSH2 0x3920 JUMP JUMPDEST BLOCKHASH DUP5 PUSH1 0x40 MLOAD PUSH1 0x20 ADD PUSH2 0x147F SWAP5 SWAP4 SWAP3 SWAP2 SWAP1 PUSH2 0x39B8 JUMP JUMPDEST PUSH1 0x40 MLOAD PUSH1 0x20 DUP2 DUP4 SUB SUB DUP2 MSTORE SWAP1 PUSH1 0x40 MSTORE DUP1 MLOAD SWAP1 PUSH1 0x20 ADD KECCAK256 SWAP1 POP DUP1 PUSH1 0xC PUSH0 PUSH1 0x6 SLOAD DUP2 MSTORE PUSH1 0x20 ADD SWAP1 DUP2 MSTORE PUSH1 0x20 ADD PUSH0 KECCAK256 DUP2 SWAP1 SSTORE POP PUSH0 PUSH2 0x14B9 DUP3 PUSH2 0xA4F JUMP JUMPDEST SWAP1 POP PUSH1 0x65 PUSH1 0x10 DUP1 SLOAD SWAP1 POP PUSH2 0x14CD SWAP2 SWAP1 PUSH2 0x3A05 JUMP JUMPDEST DUP2 PUSH0 PUSH1 0xA DUP2 LT PUSH2 0x14E0 JUMPI PUSH2 0x14DF PUSH2 0x2EB9 JUMP JUMPDEST JUMPDEST PUSH1 0x20 MUL ADD MLOAD PUSH2 0x14EF SWAP2 SWAP1 PUSH2 0x3A35 JUMP JUMPDEST PUSH1 0xB PUSH0 PUSH1 0x6 SLOAD DUP2 MSTORE PUSH1 0x20 ADD SWAP1 DUP2 MSTORE PUSH1 0x20 ADD PUSH0 KECCAK256 DUP2 SWAP1 SSTORE POP PUSH1 0x11 PUSH1 0x65 PUSH1 0x11 DUP1 SLOAD SWAP1 POP PUSH2 0x151A SWAP2 SWAP1 PUSH2 0x3A05 JUMP JUMPDEST DUP3 PUSH0 PUSH1 0xA DUP2 LT PUSH2 0x152D JUMPI PUSH2 0x152C PUSH2 0x2EB9 JUMP JUMPDEST JUMPDEST PUSH1 0x20 MUL ADD MLOAD PUSH2 0x153C SWAP2 SWAP1 PUSH2 0x3A35 JUMP JUMPDEST DUP2 SLOAD DUP2 LT PUSH2 0x154D JUMPI PUSH2 0x154C PUSH2 0x2EB9 JUMP JUMPDEST JUMPDEST SWAP1 PUSH0 MSTORE PUSH1 0x20 PUSH0 KECCAK256 ADD PUSH1 0xA PUSH0 PUSH1 0x6 SLOAD DUP2 MSTORE PUSH1 0x20 ADD SWAP1 DUP2 MSTORE PUSH1 0x20 ADD PUSH0 KECCAK256 SWAP1 DUP2 PUSH2 0x1574 SWAP2 SWAP1 PUSH2 0x3C28 JUMP JUMPDEST POP PUSH1 0x6 PUSH0 DUP2 SLOAD DUP1 SWAP3 SWAP2 SWAP1 PUSH2 0x1587 SWAP1 PUSH2 0x38D9 JUMP JUMPDEST SWAP2 SWAP1 POP SSTORE POP POP POP POP JUMP JUMPDEST PUSH2 0x1599 PUSH2 0x1FB2 JUMP JUMPDEST PUSH2 0x15AD DUP2 PUSH1 0x1 PUSH2 0x1F85 SWAP1 SWAP2 SWAP1 PUSH4 0xFFFFFFFF AND JUMP JUMPDEST PUSH2 0x1621 JUMPI CALLER PUSH20 0xFFFFFFFFFFFFFFFFFFFFFFFFFFFFFFFFFFFFFFFF AND DUP2 PUSH20 0xFFFFFFFFFFFFFFFFFFFFFFFFFFFFFFFFFFFFFFFF AND PUSH32 0x7E1A1A08D52E4BA0E21554733D66165FD5151F99460116223D9E3A608EEC5CB1 PUSH1 0x40 MLOAD PUSH1 0x40 MLOAD DUP1 SWAP2 SUB SWAP1 LOG3 PUSH2 0x161F DUP2 PUSH1 0x1 PUSH2 0x21EF SWAP1 SWAP2 SWAP1 PUSH4 0xFFFFFFFF AND JUMP JUMPDEST POP JUMPDEST POP JUMP JUMPDEST PUSH2 0x162C PUSH2 0x1FB2 JUMP JUMPDEST PUSH2 0x1635 PUSH0 PUSH2 0x221C JUMP JUMPDEST JUMP JUMPDEST PUSH1 0x8 PUSH0 SWAP1 SLOAD SWAP1 PUSH2 0x100 EXP SWAP1 DIV PUSH20 0xFFFFFFFFFFFFFFFFFFFFFFFFFFFFFFFFFFFFFFFF AND PUSH20 0xFFFFFFFFFFFFFFFFFFFFFFFFFFFFFFFFFFFFFFFF AND CALLER PUSH20 0xFFFFFFFFFFFFFFFFFFFFFFFFFFFFFFFFFFFFFFFF AND EQ PUSH2 0x16C6 JUMPI PUSH1 0x40 MLOAD PUSH32 0x8C379A000000000000000000000000000000000000000000000000000000000 DUP2 MSTORE PUSH1 0x4 ADD PUSH2 0x16BD SWAP1 PUSH2 0x3621 JUMP JUMPDEST PUSH1 0x40 MLOAD DUP1 SWAP2 SUB SWAP1 REVERT JUMPDEST CALLER PUSH20 0xFFFFFFFFFFFFFFFFFFFFFFFFFFFFFFFFFFFFFFFF AND PUSH2 0x8FC SELFBALANCE SWAP1 DUP2 ISZERO MUL SWAP1 PUSH1 0x40 MLOAD PUSH0 PUSH1 0x40 MLOAD DUP1 DUP4 SUB DUP2 DUP6 DUP9 DUP9 CALL SWAP4 POP POP POP POP PUSH2 0x1702 JUMPI PUSH0 DUP1 REVERT JUMPDEST JUMP JUMPDEST PUSH0 DUP1 PUSH0 SWAP1 SLOAD SWAP1 PUSH2 0x100 EXP SWAP1 DIV PUSH20 0xFFFFFFFFFFFFFFFFFFFFFFFFFFFFFFFFFFFFFFFF AND SWAP1 POP SWAP1 JUMP JUMPDEST PUSH1 0x8 PUSH0 SWAP1 SLOAD SWAP1 PUSH2 0x100 EXP SWAP1 DIV PUSH20 0xFFFFFFFFFFFFFFFFFFFFFFFFFFFFFFFFFFFFFFFF AND PUSH20 0xFFFFFFFFFFFFFFFFFFFFFFFFFFFFFFFFFFFFFFFF AND CALLER PUSH20 0xFFFFFFFFFFFFFFFFFFFFFFFFFFFFFFFFFFFFFFFF AND EQ PUSH2 0x17BA JUMPI PUSH1 0x40 MLOAD PUSH32 0x8C379A000000000000000000000000000000000000000000000000000000000 DUP2 MSTORE PUSH1 0x4 ADD PUSH2 0x17B1 SWAP1 PUSH2 0x3621 JUMP JUMPDEST PUSH1 0x40 MLOAD DUP1 SWAP2 SUB SWAP1 REVERT JUMPDEST DUP1 PUSH1 0x13 SWAP1 DUP2 PUSH2 0x17C9 SWAP2 SWAP1 PUSH2 0x3D0D JUMP JUMPDEST POP POP JUMP JUMPDEST PUSH1 0x8 PUSH0 SWAP1 SLOAD SWAP1 PUSH2 0x100 EXP SWAP1 DIV PUSH20 0xFFFFFFFFFFFFFFFFFFFFFFFFFFFFFFFFFFFFFFFF AND PUSH20 0xFFFFFFFFFFFFFFFFFFFFFFFFFFFFFFFFFFFFFFFF AND CALLER PUSH20 0xFFFFFFFFFFFFFFFFFFFFFFFFFFFFFFFFFFFFFFFF AND EQ PUSH2 0x185C JUMPI PUSH1 0x40 MLOAD PUSH32 0x8C379A000000000000000000000000000000000000000000000000000000000 DUP2 MSTORE PUSH1 0x4 ADD PUSH2 0x1853 SWAP1 PUSH2 0x3621 JUMP JUMPDEST PUSH1 0x40 MLOAD DUP1 SWAP2 SUB SWAP1 REVERT JUMPDEST DUP1 PUSH1 0x5 DUP2 SWAP1 SSTORE POP POP JUMP JUMPDEST PUSH1 0x7 PUSH1 0x1 SWAP1 SLOAD SWAP1 PUSH2 0x100 EXP SWAP1 DIV PUSH1 0xFF AND DUP2 JUMP JUMPDEST PUSH1 0xE PUSH1 0x20 MSTORE DUP1 PUSH0 MSTORE PUSH1 0x40 PUSH0 KECCAK256 PUSH0 SWAP2 POP SWAP1 POP SLOAD DUP2 JUMP JUMPDEST PUSH1 0x8 PUSH0 SWAP1 SLOAD SWAP1 PUSH2 0x100 EXP SWAP1 DIV PUSH20 0xFFFFFFFFFFFFFFFFFFFFFFFFFFFFFFFFFFFFFFFF AND DUP2 JUMP JUMPDEST PUSH1 0x7 PUSH1 0x2 SWAP1 SLOAD SWAP1 PUSH2 0x100 EXP SWAP1 DIV PUSH20 0xFFFFFFFFFFFFFFFFFFFFFFFFFFFFFFFFFFFFFFFF AND DUP2 JUMP JUMPDEST PUSH1 0x8 PUSH0 SWAP1 SLOAD SWAP1 PUSH2 0x100 EXP SWAP1 DIV PUSH20 0xFFFFFFFFFFFFFFFFFFFFFFFFFFFFFFFFFFFFFFFF AND PUSH20 0xFFFFFFFFFFFFFFFFFFFFFFFFFFFFFFFFFFFFFFFF AND CALLER PUSH20 0xFFFFFFFFFFFFFFFFFFFFFFFFFFFFFFFFFFFFFFFF AND EQ PUSH2 0x1968 JUMPI PUSH1 0x40 MLOAD PUSH32 0x8C379A000000000000000000000000000000000000000000000000000000000 DUP2 MSTORE PUSH1 0x4 ADD PUSH2 0x195F SWAP1 PUSH2 0x3621 JUMP JUMPDEST PUSH1 0x40 MLOAD DUP1 SWAP2 SUB SWAP1 REVERT JUMPDEST DUP1 PUSH1 0x7 PUSH0 PUSH2 0x100 EXP DUP2 SLOAD DUP2 PUSH1 0xFF MUL NOT AND SWAP1 DUP4 ISZERO ISZERO MUL OR SWAP1 SSTORE POP POP JUMP JUMPDEST PUSH1 0x60 PUSH2 0x198F DUP3 PUSH2 0x2090 JUMP JUMPDEST PUSH1 0x40 MLOAD PUSH1 0x20 ADD PUSH2 0x199F SWAP2 SWAP1 PUSH2 0x3E26 JUMP JUMPDEST PUSH1 0x40 MLOAD PUSH1 0x20 DUP2 DUP4 SUB SUB DUP2 MSTORE SWAP1 PUSH1 0x40 MSTORE SWAP1 POP SWAP2 SWAP1 POP JUMP JUMPDEST PUSH1 0x60 PUSH0 PUSH1 0x1 PUSH1 0x9 SLOAD PUSH2 0x19C7 SWAP2 SWAP1 PUSH2 0x3E47 JUMP JUMPDEST PUSH8 0xFFFFFFFFFFFFFFFF DUP2 GT ISZERO PUSH2 0x19E0 JUMPI PUSH2 0x19DF PUSH2 0x2ACF JUMP JUMPDEST JUMPDEST PUSH1 0x40 MLOAD SWAP1 DUP1 DUP3 MSTORE DUP1 PUSH1 0x20 MUL PUSH1 0x20 ADD DUP3 ADD PUSH1 0x40 MSTORE DUP1 ISZERO PUSH2 0x1A0E JUMPI DUP2 PUSH1 0x20 ADD PUSH1 0x20 DUP3 MUL DUP1 CALLDATASIZE DUP4 CALLDATACOPY DUP1 DUP3 ADD SWAP2 POP POP SWAP1 POP JUMPDEST POP SWAP1 POP PUSH0 JUMPDEST PUSH1 0x9 SLOAD DUP2 GT PUSH2 0x1AAD JUMPI PUSH1 0xD PUSH0 DUP3 DUP2 MSTORE PUSH1 0x20 ADD SWAP1 DUP2 MSTORE PUSH1 0x20 ADD PUSH0 KECCAK256 PUSH0 SWAP1 SLOAD SWAP1 PUSH2 0x100 EXP SWAP1 DIV PUSH20 0xFFFFFFFFFFFFFFFFFFFFFFFFFFFFFFFFFFFFFFFF AND DUP3 DUP3 DUP2 MLOAD DUP2 LT PUSH2 0x1A60 JUMPI PUSH2 0x1A5F PUSH2 0x2EB9 JUMP JUMPDEST JUMPDEST PUSH1 0x20 MUL PUSH1 0x20 ADD ADD SWAP1 PUSH20 0xFFFFFFFFFFFFFFFFFFFFFFFFFFFFFFFFFFFFFFFF AND SWAP1 DUP2 PUSH20 0xFFFFFFFFFFFFFFFFFFFFFFFFFFFFFFFFFFFFFFFF AND DUP2 MSTORE POP POP DUP1 DUP1 PUSH2 0x1AA5 SWAP1 PUSH2 0x38D9 JUMP JUMPDEST SWAP2 POP POP PUSH2 0x1A13 JUMP JUMPDEST POP DUP1 SWAP2 POP POP SWAP1 JUMP JUMPDEST PUSH1 0x12 DUP2 DUP2 SLOAD DUP2 LT PUSH2 0x1AC4 JUMPI PUSH0 DUP1 REVERT JUMPDEST SWAP1 PUSH0 MSTORE PUSH1 0x20 PUSH0 KECCAK256 ADD PUSH0 SWAP2 POP SWAP1 POP DUP1 SLOAD PUSH2 0x1ADC SWAP1 PUSH2 0x2E89 JUMP JUMPDEST DUP1 PUSH1 0x1F ADD PUSH1 0x20 DUP1 SWAP2 DIV MUL PUSH1 0x20 ADD PUSH1 0x40 MLOAD SWAP1 DUP2 ADD PUSH1 0x40 MSTORE DUP1 SWAP3 SWAP2 SWAP1 DUP2 DUP2 MSTORE PUSH1 0x20 ADD DUP3 DUP1 SLOAD PUSH2 0x1B08 SWAP1 PUSH2 0x2E89 JUMP JUMPDEST DUP1 ISZERO PUSH2 0x1B53 JUMPI DUP1 PUSH1 0x1F LT PUSH2 0x1B2A JUMPI PUSH2 0x100 DUP1 DUP4 SLOAD DIV MUL DUP4 MSTORE SWAP2 PUSH1 0x20 ADD SWAP2 PUSH2 0x1B53 JUMP JUMPDEST DUP3 ADD SWAP2 SWAP1 PUSH0 MSTORE PUSH1 0x20 PUSH0 KECCAK256 SWAP1 JUMPDEST DUP2 SLOAD DUP2 MSTORE SWAP1 PUSH1 0x1 ADD SWAP1 PUSH1 0x20 ADD DUP1 DUP4 GT PUSH2 0x1B36 JUMPI DUP3 SWAP1 SUB PUSH1 0x1F AND DUP3 ADD SWAP2 JUMPDEST POP POP POP POP POP DUP2 JUMP JUMPDEST PUSH0 PUSH1 0x4 SLOAD SWAP1 POP SWAP1 JUMP JUMPDEST PUSH1 0x8 PUSH0 SWAP1 SLOAD SWAP1 PUSH2 0x100 EXP SWAP1 DIV PUSH20 0xFFFFFFFFFFFFFFFFFFFFFFFFFFFFFFFFFFFFFFFF AND PUSH20 0xFFFFFFFFFFFFFFFFFFFFFFFFFFFFFFFFFFFFFFFF AND CALLER PUSH20 0xFFFFFFFFFFFFFFFFFFFFFFFFFFFFFFFFFFFFFFFF AND EQ PUSH2 0x1BF3 JUMPI PUSH1 0x40 MLOAD PUSH32 0x8C379A000000000000000000000000000000000000000000000000000000000 DUP2 MSTORE PUSH1 0x4 ADD PUSH2 0x1BEA SWAP1 PUSH2 0x3621 JUMP JUMPDEST PUSH1 0x40 MLOAD DUP1 SWAP2 SUB SWAP1 REVERT JUMPDEST DUP1 PUSH1 0xD PUSH0 DUP5 DUP2 MSTORE PUSH1 0x20 ADD SWAP1 DUP2 MSTORE PUSH1 0x20 ADD PUSH0 KECCAK256 PUSH0 PUSH2 0x100 EXP DUP2 SLOAD DUP2 PUSH20 0xFFFFFFFFFFFFFFFFFFFFFFFFFFFFFFFFFFFFFFFF MUL NOT AND SWAP1 DUP4 PUSH20 0xFFFFFFFFFFFFFFFFFFFFFFFFFFFFFFFFFFFFFFFF AND MUL OR SWAP1 SSTORE POP PUSH1 0x9 SLOAD DUP3 GT ISZERO PUSH2 0x1C54 JUMPI DUP2 PUSH1 0x9 DUP2 SWAP1 SSTORE POP JUMPDEST POP POP JUMP JUMPDEST PUSH1 0x7 PUSH0 SWAP1 SLOAD SWAP1 PUSH2 0x100 EXP SWAP1 DIV PUSH1 0xFF AND DUP2 JUMP JUMPDEST PUSH1 0x10 DUP2 DUP2 SLOAD DUP2 LT PUSH2 0x1C79 JUMPI PUSH0 DUP1 REVERT JUMPDEST SWAP1 PUSH0 MSTORE PUSH1 0x20 PUSH0 KECCAK256 ADD PUSH0 SWAP2 POP SWAP1 POP DUP1 SLOAD PUSH2 0x1C91 SWAP1 PUSH2 0x2E89 JUMP JUMPDEST DUP1 PUSH1 0x1F ADD PUSH1 0x20 DUP1 SWAP2 DIV MUL PUSH1 0x20 ADD PUSH1 0x40 MLOAD SWAP1 DUP2 ADD PUSH1 0x40 MSTORE DUP1 SWAP3 SWAP2 SWAP1 DUP2 DUP2 MSTORE PUSH1 0x20 ADD DUP3 DUP1 SLOAD PUSH2 0x1CBD SWAP1 PUSH2 0x2E89 JUMP JUMPDEST DUP1 ISZERO PUSH2 0x1D08 JUMPI DUP1 PUSH1 0x1F LT PUSH2 0x1CDF JUMPI PUSH2 0x100 DUP1 DUP4 SLOAD DIV MUL DUP4 MSTORE SWAP2 PUSH1 0x20 ADD SWAP2 PUSH2 0x1D08 JUMP JUMPDEST DUP3 ADD SWAP2 SWAP1 PUSH0 MSTORE PUSH1 0x20 PUSH0 KECCAK256 SWAP1 JUMPDEST DUP2 SLOAD DUP2 MSTORE SWAP1 PUSH1 0x1 ADD SWAP1 PUSH1 0x20 ADD DUP1 DUP4 GT PUSH2 0x1CEB JUMPI DUP3 SWAP1 SUB PUSH1 0x1F AND DUP3 ADD SWAP2 JUMPDEST POP POP POP POP POP DUP2 JUMP JUMPDEST PUSH1 0x60 PUSH2 0x1D1B DUP3 PUSH2 0xCD1 JUMP JUMPDEST SWAP1 POP SWAP3 SWAP2 POP POP JUMP JUMPDEST PUSH2 0x1D2B PUSH2 0x1FB2 JUMP JUMPDEST PUSH0 PUSH20 0xFFFFFFFFFFFFFFFFFFFFFFFFFFFFFFFFFFFFFFFF AND DUP2 PUSH20 0xFFFFFFFFFFFFFFFFFFFFFFFFFFFFFFFFFFFFFFFF AND SUB PUSH2 0x1D9B JUMPI PUSH0 PUSH1 0x40 MLOAD PUSH32 0x1E4FBDF700000000000000000000000000000000000000000000000000000000 DUP2 MSTORE PUSH1 0x4 ADD PUSH2 0x1D92 SWAP2 SWAP1 PUSH2 0x2D72 JUMP JUMPDEST PUSH1 0x40 MLOAD DUP1 SWAP2 SUB SWAP1 REVERT JUMPDEST PUSH2 0x1DA4 DUP2 PUSH2 0x221C JUMP JUMPDEST POP JUMP JUMPDEST PUSH1 0x60 PUSH0 DUP3 SUB PUSH2 0x1DED JUMPI PUSH1 0x40 MLOAD DUP1 PUSH1 0x40 ADD PUSH1 0x40 MSTORE DUP1 PUSH1 0x1 DUP2 MSTORE PUSH1 0x20 ADD PUSH32 0x3000000000000000000000000000000000000000000000000000000000000000 DUP2 MSTORE POP SWAP1 POP PUSH2 0x1F20 JUMP JUMPDEST PUSH0 DUP3 SWAP1 POP PUSH0 JUMPDEST PUSH0 DUP3 EQ PUSH2 0x1E1C JUMPI DUP1 DUP1 PUSH2 0x1E05 SWAP1 PUSH2 0x38D9 JUMP JUMPDEST SWAP2 POP POP PUSH1 0xA DUP3 PUSH2 0x1E15 SWAP2 SWAP1 PUSH2 0x3A05 JUMP JUMPDEST SWAP2 POP PUSH2 0x1DF3 JUMP JUMPDEST PUSH0 DUP2 PUSH8 0xFFFFFFFFFFFFFFFF DUP2 GT ISZERO PUSH2 0x1E37 JUMPI PUSH2 0x1E36 PUSH2 0x2ACF JUMP JUMPDEST JUMPDEST PUSH1 0x40 MLOAD SWAP1 DUP1 DUP3 MSTORE DUP1 PUSH1 0x1F ADD PUSH1 0x1F NOT AND PUSH1 0x20 ADD DUP3 ADD PUSH1 0x40 MSTORE DUP1 ISZERO PUSH2 0x1E69 JUMPI DUP2 PUSH1 0x20 ADD PUSH1 0x1 DUP3 MUL DUP1 CALLDATASIZE DUP4 CALLDATACOPY DUP1 DUP3 ADD SWAP2 POP POP SWAP1 POP JUMPDEST POP SWAP1 POP PUSH0 DUP3 SWAP1 POP JUMPDEST PUSH0 DUP7 EQ PUSH2 0x1F18 JUMPI PUSH1 0x1 DUP2 PUSH2 0x1E85 SWAP2 SWAP1 PUSH2 0x3920 JUMP JUMPDEST SWAP1 POP PUSH0 PUSH1 0xA DUP1 DUP9 PUSH2 0x1E96 SWAP2 SWAP1 PUSH2 0x3A05 JUMP JUMPDEST PUSH2 0x1EA0 SWAP2 SWAP1 PUSH2 0x3A35 JUMP JUMPDEST DUP8 PUSH2 0x1EAB SWAP2 SWAP1 PUSH2 0x3920 JUMP JUMPDEST PUSH1 0x30 PUSH2 0x1EB7 SWAP2 SWAP1 PUSH2 0x3E86 JUMP JUMPDEST SWAP1 POP PUSH0 DUP2 PUSH1 0xF8 SHL SWAP1 POP DUP1 DUP5 DUP5 DUP2 MLOAD DUP2 LT PUSH2 0x1ED4 JUMPI PUSH2 0x1ED3 PUSH2 0x2EB9 JUMP JUMPDEST JUMPDEST PUSH1 0x20 ADD ADD SWAP1 PUSH31 0xFFFFFFFFFFFFFFFFFFFFFFFFFFFFFFFFFFFFFFFFFFFFFFFFFFFFFFFFFFFFFF NOT AND SWAP1 DUP2 PUSH0 BYTE SWAP1 MSTORE8 POP PUSH1 0xA DUP9 PUSH2 0x1F0F SWAP2 SWAP1 PUSH2 0x3A05 JUMP JUMPDEST SWAP8 POP POP POP PUSH2 0x1E71 JUMP JUMPDEST DUP2 SWAP5 POP POP POP POP POP JUMPDEST SWAP2 SWAP1 POP JUMP JUMPDEST PUSH0 PUSH4 0x7005CAAD PUSH1 0xE0 SHL PUSH28 0xFFFFFFFFFFFFFFFFFFFFFFFFFFFFFFFFFFFFFFFFFFFFFFFFFFFFFFFF NOT AND DUP3 PUSH28 0xFFFFFFFFFFFFFFFFFFFFFFFFFFFFFFFFFFFFFFFFFFFFFFFFFFFFFFFF NOT AND EQ DUP1 PUSH2 0x1F7E JUMPI POP PUSH2 0x1F7D DUP3 PUSH2 0x22DD JUMP JUMPDEST JUMPDEST SWAP1 POP SWAP2 SWAP1 POP JUMP JUMPDEST PUSH0 PUSH2 0x1FAA DUP4 PUSH0 ADD DUP4 PUSH20 0xFFFFFFFFFFFFFFFFFFFFFFFFFFFFFFFFFFFFFFFF AND PUSH0 SHL PUSH2 0x2356 JUMP JUMPDEST SWAP1 POP SWAP3 SWAP2 POP POP JUMP JUMPDEST PUSH2 0x1FBA PUSH2 0x2376 JUMP JUMPDEST PUSH20 0xFFFFFFFFFFFFFFFFFFFFFFFFFFFFFFFFFFFFFFFF AND PUSH2 0x1FD8 PUSH2 0x1704 JUMP JUMPDEST PUSH20 0xFFFFFFFFFFFFFFFFFFFFFFFFFFFFFFFFFFFFFFFF AND EQ PUSH2 0x2037 JUMPI PUSH2 0x1FFB PUSH2 0x2376 JUMP JUMPDEST PUSH1 0x40 MLOAD PUSH32 0x118CDAA700000000000000000000000000000000000000000000000000000000 DUP2 MSTORE PUSH1 0x4 ADD PUSH2 0x202E SWAP2 SWAP1 PUSH2 0x2D72 JUMP JUMPDEST PUSH1 0x40 MLOAD DUP1 SWAP2 SUB SWAP1 REVERT JUMPDEST JUMP JUMPDEST PUSH0 PUSH2 0x205E DUP4 PUSH0 ADD DUP4 PUSH20 0xFFFFFFFFFFFFFFFFFFFFFFFFFFFFFFFFFFFFFFFF AND PUSH0 SHL PUSH2 0x237D JUMP JUMPDEST SWAP1 POP SWAP3 SWAP2 POP POP JUMP JUMPDEST PUSH0 PUSH2 0x2072 DUP3 PUSH0 ADD PUSH2 0x2479 JUMP JUMPDEST SWAP1 POP SWAP2 SWAP1 POP JUMP JUMPDEST PUSH0 PUSH2 0x2086 DUP4 PUSH0 ADD DUP4 PUSH2 0x2488 JUMP JUMPDEST PUSH0 SHR SWAP1 POP SWAP3 SWAP2 POP POP JUMP JUMPDEST PUSH1 0x60 PUSH0 DUP3 MLOAD SUB PUSH2 0x20B0 JUMPI PUSH1 0x40 MLOAD DUP1 PUSH1 0x20 ADD PUSH1 0x40 MSTORE DUP1 PUSH0 DUP2 MSTORE POP SWAP1 POP PUSH2 0x21EA JUMP JUMPDEST PUSH0 PUSH1 0x40 MLOAD DUP1 PUSH1 0x60 ADD PUSH1 0x40 MSTORE DUP1 PUSH1 0x40 DUP2 MSTORE PUSH1 0x20 ADD PUSH2 0x3EE8 PUSH1 0x40 SWAP2 CODECOPY SWAP1 POP PUSH0 PUSH1 0x3 PUSH1 0x2 DUP6 MLOAD PUSH2 0x20DD SWAP2 SWAP1 PUSH2 0x3E47 JUMP JUMPDEST PUSH2 0x20E7 SWAP2 SWAP1 PUSH2 0x3A05 JUMP JUMPDEST PUSH1 0x4 PUSH2 0x20F3 SWAP2 SWAP1 PUSH2 0x3A35 JUMP JUMPDEST PUSH8 0xFFFFFFFFFFFFFFFF DUP2 GT ISZERO PUSH2 0x210C JUMPI PUSH2 0x210B PUSH2 0x2ACF JUMP JUMPDEST JUMPDEST PUSH1 0x40 MLOAD SWAP1 DUP1 DUP3 MSTORE DUP1 PUSH1 0x1F ADD PUSH1 0x1F NOT AND PUSH1 0x20 ADD DUP3 ADD PUSH1 0x40 MSTORE DUP1 ISZERO PUSH2 0x213E JUMPI DUP2 PUSH1 0x20 ADD PUSH1 0x1 DUP3 MUL DUP1 CALLDATASIZE DUP4 CALLDATACOPY DUP1 DUP3 ADD SWAP2 POP POP SWAP1 POP JUMPDEST POP SWAP1 POP PUSH1 0x1 DUP3 ADD PUSH1 0x20 DUP3 ADD DUP6 DUP7 MLOAD DUP8 ADD JUMPDEST DUP1 DUP3 LT ISZERO PUSH2 0x21AA JUMPI PUSH1 0x3 DUP3 ADD SWAP2 POP DUP2 MLOAD PUSH1 0x3F DUP2 PUSH1 0x12 SHR AND DUP6 ADD MLOAD DUP5 MSTORE8 PUSH1 0x1 DUP5 ADD SWAP4 POP PUSH1 0x3F DUP2 PUSH1 0xC SHR AND DUP6 ADD MLOAD DUP5 MSTORE8 PUSH1 0x1 DUP5 ADD SWAP4 POP PUSH1 0x3F DUP2 PUSH1 0x6 SHR AND DUP6 ADD MLOAD DUP5 MSTORE8 PUSH1 0x1 DUP5 ADD SWAP4 POP PUSH1 0x3F DUP2 AND DUP6 ADD MLOAD DUP5 MSTORE8 PUSH1 0x1 DUP5 ADD SWAP4 POP POP PUSH2 0x214F JUMP JUMPDEST POP POP PUSH1 0x3 DUP7 MLOAD MOD PUSH1 0x1 DUP2 EQ PUSH2 0x21C6 JUMPI PUSH1 0x2 DUP2 EQ PUSH2 0x21D9 JUMPI PUSH2 0x21E1 JUMP JUMPDEST PUSH1 0x3D PUSH1 0x1 DUP4 SUB MSTORE8 PUSH1 0x3D PUSH1 0x2 DUP4 SUB MSTORE8 PUSH2 0x21E1 JUMP JUMPDEST PUSH1 0x3D PUSH1 0x1 DUP4 SUB MSTORE8 JUMPDEST POP POP POP DUP1 SWAP3 POP POP POP JUMPDEST SWAP2 SWAP1 POP JUMP JUMPDEST PUSH0 PUSH2 0x2214 DUP4 PUSH0 ADD DUP4 PUSH20 0xFFFFFFFFFFFFFFFFFFFFFFFFFFFFFFFFFFFFFFFF AND PUSH0 SHL PUSH2 0x24AF JUMP JUMPDEST SWAP1 POP SWAP3 SWAP2 POP POP JUMP JUMPDEST PUSH0 DUP1 PUSH0 SWAP1 SLOAD SWAP1 PUSH2 0x100 EXP SWAP1 DIV PUSH20 0xFFFFFFFFFFFFFFFFFFFFFFFFFFFFFFFFFFFFFFFF AND SWAP1 POP DUP2 PUSH0 DUP1 PUSH2 0x100 EXP DUP2 SLOAD DUP2 PUSH20 0xFFFFFFFFFFFFFFFFFFFFFFFFFFFFFFFFFFFFFFFF MUL NOT AND SWAP1 DUP4 PUSH20 0xFFFFFFFFFFFFFFFFFFFFFFFFFFFFFFFFFFFFFFFF AND MUL OR SWAP1 SSTORE POP DUP2 PUSH20 0xFFFFFFFFFFFFFFFFFFFFFFFFFFFFFFFFFFFFFFFF AND DUP2 PUSH20 0xFFFFFFFFFFFFFFFFFFFFFFFFFFFFFFFFFFFFFFFF AND PUSH32 0x8BE0079C531659141344CD1FD0A4F28419497F9722A3DAAFE3B4186F6B6457E0 PUSH1 0x40 MLOAD PUSH1 0x40 MLOAD DUP1 SWAP2 SUB SWAP1 LOG3 POP POP JUMP JUMPDEST PUSH0 PUSH32 0x553E757E00000000000000000000000000000000000000000000000000000000 PUSH28 0xFFFFFFFFFFFFFFFFFFFFFFFFFFFFFFFFFFFFFFFFFFFFFFFFFFFFFFFF NOT AND DUP3 PUSH28 0xFFFFFFFFFFFFFFFFFFFFFFFFFFFFFFFFFFFFFFFFFFFFFFFFFFFFFFFF NOT AND EQ DUP1 PUSH2 0x234F JUMPI POP PUSH2 0x234E DUP3 PUSH2 0x2516 JUMP JUMPDEST JUMPDEST SWAP1 POP SWAP2 SWAP1 POP JUMP JUMPDEST PUSH0 DUP1 DUP4 PUSH1 0x1 ADD PUSH0 DUP5 DUP2 MSTORE PUSH1 0x20 ADD SWAP1 DUP2 MSTORE PUSH1 0x20 ADD PUSH0 KECCAK256 SLOAD EQ ISZERO SWAP1 POP SWAP3 SWAP2 POP POP JUMP JUMPDEST PUSH0 CALLER SWAP1 POP SWAP1 JUMP JUMPDEST PUSH0 DUP1 DUP4 PUSH1 0x1 ADD PUSH0 DUP5 DUP2 MSTORE PUSH1 0x20 ADD SWAP1 DUP2 MSTORE PUSH1 0x20 ADD PUSH0 KECCAK256 SLOAD SWAP1 POP PUSH0 DUP2 EQ PUSH2 0x246E JUMPI PUSH0 PUSH1 0x1 DUP3 PUSH2 0x23AA SWAP2 SWAP1 PUSH2 0x3920 JUMP JUMPDEST SWAP1 POP PUSH0 PUSH1 0x1 DUP7 PUSH0 ADD DUP1 SLOAD SWAP1 POP PUSH2 0x23C0 SWAP2 SWAP1 PUSH2 0x3920 JUMP JUMPDEST SWAP1 POP DUP1 DUP3 EQ PUSH2 0x2426 JUMPI PUSH0 DUP7 PUSH0 ADD DUP3 DUP2 SLOAD DUP2 LT PUSH2 0x23DF JUMPI PUSH2 0x23DE PUSH2 0x2EB9 JUMP JUMPDEST JUMPDEST SWAP1 PUSH0 MSTORE PUSH1 0x20 PUSH0 KECCAK256 ADD SLOAD SWAP1 POP DUP1 DUP8 PUSH0 ADD DUP5 DUP2 SLOAD DUP2 LT PUSH2 0x2400 JUMPI PUSH2 0x23FF PUSH2 0x2EB9 JUMP JUMPDEST JUMPDEST SWAP1 PUSH0 MSTORE PUSH1 0x20 PUSH0 KECCAK256 ADD DUP2 SWAP1 SSTORE POP DUP4 DUP8 PUSH1 0x1 ADD PUSH0 DUP4 DUP2 MSTORE PUSH1 0x20 ADD SWAP1 DUP2 MSTORE PUSH1 0x20 ADD PUSH0 KECCAK256 DUP2 SWAP1 SSTORE POP POP JUMPDEST DUP6 PUSH0 ADD DUP1 SLOAD DUP1 PUSH2 0x2439 JUMPI PUSH2 0x2438 PUSH2 0x3EBA JUMP JUMPDEST JUMPDEST PUSH1 0x1 SWAP1 SUB DUP2 DUP2 SWAP1 PUSH0 MSTORE PUSH1 0x20 PUSH0 KECCAK256 ADD PUSH0 SWAP1 SSTORE SWAP1 SSTORE DUP6 PUSH1 0x1 ADD PUSH0 DUP7 DUP2 MSTORE PUSH1 0x20 ADD SWAP1 DUP2 MSTORE PUSH1 0x20 ADD PUSH0 KECCAK256 PUSH0 SWAP1 SSTORE PUSH1 0x1 SWAP4 POP POP POP POP PUSH2 0x2473 JUMP JUMPDEST PUSH0 SWAP2 POP POP JUMPDEST SWAP3 SWAP2 POP POP JUMP JUMPDEST PUSH0 DUP2 PUSH0 ADD DUP1 SLOAD SWAP1 POP SWAP1 POP SWAP2 SWAP1 POP JUMP JUMPDEST PUSH0 DUP3 PUSH0 ADD DUP3 DUP2 SLOAD DUP2 LT PUSH2 0x249E JUMPI PUSH2 0x249D PUSH2 0x2EB9 JUMP JUMPDEST JUMPDEST SWAP1 PUSH0 MSTORE PUSH1 0x20 PUSH0 KECCAK256 ADD SLOAD SWAP1 POP SWAP3 SWAP2 POP POP JUMP JUMPDEST PUSH0 PUSH2 0x24BA DUP4 DUP4 PUSH2 0x2356 JUMP JUMPDEST PUSH2 0x250C JUMPI DUP3 PUSH0 ADD DUP3 SWAP1 DUP1 PUSH1 0x1 DUP2 SLOAD ADD DUP1 DUP3 SSTORE DUP1 SWAP2 POP POP PUSH1 0x1 SWAP1 SUB SWAP1 PUSH0 MSTORE PUSH1 0x20 PUSH0 KECCAK256 ADD PUSH0 SWAP1 SWAP2 SWAP1 SWAP2 SWAP1 SWAP2 POP SSTORE DUP3 PUSH0 ADD DUP1 SLOAD SWAP1 POP DUP4 PUSH1 0x1 ADD PUSH0 DUP5 DUP2 MSTORE PUSH1 0x20 ADD SWAP1 DUP2 MSTORE PUSH1 0x20 ADD PUSH0 KECCAK256 DUP2 SWAP1 SSTORE POP PUSH1 0x1 SWAP1 POP PUSH2 0x2510 JUMP JUMPDEST PUSH0 SWAP1 POP JUMPDEST SWAP3 SWAP2 POP POP JUMP JUMPDEST PUSH0 PUSH32 0x1FFC9A700000000000000000000000000000000000000000000000000000000 PUSH28 0xFFFFFFFFFFFFFFFFFFFFFFFFFFFFFFFFFFFFFFFFFFFFFFFFFFFFFFFF NOT AND DUP3 PUSH28 0xFFFFFFFFFFFFFFFFFFFFFFFFFFFFFFFFFFFFFFFFFFFFFFFFFFFFFFFF NOT AND EQ SWAP1 POP SWAP2 SWAP1 POP JUMP JUMPDEST PUSH1 0x40 MLOAD DUP1 PUSH2 0x140 ADD PUSH1 0x40 MSTORE DUP1 PUSH1 0xA SWAP1 PUSH1 0x20 DUP3 MUL DUP1 CALLDATASIZE DUP4 CALLDATACOPY DUP1 DUP3 ADD SWAP2 POP POP SWAP1 POP POP SWAP1 JUMP JUMPDEST DUP3 DUP1 SLOAD DUP3 DUP3 SSTORE SWAP1 PUSH0 MSTORE PUSH1 0x20 PUSH0 KECCAK256 SWAP1 DUP2 ADD SWAP3 DUP3 ISZERO PUSH2 0x25E8 JUMPI SWAP2 PUSH1 0x20 MUL DUP3 ADD JUMPDEST DUP3 DUP2 GT ISZERO PUSH2 0x25E7 JUMPI DUP3 MLOAD DUP3 SWAP1 DUP2 PUSH2 0x25D7 SWAP2 SWAP1 PUSH2 0x3D0D JUMP JUMPDEST POP SWAP2 PUSH1 0x20 ADD SWAP2 SWAP1 PUSH1 0x1 ADD SWAP1 PUSH2 0x25C0 JUMP JUMPDEST JUMPDEST POP SWAP1 POP PUSH2 0x25F5 SWAP2 SWAP1 PUSH2 0x25F9 JUMP JUMPDEST POP SWAP1 JUMP JUMPDEST JUMPDEST DUP1 DUP3 GT ISZERO PUSH2 0x2618 JUMPI PUSH0 DUP2 DUP2 PUSH2 0x260F SWAP2 SWAP1 PUSH2 0x261C JUMP JUMPDEST POP PUSH1 0x1 ADD PUSH2 0x25FA JUMP JUMPDEST POP SWAP1 JUMP JUMPDEST POP DUP1 SLOAD PUSH2 0x2628 SWAP1 PUSH2 0x2E89 JUMP JUMPDEST PUSH0 DUP3 SSTORE DUP1 PUSH1 0x1F LT PUSH2 0x2639 JUMPI POP PUSH2 0x2656 JUMP JUMPDEST PUSH1 0x1F ADD PUSH1 0x20 SWAP1 DIV SWAP1 PUSH0 MSTORE PUSH1 0x20 PUSH0 KECCAK256 SWAP1 DUP2 ADD SWAP1 PUSH2 0x2655 SWAP2 SWAP1 PUSH2 0x2659 JUMP JUMPDEST JUMPDEST POP JUMP JUMPDEST JUMPDEST DUP1 DUP3 GT ISZERO PUSH2 0x2670 JUMPI PUSH0 DUP2 PUSH0 SWAP1 SSTORE POP PUSH1 0x1 ADD PUSH2 0x265A JUMP JUMPDEST POP SWAP1 JUMP JUMPDEST PUSH0 PUSH1 0x40 MLOAD SWAP1 POP SWAP1 JUMP JUMPDEST PUSH0 DUP1 REVERT JUMPDEST PUSH0 DUP1 REVERT JUMPDEST PUSH0 PUSH32 0xFFFFFFFF00000000000000000000000000000000000000000000000000000000 DUP3 AND SWAP1 POP SWAP2 SWAP1 POP JUMP JUMPDEST PUSH2 0x26B9 DUP2 PUSH2 0x2685 JUMP JUMPDEST DUP2 EQ PUSH2 0x26C3 JUMPI PUSH0 DUP1 REVERT JUMPDEST POP JUMP JUMPDEST PUSH0 DUP2 CALLDATALOAD SWAP1 POP PUSH2 0x26D4 DUP2 PUSH2 0x26B0 JUMP JUMPDEST SWAP3 SWAP2 POP POP JUMP JUMPDEST PUSH0 PUSH1 0x20 DUP3 DUP5 SUB SLT ISZERO PUSH2 0x26EF JUMPI PUSH2 0x26EE PUSH2 0x267D JUMP JUMPDEST JUMPDEST PUSH0 PUSH2 0x26FC DUP5 DUP3 DUP6 ADD PUSH2 0x26C6 JUMP JUMPDEST SWAP2 POP POP SWAP3 SWAP2 POP POP JUMP JUMPDEST PUSH0 DUP2 ISZERO ISZERO SWAP1 POP SWAP2 SWAP1 POP JUMP JUMPDEST PUSH2 0x2719 DUP2 PUSH2 0x2705 JUMP JUMPDEST DUP3 MSTORE POP POP JUMP JUMPDEST PUSH0 PUSH1 0x20 DUP3 ADD SWAP1 POP PUSH2 0x2732 PUSH0 DUP4 ADD DUP5 PUSH2 0x2710 JUMP JUMPDEST SWAP3 SWAP2 POP POP JUMP JUMPDEST PUSH0 DUP2 SWAP1 POP SWAP2 SWAP1 POP JUMP JUMPDEST PUSH2 0x274A DUP2 PUSH2 0x2738 JUMP JUMPDEST DUP2 EQ PUSH2 0x2754 JUMPI PUSH0 DUP1 REVERT JUMPDEST POP JUMP JUMPDEST PUSH0 DUP2 CALLDATALOAD SWAP1 POP PUSH2 0x2765 DUP2 PUSH2 0x2741 JUMP JUMPDEST SWAP3 SWAP2 POP POP JUMP JUMPDEST PUSH0 PUSH1 0x20 DUP3 DUP5 SUB SLT ISZERO PUSH2 0x2780 JUMPI PUSH2 0x277F PUSH2 0x267D JUMP JUMPDEST JUMPDEST PUSH0 PUSH2 0x278D DUP5 DUP3 DUP6 ADD PUSH2 0x2757 JUMP JUMPDEST SWAP2 POP POP SWAP3 SWAP2 POP POP JUMP JUMPDEST PUSH0 DUP2 MLOAD SWAP1 POP SWAP2 SWAP1 POP JUMP JUMPDEST PUSH0 DUP3 DUP3 MSTORE PUSH1 0x20 DUP3 ADD SWAP1 POP SWAP3 SWAP2 POP POP JUMP JUMPDEST DUP3 DUP2 DUP4 MCOPY PUSH0 DUP4 DUP4 ADD MSTORE POP POP POP JUMP JUMPDEST PUSH0 PUSH1 0x1F NOT PUSH1 0x1F DUP4 ADD AND SWAP1 POP SWAP2 SWAP1 POP JUMP JUMPDEST PUSH0 PUSH2 0x27D8 DUP3 PUSH2 0x2796 JUMP JUMPDEST PUSH2 0x27E2 DUP2 DUP6 PUSH2 0x27A0 JUMP JUMPDEST SWAP4 POP PUSH2 0x27F2 DUP2 DUP6 PUSH1 0x20 DUP7 ADD PUSH2 0x27B0 JUMP JUMPDEST PUSH2 0x27FB DUP2 PUSH2 0x27BE JUMP JUMPDEST DUP5 ADD SWAP2 POP POP SWAP3 SWAP2 POP POP JUMP JUMPDEST PUSH0 PUSH1 0x20 DUP3 ADD SWAP1 POP DUP2 DUP2 SUB PUSH0 DUP4 ADD MSTORE PUSH2 0x281E DUP2 DUP5 PUSH2 0x27CE JUMP JUMPDEST SWAP1 POP SWAP3 SWAP2 POP POP JUMP JUMPDEST PUSH2 0x282F DUP2 PUSH2 0x2738 JUMP JUMPDEST DUP3 MSTORE POP POP JUMP JUMPDEST PUSH0 PUSH1 0x20 DUP3 ADD SWAP1 POP PUSH2 0x2848 PUSH0 DUP4 ADD DUP5 PUSH2 0x2826 JUMP JUMPDEST SWAP3 SWAP2 POP POP JUMP JUMPDEST PUSH0 DUP2 SWAP1 POP SWAP2 SWAP1 POP JUMP JUMPDEST PUSH2 0x2860 DUP2 PUSH2 0x284E JUMP JUMPDEST DUP2 EQ PUSH2 0x286A JUMPI PUSH0 DUP1 REVERT JUMPDEST POP JUMP JUMPDEST PUSH0 DUP2 CALLDATALOAD SWAP1 POP PUSH2 0x287B DUP2 PUSH2 0x2857 JUMP JUMPDEST SWAP3 SWAP2 POP POP JUMP JUMPDEST PUSH0 PUSH1 0x20 DUP3 DUP5 SUB SLT ISZERO PUSH2 0x2896 JUMPI PUSH2 0x2895 PUSH2 0x267D JUMP JUMPDEST JUMPDEST PUSH0 PUSH2 0x28A3 DUP5 DUP3 DUP6 ADD PUSH2 0x286D JUMP JUMPDEST SWAP2 POP POP SWAP3 SWAP2 POP POP JUMP JUMPDEST PUSH0 PUSH1 0xA SWAP1 POP SWAP2 SWAP1 POP JUMP JUMPDEST PUSH0 DUP2 SWAP1 POP SWAP3 SWAP2 POP POP JUMP JUMPDEST PUSH0 DUP2 SWAP1 POP SWAP2 SWAP1 POP JUMP JUMPDEST PUSH2 0x28D2 DUP2 PUSH2 0x2738 JUMP JUMPDEST DUP3 MSTORE POP POP JUMP JUMPDEST PUSH0 PUSH2 0x28E3 DUP4 DUP4 PUSH2 0x28C9 JUMP JUMPDEST PUSH1 0x20 DUP4 ADD SWAP1 POP SWAP3 SWAP2 POP POP JUMP JUMPDEST PUSH0 PUSH1 0x20 DUP3 ADD SWAP1 POP SWAP2 SWAP1 POP JUMP JUMPDEST PUSH2 0x2904 DUP2 PUSH2 0x28AC JUMP JUMPDEST PUSH2 0x290E DUP2 DUP5 PUSH2 0x28B6 JUMP JUMPDEST SWAP3 POP PUSH2 0x2919 DUP3 PUSH2 0x28C0 JUMP JUMPDEST DUP1 PUSH0 JUMPDEST DUP4 DUP2 LT ISZERO PUSH2 0x2949 JUMPI DUP2 MLOAD PUSH2 0x2930 DUP8 DUP3 PUSH2 0x28D8 JUMP JUMPDEST SWAP7 POP PUSH2 0x293B DUP4 PUSH2 0x28EF JUMP JUMPDEST SWAP3 POP POP PUSH1 0x1 DUP2 ADD SWAP1 POP PUSH2 0x291C JUMP JUMPDEST POP POP POP POP POP POP JUMP JUMPDEST PUSH0 PUSH2 0x140 DUP3 ADD SWAP1 POP PUSH2 0x2965 PUSH0 DUP4 ADD DUP5 PUSH2 0x28FB JUMP JUMPDEST SWAP3 SWAP2 POP POP JUMP JUMPDEST PUSH0 PUSH20 0xFFFFFFFFFFFFFFFFFFFFFFFFFFFFFFFFFFFFFFFF DUP3 AND SWAP1 POP SWAP2 SWAP1 POP JUMP JUMPDEST PUSH0 PUSH2 0x2994 DUP3 PUSH2 0x296B JUMP JUMPDEST SWAP1 POP SWAP2 SWAP1 POP JUMP JUMPDEST PUSH2 0x29A4 DUP2 PUSH2 0x298A JUMP JUMPDEST DUP2 EQ PUSH2 0x29AE JUMPI PUSH0 DUP1 REVERT JUMPDEST POP JUMP JUMPDEST PUSH0 DUP2 CALLDATALOAD SWAP1 POP PUSH2 0x29BF DUP2 PUSH2 0x299B JUMP JUMPDEST SWAP3 SWAP2 POP POP JUMP JUMPDEST PUSH0 PUSH1 0x20 DUP3 DUP5 SUB SLT ISZERO PUSH2 0x29DA JUMPI PUSH2 0x29D9 PUSH2 0x267D JUMP JUMPDEST JUMPDEST PUSH0 PUSH2 0x29E7 DUP5 DUP3 DUP6 ADD PUSH2 0x29B1 JUMP JUMPDEST SWAP2 POP POP SWAP3 SWAP2 POP POP JUMP JUMPDEST PUSH0 DUP2 MLOAD SWAP1 POP SWAP2 SWAP1 POP JUMP JUMPDEST PUSH0 DUP3 DUP3 MSTORE PUSH1 0x20 DUP3 ADD SWAP1 POP SWAP3 SWAP2 POP POP JUMP JUMPDEST PUSH0 DUP2 SWAP1 POP PUSH1 0x20 DUP3 ADD SWAP1 POP SWAP2 SWAP1 POP JUMP JUMPDEST PUSH2 0x2A22 DUP2 PUSH2 0x298A JUMP JUMPDEST DUP3 MSTORE POP POP JUMP JUMPDEST PUSH0 PUSH2 0x2A33 DUP4 DUP4 PUSH2 0x2A19 JUMP JUMPDEST PUSH1 0x20 DUP4 ADD SWAP1 POP SWAP3 SWAP2 POP POP JUMP JUMPDEST PUSH0 PUSH1 0x20 DUP3 ADD SWAP1 POP SWAP2 SWAP1 POP JUMP JUMPDEST PUSH0 PUSH2 0x2A55 DUP3 PUSH2 0x29F0 JUMP JUMPDEST PUSH2 0x2A5F DUP2 DUP6 PUSH2 0x29FA JUMP JUMPDEST SWAP4 POP PUSH2 0x2A6A DUP4 PUSH2 0x2A0A JUMP JUMPDEST DUP1 PUSH0 JUMPDEST DUP4 DUP2 LT ISZERO PUSH2 0x2A9A JUMPI DUP2 MLOAD PUSH2 0x2A81 DUP9 DUP3 PUSH2 0x2A28 JUMP JUMPDEST SWAP8 POP PUSH2 0x2A8C DUP4 PUSH2 0x2A3F JUMP JUMPDEST SWAP3 POP POP PUSH1 0x1 DUP2 ADD SWAP1 POP PUSH2 0x2A6D JUMP JUMPDEST POP DUP6 SWAP4 POP POP POP POP SWAP3 SWAP2 POP POP JUMP JUMPDEST PUSH0 PUSH1 0x20 DUP3 ADD SWAP1 POP DUP2 DUP2 SUB PUSH0 DUP4 ADD MSTORE PUSH2 0x2ABF DUP2 DUP5 PUSH2 0x2A4B JUMP JUMPDEST SWAP1 POP SWAP3 SWAP2 POP POP JUMP JUMPDEST PUSH0 DUP1 REVERT JUMPDEST PUSH0 DUP1 REVERT JUMPDEST PUSH32 0x4E487B7100000000000000000000000000000000000000000000000000000000 PUSH0 MSTORE PUSH1 0x41 PUSH1 0x4 MSTORE PUSH1 0x24 PUSH0 REVERT JUMPDEST PUSH2 0x2B05 DUP3 PUSH2 0x27BE JUMP JUMPDEST DUP2 ADD DUP2 DUP2 LT PUSH8 0xFFFFFFFFFFFFFFFF DUP3 GT OR ISZERO PUSH2 0x2B24 JUMPI PUSH2 0x2B23 PUSH2 0x2ACF JUMP JUMPDEST JUMPDEST DUP1 PUSH1 0x40 MSTORE POP POP POP JUMP JUMPDEST PUSH0 PUSH2 0x2B36 PUSH2 0x2674 JUMP JUMPDEST SWAP1 POP PUSH2 0x2B42 DUP3 DUP3 PUSH2 0x2AFC JUMP JUMPDEST SWAP2 SWAP1 POP JUMP JUMPDEST PUSH0 PUSH8 0xFFFFFFFFFFFFFFFF DUP3 GT ISZERO PUSH2 0x2B61 JUMPI PUSH2 0x2B60 PUSH2 0x2ACF JUMP JUMPDEST JUMPDEST PUSH2 0x2B6A DUP3 PUSH2 0x27BE JUMP JUMPDEST SWAP1 POP PUSH1 0x20 DUP2 ADD SWAP1 POP SWAP2 SWAP1 POP JUMP JUMPDEST DUP3 DUP2 DUP4 CALLDATACOPY PUSH0 DUP4 DUP4 ADD MSTORE POP POP POP JUMP JUMPDEST PUSH0 PUSH2 0x2B97 PUSH2 0x2B92 DUP5 PUSH2 0x2B47 JUMP JUMPDEST PUSH2 0x2B2D JUMP JUMPDEST SWAP1 POP DUP3 DUP2 MSTORE PUSH1 0x20 DUP2 ADD DUP5 DUP5 DUP5 ADD GT ISZERO PUSH2 0x2BB3 JUMPI PUSH2 0x2BB2 PUSH2 0x2ACB JUMP JUMPDEST JUMPDEST PUSH2 0x2BBE DUP5 DUP3 DUP6 PUSH2 0x2B77 JUMP JUMPDEST POP SWAP4 SWAP3 POP POP POP JUMP JUMPDEST PUSH0 DUP3 PUSH1 0x1F DUP4 ADD SLT PUSH2 0x2BDA JUMPI PUSH2 0x2BD9 PUSH2 0x2AC7 JUMP JUMPDEST JUMPDEST DUP2 CALLDATALOAD PUSH2 0x2BEA DUP5 DUP3 PUSH1 0x20 DUP7 ADD PUSH2 0x2B85 JUMP JUMPDEST SWAP2 POP POP SWAP3 SWAP2 POP POP JUMP JUMPDEST PUSH0 PUSH1 0x20 DUP3 DUP5 SUB SLT ISZERO PUSH2 0x2C08 JUMPI PUSH2 0x2C07 PUSH2 0x267D JUMP JUMPDEST JUMPDEST PUSH0 DUP3 ADD CALLDATALOAD PUSH8 0xFFFFFFFFFFFFFFFF DUP2 GT ISZERO PUSH2 0x2C25 JUMPI PUSH2 0x2C24 PUSH2 0x2681 JUMP JUMPDEST JUMPDEST PUSH2 0x2C31 DUP5 DUP3 DUP6 ADD PUSH2 0x2BC6 JUMP JUMPDEST SWAP2 POP POP SWAP3 SWAP2 POP POP JUMP JUMPDEST PUSH0 PUSH8 0xFFFFFFFFFFFFFFFF DUP3 GT ISZERO PUSH2 0x2C54 JUMPI PUSH2 0x2C53 PUSH2 0x2ACF JUMP JUMPDEST JUMPDEST PUSH1 0x20 DUP3 MUL SWAP1 POP PUSH1 0x20 DUP2 ADD SWAP1 POP SWAP2 SWAP1 POP JUMP JUMPDEST PUSH0 DUP1 REVERT JUMPDEST PUSH0 PUSH2 0x2C7B PUSH2 0x2C76 DUP5 PUSH2 0x2C3A JUMP JUMPDEST PUSH2 0x2B2D JUMP JUMPDEST SWAP1 POP DUP1 DUP4 DUP3 MSTORE PUSH1 0x20 DUP3 ADD SWAP1 POP PUSH1 0x20 DUP5 MUL DUP4 ADD DUP6 DUP2 GT ISZERO PUSH2 0x2C9E JUMPI PUSH2 0x2C9D PUSH2 0x2C65 JUMP JUMPDEST JUMPDEST DUP4 JUMPDEST DUP2 DUP2 LT ISZERO PUSH2 0x2CE5 JUMPI DUP1 CALLDATALOAD PUSH8 0xFFFFFFFFFFFFFFFF DUP2 GT ISZERO PUSH2 0x2CC3 JUMPI PUSH2 0x2CC2 PUSH2 0x2AC7 JUMP JUMPDEST JUMPDEST DUP1 DUP7 ADD PUSH2 0x2CD0 DUP10 DUP3 PUSH2 0x2BC6 JUMP JUMPDEST DUP6 MSTORE PUSH1 0x20 DUP6 ADD SWAP5 POP POP POP PUSH1 0x20 DUP2 ADD SWAP1 POP PUSH2 0x2CA0 JUMP JUMPDEST POP POP POP SWAP4 SWAP3 POP POP POP JUMP JUMPDEST PUSH0 DUP3 PUSH1 0x1F DUP4 ADD SLT PUSH2 0x2D03 JUMPI PUSH2 0x2D02 PUSH2 0x2AC7 JUMP JUMPDEST JUMPDEST DUP2 CALLDATALOAD PUSH2 0x2D13 DUP5 DUP3 PUSH1 0x20 DUP7 ADD PUSH2 0x2C69 JUMP JUMPDEST SWAP2 POP POP SWAP3 SWAP2 POP POP JUMP JUMPDEST PUSH0 PUSH1 0x20 DUP3 DUP5 SUB SLT ISZERO PUSH2 0x2D31 JUMPI PUSH2 0x2D30 PUSH2 0x267D JUMP JUMPDEST JUMPDEST PUSH0 DUP3 ADD CALLDATALOAD PUSH8 0xFFFFFFFFFFFFFFFF DUP2 GT ISZERO PUSH2 0x2D4E JUMPI PUSH2 0x2D4D PUSH2 0x2681 JUMP JUMPDEST JUMPDEST PUSH2 0x2D5A DUP5 DUP3 DUP6 ADD PUSH2 0x2CEF JUMP JUMPDEST SWAP2 POP POP SWAP3 SWAP2 POP POP JUMP JUMPDEST PUSH2 0x2D6C DUP2 PUSH2 0x298A JUMP JUMPDEST DUP3 MSTORE POP POP JUMP JUMPDEST PUSH0 PUSH1 0x20 DUP3 ADD SWAP1 POP PUSH2 0x2D85 PUSH0 DUP4 ADD DUP5 PUSH2 0x2D63 JUMP JUMPDEST SWAP3 SWAP2 POP POP JUMP JUMPDEST PUSH2 0x2D94 DUP2 PUSH2 0x2705 JUMP JUMPDEST DUP2 EQ PUSH2 0x2D9E JUMPI PUSH0 DUP1 REVERT JUMPDEST POP JUMP JUMPDEST PUSH0 DUP2 CALLDATALOAD SWAP1 POP PUSH2 0x2DAF DUP2 PUSH2 0x2D8B JUMP JUMPDEST SWAP3 SWAP2 POP POP JUMP JUMPDEST PUSH0 PUSH1 0x20 DUP3 DUP5 SUB SLT ISZERO PUSH2 0x2DCA JUMPI PUSH2 0x2DC9 PUSH2 0x267D JUMP JUMPDEST JUMPDEST PUSH0 PUSH2 0x2DD7 DUP5 DUP3 DUP6 ADD PUSH2 0x2DA1 JUMP JUMPDEST SWAP2 POP POP SWAP3 SWAP2 POP POP JUMP JUMPDEST PUSH0 DUP1 PUSH1 0x40 DUP4 DUP6 SUB SLT ISZERO PUSH2 0x2DF6 JUMPI PUSH2 0x2DF5 PUSH2 0x267D JUMP JUMPDEST JUMPDEST PUSH0 PUSH2 0x2E03 DUP6 DUP3 DUP7 ADD PUSH2 0x2757 JUMP JUMPDEST SWAP3 POP POP PUSH1 0x20 PUSH2 0x2E14 DUP6 DUP3 DUP7 ADD PUSH2 0x29B1 JUMP JUMPDEST SWAP2 POP POP SWAP3 POP SWAP3 SWAP1 POP JUMP JUMPDEST PUSH0 DUP1 PUSH1 0x40 DUP4 DUP6 SUB SLT ISZERO PUSH2 0x2E34 JUMPI PUSH2 0x2E33 PUSH2 0x267D JUMP JUMPDEST JUMPDEST PUSH0 PUSH2 0x2E41 DUP6 DUP3 DUP7 ADD PUSH2 0x29B1 JUMP JUMPDEST SWAP3 POP POP PUSH1 0x20 PUSH2 0x2E52 DUP6 DUP3 DUP7 ADD PUSH2 0x2757 JUMP JUMPDEST SWAP2 POP POP SWAP3 POP SWAP3 SWAP1 POP JUMP JUMPDEST PUSH32 0x4E487B7100000000000000000000000000000000000000000000000000000000 PUSH0 MSTORE PUSH1 0x22 PUSH1 0x4 MSTORE PUSH1 0x24 PUSH0 REVERT JUMPDEST PUSH0 PUSH1 0x2 DUP3 DIV SWAP1 POP PUSH1 0x1 DUP3 AND DUP1 PUSH2 0x2EA0 JUMPI PUSH1 0x7F DUP3 AND SWAP2 POP JUMPDEST PUSH1 0x20 DUP3 LT DUP2 SUB PUSH2 0x2EB3 JUMPI PUSH2 0x2EB2 PUSH2 0x2E5C JUMP JUMPDEST JUMPDEST POP SWAP2 SWAP1 POP JUMP JUMPDEST PUSH32 0x4E487B7100000000000000000000000000000000000000000000000000000000 PUSH0 MSTORE PUSH1 0x32 PUSH1 0x4 MSTORE PUSH1 0x24 PUSH0 REVERT JUMPDEST PUSH32 0x4E487B7100000000000000000000000000000000000000000000000000000000 PUSH0 MSTORE PUSH1 0x12 PUSH1 0x4 MSTORE PUSH1 0x24 PUSH0 REVERT JUMPDEST PUSH0 PUSH2 0x2F1D DUP3 PUSH2 0x2738 JUMP JUMPDEST SWAP2 POP PUSH2 0x2F28 DUP4 PUSH2 0x2738 JUMP JUMPDEST SWAP3 POP DUP3 PUSH2 0x2F38 JUMPI PUSH2 0x2F37 PUSH2 0x2EE6 JUMP JUMPDEST JUMPDEST DUP3 DUP3 MOD SWAP1 POP SWAP3 SWAP2 POP POP JUMP JUMPDEST PUSH0 DUP2 SWAP1 POP SWAP3 SWAP2 POP POP JUMP JUMPDEST PUSH32 0x646174613A696D6167652F7376672B786D6C3B6261736536342C000000000000 PUSH0 DUP3 ADD MSTORE POP JUMP JUMPDEST PUSH0 PUSH2 0x2F81 PUSH1 0x1A DUP4 PUSH2 0x2F43 JUMP JUMPDEST SWAP2 POP PUSH2 0x2F8C DUP3 PUSH2 0x2F4D JUMP JUMPDEST PUSH1 0x1A DUP3 ADD SWAP1 POP SWAP2 SWAP1 POP JUMP JUMPDEST PUSH0 PUSH2 0x2FA1 DUP3 PUSH2 0x2796 JUMP JUMPDEST PUSH2 0x2FAB DUP2 DUP6 PUSH2 0x2F43 JUMP JUMPDEST SWAP4 POP PUSH2 0x2FBB DUP2 DUP6 PUSH1 0x20 DUP7 ADD PUSH2 0x27B0 JUMP JUMPDEST DUP1 DUP5 ADD SWAP2 POP POP SWAP3 SWAP2 POP POP JUMP JUMPDEST PUSH0 PUSH2 0x2FD1 DUP3 PUSH2 0x2F75 JUMP JUMPDEST SWAP2 POP PUSH2 0x2FDD DUP3 DUP5 PUSH2 0x2F97 JUMP JUMPDEST SWAP2 POP DUP2 SWAP1 POP SWAP3 SWAP2 POP POP JUMP JUMPDEST PUSH0 PUSH2 0x2FFA PUSH2 0x2FF5 DUP5 PUSH2 0x2B47 JUMP JUMPDEST PUSH2 0x2B2D JUMP JUMPDEST SWAP1 POP DUP3 DUP2 MSTORE PUSH1 0x20 DUP2 ADD DUP5 DUP5 DUP5 ADD GT ISZERO PUSH2 0x3016 JUMPI PUSH2 0x3015 PUSH2 0x2ACB JUMP JUMPDEST JUMPDEST PUSH2 0x3021 DUP5 DUP3 DUP6 PUSH2 0x27B0 JUMP JUMPDEST POP SWAP4 SWAP3 POP POP POP JUMP JUMPDEST PUSH0 DUP3 PUSH1 0x1F DUP4 ADD SLT PUSH2 0x303D JUMPI PUSH2 0x303C PUSH2 0x2AC7 JUMP JUMPDEST JUMPDEST DUP2 MLOAD PUSH2 0x304D DUP5 DUP3 PUSH1 0x20 DUP7 ADD PUSH2 0x2FE8 JUMP JUMPDEST SWAP2 POP POP SWAP3 SWAP2 POP POP JUMP JUMPDEST PUSH0 PUSH1 0x20 DUP3 DUP5 SUB SLT ISZERO PUSH2 0x306B JUMPI PUSH2 0x306A PUSH2 0x267D JUMP JUMPDEST JUMPDEST PUSH0 DUP3 ADD MLOAD PUSH8 0xFFFFFFFFFFFFFFFF DUP2 GT ISZERO PUSH2 0x3088 JUMPI PUSH2 0x3087 PUSH2 0x2681 JUMP JUMPDEST JUMPDEST PUSH2 0x3094 DUP5 DUP3 DUP6 ADD PUSH2 0x3029 JUMP JUMPDEST SWAP2 POP POP SWAP3 SWAP2 POP POP JUMP JUMPDEST PUSH2 0x30A6 DUP2 PUSH2 0x284E JUMP JUMPDEST DUP3 MSTORE POP POP JUMP JUMPDEST PUSH0 DUP2 SWAP1 POP DUP2 PUSH0 MSTORE PUSH1 0x20 PUSH0 KECCAK256 SWAP1 POP SWAP2 SWAP1 POP JUMP JUMPDEST PUSH0 DUP2 SLOAD PUSH2 0x30CA DUP2 PUSH2 0x2E89 JUMP JUMPDEST PUSH2 0x30D4 DUP2 DUP7 PUSH2 0x27A0 JUMP JUMPDEST SWAP5 POP PUSH1 0x1 DUP3 AND PUSH0 DUP2 EQ PUSH2 0x30EE JUMPI PUSH1 0x1 DUP2 EQ PUSH2 0x3104 JUMPI PUSH2 0x3136 JUMP JUMPDEST PUSH1 0xFF NOT DUP4 AND DUP7 MSTORE DUP2 ISZERO ISZERO PUSH1 0x20 MUL DUP7 ADD SWAP4 POP PUSH2 0x3136 JUMP JUMPDEST PUSH2 0x310D DUP6 PUSH2 0x30AC JUMP JUMPDEST PUSH0 JUMPDEST DUP4 DUP2 LT ISZERO PUSH2 0x312E JUMPI DUP2 SLOAD DUP2 DUP10 ADD MSTORE PUSH1 0x1 DUP3 ADD SWAP2 POP PUSH1 0x20 DUP2 ADD SWAP1 POP PUSH2 0x310F JUMP JUMPDEST DUP1 DUP9 ADD SWAP6 POP POP POP JUMPDEST POP POP POP SWAP3 SWAP2 POP POP JUMP JUMPDEST PUSH0 PUSH1 0x80 DUP3 ADD SWAP1 POP PUSH2 0x3152 PUSH0 DUP4 ADD DUP8 PUSH2 0x2826 JUMP JUMPDEST PUSH2 0x315F PUSH1 0x20 DUP4 ADD DUP7 PUSH2 0x2826 JUMP JUMPDEST PUSH2 0x316C PUSH1 0x40 DUP4 ADD DUP6 PUSH2 0x309D JUMP JUMPDEST DUP2 DUP2 SUB PUSH1 0x60 DUP4 ADD MSTORE PUSH2 0x317E DUP2 DUP5 PUSH2 0x30BE JUMP JUMPDEST SWAP1 POP SWAP6 SWAP5 POP POP POP POP POP JUMP JUMPDEST PUSH0 PUSH2 0x3194 DUP3 DUP7 PUSH2 0x2F97 JUMP JUMPDEST SWAP2 POP PUSH2 0x31A0 DUP3 DUP6 PUSH2 0x2F97 JUMP JUMPDEST SWAP2 POP PUSH2 0x31AC DUP3 DUP5 PUSH2 0x2F97 JUMP JUMPDEST SWAP2 POP DUP2 SWAP1 POP SWAP5 SWAP4 POP POP POP POP JUMP JUMPDEST PUSH32 0x7B226E616D65223A2022496E7665727465627261746573202300000000000000 PUSH0 DUP3 ADD MSTORE POP JUMP JUMPDEST PUSH0 PUSH2 0x31ED PUSH1 0x19 DUP4 PUSH2 0x2F43 JUMP JUMPDEST SWAP2 POP PUSH2 0x31F8 DUP3 PUSH2 0x31B9 JUMP JUMPDEST PUSH1 0x19 DUP3 ADD SWAP1 POP SWAP2 SWAP1 POP JUMP JUMPDEST PUSH32 0x222C20226465736372697074696F6E223A20225F6465736372697074696F6E22 PUSH0 DUP3 ADD MSTORE PUSH32 0x2C20000000000000000000000000000000000000000000000000000000000000 PUSH1 0x20 DUP3 ADD MSTORE POP JUMP JUMPDEST PUSH0 PUSH2 0x325D PUSH1 0x22 DUP4 PUSH2 0x2F43 JUMP JUMPDEST SWAP2 POP PUSH2 0x3268 DUP3 PUSH2 0x3203 JUMP JUMPDEST PUSH1 0x22 DUP3 ADD SWAP1 POP SWAP2 SWAP1 POP JUMP JUMPDEST PUSH32 0x2261747472696275746573223A5B7B202274726169745F74797065223A20224D PUSH0 DUP3 ADD MSTORE PUSH32 0x6F6F64222C202276616C7565223A202200000000000000000000000000000000 PUSH1 0x20 DUP3 ADD MSTORE POP JUMP JUMPDEST PUSH0 PUSH2 0x32CD PUSH1 0x30 DUP4 PUSH2 0x2F43 JUMP JUMPDEST SWAP2 POP PUSH2 0x32D8 DUP3 PUSH2 0x3273 JUMP JUMPDEST PUSH1 0x30 DUP3 ADD SWAP1 POP SWAP2 SWAP1 POP JUMP JUMPDEST PUSH0 DUP2 SLOAD PUSH2 0x32EF DUP2 PUSH2 0x2E89 JUMP JUMPDEST PUSH2 0x32F9 DUP2 DUP7 PUSH2 0x2F43 JUMP JUMPDEST SWAP5 POP PUSH1 0x1 DUP3 AND PUSH0 DUP2 EQ PUSH2 0x3313 JUMPI PUSH1 0x1 DUP2 EQ PUSH2 0x3328 JUMPI PUSH2 0x335A JUMP JUMPDEST PUSH1 0xFF NOT DUP4 AND DUP7 MSTORE DUP2 ISZERO ISZERO DUP3 MUL DUP7 ADD SWAP4 POP PUSH2 0x335A JUMP JUMPDEST PUSH2 0x3331 DUP6 PUSH2 0x30AC JUMP JUMPDEST PUSH0 JUMPDEST DUP4 DUP2 LT ISZERO PUSH2 0x3352 JUMPI DUP2 SLOAD DUP2 DUP10 ADD MSTORE PUSH1 0x1 DUP3 ADD SWAP2 POP PUSH1 0x20 DUP2 ADD SWAP1 POP PUSH2 0x3333 JUMP JUMPDEST DUP4 DUP9 ADD SWAP6 POP POP POP JUMPDEST POP POP POP SWAP3 SWAP2 POP POP JUMP JUMPDEST PUSH32 0x22207D2C207B202274726169745F74797065223A2022436F6C6F72222C202276 PUSH0 DUP3 ADD MSTORE PUSH32 0x616C7565223A2022000000000000000000000000000000000000000000000000 PUSH1 0x20 DUP3 ADD MSTORE POP JUMP JUMPDEST PUSH0 PUSH2 0x33BD PUSH1 0x28 DUP4 PUSH2 0x2F43 JUMP JUMPDEST SWAP2 POP PUSH2 0x33C8 DUP3 PUSH2 0x3363 JUMP JUMPDEST PUSH1 0x28 DUP3 ADD SWAP1 POP SWAP2 SWAP1 POP JUMP JUMPDEST PUSH0 DUP2 SWAP1 POP SWAP2 SWAP1 POP JUMP JUMPDEST PUSH2 0x33ED PUSH2 0x33E8 DUP3 PUSH2 0x2738 JUMP JUMPDEST PUSH2 0x33D3 JUMP JUMPDEST DUP3 MSTORE POP POP JUMP JUMPDEST PUSH32 0x22207D5D2C2022696D616765223A202200000000000000000000000000000000 PUSH0 DUP3 ADD MSTORE POP JUMP JUMPDEST PUSH0 PUSH2 0x3427 PUSH1 0x10 DUP4 PUSH2 0x2F43 JUMP JUMPDEST SWAP2 POP PUSH2 0x3432 DUP3 PUSH2 0x33F3 JUMP JUMPDEST PUSH1 0x10 DUP3 ADD SWAP1 POP SWAP2 SWAP1 POP JUMP JUMPDEST PUSH32 0x222C2022616E696D6174696F6E5F75726C223A20220000000000000000000000 PUSH0 DUP3 ADD MSTORE POP JUMP JUMPDEST PUSH0 PUSH2 0x3471 PUSH1 0x15 DUP4 PUSH2 0x2F43 JUMP JUMPDEST SWAP2 POP PUSH2 0x347C DUP3 PUSH2 0x343D JUMP JUMPDEST PUSH1 0x15 DUP3 ADD SWAP1 POP SWAP2 SWAP1 POP JUMP JUMPDEST PUSH32 0x227D000000000000000000000000000000000000000000000000000000000000 PUSH0 DUP3 ADD MSTORE POP JUMP JUMPDEST PUSH0 PUSH2 0x34BB PUSH1 0x2 DUP4 PUSH2 0x2F43 JUMP JUMPDEST SWAP2 POP PUSH2 0x34C6 DUP3 PUSH2 0x3487 JUMP JUMPDEST PUSH1 0x2 DUP3 ADD SWAP1 POP SWAP2 SWAP1 POP JUMP JUMPDEST PUSH0 PUSH2 0x34DB DUP3 PUSH2 0x31E1 JUMP JUMPDEST SWAP2 POP PUSH2 0x34E7 DUP3 DUP9 PUSH2 0x2F97 JUMP JUMPDEST SWAP2 POP PUSH2 0x34F2 DUP3 PUSH2 0x3251 JUMP JUMPDEST SWAP2 POP PUSH2 0x34FD DUP3 PUSH2 0x32C1 JUMP JUMPDEST SWAP2 POP PUSH2 0x3509 DUP3 DUP8 PUSH2 0x32E3 JUMP JUMPDEST SWAP2 POP PUSH2 0x3514 DUP3 PUSH2 0x33B1 JUMP JUMPDEST SWAP2 POP PUSH2 0x3520 DUP3 DUP7 PUSH2 0x33DC JUMP JUMPDEST PUSH1 0x20 DUP3 ADD SWAP2 POP PUSH2 0x352F DUP3 PUSH2 0x341B JUMP JUMPDEST SWAP2 POP PUSH2 0x353B DUP3 DUP6 PUSH2 0x2F97 JUMP JUMPDEST SWAP2 POP PUSH2 0x3546 DUP3 PUSH2 0x3465 JUMP JUMPDEST SWAP2 POP PUSH2 0x3552 DUP3 DUP5 PUSH2 0x2F97 JUMP JUMPDEST SWAP2 POP PUSH2 0x355D DUP3 PUSH2 0x34AF JUMP JUMPDEST SWAP2 POP DUP2 SWAP1 POP SWAP7 SWAP6 POP POP POP POP POP POP JUMP JUMPDEST PUSH32 0x646174613A6170706C69636174696F6E2F6A736F6E3B6261736536342C000000 PUSH0 DUP3 ADD MSTORE POP JUMP JUMPDEST PUSH0 PUSH2 0x35A0 PUSH1 0x1D DUP4 PUSH2 0x2F43 JUMP JUMPDEST SWAP2 POP PUSH2 0x35AB DUP3 PUSH2 0x356C JUMP JUMPDEST PUSH1 0x1D DUP3 ADD SWAP1 POP SWAP2 SWAP1 POP JUMP JUMPDEST PUSH0 PUSH2 0x35C0 DUP3 PUSH2 0x3594 JUMP JUMPDEST SWAP2 POP PUSH2 0x35CC DUP3 DUP5 PUSH2 0x2F97 JUMP JUMPDEST SWAP2 POP DUP2 SWAP1 POP SWAP3 SWAP2 POP POP JUMP JUMPDEST PUSH32 0x556E617574686F72697A65640000000000000000000000000000000000000000 PUSH0 DUP3 ADD MSTORE POP JUMP JUMPDEST PUSH0 PUSH2 0x360B PUSH1 0xC DUP4 PUSH2 0x27A0 JUMP JUMPDEST SWAP2 POP PUSH2 0x3616 DUP3 PUSH2 0x35D7 JUMP JUMPDEST PUSH1 0x20 DUP3 ADD SWAP1 POP SWAP2 SWAP1 POP JUMP JUMPDEST PUSH0 PUSH1 0x20 DUP3 ADD SWAP1 POP DUP2 DUP2 SUB PUSH0 DUP4 ADD MSTORE PUSH2 0x3638 DUP2 PUSH2 0x35FF JUMP JUMPDEST SWAP1 POP SWAP2 SWAP1 POP JUMP JUMPDEST PUSH32 0x53616C6520686173206E6F742073746172746564000000000000000000000000 PUSH0 DUP3 ADD MSTORE POP JUMP JUMPDEST PUSH0 PUSH2 0x3673 PUSH1 0x14 DUP4 PUSH2 0x27A0 JUMP JUMPDEST SWAP2 POP PUSH2 0x367E DUP3 PUSH2 0x363F JUMP JUMPDEST PUSH1 0x20 DUP3 ADD SWAP1 POP SWAP2 SWAP1 POP JUMP JUMPDEST PUSH0 PUSH1 0x20 DUP3 ADD SWAP1 POP DUP2 DUP2 SUB PUSH0 DUP4 ADD MSTORE PUSH2 0x36A0 DUP2 PUSH2 0x3667 JUMP JUMPDEST SWAP1 POP SWAP2 SWAP1 POP JUMP JUMPDEST PUSH32 0x5468697320746F6B656E206973206E6F7420726573657276656420666F722079 PUSH0 DUP3 ADD MSTORE PUSH32 0x6F752E0000000000000000000000000000000000000000000000000000000000 PUSH1 0x20 DUP3 ADD MSTORE POP JUMP JUMPDEST PUSH0 PUSH2 0x3701 PUSH1 0x23 DUP4 PUSH2 0x27A0 JUMP JUMPDEST SWAP2 POP PUSH2 0x370C DUP3 PUSH2 0x36A7 JUMP JUMPDEST PUSH1 0x40 DUP3 ADD SWAP1 POP SWAP2 SWAP1 POP JUMP JUMPDEST PUSH0 PUSH1 0x20 DUP3 ADD SWAP1 POP DUP2 DUP2 SUB PUSH0 DUP4 ADD MSTORE PUSH2 0x372E DUP2 PUSH2 0x36F5 JUMP JUMPDEST SWAP1 POP SWAP2 SWAP1 POP JUMP JUMPDEST PUSH32 0x4E6F7420656E6F756768204554482073656E7400000000000000000000000000 PUSH0 DUP3 ADD MSTORE POP JUMP JUMPDEST PUSH0 PUSH2 0x3769 PUSH1 0x13 DUP4 PUSH2 0x27A0 JUMP JUMPDEST SWAP2 POP PUSH2 0x3774 DUP3 PUSH2 0x3735 JUMP JUMPDEST PUSH1 0x20 DUP3 ADD SWAP1 POP SWAP2 SWAP1 POP JUMP JUMPDEST PUSH0 PUSH1 0x20 DUP3 ADD SWAP1 POP DUP2 DUP2 SUB PUSH0 DUP4 ADD MSTORE PUSH2 0x3796 DUP2 PUSH2 0x375D JUMP JUMPDEST SWAP1 POP SWAP2 SWAP1 POP JUMP JUMPDEST PUSH32 0x4E6F206D6F726520746F6B656E73206C65667400000000000000000000000000 PUSH0 DUP3 ADD MSTORE POP JUMP JUMPDEST PUSH0 PUSH2 0x37D1 PUSH1 0x13 DUP4 PUSH2 0x27A0 JUMP JUMPDEST SWAP2 POP PUSH2 0x37DC DUP3 PUSH2 0x379D JUMP JUMPDEST PUSH1 0x20 DUP3 ADD SWAP1 POP SWAP2 SWAP1 POP JUMP JUMPDEST PUSH0 PUSH1 0x20 DUP3 ADD SWAP1 POP DUP2 DUP2 SUB PUSH0 DUP4 ADD MSTORE PUSH2 0x37FE DUP2 PUSH2 0x37C5 JUMP JUMPDEST SWAP1 POP SWAP2 SWAP1 POP JUMP JUMPDEST PUSH32 0x4D6178206D696E7420636F756E74207265616368656400000000000000000000 PUSH0 DUP3 ADD MSTORE POP JUMP JUMPDEST PUSH0 PUSH2 0x3839 PUSH1 0x16 DUP4 PUSH2 0x27A0 JUMP JUMPDEST SWAP2 POP PUSH2 0x3844 DUP3 PUSH2 0x3805 JUMP JUMPDEST PUSH1 0x20 DUP3 ADD SWAP1 POP SWAP2 SWAP1 POP JUMP JUMPDEST PUSH0 PUSH1 0x20 DUP3 ADD SWAP1 POP DUP2 DUP2 SUB PUSH0 DUP4 ADD MSTORE PUSH2 0x3866 DUP2 PUSH2 0x382D JUMP JUMPDEST SWAP1 POP SWAP2 SWAP1 POP JUMP JUMPDEST PUSH0 DUP2 MLOAD SWAP1 POP PUSH2 0x387B DUP2 PUSH2 0x2741 JUMP JUMPDEST SWAP3 SWAP2 POP POP JUMP JUMPDEST PUSH0 PUSH1 0x20 DUP3 DUP5 SUB SLT ISZERO PUSH2 0x3896 JUMPI PUSH2 0x3895 PUSH2 0x267D JUMP JUMPDEST JUMPDEST PUSH0 PUSH2 0x38A3 DUP5 DUP3 DUP6 ADD PUSH2 0x386D JUMP JUMPDEST SWAP2 POP POP SWAP3 SWAP2 POP POP JUMP JUMPDEST PUSH32 0x4E487B7100000000000000000000000000000000000000000000000000000000 PUSH0 MSTORE PUSH1 0x11 PUSH1 0x4 MSTORE PUSH1 0x24 PUSH0 REVERT JUMPDEST PUSH0 PUSH2 0x38E3 DUP3 PUSH2 0x2738 JUMP JUMPDEST SWAP2 POP PUSH32 0xFFFFFFFFFFFFFFFFFFFFFFFFFFFFFFFFFFFFFFFFFFFFFFFFFFFFFFFFFFFFFFFF DUP3 SUB PUSH2 0x3915 JUMPI PUSH2 0x3914 PUSH2 0x38AC JUMP JUMPDEST JUMPDEST PUSH1 0x1 DUP3 ADD SWAP1 POP SWAP2 SWAP1 POP JUMP JUMPDEST PUSH0 PUSH2 0x392A DUP3 PUSH2 0x2738 JUMP JUMPDEST SWAP2 POP PUSH2 0x3935 DUP4 PUSH2 0x2738 JUMP JUMPDEST SWAP3 POP DUP3 DUP3 SUB SWAP1 POP DUP2 DUP2 GT ISZERO PUSH2 0x394D JUMPI PUSH2 0x394C PUSH2 0x38AC JUMP JUMPDEST JUMPDEST SWAP3 SWAP2 POP POP JUMP JUMPDEST PUSH0 DUP2 SWAP1 POP SWAP2 SWAP1 POP JUMP JUMPDEST PUSH2 0x396D PUSH2 0x3968 DUP3 PUSH2 0x284E JUMP JUMPDEST PUSH2 0x3953 JUMP JUMPDEST DUP3 MSTORE POP POP JUMP JUMPDEST PUSH0 DUP2 PUSH1 0x60 SHL SWAP1 POP SWAP2 SWAP1 POP JUMP JUMPDEST PUSH0 PUSH2 0x3989 DUP3 PUSH2 0x3973 JUMP JUMPDEST SWAP1 POP SWAP2 SWAP1 POP JUMP JUMPDEST PUSH0 PUSH2 0x399A DUP3 PUSH2 0x397F JUMP JUMPDEST SWAP1 POP SWAP2 SWAP1 POP JUMP JUMPDEST PUSH2 0x39B2 PUSH2 0x39AD DUP3 PUSH2 0x298A JUMP JUMPDEST PUSH2 0x3990 JUMP JUMPDEST DUP3 MSTORE POP POP JUMP JUMPDEST PUSH0 PUSH2 0x39C3 DUP3 DUP8 PUSH2 0x33DC JUMP JUMPDEST PUSH1 0x20 DUP3 ADD SWAP2 POP PUSH2 0x39D3 DUP3 DUP7 PUSH2 0x33DC JUMP JUMPDEST PUSH1 0x20 DUP3 ADD SWAP2 POP PUSH2 0x39E3 DUP3 DUP6 PUSH2 0x395C JUMP JUMPDEST PUSH1 0x20 DUP3 ADD SWAP2 POP PUSH2 0x39F3 DUP3 DUP5 PUSH2 0x39A1 JUMP JUMPDEST PUSH1 0x14 DUP3 ADD SWAP2 POP DUP2 SWAP1 POP SWAP6 SWAP5 POP POP POP POP POP JUMP JUMPDEST PUSH0 PUSH2 0x3A0F DUP3 PUSH2 0x2738 JUMP JUMPDEST SWAP2 POP PUSH2 0x3A1A DUP4 PUSH2 0x2738 JUMP JUMPDEST SWAP3 POP DUP3 PUSH2 0x3A2A JUMPI PUSH2 0x3A29 PUSH2 0x2EE6 JUMP JUMPDEST JUMPDEST DUP3 DUP3 DIV SWAP1 POP SWAP3 SWAP2 POP POP JUMP JUMPDEST PUSH0 PUSH2 0x3A3F DUP3 PUSH2 0x2738 JUMP JUMPDEST SWAP2 POP PUSH2 0x3A4A DUP4 PUSH2 0x2738 JUMP JUMPDEST SWAP3 POP DUP3 DUP3 MUL PUSH2 0x3A58 DUP2 PUSH2 0x2738 JUMP JUMPDEST SWAP2 POP DUP3 DUP3 DIV DUP5 EQ DUP4 ISZERO OR PUSH2 0x3A6F JUMPI PUSH2 0x3A6E PUSH2 0x38AC JUMP JUMPDEST JUMPDEST POP SWAP3 SWAP2 POP POP JUMP JUMPDEST PUSH0 DUP2 SLOAD SWAP1 POP PUSH2 0x3A84 DUP2 PUSH2 0x2E89 JUMP JUMPDEST SWAP1 POP SWAP2 SWAP1 POP JUMP JUMPDEST PUSH0 DUP2 SWAP1 POP DUP2 PUSH0 MSTORE PUSH1 0x20 PUSH0 KECCAK256 SWAP1 POP SWAP2 SWAP1 POP JUMP JUMPDEST PUSH0 PUSH1 0x20 PUSH1 0x1F DUP4 ADD DIV SWAP1 POP SWAP2 SWAP1 POP JUMP JUMPDEST PUSH0 DUP3 DUP3 SHL SWAP1 POP SWAP3 SWAP2 POP POP JUMP JUMPDEST PUSH0 PUSH1 0x8 DUP4 MUL PUSH2 0x3AE7 PUSH32 0xFFFFFFFFFFFFFFFFFFFFFFFFFFFFFFFFFFFFFFFFFFFFFFFFFFFFFFFFFFFFFFFF DUP3 PUSH2 0x3AAC JUMP JUMPDEST PUSH2 0x3AF1 DUP7 DUP4 PUSH2 0x3AAC JUMP JUMPDEST SWAP6 POP DUP1 NOT DUP5 AND SWAP4 POP DUP1 DUP7 AND DUP5 OR SWAP3 POP POP POP SWAP4 SWAP3 POP POP POP JUMP JUMPDEST PUSH0 DUP2 SWAP1 POP SWAP2 SWAP1 POP JUMP JUMPDEST PUSH0 PUSH2 0x3B2C PUSH2 0x3B27 PUSH2 0x3B22 DUP5 PUSH2 0x2738 JUMP JUMPDEST PUSH2 0x3B09 JUMP JUMPDEST PUSH2 0x2738 JUMP JUMPDEST SWAP1 POP SWAP2 SWAP1 POP JUMP JUMPDEST PUSH0 DUP2 SWAP1 POP SWAP2 SWAP1 POP JUMP JUMPDEST PUSH2 0x3B45 DUP4 PUSH2 0x3B12 JUMP JUMPDEST PUSH2 0x3B59 PUSH2 0x3B51 DUP3 PUSH2 0x3B33 JUMP JUMPDEST DUP5 DUP5 SLOAD PUSH2 0x3AB8 JUMP JUMPDEST DUP3 SSTORE POP POP POP POP JUMP JUMPDEST PUSH0 SWAP1 JUMP JUMPDEST PUSH2 0x3B6D PUSH2 0x3B61 JUMP JUMPDEST PUSH2 0x3B78 DUP2 DUP5 DUP5 PUSH2 0x3B3C JUMP JUMPDEST POP POP POP JUMP JUMPDEST JUMPDEST DUP2 DUP2 LT ISZERO PUSH2 0x3B9B JUMPI PUSH2 0x3B90 PUSH0 DUP3 PUSH2 0x3B65 JUMP JUMPDEST PUSH1 0x1 DUP2 ADD SWAP1 POP PUSH2 0x3B7E JUMP JUMPDEST POP POP JUMP JUMPDEST PUSH1 0x1F DUP3 GT ISZERO PUSH2 0x3BE0 JUMPI PUSH2 0x3BB1 DUP2 PUSH2 0x30AC JUMP JUMPDEST PUSH2 0x3BBA DUP5 PUSH2 0x3A9D JUMP JUMPDEST DUP2 ADD PUSH1 0x20 DUP6 LT ISZERO PUSH2 0x3BC9 JUMPI DUP2 SWAP1 POP JUMPDEST PUSH2 0x3BDD PUSH2 0x3BD5 DUP6 PUSH2 0x3A9D JUMP JUMPDEST DUP4 ADD DUP3 PUSH2 0x3B7D JUMP JUMPDEST POP POP JUMPDEST POP POP POP JUMP JUMPDEST PUSH0 DUP3 DUP3 SHR SWAP1 POP SWAP3 SWAP2 POP POP JUMP JUMPDEST PUSH0 PUSH2 0x3C00 PUSH0 NOT DUP5 PUSH1 0x8 MUL PUSH2 0x3BE5 JUMP JUMPDEST NOT DUP1 DUP4 AND SWAP2 POP POP SWAP3 SWAP2 POP POP JUMP JUMPDEST PUSH0 PUSH2 0x3C18 DUP4 DUP4 PUSH2 0x3BF1 JUMP JUMPDEST SWAP2 POP DUP3 PUSH1 0x2 MUL DUP3 OR SWAP1 POP SWAP3 SWAP2 POP POP JUMP JUMPDEST DUP2 DUP2 SUB PUSH2 0x3C36 JUMPI POP POP PUSH2 0x3D0B JUMP JUMPDEST PUSH2 0x3C3F DUP3 PUSH2 0x3A76 JUMP JUMPDEST PUSH8 0xFFFFFFFFFFFFFFFF DUP2 GT ISZERO PUSH2 0x3C58 JUMPI PUSH2 0x3C57 PUSH2 0x2ACF JUMP JUMPDEST JUMPDEST PUSH2 0x3C62 DUP3 SLOAD PUSH2 0x2E89 JUMP JUMPDEST PUSH2 0x3C6D DUP3 DUP3 DUP6 PUSH2 0x3B9F JUMP JUMPDEST PUSH0 PUSH1 0x1F DUP4 GT PUSH1 0x1 DUP2 EQ PUSH2 0x3C9A JUMPI PUSH0 DUP5 ISZERO PUSH2 0x3C88 JUMPI DUP3 DUP8 ADD SLOAD SWAP1 POP JUMPDEST PUSH2 0x3C92 DUP6 DUP3 PUSH2 0x3C0D JUMP JUMPDEST DUP7 SSTORE POP PUSH2 0x3D04 JUMP JUMPDEST PUSH1 0x1F NOT DUP5 AND PUSH2 0x3CA8 DUP8 PUSH2 0x3A8B JUMP JUMPDEST SWAP7 POP PUSH2 0x3CB3 DUP7 PUSH2 0x30AC JUMP JUMPDEST PUSH0 JUMPDEST DUP3 DUP2 LT ISZERO PUSH2 0x3CDA JUMPI DUP5 DUP10 ADD SLOAD DUP3 SSTORE PUSH1 0x1 DUP3 ADD SWAP2 POP PUSH1 0x1 DUP6 ADD SWAP5 POP PUSH1 0x20 DUP2 ADD SWAP1 POP PUSH2 0x3CB5 JUMP JUMPDEST DUP7 DUP4 LT ISZERO PUSH2 0x3CF7 JUMPI DUP5 DUP10 ADD SLOAD PUSH2 0x3CF3 PUSH1 0x1F DUP10 AND DUP3 PUSH2 0x3BF1 JUMP JUMPDEST DUP4 SSTORE POP JUMPDEST PUSH1 0x1 PUSH1 0x2 DUP9 MUL ADD DUP9 SSTORE POP POP POP JUMPDEST POP POP POP POP POP POP JUMPDEST JUMP JUMPDEST PUSH2 0x3D16 DUP3 PUSH2 0x2796 JUMP JUMPDEST PUSH8 0xFFFFFFFFFFFFFFFF DUP2 GT ISZERO PUSH2 0x3D2F JUMPI PUSH2 0x3D2E PUSH2 0x2ACF JUMP JUMPDEST JUMPDEST PUSH2 0x3D39 DUP3 SLOAD PUSH2 0x2E89 JUMP JUMPDEST PUSH2 0x3D44 DUP3 DUP3 DUP6 PUSH2 0x3B9F JUMP JUMPDEST PUSH0 PUSH1 0x20 SWAP1 POP PUSH1 0x1F DUP4 GT PUSH1 0x1 DUP2 EQ PUSH2 0x3D75 JUMPI PUSH0 DUP5 ISZERO PUSH2 0x3D63 JUMPI DUP3 DUP8 ADD MLOAD SWAP1 POP JUMPDEST PUSH2 0x3D6D DUP6 DUP3 PUSH2 0x3C0D JUMP JUMPDEST DUP7 SSTORE POP PUSH2 0x3DD4 JUMP JUMPDEST PUSH1 0x1F NOT DUP5 AND PUSH2 0x3D83 DUP7 PUSH2 0x30AC JUMP JUMPDEST PUSH0 JUMPDEST DUP3 DUP2 LT ISZERO PUSH2 0x3DAA JUMPI DUP5 DUP10 ADD MLOAD DUP3 SSTORE PUSH1 0x1 DUP3 ADD SWAP2 POP PUSH1 0x20 DUP6 ADD SWAP5 POP PUSH1 0x20 DUP2 ADD SWAP1 POP PUSH2 0x3D85 JUMP JUMPDEST DUP7 DUP4 LT ISZERO PUSH2 0x3DC7 JUMPI DUP5 DUP10 ADD MLOAD PUSH2 0x3DC3 PUSH1 0x1F DUP10 AND DUP3 PUSH2 0x3BF1 JUMP JUMPDEST DUP4 SSTORE POP JUMPDEST PUSH1 0x1 PUSH1 0x2 DUP9 MUL ADD DUP9 SSTORE POP POP POP JUMPDEST POP POP POP POP POP POP JUMP JUMPDEST PUSH32 0x646174613A746578742F68746D6C3B6261736536342C00000000000000000000 PUSH0 DUP3 ADD MSTORE POP JUMP JUMPDEST PUSH0 PUSH2 0x3E10 PUSH1 0x16 DUP4 PUSH2 0x2F43 JUMP JUMPDEST SWAP2 POP PUSH2 0x3E1B DUP3 PUSH2 0x3DDC JUMP JUMPDEST PUSH1 0x16 DUP3 ADD SWAP1 POP SWAP2 SWAP1 POP JUMP JUMPDEST PUSH0 PUSH2 0x3E30 DUP3 PUSH2 0x3E04 JUMP JUMPDEST SWAP2 POP PUSH2 0x3E3C DUP3 DUP5 PUSH2 0x2F97 JUMP JUMPDEST SWAP2 POP DUP2 SWAP1 POP SWAP3 SWAP2 POP POP JUMP JUMPDEST PUSH0 PUSH2 0x3E51 DUP3 PUSH2 0x2738 JUMP JUMPDEST SWAP2 POP PUSH2 0x3E5C DUP4 PUSH2 0x2738 JUMP JUMPDEST SWAP3 POP DUP3 DUP3 ADD SWAP1 POP DUP1 DUP3 GT ISZERO PUSH2 0x3E74 JUMPI PUSH2 0x3E73 PUSH2 0x38AC JUMP JUMPDEST JUMPDEST SWAP3 SWAP2 POP POP JUMP JUMPDEST PUSH0 PUSH1 0xFF DUP3 AND SWAP1 POP SWAP2 SWAP1 POP JUMP JUMPDEST PUSH0 PUSH2 0x3E90 DUP3 PUSH2 0x3E7A JUMP JUMPDEST SWAP2 POP PUSH2 0x3E9B DUP4 PUSH2 0x3E7A JUMP JUMPDEST SWAP3 POP DUP3 DUP3 ADD SWAP1 POP PUSH1 0xFF DUP2 GT ISZERO PUSH2 0x3EB4 JUMPI PUSH2 0x3EB3 PUSH2 0x38AC JUMP JUMPDEST JUMPDEST SWAP3 SWAP2 POP POP JUMP JUMPDEST PUSH32 0x4E487B7100000000000000000000000000000000000000000000000000000000 PUSH0 MSTORE PUSH1 0x31 PUSH1 0x4 MSTORE PUSH1 0x24 PUSH0 REVERT INVALID COINBASE TIMESTAMP NUMBER PREVRANDAO GASLIMIT CHAINID SELFBALANCE BASEFEE BLOBHASH BLOBBASEFEE 0x4B 0x4C 0x4D 0x4E 0x4F POP MLOAD MSTORE MSTORE8 SLOAD SSTORE JUMP JUMPI PC MSIZE GAS PUSH2 0x6263 PUSH5 0x6566676869 PUSH11 0x6B6C6D6E6F707172737475 PUSH23 0x7778797A303132333435363738392B2FA2646970667358 0x22 SLT KECCAK256 0xD9 0xEE EXTCODECOPY PUSH3 0xE9DB58 SWAP16 0xD6 LOG0 OR CALLDATASIZE EXTCODESIZE KECCAK256 0xC6 SIGNEXTEND DUP11 PC 0xDC PC DUP7 KECCAK256 0xEF REVERT BLOBBASEFEE SSTORE PUSH9 0x939AB2B2A464736F6C PUSH4 0x43000819 STOP CALLER PUSH1 0x80 PUSH1 0x40 MSTORE CALLVALUE DUP1 ISZERO PUSH1 0xE JUMPI PUSH0 DUP1 REVERT JUMPDEST POP PUSH2 0xAEBB DUP1 PUSH2 0x1C PUSH0 CODECOPY PUSH0 RETURN INVALID PUSH1 0x80 PUSH1 0x40 MSTORE CALLVALUE DUP1 ISZERO PUSH2 0xF JUMPI PUSH0 DUP1 REVERT JUMPDEST POP PUSH1 0x4 CALLDATASIZE LT PUSH2 0x4A JUMPI PUSH0 CALLDATALOAD PUSH1 0xE0 SHR DUP1 PUSH4 0x3EC28BBE EQ PUSH2 0x4E JUMPI DUP1 PUSH4 0x42882F5B EQ PUSH2 0x6C JUMPI DUP1 PUSH4 0x5E9FF849 EQ PUSH2 0x9C JUMPI DUP1 PUSH4 0x7899FF8F EQ PUSH2 0xCC JUMPI JUMPDEST PUSH0 DUP1 REVERT JUMPDEST PUSH2 0x56 PUSH2 0xEA JUMP JUMPDEST PUSH1 0x40 MLOAD PUSH2 0x63 SWAP2 SWAP1 PUSH2 0x217 JUMP JUMPDEST PUSH1 0x40 MLOAD DUP1 SWAP2 SUB SWAP1 RETURN JUMPDEST PUSH2 0x86 PUSH1 0x4 DUP1 CALLDATASIZE SUB DUP2 ADD SWAP1 PUSH2 0x81 SWAP2 SWAP1 PUSH2 0x27B JUMP JUMPDEST PUSH2 0x10F JUMP JUMPDEST PUSH1 0x40 MLOAD PUSH2 0x93 SWAP2 SWAP1 PUSH2 0x217 JUMP JUMPDEST PUSH1 0x40 MLOAD DUP1 SWAP2 SUB SWAP1 RETURN JUMPDEST PUSH2 0xB6 PUSH1 0x4 DUP1 CALLDATASIZE SUB DUP2 ADD SWAP1 PUSH2 0xB1 SWAP2 SWAP1 PUSH2 0x405 JUMP JUMPDEST PUSH2 0x138 JUMP JUMPDEST PUSH1 0x40 MLOAD PUSH2 0xC3 SWAP2 SWAP1 PUSH2 0x217 JUMP JUMPDEST PUSH1 0x40 MLOAD DUP1 SWAP2 SUB SWAP1 RETURN JUMPDEST PUSH2 0xD4 PUSH2 0x16A JUMP JUMPDEST PUSH1 0x40 MLOAD PUSH2 0xE1 SWAP2 SWAP1 PUSH2 0x217 JUMP JUMPDEST PUSH1 0x40 MLOAD DUP1 SWAP2 SUB SWAP1 RETURN JUMPDEST PUSH1 0x60 PUSH1 0x40 MLOAD PUSH1 0x20 ADD PUSH2 0xFB SWAP1 PUSH2 0x571 JUMP JUMPDEST PUSH1 0x40 MLOAD PUSH1 0x20 DUP2 DUP4 SUB SUB DUP2 MSTORE SWAP1 PUSH1 0x40 MSTORE SWAP1 POP SWAP1 JUMP JUMPDEST PUSH1 0x60 DUP2 PUSH1 0x40 MLOAD PUSH1 0x20 ADD PUSH2 0x122 SWAP2 SWAP1 PUSH2 0x56C9 JUMP JUMPDEST PUSH1 0x40 MLOAD PUSH1 0x20 DUP2 DUP4 SUB SUB DUP2 MSTORE SWAP1 PUSH1 0x40 MSTORE SWAP1 POP SWAP2 SWAP1 POP JUMP JUMPDEST PUSH1 0x60 DUP4 DUP3 DUP5 DUP8 PUSH1 0x40 MLOAD PUSH1 0x20 ADD PUSH2 0x151 SWAP5 SWAP4 SWAP3 SWAP2 SWAP1 PUSH2 0xAE05 JUMP JUMPDEST PUSH1 0x40 MLOAD PUSH1 0x20 DUP2 DUP4 SUB SUB DUP2 MSTORE SWAP1 PUSH1 0x40 MSTORE SWAP1 POP SWAP5 SWAP4 POP POP POP POP JUMP JUMPDEST PUSH1 0x60 PUSH1 0x40 MLOAD DUP1 PUSH1 0x40 ADD PUSH1 0x40 MSTORE DUP1 PUSH1 0x14 DUP2 MSTORE PUSH1 0x20 ADD PUSH32 0x3C626F64793E3C2F626F64793E3C2F68746D6C3E000000000000000000000000 DUP2 MSTORE POP SWAP1 POP SWAP1 JUMP JUMPDEST PUSH0 DUP2 MLOAD SWAP1 POP SWAP2 SWAP1 POP JUMP JUMPDEST PUSH0 DUP3 DUP3 MSTORE PUSH1 0x20 DUP3 ADD SWAP1 POP SWAP3 SWAP2 POP POP JUMP JUMPDEST DUP3 DUP2 DUP4 MCOPY PUSH0 DUP4 DUP4 ADD MSTORE POP POP POP JUMP JUMPDEST PUSH0 PUSH1 0x1F NOT PUSH1 0x1F DUP4 ADD AND SWAP1 POP SWAP2 SWAP1 POP JUMP JUMPDEST PUSH0 PUSH2 0x1E9 DUP3 PUSH2 0x1A7 JUMP JUMPDEST PUSH2 0x1F3 DUP2 DUP6 PUSH2 0x1B1 JUMP JUMPDEST SWAP4 POP PUSH2 0x203 DUP2 DUP6 PUSH1 0x20 DUP7 ADD PUSH2 0x1C1 JUMP JUMPDEST PUSH2 0x20C DUP2 PUSH2 0x1CF JUMP JUMPDEST DUP5 ADD SWAP2 POP POP SWAP3 SWAP2 POP POP JUMP JUMPDEST PUSH0 PUSH1 0x20 DUP3 ADD SWAP1 POP DUP2 DUP2 SUB PUSH0 DUP4 ADD MSTORE PUSH2 0x22F DUP2 DUP5 PUSH2 0x1DF JUMP JUMPDEST SWAP1 POP SWAP3 SWAP2 POP POP JUMP JUMPDEST PUSH0 PUSH1 0x40 MLOAD SWAP1 POP SWAP1 JUMP JUMPDEST PUSH0 DUP1 REVERT JUMPDEST PUSH0 DUP1 REVERT JUMPDEST PUSH0 DUP2 SWAP1 POP SWAP2 SWAP1 POP JUMP JUMPDEST PUSH2 0x25A DUP2 PUSH2 0x248 JUMP JUMPDEST DUP2 EQ PUSH2 0x264 JUMPI PUSH0 DUP1 REVERT JUMPDEST POP JUMP JUMPDEST PUSH0 DUP2 CALLDATALOAD SWAP1 POP PUSH2 0x275 DUP2 PUSH2 0x251 JUMP JUMPDEST SWAP3 SWAP2 POP POP JUMP JUMPDEST PUSH0 PUSH1 0x20 DUP3 DUP5 SUB SLT ISZERO PUSH2 0x290 JUMPI PUSH2 0x28F PUSH2 0x240 JUMP JUMPDEST JUMPDEST PUSH0 PUSH2 0x29D DUP5 DUP3 DUP6 ADD PUSH2 0x267 JUMP JUMPDEST SWAP2 POP POP SWAP3 SWAP2 POP POP JUMP JUMPDEST PUSH0 DUP2 SWAP1 POP SWAP2 SWAP1 POP JUMP JUMPDEST PUSH2 0x2B8 DUP2 PUSH2 0x2A6 JUMP JUMPDEST DUP2 EQ PUSH2 0x2C2 JUMPI PUSH0 DUP1 REVERT JUMPDEST POP JUMP JUMPDEST PUSH0 DUP2 CALLDATALOAD SWAP1 POP PUSH2 0x2D3 DUP2 PUSH2 0x2AF JUMP JUMPDEST SWAP3 SWAP2 POP POP JUMP JUMPDEST PUSH0 DUP1 REVERT JUMPDEST PUSH0 DUP1 REVERT JUMPDEST PUSH32 0x4E487B7100000000000000000000000000000000000000000000000000000000 PUSH0 MSTORE PUSH1 0x41 PUSH1 0x4 MSTORE PUSH1 0x24 PUSH0 REVERT JUMPDEST PUSH2 0x317 DUP3 PUSH2 0x1CF JUMP JUMPDEST DUP2 ADD DUP2 DUP2 LT PUSH8 0xFFFFFFFFFFFFFFFF DUP3 GT OR ISZERO PUSH2 0x336 JUMPI PUSH2 0x335 PUSH2 0x2E1 JUMP JUMPDEST JUMPDEST DUP1 PUSH1 0x40 MSTORE POP POP POP JUMP JUMPDEST PUSH0 PUSH2 0x348 PUSH2 0x237 JUMP JUMPDEST SWAP1 POP PUSH2 0x354 DUP3 DUP3 PUSH2 0x30E JUMP JUMPDEST SWAP2 SWAP1 POP JUMP JUMPDEST PUSH0 PUSH8 0xFFFFFFFFFFFFFFFF DUP3 GT ISZERO PUSH2 0x373 JUMPI PUSH2 0x372 PUSH2 0x2E1 JUMP JUMPDEST JUMPDEST PUSH2 0x37C DUP3 PUSH2 0x1CF JUMP JUMPDEST SWAP1 POP PUSH1 0x20 DUP2 ADD SWAP1 POP SWAP2 SWAP1 POP JUMP JUMPDEST DUP3 DUP2 DUP4 CALLDATACOPY PUSH0 DUP4 DUP4 ADD MSTORE POP POP POP JUMP JUMPDEST PUSH0 PUSH2 0x3A9 PUSH2 0x3A4 DUP5 PUSH2 0x359 JUMP JUMPDEST PUSH2 0x33F JUMP JUMPDEST SWAP1 POP DUP3 DUP2 MSTORE PUSH1 0x20 DUP2 ADD DUP5 DUP5 DUP5 ADD GT ISZERO PUSH2 0x3C5 JUMPI PUSH2 0x3C4 PUSH2 0x2DD JUMP JUMPDEST JUMPDEST PUSH2 0x3D0 DUP5 DUP3 DUP6 PUSH2 0x389 JUMP JUMPDEST POP SWAP4 SWAP3 POP POP POP JUMP JUMPDEST PUSH0 DUP3 PUSH1 0x1F DUP4 ADD SLT PUSH2 0x3EC JUMPI PUSH2 0x3EB PUSH2 0x2D9 JUMP JUMPDEST JUMPDEST DUP2 CALLDATALOAD PUSH2 0x3FC DUP5 DUP3 PUSH1 0x20 DUP7 ADD PUSH2 0x397 JUMP JUMPDEST SWAP2 POP POP SWAP3 SWAP2 POP POP JUMP JUMPDEST PUSH0 DUP1 PUSH0 DUP1 PUSH1 0x80 DUP6 DUP8 SUB SLT ISZERO PUSH2 0x41D JUMPI PUSH2 0x41C PUSH2 0x240 JUMP JUMPDEST JUMPDEST PUSH0 PUSH2 0x42A DUP8 DUP3 DUP9 ADD PUSH2 0x267 JUMP JUMPDEST SWAP5 POP POP PUSH1 0x20 PUSH2 0x43B DUP8 DUP3 DUP9 ADD PUSH2 0x267 JUMP JUMPDEST SWAP4 POP POP PUSH1 0x40 PUSH2 0x44C DUP8 DUP3 DUP9 ADD PUSH2 0x2C5 JUMP JUMPDEST SWAP3 POP POP PUSH1 0x60 DUP6 ADD CALLDATALOAD PUSH8 0xFFFFFFFFFFFFFFFF DUP2 GT ISZERO PUSH2 0x46D JUMPI PUSH2 0x46C PUSH2 0x244 JUMP JUMPDEST JUMPDEST PUSH2 0x479 DUP8 DUP3 DUP9 ADD PUSH2 0x3D8 JUMP JUMPDEST SWAP2 POP POP SWAP3 SWAP6 SWAP2 SWAP5 POP SWAP3 POP JUMP JUMPDEST PUSH0 DUP2 SWAP1 POP SWAP3 SWAP2 POP POP JUMP JUMPDEST PUSH32 0x3C7376672077696474683D2736333027206865696768743D2736333027207669 PUSH0 DUP3 ADD MSTORE PUSH32 0x6577426F783D2730203020363330203633302720786D6C6E733D27687474703A PUSH1 0x20 DUP3 ADD MSTORE PUSH32 0x2F2F7777772E77332E6F72672F323030302F73766727207374796C653D277769 PUSH1 0x40 DUP3 ADD MSTORE PUSH32 0x6474683A2033363070783B206865696768743A2033363070783B206F76657266 PUSH1 0x60 DUP3 ADD MSTORE PUSH32 0x6C6F773A2068696464656E3B273E3C2F7376673E000000000000000000000000 PUSH1 0x80 DUP3 ADD MSTORE POP JUMP JUMPDEST PUSH0 PUSH2 0x55B PUSH1 0x94 DUP4 PUSH2 0x485 JUMP JUMPDEST SWAP2 POP PUSH2 0x566 DUP3 PUSH2 0x48F JUMP JUMPDEST PUSH1 0x94 DUP3 ADD SWAP1 POP SWAP2 SWAP1 POP JUMP JUMPDEST PUSH0 PUSH2 0x57B DUP3 PUSH2 0x54F JUMP JUMPDEST SWAP2 POP DUP2 SWAP1 POP SWAP2 SWAP1 POP JUMP JUMPDEST PUSH32 0x3C21646F63747970652068746D6C3E3C68746D6C206C616E673D656E3E3C6D65 PUSH0 DUP3 ADD MSTORE PUSH32 0x746120636861727365743D7574662D383E3C7469746C653E496E766572746562 PUSH1 0x20 DUP3 ADD MSTORE PUSH32 0x7261746573202300000000000000000000000000000000000000000000000000 PUSH1 0x40 DUP3 ADD MSTORE POP JUMP JUMPDEST PUSH0 PUSH2 0x605 PUSH1 0x47 DUP4 PUSH2 0x485 JUMP JUMPDEST SWAP2 POP PUSH2 0x610 DUP3 PUSH2 0x585 JUMP JUMPDEST PUSH1 0x47 DUP3 ADD SWAP1 POP SWAP2 SWAP1 POP JUMP JUMPDEST PUSH0 DUP2 SWAP1 POP SWAP2 SWAP1 POP JUMP JUMPDEST PUSH2 0x635 PUSH2 0x630 DUP3 PUSH2 0x248 JUMP JUMPDEST PUSH2 0x61B JUMP JUMPDEST DUP3 MSTORE POP POP JUMP JUMPDEST PUSH32 0x20627920416E64726577204D69746368656C6C203C2F7469746C653E3C736372 PUSH0 DUP3 ADD MSTORE PUSH32 0x6970743E6C657420636F6C6F724E616D65733D5B7B6E616D653A274372696D73 PUSH1 0x20 DUP3 ADD MSTORE PUSH32 0x6F6E272C636F6C6F723A2723386530643030277D2C7B6E616D653A274D6F7373 PUSH1 0x40 DUP3 ADD MSTORE PUSH32 0x272C636F6C6F723A2723633863363939277D2C7B6E616D653A274D69646E6967 PUSH1 0x60 DUP3 ADD MSTORE PUSH32 0x6874272C636F6C6F723A2723303631343263277D2C7B6E616D653A274D616765 PUSH1 0x80 DUP3 ADD MSTORE PUSH32 0x6E7461272C636F6C6F723A2723633732323663277D2C7B6E616D653A27536361 PUSH1 0xA0 DUP3 ADD MSTORE PUSH32 0x726C6574272C636F6C6F723A2723373430303030277D2C7B6E616D653A275461 PUSH1 0xC0 DUP3 ADD MSTORE PUSH32 0x757065272C636F6C6F723A2723383737623564277D2C7B6E616D653A2753616E PUSH1 0xE0 DUP3 ADD MSTORE PUSH32 0x64272C636F6C6F723A2723653864326139277D2C7B6E616D653A274F6E797827 PUSH2 0x100 DUP3 ADD MSTORE PUSH32 0x2C636F6C6F723A2723313231353164277D2C7B6E616D653A2750617374656C27 PUSH2 0x120 DUP3 ADD MSTORE PUSH32 0x2C636F6C6F723A2723633462663935277D2C7B6E616D653A2750696E6B272C63 PUSH2 0x140 DUP3 ADD MSTORE PUSH32 0x6F6C6F723A2723643332353837277D2C7B6E616D653A274F6C697665272C636F PUSH2 0x160 DUP3 ADD MSTORE PUSH32 0x6C6F723A2723633563616239277D2C7B6E616D653A27536C617465272C636F6C PUSH2 0x180 DUP3 ADD MSTORE PUSH32 0x6F723A2723313731623139277D2C7B6E616D653A2752756279272C636F6C6F72 PUSH2 0x1A0 DUP3 ADD MSTORE PUSH32 0x3A2723626332633065277D2C7B6E616D653A274D61726F6F6E272C636F6C6F72 PUSH2 0x1C0 DUP3 ADD MSTORE PUSH32 0x3A2723373930323133277D2C7B6E616D653A275465616C272C636F6C6F723A27 PUSH2 0x1E0 DUP3 ADD MSTORE PUSH32 0x23313332653262277D2C7B6E616D653A2742757267756E6479272C636F6C6F72 PUSH2 0x200 DUP3 ADD MSTORE PUSH32 0x3A2723393532383332277D2C7B6E616D653A27416D626572272C636F6C6F723A PUSH2 0x220 DUP3 ADD MSTORE PUSH32 0x2723656236353231277D2C7B6E616D653A2749766F7279272C636F6C6F723A27 PUSH2 0x240 DUP3 ADD MSTORE PUSH32 0x23653364366337277D2C7B6E616D653A27536E6F77272C636F6C6F723A272366 PUSH2 0x260 DUP3 ADD MSTORE PUSH32 0x3765626533277D2C7B6E616D653A274E617679272C636F6C6F723A2723303030 PUSH2 0x280 DUP3 ADD MSTORE PUSH32 0x333236277D2C7B6E616D653A274C696E656E272C636F6C6F723A272365646564 PUSH2 0x2A0 DUP3 ADD MSTORE PUSH32 0x6465277D2C7B6E616D653A27417368272C636F6C6F723A272364373261326627 PUSH2 0x2C0 DUP3 ADD MSTORE PUSH32 0x7D2C7B6E616D653A27436F616C272C636F6C6F723A2723646364376337277D2C PUSH2 0x2E0 DUP3 ADD MSTORE PUSH32 0x7B6E616D653A2752757374272C636F6C6F723A2723643764396335277D2C7B6E PUSH2 0x300 DUP3 ADD MSTORE PUSH32 0x616D653A27456D6572616C64272C636F6C6F723A2723303036623362277D2C7B PUSH2 0x320 DUP3 ADD MSTORE PUSH32 0x6E616D653A27417A757265272C636F6C6F723A2723303037666666277D2C7B6E PUSH2 0x340 DUP3 ADD MSTORE PUSH32 0x616D653A2748617A656C272C636F6C6F723A2723306231353166277D2C7B6E61 PUSH2 0x360 DUP3 ADD MSTORE PUSH32 0x6D653A274379616E272C636F6C6F723A2723303066666666277D2C7B6E616D65 PUSH2 0x380 DUP3 ADD MSTORE PUSH32 0x3A27466F72657374272C636F6C6F723A2723323238623232277D2C7B6E616D65 PUSH2 0x3A0 DUP3 ADD MSTORE PUSH32 0x3A2743686573746E7574272C636F6C6F723A2723393534353335277D2C7B6E61 PUSH2 0x3C0 DUP3 ADD MSTORE PUSH32 0x6D653A2742726F6E7A65272C636F6C6F723A2723636437663332277D2C7B6E61 PUSH2 0x3E0 DUP3 ADD MSTORE PUSH32 0x6D653A27476F6C64272C636F6C6F723A2723666664373030277D2C7B6E616D65 PUSH2 0x400 DUP3 ADD MSTORE PUSH32 0x3A275465616C272C636F6C6F723A2723303038303830277D2C7B6E616D653A27 PUSH2 0x420 DUP3 ADD MSTORE PUSH32 0x436F62616C74272C636F6C6F723A2723303034376162277D2C7B6E616D653A27 PUSH2 0x440 DUP3 ADD MSTORE PUSH32 0x4265696765272C636F6C6F723A2723663566356463277D2C7B6E616D653A2749 PUSH2 0x460 DUP3 ADD MSTORE PUSH32 0x6E6469676F272C636F6C6F723A2723346230303832277D2C7B6E616D653A2746 PUSH2 0x480 DUP3 ADD MSTORE PUSH32 0x61776E272C636F6C6F723A2723653662656666277D2C7B6E616D653A27536162 PUSH2 0x4A0 DUP3 ADD MSTORE PUSH32 0x6C65272C636F6C6F723A2723626261613937277D2C7B6E616D653A27536B7927 PUSH2 0x4C0 DUP3 ADD MSTORE PUSH32 0x2C636F6C6F723A2723383763656562277D2C7B6E616D653A275461776E79272C PUSH2 0x4E0 DUP3 ADD MSTORE PUSH32 0x636F6C6F723A2723636435373030277D2C7B6E616D653A274A616465272C636F PUSH2 0x500 DUP3 ADD MSTORE PUSH32 0x6C6F723A2723303041383642277D2C7B6E616D653A274F6273696469616E272C PUSH2 0x520 DUP3 ADD MSTORE PUSH32 0x636F6C6F723A2723303030303030277D2C7B6E616D653A27436F70706572272C PUSH2 0x540 DUP3 ADD MSTORE PUSH32 0x636F6C6F723A2723623837333333277D2C7B6E616D653A274C696D65272C636F PUSH2 0x560 DUP3 ADD MSTORE PUSH32 0x6C6F723A2723303066663030277D2C7B6E616D653A274F6365616E272C636F6C PUSH2 0x580 DUP3 ADD MSTORE PUSH32 0x6F723A2723346139366164277D2C7B6E616D653A274D696E74272C636F6C6F72 PUSH2 0x5A0 DUP3 ADD MSTORE PUSH32 0x3A2723336562343839277D2C7B6E616D653A275361707068697265272C636F6C PUSH2 0x5C0 DUP3 ADD MSTORE PUSH32 0x6F723A2723306635326261277D2C7B6E616D653A27537465656C272C636F6C6F PUSH2 0x5E0 DUP3 ADD MSTORE PUSH32 0x723A2723343638326234277D2C7B6E616D653A275371756964272C636F6C6F72 PUSH2 0x600 DUP3 ADD MSTORE PUSH32 0x3A2723383641353943277D2C7B6E616D653A27436572756C65616E272C636F6C PUSH2 0x620 DUP3 ADD MSTORE PUSH32 0x6F723A2723303037626137277D2C7B6E616D653A2749766F7279272C636F6C6F PUSH2 0x640 DUP3 ADD MSTORE PUSH32 0x723A2723666666666630277D2C7B6E616D653A27437265616D272C636F6C6F72 PUSH2 0x660 DUP3 ADD MSTORE PUSH32 0x3A2723666666646430277D2C7B6E616D653A27506F77646572272C636F6C6F72 PUSH2 0x680 DUP3 ADD MSTORE PUSH32 0x3A2723623065306536277D2C7B6E616D653A274D696E74272C636F6C6F723A27 PUSH2 0x6A0 DUP3 ADD MSTORE PUSH32 0x23393866663938277D2C7B6E616D653A274E617679272C636F6C6F723A272330 PUSH2 0x6C0 DUP3 ADD MSTORE PUSH32 0x3030303830277D2C7B6E616D653A274F6C697665272C636F6C6F723A27233830 PUSH2 0x6E0 DUP3 ADD MSTORE PUSH32 0x38303030277D2C7B6E616D653A2745626F6E79272C636F6C6F723A2723353535 PUSH2 0x700 DUP3 ADD MSTORE PUSH32 0x643530277D5D2C636F6C6F72733D5B5B27386530643030272C27376130613030 PUSH2 0x720 DUP3 ADD MSTORE PUSH32 0x272C27613330653030272C27363630393030272C27396461333332272C273937 PUSH2 0x740 DUP3 ADD MSTORE PUSH32 0x39633330272C27623562623361272C27636262643532272C2763326233336127 PUSH2 0x760 DUP3 ADD MSTORE PUSH32 0x2C27616235663465272C27613135623461272C27353636383436272C27373361 PUSH2 0x780 DUP3 ADD MSTORE PUSH32 0x376139272C27623739373662272C27653164396332275D2C5B27633863363939 PUSH2 0x7A0 DUP3 ADD MSTORE PUSH32 0x272C27633463323932272C27636263383935272C27326336643431272C273262 PUSH2 0x7C0 DUP3 ADD MSTORE PUSH32 0x36393366272C27326236653430272C27356661353935272C2736306133393327 PUSH2 0x7E0 DUP3 ADD MSTORE PUSH32 0x2C27386533663161272C27386133643139272C27633232643362272C27396662 PUSH2 0x800 DUP3 ADD MSTORE PUSH32 0x343664272C27326131363136272C27633038303437275D2C5B27303631343263 PUSH2 0x820 DUP3 ADD MSTORE PUSH32 0x272C27303731363331272C27303631343264272C27303531323239272C276532 PUSH2 0x840 DUP3 ADD MSTORE PUSH32 0x64326163272C27653364346231272C27653364356235272C2761366231356427 PUSH2 0x860 DUP3 ADD MSTORE PUSH32 0x2C27613461663561272C27353638303437272C27353437653435272C27653861 PUSH2 0x880 DUP3 ADD MSTORE PUSH32 0x653737272C27613737643464272C27623134343364272C27323736363837275D PUSH2 0x8A0 DUP3 ADD MSTORE PUSH32 0x2C5B27633732323663272C27636432333666272C27633732333664272C276335 PUSH2 0x8C0 DUP3 ADD MSTORE PUSH32 0x32303661272C27626261643236272C27626561663237272C2762396162323727 PUSH2 0x8E0 DUP3 ADD MSTORE PUSH32 0x2C27343537613131272C27343737653131272C27326635313737272C27333135 PUSH2 0x900 DUP3 ADD MSTORE PUSH32 0x343763272C27633234313937272C27643439366265272C27363139626137272C PUSH2 0x920 DUP3 ADD MSTORE PUSH32 0x27626162633966275D2C5B27373430303030272C27376130303030272C273730 PUSH2 0x940 DUP3 ADD MSTORE PUSH32 0x30313031272C27373530313031272C27356439393861272C2735663962386327 PUSH2 0x960 DUP3 ADD MSTORE PUSH32 0x2C27623638643037272C27626139303037272C27623538643038272C27356339 PUSH2 0x980 DUP3 ADD MSTORE PUSH32 0x393861272C27643963666139272C27643963666136272C27336537323261272C PUSH2 0x9A0 DUP3 ADD MSTORE PUSH32 0x27393937393263275D2C5B27383737623564272C27383437393563272C273839 PUSH2 0x9C0 DUP3 ADD MSTORE PUSH32 0x37633564272C27653363353661272C27653263323635272C2765336336366427 PUSH2 0x9E0 DUP3 ADD MSTORE PUSH32 0x2C27633462616136272C27633962666163272C27323632653132272C27323432 PUSH2 0xA00 DUP3 ADD MSTORE PUSH32 0x633131272C27366438313533272C27383134663036272C27363430363133272C PUSH2 0xA20 DUP3 ADD MSTORE PUSH32 0x27346538303933275D2C5B27653864326139272C27656164336139272C276561 PUSH2 0xA40 DUP3 ADD MSTORE PUSH32 0x64356165272C27653763666132272C27653864316136272C2765386433616227 PUSH2 0xA60 DUP3 ADD MSTORE PUSH32 0x2C27623632303165272C27623332313165272C27336637393966272C27343037 PUSH2 0xA80 DUP3 ADD MSTORE PUSH32 0x373963272C27613439323238272C27613038653237272C27356536643333272C PUSH2 0xAA0 DUP3 ADD MSTORE PUSH32 0x27353936383331275D2C5B27313231353164272C27313031323139272C273065 PUSH2 0xAC0 DUP3 ADD MSTORE PUSH32 0x31303136272C27636562333162272C27636262313161272C2763376164316127 PUSH2 0xAE0 DUP3 ADD MSTORE PUSH32 0x2C27376630623235272C27373530613231272C27626537313133272C27623436 PUSH2 0xB00 DUP3 ADD MSTORE PUSH32 0x633133272C27333937373438272C27636234623436272C27343038313735272C PUSH2 0xB20 DUP3 ADD MSTORE PUSH32 0x27643764393862275D2C5B27633462663935272C27633863343964272C276363 PUSH2 0xB40 DUP3 ADD MSTORE PUSH32 0x63386134272C27356137383064272C27353236653063272C2735363734306227 PUSH2 0xB60 DUP3 ADD MSTORE PUSH32 0x2C27373939333431272C27376539613432272C27613438383563272C27613638 PUSH2 0xB80 DUP3 ADD MSTORE PUSH32 0x633634272C27616462323739272C27616361663833272C27633863313438272C PUSH2 0xBA0 DUP3 ADD MSTORE PUSH32 0x27626338663264275D2C5B27643332353837272C27646434303939272C276430 PUSH2 0xBC0 DUP3 ADD MSTORE PUSH32 0x32353836272C27646132663930272C27653663323262272C2765616339343827 PUSH2 0xBE0 DUP3 ADD MSTORE PUSH32 0x2C27366337653237272C27373938633262272C27653664323734272C27663566 PUSH2 0xC00 DUP3 ADD MSTORE PUSH32 0x356635272C27616235643134275D2C5B27633563616239272C27636163666266 PUSH2 0xC20 DUP3 ADD MSTORE PUSH32 0x272C27633063366233272C27633663646237272C27383230303330272C273761 PUSH2 0xC40 DUP3 ADD MSTORE PUSH32 0x30303264272C27356238613363272C27353738333361272C2763323966303027 PUSH2 0xC60 DUP3 ADD MSTORE PUSH32 0x2C27346531623166272C27326434633330272C27383562323835275D2C5B2731 PUSH2 0xC80 DUP3 ADD MSTORE PUSH32 0x3731623139272C27323632633239272C27313331363134272C27323332393236 PUSH2 0xCA0 DUP3 ADD MSTORE PUSH32 0x272C27613931343032272C27613231313031272C27636131363032272C276430 PUSH2 0xCC0 DUP3 ADD MSTORE PUSH32 0x39353134272C27636339323134272C27653961393230272C2733613632316627 PUSH2 0xCE0 DUP3 ADD MSTORE PUSH32 0x2C27376261313764272C27653665316134275D2C5B27626332633065272C2762 PUSH2 0xD00 DUP3 ADD MSTORE PUSH32 0x3232363061272C27616433363166272C27323634653636272C27326135623739 PUSH2 0xD20 DUP3 ADD MSTORE PUSH32 0x272C27316433653533272C27663065306233272C27633961323636272C276331 PUSH2 0xD40 DUP3 ADD MSTORE PUSH32 0x39333465272C27636461373730272C27373138333163272C2737633866316527 PUSH2 0xD60 DUP3 ADD MSTORE PUSH32 0x2C27663065306233272C27663365386338275D2C5B27373930323133272C2736 PUSH2 0xD80 DUP3 ADD MSTORE PUSH32 0x3930323131272C27373430363137272C27373430323133272C27623138643336 PUSH2 0xDA0 DUP3 ADD MSTORE PUSH32 0x272C27616338383335272C27613438323332272C27646364396236272C276436 PUSH2 0xDC0 DUP3 ADD MSTORE PUSH32 0x64326139272C27646264386238272C27333432333334272C2733663034313727 PUSH2 0xDE0 DUP3 ADD MSTORE PUSH32 0x2C27383763646265272C27633034303762275D2C5B27313332653262272C2730 PUSH2 0xE00 DUP3 ADD MSTORE PUSH32 0x6632343232272C27313733363332272C27633062313164272C27623661363162 PUSH2 0xE20 DUP3 ADD MSTORE PUSH32 0x272C27323737303364272C27323536613361272C27306535363837272C273130 PUSH2 0xE40 DUP3 ADD MSTORE PUSH32 0x35663934272C27633532633131272C27623232383130272C2764393834373327 PUSH2 0xE60 DUP3 ADD MSTORE PUSH32 0x2C27613438323332272C27366161383165272C27376563623939275D2C5B2739 PUSH2 0xE80 DUP3 ADD MSTORE PUSH32 0x3532383332272C27383132323263272C27393732313264272C27393039643535 PUSH2 0xEA0 DUP3 ADD MSTORE PUSH32 0x272C27393261313466272C27383238663464272C27666666616637272C276666 PUSH2 0xEC0 DUP3 ADD MSTORE PUSH32 0x66666666272C27623739373564272C27626461303662272C2736303932353127 PUSH2 0xEE0 DUP3 ADD MSTORE PUSH32 0x2C27373836633738272C27653638646238272C27396163616439275D2C5B2765 PUSH2 0xF00 DUP3 ADD MSTORE PUSH32 0x6236353231272C27656437363362272C27653036333234272C27633734363138 PUSH2 0xF20 DUP3 ADD MSTORE PUSH32 0x272C27626634343138272C27636634303063272C27613536613332272C276134 PUSH2 0xF40 DUP3 ADD MSTORE PUSH32 0x36393332272C27643763333134272C27646563623162272C2731313164366627 PUSH2 0xF60 DUP3 ADD MSTORE PUSH32 0x2C27613662636331272C27383630663231272C27326233373036275D2C5B2765 PUSH2 0xF80 DUP3 ADD MSTORE PUSH32 0x3364366337272C27656565366464272C27653064336332272C27656164666431 PUSH2 0xFA0 DUP3 ADD MSTORE PUSH32 0x272C27633030323264272C27623630323263272C27636130323331272C273732 PUSH2 0xFC0 DUP3 ADD MSTORE PUSH32 0x31353433272C27356131313336272C27376461323964272C2738356138613327 PUSH2 0xFE0 DUP3 ADD MSTORE PUSH32 0x2C27316434323630272C27316233653561272C27656238356337272C27383534 PUSH2 0x1000 DUP3 ADD MSTORE PUSH32 0x633863275D2C5B27663765626533272C27663966316562272C27663765386466 PUSH2 0x1020 DUP3 ADD MSTORE PUSH32 0x272C27663865626533272C27303130333035272C27303430643135272C273037 PUSH2 0x1040 DUP3 ADD MSTORE PUSH32 0x31643533272C27303631383436272C27323430643132272C2731613039306427 PUSH2 0x1060 DUP3 ADD MSTORE PUSH32 0x2C27663765626533272C27303130333035272C27303731643533272C27323430 PUSH2 0x1080 DUP3 ADD MSTORE PUSH32 0x643132272C27653361633335272C27653562323433272C27366132323237272C PUSH2 0x10A0 DUP3 ADD MSTORE PUSH32 0x27623535653430272C27333834613334272C27623561303163275D2C5B273030 PUSH2 0x10C0 DUP3 ADD MSTORE PUSH32 0x30333236272C27303030343333272C27303530303166272C2764306136323227 PUSH2 0x10E0 DUP3 ADD MSTORE PUSH32 0x2C27633739653233272C27613530303038272C27616130333063272C27636365 PUSH2 0x1100 DUP3 ADD MSTORE PUSH32 0x336439272C27643465376466272C27363338343966272C27373138666138272C PUSH2 0x1120 DUP3 ADD MSTORE PUSH32 0x27643938646330272C27303032386463272C27356437643637272C2762336334 PUSH2 0x1140 DUP3 ADD MSTORE PUSH32 0x3738275D2C5B27656465646465272C27653865386434272C2766316631653527 PUSH2 0x1160 DUP3 ADD MSTORE PUSH32 0x2C27653664323666272C27653864363764272C27653764333734272C27396637 PUSH2 0x1180 DUP3 ADD MSTORE PUSH32 0x653437272C27393737393434272C27656465386138272C27656665616166272C PUSH2 0x11A0 DUP3 ADD MSTORE PUSH32 0x27616337653961272C27656463346436272C27626133663666275D2C5B276437 PUSH2 0x11C0 DUP3 ADD MSTORE PUSH32 0x32613266272C27643933363362272C27636532373264272C2764323238326527 PUSH2 0x11E0 DUP3 ADD MSTORE PUSH32 0x2C27343839316432272C27343238656431272C27353339306336272C27653366 PUSH2 0x1200 DUP3 ADD MSTORE PUSH32 0x326436272C27656166356530272C27643865396338272C27643738643534272C PUSH2 0x1220 DUP3 ADD MSTORE PUSH32 0x27306631643664272C27366662343664272C27643038323938275D2C5B276463 PUSH2 0x1240 DUP3 ADD MSTORE PUSH32 0x64376337272C27643864326330272C27646564626365272C2764366430626427 PUSH2 0x1260 DUP3 ADD MSTORE PUSH32 0x2C27643063396234272C27643463646235272C27383830343138272C27393130 PUSH2 0x1280 DUP3 ADD MSTORE PUSH32 0x343161272C27343738313761272C27343337613734272C27623362643732272C PUSH2 0x12A0 DUP3 ADD MSTORE PUSH32 0x27323534333435272C27643738376135272C27643539633831275D2C5B276437 PUSH2 0x12C0 DUP3 ADD MSTORE PUSH32 0x64396335272C27643564376331272C27643964626337272C2764396462633727 PUSH2 0x12E0 DUP3 ADD MSTORE PUSH32 0x2C27623332623434272C27623632623434272C27623932643436272C27633538 PUSH2 0x1300 DUP3 ADD MSTORE PUSH32 0x343831272C27633738383835272C27633638343830275D2C5B27393336623030 PUSH2 0x1320 DUP3 ADD MSTORE PUSH32 0x272C27396537343030272C27386636393030272C27383636333033272C276362 PUSH2 0x1340 DUP3 ADD MSTORE PUSH32 0x35336136272C27636535616139272C27633734333964272C2763653535613727 PUSH2 0x1360 DUP3 ADD MSTORE PUSH32 0x2C27366130333430272C27373230343436272C27613731313138272C27623531 PUSH2 0x1380 DUP3 ADD MSTORE PUSH32 0x323161272C27313932333132272C27643561623030272C27353935313132272C PUSH2 0x13A0 DUP3 ADD MSTORE PUSH32 0x27383739643839275D2C5B27323837363265272C27323737323264272C273265 PUSH2 0x13C0 DUP3 ADD MSTORE PUSH32 0x38353335272C27323236643238272C27326437623334272C2733303765333627 PUSH2 0x13E0 DUP3 ADD MSTORE PUSH32 0x2C27666631373639272C27666631663664272C27666664656536272C27666665 PUSH2 0x1400 DUP3 ADD MSTORE PUSH32 0x356563272C27303032623964272C27336539653039272C27663766663665272C PUSH2 0x1420 DUP3 ADD MSTORE PUSH32 0x27383432643564275D2C5B27306231353166272C27313031663264272C273035 PUSH2 0x1440 DUP3 ADD MSTORE PUSH32 0x30613066272C27303431313166272C27366239373434272C2737376139346327 PUSH2 0x1460 DUP3 ADD MSTORE PUSH32 0x2C27623761643337272C27616461333334272C27363735353261272C27633765 PUSH2 0x1480 DUP3 ADD MSTORE PUSH32 0x366630272C27643939316637272C27336630613266275D2C5B27613964633937 PUSH2 0x14A0 DUP3 ADD MSTORE PUSH32 0x272C27626465346166272C27623765326137272C27613864393936272C276230 PUSH2 0x14C0 DUP3 ADD MSTORE PUSH32 0x64663966272C27616564646136272C27343364323532272C2733386363343727 PUSH2 0x14E0 DUP3 ADD MSTORE PUSH32 0x2C27623939646131272C27616433353632272C27633264656236272C27326534 PUSH2 0x1500 DUP3 ADD MSTORE PUSH32 0x313362272C27616462393361272C27393561646136275D2C5B27383261356130 PUSH2 0x1520 DUP3 ADD MSTORE PUSH32 0x272C27366539363930272C27376461313962272C27383061333965272C273866 PUSH2 0x1540 DUP3 ADD MSTORE PUSH32 0x61656139272C27383461343966272C27393539353835272C2739623962386327 PUSH2 0x1560 DUP3 ADD MSTORE PUSH32 0x2C27643464396366272C27636664346339272C27396561353533272C27373039 PUSH2 0x1580 DUP3 ADD MSTORE PUSH32 0x303137272C27326534343136275D2C5B27616539613663272C27623361303735 PUSH2 0x15A0 DUP3 ADD MSTORE PUSH32 0x272C27613639313565272C27393131643161272C27383631623138272C276130 PUSH2 0x15C0 DUP3 ADD MSTORE PUSH32 0x32313163272C27323534303536272C27316633353437272C2736353662353027 PUSH2 0x15E0 DUP3 ADD MSTORE PUSH32 0x2C27366237313536272C27623135623564272C27623435663631272C27346432 PUSH2 0x1600 DUP3 ADD MSTORE PUSH32 0x643334272C27356133353364275D2C5B27626136363662272C27626536663734 PUSH2 0x1620 DUP3 ADD MSTORE PUSH32 0x272C27623936343661272C27626536303636272C27623335363563272C276331 PUSH2 0x1640 DUP3 ADD MSTORE PUSH32 0x37363762272C27313630633066272C27306430373039272C2763626165396127 PUSH2 0x1660 DUP3 ADD MSTORE PUSH32 0x2C27643062366134272C27383430643262272C27346633333137272C27626536 PUSH2 0x1680 DUP3 ADD MSTORE PUSH32 0x333030272C27346631633432275D2C5B27633539653063272C27623739323062 PUSH2 0x16A0 DUP3 ADD MSTORE PUSH32 0x272C27643461393063272C27626339383135272C27636161313063272C276362 PUSH2 0x16C0 DUP3 ADD MSTORE PUSH32 0x61323130272C27396231623138272C27396231623138272C2733303330333127 PUSH2 0x16E0 DUP3 ADD MSTORE PUSH32 0x2C27333833383339272C27303036653266272C27303035633238272C27336535 PUSH2 0x1700 DUP3 ADD MSTORE PUSH32 0x393631272C27343436313661275D2C5B27326133623262272C27323633363237 PUSH2 0x1720 DUP3 ADD MSTORE PUSH32 0x272C27326634323330272C27626330653032272C27623630653032272C276363 PUSH2 0x1740 DUP3 ADD MSTORE PUSH32 0x31343030272C27653339663434272C27653239633430272C2766356533666627 PUSH2 0x1760 DUP3 ADD MSTORE PUSH32 0x2C27663865626666272C27336438326666272C27343238346666272C27313530 PUSH2 0x1780 DUP3 ADD MSTORE PUSH32 0x363138272C27313230353135275D2C5B27303033323833272C27303033373866 PUSH2 0x17A0 DUP3 ADD MSTORE PUSH32 0x272C27306332653634272C27306233343734272C27323734633836272C273033 PUSH2 0x17C0 DUP3 ADD MSTORE PUSH32 0x33363836272C27306232663662272C27306433363737272C2762366137333727 PUSH2 0x17E0 DUP3 ADD MSTORE PUSH32 0x2C27613939623332272C27633264396332272C27636164656361272C27306633 PUSH2 0x1800 DUP3 ADD MSTORE PUSH32 0x343465272C27306332623430272C27333038386135272C27326538323965275D PUSH2 0x1820 DUP3 ADD MSTORE PUSH32 0x2C5B27643963666131272C27643363373932272C27646464346163272C273230 PUSH2 0x1840 DUP3 ADD MSTORE PUSH32 0x35326434272C27316534656338272C27323635646538272C2762663364373627 PUSH2 0x1860 DUP3 ADD MSTORE PUSH32 0x2C27623233383664272C27636339613432272C27636239353361272C27383139 PUSH2 0x1880 DUP3 ADD MSTORE PUSH32 0x333339272C27386561323366272C27646564656465272C27653665366536275D PUSH2 0x18A0 DUP3 ADD MSTORE PUSH32 0x2C5B27316631393132272C27323731663136272C27316131353066272C273162 PUSH2 0x18C0 DUP3 ADD MSTORE PUSH32 0x31353065272C27313731323064272C27313331303062272C2734393864633727 PUSH2 0x18E0 DUP3 ADD MSTORE PUSH32 0x2C27346639306339272C27346638656334272C27643962323038272C27643461 PUSH2 0x1900 DUP3 ADD MSTORE PUSH32 0x653038272C27636661613037275D2C5B27314536414538272C27313736334445 PUSH2 0x1920 DUP3 ADD MSTORE PUSH32 0x272C27323436666530272C27313736346439272C27326135333134272C273236 PUSH2 0x1940 DUP3 ADD MSTORE PUSH32 0x34613132272C27373835303139272C27366534613137272C2736333530623627 PUSH2 0x1960 DUP3 ADD MSTORE PUSH32 0x2C27363835366238272C27383531613534272C27373731383463272C27613438 PUSH2 0x1980 DUP3 ADD MSTORE PUSH32 0x613135272C27396538343130272C27396633613034272C27393533373034275D PUSH2 0x19A0 DUP3 ADD MSTORE PUSH32 0x2C5B27636364316164272C27633863646137272C27643464386261272C276430 PUSH2 0x19C0 DUP3 ADD MSTORE PUSH32 0x64356234272C27633763653963272C27636664346230272C2735326161616127 PUSH2 0x19E0 DUP3 ADD MSTORE PUSH32 0x2C27353139653965272C27623830373137272C27616330363134272C27623939 PUSH2 0x1A00 DUP3 ADD MSTORE PUSH32 0x383535272C27396563326235272C27396338623934272C27326231363230275D PUSH2 0x1A20 DUP3 ADD MSTORE PUSH32 0x2C5B27326439326230272C27326639376236272C27323838666166272C273961 PUSH2 0x1A40 DUP3 ADD MSTORE PUSH32 0x37633332272C27393637393331272C27386537333265272C2763393161303027 PUSH2 0x1A60 DUP3 ADD MSTORE PUSH32 0x2C27626431393030272C27346239323039272C27343538363039272C27633934 PUSH2 0x1A80 DUP3 ADD MSTORE PUSH32 0x633237272C27643463373236272C27386136613735272C27313630653130275D PUSH2 0x1AA0 DUP3 ADD MSTORE PUSH32 0x2C5B27316632393531272C27313932323433272C27323232643539272C276635 PUSH2 0x1AC0 DUP3 ADD MSTORE PUSH32 0x64313537272C27663664343635272C27663664353661272C2738303461306327 PUSH2 0x1AE0 DUP3 ADD MSTORE PUSH32 0x2C27373534333062272C27333131663132272C27326431633131272C27653836 PUSH2 0x1B00 DUP3 ADD MSTORE PUSH32 0x353132272C27656536663230272C27666666376337272C27666666616436275D PUSH2 0x1B20 DUP3 ADD MSTORE PUSH32 0x2C5B27616138303563272C27616538373635272C27616538643666272C273534 PUSH2 0x1B40 DUP3 ADD MSTORE PUSH32 0x32383430272C27356132623435272C27343832333337272C2762313037323627 PUSH2 0x1B60 DUP3 ADD MSTORE PUSH32 0x2C27613630373234272C27343137373038272C27353238333165272C27373261 PUSH2 0x1B80 DUP3 ADD MSTORE PUSH32 0x323737272C27303032616432272C27373736623961272C27633964313931275D PUSH2 0x1BA0 DUP3 ADD MSTORE PUSH32 0x2C5B27313331613133272C27306631353066272C27313531653135272C273161 PUSH2 0x1BC0 DUP3 ADD MSTORE PUSH32 0x32333161272C27646262353662272C27646362383666272C2764656263373827 PUSH2 0x1BE0 DUP3 ADD MSTORE PUSH32 0x2C27643362303639272C27633463343761272C27636163613836272C27636463 PUSH2 0x1C00 DUP3 ADD MSTORE PUSH32 0x643865272C27343834313430272C27336533383337272C27313531653135272C PUSH2 0x1C20 DUP3 ADD MSTORE PUSH32 0x27626637363435272C27663265336334275D2C5B27613665336138272C276165 PUSH2 0x1C40 DUP3 ADD MSTORE PUSH32 0x65356166272C27623165376233272C27623565386237272C2761313739363127 PUSH2 0x1C60 DUP3 ADD MSTORE PUSH32 0x2C27393336653538272C27393937333563272C27393637313561272C27636530 PUSH2 0x1C80 DUP3 ADD MSTORE PUSH32 0x373435272C27633530373433272C27323035613234272C27316435333231272C PUSH2 0x1CA0 DUP3 ADD MSTORE PUSH32 0x27666134326131272C27643261343030272C27353539316239272C2731303065 PUSH2 0x1CC0 DUP3 ADD MSTORE PUSH32 0x3166275D2C5B27646263376136272C27646463616163272C2765316364616427 PUSH2 0x1CE0 DUP3 ADD MSTORE PUSH32 0x2C27306431323238272C27306130653166272C27313031363332272C27643730 PUSH2 0x1D00 DUP3 ADD MSTORE PUSH32 0x323030272C27653030343030272C27633330373034272C27343836393463272C PUSH2 0x1D20 DUP3 ADD MSTORE PUSH32 0x27343436343438272C27343035653434272C27643662333262272C2764376235 PUSH2 0x1D40 DUP3 ADD MSTORE PUSH32 0x3264272C27313232393438272C27313032363431275D2C5B2735373739363827 PUSH2 0x1D60 DUP3 ADD MSTORE PUSH32 0x2C27356538323730272C27346537333631272C27343837303563272C27353437 PUSH2 0x1D80 DUP3 ADD MSTORE PUSH32 0x333633272C27396364313934272C27613664363966272C27613964376132272C PUSH2 0x1DA0 DUP3 ADD MSTORE PUSH32 0x27626164666234272C27613364343962272C27653663373534272C2765313134 PUSH2 0x1DC0 DUP3 ADD MSTORE PUSH32 0x3030272C27373630303030275D2C5B27653364656230272C2765376533626227 PUSH2 0x1DE0 DUP3 ADD MSTORE PUSH32 0x2C27653665316237272C27653164626138272C27653565316238272C27653965 PUSH2 0x1E00 DUP3 ADD MSTORE PUSH32 0x346261272C27626663343761272C27633663613836272C27646564313665272C PUSH2 0x1E20 DUP3 ADD MSTORE PUSH32 0x27653064333736272C27646537643764272C27633962613636272C2762313737 PUSH2 0x1E40 DUP3 ADD MSTORE PUSH32 0x3631272C27626462333863275D2C5B27346638343635272C2734643830363227 PUSH2 0x1E60 DUP3 ADD MSTORE PUSH32 0x2C27356339393735272C27363661333830272C27393962386339272C27393462 PUSH2 0x1E80 DUP3 ADD MSTORE PUSH32 0x356337272C27616663376435272C27353236383630272C27343835623534272C PUSH2 0x1EA0 DUP3 ADD MSTORE PUSH32 0x27626261343838272C27633362303937272C27343832363261272C2735653331 PUSH2 0x1EC0 DUP3 ADD MSTORE PUSH32 0x3336272C27626132373237272C27326434396230272C27623038356264272C27 PUSH2 0x1EE0 DUP3 ADD MSTORE PUSH32 0x623039393461275D2C5B27346135636666272C27356336636666272C27373037 PUSH2 0x1F00 DUP3 ADD MSTORE PUSH32 0x656666272C27353136316630272C27353236336666272C27346135636666272C PUSH2 0x1F20 DUP3 ADD MSTORE PUSH32 0x27663764623435272C27663865323632272C27663764623362272C2766356334 PUSH2 0x1F40 DUP3 ADD MSTORE PUSH32 0x6538272C27663362396534272C27663964636631272C27663765366334272C27 PUSH2 0x1F60 DUP3 ADD MSTORE PUSH32 0x386161633330272C27333633363339272C27623939643634275D2C5B27646364 PUSH2 0x1F80 DUP3 ADD MSTORE PUSH32 0x636335272C27643964396266272C27653865386439272C27643164316233272C PUSH2 0x1FA0 DUP3 ADD MSTORE PUSH32 0x27626536643931272C27633638306130272C27623936343862272C2734393864 PUSH2 0x1FC0 DUP3 ADD MSTORE PUSH32 0x6133272C27343938646133272C27336636303162272C27333435303136272C27 PUSH2 0x1FE0 DUP3 ADD MSTORE PUSH32 0x373630303038272C27626338643137272C27333031663137272C276238363031 PUSH2 0x2000 DUP3 ADD MSTORE PUSH32 0x37275D2C5B27323336323634272C27323035393562272C27326137363739272C PUSH2 0x2020 DUP3 ADD MSTORE PUSH32 0x27333038353838272C27666636366131272C27666638356234272C2766663939 PUSH2 0x2040 DUP3 ADD MSTORE PUSH32 0x6330272C27666635633961272C27393262383763272C27396362663838272C27 PUSH2 0x2060 DUP3 ADD MSTORE PUSH32 0x663731343234272C27663732363334272C27346432663262272C276465373434 PUSH2 0x2080 DUP3 ADD MSTORE PUSH32 0x63272C27666365336564275D2C5B27303231393932272C27303332306235272C PUSH2 0x20A0 DUP3 ADD MSTORE PUSH32 0x27303231393864272C27616136303065272C27393735363063272C2764303737 PUSH2 0x20C0 DUP3 ADD MSTORE PUSH32 0x3131272C27336539643832272C27343661663931272C27656265386536272C27 PUSH2 0x20E0 DUP3 ADD MSTORE PUSH32 0x663566326630275D2C5B27366662313537272C27376262383635272C27363561 PUSH2 0x2100 DUP3 ADD MSTORE PUSH32 0x383464272C27356439613437272C27623830303030272C27613330303030272C PUSH2 0x2120 DUP3 ADD MSTORE PUSH32 0x27636330303030272C27303232663765272C27303132363635272C2730643065 PUSH2 0x2140 DUP3 ADD MSTORE PUSH32 0x3136272C27313731393237272C27643435363964272C27653332383030272C27 PUSH2 0x2160 DUP3 ADD MSTORE PUSH32 0x653639613030272C27356363376337275D2C5B27643163323934272C27646163 PUSH2 0x2180 DUP3 ADD MSTORE PUSH32 0x656139272C27653064366238272C27636562653864272C27356237313731272C PUSH2 0x21A0 DUP3 ADD MSTORE PUSH32 0x27363437643764272C27366438383838272C27633731313030272C2761333065 PUSH2 0x21C0 DUP3 ADD MSTORE PUSH32 0x3030272C27623830663030272C27383639633630272C27373738623535272C27 PUSH2 0x21E0 DUP3 ADD MSTORE PUSH32 0x636139353434272C27643261343630275D2C5B27383763666530272C27376463 PUSH2 0x2200 DUP3 ADD MSTORE PUSH32 0x636465272C27366463366439272C27396564396536272C27363939323862272C PUSH2 0x2220 DUP3 ADD MSTORE PUSH32 0x27373139383931272C27383961396134272C27376461313962272C2731653632 PUSH2 0x2240 DUP3 ADD MSTORE PUSH32 0x6437272C27323836636532272C27316235396335272C27313634396132272C27 PUSH2 0x2260 DUP3 ADD MSTORE PUSH32 0x613339383030272C27386638353030275D2C5B27373661343766272C27383561 PUSH2 0x2280 DUP3 ADD MSTORE PUSH32 0x643864272C27393162363938272C27396462656134272C27303330643537272C PUSH2 0x22A0 DUP3 ADD MSTORE PUSH32 0x27303431323736272C27303531343861272C27303631373964272C2763666264 PUSH2 0x22C0 DUP3 ADD MSTORE PUSH32 0x3735272C27643563353836272C27613636363032272C27636137643032272C27 PUSH2 0x22E0 DUP3 ADD MSTORE PUSH32 0x323635313265272C27326536313337272C27643464396436272C276466653265 PUSH2 0x2300 DUP3 ADD MSTORE PUSH32 0x30275D2C5B27303231303435272C27303331383633272C27303431643737272C PUSH2 0x2320 DUP3 ADD MSTORE PUSH32 0x27303432313862272C27313037643461272C27306536633430272C2731333930 PUSH2 0x2340 DUP3 ADD MSTORE PUSH32 0x3536272C27313561323631272C27323762333834272C27326363393935272C27 PUSH2 0x2360 DUP3 ADD MSTORE PUSH32 0x336563363565272C27353263623665272C27386337343132272C276132383631 PUSH2 0x2380 DUP3 ADD MSTORE PUSH32 0x35272C27373639653133272C27383962373135275D2C5B27656464656235272C PUSH2 0x23A0 DUP3 ADD MSTORE PUSH32 0x27663365396365272C27656264396164272C27653764343963272C2734333665 PUSH2 0x23C0 DUP3 ADD MSTORE PUSH32 0x3230272C27346437653235272C27333034663137272C27653338633132272C27 PUSH2 0x23E0 DUP3 ADD MSTORE PUSH32 0x656439363164272C27663061373432272C27623861323763272C276531336634 PUSH2 0x2400 DUP3 ADD MSTORE PUSH32 0x34272C27343233373235272C27623035663035275D2C5B27313933353733272C PUSH2 0x2420 DUP3 ADD MSTORE PUSH32 0x27316433653836272C27323134363937272C27323534656137272C2735643863 PUSH2 0x2440 DUP3 ADD MSTORE PUSH32 0x6139272C27373961306239272C27366339376232272C27626462646235272C27 PUSH2 0x2460 DUP3 ADD MSTORE PUSH32 0x636663666339272C27623262326139272C27623838363864272C276333393839 PUSH2 0x2480 DUP3 ADD MSTORE PUSH32 0x65272C27376638393836272C27373637663763275D2C5B27363939626163272C PUSH2 0x24A0 DUP3 ADD MSTORE PUSH32 0x27376261386237272C27383962316265272C27376635613034272C2739653730 PUSH2 0x24C0 DUP3 ADD MSTORE PUSH32 0x3035272C27623137653036272C27303830623064272C27313031353139272C27 PUSH2 0x24E0 DUP3 ADD MSTORE PUSH32 0x313732303236272C27386437653030272C27613339333030272C273161343739 PUSH2 0x2500 DUP3 ADD MSTORE PUSH32 0x30272C27323035366163272C27393538333363272C27613435323030272C2764 PUSH2 0x2520 DUP3 ADD MSTORE PUSH32 0x6536663562272C27396631353030275D2C5B27346636643937272C2735663765 PUSH2 0x2540 DUP3 ADD MSTORE PUSH32 0x6162272C27366338396232272C27373939346239272C27333735343231272C27 PUSH2 0x2560 DUP3 ADD MSTORE PUSH32 0x333034393164272C27343336373238272C27346437363265272C273765326238 PUSH2 0x2580 DUP3 ADD MSTORE PUSH32 0x30272C27393733333939272C27316631613231272C27326232343265272C2731 PUSH2 0x25A0 DUP3 ADD MSTORE PUSH32 0x6633613838272C27623138333431272C27633436626261272C27366339313633 PUSH2 0x25C0 DUP3 ADD MSTORE PUSH32 0x275D2C5B27313132623733272C27313333303831272C27306632353632272C27 PUSH2 0x25E0 DUP3 ADD MSTORE PUSH32 0x316538376333272C27316337616230272C27316638396337272C273532613538 PUSH2 0x2600 DUP3 ADD MSTORE PUSH32 0x38272C27356261653931272C27346139363763272C27343834303638272C2734 PUSH2 0x2620 DUP3 ADD MSTORE PUSH32 0x6334343666272C27343433633632272C27616263666164272C27376439316163 PUSH2 0x2640 DUP3 ADD MSTORE PUSH32 0x272C27333638363766275D2C5B27343035333565272C27346136303664272C27 PUSH2 0x2660 DUP3 ADD MSTORE PUSH32 0x336134623535272C27353336623739272C27383238373266272C273932393733 PUSH2 0x2680 DUP3 ADD MSTORE PUSH32 0x35272C27613161363361272C27616662353430272C27313832653161272C2732 PUSH2 0x26A0 DUP3 ADD MSTORE PUSH32 0x3334333236272C27623862313732272C27633162623835272C27393636363536 PUSH2 0x26C0 DUP3 ADD MSTORE PUSH32 0x272C27633562313262272C27616135373330272C27626131633135275D2C5B27 PUSH2 0x26E0 DUP3 ADD MSTORE PUSH32 0x386364343965272C27613664656234272C27623565336330272C273739636438 PUSH2 0x2700 DUP3 ADD MSTORE PUSH32 0x65272C27633365396364272C27636366306363272C27646666366466272C2737 PUSH2 0x2720 DUP3 ADD MSTORE PUSH32 0x3563353631272C27386163643739272C27646262643537272C27623637313234 PUSH2 0x2740 DUP3 ADD MSTORE PUSH32 0x272C27653366326436272C27653064396462275D2C5B27333537643736272C27 PUSH2 0x2760 DUP3 ADD MSTORE PUSH32 0x343339643934272C27336438663837272C27333137323663272C273233353032 PUSH2 0x2780 DUP3 ADD MSTORE PUSH32 0x31272C27326336353239272C27333337343266272C27333735643231272C2734 PUSH2 0x27A0 DUP3 ADD MSTORE PUSH32 0x3737393261272C27353038383330272C27386638343230272C27336334343739 PUSH2 0x27C0 DUP3 ADD MSTORE PUSH32 0x272C27396532373463272C27336634373436275D2C5B27646264346332272C27 PUSH2 0x27E0 DUP3 ADD MSTORE PUSH32 0x663065646535272C27643263396232272C27653965346438272C276231626436 PUSH2 0x2800 DUP3 ADD MSTORE PUSH32 0x66272C27626263353831272C27396161383464272C27623162643666272C2739 PUSH2 0x2820 DUP3 ADD MSTORE PUSH32 0x3462333965272C27613062626138272C27376361323838272C27356237393636 PUSH2 0x2840 DUP3 ADD MSTORE PUSH32 0x272C27363938633736272C27646261383563272C27653262383739275D2C5B27 PUSH2 0x2860 DUP3 ADD MSTORE PUSH32 0x616438313239272C27633639343266272C27643039653339272C276434613634 PUSH2 0x2880 DUP3 ADD MSTORE PUSH32 0x39272C27316633343436272C27323533663535272C27326334393633272C2733 PUSH2 0x28A0 DUP3 ADD MSTORE PUSH32 0x3235343731272C27626635303335272C27636135623366272C27363037326437 PUSH2 0x28C0 DUP3 ADD MSTORE PUSH32 0x272C27376338626465272C27643161626261272C27646262646339272C273438 PUSH2 0x28E0 DUP3 ADD MSTORE PUSH32 0x33653565272C27353534393666275D2C5B27633462643939272C276263623338 PUSH2 0x2900 DUP3 ADD MSTORE PUSH32 0x61272C27643263646231272C27326234633931272C27333435616164272C2733 PUSH2 0x2920 DUP3 ADD MSTORE PUSH32 0x3836326263272C27616232333238272C27626132363262272C27636232613266 PUSH2 0x2940 DUP3 ADD MSTORE PUSH32 0x272C27356433383735272C27353733353665272C27373834393937272C273530 PUSH2 0x2960 DUP3 ADD MSTORE PUSH32 0x30643135272C27363931313162272C27616632663030272C2763633336303027 PUSH2 0x2980 DUP3 ADD MSTORE PUSH32 0x5D2C5B27633733323030272C27653033383030272C27663533643030272C2766 PUSH2 0x29A0 DUP3 ADD MSTORE PUSH32 0x6635373166272C27366361313665272C27356639353631272C27383361663834 PUSH2 0x29C0 DUP3 ADD MSTORE PUSH32 0x272C27386662373930272C27303031663830272C27303031663761272C273030 PUSH2 0x29E0 DUP3 ADD MSTORE PUSH32 0x31393636272C27316531383137272C27326532353233272C2764346439633727 PUSH2 0x2A00 DUP3 ADD MSTORE PUSH32 0x2C27653365366462275D2C5B27343734393566272C27336433663531272C2735 PUSH2 0x2A20 DUP3 ADD MSTORE PUSH32 0x3835613734272C27363036333830272C27373939373531272C27383961393630 PUSH2 0x2A40 DUP3 ADD MSTORE PUSH32 0x272C27393362303664272C27393837363334272C27613738333339272C276236 PUSH2 0x2A60 DUP3 ADD MSTORE PUSH32 0x38653365272C27646561623137272C27333534623166272C2762386233393427 PUSH2 0x2A80 DUP3 ADD MSTORE PUSH32 0x2C27636534653030275D2C5B27653665626462272C27653465396438272C2764 PUSH2 0x2AA0 DUP3 ADD MSTORE PUSH32 0x6265326361272C27643164626264272C27613865336230272C27633165626337 PUSH2 0x2AC0 DUP3 ADD MSTORE PUSH32 0x272C27643166306435272C27626539623030272C27653062373030272C276635 PUSH2 0x2AE0 DUP3 ADD MSTORE PUSH32 0x63383030272C27663239313033272C27666439643064272C2731393332386127 PUSH2 0x2B00 DUP3 ADD MSTORE PUSH32 0x2C27316333383962275D2C5B27646264346530272C27643764306464272C2763 PUSH2 0x2B20 DUP3 ADD MSTORE PUSH32 0x6463346434272C27633362386363272C27316631383139272C27326532333235 PUSH2 0x2B40 DUP3 ADD MSTORE PUSH32 0x272C27336132633265272C27343533353338272C27376135383132272C273865 PUSH2 0x2B60 DUP3 ADD MSTORE PUSH32 0x36363135272C27346534333637272C27356435313762272C2733373464333827 PUSH2 0x2B80 DUP3 ADD MSTORE PUSH32 0x2C27343435663435272C27326232663732272C27326232663732275D2C5B2731 PUSH2 0x2BA0 DUP3 ADD MSTORE PUSH32 0x3133653736272C27313434623866272C27313735356131272C27313935656233 PUSH2 0x2BC0 DUP3 ADD MSTORE PUSH32 0x272C27633463636230272C27643164376331272C27646164666364272C276533 PUSH2 0x2BE0 DUP3 ADD MSTORE PUSH32 0x65376461272C27376562383864272C27393663356132272C2736323563336627 PUSH2 0x2C00 DUP3 ADD MSTORE PUSH32 0x2C27373036393438272C27326632623232272C27353439326164272C27643036 PUSH2 0x2C20 DUP3 ADD MSTORE PUSH32 0x353030275D2C5B27376336313365272C27383836613434272C27393537353462 PUSH2 0x2C40 DUP3 ADD MSTORE PUSH32 0x272C27613338303532272C27663564343939272C27663463663930272C276632 PUSH2 0x2C60 DUP3 ADD MSTORE PUSH32 0x63373764272C27666163663239272C27663963613130272C2765666330303627 PUSH2 0x2C80 DUP3 ADD MSTORE PUSH32 0x2C27383032373266272C27323332343233272C27356562613737275D2C5B2730 PUSH2 0x2CA0 DUP3 ADD MSTORE PUSH32 0x3930643135272C27313231623262272C27313832333339272C27316632633437 PUSH2 0x2CC0 DUP3 ADD MSTORE PUSH32 0x272C27303832393630272C27303932663731272C27306233373834272C276533 PUSH2 0x2CE0 DUP3 ADD MSTORE PUSH32 0x30323030272C27666630653061272C27663264366465272C2765626331643127 PUSH2 0x2D00 DUP3 ADD MSTORE PUSH32 0x2C27363130623034272C27363166613437272C27303030376430272C27656461 PUSH2 0x2D20 DUP3 ADD MSTORE PUSH32 0x363735275D2C5B27313331653336272C27316232613462272C27323033333561 PUSH2 0x2D40 DUP3 ADD MSTORE PUSH32 0x272C27323533623661272C27326134333739272C27343536396666272C273333 PUSH2 0x2D60 DUP3 ADD MSTORE PUSH32 0x35636666272C27363438363664272C27373239373763272C2761326233393227 PUSH2 0x2D80 DUP3 ADD MSTORE PUSH32 0x2C27616462633966272C27626235633131272C27636436343133275D2C5B2763 PUSH2 0x2DA0 DUP3 ADD MSTORE PUSH32 0x3039333238272C27626138653236272C27643561353334272C27643961633435 PUSH2 0x2DC0 DUP3 ADD MSTORE PUSH32 0x272C27646362343536272C27343334383866272C27346535346136272C273862 PUSH2 0x2DE0 DUP3 ADD MSTORE PUSH32 0x34393030272C27376134313030272C27643663666334272C2764656438636627 PUSH2 0x2E00 DUP3 ADD MSTORE PUSH32 0x2C27353439323932272C27363461366136275D2C5B27613863326363272C2762 PUSH2 0x2E20 DUP3 ADD MSTORE PUSH32 0x6664326439272C27636364626531272C27643865346538272C27656465646363 PUSH2 0x2E40 DUP3 ADD MSTORE PUSH32 0x272C27656165616333272C27653465346234272C27646664666134272C273165 PUSH2 0x2E60 DUP3 ADD MSTORE PUSH32 0x32343331272C27323732663366272C27646333633339272C2765303534353227 PUSH2 0x2E80 DUP3 ADD MSTORE PUSH32 0x2C27396362616465272C27616536613432272C27656463666233275D2C5B2762 PUSH2 0x2EA0 DUP3 ADD MSTORE PUSH32 0x6439323862272C27633339643937272C27636261396134272C27373836663664 PUSH2 0x2EC0 DUP3 ADD MSTORE PUSH32 0x272C27386238313765272C27393438623839272C27636139373536272C276334 PUSH2 0x2EE0 DUP3 ADD MSTORE PUSH32 0x38643435272C27353239383539272C27363061393637272C2731613530333027 PUSH2 0x2F00 DUP3 ADD MSTORE PUSH32 0x2C27323336633430272C27366137613931272C27626531333264272C27643236 PUSH2 0x2F20 DUP3 ADD MSTORE PUSH32 0x303765272C27376633353766272C27303031336233272C27346431643062275D PUSH2 0x2F40 DUP3 ADD MSTORE PUSH32 0x2C5B27653865626530272C27653465376461272C27646264666364272C276431 PUSH2 0x2F60 DUP3 ADD MSTORE PUSH32 0x64376331272C27323933386666272C27343735346666272C2735633637666627 PUSH2 0x2F80 DUP3 ADD MSTORE PUSH32 0x2C27653834633030272C27666635633061272C27373961383030272C27393263 PUSH2 0x2FA0 DUP3 ADD MSTORE PUSH32 0x633030272C27636661653030272C27663563633030272C27326431376163272C PUSH2 0x2FC0 DUP3 ADD MSTORE PUSH32 0x27623638353035275D2C5B27643664656233272C27653065366336272C276538 PUSH2 0x2FE0 DUP3 ADD MSTORE PUSH32 0x65636434272C27643164616161272C27666166636436272C2766646665656327 PUSH2 0x3000 DUP3 ADD MSTORE PUSH32 0x2C27663866626336272C27626163323866272C27636564346230272C27633663 PUSH2 0x3020 DUP3 ADD MSTORE PUSH32 0x636133272C27383162383936272C27393763346138272C27393239323639272C PUSH2 0x3040 DUP3 ADD MSTORE PUSH32 0x27623864363934275D2C5B27656265366363272C27653865326334272C276532 PUSH2 0x3060 DUP3 ADD MSTORE PUSH32 0x64626236272C27663466316532272C27663966386630272C2762356533383227 PUSH2 0x3080 DUP3 ADD MSTORE PUSH32 0x2C27633465383962272C27636565636163272C27333036383330272C27336137 PUSH2 0x30A0 DUP3 ADD MSTORE PUSH32 0x653361272C27393933363133272C27666631633030275D2C5B27663263376230 PUSH2 0x30C0 DUP3 ADD MSTORE PUSH32 0x272C27663163316137272C27656562353936272C27663664616361272C276562 PUSH2 0x30E0 DUP3 ADD MSTORE PUSH32 0x61383834272C27373561323432272C27383862383531272C2735643633376427 PUSH2 0x3100 DUP3 ADD MSTORE PUSH32 0x2C27363836663864272C27643461343531272C27636436303238272C27306630 PUSH2 0x3120 DUP3 ADD MSTORE PUSH32 0x663161272C27633731643061275D2C5B27656265366434272C27656465396439 PUSH2 0x3140 DUP3 ADD MSTORE PUSH32 0x272C27656165356432272C27663165646466272C27343032643139272C273432 PUSH2 0x3160 DUP3 ADD MSTORE PUSH32 0x32663161272C27343633313162272C27623564363236272C2762626461326627 PUSH2 0x3180 DUP3 ADD MSTORE PUSH32 0x2C27633565303464272C27353737393030272C27353037303030272C27323432 PUSH2 0x31A0 DUP3 ADD MSTORE PUSH32 0x313064272C27663731393234275D2C5B27393838323634272C27613639333737 PUSH2 0x31C0 DUP3 ADD MSTORE PUSH32 0x272C27616539643834272C27623661363930272C27396633363234272C276237 PUSH2 0x31E0 DUP3 ADD MSTORE PUSH32 0x33663261272C27343835623734272C27353636643861272C2733653130313427 PUSH2 0x3200 DUP3 ADD MSTORE PUSH32 0x2C27353131353161272C27363434633361272C27373535383433272C27616438 PUSH2 0x3220 DUP3 ADD MSTORE PUSH32 0x393236272C27373235303030272C27306131663463272C27333631663133275D PUSH2 0x3240 DUP3 ADD MSTORE PUSH32 0x2C5B27306631383236272C27303630393066272C27313732353361272C273164 PUSH2 0x3260 DUP3 ADD MSTORE PUSH32 0x32653439272C27373138363833272C27376139303863272C2738353939393527 PUSH2 0x3280 DUP3 ADD MSTORE PUSH32 0x2C27393061323966272C27376562353635272C27386362643735272C27613737 PUSH2 0x32A0 DUP3 ADD MSTORE PUSH32 0x323133272C27623837653134272C27643934643332272C27643163666266272C PUSH2 0x32C0 DUP3 ADD MSTORE PUSH32 0x27616363353562272C27373930303063275D2C5B27646264656264272C276461 PUSH2 0x32E0 DUP3 ADD MSTORE PUSH32 0x64636331272C27653965616436272C27643464386231272C2763396233393927 PUSH2 0x3300 DUP3 ADD MSTORE PUSH32 0x2C27633561643931272C27633161383861272C27393462646164272C27396463 PUSH2 0x3320 DUP3 ADD MSTORE PUSH32 0x336234272C27616535333332272C27396534633265272C27633939346230272C PUSH2 0x3340 DUP3 ADD MSTORE PUSH32 0x27636661306261272C27643262313139272C27633461353137275D2C5B276366 PUSH2 0x3360 DUP3 ADD MSTORE PUSH32 0x61343030272C27663563343030272C27636361333030272C2766666365306127 PUSH2 0x3380 DUP3 ADD MSTORE PUSH32 0x2C27633763666334272C27643464616432272C27646665336464272C27313931 PUSH2 0x33A0 DUP3 ADD MSTORE PUSH32 0x393163272C27323632363262272C27383739353839272C27376534653030275D PUSH2 0x33C0 DUP3 ADD MSTORE PUSH32 0x2C5B27616230303030272C27636330303030272C27653030303030272C273737 PUSH2 0x33E0 DUP3 ADD MSTORE PUSH32 0x38316366272C27353936366335272C27363837336361272C2764653435623327 PUSH2 0x3400 DUP3 ADD MSTORE PUSH32 0x2C27653336336266272C27623562306462272C27636263376535272C27643930 PUSH2 0x3420 DUP3 ADD MSTORE PUSH32 0x353433272C27656630363463272C27643534613030272C27663535363030272C PUSH2 0x3440 DUP3 ADD MSTORE PUSH32 0x27313132333961272C27313432616238272C27373438313030272C2730633064 PUSH2 0x3460 DUP3 ADD MSTORE PUSH32 0x3064275D2C5B27663264366334272C27663064306263272C2765636335616327 PUSH2 0x3480 DUP3 ADD MSTORE PUSH32 0x2C27663865386465272C27633031353233272C27646331383239272C27623831 PUSH2 0x34A0 DUP3 ADD MSTORE PUSH32 0x343232272C27346636343931272C27353736643965272C27363137386138272C PUSH2 0x34C0 DUP3 ADD MSTORE PUSH32 0x27326232393264272C27666162383435272C27646238663835272C2738386134 PUSH2 0x34E0 DUP3 ADD MSTORE PUSH32 0x6335275D2C5B27613164656434272C27393764386366272C2762346534646327 PUSH2 0x3500 DUP3 ADD MSTORE PUSH32 0x2C27633365396533272C27373231303033272C27363330653033272C27386231 PUSH2 0x3520 DUP3 ADD MSTORE PUSH32 0x333034272C27663263396162272C27663965386463272C27653063326562272C PUSH2 0x3540 DUP3 ADD MSTORE PUSH32 0x27643962326536272C27616464626666272C27656262643061272C2766616164 PUSH2 0x3560 DUP3 ADD MSTORE PUSH32 0x6230272C27303030653837275D2C5B27376561333838272C2738356138386527 PUSH2 0x3580 DUP3 ADD MSTORE PUSH32 0x2C27393462333963272C27366439373738272C27383261623864272C27383561 PUSH2 0x35A0 DUP3 ADD MSTORE PUSH32 0x383865272C27366439373738272C27396662643966272C27393862393938272C PUSH2 0x35C0 DUP3 ADD MSTORE PUSH32 0x27613763336137272C27383633613135272C27376333363133272C2739323430 PUSH2 0x35E0 DUP3 ADD MSTORE PUSH32 0x3137275D2C5B27633636373266272C27643037303339272C2764383838356127 PUSH2 0x3600 DUP3 ADD MSTORE PUSH32 0x2C27643437633439272C27666366666661272C27653766666436272C27663366 PUSH2 0x3620 DUP3 ADD MSTORE PUSH32 0x666562272C27306430663066272C27326633373337272C27316332313231272C PUSH2 0x3640 DUP3 ADD MSTORE PUSH32 0x27666631393265272C27643965386666272C27353763613631275D2C5B273361 PUSH2 0x3660 DUP3 ADD MSTORE PUSH32 0x34653230272C27333634383165272C27346236353239272C2735363734326627 PUSH2 0x3680 DUP3 ADD MSTORE PUSH32 0x2C27343266663835272C27356366663935272C27333366663761272C27373066 PUSH2 0x36A0 DUP3 ADD MSTORE PUSH32 0x666132272C27616563373564272C27626264303736272C27633138643030272C PUSH2 0x36C0 DUP3 ADD MSTORE PUSH32 0x27653061353030272C27316234303166272C27313031633137272C2765386666 PUSH2 0x36E0 DUP3 ADD MSTORE PUSH32 0x3435272C27663730333537275D2C5B27383835383338272C2738323534333527 PUSH2 0x3700 DUP3 ADD MSTORE PUSH32 0x2C27396636373431272C27616537303437272C27666364623435272C27666465 PUSH2 0x3720 DUP3 ADD MSTORE PUSH32 0x303565272C27666364383336272C27303930363064272C27313330643163272C PUSH2 0x3740 DUP3 ADD MSTORE PUSH32 0x27316431333261272C27663765646635272C27663265336566272C2765333366 PUSH2 0x3760 DUP3 ADD MSTORE PUSH32 0x3033272C27666234643065275D2C5B27386238393831272C2739643962393527 PUSH2 0x3780 DUP3 ADD MSTORE PUSH32 0x2C27376637643736272C27613761356130272C27326132633331272C27333833 PUSH2 0x37A0 DUP3 ADD MSTORE PUSH32 0x623432272C27343234353464272C27346234663538272C27653665306462272C PUSH2 0x37C0 DUP3 ADD MSTORE PUSH32 0x27643563626333272C27646564356366272C27386362333235272C2761306362 PUSH2 0x37E0 DUP3 ADD MSTORE PUSH32 0x3261272C27643662333333272C27646162393434275D2C5B2765306533643427 PUSH2 0x3800 DUP3 ADD MSTORE PUSH32 0x2C27646264666365272C27643264376331272C27633963666234272C27363339 PUSH2 0x3820 DUP3 ADD MSTORE PUSH32 0x383665272C27383461653862272C27373761363831272C27353837333536272C PUSH2 0x3840 DUP3 ADD MSTORE PUSH32 0x27363338303630272C27366338633639272C27366163356163272C2737626363 PUSH2 0x3860 DUP3 ADD MSTORE PUSH32 0x6236272C27366431393333272C27313931623163275D2C5B2737343861383227 PUSH2 0x3880 DUP3 ADD MSTORE PUSH32 0x2C27383539393931272C27393061323962272C27396261626135272C27643961 PUSH2 0x38A0 DUP3 ADD MSTORE PUSH32 0x383866272C27653062386134272C27653563356233272C27306630643130272C PUSH2 0x38C0 DUP3 ADD MSTORE PUSH32 0x27323031633232272C27326132353264272C27666166376564272C2766366631 PUSH2 0x38E0 DUP3 ADD MSTORE PUSH32 0x6466272C27663265383132272C27393163376663275D2C5B2735633033303027 PUSH2 0x3900 DUP3 ADD MSTORE PUSH32 0x2C27376130343030272C27386630353030272C27353230333030272C27336430 PUSH2 0x3920 DUP3 ADD MSTORE PUSH32 0x323030272C27303830613061272C27313231373137272C27316232323232272C PUSH2 0x3940 DUP3 ADD MSTORE PUSH32 0x27653861643163272C27656262373333272C27663766376663272C2737646536 PUSH2 0x3960 DUP3 ADD MSTORE PUSH32 0x3534275D2C5B27643963393330272C27636662653236272C2762656165323327 PUSH2 0x3980 DUP3 ADD MSTORE PUSH32 0x2C27616339653230272C27316231633164272C27313431343135272C27323732 PUSH2 0x39A0 DUP3 ADD MSTORE PUSH32 0x393261272C27366137323262272C27376238353332272C27643464396334272C PUSH2 0x39C0 DUP3 ADD MSTORE PUSH32 0x27653465376461272C27633561343030272C27323934383336272C2733613264 PUSH2 0x39E0 DUP3 ADD MSTORE PUSH32 0x3465272C27363337393737275D2C5B27653065366630272C2764366465656227 PUSH2 0x3A00 DUP3 ADD MSTORE PUSH32 0x2C27633864326534272C27626163376465272C27306230663164272C27313131 PUSH2 0x3A20 DUP3 ADD MSTORE PUSH32 0x373263272C27313631653362272C27373539373363272C27383861663436272C PUSH2 0x3A40 DUP3 ADD MSTORE PUSH32 0x27393362393530272C27313833303234272C27323032343335272C2735393934 PUSH2 0x3A60 DUP3 ADD MSTORE PUSH32 0x3564275D2C5B27326235623761272C27333036353838272C2733353730393727 PUSH2 0x3A80 DUP3 ADD MSTORE PUSH32 0x2C27336137626136272C27643663666363272C27643263616336272C27656465 PUSH2 0x3AA0 DUP3 ADD MSTORE PUSH32 0x616538272C27623038313739272C27626239323862272C27633339663938272C PUSH2 0x3AC0 DUP3 ADD MSTORE PUSH32 0x27376461336337272C27386461656365272C27623863323366272C2763356365 PUSH2 0x3AE0 DUP3 ADD MSTORE PUSH32 0x3634275D2C5B27373437303239272C27366136363235272C2735623538323027 PUSH2 0x3B00 DUP3 ADD MSTORE PUSH32 0x2C27383838333330272C27393739323335272C27613661313361272C27666639 PUSH2 0x3B20 DUP3 ADD MSTORE PUSH32 0x396439272C27666661646531272C27666663326539272C27663735373364272C PUSH2 0x3B40 DUP3 ADD MSTORE PUSH32 0x27663836353466272C27663837363632272C27366535303264272C2738323565 PUSH2 0x3B60 DUP3 ADD MSTORE PUSH32 0x3335275D2C5B27666166306562272C27663765376465272C2766336461636527 PUSH2 0x3B80 DUP3 ADD MSTORE PUSH32 0x2C27656663656265272C27303633383534272C27303834623732272C27303935 PUSH2 0x3BA0 DUP3 ADD MSTORE PUSH32 0x383836272C27326464393664272C27323663663634272C27323362653563272C PUSH2 0x3BC0 DUP3 ADD MSTORE PUSH32 0x27316233633139272C27323735363234272C27323538343030272C2739363931 PUSH2 0x3BE0 DUP3 ADD MSTORE PUSH32 0x3030275D2C5B27313531663432272C27316432623564272C2732323332366427 PUSH2 0x3C00 DUP3 ADD MSTORE PUSH32 0x2C27323733613763272C27623131623039272C27396231373038272C27383831 PUSH2 0x3C20 DUP3 ADD MSTORE PUSH32 0x343037272C27616535626236272C27623937326330272C27633038306336272C PUSH2 0x3C40 DUP3 ADD MSTORE PUSH32 0x27323134643536272C27323735643638272C27326436613736275D2C5B273166 PUSH2 0x3C60 DUP3 ADD MSTORE PUSH32 0x35636666272C27306134626666272C27343737386666272C2733333639666627 PUSH2 0x3C80 DUP3 ADD MSTORE PUSH32 0x2C27653065366538272C27663366366636272C27643064396463272C27393966 PUSH2 0x3CA0 DUP3 ADD MSTORE PUSH32 0x663333272C27613366663437272C27396430303030272C27623830303030272C PUSH2 0x3CC0 DUP3 ADD MSTORE PUSH32 0x27383566356332272C27613166376430272C27316137313030272C2731383636 PUSH2 0x3CE0 DUP3 ADD MSTORE PUSH32 0x3030275D2C5B27313231343138272C27316131643233272C2732333237326627 PUSH2 0x3D00 DUP3 ADD MSTORE PUSH32 0x2C27373337653431272C27383739343463272C27393361323533272C27323735 PUSH2 0x3D20 DUP3 ADD MSTORE PUSH32 0x313236272C27326636313265272C27326131323161272C27626138636235272C PUSH2 0x3D40 DUP3 ADD MSTORE PUSH32 0x27363839376332272C27376461346361272C27646563326131272C2761626533 PUSH2 0x3D60 DUP3 ADD MSTORE PUSH32 0x6332272C27326435393637272C27376433633030272C27346132633631272C27 PUSH2 0x3D80 DUP3 ADD MSTORE PUSH32 0x623239343534275D2C5B27663566306635272C27663365646633272C27663766 PUSH2 0x3DA0 DUP3 ADD MSTORE PUSH32 0x336637272C27663766336637272C27323432643265272C27323232613262272C PUSH2 0x3DC0 DUP3 ADD MSTORE PUSH32 0x27653066323030272C27653966353030272C27366266663066272C2766663631 PUSH2 0x3DE0 DUP3 ADD MSTORE PUSH32 0x3033272C27346162616666272C27303064346139275D2C5B2762363130316227 PUSH2 0x3E00 DUP3 ADD MSTORE PUSH32 0x2C27636531323166272C27653131343231272C27306335326437272C27313836 PUSH2 0x3E20 DUP3 ADD MSTORE PUSH32 0x346632272C27326237316633272C27313861353934272C27316363346231272C PUSH2 0x3E40 DUP3 ADD MSTORE PUSH32 0x27316664366331272C27666664623437272C27666664653563272C2766666537 PUSH2 0x3E60 DUP3 ADD MSTORE PUSH32 0x3835272C27613430373838272C27633430386131272C27666635343936272C27 PUSH2 0x3E80 DUP3 ADD MSTORE PUSH32 0x386363333238275D2C5B27346136643962272C27356137666166272C27363838 PUSH2 0x3EA0 DUP3 ADD MSTORE PUSH32 0x616236272C27373539346264272C27383339666231272C27373539356139272C PUSH2 0x3EC0 DUP3 ADD MSTORE PUSH32 0x27363838626131272C27356538313937272C27616262616138272C2762646339 PUSH2 0x3EE0 DUP3 ADD MSTORE PUSH32 0x6261272C27613930303838272C27636330306133272C27636532343030272C27 PUSH2 0x3F00 DUP3 ADD MSTORE PUSH32 0x303332346666272C27636662333030272C27306531323136275D2C5B27663266 PUSH2 0x3F20 DUP3 ADD MSTORE PUSH32 0x376339272C27656466346238272C27653966326136272C27653565663935272C PUSH2 0x3F40 DUP3 ADD MSTORE PUSH32 0x27666665333239272C27666665373437272C27333235343033272C2734373736 PUSH2 0x3F60 DUP3 ADD MSTORE PUSH32 0x3034272C27656236653931272C27656538316130272C27313135373463272C27 PUSH2 0x3F80 DUP3 ADD MSTORE PUSH32 0x313436363561272C27626464623038272C27643466363133272C273062326437 PUSH2 0x3FA0 DUP3 ADD MSTORE PUSH32 0x35272C27616634363030275D2C5B27303030613962272C27303030636238272C PUSH2 0x3FC0 DUP3 ADD MSTORE PUSH32 0x27303030656363272C27303030666530272C27353062623864272C2735646330 PUSH2 0x3FE0 DUP3 ADD MSTORE PUSH32 0x3935272C27366363363966272C27376263636139272C27353530303866272C27 PUSH2 0x4000 DUP3 ADD MSTORE PUSH32 0x363230306133272C27333336613030272C27343538663030272C273062306330 PUSH2 0x4020 DUP3 ADD MSTORE PUSH32 0x64272C27663038326439272C27626533643030272C27343763623030275D2C5B PUSH2 0x4040 DUP3 ADD MSTORE PUSH32 0x27623062616136272C27616262366130272C27613662313961272C2763376365 PUSH2 0x4060 DUP3 ADD MSTORE PUSH32 0x6330272C27623062376139272C27653065366533272C27653265346533272C27 PUSH2 0x4080 DUP3 ADD MSTORE PUSH32 0x653665626538272C27653865646562272C27646565386533272C276162303731 PUSH2 0x40A0 DUP3 ADD MSTORE PUSH32 0x64272C27613230373162272C27396230383163272C27333133353262272C2732 PUSH2 0x40C0 DUP3 ADD MSTORE PUSH32 0x6333303237272C27393561373937272C27393861393961275D2C5B2764396465 PUSH2 0x40E0 DUP3 ADD MSTORE PUSH32 0x6436272C27643564626432272C27636264326336272C27633063396262272C27 PUSH2 0x4100 DUP3 ADD MSTORE PUSH32 0x623662666230272C27653664313330272C27653964363439272C276562646135 PUSH2 0x4120 DUP3 ADD MSTORE PUSH32 0x63272C27633538363838272C27643139666130272C27643761636165272C2736 PUSH2 0x4140 DUP3 ADD MSTORE PUSH32 0x3537303765272C27363862383330272C27643935373030272C27373933633564 PUSH2 0x4160 DUP3 ADD MSTORE PUSH32 0x275D2C5B27316431393231272C27323932333266272C27313431323137272C27 PUSH2 0x4180 DUP3 ADD MSTORE PUSH32 0x333332633361272C27336433353436272C27633062313231272C276431633032 PUSH2 0x41A0 DUP3 ADD MSTORE PUSH32 0x33272C27646363613265272C27643233623030272C27663534353030272C2763 PUSH2 0x41C0 DUP3 ADD MSTORE PUSH32 0x3263666264272C27643364646430275D5D3C2F7363726970743E000000000000 PUSH2 0x41E0 DUP3 ADD MSTORE POP JUMP JUMPDEST PUSH0 PUSH2 0x56B2 PUSH2 0x41FA DUP4 PUSH2 0x485 JUMP JUMPDEST SWAP2 POP PUSH2 0x56BD DUP3 PUSH2 0x63B JUMP JUMPDEST PUSH2 0x41FA DUP3 ADD SWAP1 POP SWAP2 SWAP1 POP JUMP JUMPDEST PUSH0 PUSH2 0x56D3 DUP3 PUSH2 0x5F9 JUMP JUMPDEST SWAP2 POP PUSH2 0x56DF DUP3 DUP5 PUSH2 0x624 JUMP JUMPDEST PUSH1 0x20 DUP3 ADD SWAP2 POP PUSH2 0x56EE DUP3 PUSH2 0x56A5 JUMP JUMPDEST SWAP2 POP DUP2 SWAP1 POP SWAP3 SWAP2 POP POP JUMP JUMPDEST PUSH32 0x3C73637269707420747970653D276170706C69636174696F6E2F6A6176617363 PUSH0 DUP3 ADD MSTORE PUSH32 0x72697074273E6C657420636F6C6F723D636F6C6F72735B000000000000000000 PUSH1 0x20 DUP3 ADD MSTORE POP JUMP JUMPDEST PUSH0 PUSH2 0x5753 PUSH1 0x37 DUP4 PUSH2 0x485 JUMP JUMPDEST SWAP2 POP PUSH2 0x575E DUP3 PUSH2 0x56F9 JUMP JUMPDEST PUSH1 0x37 DUP3 ADD SWAP1 POP SWAP2 SWAP1 POP JUMP JUMPDEST PUSH32 0x5D2C6D6F6F643D7061727365496E742827000000000000000000000000000000 PUSH0 DUP3 ADD MSTORE POP JUMP JUMPDEST PUSH0 PUSH2 0x579D PUSH1 0x11 DUP4 PUSH2 0x485 JUMP JUMPDEST SWAP2 POP PUSH2 0x57A8 DUP3 PUSH2 0x5769 JUMP JUMPDEST PUSH1 0x11 DUP3 ADD SWAP1 POP SWAP2 SWAP1 POP JUMP JUMPDEST PUSH0 PUSH2 0x57BD DUP3 PUSH2 0x1A7 JUMP JUMPDEST PUSH2 0x57C7 DUP2 DUP6 PUSH2 0x485 JUMP JUMPDEST SWAP4 POP PUSH2 0x57D7 DUP2 DUP6 PUSH1 0x20 DUP7 ADD PUSH2 0x1C1 JUMP JUMPDEST DUP1 DUP5 ADD SWAP2 POP POP SWAP3 SWAP2 POP POP JUMP JUMPDEST PUSH32 0x27292C746F6B656E446174613D7B686173683A27000000000000000000000000 PUSH0 DUP3 ADD MSTORE POP JUMP JUMPDEST PUSH0 PUSH2 0x5817 PUSH1 0x14 DUP4 PUSH2 0x485 JUMP JUMPDEST SWAP2 POP PUSH2 0x5822 DUP3 PUSH2 0x57E3 JUMP JUMPDEST PUSH1 0x14 DUP3 ADD SWAP1 POP SWAP2 SWAP1 POP JUMP JUMPDEST PUSH0 DUP2 SWAP1 POP SWAP2 SWAP1 POP JUMP JUMPDEST PUSH2 0x5847 PUSH2 0x5842 DUP3 PUSH2 0x2A6 JUMP JUMPDEST PUSH2 0x582D JUMP JUMPDEST DUP3 MSTORE POP POP JUMP JUMPDEST PUSH32 0x272C746F6B656E49643A27000000000000000000000000000000000000000000 PUSH0 DUP3 ADD MSTORE POP JUMP JUMPDEST PUSH0 PUSH2 0x5881 PUSH1 0xB DUP4 PUSH2 0x485 JUMP JUMPDEST SWAP2 POP PUSH2 0x588C DUP3 PUSH2 0x584D JUMP JUMPDEST PUSH1 0xB DUP3 ADD SWAP1 POP SWAP2 SWAP1 POP JUMP JUMPDEST PUSH32 0x277D2C73686F756C644C6F616444726177696E673D21313B636F6E7374206472 PUSH0 DUP3 ADD MSTORE PUSH32 0x61773D6173796E632066756E6374696F6E28297B72657175657374416E696D61 PUSH1 0x20 DUP3 ADD MSTORE PUSH32 0x74696F6E4672616D65282866756E6374696F6E28297B6164644C6F6164657228 PUSH1 0x40 DUP3 ADD MSTORE PUSH32 0x2727297D29292C6177616974206E65772050726F6D6973652828653D3E736574 PUSH1 0x60 DUP3 ADD MSTORE PUSH32 0x54696D656F757428652C3230302929292C72657175657374416E696D6174696F PUSH1 0x80 DUP3 ADD MSTORE PUSH32 0x6E4672616D65282866756E6374696F6E28297B7570646174654C6F6164657228 PUSH1 0xA0 DUP3 ADD MSTORE PUSH32 0x274C6F6164696E67207661726961626C657327297D29292C6177616974206E65 PUSH1 0xC0 DUP3 ADD MSTORE PUSH32 0x772050726F6D6973652828653D3E73657454696D656F757428652C3230302929 PUSH1 0xE0 DUP3 ADD MSTORE PUSH32 0x293B636F6E737420653D6E657720636C6173737B636F6E7374727563746F7228 PUSH2 0x100 DUP3 ADD MSTORE PUSH32 0x297B746869732E757365413D21313B6C657420653D66756E6374696F6E286529 PUSH2 0x120 DUP3 ADD MSTORE PUSH32 0x7B6C6574206E3D7061727365496E7428652E73756273747228302C38292C3136 PUSH2 0x140 DUP3 ADD MSTORE PUSH32 0x292C743D7061727365496E7428652E73756273747228382C38292C3136292C6F PUSH2 0x160 DUP3 ADD MSTORE PUSH32 0x3D7061727365496E7428652E7375627374722831362C38292C3136292C613D70 PUSH2 0x180 DUP3 ADD MSTORE PUSH32 0x61727365496E7428652E7375627374722832342C38292C3136293B7265747572 PUSH2 0x1A0 DUP3 ADD MSTORE PUSH32 0x6E2066756E6374696F6E28297B6E7C3D302C747C3D302C6F7C3D302C617C3D30 PUSH2 0x1C0 DUP3 ADD MSTORE PUSH32 0x3B6C657420653D286E2B747C30292B617C303B72657475726E20613D612B317C PUSH2 0x1E0 DUP3 ADD MSTORE PUSH32 0x302C6E3D745E743E3E3E392C743D6F2B286F3C3C33297C302C6F3D6F3C3C3231 PUSH2 0x200 DUP3 ADD MSTORE PUSH32 0x7C6F3E3E3E31312C6F3D6F2B657C302C28653E3E3E30292F3432393439363732 PUSH2 0x220 DUP3 ADD MSTORE PUSH32 0x39367D7D3B746869732E70726E67413D6E6577206528746F6B656E446174612E PUSH2 0x240 DUP3 ADD MSTORE PUSH32 0x686173682E73756273747228322C333229292C746869732E70726E67423D6E65 PUSH2 0x260 DUP3 ADD MSTORE PUSH32 0x77206528746F6B656E446174612E686173682E7375627374722833342C333229 PUSH2 0x280 DUP3 ADD MSTORE PUSH32 0x293B666F72286C657420653D303B653C3165363B652B3D3229746869732E7072 PUSH2 0x2A0 DUP3 ADD MSTORE PUSH32 0x6E674128292C746869732E70726E674228297D72616E646F6D5F64656328297B PUSH2 0x2C0 DUP3 ADD MSTORE PUSH32 0x72657475726E20746869732E757365413D21746869732E757365412C74686973 PUSH2 0x2E0 DUP3 ADD MSTORE PUSH32 0x2E757365413F746869732E70726E674128293A746869732E70726E674228297D PUSH2 0x300 DUP3 ADD MSTORE PUSH32 0x72616E646F6D5F6E756D28652C6E297B72657475726E20652B286E2D65292A74 PUSH2 0x320 DUP3 ADD MSTORE PUSH32 0x6869732E72616E646F6D5F64656328297D72616E646F6D5F696E7428652C6E29 PUSH2 0x340 DUP3 ADD MSTORE PUSH32 0x7B72657475726E204D6174682E666C6F6F7228746869732E72616E646F6D5F6E PUSH2 0x360 DUP3 ADD MSTORE PUSH32 0x756D28652C6E2B3129297D72616E646F6D5F626F6F6C2865297B72657475726E PUSH2 0x380 DUP3 ADD MSTORE PUSH32 0x20746869732E72616E646F6D5F64656328293C657D72616E646F6D5F63686F69 PUSH2 0x3A0 DUP3 ADD MSTORE PUSH32 0x63652865297B72657475726E20655B746869732E72616E646F6D5F696E742830 PUSH2 0x3C0 DUP3 ADD MSTORE PUSH32 0x2C652E6C656E6774682D31295D7D7D2C6E3D5B7B77696474683A3130302C6865 PUSH2 0x3E0 DUP3 ADD MSTORE PUSH32 0x696768743A3130307D2C7B77696474683A332C6865696768743A347D2C7B7769 PUSH2 0x400 DUP3 ADD MSTORE PUSH32 0x6474683A392C6865696768743A31367D2C7B77696474683A312C686569676874 PUSH2 0x420 DUP3 ADD MSTORE PUSH32 0x3A317D5D3B6C657420743D303B636F6E7374206F3D646F63756D656E742E6372 PUSH2 0x440 DUP3 ADD MSTORE PUSH32 0x65617465456C656D656E7428277374796C6527293B6F2E696E6E657248544D4C PUSH2 0x460 DUP3 ADD MSTORE PUSH32 0x3D270A626F6479207B0A202020206D617267696E2D746F703A20303B0A202020 PUSH2 0x480 DUP3 ADD MSTORE PUSH32 0x20646973706C61793A20666C65783B0A202020206A7573746966792D636F6E74 PUSH2 0x4A0 DUP3 ADD MSTORE PUSH32 0x656E743A2063656E7465723B0A20202020616C69676E2D6974656D733A206365 PUSH2 0x4C0 DUP3 ADD MSTORE PUSH32 0x6E7465723B0A202020206261636B67726F756E642D636F6C6F723A2023464646 PUSH2 0x4E0 DUP3 ADD MSTORE PUSH32 0x4645313B0A7D0A0A737667207B0A202020206865696768743A2031303076683B PUSH2 0x500 DUP3 ADD MSTORE PUSH32 0xA2020202077696474683A2031303076773B0A2020202070616464696E673A20 PUSH2 0x520 DUP3 ADD MSTORE PUSH32 0x30766D696E3B0A20202020626F782D736861646F773A202E35766D696E202E35 PUSH2 0x540 DUP3 ADD MSTORE PUSH32 0x766D696E2031766D696E207267626128302C20302C20302C20302E35293B0A20 PUSH2 0x560 DUP3 ADD MSTORE PUSH32 0x202020626F782D73697A696E673A20626F726465722D626F783B0A7D0A272C64 PUSH2 0x580 DUP3 ADD MSTORE PUSH32 0x6F63756D656E742E686561642E617070656E644368696C64286F293B636F6E73 PUSH2 0x5A0 DUP3 ADD MSTORE PUSH32 0x7420613D646F63756D656E742E637265617465456C656D656E744E5328276874 PUSH2 0x5C0 DUP3 ADD MSTORE PUSH32 0x74703A2F2F7777772E77332E6F72672F323030302F737667272C277376672729 PUSH2 0x5E0 DUP3 ADD MSTORE PUSH32 0x3B612E73657441747472696275746528276964272C276D7953766727292C612E PUSH2 0x600 DUP3 ADD MSTORE PUSH32 0x736574417474726962757465282776696577426F78272C273020302031303020 PUSH2 0x620 DUP3 ADD MSTORE PUSH32 0x31303027292C646F63756D656E742E626F64792E617070656E644368696C6428 PUSH2 0x640 DUP3 ADD MSTORE PUSH32 0x61292C736574526174696F286E2C74293B6C657420722C692C732C642C632C6C PUSH2 0x660 DUP3 ADD MSTORE PUSH32 0x2C6D2C752C682C5F2C792C662C702C672C622C242C772C6B2C762C782C412C4C PUSH2 0x680 DUP3 ADD MSTORE PUSH32 0x2C532C452C432C462C542C492C422C502C712C522C4D2C4E2C442C483D646F63 PUSH2 0x6A0 DUP3 ADD MSTORE PUSH32 0x756D656E742E676574456C656D656E744279496428276D7953766727292C473D PUSH2 0x6C0 DUP3 ADD MSTORE PUSH32 0x21312C553D302C7A3D27272C4F3D66756E6374696F6E28297B7D2C563D66756E PUSH2 0x6E0 DUP3 ADD MSTORE PUSH32 0x6374696F6E28297B7D2C6A3D66756E6374696F6E2865297B7D2C573D27272C4B PUSH2 0x700 DUP3 ADD MSTORE PUSH32 0x3D66696E644E616D654279436F6C6F7228636F6C6F725B305D2E737562283129 PUSH2 0x720 DUP3 ADD MSTORE PUSH32 0x2C636F6C6F724E616D6573293B73776974636828646F63756D656E742E676574 PUSH2 0x740 DUP3 ADD MSTORE PUSH32 0x456C656D656E747342795461674E616D652827626F647927295B305D2E737479 PUSH2 0x760 DUP3 ADD MSTORE PUSH32 0x6C652E6261636B67726F756E64436F6C6F723D2723272B636F6C6F725B305D2C PUSH2 0x780 DUP3 ADD MSTORE PUSH32 0x72657175657374416E696D6174696F6E4672616D65282866756E6374696F6E28 PUSH2 0x7A0 DUP3 ADD MSTORE PUSH32 0x297B7570646174654C6F6164657228274C6F6164696E67207661726961626C65 PUSH2 0x7C0 DUP3 ADD MSTORE PUSH32 0x7327297D29292C66756E6374696F6E28297B73776974636828643D652E72616E PUSH2 0x7E0 DUP3 ADD MSTORE PUSH32 0x646F6D5F63686F696365285B302C322C332C342C322C305D292C553D652E7261 PUSH2 0x800 DUP3 ADD MSTORE PUSH32 0x6E646F6D5F626F6F6C282E35293F652E72616E646F6D5F6E756D282D36302C36 PUSH2 0x820 DUP3 ADD MSTORE PUSH32 0x30293A652E72616E646F6D5F696E74282D352C35292C623D652E72616E646F6D PUSH2 0x840 DUP3 ADD MSTORE PUSH32 0x5F626F6F6C282E35292C783D652E72616E646F6D5F63686F696365285B312C2D PUSH2 0x860 DUP3 ADD MSTORE PUSH32 0x315D292C413D652E72616E646F6D5F63686F696365285B312C2D315D292C6A3D PUSH2 0x880 DUP3 ADD MSTORE PUSH32 0x66756E6374696F6E286E297B72657475726E20652E72616E646F6D5F63686F69 PUSH2 0x8A0 DUP3 ADD MSTORE PUSH32 0x636528636F6C6F72297D2C6D6F6F64297B6361736520303A693D312C733D382C PUSH2 0x8C0 DUP3 ADD MSTORE PUSH32 0x673D352C443D3130302C723D2E322C243D2E30332C6C3D332C633D652E72616E PUSH2 0x8E0 DUP3 ADD MSTORE PUSH32 0x646F6D5F696E74283830302C31313030292C6D3D632F6C2C683D6D2F322C412A PUSH2 0x900 DUP3 ADD MSTORE PUSH32 0x3D322C782A3D322C753D2E30362C773D652E72616E646F6D5F696E7428313030 PUSH2 0x920 DUP3 ADD MSTORE PUSH32 0x2C383030292C553D652E72616E646F6D5F63686F696365285B2D34352C34355D PUSH2 0x940 DUP3 ADD MSTORE PUSH32 0x293B627265616B3B6361736520313A693D31352C733D31302C673D362C443D35 PUSH2 0x960 DUP3 ADD MSTORE PUSH32 0x302C723D2E3032352C243D2E30332C6C3D652E72616E646F6D5F6E756D28322C PUSH2 0x980 DUP3 ADD MSTORE PUSH32 0x34292C633D652E72616E646F6D5F696E74283830302C31323030292C6D3D632F PUSH2 0x9A0 DUP3 ADD MSTORE PUSH32 0x6C2C683D6D2F652E72616E646F6D5F696E7428362C3135292C753D2E30362C77 PUSH2 0x9C0 DUP3 ADD MSTORE PUSH32 0x3D652E72616E646F6D5F696E74283130302C383030292C553D652E72616E646F PUSH2 0x9E0 DUP3 ADD MSTORE PUSH32 0x6D5F63686F696365285B2D34352C34355D292C623D21303B627265616B3B6361 PUSH2 0xA00 DUP3 ADD MSTORE PUSH32 0x736520323A693D332C733D352C673D362C443D35302C723D2E3034352C243D2E PUSH2 0xA20 DUP3 ADD MSTORE PUSH32 0x30342C6C3D652E72616E646F6D5F6E756D28322C34292C633D652E72616E646F PUSH2 0xA40 DUP3 ADD MSTORE PUSH32 0x6D5F696E74283830302C31323030292C6D3D632F6C2C683D6D2F32302C753D2E PUSH2 0xA60 DUP3 ADD MSTORE PUSH32 0x30362C773D652E72616E646F6D5F696E74283130302C383030292C553D652E72 PUSH2 0xA80 DUP3 ADD MSTORE PUSH32 0x616E646F6D5F63686F696365285B2D34352C34355D292C623D21303B62726561 PUSH2 0xAA0 DUP3 ADD MSTORE PUSH32 0x6B3B6361736520333A693D31352C733D322C673D362C443D35302C723D2E3033 PUSH2 0xAC0 DUP3 ADD MSTORE PUSH32 0x2C243D2E30342C6C3D332C633D652E72616E646F6D5F696E74283830302C3132 PUSH2 0xAE0 DUP3 ADD MSTORE PUSH32 0x3030292C6D3D632F6C2C683D6D2F31302C753D2E30362C553D652E72616E646F PUSH2 0xB00 DUP3 ADD MSTORE PUSH32 0x6D5F63686F696365285B2D34352C34355D292C773D652E72616E646F6D5F696E PUSH2 0xB20 DUP3 ADD MSTORE PUSH32 0x74283130302C383030293B627265616B3B6361736520343A693D332C733D332C PUSH2 0xB40 DUP3 ADD MSTORE PUSH32 0x673D352C443D31302C723D2E30362C243D2E3030392C6C3D652E72616E646F6D PUSH2 0xB60 DUP3 ADD MSTORE PUSH32 0x5F6E756D28322C34292C633D652E72616E646F6D5F696E74283830302C313230 PUSH2 0xB80 DUP3 ADD MSTORE PUSH32 0x30292C6D3D632F6C2C683D6D2F332C753D2E30362C773D652E72616E646F6D5F PUSH2 0xBA0 DUP3 ADD MSTORE PUSH32 0x696E74283130302C383030292C553D652E72616E646F6D5F63686F696365285B PUSH2 0xBC0 DUP3 ADD MSTORE PUSH32 0x2D34352C34355D293B627265616B3B6361736520353A693D332C733D332C673D PUSH2 0xBE0 DUP3 ADD MSTORE PUSH32 0x31302C443D3130302C723D2E30342C243D2E30342C6C3D652E72616E646F6D5F PUSH2 0xC00 DUP3 ADD MSTORE PUSH32 0x6E756D28322C34292C633D652E72616E646F6D5F696E74283830302C31323030 PUSH2 0xC20 DUP3 ADD MSTORE PUSH32 0x292C6D3D632F6C2C683D6D2C753D2E30362C773D652E72616E646F6D5F696E74 PUSH2 0xC40 DUP3 ADD MSTORE PUSH32 0x283130302C383030292C553D652E72616E646F6D5F63686F696365285B2D3435 PUSH2 0xC60 DUP3 ADD MSTORE PUSH32 0x2C34355D293B627265616B3B6361736520363A693D332C733D312C673D31302C PUSH2 0xC80 DUP3 ADD MSTORE PUSH32 0x443D3130302C723D2E30342C243D2E30342C6C3D652E72616E646F6D5F6E756D PUSH2 0xCA0 DUP3 ADD MSTORE PUSH32 0x28322C34292C633D652E72616E646F6D5F696E74283830302C31323030292C6D PUSH2 0xCC0 DUP3 ADD MSTORE PUSH32 0x3D632F6C2C683D6D2C753D2E30362C773D652E72616E646F6D5F696E74283130 PUSH2 0xCE0 DUP3 ADD MSTORE PUSH32 0x302C383030292C553D652E72616E646F6D5F63686F696365285B2D34352C3435 PUSH2 0xD00 DUP3 ADD MSTORE PUSH32 0x5D293B627265616B3B6361736520373A693D312C733D322C673D352C443D3430 PUSH2 0xD20 DUP3 ADD MSTORE PUSH32 0x2C723D652E72616E646F6D5F63686F696365285B2E30362C2E30372C2E30382C PUSH2 0xD40 DUP3 ADD MSTORE PUSH32 0x2E30392C2E315D292C243D652E72616E646F6D5F63686F696365285B39652D34 PUSH2 0xD60 DUP3 ADD MSTORE PUSH32 0x2C38652D342C2E3030315D292C6C3D652E72616E646F6D5F6E756D28322C3429 PUSH2 0xD80 DUP3 ADD MSTORE PUSH32 0x2C633D652E72616E646F6D5F696E74283830302C31323030292C6D3D632F6C2C PUSH2 0xDA0 DUP3 ADD MSTORE PUSH32 0x683D322A6D2C753D2E30362C773D652E72616E646F6D5F696E74283130302C38 PUSH2 0xDC0 DUP3 ADD MSTORE PUSH32 0x3030292C553D652E72616E646F6D5F63686F696365285B2D34352C34355D292C PUSH2 0xDE0 DUP3 ADD MSTORE PUSH32 0x643D652E72616E646F6D5F63686F696365285B302C312C322C335D293B627265 PUSH2 0xE00 DUP3 ADD MSTORE PUSH32 0x616B3B6361736520383A693D312C733D312C673D31352C443D38302C723D2E30 PUSH2 0xE20 DUP3 ADD MSTORE PUSH32 0x392C243D2E30342C6C3D652E72616E646F6D5F6E756D28322C34292C633D652E PUSH2 0xE40 DUP3 ADD MSTORE PUSH32 0x72616E646F6D5F696E74283430302C353030292C6D3D632F6C2C683D382A6D2C PUSH2 0xE60 DUP3 ADD MSTORE PUSH32 0x753D2E30362C773D652E72616E646F6D5F696E74283130302C383030292C553D PUSH2 0xE80 DUP3 ADD MSTORE PUSH32 0x652E72616E646F6D5F63686F696365285B2D34352C34355D293B627265616B3B PUSH2 0xEA0 DUP3 ADD MSTORE PUSH32 0x6361736520393A693D392C733D312C673D35302C443D652E72616E646F6D5F69 PUSH2 0xEC0 DUP3 ADD MSTORE PUSH32 0x6E742835302C313030292C723D2E3030312C243D2E30362C6C3D652E72616E64 PUSH2 0xEE0 DUP3 ADD MSTORE PUSH32 0x6F6D5F6E756D28322C34292C633D3165332C6D3D632F6C2C683D31302A6D2C75 PUSH2 0xF00 DUP3 ADD MSTORE PUSH32 0x3D2E30362C773D652E72616E646F6D5F696E74283330302C383030292C553D65 PUSH2 0xF20 DUP3 ADD MSTORE PUSH32 0x2E72616E646F6D5F63686F696365285B2D34352C34355D293B627265616B3B63 PUSH2 0xF40 DUP3 ADD MSTORE PUSH32 0x6173652031303A693D352C733D312C673D35302C443D652E72616E646F6D5F69 PUSH2 0xF60 DUP3 ADD MSTORE PUSH32 0x6E742838302C313530292C723D2E3030312C243D2E30392C6C3D652E72616E64 PUSH2 0xF80 DUP3 ADD MSTORE PUSH32 0x6F6D5F6E756D28322C34292C633D3530302C6D3D632F6C2C683D31302A6D2C75 PUSH2 0xFA0 DUP3 ADD MSTORE PUSH32 0x3D2E30362C773D652E72616E646F6D5F696E74283330302C383030292C553D65 PUSH2 0xFC0 DUP3 ADD MSTORE PUSH32 0x2E72616E646F6D5F63686F696365285B2D34352C34355D293B627265616B3B63 PUSH2 0xFE0 DUP3 ADD MSTORE PUSH32 0x6173652031313A693D312C733D312C673D352C443D652E72616E646F6D5F6368 PUSH2 0x1000 DUP3 ADD MSTORE PUSH32 0x6F696365285B322C32305D292C723D2E332C243D2E30392C6C3D652E72616E64 PUSH2 0x1020 DUP3 ADD MSTORE PUSH32 0x6F6D5F6E756D28322C34292C633D31302C6D3D632F6C2C683D31302A6D2C753D PUSH2 0x1040 DUP3 ADD MSTORE PUSH32 0x652E72616E646F6D5F64656328292C773D652E72616E646F6D5F696E74283330 PUSH2 0x1060 DUP3 ADD MSTORE PUSH32 0x302C383030292C553D652E72616E646F6D5F63686F696365285B2D34352C3435 PUSH2 0x1080 DUP3 ADD MSTORE PUSH32 0x5D292C643D652E72616E646F6D5F63686F696365285B302C312C325D293B6272 PUSH2 0x10A0 DUP3 ADD MSTORE PUSH32 0x65616B3B636173652031323A693D31302C733D312C673D32302C443D31352C72 PUSH2 0x10C0 DUP3 ADD MSTORE PUSH32 0x3D2E312C243D2E3034352C6C3D652E72616E646F6D5F6E756D28322C34292C63 PUSH2 0x10E0 DUP3 ADD MSTORE PUSH32 0x3D652E72616E646F6D5F696E74283830302C31313030292C6D3D632F6C2C683D PUSH2 0x1100 DUP3 ADD MSTORE PUSH32 0x6D2F31302C753D2E30362C773D652E72616E646F6D5F696E74283130302C3830 PUSH2 0x1120 DUP3 ADD MSTORE PUSH32 0x30293B627265616B3B636173652031333A693D332C733D312C673D312C443D65 PUSH2 0x1140 DUP3 ADD MSTORE PUSH32 0x2E72616E646F6D5F696E742835302C313030292C723D2E30312C243D652E7261 PUSH2 0x1160 DUP3 ADD MSTORE PUSH32 0x6E646F6D5F6E756D282E30362C2E3039292C6C3D652E72616E646F6D5F6E756D PUSH2 0x1180 DUP3 ADD MSTORE PUSH32 0x28322C34292C633D652E72616E646F6D5F696E74283135302C323030292C6D3D PUSH2 0x11A0 DUP3 ADD MSTORE PUSH32 0x632F6C2C683D31302A6D2C753D2E30362C773D652E72616E646F6D5F696E7428 PUSH2 0x11C0 DUP3 ADD MSTORE PUSH32 0x3330302C383030292C553D652E72616E646F6D5F63686F696365285B2D34352C PUSH2 0x11E0 DUP3 ADD MSTORE PUSH32 0x34355D293B627265616B3B636173652031343A693D332C733D312C673D342C44 PUSH2 0x1200 DUP3 ADD MSTORE PUSH32 0x3D34302C723D2E312C243D2E30332C6C3D332C633D652E72616E646F6D5F696E PUSH2 0x1220 DUP3 ADD MSTORE PUSH32 0x74283730302C31313030292C6D3D632F6C2C683D6D2F652E72616E646F6D5F69 PUSH2 0x1240 DUP3 ADD MSTORE PUSH32 0x6E7428322C35292C753D2E30362C773D652E72616E646F6D5F696E7428313030 PUSH2 0x1260 DUP3 ADD MSTORE PUSH32 0x2C383030292C553D652E72616E646F6D5F63686F696365285B2D33302C33305D PUSH2 0x1280 DUP3 ADD MSTORE PUSH32 0x292C412A3D332C782A3D332C6A3D66756E6374696F6E2865297B72657475726E PUSH2 0x12A0 DUP3 ADD MSTORE PUSH32 0x20636F6C6F725B655D7D3B627265616B3B636173652031353A693D332C733D35 PUSH2 0x12C0 DUP3 ADD MSTORE PUSH32 0x2C673D332C443D33302C723D2E3032352C243D2E30332C6C3D652E72616E646F PUSH2 0x12E0 DUP3 ADD MSTORE PUSH32 0x6D5F6E756D28322C34292C633D652E72616E646F6D5F696E74283830302C3132 PUSH2 0x1300 DUP3 ADD MSTORE PUSH32 0x3030292C6D3D632F6C2C683D6D2F35302C753D2E30362C773D652E72616E646F PUSH2 0x1320 DUP3 ADD MSTORE PUSH32 0x6D5F696E74283130302C383030292C553D652E72616E646F6D5F63686F696365 PUSH2 0x1340 DUP3 ADD MSTORE PUSH32 0x285B2D34352C34355D292C623D21303B627265616B3B636173652031363A693D PUSH2 0x1360 DUP3 ADD MSTORE PUSH32 0x322C733D312C673D332C443D31302C723D2E3031352C243D2E332C6C3D652E72 PUSH2 0x1380 DUP3 ADD MSTORE PUSH32 0x616E646F6D5F6E756D28322C34292C633D652E72616E646F6D5F696E74283830 PUSH2 0x13A0 DUP3 ADD MSTORE PUSH32 0x302C31323030292C6D3D632F6C2C683D6D2F3130302C753D2E30362C773D652E PUSH2 0x13C0 DUP3 ADD MSTORE PUSH32 0x72616E646F6D5F696E74283130302C383030292C553D652E72616E646F6D5F63 PUSH2 0x13E0 DUP3 ADD MSTORE PUSH32 0x686F696365285B2D34352C34355D292C782A3D332C412A3D332C643D652E7261 PUSH2 0x1400 DUP3 ADD MSTORE PUSH32 0x6E646F6D5F63686F696365285B312C322C335D293B627265616B3B6361736520 PUSH2 0x1420 DUP3 ADD MSTORE PUSH32 0x31373A693D352C733D322C673D332C443D31302C723D2E3038352C243D2E352C PUSH2 0x1440 DUP3 ADD MSTORE PUSH32 0x6C3D652E72616E646F6D5F6E756D28322C34292C633D652E72616E646F6D5F69 PUSH2 0x1460 DUP3 ADD MSTORE PUSH32 0x6E74283830302C31323030292C6D3D632F6C2C683D6D2F3330302C753D2E3036 PUSH2 0x1480 DUP3 ADD MSTORE PUSH32 0x2C773D652E72616E646F6D5F696E74283130302C383030292C553D652E72616E PUSH2 0x14A0 DUP3 ADD MSTORE PUSH32 0x646F6D5F63686F696365285B2D34352C34355D292C782A3D332C412A3D332C64 PUSH2 0x14C0 DUP3 ADD MSTORE PUSH32 0x3D652E72616E646F6D5F63686F696365285B312C322C335D293B627265616B3B PUSH2 0x14E0 DUP3 ADD MSTORE PUSH32 0x636173652031383A693D312C733D312C673D352C443D3130302C723D2E312C24 PUSH2 0x1500 DUP3 ADD MSTORE PUSH32 0x3D2E312C6C3D332C633D652E72616E646F6D5F696E74283830302C3131303029 PUSH2 0x1520 DUP3 ADD MSTORE PUSH32 0x2C6D3D632F6C2C683D6D2F322C753D2E30362C773D652E72616E646F6D5F696E PUSH2 0x1540 DUP3 ADD MSTORE PUSH32 0x74283130302C383030292C553D652E72616E646F6D5F63686F696365285B2D34 PUSH2 0x1560 DUP3 ADD MSTORE PUSH32 0x352C34355D293B627265616B3B636173652031393A693D31302C733D312C673D PUSH2 0x1580 DUP3 ADD MSTORE PUSH32 0x362C443D31302C723D2E3032382C243D2E30322C6C3D342C633D652E72616E64 PUSH2 0x15A0 DUP3 ADD MSTORE PUSH32 0x6F6D5F696E74283830302C31313030292C6D3D632F6C2C683D6D2F332C753D2E PUSH2 0x15C0 DUP3 ADD MSTORE PUSH32 0x30362C773D652E72616E646F6D5F696E74283130302C383030292C553D652E72 PUSH2 0x15E0 DUP3 ADD MSTORE PUSH32 0x616E646F6D5F63686F696365285B2D34352C34355D293B627265616B3B636173 PUSH2 0x1600 DUP3 ADD MSTORE PUSH32 0x652032303A693D31352C733D31302C673D362C443D3130302C723D2E30332C24 PUSH2 0x1620 DUP3 ADD MSTORE PUSH32 0x3D2E30322C6C3D652E72616E646F6D5F6E756D28322C34292C633D652E72616E PUSH2 0x1640 DUP3 ADD MSTORE PUSH32 0x646F6D5F696E74283830302C31313030292C6D3D632F6C2C683D6D2F31302C75 PUSH2 0x1660 DUP3 ADD MSTORE PUSH32 0x3D2E30362C773D652E72616E646F6D5F696E74283130302C383030292C553D65 PUSH2 0x1680 DUP3 ADD MSTORE PUSH32 0x2E72616E646F6D5F63686F696365285B2D34352C34355D293B627265616B3B63 PUSH2 0x16A0 DUP3 ADD MSTORE PUSH32 0x6173652032313A693D382C733D312C673D31302C443D35302C723D2E3031352C PUSH2 0x16C0 DUP3 ADD MSTORE PUSH32 0x243D2E30322C6C3D332C633D652E72616E646F6D5F696E74283830302C313130 PUSH2 0x16E0 DUP3 ADD MSTORE PUSH32 0x30292C6D3D632F6C2C683D6D2F332C753D2E30362C773D652E72616E646F6D5F PUSH2 0x1700 DUP3 ADD MSTORE PUSH32 0x696E74283130302C383030292C553D652E72616E646F6D5F63686F696365285B PUSH2 0x1720 DUP3 ADD MSTORE PUSH32 0x2D34352C34355D293B627265616B3B636173652032323A693D332C733D31352C PUSH2 0x1740 DUP3 ADD MSTORE PUSH32 0x543D312C673D362C443D31302C723D2E30322C243D2E32352C493D2E30312C6C PUSH2 0x1760 DUP3 ADD MSTORE PUSH32 0x3D342C633D652E72616E646F6D5F696E74283530302C31313030292C6D3D632F PUSH2 0x1780 DUP3 ADD MSTORE PUSH32 0x6C2C683D6D2F38302C5F3D6D2F33302C753D2E30362C773D652E72616E646F6D PUSH2 0x17A0 DUP3 ADD MSTORE PUSH32 0x5F696E74283130302C383030292C553D652E72616E646F6D5F63686F69636528 PUSH2 0x17C0 DUP3 ADD MSTORE PUSH32 0x5B2D34352C34355D292C473D21303B627265616B3B636173652032333A693D35 PUSH2 0x17E0 DUP3 ADD MSTORE PUSH32 0x2C733D312C543D31302C673D33302C443D3130302C723D2E30342C243D2E312C PUSH2 0x1800 DUP3 ADD MSTORE PUSH32 0x493D2E30312C6C3D332C633D652E72616E646F6D5F696E74283530302C313130 PUSH2 0x1820 DUP3 ADD MSTORE PUSH32 0x30292C6D3D632F6C2C683D332A6D2C5F3D6D2F35302C753D2E30362C773D652E PUSH2 0x1840 DUP3 ADD MSTORE PUSH32 0x72616E646F6D5F696E74283130302C383030292C553D652E72616E646F6D5F63 PUSH2 0x1860 DUP3 ADD MSTORE PUSH32 0x686F696365285B2D34352C34355D292C473D21303B627265616B3B6361736520 PUSH2 0x1880 DUP3 ADD MSTORE PUSH32 0x32343A693D312C733D352C543D31302C673D31302C443D31302C723D2E30312C PUSH2 0x18A0 DUP3 ADD MSTORE PUSH32 0x243D2E30392C493D2E30392C6C3D342C633D652E72616E646F6D5F696E742838 PUSH2 0x18C0 DUP3 ADD MSTORE PUSH32 0x30302C31313030292C6D3D632F6C2C683D6D2F3130302C5F3D332A6D2C753D2E PUSH2 0x18E0 DUP3 ADD MSTORE PUSH32 0x30362C773D652E72616E646F6D5F696E74283130302C383030292C553D652E72 PUSH2 0x1900 DUP3 ADD MSTORE PUSH32 0x616E646F6D5F63686F696365285B2D34352C34355D292C473D21302C643D652E PUSH2 0x1920 DUP3 ADD MSTORE PUSH32 0x72616E646F6D5F63686F696365285B322C305D293B627265616B3B6361736520 PUSH2 0x1940 DUP3 ADD MSTORE PUSH32 0x32353A693D332C733D332C543D31302C673D31302C443D33302C723D2E312C24 PUSH2 0x1960 DUP3 ADD MSTORE PUSH32 0x3D2E30312C493D2E312C6C3D352C633D652E72616E646F6D5F696E7428353030 PUSH2 0x1980 DUP3 ADD MSTORE PUSH32 0x2C31313030292C6D3D632F6C2C683D6D2C5F3D6D2F31302C753D2E30362C773D PUSH2 0x19A0 DUP3 ADD MSTORE PUSH32 0x652E72616E646F6D5F696E74283130302C383030292C553D652E72616E646F6D PUSH2 0x19C0 DUP3 ADD MSTORE PUSH32 0x5F63686F696365285B2D34352C34355D292C473D21303B627265616B3B636173 PUSH2 0x19E0 DUP3 ADD MSTORE PUSH32 0x652032363A693D332C733D332C543D362C673D31302C443D33302C723D2E312C PUSH2 0x1A00 DUP3 ADD MSTORE PUSH32 0x243D2E30312C493D2E312C6C3D352C633D652E72616E646F6D5F696E74283530 PUSH2 0x1A20 DUP3 ADD MSTORE PUSH32 0x302C31313030292C6D3D632F6C2C683D6D2C5F3D6D2F35302C753D2E30362C77 PUSH2 0x1A40 DUP3 ADD MSTORE PUSH32 0x3D652E72616E646F6D5F696E74283130302C383030292C553D652E72616E646F PUSH2 0x1A60 DUP3 ADD MSTORE PUSH32 0x6D5F63686F696365285B2D34352C34355D292C473D21307D552B3D343D3D3D64 PUSH2 0x1A80 DUP3 ADD MSTORE PUSH32 0x3F652E72616E646F6D5F63686F696365285B2D34352C34355D293A302C243D24 PUSH2 0x1AA0 DUP3 ADD MSTORE PUSH32 0x7C7C302C733D737C7C302C503D21312C713D21302C4D3D652E72616E646F6D5F PUSH2 0x1AC0 DUP3 ADD MSTORE PUSH32 0x63686F696365285B2E3939342C2E3939352C2E3939362C2E3939372C2E393938 PUSH2 0x1AE0 DUP3 ADD MSTORE PUSH32 0x5D292C4E3D312D652E72616E646F6D5F696E7428312C32292A4D2B312C4C3D2D PUSH2 0x1B00 DUP3 ADD MSTORE PUSH32 0x35302C533D3235302C453D2D3130302C433D3135302C763D28432D45292F342C PUSH2 0x1B20 DUP3 ADD MSTORE PUSH32 0x663D652E72616E646F6D5F696E7428452C43292C703D652E72616E646F6D5F69 PUSH2 0x1B40 DUP3 ADD MSTORE PUSH32 0x6E7428302C313030292C793D652E72616E646F6D5F696E7428312C316533292C PUSH2 0x1B60 DUP3 ADD MSTORE PUSH32 0x573D27272C523D28432D45292F322C4C3D652E72616E646F6D5F696E74282D31 PUSH2 0x1B80 DUP3 ADD MSTORE PUSH32 0x322E352C31322E35292C636F6E736F6C652E6C6F672827626173654672657127 PUSH2 0x1BA0 DUP3 ADD MSTORE PUSH32 0x2C722C2764656E73697479272C672C277374726F6B655769647468272C442C27 PUSH2 0x1BC0 DUP3 ADD MSTORE PUSH32 0x7363616C65272C632C277363616C6532272C6D2C277363616C6534272C5F2C27 PUSH2 0x1BE0 DUP3 ADD MSTORE PUSH32 0x64656E73697479496E6372656D656E74272C752C277363616C65206469766964 PUSH2 0x1C00 DUP3 ADD MSTORE PUSH32 0x65272C6C2C276E756D4F637461766573272C692C276E756D4F63746176657332 PUSH2 0x1C20 DUP3 ADD MSTORE PUSH32 0x272C732C276D6F6F64272C6D6F6F642C2774797065272C642C2765726F73696F PUSH2 0x1C40 DUP3 ADD MSTORE PUSH32 0x6E272C772C276973566572746963616C272C622C27636F6C6F72272C636F6C6F PUSH2 0x1C60 DUP3 ADD MSTORE PUSH32 0x725B305D2C27636F6C6F724E616D65272C4B297D28292C6177616974206E6577 PUSH2 0x1C80 DUP3 ADD MSTORE PUSH32 0x2050726F6D6973652828653D3E73657454696D656F757428652C323030292929 PUSH2 0x1CA0 DUP3 ADD MSTORE PUSH32 0x2C72657175657374416E696D6174696F6E4672616D65282866756E6374696F6E PUSH2 0x1CC0 DUP3 ADD MSTORE PUSH32 0x28297B7570646174654C6F6164657228274C6F6164696E672066696C74657273 PUSH2 0x1CE0 DUP3 ADD MSTORE PUSH32 0x27297D29292C6177616974206E65772050726F6D6973652828653D3E73657454 PUSH2 0x1D00 DUP3 ADD MSTORE PUSH32 0x696D656F757428652C3230302929292C572B3D27203C646566733E272C572B3D PUSH2 0x1D20 DUP3 ADD MSTORE PUSH32 0x273C66696C7465722069643D276630273E272C572B3D603C66654D6F7270686F PUSH2 0x1D40 DUP3 ADD MSTORE PUSH32 0x6C6F6779206F70657261746F723D2765726F646527207261646975733D27247B PUSH2 0x1D60 DUP3 ADD MSTORE PUSH32 0x777D27202F3E602C572B3D273C2F66696C7465723E272C572B3D600A20202020 PUSH2 0x1D80 DUP3 ADD MSTORE PUSH32 0x20203C66696C7465722069643D276631273E0A20202020202020203C66655475 PUSH2 0x1DA0 DUP3 ADD MSTORE PUSH32 0x7262756C656E636520747970653D276672616374616C4E6F697365270A202020 PUSH2 0x1DC0 DUP3 ADD MSTORE PUSH32 0x20202020202020202020202020202020202020626173654672657175656E6379 PUSH2 0x1DE0 DUP3 ADD MSTORE PUSH32 0x3D27247B727D27206E756D4F6374617665733D27247B697D270A202020202020 PUSH2 0x1E00 DUP3 ADD MSTORE PUSH32 0x20202020202020202020202020202020736565643D27247B797D270A20202020 PUSH2 0x1E20 DUP3 ADD MSTORE PUSH32 0x202020202020202020202020202020202020726573756C743D2774757262756C PUSH2 0x1E40 DUP3 ADD MSTORE PUSH32 0x656E636527202F3E0A20202020202020203C666554757262756C656E63652074 PUSH2 0x1E60 DUP3 ADD MSTORE PUSH32 0x7970653D276672616374616C4E6F697365270A20202020202020202020202020 PUSH2 0x1E80 DUP3 ADD MSTORE PUSH32 0x202020202020202020626173654672657175656E63793D27247B247D27206E75 PUSH2 0x1EA0 DUP3 ADD MSTORE PUSH32 0x6D4F6374617665733D27247B737D270A20202020202020202020202020202020 PUSH2 0x1EC0 DUP3 ADD MSTORE PUSH32 0x202020202020736565643D27247B792B317D270A202020202020202020202020 PUSH2 0x1EE0 DUP3 ADD MSTORE PUSH32 0x20202020202020202020726573756C743D2774757262756C656E63653227202F PUSH2 0x1F00 DUP3 ADD MSTORE PUSH32 0x3E0A20202020202020203C6665446973706C6163656D656E744D617020696E32 PUSH2 0x1F20 DUP3 ADD MSTORE PUSH32 0x3D2774757262756C656E6365270A202020202020202020202020202020202020 PUSH2 0x1F40 DUP3 ADD MSTORE PUSH32 0x202020202020202020696E3D27536F757263654772617068696327207363616C PUSH2 0x1F60 DUP3 ADD MSTORE PUSH32 0x653D27247B6D7D270A2020202020202020202020202020202020202020202020 PUSH2 0x1F80 DUP3 ADD MSTORE PUSH32 0x20202020726573756C743D27646973706C6163656D656E74270A202020202020 PUSH2 0x1FA0 DUP3 ADD MSTORE PUSH32 0x202020202020202020202020202020202020202020784368616E6E656C53656C PUSH2 0x1FC0 DUP3 ADD MSTORE PUSH32 0x6563746F723D2741270A20202020202020202020202020202020202020202020 PUSH2 0x1FE0 DUP3 ADD MSTORE PUSH32 0x2020202020794368616E6E656C53656C6563746F723D274127202F3E0A202020 PUSH2 0x2000 DUP3 ADD MSTORE PUSH32 0x20202020203C6665446973706C6163656D656E744D617020696E323D27747572 PUSH2 0x2020 DUP3 ADD MSTORE PUSH32 0x62756C656E6365270A2020202020202020202020202020202020202020202020 PUSH2 0x2040 DUP3 ADD MSTORE PUSH32 0x20202020696E3D27536F757263654772617068696327207363616C653D27247B PUSH2 0x2060 DUP3 ADD MSTORE PUSH32 0x6D7D270A20202020202020202020202020202020202020202020202020202072 PUSH2 0x2080 DUP3 ADD MSTORE PUSH32 0x6573756C743D27646973706C6163656D656E7442270A20202020202020202020 PUSH2 0x20A0 DUP3 ADD MSTORE PUSH32 0x2020202020202020202020202020202020784368616E6E656C53656C6563746F PUSH2 0x20C0 DUP3 ADD MSTORE PUSH32 0x723D2741270A2020202020202020202020202020202020202020202020202020 PUSH2 0x20E0 DUP3 ADD MSTORE PUSH32 0x20794368616E6E656C53656C6563746F723D274127202F3E602C572B3D600A20 PUSH2 0x2100 DUP3 ADD MSTORE PUSH32 0x20202020202020202020203C6665446973706C6163656D656E744D617020696E PUSH2 0x2120 DUP3 ADD MSTORE PUSH32 0x323D2774757262756C656E636532270A20202020202020202020202020202020 PUSH2 0x2140 DUP3 ADD MSTORE PUSH32 0x2020202020202020202020696E3D27646973706C6163656D656E742720736361 PUSH2 0x2160 DUP3 ADD MSTORE PUSH32 0x6C653D27247B687D270A20202020202020202020202020202020202020202020 PUSH2 0x2180 DUP3 ADD MSTORE PUSH32 0x2020202020726573756C743D27646973706C6163656D656E7432270A20202020 PUSH2 0x21A0 DUP3 ADD MSTORE PUSH32 0x2020202020202020202020202020202020202020202020784368616E6E656C53 PUSH2 0x21C0 DUP3 ADD MSTORE PUSH32 0x656C6563746F723D2741270A2020202020202020202020202020202020202020 PUSH2 0x21E0 DUP3 ADD MSTORE PUSH32 0x20202020202020794368616E6E656C53656C6563746F723D274127202F3E0A20 PUSH2 0x2200 DUP3 ADD MSTORE PUSH32 0x2020202020202020202020202020203C6665446973706C6163656D656E744D61 PUSH2 0x2220 DUP3 ADD MSTORE PUSH32 0x7020696E323D2774757262756C656E636532270A202020202020202020202020 PUSH2 0x2240 DUP3 ADD MSTORE PUSH32 0x202020202020202020202020202020696E3D27646973706C6163656D656E7442 PUSH2 0x2260 DUP3 ADD MSTORE PUSH32 0x27207363616C653D27247B687D270A2020202020202020202020202020202020 PUSH2 0x2280 DUP3 ADD MSTORE PUSH32 0x20202020202020202020726573756C743D27646973706C6163656D656E744232 PUSH2 0x22A0 DUP3 ADD MSTORE PUSH32 0x270A202020202020202020202020202020202020202020202020202020784368 PUSH2 0x22C0 DUP3 ADD MSTORE PUSH32 0x616E6E656C53656C6563746F723D2741270A2020202020202020202020202020 PUSH2 0x22E0 DUP3 ADD MSTORE PUSH32 0x20202020202020202020202020794368616E6E656C53656C6563746F723D2741 PUSH2 0x2300 DUP3 ADD MSTORE PUSH32 0x27202F3E0A202020202020202020202020202020202020202020202020202020 PUSH2 0x2320 DUP3 ADD MSTORE PUSH32 0x3B602C47262628572B3D600A2020202020202020202020203C66655475726275 PUSH2 0x2340 DUP3 ADD MSTORE PUSH32 0x6C656E636520747970653D276672616374616C4E6F697365270A202020202020 PUSH2 0x2360 DUP3 ADD MSTORE PUSH32 0x20202020202020202020202020202020626173654672657175656E63793D2724 PUSH2 0x2380 DUP3 ADD MSTORE PUSH32 0x7B497D27206E756D4F6374617665733D27247B547D270A202020202020202020 PUSH2 0x23A0 DUP3 ADD MSTORE PUSH32 0x20202020202020202020202020736565643D27247B797D270A20202020202020 PUSH2 0x23C0 DUP3 ADD MSTORE PUSH32 0x202020202020202020202020202020726573756C743D2774757262756C656E63 PUSH2 0x23E0 DUP3 ADD MSTORE PUSH32 0x653327202F3E0A2020202020202020202020203C6665446973706C6163656D65 PUSH2 0x2400 DUP3 ADD MSTORE PUSH32 0x6E744D617020696E323D2774757262756C656E636533270A2020202020202020 PUSH2 0x2420 DUP3 ADD MSTORE PUSH32 0x20202020202020202020202020202020202020696E3D27646973706C6163656D PUSH2 0x2440 DUP3 ADD MSTORE PUSH32 0x656E7427207363616C653D27247B5F7D270A2020202020202020202020202020 PUSH2 0x2460 DUP3 ADD MSTORE PUSH32 0x20202020202020202020202020726573756C743D27646973706C6163656D656E PUSH2 0x2480 DUP3 ADD MSTORE PUSH32 0x7433270A20202020202020202020202020202020202020202020202020202078 PUSH2 0x24A0 DUP3 ADD MSTORE PUSH32 0x4368616E6E656C53656C6563746F723D2742270A202020202020202020202020 PUSH2 0x24C0 DUP3 ADD MSTORE PUSH32 0x202020202020202020202020202020794368616E6E656C53656C6563746F723D PUSH2 0x24E0 DUP3 ADD MSTORE PUSH32 0x274127202F3E0A20202020202020202020202020202020202020202020202020 PUSH2 0x2500 DUP3 ADD MSTORE PUSH32 0x20203B60292C572B3D270A2020202020203C6665426C656E6420696E3D276469 PUSH2 0x2520 DUP3 ADD MSTORE PUSH32 0x73706C6163656D656E74322720696E323D27646973706C6163656D656E743227 PUSH2 0x2540 DUP3 ADD MSTORE PUSH32 0x20726573756C743D276275726E27206D6F64653D276E6F726D616C272F3E0A20 PUSH2 0x2560 DUP3 ADD MSTORE PUSH32 0x20202020272C572B3D270A3C2F66696C7465723E0A202020203C2F646566733E PUSH2 0x2580 DUP3 ADD MSTORE PUSH32 0xA2020272C572B3D600A202020200A20203C726563742066696C6C3D2723247B PUSH2 0x25A0 DUP3 ADD MSTORE PUSH32 0x636F6C6F725B305D7D2720783D27302720793D2730272077696474683D273130 PUSH2 0x25C0 DUP3 ADD MSTORE PUSH32 0x3027206865696768743D2731303027202F3E0A602C482E696E6E657248544D4C PUSH2 0x25E0 DUP3 ADD MSTORE PUSH32 0x2B3D572C72657175657374416E696D6174696F6E4672616D65282866756E6374 PUSH2 0x2600 DUP3 ADD MSTORE PUSH32 0x696F6E28297B72656D6F7665416C6C4C6F616465727328292C6164644C6F6164 PUSH2 0x2620 DUP3 ADD MSTORE PUSH32 0x657228274C6F6164696E672068746D6C27297D29292C6177616974206E657720 PUSH2 0x2640 DUP3 ADD MSTORE PUSH32 0x50726F6D6973652828653D3E73657454696D656F757428652C3230302929292C PUSH2 0x2660 DUP3 ADD MSTORE PUSH32 0x573D27272C64297B6361736520323A623F287A3D607472616E736C6174652835 PUSH2 0x2680 DUP3 ADD MSTORE PUSH32 0x302C35302920726F7461746528247B557D29207363616C6528247B787D20247B PUSH2 0x26A0 DUP3 ADD MSTORE PUSH32 0x417D29207472616E736C617465282D35302C2D353029602C4F3D66756E637469 PUSH2 0x26C0 DUP3 ADD MSTORE PUSH32 0x6F6E28652C6E2C742C6F2C61297B72657475726E603C6C696E65207472616E73 PUSH2 0x26E0 DUP3 ADD MSTORE PUSH32 0x666F726D3D27247B7A7D272066696C7465723D2775726C2823247B657D292720 PUSH2 0x2700 DUP3 ADD MSTORE PUSH32 0x7374726F6B652D6F7061636974793D272E39352720207374726F6B653D272324 PUSH2 0x2720 DUP3 ADD MSTORE PUSH32 0x7B6E7D27207374796C653D277374726F6B652D77696474683A247B617D272079 PUSH2 0x2740 DUP3 ADD MSTORE PUSH32 0x313D27247B747D272078313D27247B6F7D272078323D27247B31305E747D2720 PUSH2 0x2760 DUP3 ADD MSTORE PUSH32 0x79323D27247B6F7D27202F3E607D293A287A3D607472616E736C617465283530 PUSH2 0x2780 DUP3 ADD MSTORE PUSH32 0x2C35302920726F7461746528247B557D29207363616C6528247B787D20247B41 PUSH2 0x27A0 DUP3 ADD MSTORE PUSH32 0x7D29207472616E736C617465282D35302C2D353029602C4F3D66756E6374696F PUSH2 0x27C0 DUP3 ADD MSTORE PUSH32 0x6E28652C6E2C742C6F2C61297B72657475726E603C6C696E65207472616E7366 PUSH2 0x27E0 DUP3 ADD MSTORE PUSH32 0x6F726D3D27247B7A7D272066696C7465723D2775726C2823247B657D29272073 PUSH2 0x2800 DUP3 ADD MSTORE PUSH32 0x74726F6B652D6F7061636974793D272E39352720207374726F6B653D2723247B PUSH2 0x2820 DUP3 ADD MSTORE PUSH32 0x6E7D27207374796C653D277374726F6B652D77696474683A247B617D27207831 PUSH2 0x2840 DUP3 ADD MSTORE PUSH32 0x3D27247B747D272079313D27247B6F7D272079323D27247B31305E747D272078 PUSH2 0x2860 DUP3 ADD MSTORE PUSH32 0x323D27247B6F7D27202F3E607D293B627265616B3B6361736520333A623F287A PUSH2 0x2880 DUP3 ADD MSTORE PUSH32 0x3D607472616E736C6174652835302C35302920726F7461746528247B557D2920 PUSH2 0x28A0 DUP3 ADD MSTORE PUSH32 0x7363616C6528247B787D20247B417D29207472616E736C617465282D35302C2D PUSH2 0x28C0 DUP3 ADD MSTORE PUSH32 0x353029602C4F3D66756E6374696F6E28652C6E2C742C6F2C61297B7265747572 PUSH2 0x28E0 DUP3 ADD MSTORE PUSH32 0x6E603C6C696E65207472616E73666F726D3D27247B7A7D272066696C7465723D PUSH2 0x2900 DUP3 ADD MSTORE PUSH32 0x2775726C2823247B657D2927207374726F6B652D6F7061636974793D272E3935 PUSH2 0x2920 DUP3 ADD MSTORE PUSH32 0x27207374726F6B653D2723247B6E7D27207374796C653D277374726F6B652D77 PUSH2 0x2940 DUP3 ADD MSTORE PUSH32 0x696474683A247B617D272079313D27247B747D272078313D27247B6F7D272078 PUSH2 0x2960 DUP3 ADD MSTORE PUSH32 0x323D27247B322A747D272079323D27247B322A6F7D27202F3E607D293A287A3D PUSH2 0x2980 DUP3 ADD MSTORE PUSH32 0x607472616E736C6174652835302C35302920726F7461746528247B557D292073 PUSH2 0x29A0 DUP3 ADD MSTORE PUSH32 0x63616C6528247B787D20247B417D29207472616E736C617465282D35302C2D35 PUSH2 0x29C0 DUP3 ADD MSTORE PUSH32 0x3029602C4F3D66756E6374696F6E28652C6E2C742C6F2C61297B72657475726E PUSH2 0x29E0 DUP3 ADD MSTORE PUSH32 0x603C6C696E65207472616E73666F726D3D27247B7A7D272066696C7465723D27 PUSH2 0x2A00 DUP3 ADD MSTORE PUSH32 0x75726C2823247B657D29277374726F6B652D6F7061636974793D272E39352720 PUSH2 0x2A20 DUP3 ADD MSTORE PUSH32 0x207374726F6B653D2723247B6E7D27207374796C653D277374726F6B652D7769 PUSH2 0x2A40 DUP3 ADD MSTORE PUSH32 0x6474683A247B617D272078313D27247B747D272079313D27247B6F7D27207932 PUSH2 0x2A60 DUP3 ADD MSTORE PUSH32 0x3D27247B322A747D272078323D27247B322A6F7D27202F3E607D293B62726561 PUSH2 0x2A80 DUP3 ADD MSTORE PUSH32 0x6B3B6361736520343A452D3D3130302C623F287A3D607472616E736C61746528 PUSH2 0x2AA0 DUP3 ADD MSTORE PUSH32 0x35302C35302920726F7461746528247B552B652E72616E646F6D5F63686F6963 PUSH2 0x2AC0 DUP3 ADD MSTORE PUSH32 0x65285B2D34352C34355D297D29207363616C6528247B787D20247B417D292074 PUSH2 0x2AE0 DUP3 ADD MSTORE PUSH32 0x72616E736C617465282D35302C2D353029602C4F3D66756E6374696F6E28652C PUSH2 0x2B00 DUP3 ADD MSTORE PUSH32 0x6E2C742C6F2C61297B72657475726E603C6C696E65207472616E73666F726D3D PUSH2 0x2B20 DUP3 ADD MSTORE PUSH32 0x27247B7A7D27202066696C7465723D2775726C2823247B657D2927207374726F PUSH2 0x2B40 DUP3 ADD MSTORE PUSH32 0x6B652D6F7061636974793D272E39352720207374726F6B653D2723247B6E7D27 PUSH2 0x2B60 DUP3 ADD MSTORE PUSH32 0x207374796C653D277374726F6B652D77696474683A247B617D272079313D2724 PUSH2 0x2B80 DUP3 ADD MSTORE PUSH32 0x7B747D272078313D27247B6F7D272078323D27247B742B3130307D272079323D PUSH2 0x2BA0 DUP3 ADD MSTORE PUSH32 0x27247B6F7D27202F3E607D293A287A3D607472616E736C6174652835302C3530 PUSH2 0x2BC0 DUP3 ADD MSTORE PUSH32 0x2920726F7461746528247B552B652E72616E646F6D5F63686F696365285B2D34 PUSH2 0x2BE0 DUP3 ADD MSTORE PUSH32 0x352C34355D297D29207363616C6528247B787D20247B417D29207472616E736C PUSH2 0x2C00 DUP3 ADD MSTORE PUSH32 0x617465282D35302C2D353029602C4F3D66756E6374696F6E28652C6E2C742C6F PUSH2 0x2C20 DUP3 ADD MSTORE PUSH32 0x2C61297B72657475726E603C6C696E65207472616E73666F726D3D27247B7A7D PUSH2 0x2C40 DUP3 ADD MSTORE PUSH32 0x2720202066696C7465723D2775726C2823247B657D2927207374726F6B652D6F PUSH2 0x2C60 DUP3 ADD MSTORE PUSH32 0x7061636974793D272E39352720207374726F6B653D2723247B6E7D2720737479 PUSH2 0x2C80 DUP3 ADD MSTORE PUSH32 0x6C653D277374726F6B652D77696474683A247B617D272078313D27247B747D27 PUSH2 0x2CA0 DUP3 ADD MSTORE PUSH32 0x2079313D27247B6F7D272079323D27247B742B3130307D272078323D27247B6F PUSH2 0x2CC0 DUP3 ADD MSTORE PUSH32 0x7D27202F3E607D293B627265616B3B64656661756C743A623F287A3D60747261 PUSH2 0x2CE0 DUP3 ADD MSTORE PUSH32 0x6E736C6174652835302C35302920726F7461746528247B557D29207363616C65 PUSH2 0x2D00 DUP3 ADD MSTORE PUSH32 0x28247B787D20247B417D29207472616E736C617465282D35302C2D353029602C PUSH2 0x2D20 DUP3 ADD MSTORE PUSH32 0x4F3D66756E6374696F6E28652C6E2C742C6F2C61297B72657475726E603C6C69 PUSH2 0x2D40 DUP3 ADD MSTORE PUSH32 0x6E65207472616E73666F726D3D27247B7A7D27202066696C7465723D2775726C PUSH2 0x2D60 DUP3 ADD MSTORE PUSH32 0x2823247B657D29277374726F6B652D6F7061636974793D272E39352720207374 PUSH2 0x2D80 DUP3 ADD MSTORE PUSH32 0x726F6B653D2723247B6E7D27207374796C653D277374726F6B652D7769647468 PUSH2 0x2DA0 DUP3 ADD MSTORE PUSH32 0x3A247B617D272079313D27247B747D272078313D27247B6F7D272078323D2724 PUSH2 0x2DC0 DUP3 ADD MSTORE PUSH32 0x7B747D272079323D27247B6F7D27202F3E607D293A287A3D607472616E736C61 PUSH2 0x2DE0 DUP3 ADD MSTORE PUSH32 0x74652835302C35302920726F7461746528247B557D29207363616C6528247B78 PUSH2 0x2E00 DUP3 ADD MSTORE PUSH32 0x7D20247B417D29207472616E736C617465282D35302C2D353029602C4F3D6675 PUSH2 0x2E20 DUP3 ADD MSTORE PUSH32 0x6E6374696F6E28652C6E2C742C6F2C61297B72657475726E603C6C696E652074 PUSH2 0x2E40 DUP3 ADD MSTORE PUSH32 0x72616E73666F726D3D27247B7A7D27202066696C7465723D2775726C2823247B PUSH2 0x2E60 DUP3 ADD MSTORE PUSH32 0x657D29277374726F6B652D6F7061636974793D272E39352720207374726F6B65 PUSH2 0x2E80 DUP3 ADD MSTORE PUSH32 0x3D2723247B6E7D27207374796C653D277374726F6B652D77696474683A247B61 PUSH2 0x2EA0 DUP3 ADD MSTORE PUSH32 0x7D272078313D27247B747D272079313D27247B6F7D272079323D27247B747D27 PUSH2 0x2EC0 DUP3 ADD MSTORE PUSH32 0x2078323D27247B6F7D27202F3E607D297D652E72616E646F6D5F626F6F6C282E PUSH2 0x2EE0 DUP3 ADD MSTORE PUSH32 0x34293F563D66756E6374696F6E2865297B442A3D653C523F2D4D3A2D4E7D3A28 PUSH2 0x2F00 DUP3 ADD MSTORE PUSH32 0x4C3D652E72616E646F6D5F696E742831302C3130302F332E35292C4E3D652E72 PUSH2 0x2F20 DUP3 ADD MSTORE PUSH32 0x616E646F6D5F696E7428342C3132292C563D66756E6374696F6E2865297B442A PUSH2 0x2F40 DUP3 ADD MSTORE PUSH32 0x3D4D7D292C463D302C6B3D303B666F72286C6574206E3D4C3B6E3C3D533B6E2B PUSH2 0x2F60 DUP3 ADD MSTORE PUSH32 0x3D67297B462B2B2C463E3D636F6C6F722E6C656E677468262628463D30292C67 PUSH2 0x2F80 DUP3 ADD MSTORE PUSH32 0x2B3D752C423D6A2846293B666F72286C657420743D303B743C323B742B2B297B PUSH2 0x2FA0 DUP3 ADD MSTORE PUSH32 0x6C6574206F3D6E2C613D6066247B747D603B666F72286C6574206E3D453B6E3C PUSH2 0x2FC0 DUP3 ADD MSTORE PUSH32 0x433B6E2B3D76296B2B2B2C56286E292C572B3D4F28612C422C6E2C6F2C652E72 PUSH2 0x2FE0 DUP3 ADD MSTORE PUSH32 0x616E646F6D5F6E756D28302C44292C636F6C6F725B4D6174682E61627328462D PUSH2 0x3000 DUP3 ADD MSTORE PUSH32 0x31295D297D7D572B3D603C726563742066696C6C3D2723247B636F6C6F725B30 PUSH2 0x3020 DUP3 ADD MSTORE PUSH32 0x5D7D2720783D27302720793D27247B532B677D272077696474683D2731303027 PUSH2 0x3040 DUP3 ADD MSTORE PUSH32 0x206865696768743D2731303027202F3E602C72657175657374416E696D617469 PUSH2 0x3060 DUP3 ADD MSTORE PUSH32 0x6F6E4672616D65282866756E6374696F6E28297B7570646174654C6F61646572 PUSH2 0x3080 DUP3 ADD MSTORE PUSH32 0x282752656E646572696E67205356472C20746869732063616E2074616B652061 PUSH2 0x30A0 DUP3 ADD MSTORE PUSH32 0x20666577207365636F6E647327297D29292C6177616974206E65772050726F6D PUSH2 0x30C0 DUP3 ADD MSTORE PUSH32 0x6973652828653D3E73657454696D656F757428652C3230302929292C72657175 PUSH2 0x30E0 DUP3 ADD MSTORE PUSH32 0x657374416E696D6174696F6E4672616D65282866756E6374696F6E28297B482E PUSH2 0x3100 DUP3 ADD MSTORE PUSH32 0x696E6E657248544D4C2B3D577D29292C72657175657374416E696D6174696F6E PUSH2 0x3120 DUP3 ADD MSTORE PUSH32 0x4672616D65282866756E6374696F6E28297B72656D6F7665416C6C4C6F616465 PUSH2 0x3140 DUP3 ADD MSTORE PUSH32 0x727328297D29292C646F63756D656E742E6164644576656E744C697374656E65 PUSH2 0x3160 DUP3 ADD MSTORE PUSH32 0x7228276B6579646F776E272C286173796E632066756E6374696F6E2865297B69 PUSH2 0x3180 DUP3 ADD MSTORE PUSH32 0x66282773273D3D3D652E6B65797C7C2753273D3D3D652E6B6579297B72657175 PUSH2 0x31A0 DUP3 ADD MSTORE PUSH32 0x657374416E696D6174696F6E4672616D65282866756E6374696F6E28297B6164 PUSH2 0x31C0 DUP3 ADD MSTORE PUSH32 0x644C6F616465722827536176696E672053564727297D29292C6177616974206E PUSH2 0x31E0 DUP3 ADD MSTORE PUSH32 0x65772050726F6D6973652828653D3E73657454696D656F757428652C32303029 PUSH2 0x3200 DUP3 ADD MSTORE PUSH32 0x29293B636F6E737420653D646F63756D656E742E676574456C656D656E744279 PUSH2 0x3220 DUP3 ADD MSTORE PUSH32 0x496428276D7953766727292C6E3D646F63756D656E742E637265617465456C65 PUSH2 0x3240 DUP3 ADD MSTORE PUSH32 0x6D656E7428277374796C6527293B6E2E74657874436F6E74656E743D600A2020 PUSH2 0x3260 DUP3 ADD MSTORE PUSH32 0x2020737667207B0A20202020202077696474683A2031303076773B0A20202020 PUSH2 0x3280 DUP3 ADD MSTORE PUSH32 0x20206865696768743A2031303076683B0A20202020202070616464696E673A20 PUSH2 0x32A0 DUP3 ADD MSTORE PUSH32 0x30766D696E3B0A202020202020626F782D736861646F773A202E35766D696E20 PUSH2 0x32C0 DUP3 ADD MSTORE PUSH32 0x2E35766D696E2031766D696E207267626128302C20302C20302C20302E35293B PUSH2 0x32E0 DUP3 ADD MSTORE PUSH32 0xA202020202020626F782D73697A696E673A20626F726465722D626F783B0A20 PUSH2 0x3300 DUP3 ADD MSTORE PUSH32 0x2020207D0A202020203C212D2D20496620796F752077616E7420746F20646973 PUSH2 0x3320 DUP3 ADD MSTORE PUSH32 0x706C617920746865205356472061732069742077617320696E20746865206765 PUSH2 0x3340 DUP3 ADD MSTORE PUSH32 0x6E657261746F722C206A7573742070757420697420696E746F20746865203C62 PUSH2 0x3360 DUP3 ADD MSTORE PUSH32 0x6F64793E206F6620616E2068746D6C207061676520616E642061646420746869 PUSH2 0x3380 DUP3 ADD MSTORE PUSH32 0x73207374796C696E67202D2D3E0A20202020626F6479207B0A20202020202064 PUSH2 0x33A0 DUP3 ADD MSTORE PUSH32 0x6973706C61793A20666C65783B0A2020202020206A7573746966792D636F6E74 PUSH2 0x33C0 DUP3 ADD MSTORE PUSH32 0x656E743A2063656E7465723B0A202020202020616C69676E2D6974656D733A20 PUSH2 0x33E0 DUP3 ADD MSTORE PUSH32 0x63656E7465723B0A2020202020206261636B67726F756E642D636F6C6F723A20 PUSH2 0x3400 DUP3 ADD MSTORE PUSH32 0x23247B636F6C6F725B305D7D3B0A202020207D0A2020602C652E70726570656E PUSH2 0x3420 DUP3 ADD MSTORE PUSH32 0x64286E293B636F6E737420743D6E657720584D4C53657269616C697A65722C6F PUSH2 0x3440 DUP3 ADD MSTORE PUSH32 0x3D6E657720426C6F62285B742E73657269616C697A65546F537472696E672865 PUSH2 0x3460 DUP3 ADD MSTORE PUSH32 0x295D2C7B747970653A27696D6167652F7376672B786D6C277D292C613D55524C PUSH2 0x3480 DUP3 ADD MSTORE PUSH32 0x2E6372656174654F626A65637455524C286F293B646F63756D656E742E777269 PUSH2 0x34A0 DUP3 ADD MSTORE PUSH32 0x74652865293B636F6E737420723D646F63756D656E742E637265617465456C65 PUSH2 0x34C0 DUP3 ADD MSTORE PUSH32 0x6D656E7428276127293B722E687265663D612C722E646F776E6C6F61643D275F PUSH2 0x34E0 DUP3 ADD MSTORE PUSH32 0x5F5F5F5F5F5F5F5F2E737667272C646F63756D656E742E626F64792E61707065 PUSH2 0x3500 DUP3 ADD MSTORE PUSH32 0x6E644368696C642872292C722E636C69636B28292C646F63756D656E742E626F PUSH2 0x3520 DUP3 ADD MSTORE PUSH32 0x64792E72656D6F76654368696C642872292C55524C2E7265766F6B654F626A65 PUSH2 0x3540 DUP3 ADD MSTORE PUSH32 0x637455524C2861292C72656D6F7665416C6C4C6F616465727328297D7D29292C PUSH2 0x3560 DUP3 ADD MSTORE PUSH32 0x646F63756D656E742E6164644576656E744C697374656E657228276B6579646F PUSH2 0x3580 DUP3 ADD MSTORE PUSH32 0x776E272C286173796E632066756E6374696F6E2865297B72657175657374416E PUSH2 0x35A0 DUP3 ADD MSTORE PUSH32 0x696D6174696F6E4672616D65282866756E6374696F6E28297B6164644C6F6164 PUSH2 0x35C0 DUP3 ADD MSTORE PUSH32 0x657228274C6F6164696E67206E65772061737065637420726174696F27297D29 PUSH2 0x35E0 DUP3 ADD MSTORE PUSH32 0x292C6177616974206E65772050726F6D6973652828653D3E73657454696D656F PUSH2 0x3600 DUP3 ADD MSTORE PUSH32 0x757428652C3230302929292C274172726F775269676874273D3D3D652E6B6579 PUSH2 0x3620 DUP3 ADD MSTORE PUSH32 0x3F743D28742B3129256E2E6C656E6774683A274172726F774C656674273D3D3D PUSH2 0x3640 DUP3 ADD MSTORE PUSH32 0x652E6B6579262628743D28742D312B6E2E6C656E67746829256E2E6C656E6774 PUSH2 0x3660 DUP3 ADD MSTORE PUSH32 0x68292C736574526174696F286E2C74292C72656D6F7665416C6C4C6F61646572 PUSH2 0x3680 DUP3 ADD MSTORE PUSH32 0x7328297D29292C482E6164644576656E744C697374656E65722827746F756368 PUSH2 0x36A0 DUP3 ADD MSTORE PUSH32 0x656E64272C286173796E632066756E6374696F6E2865297B7265717565737441 PUSH2 0x36C0 DUP3 ADD MSTORE PUSH32 0x6E696D6174696F6E4672616D65282866756E6374696F6E28297B6164644C6F61 PUSH2 0x36E0 DUP3 ADD MSTORE PUSH32 0x64657228274C6F6164696E67206E65772061737065637420726174696F27297D PUSH2 0x3700 DUP3 ADD MSTORE PUSH32 0x29292C6177616974206E65772050726F6D6973652828653D3E73657454696D65 PUSH2 0x3720 DUP3 ADD MSTORE PUSH32 0x6F757428652C3230302929292C743D28742B3129256E2E6C656E6774683B636F PUSH2 0x3740 DUP3 ADD MSTORE PUSH32 0x6E7374206F3D6E5B745D3B646F63756D656E742E676574456C656D656E744279 PUSH2 0x3760 DUP3 ADD MSTORE PUSH32 0x496428276D7953766727292C646F526174696F286F2C646F63756D656E742E67 PUSH2 0x3780 DUP3 ADD MSTORE PUSH32 0x6574456C656D656E744279496428276D795376672729292C72656D6F7665416C PUSH2 0x37A0 DUP3 ADD MSTORE PUSH32 0x6C4C6F616465727328297D29297D3B66756E6374696F6E20646F526174696F28 PUSH2 0x37C0 DUP3 ADD MSTORE PUSH32 0x652C6E297B3130303D3D3D652E776964746826263130303D3D3D652E68656967 PUSH2 0x37E0 DUP3 ADD MSTORE PUSH32 0x68743F286E2E7374796C652E77696474683D273130307677272C6E2E7374796C PUSH2 0x3800 DUP3 ADD MSTORE PUSH32 0x652E6865696768743D27313030766827293A652E77696474682F652E68656967 PUSH2 0x3820 DUP3 ADD MSTORE PUSH32 0x68743E313F286E2E7374796C652E77696474683D273130307677272C6E2E7374 PUSH2 0x3840 DUP3 ADD MSTORE PUSH32 0x796C652E6865696768743D6063616C63283130307677202A2028247B652E6865 PUSH2 0x3860 DUP3 ADD MSTORE PUSH32 0x696768747D202F20247B652E77696474687D292960293A286E2E7374796C652E PUSH2 0x3880 DUP3 ADD MSTORE PUSH32 0x6865696768743D273130307668272C6E2E7374796C652E77696474683D606361 PUSH2 0x38A0 DUP3 ADD MSTORE PUSH32 0x6C63283130307668202A2028247B652E77696474687D202F20247B652E686569 PUSH2 0x38C0 DUP3 ADD MSTORE PUSH32 0x6768747D292960297D66756E6374696F6E2066696E644E616D654279436F6C6F PUSH2 0x38E0 DUP3 ADD MSTORE PUSH32 0x7228652C6E297B666F72286C657420743D303B743C6E2E6C656E6774683B742B PUSH2 0x3900 DUP3 ADD MSTORE PUSH32 0x2B296966286E5B745D2E636F6C6F723D3D3D652972657475726E206E5B745D2E PUSH2 0x3920 DUP3 ADD MSTORE PUSH32 0x6E616D657D66756E6374696F6E20736574526174696F28652C6E297B646F5261 PUSH2 0x3940 DUP3 ADD MSTORE PUSH32 0x74696F28655B6E5D2C646F63756D656E742E676574456C656D656E7442794964 PUSH2 0x3960 DUP3 ADD MSTORE PUSH32 0x28276D795376672729297D6C65742069734C6F616465643D21313B66756E6374 PUSH2 0x3980 DUP3 ADD MSTORE PUSH32 0x696F6E20697353616661726928297B72657475726E27756E646566696E656427 PUSH2 0x39A0 DUP3 ADD MSTORE PUSH32 0x213D747970656F66206E6176696761746F7226266E756C6C213D6E6176696761 PUSH2 0x39C0 DUP3 ADD MSTORE PUSH32 0x746F7226262F5E28283F216368726F6D657C616E64726F6964292E292A736166 PUSH2 0x39E0 DUP3 ADD MSTORE PUSH32 0x6172692F692E74657374286E6176696761746F723F2E757365724167656E7429 PUSH2 0x3A00 DUP3 ADD MSTORE PUSH32 0x7D66756E6374696F6E2072656D6F7665416C6C4C6F616465727328297B646F63 PUSH2 0x3A20 DUP3 ADD MSTORE PUSH32 0x756D656E742E717565727953656C6563746F72416C6C28272E6C6F616465722D PUSH2 0x3A40 DUP3 ADD MSTORE PUSH32 0x636F6E7461696E657227292E666F72456163682828653D3E7B652E706172656E PUSH2 0x3A60 DUP3 ADD MSTORE PUSH32 0x744E6F64652E72656D6F76654368696C642865297D29297D66756E6374696F6E PUSH2 0x3A80 DUP3 ADD MSTORE PUSH32 0x206164644C6F616465722865297B6C6574206E3D646F63756D656E742E637265 PUSH2 0x3AA0 DUP3 ADD MSTORE PUSH32 0x617465456C656D656E74282764697627293B6E2E636C6173734E616D653D276C PUSH2 0x3AC0 DUP3 ADD MSTORE PUSH32 0x6F616465722D636F6E7461696E6572272C6E2E7374796C652E706F736974696F PUSH2 0x3AE0 DUP3 ADD MSTORE PUSH32 0x6E3D276162736F6C757465272C6E2E7374796C652E6C6566743D27353025272C PUSH2 0x3B00 DUP3 ADD MSTORE PUSH32 0x6E2E7374796C652E746F703D27353025272C6E2E7374796C652E7472616E7366 PUSH2 0x3B20 DUP3 ADD MSTORE PUSH32 0x6F726D3D277472616E736C617465282D3530252C202D35302529273B636F6E73 PUSH2 0x3B40 DUP3 ADD MSTORE PUSH32 0x7420743D646F63756D656E742E637265617465456C656D656E74282764697627 PUSH2 0x3B60 DUP3 ADD MSTORE PUSH32 0x293B6C6574206F3B696628742E696E6E6572546578743D652B272E2E2E272C74 PUSH2 0x3B80 DUP3 ADD MSTORE PUSH32 0x2E7374796C652E636F6C6F723D2723464646464646272C742E7374796C652E62 PUSH2 0x3BA0 DUP3 ADD MSTORE PUSH32 0x6F726465723D2723303030303030272C742E7374796C652E666F6E7446616D69 PUSH2 0x3BC0 DUP3 ADD MSTORE PUSH32 0x6C793D2748656C7665746963612C20417269616C2C2073616E732D7365726966 PUSH2 0x3BE0 DUP3 ADD MSTORE PUSH32 0x272C742E7374796C652E666F6E7453697A653D2731347078272C742E7374796C PUSH2 0x3C00 DUP3 ADD MSTORE PUSH32 0x652E77696474683D276D61782D636F6E74656E74272C742E7374796C652E6469 PUSH2 0x3C20 DUP3 ADD MSTORE PUSH32 0x73706C61793D27696E6C696E652D626C6F636B272C742E636C6173734E616D65 PUSH2 0x3C40 DUP3 ADD MSTORE PUSH32 0x3D276C6F6164696E672D74657874272C742E69643D276C6F616465722D746578 PUSH2 0x3C60 DUP3 ADD MSTORE PUSH32 0x74272C6E2E617070656E644368696C642874292C646F63756D656E742E626F64 PUSH2 0x3C80 DUP3 ADD MSTORE PUSH32 0x792E617070656E644368696C64286E292C646F63756D656E742E7374796C6553 PUSH2 0x3CA0 DUP3 ADD MSTORE PUSH32 0x68656574732E6C656E6774683E30296F3D646F63756D656E742E7374796C6553 PUSH2 0x3CC0 DUP3 ADD MSTORE PUSH32 0x68656574735B305D3B656C73657B636F6E737420653D646F63756D656E742E63 PUSH2 0x3CE0 DUP3 ADD MSTORE PUSH32 0x7265617465456C656D656E7428277374796C6527293B646F63756D656E742E68 PUSH2 0x3D00 DUP3 ADD MSTORE PUSH32 0x6561642E617070656E644368696C642865292C6F3D652E73686565747D6F2E69 PUSH2 0x3D20 DUP3 ADD MSTORE PUSH32 0x6E7365727452756C6528270A20202020406B65796672616D6573207370696E20 PUSH2 0x3D40 DUP3 ADD MSTORE PUSH32 0x7B0A20202020202020203025207B207472616E73666F726D3A20726F74617465 PUSH2 0x3D60 DUP3 ADD MSTORE PUSH32 0x2830646567293B207D0A202020202020202031303025207B207472616E73666F PUSH2 0x3D80 DUP3 ADD MSTORE PUSH32 0x726D3A20726F7461746528333630646567293B207D0A202020207D0A20202020 PUSH2 0x3DA0 DUP3 ADD MSTORE PUSH32 0x272C6F2E63737352756C65732E6C656E677468297D66756E6374696F6E207570 PUSH2 0x3DC0 DUP3 ADD MSTORE PUSH32 0x646174654C6F616465722865297B646F63756D656E742E717565727953656C65 PUSH2 0x3DE0 DUP3 ADD MSTORE PUSH32 0x63746F72416C6C28272E6C6F6164696E672D7465787427292E666F7245616368 PUSH2 0x3E00 DUP3 ADD MSTORE PUSH32 0x28286E3D3E7B6E2E696E6E6572546578743D652B272E2E2E277D29297D66756E PUSH2 0x3E20 DUP3 ADD MSTORE PUSH32 0x6374696F6E20616464506F74656E7469616C506F70757028297B76617220653D PUSH2 0x3E40 DUP3 ADD MSTORE PUSH32 0x646F63756D656E742E637265617465456C656D656E74282764697627293B652E PUSH2 0x3E60 DUP3 ADD MSTORE PUSH32 0x69643D277361666172692D706F707570272C652E7374796C653D27646973706C PUSH2 0x3E80 DUP3 ADD MSTORE PUSH32 0x61793A206E6F6E653B20706F736974696F6E3A2066697865643B20746F703A20 PUSH2 0x3EA0 DUP3 ADD MSTORE PUSH32 0x3530253B206C6566743A203530253B207472616E73666F726D3A207472616E73 PUSH2 0x3EC0 DUP3 ADD MSTORE PUSH32 0x6C617465282D3530252C202D353025293B206261636B67726F756E642D636F6C PUSH2 0x3EE0 DUP3 ADD MSTORE PUSH32 0x6F723A2077686974653B2070616464696E673A20323070783B20626F72646572 PUSH2 0x3F00 DUP3 ADD MSTORE PUSH32 0x3A2031707820736F6C696420236363633B207A2D696E6465783A20313030303B PUSH2 0x3F20 DUP3 ADD MSTORE PUSH32 0x272C652E696E6E657248544D4C3D273C703E5765206861766520646574656374 PUSH2 0x3F40 DUP3 ADD MSTORE PUSH32 0x656420796F7520617265207573696E6720746865207765622062726F73657220 PUSH2 0x3F60 DUP3 ADD MSTORE PUSH32 0x5361666172692E205361666172692063757272656E746C792075736573203C61 PUSH2 0x3F80 DUP3 ADD MSTORE PUSH32 0x207461726765743D275F626C616E6B2720687265663D2768747470733A2F2F65 PUSH2 0x3FA0 DUP3 ADD MSTORE PUSH32 0x6E2E77696B6970656469612E6F72672F77696B692F436F6D70617269736F6E5F PUSH2 0x3FC0 DUP3 ADD MSTORE PUSH32 0x6F665F62726F777365725F656E67696E6573273E5765624B69743C2F613E2C20 PUSH2 0x3FE0 DUP3 ADD MSTORE PUSH32 0x77686963682063616E2068617665206C61726765206D656D6F7279206C65616B PUSH2 0x4000 DUP3 ADD MSTORE PUSH32 0x73207768656E206C6F6164696E67205356477320776974682066696C74657273 PUSH2 0x4020 DUP3 ADD MSTORE PUSH32 0x2C206D616B696E67207468652073797374656D20756E726573706F6E73697665 PUSH2 0x4040 DUP3 ADD MSTORE PUSH32 0x2E2054686973203C61207461726765743D275F626C616E6B2720687265663D27 PUSH2 0x4060 DUP3 ADD MSTORE PUSH32 0x68747470733A2F2F627567732E7765626B69742E6F72672F73686F775F627567 PUSH2 0x4080 DUP3 ADD MSTORE PUSH32 0x2E6367693F69643D323138343232273E69737375653C2F613E20686173206265 PUSH2 0x40A0 DUP3 ADD MSTORE PUSH32 0x656E207265706F7274656420746F205765624B69742E2049207265636F6D6D65 PUSH2 0x40C0 DUP3 ADD MSTORE PUSH32 0x6E64203C61207461726765743D275F626C616E6B2720687265663D2768747470 PUSH2 0x40E0 DUP3 ADD MSTORE PUSH32 0x733A2F2F656E2E77696B6970656469612E6F72672F77696B692F436F6D706172 PUSH2 0x4100 DUP3 ADD MSTORE PUSH32 0x69736F6E5F6F665F62726F777365725F656E67696E6573273E426C696E6B3C2F PUSH2 0x4120 DUP3 ADD MSTORE PUSH32 0x613E2062617365642062726F777365727320286173206F66203230323429206C PUSH2 0x4140 DUP3 ADD MSTORE PUSH32 0x696B6520476F6F676C65204368726F6D6520616E64204D6963726F736F667420 PUSH2 0x4160 DUP3 ADD MSTORE PUSH32 0x456467652E20496620796F7520776F756C64206C696B6520746F20636F6E7469 PUSH2 0x4180 DUP3 ADD MSTORE PUSH32 0x6E75652C206B6E6F77696E67207468617420536166617269206D617920686176 PUSH2 0x41A0 DUP3 ADD MSTORE PUSH32 0x65206973737565732C206F722062656C696576696E6720746861742053616661 PUSH2 0x41C0 DUP3 ADD MSTORE PUSH32 0x7269206E6F7720636F72726563746C7920737570706F72747320535647206669 PUSH2 0x41E0 DUP3 ADD MSTORE PUSH32 0x6C65732C20796F75206D61792E3C2F703E3C627574746F6E206F6E636C69636B PUSH2 0x4200 DUP3 ADD MSTORE PUSH32 0x3D27636C6F7365506F7075702829273E4920756E6465727374616E6420616E64 PUSH2 0x4220 DUP3 ADD MSTORE PUSH32 0x207769736820746F20636F6E74696E7565206174206D79206F776E207269736B PUSH2 0x4240 DUP3 ADD MSTORE PUSH32 0x2E3C2F627574746F6E3E272C646F63756D656E742E626F64792E617070656E64 PUSH2 0x4260 DUP3 ADD MSTORE PUSH32 0x4368696C642865297D66756E6374696F6E20636C6F7365506F70757028297B76 PUSH2 0x4280 DUP3 ADD MSTORE PUSH32 0x617220653D646F63756D656E742E676574456C656D656E744279496428277361 PUSH2 0x42A0 DUP3 ADD MSTORE PUSH32 0x666172692D706F70757027292C6E3D646F63756D656E742E676574456C656D65 PUSH2 0x42C0 DUP3 ADD MSTORE PUSH32 0x6E744279496428277361666172692D62616E6E657227293B6526262873686F75 PUSH2 0x42E0 DUP3 ADD MSTORE PUSH32 0x6C644C6F616444726177696E673D21302C652E7374796C652E646973706C6179 PUSH2 0x4300 DUP3 ADD MSTORE PUSH32 0x3D276E6F6E65272C6E2E7374796C652E646973706C61793D276E6F6E6527297D PUSH2 0x4320 DUP3 ADD MSTORE PUSH32 0x736574496E74657276616C282866756E6374696F6E28297B6966282169734C6F PUSH2 0x4340 DUP3 ADD MSTORE PUSH32 0x61646564297B69734C6F616465643D21302C72657175657374416E696D617469 PUSH2 0x4360 DUP3 ADD MSTORE PUSH32 0x6F6E4672616D6528616464506F74656E7469616C506F707570292C7265717565 PUSH2 0x4380 DUP3 ADD MSTORE PUSH32 0x7374416E696D6174696F6E4672616D65282866756E6374696F6E28297B696628 PUSH2 0x43A0 DUP3 ADD MSTORE PUSH32 0x69735361666172692829297B636F6E737420653D646F63756D656E742E637265 PUSH2 0x43C0 DUP3 ADD MSTORE PUSH32 0x617465456C656D656E74282764697627293B652E7374796C652E706F73697469 PUSH2 0x43E0 DUP3 ADD MSTORE PUSH32 0x6F6E3D276669786564272C652E7374796C652E626F74746F6D3D2730272C652E PUSH2 0x4400 DUP3 ADD MSTORE PUSH32 0x7374796C652E6C6566743D2730272C652E7374796C652E77696474683D273130 PUSH2 0x4420 DUP3 ADD MSTORE PUSH32 0x3025272C652E7374796C652E6261636B67726F756E64436F6C6F723D27726564 PUSH2 0x4440 DUP3 ADD MSTORE PUSH32 0x272C652E7374796C652E636F6C6F723D277768697465272C652E7374796C652E PUSH2 0x4460 DUP3 ADD MSTORE PUSH32 0x74657874416C69676E3D2763656E746572272C652E7374796C652E7061646469 PUSH2 0x4480 DUP3 ADD MSTORE PUSH32 0x6E673D2731307078272C652E7374796C652E7A496E6465783D2731303030272C PUSH2 0x44A0 DUP3 ADD MSTORE PUSH32 0x652E636C6173734E616D653D277361666172692D62616E6E6572272C646F6375 PUSH2 0x44C0 DUP3 ADD MSTORE PUSH32 0x6D656E742E626F64792E617070656E644368696C642865292C646F63756D656E PUSH2 0x44E0 DUP3 ADD MSTORE PUSH32 0x742E676574456C656D656E744279496428277361666172692D706F7075702729 PUSH2 0x4500 DUP3 ADD MSTORE PUSH32 0x2E7374796C652E646973706C61793D27626C6F636B277D656C73652073686F75 PUSH2 0x4520 DUP3 ADD MSTORE PUSH32 0x6C644C6F616444726177696E673D21307D29293B6C657420653D736574496E74 PUSH2 0x4540 DUP3 ADD MSTORE PUSH32 0x657276616C282866756E6374696F6E28297B73686F756C644C6F616444726177 PUSH2 0x4560 DUP3 ADD MSTORE PUSH32 0x696E6726266173796E632066756E6374696F6E28297B636C656172496E746572 PUSH2 0x4580 DUP3 ADD MSTORE PUSH32 0x76616C2865292C6177616974206E65772050726F6D6973652828653D3E736574 PUSH2 0x45A0 DUP3 ADD MSTORE PUSH32 0x54696D656F757428652C3230302929292C6177616974206472617728297D2829 PUSH2 0x45C0 DUP3 ADD MSTORE PUSH32 0x7D292C313030297D7D292C316533293B3C2F7363726970743E3C2F686561643E PUSH2 0x45E0 DUP3 ADD MSTORE POP JUMP JUMPDEST PUSH0 PUSH2 0xADEE PUSH2 0x4600 DUP4 PUSH2 0x485 JUMP JUMPDEST SWAP2 POP PUSH2 0xADF9 DUP3 PUSH2 0x5897 JUMP JUMPDEST PUSH2 0x4600 DUP3 ADD SWAP1 POP SWAP2 SWAP1 POP JUMP JUMPDEST PUSH0 PUSH2 0xAE0F DUP3 PUSH2 0x5747 JUMP JUMPDEST SWAP2 POP PUSH2 0xAE1B DUP3 DUP8 PUSH2 0x624 JUMP JUMPDEST PUSH1 0x20 DUP3 ADD SWAP2 POP PUSH2 0xAE2A DUP3 PUSH2 0x5791 JUMP JUMPDEST SWAP2 POP PUSH2 0xAE36 DUP3 DUP7 PUSH2 0x57B3 JUMP JUMPDEST SWAP2 POP PUSH2 0xAE41 DUP3 PUSH2 0x580B JUMP JUMPDEST SWAP2 POP PUSH2 0xAE4D DUP3 DUP6 PUSH2 0x5836 JUMP JUMPDEST PUSH1 0x20 DUP3 ADD SWAP2 POP PUSH2 0xAE5C DUP3 PUSH2 0x5875 JUMP JUMPDEST SWAP2 POP PUSH2 0xAE68 DUP3 DUP5 PUSH2 0x624 JUMP JUMPDEST PUSH1 0x20 DUP3 ADD SWAP2 POP PUSH2 0xAE77 DUP3 PUSH2 0xADE1 JUMP JUMPDEST SWAP2 POP DUP2 SWAP1 POP SWAP6 SWAP5 POP POP POP POP POP JUMP INVALID LOG2 PUSH5 0x6970667358 0x22 SLT KECCAK256 SWAP6 JUMPI 0xCB SUB COINBASE 0xBC MSTORE8 GASLIMIT 0xF8 LOG4 DUP8 DELEGATECALL TSTORE 0xB1 BLOBBASEFEE 0xA9 CHAINID 0x4D 0xD1 0x2D DUP12 EXP GASPRICE MSTORE SHL 0x2F 0x23 0x28 0xF7 MULMOD 0xBF DUP6 PUSH5 0x736F6C6343 STOP ADDMOD NOT STOP CALLER BLOBHASH PUSH15 0x766572746562726174657320627920 COINBASE PUSH15 0x64726577204D69746368656C6C2028 ORIGIN ADDRESS ORIGIN CALLVALUE 0x29 "
		},
		"gasEstimates": {
			"creation": {
				"codeDepositCost": "3244200",
				"executionCost": "infinite",
				"totalCost": "infinite"
			},
			"external": {
				"_creator()": "2648",
				"_currentSeries(address)": "2847",
				"_finalImageData(uint256)": "infinite",
				"_isPaused()": "2510",
				"_maxSupply()": "2471",
				"_owner()": "2575",
				"_price()": "2493",
				"_totalSupply()": "2493",
				"_useWhitelist()": "2629",
				"animToURI(string)": "infinite",
				"approveAdmin(address)": "infinite",
				"colorPalettes(uint256)": "infinite",
				"formatTokenURI(uint256)": "infinite",
				"generateRandomValues(bytes32)": "infinite",
				"getAdmins()": "infinite",
				"getWhitelist()": "infinite",
				"isAdmin(address)": "infinite",
				"maxSupply()": "2521",
				"mint(address)": "infinite",
				"moods(uint256)": "infinite",
				"owner()": "2561",
				"renounceOwnership()": "infinite",
				"revokeAdmin(address)": "infinite",
				"setDescription(string)": "infinite",
				"setImageData(string[])": "infinite",
				"setPause(bool)": "26953",
				"setPrice(uint256)": "24774",
				"setWhitelist(uint256,address)": "51482",
				"supportsInterface(bytes4)": "1038",
				"svgToURI(string)": "infinite",
				"tokenURI(address,uint256)": "infinite",
				"totalSupply()": "2523",
				"transferOwnership(address)": "infinite",
				"uint2str(uint256)": "infinite",
				"withdrawAll()": "infinite"
			}
		},
		"methodIdentifiers": {
			"_creator()": "bc8bde64",
			"_currentSeries(address)": "b2811b6a",
			"_finalImageData(uint256)": "d1afb7f5",
			"_isPaused()": "e2684f08",
			"_maxSupply()": "22f4596f",
			"_owner()": "b2bdfa7b",
			"_price()": "235b6ea1",
			"_totalSupply()": "3eaaf86b",
			"_useWhitelist()": "a4cad92b",
			"animToURI(string)": "c038fe04",
			"approveAdmin(address)": "6d73e669",
			"colorPalettes(uint256)": "e5afc2eb",
			"formatTokenURI(uint256)": "5721421d",
			"generateRandomValues(bytes32)": "1e826fb4",
			"getAdmins()": "31ae450b",
			"getWhitelist()": "d01f63f5",
			"isAdmin(address)": "24d7806c",
			"maxSupply()": "d5abeb01",
			"mint(address)": "6a627842",
			"moods(uint256)": "13cecd70",
			"owner()": "8da5cb5b",
			"renounceOwnership()": "715018a6",
			"revokeAdmin(address)": "2d345670",
			"setDescription(string)": "90c3f38f",
			"setImageData(string[])": "662d46b9",
			"setPause(bool)": "bedb86fb",
			"setPrice(uint256)": "91b7f5ed",
			"setWhitelist(uint256,address)": "d89da286",
			"supportsInterface(bytes4)": "01ffc9a7",
			"svgToURI(string)": "413620d4",
			"tokenURI(address,uint256)": "e9dc6375",
			"totalSupply()": "18160ddd",
			"transferOwnership(address)": "f2fde38b",
			"uint2str(uint256)": "f76f950e",
			"withdrawAll()": "853828b6"
		}
	},
	"abi": [
		{
			"inputs": [
				{
					"internalType": "address",
					"name": "owner",
					"type": "address"
				},
				{
					"internalType": "address",
					"name": "creator",
					"type": "address"
				}
			],
			"stateMutability": "nonpayable",
			"type": "constructor"
		},
		{
			"inputs": [
				{
					"internalType": "address",
					"name": "owner",
					"type": "address"
				}
			],
			"name": "OwnableInvalidOwner",
			"type": "error"
		},
		{
			"inputs": [
				{
					"internalType": "address",
					"name": "account",
					"type": "address"
				}
			],
			"name": "OwnableUnauthorizedAccount",
			"type": "error"
		},
		{
			"anonymous": false,
			"inputs": [
				{
					"indexed": true,
					"internalType": "address",
					"name": "account",
					"type": "address"
				},
				{
					"indexed": true,
					"internalType": "address",
					"name": "sender",
					"type": "address"
				}
			],
			"name": "AdminApproved",
			"type": "event"
		},
		{
			"anonymous": false,
			"inputs": [
				{
					"indexed": true,
					"internalType": "address",
					"name": "account",
					"type": "address"
				},
				{
					"indexed": true,
					"internalType": "address",
					"name": "sender",
					"type": "address"
				}
			],
			"name": "AdminRevoked",
			"type": "event"
		},
		{
			"anonymous": false,
			"inputs": [
				{
					"indexed": true,
					"internalType": "address",
					"name": "previousOwner",
					"type": "address"
				},
				{
					"indexed": true,
					"internalType": "address",
					"name": "newOwner",
					"type": "address"
				}
			],
			"name": "OwnershipTransferred",
			"type": "event"
		},
		{
			"inputs": [],
			"name": "_creator",
			"outputs": [
				{
					"internalType": "address",
					"name": "",
					"type": "address"
				}
			],
			"stateMutability": "view",
			"type": "function"
		},
		{
			"inputs": [
				{
					"internalType": "address",
					"name": "",
					"type": "address"
				}
			],
			"name": "_currentSeries",
			"outputs": [
				{
					"internalType": "uint256",
					"name": "",
					"type": "uint256"
				}
			],
			"stateMutability": "view",
			"type": "function"
		},
		{
			"inputs": [
				{
					"internalType": "uint256",
					"name": "",
					"type": "uint256"
				}
			],
			"name": "_finalImageData",
			"outputs": [
				{
					"internalType": "string",
					"name": "",
					"type": "string"
				}
			],
			"stateMutability": "view",
			"type": "function"
		},
		{
			"inputs": [],
			"name": "_isPaused",
			"outputs": [
				{
					"internalType": "bool",
					"name": "",
					"type": "bool"
				}
			],
			"stateMutability": "view",
			"type": "function"
		},
		{
			"inputs": [],
			"name": "_maxSupply",
			"outputs": [
				{
					"internalType": "uint256",
					"name": "",
					"type": "uint256"
				}
			],
			"stateMutability": "view",
			"type": "function"
		},
		{
			"inputs": [],
			"name": "_owner",
			"outputs": [
				{
					"internalType": "address",
					"name": "",
					"type": "address"
				}
			],
			"stateMutability": "view",
			"type": "function"
		},
		{
			"inputs": [],
			"name": "_price",
			"outputs": [
				{
					"internalType": "uint256",
					"name": "",
					"type": "uint256"
				}
			],
			"stateMutability": "view",
			"type": "function"
		},
		{
			"inputs": [],
			"name": "_totalSupply",
			"outputs": [
				{
					"internalType": "uint256",
					"name": "",
					"type": "uint256"
				}
			],
			"stateMutability": "view",
			"type": "function"
		},
		{
			"inputs": [],
			"name": "_useWhitelist",
			"outputs": [
				{
					"internalType": "bool",
					"name": "",
					"type": "bool"
				}
			],
			"stateMutability": "view",
			"type": "function"
		},
		{
			"inputs": [
				{
					"internalType": "string",
					"name": "anim",
					"type": "string"
				}
			],
			"name": "animToURI",
			"outputs": [
				{
					"internalType": "string",
					"name": "",
					"type": "string"
				}
			],
			"stateMutability": "pure",
			"type": "function"
		},
		{
			"inputs": [
				{
					"internalType": "address",
					"name": "admin",
					"type": "address"
				}
			],
			"name": "approveAdmin",
			"outputs": [],
			"stateMutability": "nonpayable",
			"type": "function"
		},
		{
			"inputs": [
				{
					"internalType": "uint256",
					"name": "",
					"type": "uint256"
				}
			],
			"name": "colorPalettes",
			"outputs": [
				{
					"internalType": "string",
					"name": "",
					"type": "string"
				}
			],
			"stateMutability": "view",
			"type": "function"
		},
		{
			"inputs": [
				{
					"internalType": "uint256",
					"name": "tokenId",
					"type": "uint256"
				}
			],
			"name": "formatTokenURI",
			"outputs": [
				{
					"internalType": "string",
					"name": "",
					"type": "string"
				}
			],
			"stateMutability": "view",
			"type": "function"
		},
		{
			"inputs": [
				{
					"internalType": "bytes32",
					"name": "_hash",
					"type": "bytes32"
				}
			],
			"name": "generateRandomValues",
			"outputs": [
				{
					"internalType": "uint256[10]",
					"name": "",
					"type": "uint256[10]"
				}
			],
			"stateMutability": "pure",
			"type": "function"
		},
		{
			"inputs": [],
			"name": "getAdmins",
			"outputs": [
				{
					"internalType": "address[]",
					"name": "admins",
					"type": "address[]"
				}
			],
			"stateMutability": "view",
			"type": "function"
		},
		{
			"inputs": [],
			"name": "getWhitelist",
			"outputs": [
				{
					"internalType": "address[]",
					"name": "",
					"type": "address[]"
				}
			],
			"stateMutability": "view",
			"type": "function"
		},
		{
			"inputs": [
				{
					"internalType": "address",
					"name": "admin",
					"type": "address"
				}
			],
			"name": "isAdmin",
			"outputs": [
				{
					"internalType": "bool",
					"name": "",
					"type": "bool"
				}
			],
			"stateMutability": "view",
			"type": "function"
		},
		{
			"inputs": [],
			"name": "maxSupply",
			"outputs": [
				{
					"internalType": "uint256",
					"name": "",
					"type": "uint256"
				}
			],
			"stateMutability": "view",
			"type": "function"
		},
		{
			"inputs": [
				{
					"internalType": "address",
					"name": "recipient",
					"type": "address"
				}
			],
			"name": "mint",
			"outputs": [],
			"stateMutability": "payable",
			"type": "function"
		},
		{
			"inputs": [
				{
					"internalType": "uint256",
					"name": "",
					"type": "uint256"
				}
			],
			"name": "moods",
			"outputs": [
				{
					"internalType": "string",
					"name": "",
					"type": "string"
				}
			],
			"stateMutability": "view",
			"type": "function"
		},
		{
			"inputs": [],
			"name": "owner",
			"outputs": [
				{
					"internalType": "address",
					"name": "",
					"type": "address"
				}
			],
			"stateMutability": "view",
			"type": "function"
		},
		{
			"inputs": [],
			"name": "renounceOwnership",
			"outputs": [],
			"stateMutability": "nonpayable",
			"type": "function"
		},
		{
			"inputs": [
				{
					"internalType": "address",
					"name": "admin",
					"type": "address"
				}
			],
			"name": "revokeAdmin",
			"outputs": [],
			"stateMutability": "nonpayable",
			"type": "function"
		},
		{
			"inputs": [
				{
					"internalType": "string",
					"name": "des",
					"type": "string"
				}
			],
			"name": "setDescription",
			"outputs": [],
			"stateMutability": "nonpayable",
			"type": "function"
		},
		{
			"inputs": [
				{
					"internalType": "string[]",
					"name": "img",
					"type": "string[]"
				}
			],
			"name": "setImageData",
			"outputs": [],
			"stateMutability": "nonpayable",
			"type": "function"
		},
		{
			"inputs": [
				{
					"internalType": "bool",
					"name": "pause",
					"type": "bool"
				}
			],
			"name": "setPause",
			"outputs": [],
			"stateMutability": "nonpayable",
			"type": "function"
		},
		{
			"inputs": [
				{
					"internalType": "uint256",
					"name": "price",
					"type": "uint256"
				}
			],
			"name": "setPrice",
			"outputs": [],
			"stateMutability": "nonpayable",
			"type": "function"
		},
		{
			"inputs": [
				{
					"internalType": "uint256",
					"name": "index",
					"type": "uint256"
				},
				{
					"internalType": "address",
					"name": "user",
					"type": "address"
				}
			],
			"name": "setWhitelist",
			"outputs": [],
			"stateMutability": "nonpayable",
			"type": "function"
		},
		{
			"inputs": [
				{
					"internalType": "bytes4",
					"name": "interfaceId",
					"type": "bytes4"
				}
			],
			"name": "supportsInterface",
			"outputs": [
				{
					"internalType": "bool",
					"name": "",
					"type": "bool"
				}
			],
			"stateMutability": "view",
			"type": "function"
		},
		{
			"inputs": [
				{
					"internalType": "string",
					"name": "svg",
					"type": "string"
				}
			],
			"name": "svgToURI",
			"outputs": [
				{
					"internalType": "string",
					"name": "",
					"type": "string"
				}
			],
			"stateMutability": "pure",
			"type": "function"
		},
		{
			"inputs": [
				{
					"internalType": "address",
					"name": "creator",
					"type": "address"
				},
				{
					"internalType": "uint256",
					"name": "tokenId",
					"type": "uint256"
				}
			],
			"name": "tokenURI",
			"outputs": [
				{
					"internalType": "string",
					"name": "",
					"type": "string"
				}
			],
			"stateMutability": "view",
			"type": "function"
		},
		{
			"inputs": [],
			"name": "totalSupply",
			"outputs": [
				{
					"internalType": "uint256",
					"name": "",
					"type": "uint256"
				}
			],
			"stateMutability": "view",
			"type": "function"
		},
		{
			"inputs": [
				{
					"internalType": "address",
					"name": "newOwner",
					"type": "address"
				}
			],
			"name": "transferOwnership",
			"outputs": [],
			"stateMutability": "nonpayable",
			"type": "function"
		},
		{
			"inputs": [
				{
					"internalType": "uint256",
					"name": "_i",
					"type": "uint256"
				}
			],
			"name": "uint2str",
			"outputs": [
				{
					"internalType": "string",
					"name": "_uintAsString",
					"type": "string"
				}
			],
			"stateMutability": "pure",
			"type": "function"
		},
		{
			"inputs": [],
			"name": "withdrawAll",
			"outputs": [],
			"stateMutability": "nonpayable",
			"type": "function"
		}
	]
}