{
	"data": {
		"bytecode": {
			"linkReferences": {},
			"object": "6080604052348015600e575f80fd5b50615aa98061001c5f395ff3fe608060405234801561000f575f80fd5b5060043610610029575f3560e01c8063ceae27021461002d575b5f80fd5b610047600480360381019061004291906101dc565b61005d565b6040516100549190610310565b60405180910390f35b60608382848760405160200161007694939291906159ff565b6040516020818303038152906040529050949350505050565b5f604051905090565b5f80fd5b5f80fd5b5f80fd5b5f80fd5b5f601f19601f8301169050919050565b7f4e487b71000000000000000000000000000000000000000000000000000000005f52604160045260245ffd5b6100ee826100a8565b810181811067ffffffffffffffff8211171561010d5761010c6100b8565b5b80604052505050565b5f61011f61008f565b905061012b82826100e5565b919050565b5f67ffffffffffffffff82111561014a576101496100b8565b5b610153826100a8565b9050602081019050919050565b828183375f83830152505050565b5f61018061017b84610130565b610116565b90508281526020810184848401111561019c5761019b6100a4565b5b6101a7848285610160565b509392505050565b5f82601f8301126101c3576101c26100a0565b5b81356101d384826020860161016e565b91505092915050565b5f805f80608085870312156101f4576101f3610098565b5b5f85013567ffffffffffffffff8111156102115761021061009c565b5b61021d878288016101af565b945050602085013567ffffffffffffffff81111561023e5761023d61009c565b5b61024a878288016101af565b935050604085013567ffffffffffffffff81111561026b5761026a61009c565b5b610277878288016101af565b925050606085013567ffffffffffffffff8111156102985761029761009c565b5b6102a4878288016101af565b91505092959194509250565b5f81519050919050565b5f82825260208201905092915050565b8281835e5f83830152505050565b5f6102e2826102b0565b6102ec81856102ba565b93506102fc8185602086016102ca565b610305816100a8565b840191505092915050565b5f6020820190508181035f83015261032881846102d8565b905092915050565b5f81905092915050565b7f3c73637269707420747970653d276170706c69636174696f6e2f6a61766173635f8201527f72697074273e6c657420636f6c6f723d636f6c6f72735b000000000000000000602082015250565b5f610394603783610330565b915061039f8261033a565b603782019050919050565b5f6103b4826102b0565b6103be8185610330565b93506103ce8185602086016102ca565b80840191505092915050565b7f5d2c6d6f6f643d000000000000000000000000000000000000000000000000005f82015250565b5f61040e600783610330565b9150610419826103da565b600782019050919050565b7f2c746f6b656e446174613d7b686173683a2730780000000000000000000000005f82015250565b5f610458601483610330565b915061046382610424565b601482019050919050565b7f272c746f6b656e49643a270000000000000000000000000000000000000000005f82015250565b5f6104a2600b83610330565b91506104ad8261046e565b600b82019050919050565b7f277d3b6c65742073686f756c644c6f616444726177696e673d21313b636f6e735f8201527f7420647261773d6173796e632066756e6374696f6e28297b726571756573744160208201527f6e696d6174696f6e4672616d65282866756e6374696f6e28297b6164644c6f6160408201527f646572282727297d29292c6177616974206e65772050726f6d6973652828653d60608201527f3e73657454696d656f757428652c3230302929292c72657175657374416e696d60808201527f6174696f6e4672616d65282866756e6374696f6e28297b7570646174654c6f6160a08201527f64657228274c6f6164696e67207661726961626c657327297d29292c6177616960c08201527f74206e65772050726f6d6973652828653d3e73657454696d656f757428652c3260e08201527f30302929293b636f6e737420653d6e657720636c6173737b636f6e73747275636101008201527f746f7228297b746869732e757365413d21313b6c657420653d66756e6374696f6101208201527f6e2865297b6c6574206e3d7061727365496e7428652e73756273747228302c386101408201527f292c3136292c743d7061727365496e7428652e73756273747228382c38292c316101608201527f36292c6f3d7061727365496e7428652e7375627374722831362c38292c3136296101808201527f2c613d7061727365496e7428652e7375627374722832342c38292c3136293b726101a08201527f657475726e2066756e6374696f6e28297b6e7c3d302c747c3d302c6f7c3d302c6101c08201527f617c3d303b6c657420653d286e2b747c30292b617c303b72657475726e20613d6101e08201527f612b317c302c6e3d745e743e3e3e392c743d6f2b286f3c3c33297c302c6f3d6f6102008201527f3c3c32317c6f3e3e3e31312c6f3d6f2b657c302c28653e3e3e30292f343239346102208201527f3936373239367d7d3b746869732e70726e67413d6e6577206528746f6b656e446102408201527f6174612e686173682e73756273747228322c333229292c746869732e70726e676102608201527f423d6e6577206528746f6b656e446174612e686173682e7375627374722833346102808201527f2c333229293b666f72286c657420653d303b653c3165363b652b3d32297468696102a08201527f732e70726e674128292c746869732e70726e674228297d72616e646f6d5f64656102c08201527f6328297b72657475726e20746869732e757365413d21746869732e757365412c6102e08201527f746869732e757365413f746869732e70726e674128293a746869732e70726e676103008201527f4228297d72616e646f6d5f6e756d28652c6e297b72657475726e20652b286e2d6103208201527f65292a746869732e72616e646f6d5f64656328297d72616e646f6d5f696e74286103408201527f652c6e297b72657475726e204d6174682e666c6f6f7228746869732e72616e646103608201527f6f6d5f6e756d28652c6e2b3129297d72616e646f6d5f626f6f6c2865297b72656103808201527f7475726e20746869732e72616e646f6d5f64656328293c657d72616e646f6d5f6103a08201527f63686f6963652865297b72657475726e20655b746869732e72616e646f6d5f696103c08201527f6e7428302c652e6c656e6774682d31295d7d7d2c6e3d5b7b77696474683a31306103e08201527f302c6865696768743a3130307d2c7b77696474683a332c6865696768743a347d6104008201527f2c7b77696474683a392c6865696768743a31367d2c7b77696474683a312c68656104208201527f696768743a317d5d3b6c657420743d303b636f6e7374206f3d646f63756d656e6104408201527f742e637265617465456c656d656e7428277374796c6527293b6f2e696e6e65726104608201527f48544d4c3d27626f6479207b206d617267696e2d746f703a20303b20646973706104808201527f6c61793a20666c65783b206a7573746966792d636f6e74656e743a2063656e746104a08201527f65723b20616c69676e2d6974656d733a2063656e7465723b206261636b67726f6104c08201527f756e642d636f6c6f723a20234646464645313b207d20737667207b20686569676104e08201527f68743a2031303076683b2077696474683a2031303076773b2070616464696e676105008201527f3a2030766d696e3b20626f782d736861646f773a202e35766d696e202e35766d6105208201527f696e2031766d696e207267626128302c20302c20302c20302e35293b20626f786105408201527f2d73697a696e673a20626f726465722d626f783b207d272c646f63756d656e746105608201527f2e686561642e617070656e644368696c64286f293b636f6e737420613d646f636105808201527f756d656e742e637265617465456c656d656e744e532827687474703a2f2f77776105a08201527f772e77332e6f72672f323030302f737667272c2773766727293b612e736574416105c08201527f747472696275746528276964272c276d7953766727292c612e736574417474726105e08201527f6962757465282776696577426f78272c27302030203130302031303027292c646106008201527f6f63756d656e742e626f64792e617070656e644368696c642861292c736574526106208201527f6174696f286e2c74293b6c657420722c692c732c642c632c6c2c6d2c752c682c6106408201527f5f2c792c662c702c672c622c242c772c6b2c762c782c412c4c2c532c432c462c6106608201527f452c422c542c492c712c502c4d2c522c4e2c442c473d646f63756d656e742e676106808201527f6574456c656d656e744279496428276d7953766727292c7a3d3130302c4f3d216106a08201527f312c563d302c6a3d27272c483d66756e6374696f6e28297b7d2c553d66756e636106c08201527f74696f6e28297b7d2c573d66756e6374696f6e2865297b7d2c4b3d27272c583d6106e08201527f66696e644e616d654279436f6c6f7228636f6c6f725b305d2e7375622831292c6107008201527f636f6c6f724e616d6573293b73776974636828646f63756d656e742e676574456107208201527f6c656d656e747342795461674e616d652827626f647927295b305d2e7374796c6107408201527f652e6261636b67726f756e64436f6c6f723d2723272b636f6c6f725b305d2c726107608201527f657175657374416e696d6174696f6e4672616d65282866756e6374696f6e28296107808201527f7b7570646174654c6f6164657228274c6f6164696e67207661726961626c65736107a08201527f27297d29292c66756e6374696f6e28297b73776974636828643d652e72616e646107c08201527f6f6d5f63686f696365285b302c322c332c342c322c305d292c563d652e72616e6107e08201527f646f6d5f626f6f6c282e35293f652e72616e646f6d5f6e756d282d36302c36306108008201527f293a652e72616e646f6d5f696e74282d352c35292c623d652e72616e646f6d5f6108208201527f626f6f6c282e35292c783d652e72616e646f6d5f63686f696365285b312c2d316108408201527f5d292c413d652e72616e646f6d5f63686f696365285b312c2d315d292c573d666108608201527f756e6374696f6e286e297b72657475726e20652e72616e646f6d5f63686f69636108808201527f6528636f6c6f72297d2c6d6f6f64297b6361736520303a693d312c733d382c676108a08201527f3d352c443d3130302c723d2e322c243d2e30332c6c3d332c633d652e72616e646108c08201527f6f6d5f696e74283830302c31313030292c6d3d632f6c2c683d6d2f322c412a3d6108e08201527f322c782a3d322c753d2e30362c773d652e72616e646f6d5f696e74283130302c6109008201527f383030292c563d652e72616e646f6d5f63686f696365285b2d34352c34355d296109208201527f3b627265616b3b6361736520313a693d31352c733d31302c673d362c443d35306109408201527f2c723d2e3032352c243d2e30332c6c3d652e72616e646f6d5f6e756d28322c346109608201527f292c633d652e72616e646f6d5f696e74283830302c31323030292c6d3d632f6c6109808201527f2c683d6d2f652e72616e646f6d5f696e7428362c3135292c753d2e30362c773d6109a08201527f652e72616e646f6d5f696e74283130302c383030292c563d652e72616e646f6d6109c08201527f5f63686f696365285b2d34352c34355d292c623d21303b627265616b3b6361736109e08201527f6520323a693d332c733d352c673d362c443d35302c723d2e3034352c243d2e30610a008201527f342c6c3d652e72616e646f6d5f6e756d28322c34292c633d652e72616e646f6d610a208201527f5f696e74283830302c31323030292c6d3d632f6c2c683d6d2f32302c753d2e30610a408201527f362c773d652e72616e646f6d5f696e74283130302c383030292c563d652e7261610a608201527f6e646f6d5f63686f696365285b2d34352c34355d292c623d21303b627265616b610a808201527f3b6361736520333a693d31352c733d322c673d362c443d35302c723d2e30332c610aa08201527f243d2e30342c6c3d332c633d652e72616e646f6d5f696e74283830302c313230610ac08201527f30292c6d3d632f6c2c683d6d2f31302c753d2e30362c563d652e72616e646f6d610ae08201527f5f63686f696365285b2d34352c34355d292c773d652e72616e646f6d5f696e74610b008201527f283130302c383030293b627265616b3b6361736520343a693d332c733d332c67610b208201527f3d352c443d31302c723d2e30362c243d2e3030392c6c3d652e72616e646f6d5f610b408201527f6e756d28322c34292c633d652e72616e646f6d5f696e74283830302c31323030610b608201527f292c6d3d632f6c2c683d6d2f332c753d2e30362c773d652e72616e646f6d5f69610b808201527f6e74283130302c383030292c563d652e72616e646f6d5f63686f696365285b2d610ba08201527f34352c34355d293b627265616b3b6361736520353a693d332c733d332c673d31610bc08201527f302c443d3130302c723d2e30342c243d2e30342c6c3d652e72616e646f6d5f6e610be08201527f756d28322c34292c633d652e72616e646f6d5f696e74283830302c3132303029610c008201527f2c6d3d632f6c2c683d6d2c753d2e30362c773d652e72616e646f6d5f696e7428610c208201527f3130302c383030292c563d652e72616e646f6d5f63686f696365285b2d34352c610c408201527f34355d293b627265616b3b6361736520363a693d332c733d312c673d31302c44610c608201527f3d3130302c723d2e30342c243d2e30342c6c3d652e72616e646f6d5f6e756d28610c808201527f322c34292c633d652e72616e646f6d5f696e74283830302c31323030292c6d3d610ca08201527f632f6c2c683d6d2c753d2e30362c773d652e72616e646f6d5f696e7428313030610cc08201527f2c383030292c563d652e72616e646f6d5f63686f696365285b2d34352c34355d610ce08201527f293b627265616b3b6361736520373a693d312c733d322c673d352c443d34302c610d008201527f723d652e72616e646f6d5f63686f696365285b2e30362c2e30372c2e30382c2e610d208201527f30392c2e315d292c243d652e72616e646f6d5f63686f696365285b39652d342c610d408201527f38652d342c2e3030315d292c6c3d652e72616e646f6d5f6e756d28322c34292c610d608201527f633d652e72616e646f6d5f696e74283830302c31323030292c6d3d632f6c2c68610d808201527f3d322a6d2c753d2e30362c773d652e72616e646f6d5f696e74283130302c3830610da08201527f30292c563d652e72616e646f6d5f63686f696365285b2d34352c34355d292c64610dc08201527f3d652e72616e646f6d5f63686f696365285b302c312c322c335d293b62726561610de08201527f6b3b6361736520383a693d312c733d312c673d31352c443d38302c723d2e3039610e008201527f2c243d2e30342c6c3d652e72616e646f6d5f6e756d28322c34292c633d652e72610e208201527f616e646f6d5f696e74283430302c353030292c6d3d632f6c2c683d382a6d2c75610e408201527f3d2e30362c773d652e72616e646f6d5f696e74283130302c383030292c563d65610e608201527f2e72616e646f6d5f63686f696365285b2d34352c34355d293b627265616b3b63610e808201527f61736520393a693d392c733d312c673d35302c443d652e72616e646f6d5f696e610ea08201527f742835302c313030292c723d2e3030312c243d2e30362c6c3d652e72616e646f610ec08201527f6d5f6e756d28322c34292c633d3165332c6d3d632f6c2c683d31302a6d2c753d610ee08201527f2e30362c773d652e72616e646f6d5f696e74283330302c383030292c563d652e610f008201527f72616e646f6d5f63686f696365285b2d34352c34355d293b627265616b3b6361610f208201527f73652031303a693d352c733d312c673d35302c443d652e72616e646f6d5f696e610f408201527f742838302c313530292c723d2e3030312c243d2e30392c6c3d652e72616e646f610f608201527f6d5f6e756d28322c34292c633d3530302c6d3d632f6c2c683d31302a6d2c753d610f808201527f2e30362c773d652e72616e646f6d5f696e74283330302c383030292c563d652e610fa08201527f72616e646f6d5f63686f696365285b2d34352c34355d293b627265616b3b6361610fc08201527f73652031313a693d312c733d312c673d352c443d652e72616e646f6d5f63686f610fe08201527f696365285b322c32305d292c723d2e332c243d2e30392c6c3d652e72616e646f6110008201527f6d5f6e756d28322c34292c633d31302c6d3d632f6c2c683d31302a6d2c753d656110208201527f2e72616e646f6d5f64656328292c773d652e72616e646f6d5f696e74283330306110408201527f2c383030292c563d652e72616e646f6d5f63686f696365285b2d34352c34355d6110608201527f292c643d652e72616e646f6d5f63686f696365285b302c312c325d293b6272656110808201527f616b3b636173652031323a693d31302c733d312c673d32302c443d31352c723d6110a08201527f2e312c243d2e3034352c6c3d652e72616e646f6d5f6e756d28322c34292c633d6110c08201527f652e72616e646f6d5f696e74283830302c31313030292c6d3d632f6c2c683d6d6110e08201527f2f31302c753d2e30362c773d652e72616e646f6d5f696e74283130302c3830306111008201527f293b627265616b3b636173652031333a693d332c733d312c673d312c443d652e6111208201527f72616e646f6d5f696e742835302c313030292c723d2e30312c243d652e72616e6111408201527f646f6d5f6e756d282e30362c2e3039292c6c3d652e72616e646f6d5f6e756d286111608201527f322c34292c633d652e72616e646f6d5f696e74283135302c323030292c6d3d636111808201527f2f6c2c683d31302a6d2c753d2e30362c773d652e72616e646f6d5f696e7428336111a08201527f30302c383030292c563d652e72616e646f6d5f63686f696365285b2d34352c346111c08201527f355d293b627265616b3b636173652031343a693d332c733d312c673d342c443d6111e08201527f34302c723d2e312c243d2e30332c6c3d332c633d652e72616e646f6d5f696e746112008201527f283730302c31313030292c6d3d632f6c2c683d6d2f652e72616e646f6d5f696e6112208201527f7428322c35292c753d2e30362c773d652e72616e646f6d5f696e74283130302c6112408201527f383030292c563d652e72616e646f6d5f63686f696365285b2d33302c33305d296112608201527f2c412a3d332c782a3d332c573d66756e6374696f6e2865297b72657475726e206112808201527f636f6c6f725b655d7d3b627265616b3b636173652031353a693d332c733d352c6112a08201527f673d332c443d33302c723d2e3032352c243d2e30332c6c3d652e72616e646f6d6112c08201527f5f6e756d28322c34292c633d652e72616e646f6d5f696e74283830302c3132306112e08201527f30292c6d3d632f6c2c683d6d2f35302c753d2e30362c773d652e72616e646f6d6113008201527f5f696e74283130302c383030292c563d652e72616e646f6d5f63686f696365286113208201527f5b2d34352c34355d292c623d21303b627265616b3b636173652031363a693d326113408201527f2c733d312c673d332c443d31302c723d2e3031352c243d2e332c6c3d652e72616113608201527f6e646f6d5f6e756d28322c34292c633d652e72616e646f6d5f696e74283830306113808201527f2c31323030292c6d3d632f6c2c683d6d2f3130302c753d2e30362c773d652e726113a08201527f616e646f6d5f696e74283130302c383030292c563d652e72616e646f6d5f63686113c08201527f6f696365285b2d34352c34355d292c782a3d332c412a3d332c643d652e72616e6113e08201527f646f6d5f63686f696365285b312c322c335d293b627265616b3b6361736520316114008201527f373a693d352c733d322c673d332c443d31302c723d2e3038352c243d2e352c6c6114208201527f3d652e72616e646f6d5f6e756d28322c34292c633d652e72616e646f6d5f696e6114408201527f74283830302c31323030292c6d3d632f6c2c683d6d2f3330302c753d2e30362c6114608201527f773d652e72616e646f6d5f696e74283130302c383030292c563d652e72616e646114808201527f6f6d5f63686f696365285b2d34352c34355d292c782a3d332c412a3d332c643d6114a08201527f652e72616e646f6d5f63686f696365285b312c322c335d293b627265616b3b636114c08201527f6173652031383a693d312c733d312c673d352c443d3130302c723d2e312c243d6114e08201527f2e312c6c3d332c633d652e72616e646f6d5f696e74283830302c31313030292c6115008201527f6d3d632f6c2c683d6d2f322c753d2e30362c773d652e72616e646f6d5f696e746115208201527f283130302c383030292c563d652e72616e646f6d5f63686f696365285b2d34356115408201527f2c34355d293b627265616b3b636173652031393a693d31302c733d312c673d366115608201527f2c443d31302c723d2e3032382c243d2e30322c6c3d342c633d652e72616e646f6115808201527f6d5f696e74283830302c31313030292c6d3d632f6c2c683d6d2f332c753d2e306115a08201527f362c773d652e72616e646f6d5f696e74283130302c383030292c563d652e72616115c08201527f6e646f6d5f63686f696365285b2d34352c34355d293b627265616b3b636173656115e08201527f2032303a693d31352c733d31302c673d362c443d3130302c723d2e30332c243d6116008201527f2e30322c6c3d652e72616e646f6d5f6e756d28322c34292c633d652e72616e646116208201527f6f6d5f696e74283830302c31313030292c6d3d632f6c2c683d6d2f31302c753d6116408201527f2e30362c773d652e72616e646f6d5f696e74283130302c383030292c563d652e6116608201527f72616e646f6d5f63686f696365285b2d34352c34355d293b627265616b3b63616116808201527f73652032313a693d382c733d312c673d31302c443d35302c723d2e3031352c246116a08201527f3d2e30322c6c3d332c633d652e72616e646f6d5f696e74283830302c313130306116c08201527f292c6d3d632f6c2c683d6d2f332c753d2e30362c773d652e72616e646f6d5f696116e08201527f6e74283130302c383030292c563d652e72616e646f6d5f63686f696365285b2d6117008201527f34352c34355d293b627265616b3b636173652032323a693d332c733d31352c426117208201527f3d312c673d362c443d31302c723d2e30322c243d2e32352c543d2e30312c6c3d6117408201527f342c633d652e72616e646f6d5f696e74283530302c31313030292c6d3d632f6c6117608201527f2c683d6d2f38302c5f3d6d2f33302c753d2e30362c773d652e72616e646f6d5f6117808201527f696e74283130302c383030292c563d652e72616e646f6d5f63686f696365285b6117a08201527f2d34352c34355d292c4f3d21303b627265616b3b636173652032333a693d352c6117c08201527f733d312c423d31302c673d33302c443d3130302c723d2e30342c243d2e312c546117e08201527f3d2e30312c6c3d332c633d652e72616e646f6d5f696e74283530302c313130306118008201527f292c6d3d632f6c2c683d332a6d2c5f3d6d2f35302c753d2e30362c773d652e726118208201527f616e646f6d5f696e74283130302c383030292c563d652e72616e646f6d5f63686118408201527f6f696365285b2d34352c34355d292c4f3d21303b627265616b3b6361736520326118608201527f343a693d312c733d352c423d31302c673d31302c443d31302c723d2e30312c246118808201527f3d2e30392c543d2e30392c6c3d342c633d652e72616e646f6d5f696e742838306118a08201527f302c31313030292c6d3d632f6c2c683d6d2f3130302c5f3d332a6d2c753d2e306118c08201527f362c773d652e72616e646f6d5f696e74283130302c383030292c563d652e72616118e08201527f6e646f6d5f63686f696365285b2d34352c34355d292c4f3d21302c643d652e726119008201527f616e646f6d5f63686f696365285b322c305d293b627265616b3b6361736520326119208201527f353a693d332c733d332c423d31302c673d31302c443d33302c723d2e312c243d6119408201527f2e30312c543d2e312c6c3d352c633d652e72616e646f6d5f696e74283530302c6119608201527f31313030292c6d3d632f6c2c683d6d2c5f3d6d2f31302c753d2e30362c773d656119808201527f2e72616e646f6d5f696e74283130302c383030292c563d652e72616e646f6d5f6119a08201527f63686f696365285b2d34352c34355d292c4f3d21303b627265616b3b636173656119c08201527f2032363a693d332c733d332c423d362c673d31302c443d33302c723d2e312c246119e08201527f3d2e30312c543d2e312c6c3d352c633d652e72616e646f6d5f696e7428353030611a008201527f2c31313030292c6d3d632f6c2c683d6d2c5f3d6d2f35302c753d2e30362c773d611a208201527f652e72616e646f6d5f696e74283130302c383030292c563d652e72616e646f6d611a408201527f5f63686f696365285b2d34352c34355d292c4f3d21307d562b3d343d3d3d643f611a608201527f652e72616e646f6d5f63686f696365285b2d34352c34355d293a302c243d247c611a808201527f7c302c733d737c7c302c713d21312c503d21302c523d652e72616e646f6d5f63611aa08201527f686f696365285b2e3939342c2e3939352c2e3939362c2e3939372c2e3939385d611ac08201527f292c4e3d312d652e72616e646f6d5f696e7428312c32292a522b312c4c3d2d35611ae08201527f302c533d3235302c433d2d3130302c463d3135302c763d28462d43292f342c66611b008201527f3d652e72616e646f6d5f696e7428432c46292c703d652e72616e646f6d5f696e611b208201527f7428302c7a292c793d652e72616e646f6d5f696e7428312c316533292c4b3d27611b408201527f272c4d3d28462d43292f322c4c3d652e72616e646f6d5f696e74282d31322e35611b608201527f2c31322e35292c636f6e736f6c652e6c6f6728276261736546726571272c722c611b808201527f2764656e73697479272c672c277374726f6b655769647468272c442c27736361611ba08201527f6c65272c632c277363616c6532272c6d2c277363616c6534272c5f2c2764656e611bc08201527f73697479496e6372656d656e74272c752c277363616c6520646976696465272c611be08201527f6c2c276e756d4f637461766573272c692c276e756d4f63746176657332272c73611c008201527f2c276d6f6f64272c6d6f6f642c2774797065272c642c2765726f73696f6e272c611c208201527f772c276973566572746963616c272c622c27636f6c6f72272c636f6c6f725b30611c408201527f5d2c27636f6c6f724e616d65272c58297d28292c6177616974206e6577205072611c608201527f6f6d6973652828653d3e73657454696d656f757428652c3230302929292c7265611c808201527f7175657374416e696d6174696f6e4672616d65282866756e6374696f6e28297b611ca08201527f7570646174654c6f6164657228274c6f6164696e672066696c7465727327297d611cc08201527f29292c6177616974206e65772050726f6d6973652828653d3e73657454696d65611ce08201527f6f757428652c3230302929292c4b2b3d27203c646566733e272c4b2b3d273c66611d008201527f696c7465722069643d276630273e272c4b2b3d603c66654d6f7270686f6c6f67611d208201527f79206f70657261746f723d2765726f646527207261646975733d27247b777d27611d408201527f202f3e602c4b2b3d273c2f66696c7465723e272c4b2b3d600a2020202020203c611d608201527f66696c7465722069643d276631273e0a20202020202020203c66655475726275611d808201527f6c656e636520747970653d276672616374616c4e6f697365270a202020202020611da08201527f20202020202020202020202020202020626173654672657175656e63793d2724611dc08201527f7b727d27206e756d4f6374617665733d27247b697d270a202020202020202020611de08201527f20202020202020202020202020736565643d27247b797d270a20202020202020611e008201527f202020202020202020202020202020726573756c743d2774757262756c656e63611e208201527f6527202f3e0a20202020202020203c666554757262756c656e63652074797065611e408201527f3d276672616374616c4e6f697365270a20202020202020202020202020202020611e608201527f202020202020626173654672657175656e63793d27247b247d27206e756d4f63611e808201527f74617665733d27247b737d270a20202020202020202020202020202020202020611ea08201527f202020736565643d27247b792b317d270a202020202020202020202020202020611ec08201527f20202020202020726573756c743d2774757262756c656e63653227202f3e0a20611ee08201527f202020202020203c6665446973706c6163656d656e744d617020696e323d2774611f008201527f757262756c656e6365270a202020202020202020202020202020202020202020611f208201527f202020202020696e3d27536f757263654772617068696327207363616c653d27611f408201527f247b6d7d270a2020202020202020202020202020202020202020202020202020611f608201527f20726573756c743d27646973706c6163656d656e74270a202020202020202020611f808201527f202020202020202020202020202020202020784368616e6e656c53656c656374611fa08201527f6f723d2741270a20202020202020202020202020202020202020202020202020611fc08201527f2020794368616e6e656c53656c6563746f723d274127202f3e0a202020202020611fe08201527f20203c6665446973706c6163656d656e744d617020696e323d2774757262756c6120008201527f656e6365270a20202020202020202020202020202020202020202020202020206120208201527f20696e3d27536f757263654772617068696327207363616c653d27247b6d7d276120408201527f0a202020202020202020202020202020202020202020202020202020726573756120608201527f6c743d27646973706c6163656d656e7442270a202020202020202020202020206120808201527f2020202020202020202020202020784368616e6e656c53656c6563746f723d276120a08201527f41270a20202020202020202020202020202020202020202020202020202079436120c08201527f68616e6e656c53656c6563746f723d274127202f3e602c4b2b3d600a202020206120e08201527f20202020202020203c6665446973706c6163656d656e744d617020696e323d276121008201527f74757262756c656e636532270a202020202020202020202020202020202020206121208201527f2020202020202020696e3d27646973706c6163656d656e7427207363616c653d6121408201527f27247b687d270a202020202020202020202020202020202020202020202020206121608201527f2020726573756c743d27646973706c6163656d656e7432270a202020202020206121808201527f2020202020202020202020202020202020202020784368616e6e656c53656c656121a08201527f63746f723d2741270a20202020202020202020202020202020202020202020206121c08201527f20202020794368616e6e656c53656c6563746f723d274127202f3e0a202020206121e08201527f2020202020202020202020203c6665446973706c6163656d656e744d617020696122008201527f6e323d2774757262756c656e636532270a2020202020202020202020202020206122208201527f202020202020202020202020696e3d27646973706c6163656d656e74422720736122408201527f63616c653d27247b687d270a20202020202020202020202020202020202020206122608201527f20202020202020726573756c743d27646973706c6163656d656e744232270a206122808201527f2020202020202020202020202020202020202020202020202020784368616e6e6122a08201527f656c53656c6563746f723d2741270a20202020202020202020202020202020206122c08201527f20202020202020202020794368616e6e656c53656c6563746f723d274127202f6122e08201527f3e0a2020202020202020202020202020202020202020202020202020203b602c6123008201527f4f2626284b2b3d600a2020202020202020202020203c666554757262756c656e6123208201527f636520747970653d276672616374616c4e6f697365270a2020202020202020206123408201527f20202020202020202020202020626173654672657175656e63793d27247b547d6123608201527f27206e756d4f6374617665733d27247b427d270a2020202020202020202020206123808201527f20202020202020202020736565643d27247b797d270a202020202020202020206123a08201527f202020202020202020202020726573756c743d2774757262756c656e636533276123c08201527f202f3e0a2020202020202020202020203c6665446973706c6163656d656e744d6123e08201527f617020696e323d2774757262756c656e636533270a20202020202020202020206124008201527f20202020202020202020202020202020696e3d27646973706c6163656d656e746124208201527f27207363616c653d27247b5f7d270a20202020202020202020202020202020206124408201527f20202020202020202020726573756c743d27646973706c6163656d656e7433276124608201527f0a202020202020202020202020202020202020202020202020202020784368616124808201527f6e6e656c53656c6563746f723d2742270a2020202020202020202020202020206124a08201527f202020202020202020202020794368616e6e656c53656c6563746f723d2741276124c08201527f202f3e0a2020202020202020202020202020202020202020202020202020203b6124e08201527f60292c4b2b3d270a2020202020203c6665426c656e6420696e3d27646973706c6125008201527f6163656d656e74322720696e323d27646973706c6163656d656e7432272072656125208201527f73756c743d276275726e27206d6f64653d276e6f726d616c272f3e0a202020206125408201527f20272c4b2b3d270a3c2f66696c7465723e0a202020203c2f646566733e0a20206125608201527f272c4b2b3d600a202020200a20203c726563742066696c6c3d2723247b636f6c6125808201527f6f725b305d7d2720783d27302720793d2730272077696474683d2731303027206125a08201527f6865696768743d2731303027202f3e0a602c472e696e6e657248544d4c2b3d4b6125c08201527f2c72657175657374416e696d6174696f6e4672616d65282866756e6374696f6e6125e08201527f28297b72656d6f7665416c6c4c6f616465727328292c6164644c6f61646572286126008201527f274c6f6164696e672068746d6c27297d29292c6177616974206e65772050726f6126208201527f6d6973652828653d3e73657454696d656f757428652c3230302929292c4b3d276126408201527f272c64297b6361736520323a623f286a3d607472616e736c6174652835302c356126608201527f302920726f7461746528247b567d29207363616c6528247b787d20247b417d296126808201527f207472616e736c617465282d35302c2d353029602c483d66756e6374696f6e286126a08201527f652c6e2c742c6f2c61297b72657475726e603c6c696e65207472616e73666f726126c08201527f6d3d27247b6a7d272066696c7465723d2775726c2823247b657d2927207374726126e08201527f6f6b652d6f7061636974793d272e39352720207374726f6b653d2723247b6e7d6127008201527f27207374796c653d277374726f6b652d77696474683a247b617d272079313d276127208201527f247b747d272078313d27247b6f7d272078323d27247b31305e747d272079323d6127408201527f27247b6f7d27202f3e607d293a286a3d607472616e736c6174652835302c35306127608201527f2920726f7461746528247b567d29207363616c6528247b787d20247b417d29206127808201527f7472616e736c617465282d35302c2d353029602c483d66756e6374696f6e28656127a08201527f2c6e2c742c6f2c61297b72657475726e603c6c696e65207472616e73666f726d6127c08201527f3d27247b6a7d272066696c7465723d2775726c2823247b657d2927207374726f6127e08201527f6b652d6f7061636974793d272e39352720207374726f6b653d2723247b6e7d276128008201527f207374796c653d277374726f6b652d77696474683a247b617d272078313d27246128208201527f7b747d272079313d27247b6f7d272079323d27247b31305e747d272078323d276128408201527f247b6f7d27202f3e607d293b627265616b3b6361736520333a623f286a3d60746128608201527f72616e736c6174652835302c35302920726f7461746528247b567d29207363616128808201527f6c6528247b787d20247b417d29207472616e736c617465282d35302c2d3530296128a08201527f602c483d66756e6374696f6e28652c6e2c742c6f2c61297b72657475726e603c6128c08201527f6c696e65207472616e73666f726d3d27247b6a7d272066696c7465723d2775726128e08201527f6c2823247b657d2927207374726f6b652d6f7061636974793d272e39352720736129008201527f74726f6b653d2723247b6e7d27207374796c653d277374726f6b652d776964746129208201527f683a247b617d272079313d27247b747d272078313d27247b6f7d272078323d276129408201527f247b322a747d272079323d27247b322a6f7d27202f3e607d293a286a3d6074726129608201527f616e736c6174652835302c35302920726f7461746528247b567d29207363616c6129808201527f6528247b787d20247b417d29207472616e736c617465282d35302c2d353029606129a08201527f2c483d66756e6374696f6e28652c6e2c742c6f2c61297b72657475726e603c6c6129c08201527f696e65207472616e73666f726d3d27247b6a7d272066696c7465723d2775726c6129e08201527f2823247b657d29277374726f6b652d6f7061636974793d272e39352720207374612a008201527f726f6b653d2723247b6e7d27207374796c653d277374726f6b652d7769647468612a208201527f3a247b617d272078313d27247b747d272079313d27247b6f7d272079323d2724612a408201527f7b322a747d272078323d27247b322a6f7d27202f3e607d293b627265616b3b63612a608201527f61736520343a432d3d3130302c623f286a3d607472616e736c6174652835302c612a808201527f35302920726f7461746528247b562b652e72616e646f6d5f63686f696365285b612aa08201527f2d34352c34355d297d29207363616c6528247b787d20247b417d29207472616e612ac08201527f736c617465282d35302c2d353029602c483d66756e6374696f6e28652c6e2c74612ae08201527f2c6f2c61297b72657475726e603c6c696e65207472616e73666f726d3d27247b612b008201527f6a7d27202066696c7465723d2775726c2823247b657d2927207374726f6b652d612b208201527f6f7061636974793d272e39352720207374726f6b653d2723247b6e7d27207374612b408201527f796c653d277374726f6b652d77696474683a247b617d272079313d27247b747d612b608201527f272078313d27247b6f7d272078323d27247b742b3130307d272079323d27247b612b808201527f6f7d27202f3e607d293a286a3d607472616e736c6174652835302c3530292072612ba08201527f6f7461746528247b562b652e72616e646f6d5f63686f696365285b2d34352c34612bc08201527f355d297d29207363616c6528247b787d20247b417d29207472616e736c617465612be08201527f282d35302c2d353029602c483d66756e6374696f6e28652c6e2c742c6f2c6129612c008201527f7b72657475726e603c6c696e65207472616e73666f726d3d27247b6a7d272020612c208201527f2066696c7465723d2775726c2823247b657d2927207374726f6b652d6f706163612c408201527f6974793d272e39352720207374726f6b653d2723247b6e7d27207374796c653d612c608201527f277374726f6b652d77696474683a247b617d272078313d27247b747d27207931612c808201527f3d27247b6f7d272079323d27247b742b3130307d272078323d27247b6f7d2720612ca08201527f2f3e607d293b627265616b3b64656661756c743a623f286a3d607472616e736c612cc08201527f6174652835302c35302920726f7461746528247b567d29207363616c6528247b612ce08201527f787d20247b417d29207472616e736c617465282d35302c2d353029602c483d66612d008201527f756e6374696f6e28652c6e2c742c6f2c61297b72657475726e603c6c696e6520612d208201527f7472616e73666f726d3d27247b6a7d27202066696c7465723d2775726c282324612d408201527f7b657d29277374726f6b652d6f7061636974793d272e39352720207374726f6b612d608201527f653d2723247b6e7d27207374796c653d277374726f6b652d77696474683a247b612d808201527f617d272079313d27247b747d272078313d27247b6f7d272078323d27247b747d612da08201527f272079323d27247b6f7d27202f3e607d293a286a3d607472616e736c61746528612dc08201527f35302c35302920726f7461746528247b567d29207363616c6528247b787d2024612de08201527f7b417d29207472616e736c617465282d35302c2d353029602c483d66756e6374612e008201527f696f6e28652c6e2c742c6f2c61297b72657475726e603c6c696e65207472616e612e208201527f73666f726d3d27247b6a7d27202066696c7465723d2775726c2823247b657d29612e408201527f277374726f6b652d6f7061636974793d272e39352720207374726f6b653d2723612e608201527f247b6e7d27207374796c653d277374726f6b652d77696474683a247b617d2720612e808201527f78313d27247b747d272079313d27247b6f7d272079323d27247b747d27207832612ea08201527f3d27247b6f7d27202f3e607d297d652e72616e646f6d5f626f6f6c282e34293f612ec08201527f553d66756e6374696f6e2865297b442a3d653c4d3f2d523a2d4e7d3a284c3d65612ee08201527f2e72616e646f6d5f696e742831302c7a2f332e35292c4e3d652e72616e646f6d612f008201527f5f696e7428342c3132292c553d66756e6374696f6e2865297b442a3d527d292c612f208201527f453d302c6b3d303b666f72286c6574206e3d4c3b6e3c3d533b6e2b3d67297b45612f408201527f2b2b2c453e3d636f6c6f722e6c656e677468262628453d30292c672b3d752c49612f608201527f3d572845293b666f72286c657420743d303b743c323b742b2b297b6c6574206f612f808201527f3d6e2c613d6066247b747d603b666f72286c6574206e3d433b6e3c463b6e2b3d612fa08201527f76296b2b2b2c55286e292c4b2b3d4828612c492c6e2c6f2c652e72616e646f6d612fc08201527f5f6e756d28302c44292c636f6c6f725b4d6174682e61627328452d31295d297d612fe08201527f7d4b2b3d603c726563742066696c6c3d2723247b636f6c6f725b305d7d2720786130008201527f3d27302720793d27247b532b677d272077696474683d273130302720686569676130208201527f68743d2731303027202f3e602c72657175657374416e696d6174696f6e4672616130408201527f6d65282866756e6374696f6e28297b7570646174654c6f61646572282752656e6130608201527f646572696e67205356472c20746869732063616e2074616b65206120666577206130808201527f7365636f6e647327297d29292c6177616974206e65772050726f6d69736528286130a08201527f653d3e73657454696d656f757428652c3230302929292c72657175657374416e6130c08201527f696d6174696f6e4672616d65282866756e6374696f6e28297b472e696e6e65726130e08201527f48544d4c2b3d4b7d29292c72657175657374416e696d6174696f6e4672616d656131008201527f282866756e6374696f6e28297b72656d6f7665416c6c4c6f616465727328297d6131208201527f29292c646f63756d656e742e6164644576656e744c697374656e657228276b656131408201527f79646f776e272c286173796e632066756e6374696f6e2865297b6966282773276131608201527f3d3d3d652e6b65797c7c2753273d3d3d652e6b6579297b72657175657374416e6131808201527f696d6174696f6e4672616d65282866756e6374696f6e28297b6164644c6f61646131a08201527f65722827536176696e672053564727297d29292c6177616974206e65772050726131c08201527f6f6d6973652828653d3e73657454696d656f757428652c3230302929293b636f6131e08201527f6e737420653d646f63756d656e742e676574456c656d656e744279496428276d6132008201527f7953766727292c6e3d646f63756d656e742e637265617465456c656d656e74286132208201527f277374796c6527293b6e2e74657874436f6e74656e743d600a202020207376676132408201527f207b0a20202020202077696474683a2031303076773b0a2020202020206865696132608201527f6768743a2031303076683b0a20202020202070616464696e673a2030766d696e6132808201527f3b0a202020202020626f782d736861646f773a202e35766d696e202e35766d696132a08201527f6e2031766d696e207267626128302c20302c20302c20302e35293b0a202020206132c08201527f2020626f782d73697a696e673a20626f726465722d626f783b0a202020207d0a6132e08201527f202020203c212d2d20496620796f752077616e7420746f20646973706c6179206133008201527f746865205356472061732069742077617320696e207468652067656e657261746133208201527f6f722c206a7573742070757420697420696e746f20746865203c626f64793e206133408201527f6f6620616e2068746d6c207061676520616e64206164642074686973207374796133608201527f6c696e67202d2d3e0a20202020626f6479207b0a202020202020646973706c616133808201527f793a20666c65783b0a2020202020206a7573746966792d636f6e74656e743a206133a08201527f63656e7465723b0a202020202020616c69676e2d6974656d733a2063656e74656133c08201527f723b0a2020202020206261636b67726f756e642d636f6c6f723a2023247b636f6133e08201527f6c6f725b305d7d3b0a202020207d0a2020602c652e70726570656e64286e293b6134008201527f636f6e737420743d6e657720584d4c53657269616c697a65722c6f3d6e6577206134208201527f426c6f62285b742e73657269616c697a65546f537472696e672865295d2c7b746134408201527f7970653a27696d6167652f7376672b786d6c277d292c613d55524c2e637265616134608201527f74654f626a65637455524c286f293b646f63756d656e742e77726974652865296134808201527f3b636f6e737420723d646f63756d656e742e637265617465456c656d656e74286134a08201527f276127293b722e687265663d612c722e646f776e6c6f61643d275f5f5f5f5f5f6134c08201527f5f5f5f2e737667272c646f63756d656e742e626f64792e617070656e644368696134e08201527f6c642872292c722e636c69636b28292c646f63756d656e742e626f64792e72656135008201527f6d6f76654368696c642872292c55524c2e7265766f6b654f626a65637455524c6135208201527f2861292c72656d6f7665416c6c4c6f616465727328297d7d29292c646f63756d6135408201527f656e742e6164644576656e744c697374656e657228276b6579646f776e272c286135608201527f6173796e632066756e6374696f6e2865297b72657175657374416e696d6174696135808201527f6f6e4672616d65282866756e6374696f6e28297b6164644c6f6164657228274c6135a08201527f6f6164696e67206e65772061737065637420726174696f27297d29292c6177616135c08201527f6974206e65772050726f6d6973652828653d3e73657454696d656f757428652c6135e08201527f3230302929292c274172726f775269676874273d3d3d652e6b65793f743d28746136008201527f2b3129256e2e6c656e6774683a274172726f774c656674273d3d3d652e6b65796136208201527f262628743d28742d312b6e2e6c656e67746829256e2e6c656e677468292c73656136408201527f74526174696f286e2c74292c72656d6f7665416c6c4c6f616465727328297d296136608201527f292c472e6164644576656e744c697374656e65722827746f756368656e64272c6136808201527f286173796e632066756e6374696f6e2865297b72657175657374416e696d61746136a08201527f696f6e4672616d65282866756e6374696f6e28297b6164644c6f6164657228276136c08201527f4c6f6164696e67206e65772061737065637420726174696f27297d29292c61776136e08201527f616974206e65772050726f6d6973652828653d3e73657454696d656f757428656137008201527f2c3230302929292c743d28742b3129256e2e6c656e6774683b636f6e7374206f6137208201527f3d6e5b745d3b646f63756d656e742e676574456c656d656e744279496428276d6137408201527f7953766727293b646f526174696f286f2c646f63756d656e742e676574456c656137608201527f6d656e744279496428276d795376672729292c72656d6f7665416c6c4c6f61646137808201527f65727328297d29297d3b66756e6374696f6e20646f526174696f28652c6e297b6137a08201527f3130303d3d3d652e776964746826263130303d3d3d652e6865696768743f286e6137c08201527f2e7374796c652e77696474683d273130307677272c6e2e7374796c652e6865696137e08201527f6768743d27313030766827293a652e77696474682f652e6865696768743e313f6138008201527f286e2e7374796c652e77696474683d273130307677272c6e2e7374796c652e686138208201527f65696768743d6063616c63283130307677202a2028247b652e6865696768747d6138408201527f202f20247b652e77696474687d292960293a286e2e7374796c652e68656967686138608201527f743d273130307668272c6e2e7374796c652e77696474683d6063616c632831306138808201527f307668202a2028247b652e77696474687d202f20247b652e6865696768747d296138a08201527f2960297d66756e6374696f6e2066696e644e616d654279436f6c6f7228652c6e6138c08201527f297b666f72286c657420743d303b743c6e2e6c656e6774683b742b2b296966286138e08201527f6e5b745d2e636f6c6f723d3d3d652972657475726e206e5b745d2e6e616d657d6139008201527f66756e6374696f6e20736574526174696f28652c6e297b646f526174696f28656139208201527f5b6e5d2c646f63756d656e742e676574456c656d656e744279496428276d79536139408201527f76672729297d6c65742069734c6f616465643d21313b66756e6374696f6e20696139608201527f7353616661726928297b72657475726e27756e646566696e656427213d7479706139808201527f656f66206e6176696761746f7226266e756c6c213d6e6176696761746f7226266139a08201527f2f5e28283f216368726f6d657c616e64726f6964292e292a7361666172692f696139c08201527f2e74657374286e6176696761746f723f2e757365724167656e74297d66756e636139e08201527f74696f6e2072656d6f7665416c6c4c6f616465727328297b646f63756d656e74613a008201527f2e717565727953656c6563746f72416c6c28272e6c6f616465722d636f6e7461613a208201527f696e657227292e666f72456163682828653d3e7b652e706172656e744e6f6465613a408201527f2e72656d6f76654368696c642865297d29297d66756e6374696f6e206164644c613a608201527f6f616465722865297b6c6574206e3d646f63756d656e742e637265617465456c613a808201527f656d656e74282764697627293b6e2e636c6173734e616d653d276c6f61646572613aa08201527f2d636f6e7461696e6572272c6e2e7374796c652e706f736974696f6e3d276162613ac08201527f736f6c757465272c6e2e7374796c652e6c6566743d27353025272c6e2e737479613ae08201527f6c652e746f703d27353025272c6e2e7374796c652e7472616e73666f726d3d27613b008201527f7472616e736c617465282d3530252c202d35302529273b636f6e737420743d64613b208201527f6f63756d656e742e637265617465456c656d656e74282764697627293b6c6574613b408201527f206f3b696628742e696e6e6572546578743d652b272e2e2e272c742e7374796c613b608201527f652e636f6c6f723d2723464646464646272c742e7374796c652e626f72646572613b808201527f3d2723303030303030272c742e7374796c652e666f6e7446616d696c793d2748613ba08201527f656c7665746963612c20417269616c2c2073616e732d7365726966272c742e73613bc08201527f74796c652e666f6e7453697a653d2731347078272c742e7374796c652e776964613be08201527f74683d276d61782d636f6e74656e74272c742e7374796c652e646973706c6179613c008201527f3d27696e6c696e652d626c6f636b272c742e636c6173734e616d653d276c6f61613c208201527f64696e672d74657874272c742e69643d276c6f616465722d74657874272c6e2e613c408201527f617070656e644368696c642874292c646f63756d656e742e626f64792e617070613c608201527f656e644368696c64286e292c646f63756d656e742e7374796c65536865657473613c808201527f2e6c656e6774683e30296f3d646f63756d656e742e7374796c65536865657473613ca08201527f5b305d3b656c73657b636f6e737420653d646f63756d656e742e637265617465613cc08201527f456c656d656e7428277374796c6527293b646f63756d656e742e686561642e61613ce08201527f7070656e644368696c642865292c6f3d652e73686565747d6f2e696e73657274613d008201527f52756c6528270a20202020406b65796672616d6573207370696e207b0a202020613d208201527f20202020203025207b207472616e73666f726d3a20726f746174652830646567613d408201527f293b207d0a202020202020202031303025207b207472616e73666f726d3a2072613d608201527f6f7461746528333630646567293b207d0a202020207d0a20202020272c6f2e63613d808201527f737352756c65732e6c656e677468297d66756e6374696f6e207570646174654c613da08201527f6f616465722865297b646f63756d656e742e717565727953656c6563746f7241613dc08201527f6c6c28272e6c6f6164696e672d7465787427292e666f724561636828286e3d3e613de08201527f7b6e2e696e6e6572546578743d652b272e2e2e277d29297d66756e6374696f6e613e008201527f20616464506f74656e7469616c506f70757028297b76617220653d646f63756d613e208201527f656e742e637265617465456c656d656e74282764697627293b652e69643d2773613e408201527f61666172692d706f707570272c652e7374796c653d27646973706c61793a206e613e608201527f6f6e653b20706f736974696f6e3a2066697865643b20746f703a203530253b20613e808201527f6c6566743a203530253b207472616e73666f726d3a207472616e736c61746528613ea08201527f2d3530252c202d353025293b206261636b67726f756e642d636f6c6f723a2077613ec08201527f686974653b2070616464696e673a20323070783b20626f726465723a20317078613ee08201527f20736f6c696420236363633b207a2d696e6465783a20313030303b272c652e69613f008201527f6e6e657248544d4c3d273c703e5765206861766520646574656374656420796f613f208201527f7520617265207573696e6720746865207765622062726f736572205361666172613f408201527f692e205361666172692063757272656e746c792075736573203c612074617267613f608201527f65743d275f626c616e6b2720687265663d2768747470733a2f2f656e2e77696b613f808201527f6970656469612e6f72672f77696b692f436f6d70617269736f6e5f6f665f6272613fa08201527f6f777365725f656e67696e6573273e5765624b69743c2f613e2c207768696368613fc08201527f2063616e2068617665206c61726765206d656d6f7279206c65616b7320776865613fe08201527f6e206c6f6164696e67205356477320776974682066696c746572732c206d616b6140008201527f696e67207468652073797374656d20756e726573706f6e736976652e205468696140208201527f73203c61207461726765743d275f626c616e6b2720687265663d2768747470736140408201527f3a2f2f627567732e7765626b69742e6f72672f73686f775f6275672e6367693f6140608201527f69643d323138343232273e69737375653c2f613e20686173206265656e2072656140808201527f706f7274656420746f205765624b69742e2049207265636f6d6d656e64203c616140a08201527f207461726765743d275f626c616e6b2720687265663d2768747470733a2f2f656140c08201527f6e2e77696b6970656469612e6f72672f77696b692f436f6d70617269736f6e5f6140e08201527f6f665f62726f777365725f656e67696e6573273e426c696e6b3c2f613e2062616141008201527f7365642062726f777365727320286173206f66203230323429206c696b6520476141208201527f6f6f676c65204368726f6d6520616e64204d6963726f736f667420456467652e6141408201527f20496620796f7520776f756c64206c696b6520746f20636f6e74696e75652c206141608201527f6b6e6f77696e67207468617420536166617269206d61792068617665206973736141808201527f7565732c206f722062656c696576696e67207468617420536166617269206e6f6141a08201527f7720636f72726563746c7920737570706f727473205356472066696c65732c206141c08201527f796f75206d61792e3c2f703e3c627574746f6e206f6e636c69636b3d27636c6f6141e08201527f7365506f7075702829273e4920756e6465727374616e6420616e6420776973686142008201527f20746f20636f6e74696e7565206174206d79206f776e207269736b2e3c2f62756142208201527f74746f6e3e272c646f63756d656e742e626f64792e617070656e644368696c646142408201527f2865297d66756e6374696f6e20636c6f7365506f70757028297b76617220653d6142608201527f646f63756d656e742e676574456c656d656e744279496428277361666172692d6142808201527f706f70757027292c6e3d646f63756d656e742e676574456c656d656e744279496142a08201527f6428277361666172692d62616e6e657227293b6526262873686f756c644c6f616142c08201527f6444726177696e673d21302c652e7374796c652e646973706c61793d276e6f6e6142e08201527f65272c6e2e7374796c652e646973706c61793d276e6f6e6527297d736574496e6143008201527f74657276616c282866756e6374696f6e28297b6966282169734c6f61646564296143208201527f7b69734c6f616465643d21302c72657175657374416e696d6174696f6e4672616143408201527f6d6528616464506f74656e7469616c506f707570292c72657175657374416e696143608201527f6d6174696f6e4672616d65282866756e6374696f6e28297b69662869735361666143808201527f6172692829297b636f6e737420653d646f63756d656e742e637265617465456c6143a08201527f656d656e74282764697627293b652e7374796c652e706f736974696f6e3d27666143c08201527f69786564272c652e7374796c652e626f74746f6d3d2730272c652e7374796c656143e08201527f2e6c6566743d2730272c652e7374796c652e77696474683d2731303025272c656144008201527f2e7374796c652e6261636b67726f756e64436f6c6f723d27726564272c652e736144208201527f74796c652e636f6c6f723d277768697465272c652e7374796c652e74657874416144408201527f6c69676e3d2763656e746572272c652e7374796c652e70616464696e673d27316144608201527f307078272c652e7374796c652e7a496e6465783d2731303030272c652e636c616144808201527f73734e616d653d277361666172692d62616e6e6572272c646f63756d656e742e6144a08201527f626f64792e617070656e644368696c642865292c646f63756d656e742e6765746144c08201527f456c656d656e744279496428277361666172692d706f70757027292e7374796c6144e08201527f652e646973706c61793d27626c6f636b277d656c73652073686f756c644c6f616145008201527f6444726177696e673d21307d29293b6c657420653d736574496e74657276616c6145208201527f282866756e6374696f6e28297b73686f756c644c6f616444726177696e6726266145408201527f6173796e632066756e6374696f6e28297b636c656172496e74657276616c28656145608201527f292c6177616974206e65772050726f6d6973652828653d3e73657454696d656f6145808201527f757428652c3230302929292c6177616974206472617728297d28297d292c31306145a08201527f30297d7d292c316533293b3c2f7363726970743e3c2f686561643e00000000006145c082015250565b5f6159e86145db83610330565b91506159f3826104b8565b6145db82019050919050565b5f615a0982610388565b9150615a1582876103aa565b9150615a2082610402565b9150615a2c82866103aa565b9150615a378261044c565b9150615a4382856103aa565b9150615a4e82610496565b9150615a5a82846103aa565b9150615a65826159db565b91508190509594505050505056fea2646970667358221220605006bb571d06161444f83cabc9bc147ef10195416136df8ce81d40e15df1ae64736f6c63430008190033",
			"opcodes": "PUSH1 0x80 PUSH1 0x40 MSTORE CALLVALUE DUP1 ISZERO PUSH1 0xE JUMPI PUSH0 DUP1 REVERT JUMPDEST POP PUSH2 0x5AA9 DUP1 PUSH2 0x1C PUSH0 CODECOPY PUSH0 RETURN INVALID PUSH1 0x80 PUSH1 0x40 MSTORE CALLVALUE DUP1 ISZERO PUSH2 0xF JUMPI PUSH0 DUP1 REVERT JUMPDEST POP PUSH1 0x4 CALLDATASIZE LT PUSH2 0x29 JUMPI PUSH0 CALLDATALOAD PUSH1 0xE0 SHR DUP1 PUSH4 0xCEAE2702 EQ PUSH2 0x2D JUMPI JUMPDEST PUSH0 DUP1 REVERT JUMPDEST PUSH2 0x47 PUSH1 0x4 DUP1 CALLDATASIZE SUB DUP2 ADD SWAP1 PUSH2 0x42 SWAP2 SWAP1 PUSH2 0x1DC JUMP JUMPDEST PUSH2 0x5D JUMP JUMPDEST PUSH1 0x40 MLOAD PUSH2 0x54 SWAP2 SWAP1 PUSH2 0x310 JUMP JUMPDEST PUSH1 0x40 MLOAD DUP1 SWAP2 SUB SWAP1 RETURN JUMPDEST PUSH1 0x60 DUP4 DUP3 DUP5 DUP8 PUSH1 0x40 MLOAD PUSH1 0x20 ADD PUSH2 0x76 SWAP5 SWAP4 SWAP3 SWAP2 SWAP1 PUSH2 0x59FF JUMP JUMPDEST PUSH1 0x40 MLOAD PUSH1 0x20 DUP2 DUP4 SUB SUB DUP2 MSTORE SWAP1 PUSH1 0x40 MSTORE SWAP1 POP SWAP5 SWAP4 POP POP POP POP JUMP JUMPDEST PUSH0 PUSH1 0x40 MLOAD SWAP1 POP SWAP1 JUMP JUMPDEST PUSH0 DUP1 REVERT JUMPDEST PUSH0 DUP1 REVERT JUMPDEST PUSH0 DUP1 REVERT JUMPDEST PUSH0 DUP1 REVERT JUMPDEST PUSH0 PUSH1 0x1F NOT PUSH1 0x1F DUP4 ADD AND SWAP1 POP SWAP2 SWAP1 POP JUMP JUMPDEST PUSH32 0x4E487B7100000000000000000000000000000000000000000000000000000000 PUSH0 MSTORE PUSH1 0x41 PUSH1 0x4 MSTORE PUSH1 0x24 PUSH0 REVERT JUMPDEST PUSH2 0xEE DUP3 PUSH2 0xA8 JUMP JUMPDEST DUP2 ADD DUP2 DUP2 LT PUSH8 0xFFFFFFFFFFFFFFFF DUP3 GT OR ISZERO PUSH2 0x10D JUMPI PUSH2 0x10C PUSH2 0xB8 JUMP JUMPDEST JUMPDEST DUP1 PUSH1 0x40 MSTORE POP POP POP JUMP JUMPDEST PUSH0 PUSH2 0x11F PUSH2 0x8F JUMP JUMPDEST SWAP1 POP PUSH2 0x12B DUP3 DUP3 PUSH2 0xE5 JUMP JUMPDEST SWAP2 SWAP1 POP JUMP JUMPDEST PUSH0 PUSH8 0xFFFFFFFFFFFFFFFF DUP3 GT ISZERO PUSH2 0x14A JUMPI PUSH2 0x149 PUSH2 0xB8 JUMP JUMPDEST JUMPDEST PUSH2 0x153 DUP3 PUSH2 0xA8 JUMP JUMPDEST SWAP1 POP PUSH1 0x20 DUP2 ADD SWAP1 POP SWAP2 SWAP1 POP JUMP JUMPDEST DUP3 DUP2 DUP4 CALLDATACOPY PUSH0 DUP4 DUP4 ADD MSTORE POP POP POP JUMP JUMPDEST PUSH0 PUSH2 0x180 PUSH2 0x17B DUP5 PUSH2 0x130 JUMP JUMPDEST PUSH2 0x116 JUMP JUMPDEST SWAP1 POP DUP3 DUP2 MSTORE PUSH1 0x20 DUP2 ADD DUP5 DUP5 DUP5 ADD GT ISZERO PUSH2 0x19C JUMPI PUSH2 0x19B PUSH2 0xA4 JUMP JUMPDEST JUMPDEST PUSH2 0x1A7 DUP5 DUP3 DUP6 PUSH2 0x160 JUMP JUMPDEST POP SWAP4 SWAP3 POP POP POP JUMP JUMPDEST PUSH0 DUP3 PUSH1 0x1F DUP4 ADD SLT PUSH2 0x1C3 JUMPI PUSH2 0x1C2 PUSH2 0xA0 JUMP JUMPDEST JUMPDEST DUP2 CALLDATALOAD PUSH2 0x1D3 DUP5 DUP3 PUSH1 0x20 DUP7 ADD PUSH2 0x16E JUMP JUMPDEST SWAP2 POP POP SWAP3 SWAP2 POP POP JUMP JUMPDEST PUSH0 DUP1 PUSH0 DUP1 PUSH1 0x80 DUP6 DUP8 SUB SLT ISZERO PUSH2 0x1F4 JUMPI PUSH2 0x1F3 PUSH2 0x98 JUMP JUMPDEST JUMPDEST PUSH0 DUP6 ADD CALLDATALOAD PUSH8 0xFFFFFFFFFFFFFFFF DUP2 GT ISZERO PUSH2 0x211 JUMPI PUSH2 0x210 PUSH2 0x9C JUMP JUMPDEST JUMPDEST PUSH2 0x21D DUP8 DUP3 DUP9 ADD PUSH2 0x1AF JUMP JUMPDEST SWAP5 POP POP PUSH1 0x20 DUP6 ADD CALLDATALOAD PUSH8 0xFFFFFFFFFFFFFFFF DUP2 GT ISZERO PUSH2 0x23E JUMPI PUSH2 0x23D PUSH2 0x9C JUMP JUMPDEST JUMPDEST PUSH2 0x24A DUP8 DUP3 DUP9 ADD PUSH2 0x1AF JUMP JUMPDEST SWAP4 POP POP PUSH1 0x40 DUP6 ADD CALLDATALOAD PUSH8 0xFFFFFFFFFFFFFFFF DUP2 GT ISZERO PUSH2 0x26B JUMPI PUSH2 0x26A PUSH2 0x9C JUMP JUMPDEST JUMPDEST PUSH2 0x277 DUP8 DUP3 DUP9 ADD PUSH2 0x1AF JUMP JUMPDEST SWAP3 POP POP PUSH1 0x60 DUP6 ADD CALLDATALOAD PUSH8 0xFFFFFFFFFFFFFFFF DUP2 GT ISZERO PUSH2 0x298 JUMPI PUSH2 0x297 PUSH2 0x9C JUMP JUMPDEST JUMPDEST PUSH2 0x2A4 DUP8 DUP3 DUP9 ADD PUSH2 0x1AF JUMP JUMPDEST SWAP2 POP POP SWAP3 SWAP6 SWAP2 SWAP5 POP SWAP3 POP JUMP JUMPDEST PUSH0 DUP2 MLOAD SWAP1 POP SWAP2 SWAP1 POP JUMP JUMPDEST PUSH0 DUP3 DUP3 MSTORE PUSH1 0x20 DUP3 ADD SWAP1 POP SWAP3 SWAP2 POP POP JUMP JUMPDEST DUP3 DUP2 DUP4 MCOPY PUSH0 DUP4 DUP4 ADD MSTORE POP POP POP JUMP JUMPDEST PUSH0 PUSH2 0x2E2 DUP3 PUSH2 0x2B0 JUMP JUMPDEST PUSH2 0x2EC DUP2 DUP6 PUSH2 0x2BA JUMP JUMPDEST SWAP4 POP PUSH2 0x2FC DUP2 DUP6 PUSH1 0x20 DUP7 ADD PUSH2 0x2CA JUMP JUMPDEST PUSH2 0x305 DUP2 PUSH2 0xA8 JUMP JUMPDEST DUP5 ADD SWAP2 POP POP SWAP3 SWAP2 POP POP JUMP JUMPDEST PUSH0 PUSH1 0x20 DUP3 ADD SWAP1 POP DUP2 DUP2 SUB PUSH0 DUP4 ADD MSTORE PUSH2 0x328 DUP2 DUP5 PUSH2 0x2D8 JUMP JUMPDEST SWAP1 POP SWAP3 SWAP2 POP POP JUMP JUMPDEST PUSH0 DUP2 SWAP1 POP SWAP3 SWAP2 POP POP JUMP JUMPDEST PUSH32 0x3C73637269707420747970653D276170706C69636174696F6E2F6A6176617363 PUSH0 DUP3 ADD MSTORE PUSH32 0x72697074273E6C657420636F6C6F723D636F6C6F72735B000000000000000000 PUSH1 0x20 DUP3 ADD MSTORE POP JUMP JUMPDEST PUSH0 PUSH2 0x394 PUSH1 0x37 DUP4 PUSH2 0x330 JUMP JUMPDEST SWAP2 POP PUSH2 0x39F DUP3 PUSH2 0x33A JUMP JUMPDEST PUSH1 0x37 DUP3 ADD SWAP1 POP SWAP2 SWAP1 POP JUMP JUMPDEST PUSH0 PUSH2 0x3B4 DUP3 PUSH2 0x2B0 JUMP JUMPDEST PUSH2 0x3BE DUP2 DUP6 PUSH2 0x330 JUMP JUMPDEST SWAP4 POP PUSH2 0x3CE DUP2 DUP6 PUSH1 0x20 DUP7 ADD PUSH2 0x2CA JUMP JUMPDEST DUP1 DUP5 ADD SWAP2 POP POP SWAP3 SWAP2 POP POP JUMP JUMPDEST PUSH32 0x5D2C6D6F6F643D00000000000000000000000000000000000000000000000000 PUSH0 DUP3 ADD MSTORE POP JUMP JUMPDEST PUSH0 PUSH2 0x40E PUSH1 0x7 DUP4 PUSH2 0x330 JUMP JUMPDEST SWAP2 POP PUSH2 0x419 DUP3 PUSH2 0x3DA JUMP JUMPDEST PUSH1 0x7 DUP3 ADD SWAP1 POP SWAP2 SWAP1 POP JUMP JUMPDEST PUSH32 0x2C746F6B656E446174613D7B686173683A273078000000000000000000000000 PUSH0 DUP3 ADD MSTORE POP JUMP JUMPDEST PUSH0 PUSH2 0x458 PUSH1 0x14 DUP4 PUSH2 0x330 JUMP JUMPDEST SWAP2 POP PUSH2 0x463 DUP3 PUSH2 0x424 JUMP JUMPDEST PUSH1 0x14 DUP3 ADD SWAP1 POP SWAP2 SWAP1 POP JUMP JUMPDEST PUSH32 0x272C746F6B656E49643A27000000000000000000000000000000000000000000 PUSH0 DUP3 ADD MSTORE POP JUMP JUMPDEST PUSH0 PUSH2 0x4A2 PUSH1 0xB DUP4 PUSH2 0x330 JUMP JUMPDEST SWAP2 POP PUSH2 0x4AD DUP3 PUSH2 0x46E JUMP JUMPDEST PUSH1 0xB DUP3 ADD SWAP1 POP SWAP2 SWAP1 POP JUMP JUMPDEST PUSH32 0x277D3B6C65742073686F756C644C6F616444726177696E673D21313B636F6E73 PUSH0 DUP3 ADD MSTORE PUSH32 0x7420647261773D6173796E632066756E6374696F6E28297B7265717565737441 PUSH1 0x20 DUP3 ADD MSTORE PUSH32 0x6E696D6174696F6E4672616D65282866756E6374696F6E28297B6164644C6F61 PUSH1 0x40 DUP3 ADD MSTORE PUSH32 0x646572282727297D29292C6177616974206E65772050726F6D6973652828653D PUSH1 0x60 DUP3 ADD MSTORE PUSH32 0x3E73657454696D656F757428652C3230302929292C72657175657374416E696D PUSH1 0x80 DUP3 ADD MSTORE PUSH32 0x6174696F6E4672616D65282866756E6374696F6E28297B7570646174654C6F61 PUSH1 0xA0 DUP3 ADD MSTORE PUSH32 0x64657228274C6F6164696E67207661726961626C657327297D29292C61776169 PUSH1 0xC0 DUP3 ADD MSTORE PUSH32 0x74206E65772050726F6D6973652828653D3E73657454696D656F757428652C32 PUSH1 0xE0 DUP3 ADD MSTORE PUSH32 0x30302929293B636F6E737420653D6E657720636C6173737B636F6E7374727563 PUSH2 0x100 DUP3 ADD MSTORE PUSH32 0x746F7228297B746869732E757365413D21313B6C657420653D66756E6374696F PUSH2 0x120 DUP3 ADD MSTORE PUSH32 0x6E2865297B6C6574206E3D7061727365496E7428652E73756273747228302C38 PUSH2 0x140 DUP3 ADD MSTORE PUSH32 0x292C3136292C743D7061727365496E7428652E73756273747228382C38292C31 PUSH2 0x160 DUP3 ADD MSTORE PUSH32 0x36292C6F3D7061727365496E7428652E7375627374722831362C38292C313629 PUSH2 0x180 DUP3 ADD MSTORE PUSH32 0x2C613D7061727365496E7428652E7375627374722832342C38292C3136293B72 PUSH2 0x1A0 DUP3 ADD MSTORE PUSH32 0x657475726E2066756E6374696F6E28297B6E7C3D302C747C3D302C6F7C3D302C PUSH2 0x1C0 DUP3 ADD MSTORE PUSH32 0x617C3D303B6C657420653D286E2B747C30292B617C303B72657475726E20613D PUSH2 0x1E0 DUP3 ADD MSTORE PUSH32 0x612B317C302C6E3D745E743E3E3E392C743D6F2B286F3C3C33297C302C6F3D6F PUSH2 0x200 DUP3 ADD MSTORE PUSH32 0x3C3C32317C6F3E3E3E31312C6F3D6F2B657C302C28653E3E3E30292F34323934 PUSH2 0x220 DUP3 ADD MSTORE PUSH32 0x3936373239367D7D3B746869732E70726E67413D6E6577206528746F6B656E44 PUSH2 0x240 DUP3 ADD MSTORE PUSH32 0x6174612E686173682E73756273747228322C333229292C746869732E70726E67 PUSH2 0x260 DUP3 ADD MSTORE PUSH32 0x423D6E6577206528746F6B656E446174612E686173682E737562737472283334 PUSH2 0x280 DUP3 ADD MSTORE PUSH32 0x2C333229293B666F72286C657420653D303B653C3165363B652B3D3229746869 PUSH2 0x2A0 DUP3 ADD MSTORE PUSH32 0x732E70726E674128292C746869732E70726E674228297D72616E646F6D5F6465 PUSH2 0x2C0 DUP3 ADD MSTORE PUSH32 0x6328297B72657475726E20746869732E757365413D21746869732E757365412C PUSH2 0x2E0 DUP3 ADD MSTORE PUSH32 0x746869732E757365413F746869732E70726E674128293A746869732E70726E67 PUSH2 0x300 DUP3 ADD MSTORE PUSH32 0x4228297D72616E646F6D5F6E756D28652C6E297B72657475726E20652B286E2D PUSH2 0x320 DUP3 ADD MSTORE PUSH32 0x65292A746869732E72616E646F6D5F64656328297D72616E646F6D5F696E7428 PUSH2 0x340 DUP3 ADD MSTORE PUSH32 0x652C6E297B72657475726E204D6174682E666C6F6F7228746869732E72616E64 PUSH2 0x360 DUP3 ADD MSTORE PUSH32 0x6F6D5F6E756D28652C6E2B3129297D72616E646F6D5F626F6F6C2865297B7265 PUSH2 0x380 DUP3 ADD MSTORE PUSH32 0x7475726E20746869732E72616E646F6D5F64656328293C657D72616E646F6D5F PUSH2 0x3A0 DUP3 ADD MSTORE PUSH32 0x63686F6963652865297B72657475726E20655B746869732E72616E646F6D5F69 PUSH2 0x3C0 DUP3 ADD MSTORE PUSH32 0x6E7428302C652E6C656E6774682D31295D7D7D2C6E3D5B7B77696474683A3130 PUSH2 0x3E0 DUP3 ADD MSTORE PUSH32 0x302C6865696768743A3130307D2C7B77696474683A332C6865696768743A347D PUSH2 0x400 DUP3 ADD MSTORE PUSH32 0x2C7B77696474683A392C6865696768743A31367D2C7B77696474683A312C6865 PUSH2 0x420 DUP3 ADD MSTORE PUSH32 0x696768743A317D5D3B6C657420743D303B636F6E7374206F3D646F63756D656E PUSH2 0x440 DUP3 ADD MSTORE PUSH32 0x742E637265617465456C656D656E7428277374796C6527293B6F2E696E6E6572 PUSH2 0x460 DUP3 ADD MSTORE PUSH32 0x48544D4C3D27626F6479207B206D617267696E2D746F703A20303B2064697370 PUSH2 0x480 DUP3 ADD MSTORE PUSH32 0x6C61793A20666C65783B206A7573746966792D636F6E74656E743A2063656E74 PUSH2 0x4A0 DUP3 ADD MSTORE PUSH32 0x65723B20616C69676E2D6974656D733A2063656E7465723B206261636B67726F PUSH2 0x4C0 DUP3 ADD MSTORE PUSH32 0x756E642D636F6C6F723A20234646464645313B207D20737667207B2068656967 PUSH2 0x4E0 DUP3 ADD MSTORE PUSH32 0x68743A2031303076683B2077696474683A2031303076773B2070616464696E67 PUSH2 0x500 DUP3 ADD MSTORE PUSH32 0x3A2030766D696E3B20626F782D736861646F773A202E35766D696E202E35766D PUSH2 0x520 DUP3 ADD MSTORE PUSH32 0x696E2031766D696E207267626128302C20302C20302C20302E35293B20626F78 PUSH2 0x540 DUP3 ADD MSTORE PUSH32 0x2D73697A696E673A20626F726465722D626F783B207D272C646F63756D656E74 PUSH2 0x560 DUP3 ADD MSTORE PUSH32 0x2E686561642E617070656E644368696C64286F293B636F6E737420613D646F63 PUSH2 0x580 DUP3 ADD MSTORE PUSH32 0x756D656E742E637265617465456C656D656E744E532827687474703A2F2F7777 PUSH2 0x5A0 DUP3 ADD MSTORE PUSH32 0x772E77332E6F72672F323030302F737667272C2773766727293B612E73657441 PUSH2 0x5C0 DUP3 ADD MSTORE PUSH32 0x747472696275746528276964272C276D7953766727292C612E73657441747472 PUSH2 0x5E0 DUP3 ADD MSTORE PUSH32 0x6962757465282776696577426F78272C27302030203130302031303027292C64 PUSH2 0x600 DUP3 ADD MSTORE PUSH32 0x6F63756D656E742E626F64792E617070656E644368696C642861292C73657452 PUSH2 0x620 DUP3 ADD MSTORE PUSH32 0x6174696F286E2C74293B6C657420722C692C732C642C632C6C2C6D2C752C682C PUSH2 0x640 DUP3 ADD MSTORE PUSH32 0x5F2C792C662C702C672C622C242C772C6B2C762C782C412C4C2C532C432C462C PUSH2 0x660 DUP3 ADD MSTORE PUSH32 0x452C422C542C492C712C502C4D2C522C4E2C442C473D646F63756D656E742E67 PUSH2 0x680 DUP3 ADD MSTORE PUSH32 0x6574456C656D656E744279496428276D7953766727292C7A3D3130302C4F3D21 PUSH2 0x6A0 DUP3 ADD MSTORE PUSH32 0x312C563D302C6A3D27272C483D66756E6374696F6E28297B7D2C553D66756E63 PUSH2 0x6C0 DUP3 ADD MSTORE PUSH32 0x74696F6E28297B7D2C573D66756E6374696F6E2865297B7D2C4B3D27272C583D PUSH2 0x6E0 DUP3 ADD MSTORE PUSH32 0x66696E644E616D654279436F6C6F7228636F6C6F725B305D2E7375622831292C PUSH2 0x700 DUP3 ADD MSTORE PUSH32 0x636F6C6F724E616D6573293B73776974636828646F63756D656E742E67657445 PUSH2 0x720 DUP3 ADD MSTORE PUSH32 0x6C656D656E747342795461674E616D652827626F647927295B305D2E7374796C PUSH2 0x740 DUP3 ADD MSTORE PUSH32 0x652E6261636B67726F756E64436F6C6F723D2723272B636F6C6F725B305D2C72 PUSH2 0x760 DUP3 ADD MSTORE PUSH32 0x657175657374416E696D6174696F6E4672616D65282866756E6374696F6E2829 PUSH2 0x780 DUP3 ADD MSTORE PUSH32 0x7B7570646174654C6F6164657228274C6F6164696E67207661726961626C6573 PUSH2 0x7A0 DUP3 ADD MSTORE PUSH32 0x27297D29292C66756E6374696F6E28297B73776974636828643D652E72616E64 PUSH2 0x7C0 DUP3 ADD MSTORE PUSH32 0x6F6D5F63686F696365285B302C322C332C342C322C305D292C563D652E72616E PUSH2 0x7E0 DUP3 ADD MSTORE PUSH32 0x646F6D5F626F6F6C282E35293F652E72616E646F6D5F6E756D282D36302C3630 PUSH2 0x800 DUP3 ADD MSTORE PUSH32 0x293A652E72616E646F6D5F696E74282D352C35292C623D652E72616E646F6D5F PUSH2 0x820 DUP3 ADD MSTORE PUSH32 0x626F6F6C282E35292C783D652E72616E646F6D5F63686F696365285B312C2D31 PUSH2 0x840 DUP3 ADD MSTORE PUSH32 0x5D292C413D652E72616E646F6D5F63686F696365285B312C2D315D292C573D66 PUSH2 0x860 DUP3 ADD MSTORE PUSH32 0x756E6374696F6E286E297B72657475726E20652E72616E646F6D5F63686F6963 PUSH2 0x880 DUP3 ADD MSTORE PUSH32 0x6528636F6C6F72297D2C6D6F6F64297B6361736520303A693D312C733D382C67 PUSH2 0x8A0 DUP3 ADD MSTORE PUSH32 0x3D352C443D3130302C723D2E322C243D2E30332C6C3D332C633D652E72616E64 PUSH2 0x8C0 DUP3 ADD MSTORE PUSH32 0x6F6D5F696E74283830302C31313030292C6D3D632F6C2C683D6D2F322C412A3D PUSH2 0x8E0 DUP3 ADD MSTORE PUSH32 0x322C782A3D322C753D2E30362C773D652E72616E646F6D5F696E74283130302C PUSH2 0x900 DUP3 ADD MSTORE PUSH32 0x383030292C563D652E72616E646F6D5F63686F696365285B2D34352C34355D29 PUSH2 0x920 DUP3 ADD MSTORE PUSH32 0x3B627265616B3B6361736520313A693D31352C733D31302C673D362C443D3530 PUSH2 0x940 DUP3 ADD MSTORE PUSH32 0x2C723D2E3032352C243D2E30332C6C3D652E72616E646F6D5F6E756D28322C34 PUSH2 0x960 DUP3 ADD MSTORE PUSH32 0x292C633D652E72616E646F6D5F696E74283830302C31323030292C6D3D632F6C PUSH2 0x980 DUP3 ADD MSTORE PUSH32 0x2C683D6D2F652E72616E646F6D5F696E7428362C3135292C753D2E30362C773D PUSH2 0x9A0 DUP3 ADD MSTORE PUSH32 0x652E72616E646F6D5F696E74283130302C383030292C563D652E72616E646F6D PUSH2 0x9C0 DUP3 ADD MSTORE PUSH32 0x5F63686F696365285B2D34352C34355D292C623D21303B627265616B3B636173 PUSH2 0x9E0 DUP3 ADD MSTORE PUSH32 0x6520323A693D332C733D352C673D362C443D35302C723D2E3034352C243D2E30 PUSH2 0xA00 DUP3 ADD MSTORE PUSH32 0x342C6C3D652E72616E646F6D5F6E756D28322C34292C633D652E72616E646F6D PUSH2 0xA20 DUP3 ADD MSTORE PUSH32 0x5F696E74283830302C31323030292C6D3D632F6C2C683D6D2F32302C753D2E30 PUSH2 0xA40 DUP3 ADD MSTORE PUSH32 0x362C773D652E72616E646F6D5F696E74283130302C383030292C563D652E7261 PUSH2 0xA60 DUP3 ADD MSTORE PUSH32 0x6E646F6D5F63686F696365285B2D34352C34355D292C623D21303B627265616B PUSH2 0xA80 DUP3 ADD MSTORE PUSH32 0x3B6361736520333A693D31352C733D322C673D362C443D35302C723D2E30332C PUSH2 0xAA0 DUP3 ADD MSTORE PUSH32 0x243D2E30342C6C3D332C633D652E72616E646F6D5F696E74283830302C313230 PUSH2 0xAC0 DUP3 ADD MSTORE PUSH32 0x30292C6D3D632F6C2C683D6D2F31302C753D2E30362C563D652E72616E646F6D PUSH2 0xAE0 DUP3 ADD MSTORE PUSH32 0x5F63686F696365285B2D34352C34355D292C773D652E72616E646F6D5F696E74 PUSH2 0xB00 DUP3 ADD MSTORE PUSH32 0x283130302C383030293B627265616B3B6361736520343A693D332C733D332C67 PUSH2 0xB20 DUP3 ADD MSTORE PUSH32 0x3D352C443D31302C723D2E30362C243D2E3030392C6C3D652E72616E646F6D5F PUSH2 0xB40 DUP3 ADD MSTORE PUSH32 0x6E756D28322C34292C633D652E72616E646F6D5F696E74283830302C31323030 PUSH2 0xB60 DUP3 ADD MSTORE PUSH32 0x292C6D3D632F6C2C683D6D2F332C753D2E30362C773D652E72616E646F6D5F69 PUSH2 0xB80 DUP3 ADD MSTORE PUSH32 0x6E74283130302C383030292C563D652E72616E646F6D5F63686F696365285B2D PUSH2 0xBA0 DUP3 ADD MSTORE PUSH32 0x34352C34355D293B627265616B3B6361736520353A693D332C733D332C673D31 PUSH2 0xBC0 DUP3 ADD MSTORE PUSH32 0x302C443D3130302C723D2E30342C243D2E30342C6C3D652E72616E646F6D5F6E PUSH2 0xBE0 DUP3 ADD MSTORE PUSH32 0x756D28322C34292C633D652E72616E646F6D5F696E74283830302C3132303029 PUSH2 0xC00 DUP3 ADD MSTORE PUSH32 0x2C6D3D632F6C2C683D6D2C753D2E30362C773D652E72616E646F6D5F696E7428 PUSH2 0xC20 DUP3 ADD MSTORE PUSH32 0x3130302C383030292C563D652E72616E646F6D5F63686F696365285B2D34352C PUSH2 0xC40 DUP3 ADD MSTORE PUSH32 0x34355D293B627265616B3B6361736520363A693D332C733D312C673D31302C44 PUSH2 0xC60 DUP3 ADD MSTORE PUSH32 0x3D3130302C723D2E30342C243D2E30342C6C3D652E72616E646F6D5F6E756D28 PUSH2 0xC80 DUP3 ADD MSTORE PUSH32 0x322C34292C633D652E72616E646F6D5F696E74283830302C31323030292C6D3D PUSH2 0xCA0 DUP3 ADD MSTORE PUSH32 0x632F6C2C683D6D2C753D2E30362C773D652E72616E646F6D5F696E7428313030 PUSH2 0xCC0 DUP3 ADD MSTORE PUSH32 0x2C383030292C563D652E72616E646F6D5F63686F696365285B2D34352C34355D PUSH2 0xCE0 DUP3 ADD MSTORE PUSH32 0x293B627265616B3B6361736520373A693D312C733D322C673D352C443D34302C PUSH2 0xD00 DUP3 ADD MSTORE PUSH32 0x723D652E72616E646F6D5F63686F696365285B2E30362C2E30372C2E30382C2E PUSH2 0xD20 DUP3 ADD MSTORE PUSH32 0x30392C2E315D292C243D652E72616E646F6D5F63686F696365285B39652D342C PUSH2 0xD40 DUP3 ADD MSTORE PUSH32 0x38652D342C2E3030315D292C6C3D652E72616E646F6D5F6E756D28322C34292C PUSH2 0xD60 DUP3 ADD MSTORE PUSH32 0x633D652E72616E646F6D5F696E74283830302C31323030292C6D3D632F6C2C68 PUSH2 0xD80 DUP3 ADD MSTORE PUSH32 0x3D322A6D2C753D2E30362C773D652E72616E646F6D5F696E74283130302C3830 PUSH2 0xDA0 DUP3 ADD MSTORE PUSH32 0x30292C563D652E72616E646F6D5F63686F696365285B2D34352C34355D292C64 PUSH2 0xDC0 DUP3 ADD MSTORE PUSH32 0x3D652E72616E646F6D5F63686F696365285B302C312C322C335D293B62726561 PUSH2 0xDE0 DUP3 ADD MSTORE PUSH32 0x6B3B6361736520383A693D312C733D312C673D31352C443D38302C723D2E3039 PUSH2 0xE00 DUP3 ADD MSTORE PUSH32 0x2C243D2E30342C6C3D652E72616E646F6D5F6E756D28322C34292C633D652E72 PUSH2 0xE20 DUP3 ADD MSTORE PUSH32 0x616E646F6D5F696E74283430302C353030292C6D3D632F6C2C683D382A6D2C75 PUSH2 0xE40 DUP3 ADD MSTORE PUSH32 0x3D2E30362C773D652E72616E646F6D5F696E74283130302C383030292C563D65 PUSH2 0xE60 DUP3 ADD MSTORE PUSH32 0x2E72616E646F6D5F63686F696365285B2D34352C34355D293B627265616B3B63 PUSH2 0xE80 DUP3 ADD MSTORE PUSH32 0x61736520393A693D392C733D312C673D35302C443D652E72616E646F6D5F696E PUSH2 0xEA0 DUP3 ADD MSTORE PUSH32 0x742835302C313030292C723D2E3030312C243D2E30362C6C3D652E72616E646F PUSH2 0xEC0 DUP3 ADD MSTORE PUSH32 0x6D5F6E756D28322C34292C633D3165332C6D3D632F6C2C683D31302A6D2C753D PUSH2 0xEE0 DUP3 ADD MSTORE PUSH32 0x2E30362C773D652E72616E646F6D5F696E74283330302C383030292C563D652E PUSH2 0xF00 DUP3 ADD MSTORE PUSH32 0x72616E646F6D5F63686F696365285B2D34352C34355D293B627265616B3B6361 PUSH2 0xF20 DUP3 ADD MSTORE PUSH32 0x73652031303A693D352C733D312C673D35302C443D652E72616E646F6D5F696E PUSH2 0xF40 DUP3 ADD MSTORE PUSH32 0x742838302C313530292C723D2E3030312C243D2E30392C6C3D652E72616E646F PUSH2 0xF60 DUP3 ADD MSTORE PUSH32 0x6D5F6E756D28322C34292C633D3530302C6D3D632F6C2C683D31302A6D2C753D PUSH2 0xF80 DUP3 ADD MSTORE PUSH32 0x2E30362C773D652E72616E646F6D5F696E74283330302C383030292C563D652E PUSH2 0xFA0 DUP3 ADD MSTORE PUSH32 0x72616E646F6D5F63686F696365285B2D34352C34355D293B627265616B3B6361 PUSH2 0xFC0 DUP3 ADD MSTORE PUSH32 0x73652031313A693D312C733D312C673D352C443D652E72616E646F6D5F63686F PUSH2 0xFE0 DUP3 ADD MSTORE PUSH32 0x696365285B322C32305D292C723D2E332C243D2E30392C6C3D652E72616E646F PUSH2 0x1000 DUP3 ADD MSTORE PUSH32 0x6D5F6E756D28322C34292C633D31302C6D3D632F6C2C683D31302A6D2C753D65 PUSH2 0x1020 DUP3 ADD MSTORE PUSH32 0x2E72616E646F6D5F64656328292C773D652E72616E646F6D5F696E7428333030 PUSH2 0x1040 DUP3 ADD MSTORE PUSH32 0x2C383030292C563D652E72616E646F6D5F63686F696365285B2D34352C34355D PUSH2 0x1060 DUP3 ADD MSTORE PUSH32 0x292C643D652E72616E646F6D5F63686F696365285B302C312C325D293B627265 PUSH2 0x1080 DUP3 ADD MSTORE PUSH32 0x616B3B636173652031323A693D31302C733D312C673D32302C443D31352C723D PUSH2 0x10A0 DUP3 ADD MSTORE PUSH32 0x2E312C243D2E3034352C6C3D652E72616E646F6D5F6E756D28322C34292C633D PUSH2 0x10C0 DUP3 ADD MSTORE PUSH32 0x652E72616E646F6D5F696E74283830302C31313030292C6D3D632F6C2C683D6D PUSH2 0x10E0 DUP3 ADD MSTORE PUSH32 0x2F31302C753D2E30362C773D652E72616E646F6D5F696E74283130302C383030 PUSH2 0x1100 DUP3 ADD MSTORE PUSH32 0x293B627265616B3B636173652031333A693D332C733D312C673D312C443D652E PUSH2 0x1120 DUP3 ADD MSTORE PUSH32 0x72616E646F6D5F696E742835302C313030292C723D2E30312C243D652E72616E PUSH2 0x1140 DUP3 ADD MSTORE PUSH32 0x646F6D5F6E756D282E30362C2E3039292C6C3D652E72616E646F6D5F6E756D28 PUSH2 0x1160 DUP3 ADD MSTORE PUSH32 0x322C34292C633D652E72616E646F6D5F696E74283135302C323030292C6D3D63 PUSH2 0x1180 DUP3 ADD MSTORE PUSH32 0x2F6C2C683D31302A6D2C753D2E30362C773D652E72616E646F6D5F696E742833 PUSH2 0x11A0 DUP3 ADD MSTORE PUSH32 0x30302C383030292C563D652E72616E646F6D5F63686F696365285B2D34352C34 PUSH2 0x11C0 DUP3 ADD MSTORE PUSH32 0x355D293B627265616B3B636173652031343A693D332C733D312C673D342C443D PUSH2 0x11E0 DUP3 ADD MSTORE PUSH32 0x34302C723D2E312C243D2E30332C6C3D332C633D652E72616E646F6D5F696E74 PUSH2 0x1200 DUP3 ADD MSTORE PUSH32 0x283730302C31313030292C6D3D632F6C2C683D6D2F652E72616E646F6D5F696E PUSH2 0x1220 DUP3 ADD MSTORE PUSH32 0x7428322C35292C753D2E30362C773D652E72616E646F6D5F696E74283130302C PUSH2 0x1240 DUP3 ADD MSTORE PUSH32 0x383030292C563D652E72616E646F6D5F63686F696365285B2D33302C33305D29 PUSH2 0x1260 DUP3 ADD MSTORE PUSH32 0x2C412A3D332C782A3D332C573D66756E6374696F6E2865297B72657475726E20 PUSH2 0x1280 DUP3 ADD MSTORE PUSH32 0x636F6C6F725B655D7D3B627265616B3B636173652031353A693D332C733D352C PUSH2 0x12A0 DUP3 ADD MSTORE PUSH32 0x673D332C443D33302C723D2E3032352C243D2E30332C6C3D652E72616E646F6D PUSH2 0x12C0 DUP3 ADD MSTORE PUSH32 0x5F6E756D28322C34292C633D652E72616E646F6D5F696E74283830302C313230 PUSH2 0x12E0 DUP3 ADD MSTORE PUSH32 0x30292C6D3D632F6C2C683D6D2F35302C753D2E30362C773D652E72616E646F6D PUSH2 0x1300 DUP3 ADD MSTORE PUSH32 0x5F696E74283130302C383030292C563D652E72616E646F6D5F63686F69636528 PUSH2 0x1320 DUP3 ADD MSTORE PUSH32 0x5B2D34352C34355D292C623D21303B627265616B3B636173652031363A693D32 PUSH2 0x1340 DUP3 ADD MSTORE PUSH32 0x2C733D312C673D332C443D31302C723D2E3031352C243D2E332C6C3D652E7261 PUSH2 0x1360 DUP3 ADD MSTORE PUSH32 0x6E646F6D5F6E756D28322C34292C633D652E72616E646F6D5F696E7428383030 PUSH2 0x1380 DUP3 ADD MSTORE PUSH32 0x2C31323030292C6D3D632F6C2C683D6D2F3130302C753D2E30362C773D652E72 PUSH2 0x13A0 DUP3 ADD MSTORE PUSH32 0x616E646F6D5F696E74283130302C383030292C563D652E72616E646F6D5F6368 PUSH2 0x13C0 DUP3 ADD MSTORE PUSH32 0x6F696365285B2D34352C34355D292C782A3D332C412A3D332C643D652E72616E PUSH2 0x13E0 DUP3 ADD MSTORE PUSH32 0x646F6D5F63686F696365285B312C322C335D293B627265616B3B636173652031 PUSH2 0x1400 DUP3 ADD MSTORE PUSH32 0x373A693D352C733D322C673D332C443D31302C723D2E3038352C243D2E352C6C PUSH2 0x1420 DUP3 ADD MSTORE PUSH32 0x3D652E72616E646F6D5F6E756D28322C34292C633D652E72616E646F6D5F696E PUSH2 0x1440 DUP3 ADD MSTORE PUSH32 0x74283830302C31323030292C6D3D632F6C2C683D6D2F3330302C753D2E30362C PUSH2 0x1460 DUP3 ADD MSTORE PUSH32 0x773D652E72616E646F6D5F696E74283130302C383030292C563D652E72616E64 PUSH2 0x1480 DUP3 ADD MSTORE PUSH32 0x6F6D5F63686F696365285B2D34352C34355D292C782A3D332C412A3D332C643D PUSH2 0x14A0 DUP3 ADD MSTORE PUSH32 0x652E72616E646F6D5F63686F696365285B312C322C335D293B627265616B3B63 PUSH2 0x14C0 DUP3 ADD MSTORE PUSH32 0x6173652031383A693D312C733D312C673D352C443D3130302C723D2E312C243D PUSH2 0x14E0 DUP3 ADD MSTORE PUSH32 0x2E312C6C3D332C633D652E72616E646F6D5F696E74283830302C31313030292C PUSH2 0x1500 DUP3 ADD MSTORE PUSH32 0x6D3D632F6C2C683D6D2F322C753D2E30362C773D652E72616E646F6D5F696E74 PUSH2 0x1520 DUP3 ADD MSTORE PUSH32 0x283130302C383030292C563D652E72616E646F6D5F63686F696365285B2D3435 PUSH2 0x1540 DUP3 ADD MSTORE PUSH32 0x2C34355D293B627265616B3B636173652031393A693D31302C733D312C673D36 PUSH2 0x1560 DUP3 ADD MSTORE PUSH32 0x2C443D31302C723D2E3032382C243D2E30322C6C3D342C633D652E72616E646F PUSH2 0x1580 DUP3 ADD MSTORE PUSH32 0x6D5F696E74283830302C31313030292C6D3D632F6C2C683D6D2F332C753D2E30 PUSH2 0x15A0 DUP3 ADD MSTORE PUSH32 0x362C773D652E72616E646F6D5F696E74283130302C383030292C563D652E7261 PUSH2 0x15C0 DUP3 ADD MSTORE PUSH32 0x6E646F6D5F63686F696365285B2D34352C34355D293B627265616B3B63617365 PUSH2 0x15E0 DUP3 ADD MSTORE PUSH32 0x2032303A693D31352C733D31302C673D362C443D3130302C723D2E30332C243D PUSH2 0x1600 DUP3 ADD MSTORE PUSH32 0x2E30322C6C3D652E72616E646F6D5F6E756D28322C34292C633D652E72616E64 PUSH2 0x1620 DUP3 ADD MSTORE PUSH32 0x6F6D5F696E74283830302C31313030292C6D3D632F6C2C683D6D2F31302C753D PUSH2 0x1640 DUP3 ADD MSTORE PUSH32 0x2E30362C773D652E72616E646F6D5F696E74283130302C383030292C563D652E PUSH2 0x1660 DUP3 ADD MSTORE PUSH32 0x72616E646F6D5F63686F696365285B2D34352C34355D293B627265616B3B6361 PUSH2 0x1680 DUP3 ADD MSTORE PUSH32 0x73652032313A693D382C733D312C673D31302C443D35302C723D2E3031352C24 PUSH2 0x16A0 DUP3 ADD MSTORE PUSH32 0x3D2E30322C6C3D332C633D652E72616E646F6D5F696E74283830302C31313030 PUSH2 0x16C0 DUP3 ADD MSTORE PUSH32 0x292C6D3D632F6C2C683D6D2F332C753D2E30362C773D652E72616E646F6D5F69 PUSH2 0x16E0 DUP3 ADD MSTORE PUSH32 0x6E74283130302C383030292C563D652E72616E646F6D5F63686F696365285B2D PUSH2 0x1700 DUP3 ADD MSTORE PUSH32 0x34352C34355D293B627265616B3B636173652032323A693D332C733D31352C42 PUSH2 0x1720 DUP3 ADD MSTORE PUSH32 0x3D312C673D362C443D31302C723D2E30322C243D2E32352C543D2E30312C6C3D PUSH2 0x1740 DUP3 ADD MSTORE PUSH32 0x342C633D652E72616E646F6D5F696E74283530302C31313030292C6D3D632F6C PUSH2 0x1760 DUP3 ADD MSTORE PUSH32 0x2C683D6D2F38302C5F3D6D2F33302C753D2E30362C773D652E72616E646F6D5F PUSH2 0x1780 DUP3 ADD MSTORE PUSH32 0x696E74283130302C383030292C563D652E72616E646F6D5F63686F696365285B PUSH2 0x17A0 DUP3 ADD MSTORE PUSH32 0x2D34352C34355D292C4F3D21303B627265616B3B636173652032333A693D352C PUSH2 0x17C0 DUP3 ADD MSTORE PUSH32 0x733D312C423D31302C673D33302C443D3130302C723D2E30342C243D2E312C54 PUSH2 0x17E0 DUP3 ADD MSTORE PUSH32 0x3D2E30312C6C3D332C633D652E72616E646F6D5F696E74283530302C31313030 PUSH2 0x1800 DUP3 ADD MSTORE PUSH32 0x292C6D3D632F6C2C683D332A6D2C5F3D6D2F35302C753D2E30362C773D652E72 PUSH2 0x1820 DUP3 ADD MSTORE PUSH32 0x616E646F6D5F696E74283130302C383030292C563D652E72616E646F6D5F6368 PUSH2 0x1840 DUP3 ADD MSTORE PUSH32 0x6F696365285B2D34352C34355D292C4F3D21303B627265616B3B636173652032 PUSH2 0x1860 DUP3 ADD MSTORE PUSH32 0x343A693D312C733D352C423D31302C673D31302C443D31302C723D2E30312C24 PUSH2 0x1880 DUP3 ADD MSTORE PUSH32 0x3D2E30392C543D2E30392C6C3D342C633D652E72616E646F6D5F696E74283830 PUSH2 0x18A0 DUP3 ADD MSTORE PUSH32 0x302C31313030292C6D3D632F6C2C683D6D2F3130302C5F3D332A6D2C753D2E30 PUSH2 0x18C0 DUP3 ADD MSTORE PUSH32 0x362C773D652E72616E646F6D5F696E74283130302C383030292C563D652E7261 PUSH2 0x18E0 DUP3 ADD MSTORE PUSH32 0x6E646F6D5F63686F696365285B2D34352C34355D292C4F3D21302C643D652E72 PUSH2 0x1900 DUP3 ADD MSTORE PUSH32 0x616E646F6D5F63686F696365285B322C305D293B627265616B3B636173652032 PUSH2 0x1920 DUP3 ADD MSTORE PUSH32 0x353A693D332C733D332C423D31302C673D31302C443D33302C723D2E312C243D PUSH2 0x1940 DUP3 ADD MSTORE PUSH32 0x2E30312C543D2E312C6C3D352C633D652E72616E646F6D5F696E74283530302C PUSH2 0x1960 DUP3 ADD MSTORE PUSH32 0x31313030292C6D3D632F6C2C683D6D2C5F3D6D2F31302C753D2E30362C773D65 PUSH2 0x1980 DUP3 ADD MSTORE PUSH32 0x2E72616E646F6D5F696E74283130302C383030292C563D652E72616E646F6D5F PUSH2 0x19A0 DUP3 ADD MSTORE PUSH32 0x63686F696365285B2D34352C34355D292C4F3D21303B627265616B3B63617365 PUSH2 0x19C0 DUP3 ADD MSTORE PUSH32 0x2032363A693D332C733D332C423D362C673D31302C443D33302C723D2E312C24 PUSH2 0x19E0 DUP3 ADD MSTORE PUSH32 0x3D2E30312C543D2E312C6C3D352C633D652E72616E646F6D5F696E7428353030 PUSH2 0x1A00 DUP3 ADD MSTORE PUSH32 0x2C31313030292C6D3D632F6C2C683D6D2C5F3D6D2F35302C753D2E30362C773D PUSH2 0x1A20 DUP3 ADD MSTORE PUSH32 0x652E72616E646F6D5F696E74283130302C383030292C563D652E72616E646F6D PUSH2 0x1A40 DUP3 ADD MSTORE PUSH32 0x5F63686F696365285B2D34352C34355D292C4F3D21307D562B3D343D3D3D643F PUSH2 0x1A60 DUP3 ADD MSTORE PUSH32 0x652E72616E646F6D5F63686F696365285B2D34352C34355D293A302C243D247C PUSH2 0x1A80 DUP3 ADD MSTORE PUSH32 0x7C302C733D737C7C302C713D21312C503D21302C523D652E72616E646F6D5F63 PUSH2 0x1AA0 DUP3 ADD MSTORE PUSH32 0x686F696365285B2E3939342C2E3939352C2E3939362C2E3939372C2E3939385D PUSH2 0x1AC0 DUP3 ADD MSTORE PUSH32 0x292C4E3D312D652E72616E646F6D5F696E7428312C32292A522B312C4C3D2D35 PUSH2 0x1AE0 DUP3 ADD MSTORE PUSH32 0x302C533D3235302C433D2D3130302C463D3135302C763D28462D43292F342C66 PUSH2 0x1B00 DUP3 ADD MSTORE PUSH32 0x3D652E72616E646F6D5F696E7428432C46292C703D652E72616E646F6D5F696E PUSH2 0x1B20 DUP3 ADD MSTORE PUSH32 0x7428302C7A292C793D652E72616E646F6D5F696E7428312C316533292C4B3D27 PUSH2 0x1B40 DUP3 ADD MSTORE PUSH32 0x272C4D3D28462D43292F322C4C3D652E72616E646F6D5F696E74282D31322E35 PUSH2 0x1B60 DUP3 ADD MSTORE PUSH32 0x2C31322E35292C636F6E736F6C652E6C6F6728276261736546726571272C722C PUSH2 0x1B80 DUP3 ADD MSTORE PUSH32 0x2764656E73697479272C672C277374726F6B655769647468272C442C27736361 PUSH2 0x1BA0 DUP3 ADD MSTORE PUSH32 0x6C65272C632C277363616C6532272C6D2C277363616C6534272C5F2C2764656E PUSH2 0x1BC0 DUP3 ADD MSTORE PUSH32 0x73697479496E6372656D656E74272C752C277363616C6520646976696465272C PUSH2 0x1BE0 DUP3 ADD MSTORE PUSH32 0x6C2C276E756D4F637461766573272C692C276E756D4F63746176657332272C73 PUSH2 0x1C00 DUP3 ADD MSTORE PUSH32 0x2C276D6F6F64272C6D6F6F642C2774797065272C642C2765726F73696F6E272C PUSH2 0x1C20 DUP3 ADD MSTORE PUSH32 0x772C276973566572746963616C272C622C27636F6C6F72272C636F6C6F725B30 PUSH2 0x1C40 DUP3 ADD MSTORE PUSH32 0x5D2C27636F6C6F724E616D65272C58297D28292C6177616974206E6577205072 PUSH2 0x1C60 DUP3 ADD MSTORE PUSH32 0x6F6D6973652828653D3E73657454696D656F757428652C3230302929292C7265 PUSH2 0x1C80 DUP3 ADD MSTORE PUSH32 0x7175657374416E696D6174696F6E4672616D65282866756E6374696F6E28297B PUSH2 0x1CA0 DUP3 ADD MSTORE PUSH32 0x7570646174654C6F6164657228274C6F6164696E672066696C7465727327297D PUSH2 0x1CC0 DUP3 ADD MSTORE PUSH32 0x29292C6177616974206E65772050726F6D6973652828653D3E73657454696D65 PUSH2 0x1CE0 DUP3 ADD MSTORE PUSH32 0x6F757428652C3230302929292C4B2B3D27203C646566733E272C4B2B3D273C66 PUSH2 0x1D00 DUP3 ADD MSTORE PUSH32 0x696C7465722069643D276630273E272C4B2B3D603C66654D6F7270686F6C6F67 PUSH2 0x1D20 DUP3 ADD MSTORE PUSH32 0x79206F70657261746F723D2765726F646527207261646975733D27247B777D27 PUSH2 0x1D40 DUP3 ADD MSTORE PUSH32 0x202F3E602C4B2B3D273C2F66696C7465723E272C4B2B3D600A2020202020203C PUSH2 0x1D60 DUP3 ADD MSTORE PUSH32 0x66696C7465722069643D276631273E0A20202020202020203C66655475726275 PUSH2 0x1D80 DUP3 ADD MSTORE PUSH32 0x6C656E636520747970653D276672616374616C4E6F697365270A202020202020 PUSH2 0x1DA0 DUP3 ADD MSTORE PUSH32 0x20202020202020202020202020202020626173654672657175656E63793D2724 PUSH2 0x1DC0 DUP3 ADD MSTORE PUSH32 0x7B727D27206E756D4F6374617665733D27247B697D270A202020202020202020 PUSH2 0x1DE0 DUP3 ADD MSTORE PUSH32 0x20202020202020202020202020736565643D27247B797D270A20202020202020 PUSH2 0x1E00 DUP3 ADD MSTORE PUSH32 0x202020202020202020202020202020726573756C743D2774757262756C656E63 PUSH2 0x1E20 DUP3 ADD MSTORE PUSH32 0x6527202F3E0A20202020202020203C666554757262756C656E63652074797065 PUSH2 0x1E40 DUP3 ADD MSTORE PUSH32 0x3D276672616374616C4E6F697365270A20202020202020202020202020202020 PUSH2 0x1E60 DUP3 ADD MSTORE PUSH32 0x202020202020626173654672657175656E63793D27247B247D27206E756D4F63 PUSH2 0x1E80 DUP3 ADD MSTORE PUSH32 0x74617665733D27247B737D270A20202020202020202020202020202020202020 PUSH2 0x1EA0 DUP3 ADD MSTORE PUSH32 0x202020736565643D27247B792B317D270A202020202020202020202020202020 PUSH2 0x1EC0 DUP3 ADD MSTORE PUSH32 0x20202020202020726573756C743D2774757262756C656E63653227202F3E0A20 PUSH2 0x1EE0 DUP3 ADD MSTORE PUSH32 0x202020202020203C6665446973706C6163656D656E744D617020696E323D2774 PUSH2 0x1F00 DUP3 ADD MSTORE PUSH32 0x757262756C656E6365270A202020202020202020202020202020202020202020 PUSH2 0x1F20 DUP3 ADD MSTORE PUSH32 0x202020202020696E3D27536F757263654772617068696327207363616C653D27 PUSH2 0x1F40 DUP3 ADD MSTORE PUSH32 0x247B6D7D270A2020202020202020202020202020202020202020202020202020 PUSH2 0x1F60 DUP3 ADD MSTORE PUSH32 0x20726573756C743D27646973706C6163656D656E74270A202020202020202020 PUSH2 0x1F80 DUP3 ADD MSTORE PUSH32 0x202020202020202020202020202020202020784368616E6E656C53656C656374 PUSH2 0x1FA0 DUP3 ADD MSTORE PUSH32 0x6F723D2741270A20202020202020202020202020202020202020202020202020 PUSH2 0x1FC0 DUP3 ADD MSTORE PUSH32 0x2020794368616E6E656C53656C6563746F723D274127202F3E0A202020202020 PUSH2 0x1FE0 DUP3 ADD MSTORE PUSH32 0x20203C6665446973706C6163656D656E744D617020696E323D2774757262756C PUSH2 0x2000 DUP3 ADD MSTORE PUSH32 0x656E6365270A2020202020202020202020202020202020202020202020202020 PUSH2 0x2020 DUP3 ADD MSTORE PUSH32 0x20696E3D27536F757263654772617068696327207363616C653D27247B6D7D27 PUSH2 0x2040 DUP3 ADD MSTORE PUSH32 0xA20202020202020202020202020202020202020202020202020202072657375 PUSH2 0x2060 DUP3 ADD MSTORE PUSH32 0x6C743D27646973706C6163656D656E7442270A20202020202020202020202020 PUSH2 0x2080 DUP3 ADD MSTORE PUSH32 0x2020202020202020202020202020784368616E6E656C53656C6563746F723D27 PUSH2 0x20A0 DUP3 ADD MSTORE PUSH32 0x41270A2020202020202020202020202020202020202020202020202020207943 PUSH2 0x20C0 DUP3 ADD MSTORE PUSH32 0x68616E6E656C53656C6563746F723D274127202F3E602C4B2B3D600A20202020 PUSH2 0x20E0 DUP3 ADD MSTORE PUSH32 0x20202020202020203C6665446973706C6163656D656E744D617020696E323D27 PUSH2 0x2100 DUP3 ADD MSTORE PUSH32 0x74757262756C656E636532270A20202020202020202020202020202020202020 PUSH2 0x2120 DUP3 ADD MSTORE PUSH32 0x2020202020202020696E3D27646973706C6163656D656E7427207363616C653D PUSH2 0x2140 DUP3 ADD MSTORE PUSH32 0x27247B687D270A20202020202020202020202020202020202020202020202020 PUSH2 0x2160 DUP3 ADD MSTORE PUSH32 0x2020726573756C743D27646973706C6163656D656E7432270A20202020202020 PUSH2 0x2180 DUP3 ADD MSTORE PUSH32 0x2020202020202020202020202020202020202020784368616E6E656C53656C65 PUSH2 0x21A0 DUP3 ADD MSTORE PUSH32 0x63746F723D2741270A2020202020202020202020202020202020202020202020 PUSH2 0x21C0 DUP3 ADD MSTORE PUSH32 0x20202020794368616E6E656C53656C6563746F723D274127202F3E0A20202020 PUSH2 0x21E0 DUP3 ADD MSTORE PUSH32 0x2020202020202020202020203C6665446973706C6163656D656E744D61702069 PUSH2 0x2200 DUP3 ADD MSTORE PUSH32 0x6E323D2774757262756C656E636532270A202020202020202020202020202020 PUSH2 0x2220 DUP3 ADD MSTORE PUSH32 0x202020202020202020202020696E3D27646973706C6163656D656E7442272073 PUSH2 0x2240 DUP3 ADD MSTORE PUSH32 0x63616C653D27247B687D270A2020202020202020202020202020202020202020 PUSH2 0x2260 DUP3 ADD MSTORE PUSH32 0x20202020202020726573756C743D27646973706C6163656D656E744232270A20 PUSH2 0x2280 DUP3 ADD MSTORE PUSH32 0x2020202020202020202020202020202020202020202020202020784368616E6E PUSH2 0x22A0 DUP3 ADD MSTORE PUSH32 0x656C53656C6563746F723D2741270A2020202020202020202020202020202020 PUSH2 0x22C0 DUP3 ADD MSTORE PUSH32 0x20202020202020202020794368616E6E656C53656C6563746F723D274127202F PUSH2 0x22E0 DUP3 ADD MSTORE PUSH32 0x3E0A2020202020202020202020202020202020202020202020202020203B602C PUSH2 0x2300 DUP3 ADD MSTORE PUSH32 0x4F2626284B2B3D600A2020202020202020202020203C666554757262756C656E PUSH2 0x2320 DUP3 ADD MSTORE PUSH32 0x636520747970653D276672616374616C4E6F697365270A202020202020202020 PUSH2 0x2340 DUP3 ADD MSTORE PUSH32 0x20202020202020202020202020626173654672657175656E63793D27247B547D PUSH2 0x2360 DUP3 ADD MSTORE PUSH32 0x27206E756D4F6374617665733D27247B427D270A202020202020202020202020 PUSH2 0x2380 DUP3 ADD MSTORE PUSH32 0x20202020202020202020736565643D27247B797D270A20202020202020202020 PUSH2 0x23A0 DUP3 ADD MSTORE PUSH32 0x202020202020202020202020726573756C743D2774757262756C656E63653327 PUSH2 0x23C0 DUP3 ADD MSTORE PUSH32 0x202F3E0A2020202020202020202020203C6665446973706C6163656D656E744D PUSH2 0x23E0 DUP3 ADD MSTORE PUSH32 0x617020696E323D2774757262756C656E636533270A2020202020202020202020 PUSH2 0x2400 DUP3 ADD MSTORE PUSH32 0x20202020202020202020202020202020696E3D27646973706C6163656D656E74 PUSH2 0x2420 DUP3 ADD MSTORE PUSH32 0x27207363616C653D27247B5F7D270A2020202020202020202020202020202020 PUSH2 0x2440 DUP3 ADD MSTORE PUSH32 0x20202020202020202020726573756C743D27646973706C6163656D656E743327 PUSH2 0x2460 DUP3 ADD MSTORE PUSH32 0xA20202020202020202020202020202020202020202020202020202078436861 PUSH2 0x2480 DUP3 ADD MSTORE PUSH32 0x6E6E656C53656C6563746F723D2742270A202020202020202020202020202020 PUSH2 0x24A0 DUP3 ADD MSTORE PUSH32 0x202020202020202020202020794368616E6E656C53656C6563746F723D274127 PUSH2 0x24C0 DUP3 ADD MSTORE PUSH32 0x202F3E0A2020202020202020202020202020202020202020202020202020203B PUSH2 0x24E0 DUP3 ADD MSTORE PUSH32 0x60292C4B2B3D270A2020202020203C6665426C656E6420696E3D27646973706C PUSH2 0x2500 DUP3 ADD MSTORE PUSH32 0x6163656D656E74322720696E323D27646973706C6163656D656E743227207265 PUSH2 0x2520 DUP3 ADD MSTORE PUSH32 0x73756C743D276275726E27206D6F64653D276E6F726D616C272F3E0A20202020 PUSH2 0x2540 DUP3 ADD MSTORE PUSH32 0x20272C4B2B3D270A3C2F66696C7465723E0A202020203C2F646566733E0A2020 PUSH2 0x2560 DUP3 ADD MSTORE PUSH32 0x272C4B2B3D600A202020200A20203C726563742066696C6C3D2723247B636F6C PUSH2 0x2580 DUP3 ADD MSTORE PUSH32 0x6F725B305D7D2720783D27302720793D2730272077696474683D273130302720 PUSH2 0x25A0 DUP3 ADD MSTORE PUSH32 0x6865696768743D2731303027202F3E0A602C472E696E6E657248544D4C2B3D4B PUSH2 0x25C0 DUP3 ADD MSTORE PUSH32 0x2C72657175657374416E696D6174696F6E4672616D65282866756E6374696F6E PUSH2 0x25E0 DUP3 ADD MSTORE PUSH32 0x28297B72656D6F7665416C6C4C6F616465727328292C6164644C6F6164657228 PUSH2 0x2600 DUP3 ADD MSTORE PUSH32 0x274C6F6164696E672068746D6C27297D29292C6177616974206E65772050726F PUSH2 0x2620 DUP3 ADD MSTORE PUSH32 0x6D6973652828653D3E73657454696D656F757428652C3230302929292C4B3D27 PUSH2 0x2640 DUP3 ADD MSTORE PUSH32 0x272C64297B6361736520323A623F286A3D607472616E736C6174652835302C35 PUSH2 0x2660 DUP3 ADD MSTORE PUSH32 0x302920726F7461746528247B567D29207363616C6528247B787D20247B417D29 PUSH2 0x2680 DUP3 ADD MSTORE PUSH32 0x207472616E736C617465282D35302C2D353029602C483D66756E6374696F6E28 PUSH2 0x26A0 DUP3 ADD MSTORE PUSH32 0x652C6E2C742C6F2C61297B72657475726E603C6C696E65207472616E73666F72 PUSH2 0x26C0 DUP3 ADD MSTORE PUSH32 0x6D3D27247B6A7D272066696C7465723D2775726C2823247B657D292720737472 PUSH2 0x26E0 DUP3 ADD MSTORE PUSH32 0x6F6B652D6F7061636974793D272E39352720207374726F6B653D2723247B6E7D PUSH2 0x2700 DUP3 ADD MSTORE PUSH32 0x27207374796C653D277374726F6B652D77696474683A247B617D272079313D27 PUSH2 0x2720 DUP3 ADD MSTORE PUSH32 0x247B747D272078313D27247B6F7D272078323D27247B31305E747D272079323D PUSH2 0x2740 DUP3 ADD MSTORE PUSH32 0x27247B6F7D27202F3E607D293A286A3D607472616E736C6174652835302C3530 PUSH2 0x2760 DUP3 ADD MSTORE PUSH32 0x2920726F7461746528247B567D29207363616C6528247B787D20247B417D2920 PUSH2 0x2780 DUP3 ADD MSTORE PUSH32 0x7472616E736C617465282D35302C2D353029602C483D66756E6374696F6E2865 PUSH2 0x27A0 DUP3 ADD MSTORE PUSH32 0x2C6E2C742C6F2C61297B72657475726E603C6C696E65207472616E73666F726D PUSH2 0x27C0 DUP3 ADD MSTORE PUSH32 0x3D27247B6A7D272066696C7465723D2775726C2823247B657D2927207374726F PUSH2 0x27E0 DUP3 ADD MSTORE PUSH32 0x6B652D6F7061636974793D272E39352720207374726F6B653D2723247B6E7D27 PUSH2 0x2800 DUP3 ADD MSTORE PUSH32 0x207374796C653D277374726F6B652D77696474683A247B617D272078313D2724 PUSH2 0x2820 DUP3 ADD MSTORE PUSH32 0x7B747D272079313D27247B6F7D272079323D27247B31305E747D272078323D27 PUSH2 0x2840 DUP3 ADD MSTORE PUSH32 0x247B6F7D27202F3E607D293B627265616B3B6361736520333A623F286A3D6074 PUSH2 0x2860 DUP3 ADD MSTORE PUSH32 0x72616E736C6174652835302C35302920726F7461746528247B567D2920736361 PUSH2 0x2880 DUP3 ADD MSTORE PUSH32 0x6C6528247B787D20247B417D29207472616E736C617465282D35302C2D353029 PUSH2 0x28A0 DUP3 ADD MSTORE PUSH32 0x602C483D66756E6374696F6E28652C6E2C742C6F2C61297B72657475726E603C PUSH2 0x28C0 DUP3 ADD MSTORE PUSH32 0x6C696E65207472616E73666F726D3D27247B6A7D272066696C7465723D277572 PUSH2 0x28E0 DUP3 ADD MSTORE PUSH32 0x6C2823247B657D2927207374726F6B652D6F7061636974793D272E3935272073 PUSH2 0x2900 DUP3 ADD MSTORE PUSH32 0x74726F6B653D2723247B6E7D27207374796C653D277374726F6B652D77696474 PUSH2 0x2920 DUP3 ADD MSTORE PUSH32 0x683A247B617D272079313D27247B747D272078313D27247B6F7D272078323D27 PUSH2 0x2940 DUP3 ADD MSTORE PUSH32 0x247B322A747D272079323D27247B322A6F7D27202F3E607D293A286A3D607472 PUSH2 0x2960 DUP3 ADD MSTORE PUSH32 0x616E736C6174652835302C35302920726F7461746528247B567D29207363616C PUSH2 0x2980 DUP3 ADD MSTORE PUSH32 0x6528247B787D20247B417D29207472616E736C617465282D35302C2D35302960 PUSH2 0x29A0 DUP3 ADD MSTORE PUSH32 0x2C483D66756E6374696F6E28652C6E2C742C6F2C61297B72657475726E603C6C PUSH2 0x29C0 DUP3 ADD MSTORE PUSH32 0x696E65207472616E73666F726D3D27247B6A7D272066696C7465723D2775726C PUSH2 0x29E0 DUP3 ADD MSTORE PUSH32 0x2823247B657D29277374726F6B652D6F7061636974793D272E39352720207374 PUSH2 0x2A00 DUP3 ADD MSTORE PUSH32 0x726F6B653D2723247B6E7D27207374796C653D277374726F6B652D7769647468 PUSH2 0x2A20 DUP3 ADD MSTORE PUSH32 0x3A247B617D272078313D27247B747D272079313D27247B6F7D272079323D2724 PUSH2 0x2A40 DUP3 ADD MSTORE PUSH32 0x7B322A747D272078323D27247B322A6F7D27202F3E607D293B627265616B3B63 PUSH2 0x2A60 DUP3 ADD MSTORE PUSH32 0x61736520343A432D3D3130302C623F286A3D607472616E736C6174652835302C PUSH2 0x2A80 DUP3 ADD MSTORE PUSH32 0x35302920726F7461746528247B562B652E72616E646F6D5F63686F696365285B PUSH2 0x2AA0 DUP3 ADD MSTORE PUSH32 0x2D34352C34355D297D29207363616C6528247B787D20247B417D29207472616E PUSH2 0x2AC0 DUP3 ADD MSTORE PUSH32 0x736C617465282D35302C2D353029602C483D66756E6374696F6E28652C6E2C74 PUSH2 0x2AE0 DUP3 ADD MSTORE PUSH32 0x2C6F2C61297B72657475726E603C6C696E65207472616E73666F726D3D27247B PUSH2 0x2B00 DUP3 ADD MSTORE PUSH32 0x6A7D27202066696C7465723D2775726C2823247B657D2927207374726F6B652D PUSH2 0x2B20 DUP3 ADD MSTORE PUSH32 0x6F7061636974793D272E39352720207374726F6B653D2723247B6E7D27207374 PUSH2 0x2B40 DUP3 ADD MSTORE PUSH32 0x796C653D277374726F6B652D77696474683A247B617D272079313D27247B747D PUSH2 0x2B60 DUP3 ADD MSTORE PUSH32 0x272078313D27247B6F7D272078323D27247B742B3130307D272079323D27247B PUSH2 0x2B80 DUP3 ADD MSTORE PUSH32 0x6F7D27202F3E607D293A286A3D607472616E736C6174652835302C3530292072 PUSH2 0x2BA0 DUP3 ADD MSTORE PUSH32 0x6F7461746528247B562B652E72616E646F6D5F63686F696365285B2D34352C34 PUSH2 0x2BC0 DUP3 ADD MSTORE PUSH32 0x355D297D29207363616C6528247B787D20247B417D29207472616E736C617465 PUSH2 0x2BE0 DUP3 ADD MSTORE PUSH32 0x282D35302C2D353029602C483D66756E6374696F6E28652C6E2C742C6F2C6129 PUSH2 0x2C00 DUP3 ADD MSTORE PUSH32 0x7B72657475726E603C6C696E65207472616E73666F726D3D27247B6A7D272020 PUSH2 0x2C20 DUP3 ADD MSTORE PUSH32 0x2066696C7465723D2775726C2823247B657D2927207374726F6B652D6F706163 PUSH2 0x2C40 DUP3 ADD MSTORE PUSH32 0x6974793D272E39352720207374726F6B653D2723247B6E7D27207374796C653D PUSH2 0x2C60 DUP3 ADD MSTORE PUSH32 0x277374726F6B652D77696474683A247B617D272078313D27247B747D27207931 PUSH2 0x2C80 DUP3 ADD MSTORE PUSH32 0x3D27247B6F7D272079323D27247B742B3130307D272078323D27247B6F7D2720 PUSH2 0x2CA0 DUP3 ADD MSTORE PUSH32 0x2F3E607D293B627265616B3B64656661756C743A623F286A3D607472616E736C PUSH2 0x2CC0 DUP3 ADD MSTORE PUSH32 0x6174652835302C35302920726F7461746528247B567D29207363616C6528247B PUSH2 0x2CE0 DUP3 ADD MSTORE PUSH32 0x787D20247B417D29207472616E736C617465282D35302C2D353029602C483D66 PUSH2 0x2D00 DUP3 ADD MSTORE PUSH32 0x756E6374696F6E28652C6E2C742C6F2C61297B72657475726E603C6C696E6520 PUSH2 0x2D20 DUP3 ADD MSTORE PUSH32 0x7472616E73666F726D3D27247B6A7D27202066696C7465723D2775726C282324 PUSH2 0x2D40 DUP3 ADD MSTORE PUSH32 0x7B657D29277374726F6B652D6F7061636974793D272E39352720207374726F6B PUSH2 0x2D60 DUP3 ADD MSTORE PUSH32 0x653D2723247B6E7D27207374796C653D277374726F6B652D77696474683A247B PUSH2 0x2D80 DUP3 ADD MSTORE PUSH32 0x617D272079313D27247B747D272078313D27247B6F7D272078323D27247B747D PUSH2 0x2DA0 DUP3 ADD MSTORE PUSH32 0x272079323D27247B6F7D27202F3E607D293A286A3D607472616E736C61746528 PUSH2 0x2DC0 DUP3 ADD MSTORE PUSH32 0x35302C35302920726F7461746528247B567D29207363616C6528247B787D2024 PUSH2 0x2DE0 DUP3 ADD MSTORE PUSH32 0x7B417D29207472616E736C617465282D35302C2D353029602C483D66756E6374 PUSH2 0x2E00 DUP3 ADD MSTORE PUSH32 0x696F6E28652C6E2C742C6F2C61297B72657475726E603C6C696E65207472616E PUSH2 0x2E20 DUP3 ADD MSTORE PUSH32 0x73666F726D3D27247B6A7D27202066696C7465723D2775726C2823247B657D29 PUSH2 0x2E40 DUP3 ADD MSTORE PUSH32 0x277374726F6B652D6F7061636974793D272E39352720207374726F6B653D2723 PUSH2 0x2E60 DUP3 ADD MSTORE PUSH32 0x247B6E7D27207374796C653D277374726F6B652D77696474683A247B617D2720 PUSH2 0x2E80 DUP3 ADD MSTORE PUSH32 0x78313D27247B747D272079313D27247B6F7D272079323D27247B747D27207832 PUSH2 0x2EA0 DUP3 ADD MSTORE PUSH32 0x3D27247B6F7D27202F3E607D297D652E72616E646F6D5F626F6F6C282E34293F PUSH2 0x2EC0 DUP3 ADD MSTORE PUSH32 0x553D66756E6374696F6E2865297B442A3D653C4D3F2D523A2D4E7D3A284C3D65 PUSH2 0x2EE0 DUP3 ADD MSTORE PUSH32 0x2E72616E646F6D5F696E742831302C7A2F332E35292C4E3D652E72616E646F6D PUSH2 0x2F00 DUP3 ADD MSTORE PUSH32 0x5F696E7428342C3132292C553D66756E6374696F6E2865297B442A3D527D292C PUSH2 0x2F20 DUP3 ADD MSTORE PUSH32 0x453D302C6B3D303B666F72286C6574206E3D4C3B6E3C3D533B6E2B3D67297B45 PUSH2 0x2F40 DUP3 ADD MSTORE PUSH32 0x2B2B2C453E3D636F6C6F722E6C656E677468262628453D30292C672B3D752C49 PUSH2 0x2F60 DUP3 ADD MSTORE PUSH32 0x3D572845293B666F72286C657420743D303B743C323B742B2B297B6C6574206F PUSH2 0x2F80 DUP3 ADD MSTORE PUSH32 0x3D6E2C613D6066247B747D603B666F72286C6574206E3D433B6E3C463B6E2B3D PUSH2 0x2FA0 DUP3 ADD MSTORE PUSH32 0x76296B2B2B2C55286E292C4B2B3D4828612C492C6E2C6F2C652E72616E646F6D PUSH2 0x2FC0 DUP3 ADD MSTORE PUSH32 0x5F6E756D28302C44292C636F6C6F725B4D6174682E61627328452D31295D297D PUSH2 0x2FE0 DUP3 ADD MSTORE PUSH32 0x7D4B2B3D603C726563742066696C6C3D2723247B636F6C6F725B305D7D272078 PUSH2 0x3000 DUP3 ADD MSTORE PUSH32 0x3D27302720793D27247B532B677D272077696474683D27313030272068656967 PUSH2 0x3020 DUP3 ADD MSTORE PUSH32 0x68743D2731303027202F3E602C72657175657374416E696D6174696F6E467261 PUSH2 0x3040 DUP3 ADD MSTORE PUSH32 0x6D65282866756E6374696F6E28297B7570646174654C6F61646572282752656E PUSH2 0x3060 DUP3 ADD MSTORE PUSH32 0x646572696E67205356472C20746869732063616E2074616B6520612066657720 PUSH2 0x3080 DUP3 ADD MSTORE PUSH32 0x7365636F6E647327297D29292C6177616974206E65772050726F6D6973652828 PUSH2 0x30A0 DUP3 ADD MSTORE PUSH32 0x653D3E73657454696D656F757428652C3230302929292C72657175657374416E PUSH2 0x30C0 DUP3 ADD MSTORE PUSH32 0x696D6174696F6E4672616D65282866756E6374696F6E28297B472E696E6E6572 PUSH2 0x30E0 DUP3 ADD MSTORE PUSH32 0x48544D4C2B3D4B7D29292C72657175657374416E696D6174696F6E4672616D65 PUSH2 0x3100 DUP3 ADD MSTORE PUSH32 0x282866756E6374696F6E28297B72656D6F7665416C6C4C6F616465727328297D PUSH2 0x3120 DUP3 ADD MSTORE PUSH32 0x29292C646F63756D656E742E6164644576656E744C697374656E657228276B65 PUSH2 0x3140 DUP3 ADD MSTORE PUSH32 0x79646F776E272C286173796E632066756E6374696F6E2865297B696628277327 PUSH2 0x3160 DUP3 ADD MSTORE PUSH32 0x3D3D3D652E6B65797C7C2753273D3D3D652E6B6579297B72657175657374416E PUSH2 0x3180 DUP3 ADD MSTORE PUSH32 0x696D6174696F6E4672616D65282866756E6374696F6E28297B6164644C6F6164 PUSH2 0x31A0 DUP3 ADD MSTORE PUSH32 0x65722827536176696E672053564727297D29292C6177616974206E6577205072 PUSH2 0x31C0 DUP3 ADD MSTORE PUSH32 0x6F6D6973652828653D3E73657454696D656F757428652C3230302929293B636F PUSH2 0x31E0 DUP3 ADD MSTORE PUSH32 0x6E737420653D646F63756D656E742E676574456C656D656E744279496428276D PUSH2 0x3200 DUP3 ADD MSTORE PUSH32 0x7953766727292C6E3D646F63756D656E742E637265617465456C656D656E7428 PUSH2 0x3220 DUP3 ADD MSTORE PUSH32 0x277374796C6527293B6E2E74657874436F6E74656E743D600A20202020737667 PUSH2 0x3240 DUP3 ADD MSTORE PUSH32 0x207B0A20202020202077696474683A2031303076773B0A202020202020686569 PUSH2 0x3260 DUP3 ADD MSTORE PUSH32 0x6768743A2031303076683B0A20202020202070616464696E673A2030766D696E PUSH2 0x3280 DUP3 ADD MSTORE PUSH32 0x3B0A202020202020626F782D736861646F773A202E35766D696E202E35766D69 PUSH2 0x32A0 DUP3 ADD MSTORE PUSH32 0x6E2031766D696E207267626128302C20302C20302C20302E35293B0A20202020 PUSH2 0x32C0 DUP3 ADD MSTORE PUSH32 0x2020626F782D73697A696E673A20626F726465722D626F783B0A202020207D0A PUSH2 0x32E0 DUP3 ADD MSTORE PUSH32 0x202020203C212D2D20496620796F752077616E7420746F20646973706C617920 PUSH2 0x3300 DUP3 ADD MSTORE PUSH32 0x746865205356472061732069742077617320696E207468652067656E65726174 PUSH2 0x3320 DUP3 ADD MSTORE PUSH32 0x6F722C206A7573742070757420697420696E746F20746865203C626F64793E20 PUSH2 0x3340 DUP3 ADD MSTORE PUSH32 0x6F6620616E2068746D6C207061676520616E6420616464207468697320737479 PUSH2 0x3360 DUP3 ADD MSTORE PUSH32 0x6C696E67202D2D3E0A20202020626F6479207B0A202020202020646973706C61 PUSH2 0x3380 DUP3 ADD MSTORE PUSH32 0x793A20666C65783B0A2020202020206A7573746966792D636F6E74656E743A20 PUSH2 0x33A0 DUP3 ADD MSTORE PUSH32 0x63656E7465723B0A202020202020616C69676E2D6974656D733A2063656E7465 PUSH2 0x33C0 DUP3 ADD MSTORE PUSH32 0x723B0A2020202020206261636B67726F756E642D636F6C6F723A2023247B636F PUSH2 0x33E0 DUP3 ADD MSTORE PUSH32 0x6C6F725B305D7D3B0A202020207D0A2020602C652E70726570656E64286E293B PUSH2 0x3400 DUP3 ADD MSTORE PUSH32 0x636F6E737420743D6E657720584D4C53657269616C697A65722C6F3D6E657720 PUSH2 0x3420 DUP3 ADD MSTORE PUSH32 0x426C6F62285B742E73657269616C697A65546F537472696E672865295D2C7B74 PUSH2 0x3440 DUP3 ADD MSTORE PUSH32 0x7970653A27696D6167652F7376672B786D6C277D292C613D55524C2E63726561 PUSH2 0x3460 DUP3 ADD MSTORE PUSH32 0x74654F626A65637455524C286F293B646F63756D656E742E7772697465286529 PUSH2 0x3480 DUP3 ADD MSTORE PUSH32 0x3B636F6E737420723D646F63756D656E742E637265617465456C656D656E7428 PUSH2 0x34A0 DUP3 ADD MSTORE PUSH32 0x276127293B722E687265663D612C722E646F776E6C6F61643D275F5F5F5F5F5F PUSH2 0x34C0 DUP3 ADD MSTORE PUSH32 0x5F5F5F2E737667272C646F63756D656E742E626F64792E617070656E64436869 PUSH2 0x34E0 DUP3 ADD MSTORE PUSH32 0x6C642872292C722E636C69636B28292C646F63756D656E742E626F64792E7265 PUSH2 0x3500 DUP3 ADD MSTORE PUSH32 0x6D6F76654368696C642872292C55524C2E7265766F6B654F626A65637455524C PUSH2 0x3520 DUP3 ADD MSTORE PUSH32 0x2861292C72656D6F7665416C6C4C6F616465727328297D7D29292C646F63756D PUSH2 0x3540 DUP3 ADD MSTORE PUSH32 0x656E742E6164644576656E744C697374656E657228276B6579646F776E272C28 PUSH2 0x3560 DUP3 ADD MSTORE PUSH32 0x6173796E632066756E6374696F6E2865297B72657175657374416E696D617469 PUSH2 0x3580 DUP3 ADD MSTORE PUSH32 0x6F6E4672616D65282866756E6374696F6E28297B6164644C6F6164657228274C PUSH2 0x35A0 DUP3 ADD MSTORE PUSH32 0x6F6164696E67206E65772061737065637420726174696F27297D29292C617761 PUSH2 0x35C0 DUP3 ADD MSTORE PUSH32 0x6974206E65772050726F6D6973652828653D3E73657454696D656F757428652C PUSH2 0x35E0 DUP3 ADD MSTORE PUSH32 0x3230302929292C274172726F775269676874273D3D3D652E6B65793F743D2874 PUSH2 0x3600 DUP3 ADD MSTORE PUSH32 0x2B3129256E2E6C656E6774683A274172726F774C656674273D3D3D652E6B6579 PUSH2 0x3620 DUP3 ADD MSTORE PUSH32 0x262628743D28742D312B6E2E6C656E67746829256E2E6C656E677468292C7365 PUSH2 0x3640 DUP3 ADD MSTORE PUSH32 0x74526174696F286E2C74292C72656D6F7665416C6C4C6F616465727328297D29 PUSH2 0x3660 DUP3 ADD MSTORE PUSH32 0x292C472E6164644576656E744C697374656E65722827746F756368656E64272C PUSH2 0x3680 DUP3 ADD MSTORE PUSH32 0x286173796E632066756E6374696F6E2865297B72657175657374416E696D6174 PUSH2 0x36A0 DUP3 ADD MSTORE PUSH32 0x696F6E4672616D65282866756E6374696F6E28297B6164644C6F616465722827 PUSH2 0x36C0 DUP3 ADD MSTORE PUSH32 0x4C6F6164696E67206E65772061737065637420726174696F27297D29292C6177 PUSH2 0x36E0 DUP3 ADD MSTORE PUSH32 0x616974206E65772050726F6D6973652828653D3E73657454696D656F75742865 PUSH2 0x3700 DUP3 ADD MSTORE PUSH32 0x2C3230302929292C743D28742B3129256E2E6C656E6774683B636F6E7374206F PUSH2 0x3720 DUP3 ADD MSTORE PUSH32 0x3D6E5B745D3B646F63756D656E742E676574456C656D656E744279496428276D PUSH2 0x3740 DUP3 ADD MSTORE PUSH32 0x7953766727293B646F526174696F286F2C646F63756D656E742E676574456C65 PUSH2 0x3760 DUP3 ADD MSTORE PUSH32 0x6D656E744279496428276D795376672729292C72656D6F7665416C6C4C6F6164 PUSH2 0x3780 DUP3 ADD MSTORE PUSH32 0x65727328297D29297D3B66756E6374696F6E20646F526174696F28652C6E297B PUSH2 0x37A0 DUP3 ADD MSTORE PUSH32 0x3130303D3D3D652E776964746826263130303D3D3D652E6865696768743F286E PUSH2 0x37C0 DUP3 ADD MSTORE PUSH32 0x2E7374796C652E77696474683D273130307677272C6E2E7374796C652E686569 PUSH2 0x37E0 DUP3 ADD MSTORE PUSH32 0x6768743D27313030766827293A652E77696474682F652E6865696768743E313F PUSH2 0x3800 DUP3 ADD MSTORE PUSH32 0x286E2E7374796C652E77696474683D273130307677272C6E2E7374796C652E68 PUSH2 0x3820 DUP3 ADD MSTORE PUSH32 0x65696768743D6063616C63283130307677202A2028247B652E6865696768747D PUSH2 0x3840 DUP3 ADD MSTORE PUSH32 0x202F20247B652E77696474687D292960293A286E2E7374796C652E6865696768 PUSH2 0x3860 DUP3 ADD MSTORE PUSH32 0x743D273130307668272C6E2E7374796C652E77696474683D6063616C63283130 PUSH2 0x3880 DUP3 ADD MSTORE PUSH32 0x307668202A2028247B652E77696474687D202F20247B652E6865696768747D29 PUSH2 0x38A0 DUP3 ADD MSTORE PUSH32 0x2960297D66756E6374696F6E2066696E644E616D654279436F6C6F7228652C6E PUSH2 0x38C0 DUP3 ADD MSTORE PUSH32 0x297B666F72286C657420743D303B743C6E2E6C656E6774683B742B2B29696628 PUSH2 0x38E0 DUP3 ADD MSTORE PUSH32 0x6E5B745D2E636F6C6F723D3D3D652972657475726E206E5B745D2E6E616D657D PUSH2 0x3900 DUP3 ADD MSTORE PUSH32 0x66756E6374696F6E20736574526174696F28652C6E297B646F526174696F2865 PUSH2 0x3920 DUP3 ADD MSTORE PUSH32 0x5B6E5D2C646F63756D656E742E676574456C656D656E744279496428276D7953 PUSH2 0x3940 DUP3 ADD MSTORE PUSH32 0x76672729297D6C65742069734C6F616465643D21313B66756E6374696F6E2069 PUSH2 0x3960 DUP3 ADD MSTORE PUSH32 0x7353616661726928297B72657475726E27756E646566696E656427213D747970 PUSH2 0x3980 DUP3 ADD MSTORE PUSH32 0x656F66206E6176696761746F7226266E756C6C213D6E6176696761746F722626 PUSH2 0x39A0 DUP3 ADD MSTORE PUSH32 0x2F5E28283F216368726F6D657C616E64726F6964292E292A7361666172692F69 PUSH2 0x39C0 DUP3 ADD MSTORE PUSH32 0x2E74657374286E6176696761746F723F2E757365724167656E74297D66756E63 PUSH2 0x39E0 DUP3 ADD MSTORE PUSH32 0x74696F6E2072656D6F7665416C6C4C6F616465727328297B646F63756D656E74 PUSH2 0x3A00 DUP3 ADD MSTORE PUSH32 0x2E717565727953656C6563746F72416C6C28272E6C6F616465722D636F6E7461 PUSH2 0x3A20 DUP3 ADD MSTORE PUSH32 0x696E657227292E666F72456163682828653D3E7B652E706172656E744E6F6465 PUSH2 0x3A40 DUP3 ADD MSTORE PUSH32 0x2E72656D6F76654368696C642865297D29297D66756E6374696F6E206164644C PUSH2 0x3A60 DUP3 ADD MSTORE PUSH32 0x6F616465722865297B6C6574206E3D646F63756D656E742E637265617465456C PUSH2 0x3A80 DUP3 ADD MSTORE PUSH32 0x656D656E74282764697627293B6E2E636C6173734E616D653D276C6F61646572 PUSH2 0x3AA0 DUP3 ADD MSTORE PUSH32 0x2D636F6E7461696E6572272C6E2E7374796C652E706F736974696F6E3D276162 PUSH2 0x3AC0 DUP3 ADD MSTORE PUSH32 0x736F6C757465272C6E2E7374796C652E6C6566743D27353025272C6E2E737479 PUSH2 0x3AE0 DUP3 ADD MSTORE PUSH32 0x6C652E746F703D27353025272C6E2E7374796C652E7472616E73666F726D3D27 PUSH2 0x3B00 DUP3 ADD MSTORE PUSH32 0x7472616E736C617465282D3530252C202D35302529273B636F6E737420743D64 PUSH2 0x3B20 DUP3 ADD MSTORE PUSH32 0x6F63756D656E742E637265617465456C656D656E74282764697627293B6C6574 PUSH2 0x3B40 DUP3 ADD MSTORE PUSH32 0x206F3B696628742E696E6E6572546578743D652B272E2E2E272C742E7374796C PUSH2 0x3B60 DUP3 ADD MSTORE PUSH32 0x652E636F6C6F723D2723464646464646272C742E7374796C652E626F72646572 PUSH2 0x3B80 DUP3 ADD MSTORE PUSH32 0x3D2723303030303030272C742E7374796C652E666F6E7446616D696C793D2748 PUSH2 0x3BA0 DUP3 ADD MSTORE PUSH32 0x656C7665746963612C20417269616C2C2073616E732D7365726966272C742E73 PUSH2 0x3BC0 DUP3 ADD MSTORE PUSH32 0x74796C652E666F6E7453697A653D2731347078272C742E7374796C652E776964 PUSH2 0x3BE0 DUP3 ADD MSTORE PUSH32 0x74683D276D61782D636F6E74656E74272C742E7374796C652E646973706C6179 PUSH2 0x3C00 DUP3 ADD MSTORE PUSH32 0x3D27696E6C696E652D626C6F636B272C742E636C6173734E616D653D276C6F61 PUSH2 0x3C20 DUP3 ADD MSTORE PUSH32 0x64696E672D74657874272C742E69643D276C6F616465722D74657874272C6E2E PUSH2 0x3C40 DUP3 ADD MSTORE PUSH32 0x617070656E644368696C642874292C646F63756D656E742E626F64792E617070 PUSH2 0x3C60 DUP3 ADD MSTORE PUSH32 0x656E644368696C64286E292C646F63756D656E742E7374796C65536865657473 PUSH2 0x3C80 DUP3 ADD MSTORE PUSH32 0x2E6C656E6774683E30296F3D646F63756D656E742E7374796C65536865657473 PUSH2 0x3CA0 DUP3 ADD MSTORE PUSH32 0x5B305D3B656C73657B636F6E737420653D646F63756D656E742E637265617465 PUSH2 0x3CC0 DUP3 ADD MSTORE PUSH32 0x456C656D656E7428277374796C6527293B646F63756D656E742E686561642E61 PUSH2 0x3CE0 DUP3 ADD MSTORE PUSH32 0x7070656E644368696C642865292C6F3D652E73686565747D6F2E696E73657274 PUSH2 0x3D00 DUP3 ADD MSTORE PUSH32 0x52756C6528270A20202020406B65796672616D6573207370696E207B0A202020 PUSH2 0x3D20 DUP3 ADD MSTORE PUSH32 0x20202020203025207B207472616E73666F726D3A20726F746174652830646567 PUSH2 0x3D40 DUP3 ADD MSTORE PUSH32 0x293B207D0A202020202020202031303025207B207472616E73666F726D3A2072 PUSH2 0x3D60 DUP3 ADD MSTORE PUSH32 0x6F7461746528333630646567293B207D0A202020207D0A20202020272C6F2E63 PUSH2 0x3D80 DUP3 ADD MSTORE PUSH32 0x737352756C65732E6C656E677468297D66756E6374696F6E207570646174654C PUSH2 0x3DA0 DUP3 ADD MSTORE PUSH32 0x6F616465722865297B646F63756D656E742E717565727953656C6563746F7241 PUSH2 0x3DC0 DUP3 ADD MSTORE PUSH32 0x6C6C28272E6C6F6164696E672D7465787427292E666F724561636828286E3D3E PUSH2 0x3DE0 DUP3 ADD MSTORE PUSH32 0x7B6E2E696E6E6572546578743D652B272E2E2E277D29297D66756E6374696F6E PUSH2 0x3E00 DUP3 ADD MSTORE PUSH32 0x20616464506F74656E7469616C506F70757028297B76617220653D646F63756D PUSH2 0x3E20 DUP3 ADD MSTORE PUSH32 0x656E742E637265617465456C656D656E74282764697627293B652E69643D2773 PUSH2 0x3E40 DUP3 ADD MSTORE PUSH32 0x61666172692D706F707570272C652E7374796C653D27646973706C61793A206E PUSH2 0x3E60 DUP3 ADD MSTORE PUSH32 0x6F6E653B20706F736974696F6E3A2066697865643B20746F703A203530253B20 PUSH2 0x3E80 DUP3 ADD MSTORE PUSH32 0x6C6566743A203530253B207472616E73666F726D3A207472616E736C61746528 PUSH2 0x3EA0 DUP3 ADD MSTORE PUSH32 0x2D3530252C202D353025293B206261636B67726F756E642D636F6C6F723A2077 PUSH2 0x3EC0 DUP3 ADD MSTORE PUSH32 0x686974653B2070616464696E673A20323070783B20626F726465723A20317078 PUSH2 0x3EE0 DUP3 ADD MSTORE PUSH32 0x20736F6C696420236363633B207A2D696E6465783A20313030303B272C652E69 PUSH2 0x3F00 DUP3 ADD MSTORE PUSH32 0x6E6E657248544D4C3D273C703E5765206861766520646574656374656420796F PUSH2 0x3F20 DUP3 ADD MSTORE PUSH32 0x7520617265207573696E6720746865207765622062726F736572205361666172 PUSH2 0x3F40 DUP3 ADD MSTORE PUSH32 0x692E205361666172692063757272656E746C792075736573203C612074617267 PUSH2 0x3F60 DUP3 ADD MSTORE PUSH32 0x65743D275F626C616E6B2720687265663D2768747470733A2F2F656E2E77696B PUSH2 0x3F80 DUP3 ADD MSTORE PUSH32 0x6970656469612E6F72672F77696B692F436F6D70617269736F6E5F6F665F6272 PUSH2 0x3FA0 DUP3 ADD MSTORE PUSH32 0x6F777365725F656E67696E6573273E5765624B69743C2F613E2C207768696368 PUSH2 0x3FC0 DUP3 ADD MSTORE PUSH32 0x2063616E2068617665206C61726765206D656D6F7279206C65616B7320776865 PUSH2 0x3FE0 DUP3 ADD MSTORE PUSH32 0x6E206C6F6164696E67205356477320776974682066696C746572732C206D616B PUSH2 0x4000 DUP3 ADD MSTORE PUSH32 0x696E67207468652073797374656D20756E726573706F6E736976652E20546869 PUSH2 0x4020 DUP3 ADD MSTORE PUSH32 0x73203C61207461726765743D275F626C616E6B2720687265663D276874747073 PUSH2 0x4040 DUP3 ADD MSTORE PUSH32 0x3A2F2F627567732E7765626B69742E6F72672F73686F775F6275672E6367693F PUSH2 0x4060 DUP3 ADD MSTORE PUSH32 0x69643D323138343232273E69737375653C2F613E20686173206265656E207265 PUSH2 0x4080 DUP3 ADD MSTORE PUSH32 0x706F7274656420746F205765624B69742E2049207265636F6D6D656E64203C61 PUSH2 0x40A0 DUP3 ADD MSTORE PUSH32 0x207461726765743D275F626C616E6B2720687265663D2768747470733A2F2F65 PUSH2 0x40C0 DUP3 ADD MSTORE PUSH32 0x6E2E77696B6970656469612E6F72672F77696B692F436F6D70617269736F6E5F PUSH2 0x40E0 DUP3 ADD MSTORE PUSH32 0x6F665F62726F777365725F656E67696E6573273E426C696E6B3C2F613E206261 PUSH2 0x4100 DUP3 ADD MSTORE PUSH32 0x7365642062726F777365727320286173206F66203230323429206C696B652047 PUSH2 0x4120 DUP3 ADD MSTORE PUSH32 0x6F6F676C65204368726F6D6520616E64204D6963726F736F667420456467652E PUSH2 0x4140 DUP3 ADD MSTORE PUSH32 0x20496620796F7520776F756C64206C696B6520746F20636F6E74696E75652C20 PUSH2 0x4160 DUP3 ADD MSTORE PUSH32 0x6B6E6F77696E67207468617420536166617269206D6179206861766520697373 PUSH2 0x4180 DUP3 ADD MSTORE PUSH32 0x7565732C206F722062656C696576696E67207468617420536166617269206E6F PUSH2 0x41A0 DUP3 ADD MSTORE PUSH32 0x7720636F72726563746C7920737570706F727473205356472066696C65732C20 PUSH2 0x41C0 DUP3 ADD MSTORE PUSH32 0x796F75206D61792E3C2F703E3C627574746F6E206F6E636C69636B3D27636C6F PUSH2 0x41E0 DUP3 ADD MSTORE PUSH32 0x7365506F7075702829273E4920756E6465727374616E6420616E642077697368 PUSH2 0x4200 DUP3 ADD MSTORE PUSH32 0x20746F20636F6E74696E7565206174206D79206F776E207269736B2E3C2F6275 PUSH2 0x4220 DUP3 ADD MSTORE PUSH32 0x74746F6E3E272C646F63756D656E742E626F64792E617070656E644368696C64 PUSH2 0x4240 DUP3 ADD MSTORE PUSH32 0x2865297D66756E6374696F6E20636C6F7365506F70757028297B76617220653D PUSH2 0x4260 DUP3 ADD MSTORE PUSH32 0x646F63756D656E742E676574456C656D656E744279496428277361666172692D PUSH2 0x4280 DUP3 ADD MSTORE PUSH32 0x706F70757027292C6E3D646F63756D656E742E676574456C656D656E74427949 PUSH2 0x42A0 DUP3 ADD MSTORE PUSH32 0x6428277361666172692D62616E6E657227293B6526262873686F756C644C6F61 PUSH2 0x42C0 DUP3 ADD MSTORE PUSH32 0x6444726177696E673D21302C652E7374796C652E646973706C61793D276E6F6E PUSH2 0x42E0 DUP3 ADD MSTORE PUSH32 0x65272C6E2E7374796C652E646973706C61793D276E6F6E6527297D736574496E PUSH2 0x4300 DUP3 ADD MSTORE PUSH32 0x74657276616C282866756E6374696F6E28297B6966282169734C6F6164656429 PUSH2 0x4320 DUP3 ADD MSTORE PUSH32 0x7B69734C6F616465643D21302C72657175657374416E696D6174696F6E467261 PUSH2 0x4340 DUP3 ADD MSTORE PUSH32 0x6D6528616464506F74656E7469616C506F707570292C72657175657374416E69 PUSH2 0x4360 DUP3 ADD MSTORE PUSH32 0x6D6174696F6E4672616D65282866756E6374696F6E28297B6966286973536166 PUSH2 0x4380 DUP3 ADD MSTORE PUSH32 0x6172692829297B636F6E737420653D646F63756D656E742E637265617465456C PUSH2 0x43A0 DUP3 ADD MSTORE PUSH32 0x656D656E74282764697627293B652E7374796C652E706F736974696F6E3D2766 PUSH2 0x43C0 DUP3 ADD MSTORE PUSH32 0x69786564272C652E7374796C652E626F74746F6D3D2730272C652E7374796C65 PUSH2 0x43E0 DUP3 ADD MSTORE PUSH32 0x2E6C6566743D2730272C652E7374796C652E77696474683D2731303025272C65 PUSH2 0x4400 DUP3 ADD MSTORE PUSH32 0x2E7374796C652E6261636B67726F756E64436F6C6F723D27726564272C652E73 PUSH2 0x4420 DUP3 ADD MSTORE PUSH32 0x74796C652E636F6C6F723D277768697465272C652E7374796C652E7465787441 PUSH2 0x4440 DUP3 ADD MSTORE PUSH32 0x6C69676E3D2763656E746572272C652E7374796C652E70616464696E673D2731 PUSH2 0x4460 DUP3 ADD MSTORE PUSH32 0x307078272C652E7374796C652E7A496E6465783D2731303030272C652E636C61 PUSH2 0x4480 DUP3 ADD MSTORE PUSH32 0x73734E616D653D277361666172692D62616E6E6572272C646F63756D656E742E PUSH2 0x44A0 DUP3 ADD MSTORE PUSH32 0x626F64792E617070656E644368696C642865292C646F63756D656E742E676574 PUSH2 0x44C0 DUP3 ADD MSTORE PUSH32 0x456C656D656E744279496428277361666172692D706F70757027292E7374796C PUSH2 0x44E0 DUP3 ADD MSTORE PUSH32 0x652E646973706C61793D27626C6F636B277D656C73652073686F756C644C6F61 PUSH2 0x4500 DUP3 ADD MSTORE PUSH32 0x6444726177696E673D21307D29293B6C657420653D736574496E74657276616C PUSH2 0x4520 DUP3 ADD MSTORE PUSH32 0x282866756E6374696F6E28297B73686F756C644C6F616444726177696E672626 PUSH2 0x4540 DUP3 ADD MSTORE PUSH32 0x6173796E632066756E6374696F6E28297B636C656172496E74657276616C2865 PUSH2 0x4560 DUP3 ADD MSTORE PUSH32 0x292C6177616974206E65772050726F6D6973652828653D3E73657454696D656F PUSH2 0x4580 DUP3 ADD MSTORE PUSH32 0x757428652C3230302929292C6177616974206472617728297D28297D292C3130 PUSH2 0x45A0 DUP3 ADD MSTORE PUSH32 0x30297D7D292C316533293B3C2F7363726970743E3C2F686561643E0000000000 PUSH2 0x45C0 DUP3 ADD MSTORE POP JUMP JUMPDEST PUSH0 PUSH2 0x59E8 PUSH2 0x45DB DUP4 PUSH2 0x330 JUMP JUMPDEST SWAP2 POP PUSH2 0x59F3 DUP3 PUSH2 0x4B8 JUMP JUMPDEST PUSH2 0x45DB DUP3 ADD SWAP1 POP SWAP2 SWAP1 POP JUMP JUMPDEST PUSH0 PUSH2 0x5A09 DUP3 PUSH2 0x388 JUMP JUMPDEST SWAP2 POP PUSH2 0x5A15 DUP3 DUP8 PUSH2 0x3AA JUMP JUMPDEST SWAP2 POP PUSH2 0x5A20 DUP3 PUSH2 0x402 JUMP JUMPDEST SWAP2 POP PUSH2 0x5A2C DUP3 DUP7 PUSH2 0x3AA JUMP JUMPDEST SWAP2 POP PUSH2 0x5A37 DUP3 PUSH2 0x44C JUMP JUMPDEST SWAP2 POP PUSH2 0x5A43 DUP3 DUP6 PUSH2 0x3AA JUMP JUMPDEST SWAP2 POP PUSH2 0x5A4E DUP3 PUSH2 0x496 JUMP JUMPDEST SWAP2 POP PUSH2 0x5A5A DUP3 DUP5 PUSH2 0x3AA JUMP JUMPDEST SWAP2 POP PUSH2 0x5A65 DUP3 PUSH2 0x59DB JUMP JUMPDEST SWAP2 POP DUP2 SWAP1 POP SWAP6 SWAP5 POP POP POP POP POP JUMP INVALID LOG2 PUSH5 0x6970667358 0x22 SLT KECCAK256 PUSH1 0x50 MOD 0xBB JUMPI SAR MOD AND EQ PREVRANDAO 0xF8 EXTCODECOPY 0xAB 0xC9 0xBC EQ PUSH31 0xF10195416136DF8CE81D40E15DF1AE64736F6C634300081900330000000000 "
		},
		"gasEstimates": {
			"creation": {
				"codeDepositCost": "4641800",
				"executionCost": "5434",
				"totalCost": "4647234"
			},
			"external": {
				"getScriptHeader(string,string,string,string)": "infinite"
			}
		},
		"methodIdentifiers": {
			"getScriptHeader(string,string,string,string)": "ceae2702"
		}
	},
	"abi": [
		{
			"inputs": [
				{
					"internalType": "string",
					"name": "tokenId",
					"type": "string"
				},
				{
					"internalType": "string",
					"name": "color",
					"type": "string"
				},
				{
					"internalType": "string",
					"name": "hash",
					"type": "string"
				},
				{
					"internalType": "string",
					"name": "mood",
					"type": "string"
				}
			],
			"name": "getScriptHeader",
			"outputs": [
				{
					"internalType": "string",
					"name": "",
					"type": "string"
				}
			],
			"stateMutability": "pure",
			"type": "function"
		}
	]
}