{
	"data": {
		"bytecode": {
			"linkReferences": {},
			"object": "608060405260016005555f60065560405180602001604052805f815250600c908161002a9190610580565b5060405180602001604052805f815250600d90816100489190610580565b5060405180602001604052805f815250600e90816100669190610580565b506040518060400160405280600181526020017f3000000000000000000000000000000000000000000000000000000000000000815250600f90816100ab9190610580565b503480156100b7575f80fd5b506040516141c83803806141c883398181016040528101906100d991906107c9565b855f73ffffffffffffffffffffffffffffffffffffffff168173ffffffffffffffffffffffffffffffffffffffff160361014a575f6040517f1e4fbdf70000000000000000000000000000000000000000000000000000000081526004016101419190610899565b60405180910390fd5b6101598161028560201b60201c565b5083600d90816101699190610580565b5082600c90816101799190610580565b508460075f6101000a81548173ffffffffffffffffffffffffffffffffffffffff021916908373ffffffffffffffffffffffffffffffffffffffff1602179055508560085f6101000a81548173ffffffffffffffffffffffffffffffffffffffff021916908373ffffffffffffffffffffffffffffffffffffffff1602179055508160035f6101000a81548173ffffffffffffffffffffffffffffffffffffffff021916908373ffffffffffffffffffffffffffffffffffffffff1602179055508060045f6101000a81548173ffffffffffffffffffffffffffffffffffffffff021916908373ffffffffffffffffffffffffffffffffffffffff1602179055505050505050506108b2565b5f805f9054906101000a900473ffffffffffffffffffffffffffffffffffffffff169050815f806101000a81548173ffffffffffffffffffffffffffffffffffffffff021916908373ffffffffffffffffffffffffffffffffffffffff1602179055508173ffffffffffffffffffffffffffffffffffffffff168173ffffffffffffffffffffffffffffffffffffffff167f8be0079c531659141344cd1fd0a4f28419497f9722a3daafe3b4186f6b6457e060405160405180910390a35050565b5f81519050919050565b7f4e487b71000000000000000000000000000000000000000000000000000000005f52604160045260245ffd5b7f4e487b71000000000000000000000000000000000000000000000000000000005f52602260045260245ffd5b5f60028204905060018216806103c157607f821691505b6020821081036103d4576103d361037d565b5b50919050565b5f819050815f5260205f209050919050565b5f6020601f8301049050919050565b5f82821b905092915050565b5f600883026104367fffffffffffffffffffffffffffffffffffffffffffffffffffffffffffffffff826103fb565b61044086836103fb565b95508019841693508086168417925050509392505050565b5f819050919050565b5f819050919050565b5f61048461047f61047a84610458565b610461565b610458565b9050919050565b5f819050919050565b61049d8361046a565b6104b16104a98261048b565b848454610407565b825550505050565b5f90565b6104c56104b9565b6104d0818484610494565b505050565b5b818110156104f3576104e85f826104bd565b6001810190506104d6565b5050565b601f82111561053857610509816103da565b610512846103ec565b81016020851015610521578190505b61053561052d856103ec565b8301826104d5565b50505b505050565b5f82821c905092915050565b5f6105585f198460080261053d565b1980831691505092915050565b5f6105708383610549565b9150826002028217905092915050565b61058982610346565b67ffffffffffffffff8111156105a2576105a1610350565b5b6105ac82546103aa565b6105b78282856104f7565b5f60209050601f8311600181146105e8575f84156105d6578287015190505b6105e08582610565565b865550610647565b601f1984166105f6866103da565b5f5b8281101561061d578489015182556001820191506020850194506020810190506105f8565b8683101561063a5784890151610636601f891682610549565b8355505b6001600288020188555050505b505050505050565b5f604051905090565b5f80fd5b5f80fd5b5f73ffffffffffffffffffffffffffffffffffffffff82169050919050565b5f61068982610660565b9050919050565b6106998161067f565b81146106a3575f80fd5b50565b5f815190506106b481610690565b92915050565b5f80fd5b5f80fd5b5f601f19601f8301169050919050565b6106db826106c2565b810181811067ffffffffffffffff821117156106fa576106f9610350565b5b80604052505050565b5f61070c61064f565b905061071882826106d2565b919050565b5f67ffffffffffffffff82111561073757610736610350565b5b610740826106c2565b9050602081019050919050565b8281835e5f83830152505050565b5f61076d6107688461071d565b610703565b905082815260208101848484011115610789576107886106be565b5b61079484828561074d565b509392505050565b5f82601f8301126107b0576107af6106ba565b5b81516107c084826020860161075b565b91505092915050565b5f805f805f8060c087890312156107e3576107e2610658565b5b5f6107f089828a016106a6565b965050602061080189828a016106a6565b955050604087015167ffffffffffffffff8111156108225761082161065c565b5b61082e89828a0161079c565b945050606087015167ffffffffffffffff81111561084f5761084e61065c565b5b61085b89828a0161079c565b935050608061086c89828a016106a6565b92505060a061087d89828a016106a6565b9150509295509295509295565b6108938161067f565b82525050565b5f6020820190506108ac5f83018461088a565b92915050565b613909806108bf5f395ff3fe6080604052600436106101ed575f3560e01c80636a6278421161010c578063b2bdfa7b1161009f578063d5abeb011161006e578063d5abeb01146106c1578063dcfe6d8f146106eb578063e9dc637514610713578063f2fde38b1461074f578063f76f950e14610777576101ed565b8063b2bdfa7b14610609578063bc8bde6414610633578063c038fe041461065d578063c47f002714610699576101ed565b8063853828b6116100db578063853828b6146105795780638da5cb5b1461058f57806390c3f38f146105b9578063a84fd0ed146105e1576101ed565b80636a627842146104f75780636d73e66914610513578063715018a61461053b578063725f0aaf14610551576101ed565b806334eef5a911610184578063413620d411610153578063413620d4146104195780634b4fd03b146104555780635721421d1461047f57806369f9ad2f146104bb576101ed565b806334eef5a914610361578063358f63ac146103895780633df18e0a146103b35780633eaaf86b146103ef576101ed565b806324d7806c116101c057806324d7806c146102a9578063295a5212146102e55780632d3456701461030f57806331ae450b14610337576101ed565b806301ffc9a7146101f1578063163638981461022d57806318160ddd1461025557806322f4596f1461027f575b5f80fd5b3480156101fc575f80fd5b50610217600480360381019061021291906124b1565b6107b3565b60405161022491906124f6565b60405180910390f35b348015610238575f80fd5b50610253600480360381019061024e9190612569565b6108fc565b005b348015610260575f80fd5b50610269610a16565b60405161027691906125ac565b60405180910390f35b34801561028a575f80fd5b50610293610a1f565b6040516102a091906125ac565b60405180910390f35b3480156102b4575f80fd5b506102cf60048036038101906102ca9190612569565b610a25565b6040516102dc91906124f6565b60405180910390f35b3480156102f0575f80fd5b506102f9610a7e565b6040516103069190612635565b60405180910390f35b34801561031a575f80fd5b5061033560048036038101906103309190612569565b610b0a565b005b348015610342575f80fd5b5061034b610b9e565b604051610358919061270c565b60405180910390f35b34801561036c575f80fd5b5061038760048036038101906103829190612569565b610c79565b005b348015610394575f80fd5b5061039d610d4e565b6040516103aa9190612635565b60405180910390f35b3480156103be575f80fd5b506103d960048036038101906103d4919061275f565b610dda565b6040516103e69190612635565b60405180910390f35b3480156103fa575f80fd5b50610403610f76565b60405161041091906125ac565b60405180910390f35b348015610424575f80fd5b5061043f600480360381019061043a91906128b6565b610f7c565b60405161044c9190612635565b60405180910390f35b348015610460575f80fd5b50610469610fad565b6040516104769190612635565b60405180910390f35b34801561048a575f80fd5b506104a560048036038101906104a09190612927565b611078565b6040516104b29190612635565b60405180910390f35b3480156104c6575f80fd5b506104e160048036038101906104dc91906129a7565b6112bf565b6040516104ee91906129e1565b60405180910390f35b610511600480360381019061050c9190612569565b611323565b005b34801561051e575f80fd5b5061053960048036038101906105349190612569565b6114ac565b005b348015610546575f80fd5b5061054f61153f565b005b34801561055c575f80fd5b5061057760048036038101906105729190612569565b611552565b005b348015610584575f80fd5b5061058d61166c565b005b34801561059a575f80fd5b506105a3611781565b6040516105b09190612a09565b60405180910390f35b3480156105c4575f80fd5b506105df60048036038101906105da91906128b6565b6117a8565b005b3480156105ec575f80fd5b50610607600480360381019061060291906128b6565b611892565b005b348015610614575f80fd5b5061061d611985565b60405161062a9190612a09565b60405180910390f35b34801561063e575f80fd5b506106476119aa565b6040516106549190612a09565b60405180910390f35b348015610668575f80fd5b50610683600480360381019061067e91906128b6565b6119cf565b6040516106909190612635565b60405180910390f35b3480156106a4575f80fd5b506106bf60048036038101906106ba91906128b6565b611a00565b005b3480156106cc575f80fd5b506106d5611aea565b6040516106e291906125ac565b60405180910390f35b3480156106f6575f80fd5b50610711600480360381019061070c91906128b6565b611af2565b005b34801561071e575f80fd5b5061073960048036038101906107349190612a22565b611bdc565b6040516107469190612635565b60405180910390f35b34801561075a575f80fd5b5061077560048036038101906107709190612569565b611bef565b005b348015610782575f80fd5b5061079d60048036038101906107989190612927565b611c73565b6040516107aa9190612635565b60405180910390f35b5f7fe9dc6375000000000000000000000000000000000000000000000000000000007bffffffffffffffffffffffffffffffffffffffffffffffffffffffff1916827bffffffffffffffffffffffffffffffffffffffffffffffffffffffff1916148061087d57507fa7df9e9e000000000000000000000000000000000000000000000000000000007bffffffffffffffffffffffffffffffffffffffffffffffffffffffff1916827bffffffffffffffffffffffffffffffffffffffffffffffffffffffff1916145b806108e557507f54c1bcd9000000000000000000000000000000000000000000000000000000007bffffffffffffffffffffffffffffffffffffffffffffffffffffffff1916827bffffffffffffffffffffffffffffffffffffffffffffffffffffffff1916145b806108f557506108f482611df1565b5b9050919050565b60085f9054906101000a900473ffffffffffffffffffffffffffffffffffffffff1673ffffffffffffffffffffffffffffffffffffffff163373ffffffffffffffffffffffffffffffffffffffff16148061099457506001600a5f3373ffffffffffffffffffffffffffffffffffffffff1673ffffffffffffffffffffffffffffffffffffffff1681526020019081526020015f2054145b6109d3576040517f08c379a00000000000000000000000000000000000000000000000000000000081526004016109ca90612aaa565b60405180910390fd5b8060045f6101000a81548173ffffffffffffffffffffffffffffffffffffffff021916908373ffffffffffffffffffffffffffffffffffffffff16021790555050565b5f600654905090565b60055481565b5f8173ffffffffffffffffffffffffffffffffffffffff16610a45611781565b73ffffffffffffffffffffffffffffffffffffffff161480610a775750610a76826001611e5190919063ffffffff16565b5b9050919050565b600f8054610a8b90612af5565b80601f0160208091040260200160405190810160405280929190818152602001828054610ab790612af5565b8015610b025780601f10610ad957610100808354040283529160200191610b02565b820191905f5260205f20905b815481529060010190602001808311610ae557829003601f168201915b505050505081565b610b12611e7e565b610b26816001611e5190919063ffffffff16565b15610b9b573373ffffffffffffffffffffffffffffffffffffffff168173ffffffffffffffffffffffffffffffffffffffff167f7c0c3c84c67c85fcac635147348bfe374c24a1a93d0366d1cfe9d8853cbf89d560405160405180910390a3610b99816001611f0590919063ffffffff16565b505b50565b6060610baa6001611f32565b67ffffffffffffffff811115610bc357610bc2612792565b5b604051908082528060200260200182016040528015610bf15781602001602082028036833780820191505090505b5090505f5b610c006001611f32565b811015610c7557610c1b816001611f4590919063ffffffff16565b828281518110610c2e57610c2d612b25565b5b602002602001019073ffffffffffffffffffffffffffffffffffffffff16908173ffffffffffffffffffffffffffffffffffffffff16815250508080600101915050610bf6565b5090565b60085f9054906101000a900473ffffffffffffffffffffffffffffffffffffffff1673ffffffffffffffffffffffffffffffffffffffff163373ffffffffffffffffffffffffffffffffffffffff1614610d08576040517f08c379a0000000000000000000000000000000000000000000000000000000008152600401610cff90612aaa565b60405180910390fd5b6001600a5f8373ffffffffffffffffffffffffffffffffffffffff1673ffffffffffffffffffffffffffffffffffffffff1681526020019081526020015f208190555050565b600b8054610d5b90612af5565b80601f0160208091040260200160405190810160405280929190818152602001828054610d8790612af5565b8015610dd25780601f10610da957610100808354040283529160200191610dd2565b820191905f5260205f20905b815481529060010190602001808311610db557829003601f168201915b505050505081565b60605f604067ffffffffffffffff811115610df857610df7612792565b5b6040519080825280601f01601f191660200182016040528015610e2a5781602001600182028036833780820191505090505b5090505f5b6020811015610f6c575f81601f610e469190612b7f565b6008610e529190612bb2565b6002610e5e9190612d22565b855f1c610e6b9190612d99565b60f81b90505f6004827effffffffffffffffffffffffffffffffffffffffffffffffffffffffffffff1916901c90505f600f60f81b83169050610ead826112bf565b85600286610ebb9190612bb2565b81518110610ecc57610ecb612b25565b5b60200101907effffffffffffffffffffffffffffffffffffffffffffffffffffffffffffff191690815f1a905350610f03816112bf565b856001600287610f139190612bb2565b610f1d9190612dc9565b81518110610f2e57610f2d612b25565b5b60200101907effffffffffffffffffffffffffffffffffffffffffffffffffffffffffffff191690815f1a9053505050508080600101915050610e2f565b5080915050919050565b60065481565b6060610f8782611f5c565b604051602001610f979190612e80565b6040516020818303038152906040529050919050565b6060604051602001610fbe90612eeb565b60405160208183030381529060405280519060200120600f604051602001610fe69190612f91565b604051602081830303815290604052805190602001201461103c576040518060400160405280600481526020017f6461726b00000000000000000000000000000000000000000000000000000000815250611073565b6040518060400160405280600581526020017f6c696768740000000000000000000000000000000000000000000000000000008152505b905090565b60605f61126360035f9054906101000a900473ffffffffffffffffffffffffffffffffffffffff1673ffffffffffffffffffffffffffffffffffffffff166318a6ef6c6040518163ffffffff1660e01b81526004015f60405180830381865afa1580156110e7573d5f803e3d5ffd5b505050506040513d5f823e3d601f19601f8201168201806040525081019061110f9190613015565b60045f9054906101000a900473ffffffffffffffffffffffffffffffffffffffff1673ffffffffffffffffffffffffffffffffffffffff1663527385ad600f6040518263ffffffff1660e01b815260040161116a91906130dd565b5f60405180830381865afa158015611184573d5f803e3d5ffd5b505050506040513d5f823e3d601f19601f820116820180604052508101906111ac9190613015565b60035f9054906101000a900473ffffffffffffffffffffffffffffffffffffffff1673ffffffffffffffffffffffffffffffffffffffff16637899ff8f6040518163ffffffff1660e01b81526004015f60405180830381865afa158015611215573d5f803e3d5ffd5b505050506040513d5f823e3d601f19601f8201168201806040525081019061123d9190613015565b60405160200161124f939291906130fd565b6040516020818303038152906040526119cf565b90505f611294600d600b84604051602001611280939291906132c5565b604051602081830303815290604052611f5c565b9050806040516020016112a79190613376565b60405160208183030381529060405292505050919050565b5f600a60f81b827effffffffffffffffffffffffffffffffffffffffffffffffffffffffffffff191610156113085760308260f81c6112fe91906133a3565b60f81b905061131e565b60578260f81c61131891906133a3565b60f81b90505b919050565b60085f9054906101000a900473ffffffffffffffffffffffffffffffffffffffff1673ffffffffffffffffffffffffffffffffffffffff163373ffffffffffffffffffffffffffffffffffffffff16146113b2576040517f08c379a00000000000000000000000000000000000000000000000000000000081526004016113a990612aaa565b60405180910390fd5b6001600654106113f7576040517f08c379a00000000000000000000000000000000000000000000000000000000081526004016113ee90613421565b60405180910390fd5b60075f9054906101000a900473ffffffffffffffffffffffffffffffffffffffff1673ffffffffffffffffffffffffffffffffffffffff16632928ca58826040518263ffffffff1660e01b81526004016114519190612a09565b6020604051808303815f875af115801561146d573d5f803e3d5ffd5b505050506040513d601f19601f820116820180604052508101906114919190613453565b5060065f8154809291906114a49061347e565b919050555050565b6114b4611e7e565b6114c8816001611e5190919063ffffffff16565b61153c573373ffffffffffffffffffffffffffffffffffffffff168173ffffffffffffffffffffffffffffffffffffffff167f7e1a1a08d52e4ba0e21554733d66165fd5151f99460116223d9e3a608eec5cb160405160405180910390a361153a8160016120bb90919063ffffffff16565b505b50565b611547611e7e565b6115505f6120e8565b565b60085f9054906101000a900473ffffffffffffffffffffffffffffffffffffffff1673ffffffffffffffffffffffffffffffffffffffff163373ffffffffffffffffffffffffffffffffffffffff1614806115ea57506001600a5f3373ffffffffffffffffffffffffffffffffffffffff1673ffffffffffffffffffffffffffffffffffffffff1681526020019081526020015f2054145b611629576040517f08c379a000000000000000000000000000000000000000000000000000000000815260040161162090612aaa565b60405180910390fd5b8060035f6101000a81548173ffffffffffffffffffffffffffffffffffffffff021916908373ffffffffffffffffffffffffffffffffffffffff16021790555050565b60085f9054906101000a900473ffffffffffffffffffffffffffffffffffffffff1673ffffffffffffffffffffffffffffffffffffffff163373ffffffffffffffffffffffffffffffffffffffff16148061170457506001600a5f3373ffffffffffffffffffffffffffffffffffffffff1673ffffffffffffffffffffffffffffffffffffffff1681526020019081526020015f2054145b611743576040517f08c379a000000000000000000000000000000000000000000000000000000000815260040161173a90612aaa565b60405180910390fd5b3373ffffffffffffffffffffffffffffffffffffffff166108fc4790811502906040515f60405180830381858888f1935050505061177f575f80fd5b565b5f805f9054906101000a900473ffffffffffffffffffffffffffffffffffffffff16905090565b60085f9054906101000a900473ffffffffffffffffffffffffffffffffffffffff1673ffffffffffffffffffffffffffffffffffffffff163373ffffffffffffffffffffffffffffffffffffffff16148061184057506001600a5f3373ffffffffffffffffffffffffffffffffffffffff1673ffffffffffffffffffffffffffffffffffffffff1681526020019081526020015f2054145b61187f576040517f08c379a000000000000000000000000000000000000000000000000000000000815260040161187690612aaa565b60405180910390fd5b80600c908161188e9190613650565b5050565b6040516020016118a190612eeb565b60405160208183030381529060405280519060200120816040516020016118c8919061371f565b60405160208183030381529060405280519060200120148061193357506040516020016118f49061377f565b604051602081830303815290604052805190602001208160405160200161191b919061371f565b60405160208183030381529060405280519060200120145b611972576040517f08c379a0000000000000000000000000000000000000000000000000000000008152600401611969906137dd565b60405180910390fd5b80600f90816119819190613650565b5050565b60085f9054906101000a900473ffffffffffffffffffffffffffffffffffffffff1681565b60075f9054906101000a900473ffffffffffffffffffffffffffffffffffffffff1681565b60606119da82611f5c565b6040516020016119ea9190613845565b6040516020818303038152906040529050919050565b60085f9054906101000a900473ffffffffffffffffffffffffffffffffffffffff1673ffffffffffffffffffffffffffffffffffffffff163373ffffffffffffffffffffffffffffffffffffffff161480611a9857506001600a5f3373ffffffffffffffffffffffffffffffffffffffff1673ffffffffffffffffffffffffffffffffffffffff1681526020019081526020015f2054145b611ad7576040517f08c379a0000000000000000000000000000000000000000000000000000000008152600401611ace90612aaa565b60405180910390fd5b80600d9081611ae69190613650565b5050565b5f6001905090565b60085f9054906101000a900473ffffffffffffffffffffffffffffffffffffffff1673ffffffffffffffffffffffffffffffffffffffff163373ffffffffffffffffffffffffffffffffffffffff161480611b8a57506001600a5f3373ffffffffffffffffffffffffffffffffffffffff1673ffffffffffffffffffffffffffffffffffffffff1681526020019081526020015f2054145b611bc9576040517f08c379a0000000000000000000000000000000000000000000000000000000008152600401611bc090612aaa565b60405180910390fd5b80600b9081611bd89190613650565b5050565b6060611be782611078565b905092915050565b611bf7611e7e565b5f73ffffffffffffffffffffffffffffffffffffffff168173ffffffffffffffffffffffffffffffffffffffff1603611c67575f6040517f1e4fbdf7000000000000000000000000000000000000000000000000000000008152600401611c5e9190612a09565b60405180910390fd5b611c70816120e8565b50565b60605f8203611cb9576040518060400160405280600181526020017f30000000000000000000000000000000000000000000000000000000000000008152509050611dec565b5f8290505f5b5f8214611ce8578080611cd19061347e565b915050600a82611ce19190612d99565b9150611cbf565b5f8167ffffffffffffffff811115611d0357611d02612792565b5b6040519080825280601f01601f191660200182016040528015611d355781602001600182028036833780820191505090505b5090505f8290505b5f8614611de457600181611d519190612b7f565b90505f600a8088611d629190612d99565b611d6c9190612bb2565b87611d779190612b7f565b6030611d8391906133a3565b90505f8160f81b905080848481518110611da057611d9f612b25565b5b60200101907effffffffffffffffffffffffffffffffffffffffffffffffffffffffffffff191690815f1a905350600a88611ddb9190612d99565b97505050611d3d565b819450505050505b919050565b5f637005caad60e01b7bffffffffffffffffffffffffffffffffffffffffffffffffffffffff1916827bffffffffffffffffffffffffffffffffffffffffffffffffffffffff19161480611e4a5750611e49826121a9565b5b9050919050565b5f611e76835f018373ffffffffffffffffffffffffffffffffffffffff165f1b612222565b905092915050565b611e86612242565b73ffffffffffffffffffffffffffffffffffffffff16611ea4611781565b73ffffffffffffffffffffffffffffffffffffffff1614611f0357611ec7612242565b6040517f118cdaa7000000000000000000000000000000000000000000000000000000008152600401611efa9190612a09565b60405180910390fd5b565b5f611f2a835f018373ffffffffffffffffffffffffffffffffffffffff165f1b612249565b905092915050565b5f611f3e825f01612345565b9050919050565b5f611f52835f0183612354565b5f1c905092915050565b60605f825103611f7c5760405180602001604052805f81525090506120b6565b5f6040518060600160405280604081526020016138946040913990505f600360028551611fa99190612dc9565b611fb39190612d99565b6004611fbf9190612bb2565b67ffffffffffffffff811115611fd857611fd7612792565b5b6040519080825280601f01601f19166020018201604052801561200a5781602001600182028036833780820191505090505b509050600182016020820185865187015b80821015612076576003820191508151603f8160121c168501518453600184019350603f81600c1c168501518453600184019350603f8160061c168501518453600184019350603f811685015184536001840193505061201b565b505060038651066001811461209257600281146120a5576120ad565b603d6001830353603d60028303536120ad565b603d60018303535b50505080925050505b919050565b5f6120e0835f018373ffffffffffffffffffffffffffffffffffffffff165f1b61237b565b905092915050565b5f805f9054906101000a900473ffffffffffffffffffffffffffffffffffffffff169050815f806101000a81548173ffffffffffffffffffffffffffffffffffffffff021916908373ffffffffffffffffffffffffffffffffffffffff1602179055508173ffffffffffffffffffffffffffffffffffffffff168173ffffffffffffffffffffffffffffffffffffffff167f8be0079c531659141344cd1fd0a4f28419497f9722a3daafe3b4186f6b6457e060405160405180910390a35050565b5f7f553e757e000000000000000000000000000000000000000000000000000000007bffffffffffffffffffffffffffffffffffffffffffffffffffffffff1916827bffffffffffffffffffffffffffffffffffffffffffffffffffffffff1916148061221b575061221a826123e2565b5b9050919050565b5f80836001015f8481526020019081526020015f20541415905092915050565b5f33905090565b5f80836001015f8481526020019081526020015f205490505f811461233a575f6001826122769190612b7f565b90505f6001865f018054905061228c9190612b7f565b90508082146122f2575f865f0182815481106122ab576122aa612b25565b5b905f5260205f200154905080875f0184815481106122cc576122cb612b25565b5b905f5260205f20018190555083876001015f8381526020019081526020015f2081905550505b855f0180548061230557612304613866565b5b600190038181905f5260205f20015f90559055856001015f8681526020019081526020015f205f90556001935050505061233f565b5f9150505b92915050565b5f815f01805490509050919050565b5f825f01828154811061236a57612369612b25565b5b905f5260205f200154905092915050565b5f6123868383612222565b6123d857825f0182908060018154018082558091505060019003905f5260205f20015f9091909190915055825f0180549050836001015f8481526020019081526020015f2081905550600190506123dc565b5f90505b92915050565b5f7f01ffc9a7000000000000000000000000000000000000000000000000000000007bffffffffffffffffffffffffffffffffffffffffffffffffffffffff1916827bffffffffffffffffffffffffffffffffffffffffffffffffffffffff1916149050919050565b5f604051905090565b5f80fd5b5f80fd5b5f7fffffffff0000000000000000000000000000000000000000000000000000000082169050919050565b6124908161245c565b811461249a575f80fd5b50565b5f813590506124ab81612487565b92915050565b5f602082840312156124c6576124c5612454565b5b5f6124d38482850161249d565b91505092915050565b5f8115159050919050565b6124f0816124dc565b82525050565b5f6020820190506125095f8301846124e7565b92915050565b5f73ffffffffffffffffffffffffffffffffffffffff82169050919050565b5f6125388261250f565b9050919050565b6125488161252e565b8114612552575f80fd5b50565b5f813590506125638161253f565b92915050565b5f6020828403121561257e5761257d612454565b5b5f61258b84828501612555565b91505092915050565b5f819050919050565b6125a681612594565b82525050565b5f6020820190506125bf5f83018461259d565b92915050565b5f81519050919050565b5f82825260208201905092915050565b8281835e5f83830152505050565b5f601f19601f8301169050919050565b5f612607826125c5565b61261181856125cf565b93506126218185602086016125df565b61262a816125ed565b840191505092915050565b5f6020820190508181035f83015261264d81846125fd565b905092915050565b5f81519050919050565b5f82825260208201905092915050565b5f819050602082019050919050565b6126878161252e565b82525050565b5f612698838361267e565b60208301905092915050565b5f602082019050919050565b5f6126ba82612655565b6126c4818561265f565b93506126cf8361266f565b805f5b838110156126ff5781516126e6888261268d565b97506126f1836126a4565b9250506001810190506126d2565b5085935050505092915050565b5f6020820190508181035f83015261272481846126b0565b905092915050565b5f819050919050565b61273e8161272c565b8114612748575f80fd5b50565b5f8135905061275981612735565b92915050565b5f6020828403121561277457612773612454565b5b5f6127818482850161274b565b91505092915050565b5f80fd5b5f80fd5b7f4e487b71000000000000000000000000000000000000000000000000000000005f52604160045260245ffd5b6127c8826125ed565b810181811067ffffffffffffffff821117156127e7576127e6612792565b5b80604052505050565b5f6127f961244b565b905061280582826127bf565b919050565b5f67ffffffffffffffff82111561282457612823612792565b5b61282d826125ed565b9050602081019050919050565b828183375f83830152505050565b5f61285a6128558461280a565b6127f0565b9050828152602081018484840111156128765761287561278e565b5b61288184828561283a565b509392505050565b5f82601f83011261289d5761289c61278a565b5b81356128ad848260208601612848565b91505092915050565b5f602082840312156128cb576128ca612454565b5b5f82013567ffffffffffffffff8111156128e8576128e7612458565b5b6128f484828501612889565b91505092915050565b61290681612594565b8114612910575f80fd5b50565b5f81359050612921816128fd565b92915050565b5f6020828403121561293c5761293b612454565b5b5f61294984828501612913565b91505092915050565b5f7fff0000000000000000000000000000000000000000000000000000000000000082169050919050565b61298681612952565b8114612990575f80fd5b50565b5f813590506129a18161297d565b92915050565b5f602082840312156129bc576129bb612454565b5b5f6129c984828501612993565b91505092915050565b6129db81612952565b82525050565b5f6020820190506129f45f8301846129d2565b92915050565b612a038161252e565b82525050565b5f602082019050612a1c5f8301846129fa565b92915050565b5f8060408385031215612a3857612a37612454565b5b5f612a4585828601612555565b9250506020612a5685828601612913565b9150509250929050565b7f556e617574686f72697a656400000000000000000000000000000000000000005f82015250565b5f612a94600c836125cf565b9150612a9f82612a60565b602082019050919050565b5f6020820190508181035f830152612ac181612a88565b9050919050565b7f4e487b71000000000000000000000000000000000000000000000000000000005f52602260045260245ffd5b5f6002820490506001821680612b0c57607f821691505b602082108103612b1f57612b1e612ac8565b5b50919050565b7f4e487b71000000000000000000000000000000000000000000000000000000005f52603260045260245ffd5b7f4e487b71000000000000000000000000000000000000000000000000000000005f52601160045260245ffd5b5f612b8982612594565b9150612b9483612594565b9250828203905081811115612bac57612bab612b52565b5b92915050565b5f612bbc82612594565b9150612bc783612594565b9250828202612bd581612594565b91508282048414831517612bec57612beb612b52565b5b5092915050565b5f8160011c9050919050565b5f808291508390505b6001851115612c4857808604811115612c2457612c23612b52565b5b6001851615612c335780820291505b8081029050612c4185612bf3565b9450612c08565b94509492505050565b5f82612c605760019050612d1b565b81612c6d575f9050612d1b565b8160018114612c835760028114612c8d57612cbc565b6001915050612d1b565b60ff841115612c9f57612c9e612b52565b5b8360020a915084821115612cb657612cb5612b52565b5b50612d1b565b5060208310610133831016604e8410600b8410161715612cf15782820a905083811115612cec57612ceb612b52565b5b612d1b565b612cfe8484846001612bff565b92509050818404811115612d1557612d14612b52565b5b81810290505b9392505050565b5f612d2c82612594565b9150612d3783612594565b9250612d647fffffffffffffffffffffffffffffffffffffffffffffffffffffffffffffffff8484612c51565b905092915050565b7f4e487b71000000000000000000000000000000000000000000000000000000005f52601260045260245ffd5b5f612da382612594565b9150612dae83612594565b925082612dbe57612dbd612d6c565b5b828204905092915050565b5f612dd382612594565b9150612dde83612594565b9250828201905080821115612df657612df5612b52565b5b92915050565b5f81905092915050565b7f646174613a696d6167652f7376672b786d6c3b6261736536342c0000000000005f82015250565b5f612e3a601a83612dfc565b9150612e4582612e06565b601a82019050919050565b5f612e5a826125c5565b612e648185612dfc565b9350612e748185602086016125df565b80840191505092915050565b5f612e8a82612e2e565b9150612e968284612e50565b915081905092915050565b7f30000000000000000000000000000000000000000000000000000000000000005f82015250565b5f612ed5600183612dfc565b9150612ee082612ea1565b600182019050919050565b5f612ef582612ec9565b9150819050919050565b5f819050815f5260205f209050919050565b5f8154612f1d81612af5565b612f278186612dfc565b9450600182165f8114612f415760018114612f5657612f88565b60ff1983168652811515820286019350612f88565b612f5f85612eff565b5f5b83811015612f8057815481890152600182019150602081019050612f61565b838801955050505b50505092915050565b5f612f9c8284612f11565b915081905092915050565b5f612fb9612fb48461280a565b6127f0565b905082815260208101848484011115612fd557612fd461278e565b5b612fe08482856125df565b509392505050565b5f82601f830112612ffc57612ffb61278a565b5b815161300c848260208601612fa7565b91505092915050565b5f6020828403121561302a57613029612454565b5b5f82015167ffffffffffffffff81111561304757613046612458565b5b61305384828501612fe8565b91505092915050565b5f815461306881612af5565b61307281866125cf565b9450600182165f811461308c57600181146130a2576130d4565b60ff1983168652811515602002860193506130d4565b6130ab85612eff565b5f5b838110156130cc578154818901526001820191506020810190506130ad565b808801955050505b50505092915050565b5f6020820190508181035f8301526130f5818461305c565b905092915050565b5f6131088286612e50565b91506131148285612e50565b91506131208284612e50565b9150819050949350505050565b7f7b226e616d65223a2022000000000000000000000000000000000000000000005f82015250565b5f613161600a83612dfc565b915061316c8261312d565b600a82019050919050565b7f222c20226465736372697074696f6e223a20225f6465736372697074696f6e225f8201527f2c00000000000000000000000000000000000000000000000000000000000000602082015250565b5f6131d1602183612dfc565b91506131dc82613177565b602182019050919050565b7f22696d616765223a2022000000000000000000000000000000000000000000005f82015250565b5f61321b600a83612dfc565b9150613226826131e7565b600a82019050919050565b7f222c2022616e696d6174696f6e5f75726c223a202200000000000000000000005f82015250565b5f613265601583612dfc565b915061327082613231565b601582019050919050565b7f227d0000000000000000000000000000000000000000000000000000000000005f82015250565b5f6132af600283612dfc565b91506132ba8261327b565b600282019050919050565b5f6132cf82613155565b91506132db8286612f11565b91506132e6826131c5565b91506132f18261320f565b91506132fd8285612f11565b915061330882613259565b91506133148284612e50565b915061331f826132a3565b9150819050949350505050565b7f646174613a6170706c69636174696f6e2f6a736f6e3b6261736536342c0000005f82015250565b5f613360601d83612dfc565b915061336b8261332c565b601d82019050919050565b5f61338082613354565b915061338c8284612e50565b915081905092915050565b5f60ff82169050919050565b5f6133ad82613397565b91506133b883613397565b9250828201905060ff8111156133d1576133d0612b52565b5b92915050565b7f4e6f206d6f726520746f6b656e73206c656674000000000000000000000000005f82015250565b5f61340b6013836125cf565b9150613416826133d7565b602082019050919050565b5f6020820190508181035f830152613438816133ff565b9050919050565b5f8151905061344d816128fd565b92915050565b5f6020828403121561346857613467612454565b5b5f6134758482850161343f565b91505092915050565b5f61348882612594565b91507fffffffffffffffffffffffffffffffffffffffffffffffffffffffffffffffff82036134ba576134b9612b52565b5b600182019050919050565b5f6020601f8301049050919050565b5f82821b905092915050565b5f6008830261350f7fffffffffffffffffffffffffffffffffffffffffffffffffffffffffffffffff826134d4565b61351986836134d4565b95508019841693508086168417925050509392505050565b5f819050919050565b5f61355461354f61354a84612594565b613531565b612594565b9050919050565b5f819050919050565b61356d8361353a565b6135816135798261355b565b8484546134e0565b825550505050565b5f90565b613595613589565b6135a0818484613564565b505050565b5b818110156135c3576135b85f8261358d565b6001810190506135a6565b5050565b601f821115613608576135d981612eff565b6135e2846134c5565b810160208510156135f1578190505b6136056135fd856134c5565b8301826135a5565b50505b505050565b5f82821c905092915050565b5f6136285f198460080261360d565b1980831691505092915050565b5f6136408383613619565b9150826002028217905092915050565b613659826125c5565b67ffffffffffffffff81111561367257613671612792565b5b61367c8254612af5565b6136878282856135c7565b5f60209050601f8311600181146136b8575f84156136a6578287015190505b6136b08582613635565b865550613717565b601f1984166136c686612eff565b5f5b828110156136ed578489015182556001820191506020850194506020810190506136c8565b8683101561370a5784890151613706601f891682613619565b8355505b6001600288020188555050505b505050505050565b5f61372a8284612e50565b915081905092915050565b7f31000000000000000000000000000000000000000000000000000000000000005f82015250565b5f613769600183612dfc565b915061377482613735565b600182019050919050565b5f6137898261375d565b9150819050919050565b7f4d6f6465206d75737420626520273027206f72202731270000000000000000005f82015250565b5f6137c76017836125cf565b91506137d282613793565b602082019050919050565b5f6020820190508181035f8301526137f4816137bb565b9050919050565b7f646174613a746578742f68746d6c3b6261736536342c000000000000000000005f82015250565b5f61382f601683612dfc565b915061383a826137fb565b601682019050919050565b5f61384f82613823565b915061385b8284612e50565b915081905092915050565b7f4e487b71000000000000000000000000000000000000000000000000000000005f52603160045260245ffdfe4142434445464748494a4b4c4d4e4f505152535455565758595a6162636465666768696a6b6c6d6e6f707172737475767778797a303132333435363738392b2fa26469706673582212208111c5fad32a43bed5780c9db9e169654d9577252f08416cf44614d8953758d264736f6c634300081a0033",
			"opcodes": "PUSH1 0x80 PUSH1 0x40 MSTORE PUSH1 0x1 PUSH1 0x5 SSTORE PUSH0 PUSH1 0x6 SSTORE PUSH1 0x40 MLOAD DUP1 PUSH1 0x20 ADD PUSH1 0x40 MSTORE DUP1 PUSH0 DUP2 MSTORE POP PUSH1 0xC SWAP1 DUP2 PUSH2 0x2A SWAP2 SWAP1 PUSH2 0x580 JUMP JUMPDEST POP PUSH1 0x40 MLOAD DUP1 PUSH1 0x20 ADD PUSH1 0x40 MSTORE DUP1 PUSH0 DUP2 MSTORE POP PUSH1 0xD SWAP1 DUP2 PUSH2 0x48 SWAP2 SWAP1 PUSH2 0x580 JUMP JUMPDEST POP PUSH1 0x40 MLOAD DUP1 PUSH1 0x20 ADD PUSH1 0x40 MSTORE DUP1 PUSH0 DUP2 MSTORE POP PUSH1 0xE SWAP1 DUP2 PUSH2 0x66 SWAP2 SWAP1 PUSH2 0x580 JUMP JUMPDEST POP PUSH1 0x40 MLOAD DUP1 PUSH1 0x40 ADD PUSH1 0x40 MSTORE DUP1 PUSH1 0x1 DUP2 MSTORE PUSH1 0x20 ADD PUSH32 0x3000000000000000000000000000000000000000000000000000000000000000 DUP2 MSTORE POP PUSH1 0xF SWAP1 DUP2 PUSH2 0xAB SWAP2 SWAP1 PUSH2 0x580 JUMP JUMPDEST POP CALLVALUE DUP1 ISZERO PUSH2 0xB7 JUMPI PUSH0 DUP1 REVERT JUMPDEST POP PUSH1 0x40 MLOAD PUSH2 0x41C8 CODESIZE SUB DUP1 PUSH2 0x41C8 DUP4 CODECOPY DUP2 DUP2 ADD PUSH1 0x40 MSTORE DUP2 ADD SWAP1 PUSH2 0xD9 SWAP2 SWAP1 PUSH2 0x7C9 JUMP JUMPDEST DUP6 PUSH0 PUSH20 0xFFFFFFFFFFFFFFFFFFFFFFFFFFFFFFFFFFFFFFFF AND DUP2 PUSH20 0xFFFFFFFFFFFFFFFFFFFFFFFFFFFFFFFFFFFFFFFF AND SUB PUSH2 0x14A JUMPI PUSH0 PUSH1 0x40 MLOAD PUSH32 0x1E4FBDF700000000000000000000000000000000000000000000000000000000 DUP2 MSTORE PUSH1 0x4 ADD PUSH2 0x141 SWAP2 SWAP1 PUSH2 0x899 JUMP JUMPDEST PUSH1 0x40 MLOAD DUP1 SWAP2 SUB SWAP1 REVERT JUMPDEST PUSH2 0x159 DUP2 PUSH2 0x285 PUSH1 0x20 SHL PUSH1 0x20 SHR JUMP JUMPDEST POP DUP4 PUSH1 0xD SWAP1 DUP2 PUSH2 0x169 SWAP2 SWAP1 PUSH2 0x580 JUMP JUMPDEST POP DUP3 PUSH1 0xC SWAP1 DUP2 PUSH2 0x179 SWAP2 SWAP1 PUSH2 0x580 JUMP JUMPDEST POP DUP5 PUSH1 0x7 PUSH0 PUSH2 0x100 EXP DUP2 SLOAD DUP2 PUSH20 0xFFFFFFFFFFFFFFFFFFFFFFFFFFFFFFFFFFFFFFFF MUL NOT AND SWAP1 DUP4 PUSH20 0xFFFFFFFFFFFFFFFFFFFFFFFFFFFFFFFFFFFFFFFF AND MUL OR SWAP1 SSTORE POP DUP6 PUSH1 0x8 PUSH0 PUSH2 0x100 EXP DUP2 SLOAD DUP2 PUSH20 0xFFFFFFFFFFFFFFFFFFFFFFFFFFFFFFFFFFFFFFFF MUL NOT AND SWAP1 DUP4 PUSH20 0xFFFFFFFFFFFFFFFFFFFFFFFFFFFFFFFFFFFFFFFF AND MUL OR SWAP1 SSTORE POP DUP2 PUSH1 0x3 PUSH0 PUSH2 0x100 EXP DUP2 SLOAD DUP2 PUSH20 0xFFFFFFFFFFFFFFFFFFFFFFFFFFFFFFFFFFFFFFFF MUL NOT AND SWAP1 DUP4 PUSH20 0xFFFFFFFFFFFFFFFFFFFFFFFFFFFFFFFFFFFFFFFF AND MUL OR SWAP1 SSTORE POP DUP1 PUSH1 0x4 PUSH0 PUSH2 0x100 EXP DUP2 SLOAD DUP2 PUSH20 0xFFFFFFFFFFFFFFFFFFFFFFFFFFFFFFFFFFFFFFFF MUL NOT AND SWAP1 DUP4 PUSH20 0xFFFFFFFFFFFFFFFFFFFFFFFFFFFFFFFFFFFFFFFF AND MUL OR SWAP1 SSTORE POP POP POP POP POP POP POP PUSH2 0x8B2 JUMP JUMPDEST PUSH0 DUP1 PUSH0 SWAP1 SLOAD SWAP1 PUSH2 0x100 EXP SWAP1 DIV PUSH20 0xFFFFFFFFFFFFFFFFFFFFFFFFFFFFFFFFFFFFFFFF AND SWAP1 POP DUP2 PUSH0 DUP1 PUSH2 0x100 EXP DUP2 SLOAD DUP2 PUSH20 0xFFFFFFFFFFFFFFFFFFFFFFFFFFFFFFFFFFFFFFFF MUL NOT AND SWAP1 DUP4 PUSH20 0xFFFFFFFFFFFFFFFFFFFFFFFFFFFFFFFFFFFFFFFF AND MUL OR SWAP1 SSTORE POP DUP2 PUSH20 0xFFFFFFFFFFFFFFFFFFFFFFFFFFFFFFFFFFFFFFFF AND DUP2 PUSH20 0xFFFFFFFFFFFFFFFFFFFFFFFFFFFFFFFFFFFFFFFF AND PUSH32 0x8BE0079C531659141344CD1FD0A4F28419497F9722A3DAAFE3B4186F6B6457E0 PUSH1 0x40 MLOAD PUSH1 0x40 MLOAD DUP1 SWAP2 SUB SWAP1 LOG3 POP POP JUMP JUMPDEST PUSH0 DUP2 MLOAD SWAP1 POP SWAP2 SWAP1 POP JUMP JUMPDEST PUSH32 0x4E487B7100000000000000000000000000000000000000000000000000000000 PUSH0 MSTORE PUSH1 0x41 PUSH1 0x4 MSTORE PUSH1 0x24 PUSH0 REVERT JUMPDEST PUSH32 0x4E487B7100000000000000000000000000000000000000000000000000000000 PUSH0 MSTORE PUSH1 0x22 PUSH1 0x4 MSTORE PUSH1 0x24 PUSH0 REVERT JUMPDEST PUSH0 PUSH1 0x2 DUP3 DIV SWAP1 POP PUSH1 0x1 DUP3 AND DUP1 PUSH2 0x3C1 JUMPI PUSH1 0x7F DUP3 AND SWAP2 POP JUMPDEST PUSH1 0x20 DUP3 LT DUP2 SUB PUSH2 0x3D4 JUMPI PUSH2 0x3D3 PUSH2 0x37D JUMP JUMPDEST JUMPDEST POP SWAP2 SWAP1 POP JUMP JUMPDEST PUSH0 DUP2 SWAP1 POP DUP2 PUSH0 MSTORE PUSH1 0x20 PUSH0 KECCAK256 SWAP1 POP SWAP2 SWAP1 POP JUMP JUMPDEST PUSH0 PUSH1 0x20 PUSH1 0x1F DUP4 ADD DIV SWAP1 POP SWAP2 SWAP1 POP JUMP JUMPDEST PUSH0 DUP3 DUP3 SHL SWAP1 POP SWAP3 SWAP2 POP POP JUMP JUMPDEST PUSH0 PUSH1 0x8 DUP4 MUL PUSH2 0x436 PUSH32 0xFFFFFFFFFFFFFFFFFFFFFFFFFFFFFFFFFFFFFFFFFFFFFFFFFFFFFFFFFFFFFFFF DUP3 PUSH2 0x3FB JUMP JUMPDEST PUSH2 0x440 DUP7 DUP4 PUSH2 0x3FB JUMP JUMPDEST SWAP6 POP DUP1 NOT DUP5 AND SWAP4 POP DUP1 DUP7 AND DUP5 OR SWAP3 POP POP POP SWAP4 SWAP3 POP POP POP JUMP JUMPDEST PUSH0 DUP2 SWAP1 POP SWAP2 SWAP1 POP JUMP JUMPDEST PUSH0 DUP2 SWAP1 POP SWAP2 SWAP1 POP JUMP JUMPDEST PUSH0 PUSH2 0x484 PUSH2 0x47F PUSH2 0x47A DUP5 PUSH2 0x458 JUMP JUMPDEST PUSH2 0x461 JUMP JUMPDEST PUSH2 0x458 JUMP JUMPDEST SWAP1 POP SWAP2 SWAP1 POP JUMP JUMPDEST PUSH0 DUP2 SWAP1 POP SWAP2 SWAP1 POP JUMP JUMPDEST PUSH2 0x49D DUP4 PUSH2 0x46A JUMP JUMPDEST PUSH2 0x4B1 PUSH2 0x4A9 DUP3 PUSH2 0x48B JUMP JUMPDEST DUP5 DUP5 SLOAD PUSH2 0x407 JUMP JUMPDEST DUP3 SSTORE POP POP POP POP JUMP JUMPDEST PUSH0 SWAP1 JUMP JUMPDEST PUSH2 0x4C5 PUSH2 0x4B9 JUMP JUMPDEST PUSH2 0x4D0 DUP2 DUP5 DUP5 PUSH2 0x494 JUMP JUMPDEST POP POP POP JUMP JUMPDEST JUMPDEST DUP2 DUP2 LT ISZERO PUSH2 0x4F3 JUMPI PUSH2 0x4E8 PUSH0 DUP3 PUSH2 0x4BD JUMP JUMPDEST PUSH1 0x1 DUP2 ADD SWAP1 POP PUSH2 0x4D6 JUMP JUMPDEST POP POP JUMP JUMPDEST PUSH1 0x1F DUP3 GT ISZERO PUSH2 0x538 JUMPI PUSH2 0x509 DUP2 PUSH2 0x3DA JUMP JUMPDEST PUSH2 0x512 DUP5 PUSH2 0x3EC JUMP JUMPDEST DUP2 ADD PUSH1 0x20 DUP6 LT ISZERO PUSH2 0x521 JUMPI DUP2 SWAP1 POP JUMPDEST PUSH2 0x535 PUSH2 0x52D DUP6 PUSH2 0x3EC JUMP JUMPDEST DUP4 ADD DUP3 PUSH2 0x4D5 JUMP JUMPDEST POP POP JUMPDEST POP POP POP JUMP JUMPDEST PUSH0 DUP3 DUP3 SHR SWAP1 POP SWAP3 SWAP2 POP POP JUMP JUMPDEST PUSH0 PUSH2 0x558 PUSH0 NOT DUP5 PUSH1 0x8 MUL PUSH2 0x53D JUMP JUMPDEST NOT DUP1 DUP4 AND SWAP2 POP POP SWAP3 SWAP2 POP POP JUMP JUMPDEST PUSH0 PUSH2 0x570 DUP4 DUP4 PUSH2 0x549 JUMP JUMPDEST SWAP2 POP DUP3 PUSH1 0x2 MUL DUP3 OR SWAP1 POP SWAP3 SWAP2 POP POP JUMP JUMPDEST PUSH2 0x589 DUP3 PUSH2 0x346 JUMP JUMPDEST PUSH8 0xFFFFFFFFFFFFFFFF DUP2 GT ISZERO PUSH2 0x5A2 JUMPI PUSH2 0x5A1 PUSH2 0x350 JUMP JUMPDEST JUMPDEST PUSH2 0x5AC DUP3 SLOAD PUSH2 0x3AA JUMP JUMPDEST PUSH2 0x5B7 DUP3 DUP3 DUP6 PUSH2 0x4F7 JUMP JUMPDEST PUSH0 PUSH1 0x20 SWAP1 POP PUSH1 0x1F DUP4 GT PUSH1 0x1 DUP2 EQ PUSH2 0x5E8 JUMPI PUSH0 DUP5 ISZERO PUSH2 0x5D6 JUMPI DUP3 DUP8 ADD MLOAD SWAP1 POP JUMPDEST PUSH2 0x5E0 DUP6 DUP3 PUSH2 0x565 JUMP JUMPDEST DUP7 SSTORE POP PUSH2 0x647 JUMP JUMPDEST PUSH1 0x1F NOT DUP5 AND PUSH2 0x5F6 DUP7 PUSH2 0x3DA JUMP JUMPDEST PUSH0 JUMPDEST DUP3 DUP2 LT ISZERO PUSH2 0x61D JUMPI DUP5 DUP10 ADD MLOAD DUP3 SSTORE PUSH1 0x1 DUP3 ADD SWAP2 POP PUSH1 0x20 DUP6 ADD SWAP5 POP PUSH1 0x20 DUP2 ADD SWAP1 POP PUSH2 0x5F8 JUMP JUMPDEST DUP7 DUP4 LT ISZERO PUSH2 0x63A JUMPI DUP5 DUP10 ADD MLOAD PUSH2 0x636 PUSH1 0x1F DUP10 AND DUP3 PUSH2 0x549 JUMP JUMPDEST DUP4 SSTORE POP JUMPDEST PUSH1 0x1 PUSH1 0x2 DUP9 MUL ADD DUP9 SSTORE POP POP POP JUMPDEST POP POP POP POP POP POP JUMP JUMPDEST PUSH0 PUSH1 0x40 MLOAD SWAP1 POP SWAP1 JUMP JUMPDEST PUSH0 DUP1 REVERT JUMPDEST PUSH0 DUP1 REVERT JUMPDEST PUSH0 PUSH20 0xFFFFFFFFFFFFFFFFFFFFFFFFFFFFFFFFFFFFFFFF DUP3 AND SWAP1 POP SWAP2 SWAP1 POP JUMP JUMPDEST PUSH0 PUSH2 0x689 DUP3 PUSH2 0x660 JUMP JUMPDEST SWAP1 POP SWAP2 SWAP1 POP JUMP JUMPDEST PUSH2 0x699 DUP2 PUSH2 0x67F JUMP JUMPDEST DUP2 EQ PUSH2 0x6A3 JUMPI PUSH0 DUP1 REVERT JUMPDEST POP JUMP JUMPDEST PUSH0 DUP2 MLOAD SWAP1 POP PUSH2 0x6B4 DUP2 PUSH2 0x690 JUMP JUMPDEST SWAP3 SWAP2 POP POP JUMP JUMPDEST PUSH0 DUP1 REVERT JUMPDEST PUSH0 DUP1 REVERT JUMPDEST PUSH0 PUSH1 0x1F NOT PUSH1 0x1F DUP4 ADD AND SWAP1 POP SWAP2 SWAP1 POP JUMP JUMPDEST PUSH2 0x6DB DUP3 PUSH2 0x6C2 JUMP JUMPDEST DUP2 ADD DUP2 DUP2 LT PUSH8 0xFFFFFFFFFFFFFFFF DUP3 GT OR ISZERO PUSH2 0x6FA JUMPI PUSH2 0x6F9 PUSH2 0x350 JUMP JUMPDEST JUMPDEST DUP1 PUSH1 0x40 MSTORE POP POP POP JUMP JUMPDEST PUSH0 PUSH2 0x70C PUSH2 0x64F JUMP JUMPDEST SWAP1 POP PUSH2 0x718 DUP3 DUP3 PUSH2 0x6D2 JUMP JUMPDEST SWAP2 SWAP1 POP JUMP JUMPDEST PUSH0 PUSH8 0xFFFFFFFFFFFFFFFF DUP3 GT ISZERO PUSH2 0x737 JUMPI PUSH2 0x736 PUSH2 0x350 JUMP JUMPDEST JUMPDEST PUSH2 0x740 DUP3 PUSH2 0x6C2 JUMP JUMPDEST SWAP1 POP PUSH1 0x20 DUP2 ADD SWAP1 POP SWAP2 SWAP1 POP JUMP JUMPDEST DUP3 DUP2 DUP4 MCOPY PUSH0 DUP4 DUP4 ADD MSTORE POP POP POP JUMP JUMPDEST PUSH0 PUSH2 0x76D PUSH2 0x768 DUP5 PUSH2 0x71D JUMP JUMPDEST PUSH2 0x703 JUMP JUMPDEST SWAP1 POP DUP3 DUP2 MSTORE PUSH1 0x20 DUP2 ADD DUP5 DUP5 DUP5 ADD GT ISZERO PUSH2 0x789 JUMPI PUSH2 0x788 PUSH2 0x6BE JUMP JUMPDEST JUMPDEST PUSH2 0x794 DUP5 DUP3 DUP6 PUSH2 0x74D JUMP JUMPDEST POP SWAP4 SWAP3 POP POP POP JUMP JUMPDEST PUSH0 DUP3 PUSH1 0x1F DUP4 ADD SLT PUSH2 0x7B0 JUMPI PUSH2 0x7AF PUSH2 0x6BA JUMP JUMPDEST JUMPDEST DUP2 MLOAD PUSH2 0x7C0 DUP5 DUP3 PUSH1 0x20 DUP7 ADD PUSH2 0x75B JUMP JUMPDEST SWAP2 POP POP SWAP3 SWAP2 POP POP JUMP JUMPDEST PUSH0 DUP1 PUSH0 DUP1 PUSH0 DUP1 PUSH1 0xC0 DUP8 DUP10 SUB SLT ISZERO PUSH2 0x7E3 JUMPI PUSH2 0x7E2 PUSH2 0x658 JUMP JUMPDEST JUMPDEST PUSH0 PUSH2 0x7F0 DUP10 DUP3 DUP11 ADD PUSH2 0x6A6 JUMP JUMPDEST SWAP7 POP POP PUSH1 0x20 PUSH2 0x801 DUP10 DUP3 DUP11 ADD PUSH2 0x6A6 JUMP JUMPDEST SWAP6 POP POP PUSH1 0x40 DUP8 ADD MLOAD PUSH8 0xFFFFFFFFFFFFFFFF DUP2 GT ISZERO PUSH2 0x822 JUMPI PUSH2 0x821 PUSH2 0x65C JUMP JUMPDEST JUMPDEST PUSH2 0x82E DUP10 DUP3 DUP11 ADD PUSH2 0x79C JUMP JUMPDEST SWAP5 POP POP PUSH1 0x60 DUP8 ADD MLOAD PUSH8 0xFFFFFFFFFFFFFFFF DUP2 GT ISZERO PUSH2 0x84F JUMPI PUSH2 0x84E PUSH2 0x65C JUMP JUMPDEST JUMPDEST PUSH2 0x85B DUP10 DUP3 DUP11 ADD PUSH2 0x79C JUMP JUMPDEST SWAP4 POP POP PUSH1 0x80 PUSH2 0x86C DUP10 DUP3 DUP11 ADD PUSH2 0x6A6 JUMP JUMPDEST SWAP3 POP POP PUSH1 0xA0 PUSH2 0x87D DUP10 DUP3 DUP11 ADD PUSH2 0x6A6 JUMP JUMPDEST SWAP2 POP POP SWAP3 SWAP6 POP SWAP3 SWAP6 POP SWAP3 SWAP6 JUMP JUMPDEST PUSH2 0x893 DUP2 PUSH2 0x67F JUMP JUMPDEST DUP3 MSTORE POP POP JUMP JUMPDEST PUSH0 PUSH1 0x20 DUP3 ADD SWAP1 POP PUSH2 0x8AC PUSH0 DUP4 ADD DUP5 PUSH2 0x88A JUMP JUMPDEST SWAP3 SWAP2 POP POP JUMP JUMPDEST PUSH2 0x3909 DUP1 PUSH2 0x8BF PUSH0 CODECOPY PUSH0 RETURN INVALID PUSH1 0x80 PUSH1 0x40 MSTORE PUSH1 0x4 CALLDATASIZE LT PUSH2 0x1ED JUMPI PUSH0 CALLDATALOAD PUSH1 0xE0 SHR DUP1 PUSH4 0x6A627842 GT PUSH2 0x10C JUMPI DUP1 PUSH4 0xB2BDFA7B GT PUSH2 0x9F JUMPI DUP1 PUSH4 0xD5ABEB01 GT PUSH2 0x6E JUMPI DUP1 PUSH4 0xD5ABEB01 EQ PUSH2 0x6C1 JUMPI DUP1 PUSH4 0xDCFE6D8F EQ PUSH2 0x6EB JUMPI DUP1 PUSH4 0xE9DC6375 EQ PUSH2 0x713 JUMPI DUP1 PUSH4 0xF2FDE38B EQ PUSH2 0x74F JUMPI DUP1 PUSH4 0xF76F950E EQ PUSH2 0x777 JUMPI PUSH2 0x1ED JUMP JUMPDEST DUP1 PUSH4 0xB2BDFA7B EQ PUSH2 0x609 JUMPI DUP1 PUSH4 0xBC8BDE64 EQ PUSH2 0x633 JUMPI DUP1 PUSH4 0xC038FE04 EQ PUSH2 0x65D JUMPI DUP1 PUSH4 0xC47F0027 EQ PUSH2 0x699 JUMPI PUSH2 0x1ED JUMP JUMPDEST DUP1 PUSH4 0x853828B6 GT PUSH2 0xDB JUMPI DUP1 PUSH4 0x853828B6 EQ PUSH2 0x579 JUMPI DUP1 PUSH4 0x8DA5CB5B EQ PUSH2 0x58F JUMPI DUP1 PUSH4 0x90C3F38F EQ PUSH2 0x5B9 JUMPI DUP1 PUSH4 0xA84FD0ED EQ PUSH2 0x5E1 JUMPI PUSH2 0x1ED JUMP JUMPDEST DUP1 PUSH4 0x6A627842 EQ PUSH2 0x4F7 JUMPI DUP1 PUSH4 0x6D73E669 EQ PUSH2 0x513 JUMPI DUP1 PUSH4 0x715018A6 EQ PUSH2 0x53B JUMPI DUP1 PUSH4 0x725F0AAF EQ PUSH2 0x551 JUMPI PUSH2 0x1ED JUMP JUMPDEST DUP1 PUSH4 0x34EEF5A9 GT PUSH2 0x184 JUMPI DUP1 PUSH4 0x413620D4 GT PUSH2 0x153 JUMPI DUP1 PUSH4 0x413620D4 EQ PUSH2 0x419 JUMPI DUP1 PUSH4 0x4B4FD03B EQ PUSH2 0x455 JUMPI DUP1 PUSH4 0x5721421D EQ PUSH2 0x47F JUMPI DUP1 PUSH4 0x69F9AD2F EQ PUSH2 0x4BB JUMPI PUSH2 0x1ED JUMP JUMPDEST DUP1 PUSH4 0x34EEF5A9 EQ PUSH2 0x361 JUMPI DUP1 PUSH4 0x358F63AC EQ PUSH2 0x389 JUMPI DUP1 PUSH4 0x3DF18E0A EQ PUSH2 0x3B3 JUMPI DUP1 PUSH4 0x3EAAF86B EQ PUSH2 0x3EF JUMPI PUSH2 0x1ED JUMP JUMPDEST DUP1 PUSH4 0x24D7806C GT PUSH2 0x1C0 JUMPI DUP1 PUSH4 0x24D7806C EQ PUSH2 0x2A9 JUMPI DUP1 PUSH4 0x295A5212 EQ PUSH2 0x2E5 JUMPI DUP1 PUSH4 0x2D345670 EQ PUSH2 0x30F JUMPI DUP1 PUSH4 0x31AE450B EQ PUSH2 0x337 JUMPI PUSH2 0x1ED JUMP JUMPDEST DUP1 PUSH4 0x1FFC9A7 EQ PUSH2 0x1F1 JUMPI DUP1 PUSH4 0x16363898 EQ PUSH2 0x22D JUMPI DUP1 PUSH4 0x18160DDD EQ PUSH2 0x255 JUMPI DUP1 PUSH4 0x22F4596F EQ PUSH2 0x27F JUMPI JUMPDEST PUSH0 DUP1 REVERT JUMPDEST CALLVALUE DUP1 ISZERO PUSH2 0x1FC JUMPI PUSH0 DUP1 REVERT JUMPDEST POP PUSH2 0x217 PUSH1 0x4 DUP1 CALLDATASIZE SUB DUP2 ADD SWAP1 PUSH2 0x212 SWAP2 SWAP1 PUSH2 0x24B1 JUMP JUMPDEST PUSH2 0x7B3 JUMP JUMPDEST PUSH1 0x40 MLOAD PUSH2 0x224 SWAP2 SWAP1 PUSH2 0x24F6 JUMP JUMPDEST PUSH1 0x40 MLOAD DUP1 SWAP2 SUB SWAP1 RETURN JUMPDEST CALLVALUE DUP1 ISZERO PUSH2 0x238 JUMPI PUSH0 DUP1 REVERT JUMPDEST POP PUSH2 0x253 PUSH1 0x4 DUP1 CALLDATASIZE SUB DUP2 ADD SWAP1 PUSH2 0x24E SWAP2 SWAP1 PUSH2 0x2569 JUMP JUMPDEST PUSH2 0x8FC JUMP JUMPDEST STOP JUMPDEST CALLVALUE DUP1 ISZERO PUSH2 0x260 JUMPI PUSH0 DUP1 REVERT JUMPDEST POP PUSH2 0x269 PUSH2 0xA16 JUMP JUMPDEST PUSH1 0x40 MLOAD PUSH2 0x276 SWAP2 SWAP1 PUSH2 0x25AC JUMP JUMPDEST PUSH1 0x40 MLOAD DUP1 SWAP2 SUB SWAP1 RETURN JUMPDEST CALLVALUE DUP1 ISZERO PUSH2 0x28A JUMPI PUSH0 DUP1 REVERT JUMPDEST POP PUSH2 0x293 PUSH2 0xA1F JUMP JUMPDEST PUSH1 0x40 MLOAD PUSH2 0x2A0 SWAP2 SWAP1 PUSH2 0x25AC JUMP JUMPDEST PUSH1 0x40 MLOAD DUP1 SWAP2 SUB SWAP1 RETURN JUMPDEST CALLVALUE DUP1 ISZERO PUSH2 0x2B4 JUMPI PUSH0 DUP1 REVERT JUMPDEST POP PUSH2 0x2CF PUSH1 0x4 DUP1 CALLDATASIZE SUB DUP2 ADD SWAP1 PUSH2 0x2CA SWAP2 SWAP1 PUSH2 0x2569 JUMP JUMPDEST PUSH2 0xA25 JUMP JUMPDEST PUSH1 0x40 MLOAD PUSH2 0x2DC SWAP2 SWAP1 PUSH2 0x24F6 JUMP JUMPDEST PUSH1 0x40 MLOAD DUP1 SWAP2 SUB SWAP1 RETURN JUMPDEST CALLVALUE DUP1 ISZERO PUSH2 0x2F0 JUMPI PUSH0 DUP1 REVERT JUMPDEST POP PUSH2 0x2F9 PUSH2 0xA7E JUMP JUMPDEST PUSH1 0x40 MLOAD PUSH2 0x306 SWAP2 SWAP1 PUSH2 0x2635 JUMP JUMPDEST PUSH1 0x40 MLOAD DUP1 SWAP2 SUB SWAP1 RETURN JUMPDEST CALLVALUE DUP1 ISZERO PUSH2 0x31A JUMPI PUSH0 DUP1 REVERT JUMPDEST POP PUSH2 0x335 PUSH1 0x4 DUP1 CALLDATASIZE SUB DUP2 ADD SWAP1 PUSH2 0x330 SWAP2 SWAP1 PUSH2 0x2569 JUMP JUMPDEST PUSH2 0xB0A JUMP JUMPDEST STOP JUMPDEST CALLVALUE DUP1 ISZERO PUSH2 0x342 JUMPI PUSH0 DUP1 REVERT JUMPDEST POP PUSH2 0x34B PUSH2 0xB9E JUMP JUMPDEST PUSH1 0x40 MLOAD PUSH2 0x358 SWAP2 SWAP1 PUSH2 0x270C JUMP JUMPDEST PUSH1 0x40 MLOAD DUP1 SWAP2 SUB SWAP1 RETURN JUMPDEST CALLVALUE DUP1 ISZERO PUSH2 0x36C JUMPI PUSH0 DUP1 REVERT JUMPDEST POP PUSH2 0x387 PUSH1 0x4 DUP1 CALLDATASIZE SUB DUP2 ADD SWAP1 PUSH2 0x382 SWAP2 SWAP1 PUSH2 0x2569 JUMP JUMPDEST PUSH2 0xC79 JUMP JUMPDEST STOP JUMPDEST CALLVALUE DUP1 ISZERO PUSH2 0x394 JUMPI PUSH0 DUP1 REVERT JUMPDEST POP PUSH2 0x39D PUSH2 0xD4E JUMP JUMPDEST PUSH1 0x40 MLOAD PUSH2 0x3AA SWAP2 SWAP1 PUSH2 0x2635 JUMP JUMPDEST PUSH1 0x40 MLOAD DUP1 SWAP2 SUB SWAP1 RETURN JUMPDEST CALLVALUE DUP1 ISZERO PUSH2 0x3BE JUMPI PUSH0 DUP1 REVERT JUMPDEST POP PUSH2 0x3D9 PUSH1 0x4 DUP1 CALLDATASIZE SUB DUP2 ADD SWAP1 PUSH2 0x3D4 SWAP2 SWAP1 PUSH2 0x275F JUMP JUMPDEST PUSH2 0xDDA JUMP JUMPDEST PUSH1 0x40 MLOAD PUSH2 0x3E6 SWAP2 SWAP1 PUSH2 0x2635 JUMP JUMPDEST PUSH1 0x40 MLOAD DUP1 SWAP2 SUB SWAP1 RETURN JUMPDEST CALLVALUE DUP1 ISZERO PUSH2 0x3FA JUMPI PUSH0 DUP1 REVERT JUMPDEST POP PUSH2 0x403 PUSH2 0xF76 JUMP JUMPDEST PUSH1 0x40 MLOAD PUSH2 0x410 SWAP2 SWAP1 PUSH2 0x25AC JUMP JUMPDEST PUSH1 0x40 MLOAD DUP1 SWAP2 SUB SWAP1 RETURN JUMPDEST CALLVALUE DUP1 ISZERO PUSH2 0x424 JUMPI PUSH0 DUP1 REVERT JUMPDEST POP PUSH2 0x43F PUSH1 0x4 DUP1 CALLDATASIZE SUB DUP2 ADD SWAP1 PUSH2 0x43A SWAP2 SWAP1 PUSH2 0x28B6 JUMP JUMPDEST PUSH2 0xF7C JUMP JUMPDEST PUSH1 0x40 MLOAD PUSH2 0x44C SWAP2 SWAP1 PUSH2 0x2635 JUMP JUMPDEST PUSH1 0x40 MLOAD DUP1 SWAP2 SUB SWAP1 RETURN JUMPDEST CALLVALUE DUP1 ISZERO PUSH2 0x460 JUMPI PUSH0 DUP1 REVERT JUMPDEST POP PUSH2 0x469 PUSH2 0xFAD JUMP JUMPDEST PUSH1 0x40 MLOAD PUSH2 0x476 SWAP2 SWAP1 PUSH2 0x2635 JUMP JUMPDEST PUSH1 0x40 MLOAD DUP1 SWAP2 SUB SWAP1 RETURN JUMPDEST CALLVALUE DUP1 ISZERO PUSH2 0x48A JUMPI PUSH0 DUP1 REVERT JUMPDEST POP PUSH2 0x4A5 PUSH1 0x4 DUP1 CALLDATASIZE SUB DUP2 ADD SWAP1 PUSH2 0x4A0 SWAP2 SWAP1 PUSH2 0x2927 JUMP JUMPDEST PUSH2 0x1078 JUMP JUMPDEST PUSH1 0x40 MLOAD PUSH2 0x4B2 SWAP2 SWAP1 PUSH2 0x2635 JUMP JUMPDEST PUSH1 0x40 MLOAD DUP1 SWAP2 SUB SWAP1 RETURN JUMPDEST CALLVALUE DUP1 ISZERO PUSH2 0x4C6 JUMPI PUSH0 DUP1 REVERT JUMPDEST POP PUSH2 0x4E1 PUSH1 0x4 DUP1 CALLDATASIZE SUB DUP2 ADD SWAP1 PUSH2 0x4DC SWAP2 SWAP1 PUSH2 0x29A7 JUMP JUMPDEST PUSH2 0x12BF JUMP JUMPDEST PUSH1 0x40 MLOAD PUSH2 0x4EE SWAP2 SWAP1 PUSH2 0x29E1 JUMP JUMPDEST PUSH1 0x40 MLOAD DUP1 SWAP2 SUB SWAP1 RETURN JUMPDEST PUSH2 0x511 PUSH1 0x4 DUP1 CALLDATASIZE SUB DUP2 ADD SWAP1 PUSH2 0x50C SWAP2 SWAP1 PUSH2 0x2569 JUMP JUMPDEST PUSH2 0x1323 JUMP JUMPDEST STOP JUMPDEST CALLVALUE DUP1 ISZERO PUSH2 0x51E JUMPI PUSH0 DUP1 REVERT JUMPDEST POP PUSH2 0x539 PUSH1 0x4 DUP1 CALLDATASIZE SUB DUP2 ADD SWAP1 PUSH2 0x534 SWAP2 SWAP1 PUSH2 0x2569 JUMP JUMPDEST PUSH2 0x14AC JUMP JUMPDEST STOP JUMPDEST CALLVALUE DUP1 ISZERO PUSH2 0x546 JUMPI PUSH0 DUP1 REVERT JUMPDEST POP PUSH2 0x54F PUSH2 0x153F JUMP JUMPDEST STOP JUMPDEST CALLVALUE DUP1 ISZERO PUSH2 0x55C JUMPI PUSH0 DUP1 REVERT JUMPDEST POP PUSH2 0x577 PUSH1 0x4 DUP1 CALLDATASIZE SUB DUP2 ADD SWAP1 PUSH2 0x572 SWAP2 SWAP1 PUSH2 0x2569 JUMP JUMPDEST PUSH2 0x1552 JUMP JUMPDEST STOP JUMPDEST CALLVALUE DUP1 ISZERO PUSH2 0x584 JUMPI PUSH0 DUP1 REVERT JUMPDEST POP PUSH2 0x58D PUSH2 0x166C JUMP JUMPDEST STOP JUMPDEST CALLVALUE DUP1 ISZERO PUSH2 0x59A JUMPI PUSH0 DUP1 REVERT JUMPDEST POP PUSH2 0x5A3 PUSH2 0x1781 JUMP JUMPDEST PUSH1 0x40 MLOAD PUSH2 0x5B0 SWAP2 SWAP1 PUSH2 0x2A09 JUMP JUMPDEST PUSH1 0x40 MLOAD DUP1 SWAP2 SUB SWAP1 RETURN JUMPDEST CALLVALUE DUP1 ISZERO PUSH2 0x5C4 JUMPI PUSH0 DUP1 REVERT JUMPDEST POP PUSH2 0x5DF PUSH1 0x4 DUP1 CALLDATASIZE SUB DUP2 ADD SWAP1 PUSH2 0x5DA SWAP2 SWAP1 PUSH2 0x28B6 JUMP JUMPDEST PUSH2 0x17A8 JUMP JUMPDEST STOP JUMPDEST CALLVALUE DUP1 ISZERO PUSH2 0x5EC JUMPI PUSH0 DUP1 REVERT JUMPDEST POP PUSH2 0x607 PUSH1 0x4 DUP1 CALLDATASIZE SUB DUP2 ADD SWAP1 PUSH2 0x602 SWAP2 SWAP1 PUSH2 0x28B6 JUMP JUMPDEST PUSH2 0x1892 JUMP JUMPDEST STOP JUMPDEST CALLVALUE DUP1 ISZERO PUSH2 0x614 JUMPI PUSH0 DUP1 REVERT JUMPDEST POP PUSH2 0x61D PUSH2 0x1985 JUMP JUMPDEST PUSH1 0x40 MLOAD PUSH2 0x62A SWAP2 SWAP1 PUSH2 0x2A09 JUMP JUMPDEST PUSH1 0x40 MLOAD DUP1 SWAP2 SUB SWAP1 RETURN JUMPDEST CALLVALUE DUP1 ISZERO PUSH2 0x63E JUMPI PUSH0 DUP1 REVERT JUMPDEST POP PUSH2 0x647 PUSH2 0x19AA JUMP JUMPDEST PUSH1 0x40 MLOAD PUSH2 0x654 SWAP2 SWAP1 PUSH2 0x2A09 JUMP JUMPDEST PUSH1 0x40 MLOAD DUP1 SWAP2 SUB SWAP1 RETURN JUMPDEST CALLVALUE DUP1 ISZERO PUSH2 0x668 JUMPI PUSH0 DUP1 REVERT JUMPDEST POP PUSH2 0x683 PUSH1 0x4 DUP1 CALLDATASIZE SUB DUP2 ADD SWAP1 PUSH2 0x67E SWAP2 SWAP1 PUSH2 0x28B6 JUMP JUMPDEST PUSH2 0x19CF JUMP JUMPDEST PUSH1 0x40 MLOAD PUSH2 0x690 SWAP2 SWAP1 PUSH2 0x2635 JUMP JUMPDEST PUSH1 0x40 MLOAD DUP1 SWAP2 SUB SWAP1 RETURN JUMPDEST CALLVALUE DUP1 ISZERO PUSH2 0x6A4 JUMPI PUSH0 DUP1 REVERT JUMPDEST POP PUSH2 0x6BF PUSH1 0x4 DUP1 CALLDATASIZE SUB DUP2 ADD SWAP1 PUSH2 0x6BA SWAP2 SWAP1 PUSH2 0x28B6 JUMP JUMPDEST PUSH2 0x1A00 JUMP JUMPDEST STOP JUMPDEST CALLVALUE DUP1 ISZERO PUSH2 0x6CC JUMPI PUSH0 DUP1 REVERT JUMPDEST POP PUSH2 0x6D5 PUSH2 0x1AEA JUMP JUMPDEST PUSH1 0x40 MLOAD PUSH2 0x6E2 SWAP2 SWAP1 PUSH2 0x25AC JUMP JUMPDEST PUSH1 0x40 MLOAD DUP1 SWAP2 SUB SWAP1 RETURN JUMPDEST CALLVALUE DUP1 ISZERO PUSH2 0x6F6 JUMPI PUSH0 DUP1 REVERT JUMPDEST POP PUSH2 0x711 PUSH1 0x4 DUP1 CALLDATASIZE SUB DUP2 ADD SWAP1 PUSH2 0x70C SWAP2 SWAP1 PUSH2 0x28B6 JUMP JUMPDEST PUSH2 0x1AF2 JUMP JUMPDEST STOP JUMPDEST CALLVALUE DUP1 ISZERO PUSH2 0x71E JUMPI PUSH0 DUP1 REVERT JUMPDEST POP PUSH2 0x739 PUSH1 0x4 DUP1 CALLDATASIZE SUB DUP2 ADD SWAP1 PUSH2 0x734 SWAP2 SWAP1 PUSH2 0x2A22 JUMP JUMPDEST PUSH2 0x1BDC JUMP JUMPDEST PUSH1 0x40 MLOAD PUSH2 0x746 SWAP2 SWAP1 PUSH2 0x2635 JUMP JUMPDEST PUSH1 0x40 MLOAD DUP1 SWAP2 SUB SWAP1 RETURN JUMPDEST CALLVALUE DUP1 ISZERO PUSH2 0x75A JUMPI PUSH0 DUP1 REVERT JUMPDEST POP PUSH2 0x775 PUSH1 0x4 DUP1 CALLDATASIZE SUB DUP2 ADD SWAP1 PUSH2 0x770 SWAP2 SWAP1 PUSH2 0x2569 JUMP JUMPDEST PUSH2 0x1BEF JUMP JUMPDEST STOP JUMPDEST CALLVALUE DUP1 ISZERO PUSH2 0x782 JUMPI PUSH0 DUP1 REVERT JUMPDEST POP PUSH2 0x79D PUSH1 0x4 DUP1 CALLDATASIZE SUB DUP2 ADD SWAP1 PUSH2 0x798 SWAP2 SWAP1 PUSH2 0x2927 JUMP JUMPDEST PUSH2 0x1C73 JUMP JUMPDEST PUSH1 0x40 MLOAD PUSH2 0x7AA SWAP2 SWAP1 PUSH2 0x2635 JUMP JUMPDEST PUSH1 0x40 MLOAD DUP1 SWAP2 SUB SWAP1 RETURN JUMPDEST PUSH0 PUSH32 0xE9DC637500000000000000000000000000000000000000000000000000000000 PUSH28 0xFFFFFFFFFFFFFFFFFFFFFFFFFFFFFFFFFFFFFFFFFFFFFFFFFFFFFFFF NOT AND DUP3 PUSH28 0xFFFFFFFFFFFFFFFFFFFFFFFFFFFFFFFFFFFFFFFFFFFFFFFFFFFFFFFF NOT AND EQ DUP1 PUSH2 0x87D JUMPI POP PUSH32 0xA7DF9E9E00000000000000000000000000000000000000000000000000000000 PUSH28 0xFFFFFFFFFFFFFFFFFFFFFFFFFFFFFFFFFFFFFFFFFFFFFFFFFFFFFFFF NOT AND DUP3 PUSH28 0xFFFFFFFFFFFFFFFFFFFFFFFFFFFFFFFFFFFFFFFFFFFFFFFFFFFFFFFF NOT AND EQ JUMPDEST DUP1 PUSH2 0x8E5 JUMPI POP PUSH32 0x54C1BCD900000000000000000000000000000000000000000000000000000000 PUSH28 0xFFFFFFFFFFFFFFFFFFFFFFFFFFFFFFFFFFFFFFFFFFFFFFFFFFFFFFFF NOT AND DUP3 PUSH28 0xFFFFFFFFFFFFFFFFFFFFFFFFFFFFFFFFFFFFFFFFFFFFFFFFFFFFFFFF NOT AND EQ JUMPDEST DUP1 PUSH2 0x8F5 JUMPI POP PUSH2 0x8F4 DUP3 PUSH2 0x1DF1 JUMP JUMPDEST JUMPDEST SWAP1 POP SWAP2 SWAP1 POP JUMP JUMPDEST PUSH1 0x8 PUSH0 SWAP1 SLOAD SWAP1 PUSH2 0x100 EXP SWAP1 DIV PUSH20 0xFFFFFFFFFFFFFFFFFFFFFFFFFFFFFFFFFFFFFFFF AND PUSH20 0xFFFFFFFFFFFFFFFFFFFFFFFFFFFFFFFFFFFFFFFF AND CALLER PUSH20 0xFFFFFFFFFFFFFFFFFFFFFFFFFFFFFFFFFFFFFFFF AND EQ DUP1 PUSH2 0x994 JUMPI POP PUSH1 0x1 PUSH1 0xA PUSH0 CALLER PUSH20 0xFFFFFFFFFFFFFFFFFFFFFFFFFFFFFFFFFFFFFFFF AND PUSH20 0xFFFFFFFFFFFFFFFFFFFFFFFFFFFFFFFFFFFFFFFF AND DUP2 MSTORE PUSH1 0x20 ADD SWAP1 DUP2 MSTORE PUSH1 0x20 ADD PUSH0 KECCAK256 SLOAD EQ JUMPDEST PUSH2 0x9D3 JUMPI PUSH1 0x40 MLOAD PUSH32 0x8C379A000000000000000000000000000000000000000000000000000000000 DUP2 MSTORE PUSH1 0x4 ADD PUSH2 0x9CA SWAP1 PUSH2 0x2AAA JUMP JUMPDEST PUSH1 0x40 MLOAD DUP1 SWAP2 SUB SWAP1 REVERT JUMPDEST DUP1 PUSH1 0x4 PUSH0 PUSH2 0x100 EXP DUP2 SLOAD DUP2 PUSH20 0xFFFFFFFFFFFFFFFFFFFFFFFFFFFFFFFFFFFFFFFF MUL NOT AND SWAP1 DUP4 PUSH20 0xFFFFFFFFFFFFFFFFFFFFFFFFFFFFFFFFFFFFFFFF AND MUL OR SWAP1 SSTORE POP POP JUMP JUMPDEST PUSH0 PUSH1 0x6 SLOAD SWAP1 POP SWAP1 JUMP JUMPDEST PUSH1 0x5 SLOAD DUP2 JUMP JUMPDEST PUSH0 DUP2 PUSH20 0xFFFFFFFFFFFFFFFFFFFFFFFFFFFFFFFFFFFFFFFF AND PUSH2 0xA45 PUSH2 0x1781 JUMP JUMPDEST PUSH20 0xFFFFFFFFFFFFFFFFFFFFFFFFFFFFFFFFFFFFFFFF AND EQ DUP1 PUSH2 0xA77 JUMPI POP PUSH2 0xA76 DUP3 PUSH1 0x1 PUSH2 0x1E51 SWAP1 SWAP2 SWAP1 PUSH4 0xFFFFFFFF AND JUMP JUMPDEST JUMPDEST SWAP1 POP SWAP2 SWAP1 POP JUMP JUMPDEST PUSH1 0xF DUP1 SLOAD PUSH2 0xA8B SWAP1 PUSH2 0x2AF5 JUMP JUMPDEST DUP1 PUSH1 0x1F ADD PUSH1 0x20 DUP1 SWAP2 DIV MUL PUSH1 0x20 ADD PUSH1 0x40 MLOAD SWAP1 DUP2 ADD PUSH1 0x40 MSTORE DUP1 SWAP3 SWAP2 SWAP1 DUP2 DUP2 MSTORE PUSH1 0x20 ADD DUP3 DUP1 SLOAD PUSH2 0xAB7 SWAP1 PUSH2 0x2AF5 JUMP JUMPDEST DUP1 ISZERO PUSH2 0xB02 JUMPI DUP1 PUSH1 0x1F LT PUSH2 0xAD9 JUMPI PUSH2 0x100 DUP1 DUP4 SLOAD DIV MUL DUP4 MSTORE SWAP2 PUSH1 0x20 ADD SWAP2 PUSH2 0xB02 JUMP JUMPDEST DUP3 ADD SWAP2 SWAP1 PUSH0 MSTORE PUSH1 0x20 PUSH0 KECCAK256 SWAP1 JUMPDEST DUP2 SLOAD DUP2 MSTORE SWAP1 PUSH1 0x1 ADD SWAP1 PUSH1 0x20 ADD DUP1 DUP4 GT PUSH2 0xAE5 JUMPI DUP3 SWAP1 SUB PUSH1 0x1F AND DUP3 ADD SWAP2 JUMPDEST POP POP POP POP POP DUP2 JUMP JUMPDEST PUSH2 0xB12 PUSH2 0x1E7E JUMP JUMPDEST PUSH2 0xB26 DUP2 PUSH1 0x1 PUSH2 0x1E51 SWAP1 SWAP2 SWAP1 PUSH4 0xFFFFFFFF AND JUMP JUMPDEST ISZERO PUSH2 0xB9B JUMPI CALLER PUSH20 0xFFFFFFFFFFFFFFFFFFFFFFFFFFFFFFFFFFFFFFFF AND DUP2 PUSH20 0xFFFFFFFFFFFFFFFFFFFFFFFFFFFFFFFFFFFFFFFF AND PUSH32 0x7C0C3C84C67C85FCAC635147348BFE374C24A1A93D0366D1CFE9D8853CBF89D5 PUSH1 0x40 MLOAD PUSH1 0x40 MLOAD DUP1 SWAP2 SUB SWAP1 LOG3 PUSH2 0xB99 DUP2 PUSH1 0x1 PUSH2 0x1F05 SWAP1 SWAP2 SWAP1 PUSH4 0xFFFFFFFF AND JUMP JUMPDEST POP JUMPDEST POP JUMP JUMPDEST PUSH1 0x60 PUSH2 0xBAA PUSH1 0x1 PUSH2 0x1F32 JUMP JUMPDEST PUSH8 0xFFFFFFFFFFFFFFFF DUP2 GT ISZERO PUSH2 0xBC3 JUMPI PUSH2 0xBC2 PUSH2 0x2792 JUMP JUMPDEST JUMPDEST PUSH1 0x40 MLOAD SWAP1 DUP1 DUP3 MSTORE DUP1 PUSH1 0x20 MUL PUSH1 0x20 ADD DUP3 ADD PUSH1 0x40 MSTORE DUP1 ISZERO PUSH2 0xBF1 JUMPI DUP2 PUSH1 0x20 ADD PUSH1 0x20 DUP3 MUL DUP1 CALLDATASIZE DUP4 CALLDATACOPY DUP1 DUP3 ADD SWAP2 POP POP SWAP1 POP JUMPDEST POP SWAP1 POP PUSH0 JUMPDEST PUSH2 0xC00 PUSH1 0x1 PUSH2 0x1F32 JUMP JUMPDEST DUP2 LT ISZERO PUSH2 0xC75 JUMPI PUSH2 0xC1B DUP2 PUSH1 0x1 PUSH2 0x1F45 SWAP1 SWAP2 SWAP1 PUSH4 0xFFFFFFFF AND JUMP JUMPDEST DUP3 DUP3 DUP2 MLOAD DUP2 LT PUSH2 0xC2E JUMPI PUSH2 0xC2D PUSH2 0x2B25 JUMP JUMPDEST JUMPDEST PUSH1 0x20 MUL PUSH1 0x20 ADD ADD SWAP1 PUSH20 0xFFFFFFFFFFFFFFFFFFFFFFFFFFFFFFFFFFFFFFFF AND SWAP1 DUP2 PUSH20 0xFFFFFFFFFFFFFFFFFFFFFFFFFFFFFFFFFFFFFFFF AND DUP2 MSTORE POP POP DUP1 DUP1 PUSH1 0x1 ADD SWAP2 POP POP PUSH2 0xBF6 JUMP JUMPDEST POP SWAP1 JUMP JUMPDEST PUSH1 0x8 PUSH0 SWAP1 SLOAD SWAP1 PUSH2 0x100 EXP SWAP1 DIV PUSH20 0xFFFFFFFFFFFFFFFFFFFFFFFFFFFFFFFFFFFFFFFF AND PUSH20 0xFFFFFFFFFFFFFFFFFFFFFFFFFFFFFFFFFFFFFFFF AND CALLER PUSH20 0xFFFFFFFFFFFFFFFFFFFFFFFFFFFFFFFFFFFFFFFF AND EQ PUSH2 0xD08 JUMPI PUSH1 0x40 MLOAD PUSH32 0x8C379A000000000000000000000000000000000000000000000000000000000 DUP2 MSTORE PUSH1 0x4 ADD PUSH2 0xCFF SWAP1 PUSH2 0x2AAA JUMP JUMPDEST PUSH1 0x40 MLOAD DUP1 SWAP2 SUB SWAP1 REVERT JUMPDEST PUSH1 0x1 PUSH1 0xA PUSH0 DUP4 PUSH20 0xFFFFFFFFFFFFFFFFFFFFFFFFFFFFFFFFFFFFFFFF AND PUSH20 0xFFFFFFFFFFFFFFFFFFFFFFFFFFFFFFFFFFFFFFFF AND DUP2 MSTORE PUSH1 0x20 ADD SWAP1 DUP2 MSTORE PUSH1 0x20 ADD PUSH0 KECCAK256 DUP2 SWAP1 SSTORE POP POP JUMP JUMPDEST PUSH1 0xB DUP1 SLOAD PUSH2 0xD5B SWAP1 PUSH2 0x2AF5 JUMP JUMPDEST DUP1 PUSH1 0x1F ADD PUSH1 0x20 DUP1 SWAP2 DIV MUL PUSH1 0x20 ADD PUSH1 0x40 MLOAD SWAP1 DUP2 ADD PUSH1 0x40 MSTORE DUP1 SWAP3 SWAP2 SWAP1 DUP2 DUP2 MSTORE PUSH1 0x20 ADD DUP3 DUP1 SLOAD PUSH2 0xD87 SWAP1 PUSH2 0x2AF5 JUMP JUMPDEST DUP1 ISZERO PUSH2 0xDD2 JUMPI DUP1 PUSH1 0x1F LT PUSH2 0xDA9 JUMPI PUSH2 0x100 DUP1 DUP4 SLOAD DIV MUL DUP4 MSTORE SWAP2 PUSH1 0x20 ADD SWAP2 PUSH2 0xDD2 JUMP JUMPDEST DUP3 ADD SWAP2 SWAP1 PUSH0 MSTORE PUSH1 0x20 PUSH0 KECCAK256 SWAP1 JUMPDEST DUP2 SLOAD DUP2 MSTORE SWAP1 PUSH1 0x1 ADD SWAP1 PUSH1 0x20 ADD DUP1 DUP4 GT PUSH2 0xDB5 JUMPI DUP3 SWAP1 SUB PUSH1 0x1F AND DUP3 ADD SWAP2 JUMPDEST POP POP POP POP POP DUP2 JUMP JUMPDEST PUSH1 0x60 PUSH0 PUSH1 0x40 PUSH8 0xFFFFFFFFFFFFFFFF DUP2 GT ISZERO PUSH2 0xDF8 JUMPI PUSH2 0xDF7 PUSH2 0x2792 JUMP JUMPDEST JUMPDEST PUSH1 0x40 MLOAD SWAP1 DUP1 DUP3 MSTORE DUP1 PUSH1 0x1F ADD PUSH1 0x1F NOT AND PUSH1 0x20 ADD DUP3 ADD PUSH1 0x40 MSTORE DUP1 ISZERO PUSH2 0xE2A JUMPI DUP2 PUSH1 0x20 ADD PUSH1 0x1 DUP3 MUL DUP1 CALLDATASIZE DUP4 CALLDATACOPY DUP1 DUP3 ADD SWAP2 POP POP SWAP1 POP JUMPDEST POP SWAP1 POP PUSH0 JUMPDEST PUSH1 0x20 DUP2 LT ISZERO PUSH2 0xF6C JUMPI PUSH0 DUP2 PUSH1 0x1F PUSH2 0xE46 SWAP2 SWAP1 PUSH2 0x2B7F JUMP JUMPDEST PUSH1 0x8 PUSH2 0xE52 SWAP2 SWAP1 PUSH2 0x2BB2 JUMP JUMPDEST PUSH1 0x2 PUSH2 0xE5E SWAP2 SWAP1 PUSH2 0x2D22 JUMP JUMPDEST DUP6 PUSH0 SHR PUSH2 0xE6B SWAP2 SWAP1 PUSH2 0x2D99 JUMP JUMPDEST PUSH1 0xF8 SHL SWAP1 POP PUSH0 PUSH1 0x4 DUP3 PUSH31 0xFFFFFFFFFFFFFFFFFFFFFFFFFFFFFFFFFFFFFFFFFFFFFFFFFFFFFFFFFFFFFF NOT AND SWAP1 SHR SWAP1 POP PUSH0 PUSH1 0xF PUSH1 0xF8 SHL DUP4 AND SWAP1 POP PUSH2 0xEAD DUP3 PUSH2 0x12BF JUMP JUMPDEST DUP6 PUSH1 0x2 DUP7 PUSH2 0xEBB SWAP2 SWAP1 PUSH2 0x2BB2 JUMP JUMPDEST DUP2 MLOAD DUP2 LT PUSH2 0xECC JUMPI PUSH2 0xECB PUSH2 0x2B25 JUMP JUMPDEST JUMPDEST PUSH1 0x20 ADD ADD SWAP1 PUSH31 0xFFFFFFFFFFFFFFFFFFFFFFFFFFFFFFFFFFFFFFFFFFFFFFFFFFFFFFFFFFFFFF NOT AND SWAP1 DUP2 PUSH0 BYTE SWAP1 MSTORE8 POP PUSH2 0xF03 DUP2 PUSH2 0x12BF JUMP JUMPDEST DUP6 PUSH1 0x1 PUSH1 0x2 DUP8 PUSH2 0xF13 SWAP2 SWAP1 PUSH2 0x2BB2 JUMP JUMPDEST PUSH2 0xF1D SWAP2 SWAP1 PUSH2 0x2DC9 JUMP JUMPDEST DUP2 MLOAD DUP2 LT PUSH2 0xF2E JUMPI PUSH2 0xF2D PUSH2 0x2B25 JUMP JUMPDEST JUMPDEST PUSH1 0x20 ADD ADD SWAP1 PUSH31 0xFFFFFFFFFFFFFFFFFFFFFFFFFFFFFFFFFFFFFFFFFFFFFFFFFFFFFFFFFFFFFF NOT AND SWAP1 DUP2 PUSH0 BYTE SWAP1 MSTORE8 POP POP POP POP DUP1 DUP1 PUSH1 0x1 ADD SWAP2 POP POP PUSH2 0xE2F JUMP JUMPDEST POP DUP1 SWAP2 POP POP SWAP2 SWAP1 POP JUMP JUMPDEST PUSH1 0x6 SLOAD DUP2 JUMP JUMPDEST PUSH1 0x60 PUSH2 0xF87 DUP3 PUSH2 0x1F5C JUMP JUMPDEST PUSH1 0x40 MLOAD PUSH1 0x20 ADD PUSH2 0xF97 SWAP2 SWAP1 PUSH2 0x2E80 JUMP JUMPDEST PUSH1 0x40 MLOAD PUSH1 0x20 DUP2 DUP4 SUB SUB DUP2 MSTORE SWAP1 PUSH1 0x40 MSTORE SWAP1 POP SWAP2 SWAP1 POP JUMP JUMPDEST PUSH1 0x60 PUSH1 0x40 MLOAD PUSH1 0x20 ADD PUSH2 0xFBE SWAP1 PUSH2 0x2EEB JUMP JUMPDEST PUSH1 0x40 MLOAD PUSH1 0x20 DUP2 DUP4 SUB SUB DUP2 MSTORE SWAP1 PUSH1 0x40 MSTORE DUP1 MLOAD SWAP1 PUSH1 0x20 ADD KECCAK256 PUSH1 0xF PUSH1 0x40 MLOAD PUSH1 0x20 ADD PUSH2 0xFE6 SWAP2 SWAP1 PUSH2 0x2F91 JUMP JUMPDEST PUSH1 0x40 MLOAD PUSH1 0x20 DUP2 DUP4 SUB SUB DUP2 MSTORE SWAP1 PUSH1 0x40 MSTORE DUP1 MLOAD SWAP1 PUSH1 0x20 ADD KECCAK256 EQ PUSH2 0x103C JUMPI PUSH1 0x40 MLOAD DUP1 PUSH1 0x40 ADD PUSH1 0x40 MSTORE DUP1 PUSH1 0x4 DUP2 MSTORE PUSH1 0x20 ADD PUSH32 0x6461726B00000000000000000000000000000000000000000000000000000000 DUP2 MSTORE POP PUSH2 0x1073 JUMP JUMPDEST PUSH1 0x40 MLOAD DUP1 PUSH1 0x40 ADD PUSH1 0x40 MSTORE DUP1 PUSH1 0x5 DUP2 MSTORE PUSH1 0x20 ADD PUSH32 0x6C69676874000000000000000000000000000000000000000000000000000000 DUP2 MSTORE POP JUMPDEST SWAP1 POP SWAP1 JUMP JUMPDEST PUSH1 0x60 PUSH0 PUSH2 0x1263 PUSH1 0x3 PUSH0 SWAP1 SLOAD SWAP1 PUSH2 0x100 EXP SWAP1 DIV PUSH20 0xFFFFFFFFFFFFFFFFFFFFFFFFFFFFFFFFFFFFFFFF AND PUSH20 0xFFFFFFFFFFFFFFFFFFFFFFFFFFFFFFFFFFFFFFFF AND PUSH4 0x18A6EF6C PUSH1 0x40 MLOAD DUP2 PUSH4 0xFFFFFFFF AND PUSH1 0xE0 SHL DUP2 MSTORE PUSH1 0x4 ADD PUSH0 PUSH1 0x40 MLOAD DUP1 DUP4 SUB DUP2 DUP7 GAS STATICCALL ISZERO DUP1 ISZERO PUSH2 0x10E7 JUMPI RETURNDATASIZE PUSH0 DUP1 RETURNDATACOPY RETURNDATASIZE PUSH0 REVERT JUMPDEST POP POP POP POP PUSH1 0x40 MLOAD RETURNDATASIZE PUSH0 DUP3 RETURNDATACOPY RETURNDATASIZE PUSH1 0x1F NOT PUSH1 0x1F DUP3 ADD AND DUP3 ADD DUP1 PUSH1 0x40 MSTORE POP DUP2 ADD SWAP1 PUSH2 0x110F SWAP2 SWAP1 PUSH2 0x3015 JUMP JUMPDEST PUSH1 0x4 PUSH0 SWAP1 SLOAD SWAP1 PUSH2 0x100 EXP SWAP1 DIV PUSH20 0xFFFFFFFFFFFFFFFFFFFFFFFFFFFFFFFFFFFFFFFF AND PUSH20 0xFFFFFFFFFFFFFFFFFFFFFFFFFFFFFFFFFFFFFFFF AND PUSH4 0x527385AD PUSH1 0xF PUSH1 0x40 MLOAD DUP3 PUSH4 0xFFFFFFFF AND PUSH1 0xE0 SHL DUP2 MSTORE PUSH1 0x4 ADD PUSH2 0x116A SWAP2 SWAP1 PUSH2 0x30DD JUMP JUMPDEST PUSH0 PUSH1 0x40 MLOAD DUP1 DUP4 SUB DUP2 DUP7 GAS STATICCALL ISZERO DUP1 ISZERO PUSH2 0x1184 JUMPI RETURNDATASIZE PUSH0 DUP1 RETURNDATACOPY RETURNDATASIZE PUSH0 REVERT JUMPDEST POP POP POP POP PUSH1 0x40 MLOAD RETURNDATASIZE PUSH0 DUP3 RETURNDATACOPY RETURNDATASIZE PUSH1 0x1F NOT PUSH1 0x1F DUP3 ADD AND DUP3 ADD DUP1 PUSH1 0x40 MSTORE POP DUP2 ADD SWAP1 PUSH2 0x11AC SWAP2 SWAP1 PUSH2 0x3015 JUMP JUMPDEST PUSH1 0x3 PUSH0 SWAP1 SLOAD SWAP1 PUSH2 0x100 EXP SWAP1 DIV PUSH20 0xFFFFFFFFFFFFFFFFFFFFFFFFFFFFFFFFFFFFFFFF AND PUSH20 0xFFFFFFFFFFFFFFFFFFFFFFFFFFFFFFFFFFFFFFFF AND PUSH4 0x7899FF8F PUSH1 0x40 MLOAD DUP2 PUSH4 0xFFFFFFFF AND PUSH1 0xE0 SHL DUP2 MSTORE PUSH1 0x4 ADD PUSH0 PUSH1 0x40 MLOAD DUP1 DUP4 SUB DUP2 DUP7 GAS STATICCALL ISZERO DUP1 ISZERO PUSH2 0x1215 JUMPI RETURNDATASIZE PUSH0 DUP1 RETURNDATACOPY RETURNDATASIZE PUSH0 REVERT JUMPDEST POP POP POP POP PUSH1 0x40 MLOAD RETURNDATASIZE PUSH0 DUP3 RETURNDATACOPY RETURNDATASIZE PUSH1 0x1F NOT PUSH1 0x1F DUP3 ADD AND DUP3 ADD DUP1 PUSH1 0x40 MSTORE POP DUP2 ADD SWAP1 PUSH2 0x123D SWAP2 SWAP1 PUSH2 0x3015 JUMP JUMPDEST PUSH1 0x40 MLOAD PUSH1 0x20 ADD PUSH2 0x124F SWAP4 SWAP3 SWAP2 SWAP1 PUSH2 0x30FD JUMP JUMPDEST PUSH1 0x40 MLOAD PUSH1 0x20 DUP2 DUP4 SUB SUB DUP2 MSTORE SWAP1 PUSH1 0x40 MSTORE PUSH2 0x19CF JUMP JUMPDEST SWAP1 POP PUSH0 PUSH2 0x1294 PUSH1 0xD PUSH1 0xB DUP5 PUSH1 0x40 MLOAD PUSH1 0x20 ADD PUSH2 0x1280 SWAP4 SWAP3 SWAP2 SWAP1 PUSH2 0x32C5 JUMP JUMPDEST PUSH1 0x40 MLOAD PUSH1 0x20 DUP2 DUP4 SUB SUB DUP2 MSTORE SWAP1 PUSH1 0x40 MSTORE PUSH2 0x1F5C JUMP JUMPDEST SWAP1 POP DUP1 PUSH1 0x40 MLOAD PUSH1 0x20 ADD PUSH2 0x12A7 SWAP2 SWAP1 PUSH2 0x3376 JUMP JUMPDEST PUSH1 0x40 MLOAD PUSH1 0x20 DUP2 DUP4 SUB SUB DUP2 MSTORE SWAP1 PUSH1 0x40 MSTORE SWAP3 POP POP POP SWAP2 SWAP1 POP JUMP JUMPDEST PUSH0 PUSH1 0xA PUSH1 0xF8 SHL DUP3 PUSH31 0xFFFFFFFFFFFFFFFFFFFFFFFFFFFFFFFFFFFFFFFFFFFFFFFFFFFFFFFFFFFFFF NOT AND LT ISZERO PUSH2 0x1308 JUMPI PUSH1 0x30 DUP3 PUSH1 0xF8 SHR PUSH2 0x12FE SWAP2 SWAP1 PUSH2 0x33A3 JUMP JUMPDEST PUSH1 0xF8 SHL SWAP1 POP PUSH2 0x131E JUMP JUMPDEST PUSH1 0x57 DUP3 PUSH1 0xF8 SHR PUSH2 0x1318 SWAP2 SWAP1 PUSH2 0x33A3 JUMP JUMPDEST PUSH1 0xF8 SHL SWAP1 POP JUMPDEST SWAP2 SWAP1 POP JUMP JUMPDEST PUSH1 0x8 PUSH0 SWAP1 SLOAD SWAP1 PUSH2 0x100 EXP SWAP1 DIV PUSH20 0xFFFFFFFFFFFFFFFFFFFFFFFFFFFFFFFFFFFFFFFF AND PUSH20 0xFFFFFFFFFFFFFFFFFFFFFFFFFFFFFFFFFFFFFFFF AND CALLER PUSH20 0xFFFFFFFFFFFFFFFFFFFFFFFFFFFFFFFFFFFFFFFF AND EQ PUSH2 0x13B2 JUMPI PUSH1 0x40 MLOAD PUSH32 0x8C379A000000000000000000000000000000000000000000000000000000000 DUP2 MSTORE PUSH1 0x4 ADD PUSH2 0x13A9 SWAP1 PUSH2 0x2AAA JUMP JUMPDEST PUSH1 0x40 MLOAD DUP1 SWAP2 SUB SWAP1 REVERT JUMPDEST PUSH1 0x1 PUSH1 0x6 SLOAD LT PUSH2 0x13F7 JUMPI PUSH1 0x40 MLOAD PUSH32 0x8C379A000000000000000000000000000000000000000000000000000000000 DUP2 MSTORE PUSH1 0x4 ADD PUSH2 0x13EE SWAP1 PUSH2 0x3421 JUMP JUMPDEST PUSH1 0x40 MLOAD DUP1 SWAP2 SUB SWAP1 REVERT JUMPDEST PUSH1 0x7 PUSH0 SWAP1 SLOAD SWAP1 PUSH2 0x100 EXP SWAP1 DIV PUSH20 0xFFFFFFFFFFFFFFFFFFFFFFFFFFFFFFFFFFFFFFFF AND PUSH20 0xFFFFFFFFFFFFFFFFFFFFFFFFFFFFFFFFFFFFFFFF AND PUSH4 0x2928CA58 DUP3 PUSH1 0x40 MLOAD DUP3 PUSH4 0xFFFFFFFF AND PUSH1 0xE0 SHL DUP2 MSTORE PUSH1 0x4 ADD PUSH2 0x1451 SWAP2 SWAP1 PUSH2 0x2A09 JUMP JUMPDEST PUSH1 0x20 PUSH1 0x40 MLOAD DUP1 DUP4 SUB DUP2 PUSH0 DUP8 GAS CALL ISZERO DUP1 ISZERO PUSH2 0x146D JUMPI RETURNDATASIZE PUSH0 DUP1 RETURNDATACOPY RETURNDATASIZE PUSH0 REVERT JUMPDEST POP POP POP POP PUSH1 0x40 MLOAD RETURNDATASIZE PUSH1 0x1F NOT PUSH1 0x1F DUP3 ADD AND DUP3 ADD DUP1 PUSH1 0x40 MSTORE POP DUP2 ADD SWAP1 PUSH2 0x1491 SWAP2 SWAP1 PUSH2 0x3453 JUMP JUMPDEST POP PUSH1 0x6 PUSH0 DUP2 SLOAD DUP1 SWAP3 SWAP2 SWAP1 PUSH2 0x14A4 SWAP1 PUSH2 0x347E JUMP JUMPDEST SWAP2 SWAP1 POP SSTORE POP POP JUMP JUMPDEST PUSH2 0x14B4 PUSH2 0x1E7E JUMP JUMPDEST PUSH2 0x14C8 DUP2 PUSH1 0x1 PUSH2 0x1E51 SWAP1 SWAP2 SWAP1 PUSH4 0xFFFFFFFF AND JUMP JUMPDEST PUSH2 0x153C JUMPI CALLER PUSH20 0xFFFFFFFFFFFFFFFFFFFFFFFFFFFFFFFFFFFFFFFF AND DUP2 PUSH20 0xFFFFFFFFFFFFFFFFFFFFFFFFFFFFFFFFFFFFFFFF AND PUSH32 0x7E1A1A08D52E4BA0E21554733D66165FD5151F99460116223D9E3A608EEC5CB1 PUSH1 0x40 MLOAD PUSH1 0x40 MLOAD DUP1 SWAP2 SUB SWAP1 LOG3 PUSH2 0x153A DUP2 PUSH1 0x1 PUSH2 0x20BB SWAP1 SWAP2 SWAP1 PUSH4 0xFFFFFFFF AND JUMP JUMPDEST POP JUMPDEST POP JUMP JUMPDEST PUSH2 0x1547 PUSH2 0x1E7E JUMP JUMPDEST PUSH2 0x1550 PUSH0 PUSH2 0x20E8 JUMP JUMPDEST JUMP JUMPDEST PUSH1 0x8 PUSH0 SWAP1 SLOAD SWAP1 PUSH2 0x100 EXP SWAP1 DIV PUSH20 0xFFFFFFFFFFFFFFFFFFFFFFFFFFFFFFFFFFFFFFFF AND PUSH20 0xFFFFFFFFFFFFFFFFFFFFFFFFFFFFFFFFFFFFFFFF AND CALLER PUSH20 0xFFFFFFFFFFFFFFFFFFFFFFFFFFFFFFFFFFFFFFFF AND EQ DUP1 PUSH2 0x15EA JUMPI POP PUSH1 0x1 PUSH1 0xA PUSH0 CALLER PUSH20 0xFFFFFFFFFFFFFFFFFFFFFFFFFFFFFFFFFFFFFFFF AND PUSH20 0xFFFFFFFFFFFFFFFFFFFFFFFFFFFFFFFFFFFFFFFF AND DUP2 MSTORE PUSH1 0x20 ADD SWAP1 DUP2 MSTORE PUSH1 0x20 ADD PUSH0 KECCAK256 SLOAD EQ JUMPDEST PUSH2 0x1629 JUMPI PUSH1 0x40 MLOAD PUSH32 0x8C379A000000000000000000000000000000000000000000000000000000000 DUP2 MSTORE PUSH1 0x4 ADD PUSH2 0x1620 SWAP1 PUSH2 0x2AAA JUMP JUMPDEST PUSH1 0x40 MLOAD DUP1 SWAP2 SUB SWAP1 REVERT JUMPDEST DUP1 PUSH1 0x3 PUSH0 PUSH2 0x100 EXP DUP2 SLOAD DUP2 PUSH20 0xFFFFFFFFFFFFFFFFFFFFFFFFFFFFFFFFFFFFFFFF MUL NOT AND SWAP1 DUP4 PUSH20 0xFFFFFFFFFFFFFFFFFFFFFFFFFFFFFFFFFFFFFFFF AND MUL OR SWAP1 SSTORE POP POP JUMP JUMPDEST PUSH1 0x8 PUSH0 SWAP1 SLOAD SWAP1 PUSH2 0x100 EXP SWAP1 DIV PUSH20 0xFFFFFFFFFFFFFFFFFFFFFFFFFFFFFFFFFFFFFFFF AND PUSH20 0xFFFFFFFFFFFFFFFFFFFFFFFFFFFFFFFFFFFFFFFF AND CALLER PUSH20 0xFFFFFFFFFFFFFFFFFFFFFFFFFFFFFFFFFFFFFFFF AND EQ DUP1 PUSH2 0x1704 JUMPI POP PUSH1 0x1 PUSH1 0xA PUSH0 CALLER PUSH20 0xFFFFFFFFFFFFFFFFFFFFFFFFFFFFFFFFFFFFFFFF AND PUSH20 0xFFFFFFFFFFFFFFFFFFFFFFFFFFFFFFFFFFFFFFFF AND DUP2 MSTORE PUSH1 0x20 ADD SWAP1 DUP2 MSTORE PUSH1 0x20 ADD PUSH0 KECCAK256 SLOAD EQ JUMPDEST PUSH2 0x1743 JUMPI PUSH1 0x40 MLOAD PUSH32 0x8C379A000000000000000000000000000000000000000000000000000000000 DUP2 MSTORE PUSH1 0x4 ADD PUSH2 0x173A SWAP1 PUSH2 0x2AAA JUMP JUMPDEST PUSH1 0x40 MLOAD DUP1 SWAP2 SUB SWAP1 REVERT JUMPDEST CALLER PUSH20 0xFFFFFFFFFFFFFFFFFFFFFFFFFFFFFFFFFFFFFFFF AND PUSH2 0x8FC SELFBALANCE SWAP1 DUP2 ISZERO MUL SWAP1 PUSH1 0x40 MLOAD PUSH0 PUSH1 0x40 MLOAD DUP1 DUP4 SUB DUP2 DUP6 DUP9 DUP9 CALL SWAP4 POP POP POP POP PUSH2 0x177F JUMPI PUSH0 DUP1 REVERT JUMPDEST JUMP JUMPDEST PUSH0 DUP1 PUSH0 SWAP1 SLOAD SWAP1 PUSH2 0x100 EXP SWAP1 DIV PUSH20 0xFFFFFFFFFFFFFFFFFFFFFFFFFFFFFFFFFFFFFFFF AND SWAP1 POP SWAP1 JUMP JUMPDEST PUSH1 0x8 PUSH0 SWAP1 SLOAD SWAP1 PUSH2 0x100 EXP SWAP1 DIV PUSH20 0xFFFFFFFFFFFFFFFFFFFFFFFFFFFFFFFFFFFFFFFF AND PUSH20 0xFFFFFFFFFFFFFFFFFFFFFFFFFFFFFFFFFFFFFFFF AND CALLER PUSH20 0xFFFFFFFFFFFFFFFFFFFFFFFFFFFFFFFFFFFFFFFF AND EQ DUP1 PUSH2 0x1840 JUMPI POP PUSH1 0x1 PUSH1 0xA PUSH0 CALLER PUSH20 0xFFFFFFFFFFFFFFFFFFFFFFFFFFFFFFFFFFFFFFFF AND PUSH20 0xFFFFFFFFFFFFFFFFFFFFFFFFFFFFFFFFFFFFFFFF AND DUP2 MSTORE PUSH1 0x20 ADD SWAP1 DUP2 MSTORE PUSH1 0x20 ADD PUSH0 KECCAK256 SLOAD EQ JUMPDEST PUSH2 0x187F JUMPI PUSH1 0x40 MLOAD PUSH32 0x8C379A000000000000000000000000000000000000000000000000000000000 DUP2 MSTORE PUSH1 0x4 ADD PUSH2 0x1876 SWAP1 PUSH2 0x2AAA JUMP JUMPDEST PUSH1 0x40 MLOAD DUP1 SWAP2 SUB SWAP1 REVERT JUMPDEST DUP1 PUSH1 0xC SWAP1 DUP2 PUSH2 0x188E SWAP2 SWAP1 PUSH2 0x3650 JUMP JUMPDEST POP POP JUMP JUMPDEST PUSH1 0x40 MLOAD PUSH1 0x20 ADD PUSH2 0x18A1 SWAP1 PUSH2 0x2EEB JUMP JUMPDEST PUSH1 0x40 MLOAD PUSH1 0x20 DUP2 DUP4 SUB SUB DUP2 MSTORE SWAP1 PUSH1 0x40 MSTORE DUP1 MLOAD SWAP1 PUSH1 0x20 ADD KECCAK256 DUP2 PUSH1 0x40 MLOAD PUSH1 0x20 ADD PUSH2 0x18C8 SWAP2 SWAP1 PUSH2 0x371F JUMP JUMPDEST PUSH1 0x40 MLOAD PUSH1 0x20 DUP2 DUP4 SUB SUB DUP2 MSTORE SWAP1 PUSH1 0x40 MSTORE DUP1 MLOAD SWAP1 PUSH1 0x20 ADD KECCAK256 EQ DUP1 PUSH2 0x1933 JUMPI POP PUSH1 0x40 MLOAD PUSH1 0x20 ADD PUSH2 0x18F4 SWAP1 PUSH2 0x377F JUMP JUMPDEST PUSH1 0x40 MLOAD PUSH1 0x20 DUP2 DUP4 SUB SUB DUP2 MSTORE SWAP1 PUSH1 0x40 MSTORE DUP1 MLOAD SWAP1 PUSH1 0x20 ADD KECCAK256 DUP2 PUSH1 0x40 MLOAD PUSH1 0x20 ADD PUSH2 0x191B SWAP2 SWAP1 PUSH2 0x371F JUMP JUMPDEST PUSH1 0x40 MLOAD PUSH1 0x20 DUP2 DUP4 SUB SUB DUP2 MSTORE SWAP1 PUSH1 0x40 MSTORE DUP1 MLOAD SWAP1 PUSH1 0x20 ADD KECCAK256 EQ JUMPDEST PUSH2 0x1972 JUMPI PUSH1 0x40 MLOAD PUSH32 0x8C379A000000000000000000000000000000000000000000000000000000000 DUP2 MSTORE PUSH1 0x4 ADD PUSH2 0x1969 SWAP1 PUSH2 0x37DD JUMP JUMPDEST PUSH1 0x40 MLOAD DUP1 SWAP2 SUB SWAP1 REVERT JUMPDEST DUP1 PUSH1 0xF SWAP1 DUP2 PUSH2 0x1981 SWAP2 SWAP1 PUSH2 0x3650 JUMP JUMPDEST POP POP JUMP JUMPDEST PUSH1 0x8 PUSH0 SWAP1 SLOAD SWAP1 PUSH2 0x100 EXP SWAP1 DIV PUSH20 0xFFFFFFFFFFFFFFFFFFFFFFFFFFFFFFFFFFFFFFFF AND DUP2 JUMP JUMPDEST PUSH1 0x7 PUSH0 SWAP1 SLOAD SWAP1 PUSH2 0x100 EXP SWAP1 DIV PUSH20 0xFFFFFFFFFFFFFFFFFFFFFFFFFFFFFFFFFFFFFFFF AND DUP2 JUMP JUMPDEST PUSH1 0x60 PUSH2 0x19DA DUP3 PUSH2 0x1F5C JUMP JUMPDEST PUSH1 0x40 MLOAD PUSH1 0x20 ADD PUSH2 0x19EA SWAP2 SWAP1 PUSH2 0x3845 JUMP JUMPDEST PUSH1 0x40 MLOAD PUSH1 0x20 DUP2 DUP4 SUB SUB DUP2 MSTORE SWAP1 PUSH1 0x40 MSTORE SWAP1 POP SWAP2 SWAP1 POP JUMP JUMPDEST PUSH1 0x8 PUSH0 SWAP1 SLOAD SWAP1 PUSH2 0x100 EXP SWAP1 DIV PUSH20 0xFFFFFFFFFFFFFFFFFFFFFFFFFFFFFFFFFFFFFFFF AND PUSH20 0xFFFFFFFFFFFFFFFFFFFFFFFFFFFFFFFFFFFFFFFF AND CALLER PUSH20 0xFFFFFFFFFFFFFFFFFFFFFFFFFFFFFFFFFFFFFFFF AND EQ DUP1 PUSH2 0x1A98 JUMPI POP PUSH1 0x1 PUSH1 0xA PUSH0 CALLER PUSH20 0xFFFFFFFFFFFFFFFFFFFFFFFFFFFFFFFFFFFFFFFF AND PUSH20 0xFFFFFFFFFFFFFFFFFFFFFFFFFFFFFFFFFFFFFFFF AND DUP2 MSTORE PUSH1 0x20 ADD SWAP1 DUP2 MSTORE PUSH1 0x20 ADD PUSH0 KECCAK256 SLOAD EQ JUMPDEST PUSH2 0x1AD7 JUMPI PUSH1 0x40 MLOAD PUSH32 0x8C379A000000000000000000000000000000000000000000000000000000000 DUP2 MSTORE PUSH1 0x4 ADD PUSH2 0x1ACE SWAP1 PUSH2 0x2AAA JUMP JUMPDEST PUSH1 0x40 MLOAD DUP1 SWAP2 SUB SWAP1 REVERT JUMPDEST DUP1 PUSH1 0xD SWAP1 DUP2 PUSH2 0x1AE6 SWAP2 SWAP1 PUSH2 0x3650 JUMP JUMPDEST POP POP JUMP JUMPDEST PUSH0 PUSH1 0x1 SWAP1 POP SWAP1 JUMP JUMPDEST PUSH1 0x8 PUSH0 SWAP1 SLOAD SWAP1 PUSH2 0x100 EXP SWAP1 DIV PUSH20 0xFFFFFFFFFFFFFFFFFFFFFFFFFFFFFFFFFFFFFFFF AND PUSH20 0xFFFFFFFFFFFFFFFFFFFFFFFFFFFFFFFFFFFFFFFF AND CALLER PUSH20 0xFFFFFFFFFFFFFFFFFFFFFFFFFFFFFFFFFFFFFFFF AND EQ DUP1 PUSH2 0x1B8A JUMPI POP PUSH1 0x1 PUSH1 0xA PUSH0 CALLER PUSH20 0xFFFFFFFFFFFFFFFFFFFFFFFFFFFFFFFFFFFFFFFF AND PUSH20 0xFFFFFFFFFFFFFFFFFFFFFFFFFFFFFFFFFFFFFFFF AND DUP2 MSTORE PUSH1 0x20 ADD SWAP1 DUP2 MSTORE PUSH1 0x20 ADD PUSH0 KECCAK256 SLOAD EQ JUMPDEST PUSH2 0x1BC9 JUMPI PUSH1 0x40 MLOAD PUSH32 0x8C379A000000000000000000000000000000000000000000000000000000000 DUP2 MSTORE PUSH1 0x4 ADD PUSH2 0x1BC0 SWAP1 PUSH2 0x2AAA JUMP JUMPDEST PUSH1 0x40 MLOAD DUP1 SWAP2 SUB SWAP1 REVERT JUMPDEST DUP1 PUSH1 0xB SWAP1 DUP2 PUSH2 0x1BD8 SWAP2 SWAP1 PUSH2 0x3650 JUMP JUMPDEST POP POP JUMP JUMPDEST PUSH1 0x60 PUSH2 0x1BE7 DUP3 PUSH2 0x1078 JUMP JUMPDEST SWAP1 POP SWAP3 SWAP2 POP POP JUMP JUMPDEST PUSH2 0x1BF7 PUSH2 0x1E7E JUMP JUMPDEST PUSH0 PUSH20 0xFFFFFFFFFFFFFFFFFFFFFFFFFFFFFFFFFFFFFFFF AND DUP2 PUSH20 0xFFFFFFFFFFFFFFFFFFFFFFFFFFFFFFFFFFFFFFFF AND SUB PUSH2 0x1C67 JUMPI PUSH0 PUSH1 0x40 MLOAD PUSH32 0x1E4FBDF700000000000000000000000000000000000000000000000000000000 DUP2 MSTORE PUSH1 0x4 ADD PUSH2 0x1C5E SWAP2 SWAP1 PUSH2 0x2A09 JUMP JUMPDEST PUSH1 0x40 MLOAD DUP1 SWAP2 SUB SWAP1 REVERT JUMPDEST PUSH2 0x1C70 DUP2 PUSH2 0x20E8 JUMP JUMPDEST POP JUMP JUMPDEST PUSH1 0x60 PUSH0 DUP3 SUB PUSH2 0x1CB9 JUMPI PUSH1 0x40 MLOAD DUP1 PUSH1 0x40 ADD PUSH1 0x40 MSTORE DUP1 PUSH1 0x1 DUP2 MSTORE PUSH1 0x20 ADD PUSH32 0x3000000000000000000000000000000000000000000000000000000000000000 DUP2 MSTORE POP SWAP1 POP PUSH2 0x1DEC JUMP JUMPDEST PUSH0 DUP3 SWAP1 POP PUSH0 JUMPDEST PUSH0 DUP3 EQ PUSH2 0x1CE8 JUMPI DUP1 DUP1 PUSH2 0x1CD1 SWAP1 PUSH2 0x347E JUMP JUMPDEST SWAP2 POP POP PUSH1 0xA DUP3 PUSH2 0x1CE1 SWAP2 SWAP1 PUSH2 0x2D99 JUMP JUMPDEST SWAP2 POP PUSH2 0x1CBF JUMP JUMPDEST PUSH0 DUP2 PUSH8 0xFFFFFFFFFFFFFFFF DUP2 GT ISZERO PUSH2 0x1D03 JUMPI PUSH2 0x1D02 PUSH2 0x2792 JUMP JUMPDEST JUMPDEST PUSH1 0x40 MLOAD SWAP1 DUP1 DUP3 MSTORE DUP1 PUSH1 0x1F ADD PUSH1 0x1F NOT AND PUSH1 0x20 ADD DUP3 ADD PUSH1 0x40 MSTORE DUP1 ISZERO PUSH2 0x1D35 JUMPI DUP2 PUSH1 0x20 ADD PUSH1 0x1 DUP3 MUL DUP1 CALLDATASIZE DUP4 CALLDATACOPY DUP1 DUP3 ADD SWAP2 POP POP SWAP1 POP JUMPDEST POP SWAP1 POP PUSH0 DUP3 SWAP1 POP JUMPDEST PUSH0 DUP7 EQ PUSH2 0x1DE4 JUMPI PUSH1 0x1 DUP2 PUSH2 0x1D51 SWAP2 SWAP1 PUSH2 0x2B7F JUMP JUMPDEST SWAP1 POP PUSH0 PUSH1 0xA DUP1 DUP9 PUSH2 0x1D62 SWAP2 SWAP1 PUSH2 0x2D99 JUMP JUMPDEST PUSH2 0x1D6C SWAP2 SWAP1 PUSH2 0x2BB2 JUMP JUMPDEST DUP8 PUSH2 0x1D77 SWAP2 SWAP1 PUSH2 0x2B7F JUMP JUMPDEST PUSH1 0x30 PUSH2 0x1D83 SWAP2 SWAP1 PUSH2 0x33A3 JUMP JUMPDEST SWAP1 POP PUSH0 DUP2 PUSH1 0xF8 SHL SWAP1 POP DUP1 DUP5 DUP5 DUP2 MLOAD DUP2 LT PUSH2 0x1DA0 JUMPI PUSH2 0x1D9F PUSH2 0x2B25 JUMP JUMPDEST JUMPDEST PUSH1 0x20 ADD ADD SWAP1 PUSH31 0xFFFFFFFFFFFFFFFFFFFFFFFFFFFFFFFFFFFFFFFFFFFFFFFFFFFFFFFFFFFFFF NOT AND SWAP1 DUP2 PUSH0 BYTE SWAP1 MSTORE8 POP PUSH1 0xA DUP9 PUSH2 0x1DDB SWAP2 SWAP1 PUSH2 0x2D99 JUMP JUMPDEST SWAP8 POP POP POP PUSH2 0x1D3D JUMP JUMPDEST DUP2 SWAP5 POP POP POP POP POP JUMPDEST SWAP2 SWAP1 POP JUMP JUMPDEST PUSH0 PUSH4 0x7005CAAD PUSH1 0xE0 SHL PUSH28 0xFFFFFFFFFFFFFFFFFFFFFFFFFFFFFFFFFFFFFFFFFFFFFFFFFFFFFFFF NOT AND DUP3 PUSH28 0xFFFFFFFFFFFFFFFFFFFFFFFFFFFFFFFFFFFFFFFFFFFFFFFFFFFFFFFF NOT AND EQ DUP1 PUSH2 0x1E4A JUMPI POP PUSH2 0x1E49 DUP3 PUSH2 0x21A9 JUMP JUMPDEST JUMPDEST SWAP1 POP SWAP2 SWAP1 POP JUMP JUMPDEST PUSH0 PUSH2 0x1E76 DUP4 PUSH0 ADD DUP4 PUSH20 0xFFFFFFFFFFFFFFFFFFFFFFFFFFFFFFFFFFFFFFFF AND PUSH0 SHL PUSH2 0x2222 JUMP JUMPDEST SWAP1 POP SWAP3 SWAP2 POP POP JUMP JUMPDEST PUSH2 0x1E86 PUSH2 0x2242 JUMP JUMPDEST PUSH20 0xFFFFFFFFFFFFFFFFFFFFFFFFFFFFFFFFFFFFFFFF AND PUSH2 0x1EA4 PUSH2 0x1781 JUMP JUMPDEST PUSH20 0xFFFFFFFFFFFFFFFFFFFFFFFFFFFFFFFFFFFFFFFF AND EQ PUSH2 0x1F03 JUMPI PUSH2 0x1EC7 PUSH2 0x2242 JUMP JUMPDEST PUSH1 0x40 MLOAD PUSH32 0x118CDAA700000000000000000000000000000000000000000000000000000000 DUP2 MSTORE PUSH1 0x4 ADD PUSH2 0x1EFA SWAP2 SWAP1 PUSH2 0x2A09 JUMP JUMPDEST PUSH1 0x40 MLOAD DUP1 SWAP2 SUB SWAP1 REVERT JUMPDEST JUMP JUMPDEST PUSH0 PUSH2 0x1F2A DUP4 PUSH0 ADD DUP4 PUSH20 0xFFFFFFFFFFFFFFFFFFFFFFFFFFFFFFFFFFFFFFFF AND PUSH0 SHL PUSH2 0x2249 JUMP JUMPDEST SWAP1 POP SWAP3 SWAP2 POP POP JUMP JUMPDEST PUSH0 PUSH2 0x1F3E DUP3 PUSH0 ADD PUSH2 0x2345 JUMP JUMPDEST SWAP1 POP SWAP2 SWAP1 POP JUMP JUMPDEST PUSH0 PUSH2 0x1F52 DUP4 PUSH0 ADD DUP4 PUSH2 0x2354 JUMP JUMPDEST PUSH0 SHR SWAP1 POP SWAP3 SWAP2 POP POP JUMP JUMPDEST PUSH1 0x60 PUSH0 DUP3 MLOAD SUB PUSH2 0x1F7C JUMPI PUSH1 0x40 MLOAD DUP1 PUSH1 0x20 ADD PUSH1 0x40 MSTORE DUP1 PUSH0 DUP2 MSTORE POP SWAP1 POP PUSH2 0x20B6 JUMP JUMPDEST PUSH0 PUSH1 0x40 MLOAD DUP1 PUSH1 0x60 ADD PUSH1 0x40 MSTORE DUP1 PUSH1 0x40 DUP2 MSTORE PUSH1 0x20 ADD PUSH2 0x3894 PUSH1 0x40 SWAP2 CODECOPY SWAP1 POP PUSH0 PUSH1 0x3 PUSH1 0x2 DUP6 MLOAD PUSH2 0x1FA9 SWAP2 SWAP1 PUSH2 0x2DC9 JUMP JUMPDEST PUSH2 0x1FB3 SWAP2 SWAP1 PUSH2 0x2D99 JUMP JUMPDEST PUSH1 0x4 PUSH2 0x1FBF SWAP2 SWAP1 PUSH2 0x2BB2 JUMP JUMPDEST PUSH8 0xFFFFFFFFFFFFFFFF DUP2 GT ISZERO PUSH2 0x1FD8 JUMPI PUSH2 0x1FD7 PUSH2 0x2792 JUMP JUMPDEST JUMPDEST PUSH1 0x40 MLOAD SWAP1 DUP1 DUP3 MSTORE DUP1 PUSH1 0x1F ADD PUSH1 0x1F NOT AND PUSH1 0x20 ADD DUP3 ADD PUSH1 0x40 MSTORE DUP1 ISZERO PUSH2 0x200A JUMPI DUP2 PUSH1 0x20 ADD PUSH1 0x1 DUP3 MUL DUP1 CALLDATASIZE DUP4 CALLDATACOPY DUP1 DUP3 ADD SWAP2 POP POP SWAP1 POP JUMPDEST POP SWAP1 POP PUSH1 0x1 DUP3 ADD PUSH1 0x20 DUP3 ADD DUP6 DUP7 MLOAD DUP8 ADD JUMPDEST DUP1 DUP3 LT ISZERO PUSH2 0x2076 JUMPI PUSH1 0x3 DUP3 ADD SWAP2 POP DUP2 MLOAD PUSH1 0x3F DUP2 PUSH1 0x12 SHR AND DUP6 ADD MLOAD DUP5 MSTORE8 PUSH1 0x1 DUP5 ADD SWAP4 POP PUSH1 0x3F DUP2 PUSH1 0xC SHR AND DUP6 ADD MLOAD DUP5 MSTORE8 PUSH1 0x1 DUP5 ADD SWAP4 POP PUSH1 0x3F DUP2 PUSH1 0x6 SHR AND DUP6 ADD MLOAD DUP5 MSTORE8 PUSH1 0x1 DUP5 ADD SWAP4 POP PUSH1 0x3F DUP2 AND DUP6 ADD MLOAD DUP5 MSTORE8 PUSH1 0x1 DUP5 ADD SWAP4 POP POP PUSH2 0x201B JUMP JUMPDEST POP POP PUSH1 0x3 DUP7 MLOAD MOD PUSH1 0x1 DUP2 EQ PUSH2 0x2092 JUMPI PUSH1 0x2 DUP2 EQ PUSH2 0x20A5 JUMPI PUSH2 0x20AD JUMP JUMPDEST PUSH1 0x3D PUSH1 0x1 DUP4 SUB MSTORE8 PUSH1 0x3D PUSH1 0x2 DUP4 SUB MSTORE8 PUSH2 0x20AD JUMP JUMPDEST PUSH1 0x3D PUSH1 0x1 DUP4 SUB MSTORE8 JUMPDEST POP POP POP DUP1 SWAP3 POP POP POP JUMPDEST SWAP2 SWAP1 POP JUMP JUMPDEST PUSH0 PUSH2 0x20E0 DUP4 PUSH0 ADD DUP4 PUSH20 0xFFFFFFFFFFFFFFFFFFFFFFFFFFFFFFFFFFFFFFFF AND PUSH0 SHL PUSH2 0x237B JUMP JUMPDEST SWAP1 POP SWAP3 SWAP2 POP POP JUMP JUMPDEST PUSH0 DUP1 PUSH0 SWAP1 SLOAD SWAP1 PUSH2 0x100 EXP SWAP1 DIV PUSH20 0xFFFFFFFFFFFFFFFFFFFFFFFFFFFFFFFFFFFFFFFF AND SWAP1 POP DUP2 PUSH0 DUP1 PUSH2 0x100 EXP DUP2 SLOAD DUP2 PUSH20 0xFFFFFFFFFFFFFFFFFFFFFFFFFFFFFFFFFFFFFFFF MUL NOT AND SWAP1 DUP4 PUSH20 0xFFFFFFFFFFFFFFFFFFFFFFFFFFFFFFFFFFFFFFFF AND MUL OR SWAP1 SSTORE POP DUP2 PUSH20 0xFFFFFFFFFFFFFFFFFFFFFFFFFFFFFFFFFFFFFFFF AND DUP2 PUSH20 0xFFFFFFFFFFFFFFFFFFFFFFFFFFFFFFFFFFFFFFFF AND PUSH32 0x8BE0079C531659141344CD1FD0A4F28419497F9722A3DAAFE3B4186F6B6457E0 PUSH1 0x40 MLOAD PUSH1 0x40 MLOAD DUP1 SWAP2 SUB SWAP1 LOG3 POP POP JUMP JUMPDEST PUSH0 PUSH32 0x553E757E00000000000000000000000000000000000000000000000000000000 PUSH28 0xFFFFFFFFFFFFFFFFFFFFFFFFFFFFFFFFFFFFFFFFFFFFFFFFFFFFFFFF NOT AND DUP3 PUSH28 0xFFFFFFFFFFFFFFFFFFFFFFFFFFFFFFFFFFFFFFFFFFFFFFFFFFFFFFFF NOT AND EQ DUP1 PUSH2 0x221B JUMPI POP PUSH2 0x221A DUP3 PUSH2 0x23E2 JUMP JUMPDEST JUMPDEST SWAP1 POP SWAP2 SWAP1 POP JUMP JUMPDEST PUSH0 DUP1 DUP4 PUSH1 0x1 ADD PUSH0 DUP5 DUP2 MSTORE PUSH1 0x20 ADD SWAP1 DUP2 MSTORE PUSH1 0x20 ADD PUSH0 KECCAK256 SLOAD EQ ISZERO SWAP1 POP SWAP3 SWAP2 POP POP JUMP JUMPDEST PUSH0 CALLER SWAP1 POP SWAP1 JUMP JUMPDEST PUSH0 DUP1 DUP4 PUSH1 0x1 ADD PUSH0 DUP5 DUP2 MSTORE PUSH1 0x20 ADD SWAP1 DUP2 MSTORE PUSH1 0x20 ADD PUSH0 KECCAK256 SLOAD SWAP1 POP PUSH0 DUP2 EQ PUSH2 0x233A JUMPI PUSH0 PUSH1 0x1 DUP3 PUSH2 0x2276 SWAP2 SWAP1 PUSH2 0x2B7F JUMP JUMPDEST SWAP1 POP PUSH0 PUSH1 0x1 DUP7 PUSH0 ADD DUP1 SLOAD SWAP1 POP PUSH2 0x228C SWAP2 SWAP1 PUSH2 0x2B7F JUMP JUMPDEST SWAP1 POP DUP1 DUP3 EQ PUSH2 0x22F2 JUMPI PUSH0 DUP7 PUSH0 ADD DUP3 DUP2 SLOAD DUP2 LT PUSH2 0x22AB JUMPI PUSH2 0x22AA PUSH2 0x2B25 JUMP JUMPDEST JUMPDEST SWAP1 PUSH0 MSTORE PUSH1 0x20 PUSH0 KECCAK256 ADD SLOAD SWAP1 POP DUP1 DUP8 PUSH0 ADD DUP5 DUP2 SLOAD DUP2 LT PUSH2 0x22CC JUMPI PUSH2 0x22CB PUSH2 0x2B25 JUMP JUMPDEST JUMPDEST SWAP1 PUSH0 MSTORE PUSH1 0x20 PUSH0 KECCAK256 ADD DUP2 SWAP1 SSTORE POP DUP4 DUP8 PUSH1 0x1 ADD PUSH0 DUP4 DUP2 MSTORE PUSH1 0x20 ADD SWAP1 DUP2 MSTORE PUSH1 0x20 ADD PUSH0 KECCAK256 DUP2 SWAP1 SSTORE POP POP JUMPDEST DUP6 PUSH0 ADD DUP1 SLOAD DUP1 PUSH2 0x2305 JUMPI PUSH2 0x2304 PUSH2 0x3866 JUMP JUMPDEST JUMPDEST PUSH1 0x1 SWAP1 SUB DUP2 DUP2 SWAP1 PUSH0 MSTORE PUSH1 0x20 PUSH0 KECCAK256 ADD PUSH0 SWAP1 SSTORE SWAP1 SSTORE DUP6 PUSH1 0x1 ADD PUSH0 DUP7 DUP2 MSTORE PUSH1 0x20 ADD SWAP1 DUP2 MSTORE PUSH1 0x20 ADD PUSH0 KECCAK256 PUSH0 SWAP1 SSTORE PUSH1 0x1 SWAP4 POP POP POP POP PUSH2 0x233F JUMP JUMPDEST PUSH0 SWAP2 POP POP JUMPDEST SWAP3 SWAP2 POP POP JUMP JUMPDEST PUSH0 DUP2 PUSH0 ADD DUP1 SLOAD SWAP1 POP SWAP1 POP SWAP2 SWAP1 POP JUMP JUMPDEST PUSH0 DUP3 PUSH0 ADD DUP3 DUP2 SLOAD DUP2 LT PUSH2 0x236A JUMPI PUSH2 0x2369 PUSH2 0x2B25 JUMP JUMPDEST JUMPDEST SWAP1 PUSH0 MSTORE PUSH1 0x20 PUSH0 KECCAK256 ADD SLOAD SWAP1 POP SWAP3 SWAP2 POP POP JUMP JUMPDEST PUSH0 PUSH2 0x2386 DUP4 DUP4 PUSH2 0x2222 JUMP JUMPDEST PUSH2 0x23D8 JUMPI DUP3 PUSH0 ADD DUP3 SWAP1 DUP1 PUSH1 0x1 DUP2 SLOAD ADD DUP1 DUP3 SSTORE DUP1 SWAP2 POP POP PUSH1 0x1 SWAP1 SUB SWAP1 PUSH0 MSTORE PUSH1 0x20 PUSH0 KECCAK256 ADD PUSH0 SWAP1 SWAP2 SWAP1 SWAP2 SWAP1 SWAP2 POP SSTORE DUP3 PUSH0 ADD DUP1 SLOAD SWAP1 POP DUP4 PUSH1 0x1 ADD PUSH0 DUP5 DUP2 MSTORE PUSH1 0x20 ADD SWAP1 DUP2 MSTORE PUSH1 0x20 ADD PUSH0 KECCAK256 DUP2 SWAP1 SSTORE POP PUSH1 0x1 SWAP1 POP PUSH2 0x23DC JUMP JUMPDEST PUSH0 SWAP1 POP JUMPDEST SWAP3 SWAP2 POP POP JUMP JUMPDEST PUSH0 PUSH32 0x1FFC9A700000000000000000000000000000000000000000000000000000000 PUSH28 0xFFFFFFFFFFFFFFFFFFFFFFFFFFFFFFFFFFFFFFFFFFFFFFFFFFFFFFFF NOT AND DUP3 PUSH28 0xFFFFFFFFFFFFFFFFFFFFFFFFFFFFFFFFFFFFFFFFFFFFFFFFFFFFFFFF NOT AND EQ SWAP1 POP SWAP2 SWAP1 POP JUMP JUMPDEST PUSH0 PUSH1 0x40 MLOAD SWAP1 POP SWAP1 JUMP JUMPDEST PUSH0 DUP1 REVERT JUMPDEST PUSH0 DUP1 REVERT JUMPDEST PUSH0 PUSH32 0xFFFFFFFF00000000000000000000000000000000000000000000000000000000 DUP3 AND SWAP1 POP SWAP2 SWAP1 POP JUMP JUMPDEST PUSH2 0x2490 DUP2 PUSH2 0x245C JUMP JUMPDEST DUP2 EQ PUSH2 0x249A JUMPI PUSH0 DUP1 REVERT JUMPDEST POP JUMP JUMPDEST PUSH0 DUP2 CALLDATALOAD SWAP1 POP PUSH2 0x24AB DUP2 PUSH2 0x2487 JUMP JUMPDEST SWAP3 SWAP2 POP POP JUMP JUMPDEST PUSH0 PUSH1 0x20 DUP3 DUP5 SUB SLT ISZERO PUSH2 0x24C6 JUMPI PUSH2 0x24C5 PUSH2 0x2454 JUMP JUMPDEST JUMPDEST PUSH0 PUSH2 0x24D3 DUP5 DUP3 DUP6 ADD PUSH2 0x249D JUMP JUMPDEST SWAP2 POP POP SWAP3 SWAP2 POP POP JUMP JUMPDEST PUSH0 DUP2 ISZERO ISZERO SWAP1 POP SWAP2 SWAP1 POP JUMP JUMPDEST PUSH2 0x24F0 DUP2 PUSH2 0x24DC JUMP JUMPDEST DUP3 MSTORE POP POP JUMP JUMPDEST PUSH0 PUSH1 0x20 DUP3 ADD SWAP1 POP PUSH2 0x2509 PUSH0 DUP4 ADD DUP5 PUSH2 0x24E7 JUMP JUMPDEST SWAP3 SWAP2 POP POP JUMP JUMPDEST PUSH0 PUSH20 0xFFFFFFFFFFFFFFFFFFFFFFFFFFFFFFFFFFFFFFFF DUP3 AND SWAP1 POP SWAP2 SWAP1 POP JUMP JUMPDEST PUSH0 PUSH2 0x2538 DUP3 PUSH2 0x250F JUMP JUMPDEST SWAP1 POP SWAP2 SWAP1 POP JUMP JUMPDEST PUSH2 0x2548 DUP2 PUSH2 0x252E JUMP JUMPDEST DUP2 EQ PUSH2 0x2552 JUMPI PUSH0 DUP1 REVERT JUMPDEST POP JUMP JUMPDEST PUSH0 DUP2 CALLDATALOAD SWAP1 POP PUSH2 0x2563 DUP2 PUSH2 0x253F JUMP JUMPDEST SWAP3 SWAP2 POP POP JUMP JUMPDEST PUSH0 PUSH1 0x20 DUP3 DUP5 SUB SLT ISZERO PUSH2 0x257E JUMPI PUSH2 0x257D PUSH2 0x2454 JUMP JUMPDEST JUMPDEST PUSH0 PUSH2 0x258B DUP5 DUP3 DUP6 ADD PUSH2 0x2555 JUMP JUMPDEST SWAP2 POP POP SWAP3 SWAP2 POP POP JUMP JUMPDEST PUSH0 DUP2 SWAP1 POP SWAP2 SWAP1 POP JUMP JUMPDEST PUSH2 0x25A6 DUP2 PUSH2 0x2594 JUMP JUMPDEST DUP3 MSTORE POP POP JUMP JUMPDEST PUSH0 PUSH1 0x20 DUP3 ADD SWAP1 POP PUSH2 0x25BF PUSH0 DUP4 ADD DUP5 PUSH2 0x259D JUMP JUMPDEST SWAP3 SWAP2 POP POP JUMP JUMPDEST PUSH0 DUP2 MLOAD SWAP1 POP SWAP2 SWAP1 POP JUMP JUMPDEST PUSH0 DUP3 DUP3 MSTORE PUSH1 0x20 DUP3 ADD SWAP1 POP SWAP3 SWAP2 POP POP JUMP JUMPDEST DUP3 DUP2 DUP4 MCOPY PUSH0 DUP4 DUP4 ADD MSTORE POP POP POP JUMP JUMPDEST PUSH0 PUSH1 0x1F NOT PUSH1 0x1F DUP4 ADD AND SWAP1 POP SWAP2 SWAP1 POP JUMP JUMPDEST PUSH0 PUSH2 0x2607 DUP3 PUSH2 0x25C5 JUMP JUMPDEST PUSH2 0x2611 DUP2 DUP6 PUSH2 0x25CF JUMP JUMPDEST SWAP4 POP PUSH2 0x2621 DUP2 DUP6 PUSH1 0x20 DUP7 ADD PUSH2 0x25DF JUMP JUMPDEST PUSH2 0x262A DUP2 PUSH2 0x25ED JUMP JUMPDEST DUP5 ADD SWAP2 POP POP SWAP3 SWAP2 POP POP JUMP JUMPDEST PUSH0 PUSH1 0x20 DUP3 ADD SWAP1 POP DUP2 DUP2 SUB PUSH0 DUP4 ADD MSTORE PUSH2 0x264D DUP2 DUP5 PUSH2 0x25FD JUMP JUMPDEST SWAP1 POP SWAP3 SWAP2 POP POP JUMP JUMPDEST PUSH0 DUP2 MLOAD SWAP1 POP SWAP2 SWAP1 POP JUMP JUMPDEST PUSH0 DUP3 DUP3 MSTORE PUSH1 0x20 DUP3 ADD SWAP1 POP SWAP3 SWAP2 POP POP JUMP JUMPDEST PUSH0 DUP2 SWAP1 POP PUSH1 0x20 DUP3 ADD SWAP1 POP SWAP2 SWAP1 POP JUMP JUMPDEST PUSH2 0x2687 DUP2 PUSH2 0x252E JUMP JUMPDEST DUP3 MSTORE POP POP JUMP JUMPDEST PUSH0 PUSH2 0x2698 DUP4 DUP4 PUSH2 0x267E JUMP JUMPDEST PUSH1 0x20 DUP4 ADD SWAP1 POP SWAP3 SWAP2 POP POP JUMP JUMPDEST PUSH0 PUSH1 0x20 DUP3 ADD SWAP1 POP SWAP2 SWAP1 POP JUMP JUMPDEST PUSH0 PUSH2 0x26BA DUP3 PUSH2 0x2655 JUMP JUMPDEST PUSH2 0x26C4 DUP2 DUP6 PUSH2 0x265F JUMP JUMPDEST SWAP4 POP PUSH2 0x26CF DUP4 PUSH2 0x266F JUMP JUMPDEST DUP1 PUSH0 JUMPDEST DUP4 DUP2 LT ISZERO PUSH2 0x26FF JUMPI DUP2 MLOAD PUSH2 0x26E6 DUP9 DUP3 PUSH2 0x268D JUMP JUMPDEST SWAP8 POP PUSH2 0x26F1 DUP4 PUSH2 0x26A4 JUMP JUMPDEST SWAP3 POP POP PUSH1 0x1 DUP2 ADD SWAP1 POP PUSH2 0x26D2 JUMP JUMPDEST POP DUP6 SWAP4 POP POP POP POP SWAP3 SWAP2 POP POP JUMP JUMPDEST PUSH0 PUSH1 0x20 DUP3 ADD SWAP1 POP DUP2 DUP2 SUB PUSH0 DUP4 ADD MSTORE PUSH2 0x2724 DUP2 DUP5 PUSH2 0x26B0 JUMP JUMPDEST SWAP1 POP SWAP3 SWAP2 POP POP JUMP JUMPDEST PUSH0 DUP2 SWAP1 POP SWAP2 SWAP1 POP JUMP JUMPDEST PUSH2 0x273E DUP2 PUSH2 0x272C JUMP JUMPDEST DUP2 EQ PUSH2 0x2748 JUMPI PUSH0 DUP1 REVERT JUMPDEST POP JUMP JUMPDEST PUSH0 DUP2 CALLDATALOAD SWAP1 POP PUSH2 0x2759 DUP2 PUSH2 0x2735 JUMP JUMPDEST SWAP3 SWAP2 POP POP JUMP JUMPDEST PUSH0 PUSH1 0x20 DUP3 DUP5 SUB SLT ISZERO PUSH2 0x2774 JUMPI PUSH2 0x2773 PUSH2 0x2454 JUMP JUMPDEST JUMPDEST PUSH0 PUSH2 0x2781 DUP5 DUP3 DUP6 ADD PUSH2 0x274B JUMP JUMPDEST SWAP2 POP POP SWAP3 SWAP2 POP POP JUMP JUMPDEST PUSH0 DUP1 REVERT JUMPDEST PUSH0 DUP1 REVERT JUMPDEST PUSH32 0x4E487B7100000000000000000000000000000000000000000000000000000000 PUSH0 MSTORE PUSH1 0x41 PUSH1 0x4 MSTORE PUSH1 0x24 PUSH0 REVERT JUMPDEST PUSH2 0x27C8 DUP3 PUSH2 0x25ED JUMP JUMPDEST DUP2 ADD DUP2 DUP2 LT PUSH8 0xFFFFFFFFFFFFFFFF DUP3 GT OR ISZERO PUSH2 0x27E7 JUMPI PUSH2 0x27E6 PUSH2 0x2792 JUMP JUMPDEST JUMPDEST DUP1 PUSH1 0x40 MSTORE POP POP POP JUMP JUMPDEST PUSH0 PUSH2 0x27F9 PUSH2 0x244B JUMP JUMPDEST SWAP1 POP PUSH2 0x2805 DUP3 DUP3 PUSH2 0x27BF JUMP JUMPDEST SWAP2 SWAP1 POP JUMP JUMPDEST PUSH0 PUSH8 0xFFFFFFFFFFFFFFFF DUP3 GT ISZERO PUSH2 0x2824 JUMPI PUSH2 0x2823 PUSH2 0x2792 JUMP JUMPDEST JUMPDEST PUSH2 0x282D DUP3 PUSH2 0x25ED JUMP JUMPDEST SWAP1 POP PUSH1 0x20 DUP2 ADD SWAP1 POP SWAP2 SWAP1 POP JUMP JUMPDEST DUP3 DUP2 DUP4 CALLDATACOPY PUSH0 DUP4 DUP4 ADD MSTORE POP POP POP JUMP JUMPDEST PUSH0 PUSH2 0x285A PUSH2 0x2855 DUP5 PUSH2 0x280A JUMP JUMPDEST PUSH2 0x27F0 JUMP JUMPDEST SWAP1 POP DUP3 DUP2 MSTORE PUSH1 0x20 DUP2 ADD DUP5 DUP5 DUP5 ADD GT ISZERO PUSH2 0x2876 JUMPI PUSH2 0x2875 PUSH2 0x278E JUMP JUMPDEST JUMPDEST PUSH2 0x2881 DUP5 DUP3 DUP6 PUSH2 0x283A JUMP JUMPDEST POP SWAP4 SWAP3 POP POP POP JUMP JUMPDEST PUSH0 DUP3 PUSH1 0x1F DUP4 ADD SLT PUSH2 0x289D JUMPI PUSH2 0x289C PUSH2 0x278A JUMP JUMPDEST JUMPDEST DUP2 CALLDATALOAD PUSH2 0x28AD DUP5 DUP3 PUSH1 0x20 DUP7 ADD PUSH2 0x2848 JUMP JUMPDEST SWAP2 POP POP SWAP3 SWAP2 POP POP JUMP JUMPDEST PUSH0 PUSH1 0x20 DUP3 DUP5 SUB SLT ISZERO PUSH2 0x28CB JUMPI PUSH2 0x28CA PUSH2 0x2454 JUMP JUMPDEST JUMPDEST PUSH0 DUP3 ADD CALLDATALOAD PUSH8 0xFFFFFFFFFFFFFFFF DUP2 GT ISZERO PUSH2 0x28E8 JUMPI PUSH2 0x28E7 PUSH2 0x2458 JUMP JUMPDEST JUMPDEST PUSH2 0x28F4 DUP5 DUP3 DUP6 ADD PUSH2 0x2889 JUMP JUMPDEST SWAP2 POP POP SWAP3 SWAP2 POP POP JUMP JUMPDEST PUSH2 0x2906 DUP2 PUSH2 0x2594 JUMP JUMPDEST DUP2 EQ PUSH2 0x2910 JUMPI PUSH0 DUP1 REVERT JUMPDEST POP JUMP JUMPDEST PUSH0 DUP2 CALLDATALOAD SWAP1 POP PUSH2 0x2921 DUP2 PUSH2 0x28FD JUMP JUMPDEST SWAP3 SWAP2 POP POP JUMP JUMPDEST PUSH0 PUSH1 0x20 DUP3 DUP5 SUB SLT ISZERO PUSH2 0x293C JUMPI PUSH2 0x293B PUSH2 0x2454 JUMP JUMPDEST JUMPDEST PUSH0 PUSH2 0x2949 DUP5 DUP3 DUP6 ADD PUSH2 0x2913 JUMP JUMPDEST SWAP2 POP POP SWAP3 SWAP2 POP POP JUMP JUMPDEST PUSH0 PUSH32 0xFF00000000000000000000000000000000000000000000000000000000000000 DUP3 AND SWAP1 POP SWAP2 SWAP1 POP JUMP JUMPDEST PUSH2 0x2986 DUP2 PUSH2 0x2952 JUMP JUMPDEST DUP2 EQ PUSH2 0x2990 JUMPI PUSH0 DUP1 REVERT JUMPDEST POP JUMP JUMPDEST PUSH0 DUP2 CALLDATALOAD SWAP1 POP PUSH2 0x29A1 DUP2 PUSH2 0x297D JUMP JUMPDEST SWAP3 SWAP2 POP POP JUMP JUMPDEST PUSH0 PUSH1 0x20 DUP3 DUP5 SUB SLT ISZERO PUSH2 0x29BC JUMPI PUSH2 0x29BB PUSH2 0x2454 JUMP JUMPDEST JUMPDEST PUSH0 PUSH2 0x29C9 DUP5 DUP3 DUP6 ADD PUSH2 0x2993 JUMP JUMPDEST SWAP2 POP POP SWAP3 SWAP2 POP POP JUMP JUMPDEST PUSH2 0x29DB DUP2 PUSH2 0x2952 JUMP JUMPDEST DUP3 MSTORE POP POP JUMP JUMPDEST PUSH0 PUSH1 0x20 DUP3 ADD SWAP1 POP PUSH2 0x29F4 PUSH0 DUP4 ADD DUP5 PUSH2 0x29D2 JUMP JUMPDEST SWAP3 SWAP2 POP POP JUMP JUMPDEST PUSH2 0x2A03 DUP2 PUSH2 0x252E JUMP JUMPDEST DUP3 MSTORE POP POP JUMP JUMPDEST PUSH0 PUSH1 0x20 DUP3 ADD SWAP1 POP PUSH2 0x2A1C PUSH0 DUP4 ADD DUP5 PUSH2 0x29FA JUMP JUMPDEST SWAP3 SWAP2 POP POP JUMP JUMPDEST PUSH0 DUP1 PUSH1 0x40 DUP4 DUP6 SUB SLT ISZERO PUSH2 0x2A38 JUMPI PUSH2 0x2A37 PUSH2 0x2454 JUMP JUMPDEST JUMPDEST PUSH0 PUSH2 0x2A45 DUP6 DUP3 DUP7 ADD PUSH2 0x2555 JUMP JUMPDEST SWAP3 POP POP PUSH1 0x20 PUSH2 0x2A56 DUP6 DUP3 DUP7 ADD PUSH2 0x2913 JUMP JUMPDEST SWAP2 POP POP SWAP3 POP SWAP3 SWAP1 POP JUMP JUMPDEST PUSH32 0x556E617574686F72697A65640000000000000000000000000000000000000000 PUSH0 DUP3 ADD MSTORE POP JUMP JUMPDEST PUSH0 PUSH2 0x2A94 PUSH1 0xC DUP4 PUSH2 0x25CF JUMP JUMPDEST SWAP2 POP PUSH2 0x2A9F DUP3 PUSH2 0x2A60 JUMP JUMPDEST PUSH1 0x20 DUP3 ADD SWAP1 POP SWAP2 SWAP1 POP JUMP JUMPDEST PUSH0 PUSH1 0x20 DUP3 ADD SWAP1 POP DUP2 DUP2 SUB PUSH0 DUP4 ADD MSTORE PUSH2 0x2AC1 DUP2 PUSH2 0x2A88 JUMP JUMPDEST SWAP1 POP SWAP2 SWAP1 POP JUMP JUMPDEST PUSH32 0x4E487B7100000000000000000000000000000000000000000000000000000000 PUSH0 MSTORE PUSH1 0x22 PUSH1 0x4 MSTORE PUSH1 0x24 PUSH0 REVERT JUMPDEST PUSH0 PUSH1 0x2 DUP3 DIV SWAP1 POP PUSH1 0x1 DUP3 AND DUP1 PUSH2 0x2B0C JUMPI PUSH1 0x7F DUP3 AND SWAP2 POP JUMPDEST PUSH1 0x20 DUP3 LT DUP2 SUB PUSH2 0x2B1F JUMPI PUSH2 0x2B1E PUSH2 0x2AC8 JUMP JUMPDEST JUMPDEST POP SWAP2 SWAP1 POP JUMP JUMPDEST PUSH32 0x4E487B7100000000000000000000000000000000000000000000000000000000 PUSH0 MSTORE PUSH1 0x32 PUSH1 0x4 MSTORE PUSH1 0x24 PUSH0 REVERT JUMPDEST PUSH32 0x4E487B7100000000000000000000000000000000000000000000000000000000 PUSH0 MSTORE PUSH1 0x11 PUSH1 0x4 MSTORE PUSH1 0x24 PUSH0 REVERT JUMPDEST PUSH0 PUSH2 0x2B89 DUP3 PUSH2 0x2594 JUMP JUMPDEST SWAP2 POP PUSH2 0x2B94 DUP4 PUSH2 0x2594 JUMP JUMPDEST SWAP3 POP DUP3 DUP3 SUB SWAP1 POP DUP2 DUP2 GT ISZERO PUSH2 0x2BAC JUMPI PUSH2 0x2BAB PUSH2 0x2B52 JUMP JUMPDEST JUMPDEST SWAP3 SWAP2 POP POP JUMP JUMPDEST PUSH0 PUSH2 0x2BBC DUP3 PUSH2 0x2594 JUMP JUMPDEST SWAP2 POP PUSH2 0x2BC7 DUP4 PUSH2 0x2594 JUMP JUMPDEST SWAP3 POP DUP3 DUP3 MUL PUSH2 0x2BD5 DUP2 PUSH2 0x2594 JUMP JUMPDEST SWAP2 POP DUP3 DUP3 DIV DUP5 EQ DUP4 ISZERO OR PUSH2 0x2BEC JUMPI PUSH2 0x2BEB PUSH2 0x2B52 JUMP JUMPDEST JUMPDEST POP SWAP3 SWAP2 POP POP JUMP JUMPDEST PUSH0 DUP2 PUSH1 0x1 SHR SWAP1 POP SWAP2 SWAP1 POP JUMP JUMPDEST PUSH0 DUP1 DUP3 SWAP2 POP DUP4 SWAP1 POP JUMPDEST PUSH1 0x1 DUP6 GT ISZERO PUSH2 0x2C48 JUMPI DUP1 DUP7 DIV DUP2 GT ISZERO PUSH2 0x2C24 JUMPI PUSH2 0x2C23 PUSH2 0x2B52 JUMP JUMPDEST JUMPDEST PUSH1 0x1 DUP6 AND ISZERO PUSH2 0x2C33 JUMPI DUP1 DUP3 MUL SWAP2 POP JUMPDEST DUP1 DUP2 MUL SWAP1 POP PUSH2 0x2C41 DUP6 PUSH2 0x2BF3 JUMP JUMPDEST SWAP5 POP PUSH2 0x2C08 JUMP JUMPDEST SWAP5 POP SWAP5 SWAP3 POP POP POP JUMP JUMPDEST PUSH0 DUP3 PUSH2 0x2C60 JUMPI PUSH1 0x1 SWAP1 POP PUSH2 0x2D1B JUMP JUMPDEST DUP2 PUSH2 0x2C6D JUMPI PUSH0 SWAP1 POP PUSH2 0x2D1B JUMP JUMPDEST DUP2 PUSH1 0x1 DUP2 EQ PUSH2 0x2C83 JUMPI PUSH1 0x2 DUP2 EQ PUSH2 0x2C8D JUMPI PUSH2 0x2CBC JUMP JUMPDEST PUSH1 0x1 SWAP2 POP POP PUSH2 0x2D1B JUMP JUMPDEST PUSH1 0xFF DUP5 GT ISZERO PUSH2 0x2C9F JUMPI PUSH2 0x2C9E PUSH2 0x2B52 JUMP JUMPDEST JUMPDEST DUP4 PUSH1 0x2 EXP SWAP2 POP DUP5 DUP3 GT ISZERO PUSH2 0x2CB6 JUMPI PUSH2 0x2CB5 PUSH2 0x2B52 JUMP JUMPDEST JUMPDEST POP PUSH2 0x2D1B JUMP JUMPDEST POP PUSH1 0x20 DUP4 LT PUSH2 0x133 DUP4 LT AND PUSH1 0x4E DUP5 LT PUSH1 0xB DUP5 LT AND OR ISZERO PUSH2 0x2CF1 JUMPI DUP3 DUP3 EXP SWAP1 POP DUP4 DUP2 GT ISZERO PUSH2 0x2CEC JUMPI PUSH2 0x2CEB PUSH2 0x2B52 JUMP JUMPDEST JUMPDEST PUSH2 0x2D1B JUMP JUMPDEST PUSH2 0x2CFE DUP5 DUP5 DUP5 PUSH1 0x1 PUSH2 0x2BFF JUMP JUMPDEST SWAP3 POP SWAP1 POP DUP2 DUP5 DIV DUP2 GT ISZERO PUSH2 0x2D15 JUMPI PUSH2 0x2D14 PUSH2 0x2B52 JUMP JUMPDEST JUMPDEST DUP2 DUP2 MUL SWAP1 POP JUMPDEST SWAP4 SWAP3 POP POP POP JUMP JUMPDEST PUSH0 PUSH2 0x2D2C DUP3 PUSH2 0x2594 JUMP JUMPDEST SWAP2 POP PUSH2 0x2D37 DUP4 PUSH2 0x2594 JUMP JUMPDEST SWAP3 POP PUSH2 0x2D64 PUSH32 0xFFFFFFFFFFFFFFFFFFFFFFFFFFFFFFFFFFFFFFFFFFFFFFFFFFFFFFFFFFFFFFFF DUP5 DUP5 PUSH2 0x2C51 JUMP JUMPDEST SWAP1 POP SWAP3 SWAP2 POP POP JUMP JUMPDEST PUSH32 0x4E487B7100000000000000000000000000000000000000000000000000000000 PUSH0 MSTORE PUSH1 0x12 PUSH1 0x4 MSTORE PUSH1 0x24 PUSH0 REVERT JUMPDEST PUSH0 PUSH2 0x2DA3 DUP3 PUSH2 0x2594 JUMP JUMPDEST SWAP2 POP PUSH2 0x2DAE DUP4 PUSH2 0x2594 JUMP JUMPDEST SWAP3 POP DUP3 PUSH2 0x2DBE JUMPI PUSH2 0x2DBD PUSH2 0x2D6C JUMP JUMPDEST JUMPDEST DUP3 DUP3 DIV SWAP1 POP SWAP3 SWAP2 POP POP JUMP JUMPDEST PUSH0 PUSH2 0x2DD3 DUP3 PUSH2 0x2594 JUMP JUMPDEST SWAP2 POP PUSH2 0x2DDE DUP4 PUSH2 0x2594 JUMP JUMPDEST SWAP3 POP DUP3 DUP3 ADD SWAP1 POP DUP1 DUP3 GT ISZERO PUSH2 0x2DF6 JUMPI PUSH2 0x2DF5 PUSH2 0x2B52 JUMP JUMPDEST JUMPDEST SWAP3 SWAP2 POP POP JUMP JUMPDEST PUSH0 DUP2 SWAP1 POP SWAP3 SWAP2 POP POP JUMP JUMPDEST PUSH32 0x646174613A696D6167652F7376672B786D6C3B6261736536342C000000000000 PUSH0 DUP3 ADD MSTORE POP JUMP JUMPDEST PUSH0 PUSH2 0x2E3A PUSH1 0x1A DUP4 PUSH2 0x2DFC JUMP JUMPDEST SWAP2 POP PUSH2 0x2E45 DUP3 PUSH2 0x2E06 JUMP JUMPDEST PUSH1 0x1A DUP3 ADD SWAP1 POP SWAP2 SWAP1 POP JUMP JUMPDEST PUSH0 PUSH2 0x2E5A DUP3 PUSH2 0x25C5 JUMP JUMPDEST PUSH2 0x2E64 DUP2 DUP6 PUSH2 0x2DFC JUMP JUMPDEST SWAP4 POP PUSH2 0x2E74 DUP2 DUP6 PUSH1 0x20 DUP7 ADD PUSH2 0x25DF JUMP JUMPDEST DUP1 DUP5 ADD SWAP2 POP POP SWAP3 SWAP2 POP POP JUMP JUMPDEST PUSH0 PUSH2 0x2E8A DUP3 PUSH2 0x2E2E JUMP JUMPDEST SWAP2 POP PUSH2 0x2E96 DUP3 DUP5 PUSH2 0x2E50 JUMP JUMPDEST SWAP2 POP DUP2 SWAP1 POP SWAP3 SWAP2 POP POP JUMP JUMPDEST PUSH32 0x3000000000000000000000000000000000000000000000000000000000000000 PUSH0 DUP3 ADD MSTORE POP JUMP JUMPDEST PUSH0 PUSH2 0x2ED5 PUSH1 0x1 DUP4 PUSH2 0x2DFC JUMP JUMPDEST SWAP2 POP PUSH2 0x2EE0 DUP3 PUSH2 0x2EA1 JUMP JUMPDEST PUSH1 0x1 DUP3 ADD SWAP1 POP SWAP2 SWAP1 POP JUMP JUMPDEST PUSH0 PUSH2 0x2EF5 DUP3 PUSH2 0x2EC9 JUMP JUMPDEST SWAP2 POP DUP2 SWAP1 POP SWAP2 SWAP1 POP JUMP JUMPDEST PUSH0 DUP2 SWAP1 POP DUP2 PUSH0 MSTORE PUSH1 0x20 PUSH0 KECCAK256 SWAP1 POP SWAP2 SWAP1 POP JUMP JUMPDEST PUSH0 DUP2 SLOAD PUSH2 0x2F1D DUP2 PUSH2 0x2AF5 JUMP JUMPDEST PUSH2 0x2F27 DUP2 DUP7 PUSH2 0x2DFC JUMP JUMPDEST SWAP5 POP PUSH1 0x1 DUP3 AND PUSH0 DUP2 EQ PUSH2 0x2F41 JUMPI PUSH1 0x1 DUP2 EQ PUSH2 0x2F56 JUMPI PUSH2 0x2F88 JUMP JUMPDEST PUSH1 0xFF NOT DUP4 AND DUP7 MSTORE DUP2 ISZERO ISZERO DUP3 MUL DUP7 ADD SWAP4 POP PUSH2 0x2F88 JUMP JUMPDEST PUSH2 0x2F5F DUP6 PUSH2 0x2EFF JUMP JUMPDEST PUSH0 JUMPDEST DUP4 DUP2 LT ISZERO PUSH2 0x2F80 JUMPI DUP2 SLOAD DUP2 DUP10 ADD MSTORE PUSH1 0x1 DUP3 ADD SWAP2 POP PUSH1 0x20 DUP2 ADD SWAP1 POP PUSH2 0x2F61 JUMP JUMPDEST DUP4 DUP9 ADD SWAP6 POP POP POP JUMPDEST POP POP POP SWAP3 SWAP2 POP POP JUMP JUMPDEST PUSH0 PUSH2 0x2F9C DUP3 DUP5 PUSH2 0x2F11 JUMP JUMPDEST SWAP2 POP DUP2 SWAP1 POP SWAP3 SWAP2 POP POP JUMP JUMPDEST PUSH0 PUSH2 0x2FB9 PUSH2 0x2FB4 DUP5 PUSH2 0x280A JUMP JUMPDEST PUSH2 0x27F0 JUMP JUMPDEST SWAP1 POP DUP3 DUP2 MSTORE PUSH1 0x20 DUP2 ADD DUP5 DUP5 DUP5 ADD GT ISZERO PUSH2 0x2FD5 JUMPI PUSH2 0x2FD4 PUSH2 0x278E JUMP JUMPDEST JUMPDEST PUSH2 0x2FE0 DUP5 DUP3 DUP6 PUSH2 0x25DF JUMP JUMPDEST POP SWAP4 SWAP3 POP POP POP JUMP JUMPDEST PUSH0 DUP3 PUSH1 0x1F DUP4 ADD SLT PUSH2 0x2FFC JUMPI PUSH2 0x2FFB PUSH2 0x278A JUMP JUMPDEST JUMPDEST DUP2 MLOAD PUSH2 0x300C DUP5 DUP3 PUSH1 0x20 DUP7 ADD PUSH2 0x2FA7 JUMP JUMPDEST SWAP2 POP POP SWAP3 SWAP2 POP POP JUMP JUMPDEST PUSH0 PUSH1 0x20 DUP3 DUP5 SUB SLT ISZERO PUSH2 0x302A JUMPI PUSH2 0x3029 PUSH2 0x2454 JUMP JUMPDEST JUMPDEST PUSH0 DUP3 ADD MLOAD PUSH8 0xFFFFFFFFFFFFFFFF DUP2 GT ISZERO PUSH2 0x3047 JUMPI PUSH2 0x3046 PUSH2 0x2458 JUMP JUMPDEST JUMPDEST PUSH2 0x3053 DUP5 DUP3 DUP6 ADD PUSH2 0x2FE8 JUMP JUMPDEST SWAP2 POP POP SWAP3 SWAP2 POP POP JUMP JUMPDEST PUSH0 DUP2 SLOAD PUSH2 0x3068 DUP2 PUSH2 0x2AF5 JUMP JUMPDEST PUSH2 0x3072 DUP2 DUP7 PUSH2 0x25CF JUMP JUMPDEST SWAP5 POP PUSH1 0x1 DUP3 AND PUSH0 DUP2 EQ PUSH2 0x308C JUMPI PUSH1 0x1 DUP2 EQ PUSH2 0x30A2 JUMPI PUSH2 0x30D4 JUMP JUMPDEST PUSH1 0xFF NOT DUP4 AND DUP7 MSTORE DUP2 ISZERO ISZERO PUSH1 0x20 MUL DUP7 ADD SWAP4 POP PUSH2 0x30D4 JUMP JUMPDEST PUSH2 0x30AB DUP6 PUSH2 0x2EFF JUMP JUMPDEST PUSH0 JUMPDEST DUP4 DUP2 LT ISZERO PUSH2 0x30CC JUMPI DUP2 SLOAD DUP2 DUP10 ADD MSTORE PUSH1 0x1 DUP3 ADD SWAP2 POP PUSH1 0x20 DUP2 ADD SWAP1 POP PUSH2 0x30AD JUMP JUMPDEST DUP1 DUP9 ADD SWAP6 POP POP POP JUMPDEST POP POP POP SWAP3 SWAP2 POP POP JUMP JUMPDEST PUSH0 PUSH1 0x20 DUP3 ADD SWAP1 POP DUP2 DUP2 SUB PUSH0 DUP4 ADD MSTORE PUSH2 0x30F5 DUP2 DUP5 PUSH2 0x305C JUMP JUMPDEST SWAP1 POP SWAP3 SWAP2 POP POP JUMP JUMPDEST PUSH0 PUSH2 0x3108 DUP3 DUP7 PUSH2 0x2E50 JUMP JUMPDEST SWAP2 POP PUSH2 0x3114 DUP3 DUP6 PUSH2 0x2E50 JUMP JUMPDEST SWAP2 POP PUSH2 0x3120 DUP3 DUP5 PUSH2 0x2E50 JUMP JUMPDEST SWAP2 POP DUP2 SWAP1 POP SWAP5 SWAP4 POP POP POP POP JUMP JUMPDEST PUSH32 0x7B226E616D65223A202200000000000000000000000000000000000000000000 PUSH0 DUP3 ADD MSTORE POP JUMP JUMPDEST PUSH0 PUSH2 0x3161 PUSH1 0xA DUP4 PUSH2 0x2DFC JUMP JUMPDEST SWAP2 POP PUSH2 0x316C DUP3 PUSH2 0x312D JUMP JUMPDEST PUSH1 0xA DUP3 ADD SWAP1 POP SWAP2 SWAP1 POP JUMP JUMPDEST PUSH32 0x222C20226465736372697074696F6E223A20225F6465736372697074696F6E22 PUSH0 DUP3 ADD MSTORE PUSH32 0x2C00000000000000000000000000000000000000000000000000000000000000 PUSH1 0x20 DUP3 ADD MSTORE POP JUMP JUMPDEST PUSH0 PUSH2 0x31D1 PUSH1 0x21 DUP4 PUSH2 0x2DFC JUMP JUMPDEST SWAP2 POP PUSH2 0x31DC DUP3 PUSH2 0x3177 JUMP JUMPDEST PUSH1 0x21 DUP3 ADD SWAP1 POP SWAP2 SWAP1 POP JUMP JUMPDEST PUSH32 0x22696D616765223A202200000000000000000000000000000000000000000000 PUSH0 DUP3 ADD MSTORE POP JUMP JUMPDEST PUSH0 PUSH2 0x321B PUSH1 0xA DUP4 PUSH2 0x2DFC JUMP JUMPDEST SWAP2 POP PUSH2 0x3226 DUP3 PUSH2 0x31E7 JUMP JUMPDEST PUSH1 0xA DUP3 ADD SWAP1 POP SWAP2 SWAP1 POP JUMP JUMPDEST PUSH32 0x222C2022616E696D6174696F6E5F75726C223A20220000000000000000000000 PUSH0 DUP3 ADD MSTORE POP JUMP JUMPDEST PUSH0 PUSH2 0x3265 PUSH1 0x15 DUP4 PUSH2 0x2DFC JUMP JUMPDEST SWAP2 POP PUSH2 0x3270 DUP3 PUSH2 0x3231 JUMP JUMPDEST PUSH1 0x15 DUP3 ADD SWAP1 POP SWAP2 SWAP1 POP JUMP JUMPDEST PUSH32 0x227D000000000000000000000000000000000000000000000000000000000000 PUSH0 DUP3 ADD MSTORE POP JUMP JUMPDEST PUSH0 PUSH2 0x32AF PUSH1 0x2 DUP4 PUSH2 0x2DFC JUMP JUMPDEST SWAP2 POP PUSH2 0x32BA DUP3 PUSH2 0x327B JUMP JUMPDEST PUSH1 0x2 DUP3 ADD SWAP1 POP SWAP2 SWAP1 POP JUMP JUMPDEST PUSH0 PUSH2 0x32CF DUP3 PUSH2 0x3155 JUMP JUMPDEST SWAP2 POP PUSH2 0x32DB DUP3 DUP7 PUSH2 0x2F11 JUMP JUMPDEST SWAP2 POP PUSH2 0x32E6 DUP3 PUSH2 0x31C5 JUMP JUMPDEST SWAP2 POP PUSH2 0x32F1 DUP3 PUSH2 0x320F JUMP JUMPDEST SWAP2 POP PUSH2 0x32FD DUP3 DUP6 PUSH2 0x2F11 JUMP JUMPDEST SWAP2 POP PUSH2 0x3308 DUP3 PUSH2 0x3259 JUMP JUMPDEST SWAP2 POP PUSH2 0x3314 DUP3 DUP5 PUSH2 0x2E50 JUMP JUMPDEST SWAP2 POP PUSH2 0x331F DUP3 PUSH2 0x32A3 JUMP JUMPDEST SWAP2 POP DUP2 SWAP1 POP SWAP5 SWAP4 POP POP POP POP JUMP JUMPDEST PUSH32 0x646174613A6170706C69636174696F6E2F6A736F6E3B6261736536342C000000 PUSH0 DUP3 ADD MSTORE POP JUMP JUMPDEST PUSH0 PUSH2 0x3360 PUSH1 0x1D DUP4 PUSH2 0x2DFC JUMP JUMPDEST SWAP2 POP PUSH2 0x336B DUP3 PUSH2 0x332C JUMP JUMPDEST PUSH1 0x1D DUP3 ADD SWAP1 POP SWAP2 SWAP1 POP JUMP JUMPDEST PUSH0 PUSH2 0x3380 DUP3 PUSH2 0x3354 JUMP JUMPDEST SWAP2 POP PUSH2 0x338C DUP3 DUP5 PUSH2 0x2E50 JUMP JUMPDEST SWAP2 POP DUP2 SWAP1 POP SWAP3 SWAP2 POP POP JUMP JUMPDEST PUSH0 PUSH1 0xFF DUP3 AND SWAP1 POP SWAP2 SWAP1 POP JUMP JUMPDEST PUSH0 PUSH2 0x33AD DUP3 PUSH2 0x3397 JUMP JUMPDEST SWAP2 POP PUSH2 0x33B8 DUP4 PUSH2 0x3397 JUMP JUMPDEST SWAP3 POP DUP3 DUP3 ADD SWAP1 POP PUSH1 0xFF DUP2 GT ISZERO PUSH2 0x33D1 JUMPI PUSH2 0x33D0 PUSH2 0x2B52 JUMP JUMPDEST JUMPDEST SWAP3 SWAP2 POP POP JUMP JUMPDEST PUSH32 0x4E6F206D6F726520746F6B656E73206C65667400000000000000000000000000 PUSH0 DUP3 ADD MSTORE POP JUMP JUMPDEST PUSH0 PUSH2 0x340B PUSH1 0x13 DUP4 PUSH2 0x25CF JUMP JUMPDEST SWAP2 POP PUSH2 0x3416 DUP3 PUSH2 0x33D7 JUMP JUMPDEST PUSH1 0x20 DUP3 ADD SWAP1 POP SWAP2 SWAP1 POP JUMP JUMPDEST PUSH0 PUSH1 0x20 DUP3 ADD SWAP1 POP DUP2 DUP2 SUB PUSH0 DUP4 ADD MSTORE PUSH2 0x3438 DUP2 PUSH2 0x33FF JUMP JUMPDEST SWAP1 POP SWAP2 SWAP1 POP JUMP JUMPDEST PUSH0 DUP2 MLOAD SWAP1 POP PUSH2 0x344D DUP2 PUSH2 0x28FD JUMP JUMPDEST SWAP3 SWAP2 POP POP JUMP JUMPDEST PUSH0 PUSH1 0x20 DUP3 DUP5 SUB SLT ISZERO PUSH2 0x3468 JUMPI PUSH2 0x3467 PUSH2 0x2454 JUMP JUMPDEST JUMPDEST PUSH0 PUSH2 0x3475 DUP5 DUP3 DUP6 ADD PUSH2 0x343F JUMP JUMPDEST SWAP2 POP POP SWAP3 SWAP2 POP POP JUMP JUMPDEST PUSH0 PUSH2 0x3488 DUP3 PUSH2 0x2594 JUMP JUMPDEST SWAP2 POP PUSH32 0xFFFFFFFFFFFFFFFFFFFFFFFFFFFFFFFFFFFFFFFFFFFFFFFFFFFFFFFFFFFFFFFF DUP3 SUB PUSH2 0x34BA JUMPI PUSH2 0x34B9 PUSH2 0x2B52 JUMP JUMPDEST JUMPDEST PUSH1 0x1 DUP3 ADD SWAP1 POP SWAP2 SWAP1 POP JUMP JUMPDEST PUSH0 PUSH1 0x20 PUSH1 0x1F DUP4 ADD DIV SWAP1 POP SWAP2 SWAP1 POP JUMP JUMPDEST PUSH0 DUP3 DUP3 SHL SWAP1 POP SWAP3 SWAP2 POP POP JUMP JUMPDEST PUSH0 PUSH1 0x8 DUP4 MUL PUSH2 0x350F PUSH32 0xFFFFFFFFFFFFFFFFFFFFFFFFFFFFFFFFFFFFFFFFFFFFFFFFFFFFFFFFFFFFFFFF DUP3 PUSH2 0x34D4 JUMP JUMPDEST PUSH2 0x3519 DUP7 DUP4 PUSH2 0x34D4 JUMP JUMPDEST SWAP6 POP DUP1 NOT DUP5 AND SWAP4 POP DUP1 DUP7 AND DUP5 OR SWAP3 POP POP POP SWAP4 SWAP3 POP POP POP JUMP JUMPDEST PUSH0 DUP2 SWAP1 POP SWAP2 SWAP1 POP JUMP JUMPDEST PUSH0 PUSH2 0x3554 PUSH2 0x354F PUSH2 0x354A DUP5 PUSH2 0x2594 JUMP JUMPDEST PUSH2 0x3531 JUMP JUMPDEST PUSH2 0x2594 JUMP JUMPDEST SWAP1 POP SWAP2 SWAP1 POP JUMP JUMPDEST PUSH0 DUP2 SWAP1 POP SWAP2 SWAP1 POP JUMP JUMPDEST PUSH2 0x356D DUP4 PUSH2 0x353A JUMP JUMPDEST PUSH2 0x3581 PUSH2 0x3579 DUP3 PUSH2 0x355B JUMP JUMPDEST DUP5 DUP5 SLOAD PUSH2 0x34E0 JUMP JUMPDEST DUP3 SSTORE POP POP POP POP JUMP JUMPDEST PUSH0 SWAP1 JUMP JUMPDEST PUSH2 0x3595 PUSH2 0x3589 JUMP JUMPDEST PUSH2 0x35A0 DUP2 DUP5 DUP5 PUSH2 0x3564 JUMP JUMPDEST POP POP POP JUMP JUMPDEST JUMPDEST DUP2 DUP2 LT ISZERO PUSH2 0x35C3 JUMPI PUSH2 0x35B8 PUSH0 DUP3 PUSH2 0x358D JUMP JUMPDEST PUSH1 0x1 DUP2 ADD SWAP1 POP PUSH2 0x35A6 JUMP JUMPDEST POP POP JUMP JUMPDEST PUSH1 0x1F DUP3 GT ISZERO PUSH2 0x3608 JUMPI PUSH2 0x35D9 DUP2 PUSH2 0x2EFF JUMP JUMPDEST PUSH2 0x35E2 DUP5 PUSH2 0x34C5 JUMP JUMPDEST DUP2 ADD PUSH1 0x20 DUP6 LT ISZERO PUSH2 0x35F1 JUMPI DUP2 SWAP1 POP JUMPDEST PUSH2 0x3605 PUSH2 0x35FD DUP6 PUSH2 0x34C5 JUMP JUMPDEST DUP4 ADD DUP3 PUSH2 0x35A5 JUMP JUMPDEST POP POP JUMPDEST POP POP POP JUMP JUMPDEST PUSH0 DUP3 DUP3 SHR SWAP1 POP SWAP3 SWAP2 POP POP JUMP JUMPDEST PUSH0 PUSH2 0x3628 PUSH0 NOT DUP5 PUSH1 0x8 MUL PUSH2 0x360D JUMP JUMPDEST NOT DUP1 DUP4 AND SWAP2 POP POP SWAP3 SWAP2 POP POP JUMP JUMPDEST PUSH0 PUSH2 0x3640 DUP4 DUP4 PUSH2 0x3619 JUMP JUMPDEST SWAP2 POP DUP3 PUSH1 0x2 MUL DUP3 OR SWAP1 POP SWAP3 SWAP2 POP POP JUMP JUMPDEST PUSH2 0x3659 DUP3 PUSH2 0x25C5 JUMP JUMPDEST PUSH8 0xFFFFFFFFFFFFFFFF DUP2 GT ISZERO PUSH2 0x3672 JUMPI PUSH2 0x3671 PUSH2 0x2792 JUMP JUMPDEST JUMPDEST PUSH2 0x367C DUP3 SLOAD PUSH2 0x2AF5 JUMP JUMPDEST PUSH2 0x3687 DUP3 DUP3 DUP6 PUSH2 0x35C7 JUMP JUMPDEST PUSH0 PUSH1 0x20 SWAP1 POP PUSH1 0x1F DUP4 GT PUSH1 0x1 DUP2 EQ PUSH2 0x36B8 JUMPI PUSH0 DUP5 ISZERO PUSH2 0x36A6 JUMPI DUP3 DUP8 ADD MLOAD SWAP1 POP JUMPDEST PUSH2 0x36B0 DUP6 DUP3 PUSH2 0x3635 JUMP JUMPDEST DUP7 SSTORE POP PUSH2 0x3717 JUMP JUMPDEST PUSH1 0x1F NOT DUP5 AND PUSH2 0x36C6 DUP7 PUSH2 0x2EFF JUMP JUMPDEST PUSH0 JUMPDEST DUP3 DUP2 LT ISZERO PUSH2 0x36ED JUMPI DUP5 DUP10 ADD MLOAD DUP3 SSTORE PUSH1 0x1 DUP3 ADD SWAP2 POP PUSH1 0x20 DUP6 ADD SWAP5 POP PUSH1 0x20 DUP2 ADD SWAP1 POP PUSH2 0x36C8 JUMP JUMPDEST DUP7 DUP4 LT ISZERO PUSH2 0x370A JUMPI DUP5 DUP10 ADD MLOAD PUSH2 0x3706 PUSH1 0x1F DUP10 AND DUP3 PUSH2 0x3619 JUMP JUMPDEST DUP4 SSTORE POP JUMPDEST PUSH1 0x1 PUSH1 0x2 DUP9 MUL ADD DUP9 SSTORE POP POP POP JUMPDEST POP POP POP POP POP POP JUMP JUMPDEST PUSH0 PUSH2 0x372A DUP3 DUP5 PUSH2 0x2E50 JUMP JUMPDEST SWAP2 POP DUP2 SWAP1 POP SWAP3 SWAP2 POP POP JUMP JUMPDEST PUSH32 0x3100000000000000000000000000000000000000000000000000000000000000 PUSH0 DUP3 ADD MSTORE POP JUMP JUMPDEST PUSH0 PUSH2 0x3769 PUSH1 0x1 DUP4 PUSH2 0x2DFC JUMP JUMPDEST SWAP2 POP PUSH2 0x3774 DUP3 PUSH2 0x3735 JUMP JUMPDEST PUSH1 0x1 DUP3 ADD SWAP1 POP SWAP2 SWAP1 POP JUMP JUMPDEST PUSH0 PUSH2 0x3789 DUP3 PUSH2 0x375D JUMP JUMPDEST SWAP2 POP DUP2 SWAP1 POP SWAP2 SWAP1 POP JUMP JUMPDEST PUSH32 0x4D6F6465206D75737420626520273027206F7220273127000000000000000000 PUSH0 DUP3 ADD MSTORE POP JUMP JUMPDEST PUSH0 PUSH2 0x37C7 PUSH1 0x17 DUP4 PUSH2 0x25CF JUMP JUMPDEST SWAP2 POP PUSH2 0x37D2 DUP3 PUSH2 0x3793 JUMP JUMPDEST PUSH1 0x20 DUP3 ADD SWAP1 POP SWAP2 SWAP1 POP JUMP JUMPDEST PUSH0 PUSH1 0x20 DUP3 ADD SWAP1 POP DUP2 DUP2 SUB PUSH0 DUP4 ADD MSTORE PUSH2 0x37F4 DUP2 PUSH2 0x37BB JUMP JUMPDEST SWAP1 POP SWAP2 SWAP1 POP JUMP JUMPDEST PUSH32 0x646174613A746578742F68746D6C3B6261736536342C00000000000000000000 PUSH0 DUP3 ADD MSTORE POP JUMP JUMPDEST PUSH0 PUSH2 0x382F PUSH1 0x16 DUP4 PUSH2 0x2DFC JUMP JUMPDEST SWAP2 POP PUSH2 0x383A DUP3 PUSH2 0x37FB JUMP JUMPDEST PUSH1 0x16 DUP3 ADD SWAP1 POP SWAP2 SWAP1 POP JUMP JUMPDEST PUSH0 PUSH2 0x384F DUP3 PUSH2 0x3823 JUMP JUMPDEST SWAP2 POP PUSH2 0x385B DUP3 DUP5 PUSH2 0x2E50 JUMP JUMPDEST SWAP2 POP DUP2 SWAP1 POP SWAP3 SWAP2 POP POP JUMP JUMPDEST PUSH32 0x4E487B7100000000000000000000000000000000000000000000000000000000 PUSH0 MSTORE PUSH1 0x31 PUSH1 0x4 MSTORE PUSH1 0x24 PUSH0 REVERT INVALID COINBASE TIMESTAMP NUMBER PREVRANDAO GASLIMIT CHAINID SELFBALANCE BASEFEE BLOBHASH BLOBBASEFEE 0x4B 0x4C 0x4D 0x4E 0x4F POP MLOAD MSTORE MSTORE8 SLOAD SSTORE JUMP JUMPI PC MSIZE GAS PUSH2 0x6263 PUSH5 0x6566676869 PUSH11 0x6B6C6D6E6F707172737475 PUSH23 0x7778797A303132333435363738392B2FA2646970667358 0x22 SLT KECCAK256 DUP2 GT 0xC5 STATICCALL 0xD3 0x2A NUMBER 0xBE 0xD5 PUSH25 0xC9DB9E169654D9577252F08416CF44614D8953758D264736F PUSH13 0x634300081A0033000000000000 "
		},
		"gasEstimates": {
			"creation": {
				"codeDepositCost": "2920200",
				"executionCost": "infinite",
				"totalCost": "infinite"
			},
			"external": {
				"_creator()": "2575",
				"_maxSupply()": "2538",
				"_owner()": "2553",
				"_previewImageDataUri()": "infinite",
				"_totalSupply()": "2537",
				"animToURI(string)": "infinite",
				"approveAdmin(address)": "infinite",
				"bytes32ToHex(bytes32)": "infinite",
				"char(bytes1)": "infinite",
				"formatTokenURI(uint256)": "infinite",
				"getAdmins()": "infinite",
				"getMode()": "infinite",
				"isAdmin(address)": "infinite",
				"maxSupply()": "376",
				"mint(address)": "infinite",
				"mode()": "infinite",
				"owner()": "2582",
				"renounceOwnership()": "infinite",
				"revokeAdmin(address)": "infinite",
				"setAccessList(address)": "24866",
				"setDescription(string)": "infinite",
				"setMode(string)": "infinite",
				"setName(string)": "infinite",
				"setPreviewImageData(string)": "infinite",
				"setProzacYouthEngine_1(address)": "29211",
				"setProzacYouthEngine_2(address)": "29168",
				"supportsInterface(bytes4)": "1038",
				"svgToURI(string)": "infinite",
				"tokenURI(address,uint256)": "infinite",
				"totalSupply()": "2523",
				"transferOwnership(address)": "infinite",
				"uint2str(uint256)": "infinite",
				"withdrawAll()": "infinite"
			}
		},
		"methodIdentifiers": {
			"_creator()": "bc8bde64",
			"_maxSupply()": "22f4596f",
			"_owner()": "b2bdfa7b",
			"_previewImageDataUri()": "358f63ac",
			"_totalSupply()": "3eaaf86b",
			"animToURI(string)": "c038fe04",
			"approveAdmin(address)": "6d73e669",
			"bytes32ToHex(bytes32)": "3df18e0a",
			"char(bytes1)": "69f9ad2f",
			"formatTokenURI(uint256)": "5721421d",
			"getAdmins()": "31ae450b",
			"getMode()": "4b4fd03b",
			"isAdmin(address)": "24d7806c",
			"maxSupply()": "d5abeb01",
			"mint(address)": "6a627842",
			"mode()": "295a5212",
			"owner()": "8da5cb5b",
			"renounceOwnership()": "715018a6",
			"revokeAdmin(address)": "2d345670",
			"setAccessList(address)": "34eef5a9",
			"setDescription(string)": "90c3f38f",
			"setMode(string)": "a84fd0ed",
			"setName(string)": "c47f0027",
			"setPreviewImageData(string)": "dcfe6d8f",
			"setProzacYouthEngine_1(address)": "725f0aaf",
			"setProzacYouthEngine_2(address)": "16363898",
			"supportsInterface(bytes4)": "01ffc9a7",
			"svgToURI(string)": "413620d4",
			"tokenURI(address,uint256)": "e9dc6375",
			"totalSupply()": "18160ddd",
			"transferOwnership(address)": "f2fde38b",
			"uint2str(uint256)": "f76f950e",
			"withdrawAll()": "853828b6"
		}
	},
	"abi": [
		{
			"inputs": [
				{
					"internalType": "address",
					"name": "owner",
					"type": "address"
				},
				{
					"internalType": "address",
					"name": "creator",
					"type": "address"
				},
				{
					"internalType": "string",
					"name": "name",
					"type": "string"
				},
				{
					"internalType": "string",
					"name": "description",
					"type": "string"
				},
				{
					"internalType": "address",
					"name": "ProzacYouthEngine_1_addr",
					"type": "address"
				},
				{
					"internalType": "address",
					"name": "ProzacYouthEngine_2_addr",
					"type": "address"
				}
			],
			"stateMutability": "nonpayable",
			"type": "constructor"
		},
		{
			"inputs": [
				{
					"internalType": "address",
					"name": "owner",
					"type": "address"
				}
			],
			"name": "OwnableInvalidOwner",
			"type": "error"
		},
		{
			"inputs": [
				{
					"internalType": "address",
					"name": "account",
					"type": "address"
				}
			],
			"name": "OwnableUnauthorizedAccount",
			"type": "error"
		},
		{
			"anonymous": false,
			"inputs": [
				{
					"indexed": true,
					"internalType": "address",
					"name": "account",
					"type": "address"
				},
				{
					"indexed": true,
					"internalType": "address",
					"name": "sender",
					"type": "address"
				}
			],
			"name": "AdminApproved",
			"type": "event"
		},
		{
			"anonymous": false,
			"inputs": [
				{
					"indexed": true,
					"internalType": "address",
					"name": "account",
					"type": "address"
				},
				{
					"indexed": true,
					"internalType": "address",
					"name": "sender",
					"type": "address"
				}
			],
			"name": "AdminRevoked",
			"type": "event"
		},
		{
			"anonymous": false,
			"inputs": [
				{
					"indexed": true,
					"internalType": "address",
					"name": "previousOwner",
					"type": "address"
				},
				{
					"indexed": true,
					"internalType": "address",
					"name": "newOwner",
					"type": "address"
				}
			],
			"name": "OwnershipTransferred",
			"type": "event"
		},
		{
			"inputs": [],
			"name": "_creator",
			"outputs": [
				{
					"internalType": "address",
					"name": "",
					"type": "address"
				}
			],
			"stateMutability": "view",
			"type": "function"
		},
		{
			"inputs": [],
			"name": "_maxSupply",
			"outputs": [
				{
					"internalType": "uint256",
					"name": "",
					"type": "uint256"
				}
			],
			"stateMutability": "view",
			"type": "function"
		},
		{
			"inputs": [],
			"name": "_owner",
			"outputs": [
				{
					"internalType": "address",
					"name": "",
					"type": "address"
				}
			],
			"stateMutability": "view",
			"type": "function"
		},
		{
			"inputs": [],
			"name": "_previewImageDataUri",
			"outputs": [
				{
					"internalType": "string",
					"name": "",
					"type": "string"
				}
			],
			"stateMutability": "view",
			"type": "function"
		},
		{
			"inputs": [],
			"name": "_totalSupply",
			"outputs": [
				{
					"internalType": "uint256",
					"name": "",
					"type": "uint256"
				}
			],
			"stateMutability": "view",
			"type": "function"
		},
		{
			"inputs": [
				{
					"internalType": "string",
					"name": "anim",
					"type": "string"
				}
			],
			"name": "animToURI",
			"outputs": [
				{
					"internalType": "string",
					"name": "",
					"type": "string"
				}
			],
			"stateMutability": "pure",
			"type": "function"
		},
		{
			"inputs": [
				{
					"internalType": "address",
					"name": "admin",
					"type": "address"
				}
			],
			"name": "approveAdmin",
			"outputs": [],
			"stateMutability": "nonpayable",
			"type": "function"
		},
		{
			"inputs": [
				{
					"internalType": "bytes32",
					"name": "_bytes32",
					"type": "bytes32"
				}
			],
			"name": "bytes32ToHex",
			"outputs": [
				{
					"internalType": "string",
					"name": "",
					"type": "string"
				}
			],
			"stateMutability": "pure",
			"type": "function"
		},
		{
			"inputs": [
				{
					"internalType": "bytes1",
					"name": "_byte",
					"type": "bytes1"
				}
			],
			"name": "char",
			"outputs": [
				{
					"internalType": "bytes1",
					"name": "",
					"type": "bytes1"
				}
			],
			"stateMutability": "pure",
			"type": "function"
		},
		{
			"inputs": [
				{
					"internalType": "uint256",
					"name": "tokenId",
					"type": "uint256"
				}
			],
			"name": "formatTokenURI",
			"outputs": [
				{
					"internalType": "string",
					"name": "",
					"type": "string"
				}
			],
			"stateMutability": "view",
			"type": "function"
		},
		{
			"inputs": [],
			"name": "getAdmins",
			"outputs": [
				{
					"internalType": "address[]",
					"name": "admins",
					"type": "address[]"
				}
			],
			"stateMutability": "view",
			"type": "function"
		},
		{
			"inputs": [],
			"name": "getMode",
			"outputs": [
				{
					"internalType": "string",
					"name": "",
					"type": "string"
				}
			],
			"stateMutability": "view",
			"type": "function"
		},
		{
			"inputs": [
				{
					"internalType": "address",
					"name": "admin",
					"type": "address"
				}
			],
			"name": "isAdmin",
			"outputs": [
				{
					"internalType": "bool",
					"name": "",
					"type": "bool"
				}
			],
			"stateMutability": "view",
			"type": "function"
		},
		{
			"inputs": [],
			"name": "maxSupply",
			"outputs": [
				{
					"internalType": "uint256",
					"name": "",
					"type": "uint256"
				}
			],
			"stateMutability": "pure",
			"type": "function"
		},
		{
			"inputs": [
				{
					"internalType": "address",
					"name": "recipient",
					"type": "address"
				}
			],
			"name": "mint",
			"outputs": [],
			"stateMutability": "payable",
			"type": "function"
		},
		{
			"inputs": [],
			"name": "mode",
			"outputs": [
				{
					"internalType": "string",
					"name": "",
					"type": "string"
				}
			],
			"stateMutability": "view",
			"type": "function"
		},
		{
			"inputs": [],
			"name": "owner",
			"outputs": [
				{
					"internalType": "address",
					"name": "",
					"type": "address"
				}
			],
			"stateMutability": "view",
			"type": "function"
		},
		{
			"inputs": [],
			"name": "renounceOwnership",
			"outputs": [],
			"stateMutability": "nonpayable",
			"type": "function"
		},
		{
			"inputs": [
				{
					"internalType": "address",
					"name": "admin",
					"type": "address"
				}
			],
			"name": "revokeAdmin",
			"outputs": [],
			"stateMutability": "nonpayable",
			"type": "function"
		},
		{
			"inputs": [
				{
					"internalType": "address",
					"name": "user",
					"type": "address"
				}
			],
			"name": "setAccessList",
			"outputs": [],
			"stateMutability": "nonpayable",
			"type": "function"
		},
		{
			"inputs": [
				{
					"internalType": "string",
					"name": "des",
					"type": "string"
				}
			],
			"name": "setDescription",
			"outputs": [],
			"stateMutability": "nonpayable",
			"type": "function"
		},
		{
			"inputs": [
				{
					"internalType": "string",
					"name": "_mode",
					"type": "string"
				}
			],
			"name": "setMode",
			"outputs": [],
			"stateMutability": "nonpayable",
			"type": "function"
		},
		{
			"inputs": [
				{
					"internalType": "string",
					"name": "name",
					"type": "string"
				}
			],
			"name": "setName",
			"outputs": [],
			"stateMutability": "nonpayable",
			"type": "function"
		},
		{
			"inputs": [
				{
					"internalType": "string",
					"name": "img",
					"type": "string"
				}
			],
			"name": "setPreviewImageData",
			"outputs": [],
			"stateMutability": "nonpayable",
			"type": "function"
		},
		{
			"inputs": [
				{
					"internalType": "address",
					"name": "addr",
					"type": "address"
				}
			],
			"name": "setProzacYouthEngine_1",
			"outputs": [],
			"stateMutability": "nonpayable",
			"type": "function"
		},
		{
			"inputs": [
				{
					"internalType": "address",
					"name": "addr",
					"type": "address"
				}
			],
			"name": "setProzacYouthEngine_2",
			"outputs": [],
			"stateMutability": "nonpayable",
			"type": "function"
		},
		{
			"inputs": [
				{
					"internalType": "bytes4",
					"name": "interfaceId",
					"type": "bytes4"
				}
			],
			"name": "supportsInterface",
			"outputs": [
				{
					"internalType": "bool",
					"name": "",
					"type": "bool"
				}
			],
			"stateMutability": "view",
			"type": "function"
		},
		{
			"inputs": [
				{
					"internalType": "string",
					"name": "svg",
					"type": "string"
				}
			],
			"name": "svgToURI",
			"outputs": [
				{
					"internalType": "string",
					"name": "",
					"type": "string"
				}
			],
			"stateMutability": "pure",
			"type": "function"
		},
		{
			"inputs": [
				{
					"internalType": "address",
					"name": "creator",
					"type": "address"
				},
				{
					"internalType": "uint256",
					"name": "tokenId",
					"type": "uint256"
				}
			],
			"name": "tokenURI",
			"outputs": [
				{
					"internalType": "string",
					"name": "",
					"type": "string"
				}
			],
			"stateMutability": "view",
			"type": "function"
		},
		{
			"inputs": [],
			"name": "totalSupply",
			"outputs": [
				{
					"internalType": "uint256",
					"name": "",
					"type": "uint256"
				}
			],
			"stateMutability": "view",
			"type": "function"
		},
		{
			"inputs": [
				{
					"internalType": "address",
					"name": "newOwner",
					"type": "address"
				}
			],
			"name": "transferOwnership",
			"outputs": [],
			"stateMutability": "nonpayable",
			"type": "function"
		},
		{
			"inputs": [
				{
					"internalType": "uint256",
					"name": "_i",
					"type": "uint256"
				}
			],
			"name": "uint2str",
			"outputs": [
				{
					"internalType": "string",
					"name": "_uintAsString",
					"type": "string"
				}
			],
			"stateMutability": "pure",
			"type": "function"
		},
		{
			"inputs": [],
			"name": "withdrawAll",
			"outputs": [],
			"stateMutability": "nonpayable",
			"type": "function"
		}
	]
}