{
	"data": {
		"bytecode": {
			"linkReferences": {},
			"object": "6080604052348015600e575f80fd5b506115e58061001c5f395ff3fe608060405234801561000f575f80fd5b5060043610610029575f3560e01c8063527385ad1461002d575b5f80fd5b610047600480360381019061004291906101d3565b61005d565b604051610054919061027a565b60405180910390f35b6060816040516020016100709190611583565b6040516020818303038152906040529050919050565b5f604051905090565b5f80fd5b5f80fd5b5f80fd5b5f80fd5b5f601f19601f8301169050919050565b7f4e487b71000000000000000000000000000000000000000000000000000000005f52604160045260245ffd5b6100e58261009f565b810181811067ffffffffffffffff82111715610104576101036100af565b5b80604052505050565b5f610116610086565b905061012282826100dc565b919050565b5f67ffffffffffffffff821115610141576101406100af565b5b61014a8261009f565b9050602081019050919050565b828183375f83830152505050565b5f61017761017284610127565b61010d565b9050828152602081018484840111156101935761019261009b565b5b61019e848285610157565b509392505050565b5f82601f8301126101ba576101b9610097565b5b81356101ca848260208601610165565b91505092915050565b5f602082840312156101e8576101e761008f565b5b5f82013567ffffffffffffffff81111561020557610204610093565b5b610211848285016101a6565b91505092915050565b5f81519050919050565b5f82825260208201905092915050565b8281835e5f83830152505050565b5f61024c8261021a565b6102568185610224565b9350610266818560208601610234565b61026f8161009f565b840191505092915050565b5f6020820190508181035f8301526102928184610242565b905092915050565b5f81905092915050565b7f3c73637269707420747970653d27746578742f6a617661736372697074273e6c5f8201527f6574206d6f64653d000000000000000000000000000000000000000000000000602082015250565b5f6102fe60288361029a565b9150610309826102a4565b602882019050919050565b5f61031e8261021a565b610328818561029a565b9350610338818560208601610234565b80840191505092915050565b7f3b66756e6374696f6e20757064617465436c6f636b28297b636f6e7374206e6f5f8201527f773d6e6577204461746528293b636f6e737420686f7572733d537472696e672860208201527f6e6f772e676574486f7572732829292e706164537461727428322c273027293b60408201527f636f6e7374206d696e757465733d537472696e67286e6f772e6765744d696e7560608201527f7465732829292e706164537461727428322c273027293b636f6e73742073656360808201527f6f6e64733d537472696e67286e6f772e6765745365636f6e64732829292e706160a08201527f64537461727428322c273027293b636f6e7374206d6f6e74684e616d65733d5b60c08201527f274a616e75617279272c274665627275617279272c274d61726368272c27417060e08201527f72696c272c274d6179272c274a756e65272c274a756c79272c274175677573746101008201527f272c2753657074656d626572272c274f63746f626572272c274e6f76656d62656101208201527f72272c27446563656d626572275d3b636f6e7374206d6f6e74683d6d6f6e74686101408201527f4e616d65735b6e6f772e6765744d6f6e746828295d3b636f6e7374206461793d6101608201527f6e6f772e6765744461746528293b636f6e737420796561723d6e6f772e6765746101808201527f46756c6c5965617228293b636f6e7374207375666669783d28646179293d3e7b6101a08201527f6966286461793e3326266461793c32312972657475726e277468273b737769746101c08201527f636828646179253130297b6361736520313a72657475726e277374273b6361736101e08201527f6520323a72657475726e276e64273b6361736520333a72657475726e277264276102008201527f3b64656661756c743a72657475726e277468277d7d3b636f6e73742066756c6c6102208201527f446174653d60247b6d6f6e74687d20247b6461797d247b7375666669782864616102408201527f79297d2c20247b796561727d20247b686f7572737d3a247b6d696e757465737d6102608201527f3a247b7365636f6e64737d603b646f63756d656e742e717565727953656c65636102808201527f746f7228272e63757272656e742d74696d6527292e74657874436f6e74656e746102a08201527f3d66756c6c446174657d736574496e74657276616c28757064617465436c6f636102c08201527f6b2c31303030293b757064617465436c6f636b28293b646f63756d656e742e616102e08201527f64644576656e744c697374656e65722827444f4d436f6e74656e744c6f6164656103008201527f64272c66756e6374696f6e28297b646f63756d656e742e676574456c656d656e6103208201527f74427949642827706f73742d7772617070657227292e7374796c652e646973706103408201527f6c61793d27626c6f636b277d293b66756e6374696f6e207365744461726b28296103608201527f7b646f63756d656e742e676574456c656d656e744279496428276d6f64652d736103808201527f776974636827292e7374796c652e66696c7465723d27696e76657274282e37356103a08201527f29273b646f63756d656e742e717565727953656c6563746f72416c6c28272e6c6103c08201527f696768742d7465787427292e666f72456163682866756e6374696f6e28656c656103e08201527f6d656e74297b656c656d656e742e636c6173734c6973742e72656d6f766528276104008201527f6c696768742d7465787427293b656c656d656e742e636c6173734c6973742e616104208201527f646428276461726b2d7465787427297d293b646f63756d656e742e71756572796104408201527f53656c6563746f72416c6c28272e6c696768742d746578742d3227292e666f726104608201527f456163682866756e6374696f6e28656c656d656e74297b656c656d656e742e636104808201527f6c6173734c6973742e72656d6f766528276c696768742d746578742d3227293b6104a08201527f656c656d656e742e636c6173734c6973742e61646428276461726b2d746578746104c08201527f2d3227297d293b646f63756d656e742e717565727953656c6563746f72416c6c6104e08201527f28272e6c696768742d746578742d3327292e666f72456163682866756e6374696105008201527f6f6e28656c656d656e74297b656c656d656e742e636c6173734c6973742e72656105208201527f6d6f766528276c696768742d746578742d3327293b656c656d656e742e636c616105408201527f73734c6973742e61646428276461726b2d746578742d3327297d293b646f63756105608201527f6d656e742e717565727953656c6563746f72416c6c28272e6c696768742d74656105808201527f78742d3427292e666f72456163682866756e6374696f6e28656c656d656e74296105a08201527f7b656c656d656e742e636c6173734c6973742e72656d6f766528276c696768746105c08201527f2d746578742d3427293b656c656d656e742e636c6173734c6973742e616464286105e08201527f276461726b2d746578742d3427297d293b646f63756d656e742e7175657279536106008201527f656c6563746f72416c6c28272e6c696768742d626727292e666f7245616368286106208201527f66756e6374696f6e28656c656d656e74297b656c656d656e742e636c6173734c6106408201527f6973742e72656d6f766528276c696768742d626727293b656c656d656e742e636106608201527f6c6173734c6973742e61646428276461726b2d626727297d293b646f63756d656106808201527f6e742e717565727953656c6563746f72416c6c28272e6c696768742d62672d326106a08201527f27292e666f72456163682866756e6374696f6e28656c656d656e74297b656c656106c08201527f6d656e742e636c6173734c6973742e72656d6f766528276c696768742d62672d6106e08201527f3227293b656c656d656e742e636c6173734c6973742e61646428276461726b2d6107008201527f62672d3227297d293b646f63756d656e742e717565727953656c6563746f72416107208201527f6c6c28272e6c696768742d626f726465722d3227292e666f72456163682866756107408201527f6e6374696f6e28656c656d656e74297b656c656d656e742e636c6173734c69736107608201527f742e72656d6f766528276c696768742d626f726465722d3227293b656c656d656107808201527f6e742e636c6173734c6973742e61646428276461726b2d626f726465722d32276107a08201527f297d293b646f63756d656e742e717565727953656c6563746f72416c6c28272e6107c08201527f6c696768742d626f7264657227292e666f72456163682866756e6374696f6e286107e08201527f656c656d656e74297b656c656d656e742e636c6173734c6973742e72656d6f766108008201527f6528276c696768742d626f7264657227293b656c656d656e742e636c6173734c6108208201527f6973742e61646428276461726b2d626f7264657227297d293b646f63756d656e6108408201527f742e717565727953656c6563746f72416c6c28272e6c696768742d6c696e6b276108608201527f292e666f72456163682866756e6374696f6e28656c656d656e74297b656c656d6108808201527f656e742e636c6173734c6973742e72656d6f766528276c696768742d6c696e6b6108a08201527f27293b656c656d656e742e636c6173734c6973742e61646428276461726b2d6c6108c08201527f696e6b27297d297d66756e6374696f6e207365744c6967687428297b646f63756108e08201527f6d656e742e676574456c656d656e744279496428276d6f64652d7377697463686109008201527f27292e7374796c652e66696c7465723d27696e76657274283029273b646f63756109208201527f6d656e742e717565727953656c6563746f72416c6c28272e6461726b2d7465786109408201527f7427292e666f72456163682866756e6374696f6e28656c656d656e74297b656c6109608201527f656d656e742e636c6173734c6973742e72656d6f766528276461726b2d7465786109808201527f7427293b656c656d656e742e636c6173734c6973742e61646428276c696768746109a08201527f2d7465787427297d293b646f63756d656e742e717565727953656c6563746f726109c08201527f416c6c28272e6461726b2d746578742d3227292e666f72456163682866756e636109e08201527f74696f6e28656c656d656e74297b656c656d656e742e636c6173734c6973742e610a008201527f72656d6f766528276461726b2d746578742d3227293b656c656d656e742e636c610a208201527f6173734c6973742e61646428276c696768742d746578742d3227297d293b646f610a408201527f63756d656e742e717565727953656c6563746f72416c6c28272e6461726b2d74610a608201527f6578742d3327292e666f72456163682866756e6374696f6e28656c656d656e74610a808201527f297b656c656d656e742e636c6173734c6973742e72656d6f766528276461726b610aa08201527f2d746578742d3327293b656c656d656e742e636c6173734c6973742e61646428610ac08201527f276c696768742d746578742d3327297d293b646f63756d656e742e7175657279610ae08201527f53656c6563746f72416c6c28272e6461726b2d746578742d3427292e666f7245610b008201527f6163682866756e6374696f6e28656c656d656e74297b656c656d656e742e636c610b208201527f6173734c6973742e72656d6f766528276461726b2d746578742d3427293b656c610b408201527f656d656e742e636c6173734c6973742e61646428276c696768742d746578742d610b608201527f3427297d293b646f63756d656e742e717565727953656c6563746f72416c6c28610b808201527f272e6461726b2d626727292e666f72456163682866756e6374696f6e28656c65610ba08201527f6d656e74297b656c656d656e742e636c6173734c6973742e72656d6f76652827610bc08201527f6461726b2d626727293b656c656d656e742e636c6173734c6973742e61646428610be08201527f276c696768742d626727297d293b646f63756d656e742e717565727953656c65610c008201527f63746f72416c6c28272e6461726b2d62672d3227292e666f7245616368286675610c208201527f6e6374696f6e28656c656d656e74297b656c656d656e742e636c6173734c6973610c408201527f742e72656d6f766528276461726b2d62672d3227293b656c656d656e742e636c610c608201527f6173734c6973742e61646428276c696768742d62672d3227297d293b646f6375610c808201527f6d656e742e717565727953656c6563746f72416c6c28272e6461726b2d626f72610ca08201527f6465722d3227292e666f72456163682866756e6374696f6e28656c656d656e74610cc08201527f297b656c656d656e742e636c6173734c6973742e72656d6f766528276461726b610ce08201527f2d626f726465722d3227293b656c656d656e742e636c6173734c6973742e6164610d008201527f6428276c696768742d626f726465722d3227297d293b646f63756d656e742e71610d208201527f7565727953656c6563746f72416c6c28272e6461726b2d626f7264657227292e610d408201527f666f72456163682866756e6374696f6e28656c656d656e74297b656c656d656e610d608201527f742e636c6173734c6973742e72656d6f766528276461726b2d626f7264657227610d808201527f293b656c656d656e742e636c6173734c6973742e61646428276c696768742d62610da08201527f6f7264657227297d293b646f63756d656e742e717565727953656c6563746f72610dc08201527f416c6c28272e6461726b2d6c696e6b27292e666f72456163682866756e637469610de08201527f6f6e28656c656d656e74297b656c656d656e742e636c6173734c6973742e7265610e008201527f6d6f766528276461726b2d6c696e6b27293b656c656d656e742e636c6173734c610e208201527f6973742e61646428276c696768742d6c696e6b27297d297d66756e6374696f6e610e408201527f20746f67676c654d6f646528297b6966286d6f64653d3d3d30297b6d6f64653d610e608201527f313b7365744461726b28297d656c73657b6d6f64653d303b7365744c69676874610e808201527f28297d646f63756d656e742e676574456c656d656e744279496428276d6f6465610ea08201527f2d73776974636827292e626c757228297d3c2f7363726970743e000000000000610ec082015250565b5f61156c610eda8361029a565b915061157782610344565b610eda82019050919050565b5f61158d826102f2565b91506115998284610314565b91506115a48261155f565b91508190509291505056fea2646970667358221220a4df3141f0c8e3c566a9dbcfe1bed697b436546481b96a1923ecec4c0e37647364736f6c634300081a0033",
			"opcodes": "PUSH1 0x80 PUSH1 0x40 MSTORE CALLVALUE DUP1 ISZERO PUSH1 0xE JUMPI PUSH0 DUP1 REVERT JUMPDEST POP PUSH2 0x15E5 DUP1 PUSH2 0x1C PUSH0 CODECOPY PUSH0 RETURN INVALID PUSH1 0x80 PUSH1 0x40 MSTORE CALLVALUE DUP1 ISZERO PUSH2 0xF JUMPI PUSH0 DUP1 REVERT JUMPDEST POP PUSH1 0x4 CALLDATASIZE LT PUSH2 0x29 JUMPI PUSH0 CALLDATALOAD PUSH1 0xE0 SHR DUP1 PUSH4 0x527385AD EQ PUSH2 0x2D JUMPI JUMPDEST PUSH0 DUP1 REVERT JUMPDEST PUSH2 0x47 PUSH1 0x4 DUP1 CALLDATASIZE SUB DUP2 ADD SWAP1 PUSH2 0x42 SWAP2 SWAP1 PUSH2 0x1D3 JUMP JUMPDEST PUSH2 0x5D JUMP JUMPDEST PUSH1 0x40 MLOAD PUSH2 0x54 SWAP2 SWAP1 PUSH2 0x27A JUMP JUMPDEST PUSH1 0x40 MLOAD DUP1 SWAP2 SUB SWAP1 RETURN JUMPDEST PUSH1 0x60 DUP2 PUSH1 0x40 MLOAD PUSH1 0x20 ADD PUSH2 0x70 SWAP2 SWAP1 PUSH2 0x1583 JUMP JUMPDEST PUSH1 0x40 MLOAD PUSH1 0x20 DUP2 DUP4 SUB SUB DUP2 MSTORE SWAP1 PUSH1 0x40 MSTORE SWAP1 POP SWAP2 SWAP1 POP JUMP JUMPDEST PUSH0 PUSH1 0x40 MLOAD SWAP1 POP SWAP1 JUMP JUMPDEST PUSH0 DUP1 REVERT JUMPDEST PUSH0 DUP1 REVERT JUMPDEST PUSH0 DUP1 REVERT JUMPDEST PUSH0 DUP1 REVERT JUMPDEST PUSH0 PUSH1 0x1F NOT PUSH1 0x1F DUP4 ADD AND SWAP1 POP SWAP2 SWAP1 POP JUMP JUMPDEST PUSH32 0x4E487B7100000000000000000000000000000000000000000000000000000000 PUSH0 MSTORE PUSH1 0x41 PUSH1 0x4 MSTORE PUSH1 0x24 PUSH0 REVERT JUMPDEST PUSH2 0xE5 DUP3 PUSH2 0x9F JUMP JUMPDEST DUP2 ADD DUP2 DUP2 LT PUSH8 0xFFFFFFFFFFFFFFFF DUP3 GT OR ISZERO PUSH2 0x104 JUMPI PUSH2 0x103 PUSH2 0xAF JUMP JUMPDEST JUMPDEST DUP1 PUSH1 0x40 MSTORE POP POP POP JUMP JUMPDEST PUSH0 PUSH2 0x116 PUSH2 0x86 JUMP JUMPDEST SWAP1 POP PUSH2 0x122 DUP3 DUP3 PUSH2 0xDC JUMP JUMPDEST SWAP2 SWAP1 POP JUMP JUMPDEST PUSH0 PUSH8 0xFFFFFFFFFFFFFFFF DUP3 GT ISZERO PUSH2 0x141 JUMPI PUSH2 0x140 PUSH2 0xAF JUMP JUMPDEST JUMPDEST PUSH2 0x14A DUP3 PUSH2 0x9F JUMP JUMPDEST SWAP1 POP PUSH1 0x20 DUP2 ADD SWAP1 POP SWAP2 SWAP1 POP JUMP JUMPDEST DUP3 DUP2 DUP4 CALLDATACOPY PUSH0 DUP4 DUP4 ADD MSTORE POP POP POP JUMP JUMPDEST PUSH0 PUSH2 0x177 PUSH2 0x172 DUP5 PUSH2 0x127 JUMP JUMPDEST PUSH2 0x10D JUMP JUMPDEST SWAP1 POP DUP3 DUP2 MSTORE PUSH1 0x20 DUP2 ADD DUP5 DUP5 DUP5 ADD GT ISZERO PUSH2 0x193 JUMPI PUSH2 0x192 PUSH2 0x9B JUMP JUMPDEST JUMPDEST PUSH2 0x19E DUP5 DUP3 DUP6 PUSH2 0x157 JUMP JUMPDEST POP SWAP4 SWAP3 POP POP POP JUMP JUMPDEST PUSH0 DUP3 PUSH1 0x1F DUP4 ADD SLT PUSH2 0x1BA JUMPI PUSH2 0x1B9 PUSH2 0x97 JUMP JUMPDEST JUMPDEST DUP2 CALLDATALOAD PUSH2 0x1CA DUP5 DUP3 PUSH1 0x20 DUP7 ADD PUSH2 0x165 JUMP JUMPDEST SWAP2 POP POP SWAP3 SWAP2 POP POP JUMP JUMPDEST PUSH0 PUSH1 0x20 DUP3 DUP5 SUB SLT ISZERO PUSH2 0x1E8 JUMPI PUSH2 0x1E7 PUSH2 0x8F JUMP JUMPDEST JUMPDEST PUSH0 DUP3 ADD CALLDATALOAD PUSH8 0xFFFFFFFFFFFFFFFF DUP2 GT ISZERO PUSH2 0x205 JUMPI PUSH2 0x204 PUSH2 0x93 JUMP JUMPDEST JUMPDEST PUSH2 0x211 DUP5 DUP3 DUP6 ADD PUSH2 0x1A6 JUMP JUMPDEST SWAP2 POP POP SWAP3 SWAP2 POP POP JUMP JUMPDEST PUSH0 DUP2 MLOAD SWAP1 POP SWAP2 SWAP1 POP JUMP JUMPDEST PUSH0 DUP3 DUP3 MSTORE PUSH1 0x20 DUP3 ADD SWAP1 POP SWAP3 SWAP2 POP POP JUMP JUMPDEST DUP3 DUP2 DUP4 MCOPY PUSH0 DUP4 DUP4 ADD MSTORE POP POP POP JUMP JUMPDEST PUSH0 PUSH2 0x24C DUP3 PUSH2 0x21A JUMP JUMPDEST PUSH2 0x256 DUP2 DUP6 PUSH2 0x224 JUMP JUMPDEST SWAP4 POP PUSH2 0x266 DUP2 DUP6 PUSH1 0x20 DUP7 ADD PUSH2 0x234 JUMP JUMPDEST PUSH2 0x26F DUP2 PUSH2 0x9F JUMP JUMPDEST DUP5 ADD SWAP2 POP POP SWAP3 SWAP2 POP POP JUMP JUMPDEST PUSH0 PUSH1 0x20 DUP3 ADD SWAP1 POP DUP2 DUP2 SUB PUSH0 DUP4 ADD MSTORE PUSH2 0x292 DUP2 DUP5 PUSH2 0x242 JUMP JUMPDEST SWAP1 POP SWAP3 SWAP2 POP POP JUMP JUMPDEST PUSH0 DUP2 SWAP1 POP SWAP3 SWAP2 POP POP JUMP JUMPDEST PUSH32 0x3C73637269707420747970653D27746578742F6A617661736372697074273E6C PUSH0 DUP3 ADD MSTORE PUSH32 0x6574206D6F64653D000000000000000000000000000000000000000000000000 PUSH1 0x20 DUP3 ADD MSTORE POP JUMP JUMPDEST PUSH0 PUSH2 0x2FE PUSH1 0x28 DUP4 PUSH2 0x29A JUMP JUMPDEST SWAP2 POP PUSH2 0x309 DUP3 PUSH2 0x2A4 JUMP JUMPDEST PUSH1 0x28 DUP3 ADD SWAP1 POP SWAP2 SWAP1 POP JUMP JUMPDEST PUSH0 PUSH2 0x31E DUP3 PUSH2 0x21A JUMP JUMPDEST PUSH2 0x328 DUP2 DUP6 PUSH2 0x29A JUMP JUMPDEST SWAP4 POP PUSH2 0x338 DUP2 DUP6 PUSH1 0x20 DUP7 ADD PUSH2 0x234 JUMP JUMPDEST DUP1 DUP5 ADD SWAP2 POP POP SWAP3 SWAP2 POP POP JUMP JUMPDEST PUSH32 0x3B66756E6374696F6E20757064617465436C6F636B28297B636F6E7374206E6F PUSH0 DUP3 ADD MSTORE PUSH32 0x773D6E6577204461746528293B636F6E737420686F7572733D537472696E6728 PUSH1 0x20 DUP3 ADD MSTORE PUSH32 0x6E6F772E676574486F7572732829292E706164537461727428322C273027293B PUSH1 0x40 DUP3 ADD MSTORE PUSH32 0x636F6E7374206D696E757465733D537472696E67286E6F772E6765744D696E75 PUSH1 0x60 DUP3 ADD MSTORE PUSH32 0x7465732829292E706164537461727428322C273027293B636F6E737420736563 PUSH1 0x80 DUP3 ADD MSTORE PUSH32 0x6F6E64733D537472696E67286E6F772E6765745365636F6E64732829292E7061 PUSH1 0xA0 DUP3 ADD MSTORE PUSH32 0x64537461727428322C273027293B636F6E7374206D6F6E74684E616D65733D5B PUSH1 0xC0 DUP3 ADD MSTORE PUSH32 0x274A616E75617279272C274665627275617279272C274D61726368272C274170 PUSH1 0xE0 DUP3 ADD MSTORE PUSH32 0x72696C272C274D6179272C274A756E65272C274A756C79272C27417567757374 PUSH2 0x100 DUP3 ADD MSTORE PUSH32 0x272C2753657074656D626572272C274F63746F626572272C274E6F76656D6265 PUSH2 0x120 DUP3 ADD MSTORE PUSH32 0x72272C27446563656D626572275D3B636F6E7374206D6F6E74683D6D6F6E7468 PUSH2 0x140 DUP3 ADD MSTORE PUSH32 0x4E616D65735B6E6F772E6765744D6F6E746828295D3B636F6E7374206461793D PUSH2 0x160 DUP3 ADD MSTORE PUSH32 0x6E6F772E6765744461746528293B636F6E737420796561723D6E6F772E676574 PUSH2 0x180 DUP3 ADD MSTORE PUSH32 0x46756C6C5965617228293B636F6E7374207375666669783D28646179293D3E7B PUSH2 0x1A0 DUP3 ADD MSTORE PUSH32 0x6966286461793E3326266461793C32312972657475726E277468273B73776974 PUSH2 0x1C0 DUP3 ADD MSTORE PUSH32 0x636828646179253130297B6361736520313A72657475726E277374273B636173 PUSH2 0x1E0 DUP3 ADD MSTORE PUSH32 0x6520323A72657475726E276E64273B6361736520333A72657475726E27726427 PUSH2 0x200 DUP3 ADD MSTORE PUSH32 0x3B64656661756C743A72657475726E277468277D7D3B636F6E73742066756C6C PUSH2 0x220 DUP3 ADD MSTORE PUSH32 0x446174653D60247B6D6F6E74687D20247B6461797D247B737566666978286461 PUSH2 0x240 DUP3 ADD MSTORE PUSH32 0x79297D2C20247B796561727D20247B686F7572737D3A247B6D696E757465737D PUSH2 0x260 DUP3 ADD MSTORE PUSH32 0x3A247B7365636F6E64737D603B646F63756D656E742E717565727953656C6563 PUSH2 0x280 DUP3 ADD MSTORE PUSH32 0x746F7228272E63757272656E742D74696D6527292E74657874436F6E74656E74 PUSH2 0x2A0 DUP3 ADD MSTORE PUSH32 0x3D66756C6C446174657D736574496E74657276616C28757064617465436C6F63 PUSH2 0x2C0 DUP3 ADD MSTORE PUSH32 0x6B2C31303030293B757064617465436C6F636B28293B646F63756D656E742E61 PUSH2 0x2E0 DUP3 ADD MSTORE PUSH32 0x64644576656E744C697374656E65722827444F4D436F6E74656E744C6F616465 PUSH2 0x300 DUP3 ADD MSTORE PUSH32 0x64272C66756E6374696F6E28297B646F63756D656E742E676574456C656D656E PUSH2 0x320 DUP3 ADD MSTORE PUSH32 0x74427949642827706F73742D7772617070657227292E7374796C652E64697370 PUSH2 0x340 DUP3 ADD MSTORE PUSH32 0x6C61793D27626C6F636B277D293B66756E6374696F6E207365744461726B2829 PUSH2 0x360 DUP3 ADD MSTORE PUSH32 0x7B646F63756D656E742E676574456C656D656E744279496428276D6F64652D73 PUSH2 0x380 DUP3 ADD MSTORE PUSH32 0x776974636827292E7374796C652E66696C7465723D27696E76657274282E3735 PUSH2 0x3A0 DUP3 ADD MSTORE PUSH32 0x29273B646F63756D656E742E717565727953656C6563746F72416C6C28272E6C PUSH2 0x3C0 DUP3 ADD MSTORE PUSH32 0x696768742D7465787427292E666F72456163682866756E6374696F6E28656C65 PUSH2 0x3E0 DUP3 ADD MSTORE PUSH32 0x6D656E74297B656C656D656E742E636C6173734C6973742E72656D6F76652827 PUSH2 0x400 DUP3 ADD MSTORE PUSH32 0x6C696768742D7465787427293B656C656D656E742E636C6173734C6973742E61 PUSH2 0x420 DUP3 ADD MSTORE PUSH32 0x646428276461726B2D7465787427297D293B646F63756D656E742E7175657279 PUSH2 0x440 DUP3 ADD MSTORE PUSH32 0x53656C6563746F72416C6C28272E6C696768742D746578742D3227292E666F72 PUSH2 0x460 DUP3 ADD MSTORE PUSH32 0x456163682866756E6374696F6E28656C656D656E74297B656C656D656E742E63 PUSH2 0x480 DUP3 ADD MSTORE PUSH32 0x6C6173734C6973742E72656D6F766528276C696768742D746578742D3227293B PUSH2 0x4A0 DUP3 ADD MSTORE PUSH32 0x656C656D656E742E636C6173734C6973742E61646428276461726B2D74657874 PUSH2 0x4C0 DUP3 ADD MSTORE PUSH32 0x2D3227297D293B646F63756D656E742E717565727953656C6563746F72416C6C PUSH2 0x4E0 DUP3 ADD MSTORE PUSH32 0x28272E6C696768742D746578742D3327292E666F72456163682866756E637469 PUSH2 0x500 DUP3 ADD MSTORE PUSH32 0x6F6E28656C656D656E74297B656C656D656E742E636C6173734C6973742E7265 PUSH2 0x520 DUP3 ADD MSTORE PUSH32 0x6D6F766528276C696768742D746578742D3327293B656C656D656E742E636C61 PUSH2 0x540 DUP3 ADD MSTORE PUSH32 0x73734C6973742E61646428276461726B2D746578742D3327297D293B646F6375 PUSH2 0x560 DUP3 ADD MSTORE PUSH32 0x6D656E742E717565727953656C6563746F72416C6C28272E6C696768742D7465 PUSH2 0x580 DUP3 ADD MSTORE PUSH32 0x78742D3427292E666F72456163682866756E6374696F6E28656C656D656E7429 PUSH2 0x5A0 DUP3 ADD MSTORE PUSH32 0x7B656C656D656E742E636C6173734C6973742E72656D6F766528276C69676874 PUSH2 0x5C0 DUP3 ADD MSTORE PUSH32 0x2D746578742D3427293B656C656D656E742E636C6173734C6973742E61646428 PUSH2 0x5E0 DUP3 ADD MSTORE PUSH32 0x276461726B2D746578742D3427297D293B646F63756D656E742E717565727953 PUSH2 0x600 DUP3 ADD MSTORE PUSH32 0x656C6563746F72416C6C28272E6C696768742D626727292E666F724561636828 PUSH2 0x620 DUP3 ADD MSTORE PUSH32 0x66756E6374696F6E28656C656D656E74297B656C656D656E742E636C6173734C PUSH2 0x640 DUP3 ADD MSTORE PUSH32 0x6973742E72656D6F766528276C696768742D626727293B656C656D656E742E63 PUSH2 0x660 DUP3 ADD MSTORE PUSH32 0x6C6173734C6973742E61646428276461726B2D626727297D293B646F63756D65 PUSH2 0x680 DUP3 ADD MSTORE PUSH32 0x6E742E717565727953656C6563746F72416C6C28272E6C696768742D62672D32 PUSH2 0x6A0 DUP3 ADD MSTORE PUSH32 0x27292E666F72456163682866756E6374696F6E28656C656D656E74297B656C65 PUSH2 0x6C0 DUP3 ADD MSTORE PUSH32 0x6D656E742E636C6173734C6973742E72656D6F766528276C696768742D62672D PUSH2 0x6E0 DUP3 ADD MSTORE PUSH32 0x3227293B656C656D656E742E636C6173734C6973742E61646428276461726B2D PUSH2 0x700 DUP3 ADD MSTORE PUSH32 0x62672D3227297D293B646F63756D656E742E717565727953656C6563746F7241 PUSH2 0x720 DUP3 ADD MSTORE PUSH32 0x6C6C28272E6C696768742D626F726465722D3227292E666F7245616368286675 PUSH2 0x740 DUP3 ADD MSTORE PUSH32 0x6E6374696F6E28656C656D656E74297B656C656D656E742E636C6173734C6973 PUSH2 0x760 DUP3 ADD MSTORE PUSH32 0x742E72656D6F766528276C696768742D626F726465722D3227293B656C656D65 PUSH2 0x780 DUP3 ADD MSTORE PUSH32 0x6E742E636C6173734C6973742E61646428276461726B2D626F726465722D3227 PUSH2 0x7A0 DUP3 ADD MSTORE PUSH32 0x297D293B646F63756D656E742E717565727953656C6563746F72416C6C28272E PUSH2 0x7C0 DUP3 ADD MSTORE PUSH32 0x6C696768742D626F7264657227292E666F72456163682866756E6374696F6E28 PUSH2 0x7E0 DUP3 ADD MSTORE PUSH32 0x656C656D656E74297B656C656D656E742E636C6173734C6973742E72656D6F76 PUSH2 0x800 DUP3 ADD MSTORE PUSH32 0x6528276C696768742D626F7264657227293B656C656D656E742E636C6173734C PUSH2 0x820 DUP3 ADD MSTORE PUSH32 0x6973742E61646428276461726B2D626F7264657227297D293B646F63756D656E PUSH2 0x840 DUP3 ADD MSTORE PUSH32 0x742E717565727953656C6563746F72416C6C28272E6C696768742D6C696E6B27 PUSH2 0x860 DUP3 ADD MSTORE PUSH32 0x292E666F72456163682866756E6374696F6E28656C656D656E74297B656C656D PUSH2 0x880 DUP3 ADD MSTORE PUSH32 0x656E742E636C6173734C6973742E72656D6F766528276C696768742D6C696E6B PUSH2 0x8A0 DUP3 ADD MSTORE PUSH32 0x27293B656C656D656E742E636C6173734C6973742E61646428276461726B2D6C PUSH2 0x8C0 DUP3 ADD MSTORE PUSH32 0x696E6B27297D297D66756E6374696F6E207365744C6967687428297B646F6375 PUSH2 0x8E0 DUP3 ADD MSTORE PUSH32 0x6D656E742E676574456C656D656E744279496428276D6F64652D737769746368 PUSH2 0x900 DUP3 ADD MSTORE PUSH32 0x27292E7374796C652E66696C7465723D27696E76657274283029273B646F6375 PUSH2 0x920 DUP3 ADD MSTORE PUSH32 0x6D656E742E717565727953656C6563746F72416C6C28272E6461726B2D746578 PUSH2 0x940 DUP3 ADD MSTORE PUSH32 0x7427292E666F72456163682866756E6374696F6E28656C656D656E74297B656C PUSH2 0x960 DUP3 ADD MSTORE PUSH32 0x656D656E742E636C6173734C6973742E72656D6F766528276461726B2D746578 PUSH2 0x980 DUP3 ADD MSTORE PUSH32 0x7427293B656C656D656E742E636C6173734C6973742E61646428276C69676874 PUSH2 0x9A0 DUP3 ADD MSTORE PUSH32 0x2D7465787427297D293B646F63756D656E742E717565727953656C6563746F72 PUSH2 0x9C0 DUP3 ADD MSTORE PUSH32 0x416C6C28272E6461726B2D746578742D3227292E666F72456163682866756E63 PUSH2 0x9E0 DUP3 ADD MSTORE PUSH32 0x74696F6E28656C656D656E74297B656C656D656E742E636C6173734C6973742E PUSH2 0xA00 DUP3 ADD MSTORE PUSH32 0x72656D6F766528276461726B2D746578742D3227293B656C656D656E742E636C PUSH2 0xA20 DUP3 ADD MSTORE PUSH32 0x6173734C6973742E61646428276C696768742D746578742D3227297D293B646F PUSH2 0xA40 DUP3 ADD MSTORE PUSH32 0x63756D656E742E717565727953656C6563746F72416C6C28272E6461726B2D74 PUSH2 0xA60 DUP3 ADD MSTORE PUSH32 0x6578742D3327292E666F72456163682866756E6374696F6E28656C656D656E74 PUSH2 0xA80 DUP3 ADD MSTORE PUSH32 0x297B656C656D656E742E636C6173734C6973742E72656D6F766528276461726B PUSH2 0xAA0 DUP3 ADD MSTORE PUSH32 0x2D746578742D3327293B656C656D656E742E636C6173734C6973742E61646428 PUSH2 0xAC0 DUP3 ADD MSTORE PUSH32 0x276C696768742D746578742D3327297D293B646F63756D656E742E7175657279 PUSH2 0xAE0 DUP3 ADD MSTORE PUSH32 0x53656C6563746F72416C6C28272E6461726B2D746578742D3427292E666F7245 PUSH2 0xB00 DUP3 ADD MSTORE PUSH32 0x6163682866756E6374696F6E28656C656D656E74297B656C656D656E742E636C PUSH2 0xB20 DUP3 ADD MSTORE PUSH32 0x6173734C6973742E72656D6F766528276461726B2D746578742D3427293B656C PUSH2 0xB40 DUP3 ADD MSTORE PUSH32 0x656D656E742E636C6173734C6973742E61646428276C696768742D746578742D PUSH2 0xB60 DUP3 ADD MSTORE PUSH32 0x3427297D293B646F63756D656E742E717565727953656C6563746F72416C6C28 PUSH2 0xB80 DUP3 ADD MSTORE PUSH32 0x272E6461726B2D626727292E666F72456163682866756E6374696F6E28656C65 PUSH2 0xBA0 DUP3 ADD MSTORE PUSH32 0x6D656E74297B656C656D656E742E636C6173734C6973742E72656D6F76652827 PUSH2 0xBC0 DUP3 ADD MSTORE PUSH32 0x6461726B2D626727293B656C656D656E742E636C6173734C6973742E61646428 PUSH2 0xBE0 DUP3 ADD MSTORE PUSH32 0x276C696768742D626727297D293B646F63756D656E742E717565727953656C65 PUSH2 0xC00 DUP3 ADD MSTORE PUSH32 0x63746F72416C6C28272E6461726B2D62672D3227292E666F7245616368286675 PUSH2 0xC20 DUP3 ADD MSTORE PUSH32 0x6E6374696F6E28656C656D656E74297B656C656D656E742E636C6173734C6973 PUSH2 0xC40 DUP3 ADD MSTORE PUSH32 0x742E72656D6F766528276461726B2D62672D3227293B656C656D656E742E636C PUSH2 0xC60 DUP3 ADD MSTORE PUSH32 0x6173734C6973742E61646428276C696768742D62672D3227297D293B646F6375 PUSH2 0xC80 DUP3 ADD MSTORE PUSH32 0x6D656E742E717565727953656C6563746F72416C6C28272E6461726B2D626F72 PUSH2 0xCA0 DUP3 ADD MSTORE PUSH32 0x6465722D3227292E666F72456163682866756E6374696F6E28656C656D656E74 PUSH2 0xCC0 DUP3 ADD MSTORE PUSH32 0x297B656C656D656E742E636C6173734C6973742E72656D6F766528276461726B PUSH2 0xCE0 DUP3 ADD MSTORE PUSH32 0x2D626F726465722D3227293B656C656D656E742E636C6173734C6973742E6164 PUSH2 0xD00 DUP3 ADD MSTORE PUSH32 0x6428276C696768742D626F726465722D3227297D293B646F63756D656E742E71 PUSH2 0xD20 DUP3 ADD MSTORE PUSH32 0x7565727953656C6563746F72416C6C28272E6461726B2D626F7264657227292E PUSH2 0xD40 DUP3 ADD MSTORE PUSH32 0x666F72456163682866756E6374696F6E28656C656D656E74297B656C656D656E PUSH2 0xD60 DUP3 ADD MSTORE PUSH32 0x742E636C6173734C6973742E72656D6F766528276461726B2D626F7264657227 PUSH2 0xD80 DUP3 ADD MSTORE PUSH32 0x293B656C656D656E742E636C6173734C6973742E61646428276C696768742D62 PUSH2 0xDA0 DUP3 ADD MSTORE PUSH32 0x6F7264657227297D293B646F63756D656E742E717565727953656C6563746F72 PUSH2 0xDC0 DUP3 ADD MSTORE PUSH32 0x416C6C28272E6461726B2D6C696E6B27292E666F72456163682866756E637469 PUSH2 0xDE0 DUP3 ADD MSTORE PUSH32 0x6F6E28656C656D656E74297B656C656D656E742E636C6173734C6973742E7265 PUSH2 0xE00 DUP3 ADD MSTORE PUSH32 0x6D6F766528276461726B2D6C696E6B27293B656C656D656E742E636C6173734C PUSH2 0xE20 DUP3 ADD MSTORE PUSH32 0x6973742E61646428276C696768742D6C696E6B27297D297D66756E6374696F6E PUSH2 0xE40 DUP3 ADD MSTORE PUSH32 0x20746F67676C654D6F646528297B6966286D6F64653D3D3D30297B6D6F64653D PUSH2 0xE60 DUP3 ADD MSTORE PUSH32 0x313B7365744461726B28297D656C73657B6D6F64653D303B7365744C69676874 PUSH2 0xE80 DUP3 ADD MSTORE PUSH32 0x28297D646F63756D656E742E676574456C656D656E744279496428276D6F6465 PUSH2 0xEA0 DUP3 ADD MSTORE PUSH32 0x2D73776974636827292E626C757228297D3C2F7363726970743E000000000000 PUSH2 0xEC0 DUP3 ADD MSTORE POP JUMP JUMPDEST PUSH0 PUSH2 0x156C PUSH2 0xEDA DUP4 PUSH2 0x29A JUMP JUMPDEST SWAP2 POP PUSH2 0x1577 DUP3 PUSH2 0x344 JUMP JUMPDEST PUSH2 0xEDA DUP3 ADD SWAP1 POP SWAP2 SWAP1 POP JUMP JUMPDEST PUSH0 PUSH2 0x158D DUP3 PUSH2 0x2F2 JUMP JUMPDEST SWAP2 POP PUSH2 0x1599 DUP3 DUP5 PUSH2 0x314 JUMP JUMPDEST SWAP2 POP PUSH2 0x15A4 DUP3 PUSH2 0x155F JUMP JUMPDEST SWAP2 POP DUP2 SWAP1 POP SWAP3 SWAP2 POP POP JUMP INVALID LOG2 PUSH5 0x6970667358 0x22 SLT KECCAK256 LOG4 0xDF BALANCE COINBASE CREATE 0xC8 0xE3 0xC5 PUSH7 0xA9DBCFE1BED697 0xB4 CALLDATASIZE SLOAD PUSH5 0x81B96A1923 0xEC 0xEC 0x4C 0xE CALLDATACOPY PUSH5 0x7364736F6C PUSH4 0x4300081A STOP CALLER "
		},
		"gasEstimates": {
			"creation": {
				"codeDepositCost": "1121000",
				"executionCost": "1165",
				"totalCost": "1122165"
			},
			"external": {
				"getScript(string)": "infinite"
			}
		},
		"methodIdentifiers": {
			"getScript(string)": "527385ad"
		}
	},
	"abi": [
		{
			"inputs": [
				{
					"internalType": "string",
					"name": "mode",
					"type": "string"
				}
			],
			"name": "getScript",
			"outputs": [
				{
					"internalType": "string",
					"name": "",
					"type": "string"
				}
			],
			"stateMutability": "pure",
			"type": "function"
		}
	]
}