{
	"data": {
		"bytecode": {
			"linkReferences": {},
			"object": "608060405234801561000f575f80fd5b5060405161385b38038061385b8339818101604052810190610031919061017d565b3360015f6101000a81548173ffffffffffffffffffffffffffffffffffffffff021916908373ffffffffffffffffffffffffffffffffffffffff160217905550805f806101000a81548173ffffffffffffffffffffffffffffffffffffffff021916908373ffffffffffffffffffffffffffffffffffffffff160217905550600160025f73f1da6e2d387e9da611dac8a7fc587eaa4b01001373ffffffffffffffffffffffffffffffffffffffff1673ffffffffffffffffffffffffffffffffffffffff1681526020019081526020015f205f6101000a81548160ff021916908315150217905550506101a8565b5f80fd5b5f73ffffffffffffffffffffffffffffffffffffffff82169050919050565b5f61014c82610123565b9050919050565b61015c81610142565b8114610166575f80fd5b50565b5f8151905061017781610153565b92915050565b5f602082840312156101925761019161011f565b5b5f61019f84828501610169565b91505092915050565b6136a6806101b55f395ff3fe608060405234801561000f575f80fd5b5060043610610086575f3560e01c806385e685311161005957806385e68531146100fe57806387a5b67c1461011a5780638da5cb5b1461014a578063b0a69ab41461016857610086565b80630ae5e7391461008a57806318a6ef6c146100a65780637579b796146100c45780637899ff8f146100e0575b5f80fd5b6100a4600480360381019061009f91906109cc565b610186565b005b6100ae61026d565b6040516100bb9190610a67565b60405180910390f35b6100de60048036038101906100d991906109cc565b610423565b005b6100e8610545565b6040516100f59190610a67565b60405180910390f35b610118600480360381019061011391906109cc565b610582565b005b610134600480360381019061012f91906109cc565b610668565b6040516101419190610aa1565b60405180910390f35b610152610685565b60405161015f9190610ac9565b60405180910390f35b6101706106aa565b60405161017d9190610a67565b60405180910390f35b60015f9054906101000a900473ffffffffffffffffffffffffffffffffffffffff1673ffffffffffffffffffffffffffffffffffffffff163373ffffffffffffffffffffffffffffffffffffffff1614610215576040517f08c379a000000000000000000000000000000000000000000000000000000000815260040161020c90610b2c565b60405180910390fd5b600160025f8373ffffffffffffffffffffffffffffffffffffffff1673ffffffffffffffffffffffffffffffffffffffff1681526020019081526020015f205f6101000a81548160ff02191690831515021790555050565b60605f8054906101000a900473ffffffffffffffffffffffffffffffffffffffff1673ffffffffffffffffffffffffffffffffffffffff166312d491c96040518163ffffffff1660e01b81526004015f60405180830381865afa1580156102d6573d5f803e3d5ffd5b505050506040513d5f823e3d601f19601f820116820180604052508101906102fe9190610c68565b3073ffffffffffffffffffffffffffffffffffffffff1663b0a69ab46040518163ffffffff1660e01b81526004015f60405180830381865afa158015610346573d5f803e3d5ffd5b505050506040513d5f823e3d601f19601f8201168201806040525081019061036e9190610c68565b5f8054906101000a900473ffffffffffffffffffffffffffffffffffffffff1673ffffffffffffffffffffffffffffffffffffffff16639ef96d1f6040518163ffffffff1660e01b81526004015f60405180830381865afa1580156103d5573d5f803e3d5ffd5b505050506040513d5f823e3d601f19601f820116820180604052508101906103fd9190610c68565b60405160200161040f939291906129ae565b604051602081830303815290604052905090565b60015f9054906101000a900473ffffffffffffffffffffffffffffffffffffffff1673ffffffffffffffffffffffffffffffffffffffff163373ffffffffffffffffffffffffffffffffffffffff1614806104c4575060025f3373ffffffffffffffffffffffffffffffffffffffff1673ffffffffffffffffffffffffffffffffffffffff1681526020019081526020015f205f9054906101000a900460ff165b610503576040517f08c379a00000000000000000000000000000000000000000000000000000000081526004016104fa90612a5f565b60405180910390fd5b805f806101000a81548173ffffffffffffffffffffffffffffffffffffffff021916908373ffffffffffffffffffffffffffffffffffffffff16021790555050565b60606040518060400160405280601481526020017f3c626f64793e3c2f626f64793e3c2f68746d6c3e000000000000000000000000815250905090565b60015f9054906101000a900473ffffffffffffffffffffffffffffffffffffffff1673ffffffffffffffffffffffffffffffffffffffff163373ffffffffffffffffffffffffffffffffffffffff1614610611576040517f08c379a000000000000000000000000000000000000000000000000000000000815260040161060890610b2c565b60405180910390fd5b5f60025f8373ffffffffffffffffffffffffffffffffffffffff1673ffffffffffffffffffffffffffffffffffffffff1681526020019081526020015f205f6101000a81548160ff02191690831515021790555050565b6002602052805f5260405f205f915054906101000a900460ff1681565b60015f9054906101000a900473ffffffffffffffffffffffffffffffffffffffff1681565b6060805f805f9054906101000a900473ffffffffffffffffffffffffffffffffffffffff1673ffffffffffffffffffffffffffffffffffffffff16630d8550e16040518163ffffffff1660e01b81526004015f60405180830381865afa158015610716573d5f803e3d5ffd5b505050506040513d5f823e3d601f19601f8201168201806040525081019061073e9190610c68565b90505f805f9054906101000a900473ffffffffffffffffffffffffffffffffffffffff1673ffffffffffffffffffffffffffffffffffffffff1663721768586040518163ffffffff1660e01b81526004015f60405180830381865afa1580156107a9573d5f803e3d5ffd5b505050506040513d5f823e3d601f19601f820116820180604052508101906107d19190610c68565b90505f805f9054906101000a900473ffffffffffffffffffffffffffffffffffffffff1673ffffffffffffffffffffffffffffffffffffffff1663927947b46040518163ffffffff1660e01b8152600401602060405180830381865afa15801561083d573d5f803e3d5ffd5b505050506040513d601f19601f820116820180604052508101906108619190612ab0565b90505f5b81811015610956575f805f9054906101000a900473ffffffffffffffffffffffffffffffffffffffff1673ffffffffffffffffffffffffffffffffffffffff1663bae78d7b836040518263ffffffff1660e01b81526004016108c79190612aea565b5f60405180830381865afa1580156108e1573d5f803e3d5ffd5b505050506040513d5f823e3d601f19601f820116820180604052508101906109099190612c20565b9050858585835f01518460800151856020015186606001516040516020016109379796959493929190613525565b6040516020818303038152906040529550508080600101915050610865565b508394505050505090565b5f604051905090565b5f80fd5b5f80fd5b5f73ffffffffffffffffffffffffffffffffffffffff82169050919050565b5f61099b82610972565b9050919050565b6109ab81610991565b81146109b5575f80fd5b50565b5f813590506109c6816109a2565b92915050565b5f602082840312156109e1576109e061096a565b5b5f6109ee848285016109b8565b91505092915050565b5f81519050919050565b5f82825260208201905092915050565b8281835e5f83830152505050565b5f601f19601f8301169050919050565b5f610a39826109f7565b610a438185610a01565b9350610a53818560208601610a11565b610a5c81610a1f565b840191505092915050565b5f6020820190508181035f830152610a7f8184610a2f565b905092915050565b5f8115159050919050565b610a9b81610a87565b82525050565b5f602082019050610ab45f830184610a92565b92915050565b610ac381610991565b82525050565b5f602082019050610adc5f830184610aba565b92915050565b7f4e6f7420746865206f776e6572000000000000000000000000000000000000005f82015250565b5f610b16600d83610a01565b9150610b2182610ae2565b602082019050919050565b5f6020820190508181035f830152610b4381610b0a565b9050919050565b5f80fd5b5f80fd5b7f4e487b71000000000000000000000000000000000000000000000000000000005f52604160045260245ffd5b610b8882610a1f565b810181811067ffffffffffffffff82111715610ba757610ba6610b52565b5b80604052505050565b5f610bb9610961565b9050610bc58282610b7f565b919050565b5f67ffffffffffffffff821115610be457610be3610b52565b5b610bed82610a1f565b9050602081019050919050565b5f610c0c610c0784610bca565b610bb0565b905082815260208101848484011115610c2857610c27610b4e565b5b610c33848285610a11565b509392505050565b5f82601f830112610c4f57610c4e610b4a565b5b8151610c5f848260208601610bfa565b91505092915050565b5f60208284031215610c7d57610c7c61096a565b5b5f82015167ffffffffffffffff811115610c9a57610c9961096e565b5b610ca684828501610c3b565b91505092915050565b5f81905092915050565b7f3c21646f637479706568746d6c3e3c68746d6c206c616e673d656e3e3c6d65745f8201527f6120636f6e74656e743d27746578742f68746d6c3b20636861727365743d555460208201527f462d3827687474702d65717569763d436f6e74656e742d547970653e3c6d657460408201527f6120636f6e74656e743d2777696474683d6465766963652d77696474682c696e60608201527f697469616c2d7363616c653d31276e616d653d76696577706f72743e3c6d657460808201527f6120636f6e74656e743d2769653d6564676527687474702d65717569763d582d60a08201527f55412d436f6d70617469626c653e3c6d65746120646576656c6f7065723d274160c08201527f6e64726577204d69746368656c6c273e3c6d657461206172746973743d546a6f60e08201527f3e3c7469746c653e50726f7a616320596f7574683c2f7469746c653e0000000061010082015250565b5f610e1f61011c83610caf565b9150610e2a82610cb9565b61011c82019050919050565b7f3c7374796c653e626f64797b666f6e742d66616d696c793a48656c76657469635f8201527f612c73616e732d73657269663b666f6e742d73697a653a313070743b6d61726760208201527f696e3a303b70616464696e673a3570787d2e616e64726577732d636f6e74616960408201527f6e65727b6d617267696e3a6175746f3b77696474683a313030257d406d65646960608201527f61206f6e6c792073637265656e20616e6420286d61782d77696474683a36303060808201527f7078297b2e616e64726577732d636f6e7461696e65727b77696474683a31303060a08201527f257d7d2e7461626c657b6d617267696e3a32307078206175746f3b776964746860c08201527f3a313030253b626f726465722d636f6c6c617073653a636f6c6c617073657d4060e08201527f6d65646961206f6e6c792073637265656e20616e6420286d61782d77696474686101008201527f3a3630307078297b2e7461626c657b77696474683a313030257d7d2e666164656101208201527f2d696e7b6f7061636974793a313b616e696d6174696f6e2d6e616d653a6661646101408201527f65496e4f7061636974793b616e696d6174696f6e2d697465726174696f6e2d636101608201527f6f756e743a313b616e696d6174696f6e2d74696d696e672d66756e6374696f6e6101808201527f3a656173652d696e3b616e696d6174696f6e2d6475726174696f6e3a32737d406101a08201527f6b65796672616d65732066616465496e4f7061636974797b30257b6f706163696101c08201527f74793a307d313030257b6f7061636974793a317d7d236c6f6164696e672d74656101e08201527f78747b666f6e742d73697a653a313070743b746578742d616c69676e3a7269676102008201527f68747d236c6f6164696e677b77696474683a313030257d2e6865616465722d746102208201527f69746c657b666f6e742d73697a653a313670743b666f6e742d7765696768743a6102408201527f3730303b746578742d616c69676e3a63656e7465723b6261636b67726f756e646102608201527f2d636f6c6f723a233238343033653b70616464696e673a3130707820303b626f6102808201527f726465722d7261646975733a3570787d2e62726561646372756d62737b666f6e6102a08201527f742d73697a653a3970743b636f6c6f723a233737373b6d617267696e2d626f746102c08201527f746f6d3a313070787d236d6f64652d7377697463687b637572736f723a706f696102e08201527f6e7465723b706f736974696f6e3a66697865643b626f74746f6d3a313070783b6103008201527f72696768743a313070787d2e666f72756d2d72756c65737b626f726465722d726103208201527f61646975733a3570783b70616464696e673a313070783b666f6e742d73697a656103408201527f3a3970743b6d617267696e2d626f74746f6d3a323070787d2e7461626c652d686103608201527f65616465722c2e7461626c652d726f777b70616464696e673a3870787d2e74616103808201527f626c652d6865616465727b6261636b67726f756e642d636f6c6f723a233238346103a08201527f3033653b666f6e742d7765696768743a3730307d2e7461626c653e2e6c6967686103c08201527f742d62673a6e74682d6368696c64286576656e297b6261636b67726f756e642d6103e08201527f636f6c6f723a7267626128302c302c302c302921696d706f7274616e747d2e6c6104008201527f696768742d62677b6261636b67726f756e642d636f6c6f723a7267626128302c6104208201527f302c302c302921696d706f7274616e747d2e6c696768742d6c696e6b7b636f6c6104408201527f6f723a2361333134313421696d706f7274616e747d2e6c696768742d626f72646104608201527f65727b626f726465723a31707820736f6c6964202332383430336521696d706f6104808201527f7274616e747d2e6c696768742d626f726465722d327b626f726465723a3170786104a08201527f20736f6c6964202336323738373621696d706f7274616e747d2e6c696768742d6104c08201527f62672d327b6261636b67726f756e642d636f6c6f723a2363346330626421696d6104e08201527f706f7274616e747d2e6c696768742d746578747b636f6c6f723a2366616661666105008201527f6121696d706f7274616e747d2e6c696768742d746578742d327b636f6c6f723a6105208201527f2330613061306621696d706f7274616e747d2e6572726f722d746578747b636f6105408201527f6c6f723a236630337d2e6461726b2d6c696e6b7b636f6c6f723a2361346362636105608201527f3421696d706f7274616e747d2e6461726b2d746578742d327b636f6c6f723a236105808201527f63646364636421696d706f7274616e747d2e6c696768742d746578742d337b636105a08201527f6f6c6f723a2330643064313421696d706f7274616e747d2e6461726b2d7465786105c08201527f742d337b636f6c6f723a2363646364636421696d706f7274616e747d2e6c69676105e08201527f68742d746578742d347b636f6c6f723a2330643064313421696d706f7274616e6106008201527f747d2e6461726b2d746578742d347b636f6c6f723a2363646364636421696d706106208201527f6f7274616e747d2e7461626c653e2e6461726b2d62673a6e74682d6368696c646106408201527f286576656e297b6261636b67726f756e642d636f6c6f723a7267626128302c306106608201527f2c302c302921696d706f7274616e747d2e6461726b2d62677b6261636b67726f6106808201527f756e642d636f6c6f723a7267626128302c302c302c302921696d706f7274616e6106a08201527f747d2e6461726b2d626f726465727b626f726465723a31707820736f6c6964206106c08201527f2335353521696d706f7274616e747d2e6461726b2d626f726465722d327b626f6106e08201527f726465723a31707820736f6c6964202333333321696d706f7274616e747d2e646107008201527f61726b2d62672d327b6261636b67726f756e642d636f6c6f723a2334343421696107208201527f6d706f7274616e747d2e6461726b2d746578747b636f6c6f723a2363386338636107408201527f3821696d706f7274616e747d2e706f73742d777261707065727b646973706c616107608201527f793a6e6f6e657d2e736d616c6c2d746578747b666f6e742d73697a653a3870746107808201527f3b636f6c6f723a233535357d2e63757272656e742d74696d657b666f6e742d736107a08201527f697a653a3870743b636f6c6f723a233737373b766572746963616c2d616c69676107c08201527f6e3a73757065723b6d617267696e2d72696768743a3270787d237461626c652d6107e08201527f626f64797b7461626c652d6c61796f75743a66697865647d2e74696d652d77726108008201527f61707065727b646973706c61793a696e6c696e657d2e6c6f6164696e672d63656108208201527f6c6c7b646973706c61793a666c65783b626f726465723a303b746578742d616c6108408201527f69676e3a72696768747d2e706f73742d696e666f7b646973706c61793a666c656108608201527f783b6a7573746966792d636f6e74656e743a73706163652d6265747765656e3b6108808201527f616c69676e2d6974656d733a63656e7465727d2e706f73742d696e666f2073706108a08201527f616e7b666f6e742d73697a653a313070743b636f6c6f723a233238343033653b6108c08201527f666f6e742d7765696768743a3730307d2e706f73742d6d6573736167657b666f6108e08201527f6e742d73697a653a313070743b6c696e652d6865696768743a312e357d2e666f6109008201527f6f7465727b6d617267696e2d746f703a323070783b746578742d616c69676e3a6109208201527f63656e7465723b666f6e742d73697a653a3970743b636f6c6f723a233737377d6109408201527f2370617065722d6261636b67726f756e647b706f736974696f6e3a6162736f6c6109608201527f7574653b6261636b67726f756e642d73697a653a636f7665723b7a2d696e64656109808201527f783a2d313030303b746f703a303b6c6566743a303b77696474683a313030253b6109a08201527f6865696768743a313030257d3c2f7374796c653e3c626f647920636c6173733d6109c08201527f276c696768742d746578742d32206c696768742d6267273e3c64697620636c616109e08201527f73733d27666164652d696e20706f73742d777261707065722769643d706f7374610a008201527f2d777261707065723e3c64697620636c6173733d6261736536342069643d7061610a208201527f7065722d6261636b67726f756e643e3c2f6469763e3c64697620636c6173733d610a408201527f276c696768742d746578742d3220616e64726577732d636f6e7461696e657227610a608201527f3e3c64697620636c6173733d62726561646372756d62733e50726f7a61632059610a808201527f6f757468203e20466f72756d73203e20544a4f203e20446561722048756d616e610aa08201527f3c2f6469763e3c64697620636c6173733d706f73742d696e666f3e3c7370616e610ac08201527f20636c6173733d6c696768742d746578742d323e546f74616c20506f7374733a610ae08201527f203c622069643d746f74616c2d706f7374733e00000000000000000000000000610b0082015250565b5f611bcc610b1383610caf565b9150611bd782610e36565b610b1382019050919050565b5f611bed826109f7565b611bf78185610caf565b9350611c07818560208601610a11565b80840191505092915050565b7f3c2f623e3c2f7370616e3e3c7370616e20636c6173733d2763757272656e742d5f8201527f74696d65206c696768742d746578742d32273e3c2f7370616e3e3c2f6469763e60208201527f3c7461626c6520636c6173733d7461626c65207374796c653d7461626c652d6c60408201527f61796f75743a66697865643e3c74686561643e3c747220636c6173733d276c6960608201527f6768742d626f72646572206c696768742d74657874207461626c652d6865616460808201527f6572273e3c746820636f6c7370616e3d313e417574686f723c746820636f6c7360a08201527f70616e3d333e5468726561643c74626f64792069643d7461626c652d626f647960c08201527f3e3c747220636c6173733d276c696768742d626f72646572206c696768742d6260e08201527f67207461626c652d726f77273e3c746420636f6c7370616e3d313e3c746420636101008201527f6f6c7370616e3d333e000000000000000000000000000000000000000000000061012082015250565b5f611da061012983610caf565b9150611dab82611c13565b61012982019050919050565b7f3c2f74626f64793e3c2f7461626c653e3c7370616e2069643d6d6f64652d73775f8201527f69746368206f6e636c69636b3d746f67676c654d6f646528293e3c737667206660208201527f696c6c3d23303030303030206865696768743d313570782069643d436170615f60408201527f312076657273696f6e3d312e312076696577426f783d27302030203230372e3660608201527f3238203230372e3632382777696474683d3135707820786d6c3a73706163653d60808201527f707265736572766520786d6c6e733d687474703a2f2f7777772e77332e6f726760a08201527f2f323030302f73766720786d6c6e733a786c696e6b3d687474703a2f2f77777760c08201527f2e77332e6f72672f313939392f786c696e6b3e3c636972636c652063783d313060e08201527f332e3831342063793d3130332e38313420723d34352e383638202f3e3c7061746101008201527f6820643d274d3130332e3831342c3135372e313833632d32392e3432372c302d6101208201527f35332e3336382d32332e3934312d35332e3336382d35332e3336387332332e396101408201527f34312d35332e3336382c35332e3336382d35332e3336387335332e3336382c326101608201527f332e3934312c35332e3336382c35332e3336382020533133332e3234312c31356101808201527f372e3138332c3130332e3831342c3135372e3138337a204d3130332e3831342c6101a08201527f36352e343436632d32312e3135362c302d33382e3336382c31372e3231322d336101c08201527f382e3336382c33382e3336387331372e3231322c33382e3336382c33382e33366101e08201527f382c33382e33363820207333382e3336382d31372e3231322c33382e3336382d6102008201527f33382e333638533132342e39372c36352e3434362c3130332e3831342c36352e6102208201527f3434367a272f3e3c7061746820643d274d3130332e3831342c33392e333835636102408201527f2d342e3134322c302d372e352d332e3335382d372e352d372e3556372e3563306102608201527f2d342e3134322c332e3335382d372e352c372e352d372e3573372e352c332e336102808201527f35382c372e352c372e357632342e3338352020433131312e3331342c33362e306102a08201527f32372c3130372e3935362c33392e3338352c3130332e3831342c33392e3338356102c08201527f7a272f3e3c7061746820643d274d3130332e3831342c3230372e363238632d346102e08201527f2e3134322c302d372e352d332e3335382d372e352d372e35762d32342e3338356103008201527f63302d342e3134322c332e3335382d372e352c372e352d372e3573372e352c336103208201527f2e3335382c372e352c372e357632342e3338352020433131312e3331342c32306103408201527f342e3237312c3130372e3935362c3230372e3632382c3130332e3831342c32306103608201527f372e3632387a272f3e3c7061746820643d274d3230302e3132382c3131312e336103808201527f3134682d32342e333835632d342e3134322c302d372e352d332e3335382d372e6103a08201527f352d372e3573332e3335382d372e352c372e352d372e356832342e33383563346103c08201527f2e3134322c302c372e352c332e3335382c372e352c372e352020533230342e326103e08201527f37312c3131312e3331342c3230302e3132382c3131312e3331347a272f3e3c706104008201527f61746820643d274d33312e3838352c3131312e33313448372e35632d342e31346104208201527f322c302d372e352d332e3335382d372e352d372e3573332e3335382d372e352c6104408201527f372e352d372e356832342e33383563342e3134322c302c372e352c332e3335386104608201527f2c372e352c372e3520205333362e3032372c3131312e3331342c33312e3838356104808201527f2c3131312e3331347a272f3e3c7061746820643d274d3135342e3637362c36306104a08201527f2e343532632d312e3931392c302d332e3833392d302e3733322d352e3330332d6104c08201527f322e313937632d322e3932392d322e3932392d322e3932392d372e3637382c306104e08201527f2d31302e3630366c31372e3234332d31372e323432202063322e3932392d322e6105008201527f3932392c372e3637382d322e39332c31302e3630362c3063322e3932392c322e6105208201527f3932392c322e3932392c372e3637382c302c31302e3630366c2d31372e3234336105408201527f2c31372e323432433135382e3531352c35392e37322c3135362e3539352c36306105608201527f2e3435322c3135342e3637362c36302e3435327a272f3e3c7061746820643d276105808201527f4d33352e3730392c3137392e343139632d312e3931392c302d332e3833392d306105a08201527f2e3733322d352e3330332d322e313937632d322e3932392d322e3932392d322e6105c08201527f3932392d372e3637382c302d31302e3630366c31372e3234332d31372e3234336105e08201527f202063322e3932392d322e3932392c372e3637382d322e3932392c31302e36306106008201527f362c3063322e3932392c322e3932392c322e3932392c372e3637382c302c31306106208201527f2e3630366c2d31372e3234332c31372e3234334333392e3534382c3137382e366106408201527f38372c33372e3632392c3137392e3431392c33352e3730392c3137392e3431396106608201527f7a2020272f3e3c7061746820643d274d3137312e3931382c3137392e343139636106808201527f2d312e3931392c302d332e3833392d302e3733322d352e3330332d322e3139376106a08201527f6c2d31372e3234332d31372e323433632d322e3932392d322e3932392d322e396106c08201527f32392d372e3637382c302d31302e363036202063322e3932392d322e3932392c6106e08201527f372e3637382d322e3932392c31302e3630362c306c31372e3234332c31372e326107008201527f343363322e3932392c322e3932392c322e3932392c372e3637382c302c31302e6107208201527f3630362020433137352e3735372c3137382e3638372c3137332e3833382c31376107408201527f392e3431392c3137312e3931382c3137392e3431397a272f3e3c7061746820646107608201527f3d274d35322e3935322c36302e343532632d312e3931392c302d332e3833392d6107808201527f302e3733322d352e3330332d322e3139374c33302e3430362c34312e303133636107a08201527f2d322e3932392d322e3932392d322e3932392d372e3637372c302d31302e36306107c08201527f36202063322e3932392d322e3932392c372e3637382d322e39332c31302e36306107e08201527f362c306c31372e3234332c31372e32343263322e3932392c322e3932392c322e6108008201527f3932392c372e3637372c302c31302e3630364335362e3739312c35392e37322c6108208201527f35342e3837322c36302e3435322c35322e3935322c36302e3435327a272f3e3c6108408201527f2f7376673e3c2f7370616e3e3c6469762069643d616e64726577207374796c656108608201527f3d6d617267696e2d746f703a313570783b746578742d616c69676e3a63656e746108808201527f65723b77696474683a313030253e3c7370616e3e44657369676e6564206279206108a08201527f3c6120636c6173733d6c696768742d6c696e6b20687265663d000000000000006108c082015250565b5f61288f6108d983610caf565b915061289a82611db7565b6108d982019050919050565b7f207461726765743d5f626c616e6b3e416e64726577204d69746368656c6c3c2f5f8201527f613e3c2f7370616e3e3c2f6469763e3c64697620636c6173733d666f6f74657260208201527f3e26233136393b2050726f7a616320596f7574682e20416c6c2072696768747360408201527f2072657365727665642e3c2f6469763e3c63616e7661732069643d276e6f746560608201527f70616443616e76617327207374796c653d27646973706c61793a6e6f6e653b2760808201527f3e3c2f63616e7661733e3c2f6469763e3c2f6469763e0000000000000000000060a082015250565b5f61299860b683610caf565b91506129a3826128a6565b60b682019050919050565b5f6129b882610e12565b91506129c382611bbf565b91506129cf8286611be3565b91506129da82611d93565b91506129e68285611be3565b91506129f182612882565b91506129fd8284611be3565b9150612a088261298c565b9150819050949350505050565b7f4e6f7420617574686f72697a65640000000000000000000000000000000000005f82015250565b5f612a49600e83610a01565b9150612a5482612a15565b602082019050919050565b5f6020820190508181035f830152612a7681612a3d565b9050919050565b5f819050919050565b612a8f81612a7d565b8114612a99575f80fd5b50565b5f81519050612aaa81612a86565b92915050565b5f60208284031215612ac557612ac461096a565b5b5f612ad284828501612a9c565b91505092915050565b612ae481612a7d565b82525050565b5f602082019050612afd5f830184612adb565b92915050565b5f80fd5b5f80fd5b5f60a08284031215612b2057612b1f612b03565b5b612b2a60a0610bb0565b90505f82015167ffffffffffffffff811115612b4957612b48612b07565b5b612b5584828501610c3b565b5f83015250602082015167ffffffffffffffff811115612b7857612b77612b07565b5b612b8484828501610c3b565b602083015250604082015167ffffffffffffffff811115612ba857612ba7612b07565b5b612bb484828501610c3b565b604083015250606082015167ffffffffffffffff811115612bd857612bd7612b07565b5b612be484828501610c3b565b606083015250608082015167ffffffffffffffff811115612c0857612c07612b07565b5b612c1484828501610c3b565b60808301525092915050565b5f60208284031215612c3557612c3461096a565b5b5f82015167ffffffffffffffff811115612c5257612c5161096e565b5b612c5e84828501612b0b565b91505092915050565b7f3c747220636c6173733d227461626c652d726f77206c696768742d6267206c695f8201527f6768742d626f72646572206c696768742d74657874223e000000000000000000602082015250565b5f612cc1603783610caf565b9150612ccc82612c67565b603782019050919050565b7f3c746420636f6c7370616e3d22312220636c6173733d226c696768742d6267225f8201527f2077696474683d223330252220616c69676e3d2263656e746572223e00000000602082015250565b5f612d31603c83610caf565b9150612d3c82612cd7565b603c82019050919050565b7f3c666f6e7420636c6173733d22736d616c6c5f74657874223e000000000000005f82015250565b5f612d7b601983610caf565b9150612d8682612d47565b601982019050919050565b7f3c6120636c6173733d226c696768742d6c696e6b22207461726765743d225f625f8201527f6c616e6b2220687265663d220000000000000000000000000000000000000000602082015250565b5f612deb602c83610caf565b9150612df682612d91565b602c82019050919050565b7f223e546a6f3c2f613e00000000000000000000000000000000000000000000005f82015250565b5f612e35600983610caf565b9150612e4082612e01565b600982019050919050565b7f3c666f6e743e3c2f666f6e743e3c2f666f6e743e3c2f74643e000000000000005f82015250565b5f612e7f601983610caf565b9150612e8a82612e4b565b601982019050919050565b7f3c746420636f6c7370616e3d22332220616c69676e3d227269676874222077695f8201527f6474683d223730252220636c6173733d226c696768742d6267206c696768742d60208201527f6c696e6b223e0000000000000000000000000000000000000000000000000000604082015250565b5f612f15604683610caf565b9150612f2082612e95565b604682019050919050565b7f3c64697620636c6173733d22706f7374496e666f206465736b746f70223e00005f82015250565b5f612f5f601e83610caf565b9150612f6a82612f2b565b601e82019050919050565b7f3c7370616e20636c6173733d22706f73744e756d206465736b746f70223e00005f82015250565b5f612fa9601e83610caf565b9150612fb482612f75565b601e82019050919050565b7f3c6120636c6173733d226c696768742d6c696e6b22207374796c653d22666f6e5f8201527f742d73697a653a313270783b2220687265663d22000000000000000000000000602082015250565b5f613019603483610caf565b915061302482612fbf565b603482019050919050565b7f22207461726765743d225f626c616e6b22207469746c653d224c696e6b20746f5f8201527f2074686973207472616e73616374696f6e223e00000000000000000000000000602082015250565b5f613089603383610caf565b91506130948261302f565b603382019050919050565b7f3c2f613e3c2f7370616e3e3c2f6469763e3c2f74643e3c2f74723e3c74723e3c5f8201527f7464207374796c653d2270616464696e672d626f74746f6d3a353070783b223e60208201527f3c2f74643e3c2f74723e00000000000000000000000000000000000000000000604082015250565b5f61311f604a83610caf565b915061312a8261309f565b604a82019050919050565b7f3c74723e3c746420636f6c7370616e3d2231222076616c69676e3d226d6964645f8201527f6c652220616c69676e3d226c6566742220636c6173733d226c696768742d626760208201527f223e000000000000000000000000000000000000000000000000000000000000604082015250565b5f6131b5604283610caf565b91506131c082613135565b604282019050919050565b7f3c756c20616c69676e3d226c65667422207374796c653d2270616464696e672d5f8201527f6c6566743a20313570783b666f6e742d73697a653a20313070783b223e000000602082015250565b5f613225603d83610caf565b9150613230826131cb565b603d82019050919050565b7f3c6c6920636c6173733d226c696768742d746578742d33223e426c6f636b3a205f82015250565b5f61326f602083610caf565b915061327a8261323b565b602082019050919050565b7f3c2f6c693e3c6c6920636c6173733d226c696768742d746578742d33223e4c6f5f8201527f636174696f6e3a20554e4b4e4f574e3c2f6c693e3c2f756c3e3c2f74643e0000602082015250565b5f6132df603e83610caf565b91506132ea82613285565b603e82019050919050565b7f3c746420636f6c7370616e3d22332220616c69676e3d2263656e7465722220765f8201527f616c69676e3d226d6964646c652220636c6173733d226c696768742d6267223e602082015250565b5f61334f604083610caf565b915061335a826132f5565b604082019050919050565b7f3c666f6e7420636c6173733d22726567756c61725f74657874223e00000000005f82015250565b5f613399601b83610caf565b91506133a482613365565b601b82019050919050565b7f3c64697620636c6173733d22706f7374207265706c79223e00000000000000005f82015250565b5f6133e3601883610caf565b91506133ee826133af565b601882019050919050565b7f3c626c6f636b71756f7465207374796c653d226d617267696e2d746f703a30705f8201527f783b2220636c6173733d22706f73744d657373616765206c696768742d74657860208201527f742d32222069643d226d3334303739393833223e3c62723e0000000000000000604082015250565b5f613479605883610caf565b9150613484826133f9565b605882019050919050565b7f3c2f626c6f636b71756f74653e3c2f6469763e3c2f666f6e743e3c2f74643e3c5f8201527f2f74723e3c74723e3c7464207374796c653d2270616464696e672d626f74746f60208201527f6d3a353070783b223e3c2f74643e3c2f74723e00000000000000000000000000604082015250565b5f61350f605383610caf565b915061351a8261348f565b605382019050919050565b5f613530828a611be3565b915061353b82612cb5565b915061354682612d25565b915061355182612d6f565b915061355c82612ddf565b91506135688289611be3565b915061357382612e29565b915061357e82612e73565b915061358982612f09565b915061359482612f53565b915061359f82612f9d565b91506135aa8261300d565b91506135b68288611be3565b91506135c28287611be3565b91506135cd8261307d565b91506135d98286611be3565b91506135e482613113565b91506135ef826131a9565b91506135fa82613219565b915061360582613263565b91506136118285611be3565b915061361c826132d3565b915061362782613343565b91506136328261338d565b915061363d826133d7565b91506136488261346d565b91506136548284611be3565b915061365f82613503565b91508190509897505050505050505056fea264697066735822122064a0315e77fe077da3497515157e3d81965db7adf38b20bb0a98e7fffcc424b264736f6c634300081a0033",
			"opcodes": "PUSH1 0x80 PUSH1 0x40 MSTORE CALLVALUE DUP1 ISZERO PUSH2 0xF JUMPI PUSH0 DUP1 REVERT JUMPDEST POP PUSH1 0x40 MLOAD PUSH2 0x385B CODESIZE SUB DUP1 PUSH2 0x385B DUP4 CODECOPY DUP2 DUP2 ADD PUSH1 0x40 MSTORE DUP2 ADD SWAP1 PUSH2 0x31 SWAP2 SWAP1 PUSH2 0x17D JUMP JUMPDEST CALLER PUSH1 0x1 PUSH0 PUSH2 0x100 EXP DUP2 SLOAD DUP2 PUSH20 0xFFFFFFFFFFFFFFFFFFFFFFFFFFFFFFFFFFFFFFFF MUL NOT AND SWAP1 DUP4 PUSH20 0xFFFFFFFFFFFFFFFFFFFFFFFFFFFFFFFFFFFFFFFF AND MUL OR SWAP1 SSTORE POP DUP1 PUSH0 DUP1 PUSH2 0x100 EXP DUP2 SLOAD DUP2 PUSH20 0xFFFFFFFFFFFFFFFFFFFFFFFFFFFFFFFFFFFFFFFF MUL NOT AND SWAP1 DUP4 PUSH20 0xFFFFFFFFFFFFFFFFFFFFFFFFFFFFFFFFFFFFFFFF AND MUL OR SWAP1 SSTORE POP PUSH1 0x1 PUSH1 0x2 PUSH0 PUSH20 0xF1DA6E2D387E9DA611DAC8A7FC587EAA4B010013 PUSH20 0xFFFFFFFFFFFFFFFFFFFFFFFFFFFFFFFFFFFFFFFF AND PUSH20 0xFFFFFFFFFFFFFFFFFFFFFFFFFFFFFFFFFFFFFFFF AND DUP2 MSTORE PUSH1 0x20 ADD SWAP1 DUP2 MSTORE PUSH1 0x20 ADD PUSH0 KECCAK256 PUSH0 PUSH2 0x100 EXP DUP2 SLOAD DUP2 PUSH1 0xFF MUL NOT AND SWAP1 DUP4 ISZERO ISZERO MUL OR SWAP1 SSTORE POP POP PUSH2 0x1A8 JUMP JUMPDEST PUSH0 DUP1 REVERT JUMPDEST PUSH0 PUSH20 0xFFFFFFFFFFFFFFFFFFFFFFFFFFFFFFFFFFFFFFFF DUP3 AND SWAP1 POP SWAP2 SWAP1 POP JUMP JUMPDEST PUSH0 PUSH2 0x14C DUP3 PUSH2 0x123 JUMP JUMPDEST SWAP1 POP SWAP2 SWAP1 POP JUMP JUMPDEST PUSH2 0x15C DUP2 PUSH2 0x142 JUMP JUMPDEST DUP2 EQ PUSH2 0x166 JUMPI PUSH0 DUP1 REVERT JUMPDEST POP JUMP JUMPDEST PUSH0 DUP2 MLOAD SWAP1 POP PUSH2 0x177 DUP2 PUSH2 0x153 JUMP JUMPDEST SWAP3 SWAP2 POP POP JUMP JUMPDEST PUSH0 PUSH1 0x20 DUP3 DUP5 SUB SLT ISZERO PUSH2 0x192 JUMPI PUSH2 0x191 PUSH2 0x11F JUMP JUMPDEST JUMPDEST PUSH0 PUSH2 0x19F DUP5 DUP3 DUP6 ADD PUSH2 0x169 JUMP JUMPDEST SWAP2 POP POP SWAP3 SWAP2 POP POP JUMP JUMPDEST PUSH2 0x36A6 DUP1 PUSH2 0x1B5 PUSH0 CODECOPY PUSH0 RETURN INVALID PUSH1 0x80 PUSH1 0x40 MSTORE CALLVALUE DUP1 ISZERO PUSH2 0xF JUMPI PUSH0 DUP1 REVERT JUMPDEST POP PUSH1 0x4 CALLDATASIZE LT PUSH2 0x86 JUMPI PUSH0 CALLDATALOAD PUSH1 0xE0 SHR DUP1 PUSH4 0x85E68531 GT PUSH2 0x59 JUMPI DUP1 PUSH4 0x85E68531 EQ PUSH2 0xFE JUMPI DUP1 PUSH4 0x87A5B67C EQ PUSH2 0x11A JUMPI DUP1 PUSH4 0x8DA5CB5B EQ PUSH2 0x14A JUMPI DUP1 PUSH4 0xB0A69AB4 EQ PUSH2 0x168 JUMPI PUSH2 0x86 JUMP JUMPDEST DUP1 PUSH4 0xAE5E739 EQ PUSH2 0x8A JUMPI DUP1 PUSH4 0x18A6EF6C EQ PUSH2 0xA6 JUMPI DUP1 PUSH4 0x7579B796 EQ PUSH2 0xC4 JUMPI DUP1 PUSH4 0x7899FF8F EQ PUSH2 0xE0 JUMPI JUMPDEST PUSH0 DUP1 REVERT JUMPDEST PUSH2 0xA4 PUSH1 0x4 DUP1 CALLDATASIZE SUB DUP2 ADD SWAP1 PUSH2 0x9F SWAP2 SWAP1 PUSH2 0x9CC JUMP JUMPDEST PUSH2 0x186 JUMP JUMPDEST STOP JUMPDEST PUSH2 0xAE PUSH2 0x26D JUMP JUMPDEST PUSH1 0x40 MLOAD PUSH2 0xBB SWAP2 SWAP1 PUSH2 0xA67 JUMP JUMPDEST PUSH1 0x40 MLOAD DUP1 SWAP2 SUB SWAP1 RETURN JUMPDEST PUSH2 0xDE PUSH1 0x4 DUP1 CALLDATASIZE SUB DUP2 ADD SWAP1 PUSH2 0xD9 SWAP2 SWAP1 PUSH2 0x9CC JUMP JUMPDEST PUSH2 0x423 JUMP JUMPDEST STOP JUMPDEST PUSH2 0xE8 PUSH2 0x545 JUMP JUMPDEST PUSH1 0x40 MLOAD PUSH2 0xF5 SWAP2 SWAP1 PUSH2 0xA67 JUMP JUMPDEST PUSH1 0x40 MLOAD DUP1 SWAP2 SUB SWAP1 RETURN JUMPDEST PUSH2 0x118 PUSH1 0x4 DUP1 CALLDATASIZE SUB DUP2 ADD SWAP1 PUSH2 0x113 SWAP2 SWAP1 PUSH2 0x9CC JUMP JUMPDEST PUSH2 0x582 JUMP JUMPDEST STOP JUMPDEST PUSH2 0x134 PUSH1 0x4 DUP1 CALLDATASIZE SUB DUP2 ADD SWAP1 PUSH2 0x12F SWAP2 SWAP1 PUSH2 0x9CC JUMP JUMPDEST PUSH2 0x668 JUMP JUMPDEST PUSH1 0x40 MLOAD PUSH2 0x141 SWAP2 SWAP1 PUSH2 0xAA1 JUMP JUMPDEST PUSH1 0x40 MLOAD DUP1 SWAP2 SUB SWAP1 RETURN JUMPDEST PUSH2 0x152 PUSH2 0x685 JUMP JUMPDEST PUSH1 0x40 MLOAD PUSH2 0x15F SWAP2 SWAP1 PUSH2 0xAC9 JUMP JUMPDEST PUSH1 0x40 MLOAD DUP1 SWAP2 SUB SWAP1 RETURN JUMPDEST PUSH2 0x170 PUSH2 0x6AA JUMP JUMPDEST PUSH1 0x40 MLOAD PUSH2 0x17D SWAP2 SWAP1 PUSH2 0xA67 JUMP JUMPDEST PUSH1 0x40 MLOAD DUP1 SWAP2 SUB SWAP1 RETURN JUMPDEST PUSH1 0x1 PUSH0 SWAP1 SLOAD SWAP1 PUSH2 0x100 EXP SWAP1 DIV PUSH20 0xFFFFFFFFFFFFFFFFFFFFFFFFFFFFFFFFFFFFFFFF AND PUSH20 0xFFFFFFFFFFFFFFFFFFFFFFFFFFFFFFFFFFFFFFFF AND CALLER PUSH20 0xFFFFFFFFFFFFFFFFFFFFFFFFFFFFFFFFFFFFFFFF AND EQ PUSH2 0x215 JUMPI PUSH1 0x40 MLOAD PUSH32 0x8C379A000000000000000000000000000000000000000000000000000000000 DUP2 MSTORE PUSH1 0x4 ADD PUSH2 0x20C SWAP1 PUSH2 0xB2C JUMP JUMPDEST PUSH1 0x40 MLOAD DUP1 SWAP2 SUB SWAP1 REVERT JUMPDEST PUSH1 0x1 PUSH1 0x2 PUSH0 DUP4 PUSH20 0xFFFFFFFFFFFFFFFFFFFFFFFFFFFFFFFFFFFFFFFF AND PUSH20 0xFFFFFFFFFFFFFFFFFFFFFFFFFFFFFFFFFFFFFFFF AND DUP2 MSTORE PUSH1 0x20 ADD SWAP1 DUP2 MSTORE PUSH1 0x20 ADD PUSH0 KECCAK256 PUSH0 PUSH2 0x100 EXP DUP2 SLOAD DUP2 PUSH1 0xFF MUL NOT AND SWAP1 DUP4 ISZERO ISZERO MUL OR SWAP1 SSTORE POP POP JUMP JUMPDEST PUSH1 0x60 PUSH0 DUP1 SLOAD SWAP1 PUSH2 0x100 EXP SWAP1 DIV PUSH20 0xFFFFFFFFFFFFFFFFFFFFFFFFFFFFFFFFFFFFFFFF AND PUSH20 0xFFFFFFFFFFFFFFFFFFFFFFFFFFFFFFFFFFFFFFFF AND PUSH4 0x12D491C9 PUSH1 0x40 MLOAD DUP2 PUSH4 0xFFFFFFFF AND PUSH1 0xE0 SHL DUP2 MSTORE PUSH1 0x4 ADD PUSH0 PUSH1 0x40 MLOAD DUP1 DUP4 SUB DUP2 DUP7 GAS STATICCALL ISZERO DUP1 ISZERO PUSH2 0x2D6 JUMPI RETURNDATASIZE PUSH0 DUP1 RETURNDATACOPY RETURNDATASIZE PUSH0 REVERT JUMPDEST POP POP POP POP PUSH1 0x40 MLOAD RETURNDATASIZE PUSH0 DUP3 RETURNDATACOPY RETURNDATASIZE PUSH1 0x1F NOT PUSH1 0x1F DUP3 ADD AND DUP3 ADD DUP1 PUSH1 0x40 MSTORE POP DUP2 ADD SWAP1 PUSH2 0x2FE SWAP2 SWAP1 PUSH2 0xC68 JUMP JUMPDEST ADDRESS PUSH20 0xFFFFFFFFFFFFFFFFFFFFFFFFFFFFFFFFFFFFFFFF AND PUSH4 0xB0A69AB4 PUSH1 0x40 MLOAD DUP2 PUSH4 0xFFFFFFFF AND PUSH1 0xE0 SHL DUP2 MSTORE PUSH1 0x4 ADD PUSH0 PUSH1 0x40 MLOAD DUP1 DUP4 SUB DUP2 DUP7 GAS STATICCALL ISZERO DUP1 ISZERO PUSH2 0x346 JUMPI RETURNDATASIZE PUSH0 DUP1 RETURNDATACOPY RETURNDATASIZE PUSH0 REVERT JUMPDEST POP POP POP POP PUSH1 0x40 MLOAD RETURNDATASIZE PUSH0 DUP3 RETURNDATACOPY RETURNDATASIZE PUSH1 0x1F NOT PUSH1 0x1F DUP3 ADD AND DUP3 ADD DUP1 PUSH1 0x40 MSTORE POP DUP2 ADD SWAP1 PUSH2 0x36E SWAP2 SWAP1 PUSH2 0xC68 JUMP JUMPDEST PUSH0 DUP1 SLOAD SWAP1 PUSH2 0x100 EXP SWAP1 DIV PUSH20 0xFFFFFFFFFFFFFFFFFFFFFFFFFFFFFFFFFFFFFFFF AND PUSH20 0xFFFFFFFFFFFFFFFFFFFFFFFFFFFFFFFFFFFFFFFF AND PUSH4 0x9EF96D1F PUSH1 0x40 MLOAD DUP2 PUSH4 0xFFFFFFFF AND PUSH1 0xE0 SHL DUP2 MSTORE PUSH1 0x4 ADD PUSH0 PUSH1 0x40 MLOAD DUP1 DUP4 SUB DUP2 DUP7 GAS STATICCALL ISZERO DUP1 ISZERO PUSH2 0x3D5 JUMPI RETURNDATASIZE PUSH0 DUP1 RETURNDATACOPY RETURNDATASIZE PUSH0 REVERT JUMPDEST POP POP POP POP PUSH1 0x40 MLOAD RETURNDATASIZE PUSH0 DUP3 RETURNDATACOPY RETURNDATASIZE PUSH1 0x1F NOT PUSH1 0x1F DUP3 ADD AND DUP3 ADD DUP1 PUSH1 0x40 MSTORE POP DUP2 ADD SWAP1 PUSH2 0x3FD SWAP2 SWAP1 PUSH2 0xC68 JUMP JUMPDEST PUSH1 0x40 MLOAD PUSH1 0x20 ADD PUSH2 0x40F SWAP4 SWAP3 SWAP2 SWAP1 PUSH2 0x29AE JUMP JUMPDEST PUSH1 0x40 MLOAD PUSH1 0x20 DUP2 DUP4 SUB SUB DUP2 MSTORE SWAP1 PUSH1 0x40 MSTORE SWAP1 POP SWAP1 JUMP JUMPDEST PUSH1 0x1 PUSH0 SWAP1 SLOAD SWAP1 PUSH2 0x100 EXP SWAP1 DIV PUSH20 0xFFFFFFFFFFFFFFFFFFFFFFFFFFFFFFFFFFFFFFFF AND PUSH20 0xFFFFFFFFFFFFFFFFFFFFFFFFFFFFFFFFFFFFFFFF AND CALLER PUSH20 0xFFFFFFFFFFFFFFFFFFFFFFFFFFFFFFFFFFFFFFFF AND EQ DUP1 PUSH2 0x4C4 JUMPI POP PUSH1 0x2 PUSH0 CALLER PUSH20 0xFFFFFFFFFFFFFFFFFFFFFFFFFFFFFFFFFFFFFFFF AND PUSH20 0xFFFFFFFFFFFFFFFFFFFFFFFFFFFFFFFFFFFFFFFF AND DUP2 MSTORE PUSH1 0x20 ADD SWAP1 DUP2 MSTORE PUSH1 0x20 ADD PUSH0 KECCAK256 PUSH0 SWAP1 SLOAD SWAP1 PUSH2 0x100 EXP SWAP1 DIV PUSH1 0xFF AND JUMPDEST PUSH2 0x503 JUMPI PUSH1 0x40 MLOAD PUSH32 0x8C379A000000000000000000000000000000000000000000000000000000000 DUP2 MSTORE PUSH1 0x4 ADD PUSH2 0x4FA SWAP1 PUSH2 0x2A5F JUMP JUMPDEST PUSH1 0x40 MLOAD DUP1 SWAP2 SUB SWAP1 REVERT JUMPDEST DUP1 PUSH0 DUP1 PUSH2 0x100 EXP DUP2 SLOAD DUP2 PUSH20 0xFFFFFFFFFFFFFFFFFFFFFFFFFFFFFFFFFFFFFFFF MUL NOT AND SWAP1 DUP4 PUSH20 0xFFFFFFFFFFFFFFFFFFFFFFFFFFFFFFFFFFFFFFFF AND MUL OR SWAP1 SSTORE POP POP JUMP JUMPDEST PUSH1 0x60 PUSH1 0x40 MLOAD DUP1 PUSH1 0x40 ADD PUSH1 0x40 MSTORE DUP1 PUSH1 0x14 DUP2 MSTORE PUSH1 0x20 ADD PUSH32 0x3C626F64793E3C2F626F64793E3C2F68746D6C3E000000000000000000000000 DUP2 MSTORE POP SWAP1 POP SWAP1 JUMP JUMPDEST PUSH1 0x1 PUSH0 SWAP1 SLOAD SWAP1 PUSH2 0x100 EXP SWAP1 DIV PUSH20 0xFFFFFFFFFFFFFFFFFFFFFFFFFFFFFFFFFFFFFFFF AND PUSH20 0xFFFFFFFFFFFFFFFFFFFFFFFFFFFFFFFFFFFFFFFF AND CALLER PUSH20 0xFFFFFFFFFFFFFFFFFFFFFFFFFFFFFFFFFFFFFFFF AND EQ PUSH2 0x611 JUMPI PUSH1 0x40 MLOAD PUSH32 0x8C379A000000000000000000000000000000000000000000000000000000000 DUP2 MSTORE PUSH1 0x4 ADD PUSH2 0x608 SWAP1 PUSH2 0xB2C JUMP JUMPDEST PUSH1 0x40 MLOAD DUP1 SWAP2 SUB SWAP1 REVERT JUMPDEST PUSH0 PUSH1 0x2 PUSH0 DUP4 PUSH20 0xFFFFFFFFFFFFFFFFFFFFFFFFFFFFFFFFFFFFFFFF AND PUSH20 0xFFFFFFFFFFFFFFFFFFFFFFFFFFFFFFFFFFFFFFFF AND DUP2 MSTORE PUSH1 0x20 ADD SWAP1 DUP2 MSTORE PUSH1 0x20 ADD PUSH0 KECCAK256 PUSH0 PUSH2 0x100 EXP DUP2 SLOAD DUP2 PUSH1 0xFF MUL NOT AND SWAP1 DUP4 ISZERO ISZERO MUL OR SWAP1 SSTORE POP POP JUMP JUMPDEST PUSH1 0x2 PUSH1 0x20 MSTORE DUP1 PUSH0 MSTORE PUSH1 0x40 PUSH0 KECCAK256 PUSH0 SWAP2 POP SLOAD SWAP1 PUSH2 0x100 EXP SWAP1 DIV PUSH1 0xFF AND DUP2 JUMP JUMPDEST PUSH1 0x1 PUSH0 SWAP1 SLOAD SWAP1 PUSH2 0x100 EXP SWAP1 DIV PUSH20 0xFFFFFFFFFFFFFFFFFFFFFFFFFFFFFFFFFFFFFFFF AND DUP2 JUMP JUMPDEST PUSH1 0x60 DUP1 PUSH0 DUP1 PUSH0 SWAP1 SLOAD SWAP1 PUSH2 0x100 EXP SWAP1 DIV PUSH20 0xFFFFFFFFFFFFFFFFFFFFFFFFFFFFFFFFFFFFFFFF AND PUSH20 0xFFFFFFFFFFFFFFFFFFFFFFFFFFFFFFFFFFFFFFFF AND PUSH4 0xD8550E1 PUSH1 0x40 MLOAD DUP2 PUSH4 0xFFFFFFFF AND PUSH1 0xE0 SHL DUP2 MSTORE PUSH1 0x4 ADD PUSH0 PUSH1 0x40 MLOAD DUP1 DUP4 SUB DUP2 DUP7 GAS STATICCALL ISZERO DUP1 ISZERO PUSH2 0x716 JUMPI RETURNDATASIZE PUSH0 DUP1 RETURNDATACOPY RETURNDATASIZE PUSH0 REVERT JUMPDEST POP POP POP POP PUSH1 0x40 MLOAD RETURNDATASIZE PUSH0 DUP3 RETURNDATACOPY RETURNDATASIZE PUSH1 0x1F NOT PUSH1 0x1F DUP3 ADD AND DUP3 ADD DUP1 PUSH1 0x40 MSTORE POP DUP2 ADD SWAP1 PUSH2 0x73E SWAP2 SWAP1 PUSH2 0xC68 JUMP JUMPDEST SWAP1 POP PUSH0 DUP1 PUSH0 SWAP1 SLOAD SWAP1 PUSH2 0x100 EXP SWAP1 DIV PUSH20 0xFFFFFFFFFFFFFFFFFFFFFFFFFFFFFFFFFFFFFFFF AND PUSH20 0xFFFFFFFFFFFFFFFFFFFFFFFFFFFFFFFFFFFFFFFF AND PUSH4 0x72176858 PUSH1 0x40 MLOAD DUP2 PUSH4 0xFFFFFFFF AND PUSH1 0xE0 SHL DUP2 MSTORE PUSH1 0x4 ADD PUSH0 PUSH1 0x40 MLOAD DUP1 DUP4 SUB DUP2 DUP7 GAS STATICCALL ISZERO DUP1 ISZERO PUSH2 0x7A9 JUMPI RETURNDATASIZE PUSH0 DUP1 RETURNDATACOPY RETURNDATASIZE PUSH0 REVERT JUMPDEST POP POP POP POP PUSH1 0x40 MLOAD RETURNDATASIZE PUSH0 DUP3 RETURNDATACOPY RETURNDATASIZE PUSH1 0x1F NOT PUSH1 0x1F DUP3 ADD AND DUP3 ADD DUP1 PUSH1 0x40 MSTORE POP DUP2 ADD SWAP1 PUSH2 0x7D1 SWAP2 SWAP1 PUSH2 0xC68 JUMP JUMPDEST SWAP1 POP PUSH0 DUP1 PUSH0 SWAP1 SLOAD SWAP1 PUSH2 0x100 EXP SWAP1 DIV PUSH20 0xFFFFFFFFFFFFFFFFFFFFFFFFFFFFFFFFFFFFFFFF AND PUSH20 0xFFFFFFFFFFFFFFFFFFFFFFFFFFFFFFFFFFFFFFFF AND PUSH4 0x927947B4 PUSH1 0x40 MLOAD DUP2 PUSH4 0xFFFFFFFF AND PUSH1 0xE0 SHL DUP2 MSTORE PUSH1 0x4 ADD PUSH1 0x20 PUSH1 0x40 MLOAD DUP1 DUP4 SUB DUP2 DUP7 GAS STATICCALL ISZERO DUP1 ISZERO PUSH2 0x83D JUMPI RETURNDATASIZE PUSH0 DUP1 RETURNDATACOPY RETURNDATASIZE PUSH0 REVERT JUMPDEST POP POP POP POP PUSH1 0x40 MLOAD RETURNDATASIZE PUSH1 0x1F NOT PUSH1 0x1F DUP3 ADD AND DUP3 ADD DUP1 PUSH1 0x40 MSTORE POP DUP2 ADD SWAP1 PUSH2 0x861 SWAP2 SWAP1 PUSH2 0x2AB0 JUMP JUMPDEST SWAP1 POP PUSH0 JUMPDEST DUP2 DUP2 LT ISZERO PUSH2 0x956 JUMPI PUSH0 DUP1 PUSH0 SWAP1 SLOAD SWAP1 PUSH2 0x100 EXP SWAP1 DIV PUSH20 0xFFFFFFFFFFFFFFFFFFFFFFFFFFFFFFFFFFFFFFFF AND PUSH20 0xFFFFFFFFFFFFFFFFFFFFFFFFFFFFFFFFFFFFFFFF AND PUSH4 0xBAE78D7B DUP4 PUSH1 0x40 MLOAD DUP3 PUSH4 0xFFFFFFFF AND PUSH1 0xE0 SHL DUP2 MSTORE PUSH1 0x4 ADD PUSH2 0x8C7 SWAP2 SWAP1 PUSH2 0x2AEA JUMP JUMPDEST PUSH0 PUSH1 0x40 MLOAD DUP1 DUP4 SUB DUP2 DUP7 GAS STATICCALL ISZERO DUP1 ISZERO PUSH2 0x8E1 JUMPI RETURNDATASIZE PUSH0 DUP1 RETURNDATACOPY RETURNDATASIZE PUSH0 REVERT JUMPDEST POP POP POP POP PUSH1 0x40 MLOAD RETURNDATASIZE PUSH0 DUP3 RETURNDATACOPY RETURNDATASIZE PUSH1 0x1F NOT PUSH1 0x1F DUP3 ADD AND DUP3 ADD DUP1 PUSH1 0x40 MSTORE POP DUP2 ADD SWAP1 PUSH2 0x909 SWAP2 SWAP1 PUSH2 0x2C20 JUMP JUMPDEST SWAP1 POP DUP6 DUP6 DUP6 DUP4 PUSH0 ADD MLOAD DUP5 PUSH1 0x80 ADD MLOAD DUP6 PUSH1 0x20 ADD MLOAD DUP7 PUSH1 0x60 ADD MLOAD PUSH1 0x40 MLOAD PUSH1 0x20 ADD PUSH2 0x937 SWAP8 SWAP7 SWAP6 SWAP5 SWAP4 SWAP3 SWAP2 SWAP1 PUSH2 0x3525 JUMP JUMPDEST PUSH1 0x40 MLOAD PUSH1 0x20 DUP2 DUP4 SUB SUB DUP2 MSTORE SWAP1 PUSH1 0x40 MSTORE SWAP6 POP POP DUP1 DUP1 PUSH1 0x1 ADD SWAP2 POP POP PUSH2 0x865 JUMP JUMPDEST POP DUP4 SWAP5 POP POP POP POP POP SWAP1 JUMP JUMPDEST PUSH0 PUSH1 0x40 MLOAD SWAP1 POP SWAP1 JUMP JUMPDEST PUSH0 DUP1 REVERT JUMPDEST PUSH0 DUP1 REVERT JUMPDEST PUSH0 PUSH20 0xFFFFFFFFFFFFFFFFFFFFFFFFFFFFFFFFFFFFFFFF DUP3 AND SWAP1 POP SWAP2 SWAP1 POP JUMP JUMPDEST PUSH0 PUSH2 0x99B DUP3 PUSH2 0x972 JUMP JUMPDEST SWAP1 POP SWAP2 SWAP1 POP JUMP JUMPDEST PUSH2 0x9AB DUP2 PUSH2 0x991 JUMP JUMPDEST DUP2 EQ PUSH2 0x9B5 JUMPI PUSH0 DUP1 REVERT JUMPDEST POP JUMP JUMPDEST PUSH0 DUP2 CALLDATALOAD SWAP1 POP PUSH2 0x9C6 DUP2 PUSH2 0x9A2 JUMP JUMPDEST SWAP3 SWAP2 POP POP JUMP JUMPDEST PUSH0 PUSH1 0x20 DUP3 DUP5 SUB SLT ISZERO PUSH2 0x9E1 JUMPI PUSH2 0x9E0 PUSH2 0x96A JUMP JUMPDEST JUMPDEST PUSH0 PUSH2 0x9EE DUP5 DUP3 DUP6 ADD PUSH2 0x9B8 JUMP JUMPDEST SWAP2 POP POP SWAP3 SWAP2 POP POP JUMP JUMPDEST PUSH0 DUP2 MLOAD SWAP1 POP SWAP2 SWAP1 POP JUMP JUMPDEST PUSH0 DUP3 DUP3 MSTORE PUSH1 0x20 DUP3 ADD SWAP1 POP SWAP3 SWAP2 POP POP JUMP JUMPDEST DUP3 DUP2 DUP4 MCOPY PUSH0 DUP4 DUP4 ADD MSTORE POP POP POP JUMP JUMPDEST PUSH0 PUSH1 0x1F NOT PUSH1 0x1F DUP4 ADD AND SWAP1 POP SWAP2 SWAP1 POP JUMP JUMPDEST PUSH0 PUSH2 0xA39 DUP3 PUSH2 0x9F7 JUMP JUMPDEST PUSH2 0xA43 DUP2 DUP6 PUSH2 0xA01 JUMP JUMPDEST SWAP4 POP PUSH2 0xA53 DUP2 DUP6 PUSH1 0x20 DUP7 ADD PUSH2 0xA11 JUMP JUMPDEST PUSH2 0xA5C DUP2 PUSH2 0xA1F JUMP JUMPDEST DUP5 ADD SWAP2 POP POP SWAP3 SWAP2 POP POP JUMP JUMPDEST PUSH0 PUSH1 0x20 DUP3 ADD SWAP1 POP DUP2 DUP2 SUB PUSH0 DUP4 ADD MSTORE PUSH2 0xA7F DUP2 DUP5 PUSH2 0xA2F JUMP JUMPDEST SWAP1 POP SWAP3 SWAP2 POP POP JUMP JUMPDEST PUSH0 DUP2 ISZERO ISZERO SWAP1 POP SWAP2 SWAP1 POP JUMP JUMPDEST PUSH2 0xA9B DUP2 PUSH2 0xA87 JUMP JUMPDEST DUP3 MSTORE POP POP JUMP JUMPDEST PUSH0 PUSH1 0x20 DUP3 ADD SWAP1 POP PUSH2 0xAB4 PUSH0 DUP4 ADD DUP5 PUSH2 0xA92 JUMP JUMPDEST SWAP3 SWAP2 POP POP JUMP JUMPDEST PUSH2 0xAC3 DUP2 PUSH2 0x991 JUMP JUMPDEST DUP3 MSTORE POP POP JUMP JUMPDEST PUSH0 PUSH1 0x20 DUP3 ADD SWAP1 POP PUSH2 0xADC PUSH0 DUP4 ADD DUP5 PUSH2 0xABA JUMP JUMPDEST SWAP3 SWAP2 POP POP JUMP JUMPDEST PUSH32 0x4E6F7420746865206F776E657200000000000000000000000000000000000000 PUSH0 DUP3 ADD MSTORE POP JUMP JUMPDEST PUSH0 PUSH2 0xB16 PUSH1 0xD DUP4 PUSH2 0xA01 JUMP JUMPDEST SWAP2 POP PUSH2 0xB21 DUP3 PUSH2 0xAE2 JUMP JUMPDEST PUSH1 0x20 DUP3 ADD SWAP1 POP SWAP2 SWAP1 POP JUMP JUMPDEST PUSH0 PUSH1 0x20 DUP3 ADD SWAP1 POP DUP2 DUP2 SUB PUSH0 DUP4 ADD MSTORE PUSH2 0xB43 DUP2 PUSH2 0xB0A JUMP JUMPDEST SWAP1 POP SWAP2 SWAP1 POP JUMP JUMPDEST PUSH0 DUP1 REVERT JUMPDEST PUSH0 DUP1 REVERT JUMPDEST PUSH32 0x4E487B7100000000000000000000000000000000000000000000000000000000 PUSH0 MSTORE PUSH1 0x41 PUSH1 0x4 MSTORE PUSH1 0x24 PUSH0 REVERT JUMPDEST PUSH2 0xB88 DUP3 PUSH2 0xA1F JUMP JUMPDEST DUP2 ADD DUP2 DUP2 LT PUSH8 0xFFFFFFFFFFFFFFFF DUP3 GT OR ISZERO PUSH2 0xBA7 JUMPI PUSH2 0xBA6 PUSH2 0xB52 JUMP JUMPDEST JUMPDEST DUP1 PUSH1 0x40 MSTORE POP POP POP JUMP JUMPDEST PUSH0 PUSH2 0xBB9 PUSH2 0x961 JUMP JUMPDEST SWAP1 POP PUSH2 0xBC5 DUP3 DUP3 PUSH2 0xB7F JUMP JUMPDEST SWAP2 SWAP1 POP JUMP JUMPDEST PUSH0 PUSH8 0xFFFFFFFFFFFFFFFF DUP3 GT ISZERO PUSH2 0xBE4 JUMPI PUSH2 0xBE3 PUSH2 0xB52 JUMP JUMPDEST JUMPDEST PUSH2 0xBED DUP3 PUSH2 0xA1F JUMP JUMPDEST SWAP1 POP PUSH1 0x20 DUP2 ADD SWAP1 POP SWAP2 SWAP1 POP JUMP JUMPDEST PUSH0 PUSH2 0xC0C PUSH2 0xC07 DUP5 PUSH2 0xBCA JUMP JUMPDEST PUSH2 0xBB0 JUMP JUMPDEST SWAP1 POP DUP3 DUP2 MSTORE PUSH1 0x20 DUP2 ADD DUP5 DUP5 DUP5 ADD GT ISZERO PUSH2 0xC28 JUMPI PUSH2 0xC27 PUSH2 0xB4E JUMP JUMPDEST JUMPDEST PUSH2 0xC33 DUP5 DUP3 DUP6 PUSH2 0xA11 JUMP JUMPDEST POP SWAP4 SWAP3 POP POP POP JUMP JUMPDEST PUSH0 DUP3 PUSH1 0x1F DUP4 ADD SLT PUSH2 0xC4F JUMPI PUSH2 0xC4E PUSH2 0xB4A JUMP JUMPDEST JUMPDEST DUP2 MLOAD PUSH2 0xC5F DUP5 DUP3 PUSH1 0x20 DUP7 ADD PUSH2 0xBFA JUMP JUMPDEST SWAP2 POP POP SWAP3 SWAP2 POP POP JUMP JUMPDEST PUSH0 PUSH1 0x20 DUP3 DUP5 SUB SLT ISZERO PUSH2 0xC7D JUMPI PUSH2 0xC7C PUSH2 0x96A JUMP JUMPDEST JUMPDEST PUSH0 DUP3 ADD MLOAD PUSH8 0xFFFFFFFFFFFFFFFF DUP2 GT ISZERO PUSH2 0xC9A JUMPI PUSH2 0xC99 PUSH2 0x96E JUMP JUMPDEST JUMPDEST PUSH2 0xCA6 DUP5 DUP3 DUP6 ADD PUSH2 0xC3B JUMP JUMPDEST SWAP2 POP POP SWAP3 SWAP2 POP POP JUMP JUMPDEST PUSH0 DUP2 SWAP1 POP SWAP3 SWAP2 POP POP JUMP JUMPDEST PUSH32 0x3C21646F637479706568746D6C3E3C68746D6C206C616E673D656E3E3C6D6574 PUSH0 DUP3 ADD MSTORE PUSH32 0x6120636F6E74656E743D27746578742F68746D6C3B20636861727365743D5554 PUSH1 0x20 DUP3 ADD MSTORE PUSH32 0x462D3827687474702D65717569763D436F6E74656E742D547970653E3C6D6574 PUSH1 0x40 DUP3 ADD MSTORE PUSH32 0x6120636F6E74656E743D2777696474683D6465766963652D77696474682C696E PUSH1 0x60 DUP3 ADD MSTORE PUSH32 0x697469616C2D7363616C653D31276E616D653D76696577706F72743E3C6D6574 PUSH1 0x80 DUP3 ADD MSTORE PUSH32 0x6120636F6E74656E743D2769653D6564676527687474702D65717569763D582D PUSH1 0xA0 DUP3 ADD MSTORE PUSH32 0x55412D436F6D70617469626C653E3C6D65746120646576656C6F7065723D2741 PUSH1 0xC0 DUP3 ADD MSTORE PUSH32 0x6E64726577204D69746368656C6C273E3C6D657461206172746973743D546A6F PUSH1 0xE0 DUP3 ADD MSTORE PUSH32 0x3E3C7469746C653E50726F7A616320596F7574683C2F7469746C653E00000000 PUSH2 0x100 DUP3 ADD MSTORE POP JUMP JUMPDEST PUSH0 PUSH2 0xE1F PUSH2 0x11C DUP4 PUSH2 0xCAF JUMP JUMPDEST SWAP2 POP PUSH2 0xE2A DUP3 PUSH2 0xCB9 JUMP JUMPDEST PUSH2 0x11C DUP3 ADD SWAP1 POP SWAP2 SWAP1 POP JUMP JUMPDEST PUSH32 0x3C7374796C653E626F64797B666F6E742D66616D696C793A48656C7665746963 PUSH0 DUP3 ADD MSTORE PUSH32 0x612C73616E732D73657269663B666F6E742D73697A653A313070743B6D617267 PUSH1 0x20 DUP3 ADD MSTORE PUSH32 0x696E3A303B70616464696E673A3570787D2E616E64726577732D636F6E746169 PUSH1 0x40 DUP3 ADD MSTORE PUSH32 0x6E65727B6D617267696E3A6175746F3B77696474683A313030257D406D656469 PUSH1 0x60 DUP3 ADD MSTORE PUSH32 0x61206F6E6C792073637265656E20616E6420286D61782D77696474683A363030 PUSH1 0x80 DUP3 ADD MSTORE PUSH32 0x7078297B2E616E64726577732D636F6E7461696E65727B77696474683A313030 PUSH1 0xA0 DUP3 ADD MSTORE PUSH32 0x257D7D2E7461626C657B6D617267696E3A32307078206175746F3B7769647468 PUSH1 0xC0 DUP3 ADD MSTORE PUSH32 0x3A313030253B626F726465722D636F6C6C617073653A636F6C6C617073657D40 PUSH1 0xE0 DUP3 ADD MSTORE PUSH32 0x6D65646961206F6E6C792073637265656E20616E6420286D61782D7769647468 PUSH2 0x100 DUP3 ADD MSTORE PUSH32 0x3A3630307078297B2E7461626C657B77696474683A313030257D7D2E66616465 PUSH2 0x120 DUP3 ADD MSTORE PUSH32 0x2D696E7B6F7061636974793A313B616E696D6174696F6E2D6E616D653A666164 PUSH2 0x140 DUP3 ADD MSTORE PUSH32 0x65496E4F7061636974793B616E696D6174696F6E2D697465726174696F6E2D63 PUSH2 0x160 DUP3 ADD MSTORE PUSH32 0x6F756E743A313B616E696D6174696F6E2D74696D696E672D66756E6374696F6E PUSH2 0x180 DUP3 ADD MSTORE PUSH32 0x3A656173652D696E3B616E696D6174696F6E2D6475726174696F6E3A32737D40 PUSH2 0x1A0 DUP3 ADD MSTORE PUSH32 0x6B65796672616D65732066616465496E4F7061636974797B30257B6F70616369 PUSH2 0x1C0 DUP3 ADD MSTORE PUSH32 0x74793A307D313030257B6F7061636974793A317D7D236C6F6164696E672D7465 PUSH2 0x1E0 DUP3 ADD MSTORE PUSH32 0x78747B666F6E742D73697A653A313070743B746578742D616C69676E3A726967 PUSH2 0x200 DUP3 ADD MSTORE PUSH32 0x68747D236C6F6164696E677B77696474683A313030257D2E6865616465722D74 PUSH2 0x220 DUP3 ADD MSTORE PUSH32 0x69746C657B666F6E742D73697A653A313670743B666F6E742D7765696768743A PUSH2 0x240 DUP3 ADD MSTORE PUSH32 0x3730303B746578742D616C69676E3A63656E7465723B6261636B67726F756E64 PUSH2 0x260 DUP3 ADD MSTORE PUSH32 0x2D636F6C6F723A233238343033653B70616464696E673A3130707820303B626F PUSH2 0x280 DUP3 ADD MSTORE PUSH32 0x726465722D7261646975733A3570787D2E62726561646372756D62737B666F6E PUSH2 0x2A0 DUP3 ADD MSTORE PUSH32 0x742D73697A653A3970743B636F6C6F723A233737373B6D617267696E2D626F74 PUSH2 0x2C0 DUP3 ADD MSTORE PUSH32 0x746F6D3A313070787D236D6F64652D7377697463687B637572736F723A706F69 PUSH2 0x2E0 DUP3 ADD MSTORE PUSH32 0x6E7465723B706F736974696F6E3A66697865643B626F74746F6D3A313070783B PUSH2 0x300 DUP3 ADD MSTORE PUSH32 0x72696768743A313070787D2E666F72756D2D72756C65737B626F726465722D72 PUSH2 0x320 DUP3 ADD MSTORE PUSH32 0x61646975733A3570783B70616464696E673A313070783B666F6E742D73697A65 PUSH2 0x340 DUP3 ADD MSTORE PUSH32 0x3A3970743B6D617267696E2D626F74746F6D3A323070787D2E7461626C652D68 PUSH2 0x360 DUP3 ADD MSTORE PUSH32 0x65616465722C2E7461626C652D726F777B70616464696E673A3870787D2E7461 PUSH2 0x380 DUP3 ADD MSTORE PUSH32 0x626C652D6865616465727B6261636B67726F756E642D636F6C6F723A23323834 PUSH2 0x3A0 DUP3 ADD MSTORE PUSH32 0x3033653B666F6E742D7765696768743A3730307D2E7461626C653E2E6C696768 PUSH2 0x3C0 DUP3 ADD MSTORE PUSH32 0x742D62673A6E74682D6368696C64286576656E297B6261636B67726F756E642D PUSH2 0x3E0 DUP3 ADD MSTORE PUSH32 0x636F6C6F723A7267626128302C302C302C302921696D706F7274616E747D2E6C PUSH2 0x400 DUP3 ADD MSTORE PUSH32 0x696768742D62677B6261636B67726F756E642D636F6C6F723A7267626128302C PUSH2 0x420 DUP3 ADD MSTORE PUSH32 0x302C302C302921696D706F7274616E747D2E6C696768742D6C696E6B7B636F6C PUSH2 0x440 DUP3 ADD MSTORE PUSH32 0x6F723A2361333134313421696D706F7274616E747D2E6C696768742D626F7264 PUSH2 0x460 DUP3 ADD MSTORE PUSH32 0x65727B626F726465723A31707820736F6C6964202332383430336521696D706F PUSH2 0x480 DUP3 ADD MSTORE PUSH32 0x7274616E747D2E6C696768742D626F726465722D327B626F726465723A317078 PUSH2 0x4A0 DUP3 ADD MSTORE PUSH32 0x20736F6C6964202336323738373621696D706F7274616E747D2E6C696768742D PUSH2 0x4C0 DUP3 ADD MSTORE PUSH32 0x62672D327B6261636B67726F756E642D636F6C6F723A2363346330626421696D PUSH2 0x4E0 DUP3 ADD MSTORE PUSH32 0x706F7274616E747D2E6C696768742D746578747B636F6C6F723A236661666166 PUSH2 0x500 DUP3 ADD MSTORE PUSH32 0x6121696D706F7274616E747D2E6C696768742D746578742D327B636F6C6F723A PUSH2 0x520 DUP3 ADD MSTORE PUSH32 0x2330613061306621696D706F7274616E747D2E6572726F722D746578747B636F PUSH2 0x540 DUP3 ADD MSTORE PUSH32 0x6C6F723A236630337D2E6461726B2D6C696E6B7B636F6C6F723A236134636263 PUSH2 0x560 DUP3 ADD MSTORE PUSH32 0x3421696D706F7274616E747D2E6461726B2D746578742D327B636F6C6F723A23 PUSH2 0x580 DUP3 ADD MSTORE PUSH32 0x63646364636421696D706F7274616E747D2E6C696768742D746578742D337B63 PUSH2 0x5A0 DUP3 ADD MSTORE PUSH32 0x6F6C6F723A2330643064313421696D706F7274616E747D2E6461726B2D746578 PUSH2 0x5C0 DUP3 ADD MSTORE PUSH32 0x742D337B636F6C6F723A2363646364636421696D706F7274616E747D2E6C6967 PUSH2 0x5E0 DUP3 ADD MSTORE PUSH32 0x68742D746578742D347B636F6C6F723A2330643064313421696D706F7274616E PUSH2 0x600 DUP3 ADD MSTORE PUSH32 0x747D2E6461726B2D746578742D347B636F6C6F723A2363646364636421696D70 PUSH2 0x620 DUP3 ADD MSTORE PUSH32 0x6F7274616E747D2E7461626C653E2E6461726B2D62673A6E74682D6368696C64 PUSH2 0x640 DUP3 ADD MSTORE PUSH32 0x286576656E297B6261636B67726F756E642D636F6C6F723A7267626128302C30 PUSH2 0x660 DUP3 ADD MSTORE PUSH32 0x2C302C302921696D706F7274616E747D2E6461726B2D62677B6261636B67726F PUSH2 0x680 DUP3 ADD MSTORE PUSH32 0x756E642D636F6C6F723A7267626128302C302C302C302921696D706F7274616E PUSH2 0x6A0 DUP3 ADD MSTORE PUSH32 0x747D2E6461726B2D626F726465727B626F726465723A31707820736F6C696420 PUSH2 0x6C0 DUP3 ADD MSTORE PUSH32 0x2335353521696D706F7274616E747D2E6461726B2D626F726465722D327B626F PUSH2 0x6E0 DUP3 ADD MSTORE PUSH32 0x726465723A31707820736F6C6964202333333321696D706F7274616E747D2E64 PUSH2 0x700 DUP3 ADD MSTORE PUSH32 0x61726B2D62672D327B6261636B67726F756E642D636F6C6F723A233434342169 PUSH2 0x720 DUP3 ADD MSTORE PUSH32 0x6D706F7274616E747D2E6461726B2D746578747B636F6C6F723A236338633863 PUSH2 0x740 DUP3 ADD MSTORE PUSH32 0x3821696D706F7274616E747D2E706F73742D777261707065727B646973706C61 PUSH2 0x760 DUP3 ADD MSTORE PUSH32 0x793A6E6F6E657D2E736D616C6C2D746578747B666F6E742D73697A653A387074 PUSH2 0x780 DUP3 ADD MSTORE PUSH32 0x3B636F6C6F723A233535357D2E63757272656E742D74696D657B666F6E742D73 PUSH2 0x7A0 DUP3 ADD MSTORE PUSH32 0x697A653A3870743B636F6C6F723A233737373B766572746963616C2D616C6967 PUSH2 0x7C0 DUP3 ADD MSTORE PUSH32 0x6E3A73757065723B6D617267696E2D72696768743A3270787D237461626C652D PUSH2 0x7E0 DUP3 ADD MSTORE PUSH32 0x626F64797B7461626C652D6C61796F75743A66697865647D2E74696D652D7772 PUSH2 0x800 DUP3 ADD MSTORE PUSH32 0x61707065727B646973706C61793A696E6C696E657D2E6C6F6164696E672D6365 PUSH2 0x820 DUP3 ADD MSTORE PUSH32 0x6C6C7B646973706C61793A666C65783B626F726465723A303B746578742D616C PUSH2 0x840 DUP3 ADD MSTORE PUSH32 0x69676E3A72696768747D2E706F73742D696E666F7B646973706C61793A666C65 PUSH2 0x860 DUP3 ADD MSTORE PUSH32 0x783B6A7573746966792D636F6E74656E743A73706163652D6265747765656E3B PUSH2 0x880 DUP3 ADD MSTORE PUSH32 0x616C69676E2D6974656D733A63656E7465727D2E706F73742D696E666F207370 PUSH2 0x8A0 DUP3 ADD MSTORE PUSH32 0x616E7B666F6E742D73697A653A313070743B636F6C6F723A233238343033653B PUSH2 0x8C0 DUP3 ADD MSTORE PUSH32 0x666F6E742D7765696768743A3730307D2E706F73742D6D6573736167657B666F PUSH2 0x8E0 DUP3 ADD MSTORE PUSH32 0x6E742D73697A653A313070743B6C696E652D6865696768743A312E357D2E666F PUSH2 0x900 DUP3 ADD MSTORE PUSH32 0x6F7465727B6D617267696E2D746F703A323070783B746578742D616C69676E3A PUSH2 0x920 DUP3 ADD MSTORE PUSH32 0x63656E7465723B666F6E742D73697A653A3970743B636F6C6F723A233737377D PUSH2 0x940 DUP3 ADD MSTORE PUSH32 0x2370617065722D6261636B67726F756E647B706F736974696F6E3A6162736F6C PUSH2 0x960 DUP3 ADD MSTORE PUSH32 0x7574653B6261636B67726F756E642D73697A653A636F7665723B7A2D696E6465 PUSH2 0x980 DUP3 ADD MSTORE PUSH32 0x783A2D313030303B746F703A303B6C6566743A303B77696474683A313030253B PUSH2 0x9A0 DUP3 ADD MSTORE PUSH32 0x6865696768743A313030257D3C2F7374796C653E3C626F647920636C6173733D PUSH2 0x9C0 DUP3 ADD MSTORE PUSH32 0x276C696768742D746578742D32206C696768742D6267273E3C64697620636C61 PUSH2 0x9E0 DUP3 ADD MSTORE PUSH32 0x73733D27666164652D696E20706F73742D777261707065722769643D706F7374 PUSH2 0xA00 DUP3 ADD MSTORE PUSH32 0x2D777261707065723E3C64697620636C6173733D6261736536342069643D7061 PUSH2 0xA20 DUP3 ADD MSTORE PUSH32 0x7065722D6261636B67726F756E643E3C2F6469763E3C64697620636C6173733D PUSH2 0xA40 DUP3 ADD MSTORE PUSH32 0x276C696768742D746578742D3220616E64726577732D636F6E7461696E657227 PUSH2 0xA60 DUP3 ADD MSTORE PUSH32 0x3E3C64697620636C6173733D62726561646372756D62733E50726F7A61632059 PUSH2 0xA80 DUP3 ADD MSTORE PUSH32 0x6F757468203E20466F72756D73203E20544A4F203E20446561722048756D616E PUSH2 0xAA0 DUP3 ADD MSTORE PUSH32 0x3C2F6469763E3C64697620636C6173733D706F73742D696E666F3E3C7370616E PUSH2 0xAC0 DUP3 ADD MSTORE PUSH32 0x20636C6173733D6C696768742D746578742D323E546F74616C20506F7374733A PUSH2 0xAE0 DUP3 ADD MSTORE PUSH32 0x203C622069643D746F74616C2D706F7374733E00000000000000000000000000 PUSH2 0xB00 DUP3 ADD MSTORE POP JUMP JUMPDEST PUSH0 PUSH2 0x1BCC PUSH2 0xB13 DUP4 PUSH2 0xCAF JUMP JUMPDEST SWAP2 POP PUSH2 0x1BD7 DUP3 PUSH2 0xE36 JUMP JUMPDEST PUSH2 0xB13 DUP3 ADD SWAP1 POP SWAP2 SWAP1 POP JUMP JUMPDEST PUSH0 PUSH2 0x1BED DUP3 PUSH2 0x9F7 JUMP JUMPDEST PUSH2 0x1BF7 DUP2 DUP6 PUSH2 0xCAF JUMP JUMPDEST SWAP4 POP PUSH2 0x1C07 DUP2 DUP6 PUSH1 0x20 DUP7 ADD PUSH2 0xA11 JUMP JUMPDEST DUP1 DUP5 ADD SWAP2 POP POP SWAP3 SWAP2 POP POP JUMP JUMPDEST PUSH32 0x3C2F623E3C2F7370616E3E3C7370616E20636C6173733D2763757272656E742D PUSH0 DUP3 ADD MSTORE PUSH32 0x74696D65206C696768742D746578742D32273E3C2F7370616E3E3C2F6469763E PUSH1 0x20 DUP3 ADD MSTORE PUSH32 0x3C7461626C6520636C6173733D7461626C65207374796C653D7461626C652D6C PUSH1 0x40 DUP3 ADD MSTORE PUSH32 0x61796F75743A66697865643E3C74686561643E3C747220636C6173733D276C69 PUSH1 0x60 DUP3 ADD MSTORE PUSH32 0x6768742D626F72646572206C696768742D74657874207461626C652D68656164 PUSH1 0x80 DUP3 ADD MSTORE PUSH32 0x6572273E3C746820636F6C7370616E3D313E417574686F723C746820636F6C73 PUSH1 0xA0 DUP3 ADD MSTORE PUSH32 0x70616E3D333E5468726561643C74626F64792069643D7461626C652D626F6479 PUSH1 0xC0 DUP3 ADD MSTORE PUSH32 0x3E3C747220636C6173733D276C696768742D626F72646572206C696768742D62 PUSH1 0xE0 DUP3 ADD MSTORE PUSH32 0x67207461626C652D726F77273E3C746420636F6C7370616E3D313E3C74642063 PUSH2 0x100 DUP3 ADD MSTORE PUSH32 0x6F6C7370616E3D333E0000000000000000000000000000000000000000000000 PUSH2 0x120 DUP3 ADD MSTORE POP JUMP JUMPDEST PUSH0 PUSH2 0x1DA0 PUSH2 0x129 DUP4 PUSH2 0xCAF JUMP JUMPDEST SWAP2 POP PUSH2 0x1DAB DUP3 PUSH2 0x1C13 JUMP JUMPDEST PUSH2 0x129 DUP3 ADD SWAP1 POP SWAP2 SWAP1 POP JUMP JUMPDEST PUSH32 0x3C2F74626F64793E3C2F7461626C653E3C7370616E2069643D6D6F64652D7377 PUSH0 DUP3 ADD MSTORE PUSH32 0x69746368206F6E636C69636B3D746F67676C654D6F646528293E3C7376672066 PUSH1 0x20 DUP3 ADD MSTORE PUSH32 0x696C6C3D23303030303030206865696768743D313570782069643D436170615F PUSH1 0x40 DUP3 ADD MSTORE PUSH32 0x312076657273696F6E3D312E312076696577426F783D27302030203230372E36 PUSH1 0x60 DUP3 ADD MSTORE PUSH32 0x3238203230372E3632382777696474683D3135707820786D6C3A73706163653D PUSH1 0x80 DUP3 ADD MSTORE PUSH32 0x707265736572766520786D6C6E733D687474703A2F2F7777772E77332E6F7267 PUSH1 0xA0 DUP3 ADD MSTORE PUSH32 0x2F323030302F73766720786D6C6E733A786C696E6B3D687474703A2F2F777777 PUSH1 0xC0 DUP3 ADD MSTORE PUSH32 0x2E77332E6F72672F313939392F786C696E6B3E3C636972636C652063783D3130 PUSH1 0xE0 DUP3 ADD MSTORE PUSH32 0x332E3831342063793D3130332E38313420723D34352E383638202F3E3C706174 PUSH2 0x100 DUP3 ADD MSTORE PUSH32 0x6820643D274D3130332E3831342C3135372E313833632D32392E3432372C302D PUSH2 0x120 DUP3 ADD MSTORE PUSH32 0x35332E3336382D32332E3934312D35332E3336382D35332E3336387332332E39 PUSH2 0x140 DUP3 ADD MSTORE PUSH32 0x34312D35332E3336382C35332E3336382D35332E3336387335332E3336382C32 PUSH2 0x160 DUP3 ADD MSTORE PUSH32 0x332E3934312C35332E3336382C35332E3336382020533133332E3234312C3135 PUSH2 0x180 DUP3 ADD MSTORE PUSH32 0x372E3138332C3130332E3831342C3135372E3138337A204D3130332E3831342C PUSH2 0x1A0 DUP3 ADD MSTORE PUSH32 0x36352E343436632D32312E3135362C302D33382E3336382C31372E3231322D33 PUSH2 0x1C0 DUP3 ADD MSTORE PUSH32 0x382E3336382C33382E3336387331372E3231322C33382E3336382C33382E3336 PUSH2 0x1E0 DUP3 ADD MSTORE PUSH32 0x382C33382E33363820207333382E3336382D31372E3231322C33382E3336382D PUSH2 0x200 DUP3 ADD MSTORE PUSH32 0x33382E333638533132342E39372C36352E3434362C3130332E3831342C36352E PUSH2 0x220 DUP3 ADD MSTORE PUSH32 0x3434367A272F3E3C7061746820643D274D3130332E3831342C33392E33383563 PUSH2 0x240 DUP3 ADD MSTORE PUSH32 0x2D342E3134322C302D372E352D332E3335382D372E352D372E3556372E356330 PUSH2 0x260 DUP3 ADD MSTORE PUSH32 0x2D342E3134322C332E3335382D372E352C372E352D372E3573372E352C332E33 PUSH2 0x280 DUP3 ADD MSTORE PUSH32 0x35382C372E352C372E357632342E3338352020433131312E3331342C33362E30 PUSH2 0x2A0 DUP3 ADD MSTORE PUSH32 0x32372C3130372E3935362C33392E3338352C3130332E3831342C33392E333835 PUSH2 0x2C0 DUP3 ADD MSTORE PUSH32 0x7A272F3E3C7061746820643D274D3130332E3831342C3230372E363238632D34 PUSH2 0x2E0 DUP3 ADD MSTORE PUSH32 0x2E3134322C302D372E352D332E3335382D372E352D372E35762D32342E333835 PUSH2 0x300 DUP3 ADD MSTORE PUSH32 0x63302D342E3134322C332E3335382D372E352C372E352D372E3573372E352C33 PUSH2 0x320 DUP3 ADD MSTORE PUSH32 0x2E3335382C372E352C372E357632342E3338352020433131312E3331342C3230 PUSH2 0x340 DUP3 ADD MSTORE PUSH32 0x342E3237312C3130372E3935362C3230372E3632382C3130332E3831342C3230 PUSH2 0x360 DUP3 ADD MSTORE PUSH32 0x372E3632387A272F3E3C7061746820643D274D3230302E3132382C3131312E33 PUSH2 0x380 DUP3 ADD MSTORE PUSH32 0x3134682D32342E333835632D342E3134322C302D372E352D332E3335382D372E PUSH2 0x3A0 DUP3 ADD MSTORE PUSH32 0x352D372E3573332E3335382D372E352C372E352D372E356832342E3338356334 PUSH2 0x3C0 DUP3 ADD MSTORE PUSH32 0x2E3134322C302C372E352C332E3335382C372E352C372E352020533230342E32 PUSH2 0x3E0 DUP3 ADD MSTORE PUSH32 0x37312C3131312E3331342C3230302E3132382C3131312E3331347A272F3E3C70 PUSH2 0x400 DUP3 ADD MSTORE PUSH32 0x61746820643D274D33312E3838352C3131312E33313448372E35632D342E3134 PUSH2 0x420 DUP3 ADD MSTORE PUSH32 0x322C302D372E352D332E3335382D372E352D372E3573332E3335382D372E352C PUSH2 0x440 DUP3 ADD MSTORE PUSH32 0x372E352D372E356832342E33383563342E3134322C302C372E352C332E333538 PUSH2 0x460 DUP3 ADD MSTORE PUSH32 0x2C372E352C372E3520205333362E3032372C3131312E3331342C33312E383835 PUSH2 0x480 DUP3 ADD MSTORE PUSH32 0x2C3131312E3331347A272F3E3C7061746820643D274D3135342E3637362C3630 PUSH2 0x4A0 DUP3 ADD MSTORE PUSH32 0x2E343532632D312E3931392C302D332E3833392D302E3733322D352E3330332D PUSH2 0x4C0 DUP3 ADD MSTORE PUSH32 0x322E313937632D322E3932392D322E3932392D322E3932392D372E3637382C30 PUSH2 0x4E0 DUP3 ADD MSTORE PUSH32 0x2D31302E3630366C31372E3234332D31372E323432202063322E3932392D322E PUSH2 0x500 DUP3 ADD MSTORE PUSH32 0x3932392C372E3637382D322E39332C31302E3630362C3063322E3932392C322E PUSH2 0x520 DUP3 ADD MSTORE PUSH32 0x3932392C322E3932392C372E3637382C302C31302E3630366C2D31372E323433 PUSH2 0x540 DUP3 ADD MSTORE PUSH32 0x2C31372E323432433135382E3531352C35392E37322C3135362E3539352C3630 PUSH2 0x560 DUP3 ADD MSTORE PUSH32 0x2E3435322C3135342E3637362C36302E3435327A272F3E3C7061746820643D27 PUSH2 0x580 DUP3 ADD MSTORE PUSH32 0x4D33352E3730392C3137392E343139632D312E3931392C302D332E3833392D30 PUSH2 0x5A0 DUP3 ADD MSTORE PUSH32 0x2E3733322D352E3330332D322E313937632D322E3932392D322E3932392D322E PUSH2 0x5C0 DUP3 ADD MSTORE PUSH32 0x3932392D372E3637382C302D31302E3630366C31372E3234332D31372E323433 PUSH2 0x5E0 DUP3 ADD MSTORE PUSH32 0x202063322E3932392D322E3932392C372E3637382D322E3932392C31302E3630 PUSH2 0x600 DUP3 ADD MSTORE PUSH32 0x362C3063322E3932392C322E3932392C322E3932392C372E3637382C302C3130 PUSH2 0x620 DUP3 ADD MSTORE PUSH32 0x2E3630366C2D31372E3234332C31372E3234334333392E3534382C3137382E36 PUSH2 0x640 DUP3 ADD MSTORE PUSH32 0x38372C33372E3632392C3137392E3431392C33352E3730392C3137392E343139 PUSH2 0x660 DUP3 ADD MSTORE PUSH32 0x7A2020272F3E3C7061746820643D274D3137312E3931382C3137392E34313963 PUSH2 0x680 DUP3 ADD MSTORE PUSH32 0x2D312E3931392C302D332E3833392D302E3733322D352E3330332D322E313937 PUSH2 0x6A0 DUP3 ADD MSTORE PUSH32 0x6C2D31372E3234332D31372E323433632D322E3932392D322E3932392D322E39 PUSH2 0x6C0 DUP3 ADD MSTORE PUSH32 0x32392D372E3637382C302D31302E363036202063322E3932392D322E3932392C PUSH2 0x6E0 DUP3 ADD MSTORE PUSH32 0x372E3637382D322E3932392C31302E3630362C306C31372E3234332C31372E32 PUSH2 0x700 DUP3 ADD MSTORE PUSH32 0x343363322E3932392C322E3932392C322E3932392C372E3637382C302C31302E PUSH2 0x720 DUP3 ADD MSTORE PUSH32 0x3630362020433137352E3735372C3137382E3638372C3137332E3833382C3137 PUSH2 0x740 DUP3 ADD MSTORE PUSH32 0x392E3431392C3137312E3931382C3137392E3431397A272F3E3C706174682064 PUSH2 0x760 DUP3 ADD MSTORE PUSH32 0x3D274D35322E3935322C36302E343532632D312E3931392C302D332E3833392D PUSH2 0x780 DUP3 ADD MSTORE PUSH32 0x302E3733322D352E3330332D322E3139374C33302E3430362C34312E30313363 PUSH2 0x7A0 DUP3 ADD MSTORE PUSH32 0x2D322E3932392D322E3932392D322E3932392D372E3637372C302D31302E3630 PUSH2 0x7C0 DUP3 ADD MSTORE PUSH32 0x36202063322E3932392D322E3932392C372E3637382D322E39332C31302E3630 PUSH2 0x7E0 DUP3 ADD MSTORE PUSH32 0x362C306C31372E3234332C31372E32343263322E3932392C322E3932392C322E PUSH2 0x800 DUP3 ADD MSTORE PUSH32 0x3932392C372E3637372C302C31302E3630364335362E3739312C35392E37322C PUSH2 0x820 DUP3 ADD MSTORE PUSH32 0x35342E3837322C36302E3435322C35322E3935322C36302E3435327A272F3E3C PUSH2 0x840 DUP3 ADD MSTORE PUSH32 0x2F7376673E3C2F7370616E3E3C6469762069643D616E64726577207374796C65 PUSH2 0x860 DUP3 ADD MSTORE PUSH32 0x3D6D617267696E2D746F703A313570783B746578742D616C69676E3A63656E74 PUSH2 0x880 DUP3 ADD MSTORE PUSH32 0x65723B77696474683A313030253E3C7370616E3E44657369676E656420627920 PUSH2 0x8A0 DUP3 ADD MSTORE PUSH32 0x3C6120636C6173733D6C696768742D6C696E6B20687265663D00000000000000 PUSH2 0x8C0 DUP3 ADD MSTORE POP JUMP JUMPDEST PUSH0 PUSH2 0x288F PUSH2 0x8D9 DUP4 PUSH2 0xCAF JUMP JUMPDEST SWAP2 POP PUSH2 0x289A DUP3 PUSH2 0x1DB7 JUMP JUMPDEST PUSH2 0x8D9 DUP3 ADD SWAP1 POP SWAP2 SWAP1 POP JUMP JUMPDEST PUSH32 0x207461726765743D5F626C616E6B3E416E64726577204D69746368656C6C3C2F PUSH0 DUP3 ADD MSTORE PUSH32 0x613E3C2F7370616E3E3C2F6469763E3C64697620636C6173733D666F6F746572 PUSH1 0x20 DUP3 ADD MSTORE PUSH32 0x3E26233136393B2050726F7A616320596F7574682E20416C6C20726967687473 PUSH1 0x40 DUP3 ADD MSTORE PUSH32 0x2072657365727665642E3C2F6469763E3C63616E7661732069643D276E6F7465 PUSH1 0x60 DUP3 ADD MSTORE PUSH32 0x70616443616E76617327207374796C653D27646973706C61793A6E6F6E653B27 PUSH1 0x80 DUP3 ADD MSTORE PUSH32 0x3E3C2F63616E7661733E3C2F6469763E3C2F6469763E00000000000000000000 PUSH1 0xA0 DUP3 ADD MSTORE POP JUMP JUMPDEST PUSH0 PUSH2 0x2998 PUSH1 0xB6 DUP4 PUSH2 0xCAF JUMP JUMPDEST SWAP2 POP PUSH2 0x29A3 DUP3 PUSH2 0x28A6 JUMP JUMPDEST PUSH1 0xB6 DUP3 ADD SWAP1 POP SWAP2 SWAP1 POP JUMP JUMPDEST PUSH0 PUSH2 0x29B8 DUP3 PUSH2 0xE12 JUMP JUMPDEST SWAP2 POP PUSH2 0x29C3 DUP3 PUSH2 0x1BBF JUMP JUMPDEST SWAP2 POP PUSH2 0x29CF DUP3 DUP7 PUSH2 0x1BE3 JUMP JUMPDEST SWAP2 POP PUSH2 0x29DA DUP3 PUSH2 0x1D93 JUMP JUMPDEST SWAP2 POP PUSH2 0x29E6 DUP3 DUP6 PUSH2 0x1BE3 JUMP JUMPDEST SWAP2 POP PUSH2 0x29F1 DUP3 PUSH2 0x2882 JUMP JUMPDEST SWAP2 POP PUSH2 0x29FD DUP3 DUP5 PUSH2 0x1BE3 JUMP JUMPDEST SWAP2 POP PUSH2 0x2A08 DUP3 PUSH2 0x298C JUMP JUMPDEST SWAP2 POP DUP2 SWAP1 POP SWAP5 SWAP4 POP POP POP POP JUMP JUMPDEST PUSH32 0x4E6F7420617574686F72697A6564000000000000000000000000000000000000 PUSH0 DUP3 ADD MSTORE POP JUMP JUMPDEST PUSH0 PUSH2 0x2A49 PUSH1 0xE DUP4 PUSH2 0xA01 JUMP JUMPDEST SWAP2 POP PUSH2 0x2A54 DUP3 PUSH2 0x2A15 JUMP JUMPDEST PUSH1 0x20 DUP3 ADD SWAP1 POP SWAP2 SWAP1 POP JUMP JUMPDEST PUSH0 PUSH1 0x20 DUP3 ADD SWAP1 POP DUP2 DUP2 SUB PUSH0 DUP4 ADD MSTORE PUSH2 0x2A76 DUP2 PUSH2 0x2A3D JUMP JUMPDEST SWAP1 POP SWAP2 SWAP1 POP JUMP JUMPDEST PUSH0 DUP2 SWAP1 POP SWAP2 SWAP1 POP JUMP JUMPDEST PUSH2 0x2A8F DUP2 PUSH2 0x2A7D JUMP JUMPDEST DUP2 EQ PUSH2 0x2A99 JUMPI PUSH0 DUP1 REVERT JUMPDEST POP JUMP JUMPDEST PUSH0 DUP2 MLOAD SWAP1 POP PUSH2 0x2AAA DUP2 PUSH2 0x2A86 JUMP JUMPDEST SWAP3 SWAP2 POP POP JUMP JUMPDEST PUSH0 PUSH1 0x20 DUP3 DUP5 SUB SLT ISZERO PUSH2 0x2AC5 JUMPI PUSH2 0x2AC4 PUSH2 0x96A JUMP JUMPDEST JUMPDEST PUSH0 PUSH2 0x2AD2 DUP5 DUP3 DUP6 ADD PUSH2 0x2A9C JUMP JUMPDEST SWAP2 POP POP SWAP3 SWAP2 POP POP JUMP JUMPDEST PUSH2 0x2AE4 DUP2 PUSH2 0x2A7D JUMP JUMPDEST DUP3 MSTORE POP POP JUMP JUMPDEST PUSH0 PUSH1 0x20 DUP3 ADD SWAP1 POP PUSH2 0x2AFD PUSH0 DUP4 ADD DUP5 PUSH2 0x2ADB JUMP JUMPDEST SWAP3 SWAP2 POP POP JUMP JUMPDEST PUSH0 DUP1 REVERT JUMPDEST PUSH0 DUP1 REVERT JUMPDEST PUSH0 PUSH1 0xA0 DUP3 DUP5 SUB SLT ISZERO PUSH2 0x2B20 JUMPI PUSH2 0x2B1F PUSH2 0x2B03 JUMP JUMPDEST JUMPDEST PUSH2 0x2B2A PUSH1 0xA0 PUSH2 0xBB0 JUMP JUMPDEST SWAP1 POP PUSH0 DUP3 ADD MLOAD PUSH8 0xFFFFFFFFFFFFFFFF DUP2 GT ISZERO PUSH2 0x2B49 JUMPI PUSH2 0x2B48 PUSH2 0x2B07 JUMP JUMPDEST JUMPDEST PUSH2 0x2B55 DUP5 DUP3 DUP6 ADD PUSH2 0xC3B JUMP JUMPDEST PUSH0 DUP4 ADD MSTORE POP PUSH1 0x20 DUP3 ADD MLOAD PUSH8 0xFFFFFFFFFFFFFFFF DUP2 GT ISZERO PUSH2 0x2B78 JUMPI PUSH2 0x2B77 PUSH2 0x2B07 JUMP JUMPDEST JUMPDEST PUSH2 0x2B84 DUP5 DUP3 DUP6 ADD PUSH2 0xC3B JUMP JUMPDEST PUSH1 0x20 DUP4 ADD MSTORE POP PUSH1 0x40 DUP3 ADD MLOAD PUSH8 0xFFFFFFFFFFFFFFFF DUP2 GT ISZERO PUSH2 0x2BA8 JUMPI PUSH2 0x2BA7 PUSH2 0x2B07 JUMP JUMPDEST JUMPDEST PUSH2 0x2BB4 DUP5 DUP3 DUP6 ADD PUSH2 0xC3B JUMP JUMPDEST PUSH1 0x40 DUP4 ADD MSTORE POP PUSH1 0x60 DUP3 ADD MLOAD PUSH8 0xFFFFFFFFFFFFFFFF DUP2 GT ISZERO PUSH2 0x2BD8 JUMPI PUSH2 0x2BD7 PUSH2 0x2B07 JUMP JUMPDEST JUMPDEST PUSH2 0x2BE4 DUP5 DUP3 DUP6 ADD PUSH2 0xC3B JUMP JUMPDEST PUSH1 0x60 DUP4 ADD MSTORE POP PUSH1 0x80 DUP3 ADD MLOAD PUSH8 0xFFFFFFFFFFFFFFFF DUP2 GT ISZERO PUSH2 0x2C08 JUMPI PUSH2 0x2C07 PUSH2 0x2B07 JUMP JUMPDEST JUMPDEST PUSH2 0x2C14 DUP5 DUP3 DUP6 ADD PUSH2 0xC3B JUMP JUMPDEST PUSH1 0x80 DUP4 ADD MSTORE POP SWAP3 SWAP2 POP POP JUMP JUMPDEST PUSH0 PUSH1 0x20 DUP3 DUP5 SUB SLT ISZERO PUSH2 0x2C35 JUMPI PUSH2 0x2C34 PUSH2 0x96A JUMP JUMPDEST JUMPDEST PUSH0 DUP3 ADD MLOAD PUSH8 0xFFFFFFFFFFFFFFFF DUP2 GT ISZERO PUSH2 0x2C52 JUMPI PUSH2 0x2C51 PUSH2 0x96E JUMP JUMPDEST JUMPDEST PUSH2 0x2C5E DUP5 DUP3 DUP6 ADD PUSH2 0x2B0B JUMP JUMPDEST SWAP2 POP POP SWAP3 SWAP2 POP POP JUMP JUMPDEST PUSH32 0x3C747220636C6173733D227461626C652D726F77206C696768742D6267206C69 PUSH0 DUP3 ADD MSTORE PUSH32 0x6768742D626F72646572206C696768742D74657874223E000000000000000000 PUSH1 0x20 DUP3 ADD MSTORE POP JUMP JUMPDEST PUSH0 PUSH2 0x2CC1 PUSH1 0x37 DUP4 PUSH2 0xCAF JUMP JUMPDEST SWAP2 POP PUSH2 0x2CCC DUP3 PUSH2 0x2C67 JUMP JUMPDEST PUSH1 0x37 DUP3 ADD SWAP1 POP SWAP2 SWAP1 POP JUMP JUMPDEST PUSH32 0x3C746420636F6C7370616E3D22312220636C6173733D226C696768742D626722 PUSH0 DUP3 ADD MSTORE PUSH32 0x2077696474683D223330252220616C69676E3D2263656E746572223E00000000 PUSH1 0x20 DUP3 ADD MSTORE POP JUMP JUMPDEST PUSH0 PUSH2 0x2D31 PUSH1 0x3C DUP4 PUSH2 0xCAF JUMP JUMPDEST SWAP2 POP PUSH2 0x2D3C DUP3 PUSH2 0x2CD7 JUMP JUMPDEST PUSH1 0x3C DUP3 ADD SWAP1 POP SWAP2 SWAP1 POP JUMP JUMPDEST PUSH32 0x3C666F6E7420636C6173733D22736D616C6C5F74657874223E00000000000000 PUSH0 DUP3 ADD MSTORE POP JUMP JUMPDEST PUSH0 PUSH2 0x2D7B PUSH1 0x19 DUP4 PUSH2 0xCAF JUMP JUMPDEST SWAP2 POP PUSH2 0x2D86 DUP3 PUSH2 0x2D47 JUMP JUMPDEST PUSH1 0x19 DUP3 ADD SWAP1 POP SWAP2 SWAP1 POP JUMP JUMPDEST PUSH32 0x3C6120636C6173733D226C696768742D6C696E6B22207461726765743D225F62 PUSH0 DUP3 ADD MSTORE PUSH32 0x6C616E6B2220687265663D220000000000000000000000000000000000000000 PUSH1 0x20 DUP3 ADD MSTORE POP JUMP JUMPDEST PUSH0 PUSH2 0x2DEB PUSH1 0x2C DUP4 PUSH2 0xCAF JUMP JUMPDEST SWAP2 POP PUSH2 0x2DF6 DUP3 PUSH2 0x2D91 JUMP JUMPDEST PUSH1 0x2C DUP3 ADD SWAP1 POP SWAP2 SWAP1 POP JUMP JUMPDEST PUSH32 0x223E546A6F3C2F613E0000000000000000000000000000000000000000000000 PUSH0 DUP3 ADD MSTORE POP JUMP JUMPDEST PUSH0 PUSH2 0x2E35 PUSH1 0x9 DUP4 PUSH2 0xCAF JUMP JUMPDEST SWAP2 POP PUSH2 0x2E40 DUP3 PUSH2 0x2E01 JUMP JUMPDEST PUSH1 0x9 DUP3 ADD SWAP1 POP SWAP2 SWAP1 POP JUMP JUMPDEST PUSH32 0x3C666F6E743E3C2F666F6E743E3C2F666F6E743E3C2F74643E00000000000000 PUSH0 DUP3 ADD MSTORE POP JUMP JUMPDEST PUSH0 PUSH2 0x2E7F PUSH1 0x19 DUP4 PUSH2 0xCAF JUMP JUMPDEST SWAP2 POP PUSH2 0x2E8A DUP3 PUSH2 0x2E4B JUMP JUMPDEST PUSH1 0x19 DUP3 ADD SWAP1 POP SWAP2 SWAP1 POP JUMP JUMPDEST PUSH32 0x3C746420636F6C7370616E3D22332220616C69676E3D22726967687422207769 PUSH0 DUP3 ADD MSTORE PUSH32 0x6474683D223730252220636C6173733D226C696768742D6267206C696768742D PUSH1 0x20 DUP3 ADD MSTORE PUSH32 0x6C696E6B223E0000000000000000000000000000000000000000000000000000 PUSH1 0x40 DUP3 ADD MSTORE POP JUMP JUMPDEST PUSH0 PUSH2 0x2F15 PUSH1 0x46 DUP4 PUSH2 0xCAF JUMP JUMPDEST SWAP2 POP PUSH2 0x2F20 DUP3 PUSH2 0x2E95 JUMP JUMPDEST PUSH1 0x46 DUP3 ADD SWAP1 POP SWAP2 SWAP1 POP JUMP JUMPDEST PUSH32 0x3C64697620636C6173733D22706F7374496E666F206465736B746F70223E0000 PUSH0 DUP3 ADD MSTORE POP JUMP JUMPDEST PUSH0 PUSH2 0x2F5F PUSH1 0x1E DUP4 PUSH2 0xCAF JUMP JUMPDEST SWAP2 POP PUSH2 0x2F6A DUP3 PUSH2 0x2F2B JUMP JUMPDEST PUSH1 0x1E DUP3 ADD SWAP1 POP SWAP2 SWAP1 POP JUMP JUMPDEST PUSH32 0x3C7370616E20636C6173733D22706F73744E756D206465736B746F70223E0000 PUSH0 DUP3 ADD MSTORE POP JUMP JUMPDEST PUSH0 PUSH2 0x2FA9 PUSH1 0x1E DUP4 PUSH2 0xCAF JUMP JUMPDEST SWAP2 POP PUSH2 0x2FB4 DUP3 PUSH2 0x2F75 JUMP JUMPDEST PUSH1 0x1E DUP3 ADD SWAP1 POP SWAP2 SWAP1 POP JUMP JUMPDEST PUSH32 0x3C6120636C6173733D226C696768742D6C696E6B22207374796C653D22666F6E PUSH0 DUP3 ADD MSTORE PUSH32 0x742D73697A653A313270783B2220687265663D22000000000000000000000000 PUSH1 0x20 DUP3 ADD MSTORE POP JUMP JUMPDEST PUSH0 PUSH2 0x3019 PUSH1 0x34 DUP4 PUSH2 0xCAF JUMP JUMPDEST SWAP2 POP PUSH2 0x3024 DUP3 PUSH2 0x2FBF JUMP JUMPDEST PUSH1 0x34 DUP3 ADD SWAP1 POP SWAP2 SWAP1 POP JUMP JUMPDEST PUSH32 0x22207461726765743D225F626C616E6B22207469746C653D224C696E6B20746F PUSH0 DUP3 ADD MSTORE PUSH32 0x2074686973207472616E73616374696F6E223E00000000000000000000000000 PUSH1 0x20 DUP3 ADD MSTORE POP JUMP JUMPDEST PUSH0 PUSH2 0x3089 PUSH1 0x33 DUP4 PUSH2 0xCAF JUMP JUMPDEST SWAP2 POP PUSH2 0x3094 DUP3 PUSH2 0x302F JUMP JUMPDEST PUSH1 0x33 DUP3 ADD SWAP1 POP SWAP2 SWAP1 POP JUMP JUMPDEST PUSH32 0x3C2F613E3C2F7370616E3E3C2F6469763E3C2F74643E3C2F74723E3C74723E3C PUSH0 DUP3 ADD MSTORE PUSH32 0x7464207374796C653D2270616464696E672D626F74746F6D3A353070783B223E PUSH1 0x20 DUP3 ADD MSTORE PUSH32 0x3C2F74643E3C2F74723E00000000000000000000000000000000000000000000 PUSH1 0x40 DUP3 ADD MSTORE POP JUMP JUMPDEST PUSH0 PUSH2 0x311F PUSH1 0x4A DUP4 PUSH2 0xCAF JUMP JUMPDEST SWAP2 POP PUSH2 0x312A DUP3 PUSH2 0x309F JUMP JUMPDEST PUSH1 0x4A DUP3 ADD SWAP1 POP SWAP2 SWAP1 POP JUMP JUMPDEST PUSH32 0x3C74723E3C746420636F6C7370616E3D2231222076616C69676E3D226D696464 PUSH0 DUP3 ADD MSTORE PUSH32 0x6C652220616C69676E3D226C6566742220636C6173733D226C696768742D6267 PUSH1 0x20 DUP3 ADD MSTORE PUSH32 0x223E000000000000000000000000000000000000000000000000000000000000 PUSH1 0x40 DUP3 ADD MSTORE POP JUMP JUMPDEST PUSH0 PUSH2 0x31B5 PUSH1 0x42 DUP4 PUSH2 0xCAF JUMP JUMPDEST SWAP2 POP PUSH2 0x31C0 DUP3 PUSH2 0x3135 JUMP JUMPDEST PUSH1 0x42 DUP3 ADD SWAP1 POP SWAP2 SWAP1 POP JUMP JUMPDEST PUSH32 0x3C756C20616C69676E3D226C65667422207374796C653D2270616464696E672D PUSH0 DUP3 ADD MSTORE PUSH32 0x6C6566743A20313570783B666F6E742D73697A653A20313070783B223E000000 PUSH1 0x20 DUP3 ADD MSTORE POP JUMP JUMPDEST PUSH0 PUSH2 0x3225 PUSH1 0x3D DUP4 PUSH2 0xCAF JUMP JUMPDEST SWAP2 POP PUSH2 0x3230 DUP3 PUSH2 0x31CB JUMP JUMPDEST PUSH1 0x3D DUP3 ADD SWAP1 POP SWAP2 SWAP1 POP JUMP JUMPDEST PUSH32 0x3C6C6920636C6173733D226C696768742D746578742D33223E426C6F636B3A20 PUSH0 DUP3 ADD MSTORE POP JUMP JUMPDEST PUSH0 PUSH2 0x326F PUSH1 0x20 DUP4 PUSH2 0xCAF JUMP JUMPDEST SWAP2 POP PUSH2 0x327A DUP3 PUSH2 0x323B JUMP JUMPDEST PUSH1 0x20 DUP3 ADD SWAP1 POP SWAP2 SWAP1 POP JUMP JUMPDEST PUSH32 0x3C2F6C693E3C6C6920636C6173733D226C696768742D746578742D33223E4C6F PUSH0 DUP3 ADD MSTORE PUSH32 0x636174696F6E3A20554E4B4E4F574E3C2F6C693E3C2F756C3E3C2F74643E0000 PUSH1 0x20 DUP3 ADD MSTORE POP JUMP JUMPDEST PUSH0 PUSH2 0x32DF PUSH1 0x3E DUP4 PUSH2 0xCAF JUMP JUMPDEST SWAP2 POP PUSH2 0x32EA DUP3 PUSH2 0x3285 JUMP JUMPDEST PUSH1 0x3E DUP3 ADD SWAP1 POP SWAP2 SWAP1 POP JUMP JUMPDEST PUSH32 0x3C746420636F6C7370616E3D22332220616C69676E3D2263656E746572222076 PUSH0 DUP3 ADD MSTORE PUSH32 0x616C69676E3D226D6964646C652220636C6173733D226C696768742D6267223E PUSH1 0x20 DUP3 ADD MSTORE POP JUMP JUMPDEST PUSH0 PUSH2 0x334F PUSH1 0x40 DUP4 PUSH2 0xCAF JUMP JUMPDEST SWAP2 POP PUSH2 0x335A DUP3 PUSH2 0x32F5 JUMP JUMPDEST PUSH1 0x40 DUP3 ADD SWAP1 POP SWAP2 SWAP1 POP JUMP JUMPDEST PUSH32 0x3C666F6E7420636C6173733D22726567756C61725F74657874223E0000000000 PUSH0 DUP3 ADD MSTORE POP JUMP JUMPDEST PUSH0 PUSH2 0x3399 PUSH1 0x1B DUP4 PUSH2 0xCAF JUMP JUMPDEST SWAP2 POP PUSH2 0x33A4 DUP3 PUSH2 0x3365 JUMP JUMPDEST PUSH1 0x1B DUP3 ADD SWAP1 POP SWAP2 SWAP1 POP JUMP JUMPDEST PUSH32 0x3C64697620636C6173733D22706F7374207265706C79223E0000000000000000 PUSH0 DUP3 ADD MSTORE POP JUMP JUMPDEST PUSH0 PUSH2 0x33E3 PUSH1 0x18 DUP4 PUSH2 0xCAF JUMP JUMPDEST SWAP2 POP PUSH2 0x33EE DUP3 PUSH2 0x33AF JUMP JUMPDEST PUSH1 0x18 DUP3 ADD SWAP1 POP SWAP2 SWAP1 POP JUMP JUMPDEST PUSH32 0x3C626C6F636B71756F7465207374796C653D226D617267696E2D746F703A3070 PUSH0 DUP3 ADD MSTORE PUSH32 0x783B2220636C6173733D22706F73744D657373616765206C696768742D746578 PUSH1 0x20 DUP3 ADD MSTORE PUSH32 0x742D32222069643D226D3334303739393833223E3C62723E0000000000000000 PUSH1 0x40 DUP3 ADD MSTORE POP JUMP JUMPDEST PUSH0 PUSH2 0x3479 PUSH1 0x58 DUP4 PUSH2 0xCAF JUMP JUMPDEST SWAP2 POP PUSH2 0x3484 DUP3 PUSH2 0x33F9 JUMP JUMPDEST PUSH1 0x58 DUP3 ADD SWAP1 POP SWAP2 SWAP1 POP JUMP JUMPDEST PUSH32 0x3C2F626C6F636B71756F74653E3C2F6469763E3C2F666F6E743E3C2F74643E3C PUSH0 DUP3 ADD MSTORE PUSH32 0x2F74723E3C74723E3C7464207374796C653D2270616464696E672D626F74746F PUSH1 0x20 DUP3 ADD MSTORE PUSH32 0x6D3A353070783B223E3C2F74643E3C2F74723E00000000000000000000000000 PUSH1 0x40 DUP3 ADD MSTORE POP JUMP JUMPDEST PUSH0 PUSH2 0x350F PUSH1 0x53 DUP4 PUSH2 0xCAF JUMP JUMPDEST SWAP2 POP PUSH2 0x351A DUP3 PUSH2 0x348F JUMP JUMPDEST PUSH1 0x53 DUP3 ADD SWAP1 POP SWAP2 SWAP1 POP JUMP JUMPDEST PUSH0 PUSH2 0x3530 DUP3 DUP11 PUSH2 0x1BE3 JUMP JUMPDEST SWAP2 POP PUSH2 0x353B DUP3 PUSH2 0x2CB5 JUMP JUMPDEST SWAP2 POP PUSH2 0x3546 DUP3 PUSH2 0x2D25 JUMP JUMPDEST SWAP2 POP PUSH2 0x3551 DUP3 PUSH2 0x2D6F JUMP JUMPDEST SWAP2 POP PUSH2 0x355C DUP3 PUSH2 0x2DDF JUMP JUMPDEST SWAP2 POP PUSH2 0x3568 DUP3 DUP10 PUSH2 0x1BE3 JUMP JUMPDEST SWAP2 POP PUSH2 0x3573 DUP3 PUSH2 0x2E29 JUMP JUMPDEST SWAP2 POP PUSH2 0x357E DUP3 PUSH2 0x2E73 JUMP JUMPDEST SWAP2 POP PUSH2 0x3589 DUP3 PUSH2 0x2F09 JUMP JUMPDEST SWAP2 POP PUSH2 0x3594 DUP3 PUSH2 0x2F53 JUMP JUMPDEST SWAP2 POP PUSH2 0x359F DUP3 PUSH2 0x2F9D JUMP JUMPDEST SWAP2 POP PUSH2 0x35AA DUP3 PUSH2 0x300D JUMP JUMPDEST SWAP2 POP PUSH2 0x35B6 DUP3 DUP9 PUSH2 0x1BE3 JUMP JUMPDEST SWAP2 POP PUSH2 0x35C2 DUP3 DUP8 PUSH2 0x1BE3 JUMP JUMPDEST SWAP2 POP PUSH2 0x35CD DUP3 PUSH2 0x307D JUMP JUMPDEST SWAP2 POP PUSH2 0x35D9 DUP3 DUP7 PUSH2 0x1BE3 JUMP JUMPDEST SWAP2 POP PUSH2 0x35E4 DUP3 PUSH2 0x3113 JUMP JUMPDEST SWAP2 POP PUSH2 0x35EF DUP3 PUSH2 0x31A9 JUMP JUMPDEST SWAP2 POP PUSH2 0x35FA DUP3 PUSH2 0x3219 JUMP JUMPDEST SWAP2 POP PUSH2 0x3605 DUP3 PUSH2 0x3263 JUMP JUMPDEST SWAP2 POP PUSH2 0x3611 DUP3 DUP6 PUSH2 0x1BE3 JUMP JUMPDEST SWAP2 POP PUSH2 0x361C DUP3 PUSH2 0x32D3 JUMP JUMPDEST SWAP2 POP PUSH2 0x3627 DUP3 PUSH2 0x3343 JUMP JUMPDEST SWAP2 POP PUSH2 0x3632 DUP3 PUSH2 0x338D JUMP JUMPDEST SWAP2 POP PUSH2 0x363D DUP3 PUSH2 0x33D7 JUMP JUMPDEST SWAP2 POP PUSH2 0x3648 DUP3 PUSH2 0x346D JUMP JUMPDEST SWAP2 POP PUSH2 0x3654 DUP3 DUP5 PUSH2 0x1BE3 JUMP JUMPDEST SWAP2 POP PUSH2 0x365F DUP3 PUSH2 0x3503 JUMP JUMPDEST SWAP2 POP DUP2 SWAP1 POP SWAP9 SWAP8 POP POP POP POP POP POP POP POP JUMP INVALID LOG2 PUSH5 0x6970667358 0x22 SLT KECCAK256 PUSH5 0xA0315E77FE SMOD PUSH30 0xA3497515157E3D81965DB7ADF38B20BB0A98E7FFFCC424B264736F6C6343 STOP ADDMOD BYTE STOP CALLER "
		},
		"gasEstimates": {
			"creation": {
				"codeDepositCost": "2798000",
				"executionCost": "infinite",
				"totalCost": "infinite"
			},
			"external": {
				"accessList(address)": "2855",
				"getAnimFooter()": "infinite",
				"getAnimHeader()": "infinite",
				"getEntriesHTML()": "infinite",
				"grantAccess(address)": "26973",
				"owner()": "2552",
				"revokeAccess(address)": "26971",
				"setProzacYouthUtils_1(address)": "29173"
			}
		},
		"methodIdentifiers": {
			"accessList(address)": "87a5b67c",
			"getAnimFooter()": "7899ff8f",
			"getAnimHeader()": "18a6ef6c",
			"getEntriesHTML()": "b0a69ab4",
			"grantAccess(address)": "0ae5e739",
			"owner()": "8da5cb5b",
			"revokeAccess(address)": "85e68531",
			"setProzacYouthUtils_1(address)": "7579b796"
		}
	},
	"abi": [
		{
			"inputs": [
				{
					"internalType": "address",
					"name": "ProzacYouthUtils_addr",
					"type": "address"
				}
			],
			"stateMutability": "nonpayable",
			"type": "constructor"
		},
		{
			"inputs": [
				{
					"internalType": "address",
					"name": "",
					"type": "address"
				}
			],
			"name": "accessList",
			"outputs": [
				{
					"internalType": "bool",
					"name": "",
					"type": "bool"
				}
			],
			"stateMutability": "view",
			"type": "function"
		},
		{
			"inputs": [],
			"name": "getAnimFooter",
			"outputs": [
				{
					"internalType": "string",
					"name": "",
					"type": "string"
				}
			],
			"stateMutability": "pure",
			"type": "function"
		},
		{
			"inputs": [],
			"name": "getAnimHeader",
			"outputs": [
				{
					"internalType": "string",
					"name": "",
					"type": "string"
				}
			],
			"stateMutability": "view",
			"type": "function"
		},
		{
			"inputs": [],
			"name": "getEntriesHTML",
			"outputs": [
				{
					"internalType": "string",
					"name": "",
					"type": "string"
				}
			],
			"stateMutability": "view",
			"type": "function"
		},
		{
			"inputs": [
				{
					"internalType": "address",
					"name": "_address",
					"type": "address"
				}
			],
			"name": "grantAccess",
			"outputs": [],
			"stateMutability": "nonpayable",
			"type": "function"
		},
		{
			"inputs": [],
			"name": "owner",
			"outputs": [
				{
					"internalType": "address",
					"name": "",
					"type": "address"
				}
			],
			"stateMutability": "view",
			"type": "function"
		},
		{
			"inputs": [
				{
					"internalType": "address",
					"name": "_address",
					"type": "address"
				}
			],
			"name": "revokeAccess",
			"outputs": [],
			"stateMutability": "nonpayable",
			"type": "function"
		},
		{
			"inputs": [
				{
					"internalType": "address",
					"name": "addr",
					"type": "address"
				}
			],
			"name": "setProzacYouthUtils_1",
			"outputs": [],
			"stateMutability": "nonpayable",
			"type": "function"
		}
	]
}