{
	"data": {
		"bytecode": {
			"linkReferences": {},
			"object": "608060405234801561000f575f80fd5b50604051612b4f380380612b4f8339818101604052810190610031919061017d565b3360015f6101000a81548173ffffffffffffffffffffffffffffffffffffffff021916908373ffffffffffffffffffffffffffffffffffffffff160217905550805f806101000a81548173ffffffffffffffffffffffffffffffffffffffff021916908373ffffffffffffffffffffffffffffffffffffffff160217905550600160025f73f1da6e2d387e9da611dac8a7fc587eaa4b01001373ffffffffffffffffffffffffffffffffffffffff1673ffffffffffffffffffffffffffffffffffffffff1681526020019081526020015f205f6101000a81548160ff021916908315150217905550506101a8565b5f80fd5b5f73ffffffffffffffffffffffffffffffffffffffff82169050919050565b5f61014c82610123565b9050919050565b61015c81610142565b8114610166575f80fd5b50565b5f8151905061017781610153565b92915050565b5f602082840312156101925761019161011f565b5b5f61019f84828501610169565b91505092915050565b61299a806101b55f395ff3fe608060405234801561000f575f80fd5b5060043610610060575f3560e01c80630ae5e73914610064578063620b7303146100805780637579b7961461009e57806385e68531146100ba57806387a5b67c146100d65780638da5cb5b14610106575b5f80fd5b61007e60048036038101906100799190610575565b610124565b005b61008861020b565b6040516100959190610610565b60405180910390f35b6100b860048036038101906100b39190610575565b6102c0565b005b6100d460048036038101906100cf9190610575565b6103e2565b005b6100f060048036038101906100eb9190610575565b6104c8565b6040516100fd919061064a565b60405180910390f35b61010e6104e5565b60405161011b9190610672565b60405180910390f35b60015f9054906101000a900473ffffffffffffffffffffffffffffffffffffffff1673ffffffffffffffffffffffffffffffffffffffff163373ffffffffffffffffffffffffffffffffffffffff16146101b3576040517f08c379a00000000000000000000000000000000000000000000000000000000081526004016101aa906106d5565b60405180910390fd5b600160025f8373ffffffffffffffffffffffffffffffffffffffff1673ffffffffffffffffffffffffffffffffffffffff1681526020019081526020015f205f6101000a81548160ff02191690831515021790555050565b60605f8054906101000a900473ffffffffffffffffffffffffffffffffffffffff1673ffffffffffffffffffffffffffffffffffffffff1663c55324686040518163ffffffff1660e01b81526004015f60405180830381865afa158015610274573d5f803e3d5ffd5b505050506040513d5f823e3d601f19601f8201168201806040525081019061029c9190610811565b6040516020016102ac91906128d0565b604051602081830303815290604052905090565b60015f9054906101000a900473ffffffffffffffffffffffffffffffffffffffff1673ffffffffffffffffffffffffffffffffffffffff163373ffffffffffffffffffffffffffffffffffffffff161480610361575060025f3373ffffffffffffffffffffffffffffffffffffffff1673ffffffffffffffffffffffffffffffffffffffff1681526020019081526020015f205f9054906101000a900460ff165b6103a0576040517f08c379a000000000000000000000000000000000000000000000000000000000815260040161039790612946565b60405180910390fd5b805f806101000a81548173ffffffffffffffffffffffffffffffffffffffff021916908373ffffffffffffffffffffffffffffffffffffffff16021790555050565b60015f9054906101000a900473ffffffffffffffffffffffffffffffffffffffff1673ffffffffffffffffffffffffffffffffffffffff163373ffffffffffffffffffffffffffffffffffffffff1614610471576040517f08c379a0000000000000000000000000000000000000000000000000000000008152600401610468906106d5565b60405180910390fd5b5f60025f8373ffffffffffffffffffffffffffffffffffffffff1673ffffffffffffffffffffffffffffffffffffffff1681526020019081526020015f205f6101000a81548160ff02191690831515021790555050565b6002602052805f5260405f205f915054906101000a900460ff1681565b60015f9054906101000a900473ffffffffffffffffffffffffffffffffffffffff1681565b5f604051905090565b5f80fd5b5f80fd5b5f73ffffffffffffffffffffffffffffffffffffffff82169050919050565b5f6105448261051b565b9050919050565b6105548161053a565b811461055e575f80fd5b50565b5f8135905061056f8161054b565b92915050565b5f6020828403121561058a57610589610513565b5b5f61059784828501610561565b91505092915050565b5f81519050919050565b5f82825260208201905092915050565b8281835e5f83830152505050565b5f601f19601f8301169050919050565b5f6105e2826105a0565b6105ec81856105aa565b93506105fc8185602086016105ba565b610605816105c8565b840191505092915050565b5f6020820190508181035f83015261062881846105d8565b905092915050565b5f8115159050919050565b61064481610630565b82525050565b5f60208201905061065d5f83018461063b565b92915050565b61066c8161053a565b82525050565b5f6020820190506106855f830184610663565b92915050565b7f4e6f7420746865206f776e6572000000000000000000000000000000000000005f82015250565b5f6106bf600d836105aa565b91506106ca8261068b565b602082019050919050565b5f6020820190508181035f8301526106ec816106b3565b9050919050565b5f80fd5b5f80fd5b7f4e487b71000000000000000000000000000000000000000000000000000000005f52604160045260245ffd5b610731826105c8565b810181811067ffffffffffffffff821117156107505761074f6106fb565b5b80604052505050565b5f61076261050a565b905061076e8282610728565b919050565b5f67ffffffffffffffff82111561078d5761078c6106fb565b5b610796826105c8565b9050602081019050919050565b5f6107b56107b084610773565b610759565b9050828152602081018484840111156107d1576107d06106f7565b5b6107dc8482856105ba565b509392505050565b5f82601f8301126107f8576107f76106f3565b5b81516108088482602086016107a3565b91505092915050565b5f6020828403121561082657610825610513565b5b5f82015167ffffffffffffffff81111561084357610842610517565b5b61084f848285016107e4565b91505092915050565b5f81905092915050565b7f3c73637269707420747970653d27746578742f6a617661736372697074273e6c5f8201527f6574206d6f64653d000000000000000000000000000000000000000000000000602082015250565b5f6108bc602883610858565b91506108c782610862565b602882019050919050565b5f6108dc826105a0565b6108e68185610858565b93506108f68185602086016105ba565b80840191505092915050565b7f3b66756e6374696f6e20757064617465436c6f636b28297b636f6e7374206e6f5f8201527f773d6e6577204461746528293b636f6e737420686f7572733d537472696e672860208201527f6e6f772e676574486f7572732829292e706164537461727428322c273027293b60408201527f636f6e7374206d696e757465733d537472696e67286e6f772e6765744d696e7560608201527f7465732829292e706164537461727428322c273027293b636f6e73742073656360808201527f6f6e64733d537472696e67286e6f772e6765745365636f6e64732829292e706160a08201527f64537461727428322c273027293b636f6e7374206d6f6e74684e616d65733d5b60c08201527f274a616e75617279272c274665627275617279272c274d61726368272c27417060e08201527f72696c272c274d6179272c274a756e65272c274a756c79272c274175677573746101008201527f272c2753657074656d626572272c274f63746f626572272c274e6f76656d62656101208201527f72272c27446563656d626572275d3b636f6e7374206d6f6e74683d6d6f6e74686101408201527f4e616d65735b6e6f772e6765744d6f6e746828295d3b636f6e7374206461793d6101608201527f6e6f772e6765744461746528293b636f6e737420796561723d6e6f772e6765746101808201527f46756c6c5965617228293b636f6e7374207375666669783d28646179293d3e7b6101a08201527f6966286461793e3326266461793c32312972657475726e277468273b737769746101c08201527f636828646179253130297b6361736520313a72657475726e277374273b6361736101e08201527f6520323a72657475726e276e64273b6361736520333a72657475726e277264276102008201527f3b64656661756c743a72657475726e277468277d7d3b636f6e73742066756c6c6102208201527f446174653d60247b6d6f6e74687d20247b6461797d247b7375666669782864616102408201527f79297d2c20247b796561727d20247b686f7572737d3a247b6d696e757465737d6102608201527f3a247b7365636f6e64737d603b646f63756d656e742e717565727953656c65636102808201527f746f7228272e63757272656e742d74696d6527292e74657874436f6e74656e746102a08201527f3d66756c6c446174657d736574496e74657276616c28757064617465436c6f636102c08201527f6b2c31303030293b757064617465436c6f636b28293b646f63756d656e742e616102e08201527f64644576656e744c697374656e65722827444f4d436f6e74656e744c6f6164656103008201527f64272c66756e6374696f6e28297b646f63756d656e742e676574456c656d656e6103208201527f74427949642827706f73742d7772617070657227292e7374796c652e646973706103408201527f6c61793d27626c6f636b277d293b66756e6374696f6e207365744461726b28296103608201527f7b646f63756d656e742e676574456c656d656e7442794964282770617065722d6103808201527f6261636b67726f756e6427292e7374796c652e66696c7465723d27696e7665726103a08201527f74283129273b646f63756d656e742e676574456c656d656e744279496428276d6103c08201527f6f64652d73776974636827292e7374796c652e66696c7465723d27696e7665726103e08201527f74282e373529273b646f63756d656e742e717565727953656c6563746f72416c6104008201527f6c28272e6c696768742d7465787427292e666f72456163682866756e6374696f6104208201527f6e28656c656d656e74297b656c656d656e742e636c6173734c6973742e72656d6104408201527f6f766528276c696768742d7465787427293b656c656d656e742e636c6173734c6104608201527f6973742e61646428276461726b2d7465787427297d293b646f63756d656e742e6104808201527f717565727953656c6563746f72416c6c28272e6c696768742d746578742d32276104a08201527f292e666f72456163682866756e6374696f6e28656c656d656e74297b656c656d6104c08201527f656e742e636c6173734c6973742e72656d6f766528276c696768742d746578746104e08201527f2d3227293b656c656d656e742e636c6173734c6973742e61646428276461726b6105008201527f2d746578742d3227297d293b646f63756d656e742e717565727953656c6563746105208201527f6f72416c6c28272e6c696768742d746578742d3327292e666f724561636828666105408201527f756e6374696f6e28656c656d656e74297b656c656d656e742e636c6173734c696105608201527f73742e72656d6f766528276c696768742d746578742d3327293b656c656d656e6105808201527f742e636c6173734c6973742e61646428276461726b2d746578742d3327297d296105a08201527f3b646f63756d656e742e717565727953656c6563746f72416c6c28272e6c69676105c08201527f68742d746578742d3427292e666f72456163682866756e6374696f6e28656c656105e08201527f6d656e74297b656c656d656e742e636c6173734c6973742e72656d6f766528276106008201527f6c696768742d746578742d3427293b656c656d656e742e636c6173734c6973746106208201527f2e61646428276461726b2d746578742d3427297d293b646f63756d656e742e716106408201527f7565727953656c6563746f72416c6c28272e6c696768742d626727292e666f726106608201527f456163682866756e6374696f6e28656c656d656e74297b656c656d656e742e636106808201527f6c6173734c6973742e72656d6f766528276c696768742d626727293b656c656d6106a08201527f656e742e636c6173734c6973742e61646428276461726b2d626727297d293b646106c08201527f6f63756d656e742e717565727953656c6563746f72416c6c28272e6c696768746106e08201527f2d62672d3227292e666f72456163682866756e6374696f6e28656c656d656e746107008201527f297b656c656d656e742e636c6173734c6973742e72656d6f766528276c6967686107208201527f742d62672d3227293b656c656d656e742e636c6173734c6973742e61646428276107408201527f6461726b2d62672d3227297d293b646f63756d656e742e717565727953656c656107608201527f63746f72416c6c28272e6c696768742d626f726465722d3227292e666f7245616107808201527f63682866756e6374696f6e28656c656d656e74297b656c656d656e742e636c616107a08201527f73734c6973742e72656d6f766528276c696768742d626f726465722d3227293b6107c08201527f656c656d656e742e636c6173734c6973742e61646428276461726b2d626f72646107e08201527f65722d3227297d293b646f63756d656e742e717565727953656c6563746f72416108008201527f6c6c28272e6c696768742d626f7264657227292e666f72456163682866756e636108208201527f74696f6e28656c656d656e74297b656c656d656e742e636c6173734c6973742e6108408201527f72656d6f766528276c696768742d626f7264657227293b656c656d656e742e636108608201527f6c6173734c6973742e61646428276461726b2d626f7264657227297d293b646f6108808201527f63756d656e742e717565727953656c6563746f72416c6c28272e6c696768742d6108a08201527f6c696e6b27292e666f72456163682866756e6374696f6e28656c656d656e74296108c08201527f7b656c656d656e742e636c6173734c6973742e72656d6f766528276c696768746108e08201527f2d6c696e6b27293b656c656d656e742e636c6173734c6973742e6164642827646109008201527f61726b2d6c696e6b27297d297d66756e6374696f6e207365744c6967687428296109208201527f7b646f63756d656e742e676574456c656d656e7442794964282770617065722d6109408201527f6261636b67726f756e6427292e7374796c652e66696c7465723d27696e7665726109608201527f74283029273b646f63756d656e742e676574456c656d656e744279496428276d6109808201527f6f64652d73776974636827292e7374796c652e66696c7465723d27696e7665726109a08201527f74283029273b646f63756d656e742e717565727953656c6563746f72416c6c286109c08201527f272e6461726b2d7465787427292e666f72456163682866756e6374696f6e28656109e08201527f6c656d656e74297b656c656d656e742e636c6173734c6973742e72656d6f7665610a008201527f28276461726b2d7465787427293b656c656d656e742e636c6173734c6973742e610a208201527f61646428276c696768742d7465787427297d293b646f63756d656e742e717565610a408201527f727953656c6563746f72416c6c28272e6461726b2d746578742d3227292e666f610a608201527f72456163682866756e6374696f6e28656c656d656e74297b656c656d656e742e610a808201527f636c6173734c6973742e72656d6f766528276461726b2d746578742d3227293b610aa08201527f656c656d656e742e636c6173734c6973742e61646428276c696768742d746578610ac08201527f742d3227297d293b646f63756d656e742e717565727953656c6563746f72416c610ae08201527f6c28272e6461726b2d746578742d3327292e666f72456163682866756e637469610b008201527f6f6e28656c656d656e74297b656c656d656e742e636c6173734c6973742e7265610b208201527f6d6f766528276461726b2d746578742d3327293b656c656d656e742e636c6173610b408201527f734c6973742e61646428276c696768742d746578742d3327297d293b646f6375610b608201527f6d656e742e717565727953656c6563746f72416c6c28272e6461726b2d746578610b808201527f742d3427292e666f72456163682866756e6374696f6e28656c656d656e74297b610ba08201527f656c656d656e742e636c6173734c6973742e72656d6f766528276461726b2d74610bc08201527f6578742d3427293b656c656d656e742e636c6173734c6973742e61646428276c610be08201527f696768742d746578742d3427297d293b646f63756d656e742e71756572795365610c008201527f6c6563746f72416c6c28272e6461726b2d626727292e666f7245616368286675610c208201527f6e6374696f6e28656c656d656e74297b656c656d656e742e636c6173734c6973610c408201527f742e72656d6f766528276461726b2d626727293b656c656d656e742e636c6173610c608201527f734c6973742e61646428276c696768742d626727297d293b646f63756d656e74610c808201527f2e717565727953656c6563746f72416c6c28272e6461726b2d62672d3227292e610ca08201527f666f72456163682866756e6374696f6e28656c656d656e74297b656c656d656e610cc08201527f742e636c6173734c6973742e72656d6f766528276461726b2d62672d3227293b610ce08201527f656c656d656e742e636c6173734c6973742e61646428276c696768742d62672d610d008201527f3227297d293b646f63756d656e742e717565727953656c6563746f72416c6c28610d208201527f272e6461726b2d626f726465722d3227292e666f72456163682866756e637469610d408201527f6f6e28656c656d656e74297b656c656d656e742e636c6173734c6973742e7265610d608201527f6d6f766528276461726b2d626f726465722d3227293b656c656d656e742e636c610d808201527f6173734c6973742e61646428276c696768742d626f726465722d3227297d293b610da08201527f646f63756d656e742e717565727953656c6563746f72416c6c28272e6461726b610dc08201527f2d626f7264657227292e666f72456163682866756e6374696f6e28656c656d65610de08201527f6e74297b656c656d656e742e636c6173734c6973742e72656d6f766528276461610e008201527f726b2d626f7264657227293b656c656d656e742e636c6173734c6973742e6164610e208201527f6428276c696768742d626f7264657227297d293b646f63756d656e742e717565610e408201527f727953656c6563746f72416c6c28272e6461726b2d6c696e6b27292e666f7245610e608201527f6163682866756e6374696f6e28656c656d656e74297b656c656d656e742e636c610e808201527f6173734c6973742e72656d6f766528276461726b2d6c696e6b27293b656c656d610ea08201527f656e742e636c6173734c6973742e61646428276c696768742d6c696e6b27297d610ec08201527f297d77696e646f772e6f6e726573697a653d66756e6374696f6e28297b6c6f63610ee08201527f6174696f6e2e72656c6f616428297d66756e6374696f6e20746f67676c654d6f610f008201527f646528297b6966286d6f64653d3d3d30297b6d6f64653d313b7365744461726b610f208201527f28297d656c73657b6d6f64653d303b7365744c6967687428297d646f63756d65610f408201527f6e742e676574456c656d656e744279496428276d6f64652d7377697463682729610f608201527f2e626c757228297d77696e646f772e6f6e6c6f61643d66756e6374696f6e2829610f808201527f7b636f6e73742063616e7661733d646f63756d656e742e676574456c656d656e610fa08201527f744279496428276e6f746570616443616e76617327293b636f6e737420637478610fc08201527f3d63616e7661732e676574436f6e746578742827326427293b636f6e73742070610fe08201527f617065724261636b67726f756e644469763d646f63756d656e742e676574456c6110008201527f656d656e7442794964282770617065722d6261636b67726f756e6427293b63616110208201527f6e7661732e77696474683d77696e646f772e696e6e657257696474683b63616e6110408201527f7661732e6865696768743d77696e646f772e696e6e65724865696768743b636f6110608201527f6e7374206c696e6553706163696e673d32343b636f6e7374206c696e65436f6c6110808201527f6f723d2723643364336433273b66756e6374696f6e20647261774c696e6573286110a08201527f297b6374782e6c696e6557696474683d313b6374782e7374726f6b655374796c6110c08201527f653d6c696e65436f6c6f723b666f72286c657420793d6c696e6553706163696e6110e08201527f673b793c63616e7661732e6865696768743b792b3d6c696e6553706163696e676111008201527f297b6374782e626567696e5061746828293b6374782e6d6f7665546f28302c796111208201527f293b6374782e6c696e65546f2863616e7661732e77696474682c79293b6374786111408201527f2e7374726f6b6528297d7d66756e6374696f6e206164644e6f69736528297b636111608201527f6f6e737420696d616765446174613d6374782e676574496d61676544617461286111808201527f302c302c63616e7661732e77696474682c63616e7661732e686569676874293b6111a08201527f636f6e737420706978656c733d696d616765446174612e646174613b666f72286111c08201527f6c657420693d303b693c706978656c732e6c656e6774683b692b3d34297b636f6111e08201527f6e7374206e6f6973653d4d6174682e72616e646f6d28292a33302d31353b70696112008201527f78656c735b695d2b3d6e6f6973653b706978656c735b692b315d2b3d6e6f69736112208201527f653b706978656c735b692b325d2b3d6e6f6973657d6374782e707574496d61676112408201527f654461746128696d616765446174612c302c30297d66756e6374696f6e2066616112608201527f64652874297b72657475726e20742a742a742a28742a28742a362d3135292b316112808201527f30297d66756e6374696f6e206c65727028742c612c62297b72657475726e20616112a08201527f2b742a28622d61297d66756e6374696f6e206772616428686173682c782c79296112c08201527f7b636f6e737420683d6861736826333b636f6e737420753d683c323f783a793b6112e08201527f636f6e737420763d683c323f793a783b72657475726e2828682631293d3d3d306113008201527f3f753a2d75292b2828682632293d3d3d303f763a2d76297d66756e6374696f6e6113208201527f207065726c696e4e6f69736528782c79297b636f6e737420583d4d6174682e666113408201527f6c6f6f72287829263235353b636f6e737420593d4d6174682e666c6f6f7228796113608201527f29263235353b782d3d4d6174682e666c6f6f722878293b792d3d4d6174682e666113808201527f6c6f6f722879293b636f6e737420753d666164652878293b636f6e737420763d6113a08201527f666164652879293b636f6e737420613d705b585d2b593b636f6e73742061613d6113c08201527f705b615d3b636f6e73742061623d705b612b315d3b636f6e737420623d705b586113e08201527f2b315d2b593b636f6e73742062613d705b625d3b636f6e73742062623d705b626114008201527f2b315d3b72657475726e206c65727028762c6c65727028752c6772616428705b6114208201527f61615d2c782c79292c6772616428705b62615d2c782d312c7929292c6c6572706114408201527f28752c6772616428705b61625d2c782c792d31292c6772616428705b62625d2c6114608201527f782d312c792d312929297d66756e6374696f6e2067656e65726174655065726c6114808201527f696e4e6f6973652877696474682c6865696768742c637478297b636f6e7374206114a08201527f696d616765446174613d6374782e637265617465496d616765446174612877696114c08201527f6474682c686569676874293b636f6e737420706978656c733d696d61676544616114e08201527f74612e646174613b666f72286c657420793d303b793c6865696768743b792b2b6115008201527f297b666f72286c657420783d303b783c77696474683b782b2b297b636f6e73746115208201527f2076616c75653d4d6174682e616273287065726c696e4e6f69736528782a302e6115408201527f30312c792a2e3033292a323535293b636f6e737420696e6465783d28792a77696115608201527f6474682b78292a383b706978656c735b696e6465785d3d76616c75653b7069786115808201527f656c735b696e6465782b315d3d303b706978656c735b696e6465782b325d3d306115a08201527f3b706978656c735b696e6465782b335d3d3139367d7d6374782e707574496d616115c08201527f67654461746128696d616765446174612c302c30297d636f6e737420703d5b5d6115e08201527f3b666f72286c657420693d303b693c3235363b692b2b297b705b695d3d697d666116008201527f6f72286c657420693d303b693c3235363b692b2b297b636f6e7374206a3d4d616116208201527f74682e666c6f6f72284d6174682e72616e646f6d28292a323536293b5b705b696116408201527f5d2c705b6a5d5d3d5b705b6a5d2c705b695d5d7d666f72286c657420693d303b6116608201527f693c3235363b692b2b297b705b3235362b695d3d705b695d7d6374782e66696c6116808201527f6c5374796c653d2723666666386463273b6374782e66696c6c5265637428302c6116a08201527f302c63616e7661732e77696474682c63616e7661732e686569676874293b64726116c08201527f61774c696e657328293b6164644e6f69736528293b647261774c696e657328296116e08201527f3b636f6e73742074656d7043616e7661733d646f63756d656e742e63726561746117008201527f65456c656d656e74282763616e76617327293b74656d7043616e7661732e77696117208201527f6474683d63616e7661732e77696474683b74656d7043616e7661732e686569676117408201527f68743d63616e7661732e6865696768743b636f6e73742074656d70436f6e74656117608201527f78743d74656d7043616e7661732e676574436f6e746578742827326427293b746117808201527f656d70436f6e746578742e66696c7465723d27626c7572283135707829273b676117a08201527f656e65726174655065726c696e4e6f6973652863616e7661732e77696474682c6117c08201527f63616e7661732e6865696768742c74656d70436f6e74657874293b6374782e676117e08201527f6c6f62616c416c7068613d2e323b6374782e64726177496d6167652874656d706118008201527f43616e7661732c302c30293b636f6e7374206461746155524c3d63616e7661736118208201527f2e746f4461746155524c2827696d6167652f706e6727293b70617065724261636118408201527f6b67726f756e644469762e7374796c652e6261636b67726f756e64496d6167656118608201527f3d6075726c28247b6461746155524c7d29603b70617065724261636b67726f756118808201527f6e644469762e7374796c652e6261636b67726f756e645265706561743d2772656118a08201527f70656174273b70617065724261636b67726f756e644469762e7374796c652e626118c08201527f61636b67726f756e6453697a653d276175746f273b646f63756d656e742e67656118e08201527f74456c656d656e7442794964282770617065722d6261636b67726f756e6427296119008201527f2e7374796c652e6865696768743d676574436f6d70757465645374796c6528646119208201527f6f63756d656e742e676574456c656d656e747342795461674e616d65282768746119408201527f6d6c27295b305d292e6865696768743b646f63756d656e742e676574456c656d6119608201527f656e7442794964282770617065722d6261636b67726f756e6427292e7374796c6119808201527f652e77696474683d676574436f6d70757465645374796c6528646f63756d656e6119a08201527f742e676574456c656d656e747342795461674e616d65282768746d6c27295b306119c08201527f5d292e77696474683b746f67676c654d6f646528297d3b3c2f7363726970743e6119e082015250565b5f6128b9611a0083610858565b91506128c482610902565b611a0082019050919050565b5f6128da826108b0565b91506128e682846108d2565b91506128f1826128ac565b915081905092915050565b7f4e6f7420617574686f72697a65640000000000000000000000000000000000005f82015250565b5f612930600e836105aa565b915061293b826128fc565b602082019050919050565b5f6020820190508181035f83015261295d81612924565b905091905056fea26469706673582212209a08ba48fda0100e0ee4f2ffb5190eb2015e2c1e9d7781c7d6513b2b986f7ee064736f6c634300081a0033",
			"opcodes": "PUSH1 0x80 PUSH1 0x40 MSTORE CALLVALUE DUP1 ISZERO PUSH2 0xF JUMPI PUSH0 DUP1 REVERT JUMPDEST POP PUSH1 0x40 MLOAD PUSH2 0x2B4F CODESIZE SUB DUP1 PUSH2 0x2B4F DUP4 CODECOPY DUP2 DUP2 ADD PUSH1 0x40 MSTORE DUP2 ADD SWAP1 PUSH2 0x31 SWAP2 SWAP1 PUSH2 0x17D JUMP JUMPDEST CALLER PUSH1 0x1 PUSH0 PUSH2 0x100 EXP DUP2 SLOAD DUP2 PUSH20 0xFFFFFFFFFFFFFFFFFFFFFFFFFFFFFFFFFFFFFFFF MUL NOT AND SWAP1 DUP4 PUSH20 0xFFFFFFFFFFFFFFFFFFFFFFFFFFFFFFFFFFFFFFFF AND MUL OR SWAP1 SSTORE POP DUP1 PUSH0 DUP1 PUSH2 0x100 EXP DUP2 SLOAD DUP2 PUSH20 0xFFFFFFFFFFFFFFFFFFFFFFFFFFFFFFFFFFFFFFFF MUL NOT AND SWAP1 DUP4 PUSH20 0xFFFFFFFFFFFFFFFFFFFFFFFFFFFFFFFFFFFFFFFF AND MUL OR SWAP1 SSTORE POP PUSH1 0x1 PUSH1 0x2 PUSH0 PUSH20 0xF1DA6E2D387E9DA611DAC8A7FC587EAA4B010013 PUSH20 0xFFFFFFFFFFFFFFFFFFFFFFFFFFFFFFFFFFFFFFFF AND PUSH20 0xFFFFFFFFFFFFFFFFFFFFFFFFFFFFFFFFFFFFFFFF AND DUP2 MSTORE PUSH1 0x20 ADD SWAP1 DUP2 MSTORE PUSH1 0x20 ADD PUSH0 KECCAK256 PUSH0 PUSH2 0x100 EXP DUP2 SLOAD DUP2 PUSH1 0xFF MUL NOT AND SWAP1 DUP4 ISZERO ISZERO MUL OR SWAP1 SSTORE POP POP PUSH2 0x1A8 JUMP JUMPDEST PUSH0 DUP1 REVERT JUMPDEST PUSH0 PUSH20 0xFFFFFFFFFFFFFFFFFFFFFFFFFFFFFFFFFFFFFFFF DUP3 AND SWAP1 POP SWAP2 SWAP1 POP JUMP JUMPDEST PUSH0 PUSH2 0x14C DUP3 PUSH2 0x123 JUMP JUMPDEST SWAP1 POP SWAP2 SWAP1 POP JUMP JUMPDEST PUSH2 0x15C DUP2 PUSH2 0x142 JUMP JUMPDEST DUP2 EQ PUSH2 0x166 JUMPI PUSH0 DUP1 REVERT JUMPDEST POP JUMP JUMPDEST PUSH0 DUP2 MLOAD SWAP1 POP PUSH2 0x177 DUP2 PUSH2 0x153 JUMP JUMPDEST SWAP3 SWAP2 POP POP JUMP JUMPDEST PUSH0 PUSH1 0x20 DUP3 DUP5 SUB SLT ISZERO PUSH2 0x192 JUMPI PUSH2 0x191 PUSH2 0x11F JUMP JUMPDEST JUMPDEST PUSH0 PUSH2 0x19F DUP5 DUP3 DUP6 ADD PUSH2 0x169 JUMP JUMPDEST SWAP2 POP POP SWAP3 SWAP2 POP POP JUMP JUMPDEST PUSH2 0x299A DUP1 PUSH2 0x1B5 PUSH0 CODECOPY PUSH0 RETURN INVALID PUSH1 0x80 PUSH1 0x40 MSTORE CALLVALUE DUP1 ISZERO PUSH2 0xF JUMPI PUSH0 DUP1 REVERT JUMPDEST POP PUSH1 0x4 CALLDATASIZE LT PUSH2 0x60 JUMPI PUSH0 CALLDATALOAD PUSH1 0xE0 SHR DUP1 PUSH4 0xAE5E739 EQ PUSH2 0x64 JUMPI DUP1 PUSH4 0x620B7303 EQ PUSH2 0x80 JUMPI DUP1 PUSH4 0x7579B796 EQ PUSH2 0x9E JUMPI DUP1 PUSH4 0x85E68531 EQ PUSH2 0xBA JUMPI DUP1 PUSH4 0x87A5B67C EQ PUSH2 0xD6 JUMPI DUP1 PUSH4 0x8DA5CB5B EQ PUSH2 0x106 JUMPI JUMPDEST PUSH0 DUP1 REVERT JUMPDEST PUSH2 0x7E PUSH1 0x4 DUP1 CALLDATASIZE SUB DUP2 ADD SWAP1 PUSH2 0x79 SWAP2 SWAP1 PUSH2 0x575 JUMP JUMPDEST PUSH2 0x124 JUMP JUMPDEST STOP JUMPDEST PUSH2 0x88 PUSH2 0x20B JUMP JUMPDEST PUSH1 0x40 MLOAD PUSH2 0x95 SWAP2 SWAP1 PUSH2 0x610 JUMP JUMPDEST PUSH1 0x40 MLOAD DUP1 SWAP2 SUB SWAP1 RETURN JUMPDEST PUSH2 0xB8 PUSH1 0x4 DUP1 CALLDATASIZE SUB DUP2 ADD SWAP1 PUSH2 0xB3 SWAP2 SWAP1 PUSH2 0x575 JUMP JUMPDEST PUSH2 0x2C0 JUMP JUMPDEST STOP JUMPDEST PUSH2 0xD4 PUSH1 0x4 DUP1 CALLDATASIZE SUB DUP2 ADD SWAP1 PUSH2 0xCF SWAP2 SWAP1 PUSH2 0x575 JUMP JUMPDEST PUSH2 0x3E2 JUMP JUMPDEST STOP JUMPDEST PUSH2 0xF0 PUSH1 0x4 DUP1 CALLDATASIZE SUB DUP2 ADD SWAP1 PUSH2 0xEB SWAP2 SWAP1 PUSH2 0x575 JUMP JUMPDEST PUSH2 0x4C8 JUMP JUMPDEST PUSH1 0x40 MLOAD PUSH2 0xFD SWAP2 SWAP1 PUSH2 0x64A JUMP JUMPDEST PUSH1 0x40 MLOAD DUP1 SWAP2 SUB SWAP1 RETURN JUMPDEST PUSH2 0x10E PUSH2 0x4E5 JUMP JUMPDEST PUSH1 0x40 MLOAD PUSH2 0x11B SWAP2 SWAP1 PUSH2 0x672 JUMP JUMPDEST PUSH1 0x40 MLOAD DUP1 SWAP2 SUB SWAP1 RETURN JUMPDEST PUSH1 0x1 PUSH0 SWAP1 SLOAD SWAP1 PUSH2 0x100 EXP SWAP1 DIV PUSH20 0xFFFFFFFFFFFFFFFFFFFFFFFFFFFFFFFFFFFFFFFF AND PUSH20 0xFFFFFFFFFFFFFFFFFFFFFFFFFFFFFFFFFFFFFFFF AND CALLER PUSH20 0xFFFFFFFFFFFFFFFFFFFFFFFFFFFFFFFFFFFFFFFF AND EQ PUSH2 0x1B3 JUMPI PUSH1 0x40 MLOAD PUSH32 0x8C379A000000000000000000000000000000000000000000000000000000000 DUP2 MSTORE PUSH1 0x4 ADD PUSH2 0x1AA SWAP1 PUSH2 0x6D5 JUMP JUMPDEST PUSH1 0x40 MLOAD DUP1 SWAP2 SUB SWAP1 REVERT JUMPDEST PUSH1 0x1 PUSH1 0x2 PUSH0 DUP4 PUSH20 0xFFFFFFFFFFFFFFFFFFFFFFFFFFFFFFFFFFFFFFFF AND PUSH20 0xFFFFFFFFFFFFFFFFFFFFFFFFFFFFFFFFFFFFFFFF AND DUP2 MSTORE PUSH1 0x20 ADD SWAP1 DUP2 MSTORE PUSH1 0x20 ADD PUSH0 KECCAK256 PUSH0 PUSH2 0x100 EXP DUP2 SLOAD DUP2 PUSH1 0xFF MUL NOT AND SWAP1 DUP4 ISZERO ISZERO MUL OR SWAP1 SSTORE POP POP JUMP JUMPDEST PUSH1 0x60 PUSH0 DUP1 SLOAD SWAP1 PUSH2 0x100 EXP SWAP1 DIV PUSH20 0xFFFFFFFFFFFFFFFFFFFFFFFFFFFFFFFFFFFFFFFF AND PUSH20 0xFFFFFFFFFFFFFFFFFFFFFFFFFFFFFFFFFFFFFFFF AND PUSH4 0xC5532468 PUSH1 0x40 MLOAD DUP2 PUSH4 0xFFFFFFFF AND PUSH1 0xE0 SHL DUP2 MSTORE PUSH1 0x4 ADD PUSH0 PUSH1 0x40 MLOAD DUP1 DUP4 SUB DUP2 DUP7 GAS STATICCALL ISZERO DUP1 ISZERO PUSH2 0x274 JUMPI RETURNDATASIZE PUSH0 DUP1 RETURNDATACOPY RETURNDATASIZE PUSH0 REVERT JUMPDEST POP POP POP POP PUSH1 0x40 MLOAD RETURNDATASIZE PUSH0 DUP3 RETURNDATACOPY RETURNDATASIZE PUSH1 0x1F NOT PUSH1 0x1F DUP3 ADD AND DUP3 ADD DUP1 PUSH1 0x40 MSTORE POP DUP2 ADD SWAP1 PUSH2 0x29C SWAP2 SWAP1 PUSH2 0x811 JUMP JUMPDEST PUSH1 0x40 MLOAD PUSH1 0x20 ADD PUSH2 0x2AC SWAP2 SWAP1 PUSH2 0x28D0 JUMP JUMPDEST PUSH1 0x40 MLOAD PUSH1 0x20 DUP2 DUP4 SUB SUB DUP2 MSTORE SWAP1 PUSH1 0x40 MSTORE SWAP1 POP SWAP1 JUMP JUMPDEST PUSH1 0x1 PUSH0 SWAP1 SLOAD SWAP1 PUSH2 0x100 EXP SWAP1 DIV PUSH20 0xFFFFFFFFFFFFFFFFFFFFFFFFFFFFFFFFFFFFFFFF AND PUSH20 0xFFFFFFFFFFFFFFFFFFFFFFFFFFFFFFFFFFFFFFFF AND CALLER PUSH20 0xFFFFFFFFFFFFFFFFFFFFFFFFFFFFFFFFFFFFFFFF AND EQ DUP1 PUSH2 0x361 JUMPI POP PUSH1 0x2 PUSH0 CALLER PUSH20 0xFFFFFFFFFFFFFFFFFFFFFFFFFFFFFFFFFFFFFFFF AND PUSH20 0xFFFFFFFFFFFFFFFFFFFFFFFFFFFFFFFFFFFFFFFF AND DUP2 MSTORE PUSH1 0x20 ADD SWAP1 DUP2 MSTORE PUSH1 0x20 ADD PUSH0 KECCAK256 PUSH0 SWAP1 SLOAD SWAP1 PUSH2 0x100 EXP SWAP1 DIV PUSH1 0xFF AND JUMPDEST PUSH2 0x3A0 JUMPI PUSH1 0x40 MLOAD PUSH32 0x8C379A000000000000000000000000000000000000000000000000000000000 DUP2 MSTORE PUSH1 0x4 ADD PUSH2 0x397 SWAP1 PUSH2 0x2946 JUMP JUMPDEST PUSH1 0x40 MLOAD DUP1 SWAP2 SUB SWAP1 REVERT JUMPDEST DUP1 PUSH0 DUP1 PUSH2 0x100 EXP DUP2 SLOAD DUP2 PUSH20 0xFFFFFFFFFFFFFFFFFFFFFFFFFFFFFFFFFFFFFFFF MUL NOT AND SWAP1 DUP4 PUSH20 0xFFFFFFFFFFFFFFFFFFFFFFFFFFFFFFFFFFFFFFFF AND MUL OR SWAP1 SSTORE POP POP JUMP JUMPDEST PUSH1 0x1 PUSH0 SWAP1 SLOAD SWAP1 PUSH2 0x100 EXP SWAP1 DIV PUSH20 0xFFFFFFFFFFFFFFFFFFFFFFFFFFFFFFFFFFFFFFFF AND PUSH20 0xFFFFFFFFFFFFFFFFFFFFFFFFFFFFFFFFFFFFFFFF AND CALLER PUSH20 0xFFFFFFFFFFFFFFFFFFFFFFFFFFFFFFFFFFFFFFFF AND EQ PUSH2 0x471 JUMPI PUSH1 0x40 MLOAD PUSH32 0x8C379A000000000000000000000000000000000000000000000000000000000 DUP2 MSTORE PUSH1 0x4 ADD PUSH2 0x468 SWAP1 PUSH2 0x6D5 JUMP JUMPDEST PUSH1 0x40 MLOAD DUP1 SWAP2 SUB SWAP1 REVERT JUMPDEST PUSH0 PUSH1 0x2 PUSH0 DUP4 PUSH20 0xFFFFFFFFFFFFFFFFFFFFFFFFFFFFFFFFFFFFFFFF AND PUSH20 0xFFFFFFFFFFFFFFFFFFFFFFFFFFFFFFFFFFFFFFFF AND DUP2 MSTORE PUSH1 0x20 ADD SWAP1 DUP2 MSTORE PUSH1 0x20 ADD PUSH0 KECCAK256 PUSH0 PUSH2 0x100 EXP DUP2 SLOAD DUP2 PUSH1 0xFF MUL NOT AND SWAP1 DUP4 ISZERO ISZERO MUL OR SWAP1 SSTORE POP POP JUMP JUMPDEST PUSH1 0x2 PUSH1 0x20 MSTORE DUP1 PUSH0 MSTORE PUSH1 0x40 PUSH0 KECCAK256 PUSH0 SWAP2 POP SLOAD SWAP1 PUSH2 0x100 EXP SWAP1 DIV PUSH1 0xFF AND DUP2 JUMP JUMPDEST PUSH1 0x1 PUSH0 SWAP1 SLOAD SWAP1 PUSH2 0x100 EXP SWAP1 DIV PUSH20 0xFFFFFFFFFFFFFFFFFFFFFFFFFFFFFFFFFFFFFFFF AND DUP2 JUMP JUMPDEST PUSH0 PUSH1 0x40 MLOAD SWAP1 POP SWAP1 JUMP JUMPDEST PUSH0 DUP1 REVERT JUMPDEST PUSH0 DUP1 REVERT JUMPDEST PUSH0 PUSH20 0xFFFFFFFFFFFFFFFFFFFFFFFFFFFFFFFFFFFFFFFF DUP3 AND SWAP1 POP SWAP2 SWAP1 POP JUMP JUMPDEST PUSH0 PUSH2 0x544 DUP3 PUSH2 0x51B JUMP JUMPDEST SWAP1 POP SWAP2 SWAP1 POP JUMP JUMPDEST PUSH2 0x554 DUP2 PUSH2 0x53A JUMP JUMPDEST DUP2 EQ PUSH2 0x55E JUMPI PUSH0 DUP1 REVERT JUMPDEST POP JUMP JUMPDEST PUSH0 DUP2 CALLDATALOAD SWAP1 POP PUSH2 0x56F DUP2 PUSH2 0x54B JUMP JUMPDEST SWAP3 SWAP2 POP POP JUMP JUMPDEST PUSH0 PUSH1 0x20 DUP3 DUP5 SUB SLT ISZERO PUSH2 0x58A JUMPI PUSH2 0x589 PUSH2 0x513 JUMP JUMPDEST JUMPDEST PUSH0 PUSH2 0x597 DUP5 DUP3 DUP6 ADD PUSH2 0x561 JUMP JUMPDEST SWAP2 POP POP SWAP3 SWAP2 POP POP JUMP JUMPDEST PUSH0 DUP2 MLOAD SWAP1 POP SWAP2 SWAP1 POP JUMP JUMPDEST PUSH0 DUP3 DUP3 MSTORE PUSH1 0x20 DUP3 ADD SWAP1 POP SWAP3 SWAP2 POP POP JUMP JUMPDEST DUP3 DUP2 DUP4 MCOPY PUSH0 DUP4 DUP4 ADD MSTORE POP POP POP JUMP JUMPDEST PUSH0 PUSH1 0x1F NOT PUSH1 0x1F DUP4 ADD AND SWAP1 POP SWAP2 SWAP1 POP JUMP JUMPDEST PUSH0 PUSH2 0x5E2 DUP3 PUSH2 0x5A0 JUMP JUMPDEST PUSH2 0x5EC DUP2 DUP6 PUSH2 0x5AA JUMP JUMPDEST SWAP4 POP PUSH2 0x5FC DUP2 DUP6 PUSH1 0x20 DUP7 ADD PUSH2 0x5BA JUMP JUMPDEST PUSH2 0x605 DUP2 PUSH2 0x5C8 JUMP JUMPDEST DUP5 ADD SWAP2 POP POP SWAP3 SWAP2 POP POP JUMP JUMPDEST PUSH0 PUSH1 0x20 DUP3 ADD SWAP1 POP DUP2 DUP2 SUB PUSH0 DUP4 ADD MSTORE PUSH2 0x628 DUP2 DUP5 PUSH2 0x5D8 JUMP JUMPDEST SWAP1 POP SWAP3 SWAP2 POP POP JUMP JUMPDEST PUSH0 DUP2 ISZERO ISZERO SWAP1 POP SWAP2 SWAP1 POP JUMP JUMPDEST PUSH2 0x644 DUP2 PUSH2 0x630 JUMP JUMPDEST DUP3 MSTORE POP POP JUMP JUMPDEST PUSH0 PUSH1 0x20 DUP3 ADD SWAP1 POP PUSH2 0x65D PUSH0 DUP4 ADD DUP5 PUSH2 0x63B JUMP JUMPDEST SWAP3 SWAP2 POP POP JUMP JUMPDEST PUSH2 0x66C DUP2 PUSH2 0x53A JUMP JUMPDEST DUP3 MSTORE POP POP JUMP JUMPDEST PUSH0 PUSH1 0x20 DUP3 ADD SWAP1 POP PUSH2 0x685 PUSH0 DUP4 ADD DUP5 PUSH2 0x663 JUMP JUMPDEST SWAP3 SWAP2 POP POP JUMP JUMPDEST PUSH32 0x4E6F7420746865206F776E657200000000000000000000000000000000000000 PUSH0 DUP3 ADD MSTORE POP JUMP JUMPDEST PUSH0 PUSH2 0x6BF PUSH1 0xD DUP4 PUSH2 0x5AA JUMP JUMPDEST SWAP2 POP PUSH2 0x6CA DUP3 PUSH2 0x68B JUMP JUMPDEST PUSH1 0x20 DUP3 ADD SWAP1 POP SWAP2 SWAP1 POP JUMP JUMPDEST PUSH0 PUSH1 0x20 DUP3 ADD SWAP1 POP DUP2 DUP2 SUB PUSH0 DUP4 ADD MSTORE PUSH2 0x6EC DUP2 PUSH2 0x6B3 JUMP JUMPDEST SWAP1 POP SWAP2 SWAP1 POP JUMP JUMPDEST PUSH0 DUP1 REVERT JUMPDEST PUSH0 DUP1 REVERT JUMPDEST PUSH32 0x4E487B7100000000000000000000000000000000000000000000000000000000 PUSH0 MSTORE PUSH1 0x41 PUSH1 0x4 MSTORE PUSH1 0x24 PUSH0 REVERT JUMPDEST PUSH2 0x731 DUP3 PUSH2 0x5C8 JUMP JUMPDEST DUP2 ADD DUP2 DUP2 LT PUSH8 0xFFFFFFFFFFFFFFFF DUP3 GT OR ISZERO PUSH2 0x750 JUMPI PUSH2 0x74F PUSH2 0x6FB JUMP JUMPDEST JUMPDEST DUP1 PUSH1 0x40 MSTORE POP POP POP JUMP JUMPDEST PUSH0 PUSH2 0x762 PUSH2 0x50A JUMP JUMPDEST SWAP1 POP PUSH2 0x76E DUP3 DUP3 PUSH2 0x728 JUMP JUMPDEST SWAP2 SWAP1 POP JUMP JUMPDEST PUSH0 PUSH8 0xFFFFFFFFFFFFFFFF DUP3 GT ISZERO PUSH2 0x78D JUMPI PUSH2 0x78C PUSH2 0x6FB JUMP JUMPDEST JUMPDEST PUSH2 0x796 DUP3 PUSH2 0x5C8 JUMP JUMPDEST SWAP1 POP PUSH1 0x20 DUP2 ADD SWAP1 POP SWAP2 SWAP1 POP JUMP JUMPDEST PUSH0 PUSH2 0x7B5 PUSH2 0x7B0 DUP5 PUSH2 0x773 JUMP JUMPDEST PUSH2 0x759 JUMP JUMPDEST SWAP1 POP DUP3 DUP2 MSTORE PUSH1 0x20 DUP2 ADD DUP5 DUP5 DUP5 ADD GT ISZERO PUSH2 0x7D1 JUMPI PUSH2 0x7D0 PUSH2 0x6F7 JUMP JUMPDEST JUMPDEST PUSH2 0x7DC DUP5 DUP3 DUP6 PUSH2 0x5BA JUMP JUMPDEST POP SWAP4 SWAP3 POP POP POP JUMP JUMPDEST PUSH0 DUP3 PUSH1 0x1F DUP4 ADD SLT PUSH2 0x7F8 JUMPI PUSH2 0x7F7 PUSH2 0x6F3 JUMP JUMPDEST JUMPDEST DUP2 MLOAD PUSH2 0x808 DUP5 DUP3 PUSH1 0x20 DUP7 ADD PUSH2 0x7A3 JUMP JUMPDEST SWAP2 POP POP SWAP3 SWAP2 POP POP JUMP JUMPDEST PUSH0 PUSH1 0x20 DUP3 DUP5 SUB SLT ISZERO PUSH2 0x826 JUMPI PUSH2 0x825 PUSH2 0x513 JUMP JUMPDEST JUMPDEST PUSH0 DUP3 ADD MLOAD PUSH8 0xFFFFFFFFFFFFFFFF DUP2 GT ISZERO PUSH2 0x843 JUMPI PUSH2 0x842 PUSH2 0x517 JUMP JUMPDEST JUMPDEST PUSH2 0x84F DUP5 DUP3 DUP6 ADD PUSH2 0x7E4 JUMP JUMPDEST SWAP2 POP POP SWAP3 SWAP2 POP POP JUMP JUMPDEST PUSH0 DUP2 SWAP1 POP SWAP3 SWAP2 POP POP JUMP JUMPDEST PUSH32 0x3C73637269707420747970653D27746578742F6A617661736372697074273E6C PUSH0 DUP3 ADD MSTORE PUSH32 0x6574206D6F64653D000000000000000000000000000000000000000000000000 PUSH1 0x20 DUP3 ADD MSTORE POP JUMP JUMPDEST PUSH0 PUSH2 0x8BC PUSH1 0x28 DUP4 PUSH2 0x858 JUMP JUMPDEST SWAP2 POP PUSH2 0x8C7 DUP3 PUSH2 0x862 JUMP JUMPDEST PUSH1 0x28 DUP3 ADD SWAP1 POP SWAP2 SWAP1 POP JUMP JUMPDEST PUSH0 PUSH2 0x8DC DUP3 PUSH2 0x5A0 JUMP JUMPDEST PUSH2 0x8E6 DUP2 DUP6 PUSH2 0x858 JUMP JUMPDEST SWAP4 POP PUSH2 0x8F6 DUP2 DUP6 PUSH1 0x20 DUP7 ADD PUSH2 0x5BA JUMP JUMPDEST DUP1 DUP5 ADD SWAP2 POP POP SWAP3 SWAP2 POP POP JUMP JUMPDEST PUSH32 0x3B66756E6374696F6E20757064617465436C6F636B28297B636F6E7374206E6F PUSH0 DUP3 ADD MSTORE PUSH32 0x773D6E6577204461746528293B636F6E737420686F7572733D537472696E6728 PUSH1 0x20 DUP3 ADD MSTORE PUSH32 0x6E6F772E676574486F7572732829292E706164537461727428322C273027293B PUSH1 0x40 DUP3 ADD MSTORE PUSH32 0x636F6E7374206D696E757465733D537472696E67286E6F772E6765744D696E75 PUSH1 0x60 DUP3 ADD MSTORE PUSH32 0x7465732829292E706164537461727428322C273027293B636F6E737420736563 PUSH1 0x80 DUP3 ADD MSTORE PUSH32 0x6F6E64733D537472696E67286E6F772E6765745365636F6E64732829292E7061 PUSH1 0xA0 DUP3 ADD MSTORE PUSH32 0x64537461727428322C273027293B636F6E7374206D6F6E74684E616D65733D5B PUSH1 0xC0 DUP3 ADD MSTORE PUSH32 0x274A616E75617279272C274665627275617279272C274D61726368272C274170 PUSH1 0xE0 DUP3 ADD MSTORE PUSH32 0x72696C272C274D6179272C274A756E65272C274A756C79272C27417567757374 PUSH2 0x100 DUP3 ADD MSTORE PUSH32 0x272C2753657074656D626572272C274F63746F626572272C274E6F76656D6265 PUSH2 0x120 DUP3 ADD MSTORE PUSH32 0x72272C27446563656D626572275D3B636F6E7374206D6F6E74683D6D6F6E7468 PUSH2 0x140 DUP3 ADD MSTORE PUSH32 0x4E616D65735B6E6F772E6765744D6F6E746828295D3B636F6E7374206461793D PUSH2 0x160 DUP3 ADD MSTORE PUSH32 0x6E6F772E6765744461746528293B636F6E737420796561723D6E6F772E676574 PUSH2 0x180 DUP3 ADD MSTORE PUSH32 0x46756C6C5965617228293B636F6E7374207375666669783D28646179293D3E7B PUSH2 0x1A0 DUP3 ADD MSTORE PUSH32 0x6966286461793E3326266461793C32312972657475726E277468273B73776974 PUSH2 0x1C0 DUP3 ADD MSTORE PUSH32 0x636828646179253130297B6361736520313A72657475726E277374273B636173 PUSH2 0x1E0 DUP3 ADD MSTORE PUSH32 0x6520323A72657475726E276E64273B6361736520333A72657475726E27726427 PUSH2 0x200 DUP3 ADD MSTORE PUSH32 0x3B64656661756C743A72657475726E277468277D7D3B636F6E73742066756C6C PUSH2 0x220 DUP3 ADD MSTORE PUSH32 0x446174653D60247B6D6F6E74687D20247B6461797D247B737566666978286461 PUSH2 0x240 DUP3 ADD MSTORE PUSH32 0x79297D2C20247B796561727D20247B686F7572737D3A247B6D696E757465737D PUSH2 0x260 DUP3 ADD MSTORE PUSH32 0x3A247B7365636F6E64737D603B646F63756D656E742E717565727953656C6563 PUSH2 0x280 DUP3 ADD MSTORE PUSH32 0x746F7228272E63757272656E742D74696D6527292E74657874436F6E74656E74 PUSH2 0x2A0 DUP3 ADD MSTORE PUSH32 0x3D66756C6C446174657D736574496E74657276616C28757064617465436C6F63 PUSH2 0x2C0 DUP3 ADD MSTORE PUSH32 0x6B2C31303030293B757064617465436C6F636B28293B646F63756D656E742E61 PUSH2 0x2E0 DUP3 ADD MSTORE PUSH32 0x64644576656E744C697374656E65722827444F4D436F6E74656E744C6F616465 PUSH2 0x300 DUP3 ADD MSTORE PUSH32 0x64272C66756E6374696F6E28297B646F63756D656E742E676574456C656D656E PUSH2 0x320 DUP3 ADD MSTORE PUSH32 0x74427949642827706F73742D7772617070657227292E7374796C652E64697370 PUSH2 0x340 DUP3 ADD MSTORE PUSH32 0x6C61793D27626C6F636B277D293B66756E6374696F6E207365744461726B2829 PUSH2 0x360 DUP3 ADD MSTORE PUSH32 0x7B646F63756D656E742E676574456C656D656E7442794964282770617065722D PUSH2 0x380 DUP3 ADD MSTORE PUSH32 0x6261636B67726F756E6427292E7374796C652E66696C7465723D27696E766572 PUSH2 0x3A0 DUP3 ADD MSTORE PUSH32 0x74283129273B646F63756D656E742E676574456C656D656E744279496428276D PUSH2 0x3C0 DUP3 ADD MSTORE PUSH32 0x6F64652D73776974636827292E7374796C652E66696C7465723D27696E766572 PUSH2 0x3E0 DUP3 ADD MSTORE PUSH32 0x74282E373529273B646F63756D656E742E717565727953656C6563746F72416C PUSH2 0x400 DUP3 ADD MSTORE PUSH32 0x6C28272E6C696768742D7465787427292E666F72456163682866756E6374696F PUSH2 0x420 DUP3 ADD MSTORE PUSH32 0x6E28656C656D656E74297B656C656D656E742E636C6173734C6973742E72656D PUSH2 0x440 DUP3 ADD MSTORE PUSH32 0x6F766528276C696768742D7465787427293B656C656D656E742E636C6173734C PUSH2 0x460 DUP3 ADD MSTORE PUSH32 0x6973742E61646428276461726B2D7465787427297D293B646F63756D656E742E PUSH2 0x480 DUP3 ADD MSTORE PUSH32 0x717565727953656C6563746F72416C6C28272E6C696768742D746578742D3227 PUSH2 0x4A0 DUP3 ADD MSTORE PUSH32 0x292E666F72456163682866756E6374696F6E28656C656D656E74297B656C656D PUSH2 0x4C0 DUP3 ADD MSTORE PUSH32 0x656E742E636C6173734C6973742E72656D6F766528276C696768742D74657874 PUSH2 0x4E0 DUP3 ADD MSTORE PUSH32 0x2D3227293B656C656D656E742E636C6173734C6973742E61646428276461726B PUSH2 0x500 DUP3 ADD MSTORE PUSH32 0x2D746578742D3227297D293B646F63756D656E742E717565727953656C656374 PUSH2 0x520 DUP3 ADD MSTORE PUSH32 0x6F72416C6C28272E6C696768742D746578742D3327292E666F72456163682866 PUSH2 0x540 DUP3 ADD MSTORE PUSH32 0x756E6374696F6E28656C656D656E74297B656C656D656E742E636C6173734C69 PUSH2 0x560 DUP3 ADD MSTORE PUSH32 0x73742E72656D6F766528276C696768742D746578742D3327293B656C656D656E PUSH2 0x580 DUP3 ADD MSTORE PUSH32 0x742E636C6173734C6973742E61646428276461726B2D746578742D3327297D29 PUSH2 0x5A0 DUP3 ADD MSTORE PUSH32 0x3B646F63756D656E742E717565727953656C6563746F72416C6C28272E6C6967 PUSH2 0x5C0 DUP3 ADD MSTORE PUSH32 0x68742D746578742D3427292E666F72456163682866756E6374696F6E28656C65 PUSH2 0x5E0 DUP3 ADD MSTORE PUSH32 0x6D656E74297B656C656D656E742E636C6173734C6973742E72656D6F76652827 PUSH2 0x600 DUP3 ADD MSTORE PUSH32 0x6C696768742D746578742D3427293B656C656D656E742E636C6173734C697374 PUSH2 0x620 DUP3 ADD MSTORE PUSH32 0x2E61646428276461726B2D746578742D3427297D293B646F63756D656E742E71 PUSH2 0x640 DUP3 ADD MSTORE PUSH32 0x7565727953656C6563746F72416C6C28272E6C696768742D626727292E666F72 PUSH2 0x660 DUP3 ADD MSTORE PUSH32 0x456163682866756E6374696F6E28656C656D656E74297B656C656D656E742E63 PUSH2 0x680 DUP3 ADD MSTORE PUSH32 0x6C6173734C6973742E72656D6F766528276C696768742D626727293B656C656D PUSH2 0x6A0 DUP3 ADD MSTORE PUSH32 0x656E742E636C6173734C6973742E61646428276461726B2D626727297D293B64 PUSH2 0x6C0 DUP3 ADD MSTORE PUSH32 0x6F63756D656E742E717565727953656C6563746F72416C6C28272E6C69676874 PUSH2 0x6E0 DUP3 ADD MSTORE PUSH32 0x2D62672D3227292E666F72456163682866756E6374696F6E28656C656D656E74 PUSH2 0x700 DUP3 ADD MSTORE PUSH32 0x297B656C656D656E742E636C6173734C6973742E72656D6F766528276C696768 PUSH2 0x720 DUP3 ADD MSTORE PUSH32 0x742D62672D3227293B656C656D656E742E636C6173734C6973742E6164642827 PUSH2 0x740 DUP3 ADD MSTORE PUSH32 0x6461726B2D62672D3227297D293B646F63756D656E742E717565727953656C65 PUSH2 0x760 DUP3 ADD MSTORE PUSH32 0x63746F72416C6C28272E6C696768742D626F726465722D3227292E666F724561 PUSH2 0x780 DUP3 ADD MSTORE PUSH32 0x63682866756E6374696F6E28656C656D656E74297B656C656D656E742E636C61 PUSH2 0x7A0 DUP3 ADD MSTORE PUSH32 0x73734C6973742E72656D6F766528276C696768742D626F726465722D3227293B PUSH2 0x7C0 DUP3 ADD MSTORE PUSH32 0x656C656D656E742E636C6173734C6973742E61646428276461726B2D626F7264 PUSH2 0x7E0 DUP3 ADD MSTORE PUSH32 0x65722D3227297D293B646F63756D656E742E717565727953656C6563746F7241 PUSH2 0x800 DUP3 ADD MSTORE PUSH32 0x6C6C28272E6C696768742D626F7264657227292E666F72456163682866756E63 PUSH2 0x820 DUP3 ADD MSTORE PUSH32 0x74696F6E28656C656D656E74297B656C656D656E742E636C6173734C6973742E PUSH2 0x840 DUP3 ADD MSTORE PUSH32 0x72656D6F766528276C696768742D626F7264657227293B656C656D656E742E63 PUSH2 0x860 DUP3 ADD MSTORE PUSH32 0x6C6173734C6973742E61646428276461726B2D626F7264657227297D293B646F PUSH2 0x880 DUP3 ADD MSTORE PUSH32 0x63756D656E742E717565727953656C6563746F72416C6C28272E6C696768742D PUSH2 0x8A0 DUP3 ADD MSTORE PUSH32 0x6C696E6B27292E666F72456163682866756E6374696F6E28656C656D656E7429 PUSH2 0x8C0 DUP3 ADD MSTORE PUSH32 0x7B656C656D656E742E636C6173734C6973742E72656D6F766528276C69676874 PUSH2 0x8E0 DUP3 ADD MSTORE PUSH32 0x2D6C696E6B27293B656C656D656E742E636C6173734C6973742E616464282764 PUSH2 0x900 DUP3 ADD MSTORE PUSH32 0x61726B2D6C696E6B27297D297D66756E6374696F6E207365744C696768742829 PUSH2 0x920 DUP3 ADD MSTORE PUSH32 0x7B646F63756D656E742E676574456C656D656E7442794964282770617065722D PUSH2 0x940 DUP3 ADD MSTORE PUSH32 0x6261636B67726F756E6427292E7374796C652E66696C7465723D27696E766572 PUSH2 0x960 DUP3 ADD MSTORE PUSH32 0x74283029273B646F63756D656E742E676574456C656D656E744279496428276D PUSH2 0x980 DUP3 ADD MSTORE PUSH32 0x6F64652D73776974636827292E7374796C652E66696C7465723D27696E766572 PUSH2 0x9A0 DUP3 ADD MSTORE PUSH32 0x74283029273B646F63756D656E742E717565727953656C6563746F72416C6C28 PUSH2 0x9C0 DUP3 ADD MSTORE PUSH32 0x272E6461726B2D7465787427292E666F72456163682866756E6374696F6E2865 PUSH2 0x9E0 DUP3 ADD MSTORE PUSH32 0x6C656D656E74297B656C656D656E742E636C6173734C6973742E72656D6F7665 PUSH2 0xA00 DUP3 ADD MSTORE PUSH32 0x28276461726B2D7465787427293B656C656D656E742E636C6173734C6973742E PUSH2 0xA20 DUP3 ADD MSTORE PUSH32 0x61646428276C696768742D7465787427297D293B646F63756D656E742E717565 PUSH2 0xA40 DUP3 ADD MSTORE PUSH32 0x727953656C6563746F72416C6C28272E6461726B2D746578742D3227292E666F PUSH2 0xA60 DUP3 ADD MSTORE PUSH32 0x72456163682866756E6374696F6E28656C656D656E74297B656C656D656E742E PUSH2 0xA80 DUP3 ADD MSTORE PUSH32 0x636C6173734C6973742E72656D6F766528276461726B2D746578742D3227293B PUSH2 0xAA0 DUP3 ADD MSTORE PUSH32 0x656C656D656E742E636C6173734C6973742E61646428276C696768742D746578 PUSH2 0xAC0 DUP3 ADD MSTORE PUSH32 0x742D3227297D293B646F63756D656E742E717565727953656C6563746F72416C PUSH2 0xAE0 DUP3 ADD MSTORE PUSH32 0x6C28272E6461726B2D746578742D3327292E666F72456163682866756E637469 PUSH2 0xB00 DUP3 ADD MSTORE PUSH32 0x6F6E28656C656D656E74297B656C656D656E742E636C6173734C6973742E7265 PUSH2 0xB20 DUP3 ADD MSTORE PUSH32 0x6D6F766528276461726B2D746578742D3327293B656C656D656E742E636C6173 PUSH2 0xB40 DUP3 ADD MSTORE PUSH32 0x734C6973742E61646428276C696768742D746578742D3327297D293B646F6375 PUSH2 0xB60 DUP3 ADD MSTORE PUSH32 0x6D656E742E717565727953656C6563746F72416C6C28272E6461726B2D746578 PUSH2 0xB80 DUP3 ADD MSTORE PUSH32 0x742D3427292E666F72456163682866756E6374696F6E28656C656D656E74297B PUSH2 0xBA0 DUP3 ADD MSTORE PUSH32 0x656C656D656E742E636C6173734C6973742E72656D6F766528276461726B2D74 PUSH2 0xBC0 DUP3 ADD MSTORE PUSH32 0x6578742D3427293B656C656D656E742E636C6173734C6973742E61646428276C PUSH2 0xBE0 DUP3 ADD MSTORE PUSH32 0x696768742D746578742D3427297D293B646F63756D656E742E71756572795365 PUSH2 0xC00 DUP3 ADD MSTORE PUSH32 0x6C6563746F72416C6C28272E6461726B2D626727292E666F7245616368286675 PUSH2 0xC20 DUP3 ADD MSTORE PUSH32 0x6E6374696F6E28656C656D656E74297B656C656D656E742E636C6173734C6973 PUSH2 0xC40 DUP3 ADD MSTORE PUSH32 0x742E72656D6F766528276461726B2D626727293B656C656D656E742E636C6173 PUSH2 0xC60 DUP3 ADD MSTORE PUSH32 0x734C6973742E61646428276C696768742D626727297D293B646F63756D656E74 PUSH2 0xC80 DUP3 ADD MSTORE PUSH32 0x2E717565727953656C6563746F72416C6C28272E6461726B2D62672D3227292E PUSH2 0xCA0 DUP3 ADD MSTORE PUSH32 0x666F72456163682866756E6374696F6E28656C656D656E74297B656C656D656E PUSH2 0xCC0 DUP3 ADD MSTORE PUSH32 0x742E636C6173734C6973742E72656D6F766528276461726B2D62672D3227293B PUSH2 0xCE0 DUP3 ADD MSTORE PUSH32 0x656C656D656E742E636C6173734C6973742E61646428276C696768742D62672D PUSH2 0xD00 DUP3 ADD MSTORE PUSH32 0x3227297D293B646F63756D656E742E717565727953656C6563746F72416C6C28 PUSH2 0xD20 DUP3 ADD MSTORE PUSH32 0x272E6461726B2D626F726465722D3227292E666F72456163682866756E637469 PUSH2 0xD40 DUP3 ADD MSTORE PUSH32 0x6F6E28656C656D656E74297B656C656D656E742E636C6173734C6973742E7265 PUSH2 0xD60 DUP3 ADD MSTORE PUSH32 0x6D6F766528276461726B2D626F726465722D3227293B656C656D656E742E636C PUSH2 0xD80 DUP3 ADD MSTORE PUSH32 0x6173734C6973742E61646428276C696768742D626F726465722D3227297D293B PUSH2 0xDA0 DUP3 ADD MSTORE PUSH32 0x646F63756D656E742E717565727953656C6563746F72416C6C28272E6461726B PUSH2 0xDC0 DUP3 ADD MSTORE PUSH32 0x2D626F7264657227292E666F72456163682866756E6374696F6E28656C656D65 PUSH2 0xDE0 DUP3 ADD MSTORE PUSH32 0x6E74297B656C656D656E742E636C6173734C6973742E72656D6F766528276461 PUSH2 0xE00 DUP3 ADD MSTORE PUSH32 0x726B2D626F7264657227293B656C656D656E742E636C6173734C6973742E6164 PUSH2 0xE20 DUP3 ADD MSTORE PUSH32 0x6428276C696768742D626F7264657227297D293B646F63756D656E742E717565 PUSH2 0xE40 DUP3 ADD MSTORE PUSH32 0x727953656C6563746F72416C6C28272E6461726B2D6C696E6B27292E666F7245 PUSH2 0xE60 DUP3 ADD MSTORE PUSH32 0x6163682866756E6374696F6E28656C656D656E74297B656C656D656E742E636C PUSH2 0xE80 DUP3 ADD MSTORE PUSH32 0x6173734C6973742E72656D6F766528276461726B2D6C696E6B27293B656C656D PUSH2 0xEA0 DUP3 ADD MSTORE PUSH32 0x656E742E636C6173734C6973742E61646428276C696768742D6C696E6B27297D PUSH2 0xEC0 DUP3 ADD MSTORE PUSH32 0x297D77696E646F772E6F6E726573697A653D66756E6374696F6E28297B6C6F63 PUSH2 0xEE0 DUP3 ADD MSTORE PUSH32 0x6174696F6E2E72656C6F616428297D66756E6374696F6E20746F67676C654D6F PUSH2 0xF00 DUP3 ADD MSTORE PUSH32 0x646528297B6966286D6F64653D3D3D30297B6D6F64653D313B7365744461726B PUSH2 0xF20 DUP3 ADD MSTORE PUSH32 0x28297D656C73657B6D6F64653D303B7365744C6967687428297D646F63756D65 PUSH2 0xF40 DUP3 ADD MSTORE PUSH32 0x6E742E676574456C656D656E744279496428276D6F64652D7377697463682729 PUSH2 0xF60 DUP3 ADD MSTORE PUSH32 0x2E626C757228297D77696E646F772E6F6E6C6F61643D66756E6374696F6E2829 PUSH2 0xF80 DUP3 ADD MSTORE PUSH32 0x7B636F6E73742063616E7661733D646F63756D656E742E676574456C656D656E PUSH2 0xFA0 DUP3 ADD MSTORE PUSH32 0x744279496428276E6F746570616443616E76617327293B636F6E737420637478 PUSH2 0xFC0 DUP3 ADD MSTORE PUSH32 0x3D63616E7661732E676574436F6E746578742827326427293B636F6E73742070 PUSH2 0xFE0 DUP3 ADD MSTORE PUSH32 0x617065724261636B67726F756E644469763D646F63756D656E742E676574456C PUSH2 0x1000 DUP3 ADD MSTORE PUSH32 0x656D656E7442794964282770617065722D6261636B67726F756E6427293B6361 PUSH2 0x1020 DUP3 ADD MSTORE PUSH32 0x6E7661732E77696474683D77696E646F772E696E6E657257696474683B63616E PUSH2 0x1040 DUP3 ADD MSTORE PUSH32 0x7661732E6865696768743D77696E646F772E696E6E65724865696768743B636F PUSH2 0x1060 DUP3 ADD MSTORE PUSH32 0x6E7374206C696E6553706163696E673D32343B636F6E7374206C696E65436F6C PUSH2 0x1080 DUP3 ADD MSTORE PUSH32 0x6F723D2723643364336433273B66756E6374696F6E20647261774C696E657328 PUSH2 0x10A0 DUP3 ADD MSTORE PUSH32 0x297B6374782E6C696E6557696474683D313B6374782E7374726F6B655374796C PUSH2 0x10C0 DUP3 ADD MSTORE PUSH32 0x653D6C696E65436F6C6F723B666F72286C657420793D6C696E6553706163696E PUSH2 0x10E0 DUP3 ADD MSTORE PUSH32 0x673B793C63616E7661732E6865696768743B792B3D6C696E6553706163696E67 PUSH2 0x1100 DUP3 ADD MSTORE PUSH32 0x297B6374782E626567696E5061746828293B6374782E6D6F7665546F28302C79 PUSH2 0x1120 DUP3 ADD MSTORE PUSH32 0x293B6374782E6C696E65546F2863616E7661732E77696474682C79293B637478 PUSH2 0x1140 DUP3 ADD MSTORE PUSH32 0x2E7374726F6B6528297D7D66756E6374696F6E206164644E6F69736528297B63 PUSH2 0x1160 DUP3 ADD MSTORE PUSH32 0x6F6E737420696D616765446174613D6374782E676574496D6167654461746128 PUSH2 0x1180 DUP3 ADD MSTORE PUSH32 0x302C302C63616E7661732E77696474682C63616E7661732E686569676874293B PUSH2 0x11A0 DUP3 ADD MSTORE PUSH32 0x636F6E737420706978656C733D696D616765446174612E646174613B666F7228 PUSH2 0x11C0 DUP3 ADD MSTORE PUSH32 0x6C657420693D303B693C706978656C732E6C656E6774683B692B3D34297B636F PUSH2 0x11E0 DUP3 ADD MSTORE PUSH32 0x6E7374206E6F6973653D4D6174682E72616E646F6D28292A33302D31353B7069 PUSH2 0x1200 DUP3 ADD MSTORE PUSH32 0x78656C735B695D2B3D6E6F6973653B706978656C735B692B315D2B3D6E6F6973 PUSH2 0x1220 DUP3 ADD MSTORE PUSH32 0x653B706978656C735B692B325D2B3D6E6F6973657D6374782E707574496D6167 PUSH2 0x1240 DUP3 ADD MSTORE PUSH32 0x654461746128696D616765446174612C302C30297D66756E6374696F6E206661 PUSH2 0x1260 DUP3 ADD MSTORE PUSH32 0x64652874297B72657475726E20742A742A742A28742A28742A362D3135292B31 PUSH2 0x1280 DUP3 ADD MSTORE PUSH32 0x30297D66756E6374696F6E206C65727028742C612C62297B72657475726E2061 PUSH2 0x12A0 DUP3 ADD MSTORE PUSH32 0x2B742A28622D61297D66756E6374696F6E206772616428686173682C782C7929 PUSH2 0x12C0 DUP3 ADD MSTORE PUSH32 0x7B636F6E737420683D6861736826333B636F6E737420753D683C323F783A793B PUSH2 0x12E0 DUP3 ADD MSTORE PUSH32 0x636F6E737420763D683C323F793A783B72657475726E2828682631293D3D3D30 PUSH2 0x1300 DUP3 ADD MSTORE PUSH32 0x3F753A2D75292B2828682632293D3D3D303F763A2D76297D66756E6374696F6E PUSH2 0x1320 DUP3 ADD MSTORE PUSH32 0x207065726C696E4E6F69736528782C79297B636F6E737420583D4D6174682E66 PUSH2 0x1340 DUP3 ADD MSTORE PUSH32 0x6C6F6F72287829263235353B636F6E737420593D4D6174682E666C6F6F722879 PUSH2 0x1360 DUP3 ADD MSTORE PUSH32 0x29263235353B782D3D4D6174682E666C6F6F722878293B792D3D4D6174682E66 PUSH2 0x1380 DUP3 ADD MSTORE PUSH32 0x6C6F6F722879293B636F6E737420753D666164652878293B636F6E737420763D PUSH2 0x13A0 DUP3 ADD MSTORE PUSH32 0x666164652879293B636F6E737420613D705B585D2B593B636F6E73742061613D PUSH2 0x13C0 DUP3 ADD MSTORE PUSH32 0x705B615D3B636F6E73742061623D705B612B315D3B636F6E737420623D705B58 PUSH2 0x13E0 DUP3 ADD MSTORE PUSH32 0x2B315D2B593B636F6E73742062613D705B625D3B636F6E73742062623D705B62 PUSH2 0x1400 DUP3 ADD MSTORE PUSH32 0x2B315D3B72657475726E206C65727028762C6C65727028752C6772616428705B PUSH2 0x1420 DUP3 ADD MSTORE PUSH32 0x61615D2C782C79292C6772616428705B62615D2C782D312C7929292C6C657270 PUSH2 0x1440 DUP3 ADD MSTORE PUSH32 0x28752C6772616428705B61625D2C782C792D31292C6772616428705B62625D2C PUSH2 0x1460 DUP3 ADD MSTORE PUSH32 0x782D312C792D312929297D66756E6374696F6E2067656E65726174655065726C PUSH2 0x1480 DUP3 ADD MSTORE PUSH32 0x696E4E6F6973652877696474682C6865696768742C637478297B636F6E737420 PUSH2 0x14A0 DUP3 ADD MSTORE PUSH32 0x696D616765446174613D6374782E637265617465496D61676544617461287769 PUSH2 0x14C0 DUP3 ADD MSTORE PUSH32 0x6474682C686569676874293B636F6E737420706978656C733D696D6167654461 PUSH2 0x14E0 DUP3 ADD MSTORE PUSH32 0x74612E646174613B666F72286C657420793D303B793C6865696768743B792B2B PUSH2 0x1500 DUP3 ADD MSTORE PUSH32 0x297B666F72286C657420783D303B783C77696474683B782B2B297B636F6E7374 PUSH2 0x1520 DUP3 ADD MSTORE PUSH32 0x2076616C75653D4D6174682E616273287065726C696E4E6F69736528782A302E PUSH2 0x1540 DUP3 ADD MSTORE PUSH32 0x30312C792A2E3033292A323535293B636F6E737420696E6465783D28792A7769 PUSH2 0x1560 DUP3 ADD MSTORE PUSH32 0x6474682B78292A383B706978656C735B696E6465785D3D76616C75653B706978 PUSH2 0x1580 DUP3 ADD MSTORE PUSH32 0x656C735B696E6465782B315D3D303B706978656C735B696E6465782B325D3D30 PUSH2 0x15A0 DUP3 ADD MSTORE PUSH32 0x3B706978656C735B696E6465782B335D3D3139367D7D6374782E707574496D61 PUSH2 0x15C0 DUP3 ADD MSTORE PUSH32 0x67654461746128696D616765446174612C302C30297D636F6E737420703D5B5D PUSH2 0x15E0 DUP3 ADD MSTORE PUSH32 0x3B666F72286C657420693D303B693C3235363B692B2B297B705B695D3D697D66 PUSH2 0x1600 DUP3 ADD MSTORE PUSH32 0x6F72286C657420693D303B693C3235363B692B2B297B636F6E7374206A3D4D61 PUSH2 0x1620 DUP3 ADD MSTORE PUSH32 0x74682E666C6F6F72284D6174682E72616E646F6D28292A323536293B5B705B69 PUSH2 0x1640 DUP3 ADD MSTORE PUSH32 0x5D2C705B6A5D5D3D5B705B6A5D2C705B695D5D7D666F72286C657420693D303B PUSH2 0x1660 DUP3 ADD MSTORE PUSH32 0x693C3235363B692B2B297B705B3235362B695D3D705B695D7D6374782E66696C PUSH2 0x1680 DUP3 ADD MSTORE PUSH32 0x6C5374796C653D2723666666386463273B6374782E66696C6C5265637428302C PUSH2 0x16A0 DUP3 ADD MSTORE PUSH32 0x302C63616E7661732E77696474682C63616E7661732E686569676874293B6472 PUSH2 0x16C0 DUP3 ADD MSTORE PUSH32 0x61774C696E657328293B6164644E6F69736528293B647261774C696E65732829 PUSH2 0x16E0 DUP3 ADD MSTORE PUSH32 0x3B636F6E73742074656D7043616E7661733D646F63756D656E742E6372656174 PUSH2 0x1700 DUP3 ADD MSTORE PUSH32 0x65456C656D656E74282763616E76617327293B74656D7043616E7661732E7769 PUSH2 0x1720 DUP3 ADD MSTORE PUSH32 0x6474683D63616E7661732E77696474683B74656D7043616E7661732E68656967 PUSH2 0x1740 DUP3 ADD MSTORE PUSH32 0x68743D63616E7661732E6865696768743B636F6E73742074656D70436F6E7465 PUSH2 0x1760 DUP3 ADD MSTORE PUSH32 0x78743D74656D7043616E7661732E676574436F6E746578742827326427293B74 PUSH2 0x1780 DUP3 ADD MSTORE PUSH32 0x656D70436F6E746578742E66696C7465723D27626C7572283135707829273B67 PUSH2 0x17A0 DUP3 ADD MSTORE PUSH32 0x656E65726174655065726C696E4E6F6973652863616E7661732E77696474682C PUSH2 0x17C0 DUP3 ADD MSTORE PUSH32 0x63616E7661732E6865696768742C74656D70436F6E74657874293B6374782E67 PUSH2 0x17E0 DUP3 ADD MSTORE PUSH32 0x6C6F62616C416C7068613D2E323B6374782E64726177496D6167652874656D70 PUSH2 0x1800 DUP3 ADD MSTORE PUSH32 0x43616E7661732C302C30293B636F6E7374206461746155524C3D63616E766173 PUSH2 0x1820 DUP3 ADD MSTORE PUSH32 0x2E746F4461746155524C2827696D6167652F706E6727293B7061706572426163 PUSH2 0x1840 DUP3 ADD MSTORE PUSH32 0x6B67726F756E644469762E7374796C652E6261636B67726F756E64496D616765 PUSH2 0x1860 DUP3 ADD MSTORE PUSH32 0x3D6075726C28247B6461746155524C7D29603B70617065724261636B67726F75 PUSH2 0x1880 DUP3 ADD MSTORE PUSH32 0x6E644469762E7374796C652E6261636B67726F756E645265706561743D277265 PUSH2 0x18A0 DUP3 ADD MSTORE PUSH32 0x70656174273B70617065724261636B67726F756E644469762E7374796C652E62 PUSH2 0x18C0 DUP3 ADD MSTORE PUSH32 0x61636B67726F756E6453697A653D276175746F273B646F63756D656E742E6765 PUSH2 0x18E0 DUP3 ADD MSTORE PUSH32 0x74456C656D656E7442794964282770617065722D6261636B67726F756E642729 PUSH2 0x1900 DUP3 ADD MSTORE PUSH32 0x2E7374796C652E6865696768743D676574436F6D70757465645374796C652864 PUSH2 0x1920 DUP3 ADD MSTORE PUSH32 0x6F63756D656E742E676574456C656D656E747342795461674E616D6528276874 PUSH2 0x1940 DUP3 ADD MSTORE PUSH32 0x6D6C27295B305D292E6865696768743B646F63756D656E742E676574456C656D PUSH2 0x1960 DUP3 ADD MSTORE PUSH32 0x656E7442794964282770617065722D6261636B67726F756E6427292E7374796C PUSH2 0x1980 DUP3 ADD MSTORE PUSH32 0x652E77696474683D676574436F6D70757465645374796C6528646F63756D656E PUSH2 0x19A0 DUP3 ADD MSTORE PUSH32 0x742E676574456C656D656E747342795461674E616D65282768746D6C27295B30 PUSH2 0x19C0 DUP3 ADD MSTORE PUSH32 0x5D292E77696474683B746F67676C654D6F646528297D3B3C2F7363726970743E PUSH2 0x19E0 DUP3 ADD MSTORE POP JUMP JUMPDEST PUSH0 PUSH2 0x28B9 PUSH2 0x1A00 DUP4 PUSH2 0x858 JUMP JUMPDEST SWAP2 POP PUSH2 0x28C4 DUP3 PUSH2 0x902 JUMP JUMPDEST PUSH2 0x1A00 DUP3 ADD SWAP1 POP SWAP2 SWAP1 POP JUMP JUMPDEST PUSH0 PUSH2 0x28DA DUP3 PUSH2 0x8B0 JUMP JUMPDEST SWAP2 POP PUSH2 0x28E6 DUP3 DUP5 PUSH2 0x8D2 JUMP JUMPDEST SWAP2 POP PUSH2 0x28F1 DUP3 PUSH2 0x28AC JUMP JUMPDEST SWAP2 POP DUP2 SWAP1 POP SWAP3 SWAP2 POP POP JUMP JUMPDEST PUSH32 0x4E6F7420617574686F72697A6564000000000000000000000000000000000000 PUSH0 DUP3 ADD MSTORE POP JUMP JUMPDEST PUSH0 PUSH2 0x2930 PUSH1 0xE DUP4 PUSH2 0x5AA JUMP JUMPDEST SWAP2 POP PUSH2 0x293B DUP3 PUSH2 0x28FC JUMP JUMPDEST PUSH1 0x20 DUP3 ADD SWAP1 POP SWAP2 SWAP1 POP JUMP JUMPDEST PUSH0 PUSH1 0x20 DUP3 ADD SWAP1 POP DUP2 DUP2 SUB PUSH0 DUP4 ADD MSTORE PUSH2 0x295D DUP2 PUSH2 0x2924 JUMP JUMPDEST SWAP1 POP SWAP2 SWAP1 POP JUMP INVALID LOG2 PUSH5 0x6970667358 0x22 SLT KECCAK256 SWAP11 ADDMOD 0xBA BASEFEE REVERT LOG0 LT 0xE 0xE 0xE4 CALLCODE SELFDESTRUCT 0xB5 NOT 0xE 0xB2 ADD MCOPY 0x2C 0x1E SWAP14 PUSH24 0x81C7D6513B2B986F7EE064736F6C634300081A0033000000 "
		},
		"gasEstimates": {
			"creation": {
				"codeDepositCost": "2130000",
				"executionCost": "infinite",
				"totalCost": "infinite"
			},
			"external": {
				"accessList(address)": "2899",
				"getScript()": "infinite",
				"grantAccess(address)": "26950",
				"owner()": "2596",
				"revokeAccess(address)": "27015",
				"setProzacYouthUtils_1(address)": "29150"
			}
		},
		"methodIdentifiers": {
			"accessList(address)": "87a5b67c",
			"getScript()": "620b7303",
			"grantAccess(address)": "0ae5e739",
			"owner()": "8da5cb5b",
			"revokeAccess(address)": "85e68531",
			"setProzacYouthUtils_1(address)": "7579b796"
		}
	},
	"abi": [
		{
			"inputs": [
				{
					"internalType": "address",
					"name": "ProzacYouthUtils_addr",
					"type": "address"
				}
			],
			"stateMutability": "nonpayable",
			"type": "constructor"
		},
		{
			"inputs": [
				{
					"internalType": "address",
					"name": "",
					"type": "address"
				}
			],
			"name": "accessList",
			"outputs": [
				{
					"internalType": "bool",
					"name": "",
					"type": "bool"
				}
			],
			"stateMutability": "view",
			"type": "function"
		},
		{
			"inputs": [],
			"name": "getScript",
			"outputs": [
				{
					"internalType": "string",
					"name": "",
					"type": "string"
				}
			],
			"stateMutability": "view",
			"type": "function"
		},
		{
			"inputs": [
				{
					"internalType": "address",
					"name": "_address",
					"type": "address"
				}
			],
			"name": "grantAccess",
			"outputs": [],
			"stateMutability": "nonpayable",
			"type": "function"
		},
		{
			"inputs": [],
			"name": "owner",
			"outputs": [
				{
					"internalType": "address",
					"name": "",
					"type": "address"
				}
			],
			"stateMutability": "view",
			"type": "function"
		},
		{
			"inputs": [
				{
					"internalType": "address",
					"name": "_address",
					"type": "address"
				}
			],
			"name": "revokeAccess",
			"outputs": [],
			"stateMutability": "nonpayable",
			"type": "function"
		},
		{
			"inputs": [
				{
					"internalType": "address",
					"name": "addr",
					"type": "address"
				}
			],
			"name": "setProzacYouthUtils_1",
			"outputs": [],
			"stateMutability": "nonpayable",
			"type": "function"
		}
	]
}