{
	"data": {
		"bytecode": {
			"linkReferences": {},
			"object": "608060405234801561000f575f80fd5b50604051611e83380380611e838339818101604052810190610031919061017d565b3360015f6101000a81548173ffffffffffffffffffffffffffffffffffffffff021916908373ffffffffffffffffffffffffffffffffffffffff160217905550805f806101000a81548173ffffffffffffffffffffffffffffffffffffffff021916908373ffffffffffffffffffffffffffffffffffffffff160217905550600160025f73f1da6e2d387e9da611dac8a7fc587eaa4b01001373ffffffffffffffffffffffffffffffffffffffff1673ffffffffffffffffffffffffffffffffffffffff1681526020019081526020015f205f6101000a81548160ff021916908315150217905550506101a8565b5f80fd5b5f73ffffffffffffffffffffffffffffffffffffffff82169050919050565b5f61014c82610123565b9050919050565b61015c81610142565b8114610166575f80fd5b50565b5f8151905061017781610153565b92915050565b5f602082840312156101925761019161011f565b5b5f61019f84828501610169565b91505092915050565b611cce806101b55f395ff3fe608060405234801561000f575f80fd5b5060043610610060575f3560e01c80630ae5e73914610064578063620b7303146100805780637579b7961461009e57806385e68531146100ba57806387a5b67c146100d65780638da5cb5b14610106575b5f80fd5b61007e60048036038101906100799190610575565b610124565b005b61008861020b565b6040516100959190610610565b60405180910390f35b6100b860048036038101906100b39190610575565b6102c0565b005b6100d460048036038101906100cf9190610575565b6103e2565b005b6100f060048036038101906100eb9190610575565b6104c8565b6040516100fd919061064a565b60405180910390f35b61010e6104e5565b60405161011b9190610672565b60405180910390f35b60015f9054906101000a900473ffffffffffffffffffffffffffffffffffffffff1673ffffffffffffffffffffffffffffffffffffffff163373ffffffffffffffffffffffffffffffffffffffff16146101b3576040517f08c379a00000000000000000000000000000000000000000000000000000000081526004016101aa906106d5565b60405180910390fd5b600160025f8373ffffffffffffffffffffffffffffffffffffffff1673ffffffffffffffffffffffffffffffffffffffff1681526020019081526020015f205f6101000a81548160ff02191690831515021790555050565b60605f8054906101000a900473ffffffffffffffffffffffffffffffffffffffff1673ffffffffffffffffffffffffffffffffffffffff1663c55324686040518163ffffffff1660e01b81526004015f60405180830381865afa158015610274573d5f803e3d5ffd5b505050506040513d5f823e3d601f19601f8201168201806040525081019061029c9190610811565b6040516020016102ac9190611c04565b604051602081830303815290604052905090565b60015f9054906101000a900473ffffffffffffffffffffffffffffffffffffffff1673ffffffffffffffffffffffffffffffffffffffff163373ffffffffffffffffffffffffffffffffffffffff161480610361575060025f3373ffffffffffffffffffffffffffffffffffffffff1673ffffffffffffffffffffffffffffffffffffffff1681526020019081526020015f205f9054906101000a900460ff165b6103a0576040517f08c379a000000000000000000000000000000000000000000000000000000000815260040161039790611c7a565b60405180910390fd5b805f806101000a81548173ffffffffffffffffffffffffffffffffffffffff021916908373ffffffffffffffffffffffffffffffffffffffff16021790555050565b60015f9054906101000a900473ffffffffffffffffffffffffffffffffffffffff1673ffffffffffffffffffffffffffffffffffffffff163373ffffffffffffffffffffffffffffffffffffffff1614610471576040517f08c379a0000000000000000000000000000000000000000000000000000000008152600401610468906106d5565b60405180910390fd5b5f60025f8373ffffffffffffffffffffffffffffffffffffffff1673ffffffffffffffffffffffffffffffffffffffff1681526020019081526020015f205f6101000a81548160ff02191690831515021790555050565b6002602052805f5260405f205f915054906101000a900460ff1681565b60015f9054906101000a900473ffffffffffffffffffffffffffffffffffffffff1681565b5f604051905090565b5f80fd5b5f80fd5b5f73ffffffffffffffffffffffffffffffffffffffff82169050919050565b5f6105448261051b565b9050919050565b6105548161053a565b811461055e575f80fd5b50565b5f8135905061056f8161054b565b92915050565b5f6020828403121561058a57610589610513565b5b5f61059784828501610561565b91505092915050565b5f81519050919050565b5f82825260208201905092915050565b8281835e5f83830152505050565b5f601f19601f8301169050919050565b5f6105e2826105a0565b6105ec81856105aa565b93506105fc8185602086016105ba565b610605816105c8565b840191505092915050565b5f6020820190508181035f83015261062881846105d8565b905092915050565b5f8115159050919050565b61064481610630565b82525050565b5f60208201905061065d5f83018461063b565b92915050565b61066c8161053a565b82525050565b5f6020820190506106855f830184610663565b92915050565b7f4e6f7420746865206f776e6572000000000000000000000000000000000000005f82015250565b5f6106bf600d836105aa565b91506106ca8261068b565b602082019050919050565b5f6020820190508181035f8301526106ec816106b3565b9050919050565b5f80fd5b5f80fd5b7f4e487b71000000000000000000000000000000000000000000000000000000005f52604160045260245ffd5b610731826105c8565b810181811067ffffffffffffffff821117156107505761074f6106fb565b5b80604052505050565b5f61076261050a565b905061076e8282610728565b919050565b5f67ffffffffffffffff82111561078d5761078c6106fb565b5b610796826105c8565b9050602081019050919050565b5f6107b56107b084610773565b610759565b9050828152602081018484840111156107d1576107d06106f7565b5b6107dc8482856105ba565b509392505050565b5f82601f8301126107f8576107f76106f3565b5b81516108088482602086016107a3565b91505092915050565b5f6020828403121561082657610825610513565b5b5f82015167ffffffffffffffff81111561084357610842610517565b5b61084f848285016107e4565b91505092915050565b5f81905092915050565b7f3c73637269707420747970653d27746578742f6a617661736372697074273e6c5f8201527f6574206d6f64653d000000000000000000000000000000000000000000000000602082015250565b5f6108bc602883610858565b91506108c782610862565b602882019050919050565b5f6108dc826105a0565b6108e68185610858565b93506108f68185602086016105ba565b80840191505092915050565b7f3b66756e6374696f6e20636c65616e416e644f70656e2865297b652e707265765f8201527f656e7444656661756c7428293b636f6e7374206e3d652e7461726765742e687260208201527f65663b6c657420743d6e3b6e2e696e6465784f6628272545462542462542442760408201527f293e2d31262628743d6e2e736c69636528302c6e2e696e6465784f662827254560608201527f46254246254244272929292c77696e646f772e6f70656e28742c275f626c616e60808201527f6b27297d66756e6374696f6e20757064617465436c6f636b28297b636f6e737460a08201527f206e6f773d6e6577204461746528293b636f6e737420686f7572733d5374726960c08201527f6e67286e6f772e676574486f7572732829292e706164537461727428322c273060e08201527f27293b636f6e7374206d696e757465733d537472696e67286e6f772e6765744d6101008201527f696e757465732829292e706164537461727428322c273027293b636f6e7374206101208201527f7365636f6e64733d537472696e67286e6f772e6765745365636f6e64732829296101408201527f2e706164537461727428322c273027293b636f6e7374206d6f6e74684e616d656101608201527f733d5b274a616e75617279272c274665627275617279272c274d61726368272c6101808201527f27417072696c272c274d6179272c274a756e65272c274a756c79272c274175676101a08201527f757374272c2753657074656d626572272c274f63746f626572272c274e6f76656101c08201527f6d626572272c27446563656d626572275d3b636f6e7374206d6f6e74683d6d6f6101e08201527f6e74684e616d65735b6e6f772e6765744d6f6e746828295d3b636f6e737420646102008201527f61793d6e6f772e6765744461746528293b636f6e737420796561723d6e6f772e6102208201527f67657446756c6c5965617228293b636f6e7374207375666669783d28646179296102408201527f3d3e7b6966286461793e3326266461793c32312972657475726e277468273b736102608201527f776974636828646179253130297b6361736520313a72657475726e277374273b6102808201527f6361736520323a72657475726e276e64273b6361736520333a72657475726e276102a08201527f7264273b64656661756c743a72657475726e277468277d7d3b636f6e737420666102c08201527f756c6c446174653d60247b6d6f6e74687d20247b6461797d247b7375666669786102e08201527f28646179297d2c20247b796561727d20247b686f7572737d3a247b6d696e75746103008201527f65737d3a247b7365636f6e64737d603b646f63756d656e742e717565727953656103208201527f6c6563746f7228272e63757272656e742d74696d6527292e74657874436f6e746103408201527f656e743d66756c6c446174657d736574496e74657276616c28757064617465436103608201527f6c6f636b2c31303030293b757064617465436c6f636b28293b646f63756d656e6103808201527f742e6164644576656e744c697374656e65722827444f4d436f6e74656e744c6f6103a08201527f61646564272c66756e6374696f6e28297b646f63756d656e742e676574456c656103c08201527f6d656e74427949642827706f73742d7772617070657227292e7374796c652e646103e08201527f6973706c61793d27626c6f636b277d293b66756e6374696f6e207365744461726104008201527f6b28297b646f63756d656e742e676574456c656d656e744279496428276d6f646104208201527f652d73776974636827292e7374796c652e66696c7465723d27696e76657274286104408201527f2e373529273b646f63756d656e742e717565727953656c6563746f72416c6c286104608201527f272e6c696768742d7465787427292e666f72456163682866756e6374696f6e286104808201527f656c656d656e74297b656c656d656e742e636c6173734c6973742e72656d6f766104a08201527f6528276c696768742d7465787427293b656c656d656e742e636c6173734c69736104c08201527f742e61646428276461726b2d7465787427297d293b646f63756d656e742e71756104e08201527f65727953656c6563746f72416c6c28272e6c696768742d746578742d3227292e6105008201527f666f72456163682866756e6374696f6e28656c656d656e74297b656c656d656e6105208201527f742e636c6173734c6973742e72656d6f766528276c696768742d746578742d326105408201527f27293b656c656d656e742e636c6173734c6973742e61646428276461726b2d746105608201527f6578742d3227297d293b646f63756d656e742e717565727953656c6563746f726105808201527f416c6c28272e6c696768742d746578742d3327292e666f72456163682866756e6105a08201527f6374696f6e28656c656d656e74297b656c656d656e742e636c6173734c6973746105c08201527f2e72656d6f766528276c696768742d746578742d3327293b656c656d656e742e6105e08201527f636c6173734c6973742e61646428276461726b2d746578742d3327297d293b646106008201527f6f63756d656e742e717565727953656c6563746f72416c6c28272e6c696768746106208201527f2d746578742d3427292e666f72456163682866756e6374696f6e28656c656d656106408201527f6e74297b656c656d656e742e636c6173734c6973742e72656d6f766528276c696106608201527f6768742d746578742d3427293b656c656d656e742e636c6173734c6973742e616106808201527f646428276461726b2d746578742d3427297d293b646f63756d656e742e7175656106a08201527f727953656c6563746f72416c6c28272e6c696768742d626727292e666f7245616106c08201527f63682866756e6374696f6e28656c656d656e74297b656c656d656e742e636c616106e08201527f73734c6973742e72656d6f766528276c696768742d626727293b656c656d656e6107008201527f742e636c6173734c6973742e61646428276461726b2d626727297d293b646f636107208201527f756d656e742e717565727953656c6563746f72416c6c28272e6c696768742d626107408201527f672d3227292e666f72456163682866756e6374696f6e28656c656d656e74297b6107608201527f656c656d656e742e636c6173734c6973742e72656d6f766528276c696768742d6107808201527f62672d3227293b656c656d656e742e636c6173734c6973742e616464282764616107a08201527f726b2d62672d3227297d293b646f63756d656e742e717565727953656c6563746107c08201527f6f72416c6c28272e6c696768742d626f726465722d3227292e666f72456163686107e08201527f2866756e6374696f6e28656c656d656e74297b656c656d656e742e636c6173736108008201527f4c6973742e72656d6f766528276c696768742d626f726465722d3227293b656c6108208201527f656d656e742e636c6173734c6973742e61646428276461726b2d626f726465726108408201527f2d3227297d293b646f63756d656e742e717565727953656c6563746f72416c6c6108608201527f28272e6c696768742d626f7264657227292e666f72456163682866756e6374696108808201527f6f6e28656c656d656e74297b656c656d656e742e636c6173734c6973742e72656108a08201527f6d6f766528276c696768742d626f7264657227293b656c656d656e742e636c616108c08201527f73734c6973742e61646428276461726b2d626f7264657227297d293b646f63756108e08201527f6d656e742e717565727953656c6563746f72416c6c28272e6c696768742d6c696109008201527f6e6b27292e666f72456163682866756e6374696f6e28656c656d656e74297b656109208201527f6c656d656e742e636c6173734c6973742e72656d6f766528276c696768742d6c6109408201527f696e6b27293b656c656d656e742e636c6173734c6973742e61646428276461726109608201527f6b2d6c696e6b27297d297d66756e6374696f6e207365744c6967687428297b646109808201527f6f63756d656e742e676574456c656d656e744279496428276d6f64652d7377696109a08201527f74636827292e7374796c652e66696c7465723d27696e76657274283029273b646109c08201527f6f63756d656e742e717565727953656c6563746f72416c6c28272e6461726b2d6109e08201527f7465787427292e666f72456163682866756e6374696f6e28656c656d656e7429610a008201527f7b656c656d656e742e636c6173734c6973742e72656d6f766528276461726b2d610a208201527f7465787427293b656c656d656e742e636c6173734c6973742e61646428276c69610a408201527f6768742d7465787427297d293b646f63756d656e742e717565727953656c6563610a608201527f746f72416c6c28272e6461726b2d746578742d3227292e666f72456163682866610a808201527f756e6374696f6e28656c656d656e74297b656c656d656e742e636c6173734c69610aa08201527f73742e72656d6f766528276461726b2d746578742d3227293b656c656d656e74610ac08201527f2e636c6173734c6973742e61646428276c696768742d746578742d3227297d29610ae08201527f3b646f63756d656e742e717565727953656c6563746f72416c6c28272e646172610b008201527f6b2d746578742d3327292e666f72456163682866756e6374696f6e28656c656d610b208201527f656e74297b656c656d656e742e636c6173734c6973742e72656d6f7665282764610b408201527f61726b2d746578742d3327293b656c656d656e742e636c6173734c6973742e61610b608201527f646428276c696768742d746578742d3327297d293b646f63756d656e742e7175610b808201527f65727953656c6563746f72416c6c28272e6461726b2d746578742d3427292e66610ba08201527f6f72456163682866756e6374696f6e28656c656d656e74297b656c656d656e74610bc08201527f2e636c6173734c6973742e72656d6f766528276461726b2d746578742d342729610be08201527f3b656c656d656e742e636c6173734c6973742e61646428276c696768742d7465610c008201527f78742d3427297d293b646f63756d656e742e717565727953656c6563746f7241610c208201527f6c6c28272e6461726b2d626727292e666f72456163682866756e6374696f6e28610c408201527f656c656d656e74297b656c656d656e742e636c6173734c6973742e72656d6f76610c608201527f6528276461726b2d626727293b656c656d656e742e636c6173734c6973742e61610c808201527f646428276c696768742d626727297d293b646f63756d656e742e717565727953610ca08201527f656c6563746f72416c6c28272e6461726b2d62672d3227292e666f7245616368610cc08201527f2866756e6374696f6e28656c656d656e74297b656c656d656e742e636c617373610ce08201527f4c6973742e72656d6f766528276461726b2d62672d3227293b656c656d656e74610d008201527f2e636c6173734c6973742e61646428276c696768742d62672d3227297d293b64610d208201527f6f63756d656e742e717565727953656c6563746f72416c6c28272e6461726b2d610d408201527f626f726465722d3227292e666f72456163682866756e6374696f6e28656c656d610d608201527f656e74297b656c656d656e742e636c6173734c6973742e72656d6f7665282764610d808201527f61726b2d626f726465722d3227293b656c656d656e742e636c6173734c697374610da08201527f2e61646428276c696768742d626f726465722d3227297d293b646f63756d656e610dc08201527f742e717565727953656c6563746f72416c6c28272e6461726b2d626f72646572610de08201527f27292e666f72456163682866756e6374696f6e28656c656d656e74297b656c65610e008201527f6d656e742e636c6173734c6973742e72656d6f766528276461726b2d626f7264610e208201527f657227293b656c656d656e742e636c6173734c6973742e61646428276c696768610e408201527f742d626f7264657227297d293b646f63756d656e742e717565727953656c6563610e608201527f746f72416c6c28272e6461726b2d6c696e6b27292e666f72456163682866756e610e808201527f6374696f6e28656c656d656e74297b656c656d656e742e636c6173734c697374610ea08201527f2e72656d6f766528276461726b2d6c696e6b27293b656c656d656e742e636c61610ec08201527f73734c6973742e61646428276c696768742d6c696e6b27297d297d66756e6374610ee08201527f696f6e20746f67676c654d6f646528297b6966286d6f64653d3d3d30297b6d6f610f008201527f64653d313b7365744461726b28297d656c73657b6d6f64653d303b7365744c69610f208201527f67687428297d646f63756d656e742e676574456c656d656e744279496428276d610f408201527f6f64652d73776974636827292e626c757228297d3c2f7363726970743e000000610f6082015250565b5f611bed610f7d83610858565b9150611bf882610902565b610f7d82019050919050565b5f611c0e826108b0565b9150611c1a82846108d2565b9150611c2582611be0565b915081905092915050565b7f4e6f7420617574686f72697a65640000000000000000000000000000000000005f82015250565b5f611c64600e836105aa565b9150611c6f82611c30565b602082019050919050565b5f6020820190508181035f830152611c9181611c58565b905091905056fea264697066735822122063ca752f8cbd862eee1a09d2ce8317d96e609a0baa99c1f4c2a2fe059df1765d64736f6c634300081a0033",
			"opcodes": "PUSH1 0x80 PUSH1 0x40 MSTORE CALLVALUE DUP1 ISZERO PUSH2 0xF JUMPI PUSH0 DUP1 REVERT JUMPDEST POP PUSH1 0x40 MLOAD PUSH2 0x1E83 CODESIZE SUB DUP1 PUSH2 0x1E83 DUP4 CODECOPY DUP2 DUP2 ADD PUSH1 0x40 MSTORE DUP2 ADD SWAP1 PUSH2 0x31 SWAP2 SWAP1 PUSH2 0x17D JUMP JUMPDEST CALLER PUSH1 0x1 PUSH0 PUSH2 0x100 EXP DUP2 SLOAD DUP2 PUSH20 0xFFFFFFFFFFFFFFFFFFFFFFFFFFFFFFFFFFFFFFFF MUL NOT AND SWAP1 DUP4 PUSH20 0xFFFFFFFFFFFFFFFFFFFFFFFFFFFFFFFFFFFFFFFF AND MUL OR SWAP1 SSTORE POP DUP1 PUSH0 DUP1 PUSH2 0x100 EXP DUP2 SLOAD DUP2 PUSH20 0xFFFFFFFFFFFFFFFFFFFFFFFFFFFFFFFFFFFFFFFF MUL NOT AND SWAP1 DUP4 PUSH20 0xFFFFFFFFFFFFFFFFFFFFFFFFFFFFFFFFFFFFFFFF AND MUL OR SWAP1 SSTORE POP PUSH1 0x1 PUSH1 0x2 PUSH0 PUSH20 0xF1DA6E2D387E9DA611DAC8A7FC587EAA4B010013 PUSH20 0xFFFFFFFFFFFFFFFFFFFFFFFFFFFFFFFFFFFFFFFF AND PUSH20 0xFFFFFFFFFFFFFFFFFFFFFFFFFFFFFFFFFFFFFFFF AND DUP2 MSTORE PUSH1 0x20 ADD SWAP1 DUP2 MSTORE PUSH1 0x20 ADD PUSH0 KECCAK256 PUSH0 PUSH2 0x100 EXP DUP2 SLOAD DUP2 PUSH1 0xFF MUL NOT AND SWAP1 DUP4 ISZERO ISZERO MUL OR SWAP1 SSTORE POP POP PUSH2 0x1A8 JUMP JUMPDEST PUSH0 DUP1 REVERT JUMPDEST PUSH0 PUSH20 0xFFFFFFFFFFFFFFFFFFFFFFFFFFFFFFFFFFFFFFFF DUP3 AND SWAP1 POP SWAP2 SWAP1 POP JUMP JUMPDEST PUSH0 PUSH2 0x14C DUP3 PUSH2 0x123 JUMP JUMPDEST SWAP1 POP SWAP2 SWAP1 POP JUMP JUMPDEST PUSH2 0x15C DUP2 PUSH2 0x142 JUMP JUMPDEST DUP2 EQ PUSH2 0x166 JUMPI PUSH0 DUP1 REVERT JUMPDEST POP JUMP JUMPDEST PUSH0 DUP2 MLOAD SWAP1 POP PUSH2 0x177 DUP2 PUSH2 0x153 JUMP JUMPDEST SWAP3 SWAP2 POP POP JUMP JUMPDEST PUSH0 PUSH1 0x20 DUP3 DUP5 SUB SLT ISZERO PUSH2 0x192 JUMPI PUSH2 0x191 PUSH2 0x11F JUMP JUMPDEST JUMPDEST PUSH0 PUSH2 0x19F DUP5 DUP3 DUP6 ADD PUSH2 0x169 JUMP JUMPDEST SWAP2 POP POP SWAP3 SWAP2 POP POP JUMP JUMPDEST PUSH2 0x1CCE DUP1 PUSH2 0x1B5 PUSH0 CODECOPY PUSH0 RETURN INVALID PUSH1 0x80 PUSH1 0x40 MSTORE CALLVALUE DUP1 ISZERO PUSH2 0xF JUMPI PUSH0 DUP1 REVERT JUMPDEST POP PUSH1 0x4 CALLDATASIZE LT PUSH2 0x60 JUMPI PUSH0 CALLDATALOAD PUSH1 0xE0 SHR DUP1 PUSH4 0xAE5E739 EQ PUSH2 0x64 JUMPI DUP1 PUSH4 0x620B7303 EQ PUSH2 0x80 JUMPI DUP1 PUSH4 0x7579B796 EQ PUSH2 0x9E JUMPI DUP1 PUSH4 0x85E68531 EQ PUSH2 0xBA JUMPI DUP1 PUSH4 0x87A5B67C EQ PUSH2 0xD6 JUMPI DUP1 PUSH4 0x8DA5CB5B EQ PUSH2 0x106 JUMPI JUMPDEST PUSH0 DUP1 REVERT JUMPDEST PUSH2 0x7E PUSH1 0x4 DUP1 CALLDATASIZE SUB DUP2 ADD SWAP1 PUSH2 0x79 SWAP2 SWAP1 PUSH2 0x575 JUMP JUMPDEST PUSH2 0x124 JUMP JUMPDEST STOP JUMPDEST PUSH2 0x88 PUSH2 0x20B JUMP JUMPDEST PUSH1 0x40 MLOAD PUSH2 0x95 SWAP2 SWAP1 PUSH2 0x610 JUMP JUMPDEST PUSH1 0x40 MLOAD DUP1 SWAP2 SUB SWAP1 RETURN JUMPDEST PUSH2 0xB8 PUSH1 0x4 DUP1 CALLDATASIZE SUB DUP2 ADD SWAP1 PUSH2 0xB3 SWAP2 SWAP1 PUSH2 0x575 JUMP JUMPDEST PUSH2 0x2C0 JUMP JUMPDEST STOP JUMPDEST PUSH2 0xD4 PUSH1 0x4 DUP1 CALLDATASIZE SUB DUP2 ADD SWAP1 PUSH2 0xCF SWAP2 SWAP1 PUSH2 0x575 JUMP JUMPDEST PUSH2 0x3E2 JUMP JUMPDEST STOP JUMPDEST PUSH2 0xF0 PUSH1 0x4 DUP1 CALLDATASIZE SUB DUP2 ADD SWAP1 PUSH2 0xEB SWAP2 SWAP1 PUSH2 0x575 JUMP JUMPDEST PUSH2 0x4C8 JUMP JUMPDEST PUSH1 0x40 MLOAD PUSH2 0xFD SWAP2 SWAP1 PUSH2 0x64A JUMP JUMPDEST PUSH1 0x40 MLOAD DUP1 SWAP2 SUB SWAP1 RETURN JUMPDEST PUSH2 0x10E PUSH2 0x4E5 JUMP JUMPDEST PUSH1 0x40 MLOAD PUSH2 0x11B SWAP2 SWAP1 PUSH2 0x672 JUMP JUMPDEST PUSH1 0x40 MLOAD DUP1 SWAP2 SUB SWAP1 RETURN JUMPDEST PUSH1 0x1 PUSH0 SWAP1 SLOAD SWAP1 PUSH2 0x100 EXP SWAP1 DIV PUSH20 0xFFFFFFFFFFFFFFFFFFFFFFFFFFFFFFFFFFFFFFFF AND PUSH20 0xFFFFFFFFFFFFFFFFFFFFFFFFFFFFFFFFFFFFFFFF AND CALLER PUSH20 0xFFFFFFFFFFFFFFFFFFFFFFFFFFFFFFFFFFFFFFFF AND EQ PUSH2 0x1B3 JUMPI PUSH1 0x40 MLOAD PUSH32 0x8C379A000000000000000000000000000000000000000000000000000000000 DUP2 MSTORE PUSH1 0x4 ADD PUSH2 0x1AA SWAP1 PUSH2 0x6D5 JUMP JUMPDEST PUSH1 0x40 MLOAD DUP1 SWAP2 SUB SWAP1 REVERT JUMPDEST PUSH1 0x1 PUSH1 0x2 PUSH0 DUP4 PUSH20 0xFFFFFFFFFFFFFFFFFFFFFFFFFFFFFFFFFFFFFFFF AND PUSH20 0xFFFFFFFFFFFFFFFFFFFFFFFFFFFFFFFFFFFFFFFF AND DUP2 MSTORE PUSH1 0x20 ADD SWAP1 DUP2 MSTORE PUSH1 0x20 ADD PUSH0 KECCAK256 PUSH0 PUSH2 0x100 EXP DUP2 SLOAD DUP2 PUSH1 0xFF MUL NOT AND SWAP1 DUP4 ISZERO ISZERO MUL OR SWAP1 SSTORE POP POP JUMP JUMPDEST PUSH1 0x60 PUSH0 DUP1 SLOAD SWAP1 PUSH2 0x100 EXP SWAP1 DIV PUSH20 0xFFFFFFFFFFFFFFFFFFFFFFFFFFFFFFFFFFFFFFFF AND PUSH20 0xFFFFFFFFFFFFFFFFFFFFFFFFFFFFFFFFFFFFFFFF AND PUSH4 0xC5532468 PUSH1 0x40 MLOAD DUP2 PUSH4 0xFFFFFFFF AND PUSH1 0xE0 SHL DUP2 MSTORE PUSH1 0x4 ADD PUSH0 PUSH1 0x40 MLOAD DUP1 DUP4 SUB DUP2 DUP7 GAS STATICCALL ISZERO DUP1 ISZERO PUSH2 0x274 JUMPI RETURNDATASIZE PUSH0 DUP1 RETURNDATACOPY RETURNDATASIZE PUSH0 REVERT JUMPDEST POP POP POP POP PUSH1 0x40 MLOAD RETURNDATASIZE PUSH0 DUP3 RETURNDATACOPY RETURNDATASIZE PUSH1 0x1F NOT PUSH1 0x1F DUP3 ADD AND DUP3 ADD DUP1 PUSH1 0x40 MSTORE POP DUP2 ADD SWAP1 PUSH2 0x29C SWAP2 SWAP1 PUSH2 0x811 JUMP JUMPDEST PUSH1 0x40 MLOAD PUSH1 0x20 ADD PUSH2 0x2AC SWAP2 SWAP1 PUSH2 0x1C04 JUMP JUMPDEST PUSH1 0x40 MLOAD PUSH1 0x20 DUP2 DUP4 SUB SUB DUP2 MSTORE SWAP1 PUSH1 0x40 MSTORE SWAP1 POP SWAP1 JUMP JUMPDEST PUSH1 0x1 PUSH0 SWAP1 SLOAD SWAP1 PUSH2 0x100 EXP SWAP1 DIV PUSH20 0xFFFFFFFFFFFFFFFFFFFFFFFFFFFFFFFFFFFFFFFF AND PUSH20 0xFFFFFFFFFFFFFFFFFFFFFFFFFFFFFFFFFFFFFFFF AND CALLER PUSH20 0xFFFFFFFFFFFFFFFFFFFFFFFFFFFFFFFFFFFFFFFF AND EQ DUP1 PUSH2 0x361 JUMPI POP PUSH1 0x2 PUSH0 CALLER PUSH20 0xFFFFFFFFFFFFFFFFFFFFFFFFFFFFFFFFFFFFFFFF AND PUSH20 0xFFFFFFFFFFFFFFFFFFFFFFFFFFFFFFFFFFFFFFFF AND DUP2 MSTORE PUSH1 0x20 ADD SWAP1 DUP2 MSTORE PUSH1 0x20 ADD PUSH0 KECCAK256 PUSH0 SWAP1 SLOAD SWAP1 PUSH2 0x100 EXP SWAP1 DIV PUSH1 0xFF AND JUMPDEST PUSH2 0x3A0 JUMPI PUSH1 0x40 MLOAD PUSH32 0x8C379A000000000000000000000000000000000000000000000000000000000 DUP2 MSTORE PUSH1 0x4 ADD PUSH2 0x397 SWAP1 PUSH2 0x1C7A JUMP JUMPDEST PUSH1 0x40 MLOAD DUP1 SWAP2 SUB SWAP1 REVERT JUMPDEST DUP1 PUSH0 DUP1 PUSH2 0x100 EXP DUP2 SLOAD DUP2 PUSH20 0xFFFFFFFFFFFFFFFFFFFFFFFFFFFFFFFFFFFFFFFF MUL NOT AND SWAP1 DUP4 PUSH20 0xFFFFFFFFFFFFFFFFFFFFFFFFFFFFFFFFFFFFFFFF AND MUL OR SWAP1 SSTORE POP POP JUMP JUMPDEST PUSH1 0x1 PUSH0 SWAP1 SLOAD SWAP1 PUSH2 0x100 EXP SWAP1 DIV PUSH20 0xFFFFFFFFFFFFFFFFFFFFFFFFFFFFFFFFFFFFFFFF AND PUSH20 0xFFFFFFFFFFFFFFFFFFFFFFFFFFFFFFFFFFFFFFFF AND CALLER PUSH20 0xFFFFFFFFFFFFFFFFFFFFFFFFFFFFFFFFFFFFFFFF AND EQ PUSH2 0x471 JUMPI PUSH1 0x40 MLOAD PUSH32 0x8C379A000000000000000000000000000000000000000000000000000000000 DUP2 MSTORE PUSH1 0x4 ADD PUSH2 0x468 SWAP1 PUSH2 0x6D5 JUMP JUMPDEST PUSH1 0x40 MLOAD DUP1 SWAP2 SUB SWAP1 REVERT JUMPDEST PUSH0 PUSH1 0x2 PUSH0 DUP4 PUSH20 0xFFFFFFFFFFFFFFFFFFFFFFFFFFFFFFFFFFFFFFFF AND PUSH20 0xFFFFFFFFFFFFFFFFFFFFFFFFFFFFFFFFFFFFFFFF AND DUP2 MSTORE PUSH1 0x20 ADD SWAP1 DUP2 MSTORE PUSH1 0x20 ADD PUSH0 KECCAK256 PUSH0 PUSH2 0x100 EXP DUP2 SLOAD DUP2 PUSH1 0xFF MUL NOT AND SWAP1 DUP4 ISZERO ISZERO MUL OR SWAP1 SSTORE POP POP JUMP JUMPDEST PUSH1 0x2 PUSH1 0x20 MSTORE DUP1 PUSH0 MSTORE PUSH1 0x40 PUSH0 KECCAK256 PUSH0 SWAP2 POP SLOAD SWAP1 PUSH2 0x100 EXP SWAP1 DIV PUSH1 0xFF AND DUP2 JUMP JUMPDEST PUSH1 0x1 PUSH0 SWAP1 SLOAD SWAP1 PUSH2 0x100 EXP SWAP1 DIV PUSH20 0xFFFFFFFFFFFFFFFFFFFFFFFFFFFFFFFFFFFFFFFF AND DUP2 JUMP JUMPDEST PUSH0 PUSH1 0x40 MLOAD SWAP1 POP SWAP1 JUMP JUMPDEST PUSH0 DUP1 REVERT JUMPDEST PUSH0 DUP1 REVERT JUMPDEST PUSH0 PUSH20 0xFFFFFFFFFFFFFFFFFFFFFFFFFFFFFFFFFFFFFFFF DUP3 AND SWAP1 POP SWAP2 SWAP1 POP JUMP JUMPDEST PUSH0 PUSH2 0x544 DUP3 PUSH2 0x51B JUMP JUMPDEST SWAP1 POP SWAP2 SWAP1 POP JUMP JUMPDEST PUSH2 0x554 DUP2 PUSH2 0x53A JUMP JUMPDEST DUP2 EQ PUSH2 0x55E JUMPI PUSH0 DUP1 REVERT JUMPDEST POP JUMP JUMPDEST PUSH0 DUP2 CALLDATALOAD SWAP1 POP PUSH2 0x56F DUP2 PUSH2 0x54B JUMP JUMPDEST SWAP3 SWAP2 POP POP JUMP JUMPDEST PUSH0 PUSH1 0x20 DUP3 DUP5 SUB SLT ISZERO PUSH2 0x58A JUMPI PUSH2 0x589 PUSH2 0x513 JUMP JUMPDEST JUMPDEST PUSH0 PUSH2 0x597 DUP5 DUP3 DUP6 ADD PUSH2 0x561 JUMP JUMPDEST SWAP2 POP POP SWAP3 SWAP2 POP POP JUMP JUMPDEST PUSH0 DUP2 MLOAD SWAP1 POP SWAP2 SWAP1 POP JUMP JUMPDEST PUSH0 DUP3 DUP3 MSTORE PUSH1 0x20 DUP3 ADD SWAP1 POP SWAP3 SWAP2 POP POP JUMP JUMPDEST DUP3 DUP2 DUP4 MCOPY PUSH0 DUP4 DUP4 ADD MSTORE POP POP POP JUMP JUMPDEST PUSH0 PUSH1 0x1F NOT PUSH1 0x1F DUP4 ADD AND SWAP1 POP SWAP2 SWAP1 POP JUMP JUMPDEST PUSH0 PUSH2 0x5E2 DUP3 PUSH2 0x5A0 JUMP JUMPDEST PUSH2 0x5EC DUP2 DUP6 PUSH2 0x5AA JUMP JUMPDEST SWAP4 POP PUSH2 0x5FC DUP2 DUP6 PUSH1 0x20 DUP7 ADD PUSH2 0x5BA JUMP JUMPDEST PUSH2 0x605 DUP2 PUSH2 0x5C8 JUMP JUMPDEST DUP5 ADD SWAP2 POP POP SWAP3 SWAP2 POP POP JUMP JUMPDEST PUSH0 PUSH1 0x20 DUP3 ADD SWAP1 POP DUP2 DUP2 SUB PUSH0 DUP4 ADD MSTORE PUSH2 0x628 DUP2 DUP5 PUSH2 0x5D8 JUMP JUMPDEST SWAP1 POP SWAP3 SWAP2 POP POP JUMP JUMPDEST PUSH0 DUP2 ISZERO ISZERO SWAP1 POP SWAP2 SWAP1 POP JUMP JUMPDEST PUSH2 0x644 DUP2 PUSH2 0x630 JUMP JUMPDEST DUP3 MSTORE POP POP JUMP JUMPDEST PUSH0 PUSH1 0x20 DUP3 ADD SWAP1 POP PUSH2 0x65D PUSH0 DUP4 ADD DUP5 PUSH2 0x63B JUMP JUMPDEST SWAP3 SWAP2 POP POP JUMP JUMPDEST PUSH2 0x66C DUP2 PUSH2 0x53A JUMP JUMPDEST DUP3 MSTORE POP POP JUMP JUMPDEST PUSH0 PUSH1 0x20 DUP3 ADD SWAP1 POP PUSH2 0x685 PUSH0 DUP4 ADD DUP5 PUSH2 0x663 JUMP JUMPDEST SWAP3 SWAP2 POP POP JUMP JUMPDEST PUSH32 0x4E6F7420746865206F776E657200000000000000000000000000000000000000 PUSH0 DUP3 ADD MSTORE POP JUMP JUMPDEST PUSH0 PUSH2 0x6BF PUSH1 0xD DUP4 PUSH2 0x5AA JUMP JUMPDEST SWAP2 POP PUSH2 0x6CA DUP3 PUSH2 0x68B JUMP JUMPDEST PUSH1 0x20 DUP3 ADD SWAP1 POP SWAP2 SWAP1 POP JUMP JUMPDEST PUSH0 PUSH1 0x20 DUP3 ADD SWAP1 POP DUP2 DUP2 SUB PUSH0 DUP4 ADD MSTORE PUSH2 0x6EC DUP2 PUSH2 0x6B3 JUMP JUMPDEST SWAP1 POP SWAP2 SWAP1 POP JUMP JUMPDEST PUSH0 DUP1 REVERT JUMPDEST PUSH0 DUP1 REVERT JUMPDEST PUSH32 0x4E487B7100000000000000000000000000000000000000000000000000000000 PUSH0 MSTORE PUSH1 0x41 PUSH1 0x4 MSTORE PUSH1 0x24 PUSH0 REVERT JUMPDEST PUSH2 0x731 DUP3 PUSH2 0x5C8 JUMP JUMPDEST DUP2 ADD DUP2 DUP2 LT PUSH8 0xFFFFFFFFFFFFFFFF DUP3 GT OR ISZERO PUSH2 0x750 JUMPI PUSH2 0x74F PUSH2 0x6FB JUMP JUMPDEST JUMPDEST DUP1 PUSH1 0x40 MSTORE POP POP POP JUMP JUMPDEST PUSH0 PUSH2 0x762 PUSH2 0x50A JUMP JUMPDEST SWAP1 POP PUSH2 0x76E DUP3 DUP3 PUSH2 0x728 JUMP JUMPDEST SWAP2 SWAP1 POP JUMP JUMPDEST PUSH0 PUSH8 0xFFFFFFFFFFFFFFFF DUP3 GT ISZERO PUSH2 0x78D JUMPI PUSH2 0x78C PUSH2 0x6FB JUMP JUMPDEST JUMPDEST PUSH2 0x796 DUP3 PUSH2 0x5C8 JUMP JUMPDEST SWAP1 POP PUSH1 0x20 DUP2 ADD SWAP1 POP SWAP2 SWAP1 POP JUMP JUMPDEST PUSH0 PUSH2 0x7B5 PUSH2 0x7B0 DUP5 PUSH2 0x773 JUMP JUMPDEST PUSH2 0x759 JUMP JUMPDEST SWAP1 POP DUP3 DUP2 MSTORE PUSH1 0x20 DUP2 ADD DUP5 DUP5 DUP5 ADD GT ISZERO PUSH2 0x7D1 JUMPI PUSH2 0x7D0 PUSH2 0x6F7 JUMP JUMPDEST JUMPDEST PUSH2 0x7DC DUP5 DUP3 DUP6 PUSH2 0x5BA JUMP JUMPDEST POP SWAP4 SWAP3 POP POP POP JUMP JUMPDEST PUSH0 DUP3 PUSH1 0x1F DUP4 ADD SLT PUSH2 0x7F8 JUMPI PUSH2 0x7F7 PUSH2 0x6F3 JUMP JUMPDEST JUMPDEST DUP2 MLOAD PUSH2 0x808 DUP5 DUP3 PUSH1 0x20 DUP7 ADD PUSH2 0x7A3 JUMP JUMPDEST SWAP2 POP POP SWAP3 SWAP2 POP POP JUMP JUMPDEST PUSH0 PUSH1 0x20 DUP3 DUP5 SUB SLT ISZERO PUSH2 0x826 JUMPI PUSH2 0x825 PUSH2 0x513 JUMP JUMPDEST JUMPDEST PUSH0 DUP3 ADD MLOAD PUSH8 0xFFFFFFFFFFFFFFFF DUP2 GT ISZERO PUSH2 0x843 JUMPI PUSH2 0x842 PUSH2 0x517 JUMP JUMPDEST JUMPDEST PUSH2 0x84F DUP5 DUP3 DUP6 ADD PUSH2 0x7E4 JUMP JUMPDEST SWAP2 POP POP SWAP3 SWAP2 POP POP JUMP JUMPDEST PUSH0 DUP2 SWAP1 POP SWAP3 SWAP2 POP POP JUMP JUMPDEST PUSH32 0x3C73637269707420747970653D27746578742F6A617661736372697074273E6C PUSH0 DUP3 ADD MSTORE PUSH32 0x6574206D6F64653D000000000000000000000000000000000000000000000000 PUSH1 0x20 DUP3 ADD MSTORE POP JUMP JUMPDEST PUSH0 PUSH2 0x8BC PUSH1 0x28 DUP4 PUSH2 0x858 JUMP JUMPDEST SWAP2 POP PUSH2 0x8C7 DUP3 PUSH2 0x862 JUMP JUMPDEST PUSH1 0x28 DUP3 ADD SWAP1 POP SWAP2 SWAP1 POP JUMP JUMPDEST PUSH0 PUSH2 0x8DC DUP3 PUSH2 0x5A0 JUMP JUMPDEST PUSH2 0x8E6 DUP2 DUP6 PUSH2 0x858 JUMP JUMPDEST SWAP4 POP PUSH2 0x8F6 DUP2 DUP6 PUSH1 0x20 DUP7 ADD PUSH2 0x5BA JUMP JUMPDEST DUP1 DUP5 ADD SWAP2 POP POP SWAP3 SWAP2 POP POP JUMP JUMPDEST PUSH32 0x3B66756E6374696F6E20636C65616E416E644F70656E2865297B652E70726576 PUSH0 DUP3 ADD MSTORE PUSH32 0x656E7444656661756C7428293B636F6E7374206E3D652E7461726765742E6872 PUSH1 0x20 DUP3 ADD MSTORE PUSH32 0x65663B6C657420743D6E3B6E2E696E6465784F66282725454625424625424427 PUSH1 0x40 DUP3 ADD MSTORE PUSH32 0x293E2D31262628743D6E2E736C69636528302C6E2E696E6465784F6628272545 PUSH1 0x60 DUP3 ADD MSTORE PUSH32 0x46254246254244272929292C77696E646F772E6F70656E28742C275F626C616E PUSH1 0x80 DUP3 ADD MSTORE PUSH32 0x6B27297D66756E6374696F6E20757064617465436C6F636B28297B636F6E7374 PUSH1 0xA0 DUP3 ADD MSTORE PUSH32 0x206E6F773D6E6577204461746528293B636F6E737420686F7572733D53747269 PUSH1 0xC0 DUP3 ADD MSTORE PUSH32 0x6E67286E6F772E676574486F7572732829292E706164537461727428322C2730 PUSH1 0xE0 DUP3 ADD MSTORE PUSH32 0x27293B636F6E7374206D696E757465733D537472696E67286E6F772E6765744D PUSH2 0x100 DUP3 ADD MSTORE PUSH32 0x696E757465732829292E706164537461727428322C273027293B636F6E737420 PUSH2 0x120 DUP3 ADD MSTORE PUSH32 0x7365636F6E64733D537472696E67286E6F772E6765745365636F6E6473282929 PUSH2 0x140 DUP3 ADD MSTORE PUSH32 0x2E706164537461727428322C273027293B636F6E7374206D6F6E74684E616D65 PUSH2 0x160 DUP3 ADD MSTORE PUSH32 0x733D5B274A616E75617279272C274665627275617279272C274D61726368272C PUSH2 0x180 DUP3 ADD MSTORE PUSH32 0x27417072696C272C274D6179272C274A756E65272C274A756C79272C27417567 PUSH2 0x1A0 DUP3 ADD MSTORE PUSH32 0x757374272C2753657074656D626572272C274F63746F626572272C274E6F7665 PUSH2 0x1C0 DUP3 ADD MSTORE PUSH32 0x6D626572272C27446563656D626572275D3B636F6E7374206D6F6E74683D6D6F PUSH2 0x1E0 DUP3 ADD MSTORE PUSH32 0x6E74684E616D65735B6E6F772E6765744D6F6E746828295D3B636F6E73742064 PUSH2 0x200 DUP3 ADD MSTORE PUSH32 0x61793D6E6F772E6765744461746528293B636F6E737420796561723D6E6F772E PUSH2 0x220 DUP3 ADD MSTORE PUSH32 0x67657446756C6C5965617228293B636F6E7374207375666669783D2864617929 PUSH2 0x240 DUP3 ADD MSTORE PUSH32 0x3D3E7B6966286461793E3326266461793C32312972657475726E277468273B73 PUSH2 0x260 DUP3 ADD MSTORE PUSH32 0x776974636828646179253130297B6361736520313A72657475726E277374273B PUSH2 0x280 DUP3 ADD MSTORE PUSH32 0x6361736520323A72657475726E276E64273B6361736520333A72657475726E27 PUSH2 0x2A0 DUP3 ADD MSTORE PUSH32 0x7264273B64656661756C743A72657475726E277468277D7D3B636F6E73742066 PUSH2 0x2C0 DUP3 ADD MSTORE PUSH32 0x756C6C446174653D60247B6D6F6E74687D20247B6461797D247B737566666978 PUSH2 0x2E0 DUP3 ADD MSTORE PUSH32 0x28646179297D2C20247B796561727D20247B686F7572737D3A247B6D696E7574 PUSH2 0x300 DUP3 ADD MSTORE PUSH32 0x65737D3A247B7365636F6E64737D603B646F63756D656E742E71756572795365 PUSH2 0x320 DUP3 ADD MSTORE PUSH32 0x6C6563746F7228272E63757272656E742D74696D6527292E74657874436F6E74 PUSH2 0x340 DUP3 ADD MSTORE PUSH32 0x656E743D66756C6C446174657D736574496E74657276616C2875706461746543 PUSH2 0x360 DUP3 ADD MSTORE PUSH32 0x6C6F636B2C31303030293B757064617465436C6F636B28293B646F63756D656E PUSH2 0x380 DUP3 ADD MSTORE PUSH32 0x742E6164644576656E744C697374656E65722827444F4D436F6E74656E744C6F PUSH2 0x3A0 DUP3 ADD MSTORE PUSH32 0x61646564272C66756E6374696F6E28297B646F63756D656E742E676574456C65 PUSH2 0x3C0 DUP3 ADD MSTORE PUSH32 0x6D656E74427949642827706F73742D7772617070657227292E7374796C652E64 PUSH2 0x3E0 DUP3 ADD MSTORE PUSH32 0x6973706C61793D27626C6F636B277D293B66756E6374696F6E20736574446172 PUSH2 0x400 DUP3 ADD MSTORE PUSH32 0x6B28297B646F63756D656E742E676574456C656D656E744279496428276D6F64 PUSH2 0x420 DUP3 ADD MSTORE PUSH32 0x652D73776974636827292E7374796C652E66696C7465723D27696E7665727428 PUSH2 0x440 DUP3 ADD MSTORE PUSH32 0x2E373529273B646F63756D656E742E717565727953656C6563746F72416C6C28 PUSH2 0x460 DUP3 ADD MSTORE PUSH32 0x272E6C696768742D7465787427292E666F72456163682866756E6374696F6E28 PUSH2 0x480 DUP3 ADD MSTORE PUSH32 0x656C656D656E74297B656C656D656E742E636C6173734C6973742E72656D6F76 PUSH2 0x4A0 DUP3 ADD MSTORE PUSH32 0x6528276C696768742D7465787427293B656C656D656E742E636C6173734C6973 PUSH2 0x4C0 DUP3 ADD MSTORE PUSH32 0x742E61646428276461726B2D7465787427297D293B646F63756D656E742E7175 PUSH2 0x4E0 DUP3 ADD MSTORE PUSH32 0x65727953656C6563746F72416C6C28272E6C696768742D746578742D3227292E PUSH2 0x500 DUP3 ADD MSTORE PUSH32 0x666F72456163682866756E6374696F6E28656C656D656E74297B656C656D656E PUSH2 0x520 DUP3 ADD MSTORE PUSH32 0x742E636C6173734C6973742E72656D6F766528276C696768742D746578742D32 PUSH2 0x540 DUP3 ADD MSTORE PUSH32 0x27293B656C656D656E742E636C6173734C6973742E61646428276461726B2D74 PUSH2 0x560 DUP3 ADD MSTORE PUSH32 0x6578742D3227297D293B646F63756D656E742E717565727953656C6563746F72 PUSH2 0x580 DUP3 ADD MSTORE PUSH32 0x416C6C28272E6C696768742D746578742D3327292E666F72456163682866756E PUSH2 0x5A0 DUP3 ADD MSTORE PUSH32 0x6374696F6E28656C656D656E74297B656C656D656E742E636C6173734C697374 PUSH2 0x5C0 DUP3 ADD MSTORE PUSH32 0x2E72656D6F766528276C696768742D746578742D3327293B656C656D656E742E PUSH2 0x5E0 DUP3 ADD MSTORE PUSH32 0x636C6173734C6973742E61646428276461726B2D746578742D3327297D293B64 PUSH2 0x600 DUP3 ADD MSTORE PUSH32 0x6F63756D656E742E717565727953656C6563746F72416C6C28272E6C69676874 PUSH2 0x620 DUP3 ADD MSTORE PUSH32 0x2D746578742D3427292E666F72456163682866756E6374696F6E28656C656D65 PUSH2 0x640 DUP3 ADD MSTORE PUSH32 0x6E74297B656C656D656E742E636C6173734C6973742E72656D6F766528276C69 PUSH2 0x660 DUP3 ADD MSTORE PUSH32 0x6768742D746578742D3427293B656C656D656E742E636C6173734C6973742E61 PUSH2 0x680 DUP3 ADD MSTORE PUSH32 0x646428276461726B2D746578742D3427297D293B646F63756D656E742E717565 PUSH2 0x6A0 DUP3 ADD MSTORE PUSH32 0x727953656C6563746F72416C6C28272E6C696768742D626727292E666F724561 PUSH2 0x6C0 DUP3 ADD MSTORE PUSH32 0x63682866756E6374696F6E28656C656D656E74297B656C656D656E742E636C61 PUSH2 0x6E0 DUP3 ADD MSTORE PUSH32 0x73734C6973742E72656D6F766528276C696768742D626727293B656C656D656E PUSH2 0x700 DUP3 ADD MSTORE PUSH32 0x742E636C6173734C6973742E61646428276461726B2D626727297D293B646F63 PUSH2 0x720 DUP3 ADD MSTORE PUSH32 0x756D656E742E717565727953656C6563746F72416C6C28272E6C696768742D62 PUSH2 0x740 DUP3 ADD MSTORE PUSH32 0x672D3227292E666F72456163682866756E6374696F6E28656C656D656E74297B PUSH2 0x760 DUP3 ADD MSTORE PUSH32 0x656C656D656E742E636C6173734C6973742E72656D6F766528276C696768742D PUSH2 0x780 DUP3 ADD MSTORE PUSH32 0x62672D3227293B656C656D656E742E636C6173734C6973742E61646428276461 PUSH2 0x7A0 DUP3 ADD MSTORE PUSH32 0x726B2D62672D3227297D293B646F63756D656E742E717565727953656C656374 PUSH2 0x7C0 DUP3 ADD MSTORE PUSH32 0x6F72416C6C28272E6C696768742D626F726465722D3227292E666F7245616368 PUSH2 0x7E0 DUP3 ADD MSTORE PUSH32 0x2866756E6374696F6E28656C656D656E74297B656C656D656E742E636C617373 PUSH2 0x800 DUP3 ADD MSTORE PUSH32 0x4C6973742E72656D6F766528276C696768742D626F726465722D3227293B656C PUSH2 0x820 DUP3 ADD MSTORE PUSH32 0x656D656E742E636C6173734C6973742E61646428276461726B2D626F72646572 PUSH2 0x840 DUP3 ADD MSTORE PUSH32 0x2D3227297D293B646F63756D656E742E717565727953656C6563746F72416C6C PUSH2 0x860 DUP3 ADD MSTORE PUSH32 0x28272E6C696768742D626F7264657227292E666F72456163682866756E637469 PUSH2 0x880 DUP3 ADD MSTORE PUSH32 0x6F6E28656C656D656E74297B656C656D656E742E636C6173734C6973742E7265 PUSH2 0x8A0 DUP3 ADD MSTORE PUSH32 0x6D6F766528276C696768742D626F7264657227293B656C656D656E742E636C61 PUSH2 0x8C0 DUP3 ADD MSTORE PUSH32 0x73734C6973742E61646428276461726B2D626F7264657227297D293B646F6375 PUSH2 0x8E0 DUP3 ADD MSTORE PUSH32 0x6D656E742E717565727953656C6563746F72416C6C28272E6C696768742D6C69 PUSH2 0x900 DUP3 ADD MSTORE PUSH32 0x6E6B27292E666F72456163682866756E6374696F6E28656C656D656E74297B65 PUSH2 0x920 DUP3 ADD MSTORE PUSH32 0x6C656D656E742E636C6173734C6973742E72656D6F766528276C696768742D6C PUSH2 0x940 DUP3 ADD MSTORE PUSH32 0x696E6B27293B656C656D656E742E636C6173734C6973742E6164642827646172 PUSH2 0x960 DUP3 ADD MSTORE PUSH32 0x6B2D6C696E6B27297D297D66756E6374696F6E207365744C6967687428297B64 PUSH2 0x980 DUP3 ADD MSTORE PUSH32 0x6F63756D656E742E676574456C656D656E744279496428276D6F64652D737769 PUSH2 0x9A0 DUP3 ADD MSTORE PUSH32 0x74636827292E7374796C652E66696C7465723D27696E76657274283029273B64 PUSH2 0x9C0 DUP3 ADD MSTORE PUSH32 0x6F63756D656E742E717565727953656C6563746F72416C6C28272E6461726B2D PUSH2 0x9E0 DUP3 ADD MSTORE PUSH32 0x7465787427292E666F72456163682866756E6374696F6E28656C656D656E7429 PUSH2 0xA00 DUP3 ADD MSTORE PUSH32 0x7B656C656D656E742E636C6173734C6973742E72656D6F766528276461726B2D PUSH2 0xA20 DUP3 ADD MSTORE PUSH32 0x7465787427293B656C656D656E742E636C6173734C6973742E61646428276C69 PUSH2 0xA40 DUP3 ADD MSTORE PUSH32 0x6768742D7465787427297D293B646F63756D656E742E717565727953656C6563 PUSH2 0xA60 DUP3 ADD MSTORE PUSH32 0x746F72416C6C28272E6461726B2D746578742D3227292E666F72456163682866 PUSH2 0xA80 DUP3 ADD MSTORE PUSH32 0x756E6374696F6E28656C656D656E74297B656C656D656E742E636C6173734C69 PUSH2 0xAA0 DUP3 ADD MSTORE PUSH32 0x73742E72656D6F766528276461726B2D746578742D3227293B656C656D656E74 PUSH2 0xAC0 DUP3 ADD MSTORE PUSH32 0x2E636C6173734C6973742E61646428276C696768742D746578742D3227297D29 PUSH2 0xAE0 DUP3 ADD MSTORE PUSH32 0x3B646F63756D656E742E717565727953656C6563746F72416C6C28272E646172 PUSH2 0xB00 DUP3 ADD MSTORE PUSH32 0x6B2D746578742D3327292E666F72456163682866756E6374696F6E28656C656D PUSH2 0xB20 DUP3 ADD MSTORE PUSH32 0x656E74297B656C656D656E742E636C6173734C6973742E72656D6F7665282764 PUSH2 0xB40 DUP3 ADD MSTORE PUSH32 0x61726B2D746578742D3327293B656C656D656E742E636C6173734C6973742E61 PUSH2 0xB60 DUP3 ADD MSTORE PUSH32 0x646428276C696768742D746578742D3327297D293B646F63756D656E742E7175 PUSH2 0xB80 DUP3 ADD MSTORE PUSH32 0x65727953656C6563746F72416C6C28272E6461726B2D746578742D3427292E66 PUSH2 0xBA0 DUP3 ADD MSTORE PUSH32 0x6F72456163682866756E6374696F6E28656C656D656E74297B656C656D656E74 PUSH2 0xBC0 DUP3 ADD MSTORE PUSH32 0x2E636C6173734C6973742E72656D6F766528276461726B2D746578742D342729 PUSH2 0xBE0 DUP3 ADD MSTORE PUSH32 0x3B656C656D656E742E636C6173734C6973742E61646428276C696768742D7465 PUSH2 0xC00 DUP3 ADD MSTORE PUSH32 0x78742D3427297D293B646F63756D656E742E717565727953656C6563746F7241 PUSH2 0xC20 DUP3 ADD MSTORE PUSH32 0x6C6C28272E6461726B2D626727292E666F72456163682866756E6374696F6E28 PUSH2 0xC40 DUP3 ADD MSTORE PUSH32 0x656C656D656E74297B656C656D656E742E636C6173734C6973742E72656D6F76 PUSH2 0xC60 DUP3 ADD MSTORE PUSH32 0x6528276461726B2D626727293B656C656D656E742E636C6173734C6973742E61 PUSH2 0xC80 DUP3 ADD MSTORE PUSH32 0x646428276C696768742D626727297D293B646F63756D656E742E717565727953 PUSH2 0xCA0 DUP3 ADD MSTORE PUSH32 0x656C6563746F72416C6C28272E6461726B2D62672D3227292E666F7245616368 PUSH2 0xCC0 DUP3 ADD MSTORE PUSH32 0x2866756E6374696F6E28656C656D656E74297B656C656D656E742E636C617373 PUSH2 0xCE0 DUP3 ADD MSTORE PUSH32 0x4C6973742E72656D6F766528276461726B2D62672D3227293B656C656D656E74 PUSH2 0xD00 DUP3 ADD MSTORE PUSH32 0x2E636C6173734C6973742E61646428276C696768742D62672D3227297D293B64 PUSH2 0xD20 DUP3 ADD MSTORE PUSH32 0x6F63756D656E742E717565727953656C6563746F72416C6C28272E6461726B2D PUSH2 0xD40 DUP3 ADD MSTORE PUSH32 0x626F726465722D3227292E666F72456163682866756E6374696F6E28656C656D PUSH2 0xD60 DUP3 ADD MSTORE PUSH32 0x656E74297B656C656D656E742E636C6173734C6973742E72656D6F7665282764 PUSH2 0xD80 DUP3 ADD MSTORE PUSH32 0x61726B2D626F726465722D3227293B656C656D656E742E636C6173734C697374 PUSH2 0xDA0 DUP3 ADD MSTORE PUSH32 0x2E61646428276C696768742D626F726465722D3227297D293B646F63756D656E PUSH2 0xDC0 DUP3 ADD MSTORE PUSH32 0x742E717565727953656C6563746F72416C6C28272E6461726B2D626F72646572 PUSH2 0xDE0 DUP3 ADD MSTORE PUSH32 0x27292E666F72456163682866756E6374696F6E28656C656D656E74297B656C65 PUSH2 0xE00 DUP3 ADD MSTORE PUSH32 0x6D656E742E636C6173734C6973742E72656D6F766528276461726B2D626F7264 PUSH2 0xE20 DUP3 ADD MSTORE PUSH32 0x657227293B656C656D656E742E636C6173734C6973742E61646428276C696768 PUSH2 0xE40 DUP3 ADD MSTORE PUSH32 0x742D626F7264657227297D293B646F63756D656E742E717565727953656C6563 PUSH2 0xE60 DUP3 ADD MSTORE PUSH32 0x746F72416C6C28272E6461726B2D6C696E6B27292E666F72456163682866756E PUSH2 0xE80 DUP3 ADD MSTORE PUSH32 0x6374696F6E28656C656D656E74297B656C656D656E742E636C6173734C697374 PUSH2 0xEA0 DUP3 ADD MSTORE PUSH32 0x2E72656D6F766528276461726B2D6C696E6B27293B656C656D656E742E636C61 PUSH2 0xEC0 DUP3 ADD MSTORE PUSH32 0x73734C6973742E61646428276C696768742D6C696E6B27297D297D66756E6374 PUSH2 0xEE0 DUP3 ADD MSTORE PUSH32 0x696F6E20746F67676C654D6F646528297B6966286D6F64653D3D3D30297B6D6F PUSH2 0xF00 DUP3 ADD MSTORE PUSH32 0x64653D313B7365744461726B28297D656C73657B6D6F64653D303B7365744C69 PUSH2 0xF20 DUP3 ADD MSTORE PUSH32 0x67687428297D646F63756D656E742E676574456C656D656E744279496428276D PUSH2 0xF40 DUP3 ADD MSTORE PUSH32 0x6F64652D73776974636827292E626C757228297D3C2F7363726970743E000000 PUSH2 0xF60 DUP3 ADD MSTORE POP JUMP JUMPDEST PUSH0 PUSH2 0x1BED PUSH2 0xF7D DUP4 PUSH2 0x858 JUMP JUMPDEST SWAP2 POP PUSH2 0x1BF8 DUP3 PUSH2 0x902 JUMP JUMPDEST PUSH2 0xF7D DUP3 ADD SWAP1 POP SWAP2 SWAP1 POP JUMP JUMPDEST PUSH0 PUSH2 0x1C0E DUP3 PUSH2 0x8B0 JUMP JUMPDEST SWAP2 POP PUSH2 0x1C1A DUP3 DUP5 PUSH2 0x8D2 JUMP JUMPDEST SWAP2 POP PUSH2 0x1C25 DUP3 PUSH2 0x1BE0 JUMP JUMPDEST SWAP2 POP DUP2 SWAP1 POP SWAP3 SWAP2 POP POP JUMP JUMPDEST PUSH32 0x4E6F7420617574686F72697A6564000000000000000000000000000000000000 PUSH0 DUP3 ADD MSTORE POP JUMP JUMPDEST PUSH0 PUSH2 0x1C64 PUSH1 0xE DUP4 PUSH2 0x5AA JUMP JUMPDEST SWAP2 POP PUSH2 0x1C6F DUP3 PUSH2 0x1C30 JUMP JUMPDEST PUSH1 0x20 DUP3 ADD SWAP1 POP SWAP2 SWAP1 POP JUMP JUMPDEST PUSH0 PUSH1 0x20 DUP3 ADD SWAP1 POP DUP2 DUP2 SUB PUSH0 DUP4 ADD MSTORE PUSH2 0x1C91 DUP2 PUSH2 0x1C58 JUMP JUMPDEST SWAP1 POP SWAP2 SWAP1 POP JUMP INVALID LOG2 PUSH5 0x6970667358 0x22 SLT KECCAK256 PUSH4 0xCA752F8C 0xBD DUP7 0x2E 0xEE BYTE MULMOD 0xD2 0xCE DUP4 OR 0xD9 PUSH15 0x609A0BAA99C1F4C2A2FE059DF1765D PUSH5 0x736F6C6343 STOP ADDMOD BYTE STOP CALLER "
		},
		"gasEstimates": {
			"creation": {
				"codeDepositCost": "1474800",
				"executionCost": "infinite",
				"totalCost": "infinite"
			},
			"external": {
				"accessList(address)": "2899",
				"getScript()": "infinite",
				"grantAccess(address)": "26950",
				"owner()": "2596",
				"revokeAccess(address)": "27015",
				"setProzacYouthUtils_1(address)": "29150"
			}
		},
		"methodIdentifiers": {
			"accessList(address)": "87a5b67c",
			"getScript()": "620b7303",
			"grantAccess(address)": "0ae5e739",
			"owner()": "8da5cb5b",
			"revokeAccess(address)": "85e68531",
			"setProzacYouthUtils_1(address)": "7579b796"
		}
	},
	"abi": [
		{
			"inputs": [
				{
					"internalType": "address",
					"name": "ProzacYouthUtils_addr",
					"type": "address"
				}
			],
			"stateMutability": "nonpayable",
			"type": "constructor"
		},
		{
			"inputs": [
				{
					"internalType": "address",
					"name": "",
					"type": "address"
				}
			],
			"name": "accessList",
			"outputs": [
				{
					"internalType": "bool",
					"name": "",
					"type": "bool"
				}
			],
			"stateMutability": "view",
			"type": "function"
		},
		{
			"inputs": [],
			"name": "getScript",
			"outputs": [
				{
					"internalType": "string",
					"name": "",
					"type": "string"
				}
			],
			"stateMutability": "view",
			"type": "function"
		},
		{
			"inputs": [
				{
					"internalType": "address",
					"name": "_address",
					"type": "address"
				}
			],
			"name": "grantAccess",
			"outputs": [],
			"stateMutability": "nonpayable",
			"type": "function"
		},
		{
			"inputs": [],
			"name": "owner",
			"outputs": [
				{
					"internalType": "address",
					"name": "",
					"type": "address"
				}
			],
			"stateMutability": "view",
			"type": "function"
		},
		{
			"inputs": [
				{
					"internalType": "address",
					"name": "_address",
					"type": "address"
				}
			],
			"name": "revokeAccess",
			"outputs": [],
			"stateMutability": "nonpayable",
			"type": "function"
		},
		{
			"inputs": [
				{
					"internalType": "address",
					"name": "addr",
					"type": "address"
				}
			],
			"name": "setProzacYouthUtils_1",
			"outputs": [],
			"stateMutability": "nonpayable",
			"type": "function"
		}
	]
}