{
	"data": {
		"bytecode": {
			"linkReferences": {},
			"object": "60806040526040518060600160405280602b81526020016124a1602b91395f908161002a9190610333565b5060405180606001604052806039815260200161251960399139600190816100529190610333565b50604051806080016040528060488152602001612459604891396002908161007a9190610333565b506040518060800160405280604d81526020016124cc604d9139600390816100a29190610333565b506040518060400160405280601a81526020017f68747470733a2f2f616e647265776d69746368656c6c2e78797a000000000000815250600490816100e79190610333565b503480156100f3575f80fd5b50610402565b5f81519050919050565b7f4e487b71000000000000000000000000000000000000000000000000000000005f52604160045260245ffd5b7f4e487b71000000000000000000000000000000000000000000000000000000005f52602260045260245ffd5b5f600282049050600182168061017457607f821691505b60208210810361018757610186610130565b5b50919050565b5f819050815f5260205f209050919050565b5f6020601f8301049050919050565b5f82821b905092915050565b5f600883026101e97fffffffffffffffffffffffffffffffffffffffffffffffffffffffffffffffff826101ae565b6101f386836101ae565b95508019841693508086168417925050509392505050565b5f819050919050565b5f819050919050565b5f61023761023261022d8461020b565b610214565b61020b565b9050919050565b5f819050919050565b6102508361021d565b61026461025c8261023e565b8484546101ba565b825550505050565b5f90565b61027861026c565b610283818484610247565b505050565b5b818110156102a65761029b5f82610270565b600181019050610289565b5050565b601f8211156102eb576102bc8161018d565b6102c58461019f565b810160208510156102d4578190505b6102e86102e08561019f565b830182610288565b50505b505050565b5f82821c905092915050565b5f61030b5f19846008026102f0565b1980831691505092915050565b5f61032383836102fc565b9150826002028217905092915050565b61033c826100f9565b67ffffffffffffffff81111561035557610354610103565b5b61035f825461015d565b61036a8282856102aa565b5f60209050601f83116001811461039b575f8415610389578287015190505b6103938582610318565b8655506103fa565b601f1984166103a98661018d565b5f5b828110156103d0578489015182556001820191506020850194506020810190506103ab565b868310156103ed57848901516103e9601f8916826102fc565b8355505b6001600288020188555050505b505050505050565b61204a8061040f5f395ff3fe608060405234801561000f575f80fd5b5060043610610034575f3560e01c806318a6ef6c146100385780637899ff8f14610056575b5f80fd5b610040610074565b60405161004d9190610154565b60405180910390f35b61005e6100a7565b60405161006b9190610154565b60405180910390f35b606060015f600260036004604051602001610093959493929190611f88565b604051602081830303815290604052905090565b60606040518060400160405280601481526020017f3c626f64793e3c2f626f64793e3c2f68746d6c3e000000000000000000000000815250905090565b5f81519050919050565b5f82825260208201905092915050565b8281835e5f83830152505050565b5f601f19601f8301169050919050565b5f610126826100e4565b61013081856100ee565b93506101408185602086016100fe565b6101498161010c565b840191505092915050565b5f6020820190508181035f83015261016c818461011c565b905092915050565b5f81905092915050565b7f3c21646f637479706568746d6c3e3c68746d6c206c616e673d656e3e3c6d65745f8201527f6120636f6e74656e743d27746578742f68746d6c3b20636861727365743d555460208201527f462d3827687474702d65717569763d436f6e74656e742d547970653e3c6d657460408201527f6120636f6e74656e743d2777696474683d6465766963652d77696474682c696e60608201527f697469616c2d7363616c653d31276e616d653d76696577706f72743e3c6d657460808201527f6120636f6e74656e743d2769653d6564676527687474702d65717569763d582d60a08201527f55412d436f6d70617469626c653e3c6d65746120646576656c6f7065723d274160c08201527f6e64726577204d69746368656c6c273e3c7469746c653e50726f7a616320596f60e08201527f7574683c2f7469746c653e3c736372697074207372633d00000000000000000061010082015250565b5f6102e461011783610174565b91506102ef8261017e565b61011782019050919050565b7f4e487b71000000000000000000000000000000000000000000000000000000005f52602260045260245ffd5b5f600282049050600182168061033f57607f821691505b602082108103610352576103516102fb565b5b50919050565b5f819050815f5260205f209050919050565b5f815461037681610328565b6103808186610174565b9450600182165f811461039a57600181146103af576103e1565b60ff19831686528115158202860193506103e1565b6103b885610358565b5f5b838110156103d9578154818901526001820191506020810190506103ba565b838801955050505b50505092915050565b7f3e3c2f7363726970743e3c736372697074207372633d000000000000000000005f82015250565b5f61041e601683610174565b9150610429826103ea565b601682019050919050565b7f3e3c2f7363726970743e3c6c696e6b20687265663d00000000000000000000005f82015250565b5f610468601583610174565b915061047382610434565b601582019050919050565b7f2072656c3d7374796c6573686565743e3c6c696e6b20687265663d27000000005f82015250565b5f6104b2601c83610174565b91506104bd8261047e565b601c82019050919050565b7f2772656c3d7374796c6573686565743e3c7374796c653e626f64797b666f6e745f8201527f2d66616d696c793a526f626f746f2c417269616c2c48656c7665746963612c7360208201527f616e732d73657269663b666f6e742d73697a653a313070743b6d617267696e3a60408201527f303b70616464696e673a3570787d2e616e64726577732d636f6e7461696e657260608201527f7b6d617267696e3a6175746f3b77696474683a3630257d406d65646961206f6e60808201527f6c792073637265656e20616e6420286d61782d77696474683a3630307078297b60a08201527f2e616e64726577732d636f6e7461696e65727b77696474683a313030257d7d2e60c08201527f7461626c657b6d617267696e3a32307078206175746f3b77696474683a36302560e08201527f3b626f726465722d636f6c6c617073653a636f6c6c617073657d406d656469616101008201527f206f6e6c792073637265656e20616e6420286d61782d77696474683a363030706101208201527f78297b2e7461626c657b77696474683a313030257d7d2e666164652d696e7b6f6101408201527f7061636974793a313b616e696d6174696f6e2d6e616d653a66616465496e4f706101608201527f61636974793b616e696d6174696f6e2d697465726174696f6e2d636f756e743a6101808201527f313b616e696d6174696f6e2d74696d696e672d66756e6374696f6e3a656173656101a08201527f2d696e3b616e696d6174696f6e2d6475726174696f6e3a32737d406b657966726101c08201527f616d65732066616465496e4f7061636974797b30257b6f7061636974793a307d6101e08201527f313030257b6f7061636974793a317d7d236c6f6164696e672d746578747b666f6102008201527f6e742d73697a653a313070743b746578742d616c69676e3a72696768747d236c6102208201527f6f6164696e677b77696474683a313030257d2e6865616465722d7469746c657b6102408201527f666f6e742d73697a653a313670743b666f6e742d7765696768743a3730303b746102608201527f6578742d616c69676e3a63656e7465723b6261636b67726f756e642d636f6c6f6102808201527f723a233234336639383b70616464696e673a3130707820303b626f726465722d6102a08201527f7261646975733a3570787d2e62726561646372756d62737b666f6e742d73697a6102c08201527f653a3970743b636f6c6f723a233737373b6d617267696e2d626f74746f6d3a316102e08201527f3070787d236d6f64652d7377697463687b637572736f723a706f696e7465723b6103008201527f706f736974696f6e3a6162736f6c7574653b746f703a313070783b72696768746103208201527f3a313070787d2e666f72756d2d72756c65737b626f726465722d7261646975736103408201527f3a3570783b70616464696e673a313070783b666f6e742d73697a653a3970743b6103608201527f6d617267696e2d626f74746f6d3a323070787d2e7461626c652d6865616465726103808201527f2c2e7461626c652d726f777b70616464696e673a3870787d2e7461626c652d686103a08201527f65616465727b6261636b67726f756e642d636f6c6f723a233234336639383b666103c08201527f6f6e742d7765696768743a3730307d2e7461626c653e2e6c696768742d62673a6103e08201527f6e74682d6368696c64286576656e297b6261636b67726f756e642d636f6c6f726104008201527f3a2365306537666621696d706f7274616e747d2e6c696768742d62677b6261636104208201527f6b67726f756e642d636f6c6f723a2366376636663121696d706f7274616e747d6104408201527f2e6c696768742d626f726465727b626f726465723a31707820736f6c696420236104608201527f63636321696d706f7274616e747d2e6c696768742d626f726465722d327b626f6104808201527f726465723a31707820736f6c6964202363356432666621696d706f7274616e746104a08201527f7d2e6c696768742d62672d327b6261636b67726f756e642d636f6c6f723a23656104c08201527f306537666621696d706f7274616e747d2e6c696768742d746578747b636f6c6f6104e08201527f723a2366376636663121696d706f7274616e747d2e6c696768742d746578742d6105008201527f327b636f6c6f723a2332343366393821696d706f7274616e747d2e6572726f726105208201527f2d746578747b636f6c6f723a236630337d2e6461726b2d6c696e6b7b636f6c6f6105408201527f723a2333303535636321696d706f7274616e747d2e6461726b2d746578742d326105608201527f7b636f6c6f723a2334353636643321696d706f7274616e747d2e6c696768742d6105808201527f746578742d337b636f6c6f723a2331663166316621696d706f7274616e747d2e6105a08201527f6461726b2d746578742d337b636f6c6f723a2332363433613221696d706f72746105c08201527f616e747d2e6c696768742d746578742d347b636f6c6f723a23316631663166216105e08201527f696d706f7274616e747d2e6461726b2d746578742d347b636f6c6f723a2363646106008201527f6364636421696d706f7274616e747d2e7461626c653e2e6461726b2d62673a6e6106208201527f74682d6368696c64286576656e297b6261636b67726f756e642d636f6c6f723a6106408201527f2331663166316621696d706f7274616e747d2e6461726b2d62677b6261636b676106608201527f726f756e642d636f6c6f723a2331323132313221696d706f7274616e747d2e646106808201527f61726b2d626f726465727b626f726465723a31707820736f6c696420233535356106a08201527f21696d706f7274616e747d2e6461726b2d626f726465722d327b626f726465726106c08201527f3a31707820736f6c6964202333333321696d706f7274616e747d2e6461726b2d6106e08201527f62672d327b6261636b67726f756e642d636f6c6f723a2334343421696d706f726107008201527f74616e747d2e6461726b2d746578747b636f6c6f723a2331323132313221696d6107208201527f706f7274616e747d2e706f73742d777261707065727b646973706c61793a6e6f6107408201527f6e657d2e736d616c6c2d746578747b666f6e742d73697a653a3870743b636f6c6107608201527f6f723a233535357d2e63757272656e742d74696d657b666f6e742d73697a653a6107808201527f3870743b636f6c6f723a233737373b766572746963616c2d616c69676e3a73756107a08201527f7065723b6d617267696e2d72696768743a3270787d237461626c652d626f64796107c08201527f7b7461626c652d6c61796f75743a66697865647d2e74696d652d7772617070656107e08201527f727b646973706c61793a696e6c696e657d2e6c6f6164696e672d63656c6c7b646108008201527f6973706c61793a666c65783b626f726465723a303b746578742d616c69676e3a6108208201527f72696768747d2e706f73742d696e666f7b646973706c61793a666c65783b6a756108408201527f73746966792d636f6e74656e743a73706163652d6265747765656e3b616c69676108608201527f6e2d6974656d733a63656e7465727d2e706f73742d696e666f207370616e7b666108808201527f6f6e742d73697a653a313070743b636f6c6f723a233234336639383b666f6e746108a08201527f2d7765696768743a3730307d2e706f73742d6d6573736167657b666f6e742d736108c08201527f697a653a313070743b6c696e652d6865696768743a312e357d2e666f6f7465726108e08201527f7b6d617267696e2d746f703a323070783b746578742d616c69676e3a63656e746109008201527f65723b666f6e742d73697a653a3970743b636f6c6f723a233737377d3c2f73746109208201527f796c653e3c626f647920636c6173733d276c696768742d746578742d32206c696109408201527f6768742d6267273e3c64697620636c6173733d27666164652d696e20706f73746109608201527f2d777261707065722769643d706f73742d777261707065723e3c64697620636c6109808201527f6173733d276c696768742d746578742d3220616e64726577732d636f6e7461696109a08201527f6e6572273e3c64697620636c6173733d276c696768742d7465787420686561646109c08201527f65722d7469746c65273e466f72756d733c2f6469763e3c64697620636c6173736109e08201527f3d62726561646372756d62733e50726f7a616320596f757468203e20466f7275610a008201527f6d73203e20544a4f203e20446561722048756d616e3c2f6469763e3c64697620610a208201527f636c6173733d27666f72756d2d72756c6573206c696768742d62672d32206c69610a408201527f6768742d626f726465722d32206c696768742d746578742d34273e546865206f610a608201527f6e6c792072756c6573207765207265717565737420796f7520746f20666f6c6c610a808201527f6f772c2061726520746f206b656570207468696e677320706f6c6974652c2061610aa08201527f6e6420746f20706c656173652070757420796f7572206d657373616765732069610ac08201527f6e2074686520617070726f7072696174652073656374696f6e732e3c2f646976610ae08201527f3e3c64697620636c6173733d706f73742d696e666f3e3c7370616e20636c6173610b008201527f733d6c696768742d746578742d323e546f74616c20506f7374733a203c622069610b208201527f643d746f74616c2d706f7374733e393939393939393c2f623e3c2f7370616e3e610b408201527f3c64697620636c6173733d74696d652d777261707065723e3c7370616e20636c610b608201527f6173733d276c696768742d746578742d322063757272656e742d74696d65273e610b808201527f41707220323720323032342031343a32323a34303c2f7370616e3e3c2f646976610ba08201527f3e3c2f6469763e3c7461626c6520636c6173733d7461626c65207374796c653d610bc08201527f7461626c652d6c61796f75743a66697865643e3c74686561643e3c747220636c610be08201527f6173733d276c696768742d626f72646572206c696768742d7465787420746162610c008201527f6c652d686561646572273e3c74683e417574686f723c74683e5468726561643c610c208201527f74626f64792069643d7461626c652d626f64793e3c2f7461626c653e3c737061610c408201527f6e2069643d6d6f64652d737769746368206f6e636c69636b3d746f67676c654d610c608201527f6f646528293e3c7376672066696c6c3d23303030303030206865696768743d32610c808201527f3070782069643d436170615f312076657273696f6e3d312e312076696577426f610ca08201527f783d27302030203230372e363238203230372e3632382777696474683d323070610cc08201527f7820786d6c3a73706163653d707265736572766520786d6c6e733d687474703a610ce08201527f2f2f7777772e77332e6f72672f323030302f73766720786d6c6e733a786c696e610d008201527f6b3d687474703a2f2f7777772e77332e6f72672f313939392f786c696e6b3e3c610d208201527f636972636c652063783d3130332e3831342063793d3130332e38313420723d34610d408201527f352e383638202f3e3c7061746820643d274d3130332e3831342c3135372e3138610d608201527f33632d32392e3432372c302d35332e3336382d32332e3934312d35332e333638610d808201527f2d35332e3336387332332e3934312d35332e3336382c35332e3336382d35332e610da08201527f3336387335332e3336382c32332e3934312c35332e3336382c35332e33363820610dc08201527f20533133332e3234312c3135372e3138332c3130332e3831342c3135372e3138610de08201527f337a204d3130332e3831342c36352e343436632d32312e3135362c302d33382e610e008201527f3336382c31372e3231322d33382e3336382c33382e3336387331372e3231322c610e208201527f33382e3336382c33382e3336382c33382e33363820207333382e3336382d3137610e408201527f2e3231322c33382e3336382d33382e333638533132342e39372c36352e343436610e608201527f2c3130332e3831342c36352e3434367a272f3e3c7061746820643d274d313033610e808201527f2e3831342c33392e333835632d342e3134322c302d372e352d332e3335382d37610ea08201527f2e352d372e3556372e3563302d342e3134322c332e3335382d372e352c372e35610ec08201527f2d372e3573372e352c332e3335382c372e352c372e357632342e333835202043610ee08201527f3131312e3331342c33362e3032372c3130372e3935362c33392e3338352c3130610f008201527f332e3831342c33392e3338357a272f3e3c7061746820643d274d3130332e3831610f208201527f342c3230372e363238632d342e3134322c302d372e352d332e3335382d372e35610f408201527f2d372e35762d32342e33383563302d342e3134322c332e3335382d372e352c37610f608201527f2e352d372e3573372e352c332e3335382c372e352c372e357632342e33383520610f808201527f20433131312e3331342c3230342e3237312c3130372e3935362c3230372e3632610fa08201527f382c3130332e3831342c3230372e3632387a272f3e3c7061746820643d274d32610fc08201527f30302e3132382c3131312e333134682d32342e333835632d342e3134322c302d610fe08201527f372e352d332e3335382d372e352d372e3573332e3335382d372e352c372e352d6110008201527f372e356832342e33383563342e3134322c302c372e352c332e3335382c372e356110208201527f2c372e352020533230342e3237312c3131312e3331342c3230302e3132382c316110408201527f31312e3331347a272f3e3c7061746820643d274d33312e3838352c3131312e336110608201527f313448372e35632d342e3134322c302d372e352d332e3335382d372e352d372e6110808201527f3573332e3335382d372e352c372e352d372e356832342e33383563342e3134326110a08201527f2c302c372e352c332e3335382c372e352c372e3520205333362e3032372c31316110c08201527f312e3331342c33312e3838352c3131312e3331347a272f3e3c7061746820643d6110e08201527f274d3135342e3637362c36302e343532632d312e3931392c302d332e3833392d6111008201527f302e3733322d352e3330332d322e313937632d322e3932392d322e3932392d326111208201527f2e3932392d372e3637382c302d31302e3630366c31372e3234332d31372e32346111408201527f32202063322e3932392d322e3932392c372e3637382d322e39332c31302e36306111608201527f362c3063322e3932392c322e3932392c322e3932392c372e3637382c302c31306111808201527f2e3630366c2d31372e3234332c31372e323432433135382e3531352c35392e376111a08201527f322c3135362e3539352c36302e3435322c3135342e3637362c36302e3435327a6111c08201527f272f3e3c7061746820643d274d33352e3730392c3137392e343139632d312e396111e08201527f31392c302d332e3833392d302e3733322d352e3330332d322e313937632d322e6112008201527f3932392d322e3932392d322e3932392d372e3637382c302d31302e3630366c316112208201527f372e3234332d31372e323433202063322e3932392d322e3932392c372e3637386112408201527f2d322e3932392c31302e3630362c3063322e3932392c322e3932392c322e39326112608201527f392c372e3637382c302c31302e3630366c2d31372e3234332c31372e323433436112808201527f33392e3534382c3137382e3638372c33372e3632392c3137392e3431392c33356112a08201527f2e3730392c3137392e3431397a2020272f3e3c7061746820643d274d3137312e6112c08201527f3931382c3137392e343139632d312e3931392c302d332e3833392d302e3733326112e08201527f2d352e3330332d322e3139376c2d31372e3234332d31372e323433632d322e396113008201527f32392d322e3932392d322e3932392d372e3637382c302d31302e3630362020636113208201527f322e3932392d322e3932392c372e3637382d322e3932392c31302e3630362c306113408201527f6c31372e3234332c31372e32343363322e3932392c322e3932392c322e3932396113608201527f2c372e3637382c302c31302e3630362020433137352e3735372c3137382e36386113808201527f372c3137332e3833382c3137392e3431392c3137312e3931382c3137392e34316113a08201527f397a272f3e3c7061746820643d274d35322e3935322c36302e343532632d312e6113c08201527f3931392c302d332e3833392d302e3733322d352e3330332d322e3139374c33306113e08201527f2e3430362c34312e303133632d322e3932392d322e3932392d322e3932392d376114008201527f2e3637372c302d31302e363036202063322e3932392d322e3932392c372e36376114208201527f382d322e39332c31302e3630362c306c31372e3234332c31372e32343263322e6114408201527f3932392c322e3932392c322e3932392c372e3637372c302c31302e36303643356114608201527f362e3739312c35392e37322c35342e3837322c36302e3435322c35322e3935326114808201527f2c36302e3435327a272f3e3c2f7376673e3c2f7370616e3e3c6469762069643d6114a08201527f616e64726577207374796c653d6d617267696e2d746f703a313570783b7465786114c08201527f742d616c69676e3a63656e7465723b77696474683a313030253e3c7370616e3e6114e08201527f44657369676e6564206279203c6120636c6173733d6c696768742d6c696e6b206115008201527f687265663d00000000000000000000000000000000000000000000000000000061152082015250565b5f611eb561152583610174565b9150611ec0826104c8565b61152582019050919050565b7f207461726765743d5f626c616e6b3e416e64726577204d69746368656c6c3c2f5f8201527f613e3c2f7370616e3e3c2f6469763e3c64697620636c6173733d666f6f74657260208201527f3e26233136393b2050726f7a616320596f7574682e20416c6c2072696768747360408201527f2072657365727665642e3c2f6469763e3c2f6469763e3c2f6469763e00000000606082015250565b5f611f72607c83610174565b9150611f7d82611ecc565b607c82019050919050565b5f611f92826102d7565b9150611f9e828861036a565b9150611fa982610412565b9150611fb5828761036a565b9150611fc08261045c565b9150611fcc828661036a565b9150611fd7826104a6565b9150611fe3828561036a565b9150611fee82611ea8565b9150611ffa828461036a565b915061200582611f66565b9150819050969550505050505056fea2646970667358221220158559264693227626d95d906fa68ed2a0105919e9a2afebc2e4367921bfc67364736f6c634300081a003368747470733a2f2f737461636b706174682e626f6f74737472617063646e2e636f6d2f626f6f7473747261702f352e312e302f6373732f626f6f7473747261702e6d696e2e63737368747470733a2f2f636f64652e6a71756572792e636f6d2f6a71756572792d332e362e302e6d696e2e6a7368747470733a2f2f666f6e74732e676f6f676c65617069732e636f6d2f637373323f66616d696c793d526f626f746f3a77676874403330303b3430303b37303026646973706c61793d7377617068747470733a2f2f63646e2e6a7364656c6976722e6e65742f6e706d2f7765623340342e31302e302f646973742f776562332e6d696e2e6a73",
			"opcodes": "PUSH1 0x80 PUSH1 0x40 MSTORE PUSH1 0x40 MLOAD DUP1 PUSH1 0x60 ADD PUSH1 0x40 MSTORE DUP1 PUSH1 0x2B DUP2 MSTORE PUSH1 0x20 ADD PUSH2 0x24A1 PUSH1 0x2B SWAP2 CODECOPY PUSH0 SWAP1 DUP2 PUSH2 0x2A SWAP2 SWAP1 PUSH2 0x333 JUMP JUMPDEST POP PUSH1 0x40 MLOAD DUP1 PUSH1 0x60 ADD PUSH1 0x40 MSTORE DUP1 PUSH1 0x39 DUP2 MSTORE PUSH1 0x20 ADD PUSH2 0x2519 PUSH1 0x39 SWAP2 CODECOPY PUSH1 0x1 SWAP1 DUP2 PUSH2 0x52 SWAP2 SWAP1 PUSH2 0x333 JUMP JUMPDEST POP PUSH1 0x40 MLOAD DUP1 PUSH1 0x80 ADD PUSH1 0x40 MSTORE DUP1 PUSH1 0x48 DUP2 MSTORE PUSH1 0x20 ADD PUSH2 0x2459 PUSH1 0x48 SWAP2 CODECOPY PUSH1 0x2 SWAP1 DUP2 PUSH2 0x7A SWAP2 SWAP1 PUSH2 0x333 JUMP JUMPDEST POP PUSH1 0x40 MLOAD DUP1 PUSH1 0x80 ADD PUSH1 0x40 MSTORE DUP1 PUSH1 0x4D DUP2 MSTORE PUSH1 0x20 ADD PUSH2 0x24CC PUSH1 0x4D SWAP2 CODECOPY PUSH1 0x3 SWAP1 DUP2 PUSH2 0xA2 SWAP2 SWAP1 PUSH2 0x333 JUMP JUMPDEST POP PUSH1 0x40 MLOAD DUP1 PUSH1 0x40 ADD PUSH1 0x40 MSTORE DUP1 PUSH1 0x1A DUP2 MSTORE PUSH1 0x20 ADD PUSH32 0x68747470733A2F2F616E647265776D69746368656C6C2E78797A000000000000 DUP2 MSTORE POP PUSH1 0x4 SWAP1 DUP2 PUSH2 0xE7 SWAP2 SWAP1 PUSH2 0x333 JUMP JUMPDEST POP CALLVALUE DUP1 ISZERO PUSH2 0xF3 JUMPI PUSH0 DUP1 REVERT JUMPDEST POP PUSH2 0x402 JUMP JUMPDEST PUSH0 DUP2 MLOAD SWAP1 POP SWAP2 SWAP1 POP JUMP JUMPDEST PUSH32 0x4E487B7100000000000000000000000000000000000000000000000000000000 PUSH0 MSTORE PUSH1 0x41 PUSH1 0x4 MSTORE PUSH1 0x24 PUSH0 REVERT JUMPDEST PUSH32 0x4E487B7100000000000000000000000000000000000000000000000000000000 PUSH0 MSTORE PUSH1 0x22 PUSH1 0x4 MSTORE PUSH1 0x24 PUSH0 REVERT JUMPDEST PUSH0 PUSH1 0x2 DUP3 DIV SWAP1 POP PUSH1 0x1 DUP3 AND DUP1 PUSH2 0x174 JUMPI PUSH1 0x7F DUP3 AND SWAP2 POP JUMPDEST PUSH1 0x20 DUP3 LT DUP2 SUB PUSH2 0x187 JUMPI PUSH2 0x186 PUSH2 0x130 JUMP JUMPDEST JUMPDEST POP SWAP2 SWAP1 POP JUMP JUMPDEST PUSH0 DUP2 SWAP1 POP DUP2 PUSH0 MSTORE PUSH1 0x20 PUSH0 KECCAK256 SWAP1 POP SWAP2 SWAP1 POP JUMP JUMPDEST PUSH0 PUSH1 0x20 PUSH1 0x1F DUP4 ADD DIV SWAP1 POP SWAP2 SWAP1 POP JUMP JUMPDEST PUSH0 DUP3 DUP3 SHL SWAP1 POP SWAP3 SWAP2 POP POP JUMP JUMPDEST PUSH0 PUSH1 0x8 DUP4 MUL PUSH2 0x1E9 PUSH32 0xFFFFFFFFFFFFFFFFFFFFFFFFFFFFFFFFFFFFFFFFFFFFFFFFFFFFFFFFFFFFFFFF DUP3 PUSH2 0x1AE JUMP JUMPDEST PUSH2 0x1F3 DUP7 DUP4 PUSH2 0x1AE JUMP JUMPDEST SWAP6 POP DUP1 NOT DUP5 AND SWAP4 POP DUP1 DUP7 AND DUP5 OR SWAP3 POP POP POP SWAP4 SWAP3 POP POP POP JUMP JUMPDEST PUSH0 DUP2 SWAP1 POP SWAP2 SWAP1 POP JUMP JUMPDEST PUSH0 DUP2 SWAP1 POP SWAP2 SWAP1 POP JUMP JUMPDEST PUSH0 PUSH2 0x237 PUSH2 0x232 PUSH2 0x22D DUP5 PUSH2 0x20B JUMP JUMPDEST PUSH2 0x214 JUMP JUMPDEST PUSH2 0x20B JUMP JUMPDEST SWAP1 POP SWAP2 SWAP1 POP JUMP JUMPDEST PUSH0 DUP2 SWAP1 POP SWAP2 SWAP1 POP JUMP JUMPDEST PUSH2 0x250 DUP4 PUSH2 0x21D JUMP JUMPDEST PUSH2 0x264 PUSH2 0x25C DUP3 PUSH2 0x23E JUMP JUMPDEST DUP5 DUP5 SLOAD PUSH2 0x1BA JUMP JUMPDEST DUP3 SSTORE POP POP POP POP JUMP JUMPDEST PUSH0 SWAP1 JUMP JUMPDEST PUSH2 0x278 PUSH2 0x26C JUMP JUMPDEST PUSH2 0x283 DUP2 DUP5 DUP5 PUSH2 0x247 JUMP JUMPDEST POP POP POP JUMP JUMPDEST JUMPDEST DUP2 DUP2 LT ISZERO PUSH2 0x2A6 JUMPI PUSH2 0x29B PUSH0 DUP3 PUSH2 0x270 JUMP JUMPDEST PUSH1 0x1 DUP2 ADD SWAP1 POP PUSH2 0x289 JUMP JUMPDEST POP POP JUMP JUMPDEST PUSH1 0x1F DUP3 GT ISZERO PUSH2 0x2EB JUMPI PUSH2 0x2BC DUP2 PUSH2 0x18D JUMP JUMPDEST PUSH2 0x2C5 DUP5 PUSH2 0x19F JUMP JUMPDEST DUP2 ADD PUSH1 0x20 DUP6 LT ISZERO PUSH2 0x2D4 JUMPI DUP2 SWAP1 POP JUMPDEST PUSH2 0x2E8 PUSH2 0x2E0 DUP6 PUSH2 0x19F JUMP JUMPDEST DUP4 ADD DUP3 PUSH2 0x288 JUMP JUMPDEST POP POP JUMPDEST POP POP POP JUMP JUMPDEST PUSH0 DUP3 DUP3 SHR SWAP1 POP SWAP3 SWAP2 POP POP JUMP JUMPDEST PUSH0 PUSH2 0x30B PUSH0 NOT DUP5 PUSH1 0x8 MUL PUSH2 0x2F0 JUMP JUMPDEST NOT DUP1 DUP4 AND SWAP2 POP POP SWAP3 SWAP2 POP POP JUMP JUMPDEST PUSH0 PUSH2 0x323 DUP4 DUP4 PUSH2 0x2FC JUMP JUMPDEST SWAP2 POP DUP3 PUSH1 0x2 MUL DUP3 OR SWAP1 POP SWAP3 SWAP2 POP POP JUMP JUMPDEST PUSH2 0x33C DUP3 PUSH2 0xF9 JUMP JUMPDEST PUSH8 0xFFFFFFFFFFFFFFFF DUP2 GT ISZERO PUSH2 0x355 JUMPI PUSH2 0x354 PUSH2 0x103 JUMP JUMPDEST JUMPDEST PUSH2 0x35F DUP3 SLOAD PUSH2 0x15D JUMP JUMPDEST PUSH2 0x36A DUP3 DUP3 DUP6 PUSH2 0x2AA JUMP JUMPDEST PUSH0 PUSH1 0x20 SWAP1 POP PUSH1 0x1F DUP4 GT PUSH1 0x1 DUP2 EQ PUSH2 0x39B JUMPI PUSH0 DUP5 ISZERO PUSH2 0x389 JUMPI DUP3 DUP8 ADD MLOAD SWAP1 POP JUMPDEST PUSH2 0x393 DUP6 DUP3 PUSH2 0x318 JUMP JUMPDEST DUP7 SSTORE POP PUSH2 0x3FA JUMP JUMPDEST PUSH1 0x1F NOT DUP5 AND PUSH2 0x3A9 DUP7 PUSH2 0x18D JUMP JUMPDEST PUSH0 JUMPDEST DUP3 DUP2 LT ISZERO PUSH2 0x3D0 JUMPI DUP5 DUP10 ADD MLOAD DUP3 SSTORE PUSH1 0x1 DUP3 ADD SWAP2 POP PUSH1 0x20 DUP6 ADD SWAP5 POP PUSH1 0x20 DUP2 ADD SWAP1 POP PUSH2 0x3AB JUMP JUMPDEST DUP7 DUP4 LT ISZERO PUSH2 0x3ED JUMPI DUP5 DUP10 ADD MLOAD PUSH2 0x3E9 PUSH1 0x1F DUP10 AND DUP3 PUSH2 0x2FC JUMP JUMPDEST DUP4 SSTORE POP JUMPDEST PUSH1 0x1 PUSH1 0x2 DUP9 MUL ADD DUP9 SSTORE POP POP POP JUMPDEST POP POP POP POP POP POP JUMP JUMPDEST PUSH2 0x204A DUP1 PUSH2 0x40F PUSH0 CODECOPY PUSH0 RETURN INVALID PUSH1 0x80 PUSH1 0x40 MSTORE CALLVALUE DUP1 ISZERO PUSH2 0xF JUMPI PUSH0 DUP1 REVERT JUMPDEST POP PUSH1 0x4 CALLDATASIZE LT PUSH2 0x34 JUMPI PUSH0 CALLDATALOAD PUSH1 0xE0 SHR DUP1 PUSH4 0x18A6EF6C EQ PUSH2 0x38 JUMPI DUP1 PUSH4 0x7899FF8F EQ PUSH2 0x56 JUMPI JUMPDEST PUSH0 DUP1 REVERT JUMPDEST PUSH2 0x40 PUSH2 0x74 JUMP JUMPDEST PUSH1 0x40 MLOAD PUSH2 0x4D SWAP2 SWAP1 PUSH2 0x154 JUMP JUMPDEST PUSH1 0x40 MLOAD DUP1 SWAP2 SUB SWAP1 RETURN JUMPDEST PUSH2 0x5E PUSH2 0xA7 JUMP JUMPDEST PUSH1 0x40 MLOAD PUSH2 0x6B SWAP2 SWAP1 PUSH2 0x154 JUMP JUMPDEST PUSH1 0x40 MLOAD DUP1 SWAP2 SUB SWAP1 RETURN JUMPDEST PUSH1 0x60 PUSH1 0x1 PUSH0 PUSH1 0x2 PUSH1 0x3 PUSH1 0x4 PUSH1 0x40 MLOAD PUSH1 0x20 ADD PUSH2 0x93 SWAP6 SWAP5 SWAP4 SWAP3 SWAP2 SWAP1 PUSH2 0x1F88 JUMP JUMPDEST PUSH1 0x40 MLOAD PUSH1 0x20 DUP2 DUP4 SUB SUB DUP2 MSTORE SWAP1 PUSH1 0x40 MSTORE SWAP1 POP SWAP1 JUMP JUMPDEST PUSH1 0x60 PUSH1 0x40 MLOAD DUP1 PUSH1 0x40 ADD PUSH1 0x40 MSTORE DUP1 PUSH1 0x14 DUP2 MSTORE PUSH1 0x20 ADD PUSH32 0x3C626F64793E3C2F626F64793E3C2F68746D6C3E000000000000000000000000 DUP2 MSTORE POP SWAP1 POP SWAP1 JUMP JUMPDEST PUSH0 DUP2 MLOAD SWAP1 POP SWAP2 SWAP1 POP JUMP JUMPDEST PUSH0 DUP3 DUP3 MSTORE PUSH1 0x20 DUP3 ADD SWAP1 POP SWAP3 SWAP2 POP POP JUMP JUMPDEST DUP3 DUP2 DUP4 MCOPY PUSH0 DUP4 DUP4 ADD MSTORE POP POP POP JUMP JUMPDEST PUSH0 PUSH1 0x1F NOT PUSH1 0x1F DUP4 ADD AND SWAP1 POP SWAP2 SWAP1 POP JUMP JUMPDEST PUSH0 PUSH2 0x126 DUP3 PUSH2 0xE4 JUMP JUMPDEST PUSH2 0x130 DUP2 DUP6 PUSH2 0xEE JUMP JUMPDEST SWAP4 POP PUSH2 0x140 DUP2 DUP6 PUSH1 0x20 DUP7 ADD PUSH2 0xFE JUMP JUMPDEST PUSH2 0x149 DUP2 PUSH2 0x10C JUMP JUMPDEST DUP5 ADD SWAP2 POP POP SWAP3 SWAP2 POP POP JUMP JUMPDEST PUSH0 PUSH1 0x20 DUP3 ADD SWAP1 POP DUP2 DUP2 SUB PUSH0 DUP4 ADD MSTORE PUSH2 0x16C DUP2 DUP5 PUSH2 0x11C JUMP JUMPDEST SWAP1 POP SWAP3 SWAP2 POP POP JUMP JUMPDEST PUSH0 DUP2 SWAP1 POP SWAP3 SWAP2 POP POP JUMP JUMPDEST PUSH32 0x3C21646F637479706568746D6C3E3C68746D6C206C616E673D656E3E3C6D6574 PUSH0 DUP3 ADD MSTORE PUSH32 0x6120636F6E74656E743D27746578742F68746D6C3B20636861727365743D5554 PUSH1 0x20 DUP3 ADD MSTORE PUSH32 0x462D3827687474702D65717569763D436F6E74656E742D547970653E3C6D6574 PUSH1 0x40 DUP3 ADD MSTORE PUSH32 0x6120636F6E74656E743D2777696474683D6465766963652D77696474682C696E PUSH1 0x60 DUP3 ADD MSTORE PUSH32 0x697469616C2D7363616C653D31276E616D653D76696577706F72743E3C6D6574 PUSH1 0x80 DUP3 ADD MSTORE PUSH32 0x6120636F6E74656E743D2769653D6564676527687474702D65717569763D582D PUSH1 0xA0 DUP3 ADD MSTORE PUSH32 0x55412D436F6D70617469626C653E3C6D65746120646576656C6F7065723D2741 PUSH1 0xC0 DUP3 ADD MSTORE PUSH32 0x6E64726577204D69746368656C6C273E3C7469746C653E50726F7A616320596F PUSH1 0xE0 DUP3 ADD MSTORE PUSH32 0x7574683C2F7469746C653E3C736372697074207372633D000000000000000000 PUSH2 0x100 DUP3 ADD MSTORE POP JUMP JUMPDEST PUSH0 PUSH2 0x2E4 PUSH2 0x117 DUP4 PUSH2 0x174 JUMP JUMPDEST SWAP2 POP PUSH2 0x2EF DUP3 PUSH2 0x17E JUMP JUMPDEST PUSH2 0x117 DUP3 ADD SWAP1 POP SWAP2 SWAP1 POP JUMP JUMPDEST PUSH32 0x4E487B7100000000000000000000000000000000000000000000000000000000 PUSH0 MSTORE PUSH1 0x22 PUSH1 0x4 MSTORE PUSH1 0x24 PUSH0 REVERT JUMPDEST PUSH0 PUSH1 0x2 DUP3 DIV SWAP1 POP PUSH1 0x1 DUP3 AND DUP1 PUSH2 0x33F JUMPI PUSH1 0x7F DUP3 AND SWAP2 POP JUMPDEST PUSH1 0x20 DUP3 LT DUP2 SUB PUSH2 0x352 JUMPI PUSH2 0x351 PUSH2 0x2FB JUMP JUMPDEST JUMPDEST POP SWAP2 SWAP1 POP JUMP JUMPDEST PUSH0 DUP2 SWAP1 POP DUP2 PUSH0 MSTORE PUSH1 0x20 PUSH0 KECCAK256 SWAP1 POP SWAP2 SWAP1 POP JUMP JUMPDEST PUSH0 DUP2 SLOAD PUSH2 0x376 DUP2 PUSH2 0x328 JUMP JUMPDEST PUSH2 0x380 DUP2 DUP7 PUSH2 0x174 JUMP JUMPDEST SWAP5 POP PUSH1 0x1 DUP3 AND PUSH0 DUP2 EQ PUSH2 0x39A JUMPI PUSH1 0x1 DUP2 EQ PUSH2 0x3AF JUMPI PUSH2 0x3E1 JUMP JUMPDEST PUSH1 0xFF NOT DUP4 AND DUP7 MSTORE DUP2 ISZERO ISZERO DUP3 MUL DUP7 ADD SWAP4 POP PUSH2 0x3E1 JUMP JUMPDEST PUSH2 0x3B8 DUP6 PUSH2 0x358 JUMP JUMPDEST PUSH0 JUMPDEST DUP4 DUP2 LT ISZERO PUSH2 0x3D9 JUMPI DUP2 SLOAD DUP2 DUP10 ADD MSTORE PUSH1 0x1 DUP3 ADD SWAP2 POP PUSH1 0x20 DUP2 ADD SWAP1 POP PUSH2 0x3BA JUMP JUMPDEST DUP4 DUP9 ADD SWAP6 POP POP POP JUMPDEST POP POP POP SWAP3 SWAP2 POP POP JUMP JUMPDEST PUSH32 0x3E3C2F7363726970743E3C736372697074207372633D00000000000000000000 PUSH0 DUP3 ADD MSTORE POP JUMP JUMPDEST PUSH0 PUSH2 0x41E PUSH1 0x16 DUP4 PUSH2 0x174 JUMP JUMPDEST SWAP2 POP PUSH2 0x429 DUP3 PUSH2 0x3EA JUMP JUMPDEST PUSH1 0x16 DUP3 ADD SWAP1 POP SWAP2 SWAP1 POP JUMP JUMPDEST PUSH32 0x3E3C2F7363726970743E3C6C696E6B20687265663D0000000000000000000000 PUSH0 DUP3 ADD MSTORE POP JUMP JUMPDEST PUSH0 PUSH2 0x468 PUSH1 0x15 DUP4 PUSH2 0x174 JUMP JUMPDEST SWAP2 POP PUSH2 0x473 DUP3 PUSH2 0x434 JUMP JUMPDEST PUSH1 0x15 DUP3 ADD SWAP1 POP SWAP2 SWAP1 POP JUMP JUMPDEST PUSH32 0x2072656C3D7374796C6573686565743E3C6C696E6B20687265663D2700000000 PUSH0 DUP3 ADD MSTORE POP JUMP JUMPDEST PUSH0 PUSH2 0x4B2 PUSH1 0x1C DUP4 PUSH2 0x174 JUMP JUMPDEST SWAP2 POP PUSH2 0x4BD DUP3 PUSH2 0x47E JUMP JUMPDEST PUSH1 0x1C DUP3 ADD SWAP1 POP SWAP2 SWAP1 POP JUMP JUMPDEST PUSH32 0x2772656C3D7374796C6573686565743E3C7374796C653E626F64797B666F6E74 PUSH0 DUP3 ADD MSTORE PUSH32 0x2D66616D696C793A526F626F746F2C417269616C2C48656C7665746963612C73 PUSH1 0x20 DUP3 ADD MSTORE PUSH32 0x616E732D73657269663B666F6E742D73697A653A313070743B6D617267696E3A PUSH1 0x40 DUP3 ADD MSTORE PUSH32 0x303B70616464696E673A3570787D2E616E64726577732D636F6E7461696E6572 PUSH1 0x60 DUP3 ADD MSTORE PUSH32 0x7B6D617267696E3A6175746F3B77696474683A3630257D406D65646961206F6E PUSH1 0x80 DUP3 ADD MSTORE PUSH32 0x6C792073637265656E20616E6420286D61782D77696474683A3630307078297B PUSH1 0xA0 DUP3 ADD MSTORE PUSH32 0x2E616E64726577732D636F6E7461696E65727B77696474683A313030257D7D2E PUSH1 0xC0 DUP3 ADD MSTORE PUSH32 0x7461626C657B6D617267696E3A32307078206175746F3B77696474683A363025 PUSH1 0xE0 DUP3 ADD MSTORE PUSH32 0x3B626F726465722D636F6C6C617073653A636F6C6C617073657D406D65646961 PUSH2 0x100 DUP3 ADD MSTORE PUSH32 0x206F6E6C792073637265656E20616E6420286D61782D77696474683A36303070 PUSH2 0x120 DUP3 ADD MSTORE PUSH32 0x78297B2E7461626C657B77696474683A313030257D7D2E666164652D696E7B6F PUSH2 0x140 DUP3 ADD MSTORE PUSH32 0x7061636974793A313B616E696D6174696F6E2D6E616D653A66616465496E4F70 PUSH2 0x160 DUP3 ADD MSTORE PUSH32 0x61636974793B616E696D6174696F6E2D697465726174696F6E2D636F756E743A PUSH2 0x180 DUP3 ADD MSTORE PUSH32 0x313B616E696D6174696F6E2D74696D696E672D66756E6374696F6E3A65617365 PUSH2 0x1A0 DUP3 ADD MSTORE PUSH32 0x2D696E3B616E696D6174696F6E2D6475726174696F6E3A32737D406B65796672 PUSH2 0x1C0 DUP3 ADD MSTORE PUSH32 0x616D65732066616465496E4F7061636974797B30257B6F7061636974793A307D PUSH2 0x1E0 DUP3 ADD MSTORE PUSH32 0x313030257B6F7061636974793A317D7D236C6F6164696E672D746578747B666F PUSH2 0x200 DUP3 ADD MSTORE PUSH32 0x6E742D73697A653A313070743B746578742D616C69676E3A72696768747D236C PUSH2 0x220 DUP3 ADD MSTORE PUSH32 0x6F6164696E677B77696474683A313030257D2E6865616465722D7469746C657B PUSH2 0x240 DUP3 ADD MSTORE PUSH32 0x666F6E742D73697A653A313670743B666F6E742D7765696768743A3730303B74 PUSH2 0x260 DUP3 ADD MSTORE PUSH32 0x6578742D616C69676E3A63656E7465723B6261636B67726F756E642D636F6C6F PUSH2 0x280 DUP3 ADD MSTORE PUSH32 0x723A233234336639383B70616464696E673A3130707820303B626F726465722D PUSH2 0x2A0 DUP3 ADD MSTORE PUSH32 0x7261646975733A3570787D2E62726561646372756D62737B666F6E742D73697A PUSH2 0x2C0 DUP3 ADD MSTORE PUSH32 0x653A3970743B636F6C6F723A233737373B6D617267696E2D626F74746F6D3A31 PUSH2 0x2E0 DUP3 ADD MSTORE PUSH32 0x3070787D236D6F64652D7377697463687B637572736F723A706F696E7465723B PUSH2 0x300 DUP3 ADD MSTORE PUSH32 0x706F736974696F6E3A6162736F6C7574653B746F703A313070783B7269676874 PUSH2 0x320 DUP3 ADD MSTORE PUSH32 0x3A313070787D2E666F72756D2D72756C65737B626F726465722D726164697573 PUSH2 0x340 DUP3 ADD MSTORE PUSH32 0x3A3570783B70616464696E673A313070783B666F6E742D73697A653A3970743B PUSH2 0x360 DUP3 ADD MSTORE PUSH32 0x6D617267696E2D626F74746F6D3A323070787D2E7461626C652D686561646572 PUSH2 0x380 DUP3 ADD MSTORE PUSH32 0x2C2E7461626C652D726F777B70616464696E673A3870787D2E7461626C652D68 PUSH2 0x3A0 DUP3 ADD MSTORE PUSH32 0x65616465727B6261636B67726F756E642D636F6C6F723A233234336639383B66 PUSH2 0x3C0 DUP3 ADD MSTORE PUSH32 0x6F6E742D7765696768743A3730307D2E7461626C653E2E6C696768742D62673A PUSH2 0x3E0 DUP3 ADD MSTORE PUSH32 0x6E74682D6368696C64286576656E297B6261636B67726F756E642D636F6C6F72 PUSH2 0x400 DUP3 ADD MSTORE PUSH32 0x3A2365306537666621696D706F7274616E747D2E6C696768742D62677B626163 PUSH2 0x420 DUP3 ADD MSTORE PUSH32 0x6B67726F756E642D636F6C6F723A2366376636663121696D706F7274616E747D PUSH2 0x440 DUP3 ADD MSTORE PUSH32 0x2E6C696768742D626F726465727B626F726465723A31707820736F6C69642023 PUSH2 0x460 DUP3 ADD MSTORE PUSH32 0x63636321696D706F7274616E747D2E6C696768742D626F726465722D327B626F PUSH2 0x480 DUP3 ADD MSTORE PUSH32 0x726465723A31707820736F6C6964202363356432666621696D706F7274616E74 PUSH2 0x4A0 DUP3 ADD MSTORE PUSH32 0x7D2E6C696768742D62672D327B6261636B67726F756E642D636F6C6F723A2365 PUSH2 0x4C0 DUP3 ADD MSTORE PUSH32 0x306537666621696D706F7274616E747D2E6C696768742D746578747B636F6C6F PUSH2 0x4E0 DUP3 ADD MSTORE PUSH32 0x723A2366376636663121696D706F7274616E747D2E6C696768742D746578742D PUSH2 0x500 DUP3 ADD MSTORE PUSH32 0x327B636F6C6F723A2332343366393821696D706F7274616E747D2E6572726F72 PUSH2 0x520 DUP3 ADD MSTORE PUSH32 0x2D746578747B636F6C6F723A236630337D2E6461726B2D6C696E6B7B636F6C6F PUSH2 0x540 DUP3 ADD MSTORE PUSH32 0x723A2333303535636321696D706F7274616E747D2E6461726B2D746578742D32 PUSH2 0x560 DUP3 ADD MSTORE PUSH32 0x7B636F6C6F723A2334353636643321696D706F7274616E747D2E6C696768742D PUSH2 0x580 DUP3 ADD MSTORE PUSH32 0x746578742D337B636F6C6F723A2331663166316621696D706F7274616E747D2E PUSH2 0x5A0 DUP3 ADD MSTORE PUSH32 0x6461726B2D746578742D337B636F6C6F723A2332363433613221696D706F7274 PUSH2 0x5C0 DUP3 ADD MSTORE PUSH32 0x616E747D2E6C696768742D746578742D347B636F6C6F723A2331663166316621 PUSH2 0x5E0 DUP3 ADD MSTORE PUSH32 0x696D706F7274616E747D2E6461726B2D746578742D347B636F6C6F723A236364 PUSH2 0x600 DUP3 ADD MSTORE PUSH32 0x6364636421696D706F7274616E747D2E7461626C653E2E6461726B2D62673A6E PUSH2 0x620 DUP3 ADD MSTORE PUSH32 0x74682D6368696C64286576656E297B6261636B67726F756E642D636F6C6F723A PUSH2 0x640 DUP3 ADD MSTORE PUSH32 0x2331663166316621696D706F7274616E747D2E6461726B2D62677B6261636B67 PUSH2 0x660 DUP3 ADD MSTORE PUSH32 0x726F756E642D636F6C6F723A2331323132313221696D706F7274616E747D2E64 PUSH2 0x680 DUP3 ADD MSTORE PUSH32 0x61726B2D626F726465727B626F726465723A31707820736F6C69642023353535 PUSH2 0x6A0 DUP3 ADD MSTORE PUSH32 0x21696D706F7274616E747D2E6461726B2D626F726465722D327B626F72646572 PUSH2 0x6C0 DUP3 ADD MSTORE PUSH32 0x3A31707820736F6C6964202333333321696D706F7274616E747D2E6461726B2D PUSH2 0x6E0 DUP3 ADD MSTORE PUSH32 0x62672D327B6261636B67726F756E642D636F6C6F723A2334343421696D706F72 PUSH2 0x700 DUP3 ADD MSTORE PUSH32 0x74616E747D2E6461726B2D746578747B636F6C6F723A2331323132313221696D PUSH2 0x720 DUP3 ADD MSTORE PUSH32 0x706F7274616E747D2E706F73742D777261707065727B646973706C61793A6E6F PUSH2 0x740 DUP3 ADD MSTORE PUSH32 0x6E657D2E736D616C6C2D746578747B666F6E742D73697A653A3870743B636F6C PUSH2 0x760 DUP3 ADD MSTORE PUSH32 0x6F723A233535357D2E63757272656E742D74696D657B666F6E742D73697A653A PUSH2 0x780 DUP3 ADD MSTORE PUSH32 0x3870743B636F6C6F723A233737373B766572746963616C2D616C69676E3A7375 PUSH2 0x7A0 DUP3 ADD MSTORE PUSH32 0x7065723B6D617267696E2D72696768743A3270787D237461626C652D626F6479 PUSH2 0x7C0 DUP3 ADD MSTORE PUSH32 0x7B7461626C652D6C61796F75743A66697865647D2E74696D652D777261707065 PUSH2 0x7E0 DUP3 ADD MSTORE PUSH32 0x727B646973706C61793A696E6C696E657D2E6C6F6164696E672D63656C6C7B64 PUSH2 0x800 DUP3 ADD MSTORE PUSH32 0x6973706C61793A666C65783B626F726465723A303B746578742D616C69676E3A PUSH2 0x820 DUP3 ADD MSTORE PUSH32 0x72696768747D2E706F73742D696E666F7B646973706C61793A666C65783B6A75 PUSH2 0x840 DUP3 ADD MSTORE PUSH32 0x73746966792D636F6E74656E743A73706163652D6265747765656E3B616C6967 PUSH2 0x860 DUP3 ADD MSTORE PUSH32 0x6E2D6974656D733A63656E7465727D2E706F73742D696E666F207370616E7B66 PUSH2 0x880 DUP3 ADD MSTORE PUSH32 0x6F6E742D73697A653A313070743B636F6C6F723A233234336639383B666F6E74 PUSH2 0x8A0 DUP3 ADD MSTORE PUSH32 0x2D7765696768743A3730307D2E706F73742D6D6573736167657B666F6E742D73 PUSH2 0x8C0 DUP3 ADD MSTORE PUSH32 0x697A653A313070743B6C696E652D6865696768743A312E357D2E666F6F746572 PUSH2 0x8E0 DUP3 ADD MSTORE PUSH32 0x7B6D617267696E2D746F703A323070783B746578742D616C69676E3A63656E74 PUSH2 0x900 DUP3 ADD MSTORE PUSH32 0x65723B666F6E742D73697A653A3970743B636F6C6F723A233737377D3C2F7374 PUSH2 0x920 DUP3 ADD MSTORE PUSH32 0x796C653E3C626F647920636C6173733D276C696768742D746578742D32206C69 PUSH2 0x940 DUP3 ADD MSTORE PUSH32 0x6768742D6267273E3C64697620636C6173733D27666164652D696E20706F7374 PUSH2 0x960 DUP3 ADD MSTORE PUSH32 0x2D777261707065722769643D706F73742D777261707065723E3C64697620636C PUSH2 0x980 DUP3 ADD MSTORE PUSH32 0x6173733D276C696768742D746578742D3220616E64726577732D636F6E746169 PUSH2 0x9A0 DUP3 ADD MSTORE PUSH32 0x6E6572273E3C64697620636C6173733D276C696768742D746578742068656164 PUSH2 0x9C0 DUP3 ADD MSTORE PUSH32 0x65722D7469746C65273E466F72756D733C2F6469763E3C64697620636C617373 PUSH2 0x9E0 DUP3 ADD MSTORE PUSH32 0x3D62726561646372756D62733E50726F7A616320596F757468203E20466F7275 PUSH2 0xA00 DUP3 ADD MSTORE PUSH32 0x6D73203E20544A4F203E20446561722048756D616E3C2F6469763E3C64697620 PUSH2 0xA20 DUP3 ADD MSTORE PUSH32 0x636C6173733D27666F72756D2D72756C6573206C696768742D62672D32206C69 PUSH2 0xA40 DUP3 ADD MSTORE PUSH32 0x6768742D626F726465722D32206C696768742D746578742D34273E546865206F PUSH2 0xA60 DUP3 ADD MSTORE PUSH32 0x6E6C792072756C6573207765207265717565737420796F7520746F20666F6C6C PUSH2 0xA80 DUP3 ADD MSTORE PUSH32 0x6F772C2061726520746F206B656570207468696E677320706F6C6974652C2061 PUSH2 0xAA0 DUP3 ADD MSTORE PUSH32 0x6E6420746F20706C656173652070757420796F7572206D657373616765732069 PUSH2 0xAC0 DUP3 ADD MSTORE PUSH32 0x6E2074686520617070726F7072696174652073656374696F6E732E3C2F646976 PUSH2 0xAE0 DUP3 ADD MSTORE PUSH32 0x3E3C64697620636C6173733D706F73742D696E666F3E3C7370616E20636C6173 PUSH2 0xB00 DUP3 ADD MSTORE PUSH32 0x733D6C696768742D746578742D323E546F74616C20506F7374733A203C622069 PUSH2 0xB20 DUP3 ADD MSTORE PUSH32 0x643D746F74616C2D706F7374733E393939393939393C2F623E3C2F7370616E3E PUSH2 0xB40 DUP3 ADD MSTORE PUSH32 0x3C64697620636C6173733D74696D652D777261707065723E3C7370616E20636C PUSH2 0xB60 DUP3 ADD MSTORE PUSH32 0x6173733D276C696768742D746578742D322063757272656E742D74696D65273E PUSH2 0xB80 DUP3 ADD MSTORE PUSH32 0x41707220323720323032342031343A32323A34303C2F7370616E3E3C2F646976 PUSH2 0xBA0 DUP3 ADD MSTORE PUSH32 0x3E3C2F6469763E3C7461626C6520636C6173733D7461626C65207374796C653D PUSH2 0xBC0 DUP3 ADD MSTORE PUSH32 0x7461626C652D6C61796F75743A66697865643E3C74686561643E3C747220636C PUSH2 0xBE0 DUP3 ADD MSTORE PUSH32 0x6173733D276C696768742D626F72646572206C696768742D7465787420746162 PUSH2 0xC00 DUP3 ADD MSTORE PUSH32 0x6C652D686561646572273E3C74683E417574686F723C74683E5468726561643C PUSH2 0xC20 DUP3 ADD MSTORE PUSH32 0x74626F64792069643D7461626C652D626F64793E3C2F7461626C653E3C737061 PUSH2 0xC40 DUP3 ADD MSTORE PUSH32 0x6E2069643D6D6F64652D737769746368206F6E636C69636B3D746F67676C654D PUSH2 0xC60 DUP3 ADD MSTORE PUSH32 0x6F646528293E3C7376672066696C6C3D23303030303030206865696768743D32 PUSH2 0xC80 DUP3 ADD MSTORE PUSH32 0x3070782069643D436170615F312076657273696F6E3D312E312076696577426F PUSH2 0xCA0 DUP3 ADD MSTORE PUSH32 0x783D27302030203230372E363238203230372E3632382777696474683D323070 PUSH2 0xCC0 DUP3 ADD MSTORE PUSH32 0x7820786D6C3A73706163653D707265736572766520786D6C6E733D687474703A PUSH2 0xCE0 DUP3 ADD MSTORE PUSH32 0x2F2F7777772E77332E6F72672F323030302F73766720786D6C6E733A786C696E PUSH2 0xD00 DUP3 ADD MSTORE PUSH32 0x6B3D687474703A2F2F7777772E77332E6F72672F313939392F786C696E6B3E3C PUSH2 0xD20 DUP3 ADD MSTORE PUSH32 0x636972636C652063783D3130332E3831342063793D3130332E38313420723D34 PUSH2 0xD40 DUP3 ADD MSTORE PUSH32 0x352E383638202F3E3C7061746820643D274D3130332E3831342C3135372E3138 PUSH2 0xD60 DUP3 ADD MSTORE PUSH32 0x33632D32392E3432372C302D35332E3336382D32332E3934312D35332E333638 PUSH2 0xD80 DUP3 ADD MSTORE PUSH32 0x2D35332E3336387332332E3934312D35332E3336382C35332E3336382D35332E PUSH2 0xDA0 DUP3 ADD MSTORE PUSH32 0x3336387335332E3336382C32332E3934312C35332E3336382C35332E33363820 PUSH2 0xDC0 DUP3 ADD MSTORE PUSH32 0x20533133332E3234312C3135372E3138332C3130332E3831342C3135372E3138 PUSH2 0xDE0 DUP3 ADD MSTORE PUSH32 0x337A204D3130332E3831342C36352E343436632D32312E3135362C302D33382E PUSH2 0xE00 DUP3 ADD MSTORE PUSH32 0x3336382C31372E3231322D33382E3336382C33382E3336387331372E3231322C PUSH2 0xE20 DUP3 ADD MSTORE PUSH32 0x33382E3336382C33382E3336382C33382E33363820207333382E3336382D3137 PUSH2 0xE40 DUP3 ADD MSTORE PUSH32 0x2E3231322C33382E3336382D33382E333638533132342E39372C36352E343436 PUSH2 0xE60 DUP3 ADD MSTORE PUSH32 0x2C3130332E3831342C36352E3434367A272F3E3C7061746820643D274D313033 PUSH2 0xE80 DUP3 ADD MSTORE PUSH32 0x2E3831342C33392E333835632D342E3134322C302D372E352D332E3335382D37 PUSH2 0xEA0 DUP3 ADD MSTORE PUSH32 0x2E352D372E3556372E3563302D342E3134322C332E3335382D372E352C372E35 PUSH2 0xEC0 DUP3 ADD MSTORE PUSH32 0x2D372E3573372E352C332E3335382C372E352C372E357632342E333835202043 PUSH2 0xEE0 DUP3 ADD MSTORE PUSH32 0x3131312E3331342C33362E3032372C3130372E3935362C33392E3338352C3130 PUSH2 0xF00 DUP3 ADD MSTORE PUSH32 0x332E3831342C33392E3338357A272F3E3C7061746820643D274D3130332E3831 PUSH2 0xF20 DUP3 ADD MSTORE PUSH32 0x342C3230372E363238632D342E3134322C302D372E352D332E3335382D372E35 PUSH2 0xF40 DUP3 ADD MSTORE PUSH32 0x2D372E35762D32342E33383563302D342E3134322C332E3335382D372E352C37 PUSH2 0xF60 DUP3 ADD MSTORE PUSH32 0x2E352D372E3573372E352C332E3335382C372E352C372E357632342E33383520 PUSH2 0xF80 DUP3 ADD MSTORE PUSH32 0x20433131312E3331342C3230342E3237312C3130372E3935362C3230372E3632 PUSH2 0xFA0 DUP3 ADD MSTORE PUSH32 0x382C3130332E3831342C3230372E3632387A272F3E3C7061746820643D274D32 PUSH2 0xFC0 DUP3 ADD MSTORE PUSH32 0x30302E3132382C3131312E333134682D32342E333835632D342E3134322C302D PUSH2 0xFE0 DUP3 ADD MSTORE PUSH32 0x372E352D332E3335382D372E352D372E3573332E3335382D372E352C372E352D PUSH2 0x1000 DUP3 ADD MSTORE PUSH32 0x372E356832342E33383563342E3134322C302C372E352C332E3335382C372E35 PUSH2 0x1020 DUP3 ADD MSTORE PUSH32 0x2C372E352020533230342E3237312C3131312E3331342C3230302E3132382C31 PUSH2 0x1040 DUP3 ADD MSTORE PUSH32 0x31312E3331347A272F3E3C7061746820643D274D33312E3838352C3131312E33 PUSH2 0x1060 DUP3 ADD MSTORE PUSH32 0x313448372E35632D342E3134322C302D372E352D332E3335382D372E352D372E PUSH2 0x1080 DUP3 ADD MSTORE PUSH32 0x3573332E3335382D372E352C372E352D372E356832342E33383563342E313432 PUSH2 0x10A0 DUP3 ADD MSTORE PUSH32 0x2C302C372E352C332E3335382C372E352C372E3520205333362E3032372C3131 PUSH2 0x10C0 DUP3 ADD MSTORE PUSH32 0x312E3331342C33312E3838352C3131312E3331347A272F3E3C7061746820643D PUSH2 0x10E0 DUP3 ADD MSTORE PUSH32 0x274D3135342E3637362C36302E343532632D312E3931392C302D332E3833392D PUSH2 0x1100 DUP3 ADD MSTORE PUSH32 0x302E3733322D352E3330332D322E313937632D322E3932392D322E3932392D32 PUSH2 0x1120 DUP3 ADD MSTORE PUSH32 0x2E3932392D372E3637382C302D31302E3630366C31372E3234332D31372E3234 PUSH2 0x1140 DUP3 ADD MSTORE PUSH32 0x32202063322E3932392D322E3932392C372E3637382D322E39332C31302E3630 PUSH2 0x1160 DUP3 ADD MSTORE PUSH32 0x362C3063322E3932392C322E3932392C322E3932392C372E3637382C302C3130 PUSH2 0x1180 DUP3 ADD MSTORE PUSH32 0x2E3630366C2D31372E3234332C31372E323432433135382E3531352C35392E37 PUSH2 0x11A0 DUP3 ADD MSTORE PUSH32 0x322C3135362E3539352C36302E3435322C3135342E3637362C36302E3435327A PUSH2 0x11C0 DUP3 ADD MSTORE PUSH32 0x272F3E3C7061746820643D274D33352E3730392C3137392E343139632D312E39 PUSH2 0x11E0 DUP3 ADD MSTORE PUSH32 0x31392C302D332E3833392D302E3733322D352E3330332D322E313937632D322E PUSH2 0x1200 DUP3 ADD MSTORE PUSH32 0x3932392D322E3932392D322E3932392D372E3637382C302D31302E3630366C31 PUSH2 0x1220 DUP3 ADD MSTORE PUSH32 0x372E3234332D31372E323433202063322E3932392D322E3932392C372E363738 PUSH2 0x1240 DUP3 ADD MSTORE PUSH32 0x2D322E3932392C31302E3630362C3063322E3932392C322E3932392C322E3932 PUSH2 0x1260 DUP3 ADD MSTORE PUSH32 0x392C372E3637382C302C31302E3630366C2D31372E3234332C31372E32343343 PUSH2 0x1280 DUP3 ADD MSTORE PUSH32 0x33392E3534382C3137382E3638372C33372E3632392C3137392E3431392C3335 PUSH2 0x12A0 DUP3 ADD MSTORE PUSH32 0x2E3730392C3137392E3431397A2020272F3E3C7061746820643D274D3137312E PUSH2 0x12C0 DUP3 ADD MSTORE PUSH32 0x3931382C3137392E343139632D312E3931392C302D332E3833392D302E373332 PUSH2 0x12E0 DUP3 ADD MSTORE PUSH32 0x2D352E3330332D322E3139376C2D31372E3234332D31372E323433632D322E39 PUSH2 0x1300 DUP3 ADD MSTORE PUSH32 0x32392D322E3932392D322E3932392D372E3637382C302D31302E363036202063 PUSH2 0x1320 DUP3 ADD MSTORE PUSH32 0x322E3932392D322E3932392C372E3637382D322E3932392C31302E3630362C30 PUSH2 0x1340 DUP3 ADD MSTORE PUSH32 0x6C31372E3234332C31372E32343363322E3932392C322E3932392C322E393239 PUSH2 0x1360 DUP3 ADD MSTORE PUSH32 0x2C372E3637382C302C31302E3630362020433137352E3735372C3137382E3638 PUSH2 0x1380 DUP3 ADD MSTORE PUSH32 0x372C3137332E3833382C3137392E3431392C3137312E3931382C3137392E3431 PUSH2 0x13A0 DUP3 ADD MSTORE PUSH32 0x397A272F3E3C7061746820643D274D35322E3935322C36302E343532632D312E PUSH2 0x13C0 DUP3 ADD MSTORE PUSH32 0x3931392C302D332E3833392D302E3733322D352E3330332D322E3139374C3330 PUSH2 0x13E0 DUP3 ADD MSTORE PUSH32 0x2E3430362C34312E303133632D322E3932392D322E3932392D322E3932392D37 PUSH2 0x1400 DUP3 ADD MSTORE PUSH32 0x2E3637372C302D31302E363036202063322E3932392D322E3932392C372E3637 PUSH2 0x1420 DUP3 ADD MSTORE PUSH32 0x382D322E39332C31302E3630362C306C31372E3234332C31372E32343263322E PUSH2 0x1440 DUP3 ADD MSTORE PUSH32 0x3932392C322E3932392C322E3932392C372E3637372C302C31302E3630364335 PUSH2 0x1460 DUP3 ADD MSTORE PUSH32 0x362E3739312C35392E37322C35342E3837322C36302E3435322C35322E393532 PUSH2 0x1480 DUP3 ADD MSTORE PUSH32 0x2C36302E3435327A272F3E3C2F7376673E3C2F7370616E3E3C6469762069643D PUSH2 0x14A0 DUP3 ADD MSTORE PUSH32 0x616E64726577207374796C653D6D617267696E2D746F703A313570783B746578 PUSH2 0x14C0 DUP3 ADD MSTORE PUSH32 0x742D616C69676E3A63656E7465723B77696474683A313030253E3C7370616E3E PUSH2 0x14E0 DUP3 ADD MSTORE PUSH32 0x44657369676E6564206279203C6120636C6173733D6C696768742D6C696E6B20 PUSH2 0x1500 DUP3 ADD MSTORE PUSH32 0x687265663D000000000000000000000000000000000000000000000000000000 PUSH2 0x1520 DUP3 ADD MSTORE POP JUMP JUMPDEST PUSH0 PUSH2 0x1EB5 PUSH2 0x1525 DUP4 PUSH2 0x174 JUMP JUMPDEST SWAP2 POP PUSH2 0x1EC0 DUP3 PUSH2 0x4C8 JUMP JUMPDEST PUSH2 0x1525 DUP3 ADD SWAP1 POP SWAP2 SWAP1 POP JUMP JUMPDEST PUSH32 0x207461726765743D5F626C616E6B3E416E64726577204D69746368656C6C3C2F PUSH0 DUP3 ADD MSTORE PUSH32 0x613E3C2F7370616E3E3C2F6469763E3C64697620636C6173733D666F6F746572 PUSH1 0x20 DUP3 ADD MSTORE PUSH32 0x3E26233136393B2050726F7A616320596F7574682E20416C6C20726967687473 PUSH1 0x40 DUP3 ADD MSTORE PUSH32 0x2072657365727665642E3C2F6469763E3C2F6469763E3C2F6469763E00000000 PUSH1 0x60 DUP3 ADD MSTORE POP JUMP JUMPDEST PUSH0 PUSH2 0x1F72 PUSH1 0x7C DUP4 PUSH2 0x174 JUMP JUMPDEST SWAP2 POP PUSH2 0x1F7D DUP3 PUSH2 0x1ECC JUMP JUMPDEST PUSH1 0x7C DUP3 ADD SWAP1 POP SWAP2 SWAP1 POP JUMP JUMPDEST PUSH0 PUSH2 0x1F92 DUP3 PUSH2 0x2D7 JUMP JUMPDEST SWAP2 POP PUSH2 0x1F9E DUP3 DUP9 PUSH2 0x36A JUMP JUMPDEST SWAP2 POP PUSH2 0x1FA9 DUP3 PUSH2 0x412 JUMP JUMPDEST SWAP2 POP PUSH2 0x1FB5 DUP3 DUP8 PUSH2 0x36A JUMP JUMPDEST SWAP2 POP PUSH2 0x1FC0 DUP3 PUSH2 0x45C JUMP JUMPDEST SWAP2 POP PUSH2 0x1FCC DUP3 DUP7 PUSH2 0x36A JUMP JUMPDEST SWAP2 POP PUSH2 0x1FD7 DUP3 PUSH2 0x4A6 JUMP JUMPDEST SWAP2 POP PUSH2 0x1FE3 DUP3 DUP6 PUSH2 0x36A JUMP JUMPDEST SWAP2 POP PUSH2 0x1FEE DUP3 PUSH2 0x1EA8 JUMP JUMPDEST SWAP2 POP PUSH2 0x1FFA DUP3 DUP5 PUSH2 0x36A JUMP JUMPDEST SWAP2 POP PUSH2 0x2005 DUP3 PUSH2 0x1F66 JUMP JUMPDEST SWAP2 POP DUP2 SWAP1 POP SWAP7 SWAP6 POP POP POP POP POP POP JUMP INVALID LOG2 PUSH5 0x6970667358 0x22 SLT KECCAK256 ISZERO DUP6 MSIZE 0x26 CHAINID SWAP4 0x22 PUSH23 0x26D95D906FA68ED2A0105919E9A2AFEBC2E4367921BFC6 PUSH20 0x64736F6C634300081A003368747470733A2F2F73 PUSH21 0x61636B706174682E626F6F74737472617063646E2E PUSH4 0x6F6D2F62 PUSH16 0x6F7473747261702F352E312E302F6373 PUSH20 0x2F626F6F7473747261702E6D696E2E6373736874 PUSH21 0x70733A2F2F636F64652E6A71756572792E636F6D2F PUSH11 0x71756572792D332E362E30 0x2E PUSH14 0x696E2E6A7368747470733A2F2F66 PUSH16 0x6E74732E676F6F676C65617069732E63 PUSH16 0x6D2F637373323F66616D696C793D526F PUSH3 0x6F746F GASPRICE PUSH24 0x676874403330303B3430303B37303026646973706C61793D PUSH20 0x77617068747470733A2F2F63646E2E6A7364656C PUSH10 0x76722E6E65742F6E706D 0x2F PUSH24 0x65623340342E31302E302F646973742F776562332E6D696E 0x2E PUSH11 0x7300000000000000000000 "
		},
		"gasEstimates": {
			"creation": {
				"codeDepositCost": "1653200",
				"executionCost": "infinite",
				"totalCost": "infinite"
			},
			"external": {
				"getAnimFooter()": "infinite",
				"getAnimHeader()": "infinite"
			}
		},
		"methodIdentifiers": {
			"getAnimFooter()": "7899ff8f",
			"getAnimHeader()": "18a6ef6c"
		}
	},
	"abi": [
		{
			"inputs": [],
			"name": "getAnimFooter",
			"outputs": [
				{
					"internalType": "string",
					"name": "",
					"type": "string"
				}
			],
			"stateMutability": "pure",
			"type": "function"
		},
		{
			"inputs": [],
			"name": "getAnimHeader",
			"outputs": [
				{
					"internalType": "string",
					"name": "",
					"type": "string"
				}
			],
			"stateMutability": "view",
			"type": "function"
		}
	]
}