{
	"data": {
		"bytecode": {
			"linkReferences": {},
			"object": "60806040526040518060400160405280600181526020017f30000000000000000000000000000000000000000000000000000000000000008152505f9081610047919061040b565b506040518060400160405280601481526020017f68747470733a2f2f7777772e746a6f2e6172742f0000000000000000000000008152506004908161008c919061040b565b506040518060400160405280601881526020017f68747470733a2f2f65746865727363616e2e696f2f74782f0000000000000000815250600590816100d1919061040b565b506040518060400160405280601a81526020017f68747470733a2f2f616e647265776d69746368656c6c2e78797a00000000000081525060069081610116919061040b565b50348015610122575f80fd5b503360035f6101000a81548173ffffffffffffffffffffffffffffffffffffffff021916908373ffffffffffffffffffffffffffffffffffffffff160217905550600160025f73f1da6e2d387e9da611dac8a7fc587eaa4b01001373ffffffffffffffffffffffffffffffffffffffff1673ffffffffffffffffffffffffffffffffffffffff1681526020019081526020015f205f6101000a81548160ff0219169083151502179055506104da565b5f81519050919050565b7f4e487b71000000000000000000000000000000000000000000000000000000005f52604160045260245ffd5b7f4e487b71000000000000000000000000000000000000000000000000000000005f52602260045260245ffd5b5f600282049050600182168061024c57607f821691505b60208210810361025f5761025e610208565b5b50919050565b5f819050815f5260205f209050919050565b5f6020601f8301049050919050565b5f82821b905092915050565b5f600883026102c17fffffffffffffffffffffffffffffffffffffffffffffffffffffffffffffffff82610286565b6102cb8683610286565b95508019841693508086168417925050509392505050565b5f819050919050565b5f819050919050565b5f61030f61030a610305846102e3565b6102ec565b6102e3565b9050919050565b5f819050919050565b610328836102f5565b61033c61033482610316565b848454610292565b825550505050565b5f90565b610350610344565b61035b81848461031f565b505050565b5b8181101561037e576103735f82610348565b600181019050610361565b5050565b601f8211156103c35761039481610265565b61039d84610277565b810160208510156103ac578190505b6103c06103b885610277565b830182610360565b50505b505050565b5f82821c905092915050565b5f6103e35f19846008026103c8565b1980831691505092915050565b5f6103fb83836103d4565b9150826002028217905092915050565b610414826101d1565b67ffffffffffffffff81111561042d5761042c6101db565b5b6104378254610235565b610442828285610382565b5f60209050601f831160018114610473575f8415610461578287015190505b61046b85826103f0565b8655506104d2565b601f19841661048186610265565b5f5b828110156104a857848901518255600182019150602085019450602081019050610483565b868310156104c557848901516104c1601f8916826103d4565b8355505b6001600288020188555050505b505050505050565b612771806104e75f395ff3fe608060405234801561000f575f80fd5b5060043610610114575f3560e01c806387a5b67c116100a0578063a9c598b91161006f578063a9c598b9146102a6578063b0a69ab4146102c2578063b30906d4146102e0578063c41f0cac14610314578063c55324681461033057610114565b806387a5b67c1461021e5780638da5cb5b1461024e5780639ef96d1f1461026c578063a84fd0ed1461028a57610114565b80634b4fd03b116100e75780634b4fd03b1461018e57806352baf08f146101ac57806357c8be66146101c857806372176858146101e457806385e685311461020257610114565b80630ae5e739146101185780630d8550e11461013457806312d491c914610152578063295a521214610170575b5f80fd5b610132600480360381019061012d9190611374565b61034e565b005b61013c610435565b604051610149919061140f565b60405180910390f35b61015a6104c5565b6040516101679190611447565b60405180910390f35b6101786104d1565b604051610185919061140f565b60405180910390f35b61019661055c565b6040516101a3919061140f565b60405180910390f35b6101c660048036038101906101c1919061158c565b610626565b005b6101e260048036038101906101dd91906115d3565b610719565b005b6101ec6108bd565b6040516101f9919061140f565b60405180910390f35b61021c60048036038101906102179190611374565b61094d565b005b61023860048036038101906102339190611374565b610a33565b60405161024591906116f0565b60405180910390f35b610256610a50565b6040516102639190611718565b60405180910390f35b610274610a75565b604051610281919061140f565b60405180910390f35b6102a4600480360381019061029f919061158c565b610b05565b005b6102c060048036038101906102bb919061158c565b610cd7565b005b6102ca610dca565b6040516102d7919061140f565b60405180910390f35b6102fa60048036038101906102f5919061175b565b610ea8565b60405161030b959493929190611786565b60405180910390f35b61032e6004803603810190610329919061158c565b611187565b005b61033861127a565b604051610345919061140f565b60405180910390f35b60035f9054906101000a900473ffffffffffffffffffffffffffffffffffffffff1673ffffffffffffffffffffffffffffffffffffffff163373ffffffffffffffffffffffffffffffffffffffff16146103dd576040517f08c379a00000000000000000000000000000000000000000000000000000000081526004016103d490611844565b60405180910390fd5b600160025f8373ffffffffffffffffffffffffffffffffffffffff1673ffffffffffffffffffffffffffffffffffffffff1681526020019081526020015f205f6101000a81548160ff02191690831515021790555050565b6060600480546104449061188f565b80601f01602080910402602001604051908101604052809291908181526020018280546104709061188f565b80156104bb5780601f10610492576101008083540402835291602001916104bb565b820191905f5260205f20905b81548152906001019060200180831161049e57829003601f168201915b5050505050905090565b5f600180549050905090565b5f80546104dd9061188f565b80601f01602080910402602001604051908101604052809291908181526020018280546105099061188f565b80156105545780601f1061052b57610100808354040283529160200191610554565b820191905f5260205f20905b81548152906001019060200180831161053757829003601f168201915b505050505081565b606060405160200161056d90611913565b604051602081830303815290604052805190602001205f60405160200161059491906119b9565b60405160208183030381529060405280519060200120146105ea576040518060400160405280600481526020017f6461726b00000000000000000000000000000000000000000000000000000000815250610621565b6040518060400160405280600581526020017f6c696768740000000000000000000000000000000000000000000000000000008152505b905090565b60035f9054906101000a900473ffffffffffffffffffffffffffffffffffffffff1673ffffffffffffffffffffffffffffffffffffffff163373ffffffffffffffffffffffffffffffffffffffff1614806106c7575060025f3373ffffffffffffffffffffffffffffffffffffffff1673ffffffffffffffffffffffffffffffffffffffff1681526020019081526020015f205f9054906101000a900460ff165b610706576040517f08c379a00000000000000000000000000000000000000000000000000000000081526004016106fd90611a19565b60405180910390fd5b80600690816107159190611bc2565b5050565b60035f9054906101000a900473ffffffffffffffffffffffffffffffffffffffff1673ffffffffffffffffffffffffffffffffffffffff163373ffffffffffffffffffffffffffffffffffffffff1614806107ba575060025f3373ffffffffffffffffffffffffffffffffffffffff1673ffffffffffffffffffffffffffffffffffffffff1681526020019081526020015f205f9054906101000a900460ff165b6107f9576040517f08c379a00000000000000000000000000000000000000000000000000000000081526004016107f090611a19565b60405180910390fd5b60016040518060a0016040528087815260200186815260200185815260200184815260200183815250908060018154018082558091505060019003905f5260205f2090600502015f909190919091505f820151815f01908161085b9190611bc2565b5060208201518160010190816108719190611bc2565b5060408201518160020190816108879190611bc2565b50606082015181600301908161089d9190611bc2565b5060808201518160040190816108b39190611bc2565b5050505050505050565b6060600580546108cc9061188f565b80601f01602080910402602001604051908101604052809291908181526020018280546108f89061188f565b80156109435780601f1061091a57610100808354040283529160200191610943565b820191905f5260205f20905b81548152906001019060200180831161092657829003601f168201915b5050505050905090565b60035f9054906101000a900473ffffffffffffffffffffffffffffffffffffffff1673ffffffffffffffffffffffffffffffffffffffff163373ffffffffffffffffffffffffffffffffffffffff16146109dc576040517f08c379a00000000000000000000000000000000000000000000000000000000081526004016109d390611844565b60405180910390fd5b5f60025f8373ffffffffffffffffffffffffffffffffffffffff1673ffffffffffffffffffffffffffffffffffffffff1681526020019081526020015f205f6101000a81548160ff02191690831515021790555050565b6002602052805f5260405f205f915054906101000a900460ff1681565b60035f9054906101000a900473ffffffffffffffffffffffffffffffffffffffff1681565b606060068054610a849061188f565b80601f0160208091040260200160405190810160405280929190818152602001828054610ab09061188f565b8015610afb5780601f10610ad257610100808354040283529160200191610afb565b820191905f5260205f20905b815481529060010190602001808311610ade57829003601f168201915b5050505050905090565b60035f9054906101000a900473ffffffffffffffffffffffffffffffffffffffff1673ffffffffffffffffffffffffffffffffffffffff163373ffffffffffffffffffffffffffffffffffffffff161480610ba6575060025f3373ffffffffffffffffffffffffffffffffffffffff1673ffffffffffffffffffffffffffffffffffffffff1681526020019081526020015f205f9054906101000a900460ff165b610be5576040517f08c379a0000000000000000000000000000000000000000000000000000000008152600401610bdc90611a19565b60405180910390fd5b604051602001610bf490611913565b6040516020818303038152906040528051906020012081604051602001610c1b9190611cc1565b604051602081830303815290604052805190602001201480610c865750604051602001610c4790611d21565b6040516020818303038152906040528051906020012081604051602001610c6e9190611cc1565b60405160208183030381529060405280519060200120145b610cc5576040517f08c379a0000000000000000000000000000000000000000000000000000000008152600401610cbc90611d7f565b60405180910390fd5b805f9081610cd39190611bc2565b5050565b60035f9054906101000a900473ffffffffffffffffffffffffffffffffffffffff1673ffffffffffffffffffffffffffffffffffffffff163373ffffffffffffffffffffffffffffffffffffffff161480610d78575060025f3373ffffffffffffffffffffffffffffffffffffffff1673ffffffffffffffffffffffffffffffffffffffff1681526020019081526020015f205f9054906101000a900460ff165b610db7576040517f08c379a0000000000000000000000000000000000000000000000000000000008152600401610dae90611a19565b60405180910390fd5b8060059081610dc69190611bc2565b5050565b6060805f5b600180549050811015610ea057816004600560018481548110610df557610df4611d9d565b5b905f5260205f2090600502015f0160018581548110610e1757610e16611d9d565b5b905f5260205f20906005020160040160018681548110610e3a57610e39611d9d565b5b905f5260205f20906005020160010160018781548110610e5d57610e5c611d9d565b5b905f5260205f209060050201600301604051602001610e8297969594939291906125f0565b60405160208183030381529060405291508080600101915050610dcf565b508091505090565b60018181548110610eb7575f80fd5b905f5260205f2090600502015f91509050805f018054610ed69061188f565b80601f0160208091040260200160405190810160405280929190818152602001828054610f029061188f565b8015610f4d5780601f10610f2457610100808354040283529160200191610f4d565b820191905f5260205f20905b815481529060010190602001808311610f3057829003601f168201915b505050505090806001018054610f629061188f565b80601f0160208091040260200160405190810160405280929190818152602001828054610f8e9061188f565b8015610fd95780601f10610fb057610100808354040283529160200191610fd9565b820191905f5260205f20905b815481529060010190602001808311610fbc57829003601f168201915b505050505090806002018054610fee9061188f565b80601f016020809104026020016040519081016040528092919081815260200182805461101a9061188f565b80156110655780601f1061103c57610100808354040283529160200191611065565b820191905f5260205f20905b81548152906001019060200180831161104857829003601f168201915b50505050509080600301805461107a9061188f565b80601f01602080910402602001604051908101604052809291908181526020018280546110a69061188f565b80156110f15780601f106110c8576101008083540402835291602001916110f1565b820191905f5260205f20905b8154815290600101906020018083116110d457829003601f168201915b5050505050908060040180546111069061188f565b80601f01602080910402602001604051908101604052809291908181526020018280546111329061188f565b801561117d5780601f106111545761010080835404028352916020019161117d565b820191905f5260205f20905b81548152906001019060200180831161116057829003601f168201915b5050505050905085565b60035f9054906101000a900473ffffffffffffffffffffffffffffffffffffffff1673ffffffffffffffffffffffffffffffffffffffff163373ffffffffffffffffffffffffffffffffffffffff161480611228575060025f3373ffffffffffffffffffffffffffffffffffffffff1673ffffffffffffffffffffffffffffffffffffffff1681526020019081526020015f205f9054906101000a900460ff165b611267576040517f08c379a000000000000000000000000000000000000000000000000000000000815260040161125e90611a19565b60405180910390fd5b80600490816112769190611bc2565b5050565b60605f80546112889061188f565b80601f01602080910402602001604051908101604052809291908181526020018280546112b49061188f565b80156112ff5780601f106112d6576101008083540402835291602001916112ff565b820191905f5260205f20905b8154815290600101906020018083116112e257829003601f168201915b5050505050905090565b5f604051905090565b5f80fd5b5f80fd5b5f73ffffffffffffffffffffffffffffffffffffffff82169050919050565b5f6113438261131a565b9050919050565b61135381611339565b811461135d575f80fd5b50565b5f8135905061136e8161134a565b92915050565b5f6020828403121561138957611388611312565b5b5f61139684828501611360565b91505092915050565b5f81519050919050565b5f82825260208201905092915050565b8281835e5f83830152505050565b5f601f19601f8301169050919050565b5f6113e18261139f565b6113eb81856113a9565b93506113fb8185602086016113b9565b611404816113c7565b840191505092915050565b5f6020820190508181035f83015261142781846113d7565b905092915050565b5f819050919050565b6114418161142f565b82525050565b5f60208201905061145a5f830184611438565b92915050565b5f80fd5b5f80fd5b7f4e487b71000000000000000000000000000000000000000000000000000000005f52604160045260245ffd5b61149e826113c7565b810181811067ffffffffffffffff821117156114bd576114bc611468565b5b80604052505050565b5f6114cf611309565b90506114db8282611495565b919050565b5f67ffffffffffffffff8211156114fa576114f9611468565b5b611503826113c7565b9050602081019050919050565b828183375f83830152505050565b5f61153061152b846114e0565b6114c6565b90508281526020810184848401111561154c5761154b611464565b5b611557848285611510565b509392505050565b5f82601f83011261157357611572611460565b5b813561158384826020860161151e565b91505092915050565b5f602082840312156115a1576115a0611312565b5b5f82013567ffffffffffffffff8111156115be576115bd611316565b5b6115ca8482850161155f565b91505092915050565b5f805f805f60a086880312156115ec576115eb611312565b5b5f86013567ffffffffffffffff81111561160957611608611316565b5b6116158882890161155f565b955050602086013567ffffffffffffffff81111561163657611635611316565b5b6116428882890161155f565b945050604086013567ffffffffffffffff81111561166357611662611316565b5b61166f8882890161155f565b935050606086013567ffffffffffffffff8111156116905761168f611316565b5b61169c8882890161155f565b925050608086013567ffffffffffffffff8111156116bd576116bc611316565b5b6116c98882890161155f565b9150509295509295909350565b5f8115159050919050565b6116ea816116d6565b82525050565b5f6020820190506117035f8301846116e1565b92915050565b61171281611339565b82525050565b5f60208201905061172b5f830184611709565b92915050565b61173a8161142f565b8114611744575f80fd5b50565b5f8135905061175581611731565b92915050565b5f602082840312156117705761176f611312565b5b5f61177d84828501611747565b91505092915050565b5f60a0820190508181035f83015261179e81886113d7565b905081810360208301526117b281876113d7565b905081810360408301526117c681866113d7565b905081810360608301526117da81856113d7565b905081810360808301526117ee81846113d7565b90509695505050505050565b7f4e6f7420746865206f776e6572000000000000000000000000000000000000005f82015250565b5f61182e600d836113a9565b9150611839826117fa565b602082019050919050565b5f6020820190508181035f83015261185b81611822565b9050919050565b7f4e487b71000000000000000000000000000000000000000000000000000000005f52602260045260245ffd5b5f60028204905060018216806118a657607f821691505b6020821081036118b9576118b8611862565b5b50919050565b5f81905092915050565b7f30000000000000000000000000000000000000000000000000000000000000005f82015250565b5f6118fd6001836118bf565b9150611908826118c9565b600182019050919050565b5f61191d826118f1565b9150819050919050565b5f819050815f5260205f209050919050565b5f81546119458161188f565b61194f81866118bf565b9450600182165f8114611969576001811461197e576119b0565b60ff19831686528115158202860193506119b0565b61198785611927565b5f5b838110156119a857815481890152600182019150602081019050611989565b838801955050505b50505092915050565b5f6119c48284611939565b915081905092915050565b7f4e6f7420617574686f72697a65640000000000000000000000000000000000005f82015250565b5f611a03600e836113a9565b9150611a0e826119cf565b602082019050919050565b5f6020820190508181035f830152611a30816119f7565b9050919050565b5f6020601f8301049050919050565b5f82821b905092915050565b5f60088302611a817fffffffffffffffffffffffffffffffffffffffffffffffffffffffffffffffff82611a46565b611a8b8683611a46565b95508019841693508086168417925050509392505050565b5f819050919050565b5f611ac6611ac1611abc8461142f565b611aa3565b61142f565b9050919050565b5f819050919050565b611adf83611aac565b611af3611aeb82611acd565b848454611a52565b825550505050565b5f90565b611b07611afb565b611b12818484611ad6565b505050565b5b81811015611b3557611b2a5f82611aff565b600181019050611b18565b5050565b601f821115611b7a57611b4b81611927565b611b5484611a37565b81016020851015611b63578190505b611b77611b6f85611a37565b830182611b17565b50505b505050565b5f82821c905092915050565b5f611b9a5f1984600802611b7f565b1980831691505092915050565b5f611bb28383611b8b565b9150826002028217905092915050565b611bcb8261139f565b67ffffffffffffffff811115611be457611be3611468565b5b611bee825461188f565b611bf9828285611b39565b5f60209050601f831160018114611c2a575f8415611c18578287015190505b611c228582611ba7565b865550611c89565b601f198416611c3886611927565b5f5b82811015611c5f57848901518255600182019150602085019450602081019050611c3a565b86831015611c7c5784890151611c78601f891682611b8b565b8355505b6001600288020188555050505b505050505050565b5f611c9b8261139f565b611ca581856118bf565b9350611cb58185602086016113b9565b80840191505092915050565b5f611ccc8284611c91565b915081905092915050565b7f31000000000000000000000000000000000000000000000000000000000000005f82015250565b5f611d0b6001836118bf565b9150611d1682611cd7565b600182019050919050565b5f611d2b82611cff565b9150819050919050565b7f4d6f6465206d75737420626520273027206f72202731270000000000000000005f82015250565b5f611d696017836113a9565b9150611d7482611d35565b602082019050919050565b5f6020820190508181035f830152611d9681611d5d565b9050919050565b7f4e487b71000000000000000000000000000000000000000000000000000000005f52603260045260245ffd5b7f3c747220636c6173733d227461626c652d726f77206c696768742d6267206c695f8201527f6768742d626f72646572206c696768742d74657874223e000000000000000000602082015250565b5f611e246037836118bf565b9150611e2f82611dca565b603782019050919050565b7f3c746420636c6173733d226c696768742d6267222077696474683d22333025225f8201527f20616c69676e3d2263656e746572223e00000000000000000000000000000000602082015250565b5f611e946030836118bf565b9150611e9f82611e3a565b603082019050919050565b7f3c666f6e7420636c6173733d22736d616c6c5f74657874223e000000000000005f82015250565b5f611ede6019836118bf565b9150611ee982611eaa565b601982019050919050565b7f3c6120636c6173733d226c696768742d6c696e6b22207461726765743d225f625f8201527f6c616e6b2220687265663d220000000000000000000000000000000000000000602082015250565b5f611f4e602c836118bf565b9150611f5982611ef4565b602c82019050919050565b7f223e546a6f3c2f613e00000000000000000000000000000000000000000000005f82015250565b5f611f986009836118bf565b9150611fa382611f64565b600982019050919050565b7f3c666f6e743e3c2f666f6e743e3c2f666f6e743e3c2f74643e000000000000005f82015250565b5f611fe26019836118bf565b9150611fed82611fae565b601982019050919050565b7f3c746420616c69676e3d227269676874222077696474683d223730252220636c5f8201527f6173733d226c696768742d6267206c696768742d6c696e6b223e000000000000602082015250565b5f612052603a836118bf565b915061205d82611ff8565b603a82019050919050565b7f3c64697620636c6173733d22706f7374496e666f206465736b746f70223e00005f82015250565b5f61209c601e836118bf565b91506120a782612068565b601e82019050919050565b7f3c7370616e20636c6173733d22706f73744e756d206465736b746f70223e00005f82015250565b5f6120e6601e836118bf565b91506120f1826120b2565b601e82019050919050565b7f3c6120636c6173733d226c696768742d6c696e6b22207374796c653d22666f6e5f8201527f742d73697a653a313270783b2220687265663d22000000000000000000000000602082015250565b5f6121566034836118bf565b9150612161826120fc565b603482019050919050565b7f22207461726765743d225f626c616e6b22207469746c653d224c696e6b20746f5f8201527f2074686973207472616e73616374696f6e223e00000000000000000000000000602082015250565b5f6121c66033836118bf565b91506121d18261216c565b603382019050919050565b7f3c2f613e3c2f7370616e3e3c2f6469763e3c2f74643e3c2f74723e00000000005f82015250565b5f612210601b836118bf565b915061221b826121dc565b601b82019050919050565b7f3c74723e3c74642076616c69676e3d226d6964646c652220616c69676e3d226c5f8201527f6566742220636c6173733d226c696768742d6267223e00000000000000000000602082015250565b5f6122806036836118bf565b915061228b82612226565b603682019050919050565b7f3c756c20616c69676e3d226c65667422207374796c653d2270616464696e672d5f8201527f6c6566743a20313570783b666f6e742d73697a653a20313070783b223e000000602082015250565b5f6122f0603d836118bf565b91506122fb82612296565b603d82019050919050565b7f3c6c6920636c6173733d226c696768742d746578742d33223e426c6f636b3a205f82015250565b5f61233a6020836118bf565b915061234582612306565b602082019050919050565b7f3c2f6c693e3c6c6920636c6173733d226c696768742d746578742d33223e4c6f5f8201527f636174696f6e3a20554e4b4e4f574e3c2f6c693e3c2f756c3e3c2f74643e0000602082015250565b5f6123aa603e836118bf565b91506123b582612350565b603e82019050919050565b7f3c746420616c69676e3d2263656e746572222076616c69676e3d226d6964646c5f8201527f652220636c6173733d226c696768742d6267223e000000000000000000000000602082015250565b5f61241a6034836118bf565b9150612425826123c0565b603482019050919050565b7f3c666f6e7420636c6173733d22726567756c61725f74657874223e00000000005f82015250565b5f612464601b836118bf565b915061246f82612430565b601b82019050919050565b7f3c64697620636c6173733d22706f7374207265706c79223e00000000000000005f82015250565b5f6124ae6018836118bf565b91506124b98261247a565b601882019050919050565b7f3c626c6f636b71756f7465207374796c653d2277686974652d73706163653a205f8201527f7072652d6c696e653b6d617267696e2d746f703a3070783b2220636c6173733d60208201527f22706f73744d657373616765206c696768742d746578742d32222069643d226d60408201527f3334303739393833223e3c62723e000000000000000000000000000000000000606082015250565b5f61256a606e836118bf565b9150612575826124c4565b606e82019050919050565b7f3c2f626c6f636b71756f74653e3c2f6469763e3c2f666f6e743e3c2f74643e3c5f8201527f2f74723e00000000000000000000000000000000000000000000000000000000602082015250565b5f6125da6024836118bf565b91506125e582612580565b602482019050919050565b5f6125fb828a611c91565b915061260682611e18565b915061261182611e88565b915061261c82611ed2565b915061262782611f42565b91506126338289611939565b915061263e82611f8c565b915061264982611fd6565b915061265482612046565b915061265f82612090565b915061266a826120da565b91506126758261214a565b91506126818288611939565b915061268d8287611939565b9150612698826121ba565b91506126a48286611939565b91506126af82612204565b91506126ba82612274565b91506126c5826122e4565b91506126d08261232e565b91506126dc8285611939565b91506126e78261239e565b91506126f28261240e565b91506126fd82612458565b9150612708826124a2565b91506127138261255e565b915061271f8284611939565b915061272a826125ce565b91508190509897505050505050505056fea26469706673582212206b18c742bad52562b9763725f55da6d6f0c0d0884db9e6dc927bca5e87682ae364736f6c634300081a0033",
			"opcodes": "PUSH1 0x80 PUSH1 0x40 MSTORE PUSH1 0x40 MLOAD DUP1 PUSH1 0x40 ADD PUSH1 0x40 MSTORE DUP1 PUSH1 0x1 DUP2 MSTORE PUSH1 0x20 ADD PUSH32 0x3000000000000000000000000000000000000000000000000000000000000000 DUP2 MSTORE POP PUSH0 SWAP1 DUP2 PUSH2 0x47 SWAP2 SWAP1 PUSH2 0x40B JUMP JUMPDEST POP PUSH1 0x40 MLOAD DUP1 PUSH1 0x40 ADD PUSH1 0x40 MSTORE DUP1 PUSH1 0x14 DUP2 MSTORE PUSH1 0x20 ADD PUSH32 0x68747470733A2F2F7777772E746A6F2E6172742F000000000000000000000000 DUP2 MSTORE POP PUSH1 0x4 SWAP1 DUP2 PUSH2 0x8C SWAP2 SWAP1 PUSH2 0x40B JUMP JUMPDEST POP PUSH1 0x40 MLOAD DUP1 PUSH1 0x40 ADD PUSH1 0x40 MSTORE DUP1 PUSH1 0x18 DUP2 MSTORE PUSH1 0x20 ADD PUSH32 0x68747470733A2F2F65746865727363616E2E696F2F74782F0000000000000000 DUP2 MSTORE POP PUSH1 0x5 SWAP1 DUP2 PUSH2 0xD1 SWAP2 SWAP1 PUSH2 0x40B JUMP JUMPDEST POP PUSH1 0x40 MLOAD DUP1 PUSH1 0x40 ADD PUSH1 0x40 MSTORE DUP1 PUSH1 0x1A DUP2 MSTORE PUSH1 0x20 ADD PUSH32 0x68747470733A2F2F616E647265776D69746368656C6C2E78797A000000000000 DUP2 MSTORE POP PUSH1 0x6 SWAP1 DUP2 PUSH2 0x116 SWAP2 SWAP1 PUSH2 0x40B JUMP JUMPDEST POP CALLVALUE DUP1 ISZERO PUSH2 0x122 JUMPI PUSH0 DUP1 REVERT JUMPDEST POP CALLER PUSH1 0x3 PUSH0 PUSH2 0x100 EXP DUP2 SLOAD DUP2 PUSH20 0xFFFFFFFFFFFFFFFFFFFFFFFFFFFFFFFFFFFFFFFF MUL NOT AND SWAP1 DUP4 PUSH20 0xFFFFFFFFFFFFFFFFFFFFFFFFFFFFFFFFFFFFFFFF AND MUL OR SWAP1 SSTORE POP PUSH1 0x1 PUSH1 0x2 PUSH0 PUSH20 0xF1DA6E2D387E9DA611DAC8A7FC587EAA4B010013 PUSH20 0xFFFFFFFFFFFFFFFFFFFFFFFFFFFFFFFFFFFFFFFF AND PUSH20 0xFFFFFFFFFFFFFFFFFFFFFFFFFFFFFFFFFFFFFFFF AND DUP2 MSTORE PUSH1 0x20 ADD SWAP1 DUP2 MSTORE PUSH1 0x20 ADD PUSH0 KECCAK256 PUSH0 PUSH2 0x100 EXP DUP2 SLOAD DUP2 PUSH1 0xFF MUL NOT AND SWAP1 DUP4 ISZERO ISZERO MUL OR SWAP1 SSTORE POP PUSH2 0x4DA JUMP JUMPDEST PUSH0 DUP2 MLOAD SWAP1 POP SWAP2 SWAP1 POP JUMP JUMPDEST PUSH32 0x4E487B7100000000000000000000000000000000000000000000000000000000 PUSH0 MSTORE PUSH1 0x41 PUSH1 0x4 MSTORE PUSH1 0x24 PUSH0 REVERT JUMPDEST PUSH32 0x4E487B7100000000000000000000000000000000000000000000000000000000 PUSH0 MSTORE PUSH1 0x22 PUSH1 0x4 MSTORE PUSH1 0x24 PUSH0 REVERT JUMPDEST PUSH0 PUSH1 0x2 DUP3 DIV SWAP1 POP PUSH1 0x1 DUP3 AND DUP1 PUSH2 0x24C JUMPI PUSH1 0x7F DUP3 AND SWAP2 POP JUMPDEST PUSH1 0x20 DUP3 LT DUP2 SUB PUSH2 0x25F JUMPI PUSH2 0x25E PUSH2 0x208 JUMP JUMPDEST JUMPDEST POP SWAP2 SWAP1 POP JUMP JUMPDEST PUSH0 DUP2 SWAP1 POP DUP2 PUSH0 MSTORE PUSH1 0x20 PUSH0 KECCAK256 SWAP1 POP SWAP2 SWAP1 POP JUMP JUMPDEST PUSH0 PUSH1 0x20 PUSH1 0x1F DUP4 ADD DIV SWAP1 POP SWAP2 SWAP1 POP JUMP JUMPDEST PUSH0 DUP3 DUP3 SHL SWAP1 POP SWAP3 SWAP2 POP POP JUMP JUMPDEST PUSH0 PUSH1 0x8 DUP4 MUL PUSH2 0x2C1 PUSH32 0xFFFFFFFFFFFFFFFFFFFFFFFFFFFFFFFFFFFFFFFFFFFFFFFFFFFFFFFFFFFFFFFF DUP3 PUSH2 0x286 JUMP JUMPDEST PUSH2 0x2CB DUP7 DUP4 PUSH2 0x286 JUMP JUMPDEST SWAP6 POP DUP1 NOT DUP5 AND SWAP4 POP DUP1 DUP7 AND DUP5 OR SWAP3 POP POP POP SWAP4 SWAP3 POP POP POP JUMP JUMPDEST PUSH0 DUP2 SWAP1 POP SWAP2 SWAP1 POP JUMP JUMPDEST PUSH0 DUP2 SWAP1 POP SWAP2 SWAP1 POP JUMP JUMPDEST PUSH0 PUSH2 0x30F PUSH2 0x30A PUSH2 0x305 DUP5 PUSH2 0x2E3 JUMP JUMPDEST PUSH2 0x2EC JUMP JUMPDEST PUSH2 0x2E3 JUMP JUMPDEST SWAP1 POP SWAP2 SWAP1 POP JUMP JUMPDEST PUSH0 DUP2 SWAP1 POP SWAP2 SWAP1 POP JUMP JUMPDEST PUSH2 0x328 DUP4 PUSH2 0x2F5 JUMP JUMPDEST PUSH2 0x33C PUSH2 0x334 DUP3 PUSH2 0x316 JUMP JUMPDEST DUP5 DUP5 SLOAD PUSH2 0x292 JUMP JUMPDEST DUP3 SSTORE POP POP POP POP JUMP JUMPDEST PUSH0 SWAP1 JUMP JUMPDEST PUSH2 0x350 PUSH2 0x344 JUMP JUMPDEST PUSH2 0x35B DUP2 DUP5 DUP5 PUSH2 0x31F JUMP JUMPDEST POP POP POP JUMP JUMPDEST JUMPDEST DUP2 DUP2 LT ISZERO PUSH2 0x37E JUMPI PUSH2 0x373 PUSH0 DUP3 PUSH2 0x348 JUMP JUMPDEST PUSH1 0x1 DUP2 ADD SWAP1 POP PUSH2 0x361 JUMP JUMPDEST POP POP JUMP JUMPDEST PUSH1 0x1F DUP3 GT ISZERO PUSH2 0x3C3 JUMPI PUSH2 0x394 DUP2 PUSH2 0x265 JUMP JUMPDEST PUSH2 0x39D DUP5 PUSH2 0x277 JUMP JUMPDEST DUP2 ADD PUSH1 0x20 DUP6 LT ISZERO PUSH2 0x3AC JUMPI DUP2 SWAP1 POP JUMPDEST PUSH2 0x3C0 PUSH2 0x3B8 DUP6 PUSH2 0x277 JUMP JUMPDEST DUP4 ADD DUP3 PUSH2 0x360 JUMP JUMPDEST POP POP JUMPDEST POP POP POP JUMP JUMPDEST PUSH0 DUP3 DUP3 SHR SWAP1 POP SWAP3 SWAP2 POP POP JUMP JUMPDEST PUSH0 PUSH2 0x3E3 PUSH0 NOT DUP5 PUSH1 0x8 MUL PUSH2 0x3C8 JUMP JUMPDEST NOT DUP1 DUP4 AND SWAP2 POP POP SWAP3 SWAP2 POP POP JUMP JUMPDEST PUSH0 PUSH2 0x3FB DUP4 DUP4 PUSH2 0x3D4 JUMP JUMPDEST SWAP2 POP DUP3 PUSH1 0x2 MUL DUP3 OR SWAP1 POP SWAP3 SWAP2 POP POP JUMP JUMPDEST PUSH2 0x414 DUP3 PUSH2 0x1D1 JUMP JUMPDEST PUSH8 0xFFFFFFFFFFFFFFFF DUP2 GT ISZERO PUSH2 0x42D JUMPI PUSH2 0x42C PUSH2 0x1DB JUMP JUMPDEST JUMPDEST PUSH2 0x437 DUP3 SLOAD PUSH2 0x235 JUMP JUMPDEST PUSH2 0x442 DUP3 DUP3 DUP6 PUSH2 0x382 JUMP JUMPDEST PUSH0 PUSH1 0x20 SWAP1 POP PUSH1 0x1F DUP4 GT PUSH1 0x1 DUP2 EQ PUSH2 0x473 JUMPI PUSH0 DUP5 ISZERO PUSH2 0x461 JUMPI DUP3 DUP8 ADD MLOAD SWAP1 POP JUMPDEST PUSH2 0x46B DUP6 DUP3 PUSH2 0x3F0 JUMP JUMPDEST DUP7 SSTORE POP PUSH2 0x4D2 JUMP JUMPDEST PUSH1 0x1F NOT DUP5 AND PUSH2 0x481 DUP7 PUSH2 0x265 JUMP JUMPDEST PUSH0 JUMPDEST DUP3 DUP2 LT ISZERO PUSH2 0x4A8 JUMPI DUP5 DUP10 ADD MLOAD DUP3 SSTORE PUSH1 0x1 DUP3 ADD SWAP2 POP PUSH1 0x20 DUP6 ADD SWAP5 POP PUSH1 0x20 DUP2 ADD SWAP1 POP PUSH2 0x483 JUMP JUMPDEST DUP7 DUP4 LT ISZERO PUSH2 0x4C5 JUMPI DUP5 DUP10 ADD MLOAD PUSH2 0x4C1 PUSH1 0x1F DUP10 AND DUP3 PUSH2 0x3D4 JUMP JUMPDEST DUP4 SSTORE POP JUMPDEST PUSH1 0x1 PUSH1 0x2 DUP9 MUL ADD DUP9 SSTORE POP POP POP JUMPDEST POP POP POP POP POP POP JUMP JUMPDEST PUSH2 0x2771 DUP1 PUSH2 0x4E7 PUSH0 CODECOPY PUSH0 RETURN INVALID PUSH1 0x80 PUSH1 0x40 MSTORE CALLVALUE DUP1 ISZERO PUSH2 0xF JUMPI PUSH0 DUP1 REVERT JUMPDEST POP PUSH1 0x4 CALLDATASIZE LT PUSH2 0x114 JUMPI PUSH0 CALLDATALOAD PUSH1 0xE0 SHR DUP1 PUSH4 0x87A5B67C GT PUSH2 0xA0 JUMPI DUP1 PUSH4 0xA9C598B9 GT PUSH2 0x6F JUMPI DUP1 PUSH4 0xA9C598B9 EQ PUSH2 0x2A6 JUMPI DUP1 PUSH4 0xB0A69AB4 EQ PUSH2 0x2C2 JUMPI DUP1 PUSH4 0xB30906D4 EQ PUSH2 0x2E0 JUMPI DUP1 PUSH4 0xC41F0CAC EQ PUSH2 0x314 JUMPI DUP1 PUSH4 0xC5532468 EQ PUSH2 0x330 JUMPI PUSH2 0x114 JUMP JUMPDEST DUP1 PUSH4 0x87A5B67C EQ PUSH2 0x21E JUMPI DUP1 PUSH4 0x8DA5CB5B EQ PUSH2 0x24E JUMPI DUP1 PUSH4 0x9EF96D1F EQ PUSH2 0x26C JUMPI DUP1 PUSH4 0xA84FD0ED EQ PUSH2 0x28A JUMPI PUSH2 0x114 JUMP JUMPDEST DUP1 PUSH4 0x4B4FD03B GT PUSH2 0xE7 JUMPI DUP1 PUSH4 0x4B4FD03B EQ PUSH2 0x18E JUMPI DUP1 PUSH4 0x52BAF08F EQ PUSH2 0x1AC JUMPI DUP1 PUSH4 0x57C8BE66 EQ PUSH2 0x1C8 JUMPI DUP1 PUSH4 0x72176858 EQ PUSH2 0x1E4 JUMPI DUP1 PUSH4 0x85E68531 EQ PUSH2 0x202 JUMPI PUSH2 0x114 JUMP JUMPDEST DUP1 PUSH4 0xAE5E739 EQ PUSH2 0x118 JUMPI DUP1 PUSH4 0xD8550E1 EQ PUSH2 0x134 JUMPI DUP1 PUSH4 0x12D491C9 EQ PUSH2 0x152 JUMPI DUP1 PUSH4 0x295A5212 EQ PUSH2 0x170 JUMPI JUMPDEST PUSH0 DUP1 REVERT JUMPDEST PUSH2 0x132 PUSH1 0x4 DUP1 CALLDATASIZE SUB DUP2 ADD SWAP1 PUSH2 0x12D SWAP2 SWAP1 PUSH2 0x1374 JUMP JUMPDEST PUSH2 0x34E JUMP JUMPDEST STOP JUMPDEST PUSH2 0x13C PUSH2 0x435 JUMP JUMPDEST PUSH1 0x40 MLOAD PUSH2 0x149 SWAP2 SWAP1 PUSH2 0x140F JUMP JUMPDEST PUSH1 0x40 MLOAD DUP1 SWAP2 SUB SWAP1 RETURN JUMPDEST PUSH2 0x15A PUSH2 0x4C5 JUMP JUMPDEST PUSH1 0x40 MLOAD PUSH2 0x167 SWAP2 SWAP1 PUSH2 0x1447 JUMP JUMPDEST PUSH1 0x40 MLOAD DUP1 SWAP2 SUB SWAP1 RETURN JUMPDEST PUSH2 0x178 PUSH2 0x4D1 JUMP JUMPDEST PUSH1 0x40 MLOAD PUSH2 0x185 SWAP2 SWAP1 PUSH2 0x140F JUMP JUMPDEST PUSH1 0x40 MLOAD DUP1 SWAP2 SUB SWAP1 RETURN JUMPDEST PUSH2 0x196 PUSH2 0x55C JUMP JUMPDEST PUSH1 0x40 MLOAD PUSH2 0x1A3 SWAP2 SWAP1 PUSH2 0x140F JUMP JUMPDEST PUSH1 0x40 MLOAD DUP1 SWAP2 SUB SWAP1 RETURN JUMPDEST PUSH2 0x1C6 PUSH1 0x4 DUP1 CALLDATASIZE SUB DUP2 ADD SWAP1 PUSH2 0x1C1 SWAP2 SWAP1 PUSH2 0x158C JUMP JUMPDEST PUSH2 0x626 JUMP JUMPDEST STOP JUMPDEST PUSH2 0x1E2 PUSH1 0x4 DUP1 CALLDATASIZE SUB DUP2 ADD SWAP1 PUSH2 0x1DD SWAP2 SWAP1 PUSH2 0x15D3 JUMP JUMPDEST PUSH2 0x719 JUMP JUMPDEST STOP JUMPDEST PUSH2 0x1EC PUSH2 0x8BD JUMP JUMPDEST PUSH1 0x40 MLOAD PUSH2 0x1F9 SWAP2 SWAP1 PUSH2 0x140F JUMP JUMPDEST PUSH1 0x40 MLOAD DUP1 SWAP2 SUB SWAP1 RETURN JUMPDEST PUSH2 0x21C PUSH1 0x4 DUP1 CALLDATASIZE SUB DUP2 ADD SWAP1 PUSH2 0x217 SWAP2 SWAP1 PUSH2 0x1374 JUMP JUMPDEST PUSH2 0x94D JUMP JUMPDEST STOP JUMPDEST PUSH2 0x238 PUSH1 0x4 DUP1 CALLDATASIZE SUB DUP2 ADD SWAP1 PUSH2 0x233 SWAP2 SWAP1 PUSH2 0x1374 JUMP JUMPDEST PUSH2 0xA33 JUMP JUMPDEST PUSH1 0x40 MLOAD PUSH2 0x245 SWAP2 SWAP1 PUSH2 0x16F0 JUMP JUMPDEST PUSH1 0x40 MLOAD DUP1 SWAP2 SUB SWAP1 RETURN JUMPDEST PUSH2 0x256 PUSH2 0xA50 JUMP JUMPDEST PUSH1 0x40 MLOAD PUSH2 0x263 SWAP2 SWAP1 PUSH2 0x1718 JUMP JUMPDEST PUSH1 0x40 MLOAD DUP1 SWAP2 SUB SWAP1 RETURN JUMPDEST PUSH2 0x274 PUSH2 0xA75 JUMP JUMPDEST PUSH1 0x40 MLOAD PUSH2 0x281 SWAP2 SWAP1 PUSH2 0x140F JUMP JUMPDEST PUSH1 0x40 MLOAD DUP1 SWAP2 SUB SWAP1 RETURN JUMPDEST PUSH2 0x2A4 PUSH1 0x4 DUP1 CALLDATASIZE SUB DUP2 ADD SWAP1 PUSH2 0x29F SWAP2 SWAP1 PUSH2 0x158C JUMP JUMPDEST PUSH2 0xB05 JUMP JUMPDEST STOP JUMPDEST PUSH2 0x2C0 PUSH1 0x4 DUP1 CALLDATASIZE SUB DUP2 ADD SWAP1 PUSH2 0x2BB SWAP2 SWAP1 PUSH2 0x158C JUMP JUMPDEST PUSH2 0xCD7 JUMP JUMPDEST STOP JUMPDEST PUSH2 0x2CA PUSH2 0xDCA JUMP JUMPDEST PUSH1 0x40 MLOAD PUSH2 0x2D7 SWAP2 SWAP1 PUSH2 0x140F JUMP JUMPDEST PUSH1 0x40 MLOAD DUP1 SWAP2 SUB SWAP1 RETURN JUMPDEST PUSH2 0x2FA PUSH1 0x4 DUP1 CALLDATASIZE SUB DUP2 ADD SWAP1 PUSH2 0x2F5 SWAP2 SWAP1 PUSH2 0x175B JUMP JUMPDEST PUSH2 0xEA8 JUMP JUMPDEST PUSH1 0x40 MLOAD PUSH2 0x30B SWAP6 SWAP5 SWAP4 SWAP3 SWAP2 SWAP1 PUSH2 0x1786 JUMP JUMPDEST PUSH1 0x40 MLOAD DUP1 SWAP2 SUB SWAP1 RETURN JUMPDEST PUSH2 0x32E PUSH1 0x4 DUP1 CALLDATASIZE SUB DUP2 ADD SWAP1 PUSH2 0x329 SWAP2 SWAP1 PUSH2 0x158C JUMP JUMPDEST PUSH2 0x1187 JUMP JUMPDEST STOP JUMPDEST PUSH2 0x338 PUSH2 0x127A JUMP JUMPDEST PUSH1 0x40 MLOAD PUSH2 0x345 SWAP2 SWAP1 PUSH2 0x140F JUMP JUMPDEST PUSH1 0x40 MLOAD DUP1 SWAP2 SUB SWAP1 RETURN JUMPDEST PUSH1 0x3 PUSH0 SWAP1 SLOAD SWAP1 PUSH2 0x100 EXP SWAP1 DIV PUSH20 0xFFFFFFFFFFFFFFFFFFFFFFFFFFFFFFFFFFFFFFFF AND PUSH20 0xFFFFFFFFFFFFFFFFFFFFFFFFFFFFFFFFFFFFFFFF AND CALLER PUSH20 0xFFFFFFFFFFFFFFFFFFFFFFFFFFFFFFFFFFFFFFFF AND EQ PUSH2 0x3DD JUMPI PUSH1 0x40 MLOAD PUSH32 0x8C379A000000000000000000000000000000000000000000000000000000000 DUP2 MSTORE PUSH1 0x4 ADD PUSH2 0x3D4 SWAP1 PUSH2 0x1844 JUMP JUMPDEST PUSH1 0x40 MLOAD DUP1 SWAP2 SUB SWAP1 REVERT JUMPDEST PUSH1 0x1 PUSH1 0x2 PUSH0 DUP4 PUSH20 0xFFFFFFFFFFFFFFFFFFFFFFFFFFFFFFFFFFFFFFFF AND PUSH20 0xFFFFFFFFFFFFFFFFFFFFFFFFFFFFFFFFFFFFFFFF AND DUP2 MSTORE PUSH1 0x20 ADD SWAP1 DUP2 MSTORE PUSH1 0x20 ADD PUSH0 KECCAK256 PUSH0 PUSH2 0x100 EXP DUP2 SLOAD DUP2 PUSH1 0xFF MUL NOT AND SWAP1 DUP4 ISZERO ISZERO MUL OR SWAP1 SSTORE POP POP JUMP JUMPDEST PUSH1 0x60 PUSH1 0x4 DUP1 SLOAD PUSH2 0x444 SWAP1 PUSH2 0x188F JUMP JUMPDEST DUP1 PUSH1 0x1F ADD PUSH1 0x20 DUP1 SWAP2 DIV MUL PUSH1 0x20 ADD PUSH1 0x40 MLOAD SWAP1 DUP2 ADD PUSH1 0x40 MSTORE DUP1 SWAP3 SWAP2 SWAP1 DUP2 DUP2 MSTORE PUSH1 0x20 ADD DUP3 DUP1 SLOAD PUSH2 0x470 SWAP1 PUSH2 0x188F JUMP JUMPDEST DUP1 ISZERO PUSH2 0x4BB JUMPI DUP1 PUSH1 0x1F LT PUSH2 0x492 JUMPI PUSH2 0x100 DUP1 DUP4 SLOAD DIV MUL DUP4 MSTORE SWAP2 PUSH1 0x20 ADD SWAP2 PUSH2 0x4BB JUMP JUMPDEST DUP3 ADD SWAP2 SWAP1 PUSH0 MSTORE PUSH1 0x20 PUSH0 KECCAK256 SWAP1 JUMPDEST DUP2 SLOAD DUP2 MSTORE SWAP1 PUSH1 0x1 ADD SWAP1 PUSH1 0x20 ADD DUP1 DUP4 GT PUSH2 0x49E JUMPI DUP3 SWAP1 SUB PUSH1 0x1F AND DUP3 ADD SWAP2 JUMPDEST POP POP POP POP POP SWAP1 POP SWAP1 JUMP JUMPDEST PUSH0 PUSH1 0x1 DUP1 SLOAD SWAP1 POP SWAP1 POP SWAP1 JUMP JUMPDEST PUSH0 DUP1 SLOAD PUSH2 0x4DD SWAP1 PUSH2 0x188F JUMP JUMPDEST DUP1 PUSH1 0x1F ADD PUSH1 0x20 DUP1 SWAP2 DIV MUL PUSH1 0x20 ADD PUSH1 0x40 MLOAD SWAP1 DUP2 ADD PUSH1 0x40 MSTORE DUP1 SWAP3 SWAP2 SWAP1 DUP2 DUP2 MSTORE PUSH1 0x20 ADD DUP3 DUP1 SLOAD PUSH2 0x509 SWAP1 PUSH2 0x188F JUMP JUMPDEST DUP1 ISZERO PUSH2 0x554 JUMPI DUP1 PUSH1 0x1F LT PUSH2 0x52B JUMPI PUSH2 0x100 DUP1 DUP4 SLOAD DIV MUL DUP4 MSTORE SWAP2 PUSH1 0x20 ADD SWAP2 PUSH2 0x554 JUMP JUMPDEST DUP3 ADD SWAP2 SWAP1 PUSH0 MSTORE PUSH1 0x20 PUSH0 KECCAK256 SWAP1 JUMPDEST DUP2 SLOAD DUP2 MSTORE SWAP1 PUSH1 0x1 ADD SWAP1 PUSH1 0x20 ADD DUP1 DUP4 GT PUSH2 0x537 JUMPI DUP3 SWAP1 SUB PUSH1 0x1F AND DUP3 ADD SWAP2 JUMPDEST POP POP POP POP POP DUP2 JUMP JUMPDEST PUSH1 0x60 PUSH1 0x40 MLOAD PUSH1 0x20 ADD PUSH2 0x56D SWAP1 PUSH2 0x1913 JUMP JUMPDEST PUSH1 0x40 MLOAD PUSH1 0x20 DUP2 DUP4 SUB SUB DUP2 MSTORE SWAP1 PUSH1 0x40 MSTORE DUP1 MLOAD SWAP1 PUSH1 0x20 ADD KECCAK256 PUSH0 PUSH1 0x40 MLOAD PUSH1 0x20 ADD PUSH2 0x594 SWAP2 SWAP1 PUSH2 0x19B9 JUMP JUMPDEST PUSH1 0x40 MLOAD PUSH1 0x20 DUP2 DUP4 SUB SUB DUP2 MSTORE SWAP1 PUSH1 0x40 MSTORE DUP1 MLOAD SWAP1 PUSH1 0x20 ADD KECCAK256 EQ PUSH2 0x5EA JUMPI PUSH1 0x40 MLOAD DUP1 PUSH1 0x40 ADD PUSH1 0x40 MSTORE DUP1 PUSH1 0x4 DUP2 MSTORE PUSH1 0x20 ADD PUSH32 0x6461726B00000000000000000000000000000000000000000000000000000000 DUP2 MSTORE POP PUSH2 0x621 JUMP JUMPDEST PUSH1 0x40 MLOAD DUP1 PUSH1 0x40 ADD PUSH1 0x40 MSTORE DUP1 PUSH1 0x5 DUP2 MSTORE PUSH1 0x20 ADD PUSH32 0x6C69676874000000000000000000000000000000000000000000000000000000 DUP2 MSTORE POP JUMPDEST SWAP1 POP SWAP1 JUMP JUMPDEST PUSH1 0x3 PUSH0 SWAP1 SLOAD SWAP1 PUSH2 0x100 EXP SWAP1 DIV PUSH20 0xFFFFFFFFFFFFFFFFFFFFFFFFFFFFFFFFFFFFFFFF AND PUSH20 0xFFFFFFFFFFFFFFFFFFFFFFFFFFFFFFFFFFFFFFFF AND CALLER PUSH20 0xFFFFFFFFFFFFFFFFFFFFFFFFFFFFFFFFFFFFFFFF AND EQ DUP1 PUSH2 0x6C7 JUMPI POP PUSH1 0x2 PUSH0 CALLER PUSH20 0xFFFFFFFFFFFFFFFFFFFFFFFFFFFFFFFFFFFFFFFF AND PUSH20 0xFFFFFFFFFFFFFFFFFFFFFFFFFFFFFFFFFFFFFFFF AND DUP2 MSTORE PUSH1 0x20 ADD SWAP1 DUP2 MSTORE PUSH1 0x20 ADD PUSH0 KECCAK256 PUSH0 SWAP1 SLOAD SWAP1 PUSH2 0x100 EXP SWAP1 DIV PUSH1 0xFF AND JUMPDEST PUSH2 0x706 JUMPI PUSH1 0x40 MLOAD PUSH32 0x8C379A000000000000000000000000000000000000000000000000000000000 DUP2 MSTORE PUSH1 0x4 ADD PUSH2 0x6FD SWAP1 PUSH2 0x1A19 JUMP JUMPDEST PUSH1 0x40 MLOAD DUP1 SWAP2 SUB SWAP1 REVERT JUMPDEST DUP1 PUSH1 0x6 SWAP1 DUP2 PUSH2 0x715 SWAP2 SWAP1 PUSH2 0x1BC2 JUMP JUMPDEST POP POP JUMP JUMPDEST PUSH1 0x3 PUSH0 SWAP1 SLOAD SWAP1 PUSH2 0x100 EXP SWAP1 DIV PUSH20 0xFFFFFFFFFFFFFFFFFFFFFFFFFFFFFFFFFFFFFFFF AND PUSH20 0xFFFFFFFFFFFFFFFFFFFFFFFFFFFFFFFFFFFFFFFF AND CALLER PUSH20 0xFFFFFFFFFFFFFFFFFFFFFFFFFFFFFFFFFFFFFFFF AND EQ DUP1 PUSH2 0x7BA JUMPI POP PUSH1 0x2 PUSH0 CALLER PUSH20 0xFFFFFFFFFFFFFFFFFFFFFFFFFFFFFFFFFFFFFFFF AND PUSH20 0xFFFFFFFFFFFFFFFFFFFFFFFFFFFFFFFFFFFFFFFF AND DUP2 MSTORE PUSH1 0x20 ADD SWAP1 DUP2 MSTORE PUSH1 0x20 ADD PUSH0 KECCAK256 PUSH0 SWAP1 SLOAD SWAP1 PUSH2 0x100 EXP SWAP1 DIV PUSH1 0xFF AND JUMPDEST PUSH2 0x7F9 JUMPI PUSH1 0x40 MLOAD PUSH32 0x8C379A000000000000000000000000000000000000000000000000000000000 DUP2 MSTORE PUSH1 0x4 ADD PUSH2 0x7F0 SWAP1 PUSH2 0x1A19 JUMP JUMPDEST PUSH1 0x40 MLOAD DUP1 SWAP2 SUB SWAP1 REVERT JUMPDEST PUSH1 0x1 PUSH1 0x40 MLOAD DUP1 PUSH1 0xA0 ADD PUSH1 0x40 MSTORE DUP1 DUP8 DUP2 MSTORE PUSH1 0x20 ADD DUP7 DUP2 MSTORE PUSH1 0x20 ADD DUP6 DUP2 MSTORE PUSH1 0x20 ADD DUP5 DUP2 MSTORE PUSH1 0x20 ADD DUP4 DUP2 MSTORE POP SWAP1 DUP1 PUSH1 0x1 DUP2 SLOAD ADD DUP1 DUP3 SSTORE DUP1 SWAP2 POP POP PUSH1 0x1 SWAP1 SUB SWAP1 PUSH0 MSTORE PUSH1 0x20 PUSH0 KECCAK256 SWAP1 PUSH1 0x5 MUL ADD PUSH0 SWAP1 SWAP2 SWAP1 SWAP2 SWAP1 SWAP2 POP PUSH0 DUP3 ADD MLOAD DUP2 PUSH0 ADD SWAP1 DUP2 PUSH2 0x85B SWAP2 SWAP1 PUSH2 0x1BC2 JUMP JUMPDEST POP PUSH1 0x20 DUP3 ADD MLOAD DUP2 PUSH1 0x1 ADD SWAP1 DUP2 PUSH2 0x871 SWAP2 SWAP1 PUSH2 0x1BC2 JUMP JUMPDEST POP PUSH1 0x40 DUP3 ADD MLOAD DUP2 PUSH1 0x2 ADD SWAP1 DUP2 PUSH2 0x887 SWAP2 SWAP1 PUSH2 0x1BC2 JUMP JUMPDEST POP PUSH1 0x60 DUP3 ADD MLOAD DUP2 PUSH1 0x3 ADD SWAP1 DUP2 PUSH2 0x89D SWAP2 SWAP1 PUSH2 0x1BC2 JUMP JUMPDEST POP PUSH1 0x80 DUP3 ADD MLOAD DUP2 PUSH1 0x4 ADD SWAP1 DUP2 PUSH2 0x8B3 SWAP2 SWAP1 PUSH2 0x1BC2 JUMP JUMPDEST POP POP POP POP POP POP POP POP JUMP JUMPDEST PUSH1 0x60 PUSH1 0x5 DUP1 SLOAD PUSH2 0x8CC SWAP1 PUSH2 0x188F JUMP JUMPDEST DUP1 PUSH1 0x1F ADD PUSH1 0x20 DUP1 SWAP2 DIV MUL PUSH1 0x20 ADD PUSH1 0x40 MLOAD SWAP1 DUP2 ADD PUSH1 0x40 MSTORE DUP1 SWAP3 SWAP2 SWAP1 DUP2 DUP2 MSTORE PUSH1 0x20 ADD DUP3 DUP1 SLOAD PUSH2 0x8F8 SWAP1 PUSH2 0x188F JUMP JUMPDEST DUP1 ISZERO PUSH2 0x943 JUMPI DUP1 PUSH1 0x1F LT PUSH2 0x91A JUMPI PUSH2 0x100 DUP1 DUP4 SLOAD DIV MUL DUP4 MSTORE SWAP2 PUSH1 0x20 ADD SWAP2 PUSH2 0x943 JUMP JUMPDEST DUP3 ADD SWAP2 SWAP1 PUSH0 MSTORE PUSH1 0x20 PUSH0 KECCAK256 SWAP1 JUMPDEST DUP2 SLOAD DUP2 MSTORE SWAP1 PUSH1 0x1 ADD SWAP1 PUSH1 0x20 ADD DUP1 DUP4 GT PUSH2 0x926 JUMPI DUP3 SWAP1 SUB PUSH1 0x1F AND DUP3 ADD SWAP2 JUMPDEST POP POP POP POP POP SWAP1 POP SWAP1 JUMP JUMPDEST PUSH1 0x3 PUSH0 SWAP1 SLOAD SWAP1 PUSH2 0x100 EXP SWAP1 DIV PUSH20 0xFFFFFFFFFFFFFFFFFFFFFFFFFFFFFFFFFFFFFFFF AND PUSH20 0xFFFFFFFFFFFFFFFFFFFFFFFFFFFFFFFFFFFFFFFF AND CALLER PUSH20 0xFFFFFFFFFFFFFFFFFFFFFFFFFFFFFFFFFFFFFFFF AND EQ PUSH2 0x9DC JUMPI PUSH1 0x40 MLOAD PUSH32 0x8C379A000000000000000000000000000000000000000000000000000000000 DUP2 MSTORE PUSH1 0x4 ADD PUSH2 0x9D3 SWAP1 PUSH2 0x1844 JUMP JUMPDEST PUSH1 0x40 MLOAD DUP1 SWAP2 SUB SWAP1 REVERT JUMPDEST PUSH0 PUSH1 0x2 PUSH0 DUP4 PUSH20 0xFFFFFFFFFFFFFFFFFFFFFFFFFFFFFFFFFFFFFFFF AND PUSH20 0xFFFFFFFFFFFFFFFFFFFFFFFFFFFFFFFFFFFFFFFF AND DUP2 MSTORE PUSH1 0x20 ADD SWAP1 DUP2 MSTORE PUSH1 0x20 ADD PUSH0 KECCAK256 PUSH0 PUSH2 0x100 EXP DUP2 SLOAD DUP2 PUSH1 0xFF MUL NOT AND SWAP1 DUP4 ISZERO ISZERO MUL OR SWAP1 SSTORE POP POP JUMP JUMPDEST PUSH1 0x2 PUSH1 0x20 MSTORE DUP1 PUSH0 MSTORE PUSH1 0x40 PUSH0 KECCAK256 PUSH0 SWAP2 POP SLOAD SWAP1 PUSH2 0x100 EXP SWAP1 DIV PUSH1 0xFF AND DUP2 JUMP JUMPDEST PUSH1 0x3 PUSH0 SWAP1 SLOAD SWAP1 PUSH2 0x100 EXP SWAP1 DIV PUSH20 0xFFFFFFFFFFFFFFFFFFFFFFFFFFFFFFFFFFFFFFFF AND DUP2 JUMP JUMPDEST PUSH1 0x60 PUSH1 0x6 DUP1 SLOAD PUSH2 0xA84 SWAP1 PUSH2 0x188F JUMP JUMPDEST DUP1 PUSH1 0x1F ADD PUSH1 0x20 DUP1 SWAP2 DIV MUL PUSH1 0x20 ADD PUSH1 0x40 MLOAD SWAP1 DUP2 ADD PUSH1 0x40 MSTORE DUP1 SWAP3 SWAP2 SWAP1 DUP2 DUP2 MSTORE PUSH1 0x20 ADD DUP3 DUP1 SLOAD PUSH2 0xAB0 SWAP1 PUSH2 0x188F JUMP JUMPDEST DUP1 ISZERO PUSH2 0xAFB JUMPI DUP1 PUSH1 0x1F LT PUSH2 0xAD2 JUMPI PUSH2 0x100 DUP1 DUP4 SLOAD DIV MUL DUP4 MSTORE SWAP2 PUSH1 0x20 ADD SWAP2 PUSH2 0xAFB JUMP JUMPDEST DUP3 ADD SWAP2 SWAP1 PUSH0 MSTORE PUSH1 0x20 PUSH0 KECCAK256 SWAP1 JUMPDEST DUP2 SLOAD DUP2 MSTORE SWAP1 PUSH1 0x1 ADD SWAP1 PUSH1 0x20 ADD DUP1 DUP4 GT PUSH2 0xADE JUMPI DUP3 SWAP1 SUB PUSH1 0x1F AND DUP3 ADD SWAP2 JUMPDEST POP POP POP POP POP SWAP1 POP SWAP1 JUMP JUMPDEST PUSH1 0x3 PUSH0 SWAP1 SLOAD SWAP1 PUSH2 0x100 EXP SWAP1 DIV PUSH20 0xFFFFFFFFFFFFFFFFFFFFFFFFFFFFFFFFFFFFFFFF AND PUSH20 0xFFFFFFFFFFFFFFFFFFFFFFFFFFFFFFFFFFFFFFFF AND CALLER PUSH20 0xFFFFFFFFFFFFFFFFFFFFFFFFFFFFFFFFFFFFFFFF AND EQ DUP1 PUSH2 0xBA6 JUMPI POP PUSH1 0x2 PUSH0 CALLER PUSH20 0xFFFFFFFFFFFFFFFFFFFFFFFFFFFFFFFFFFFFFFFF AND PUSH20 0xFFFFFFFFFFFFFFFFFFFFFFFFFFFFFFFFFFFFFFFF AND DUP2 MSTORE PUSH1 0x20 ADD SWAP1 DUP2 MSTORE PUSH1 0x20 ADD PUSH0 KECCAK256 PUSH0 SWAP1 SLOAD SWAP1 PUSH2 0x100 EXP SWAP1 DIV PUSH1 0xFF AND JUMPDEST PUSH2 0xBE5 JUMPI PUSH1 0x40 MLOAD PUSH32 0x8C379A000000000000000000000000000000000000000000000000000000000 DUP2 MSTORE PUSH1 0x4 ADD PUSH2 0xBDC SWAP1 PUSH2 0x1A19 JUMP JUMPDEST PUSH1 0x40 MLOAD DUP1 SWAP2 SUB SWAP1 REVERT JUMPDEST PUSH1 0x40 MLOAD PUSH1 0x20 ADD PUSH2 0xBF4 SWAP1 PUSH2 0x1913 JUMP JUMPDEST PUSH1 0x40 MLOAD PUSH1 0x20 DUP2 DUP4 SUB SUB DUP2 MSTORE SWAP1 PUSH1 0x40 MSTORE DUP1 MLOAD SWAP1 PUSH1 0x20 ADD KECCAK256 DUP2 PUSH1 0x40 MLOAD PUSH1 0x20 ADD PUSH2 0xC1B SWAP2 SWAP1 PUSH2 0x1CC1 JUMP JUMPDEST PUSH1 0x40 MLOAD PUSH1 0x20 DUP2 DUP4 SUB SUB DUP2 MSTORE SWAP1 PUSH1 0x40 MSTORE DUP1 MLOAD SWAP1 PUSH1 0x20 ADD KECCAK256 EQ DUP1 PUSH2 0xC86 JUMPI POP PUSH1 0x40 MLOAD PUSH1 0x20 ADD PUSH2 0xC47 SWAP1 PUSH2 0x1D21 JUMP JUMPDEST PUSH1 0x40 MLOAD PUSH1 0x20 DUP2 DUP4 SUB SUB DUP2 MSTORE SWAP1 PUSH1 0x40 MSTORE DUP1 MLOAD SWAP1 PUSH1 0x20 ADD KECCAK256 DUP2 PUSH1 0x40 MLOAD PUSH1 0x20 ADD PUSH2 0xC6E SWAP2 SWAP1 PUSH2 0x1CC1 JUMP JUMPDEST PUSH1 0x40 MLOAD PUSH1 0x20 DUP2 DUP4 SUB SUB DUP2 MSTORE SWAP1 PUSH1 0x40 MSTORE DUP1 MLOAD SWAP1 PUSH1 0x20 ADD KECCAK256 EQ JUMPDEST PUSH2 0xCC5 JUMPI PUSH1 0x40 MLOAD PUSH32 0x8C379A000000000000000000000000000000000000000000000000000000000 DUP2 MSTORE PUSH1 0x4 ADD PUSH2 0xCBC SWAP1 PUSH2 0x1D7F JUMP JUMPDEST PUSH1 0x40 MLOAD DUP1 SWAP2 SUB SWAP1 REVERT JUMPDEST DUP1 PUSH0 SWAP1 DUP2 PUSH2 0xCD3 SWAP2 SWAP1 PUSH2 0x1BC2 JUMP JUMPDEST POP POP JUMP JUMPDEST PUSH1 0x3 PUSH0 SWAP1 SLOAD SWAP1 PUSH2 0x100 EXP SWAP1 DIV PUSH20 0xFFFFFFFFFFFFFFFFFFFFFFFFFFFFFFFFFFFFFFFF AND PUSH20 0xFFFFFFFFFFFFFFFFFFFFFFFFFFFFFFFFFFFFFFFF AND CALLER PUSH20 0xFFFFFFFFFFFFFFFFFFFFFFFFFFFFFFFFFFFFFFFF AND EQ DUP1 PUSH2 0xD78 JUMPI POP PUSH1 0x2 PUSH0 CALLER PUSH20 0xFFFFFFFFFFFFFFFFFFFFFFFFFFFFFFFFFFFFFFFF AND PUSH20 0xFFFFFFFFFFFFFFFFFFFFFFFFFFFFFFFFFFFFFFFF AND DUP2 MSTORE PUSH1 0x20 ADD SWAP1 DUP2 MSTORE PUSH1 0x20 ADD PUSH0 KECCAK256 PUSH0 SWAP1 SLOAD SWAP1 PUSH2 0x100 EXP SWAP1 DIV PUSH1 0xFF AND JUMPDEST PUSH2 0xDB7 JUMPI PUSH1 0x40 MLOAD PUSH32 0x8C379A000000000000000000000000000000000000000000000000000000000 DUP2 MSTORE PUSH1 0x4 ADD PUSH2 0xDAE SWAP1 PUSH2 0x1A19 JUMP JUMPDEST PUSH1 0x40 MLOAD DUP1 SWAP2 SUB SWAP1 REVERT JUMPDEST DUP1 PUSH1 0x5 SWAP1 DUP2 PUSH2 0xDC6 SWAP2 SWAP1 PUSH2 0x1BC2 JUMP JUMPDEST POP POP JUMP JUMPDEST PUSH1 0x60 DUP1 PUSH0 JUMPDEST PUSH1 0x1 DUP1 SLOAD SWAP1 POP DUP2 LT ISZERO PUSH2 0xEA0 JUMPI DUP2 PUSH1 0x4 PUSH1 0x5 PUSH1 0x1 DUP5 DUP2 SLOAD DUP2 LT PUSH2 0xDF5 JUMPI PUSH2 0xDF4 PUSH2 0x1D9D JUMP JUMPDEST JUMPDEST SWAP1 PUSH0 MSTORE PUSH1 0x20 PUSH0 KECCAK256 SWAP1 PUSH1 0x5 MUL ADD PUSH0 ADD PUSH1 0x1 DUP6 DUP2 SLOAD DUP2 LT PUSH2 0xE17 JUMPI PUSH2 0xE16 PUSH2 0x1D9D JUMP JUMPDEST JUMPDEST SWAP1 PUSH0 MSTORE PUSH1 0x20 PUSH0 KECCAK256 SWAP1 PUSH1 0x5 MUL ADD PUSH1 0x4 ADD PUSH1 0x1 DUP7 DUP2 SLOAD DUP2 LT PUSH2 0xE3A JUMPI PUSH2 0xE39 PUSH2 0x1D9D JUMP JUMPDEST JUMPDEST SWAP1 PUSH0 MSTORE PUSH1 0x20 PUSH0 KECCAK256 SWAP1 PUSH1 0x5 MUL ADD PUSH1 0x1 ADD PUSH1 0x1 DUP8 DUP2 SLOAD DUP2 LT PUSH2 0xE5D JUMPI PUSH2 0xE5C PUSH2 0x1D9D JUMP JUMPDEST JUMPDEST SWAP1 PUSH0 MSTORE PUSH1 0x20 PUSH0 KECCAK256 SWAP1 PUSH1 0x5 MUL ADD PUSH1 0x3 ADD PUSH1 0x40 MLOAD PUSH1 0x20 ADD PUSH2 0xE82 SWAP8 SWAP7 SWAP6 SWAP5 SWAP4 SWAP3 SWAP2 SWAP1 PUSH2 0x25F0 JUMP JUMPDEST PUSH1 0x40 MLOAD PUSH1 0x20 DUP2 DUP4 SUB SUB DUP2 MSTORE SWAP1 PUSH1 0x40 MSTORE SWAP2 POP DUP1 DUP1 PUSH1 0x1 ADD SWAP2 POP POP PUSH2 0xDCF JUMP JUMPDEST POP DUP1 SWAP2 POP POP SWAP1 JUMP JUMPDEST PUSH1 0x1 DUP2 DUP2 SLOAD DUP2 LT PUSH2 0xEB7 JUMPI PUSH0 DUP1 REVERT JUMPDEST SWAP1 PUSH0 MSTORE PUSH1 0x20 PUSH0 KECCAK256 SWAP1 PUSH1 0x5 MUL ADD PUSH0 SWAP2 POP SWAP1 POP DUP1 PUSH0 ADD DUP1 SLOAD PUSH2 0xED6 SWAP1 PUSH2 0x188F JUMP JUMPDEST DUP1 PUSH1 0x1F ADD PUSH1 0x20 DUP1 SWAP2 DIV MUL PUSH1 0x20 ADD PUSH1 0x40 MLOAD SWAP1 DUP2 ADD PUSH1 0x40 MSTORE DUP1 SWAP3 SWAP2 SWAP1 DUP2 DUP2 MSTORE PUSH1 0x20 ADD DUP3 DUP1 SLOAD PUSH2 0xF02 SWAP1 PUSH2 0x188F JUMP JUMPDEST DUP1 ISZERO PUSH2 0xF4D JUMPI DUP1 PUSH1 0x1F LT PUSH2 0xF24 JUMPI PUSH2 0x100 DUP1 DUP4 SLOAD DIV MUL DUP4 MSTORE SWAP2 PUSH1 0x20 ADD SWAP2 PUSH2 0xF4D JUMP JUMPDEST DUP3 ADD SWAP2 SWAP1 PUSH0 MSTORE PUSH1 0x20 PUSH0 KECCAK256 SWAP1 JUMPDEST DUP2 SLOAD DUP2 MSTORE SWAP1 PUSH1 0x1 ADD SWAP1 PUSH1 0x20 ADD DUP1 DUP4 GT PUSH2 0xF30 JUMPI DUP3 SWAP1 SUB PUSH1 0x1F AND DUP3 ADD SWAP2 JUMPDEST POP POP POP POP POP SWAP1 DUP1 PUSH1 0x1 ADD DUP1 SLOAD PUSH2 0xF62 SWAP1 PUSH2 0x188F JUMP JUMPDEST DUP1 PUSH1 0x1F ADD PUSH1 0x20 DUP1 SWAP2 DIV MUL PUSH1 0x20 ADD PUSH1 0x40 MLOAD SWAP1 DUP2 ADD PUSH1 0x40 MSTORE DUP1 SWAP3 SWAP2 SWAP1 DUP2 DUP2 MSTORE PUSH1 0x20 ADD DUP3 DUP1 SLOAD PUSH2 0xF8E SWAP1 PUSH2 0x188F JUMP JUMPDEST DUP1 ISZERO PUSH2 0xFD9 JUMPI DUP1 PUSH1 0x1F LT PUSH2 0xFB0 JUMPI PUSH2 0x100 DUP1 DUP4 SLOAD DIV MUL DUP4 MSTORE SWAP2 PUSH1 0x20 ADD SWAP2 PUSH2 0xFD9 JUMP JUMPDEST DUP3 ADD SWAP2 SWAP1 PUSH0 MSTORE PUSH1 0x20 PUSH0 KECCAK256 SWAP1 JUMPDEST DUP2 SLOAD DUP2 MSTORE SWAP1 PUSH1 0x1 ADD SWAP1 PUSH1 0x20 ADD DUP1 DUP4 GT PUSH2 0xFBC JUMPI DUP3 SWAP1 SUB PUSH1 0x1F AND DUP3 ADD SWAP2 JUMPDEST POP POP POP POP POP SWAP1 DUP1 PUSH1 0x2 ADD DUP1 SLOAD PUSH2 0xFEE SWAP1 PUSH2 0x188F JUMP JUMPDEST DUP1 PUSH1 0x1F ADD PUSH1 0x20 DUP1 SWAP2 DIV MUL PUSH1 0x20 ADD PUSH1 0x40 MLOAD SWAP1 DUP2 ADD PUSH1 0x40 MSTORE DUP1 SWAP3 SWAP2 SWAP1 DUP2 DUP2 MSTORE PUSH1 0x20 ADD DUP3 DUP1 SLOAD PUSH2 0x101A SWAP1 PUSH2 0x188F JUMP JUMPDEST DUP1 ISZERO PUSH2 0x1065 JUMPI DUP1 PUSH1 0x1F LT PUSH2 0x103C JUMPI PUSH2 0x100 DUP1 DUP4 SLOAD DIV MUL DUP4 MSTORE SWAP2 PUSH1 0x20 ADD SWAP2 PUSH2 0x1065 JUMP JUMPDEST DUP3 ADD SWAP2 SWAP1 PUSH0 MSTORE PUSH1 0x20 PUSH0 KECCAK256 SWAP1 JUMPDEST DUP2 SLOAD DUP2 MSTORE SWAP1 PUSH1 0x1 ADD SWAP1 PUSH1 0x20 ADD DUP1 DUP4 GT PUSH2 0x1048 JUMPI DUP3 SWAP1 SUB PUSH1 0x1F AND DUP3 ADD SWAP2 JUMPDEST POP POP POP POP POP SWAP1 DUP1 PUSH1 0x3 ADD DUP1 SLOAD PUSH2 0x107A SWAP1 PUSH2 0x188F JUMP JUMPDEST DUP1 PUSH1 0x1F ADD PUSH1 0x20 DUP1 SWAP2 DIV MUL PUSH1 0x20 ADD PUSH1 0x40 MLOAD SWAP1 DUP2 ADD PUSH1 0x40 MSTORE DUP1 SWAP3 SWAP2 SWAP1 DUP2 DUP2 MSTORE PUSH1 0x20 ADD DUP3 DUP1 SLOAD PUSH2 0x10A6 SWAP1 PUSH2 0x188F JUMP JUMPDEST DUP1 ISZERO PUSH2 0x10F1 JUMPI DUP1 PUSH1 0x1F LT PUSH2 0x10C8 JUMPI PUSH2 0x100 DUP1 DUP4 SLOAD DIV MUL DUP4 MSTORE SWAP2 PUSH1 0x20 ADD SWAP2 PUSH2 0x10F1 JUMP JUMPDEST DUP3 ADD SWAP2 SWAP1 PUSH0 MSTORE PUSH1 0x20 PUSH0 KECCAK256 SWAP1 JUMPDEST DUP2 SLOAD DUP2 MSTORE SWAP1 PUSH1 0x1 ADD SWAP1 PUSH1 0x20 ADD DUP1 DUP4 GT PUSH2 0x10D4 JUMPI DUP3 SWAP1 SUB PUSH1 0x1F AND DUP3 ADD SWAP2 JUMPDEST POP POP POP POP POP SWAP1 DUP1 PUSH1 0x4 ADD DUP1 SLOAD PUSH2 0x1106 SWAP1 PUSH2 0x188F JUMP JUMPDEST DUP1 PUSH1 0x1F ADD PUSH1 0x20 DUP1 SWAP2 DIV MUL PUSH1 0x20 ADD PUSH1 0x40 MLOAD SWAP1 DUP2 ADD PUSH1 0x40 MSTORE DUP1 SWAP3 SWAP2 SWAP1 DUP2 DUP2 MSTORE PUSH1 0x20 ADD DUP3 DUP1 SLOAD PUSH2 0x1132 SWAP1 PUSH2 0x188F JUMP JUMPDEST DUP1 ISZERO PUSH2 0x117D JUMPI DUP1 PUSH1 0x1F LT PUSH2 0x1154 JUMPI PUSH2 0x100 DUP1 DUP4 SLOAD DIV MUL DUP4 MSTORE SWAP2 PUSH1 0x20 ADD SWAP2 PUSH2 0x117D JUMP JUMPDEST DUP3 ADD SWAP2 SWAP1 PUSH0 MSTORE PUSH1 0x20 PUSH0 KECCAK256 SWAP1 JUMPDEST DUP2 SLOAD DUP2 MSTORE SWAP1 PUSH1 0x1 ADD SWAP1 PUSH1 0x20 ADD DUP1 DUP4 GT PUSH2 0x1160 JUMPI DUP3 SWAP1 SUB PUSH1 0x1F AND DUP3 ADD SWAP2 JUMPDEST POP POP POP POP POP SWAP1 POP DUP6 JUMP JUMPDEST PUSH1 0x3 PUSH0 SWAP1 SLOAD SWAP1 PUSH2 0x100 EXP SWAP1 DIV PUSH20 0xFFFFFFFFFFFFFFFFFFFFFFFFFFFFFFFFFFFFFFFF AND PUSH20 0xFFFFFFFFFFFFFFFFFFFFFFFFFFFFFFFFFFFFFFFF AND CALLER PUSH20 0xFFFFFFFFFFFFFFFFFFFFFFFFFFFFFFFFFFFFFFFF AND EQ DUP1 PUSH2 0x1228 JUMPI POP PUSH1 0x2 PUSH0 CALLER PUSH20 0xFFFFFFFFFFFFFFFFFFFFFFFFFFFFFFFFFFFFFFFF AND PUSH20 0xFFFFFFFFFFFFFFFFFFFFFFFFFFFFFFFFFFFFFFFF AND DUP2 MSTORE PUSH1 0x20 ADD SWAP1 DUP2 MSTORE PUSH1 0x20 ADD PUSH0 KECCAK256 PUSH0 SWAP1 SLOAD SWAP1 PUSH2 0x100 EXP SWAP1 DIV PUSH1 0xFF AND JUMPDEST PUSH2 0x1267 JUMPI PUSH1 0x40 MLOAD PUSH32 0x8C379A000000000000000000000000000000000000000000000000000000000 DUP2 MSTORE PUSH1 0x4 ADD PUSH2 0x125E SWAP1 PUSH2 0x1A19 JUMP JUMPDEST PUSH1 0x40 MLOAD DUP1 SWAP2 SUB SWAP1 REVERT JUMPDEST DUP1 PUSH1 0x4 SWAP1 DUP2 PUSH2 0x1276 SWAP2 SWAP1 PUSH2 0x1BC2 JUMP JUMPDEST POP POP JUMP JUMPDEST PUSH1 0x60 PUSH0 DUP1 SLOAD PUSH2 0x1288 SWAP1 PUSH2 0x188F JUMP JUMPDEST DUP1 PUSH1 0x1F ADD PUSH1 0x20 DUP1 SWAP2 DIV MUL PUSH1 0x20 ADD PUSH1 0x40 MLOAD SWAP1 DUP2 ADD PUSH1 0x40 MSTORE DUP1 SWAP3 SWAP2 SWAP1 DUP2 DUP2 MSTORE PUSH1 0x20 ADD DUP3 DUP1 SLOAD PUSH2 0x12B4 SWAP1 PUSH2 0x188F JUMP JUMPDEST DUP1 ISZERO PUSH2 0x12FF JUMPI DUP1 PUSH1 0x1F LT PUSH2 0x12D6 JUMPI PUSH2 0x100 DUP1 DUP4 SLOAD DIV MUL DUP4 MSTORE SWAP2 PUSH1 0x20 ADD SWAP2 PUSH2 0x12FF JUMP JUMPDEST DUP3 ADD SWAP2 SWAP1 PUSH0 MSTORE PUSH1 0x20 PUSH0 KECCAK256 SWAP1 JUMPDEST DUP2 SLOAD DUP2 MSTORE SWAP1 PUSH1 0x1 ADD SWAP1 PUSH1 0x20 ADD DUP1 DUP4 GT PUSH2 0x12E2 JUMPI DUP3 SWAP1 SUB PUSH1 0x1F AND DUP3 ADD SWAP2 JUMPDEST POP POP POP POP POP SWAP1 POP SWAP1 JUMP JUMPDEST PUSH0 PUSH1 0x40 MLOAD SWAP1 POP SWAP1 JUMP JUMPDEST PUSH0 DUP1 REVERT JUMPDEST PUSH0 DUP1 REVERT JUMPDEST PUSH0 PUSH20 0xFFFFFFFFFFFFFFFFFFFFFFFFFFFFFFFFFFFFFFFF DUP3 AND SWAP1 POP SWAP2 SWAP1 POP JUMP JUMPDEST PUSH0 PUSH2 0x1343 DUP3 PUSH2 0x131A JUMP JUMPDEST SWAP1 POP SWAP2 SWAP1 POP JUMP JUMPDEST PUSH2 0x1353 DUP2 PUSH2 0x1339 JUMP JUMPDEST DUP2 EQ PUSH2 0x135D JUMPI PUSH0 DUP1 REVERT JUMPDEST POP JUMP JUMPDEST PUSH0 DUP2 CALLDATALOAD SWAP1 POP PUSH2 0x136E DUP2 PUSH2 0x134A JUMP JUMPDEST SWAP3 SWAP2 POP POP JUMP JUMPDEST PUSH0 PUSH1 0x20 DUP3 DUP5 SUB SLT ISZERO PUSH2 0x1389 JUMPI PUSH2 0x1388 PUSH2 0x1312 JUMP JUMPDEST JUMPDEST PUSH0 PUSH2 0x1396 DUP5 DUP3 DUP6 ADD PUSH2 0x1360 JUMP JUMPDEST SWAP2 POP POP SWAP3 SWAP2 POP POP JUMP JUMPDEST PUSH0 DUP2 MLOAD SWAP1 POP SWAP2 SWAP1 POP JUMP JUMPDEST PUSH0 DUP3 DUP3 MSTORE PUSH1 0x20 DUP3 ADD SWAP1 POP SWAP3 SWAP2 POP POP JUMP JUMPDEST DUP3 DUP2 DUP4 MCOPY PUSH0 DUP4 DUP4 ADD MSTORE POP POP POP JUMP JUMPDEST PUSH0 PUSH1 0x1F NOT PUSH1 0x1F DUP4 ADD AND SWAP1 POP SWAP2 SWAP1 POP JUMP JUMPDEST PUSH0 PUSH2 0x13E1 DUP3 PUSH2 0x139F JUMP JUMPDEST PUSH2 0x13EB DUP2 DUP6 PUSH2 0x13A9 JUMP JUMPDEST SWAP4 POP PUSH2 0x13FB DUP2 DUP6 PUSH1 0x20 DUP7 ADD PUSH2 0x13B9 JUMP JUMPDEST PUSH2 0x1404 DUP2 PUSH2 0x13C7 JUMP JUMPDEST DUP5 ADD SWAP2 POP POP SWAP3 SWAP2 POP POP JUMP JUMPDEST PUSH0 PUSH1 0x20 DUP3 ADD SWAP1 POP DUP2 DUP2 SUB PUSH0 DUP4 ADD MSTORE PUSH2 0x1427 DUP2 DUP5 PUSH2 0x13D7 JUMP JUMPDEST SWAP1 POP SWAP3 SWAP2 POP POP JUMP JUMPDEST PUSH0 DUP2 SWAP1 POP SWAP2 SWAP1 POP JUMP JUMPDEST PUSH2 0x1441 DUP2 PUSH2 0x142F JUMP JUMPDEST DUP3 MSTORE POP POP JUMP JUMPDEST PUSH0 PUSH1 0x20 DUP3 ADD SWAP1 POP PUSH2 0x145A PUSH0 DUP4 ADD DUP5 PUSH2 0x1438 JUMP JUMPDEST SWAP3 SWAP2 POP POP JUMP JUMPDEST PUSH0 DUP1 REVERT JUMPDEST PUSH0 DUP1 REVERT JUMPDEST PUSH32 0x4E487B7100000000000000000000000000000000000000000000000000000000 PUSH0 MSTORE PUSH1 0x41 PUSH1 0x4 MSTORE PUSH1 0x24 PUSH0 REVERT JUMPDEST PUSH2 0x149E DUP3 PUSH2 0x13C7 JUMP JUMPDEST DUP2 ADD DUP2 DUP2 LT PUSH8 0xFFFFFFFFFFFFFFFF DUP3 GT OR ISZERO PUSH2 0x14BD JUMPI PUSH2 0x14BC PUSH2 0x1468 JUMP JUMPDEST JUMPDEST DUP1 PUSH1 0x40 MSTORE POP POP POP JUMP JUMPDEST PUSH0 PUSH2 0x14CF PUSH2 0x1309 JUMP JUMPDEST SWAP1 POP PUSH2 0x14DB DUP3 DUP3 PUSH2 0x1495 JUMP JUMPDEST SWAP2 SWAP1 POP JUMP JUMPDEST PUSH0 PUSH8 0xFFFFFFFFFFFFFFFF DUP3 GT ISZERO PUSH2 0x14FA JUMPI PUSH2 0x14F9 PUSH2 0x1468 JUMP JUMPDEST JUMPDEST PUSH2 0x1503 DUP3 PUSH2 0x13C7 JUMP JUMPDEST SWAP1 POP PUSH1 0x20 DUP2 ADD SWAP1 POP SWAP2 SWAP1 POP JUMP JUMPDEST DUP3 DUP2 DUP4 CALLDATACOPY PUSH0 DUP4 DUP4 ADD MSTORE POP POP POP JUMP JUMPDEST PUSH0 PUSH2 0x1530 PUSH2 0x152B DUP5 PUSH2 0x14E0 JUMP JUMPDEST PUSH2 0x14C6 JUMP JUMPDEST SWAP1 POP DUP3 DUP2 MSTORE PUSH1 0x20 DUP2 ADD DUP5 DUP5 DUP5 ADD GT ISZERO PUSH2 0x154C JUMPI PUSH2 0x154B PUSH2 0x1464 JUMP JUMPDEST JUMPDEST PUSH2 0x1557 DUP5 DUP3 DUP6 PUSH2 0x1510 JUMP JUMPDEST POP SWAP4 SWAP3 POP POP POP JUMP JUMPDEST PUSH0 DUP3 PUSH1 0x1F DUP4 ADD SLT PUSH2 0x1573 JUMPI PUSH2 0x1572 PUSH2 0x1460 JUMP JUMPDEST JUMPDEST DUP2 CALLDATALOAD PUSH2 0x1583 DUP5 DUP3 PUSH1 0x20 DUP7 ADD PUSH2 0x151E JUMP JUMPDEST SWAP2 POP POP SWAP3 SWAP2 POP POP JUMP JUMPDEST PUSH0 PUSH1 0x20 DUP3 DUP5 SUB SLT ISZERO PUSH2 0x15A1 JUMPI PUSH2 0x15A0 PUSH2 0x1312 JUMP JUMPDEST JUMPDEST PUSH0 DUP3 ADD CALLDATALOAD PUSH8 0xFFFFFFFFFFFFFFFF DUP2 GT ISZERO PUSH2 0x15BE JUMPI PUSH2 0x15BD PUSH2 0x1316 JUMP JUMPDEST JUMPDEST PUSH2 0x15CA DUP5 DUP3 DUP6 ADD PUSH2 0x155F JUMP JUMPDEST SWAP2 POP POP SWAP3 SWAP2 POP POP JUMP JUMPDEST PUSH0 DUP1 PUSH0 DUP1 PUSH0 PUSH1 0xA0 DUP7 DUP9 SUB SLT ISZERO PUSH2 0x15EC JUMPI PUSH2 0x15EB PUSH2 0x1312 JUMP JUMPDEST JUMPDEST PUSH0 DUP7 ADD CALLDATALOAD PUSH8 0xFFFFFFFFFFFFFFFF DUP2 GT ISZERO PUSH2 0x1609 JUMPI PUSH2 0x1608 PUSH2 0x1316 JUMP JUMPDEST JUMPDEST PUSH2 0x1615 DUP9 DUP3 DUP10 ADD PUSH2 0x155F JUMP JUMPDEST SWAP6 POP POP PUSH1 0x20 DUP7 ADD CALLDATALOAD PUSH8 0xFFFFFFFFFFFFFFFF DUP2 GT ISZERO PUSH2 0x1636 JUMPI PUSH2 0x1635 PUSH2 0x1316 JUMP JUMPDEST JUMPDEST PUSH2 0x1642 DUP9 DUP3 DUP10 ADD PUSH2 0x155F JUMP JUMPDEST SWAP5 POP POP PUSH1 0x40 DUP7 ADD CALLDATALOAD PUSH8 0xFFFFFFFFFFFFFFFF DUP2 GT ISZERO PUSH2 0x1663 JUMPI PUSH2 0x1662 PUSH2 0x1316 JUMP JUMPDEST JUMPDEST PUSH2 0x166F DUP9 DUP3 DUP10 ADD PUSH2 0x155F JUMP JUMPDEST SWAP4 POP POP PUSH1 0x60 DUP7 ADD CALLDATALOAD PUSH8 0xFFFFFFFFFFFFFFFF DUP2 GT ISZERO PUSH2 0x1690 JUMPI PUSH2 0x168F PUSH2 0x1316 JUMP JUMPDEST JUMPDEST PUSH2 0x169C DUP9 DUP3 DUP10 ADD PUSH2 0x155F JUMP JUMPDEST SWAP3 POP POP PUSH1 0x80 DUP7 ADD CALLDATALOAD PUSH8 0xFFFFFFFFFFFFFFFF DUP2 GT ISZERO PUSH2 0x16BD JUMPI PUSH2 0x16BC PUSH2 0x1316 JUMP JUMPDEST JUMPDEST PUSH2 0x16C9 DUP9 DUP3 DUP10 ADD PUSH2 0x155F JUMP JUMPDEST SWAP2 POP POP SWAP3 SWAP6 POP SWAP3 SWAP6 SWAP1 SWAP4 POP JUMP JUMPDEST PUSH0 DUP2 ISZERO ISZERO SWAP1 POP SWAP2 SWAP1 POP JUMP JUMPDEST PUSH2 0x16EA DUP2 PUSH2 0x16D6 JUMP JUMPDEST DUP3 MSTORE POP POP JUMP JUMPDEST PUSH0 PUSH1 0x20 DUP3 ADD SWAP1 POP PUSH2 0x1703 PUSH0 DUP4 ADD DUP5 PUSH2 0x16E1 JUMP JUMPDEST SWAP3 SWAP2 POP POP JUMP JUMPDEST PUSH2 0x1712 DUP2 PUSH2 0x1339 JUMP JUMPDEST DUP3 MSTORE POP POP JUMP JUMPDEST PUSH0 PUSH1 0x20 DUP3 ADD SWAP1 POP PUSH2 0x172B PUSH0 DUP4 ADD DUP5 PUSH2 0x1709 JUMP JUMPDEST SWAP3 SWAP2 POP POP JUMP JUMPDEST PUSH2 0x173A DUP2 PUSH2 0x142F JUMP JUMPDEST DUP2 EQ PUSH2 0x1744 JUMPI PUSH0 DUP1 REVERT JUMPDEST POP JUMP JUMPDEST PUSH0 DUP2 CALLDATALOAD SWAP1 POP PUSH2 0x1755 DUP2 PUSH2 0x1731 JUMP JUMPDEST SWAP3 SWAP2 POP POP JUMP JUMPDEST PUSH0 PUSH1 0x20 DUP3 DUP5 SUB SLT ISZERO PUSH2 0x1770 JUMPI PUSH2 0x176F PUSH2 0x1312 JUMP JUMPDEST JUMPDEST PUSH0 PUSH2 0x177D DUP5 DUP3 DUP6 ADD PUSH2 0x1747 JUMP JUMPDEST SWAP2 POP POP SWAP3 SWAP2 POP POP JUMP JUMPDEST PUSH0 PUSH1 0xA0 DUP3 ADD SWAP1 POP DUP2 DUP2 SUB PUSH0 DUP4 ADD MSTORE PUSH2 0x179E DUP2 DUP9 PUSH2 0x13D7 JUMP JUMPDEST SWAP1 POP DUP2 DUP2 SUB PUSH1 0x20 DUP4 ADD MSTORE PUSH2 0x17B2 DUP2 DUP8 PUSH2 0x13D7 JUMP JUMPDEST SWAP1 POP DUP2 DUP2 SUB PUSH1 0x40 DUP4 ADD MSTORE PUSH2 0x17C6 DUP2 DUP7 PUSH2 0x13D7 JUMP JUMPDEST SWAP1 POP DUP2 DUP2 SUB PUSH1 0x60 DUP4 ADD MSTORE PUSH2 0x17DA DUP2 DUP6 PUSH2 0x13D7 JUMP JUMPDEST SWAP1 POP DUP2 DUP2 SUB PUSH1 0x80 DUP4 ADD MSTORE PUSH2 0x17EE DUP2 DUP5 PUSH2 0x13D7 JUMP JUMPDEST SWAP1 POP SWAP7 SWAP6 POP POP POP POP POP POP JUMP JUMPDEST PUSH32 0x4E6F7420746865206F776E657200000000000000000000000000000000000000 PUSH0 DUP3 ADD MSTORE POP JUMP JUMPDEST PUSH0 PUSH2 0x182E PUSH1 0xD DUP4 PUSH2 0x13A9 JUMP JUMPDEST SWAP2 POP PUSH2 0x1839 DUP3 PUSH2 0x17FA JUMP JUMPDEST PUSH1 0x20 DUP3 ADD SWAP1 POP SWAP2 SWAP1 POP JUMP JUMPDEST PUSH0 PUSH1 0x20 DUP3 ADD SWAP1 POP DUP2 DUP2 SUB PUSH0 DUP4 ADD MSTORE PUSH2 0x185B DUP2 PUSH2 0x1822 JUMP JUMPDEST SWAP1 POP SWAP2 SWAP1 POP JUMP JUMPDEST PUSH32 0x4E487B7100000000000000000000000000000000000000000000000000000000 PUSH0 MSTORE PUSH1 0x22 PUSH1 0x4 MSTORE PUSH1 0x24 PUSH0 REVERT JUMPDEST PUSH0 PUSH1 0x2 DUP3 DIV SWAP1 POP PUSH1 0x1 DUP3 AND DUP1 PUSH2 0x18A6 JUMPI PUSH1 0x7F DUP3 AND SWAP2 POP JUMPDEST PUSH1 0x20 DUP3 LT DUP2 SUB PUSH2 0x18B9 JUMPI PUSH2 0x18B8 PUSH2 0x1862 JUMP JUMPDEST JUMPDEST POP SWAP2 SWAP1 POP JUMP JUMPDEST PUSH0 DUP2 SWAP1 POP SWAP3 SWAP2 POP POP JUMP JUMPDEST PUSH32 0x3000000000000000000000000000000000000000000000000000000000000000 PUSH0 DUP3 ADD MSTORE POP JUMP JUMPDEST PUSH0 PUSH2 0x18FD PUSH1 0x1 DUP4 PUSH2 0x18BF JUMP JUMPDEST SWAP2 POP PUSH2 0x1908 DUP3 PUSH2 0x18C9 JUMP JUMPDEST PUSH1 0x1 DUP3 ADD SWAP1 POP SWAP2 SWAP1 POP JUMP JUMPDEST PUSH0 PUSH2 0x191D DUP3 PUSH2 0x18F1 JUMP JUMPDEST SWAP2 POP DUP2 SWAP1 POP SWAP2 SWAP1 POP JUMP JUMPDEST PUSH0 DUP2 SWAP1 POP DUP2 PUSH0 MSTORE PUSH1 0x20 PUSH0 KECCAK256 SWAP1 POP SWAP2 SWAP1 POP JUMP JUMPDEST PUSH0 DUP2 SLOAD PUSH2 0x1945 DUP2 PUSH2 0x188F JUMP JUMPDEST PUSH2 0x194F DUP2 DUP7 PUSH2 0x18BF JUMP JUMPDEST SWAP5 POP PUSH1 0x1 DUP3 AND PUSH0 DUP2 EQ PUSH2 0x1969 JUMPI PUSH1 0x1 DUP2 EQ PUSH2 0x197E JUMPI PUSH2 0x19B0 JUMP JUMPDEST PUSH1 0xFF NOT DUP4 AND DUP7 MSTORE DUP2 ISZERO ISZERO DUP3 MUL DUP7 ADD SWAP4 POP PUSH2 0x19B0 JUMP JUMPDEST PUSH2 0x1987 DUP6 PUSH2 0x1927 JUMP JUMPDEST PUSH0 JUMPDEST DUP4 DUP2 LT ISZERO PUSH2 0x19A8 JUMPI DUP2 SLOAD DUP2 DUP10 ADD MSTORE PUSH1 0x1 DUP3 ADD SWAP2 POP PUSH1 0x20 DUP2 ADD SWAP1 POP PUSH2 0x1989 JUMP JUMPDEST DUP4 DUP9 ADD SWAP6 POP POP POP JUMPDEST POP POP POP SWAP3 SWAP2 POP POP JUMP JUMPDEST PUSH0 PUSH2 0x19C4 DUP3 DUP5 PUSH2 0x1939 JUMP JUMPDEST SWAP2 POP DUP2 SWAP1 POP SWAP3 SWAP2 POP POP JUMP JUMPDEST PUSH32 0x4E6F7420617574686F72697A6564000000000000000000000000000000000000 PUSH0 DUP3 ADD MSTORE POP JUMP JUMPDEST PUSH0 PUSH2 0x1A03 PUSH1 0xE DUP4 PUSH2 0x13A9 JUMP JUMPDEST SWAP2 POP PUSH2 0x1A0E DUP3 PUSH2 0x19CF JUMP JUMPDEST PUSH1 0x20 DUP3 ADD SWAP1 POP SWAP2 SWAP1 POP JUMP JUMPDEST PUSH0 PUSH1 0x20 DUP3 ADD SWAP1 POP DUP2 DUP2 SUB PUSH0 DUP4 ADD MSTORE PUSH2 0x1A30 DUP2 PUSH2 0x19F7 JUMP JUMPDEST SWAP1 POP SWAP2 SWAP1 POP JUMP JUMPDEST PUSH0 PUSH1 0x20 PUSH1 0x1F DUP4 ADD DIV SWAP1 POP SWAP2 SWAP1 POP JUMP JUMPDEST PUSH0 DUP3 DUP3 SHL SWAP1 POP SWAP3 SWAP2 POP POP JUMP JUMPDEST PUSH0 PUSH1 0x8 DUP4 MUL PUSH2 0x1A81 PUSH32 0xFFFFFFFFFFFFFFFFFFFFFFFFFFFFFFFFFFFFFFFFFFFFFFFFFFFFFFFFFFFFFFFF DUP3 PUSH2 0x1A46 JUMP JUMPDEST PUSH2 0x1A8B DUP7 DUP4 PUSH2 0x1A46 JUMP JUMPDEST SWAP6 POP DUP1 NOT DUP5 AND SWAP4 POP DUP1 DUP7 AND DUP5 OR SWAP3 POP POP POP SWAP4 SWAP3 POP POP POP JUMP JUMPDEST PUSH0 DUP2 SWAP1 POP SWAP2 SWAP1 POP JUMP JUMPDEST PUSH0 PUSH2 0x1AC6 PUSH2 0x1AC1 PUSH2 0x1ABC DUP5 PUSH2 0x142F JUMP JUMPDEST PUSH2 0x1AA3 JUMP JUMPDEST PUSH2 0x142F JUMP JUMPDEST SWAP1 POP SWAP2 SWAP1 POP JUMP JUMPDEST PUSH0 DUP2 SWAP1 POP SWAP2 SWAP1 POP JUMP JUMPDEST PUSH2 0x1ADF DUP4 PUSH2 0x1AAC JUMP JUMPDEST PUSH2 0x1AF3 PUSH2 0x1AEB DUP3 PUSH2 0x1ACD JUMP JUMPDEST DUP5 DUP5 SLOAD PUSH2 0x1A52 JUMP JUMPDEST DUP3 SSTORE POP POP POP POP JUMP JUMPDEST PUSH0 SWAP1 JUMP JUMPDEST PUSH2 0x1B07 PUSH2 0x1AFB JUMP JUMPDEST PUSH2 0x1B12 DUP2 DUP5 DUP5 PUSH2 0x1AD6 JUMP JUMPDEST POP POP POP JUMP JUMPDEST JUMPDEST DUP2 DUP2 LT ISZERO PUSH2 0x1B35 JUMPI PUSH2 0x1B2A PUSH0 DUP3 PUSH2 0x1AFF JUMP JUMPDEST PUSH1 0x1 DUP2 ADD SWAP1 POP PUSH2 0x1B18 JUMP JUMPDEST POP POP JUMP JUMPDEST PUSH1 0x1F DUP3 GT ISZERO PUSH2 0x1B7A JUMPI PUSH2 0x1B4B DUP2 PUSH2 0x1927 JUMP JUMPDEST PUSH2 0x1B54 DUP5 PUSH2 0x1A37 JUMP JUMPDEST DUP2 ADD PUSH1 0x20 DUP6 LT ISZERO PUSH2 0x1B63 JUMPI DUP2 SWAP1 POP JUMPDEST PUSH2 0x1B77 PUSH2 0x1B6F DUP6 PUSH2 0x1A37 JUMP JUMPDEST DUP4 ADD DUP3 PUSH2 0x1B17 JUMP JUMPDEST POP POP JUMPDEST POP POP POP JUMP JUMPDEST PUSH0 DUP3 DUP3 SHR SWAP1 POP SWAP3 SWAP2 POP POP JUMP JUMPDEST PUSH0 PUSH2 0x1B9A PUSH0 NOT DUP5 PUSH1 0x8 MUL PUSH2 0x1B7F JUMP JUMPDEST NOT DUP1 DUP4 AND SWAP2 POP POP SWAP3 SWAP2 POP POP JUMP JUMPDEST PUSH0 PUSH2 0x1BB2 DUP4 DUP4 PUSH2 0x1B8B JUMP JUMPDEST SWAP2 POP DUP3 PUSH1 0x2 MUL DUP3 OR SWAP1 POP SWAP3 SWAP2 POP POP JUMP JUMPDEST PUSH2 0x1BCB DUP3 PUSH2 0x139F JUMP JUMPDEST PUSH8 0xFFFFFFFFFFFFFFFF DUP2 GT ISZERO PUSH2 0x1BE4 JUMPI PUSH2 0x1BE3 PUSH2 0x1468 JUMP JUMPDEST JUMPDEST PUSH2 0x1BEE DUP3 SLOAD PUSH2 0x188F JUMP JUMPDEST PUSH2 0x1BF9 DUP3 DUP3 DUP6 PUSH2 0x1B39 JUMP JUMPDEST PUSH0 PUSH1 0x20 SWAP1 POP PUSH1 0x1F DUP4 GT PUSH1 0x1 DUP2 EQ PUSH2 0x1C2A JUMPI PUSH0 DUP5 ISZERO PUSH2 0x1C18 JUMPI DUP3 DUP8 ADD MLOAD SWAP1 POP JUMPDEST PUSH2 0x1C22 DUP6 DUP3 PUSH2 0x1BA7 JUMP JUMPDEST DUP7 SSTORE POP PUSH2 0x1C89 JUMP JUMPDEST PUSH1 0x1F NOT DUP5 AND PUSH2 0x1C38 DUP7 PUSH2 0x1927 JUMP JUMPDEST PUSH0 JUMPDEST DUP3 DUP2 LT ISZERO PUSH2 0x1C5F JUMPI DUP5 DUP10 ADD MLOAD DUP3 SSTORE PUSH1 0x1 DUP3 ADD SWAP2 POP PUSH1 0x20 DUP6 ADD SWAP5 POP PUSH1 0x20 DUP2 ADD SWAP1 POP PUSH2 0x1C3A JUMP JUMPDEST DUP7 DUP4 LT ISZERO PUSH2 0x1C7C JUMPI DUP5 DUP10 ADD MLOAD PUSH2 0x1C78 PUSH1 0x1F DUP10 AND DUP3 PUSH2 0x1B8B JUMP JUMPDEST DUP4 SSTORE POP JUMPDEST PUSH1 0x1 PUSH1 0x2 DUP9 MUL ADD DUP9 SSTORE POP POP POP JUMPDEST POP POP POP POP POP POP JUMP JUMPDEST PUSH0 PUSH2 0x1C9B DUP3 PUSH2 0x139F JUMP JUMPDEST PUSH2 0x1CA5 DUP2 DUP6 PUSH2 0x18BF JUMP JUMPDEST SWAP4 POP PUSH2 0x1CB5 DUP2 DUP6 PUSH1 0x20 DUP7 ADD PUSH2 0x13B9 JUMP JUMPDEST DUP1 DUP5 ADD SWAP2 POP POP SWAP3 SWAP2 POP POP JUMP JUMPDEST PUSH0 PUSH2 0x1CCC DUP3 DUP5 PUSH2 0x1C91 JUMP JUMPDEST SWAP2 POP DUP2 SWAP1 POP SWAP3 SWAP2 POP POP JUMP JUMPDEST PUSH32 0x3100000000000000000000000000000000000000000000000000000000000000 PUSH0 DUP3 ADD MSTORE POP JUMP JUMPDEST PUSH0 PUSH2 0x1D0B PUSH1 0x1 DUP4 PUSH2 0x18BF JUMP JUMPDEST SWAP2 POP PUSH2 0x1D16 DUP3 PUSH2 0x1CD7 JUMP JUMPDEST PUSH1 0x1 DUP3 ADD SWAP1 POP SWAP2 SWAP1 POP JUMP JUMPDEST PUSH0 PUSH2 0x1D2B DUP3 PUSH2 0x1CFF JUMP JUMPDEST SWAP2 POP DUP2 SWAP1 POP SWAP2 SWAP1 POP JUMP JUMPDEST PUSH32 0x4D6F6465206D75737420626520273027206F7220273127000000000000000000 PUSH0 DUP3 ADD MSTORE POP JUMP JUMPDEST PUSH0 PUSH2 0x1D69 PUSH1 0x17 DUP4 PUSH2 0x13A9 JUMP JUMPDEST SWAP2 POP PUSH2 0x1D74 DUP3 PUSH2 0x1D35 JUMP JUMPDEST PUSH1 0x20 DUP3 ADD SWAP1 POP SWAP2 SWAP1 POP JUMP JUMPDEST PUSH0 PUSH1 0x20 DUP3 ADD SWAP1 POP DUP2 DUP2 SUB PUSH0 DUP4 ADD MSTORE PUSH2 0x1D96 DUP2 PUSH2 0x1D5D JUMP JUMPDEST SWAP1 POP SWAP2 SWAP1 POP JUMP JUMPDEST PUSH32 0x4E487B7100000000000000000000000000000000000000000000000000000000 PUSH0 MSTORE PUSH1 0x32 PUSH1 0x4 MSTORE PUSH1 0x24 PUSH0 REVERT JUMPDEST PUSH32 0x3C747220636C6173733D227461626C652D726F77206C696768742D6267206C69 PUSH0 DUP3 ADD MSTORE PUSH32 0x6768742D626F72646572206C696768742D74657874223E000000000000000000 PUSH1 0x20 DUP3 ADD MSTORE POP JUMP JUMPDEST PUSH0 PUSH2 0x1E24 PUSH1 0x37 DUP4 PUSH2 0x18BF JUMP JUMPDEST SWAP2 POP PUSH2 0x1E2F DUP3 PUSH2 0x1DCA JUMP JUMPDEST PUSH1 0x37 DUP3 ADD SWAP1 POP SWAP2 SWAP1 POP JUMP JUMPDEST PUSH32 0x3C746420636C6173733D226C696768742D6267222077696474683D2233302522 PUSH0 DUP3 ADD MSTORE PUSH32 0x20616C69676E3D2263656E746572223E00000000000000000000000000000000 PUSH1 0x20 DUP3 ADD MSTORE POP JUMP JUMPDEST PUSH0 PUSH2 0x1E94 PUSH1 0x30 DUP4 PUSH2 0x18BF JUMP JUMPDEST SWAP2 POP PUSH2 0x1E9F DUP3 PUSH2 0x1E3A JUMP JUMPDEST PUSH1 0x30 DUP3 ADD SWAP1 POP SWAP2 SWAP1 POP JUMP JUMPDEST PUSH32 0x3C666F6E7420636C6173733D22736D616C6C5F74657874223E00000000000000 PUSH0 DUP3 ADD MSTORE POP JUMP JUMPDEST PUSH0 PUSH2 0x1EDE PUSH1 0x19 DUP4 PUSH2 0x18BF JUMP JUMPDEST SWAP2 POP PUSH2 0x1EE9 DUP3 PUSH2 0x1EAA JUMP JUMPDEST PUSH1 0x19 DUP3 ADD SWAP1 POP SWAP2 SWAP1 POP JUMP JUMPDEST PUSH32 0x3C6120636C6173733D226C696768742D6C696E6B22207461726765743D225F62 PUSH0 DUP3 ADD MSTORE PUSH32 0x6C616E6B2220687265663D220000000000000000000000000000000000000000 PUSH1 0x20 DUP3 ADD MSTORE POP JUMP JUMPDEST PUSH0 PUSH2 0x1F4E PUSH1 0x2C DUP4 PUSH2 0x18BF JUMP JUMPDEST SWAP2 POP PUSH2 0x1F59 DUP3 PUSH2 0x1EF4 JUMP JUMPDEST PUSH1 0x2C DUP3 ADD SWAP1 POP SWAP2 SWAP1 POP JUMP JUMPDEST PUSH32 0x223E546A6F3C2F613E0000000000000000000000000000000000000000000000 PUSH0 DUP3 ADD MSTORE POP JUMP JUMPDEST PUSH0 PUSH2 0x1F98 PUSH1 0x9 DUP4 PUSH2 0x18BF JUMP JUMPDEST SWAP2 POP PUSH2 0x1FA3 DUP3 PUSH2 0x1F64 JUMP JUMPDEST PUSH1 0x9 DUP3 ADD SWAP1 POP SWAP2 SWAP1 POP JUMP JUMPDEST PUSH32 0x3C666F6E743E3C2F666F6E743E3C2F666F6E743E3C2F74643E00000000000000 PUSH0 DUP3 ADD MSTORE POP JUMP JUMPDEST PUSH0 PUSH2 0x1FE2 PUSH1 0x19 DUP4 PUSH2 0x18BF JUMP JUMPDEST SWAP2 POP PUSH2 0x1FED DUP3 PUSH2 0x1FAE JUMP JUMPDEST PUSH1 0x19 DUP3 ADD SWAP1 POP SWAP2 SWAP1 POP JUMP JUMPDEST PUSH32 0x3C746420616C69676E3D227269676874222077696474683D223730252220636C PUSH0 DUP3 ADD MSTORE PUSH32 0x6173733D226C696768742D6267206C696768742D6C696E6B223E000000000000 PUSH1 0x20 DUP3 ADD MSTORE POP JUMP JUMPDEST PUSH0 PUSH2 0x2052 PUSH1 0x3A DUP4 PUSH2 0x18BF JUMP JUMPDEST SWAP2 POP PUSH2 0x205D DUP3 PUSH2 0x1FF8 JUMP JUMPDEST PUSH1 0x3A DUP3 ADD SWAP1 POP SWAP2 SWAP1 POP JUMP JUMPDEST PUSH32 0x3C64697620636C6173733D22706F7374496E666F206465736B746F70223E0000 PUSH0 DUP3 ADD MSTORE POP JUMP JUMPDEST PUSH0 PUSH2 0x209C PUSH1 0x1E DUP4 PUSH2 0x18BF JUMP JUMPDEST SWAP2 POP PUSH2 0x20A7 DUP3 PUSH2 0x2068 JUMP JUMPDEST PUSH1 0x1E DUP3 ADD SWAP1 POP SWAP2 SWAP1 POP JUMP JUMPDEST PUSH32 0x3C7370616E20636C6173733D22706F73744E756D206465736B746F70223E0000 PUSH0 DUP3 ADD MSTORE POP JUMP JUMPDEST PUSH0 PUSH2 0x20E6 PUSH1 0x1E DUP4 PUSH2 0x18BF JUMP JUMPDEST SWAP2 POP PUSH2 0x20F1 DUP3 PUSH2 0x20B2 JUMP JUMPDEST PUSH1 0x1E DUP3 ADD SWAP1 POP SWAP2 SWAP1 POP JUMP JUMPDEST PUSH32 0x3C6120636C6173733D226C696768742D6C696E6B22207374796C653D22666F6E PUSH0 DUP3 ADD MSTORE PUSH32 0x742D73697A653A313270783B2220687265663D22000000000000000000000000 PUSH1 0x20 DUP3 ADD MSTORE POP JUMP JUMPDEST PUSH0 PUSH2 0x2156 PUSH1 0x34 DUP4 PUSH2 0x18BF JUMP JUMPDEST SWAP2 POP PUSH2 0x2161 DUP3 PUSH2 0x20FC JUMP JUMPDEST PUSH1 0x34 DUP3 ADD SWAP1 POP SWAP2 SWAP1 POP JUMP JUMPDEST PUSH32 0x22207461726765743D225F626C616E6B22207469746C653D224C696E6B20746F PUSH0 DUP3 ADD MSTORE PUSH32 0x2074686973207472616E73616374696F6E223E00000000000000000000000000 PUSH1 0x20 DUP3 ADD MSTORE POP JUMP JUMPDEST PUSH0 PUSH2 0x21C6 PUSH1 0x33 DUP4 PUSH2 0x18BF JUMP JUMPDEST SWAP2 POP PUSH2 0x21D1 DUP3 PUSH2 0x216C JUMP JUMPDEST PUSH1 0x33 DUP3 ADD SWAP1 POP SWAP2 SWAP1 POP JUMP JUMPDEST PUSH32 0x3C2F613E3C2F7370616E3E3C2F6469763E3C2F74643E3C2F74723E0000000000 PUSH0 DUP3 ADD MSTORE POP JUMP JUMPDEST PUSH0 PUSH2 0x2210 PUSH1 0x1B DUP4 PUSH2 0x18BF JUMP JUMPDEST SWAP2 POP PUSH2 0x221B DUP3 PUSH2 0x21DC JUMP JUMPDEST PUSH1 0x1B DUP3 ADD SWAP1 POP SWAP2 SWAP1 POP JUMP JUMPDEST PUSH32 0x3C74723E3C74642076616C69676E3D226D6964646C652220616C69676E3D226C PUSH0 DUP3 ADD MSTORE PUSH32 0x6566742220636C6173733D226C696768742D6267223E00000000000000000000 PUSH1 0x20 DUP3 ADD MSTORE POP JUMP JUMPDEST PUSH0 PUSH2 0x2280 PUSH1 0x36 DUP4 PUSH2 0x18BF JUMP JUMPDEST SWAP2 POP PUSH2 0x228B DUP3 PUSH2 0x2226 JUMP JUMPDEST PUSH1 0x36 DUP3 ADD SWAP1 POP SWAP2 SWAP1 POP JUMP JUMPDEST PUSH32 0x3C756C20616C69676E3D226C65667422207374796C653D2270616464696E672D PUSH0 DUP3 ADD MSTORE PUSH32 0x6C6566743A20313570783B666F6E742D73697A653A20313070783B223E000000 PUSH1 0x20 DUP3 ADD MSTORE POP JUMP JUMPDEST PUSH0 PUSH2 0x22F0 PUSH1 0x3D DUP4 PUSH2 0x18BF JUMP JUMPDEST SWAP2 POP PUSH2 0x22FB DUP3 PUSH2 0x2296 JUMP JUMPDEST PUSH1 0x3D DUP3 ADD SWAP1 POP SWAP2 SWAP1 POP JUMP JUMPDEST PUSH32 0x3C6C6920636C6173733D226C696768742D746578742D33223E426C6F636B3A20 PUSH0 DUP3 ADD MSTORE POP JUMP JUMPDEST PUSH0 PUSH2 0x233A PUSH1 0x20 DUP4 PUSH2 0x18BF JUMP JUMPDEST SWAP2 POP PUSH2 0x2345 DUP3 PUSH2 0x2306 JUMP JUMPDEST PUSH1 0x20 DUP3 ADD SWAP1 POP SWAP2 SWAP1 POP JUMP JUMPDEST PUSH32 0x3C2F6C693E3C6C6920636C6173733D226C696768742D746578742D33223E4C6F PUSH0 DUP3 ADD MSTORE PUSH32 0x636174696F6E3A20554E4B4E4F574E3C2F6C693E3C2F756C3E3C2F74643E0000 PUSH1 0x20 DUP3 ADD MSTORE POP JUMP JUMPDEST PUSH0 PUSH2 0x23AA PUSH1 0x3E DUP4 PUSH2 0x18BF JUMP JUMPDEST SWAP2 POP PUSH2 0x23B5 DUP3 PUSH2 0x2350 JUMP JUMPDEST PUSH1 0x3E DUP3 ADD SWAP1 POP SWAP2 SWAP1 POP JUMP JUMPDEST PUSH32 0x3C746420616C69676E3D2263656E746572222076616C69676E3D226D6964646C PUSH0 DUP3 ADD MSTORE PUSH32 0x652220636C6173733D226C696768742D6267223E000000000000000000000000 PUSH1 0x20 DUP3 ADD MSTORE POP JUMP JUMPDEST PUSH0 PUSH2 0x241A PUSH1 0x34 DUP4 PUSH2 0x18BF JUMP JUMPDEST SWAP2 POP PUSH2 0x2425 DUP3 PUSH2 0x23C0 JUMP JUMPDEST PUSH1 0x34 DUP3 ADD SWAP1 POP SWAP2 SWAP1 POP JUMP JUMPDEST PUSH32 0x3C666F6E7420636C6173733D22726567756C61725F74657874223E0000000000 PUSH0 DUP3 ADD MSTORE POP JUMP JUMPDEST PUSH0 PUSH2 0x2464 PUSH1 0x1B DUP4 PUSH2 0x18BF JUMP JUMPDEST SWAP2 POP PUSH2 0x246F DUP3 PUSH2 0x2430 JUMP JUMPDEST PUSH1 0x1B DUP3 ADD SWAP1 POP SWAP2 SWAP1 POP JUMP JUMPDEST PUSH32 0x3C64697620636C6173733D22706F7374207265706C79223E0000000000000000 PUSH0 DUP3 ADD MSTORE POP JUMP JUMPDEST PUSH0 PUSH2 0x24AE PUSH1 0x18 DUP4 PUSH2 0x18BF JUMP JUMPDEST SWAP2 POP PUSH2 0x24B9 DUP3 PUSH2 0x247A JUMP JUMPDEST PUSH1 0x18 DUP3 ADD SWAP1 POP SWAP2 SWAP1 POP JUMP JUMPDEST PUSH32 0x3C626C6F636B71756F7465207374796C653D2277686974652D73706163653A20 PUSH0 DUP3 ADD MSTORE PUSH32 0x7072652D6C696E653B6D617267696E2D746F703A3070783B2220636C6173733D PUSH1 0x20 DUP3 ADD MSTORE PUSH32 0x22706F73744D657373616765206C696768742D746578742D32222069643D226D PUSH1 0x40 DUP3 ADD MSTORE PUSH32 0x3334303739393833223E3C62723E000000000000000000000000000000000000 PUSH1 0x60 DUP3 ADD MSTORE POP JUMP JUMPDEST PUSH0 PUSH2 0x256A PUSH1 0x6E DUP4 PUSH2 0x18BF JUMP JUMPDEST SWAP2 POP PUSH2 0x2575 DUP3 PUSH2 0x24C4 JUMP JUMPDEST PUSH1 0x6E DUP3 ADD SWAP1 POP SWAP2 SWAP1 POP JUMP JUMPDEST PUSH32 0x3C2F626C6F636B71756F74653E3C2F6469763E3C2F666F6E743E3C2F74643E3C PUSH0 DUP3 ADD MSTORE PUSH32 0x2F74723E00000000000000000000000000000000000000000000000000000000 PUSH1 0x20 DUP3 ADD MSTORE POP JUMP JUMPDEST PUSH0 PUSH2 0x25DA PUSH1 0x24 DUP4 PUSH2 0x18BF JUMP JUMPDEST SWAP2 POP PUSH2 0x25E5 DUP3 PUSH2 0x2580 JUMP JUMPDEST PUSH1 0x24 DUP3 ADD SWAP1 POP SWAP2 SWAP1 POP JUMP JUMPDEST PUSH0 PUSH2 0x25FB DUP3 DUP11 PUSH2 0x1C91 JUMP JUMPDEST SWAP2 POP PUSH2 0x2606 DUP3 PUSH2 0x1E18 JUMP JUMPDEST SWAP2 POP PUSH2 0x2611 DUP3 PUSH2 0x1E88 JUMP JUMPDEST SWAP2 POP PUSH2 0x261C DUP3 PUSH2 0x1ED2 JUMP JUMPDEST SWAP2 POP PUSH2 0x2627 DUP3 PUSH2 0x1F42 JUMP JUMPDEST SWAP2 POP PUSH2 0x2633 DUP3 DUP10 PUSH2 0x1939 JUMP JUMPDEST SWAP2 POP PUSH2 0x263E DUP3 PUSH2 0x1F8C JUMP JUMPDEST SWAP2 POP PUSH2 0x2649 DUP3 PUSH2 0x1FD6 JUMP JUMPDEST SWAP2 POP PUSH2 0x2654 DUP3 PUSH2 0x2046 JUMP JUMPDEST SWAP2 POP PUSH2 0x265F DUP3 PUSH2 0x2090 JUMP JUMPDEST SWAP2 POP PUSH2 0x266A DUP3 PUSH2 0x20DA JUMP JUMPDEST SWAP2 POP PUSH2 0x2675 DUP3 PUSH2 0x214A JUMP JUMPDEST SWAP2 POP PUSH2 0x2681 DUP3 DUP9 PUSH2 0x1939 JUMP JUMPDEST SWAP2 POP PUSH2 0x268D DUP3 DUP8 PUSH2 0x1939 JUMP JUMPDEST SWAP2 POP PUSH2 0x2698 DUP3 PUSH2 0x21BA JUMP JUMPDEST SWAP2 POP PUSH2 0x26A4 DUP3 DUP7 PUSH2 0x1939 JUMP JUMPDEST SWAP2 POP PUSH2 0x26AF DUP3 PUSH2 0x2204 JUMP JUMPDEST SWAP2 POP PUSH2 0x26BA DUP3 PUSH2 0x2274 JUMP JUMPDEST SWAP2 POP PUSH2 0x26C5 DUP3 PUSH2 0x22E4 JUMP JUMPDEST SWAP2 POP PUSH2 0x26D0 DUP3 PUSH2 0x232E JUMP JUMPDEST SWAP2 POP PUSH2 0x26DC DUP3 DUP6 PUSH2 0x1939 JUMP JUMPDEST SWAP2 POP PUSH2 0x26E7 DUP3 PUSH2 0x239E JUMP JUMPDEST SWAP2 POP PUSH2 0x26F2 DUP3 PUSH2 0x240E JUMP JUMPDEST SWAP2 POP PUSH2 0x26FD DUP3 PUSH2 0x2458 JUMP JUMPDEST SWAP2 POP PUSH2 0x2708 DUP3 PUSH2 0x24A2 JUMP JUMPDEST SWAP2 POP PUSH2 0x2713 DUP3 PUSH2 0x255E JUMP JUMPDEST SWAP2 POP PUSH2 0x271F DUP3 DUP5 PUSH2 0x1939 JUMP JUMPDEST SWAP2 POP PUSH2 0x272A DUP3 PUSH2 0x25CE JUMP JUMPDEST SWAP2 POP DUP2 SWAP1 POP SWAP9 SWAP8 POP POP POP POP POP POP POP POP JUMP INVALID LOG2 PUSH5 0x6970667358 0x22 SLT KECCAK256 PUSH12 0x18C742BAD52562B9763725F5 TSTORE 0xA6 0xD6 CREATE 0xC0 0xD0 DUP9 0x4D 0xB9 0xE6 0xDC SWAP3 PUSH28 0xCA5E87682AE364736F6C634300081A00330000000000000000000000 "
		},
		"gasEstimates": {
			"creation": {
				"codeDepositCost": "2019400",
				"executionCost": "infinite",
				"totalCost": "infinite"
			},
			"external": {
				"accessList(address)": "2856",
				"addEntry(string,string,string,string,string)": "infinite",
				"entries(uint256)": "infinite",
				"getAndrewUrl()": "infinite",
				"getEntriesHTML()": "infinite",
				"getEtherscanUrl()": "infinite",
				"getMode()": "infinite",
				"getModeRaw()": "infinite",
				"getTjoUrl()": "infinite",
				"getTotalEntries()": "2508",
				"grantAccess(address)": "26996",
				"mode()": "infinite",
				"owner()": "2553",
				"revokeAccess(address)": "27082",
				"setAndrewUrl(string)": "infinite",
				"setEtherscanUrl(string)": "infinite",
				"setMode(string)": "infinite",
				"setTjoUrl(string)": "infinite"
			}
		},
		"methodIdentifiers": {
			"accessList(address)": "87a5b67c",
			"addEntry(string,string,string,string,string)": "57c8be66",
			"entries(uint256)": "b30906d4",
			"getAndrewUrl()": "9ef96d1f",
			"getEntriesHTML()": "b0a69ab4",
			"getEtherscanUrl()": "72176858",
			"getMode()": "4b4fd03b",
			"getModeRaw()": "c5532468",
			"getTjoUrl()": "0d8550e1",
			"getTotalEntries()": "12d491c9",
			"grantAccess(address)": "0ae5e739",
			"mode()": "295a5212",
			"owner()": "8da5cb5b",
			"revokeAccess(address)": "85e68531",
			"setAndrewUrl(string)": "52baf08f",
			"setEtherscanUrl(string)": "a9c598b9",
			"setMode(string)": "a84fd0ed",
			"setTjoUrl(string)": "c41f0cac"
		}
	},
	"abi": [
		{
			"inputs": [],
			"stateMutability": "nonpayable",
			"type": "constructor"
		},
		{
			"inputs": [
				{
					"internalType": "address",
					"name": "",
					"type": "address"
				}
			],
			"name": "accessList",
			"outputs": [
				{
					"internalType": "bool",
					"name": "",
					"type": "bool"
				}
			],
			"stateMutability": "view",
			"type": "function"
		},
		{
			"inputs": [
				{
					"internalType": "string",
					"name": "_hash",
					"type": "string"
				},
				{
					"internalType": "string",
					"name": "_blockNumber",
					"type": "string"
				},
				{
					"internalType": "string",
					"name": "_timestamp",
					"type": "string"
				},
				{
					"internalType": "string",
					"name": "_text",
					"type": "string"
				},
				{
					"internalType": "string",
					"name": "_formattedTime",
					"type": "string"
				}
			],
			"name": "addEntry",
			"outputs": [],
			"stateMutability": "nonpayable",
			"type": "function"
		},
		{
			"inputs": [
				{
					"internalType": "uint256",
					"name": "",
					"type": "uint256"
				}
			],
			"name": "entries",
			"outputs": [
				{
					"internalType": "string",
					"name": "hash",
					"type": "string"
				},
				{
					"internalType": "string",
					"name": "blockNumber",
					"type": "string"
				},
				{
					"internalType": "string",
					"name": "timestamp",
					"type": "string"
				},
				{
					"internalType": "string",
					"name": "text",
					"type": "string"
				},
				{
					"internalType": "string",
					"name": "formattedTime",
					"type": "string"
				}
			],
			"stateMutability": "view",
			"type": "function"
		},
		{
			"inputs": [],
			"name": "getAndrewUrl",
			"outputs": [
				{
					"internalType": "string",
					"name": "",
					"type": "string"
				}
			],
			"stateMutability": "view",
			"type": "function"
		},
		{
			"inputs": [],
			"name": "getEntriesHTML",
			"outputs": [
				{
					"internalType": "string",
					"name": "",
					"type": "string"
				}
			],
			"stateMutability": "view",
			"type": "function"
		},
		{
			"inputs": [],
			"name": "getEtherscanUrl",
			"outputs": [
				{
					"internalType": "string",
					"name": "",
					"type": "string"
				}
			],
			"stateMutability": "view",
			"type": "function"
		},
		{
			"inputs": [],
			"name": "getMode",
			"outputs": [
				{
					"internalType": "string",
					"name": "",
					"type": "string"
				}
			],
			"stateMutability": "view",
			"type": "function"
		},
		{
			"inputs": [],
			"name": "getModeRaw",
			"outputs": [
				{
					"internalType": "string",
					"name": "",
					"type": "string"
				}
			],
			"stateMutability": "view",
			"type": "function"
		},
		{
			"inputs": [],
			"name": "getTjoUrl",
			"outputs": [
				{
					"internalType": "string",
					"name": "",
					"type": "string"
				}
			],
			"stateMutability": "view",
			"type": "function"
		},
		{
			"inputs": [],
			"name": "getTotalEntries",
			"outputs": [
				{
					"internalType": "uint256",
					"name": "",
					"type": "uint256"
				}
			],
			"stateMutability": "view",
			"type": "function"
		},
		{
			"inputs": [
				{
					"internalType": "address",
					"name": "_address",
					"type": "address"
				}
			],
			"name": "grantAccess",
			"outputs": [],
			"stateMutability": "nonpayable",
			"type": "function"
		},
		{
			"inputs": [],
			"name": "mode",
			"outputs": [
				{
					"internalType": "string",
					"name": "",
					"type": "string"
				}
			],
			"stateMutability": "view",
			"type": "function"
		},
		{
			"inputs": [],
			"name": "owner",
			"outputs": [
				{
					"internalType": "address",
					"name": "",
					"type": "address"
				}
			],
			"stateMutability": "view",
			"type": "function"
		},
		{
			"inputs": [
				{
					"internalType": "address",
					"name": "_address",
					"type": "address"
				}
			],
			"name": "revokeAccess",
			"outputs": [],
			"stateMutability": "nonpayable",
			"type": "function"
		},
		{
			"inputs": [
				{
					"internalType": "string",
					"name": "_andrewUrl",
					"type": "string"
				}
			],
			"name": "setAndrewUrl",
			"outputs": [],
			"stateMutability": "nonpayable",
			"type": "function"
		},
		{
			"inputs": [
				{
					"internalType": "string",
					"name": "_etherscanUrl",
					"type": "string"
				}
			],
			"name": "setEtherscanUrl",
			"outputs": [],
			"stateMutability": "nonpayable",
			"type": "function"
		},
		{
			"inputs": [
				{
					"internalType": "string",
					"name": "_mode",
					"type": "string"
				}
			],
			"name": "setMode",
			"outputs": [],
			"stateMutability": "nonpayable",
			"type": "function"
		},
		{
			"inputs": [
				{
					"internalType": "string",
					"name": "_tjoUrl",
					"type": "string"
				}
			],
			"name": "setTjoUrl",
			"outputs": [],
			"stateMutability": "nonpayable",
			"type": "function"
		}
	]
}