{
	"data": {
		"bytecode": {
			"linkReferences": {},
			"object": "6080604052348015600e575f80fd5b506156048061001c5f395ff3fe608060405234801561000f575f80fd5b506004361061003f575f3560e01c80633ec28bbe146100435780637899ff8f14610061578063b68236131461007f575b5f80fd5b61004b6100af565b60405161005891906101aa565b60405180910390f35b6100696100d4565b60405161007691906101aa565b60405180910390f35b61009960048036038101906100949190610307565b610111565b6040516100a691906101aa565b60405180910390f35b60606040516020016100c09061043a565b604051602081830303815290604052905090565b60606040518060400160405280601481526020017f3c626f64793e3c2f626f64793e3c2f68746d6c3e000000000000000000000000815250905090565b60608160405160200161012491906155a2565b6040516020818303038152906040529050919050565b5f81519050919050565b5f82825260208201905092915050565b8281835e5f83830152505050565b5f601f19601f8301169050919050565b5f61017c8261013a565b6101868185610144565b9350610196818560208601610154565b61019f81610162565b840191505092915050565b5f6020820190508181035f8301526101c28184610172565b905092915050565b5f604051905090565b5f80fd5b5f80fd5b5f80fd5b5f80fd5b7f4e487b71000000000000000000000000000000000000000000000000000000005f52604160045260245ffd5b61021982610162565b810181811067ffffffffffffffff82111715610238576102376101e3565b5b80604052505050565b5f61024a6101ca565b90506102568282610210565b919050565b5f67ffffffffffffffff821115610275576102746101e3565b5b61027e82610162565b9050602081019050919050565b828183375f83830152505050565b5f6102ab6102a68461025b565b610241565b9050828152602081018484840111156102c7576102c66101df565b5b6102d284828561028b565b509392505050565b5f82601f8301126102ee576102ed6101db565b5b81356102fe848260208601610299565b91505092915050565b5f6020828403121561031c5761031b6101d3565b5b5f82013567ffffffffffffffff811115610339576103386101d7565b5b610345848285016102da565b91505092915050565b5f81905092915050565b7f3c7376672077696474683d2736333027206865696768743d27363330272076695f8201527f6577426f783d2730203020363330203633302720786d6c6e733d27687474703a60208201527f2f2f7777772e77332e6f72672f323030302f73766727207374796c653d27776960408201527f6474683a2033363070783b206865696768743a2033363070783b206f7665726660608201527f6c6f773a2068696464656e3b273e3c2f7376673e000000000000000000000000608082015250565b5f61042460948361034e565b915061042f82610358565b609482019050919050565b5f61044482610418565b9150819050919050565b7f3c21646f63747970652068746d6c3e3c68746d6c206c616e673d656e3e3c6d655f8201527f746120636861727365743d7574662d383e3c7469746c653e496e76657274656260208201527f7261746573202300000000000000000000000000000000000000000000000000604082015250565b5f6104ce60478361034e565b91506104d98261044e565b604782019050919050565b5f6104ee8261013a565b6104f8818561034e565b9350610508818560208601610154565b80840191505092915050565b7f20627920416e64726577204d69746368656c6c203c2f7469746c653e3c7363725f8201527f6970743e6c657420636f6c6f724e616d65733d5b7b6e616d653a274372696d7360208201527f6f6e272c636f6c6f723a2723386530643030277d2c7b6e616d653a274d6f737360408201527f272c636f6c6f723a2723633863363939277d2c7b6e616d653a274d69646e696760608201527f6874272c636f6c6f723a2723303631343263277d2c7b6e616d653a274d61676560808201527f6e7461272c636f6c6f723a2723633732323663277d2c7b6e616d653a2753636160a08201527f726c6574272c636f6c6f723a2723373430303030277d2c7b6e616d653a27546160c08201527f757065272c636f6c6f723a2723383737623564277d2c7b6e616d653a2753616e60e08201527f64272c636f6c6f723a2723653864326139277d2c7b6e616d653a274f6e7978276101008201527f2c636f6c6f723a2723313231353164277d2c7b6e616d653a2750617374656c276101208201527f2c636f6c6f723a2723633462663935277d2c7b6e616d653a2750696e6b272c636101408201527f6f6c6f723a2723643332353837277d2c7b6e616d653a274f6c697665272c636f6101608201527f6c6f723a2723633563616239277d2c7b6e616d653a27536c617465272c636f6c6101808201527f6f723a2723313731623139277d2c7b6e616d653a2752756279272c636f6c6f726101a08201527f3a2723626332633065277d2c7b6e616d653a274d61726f6f6e272c636f6c6f726101c08201527f3a2723373930323133277d2c7b6e616d653a275465616c272c636f6c6f723a276101e08201527f23313332653262277d2c7b6e616d653a2742757267756e6479272c636f6c6f726102008201527f3a2723393532383332277d2c7b6e616d653a27416d626572272c636f6c6f723a6102208201527f2723656236353231277d2c7b6e616d653a2749766f7279272c636f6c6f723a276102408201527f23653364366337277d2c7b6e616d653a27536e6f77272c636f6c6f723a2723666102608201527f3765626533277d2c7b6e616d653a274e617679272c636f6c6f723a27233030306102808201527f333236277d2c7b6e616d653a274c696e656e272c636f6c6f723a2723656465646102a08201527f6465277d2c7b6e616d653a27417368272c636f6c6f723a2723643732613266276102c08201527f7d2c7b6e616d653a27436f616c272c636f6c6f723a2723646364376337277d2c6102e08201527f7b6e616d653a2752757374272c636f6c6f723a2723643764396335277d2c7b6e6103008201527f616d653a27456d6572616c64272c636f6c6f723a2723303036623362277d2c7b6103208201527f6e616d653a27417a757265272c636f6c6f723a2723303037666666277d2c7b6e6103408201527f616d653a2748617a656c272c636f6c6f723a2723306231353166277d2c7b6e616103608201527f6d653a274379616e272c636f6c6f723a2723303066666666277d2c7b6e616d656103808201527f3a27466f72657374272c636f6c6f723a2723323238623232277d2c7b6e616d656103a08201527f3a2743686573746e7574272c636f6c6f723a2723393534353335277d2c7b6e616103c08201527f6d653a2742726f6e7a65272c636f6c6f723a2723636437663332277d2c7b6e616103e08201527f6d653a27476f6c64272c636f6c6f723a2723666664373030277d2c7b6e616d656104008201527f3a275465616c272c636f6c6f723a2723303038303830277d2c7b6e616d653a276104208201527f436f62616c74272c636f6c6f723a2723303034376162277d2c7b6e616d653a276104408201527f4265696765272c636f6c6f723a2723663566356463277d2c7b6e616d653a27496104608201527f6e6469676f272c636f6c6f723a2723346230303832277d2c7b6e616d653a27466104808201527f61776e272c636f6c6f723a2723653662656666277d2c7b6e616d653a275361626104a08201527f6c65272c636f6c6f723a2723626261613937277d2c7b6e616d653a27536b79276104c08201527f2c636f6c6f723a2723383763656562277d2c7b6e616d653a275461776e79272c6104e08201527f636f6c6f723a2723636435373030277d2c7b6e616d653a274a616465272c636f6105008201527f6c6f723a2723303041383642277d2c7b6e616d653a274f6273696469616e272c6105208201527f636f6c6f723a2723303030303030277d2c7b6e616d653a27436f70706572272c6105408201527f636f6c6f723a2723623837333333277d2c7b6e616d653a274c696d65272c636f6105608201527f6c6f723a2723303066663030277d2c7b6e616d653a274f6365616e272c636f6c6105808201527f6f723a2723346139366164277d2c7b6e616d653a274d696e74272c636f6c6f726105a08201527f3a2723336562343839277d2c7b6e616d653a275361707068697265272c636f6c6105c08201527f6f723a2723306635326261277d2c7b6e616d653a27537465656c272c636f6c6f6105e08201527f723a2723343638326234277d2c7b6e616d653a275371756964272c636f6c6f726106008201527f3a2723383641353943277d2c7b6e616d653a27436572756c65616e272c636f6c6106208201527f6f723a2723303037626137277d2c7b6e616d653a2749766f7279272c636f6c6f6106408201527f723a2723666666666630277d2c7b6e616d653a27437265616d272c636f6c6f726106608201527f3a2723666666646430277d2c7b6e616d653a27506f77646572272c636f6c6f726106808201527f3a2723623065306536277d2c7b6e616d653a274d696e74272c636f6c6f723a276106a08201527f23393866663938277d2c7b6e616d653a274e617679272c636f6c6f723a2723306106c08201527f3030303830277d2c7b6e616d653a274f6c697665272c636f6c6f723a272338306106e08201527f38303030277d2c7b6e616d653a2745626f6e79272c636f6c6f723a27233535356107008201527f643530277d5d2c636f6c6f72733d5b5b27386530643030272c273761306130306107208201527f272c27613330653030272c27363630393030272c27396461333332272c2739376107408201527f39633330272c27623562623361272c27636262643532272c27633262333361276107608201527f2c27616235663465272c27613135623461272c27353636383436272c273733616107808201527f376139272c27623739373662272c27653164396332275d2c5b276338633639396107a08201527f272c27633463323932272c27636263383935272c27326336643431272c2732626107c08201527f36393366272c27326236653430272c27356661353935272c27363061333933276107e08201527f2c27386533663161272c27386133643139272c27633232643362272c273966626108008201527f343664272c27326131363136272c27633038303437275d2c5b273036313432636108208201527f272c27303731363331272c27303631343264272c27303531323239272c2765326108408201527f64326163272c27653364346231272c27653364356235272c27613662313564276108608201527f2c27613461663561272c27353638303437272c27353437653435272c276538616108808201527f653737272c27613737643464272c27623134343364272c27323736363837275d6108a08201527f2c5b27633732323663272c27636432333666272c27633732333664272c2763356108c08201527f32303661272c27626261643236272c27626561663237272c27623961623237276108e08201527f2c27343537613131272c27343737653131272c27326635313737272c273331356109008201527f343763272c27633234313937272c27643439366265272c27363139626137272c6109208201527f27626162633966275d2c5b27373430303030272c27376130303030272c2737306109408201527f30313031272c27373530313031272c27356439393861272c27356639623863276109608201527f2c27623638643037272c27626139303037272c27623538643038272c273563396109808201527f393861272c27643963666139272c27643963666136272c27336537323261272c6109a08201527f27393937393263275d2c5b27383737623564272c27383437393563272c2738396109c08201527f37633564272c27653363353661272c27653263323635272c27653363363664276109e08201527f2c27633462616136272c27633962666163272c27323632653132272c27323432610a008201527f633131272c27366438313533272c27383134663036272c27363430363133272c610a208201527f27346538303933275d2c5b27653864326139272c27656164336139272c276561610a408201527f64356165272c27653763666132272c27653864316136272c2765386433616227610a608201527f2c27623632303165272c27623332313165272c27336637393966272c27343037610a808201527f373963272c27613439323238272c27613038653237272c27356536643333272c610aa08201527f27353936383331275d2c5b27313231353164272c27313031323139272c273065610ac08201527f31303136272c27636562333162272c27636262313161272c2763376164316127610ae08201527f2c27376630623235272c27373530613231272c27626537313133272c27623436610b008201527f633133272c27333937373438272c27636234623436272c27343038313735272c610b208201527f27643764393862275d2c5b27633462663935272c27633863343964272c276363610b408201527f63386134272c27356137383064272c27353236653063272c2735363734306227610b608201527f2c27373939333431272c27376539613432272c27613438383563272c27613638610b808201527f633634272c27616462323739272c27616361663833272c27633863313438272c610ba08201527f27626338663264275d2c5b27643332353837272c27646434303939272c276430610bc08201527f32353836272c27646132663930272c27653663323262272c2765616339343827610be08201527f2c27366337653237272c27373938633262272c27653664323734272c27663566610c008201527f356635272c27616235643134275d2c5b27633563616239272c27636163666266610c208201527f272c27633063366233272c27633663646237272c27383230303330272c273761610c408201527f30303264272c27356238613363272c27353738333361272c2763323966303027610c608201527f2c27346531623166272c27326434633330272c27383562323835275d2c5b2731610c808201527f3731623139272c27323632633239272c27313331363134272c27323332393236610ca08201527f272c27613931343032272c27613231313031272c27636131363032272c276430610cc08201527f39353134272c27636339323134272c27653961393230272c2733613632316627610ce08201527f2c27376261313764272c27653665316134275d2c5b27626332633065272c2762610d008201527f3232363061272c27616433363166272c27323634653636272c27326135623739610d208201527f272c27316433653533272c27663065306233272c27633961323636272c276331610d408201527f39333465272c27636461373730272c27373138333163272c2737633866316527610d608201527f2c27663065306233272c27663365386338275d2c5b27373930323133272c2736610d808201527f3930323131272c27373430363137272c27373430323133272c27623138643336610da08201527f272c27616338383335272c27613438323332272c27646364396236272c276436610dc08201527f64326139272c27646264386238272c27333432333334272c2733663034313727610de08201527f2c27383763646265272c27633034303762275d2c5b27313332653262272c2730610e008201527f6632343232272c27313733363332272c27633062313164272c27623661363162610e208201527f272c27323737303364272c27323536613361272c27306535363837272c273130610e408201527f35663934272c27633532633131272c27623232383130272c2764393834373327610e608201527f2c27613438323332272c27366161383165272c27376563623939275d2c5b2739610e808201527f3532383332272c27383132323263272c27393732313264272c27393039643535610ea08201527f272c27393261313466272c27383238663464272c27666666616637272c276666610ec08201527f66666666272c27623739373564272c27626461303662272c2736303932353127610ee08201527f2c27373836633738272c27653638646238272c27396163616439275d2c5b2765610f008201527f6236353231272c27656437363362272c27653036333234272c27633734363138610f208201527f272c27626634343138272c27636634303063272c27613536613332272c276134610f408201527f36393332272c27643763333134272c27646563623162272c2731313164366627610f608201527f2c27613662636331272c27383630663231272c27326233373036275d2c5b2765610f808201527f3364366337272c27656565366464272c27653064336332272c27656164666431610fa08201527f272c27633030323264272c27623630323263272c27636130323331272c273732610fc08201527f31353433272c27356131313336272c27376461323964272c2738356138613327610fe08201527f2c27316434323630272c27316233653561272c27656238356337272c273835346110008201527f633863275d2c5b27663765626533272c27663966316562272c276637653864666110208201527f272c27663865626533272c27303130333035272c27303430643135272c2730376110408201527f31643533272c27303631383436272c27323430643132272c27316130393064276110608201527f2c27663765626533272c27303130333035272c27303731643533272c273234306110808201527f643132272c27653361633335272c27653562323433272c27366132323237272c6110a08201527f27623535653430272c27333834613334272c27623561303163275d2c5b2730306110c08201527f30333236272c27303030343333272c27303530303166272c27643061363232276110e08201527f2c27633739653233272c27613530303038272c27616130333063272c276363656111008201527f336439272c27643465376466272c27363338343966272c27373138666138272c6111208201527f27643938646330272c27303032386463272c27356437643637272c27623363346111408201527f3738275d2c5b27656465646465272c27653865386434272c27663166316535276111608201527f2c27653664323666272c27653864363764272c27653764333734272c273966376111808201527f653437272c27393737393434272c27656465386138272c27656665616166272c6111a08201527f27616337653961272c27656463346436272c27626133663666275d2c5b2764376111c08201527f32613266272c27643933363362272c27636532373264272c27643232383265276111e08201527f2c27343839316432272c27343238656431272c27353339306336272c276533666112008201527f326436272c27656166356530272c27643865396338272c27643738643534272c6112208201527f27306631643664272c27366662343664272c27643038323938275d2c5b2764636112408201527f64376337272c27643864326330272c27646564626365272c27643664306264276112608201527f2c27643063396234272c27643463646235272c27383830343138272c273931306112808201527f343161272c27343738313761272c27343337613734272c27623362643732272c6112a08201527f27323534333435272c27643738376135272c27643539633831275d2c5b2764376112c08201527f64396335272c27643564376331272c27643964626337272c27643964626337276112e08201527f2c27623332623434272c27623632623434272c27623932643436272c276335386113008201527f343831272c27633738383835272c27633638343830275d2c5b273933366230306113208201527f272c27396537343030272c27386636393030272c27383636333033272c2763626113408201527f35336136272c27636535616139272c27633734333964272c27636535356137276113608201527f2c27366130333430272c27373230343436272c27613731313138272c276235316113808201527f323161272c27313932333132272c27643561623030272c27353935313132272c6113a08201527f27383739643839275d2c5b27323837363265272c27323737323264272c2732656113c08201527f38353335272c27323236643238272c27326437623334272c27333037653336276113e08201527f2c27666631373639272c27666631663664272c27666664656536272c276666656114008201527f356563272c27303032623964272c27336539653039272c27663766663665272c6114208201527f27383432643564275d2c5b27306231353166272c27313031663264272c2730356114408201527f30613066272c27303431313166272c27366239373434272c27373761393463276114608201527f2c27623761643337272c27616461333334272c27363735353261272c276337656114808201527f366630272c27643939316637272c27336630613266275d2c5b276139646339376114a08201527f272c27626465346166272c27623765326137272c27613864393936272c2762306114c08201527f64663966272c27616564646136272c27343364323532272c27333863633437276114e08201527f2c27623939646131272c27616433353632272c27633264656236272c273265346115008201527f313362272c27616462393361272c27393561646136275d2c5b273832613561306115208201527f272c27366539363930272c27376461313962272c27383061333965272c2738666115408201527f61656139272c27383461343966272c27393539353835272c27396239623863276115608201527f2c27643464396366272c27636664346339272c27396561353533272c273730396115808201527f303137272c27326534343136275d2c5b27616539613663272c276233613037356115a08201527f272c27613639313565272c27393131643161272c27383631623138272c2761306115c08201527f32313163272c27323534303536272c27316633353437272c27363536623530276115e08201527f2c27366237313536272c27623135623564272c27623435663631272c273464326116008201527f643334272c27356133353364275d2c5b27626136363662272c276265366637346116208201527f272c27623936343661272c27626536303636272c27623335363563272c2763316116408201527f37363762272c27313630633066272c27306430373039272c27636261653961276116608201527f2c27643062366134272c27383430643262272c27346633333137272c276265366116808201527f333030272c27346631633432275d2c5b27633539653063272c276237393230626116a08201527f272c27643461393063272c27626339383135272c27636161313063272c2763626116c08201527f61323130272c27396231623138272c27396231623138272c27333033303331276116e08201527f2c27333833383339272c27303036653266272c27303035633238272c273365356117008201527f393631272c27343436313661275d2c5b27326133623262272c273236333632376117208201527f272c27326634323330272c27626330653032272c27623630653032272c2763636117408201527f31343030272c27653339663434272c27653239633430272c27663565336666276117608201527f2c27663865626666272c27336438326666272c27343238346666272c273135306117808201527f363138272c27313230353135275d2c5b27303033323833272c273030333738666117a08201527f272c27306332653634272c27306233343734272c27323734633836272c2730336117c08201527f33363836272c27306232663662272c27306433363737272c27623661373337276117e08201527f2c27613939623332272c27633264396332272c27636164656361272c273066336118008201527f343465272c27306332623430272c27333038386135272c27326538323965275d6118208201527f2c5b27643963666131272c27643363373932272c27646464346163272c2732306118408201527f35326434272c27316534656338272c27323635646538272c27626633643736276118608201527f2c27623233383664272c27636339613432272c27636239353361272c273831396118808201527f333339272c27386561323366272c27646564656465272c27653665366536275d6118a08201527f2c5b27316631393132272c27323731663136272c27316131353066272c2731626118c08201527f31353065272c27313731323064272c27313331303062272c27343938646337276118e08201527f2c27346639306339272c27346638656334272c27643962323038272c276434616119008201527f653038272c27636661613037275d2c5b27314536414538272c273137363344456119208201527f272c27323436666530272c27313736346439272c27326135333134272c2732366119408201527f34613132272c27373835303139272c27366534613137272c27363335306236276119608201527f2c27363835366238272c27383531613534272c27373731383463272c276134386119808201527f613135272c27396538343130272c27396633613034272c27393533373034275d6119a08201527f2c5b27636364316164272c27633863646137272c27643464386261272c2764306119c08201527f64356234272c27633763653963272c27636664346230272c27353261616161276119e08201527f2c27353139653965272c27623830373137272c27616330363134272c27623939611a008201527f383535272c27396563326235272c27396338623934272c27326231363230275d611a208201527f2c5b27326439326230272c27326639376236272c27323838666166272c273961611a408201527f37633332272c27393637393331272c27386537333265272c2763393161303027611a608201527f2c27626431393030272c27346239323039272c27343538363039272c27633934611a808201527f633237272c27643463373236272c27386136613735272c27313630653130275d611aa08201527f2c5b27316632393531272c27313932323433272c27323232643539272c276635611ac08201527f64313537272c27663664343635272c27663664353661272c2738303461306327611ae08201527f2c27373534333062272c27333131663132272c27326431633131272c27653836611b008201527f353132272c27656536663230272c27666666376337272c27666666616436275d611b208201527f2c5b27616138303563272c27616538373635272c27616538643666272c273534611b408201527f32383430272c27356132623435272c27343832333337272c2762313037323627611b608201527f2c27613630373234272c27343137373038272c27353238333165272c27373261611b808201527f323737272c27303032616432272c27373736623961272c27633964313931275d611ba08201527f2c5b27313331613133272c27306631353066272c27313531653135272c273161611bc08201527f32333161272c27646262353662272c27646362383666272c2764656263373827611be08201527f2c27643362303639272c27633463343761272c27636163613836272c27636463611c008201527f643865272c27343834313430272c27336533383337272c27313531653135272c611c208201527f27626637363435272c27663265336334275d2c5b27613665336138272c276165611c408201527f65356166272c27623165376233272c27623565386237272c2761313739363127611c608201527f2c27393336653538272c27393937333563272c27393637313561272c27636530611c808201527f373435272c27633530373433272c27323035613234272c27316435333231272c611ca08201527f27666134326131272c27643261343030272c27353539316239272c2731303065611cc08201527f3166275d2c5b27646263376136272c27646463616163272c2765316364616427611ce08201527f2c27306431323238272c27306130653166272c27313031363332272c27643730611d008201527f323030272c27653030343030272c27633330373034272c27343836393463272c611d208201527f27343436343438272c27343035653434272c27643662333262272c2764376235611d408201527f3264272c27313232393438272c27313032363431275d2c5b2735373739363827611d608201527f2c27356538323730272c27346537333631272c27343837303563272c27353437611d808201527f333633272c27396364313934272c27613664363966272c27613964376132272c611da08201527f27626164666234272c27613364343962272c27653663373534272c2765313134611dc08201527f3030272c27373630303030275d2c5b27653364656230272c2765376533626227611de08201527f2c27653665316237272c27653164626138272c27653565316238272c27653965611e008201527f346261272c27626663343761272c27633663613836272c27646564313665272c611e208201527f27653064333736272c27646537643764272c27633962613636272c2762313737611e408201527f3631272c27626462333863275d2c5b27346638343635272c2734643830363227611e608201527f2c27356339393735272c27363661333830272c27393962386339272c27393462611e808201527f356337272c27616663376435272c27353236383630272c27343835623534272c611ea08201527f27626261343838272c27633362303937272c27343832363261272c2735653331611ec08201527f3336272c27626132373237272c27326434396230272c27623038356264272c27611ee08201527f623039393461275d2c5b27346135636666272c27356336636666272c27373037611f008201527f656666272c27353136316630272c27353236336666272c27346135636666272c611f208201527f27663764623435272c27663865323632272c27663764623362272c2766356334611f408201527f6538272c27663362396534272c27663964636631272c27663765366334272c27611f608201527f386161633330272c27333633363339272c27623939643634275d2c5b27646364611f808201527f636335272c27643964396266272c27653865386439272c27643164316233272c611fa08201527f27626536643931272c27633638306130272c27623936343862272c2734393864611fc08201527f6133272c27343938646133272c27336636303162272c27333435303136272c27611fe08201527f373630303038272c27626338643137272c27333031663137272c2762383630316120008201527f37275d2c5b27323336323634272c27323035393562272c27326137363739272c6120208201527f27333038353838272c27666636366131272c27666638356234272c27666639396120408201527f6330272c27666635633961272c27393262383763272c27396362663838272c276120608201527f663731343234272c27663732363334272c27346432663262272c2764653734346120808201527f63272c27666365336564275d2c5b27303231393932272c27303332306235272c6120a08201527f27303231393864272c27616136303065272c27393735363063272c27643037376120c08201527f3131272c27336539643832272c27343661663931272c27656265386536272c276120e08201527f663566326630275d2c5b27366662313537272c27376262383635272c273635616121008201527f383464272c27356439613437272c27623830303030272c27613330303030272c6121208201527f27636330303030272c27303232663765272c27303132363635272c27306430656121408201527f3136272c27313731393237272c27643435363964272c27653332383030272c276121608201527f653639613030272c27356363376337275d2c5b27643163323934272c276461636121808201527f656139272c27653064366238272c27636562653864272c27356237313731272c6121a08201527f27363437643764272c27366438383838272c27633731313030272c27613330656121c08201527f3030272c27623830663030272c27383639633630272c27373738623535272c276121e08201527f636139353434272c27643261343630275d2c5b27383763666530272c273764636122008201527f636465272c27366463366439272c27396564396536272c27363939323862272c6122208201527f27373139383931272c27383961396134272c27376461313962272c27316536326122408201527f6437272c27323836636532272c27316235396335272c27313634396132272c276122608201527f613339383030272c27386638353030275d2c5b27373661343766272c273835616122808201527f643864272c27393162363938272c27396462656134272c27303330643537272c6122a08201527f27303431323736272c27303531343861272c27303631373964272c27636662646122c08201527f3735272c27643563353836272c27613636363032272c27636137643032272c276122e08201527f323635313265272c27326536313337272c27643464396436272c2764666532656123008201527f30275d2c5b27303231303435272c27303331383633272c27303431643737272c6123208201527f27303432313862272c27313037643461272c27306536633430272c27313339306123408201527f3536272c27313561323631272c27323762333834272c27326363393935272c276123608201527f336563363565272c27353263623665272c27386337343132272c2761323836316123808201527f35272c27373639653133272c27383962373135275d2c5b27656464656235272c6123a08201527f27663365396365272c27656264396164272c27653764343963272c27343336656123c08201527f3230272c27346437653235272c27333034663137272c27653338633132272c276123e08201527f656439363164272c27663061373432272c27623861323763272c2765313366346124008201527f34272c27343233373235272c27623035663035275d2c5b27313933353733272c6124208201527f27316433653836272c27323134363937272c27323534656137272c27356438636124408201527f6139272c27373961306239272c27366339376232272c27626462646235272c276124608201527f636663666339272c27623262326139272c27623838363864272c2763333938396124808201527f65272c27376638393836272c27373637663763275d2c5b27363939626163272c6124a08201527f27376261386237272c27383962316265272c27376635613034272c27396537306124c08201527f3035272c27623137653036272c27303830623064272c27313031353139272c276124e08201527f313732303236272c27386437653030272c27613339333030272c2731613437396125008201527f30272c27323035366163272c27393538333363272c27613435323030272c27646125208201527f6536663562272c27396631353030275d2c5b27346636643937272c27356637656125408201527f6162272c27366338396232272c27373939346239272c27333735343231272c276125608201527f333034393164272c27343336373238272c27346437363265272c2737653262386125808201527f30272c27393733333939272c27316631613231272c27326232343265272c27316125a08201527f6633613838272c27623138333431272c27633436626261272c273663393136336125c08201527f275d2c5b27313132623733272c27313333303831272c27306632353632272c276125e08201527f316538376333272c27316337616230272c27316638396337272c2735326135386126008201527f38272c27356261653931272c27346139363763272c27343834303638272c27346126208201527f6334343666272c27343433633632272c27616263666164272c273764393161636126408201527f272c27333638363766275d2c5b27343035333565272c27346136303664272c276126608201527f336134623535272c27353336623739272c27383238373266272c2739323937336126808201527f35272c27613161363361272c27616662353430272c27313832653161272c27326126a08201527f3334333236272c27623862313732272c27633162623835272c273936363635366126c08201527f272c27633562313262272c27616135373330272c27626131633135275d2c5b276126e08201527f386364343965272c27613664656234272c27623565336330272c2737396364386127008201527f65272c27633365396364272c27636366306363272c27646666366466272c27376127208201527f3563353631272c27386163643739272c27646262643537272c276236373132346127408201527f272c27653366326436272c27653064396462275d2c5b27333537643736272c276127608201527f343339643934272c27336438663837272c27333137323663272c2732333530326127808201527f31272c27326336353239272c27333337343266272c27333735643231272c27346127a08201527f3737393261272c27353038383330272c27386638343230272c273363343437396127c08201527f272c27396532373463272c27336634373436275d2c5b27646264346332272c276127e08201527f663065646535272c27643263396232272c27653965346438272c2762316264366128008201527f66272c27626263353831272c27396161383464272c27623162643666272c27396128208201527f3462333965272c27613062626138272c27376361323838272c273562373936366128408201527f272c27363938633736272c27646261383563272c27653262383739275d2c5b276128608201527f616438313239272c27633639343266272c27643039653339272c2764346136346128808201527f39272c27316633343436272c27323533663535272c27326334393633272c27336128a08201527f3235343731272c27626635303335272c27636135623366272c273630373264376128c08201527f272c27376338626465272c27643161626261272c27646262646339272c2734386128e08201527f33653565272c27353534393666275d2c5b27633462643939272c2762636233386129008201527f61272c27643263646231272c27326234633931272c27333435616164272c27336129208201527f3836326263272c27616232333238272c27626132363262272c276362326132666129408201527f272c27356433383735272c27353733353665272c27373834393937272c2735306129608201527f30643135272c27363931313162272c27616632663030272c27636333363030276129808201527f5d2c5b27633733323030272c27653033383030272c27663533643030272c27666129a08201527f6635373166272c27366361313665272c27356639353631272c273833616638346129c08201527f272c27386662373930272c27303031663830272c27303031663761272c2730306129e08201527f31393636272c27316531383137272c27326532353233272c2764346439633727612a008201527f2c27653365366462275d2c5b27343734393566272c27336433663531272c2735612a208201527f3835613734272c27363036333830272c27373939373531272c27383961393630612a408201527f272c27393362303664272c27393837363334272c27613738333339272c276236612a608201527f38653365272c27646561623137272c27333534623166272c2762386233393427612a808201527f2c27636534653030275d2c5b27653665626462272c27653465396438272c2764612aa08201527f6265326361272c27643164626264272c27613865336230272c27633165626337612ac08201527f272c27643166306435272c27626539623030272c27653062373030272c276635612ae08201527f63383030272c27663239313033272c27666439643064272c2731393332386127612b008201527f2c27316333383962275d2c5b27646264346530272c27643764306464272c2763612b208201527f6463346434272c27633362386363272c27316631383139272c27326532333235612b408201527f272c27336132633265272c27343533353338272c27376135383132272c273865612b608201527f36363135272c27346534333637272c27356435313762272c2733373464333827612b808201527f2c27343435663435272c27326232663732272c27326232663732275d2c5b2731612ba08201527f3133653736272c27313434623866272c27313735356131272c27313935656233612bc08201527f272c27633463636230272c27643164376331272c27646164666364272c276533612be08201527f65376461272c27376562383864272c27393663356132272c2736323563336627612c008201527f2c27373036393438272c27326632623232272c27353439326164272c27643036612c208201527f353030275d2c5b27376336313365272c27383836613434272c27393537353462612c408201527f272c27613338303532272c27663564343939272c27663463663930272c276632612c608201527f63373764272c27666163663239272c27663963613130272c2765666330303627612c808201527f2c27383032373266272c27323332343233272c27356562613737275d2c5b2730612ca08201527f3930643135272c27313231623262272c27313832333339272c27316632633437612cc08201527f272c27303832393630272c27303932663731272c27306233373834272c276533612ce08201527f30323030272c27666630653061272c27663264366465272c2765626331643127612d008201527f2c27363130623034272c27363166613437272c27303030376430272c27656461612d208201527f363735275d2c5b27313331653336272c27316232613462272c27323033333561612d408201527f272c27323533623661272c27326134333739272c27343536396666272c273333612d608201527f35636666272c27363438363664272c27373239373763272c2761326233393227612d808201527f2c27616462633966272c27626235633131272c27636436343133275d2c5b2763612da08201527f3039333238272c27626138653236272c27643561353334272c27643961633435612dc08201527f272c27646362343536272c27343334383866272c27346535346136272c273862612de08201527f34393030272c27376134313030272c27643663666334272c2764656438636627612e008201527f2c27353439323932272c27363461366136275d2c5b27613863326363272c2762612e208201527f6664326439272c27636364626531272c27643865346538272c27656465646363612e408201527f272c27656165616333272c27653465346234272c27646664666134272c273165612e608201527f32343331272c27323732663366272c27646333633339272c2765303534353227612e808201527f2c27396362616465272c27616536613432272c27656463666233275d2c5b2762612ea08201527f6439323862272c27633339643937272c27636261396134272c27373836663664612ec08201527f272c27386238313765272c27393438623839272c27636139373536272c276334612ee08201527f38643435272c27353239383539272c27363061393637272c2731613530333027612f008201527f2c27323336633430272c27366137613931272c27626531333264272c27643236612f208201527f303765272c27376633353766272c27303031336233272c27346431643062275d612f408201527f2c5b27653865626530272c27653465376461272c27646264666364272c276431612f608201527f64376331272c27323933386666272c27343735346666272c2735633637666627612f808201527f2c27653834633030272c27666635633061272c27373961383030272c27393263612fa08201527f633030272c27636661653030272c27663563633030272c27326431376163272c612fc08201527f27623638353035275d2c5b27643664656233272c27653065366336272c276538612fe08201527f65636434272c27643164616161272c27666166636436272c27666466656563276130008201527f2c27663866626336272c27626163323866272c27636564346230272c276336636130208201527f636133272c27383162383936272c27393763346138272c27393239323639272c6130408201527f27623864363934275d2c5b27656265366363272c27653865326334272c2765326130608201527f64626236272c27663466316532272c27663966386630272c27623565333832276130808201527f2c27633465383962272c27636565636163272c27333036383330272c273361376130a08201527f653361272c27393933363133272c27666631633030275d2c5b276632633762306130c08201527f272c27663163316137272c27656562353936272c27663664616361272c2765626130e08201527f61383834272c27373561323432272c27383862383531272c27356436333764276131008201527f2c27363836663864272c27643461343531272c27636436303238272c273066306131208201527f663161272c27633731643061275d2c5b27656265366434272c276564653964396131408201527f272c27656165356432272c27663165646466272c27343032643139272c2734326131608201527f32663161272c27343633313162272c27623564363236272c27626264613266276131808201527f2c27633565303464272c27353737393030272c27353037303030272c273234326131a08201527f313064272c27663731393234275d2c5b27393838323634272c276136393337376131c08201527f272c27616539643834272c27623661363930272c27396633363234272c2762376131e08201527f33663261272c27343835623734272c27353636643861272c27336531303134276132008201527f2c27353131353161272c27363434633361272c27373535383433272c276164386132208201527f393236272c27373235303030272c27306131663463272c27333631663133275d6132408201527f2c5b27306631383236272c27303630393066272c27313732353361272c2731646132608201527f32653439272c27373138363833272c27376139303863272c27383539393935276132808201527f2c27393061323966272c27376562353635272c27386362643735272c276137376132a08201527f323133272c27623837653134272c27643934643332272c27643163666266272c6132c08201527f27616363353562272c27373930303063275d2c5b27646264656264272c2764616132e08201527f64636331272c27653965616436272c27643464386231272c27633962333939276133008201527f2c27633561643931272c27633161383861272c27393462646164272c273964636133208201527f336234272c27616535333332272c27396534633265272c27633939346230272c6133408201527f27636661306261272c27643262313139272c27633461353137275d2c5b2763666133608201527f61343030272c27663563343030272c27636361333030272c27666663653061276133808201527f2c27633763666334272c27643464616432272c27646665336464272c273139316133a08201527f393163272c27323632363262272c27383739353839272c27376534653030275d6133c08201527f2c5b27616230303030272c27636330303030272c27653030303030272c2737376133e08201527f38316366272c27353936366335272c27363837336361272c27646534356233276134008201527f2c27653336336266272c27623562306462272c27636263376535272c276439306134208201527f353433272c27656630363463272c27643534613030272c27663535363030272c6134408201527f27313132333961272c27313432616238272c27373438313030272c27306330646134608201527f3064275d2c5b27663264366334272c27663064306263272c27656363356163276134808201527f2c27663865386465272c27633031353233272c27646331383239272c276238316134a08201527f343232272c27346636343931272c27353736643965272c27363137386138272c6134c08201527f27326232393264272c27666162383435272c27646238663835272c27383861346134e08201527f6335275d2c5b27613164656434272c27393764386366272c27623465346463276135008201527f2c27633365396533272c27373231303033272c27363330653033272c273862316135208201527f333034272c27663263396162272c27663965386463272c27653063326562272c6135408201527f27643962326536272c27616464626666272c27656262643061272c27666161646135608201527f6230272c27303030653837275d2c5b27376561333838272c27383561383865276135808201527f2c27393462333963272c27366439373738272c27383261623864272c273835616135a08201527f383865272c27366439373738272c27396662643966272c27393862393938272c6135c08201527f27613763336137272c27383633613135272c27376333363133272c27393234306135e08201527f3137275d2c5b27633636373266272c27643037303339272c27643838383561276136008201527f2c27643437633439272c27666366666661272c27653766666436272c276633666136208201527f666562272c27306430663066272c27326633373337272c27316332313231272c6136408201527f27666631393265272c27643965386666272c27353763613631275d2c5b2733616136608201527f34653230272c27333634383165272c27346236353239272c27353637343266276136808201527f2c27343266663835272c27356366663935272c27333366663761272c273730666136a08201527f666132272c27616563373564272c27626264303736272c27633138643030272c6136c08201527f27653061353030272c27316234303166272c27313031633137272c27653866666136e08201527f3435272c27663730333537275d2c5b27383835383338272c27383235343335276137008201527f2c27396636373431272c27616537303437272c27666364623435272c276664656137208201527f303565272c27666364383336272c27303930363064272c27313330643163272c6137408201527f27316431333261272c27663765646635272c27663265336566272c27653333666137608201527f3033272c27666234643065275d2c5b27386238393831272c27396439623935276137808201527f2c27376637643736272c27613761356130272c27326132633331272c273338336137a08201527f623432272c27343234353464272c27346234663538272c27653665306462272c6137c08201527f27643563626333272c27646564356366272c27386362333235272c27613063626137e08201527f3261272c27643662333333272c27646162393434275d2c5b27653065336434276138008201527f2c27646264666365272c27643264376331272c27633963666234272c273633396138208201527f383665272c27383461653862272c27373761363831272c27353837333536272c6138408201527f27363338303630272c27366338633639272c27366163356163272c27376263636138608201527f6236272c27366431393333272c27313931623163275d2c5b27373438613832276138808201527f2c27383539393931272c27393061323962272c27396261626135272c276439616138a08201527f383866272c27653062386134272c27653563356233272c27306630643130272c6138c08201527f27323031633232272c27326132353264272c27666166376564272c27663666316138e08201527f6466272c27663265383132272c27393163376663275d2c5b27356330333030276139008201527f2c27376130343030272c27386630353030272c27353230333030272c273364306139208201527f323030272c27303830613061272c27313231373137272c27316232323232272c6139408201527f27653861643163272c27656262373333272c27663766376663272c27376465366139608201527f3534275d2c5b27643963393330272c27636662653236272c27626561653233276139808201527f2c27616339653230272c27316231633164272c27313431343135272c273237326139a08201527f393261272c27366137323262272c27376238353332272c27643464396334272c6139c08201527f27653465376461272c27633561343030272c27323934383336272c27336132646139e08201527f3465272c27363337393737275d2c5b27653065366630272c2764366465656227613a008201527f2c27633864326534272c27626163376465272c27306230663164272c27313131613a208201527f373263272c27313631653362272c27373539373363272c27383861663436272c613a408201527f27393362393530272c27313833303234272c27323032343335272c2735393934613a608201527f3564275d2c5b27326235623761272c27333036353838272c2733353730393727613a808201527f2c27336137626136272c27643663666363272c27643263616336272c27656465613aa08201527f616538272c27623038313739272c27626239323862272c27633339663938272c613ac08201527f27376461336337272c27386461656365272c27623863323366272c2763356365613ae08201527f3634275d2c5b27373437303239272c27366136363235272c2735623538323027613b008201527f2c27383838333330272c27393739323335272c27613661313361272c27666639613b208201527f396439272c27666661646531272c27666663326539272c27663735373364272c613b408201527f27663836353466272c27663837363632272c27366535303264272c2738323565613b608201527f3335275d2c5b27666166306562272c27663765376465272c2766336461636527613b808201527f2c27656663656265272c27303633383534272c27303834623732272c27303935613ba08201527f383836272c27326464393664272c27323663663634272c27323362653563272c613bc08201527f27316233633139272c27323735363234272c27323538343030272c2739363931613be08201527f3030275d2c5b27313531663432272c27316432623564272c2732323332366427613c008201527f2c27323733613763272c27623131623039272c27396231373038272c27383831613c208201527f343037272c27616535626236272c27623937326330272c27633038306336272c613c408201527f27323134643536272c27323735643638272c27326436613736275d2c5b273166613c608201527f35636666272c27306134626666272c27343737386666272c2733333639666627613c808201527f2c27653065366538272c27663366366636272c27643064396463272c27393966613ca08201527f663333272c27613366663437272c27396430303030272c27623830303030272c613cc08201527f27383566356332272c27613166376430272c27316137313030272c2731383636613ce08201527f3030275d2c5b27313231343138272c27316131643233272c2732333237326627613d008201527f2c27373337653431272c27383739343463272c27393361323533272c27323735613d208201527f313236272c27326636313265272c27326131323161272c27626138636235272c613d408201527f27363839376332272c27376461346361272c27646563326131272c2761626533613d608201527f6332272c27326435393637272c27376433633030272c27346132633631272c27613d808201527f623239343534275d2c5b27663566306635272c27663365646633272c27663766613da08201527f336637272c27663766336637272c27323432643265272c27323232613262272c613dc08201527f27653066323030272c27653966353030272c27366266663066272c2766663631613de08201527f3033272c27346162616666272c27303064346139275d2c5b2762363130316227613e008201527f2c27636531323166272c27653131343231272c27306335326437272c27313836613e208201527f346632272c27326237316633272c27313861353934272c27316363346231272c613e408201527f27316664366331272c27666664623437272c27666664653563272c2766666537613e608201527f3835272c27613430373838272c27633430386131272c27666635343936272c27613e808201527f386363333238275d2c5b27346136643962272c27356137666166272c27363838613ea08201527f616236272c27373539346264272c27383339666231272c27373539356139272c613ec08201527f27363838626131272c27356538313937272c27616262616138272c2762646339613ee08201527f6261272c27613930303838272c27636330306133272c27636532343030272c27613f008201527f303332346666272c27636662333030272c27306531323136275d2c5b27663266613f208201527f376339272c27656466346238272c27653966326136272c27653565663935272c613f408201527f27666665333239272c27666665373437272c27333235343033272c2734373736613f608201527f3034272c27656236653931272c27656538316130272c27313135373463272c27613f808201527f313436363561272c27626464623038272c27643466363133272c273062326437613fa08201527f35272c27616634363030275d2c5b27303030613962272c27303030636238272c613fc08201527f27303030656363272c27303030666530272c27353062623864272c2735646330613fe08201527f3935272c27366363363966272c27376263636139272c27353530303866272c276140008201527f363230306133272c27333336613030272c27343538663030272c2730623063306140208201527f64272c27663038326439272c27626533643030272c27343763623030275d2c5b6140408201527f27623062616136272c27616262366130272c27613662313961272c27633763656140608201527f6330272c27623062376139272c27653065366533272c27653265346533272c276140808201527f653665626538272c27653865646562272c27646565386533272c2761623037316140a08201527f64272c27613230373162272c27396230383163272c27333133353262272c27326140c08201527f6333303237272c27393561373937272c27393861393961275d2c5b27643964656140e08201527f6436272c27643564626432272c27636264326336272c27633063396262272c276141008201527f623662666230272c27653664313330272c27653964363439272c2765626461356141208201527f63272c27633538363838272c27643139666130272c27643761636165272c27366141408201527f3537303765272c27363862383330272c27643935373030272c273739336335646141608201527f275d2c5b27316431393231272c27323932333266272c27313431323137272c276141808201527f333332633361272c27336433353436272c27633062313231272c2764316330326141a08201527f33272c27646363613265272c27643233623030272c27663534353030272c27636141c08201527f3263666264272c27643364646430275d5d3c2f7363726970743e0000000000006141e082015250565b5f61558b6141fa8361034e565b915061559682610514565b6141fa82019050919050565b5f6155ac826104c2565b91506155b882846104e4565b91506155c38261557e565b91508190509291505056fea2646970667358221220197e05ccd696561df18eb2224d7edac6a03d9897caec6ea44b45e9069f81f56464736f6c634300081a0033",
			"opcodes": "PUSH1 0x80 PUSH1 0x40 MSTORE CALLVALUE DUP1 ISZERO PUSH1 0xE JUMPI PUSH0 DUP1 REVERT JUMPDEST POP PUSH2 0x5604 DUP1 PUSH2 0x1C PUSH0 CODECOPY PUSH0 RETURN INVALID PUSH1 0x80 PUSH1 0x40 MSTORE CALLVALUE DUP1 ISZERO PUSH2 0xF JUMPI PUSH0 DUP1 REVERT JUMPDEST POP PUSH1 0x4 CALLDATASIZE LT PUSH2 0x3F JUMPI PUSH0 CALLDATALOAD PUSH1 0xE0 SHR DUP1 PUSH4 0x3EC28BBE EQ PUSH2 0x43 JUMPI DUP1 PUSH4 0x7899FF8F EQ PUSH2 0x61 JUMPI DUP1 PUSH4 0xB6823613 EQ PUSH2 0x7F JUMPI JUMPDEST PUSH0 DUP1 REVERT JUMPDEST PUSH2 0x4B PUSH2 0xAF JUMP JUMPDEST PUSH1 0x40 MLOAD PUSH2 0x58 SWAP2 SWAP1 PUSH2 0x1AA JUMP JUMPDEST PUSH1 0x40 MLOAD DUP1 SWAP2 SUB SWAP1 RETURN JUMPDEST PUSH2 0x69 PUSH2 0xD4 JUMP JUMPDEST PUSH1 0x40 MLOAD PUSH2 0x76 SWAP2 SWAP1 PUSH2 0x1AA JUMP JUMPDEST PUSH1 0x40 MLOAD DUP1 SWAP2 SUB SWAP1 RETURN JUMPDEST PUSH2 0x99 PUSH1 0x4 DUP1 CALLDATASIZE SUB DUP2 ADD SWAP1 PUSH2 0x94 SWAP2 SWAP1 PUSH2 0x307 JUMP JUMPDEST PUSH2 0x111 JUMP JUMPDEST PUSH1 0x40 MLOAD PUSH2 0xA6 SWAP2 SWAP1 PUSH2 0x1AA JUMP JUMPDEST PUSH1 0x40 MLOAD DUP1 SWAP2 SUB SWAP1 RETURN JUMPDEST PUSH1 0x60 PUSH1 0x40 MLOAD PUSH1 0x20 ADD PUSH2 0xC0 SWAP1 PUSH2 0x43A JUMP JUMPDEST PUSH1 0x40 MLOAD PUSH1 0x20 DUP2 DUP4 SUB SUB DUP2 MSTORE SWAP1 PUSH1 0x40 MSTORE SWAP1 POP SWAP1 JUMP JUMPDEST PUSH1 0x60 PUSH1 0x40 MLOAD DUP1 PUSH1 0x40 ADD PUSH1 0x40 MSTORE DUP1 PUSH1 0x14 DUP2 MSTORE PUSH1 0x20 ADD PUSH32 0x3C626F64793E3C2F626F64793E3C2F68746D6C3E000000000000000000000000 DUP2 MSTORE POP SWAP1 POP SWAP1 JUMP JUMPDEST PUSH1 0x60 DUP2 PUSH1 0x40 MLOAD PUSH1 0x20 ADD PUSH2 0x124 SWAP2 SWAP1 PUSH2 0x55A2 JUMP JUMPDEST PUSH1 0x40 MLOAD PUSH1 0x20 DUP2 DUP4 SUB SUB DUP2 MSTORE SWAP1 PUSH1 0x40 MSTORE SWAP1 POP SWAP2 SWAP1 POP JUMP JUMPDEST PUSH0 DUP2 MLOAD SWAP1 POP SWAP2 SWAP1 POP JUMP JUMPDEST PUSH0 DUP3 DUP3 MSTORE PUSH1 0x20 DUP3 ADD SWAP1 POP SWAP3 SWAP2 POP POP JUMP JUMPDEST DUP3 DUP2 DUP4 MCOPY PUSH0 DUP4 DUP4 ADD MSTORE POP POP POP JUMP JUMPDEST PUSH0 PUSH1 0x1F NOT PUSH1 0x1F DUP4 ADD AND SWAP1 POP SWAP2 SWAP1 POP JUMP JUMPDEST PUSH0 PUSH2 0x17C DUP3 PUSH2 0x13A JUMP JUMPDEST PUSH2 0x186 DUP2 DUP6 PUSH2 0x144 JUMP JUMPDEST SWAP4 POP PUSH2 0x196 DUP2 DUP6 PUSH1 0x20 DUP7 ADD PUSH2 0x154 JUMP JUMPDEST PUSH2 0x19F DUP2 PUSH2 0x162 JUMP JUMPDEST DUP5 ADD SWAP2 POP POP SWAP3 SWAP2 POP POP JUMP JUMPDEST PUSH0 PUSH1 0x20 DUP3 ADD SWAP1 POP DUP2 DUP2 SUB PUSH0 DUP4 ADD MSTORE PUSH2 0x1C2 DUP2 DUP5 PUSH2 0x172 JUMP JUMPDEST SWAP1 POP SWAP3 SWAP2 POP POP JUMP JUMPDEST PUSH0 PUSH1 0x40 MLOAD SWAP1 POP SWAP1 JUMP JUMPDEST PUSH0 DUP1 REVERT JUMPDEST PUSH0 DUP1 REVERT JUMPDEST PUSH0 DUP1 REVERT JUMPDEST PUSH0 DUP1 REVERT JUMPDEST PUSH32 0x4E487B7100000000000000000000000000000000000000000000000000000000 PUSH0 MSTORE PUSH1 0x41 PUSH1 0x4 MSTORE PUSH1 0x24 PUSH0 REVERT JUMPDEST PUSH2 0x219 DUP3 PUSH2 0x162 JUMP JUMPDEST DUP2 ADD DUP2 DUP2 LT PUSH8 0xFFFFFFFFFFFFFFFF DUP3 GT OR ISZERO PUSH2 0x238 JUMPI PUSH2 0x237 PUSH2 0x1E3 JUMP JUMPDEST JUMPDEST DUP1 PUSH1 0x40 MSTORE POP POP POP JUMP JUMPDEST PUSH0 PUSH2 0x24A PUSH2 0x1CA JUMP JUMPDEST SWAP1 POP PUSH2 0x256 DUP3 DUP3 PUSH2 0x210 JUMP JUMPDEST SWAP2 SWAP1 POP JUMP JUMPDEST PUSH0 PUSH8 0xFFFFFFFFFFFFFFFF DUP3 GT ISZERO PUSH2 0x275 JUMPI PUSH2 0x274 PUSH2 0x1E3 JUMP JUMPDEST JUMPDEST PUSH2 0x27E DUP3 PUSH2 0x162 JUMP JUMPDEST SWAP1 POP PUSH1 0x20 DUP2 ADD SWAP1 POP SWAP2 SWAP1 POP JUMP JUMPDEST DUP3 DUP2 DUP4 CALLDATACOPY PUSH0 DUP4 DUP4 ADD MSTORE POP POP POP JUMP JUMPDEST PUSH0 PUSH2 0x2AB PUSH2 0x2A6 DUP5 PUSH2 0x25B JUMP JUMPDEST PUSH2 0x241 JUMP JUMPDEST SWAP1 POP DUP3 DUP2 MSTORE PUSH1 0x20 DUP2 ADD DUP5 DUP5 DUP5 ADD GT ISZERO PUSH2 0x2C7 JUMPI PUSH2 0x2C6 PUSH2 0x1DF JUMP JUMPDEST JUMPDEST PUSH2 0x2D2 DUP5 DUP3 DUP6 PUSH2 0x28B JUMP JUMPDEST POP SWAP4 SWAP3 POP POP POP JUMP JUMPDEST PUSH0 DUP3 PUSH1 0x1F DUP4 ADD SLT PUSH2 0x2EE JUMPI PUSH2 0x2ED PUSH2 0x1DB JUMP JUMPDEST JUMPDEST DUP2 CALLDATALOAD PUSH2 0x2FE DUP5 DUP3 PUSH1 0x20 DUP7 ADD PUSH2 0x299 JUMP JUMPDEST SWAP2 POP POP SWAP3 SWAP2 POP POP JUMP JUMPDEST PUSH0 PUSH1 0x20 DUP3 DUP5 SUB SLT ISZERO PUSH2 0x31C JUMPI PUSH2 0x31B PUSH2 0x1D3 JUMP JUMPDEST JUMPDEST PUSH0 DUP3 ADD CALLDATALOAD PUSH8 0xFFFFFFFFFFFFFFFF DUP2 GT ISZERO PUSH2 0x339 JUMPI PUSH2 0x338 PUSH2 0x1D7 JUMP JUMPDEST JUMPDEST PUSH2 0x345 DUP5 DUP3 DUP6 ADD PUSH2 0x2DA JUMP JUMPDEST SWAP2 POP POP SWAP3 SWAP2 POP POP JUMP JUMPDEST PUSH0 DUP2 SWAP1 POP SWAP3 SWAP2 POP POP JUMP JUMPDEST PUSH32 0x3C7376672077696474683D2736333027206865696768743D2736333027207669 PUSH0 DUP3 ADD MSTORE PUSH32 0x6577426F783D2730203020363330203633302720786D6C6E733D27687474703A PUSH1 0x20 DUP3 ADD MSTORE PUSH32 0x2F2F7777772E77332E6F72672F323030302F73766727207374796C653D277769 PUSH1 0x40 DUP3 ADD MSTORE PUSH32 0x6474683A2033363070783B206865696768743A2033363070783B206F76657266 PUSH1 0x60 DUP3 ADD MSTORE PUSH32 0x6C6F773A2068696464656E3B273E3C2F7376673E000000000000000000000000 PUSH1 0x80 DUP3 ADD MSTORE POP JUMP JUMPDEST PUSH0 PUSH2 0x424 PUSH1 0x94 DUP4 PUSH2 0x34E JUMP JUMPDEST SWAP2 POP PUSH2 0x42F DUP3 PUSH2 0x358 JUMP JUMPDEST PUSH1 0x94 DUP3 ADD SWAP1 POP SWAP2 SWAP1 POP JUMP JUMPDEST PUSH0 PUSH2 0x444 DUP3 PUSH2 0x418 JUMP JUMPDEST SWAP2 POP DUP2 SWAP1 POP SWAP2 SWAP1 POP JUMP JUMPDEST PUSH32 0x3C21646F63747970652068746D6C3E3C68746D6C206C616E673D656E3E3C6D65 PUSH0 DUP3 ADD MSTORE PUSH32 0x746120636861727365743D7574662D383E3C7469746C653E496E766572746562 PUSH1 0x20 DUP3 ADD MSTORE PUSH32 0x7261746573202300000000000000000000000000000000000000000000000000 PUSH1 0x40 DUP3 ADD MSTORE POP JUMP JUMPDEST PUSH0 PUSH2 0x4CE PUSH1 0x47 DUP4 PUSH2 0x34E JUMP JUMPDEST SWAP2 POP PUSH2 0x4D9 DUP3 PUSH2 0x44E JUMP JUMPDEST PUSH1 0x47 DUP3 ADD SWAP1 POP SWAP2 SWAP1 POP JUMP JUMPDEST PUSH0 PUSH2 0x4EE DUP3 PUSH2 0x13A JUMP JUMPDEST PUSH2 0x4F8 DUP2 DUP6 PUSH2 0x34E JUMP JUMPDEST SWAP4 POP PUSH2 0x508 DUP2 DUP6 PUSH1 0x20 DUP7 ADD PUSH2 0x154 JUMP JUMPDEST DUP1 DUP5 ADD SWAP2 POP POP SWAP3 SWAP2 POP POP JUMP JUMPDEST PUSH32 0x20627920416E64726577204D69746368656C6C203C2F7469746C653E3C736372 PUSH0 DUP3 ADD MSTORE PUSH32 0x6970743E6C657420636F6C6F724E616D65733D5B7B6E616D653A274372696D73 PUSH1 0x20 DUP3 ADD MSTORE PUSH32 0x6F6E272C636F6C6F723A2723386530643030277D2C7B6E616D653A274D6F7373 PUSH1 0x40 DUP3 ADD MSTORE PUSH32 0x272C636F6C6F723A2723633863363939277D2C7B6E616D653A274D69646E6967 PUSH1 0x60 DUP3 ADD MSTORE PUSH32 0x6874272C636F6C6F723A2723303631343263277D2C7B6E616D653A274D616765 PUSH1 0x80 DUP3 ADD MSTORE PUSH32 0x6E7461272C636F6C6F723A2723633732323663277D2C7B6E616D653A27536361 PUSH1 0xA0 DUP3 ADD MSTORE PUSH32 0x726C6574272C636F6C6F723A2723373430303030277D2C7B6E616D653A275461 PUSH1 0xC0 DUP3 ADD MSTORE PUSH32 0x757065272C636F6C6F723A2723383737623564277D2C7B6E616D653A2753616E PUSH1 0xE0 DUP3 ADD MSTORE PUSH32 0x64272C636F6C6F723A2723653864326139277D2C7B6E616D653A274F6E797827 PUSH2 0x100 DUP3 ADD MSTORE PUSH32 0x2C636F6C6F723A2723313231353164277D2C7B6E616D653A2750617374656C27 PUSH2 0x120 DUP3 ADD MSTORE PUSH32 0x2C636F6C6F723A2723633462663935277D2C7B6E616D653A2750696E6B272C63 PUSH2 0x140 DUP3 ADD MSTORE PUSH32 0x6F6C6F723A2723643332353837277D2C7B6E616D653A274F6C697665272C636F PUSH2 0x160 DUP3 ADD MSTORE PUSH32 0x6C6F723A2723633563616239277D2C7B6E616D653A27536C617465272C636F6C PUSH2 0x180 DUP3 ADD MSTORE PUSH32 0x6F723A2723313731623139277D2C7B6E616D653A2752756279272C636F6C6F72 PUSH2 0x1A0 DUP3 ADD MSTORE PUSH32 0x3A2723626332633065277D2C7B6E616D653A274D61726F6F6E272C636F6C6F72 PUSH2 0x1C0 DUP3 ADD MSTORE PUSH32 0x3A2723373930323133277D2C7B6E616D653A275465616C272C636F6C6F723A27 PUSH2 0x1E0 DUP3 ADD MSTORE PUSH32 0x23313332653262277D2C7B6E616D653A2742757267756E6479272C636F6C6F72 PUSH2 0x200 DUP3 ADD MSTORE PUSH32 0x3A2723393532383332277D2C7B6E616D653A27416D626572272C636F6C6F723A PUSH2 0x220 DUP3 ADD MSTORE PUSH32 0x2723656236353231277D2C7B6E616D653A2749766F7279272C636F6C6F723A27 PUSH2 0x240 DUP3 ADD MSTORE PUSH32 0x23653364366337277D2C7B6E616D653A27536E6F77272C636F6C6F723A272366 PUSH2 0x260 DUP3 ADD MSTORE PUSH32 0x3765626533277D2C7B6E616D653A274E617679272C636F6C6F723A2723303030 PUSH2 0x280 DUP3 ADD MSTORE PUSH32 0x333236277D2C7B6E616D653A274C696E656E272C636F6C6F723A272365646564 PUSH2 0x2A0 DUP3 ADD MSTORE PUSH32 0x6465277D2C7B6E616D653A27417368272C636F6C6F723A272364373261326627 PUSH2 0x2C0 DUP3 ADD MSTORE PUSH32 0x7D2C7B6E616D653A27436F616C272C636F6C6F723A2723646364376337277D2C PUSH2 0x2E0 DUP3 ADD MSTORE PUSH32 0x7B6E616D653A2752757374272C636F6C6F723A2723643764396335277D2C7B6E PUSH2 0x300 DUP3 ADD MSTORE PUSH32 0x616D653A27456D6572616C64272C636F6C6F723A2723303036623362277D2C7B PUSH2 0x320 DUP3 ADD MSTORE PUSH32 0x6E616D653A27417A757265272C636F6C6F723A2723303037666666277D2C7B6E PUSH2 0x340 DUP3 ADD MSTORE PUSH32 0x616D653A2748617A656C272C636F6C6F723A2723306231353166277D2C7B6E61 PUSH2 0x360 DUP3 ADD MSTORE PUSH32 0x6D653A274379616E272C636F6C6F723A2723303066666666277D2C7B6E616D65 PUSH2 0x380 DUP3 ADD MSTORE PUSH32 0x3A27466F72657374272C636F6C6F723A2723323238623232277D2C7B6E616D65 PUSH2 0x3A0 DUP3 ADD MSTORE PUSH32 0x3A2743686573746E7574272C636F6C6F723A2723393534353335277D2C7B6E61 PUSH2 0x3C0 DUP3 ADD MSTORE PUSH32 0x6D653A2742726F6E7A65272C636F6C6F723A2723636437663332277D2C7B6E61 PUSH2 0x3E0 DUP3 ADD MSTORE PUSH32 0x6D653A27476F6C64272C636F6C6F723A2723666664373030277D2C7B6E616D65 PUSH2 0x400 DUP3 ADD MSTORE PUSH32 0x3A275465616C272C636F6C6F723A2723303038303830277D2C7B6E616D653A27 PUSH2 0x420 DUP3 ADD MSTORE PUSH32 0x436F62616C74272C636F6C6F723A2723303034376162277D2C7B6E616D653A27 PUSH2 0x440 DUP3 ADD MSTORE PUSH32 0x4265696765272C636F6C6F723A2723663566356463277D2C7B6E616D653A2749 PUSH2 0x460 DUP3 ADD MSTORE PUSH32 0x6E6469676F272C636F6C6F723A2723346230303832277D2C7B6E616D653A2746 PUSH2 0x480 DUP3 ADD MSTORE PUSH32 0x61776E272C636F6C6F723A2723653662656666277D2C7B6E616D653A27536162 PUSH2 0x4A0 DUP3 ADD MSTORE PUSH32 0x6C65272C636F6C6F723A2723626261613937277D2C7B6E616D653A27536B7927 PUSH2 0x4C0 DUP3 ADD MSTORE PUSH32 0x2C636F6C6F723A2723383763656562277D2C7B6E616D653A275461776E79272C PUSH2 0x4E0 DUP3 ADD MSTORE PUSH32 0x636F6C6F723A2723636435373030277D2C7B6E616D653A274A616465272C636F PUSH2 0x500 DUP3 ADD MSTORE PUSH32 0x6C6F723A2723303041383642277D2C7B6E616D653A274F6273696469616E272C PUSH2 0x520 DUP3 ADD MSTORE PUSH32 0x636F6C6F723A2723303030303030277D2C7B6E616D653A27436F70706572272C PUSH2 0x540 DUP3 ADD MSTORE PUSH32 0x636F6C6F723A2723623837333333277D2C7B6E616D653A274C696D65272C636F PUSH2 0x560 DUP3 ADD MSTORE PUSH32 0x6C6F723A2723303066663030277D2C7B6E616D653A274F6365616E272C636F6C PUSH2 0x580 DUP3 ADD MSTORE PUSH32 0x6F723A2723346139366164277D2C7B6E616D653A274D696E74272C636F6C6F72 PUSH2 0x5A0 DUP3 ADD MSTORE PUSH32 0x3A2723336562343839277D2C7B6E616D653A275361707068697265272C636F6C PUSH2 0x5C0 DUP3 ADD MSTORE PUSH32 0x6F723A2723306635326261277D2C7B6E616D653A27537465656C272C636F6C6F PUSH2 0x5E0 DUP3 ADD MSTORE PUSH32 0x723A2723343638326234277D2C7B6E616D653A275371756964272C636F6C6F72 PUSH2 0x600 DUP3 ADD MSTORE PUSH32 0x3A2723383641353943277D2C7B6E616D653A27436572756C65616E272C636F6C PUSH2 0x620 DUP3 ADD MSTORE PUSH32 0x6F723A2723303037626137277D2C7B6E616D653A2749766F7279272C636F6C6F PUSH2 0x640 DUP3 ADD MSTORE PUSH32 0x723A2723666666666630277D2C7B6E616D653A27437265616D272C636F6C6F72 PUSH2 0x660 DUP3 ADD MSTORE PUSH32 0x3A2723666666646430277D2C7B6E616D653A27506F77646572272C636F6C6F72 PUSH2 0x680 DUP3 ADD MSTORE PUSH32 0x3A2723623065306536277D2C7B6E616D653A274D696E74272C636F6C6F723A27 PUSH2 0x6A0 DUP3 ADD MSTORE PUSH32 0x23393866663938277D2C7B6E616D653A274E617679272C636F6C6F723A272330 PUSH2 0x6C0 DUP3 ADD MSTORE PUSH32 0x3030303830277D2C7B6E616D653A274F6C697665272C636F6C6F723A27233830 PUSH2 0x6E0 DUP3 ADD MSTORE PUSH32 0x38303030277D2C7B6E616D653A2745626F6E79272C636F6C6F723A2723353535 PUSH2 0x700 DUP3 ADD MSTORE PUSH32 0x643530277D5D2C636F6C6F72733D5B5B27386530643030272C27376130613030 PUSH2 0x720 DUP3 ADD MSTORE PUSH32 0x272C27613330653030272C27363630393030272C27396461333332272C273937 PUSH2 0x740 DUP3 ADD MSTORE PUSH32 0x39633330272C27623562623361272C27636262643532272C2763326233336127 PUSH2 0x760 DUP3 ADD MSTORE PUSH32 0x2C27616235663465272C27613135623461272C27353636383436272C27373361 PUSH2 0x780 DUP3 ADD MSTORE PUSH32 0x376139272C27623739373662272C27653164396332275D2C5B27633863363939 PUSH2 0x7A0 DUP3 ADD MSTORE PUSH32 0x272C27633463323932272C27636263383935272C27326336643431272C273262 PUSH2 0x7C0 DUP3 ADD MSTORE PUSH32 0x36393366272C27326236653430272C27356661353935272C2736306133393327 PUSH2 0x7E0 DUP3 ADD MSTORE PUSH32 0x2C27386533663161272C27386133643139272C27633232643362272C27396662 PUSH2 0x800 DUP3 ADD MSTORE PUSH32 0x343664272C27326131363136272C27633038303437275D2C5B27303631343263 PUSH2 0x820 DUP3 ADD MSTORE PUSH32 0x272C27303731363331272C27303631343264272C27303531323239272C276532 PUSH2 0x840 DUP3 ADD MSTORE PUSH32 0x64326163272C27653364346231272C27653364356235272C2761366231356427 PUSH2 0x860 DUP3 ADD MSTORE PUSH32 0x2C27613461663561272C27353638303437272C27353437653435272C27653861 PUSH2 0x880 DUP3 ADD MSTORE PUSH32 0x653737272C27613737643464272C27623134343364272C27323736363837275D PUSH2 0x8A0 DUP3 ADD MSTORE PUSH32 0x2C5B27633732323663272C27636432333666272C27633732333664272C276335 PUSH2 0x8C0 DUP3 ADD MSTORE PUSH32 0x32303661272C27626261643236272C27626561663237272C2762396162323727 PUSH2 0x8E0 DUP3 ADD MSTORE PUSH32 0x2C27343537613131272C27343737653131272C27326635313737272C27333135 PUSH2 0x900 DUP3 ADD MSTORE PUSH32 0x343763272C27633234313937272C27643439366265272C27363139626137272C PUSH2 0x920 DUP3 ADD MSTORE PUSH32 0x27626162633966275D2C5B27373430303030272C27376130303030272C273730 PUSH2 0x940 DUP3 ADD MSTORE PUSH32 0x30313031272C27373530313031272C27356439393861272C2735663962386327 PUSH2 0x960 DUP3 ADD MSTORE PUSH32 0x2C27623638643037272C27626139303037272C27623538643038272C27356339 PUSH2 0x980 DUP3 ADD MSTORE PUSH32 0x393861272C27643963666139272C27643963666136272C27336537323261272C PUSH2 0x9A0 DUP3 ADD MSTORE PUSH32 0x27393937393263275D2C5B27383737623564272C27383437393563272C273839 PUSH2 0x9C0 DUP3 ADD MSTORE PUSH32 0x37633564272C27653363353661272C27653263323635272C2765336336366427 PUSH2 0x9E0 DUP3 ADD MSTORE PUSH32 0x2C27633462616136272C27633962666163272C27323632653132272C27323432 PUSH2 0xA00 DUP3 ADD MSTORE PUSH32 0x633131272C27366438313533272C27383134663036272C27363430363133272C PUSH2 0xA20 DUP3 ADD MSTORE PUSH32 0x27346538303933275D2C5B27653864326139272C27656164336139272C276561 PUSH2 0xA40 DUP3 ADD MSTORE PUSH32 0x64356165272C27653763666132272C27653864316136272C2765386433616227 PUSH2 0xA60 DUP3 ADD MSTORE PUSH32 0x2C27623632303165272C27623332313165272C27336637393966272C27343037 PUSH2 0xA80 DUP3 ADD MSTORE PUSH32 0x373963272C27613439323238272C27613038653237272C27356536643333272C PUSH2 0xAA0 DUP3 ADD MSTORE PUSH32 0x27353936383331275D2C5B27313231353164272C27313031323139272C273065 PUSH2 0xAC0 DUP3 ADD MSTORE PUSH32 0x31303136272C27636562333162272C27636262313161272C2763376164316127 PUSH2 0xAE0 DUP3 ADD MSTORE PUSH32 0x2C27376630623235272C27373530613231272C27626537313133272C27623436 PUSH2 0xB00 DUP3 ADD MSTORE PUSH32 0x633133272C27333937373438272C27636234623436272C27343038313735272C PUSH2 0xB20 DUP3 ADD MSTORE PUSH32 0x27643764393862275D2C5B27633462663935272C27633863343964272C276363 PUSH2 0xB40 DUP3 ADD MSTORE PUSH32 0x63386134272C27356137383064272C27353236653063272C2735363734306227 PUSH2 0xB60 DUP3 ADD MSTORE PUSH32 0x2C27373939333431272C27376539613432272C27613438383563272C27613638 PUSH2 0xB80 DUP3 ADD MSTORE PUSH32 0x633634272C27616462323739272C27616361663833272C27633863313438272C PUSH2 0xBA0 DUP3 ADD MSTORE PUSH32 0x27626338663264275D2C5B27643332353837272C27646434303939272C276430 PUSH2 0xBC0 DUP3 ADD MSTORE PUSH32 0x32353836272C27646132663930272C27653663323262272C2765616339343827 PUSH2 0xBE0 DUP3 ADD MSTORE PUSH32 0x2C27366337653237272C27373938633262272C27653664323734272C27663566 PUSH2 0xC00 DUP3 ADD MSTORE PUSH32 0x356635272C27616235643134275D2C5B27633563616239272C27636163666266 PUSH2 0xC20 DUP3 ADD MSTORE PUSH32 0x272C27633063366233272C27633663646237272C27383230303330272C273761 PUSH2 0xC40 DUP3 ADD MSTORE PUSH32 0x30303264272C27356238613363272C27353738333361272C2763323966303027 PUSH2 0xC60 DUP3 ADD MSTORE PUSH32 0x2C27346531623166272C27326434633330272C27383562323835275D2C5B2731 PUSH2 0xC80 DUP3 ADD MSTORE PUSH32 0x3731623139272C27323632633239272C27313331363134272C27323332393236 PUSH2 0xCA0 DUP3 ADD MSTORE PUSH32 0x272C27613931343032272C27613231313031272C27636131363032272C276430 PUSH2 0xCC0 DUP3 ADD MSTORE PUSH32 0x39353134272C27636339323134272C27653961393230272C2733613632316627 PUSH2 0xCE0 DUP3 ADD MSTORE PUSH32 0x2C27376261313764272C27653665316134275D2C5B27626332633065272C2762 PUSH2 0xD00 DUP3 ADD MSTORE PUSH32 0x3232363061272C27616433363166272C27323634653636272C27326135623739 PUSH2 0xD20 DUP3 ADD MSTORE PUSH32 0x272C27316433653533272C27663065306233272C27633961323636272C276331 PUSH2 0xD40 DUP3 ADD MSTORE PUSH32 0x39333465272C27636461373730272C27373138333163272C2737633866316527 PUSH2 0xD60 DUP3 ADD MSTORE PUSH32 0x2C27663065306233272C27663365386338275D2C5B27373930323133272C2736 PUSH2 0xD80 DUP3 ADD MSTORE PUSH32 0x3930323131272C27373430363137272C27373430323133272C27623138643336 PUSH2 0xDA0 DUP3 ADD MSTORE PUSH32 0x272C27616338383335272C27613438323332272C27646364396236272C276436 PUSH2 0xDC0 DUP3 ADD MSTORE PUSH32 0x64326139272C27646264386238272C27333432333334272C2733663034313727 PUSH2 0xDE0 DUP3 ADD MSTORE PUSH32 0x2C27383763646265272C27633034303762275D2C5B27313332653262272C2730 PUSH2 0xE00 DUP3 ADD MSTORE PUSH32 0x6632343232272C27313733363332272C27633062313164272C27623661363162 PUSH2 0xE20 DUP3 ADD MSTORE PUSH32 0x272C27323737303364272C27323536613361272C27306535363837272C273130 PUSH2 0xE40 DUP3 ADD MSTORE PUSH32 0x35663934272C27633532633131272C27623232383130272C2764393834373327 PUSH2 0xE60 DUP3 ADD MSTORE PUSH32 0x2C27613438323332272C27366161383165272C27376563623939275D2C5B2739 PUSH2 0xE80 DUP3 ADD MSTORE PUSH32 0x3532383332272C27383132323263272C27393732313264272C27393039643535 PUSH2 0xEA0 DUP3 ADD MSTORE PUSH32 0x272C27393261313466272C27383238663464272C27666666616637272C276666 PUSH2 0xEC0 DUP3 ADD MSTORE PUSH32 0x66666666272C27623739373564272C27626461303662272C2736303932353127 PUSH2 0xEE0 DUP3 ADD MSTORE PUSH32 0x2C27373836633738272C27653638646238272C27396163616439275D2C5B2765 PUSH2 0xF00 DUP3 ADD MSTORE PUSH32 0x6236353231272C27656437363362272C27653036333234272C27633734363138 PUSH2 0xF20 DUP3 ADD MSTORE PUSH32 0x272C27626634343138272C27636634303063272C27613536613332272C276134 PUSH2 0xF40 DUP3 ADD MSTORE PUSH32 0x36393332272C27643763333134272C27646563623162272C2731313164366627 PUSH2 0xF60 DUP3 ADD MSTORE PUSH32 0x2C27613662636331272C27383630663231272C27326233373036275D2C5B2765 PUSH2 0xF80 DUP3 ADD MSTORE PUSH32 0x3364366337272C27656565366464272C27653064336332272C27656164666431 PUSH2 0xFA0 DUP3 ADD MSTORE PUSH32 0x272C27633030323264272C27623630323263272C27636130323331272C273732 PUSH2 0xFC0 DUP3 ADD MSTORE PUSH32 0x31353433272C27356131313336272C27376461323964272C2738356138613327 PUSH2 0xFE0 DUP3 ADD MSTORE PUSH32 0x2C27316434323630272C27316233653561272C27656238356337272C27383534 PUSH2 0x1000 DUP3 ADD MSTORE PUSH32 0x633863275D2C5B27663765626533272C27663966316562272C27663765386466 PUSH2 0x1020 DUP3 ADD MSTORE PUSH32 0x272C27663865626533272C27303130333035272C27303430643135272C273037 PUSH2 0x1040 DUP3 ADD MSTORE PUSH32 0x31643533272C27303631383436272C27323430643132272C2731613039306427 PUSH2 0x1060 DUP3 ADD MSTORE PUSH32 0x2C27663765626533272C27303130333035272C27303731643533272C27323430 PUSH2 0x1080 DUP3 ADD MSTORE PUSH32 0x643132272C27653361633335272C27653562323433272C27366132323237272C PUSH2 0x10A0 DUP3 ADD MSTORE PUSH32 0x27623535653430272C27333834613334272C27623561303163275D2C5B273030 PUSH2 0x10C0 DUP3 ADD MSTORE PUSH32 0x30333236272C27303030343333272C27303530303166272C2764306136323227 PUSH2 0x10E0 DUP3 ADD MSTORE PUSH32 0x2C27633739653233272C27613530303038272C27616130333063272C27636365 PUSH2 0x1100 DUP3 ADD MSTORE PUSH32 0x336439272C27643465376466272C27363338343966272C27373138666138272C PUSH2 0x1120 DUP3 ADD MSTORE PUSH32 0x27643938646330272C27303032386463272C27356437643637272C2762336334 PUSH2 0x1140 DUP3 ADD MSTORE PUSH32 0x3738275D2C5B27656465646465272C27653865386434272C2766316631653527 PUSH2 0x1160 DUP3 ADD MSTORE PUSH32 0x2C27653664323666272C27653864363764272C27653764333734272C27396637 PUSH2 0x1180 DUP3 ADD MSTORE PUSH32 0x653437272C27393737393434272C27656465386138272C27656665616166272C PUSH2 0x11A0 DUP3 ADD MSTORE PUSH32 0x27616337653961272C27656463346436272C27626133663666275D2C5B276437 PUSH2 0x11C0 DUP3 ADD MSTORE PUSH32 0x32613266272C27643933363362272C27636532373264272C2764323238326527 PUSH2 0x11E0 DUP3 ADD MSTORE PUSH32 0x2C27343839316432272C27343238656431272C27353339306336272C27653366 PUSH2 0x1200 DUP3 ADD MSTORE PUSH32 0x326436272C27656166356530272C27643865396338272C27643738643534272C PUSH2 0x1220 DUP3 ADD MSTORE PUSH32 0x27306631643664272C27366662343664272C27643038323938275D2C5B276463 PUSH2 0x1240 DUP3 ADD MSTORE PUSH32 0x64376337272C27643864326330272C27646564626365272C2764366430626427 PUSH2 0x1260 DUP3 ADD MSTORE PUSH32 0x2C27643063396234272C27643463646235272C27383830343138272C27393130 PUSH2 0x1280 DUP3 ADD MSTORE PUSH32 0x343161272C27343738313761272C27343337613734272C27623362643732272C PUSH2 0x12A0 DUP3 ADD MSTORE PUSH32 0x27323534333435272C27643738376135272C27643539633831275D2C5B276437 PUSH2 0x12C0 DUP3 ADD MSTORE PUSH32 0x64396335272C27643564376331272C27643964626337272C2764396462633727 PUSH2 0x12E0 DUP3 ADD MSTORE PUSH32 0x2C27623332623434272C27623632623434272C27623932643436272C27633538 PUSH2 0x1300 DUP3 ADD MSTORE PUSH32 0x343831272C27633738383835272C27633638343830275D2C5B27393336623030 PUSH2 0x1320 DUP3 ADD MSTORE PUSH32 0x272C27396537343030272C27386636393030272C27383636333033272C276362 PUSH2 0x1340 DUP3 ADD MSTORE PUSH32 0x35336136272C27636535616139272C27633734333964272C2763653535613727 PUSH2 0x1360 DUP3 ADD MSTORE PUSH32 0x2C27366130333430272C27373230343436272C27613731313138272C27623531 PUSH2 0x1380 DUP3 ADD MSTORE PUSH32 0x323161272C27313932333132272C27643561623030272C27353935313132272C PUSH2 0x13A0 DUP3 ADD MSTORE PUSH32 0x27383739643839275D2C5B27323837363265272C27323737323264272C273265 PUSH2 0x13C0 DUP3 ADD MSTORE PUSH32 0x38353335272C27323236643238272C27326437623334272C2733303765333627 PUSH2 0x13E0 DUP3 ADD MSTORE PUSH32 0x2C27666631373639272C27666631663664272C27666664656536272C27666665 PUSH2 0x1400 DUP3 ADD MSTORE PUSH32 0x356563272C27303032623964272C27336539653039272C27663766663665272C PUSH2 0x1420 DUP3 ADD MSTORE PUSH32 0x27383432643564275D2C5B27306231353166272C27313031663264272C273035 PUSH2 0x1440 DUP3 ADD MSTORE PUSH32 0x30613066272C27303431313166272C27366239373434272C2737376139346327 PUSH2 0x1460 DUP3 ADD MSTORE PUSH32 0x2C27623761643337272C27616461333334272C27363735353261272C27633765 PUSH2 0x1480 DUP3 ADD MSTORE PUSH32 0x366630272C27643939316637272C27336630613266275D2C5B27613964633937 PUSH2 0x14A0 DUP3 ADD MSTORE PUSH32 0x272C27626465346166272C27623765326137272C27613864393936272C276230 PUSH2 0x14C0 DUP3 ADD MSTORE PUSH32 0x64663966272C27616564646136272C27343364323532272C2733386363343727 PUSH2 0x14E0 DUP3 ADD MSTORE PUSH32 0x2C27623939646131272C27616433353632272C27633264656236272C27326534 PUSH2 0x1500 DUP3 ADD MSTORE PUSH32 0x313362272C27616462393361272C27393561646136275D2C5B27383261356130 PUSH2 0x1520 DUP3 ADD MSTORE PUSH32 0x272C27366539363930272C27376461313962272C27383061333965272C273866 PUSH2 0x1540 DUP3 ADD MSTORE PUSH32 0x61656139272C27383461343966272C27393539353835272C2739623962386327 PUSH2 0x1560 DUP3 ADD MSTORE PUSH32 0x2C27643464396366272C27636664346339272C27396561353533272C27373039 PUSH2 0x1580 DUP3 ADD MSTORE PUSH32 0x303137272C27326534343136275D2C5B27616539613663272C27623361303735 PUSH2 0x15A0 DUP3 ADD MSTORE PUSH32 0x272C27613639313565272C27393131643161272C27383631623138272C276130 PUSH2 0x15C0 DUP3 ADD MSTORE PUSH32 0x32313163272C27323534303536272C27316633353437272C2736353662353027 PUSH2 0x15E0 DUP3 ADD MSTORE PUSH32 0x2C27366237313536272C27623135623564272C27623435663631272C27346432 PUSH2 0x1600 DUP3 ADD MSTORE PUSH32 0x643334272C27356133353364275D2C5B27626136363662272C27626536663734 PUSH2 0x1620 DUP3 ADD MSTORE PUSH32 0x272C27623936343661272C27626536303636272C27623335363563272C276331 PUSH2 0x1640 DUP3 ADD MSTORE PUSH32 0x37363762272C27313630633066272C27306430373039272C2763626165396127 PUSH2 0x1660 DUP3 ADD MSTORE PUSH32 0x2C27643062366134272C27383430643262272C27346633333137272C27626536 PUSH2 0x1680 DUP3 ADD MSTORE PUSH32 0x333030272C27346631633432275D2C5B27633539653063272C27623739323062 PUSH2 0x16A0 DUP3 ADD MSTORE PUSH32 0x272C27643461393063272C27626339383135272C27636161313063272C276362 PUSH2 0x16C0 DUP3 ADD MSTORE PUSH32 0x61323130272C27396231623138272C27396231623138272C2733303330333127 PUSH2 0x16E0 DUP3 ADD MSTORE PUSH32 0x2C27333833383339272C27303036653266272C27303035633238272C27336535 PUSH2 0x1700 DUP3 ADD MSTORE PUSH32 0x393631272C27343436313661275D2C5B27326133623262272C27323633363237 PUSH2 0x1720 DUP3 ADD MSTORE PUSH32 0x272C27326634323330272C27626330653032272C27623630653032272C276363 PUSH2 0x1740 DUP3 ADD MSTORE PUSH32 0x31343030272C27653339663434272C27653239633430272C2766356533666627 PUSH2 0x1760 DUP3 ADD MSTORE PUSH32 0x2C27663865626666272C27336438326666272C27343238346666272C27313530 PUSH2 0x1780 DUP3 ADD MSTORE PUSH32 0x363138272C27313230353135275D2C5B27303033323833272C27303033373866 PUSH2 0x17A0 DUP3 ADD MSTORE PUSH32 0x272C27306332653634272C27306233343734272C27323734633836272C273033 PUSH2 0x17C0 DUP3 ADD MSTORE PUSH32 0x33363836272C27306232663662272C27306433363737272C2762366137333727 PUSH2 0x17E0 DUP3 ADD MSTORE PUSH32 0x2C27613939623332272C27633264396332272C27636164656361272C27306633 PUSH2 0x1800 DUP3 ADD MSTORE PUSH32 0x343465272C27306332623430272C27333038386135272C27326538323965275D PUSH2 0x1820 DUP3 ADD MSTORE PUSH32 0x2C5B27643963666131272C27643363373932272C27646464346163272C273230 PUSH2 0x1840 DUP3 ADD MSTORE PUSH32 0x35326434272C27316534656338272C27323635646538272C2762663364373627 PUSH2 0x1860 DUP3 ADD MSTORE PUSH32 0x2C27623233383664272C27636339613432272C27636239353361272C27383139 PUSH2 0x1880 DUP3 ADD MSTORE PUSH32 0x333339272C27386561323366272C27646564656465272C27653665366536275D PUSH2 0x18A0 DUP3 ADD MSTORE PUSH32 0x2C5B27316631393132272C27323731663136272C27316131353066272C273162 PUSH2 0x18C0 DUP3 ADD MSTORE PUSH32 0x31353065272C27313731323064272C27313331303062272C2734393864633727 PUSH2 0x18E0 DUP3 ADD MSTORE PUSH32 0x2C27346639306339272C27346638656334272C27643962323038272C27643461 PUSH2 0x1900 DUP3 ADD MSTORE PUSH32 0x653038272C27636661613037275D2C5B27314536414538272C27313736334445 PUSH2 0x1920 DUP3 ADD MSTORE PUSH32 0x272C27323436666530272C27313736346439272C27326135333134272C273236 PUSH2 0x1940 DUP3 ADD MSTORE PUSH32 0x34613132272C27373835303139272C27366534613137272C2736333530623627 PUSH2 0x1960 DUP3 ADD MSTORE PUSH32 0x2C27363835366238272C27383531613534272C27373731383463272C27613438 PUSH2 0x1980 DUP3 ADD MSTORE PUSH32 0x613135272C27396538343130272C27396633613034272C27393533373034275D PUSH2 0x19A0 DUP3 ADD MSTORE PUSH32 0x2C5B27636364316164272C27633863646137272C27643464386261272C276430 PUSH2 0x19C0 DUP3 ADD MSTORE PUSH32 0x64356234272C27633763653963272C27636664346230272C2735326161616127 PUSH2 0x19E0 DUP3 ADD MSTORE PUSH32 0x2C27353139653965272C27623830373137272C27616330363134272C27623939 PUSH2 0x1A00 DUP3 ADD MSTORE PUSH32 0x383535272C27396563326235272C27396338623934272C27326231363230275D PUSH2 0x1A20 DUP3 ADD MSTORE PUSH32 0x2C5B27326439326230272C27326639376236272C27323838666166272C273961 PUSH2 0x1A40 DUP3 ADD MSTORE PUSH32 0x37633332272C27393637393331272C27386537333265272C2763393161303027 PUSH2 0x1A60 DUP3 ADD MSTORE PUSH32 0x2C27626431393030272C27346239323039272C27343538363039272C27633934 PUSH2 0x1A80 DUP3 ADD MSTORE PUSH32 0x633237272C27643463373236272C27386136613735272C27313630653130275D PUSH2 0x1AA0 DUP3 ADD MSTORE PUSH32 0x2C5B27316632393531272C27313932323433272C27323232643539272C276635 PUSH2 0x1AC0 DUP3 ADD MSTORE PUSH32 0x64313537272C27663664343635272C27663664353661272C2738303461306327 PUSH2 0x1AE0 DUP3 ADD MSTORE PUSH32 0x2C27373534333062272C27333131663132272C27326431633131272C27653836 PUSH2 0x1B00 DUP3 ADD MSTORE PUSH32 0x353132272C27656536663230272C27666666376337272C27666666616436275D PUSH2 0x1B20 DUP3 ADD MSTORE PUSH32 0x2C5B27616138303563272C27616538373635272C27616538643666272C273534 PUSH2 0x1B40 DUP3 ADD MSTORE PUSH32 0x32383430272C27356132623435272C27343832333337272C2762313037323627 PUSH2 0x1B60 DUP3 ADD MSTORE PUSH32 0x2C27613630373234272C27343137373038272C27353238333165272C27373261 PUSH2 0x1B80 DUP3 ADD MSTORE PUSH32 0x323737272C27303032616432272C27373736623961272C27633964313931275D PUSH2 0x1BA0 DUP3 ADD MSTORE PUSH32 0x2C5B27313331613133272C27306631353066272C27313531653135272C273161 PUSH2 0x1BC0 DUP3 ADD MSTORE PUSH32 0x32333161272C27646262353662272C27646362383666272C2764656263373827 PUSH2 0x1BE0 DUP3 ADD MSTORE PUSH32 0x2C27643362303639272C27633463343761272C27636163613836272C27636463 PUSH2 0x1C00 DUP3 ADD MSTORE PUSH32 0x643865272C27343834313430272C27336533383337272C27313531653135272C PUSH2 0x1C20 DUP3 ADD MSTORE PUSH32 0x27626637363435272C27663265336334275D2C5B27613665336138272C276165 PUSH2 0x1C40 DUP3 ADD MSTORE PUSH32 0x65356166272C27623165376233272C27623565386237272C2761313739363127 PUSH2 0x1C60 DUP3 ADD MSTORE PUSH32 0x2C27393336653538272C27393937333563272C27393637313561272C27636530 PUSH2 0x1C80 DUP3 ADD MSTORE PUSH32 0x373435272C27633530373433272C27323035613234272C27316435333231272C PUSH2 0x1CA0 DUP3 ADD MSTORE PUSH32 0x27666134326131272C27643261343030272C27353539316239272C2731303065 PUSH2 0x1CC0 DUP3 ADD MSTORE PUSH32 0x3166275D2C5B27646263376136272C27646463616163272C2765316364616427 PUSH2 0x1CE0 DUP3 ADD MSTORE PUSH32 0x2C27306431323238272C27306130653166272C27313031363332272C27643730 PUSH2 0x1D00 DUP3 ADD MSTORE PUSH32 0x323030272C27653030343030272C27633330373034272C27343836393463272C PUSH2 0x1D20 DUP3 ADD MSTORE PUSH32 0x27343436343438272C27343035653434272C27643662333262272C2764376235 PUSH2 0x1D40 DUP3 ADD MSTORE PUSH32 0x3264272C27313232393438272C27313032363431275D2C5B2735373739363827 PUSH2 0x1D60 DUP3 ADD MSTORE PUSH32 0x2C27356538323730272C27346537333631272C27343837303563272C27353437 PUSH2 0x1D80 DUP3 ADD MSTORE PUSH32 0x333633272C27396364313934272C27613664363966272C27613964376132272C PUSH2 0x1DA0 DUP3 ADD MSTORE PUSH32 0x27626164666234272C27613364343962272C27653663373534272C2765313134 PUSH2 0x1DC0 DUP3 ADD MSTORE PUSH32 0x3030272C27373630303030275D2C5B27653364656230272C2765376533626227 PUSH2 0x1DE0 DUP3 ADD MSTORE PUSH32 0x2C27653665316237272C27653164626138272C27653565316238272C27653965 PUSH2 0x1E00 DUP3 ADD MSTORE PUSH32 0x346261272C27626663343761272C27633663613836272C27646564313665272C PUSH2 0x1E20 DUP3 ADD MSTORE PUSH32 0x27653064333736272C27646537643764272C27633962613636272C2762313737 PUSH2 0x1E40 DUP3 ADD MSTORE PUSH32 0x3631272C27626462333863275D2C5B27346638343635272C2734643830363227 PUSH2 0x1E60 DUP3 ADD MSTORE PUSH32 0x2C27356339393735272C27363661333830272C27393962386339272C27393462 PUSH2 0x1E80 DUP3 ADD MSTORE PUSH32 0x356337272C27616663376435272C27353236383630272C27343835623534272C PUSH2 0x1EA0 DUP3 ADD MSTORE PUSH32 0x27626261343838272C27633362303937272C27343832363261272C2735653331 PUSH2 0x1EC0 DUP3 ADD MSTORE PUSH32 0x3336272C27626132373237272C27326434396230272C27623038356264272C27 PUSH2 0x1EE0 DUP3 ADD MSTORE PUSH32 0x623039393461275D2C5B27346135636666272C27356336636666272C27373037 PUSH2 0x1F00 DUP3 ADD MSTORE PUSH32 0x656666272C27353136316630272C27353236336666272C27346135636666272C PUSH2 0x1F20 DUP3 ADD MSTORE PUSH32 0x27663764623435272C27663865323632272C27663764623362272C2766356334 PUSH2 0x1F40 DUP3 ADD MSTORE PUSH32 0x6538272C27663362396534272C27663964636631272C27663765366334272C27 PUSH2 0x1F60 DUP3 ADD MSTORE PUSH32 0x386161633330272C27333633363339272C27623939643634275D2C5B27646364 PUSH2 0x1F80 DUP3 ADD MSTORE PUSH32 0x636335272C27643964396266272C27653865386439272C27643164316233272C PUSH2 0x1FA0 DUP3 ADD MSTORE PUSH32 0x27626536643931272C27633638306130272C27623936343862272C2734393864 PUSH2 0x1FC0 DUP3 ADD MSTORE PUSH32 0x6133272C27343938646133272C27336636303162272C27333435303136272C27 PUSH2 0x1FE0 DUP3 ADD MSTORE PUSH32 0x373630303038272C27626338643137272C27333031663137272C276238363031 PUSH2 0x2000 DUP3 ADD MSTORE PUSH32 0x37275D2C5B27323336323634272C27323035393562272C27326137363739272C PUSH2 0x2020 DUP3 ADD MSTORE PUSH32 0x27333038353838272C27666636366131272C27666638356234272C2766663939 PUSH2 0x2040 DUP3 ADD MSTORE PUSH32 0x6330272C27666635633961272C27393262383763272C27396362663838272C27 PUSH2 0x2060 DUP3 ADD MSTORE PUSH32 0x663731343234272C27663732363334272C27346432663262272C276465373434 PUSH2 0x2080 DUP3 ADD MSTORE PUSH32 0x63272C27666365336564275D2C5B27303231393932272C27303332306235272C PUSH2 0x20A0 DUP3 ADD MSTORE PUSH32 0x27303231393864272C27616136303065272C27393735363063272C2764303737 PUSH2 0x20C0 DUP3 ADD MSTORE PUSH32 0x3131272C27336539643832272C27343661663931272C27656265386536272C27 PUSH2 0x20E0 DUP3 ADD MSTORE PUSH32 0x663566326630275D2C5B27366662313537272C27376262383635272C27363561 PUSH2 0x2100 DUP3 ADD MSTORE PUSH32 0x383464272C27356439613437272C27623830303030272C27613330303030272C PUSH2 0x2120 DUP3 ADD MSTORE PUSH32 0x27636330303030272C27303232663765272C27303132363635272C2730643065 PUSH2 0x2140 DUP3 ADD MSTORE PUSH32 0x3136272C27313731393237272C27643435363964272C27653332383030272C27 PUSH2 0x2160 DUP3 ADD MSTORE PUSH32 0x653639613030272C27356363376337275D2C5B27643163323934272C27646163 PUSH2 0x2180 DUP3 ADD MSTORE PUSH32 0x656139272C27653064366238272C27636562653864272C27356237313731272C PUSH2 0x21A0 DUP3 ADD MSTORE PUSH32 0x27363437643764272C27366438383838272C27633731313030272C2761333065 PUSH2 0x21C0 DUP3 ADD MSTORE PUSH32 0x3030272C27623830663030272C27383639633630272C27373738623535272C27 PUSH2 0x21E0 DUP3 ADD MSTORE PUSH32 0x636139353434272C27643261343630275D2C5B27383763666530272C27376463 PUSH2 0x2200 DUP3 ADD MSTORE PUSH32 0x636465272C27366463366439272C27396564396536272C27363939323862272C PUSH2 0x2220 DUP3 ADD MSTORE PUSH32 0x27373139383931272C27383961396134272C27376461313962272C2731653632 PUSH2 0x2240 DUP3 ADD MSTORE PUSH32 0x6437272C27323836636532272C27316235396335272C27313634396132272C27 PUSH2 0x2260 DUP3 ADD MSTORE PUSH32 0x613339383030272C27386638353030275D2C5B27373661343766272C27383561 PUSH2 0x2280 DUP3 ADD MSTORE PUSH32 0x643864272C27393162363938272C27396462656134272C27303330643537272C PUSH2 0x22A0 DUP3 ADD MSTORE PUSH32 0x27303431323736272C27303531343861272C27303631373964272C2763666264 PUSH2 0x22C0 DUP3 ADD MSTORE PUSH32 0x3735272C27643563353836272C27613636363032272C27636137643032272C27 PUSH2 0x22E0 DUP3 ADD MSTORE PUSH32 0x323635313265272C27326536313337272C27643464396436272C276466653265 PUSH2 0x2300 DUP3 ADD MSTORE PUSH32 0x30275D2C5B27303231303435272C27303331383633272C27303431643737272C PUSH2 0x2320 DUP3 ADD MSTORE PUSH32 0x27303432313862272C27313037643461272C27306536633430272C2731333930 PUSH2 0x2340 DUP3 ADD MSTORE PUSH32 0x3536272C27313561323631272C27323762333834272C27326363393935272C27 PUSH2 0x2360 DUP3 ADD MSTORE PUSH32 0x336563363565272C27353263623665272C27386337343132272C276132383631 PUSH2 0x2380 DUP3 ADD MSTORE PUSH32 0x35272C27373639653133272C27383962373135275D2C5B27656464656235272C PUSH2 0x23A0 DUP3 ADD MSTORE PUSH32 0x27663365396365272C27656264396164272C27653764343963272C2734333665 PUSH2 0x23C0 DUP3 ADD MSTORE PUSH32 0x3230272C27346437653235272C27333034663137272C27653338633132272C27 PUSH2 0x23E0 DUP3 ADD MSTORE PUSH32 0x656439363164272C27663061373432272C27623861323763272C276531336634 PUSH2 0x2400 DUP3 ADD MSTORE PUSH32 0x34272C27343233373235272C27623035663035275D2C5B27313933353733272C PUSH2 0x2420 DUP3 ADD MSTORE PUSH32 0x27316433653836272C27323134363937272C27323534656137272C2735643863 PUSH2 0x2440 DUP3 ADD MSTORE PUSH32 0x6139272C27373961306239272C27366339376232272C27626462646235272C27 PUSH2 0x2460 DUP3 ADD MSTORE PUSH32 0x636663666339272C27623262326139272C27623838363864272C276333393839 PUSH2 0x2480 DUP3 ADD MSTORE PUSH32 0x65272C27376638393836272C27373637663763275D2C5B27363939626163272C PUSH2 0x24A0 DUP3 ADD MSTORE PUSH32 0x27376261386237272C27383962316265272C27376635613034272C2739653730 PUSH2 0x24C0 DUP3 ADD MSTORE PUSH32 0x3035272C27623137653036272C27303830623064272C27313031353139272C27 PUSH2 0x24E0 DUP3 ADD MSTORE PUSH32 0x313732303236272C27386437653030272C27613339333030272C273161343739 PUSH2 0x2500 DUP3 ADD MSTORE PUSH32 0x30272C27323035366163272C27393538333363272C27613435323030272C2764 PUSH2 0x2520 DUP3 ADD MSTORE PUSH32 0x6536663562272C27396631353030275D2C5B27346636643937272C2735663765 PUSH2 0x2540 DUP3 ADD MSTORE PUSH32 0x6162272C27366338396232272C27373939346239272C27333735343231272C27 PUSH2 0x2560 DUP3 ADD MSTORE PUSH32 0x333034393164272C27343336373238272C27346437363265272C273765326238 PUSH2 0x2580 DUP3 ADD MSTORE PUSH32 0x30272C27393733333939272C27316631613231272C27326232343265272C2731 PUSH2 0x25A0 DUP3 ADD MSTORE PUSH32 0x6633613838272C27623138333431272C27633436626261272C27366339313633 PUSH2 0x25C0 DUP3 ADD MSTORE PUSH32 0x275D2C5B27313132623733272C27313333303831272C27306632353632272C27 PUSH2 0x25E0 DUP3 ADD MSTORE PUSH32 0x316538376333272C27316337616230272C27316638396337272C273532613538 PUSH2 0x2600 DUP3 ADD MSTORE PUSH32 0x38272C27356261653931272C27346139363763272C27343834303638272C2734 PUSH2 0x2620 DUP3 ADD MSTORE PUSH32 0x6334343666272C27343433633632272C27616263666164272C27376439316163 PUSH2 0x2640 DUP3 ADD MSTORE PUSH32 0x272C27333638363766275D2C5B27343035333565272C27346136303664272C27 PUSH2 0x2660 DUP3 ADD MSTORE PUSH32 0x336134623535272C27353336623739272C27383238373266272C273932393733 PUSH2 0x2680 DUP3 ADD MSTORE PUSH32 0x35272C27613161363361272C27616662353430272C27313832653161272C2732 PUSH2 0x26A0 DUP3 ADD MSTORE PUSH32 0x3334333236272C27623862313732272C27633162623835272C27393636363536 PUSH2 0x26C0 DUP3 ADD MSTORE PUSH32 0x272C27633562313262272C27616135373330272C27626131633135275D2C5B27 PUSH2 0x26E0 DUP3 ADD MSTORE PUSH32 0x386364343965272C27613664656234272C27623565336330272C273739636438 PUSH2 0x2700 DUP3 ADD MSTORE PUSH32 0x65272C27633365396364272C27636366306363272C27646666366466272C2737 PUSH2 0x2720 DUP3 ADD MSTORE PUSH32 0x3563353631272C27386163643739272C27646262643537272C27623637313234 PUSH2 0x2740 DUP3 ADD MSTORE PUSH32 0x272C27653366326436272C27653064396462275D2C5B27333537643736272C27 PUSH2 0x2760 DUP3 ADD MSTORE PUSH32 0x343339643934272C27336438663837272C27333137323663272C273233353032 PUSH2 0x2780 DUP3 ADD MSTORE PUSH32 0x31272C27326336353239272C27333337343266272C27333735643231272C2734 PUSH2 0x27A0 DUP3 ADD MSTORE PUSH32 0x3737393261272C27353038383330272C27386638343230272C27336334343739 PUSH2 0x27C0 DUP3 ADD MSTORE PUSH32 0x272C27396532373463272C27336634373436275D2C5B27646264346332272C27 PUSH2 0x27E0 DUP3 ADD MSTORE PUSH32 0x663065646535272C27643263396232272C27653965346438272C276231626436 PUSH2 0x2800 DUP3 ADD MSTORE PUSH32 0x66272C27626263353831272C27396161383464272C27623162643666272C2739 PUSH2 0x2820 DUP3 ADD MSTORE PUSH32 0x3462333965272C27613062626138272C27376361323838272C27356237393636 PUSH2 0x2840 DUP3 ADD MSTORE PUSH32 0x272C27363938633736272C27646261383563272C27653262383739275D2C5B27 PUSH2 0x2860 DUP3 ADD MSTORE PUSH32 0x616438313239272C27633639343266272C27643039653339272C276434613634 PUSH2 0x2880 DUP3 ADD MSTORE PUSH32 0x39272C27316633343436272C27323533663535272C27326334393633272C2733 PUSH2 0x28A0 DUP3 ADD MSTORE PUSH32 0x3235343731272C27626635303335272C27636135623366272C27363037326437 PUSH2 0x28C0 DUP3 ADD MSTORE PUSH32 0x272C27376338626465272C27643161626261272C27646262646339272C273438 PUSH2 0x28E0 DUP3 ADD MSTORE PUSH32 0x33653565272C27353534393666275D2C5B27633462643939272C276263623338 PUSH2 0x2900 DUP3 ADD MSTORE PUSH32 0x61272C27643263646231272C27326234633931272C27333435616164272C2733 PUSH2 0x2920 DUP3 ADD MSTORE PUSH32 0x3836326263272C27616232333238272C27626132363262272C27636232613266 PUSH2 0x2940 DUP3 ADD MSTORE PUSH32 0x272C27356433383735272C27353733353665272C27373834393937272C273530 PUSH2 0x2960 DUP3 ADD MSTORE PUSH32 0x30643135272C27363931313162272C27616632663030272C2763633336303027 PUSH2 0x2980 DUP3 ADD MSTORE PUSH32 0x5D2C5B27633733323030272C27653033383030272C27663533643030272C2766 PUSH2 0x29A0 DUP3 ADD MSTORE PUSH32 0x6635373166272C27366361313665272C27356639353631272C27383361663834 PUSH2 0x29C0 DUP3 ADD MSTORE PUSH32 0x272C27386662373930272C27303031663830272C27303031663761272C273030 PUSH2 0x29E0 DUP3 ADD MSTORE PUSH32 0x31393636272C27316531383137272C27326532353233272C2764346439633727 PUSH2 0x2A00 DUP3 ADD MSTORE PUSH32 0x2C27653365366462275D2C5B27343734393566272C27336433663531272C2735 PUSH2 0x2A20 DUP3 ADD MSTORE PUSH32 0x3835613734272C27363036333830272C27373939373531272C27383961393630 PUSH2 0x2A40 DUP3 ADD MSTORE PUSH32 0x272C27393362303664272C27393837363334272C27613738333339272C276236 PUSH2 0x2A60 DUP3 ADD MSTORE PUSH32 0x38653365272C27646561623137272C27333534623166272C2762386233393427 PUSH2 0x2A80 DUP3 ADD MSTORE PUSH32 0x2C27636534653030275D2C5B27653665626462272C27653465396438272C2764 PUSH2 0x2AA0 DUP3 ADD MSTORE PUSH32 0x6265326361272C27643164626264272C27613865336230272C27633165626337 PUSH2 0x2AC0 DUP3 ADD MSTORE PUSH32 0x272C27643166306435272C27626539623030272C27653062373030272C276635 PUSH2 0x2AE0 DUP3 ADD MSTORE PUSH32 0x63383030272C27663239313033272C27666439643064272C2731393332386127 PUSH2 0x2B00 DUP3 ADD MSTORE PUSH32 0x2C27316333383962275D2C5B27646264346530272C27643764306464272C2763 PUSH2 0x2B20 DUP3 ADD MSTORE PUSH32 0x6463346434272C27633362386363272C27316631383139272C27326532333235 PUSH2 0x2B40 DUP3 ADD MSTORE PUSH32 0x272C27336132633265272C27343533353338272C27376135383132272C273865 PUSH2 0x2B60 DUP3 ADD MSTORE PUSH32 0x36363135272C27346534333637272C27356435313762272C2733373464333827 PUSH2 0x2B80 DUP3 ADD MSTORE PUSH32 0x2C27343435663435272C27326232663732272C27326232663732275D2C5B2731 PUSH2 0x2BA0 DUP3 ADD MSTORE PUSH32 0x3133653736272C27313434623866272C27313735356131272C27313935656233 PUSH2 0x2BC0 DUP3 ADD MSTORE PUSH32 0x272C27633463636230272C27643164376331272C27646164666364272C276533 PUSH2 0x2BE0 DUP3 ADD MSTORE PUSH32 0x65376461272C27376562383864272C27393663356132272C2736323563336627 PUSH2 0x2C00 DUP3 ADD MSTORE PUSH32 0x2C27373036393438272C27326632623232272C27353439326164272C27643036 PUSH2 0x2C20 DUP3 ADD MSTORE PUSH32 0x353030275D2C5B27376336313365272C27383836613434272C27393537353462 PUSH2 0x2C40 DUP3 ADD MSTORE PUSH32 0x272C27613338303532272C27663564343939272C27663463663930272C276632 PUSH2 0x2C60 DUP3 ADD MSTORE PUSH32 0x63373764272C27666163663239272C27663963613130272C2765666330303627 PUSH2 0x2C80 DUP3 ADD MSTORE PUSH32 0x2C27383032373266272C27323332343233272C27356562613737275D2C5B2730 PUSH2 0x2CA0 DUP3 ADD MSTORE PUSH32 0x3930643135272C27313231623262272C27313832333339272C27316632633437 PUSH2 0x2CC0 DUP3 ADD MSTORE PUSH32 0x272C27303832393630272C27303932663731272C27306233373834272C276533 PUSH2 0x2CE0 DUP3 ADD MSTORE PUSH32 0x30323030272C27666630653061272C27663264366465272C2765626331643127 PUSH2 0x2D00 DUP3 ADD MSTORE PUSH32 0x2C27363130623034272C27363166613437272C27303030376430272C27656461 PUSH2 0x2D20 DUP3 ADD MSTORE PUSH32 0x363735275D2C5B27313331653336272C27316232613462272C27323033333561 PUSH2 0x2D40 DUP3 ADD MSTORE PUSH32 0x272C27323533623661272C27326134333739272C27343536396666272C273333 PUSH2 0x2D60 DUP3 ADD MSTORE PUSH32 0x35636666272C27363438363664272C27373239373763272C2761326233393227 PUSH2 0x2D80 DUP3 ADD MSTORE PUSH32 0x2C27616462633966272C27626235633131272C27636436343133275D2C5B2763 PUSH2 0x2DA0 DUP3 ADD MSTORE PUSH32 0x3039333238272C27626138653236272C27643561353334272C27643961633435 PUSH2 0x2DC0 DUP3 ADD MSTORE PUSH32 0x272C27646362343536272C27343334383866272C27346535346136272C273862 PUSH2 0x2DE0 DUP3 ADD MSTORE PUSH32 0x34393030272C27376134313030272C27643663666334272C2764656438636627 PUSH2 0x2E00 DUP3 ADD MSTORE PUSH32 0x2C27353439323932272C27363461366136275D2C5B27613863326363272C2762 PUSH2 0x2E20 DUP3 ADD MSTORE PUSH32 0x6664326439272C27636364626531272C27643865346538272C27656465646363 PUSH2 0x2E40 DUP3 ADD MSTORE PUSH32 0x272C27656165616333272C27653465346234272C27646664666134272C273165 PUSH2 0x2E60 DUP3 ADD MSTORE PUSH32 0x32343331272C27323732663366272C27646333633339272C2765303534353227 PUSH2 0x2E80 DUP3 ADD MSTORE PUSH32 0x2C27396362616465272C27616536613432272C27656463666233275D2C5B2762 PUSH2 0x2EA0 DUP3 ADD MSTORE PUSH32 0x6439323862272C27633339643937272C27636261396134272C27373836663664 PUSH2 0x2EC0 DUP3 ADD MSTORE PUSH32 0x272C27386238313765272C27393438623839272C27636139373536272C276334 PUSH2 0x2EE0 DUP3 ADD MSTORE PUSH32 0x38643435272C27353239383539272C27363061393637272C2731613530333027 PUSH2 0x2F00 DUP3 ADD MSTORE PUSH32 0x2C27323336633430272C27366137613931272C27626531333264272C27643236 PUSH2 0x2F20 DUP3 ADD MSTORE PUSH32 0x303765272C27376633353766272C27303031336233272C27346431643062275D PUSH2 0x2F40 DUP3 ADD MSTORE PUSH32 0x2C5B27653865626530272C27653465376461272C27646264666364272C276431 PUSH2 0x2F60 DUP3 ADD MSTORE PUSH32 0x64376331272C27323933386666272C27343735346666272C2735633637666627 PUSH2 0x2F80 DUP3 ADD MSTORE PUSH32 0x2C27653834633030272C27666635633061272C27373961383030272C27393263 PUSH2 0x2FA0 DUP3 ADD MSTORE PUSH32 0x633030272C27636661653030272C27663563633030272C27326431376163272C PUSH2 0x2FC0 DUP3 ADD MSTORE PUSH32 0x27623638353035275D2C5B27643664656233272C27653065366336272C276538 PUSH2 0x2FE0 DUP3 ADD MSTORE PUSH32 0x65636434272C27643164616161272C27666166636436272C2766646665656327 PUSH2 0x3000 DUP3 ADD MSTORE PUSH32 0x2C27663866626336272C27626163323866272C27636564346230272C27633663 PUSH2 0x3020 DUP3 ADD MSTORE PUSH32 0x636133272C27383162383936272C27393763346138272C27393239323639272C PUSH2 0x3040 DUP3 ADD MSTORE PUSH32 0x27623864363934275D2C5B27656265366363272C27653865326334272C276532 PUSH2 0x3060 DUP3 ADD MSTORE PUSH32 0x64626236272C27663466316532272C27663966386630272C2762356533383227 PUSH2 0x3080 DUP3 ADD MSTORE PUSH32 0x2C27633465383962272C27636565636163272C27333036383330272C27336137 PUSH2 0x30A0 DUP3 ADD MSTORE PUSH32 0x653361272C27393933363133272C27666631633030275D2C5B27663263376230 PUSH2 0x30C0 DUP3 ADD MSTORE PUSH32 0x272C27663163316137272C27656562353936272C27663664616361272C276562 PUSH2 0x30E0 DUP3 ADD MSTORE PUSH32 0x61383834272C27373561323432272C27383862383531272C2735643633376427 PUSH2 0x3100 DUP3 ADD MSTORE PUSH32 0x2C27363836663864272C27643461343531272C27636436303238272C27306630 PUSH2 0x3120 DUP3 ADD MSTORE PUSH32 0x663161272C27633731643061275D2C5B27656265366434272C27656465396439 PUSH2 0x3140 DUP3 ADD MSTORE PUSH32 0x272C27656165356432272C27663165646466272C27343032643139272C273432 PUSH2 0x3160 DUP3 ADD MSTORE PUSH32 0x32663161272C27343633313162272C27623564363236272C2762626461326627 PUSH2 0x3180 DUP3 ADD MSTORE PUSH32 0x2C27633565303464272C27353737393030272C27353037303030272C27323432 PUSH2 0x31A0 DUP3 ADD MSTORE PUSH32 0x313064272C27663731393234275D2C5B27393838323634272C27613639333737 PUSH2 0x31C0 DUP3 ADD MSTORE PUSH32 0x272C27616539643834272C27623661363930272C27396633363234272C276237 PUSH2 0x31E0 DUP3 ADD MSTORE PUSH32 0x33663261272C27343835623734272C27353636643861272C2733653130313427 PUSH2 0x3200 DUP3 ADD MSTORE PUSH32 0x2C27353131353161272C27363434633361272C27373535383433272C27616438 PUSH2 0x3220 DUP3 ADD MSTORE PUSH32 0x393236272C27373235303030272C27306131663463272C27333631663133275D PUSH2 0x3240 DUP3 ADD MSTORE PUSH32 0x2C5B27306631383236272C27303630393066272C27313732353361272C273164 PUSH2 0x3260 DUP3 ADD MSTORE PUSH32 0x32653439272C27373138363833272C27376139303863272C2738353939393527 PUSH2 0x3280 DUP3 ADD MSTORE PUSH32 0x2C27393061323966272C27376562353635272C27386362643735272C27613737 PUSH2 0x32A0 DUP3 ADD MSTORE PUSH32 0x323133272C27623837653134272C27643934643332272C27643163666266272C PUSH2 0x32C0 DUP3 ADD MSTORE PUSH32 0x27616363353562272C27373930303063275D2C5B27646264656264272C276461 PUSH2 0x32E0 DUP3 ADD MSTORE PUSH32 0x64636331272C27653965616436272C27643464386231272C2763396233393927 PUSH2 0x3300 DUP3 ADD MSTORE PUSH32 0x2C27633561643931272C27633161383861272C27393462646164272C27396463 PUSH2 0x3320 DUP3 ADD MSTORE PUSH32 0x336234272C27616535333332272C27396534633265272C27633939346230272C PUSH2 0x3340 DUP3 ADD MSTORE PUSH32 0x27636661306261272C27643262313139272C27633461353137275D2C5B276366 PUSH2 0x3360 DUP3 ADD MSTORE PUSH32 0x61343030272C27663563343030272C27636361333030272C2766666365306127 PUSH2 0x3380 DUP3 ADD MSTORE PUSH32 0x2C27633763666334272C27643464616432272C27646665336464272C27313931 PUSH2 0x33A0 DUP3 ADD MSTORE PUSH32 0x393163272C27323632363262272C27383739353839272C27376534653030275D PUSH2 0x33C0 DUP3 ADD MSTORE PUSH32 0x2C5B27616230303030272C27636330303030272C27653030303030272C273737 PUSH2 0x33E0 DUP3 ADD MSTORE PUSH32 0x38316366272C27353936366335272C27363837336361272C2764653435623327 PUSH2 0x3400 DUP3 ADD MSTORE PUSH32 0x2C27653336336266272C27623562306462272C27636263376535272C27643930 PUSH2 0x3420 DUP3 ADD MSTORE PUSH32 0x353433272C27656630363463272C27643534613030272C27663535363030272C PUSH2 0x3440 DUP3 ADD MSTORE PUSH32 0x27313132333961272C27313432616238272C27373438313030272C2730633064 PUSH2 0x3460 DUP3 ADD MSTORE PUSH32 0x3064275D2C5B27663264366334272C27663064306263272C2765636335616327 PUSH2 0x3480 DUP3 ADD MSTORE PUSH32 0x2C27663865386465272C27633031353233272C27646331383239272C27623831 PUSH2 0x34A0 DUP3 ADD MSTORE PUSH32 0x343232272C27346636343931272C27353736643965272C27363137386138272C PUSH2 0x34C0 DUP3 ADD MSTORE PUSH32 0x27326232393264272C27666162383435272C27646238663835272C2738386134 PUSH2 0x34E0 DUP3 ADD MSTORE PUSH32 0x6335275D2C5B27613164656434272C27393764386366272C2762346534646327 PUSH2 0x3500 DUP3 ADD MSTORE PUSH32 0x2C27633365396533272C27373231303033272C27363330653033272C27386231 PUSH2 0x3520 DUP3 ADD MSTORE PUSH32 0x333034272C27663263396162272C27663965386463272C27653063326562272C PUSH2 0x3540 DUP3 ADD MSTORE PUSH32 0x27643962326536272C27616464626666272C27656262643061272C2766616164 PUSH2 0x3560 DUP3 ADD MSTORE PUSH32 0x6230272C27303030653837275D2C5B27376561333838272C2738356138386527 PUSH2 0x3580 DUP3 ADD MSTORE PUSH32 0x2C27393462333963272C27366439373738272C27383261623864272C27383561 PUSH2 0x35A0 DUP3 ADD MSTORE PUSH32 0x383865272C27366439373738272C27396662643966272C27393862393938272C PUSH2 0x35C0 DUP3 ADD MSTORE PUSH32 0x27613763336137272C27383633613135272C27376333363133272C2739323430 PUSH2 0x35E0 DUP3 ADD MSTORE PUSH32 0x3137275D2C5B27633636373266272C27643037303339272C2764383838356127 PUSH2 0x3600 DUP3 ADD MSTORE PUSH32 0x2C27643437633439272C27666366666661272C27653766666436272C27663366 PUSH2 0x3620 DUP3 ADD MSTORE PUSH32 0x666562272C27306430663066272C27326633373337272C27316332313231272C PUSH2 0x3640 DUP3 ADD MSTORE PUSH32 0x27666631393265272C27643965386666272C27353763613631275D2C5B273361 PUSH2 0x3660 DUP3 ADD MSTORE PUSH32 0x34653230272C27333634383165272C27346236353239272C2735363734326627 PUSH2 0x3680 DUP3 ADD MSTORE PUSH32 0x2C27343266663835272C27356366663935272C27333366663761272C27373066 PUSH2 0x36A0 DUP3 ADD MSTORE PUSH32 0x666132272C27616563373564272C27626264303736272C27633138643030272C PUSH2 0x36C0 DUP3 ADD MSTORE PUSH32 0x27653061353030272C27316234303166272C27313031633137272C2765386666 PUSH2 0x36E0 DUP3 ADD MSTORE PUSH32 0x3435272C27663730333537275D2C5B27383835383338272C2738323534333527 PUSH2 0x3700 DUP3 ADD MSTORE PUSH32 0x2C27396636373431272C27616537303437272C27666364623435272C27666465 PUSH2 0x3720 DUP3 ADD MSTORE PUSH32 0x303565272C27666364383336272C27303930363064272C27313330643163272C PUSH2 0x3740 DUP3 ADD MSTORE PUSH32 0x27316431333261272C27663765646635272C27663265336566272C2765333366 PUSH2 0x3760 DUP3 ADD MSTORE PUSH32 0x3033272C27666234643065275D2C5B27386238393831272C2739643962393527 PUSH2 0x3780 DUP3 ADD MSTORE PUSH32 0x2C27376637643736272C27613761356130272C27326132633331272C27333833 PUSH2 0x37A0 DUP3 ADD MSTORE PUSH32 0x623432272C27343234353464272C27346234663538272C27653665306462272C PUSH2 0x37C0 DUP3 ADD MSTORE PUSH32 0x27643563626333272C27646564356366272C27386362333235272C2761306362 PUSH2 0x37E0 DUP3 ADD MSTORE PUSH32 0x3261272C27643662333333272C27646162393434275D2C5B2765306533643427 PUSH2 0x3800 DUP3 ADD MSTORE PUSH32 0x2C27646264666365272C27643264376331272C27633963666234272C27363339 PUSH2 0x3820 DUP3 ADD MSTORE PUSH32 0x383665272C27383461653862272C27373761363831272C27353837333536272C PUSH2 0x3840 DUP3 ADD MSTORE PUSH32 0x27363338303630272C27366338633639272C27366163356163272C2737626363 PUSH2 0x3860 DUP3 ADD MSTORE PUSH32 0x6236272C27366431393333272C27313931623163275D2C5B2737343861383227 PUSH2 0x3880 DUP3 ADD MSTORE PUSH32 0x2C27383539393931272C27393061323962272C27396261626135272C27643961 PUSH2 0x38A0 DUP3 ADD MSTORE PUSH32 0x383866272C27653062386134272C27653563356233272C27306630643130272C PUSH2 0x38C0 DUP3 ADD MSTORE PUSH32 0x27323031633232272C27326132353264272C27666166376564272C2766366631 PUSH2 0x38E0 DUP3 ADD MSTORE PUSH32 0x6466272C27663265383132272C27393163376663275D2C5B2735633033303027 PUSH2 0x3900 DUP3 ADD MSTORE PUSH32 0x2C27376130343030272C27386630353030272C27353230333030272C27336430 PUSH2 0x3920 DUP3 ADD MSTORE PUSH32 0x323030272C27303830613061272C27313231373137272C27316232323232272C PUSH2 0x3940 DUP3 ADD MSTORE PUSH32 0x27653861643163272C27656262373333272C27663766376663272C2737646536 PUSH2 0x3960 DUP3 ADD MSTORE PUSH32 0x3534275D2C5B27643963393330272C27636662653236272C2762656165323327 PUSH2 0x3980 DUP3 ADD MSTORE PUSH32 0x2C27616339653230272C27316231633164272C27313431343135272C27323732 PUSH2 0x39A0 DUP3 ADD MSTORE PUSH32 0x393261272C27366137323262272C27376238353332272C27643464396334272C PUSH2 0x39C0 DUP3 ADD MSTORE PUSH32 0x27653465376461272C27633561343030272C27323934383336272C2733613264 PUSH2 0x39E0 DUP3 ADD MSTORE PUSH32 0x3465272C27363337393737275D2C5B27653065366630272C2764366465656227 PUSH2 0x3A00 DUP3 ADD MSTORE PUSH32 0x2C27633864326534272C27626163376465272C27306230663164272C27313131 PUSH2 0x3A20 DUP3 ADD MSTORE PUSH32 0x373263272C27313631653362272C27373539373363272C27383861663436272C PUSH2 0x3A40 DUP3 ADD MSTORE PUSH32 0x27393362393530272C27313833303234272C27323032343335272C2735393934 PUSH2 0x3A60 DUP3 ADD MSTORE PUSH32 0x3564275D2C5B27326235623761272C27333036353838272C2733353730393727 PUSH2 0x3A80 DUP3 ADD MSTORE PUSH32 0x2C27336137626136272C27643663666363272C27643263616336272C27656465 PUSH2 0x3AA0 DUP3 ADD MSTORE PUSH32 0x616538272C27623038313739272C27626239323862272C27633339663938272C PUSH2 0x3AC0 DUP3 ADD MSTORE PUSH32 0x27376461336337272C27386461656365272C27623863323366272C2763356365 PUSH2 0x3AE0 DUP3 ADD MSTORE PUSH32 0x3634275D2C5B27373437303239272C27366136363235272C2735623538323027 PUSH2 0x3B00 DUP3 ADD MSTORE PUSH32 0x2C27383838333330272C27393739323335272C27613661313361272C27666639 PUSH2 0x3B20 DUP3 ADD MSTORE PUSH32 0x396439272C27666661646531272C27666663326539272C27663735373364272C PUSH2 0x3B40 DUP3 ADD MSTORE PUSH32 0x27663836353466272C27663837363632272C27366535303264272C2738323565 PUSH2 0x3B60 DUP3 ADD MSTORE PUSH32 0x3335275D2C5B27666166306562272C27663765376465272C2766336461636527 PUSH2 0x3B80 DUP3 ADD MSTORE PUSH32 0x2C27656663656265272C27303633383534272C27303834623732272C27303935 PUSH2 0x3BA0 DUP3 ADD MSTORE PUSH32 0x383836272C27326464393664272C27323663663634272C27323362653563272C PUSH2 0x3BC0 DUP3 ADD MSTORE PUSH32 0x27316233633139272C27323735363234272C27323538343030272C2739363931 PUSH2 0x3BE0 DUP3 ADD MSTORE PUSH32 0x3030275D2C5B27313531663432272C27316432623564272C2732323332366427 PUSH2 0x3C00 DUP3 ADD MSTORE PUSH32 0x2C27323733613763272C27623131623039272C27396231373038272C27383831 PUSH2 0x3C20 DUP3 ADD MSTORE PUSH32 0x343037272C27616535626236272C27623937326330272C27633038306336272C PUSH2 0x3C40 DUP3 ADD MSTORE PUSH32 0x27323134643536272C27323735643638272C27326436613736275D2C5B273166 PUSH2 0x3C60 DUP3 ADD MSTORE PUSH32 0x35636666272C27306134626666272C27343737386666272C2733333639666627 PUSH2 0x3C80 DUP3 ADD MSTORE PUSH32 0x2C27653065366538272C27663366366636272C27643064396463272C27393966 PUSH2 0x3CA0 DUP3 ADD MSTORE PUSH32 0x663333272C27613366663437272C27396430303030272C27623830303030272C PUSH2 0x3CC0 DUP3 ADD MSTORE PUSH32 0x27383566356332272C27613166376430272C27316137313030272C2731383636 PUSH2 0x3CE0 DUP3 ADD MSTORE PUSH32 0x3030275D2C5B27313231343138272C27316131643233272C2732333237326627 PUSH2 0x3D00 DUP3 ADD MSTORE PUSH32 0x2C27373337653431272C27383739343463272C27393361323533272C27323735 PUSH2 0x3D20 DUP3 ADD MSTORE PUSH32 0x313236272C27326636313265272C27326131323161272C27626138636235272C PUSH2 0x3D40 DUP3 ADD MSTORE PUSH32 0x27363839376332272C27376461346361272C27646563326131272C2761626533 PUSH2 0x3D60 DUP3 ADD MSTORE PUSH32 0x6332272C27326435393637272C27376433633030272C27346132633631272C27 PUSH2 0x3D80 DUP3 ADD MSTORE PUSH32 0x623239343534275D2C5B27663566306635272C27663365646633272C27663766 PUSH2 0x3DA0 DUP3 ADD MSTORE PUSH32 0x336637272C27663766336637272C27323432643265272C27323232613262272C PUSH2 0x3DC0 DUP3 ADD MSTORE PUSH32 0x27653066323030272C27653966353030272C27366266663066272C2766663631 PUSH2 0x3DE0 DUP3 ADD MSTORE PUSH32 0x3033272C27346162616666272C27303064346139275D2C5B2762363130316227 PUSH2 0x3E00 DUP3 ADD MSTORE PUSH32 0x2C27636531323166272C27653131343231272C27306335326437272C27313836 PUSH2 0x3E20 DUP3 ADD MSTORE PUSH32 0x346632272C27326237316633272C27313861353934272C27316363346231272C PUSH2 0x3E40 DUP3 ADD MSTORE PUSH32 0x27316664366331272C27666664623437272C27666664653563272C2766666537 PUSH2 0x3E60 DUP3 ADD MSTORE PUSH32 0x3835272C27613430373838272C27633430386131272C27666635343936272C27 PUSH2 0x3E80 DUP3 ADD MSTORE PUSH32 0x386363333238275D2C5B27346136643962272C27356137666166272C27363838 PUSH2 0x3EA0 DUP3 ADD MSTORE PUSH32 0x616236272C27373539346264272C27383339666231272C27373539356139272C PUSH2 0x3EC0 DUP3 ADD MSTORE PUSH32 0x27363838626131272C27356538313937272C27616262616138272C2762646339 PUSH2 0x3EE0 DUP3 ADD MSTORE PUSH32 0x6261272C27613930303838272C27636330306133272C27636532343030272C27 PUSH2 0x3F00 DUP3 ADD MSTORE PUSH32 0x303332346666272C27636662333030272C27306531323136275D2C5B27663266 PUSH2 0x3F20 DUP3 ADD MSTORE PUSH32 0x376339272C27656466346238272C27653966326136272C27653565663935272C PUSH2 0x3F40 DUP3 ADD MSTORE PUSH32 0x27666665333239272C27666665373437272C27333235343033272C2734373736 PUSH2 0x3F60 DUP3 ADD MSTORE PUSH32 0x3034272C27656236653931272C27656538316130272C27313135373463272C27 PUSH2 0x3F80 DUP3 ADD MSTORE PUSH32 0x313436363561272C27626464623038272C27643466363133272C273062326437 PUSH2 0x3FA0 DUP3 ADD MSTORE PUSH32 0x35272C27616634363030275D2C5B27303030613962272C27303030636238272C PUSH2 0x3FC0 DUP3 ADD MSTORE PUSH32 0x27303030656363272C27303030666530272C27353062623864272C2735646330 PUSH2 0x3FE0 DUP3 ADD MSTORE PUSH32 0x3935272C27366363363966272C27376263636139272C27353530303866272C27 PUSH2 0x4000 DUP3 ADD MSTORE PUSH32 0x363230306133272C27333336613030272C27343538663030272C273062306330 PUSH2 0x4020 DUP3 ADD MSTORE PUSH32 0x64272C27663038326439272C27626533643030272C27343763623030275D2C5B PUSH2 0x4040 DUP3 ADD MSTORE PUSH32 0x27623062616136272C27616262366130272C27613662313961272C2763376365 PUSH2 0x4060 DUP3 ADD MSTORE PUSH32 0x6330272C27623062376139272C27653065366533272C27653265346533272C27 PUSH2 0x4080 DUP3 ADD MSTORE PUSH32 0x653665626538272C27653865646562272C27646565386533272C276162303731 PUSH2 0x40A0 DUP3 ADD MSTORE PUSH32 0x64272C27613230373162272C27396230383163272C27333133353262272C2732 PUSH2 0x40C0 DUP3 ADD MSTORE PUSH32 0x6333303237272C27393561373937272C27393861393961275D2C5B2764396465 PUSH2 0x40E0 DUP3 ADD MSTORE PUSH32 0x6436272C27643564626432272C27636264326336272C27633063396262272C27 PUSH2 0x4100 DUP3 ADD MSTORE PUSH32 0x623662666230272C27653664313330272C27653964363439272C276562646135 PUSH2 0x4120 DUP3 ADD MSTORE PUSH32 0x63272C27633538363838272C27643139666130272C27643761636165272C2736 PUSH2 0x4140 DUP3 ADD MSTORE PUSH32 0x3537303765272C27363862383330272C27643935373030272C27373933633564 PUSH2 0x4160 DUP3 ADD MSTORE PUSH32 0x275D2C5B27316431393231272C27323932333266272C27313431323137272C27 PUSH2 0x4180 DUP3 ADD MSTORE PUSH32 0x333332633361272C27336433353436272C27633062313231272C276431633032 PUSH2 0x41A0 DUP3 ADD MSTORE PUSH32 0x33272C27646363613265272C27643233623030272C27663534353030272C2763 PUSH2 0x41C0 DUP3 ADD MSTORE PUSH32 0x3263666264272C27643364646430275D5D3C2F7363726970743E000000000000 PUSH2 0x41E0 DUP3 ADD MSTORE POP JUMP JUMPDEST PUSH0 PUSH2 0x558B PUSH2 0x41FA DUP4 PUSH2 0x34E JUMP JUMPDEST SWAP2 POP PUSH2 0x5596 DUP3 PUSH2 0x514 JUMP JUMPDEST PUSH2 0x41FA DUP3 ADD SWAP1 POP SWAP2 SWAP1 POP JUMP JUMPDEST PUSH0 PUSH2 0x55AC DUP3 PUSH2 0x4C2 JUMP JUMPDEST SWAP2 POP PUSH2 0x55B8 DUP3 DUP5 PUSH2 0x4E4 JUMP JUMPDEST SWAP2 POP PUSH2 0x55C3 DUP3 PUSH2 0x557E JUMP JUMPDEST SWAP2 POP DUP2 SWAP1 POP SWAP3 SWAP2 POP POP JUMP INVALID LOG2 PUSH5 0x6970667358 0x22 SLT KECCAK256 NOT PUSH31 0x5CCD696561DF18EB2224D7EDAC6A03D9897CAEC6EA44B45E9069F81F56464 PUSH20 0x6F6C634300081A00330000000000000000000000 "
		},
		"gasEstimates": {
			"creation": {
				"codeDepositCost": "4404000",
				"executionCost": "5110",
				"totalCost": "4409110"
			},
			"external": {
				"getAnimFooter()": "infinite",
				"getAnimHeader(string)": "infinite",
				"getSVGforThumbnail()": "infinite"
			}
		},
		"methodIdentifiers": {
			"getAnimFooter()": "7899ff8f",
			"getAnimHeader(string)": "b6823613",
			"getSVGforThumbnail()": "3ec28bbe"
		}
	},
	"abi": [
		{
			"inputs": [],
			"name": "getAnimFooter",
			"outputs": [
				{
					"internalType": "string",
					"name": "",
					"type": "string"
				}
			],
			"stateMutability": "pure",
			"type": "function"
		},
		{
			"inputs": [
				{
					"internalType": "string",
					"name": "tokenId",
					"type": "string"
				}
			],
			"name": "getAnimHeader",
			"outputs": [
				{
					"internalType": "string",
					"name": "",
					"type": "string"
				}
			],
			"stateMutability": "pure",
			"type": "function"
		},
		{
			"inputs": [],
			"name": "getSVGforThumbnail",
			"outputs": [
				{
					"internalType": "string",
					"name": "",
					"type": "string"
				}
			],
			"stateMutability": "pure",
			"type": "function"
		}
	]
}