{
	"data": {
		"bytecode": {
			"linkReferences": {},
			"object": "6080604052348015600e575f80fd5b506104cf8061001c5f395ff3fe608060405234801561000f575f80fd5b5060043610610034575f3560e01c80637899ff8f14610038578063b682361314610056575b5f80fd5b610040610086565b60405161004d919061015a565b60405180910390f35b610070600480360381019061006b91906102b7565b6100c3565b60405161007d919061015a565b60405180910390f35b60606040518060400160405280601481526020017f3c626f64793e3c2f626f64793e3c2f68746d6c3e000000000000000000000000815250905090565b60606040516020016100d490610485565b6040516020818303038152906040529050919050565b5f81519050919050565b5f82825260208201905092915050565b8281835e5f83830152505050565b5f601f19601f8301169050919050565b5f61012c826100ea565b61013681856100f4565b9350610146818560208601610104565b61014f81610112565b840191505092915050565b5f6020820190508181035f8301526101728184610122565b905092915050565b5f604051905090565b5f80fd5b5f80fd5b5f80fd5b5f80fd5b7f4e487b71000000000000000000000000000000000000000000000000000000005f52604160045260245ffd5b6101c982610112565b810181811067ffffffffffffffff821117156101e8576101e7610193565b5b80604052505050565b5f6101fa61017a565b905061020682826101c0565b919050565b5f67ffffffffffffffff82111561022557610224610193565b5b61022e82610112565b9050602081019050919050565b828183375f83830152505050565b5f61025b6102568461020b565b6101f1565b9050828152602081018484840111156102775761027661018f565b5b61028284828561023b565b509392505050565b5f82601f83011261029e5761029d61018b565b5b81356102ae848260208601610249565b91505092915050565b5f602082840312156102cc576102cb610183565b5b5f82013567ffffffffffffffff8111156102e9576102e8610187565b5b6102f58482850161028a565b91505092915050565b5f81905092915050565b7f3c21646f637479706568746d6c3e3c68746d6c206c616e673d656e3e3c6d65745f8201527f6120636f6e74656e743d27746578742f68746d6c3b20636861727365743d555460208201527f462d3827687474702d65717569763d436f6e74656e742d547970653e3c6d657460408201527f6120636f6e74656e743d2777696474683d6465766963652d77696474682c696e60608201527f697469616c2d7363616c653d31276e616d653d76696577706f72743e3c6d657460808201527f6120636f6e74656e743d2769653d6564676527687474702d65717569763d582d60a08201527f55412d436f6d70617469626c653e3c6d65746120646576656c6f7065723d274160c08201527f6e64726577204d69746368656c6c273e3c7469746c653e50726f7a616320596f60e08201527f7574683c2f7469746c653e00000000000000000000000000000000000000000061010082015250565b5f61046e61010b836102fe565b915061047982610308565b61010b82019050919050565b5f61048f82610461565b915081905091905056fea2646970667358221220436754aa4588b849a9d69d03b417f3bf903baa204dba1ec9f3199b205aec121464736f6c634300081a0033",
			"opcodes": "PUSH1 0x80 PUSH1 0x40 MSTORE CALLVALUE DUP1 ISZERO PUSH1 0xE JUMPI PUSH0 DUP1 REVERT JUMPDEST POP PUSH2 0x4CF DUP1 PUSH2 0x1C PUSH0 CODECOPY PUSH0 RETURN INVALID PUSH1 0x80 PUSH1 0x40 MSTORE CALLVALUE DUP1 ISZERO PUSH2 0xF JUMPI PUSH0 DUP1 REVERT JUMPDEST POP PUSH1 0x4 CALLDATASIZE LT PUSH2 0x34 JUMPI PUSH0 CALLDATALOAD PUSH1 0xE0 SHR DUP1 PUSH4 0x7899FF8F EQ PUSH2 0x38 JUMPI DUP1 PUSH4 0xB6823613 EQ PUSH2 0x56 JUMPI JUMPDEST PUSH0 DUP1 REVERT JUMPDEST PUSH2 0x40 PUSH2 0x86 JUMP JUMPDEST PUSH1 0x40 MLOAD PUSH2 0x4D SWAP2 SWAP1 PUSH2 0x15A JUMP JUMPDEST PUSH1 0x40 MLOAD DUP1 SWAP2 SUB SWAP1 RETURN JUMPDEST PUSH2 0x70 PUSH1 0x4 DUP1 CALLDATASIZE SUB DUP2 ADD SWAP1 PUSH2 0x6B SWAP2 SWAP1 PUSH2 0x2B7 JUMP JUMPDEST PUSH2 0xC3 JUMP JUMPDEST PUSH1 0x40 MLOAD PUSH2 0x7D SWAP2 SWAP1 PUSH2 0x15A JUMP JUMPDEST PUSH1 0x40 MLOAD DUP1 SWAP2 SUB SWAP1 RETURN JUMPDEST PUSH1 0x60 PUSH1 0x40 MLOAD DUP1 PUSH1 0x40 ADD PUSH1 0x40 MSTORE DUP1 PUSH1 0x14 DUP2 MSTORE PUSH1 0x20 ADD PUSH32 0x3C626F64793E3C2F626F64793E3C2F68746D6C3E000000000000000000000000 DUP2 MSTORE POP SWAP1 POP SWAP1 JUMP JUMPDEST PUSH1 0x60 PUSH1 0x40 MLOAD PUSH1 0x20 ADD PUSH2 0xD4 SWAP1 PUSH2 0x485 JUMP JUMPDEST PUSH1 0x40 MLOAD PUSH1 0x20 DUP2 DUP4 SUB SUB DUP2 MSTORE SWAP1 PUSH1 0x40 MSTORE SWAP1 POP SWAP2 SWAP1 POP JUMP JUMPDEST PUSH0 DUP2 MLOAD SWAP1 POP SWAP2 SWAP1 POP JUMP JUMPDEST PUSH0 DUP3 DUP3 MSTORE PUSH1 0x20 DUP3 ADD SWAP1 POP SWAP3 SWAP2 POP POP JUMP JUMPDEST DUP3 DUP2 DUP4 MCOPY PUSH0 DUP4 DUP4 ADD MSTORE POP POP POP JUMP JUMPDEST PUSH0 PUSH1 0x1F NOT PUSH1 0x1F DUP4 ADD AND SWAP1 POP SWAP2 SWAP1 POP JUMP JUMPDEST PUSH0 PUSH2 0x12C DUP3 PUSH2 0xEA JUMP JUMPDEST PUSH2 0x136 DUP2 DUP6 PUSH2 0xF4 JUMP JUMPDEST SWAP4 POP PUSH2 0x146 DUP2 DUP6 PUSH1 0x20 DUP7 ADD PUSH2 0x104 JUMP JUMPDEST PUSH2 0x14F DUP2 PUSH2 0x112 JUMP JUMPDEST DUP5 ADD SWAP2 POP POP SWAP3 SWAP2 POP POP JUMP JUMPDEST PUSH0 PUSH1 0x20 DUP3 ADD SWAP1 POP DUP2 DUP2 SUB PUSH0 DUP4 ADD MSTORE PUSH2 0x172 DUP2 DUP5 PUSH2 0x122 JUMP JUMPDEST SWAP1 POP SWAP3 SWAP2 POP POP JUMP JUMPDEST PUSH0 PUSH1 0x40 MLOAD SWAP1 POP SWAP1 JUMP JUMPDEST PUSH0 DUP1 REVERT JUMPDEST PUSH0 DUP1 REVERT JUMPDEST PUSH0 DUP1 REVERT JUMPDEST PUSH0 DUP1 REVERT JUMPDEST PUSH32 0x4E487B7100000000000000000000000000000000000000000000000000000000 PUSH0 MSTORE PUSH1 0x41 PUSH1 0x4 MSTORE PUSH1 0x24 PUSH0 REVERT JUMPDEST PUSH2 0x1C9 DUP3 PUSH2 0x112 JUMP JUMPDEST DUP2 ADD DUP2 DUP2 LT PUSH8 0xFFFFFFFFFFFFFFFF DUP3 GT OR ISZERO PUSH2 0x1E8 JUMPI PUSH2 0x1E7 PUSH2 0x193 JUMP JUMPDEST JUMPDEST DUP1 PUSH1 0x40 MSTORE POP POP POP JUMP JUMPDEST PUSH0 PUSH2 0x1FA PUSH2 0x17A JUMP JUMPDEST SWAP1 POP PUSH2 0x206 DUP3 DUP3 PUSH2 0x1C0 JUMP JUMPDEST SWAP2 SWAP1 POP JUMP JUMPDEST PUSH0 PUSH8 0xFFFFFFFFFFFFFFFF DUP3 GT ISZERO PUSH2 0x225 JUMPI PUSH2 0x224 PUSH2 0x193 JUMP JUMPDEST JUMPDEST PUSH2 0x22E DUP3 PUSH2 0x112 JUMP JUMPDEST SWAP1 POP PUSH1 0x20 DUP2 ADD SWAP1 POP SWAP2 SWAP1 POP JUMP JUMPDEST DUP3 DUP2 DUP4 CALLDATACOPY PUSH0 DUP4 DUP4 ADD MSTORE POP POP POP JUMP JUMPDEST PUSH0 PUSH2 0x25B PUSH2 0x256 DUP5 PUSH2 0x20B JUMP JUMPDEST PUSH2 0x1F1 JUMP JUMPDEST SWAP1 POP DUP3 DUP2 MSTORE PUSH1 0x20 DUP2 ADD DUP5 DUP5 DUP5 ADD GT ISZERO PUSH2 0x277 JUMPI PUSH2 0x276 PUSH2 0x18F JUMP JUMPDEST JUMPDEST PUSH2 0x282 DUP5 DUP3 DUP6 PUSH2 0x23B JUMP JUMPDEST POP SWAP4 SWAP3 POP POP POP JUMP JUMPDEST PUSH0 DUP3 PUSH1 0x1F DUP4 ADD SLT PUSH2 0x29E JUMPI PUSH2 0x29D PUSH2 0x18B JUMP JUMPDEST JUMPDEST DUP2 CALLDATALOAD PUSH2 0x2AE DUP5 DUP3 PUSH1 0x20 DUP7 ADD PUSH2 0x249 JUMP JUMPDEST SWAP2 POP POP SWAP3 SWAP2 POP POP JUMP JUMPDEST PUSH0 PUSH1 0x20 DUP3 DUP5 SUB SLT ISZERO PUSH2 0x2CC JUMPI PUSH2 0x2CB PUSH2 0x183 JUMP JUMPDEST JUMPDEST PUSH0 DUP3 ADD CALLDATALOAD PUSH8 0xFFFFFFFFFFFFFFFF DUP2 GT ISZERO PUSH2 0x2E9 JUMPI PUSH2 0x2E8 PUSH2 0x187 JUMP JUMPDEST JUMPDEST PUSH2 0x2F5 DUP5 DUP3 DUP6 ADD PUSH2 0x28A JUMP JUMPDEST SWAP2 POP POP SWAP3 SWAP2 POP POP JUMP JUMPDEST PUSH0 DUP2 SWAP1 POP SWAP3 SWAP2 POP POP JUMP JUMPDEST PUSH32 0x3C21646F637479706568746D6C3E3C68746D6C206C616E673D656E3E3C6D6574 PUSH0 DUP3 ADD MSTORE PUSH32 0x6120636F6E74656E743D27746578742F68746D6C3B20636861727365743D5554 PUSH1 0x20 DUP3 ADD MSTORE PUSH32 0x462D3827687474702D65717569763D436F6E74656E742D547970653E3C6D6574 PUSH1 0x40 DUP3 ADD MSTORE PUSH32 0x6120636F6E74656E743D2777696474683D6465766963652D77696474682C696E PUSH1 0x60 DUP3 ADD MSTORE PUSH32 0x697469616C2D7363616C653D31276E616D653D76696577706F72743E3C6D6574 PUSH1 0x80 DUP3 ADD MSTORE PUSH32 0x6120636F6E74656E743D2769653D6564676527687474702D65717569763D582D PUSH1 0xA0 DUP3 ADD MSTORE PUSH32 0x55412D436F6D70617469626C653E3C6D65746120646576656C6F7065723D2741 PUSH1 0xC0 DUP3 ADD MSTORE PUSH32 0x6E64726577204D69746368656C6C273E3C7469746C653E50726F7A616320596F PUSH1 0xE0 DUP3 ADD MSTORE PUSH32 0x7574683C2F7469746C653E000000000000000000000000000000000000000000 PUSH2 0x100 DUP3 ADD MSTORE POP JUMP JUMPDEST PUSH0 PUSH2 0x46E PUSH2 0x10B DUP4 PUSH2 0x2FE JUMP JUMPDEST SWAP2 POP PUSH2 0x479 DUP3 PUSH2 0x308 JUMP JUMPDEST PUSH2 0x10B DUP3 ADD SWAP1 POP SWAP2 SWAP1 POP JUMP JUMPDEST PUSH0 PUSH2 0x48F DUP3 PUSH2 0x461 JUMP JUMPDEST SWAP2 POP DUP2 SWAP1 POP SWAP2 SWAP1 POP JUMP INVALID LOG2 PUSH5 0x6970667358 0x22 SLT KECCAK256 NUMBER PUSH8 0x54AA4588B849A9D6 SWAP14 SUB 0xB4 OR RETURN 0xBF SWAP1 EXTCODESIZE 0xAA KECCAK256 0x4D 0xBA 0x1E 0xC9 RETURN NOT SWAP12 KECCAK256 GAS 0xEC SLT EQ PUSH5 0x736F6C6343 STOP ADDMOD BYTE STOP CALLER "
		},
		"gasEstimates": {
			"creation": {
				"codeDepositCost": "246200",
				"executionCost": "285",
				"totalCost": "246485"
			},
			"external": {
				"getAnimFooter()": "infinite",
				"getAnimHeader(string)": "infinite"
			}
		},
		"methodIdentifiers": {
			"getAnimFooter()": "7899ff8f",
			"getAnimHeader(string)": "b6823613"
		}
	},
	"abi": [
		{
			"inputs": [],
			"name": "getAnimFooter",
			"outputs": [
				{
					"internalType": "string",
					"name": "",
					"type": "string"
				}
			],
			"stateMutability": "pure",
			"type": "function"
		},
		{
			"inputs": [
				{
					"internalType": "string",
					"name": "andrewUrl",
					"type": "string"
				}
			],
			"name": "getAnimHeader",
			"outputs": [
				{
					"internalType": "string",
					"name": "",
					"type": "string"
				}
			],
			"stateMutability": "view",
			"type": "function"
		}
	]
}