{
	"data": {
		"bytecode": {
			"linkReferences": {},
			"object": "6080604052348015600e575f80fd5b506121018061001c5f395ff3fe608060405234801561000f575f80fd5b5060043610610034575f3560e01c80637899ff8f14610038578063d71b993314610056575b5f80fd5b610040610086565b60405161004d9190610162565b60405180910390f35b610070600480360381019061006b91906102bf565b6100c3565b60405161007d9190610162565b60405180910390f35b60606040518060400160405280601481526020017f3c626f64793e3c2f626f64793e3c2f68746d6c3e000000000000000000000000815250905090565b60608183856040516020016100da93929190612064565b60405160208183030381529060405290509392505050565b5f81519050919050565b5f82825260208201905092915050565b8281835e5f83830152505050565b5f601f19601f8301169050919050565b5f610134826100f2565b61013e81856100fc565b935061014e81856020860161010c565b6101578161011a565b840191505092915050565b5f6020820190508181035f83015261017a818461012a565b905092915050565b5f604051905090565b5f80fd5b5f80fd5b5f80fd5b5f80fd5b7f4e487b71000000000000000000000000000000000000000000000000000000005f52604160045260245ffd5b6101d18261011a565b810181811067ffffffffffffffff821117156101f0576101ef61019b565b5b80604052505050565b5f610202610182565b905061020e82826101c8565b919050565b5f67ffffffffffffffff82111561022d5761022c61019b565b5b6102368261011a565b9050602081019050919050565b828183375f83830152505050565b5f61026361025e84610213565b6101f9565b90508281526020810184848401111561027f5761027e610197565b5b61028a848285610243565b509392505050565b5f82601f8301126102a6576102a5610193565b5b81356102b6848260208601610251565b91505092915050565b5f805f606084860312156102d6576102d561018b565b5b5f84013567ffffffffffffffff8111156102f3576102f261018f565b5b6102ff86828701610292565b935050602084013567ffffffffffffffff8111156103205761031f61018f565b5b61032c86828701610292565b925050604084013567ffffffffffffffff81111561034d5761034c61018f565b5b61035986828701610292565b9150509250925092565b5f81905092915050565b7f3c21646f637479706568746d6c3e3c68746d6c206c616e673d656e3e3c6d65745f8201527f6120636f6e74656e743d27746578742f68746d6c3b20636861727365743d555460208201527f462d3827687474702d65717569763d436f6e74656e742d547970653e3c6d657460408201527f6120636f6e74656e743d2777696474683d6465766963652d77696474682c696e60608201527f697469616c2d7363616c653d31276e616d653d76696577706f72743e3c6d657460808201527f6120636f6e74656e743d2769653d6564676527687474702d65717569763d582d60a08201527f55412d436f6d70617469626c653e3c6d65746120646576656c6f7065723d274160c08201527f6e64726577204d69746368656c6c273e3c7469746c653e50726f7a616320596f60e08201527f7574683c2f7469746c653e00000000000000000000000000000000000000000061010082015250565b5f6104d361010b83610363565b91506104de8261036d565b61010b82019050919050565b7f3c7374796c653e626f64797b666f6e742d66616d696c793a48656c76657469635f8201527f612c73616e732d73657269663b666f6e742d73697a653a313070743b6d61726760208201527f696e3a303b70616464696e673a3570787d2e616e64726577732d636f6e74616960408201527f6e65727b6d617267696e3a6175746f3b77696474683a313030257d406d65646960608201527f61206f6e6c792073637265656e20616e6420286d61782d77696474683a36303060808201527f7078297b2e616e64726577732d636f6e7461696e65727b77696474683a31303060a08201527f257d7d2e7461626c657b6d617267696e3a32307078206175746f3b776964746860c08201527f3a313030253b626f726465722d636f6c6c617073653a636f6c6c617073657d4060e08201527f6d65646961206f6e6c792073637265656e20616e6420286d61782d77696474686101008201527f3a3630307078297b2e7461626c657b77696474683a313030257d7d2e666164656101208201527f2d696e7b6f7061636974793a313b616e696d6174696f6e2d6e616d653a6661646101408201527f65496e4f7061636974793b616e696d6174696f6e2d697465726174696f6e2d636101608201527f6f756e743a313b616e696d6174696f6e2d74696d696e672d66756e6374696f6e6101808201527f3a656173652d696e3b616e696d6174696f6e2d6475726174696f6e3a32737d406101a08201527f6b65796672616d65732066616465496e4f7061636974797b30257b6f706163696101c08201527f74793a307d313030257b6f7061636974793a317d7d236c6f6164696e672d74656101e08201527f78747b666f6e742d73697a653a313070743b746578742d616c69676e3a7269676102008201527f68747d236c6f6164696e677b77696474683a313030257d2e6865616465722d746102208201527f69746c657b666f6e742d73697a653a313670743b666f6e742d7765696768743a6102408201527f3730303b746578742d616c69676e3a63656e7465723b6261636b67726f756e646102608201527f2d636f6c6f723a233234336639383b70616464696e673a3130707820303b626f6102808201527f726465722d7261646975733a3570787d2e62726561646372756d62737b666f6e6102a08201527f742d73697a653a3970743b636f6c6f723a233737373b6d617267696e2d626f746102c08201527f746f6d3a313070787d236d6f64652d7377697463687b637572736f723a706f696102e08201527f6e7465723b706f736974696f6e3a6162736f6c7574653b746f703a313070783b6103008201527f72696768743a313070787d2e666f72756d2d72756c65737b626f726465722d726103208201527f61646975733a3570783b70616464696e673a313070783b666f6e742d73697a656103408201527f3a3970743b6d617267696e2d626f74746f6d3a323070787d2e7461626c652d686103608201527f65616465722c2e7461626c652d726f777b70616464696e673a3870787d2e74616103808201527f626c652d6865616465727b6261636b67726f756e642d636f6c6f723a233234336103a08201527f6639383b666f6e742d7765696768743a3730307d2e7461626c653e2e6c6967686103c08201527f742d62673a6e74682d6368696c64286576656e297b6261636b67726f756e642d6103e08201527f636f6c6f723a2365306537666621696d706f7274616e747d2e6c696768742d626104008201527f677b6261636b67726f756e642d636f6c6f723a2366376636663121696d706f726104208201527f74616e747d2e6c696768742d626f726465727b626f726465723a31707820736f6104408201527f6c6964202363636321696d706f7274616e747d2e6c696768742d626f726465726104608201527f2d327b626f726465723a31707820736f6c6964202363356432666621696d706f6104808201527f7274616e747d2e6c696768742d62672d327b6261636b67726f756e642d636f6c6104a08201527f6f723a2365306537666621696d706f7274616e747d2e6c696768742d746578746104c08201527f7b636f6c6f723a2366376636663121696d706f7274616e747d2e6c696768742d6104e08201527f746578742d327b636f6c6f723a2332343366393821696d706f7274616e747d2e6105008201527f6572726f722d746578747b636f6c6f723a236630337d2e6461726b2d6c696e6b6105208201527f7b636f6c6f723a2333303535636321696d706f7274616e747d2e6461726b2d746105408201527f6578742d327b636f6c6f723a2334353636643321696d706f7274616e747d2e6c6105608201527f696768742d746578742d337b636f6c6f723a2331663166316621696d706f72746105808201527f616e747d2e6461726b2d746578742d337b636f6c6f723a2332363433613221696105a08201527f6d706f7274616e747d2e6c696768742d746578742d347b636f6c6f723a2331666105c08201527f3166316621696d706f7274616e747d2e6461726b2d746578742d347b636f6c6f6105e08201527f723a2363646364636421696d706f7274616e747d2e7461626c653e2e6461726b6106008201527f2d62673a6e74682d6368696c64286576656e297b6261636b67726f756e642d636106208201527f6f6c6f723a2331663166316621696d706f7274616e747d2e6461726b2d62677b6106408201527f6261636b67726f756e642d636f6c6f723a2331323132313221696d706f7274616106608201527f6e747d2e6461726b2d626f726465727b626f726465723a31707820736f6c69646106808201527f202335353521696d706f7274616e747d2e6461726b2d626f726465722d327b626106a08201527f6f726465723a31707820736f6c6964202333333321696d706f7274616e747d2e6106c08201527f6461726b2d62672d327b6261636b67726f756e642d636f6c6f723a23343434216106e08201527f696d706f7274616e747d2e6461726b2d746578747b636f6c6f723a23313231326107008201527f313221696d706f7274616e747d2e706f73742d777261707065727b646973706c6107208201527f61793a6e6f6e657d2e736d616c6c2d746578747b666f6e742d73697a653a38706107408201527f743b636f6c6f723a233535357d2e63757272656e742d74696d657b666f6e742d6107608201527f73697a653a3870743b636f6c6f723a233737373b766572746963616c2d616c696107808201527f676e3a73757065723b6d617267696e2d72696768743a3270787d237461626c656107a08201527f2d626f64797b7461626c652d6c61796f75743a66697865647d2e74696d652d776107c08201527f7261707065727b646973706c61793a696e6c696e657d2e6c6f6164696e672d636107e08201527f656c6c7b646973706c61793a666c65783b626f726465723a303b746578742d616108008201527f6c69676e3a72696768747d2e706f73742d696e666f7b646973706c61793a666c6108208201527f65783b6a7573746966792d636f6e74656e743a73706163652d6265747765656e6108408201527f3b616c69676e2d6974656d733a63656e7465727d2e706f73742d696e666f20736108608201527f70616e7b666f6e742d73697a653a313070743b636f6c6f723a233234336639386108808201527f3b666f6e742d7765696768743a3730307d2e706f73742d6d6573736167657b666108a08201527f6f6e742d73697a653a313070743b6c696e652d6865696768743a312e357d2e666108c08201527f6f6f7465727b6d617267696e2d746f703a323070783b746578742d616c69676e6108e08201527f3a63656e7465723b666f6e742d73697a653a3970743b636f6c6f723a233737376109008201527f7d3c2f7374796c653e3c626f647920636c6173733d276c696768742d746578746109208201527f2d32206c696768742d6267273e3c64697620636c6173733d27666164652d696e6109408201527f20706f73742d777261707065722769643d706f73742d777261707065723e3c646109608201527f697620636c6173733d276c696768742d746578742d3220616e64726577732d636109808201527f6f6e7461696e6572273e3c64697620636c6173733d276c696768742d746578746109a08201527f206865616465722d7469746c65273e466f72756d733c2f6469763e3c646976206109c08201527f636c6173733d62726561646372756d62733e50726f7a616320596f757468203e6109e08201527f20466f72756d73203e20544a4f203e20446561722048756d616e3c2f6469763e610a008201527f3c64697620636c6173733d27666f72756d2d72756c6573206c696768742d6267610a208201527f2d32206c696768742d626f726465722d32206c696768742d746578742d34273e610a408201527f546865206f6e6c792072756c6573207765207265717565737420796f7520746f610a608201527f20666f6c6c6f772c2061726520746f206b656570207468696e677320706f6c69610a808201527f74652c20616e6420746f20706c656173652070757420796f7572206d65737361610aa08201527f67657320696e2074686520617070726f7072696174652073656374696f6e732e610ac08201527f3c2f6469763e3c64697620636c6173733d706f73742d696e666f3e3c7370616e610ae08201527f20636c6173733d6c696768742d746578742d323e546f74616c20506f7374733a610b008201527f203c622069643d746f74616c2d706f7374733e00000000000000000000000000610b2082015250565b5f6112a7610b3383610363565b91506112b2826104ea565b610b3382019050919050565b5f6112c8826100f2565b6112d28185610363565b93506112e281856020860161010c565b80840191505092915050565b7f3c2f623e3c2f7370616e3e3c64697620636c6173733d74696d652d77726170705f8201527f65723e3c7370616e20636c6173733d276c696768742d746578742d322063757260208201527f72656e742d74696d65273e41707220323720323032342031343a32323a34303c60408201527f2f7370616e3e3c2f6469763e3c2f6469763e3c7461626c6520636c6173733d7460608201527f61626c65207374796c653d7461626c652d6c61796f75743a66697865643e3c7460808201527f686561643e3c747220636c6173733d276c696768742d626f72646572206c696760a08201527f68742d74657874207461626c652d686561646572273e3c74683e417574686f7260c08201527f3c74683e5468726561643c74626f64792069643d7461626c652d626f64793e3c60e08201527f747220636c6173733d276c696768742d6267206c696768742d626f72646572206101008201527f7461626c652d726f77273e3c74643e417574686f72204e616d653c74643e54686101208201527f72656164205469746c650000000000000000000000000000000000000000000061014082015250565b5f6114a261014a83610363565b91506114ad826112ee565b61014a82019050919050565b7f3c2f7461626c653e3c7370616e2069643d6d6f64652d737769746368206f6e635f8201527f6c69636b3d746f67676c654d6f646528293e3c7376672066696c6c3d2330303060208201527f303030206865696768743d323070782069643d436170615f312076657273696f60408201527f6e3d312e312076696577426f783d27302030203230372e363238203230372e3660608201527f32382777696474683d3230707820786d6c3a73706163653d707265736572766560808201527f20786d6c6e733d687474703a2f2f7777772e77332e6f72672f323030302f737660a08201527f6720786d6c6e733a786c696e6b3d687474703a2f2f7777772e77332e6f72672f60c08201527f313939392f786c696e6b3e3c636972636c652063783d3130332e38313420637960e08201527f3d3130332e38313420723d34352e383638202f3e3c7061746820643d274d31306101008201527f332e3831342c3135372e313833632d32392e3432372c302d35332e3336382d326101208201527f332e3934312d35332e3336382d35332e3336387332332e3934312d35332e33366101408201527f382c35332e3336382d35332e3336387335332e3336382c32332e3934312c35336101608201527f2e3336382c35332e3336382020533133332e3234312c3135372e3138332c31306101808201527f332e3831342c3135372e3138337a204d3130332e3831342c36352e343436632d6101a08201527f32312e3135362c302d33382e3336382c31372e3231322d33382e3336382c33386101c08201527f2e3336387331372e3231322c33382e3336382c33382e3336382c33382e3336386101e08201527f20207333382e3336382d31372e3231322c33382e3336382d33382e33363853316102008201527f32342e39372c36352e3434362c3130332e3831342c36352e3434367a272f3e3c6102208201527f7061746820643d274d3130332e3831342c33392e333835632d342e3134322c306102408201527f2d372e352d332e3335382d372e352d372e3556372e3563302d342e3134322c336102608201527f2e3335382d372e352c372e352d372e3573372e352c332e3335382c372e352c376102808201527f2e357632342e3338352020433131312e3331342c33362e3032372c3130372e396102a08201527f35362c33392e3338352c3130332e3831342c33392e3338357a272f3e3c7061746102c08201527f6820643d274d3130332e3831342c3230372e363238632d342e3134322c302d376102e08201527f2e352d332e3335382d372e352d372e35762d32342e33383563302d342e3134326103008201527f2c332e3335382d372e352c372e352d372e3573372e352c332e3335382c372e356103208201527f2c372e357632342e3338352020433131312e3331342c3230342e3237312c31306103408201527f372e3935362c3230372e3632382c3130332e3831342c3230372e3632387a272f6103608201527f3e3c7061746820643d274d3230302e3132382c3131312e333134682d32342e336103808201527f3835632d342e3134322c302d372e352d332e3335382d372e352d372e3573332e6103a08201527f3335382d372e352c372e352d372e356832342e33383563342e3134322c302c376103c08201527f2e352c332e3335382c372e352c372e352020533230342e3237312c3131312e336103e08201527f31342c3230302e3132382c3131312e3331347a272f3e3c7061746820643d274d6104008201527f33312e3838352c3131312e33313448372e35632d342e3134322c302d372e352d6104208201527f332e3335382d372e352d372e3573332e3335382d372e352c372e352d372e35686104408201527f32342e33383563342e3134322c302c372e352c332e3335382c372e352c372e356104608201527f20205333362e3032372c3131312e3331342c33312e3838352c3131312e3331346104808201527f7a272f3e3c7061746820643d274d3135342e3637362c36302e343532632d312e6104a08201527f3931392c302d332e3833392d302e3733322d352e3330332d322e313937632d326104c08201527f2e3932392d322e3932392d322e3932392d372e3637382c302d31302e3630366c6104e08201527f31372e3234332d31372e323432202063322e3932392d322e3932392c372e36376105008201527f382d322e39332c31302e3630362c3063322e3932392c322e3932392c322e39326105208201527f392c372e3637382c302c31302e3630366c2d31372e3234332c31372e323432436105408201527f3135382e3531352c35392e37322c3135362e3539352c36302e3435322c3135346105608201527f2e3637362c36302e3435327a272f3e3c7061746820643d274d33352e3730392c6105808201527f3137392e343139632d312e3931392c302d332e3833392d302e3733322d352e336105a08201527f30332d322e313937632d322e3932392d322e3932392d322e3932392d372e36376105c08201527f382c302d31302e3630366c31372e3234332d31372e323433202063322e3932396105e08201527f2d322e3932392c372e3637382d322e3932392c31302e3630362c3063322e39326106008201527f392c322e3932392c322e3932392c372e3637382c302c31302e3630366c2d31376106208201527f2e3234332c31372e3234334333392e3534382c3137382e3638372c33372e36326106408201527f392c3137392e3431392c33352e3730392c3137392e3431397a2020272f3e3c706106608201527f61746820643d274d3137312e3931382c3137392e343139632d312e3931392c306106808201527f2d332e3833392d302e3733322d352e3330332d322e3139376c2d31372e3234336106a08201527f2d31372e323433632d322e3932392d322e3932392d322e3932392d372e3637386106c08201527f2c302d31302e363036202063322e3932392d322e3932392c372e3637382d322e6106e08201527f3932392c31302e3630362c306c31372e3234332c31372e32343363322e3932396107008201527f2c322e3932392c322e3932392c372e3637382c302c31302e36303620204331376107208201527f352e3735372c3137382e3638372c3137332e3833382c3137392e3431392c31376107408201527f312e3931382c3137392e3431397a272f3e3c7061746820643d274d35322e39356107608201527f322c36302e343532632d312e3931392c302d332e3833392d302e3733322d352e6107808201527f3330332d322e3139374c33302e3430362c34312e303133632d322e3932392d326107a08201527f2e3932392d322e3932392d372e3637372c302d31302e363036202063322e39326107c08201527f392d322e3932392c372e3637382d322e39332c31302e3630362c306c31372e326107e08201527f34332c31372e32343263322e3932392c322e3932392c322e3932392c372e36376108008201527f372c302c31302e3630364335362e3739312c35392e37322c35342e3837322c366108208201527f302e3435322c35322e3935322c36302e3435327a272f3e3c2f7376673e3c2f736108408201527f70616e3e3c6469762069643d616e64726577207374796c653d6d617267696e2d6108608201527f746f703a313570783b746578742d616c69676e3a63656e7465723b77696474686108808201527f3a313030253e3c7370616e3e44657369676e6564206279203c6120636c6173736108a08201527f3d6c696768742d6c696e6b20687265663d0000000000000000000000000000006108c082015250565b5f611f916108d183610363565b9150611f9c826114b9565b6108d182019050919050565b7f207461726765743d5f626c616e6b3e416e64726577204d69746368656c6c3c2f5f8201527f613e3c2f7370616e3e3c2f6469763e3c64697620636c6173733d666f6f74657260208201527f3e26233136393b2050726f7a616320596f7574682e20416c6c2072696768747360408201527f2072657365727665642e3c2f6469763e3c2f6469763e3c2f6469763e00000000606082015250565b5f61204e607c83610363565b915061205982611fa8565b607c82019050919050565b5f61206e826104c6565b91506120798261129a565b915061208582866112be565b915061209082611495565b915061209c82856112be565b91506120a782611f84565b91506120b382846112be565b91506120be82612042565b915081905094935050505056fea2646970667358221220b4831371c010e69e2d596ed3998c7b9a1418f141b7864096e477b975404867b764736f6c634300081a0033",
			"opcodes": "PUSH1 0x80 PUSH1 0x40 MSTORE CALLVALUE DUP1 ISZERO PUSH1 0xE JUMPI PUSH0 DUP1 REVERT JUMPDEST POP PUSH2 0x2101 DUP1 PUSH2 0x1C PUSH0 CODECOPY PUSH0 RETURN INVALID PUSH1 0x80 PUSH1 0x40 MSTORE CALLVALUE DUP1 ISZERO PUSH2 0xF JUMPI PUSH0 DUP1 REVERT JUMPDEST POP PUSH1 0x4 CALLDATASIZE LT PUSH2 0x34 JUMPI PUSH0 CALLDATALOAD PUSH1 0xE0 SHR DUP1 PUSH4 0x7899FF8F EQ PUSH2 0x38 JUMPI DUP1 PUSH4 0xD71B9933 EQ PUSH2 0x56 JUMPI JUMPDEST PUSH0 DUP1 REVERT JUMPDEST PUSH2 0x40 PUSH2 0x86 JUMP JUMPDEST PUSH1 0x40 MLOAD PUSH2 0x4D SWAP2 SWAP1 PUSH2 0x162 JUMP JUMPDEST PUSH1 0x40 MLOAD DUP1 SWAP2 SUB SWAP1 RETURN JUMPDEST PUSH2 0x70 PUSH1 0x4 DUP1 CALLDATASIZE SUB DUP2 ADD SWAP1 PUSH2 0x6B SWAP2 SWAP1 PUSH2 0x2BF JUMP JUMPDEST PUSH2 0xC3 JUMP JUMPDEST PUSH1 0x40 MLOAD PUSH2 0x7D SWAP2 SWAP1 PUSH2 0x162 JUMP JUMPDEST PUSH1 0x40 MLOAD DUP1 SWAP2 SUB SWAP1 RETURN JUMPDEST PUSH1 0x60 PUSH1 0x40 MLOAD DUP1 PUSH1 0x40 ADD PUSH1 0x40 MSTORE DUP1 PUSH1 0x14 DUP2 MSTORE PUSH1 0x20 ADD PUSH32 0x3C626F64793E3C2F626F64793E3C2F68746D6C3E000000000000000000000000 DUP2 MSTORE POP SWAP1 POP SWAP1 JUMP JUMPDEST PUSH1 0x60 DUP2 DUP4 DUP6 PUSH1 0x40 MLOAD PUSH1 0x20 ADD PUSH2 0xDA SWAP4 SWAP3 SWAP2 SWAP1 PUSH2 0x2064 JUMP JUMPDEST PUSH1 0x40 MLOAD PUSH1 0x20 DUP2 DUP4 SUB SUB DUP2 MSTORE SWAP1 PUSH1 0x40 MSTORE SWAP1 POP SWAP4 SWAP3 POP POP POP JUMP JUMPDEST PUSH0 DUP2 MLOAD SWAP1 POP SWAP2 SWAP1 POP JUMP JUMPDEST PUSH0 DUP3 DUP3 MSTORE PUSH1 0x20 DUP3 ADD SWAP1 POP SWAP3 SWAP2 POP POP JUMP JUMPDEST DUP3 DUP2 DUP4 MCOPY PUSH0 DUP4 DUP4 ADD MSTORE POP POP POP JUMP JUMPDEST PUSH0 PUSH1 0x1F NOT PUSH1 0x1F DUP4 ADD AND SWAP1 POP SWAP2 SWAP1 POP JUMP JUMPDEST PUSH0 PUSH2 0x134 DUP3 PUSH2 0xF2 JUMP JUMPDEST PUSH2 0x13E DUP2 DUP6 PUSH2 0xFC JUMP JUMPDEST SWAP4 POP PUSH2 0x14E DUP2 DUP6 PUSH1 0x20 DUP7 ADD PUSH2 0x10C JUMP JUMPDEST PUSH2 0x157 DUP2 PUSH2 0x11A JUMP JUMPDEST DUP5 ADD SWAP2 POP POP SWAP3 SWAP2 POP POP JUMP JUMPDEST PUSH0 PUSH1 0x20 DUP3 ADD SWAP1 POP DUP2 DUP2 SUB PUSH0 DUP4 ADD MSTORE PUSH2 0x17A DUP2 DUP5 PUSH2 0x12A JUMP JUMPDEST SWAP1 POP SWAP3 SWAP2 POP POP JUMP JUMPDEST PUSH0 PUSH1 0x40 MLOAD SWAP1 POP SWAP1 JUMP JUMPDEST PUSH0 DUP1 REVERT JUMPDEST PUSH0 DUP1 REVERT JUMPDEST PUSH0 DUP1 REVERT JUMPDEST PUSH0 DUP1 REVERT JUMPDEST PUSH32 0x4E487B7100000000000000000000000000000000000000000000000000000000 PUSH0 MSTORE PUSH1 0x41 PUSH1 0x4 MSTORE PUSH1 0x24 PUSH0 REVERT JUMPDEST PUSH2 0x1D1 DUP3 PUSH2 0x11A JUMP JUMPDEST DUP2 ADD DUP2 DUP2 LT PUSH8 0xFFFFFFFFFFFFFFFF DUP3 GT OR ISZERO PUSH2 0x1F0 JUMPI PUSH2 0x1EF PUSH2 0x19B JUMP JUMPDEST JUMPDEST DUP1 PUSH1 0x40 MSTORE POP POP POP JUMP JUMPDEST PUSH0 PUSH2 0x202 PUSH2 0x182 JUMP JUMPDEST SWAP1 POP PUSH2 0x20E DUP3 DUP3 PUSH2 0x1C8 JUMP JUMPDEST SWAP2 SWAP1 POP JUMP JUMPDEST PUSH0 PUSH8 0xFFFFFFFFFFFFFFFF DUP3 GT ISZERO PUSH2 0x22D JUMPI PUSH2 0x22C PUSH2 0x19B JUMP JUMPDEST JUMPDEST PUSH2 0x236 DUP3 PUSH2 0x11A JUMP JUMPDEST SWAP1 POP PUSH1 0x20 DUP2 ADD SWAP1 POP SWAP2 SWAP1 POP JUMP JUMPDEST DUP3 DUP2 DUP4 CALLDATACOPY PUSH0 DUP4 DUP4 ADD MSTORE POP POP POP JUMP JUMPDEST PUSH0 PUSH2 0x263 PUSH2 0x25E DUP5 PUSH2 0x213 JUMP JUMPDEST PUSH2 0x1F9 JUMP JUMPDEST SWAP1 POP DUP3 DUP2 MSTORE PUSH1 0x20 DUP2 ADD DUP5 DUP5 DUP5 ADD GT ISZERO PUSH2 0x27F JUMPI PUSH2 0x27E PUSH2 0x197 JUMP JUMPDEST JUMPDEST PUSH2 0x28A DUP5 DUP3 DUP6 PUSH2 0x243 JUMP JUMPDEST POP SWAP4 SWAP3 POP POP POP JUMP JUMPDEST PUSH0 DUP3 PUSH1 0x1F DUP4 ADD SLT PUSH2 0x2A6 JUMPI PUSH2 0x2A5 PUSH2 0x193 JUMP JUMPDEST JUMPDEST DUP2 CALLDATALOAD PUSH2 0x2B6 DUP5 DUP3 PUSH1 0x20 DUP7 ADD PUSH2 0x251 JUMP JUMPDEST SWAP2 POP POP SWAP3 SWAP2 POP POP JUMP JUMPDEST PUSH0 DUP1 PUSH0 PUSH1 0x60 DUP5 DUP7 SUB SLT ISZERO PUSH2 0x2D6 JUMPI PUSH2 0x2D5 PUSH2 0x18B JUMP JUMPDEST JUMPDEST PUSH0 DUP5 ADD CALLDATALOAD PUSH8 0xFFFFFFFFFFFFFFFF DUP2 GT ISZERO PUSH2 0x2F3 JUMPI PUSH2 0x2F2 PUSH2 0x18F JUMP JUMPDEST JUMPDEST PUSH2 0x2FF DUP7 DUP3 DUP8 ADD PUSH2 0x292 JUMP JUMPDEST SWAP4 POP POP PUSH1 0x20 DUP5 ADD CALLDATALOAD PUSH8 0xFFFFFFFFFFFFFFFF DUP2 GT ISZERO PUSH2 0x320 JUMPI PUSH2 0x31F PUSH2 0x18F JUMP JUMPDEST JUMPDEST PUSH2 0x32C DUP7 DUP3 DUP8 ADD PUSH2 0x292 JUMP JUMPDEST SWAP3 POP POP PUSH1 0x40 DUP5 ADD CALLDATALOAD PUSH8 0xFFFFFFFFFFFFFFFF DUP2 GT ISZERO PUSH2 0x34D JUMPI PUSH2 0x34C PUSH2 0x18F JUMP JUMPDEST JUMPDEST PUSH2 0x359 DUP7 DUP3 DUP8 ADD PUSH2 0x292 JUMP JUMPDEST SWAP2 POP POP SWAP3 POP SWAP3 POP SWAP3 JUMP JUMPDEST PUSH0 DUP2 SWAP1 POP SWAP3 SWAP2 POP POP JUMP JUMPDEST PUSH32 0x3C21646F637479706568746D6C3E3C68746D6C206C616E673D656E3E3C6D6574 PUSH0 DUP3 ADD MSTORE PUSH32 0x6120636F6E74656E743D27746578742F68746D6C3B20636861727365743D5554 PUSH1 0x20 DUP3 ADD MSTORE PUSH32 0x462D3827687474702D65717569763D436F6E74656E742D547970653E3C6D6574 PUSH1 0x40 DUP3 ADD MSTORE PUSH32 0x6120636F6E74656E743D2777696474683D6465766963652D77696474682C696E PUSH1 0x60 DUP3 ADD MSTORE PUSH32 0x697469616C2D7363616C653D31276E616D653D76696577706F72743E3C6D6574 PUSH1 0x80 DUP3 ADD MSTORE PUSH32 0x6120636F6E74656E743D2769653D6564676527687474702D65717569763D582D PUSH1 0xA0 DUP3 ADD MSTORE PUSH32 0x55412D436F6D70617469626C653E3C6D65746120646576656C6F7065723D2741 PUSH1 0xC0 DUP3 ADD MSTORE PUSH32 0x6E64726577204D69746368656C6C273E3C7469746C653E50726F7A616320596F PUSH1 0xE0 DUP3 ADD MSTORE PUSH32 0x7574683C2F7469746C653E000000000000000000000000000000000000000000 PUSH2 0x100 DUP3 ADD MSTORE POP JUMP JUMPDEST PUSH0 PUSH2 0x4D3 PUSH2 0x10B DUP4 PUSH2 0x363 JUMP JUMPDEST SWAP2 POP PUSH2 0x4DE DUP3 PUSH2 0x36D JUMP JUMPDEST PUSH2 0x10B DUP3 ADD SWAP1 POP SWAP2 SWAP1 POP JUMP JUMPDEST PUSH32 0x3C7374796C653E626F64797B666F6E742D66616D696C793A48656C7665746963 PUSH0 DUP3 ADD MSTORE PUSH32 0x612C73616E732D73657269663B666F6E742D73697A653A313070743B6D617267 PUSH1 0x20 DUP3 ADD MSTORE PUSH32 0x696E3A303B70616464696E673A3570787D2E616E64726577732D636F6E746169 PUSH1 0x40 DUP3 ADD MSTORE PUSH32 0x6E65727B6D617267696E3A6175746F3B77696474683A313030257D406D656469 PUSH1 0x60 DUP3 ADD MSTORE PUSH32 0x61206F6E6C792073637265656E20616E6420286D61782D77696474683A363030 PUSH1 0x80 DUP3 ADD MSTORE PUSH32 0x7078297B2E616E64726577732D636F6E7461696E65727B77696474683A313030 PUSH1 0xA0 DUP3 ADD MSTORE PUSH32 0x257D7D2E7461626C657B6D617267696E3A32307078206175746F3B7769647468 PUSH1 0xC0 DUP3 ADD MSTORE PUSH32 0x3A313030253B626F726465722D636F6C6C617073653A636F6C6C617073657D40 PUSH1 0xE0 DUP3 ADD MSTORE PUSH32 0x6D65646961206F6E6C792073637265656E20616E6420286D61782D7769647468 PUSH2 0x100 DUP3 ADD MSTORE PUSH32 0x3A3630307078297B2E7461626C657B77696474683A313030257D7D2E66616465 PUSH2 0x120 DUP3 ADD MSTORE PUSH32 0x2D696E7B6F7061636974793A313B616E696D6174696F6E2D6E616D653A666164 PUSH2 0x140 DUP3 ADD MSTORE PUSH32 0x65496E4F7061636974793B616E696D6174696F6E2D697465726174696F6E2D63 PUSH2 0x160 DUP3 ADD MSTORE PUSH32 0x6F756E743A313B616E696D6174696F6E2D74696D696E672D66756E6374696F6E PUSH2 0x180 DUP3 ADD MSTORE PUSH32 0x3A656173652D696E3B616E696D6174696F6E2D6475726174696F6E3A32737D40 PUSH2 0x1A0 DUP3 ADD MSTORE PUSH32 0x6B65796672616D65732066616465496E4F7061636974797B30257B6F70616369 PUSH2 0x1C0 DUP3 ADD MSTORE PUSH32 0x74793A307D313030257B6F7061636974793A317D7D236C6F6164696E672D7465 PUSH2 0x1E0 DUP3 ADD MSTORE PUSH32 0x78747B666F6E742D73697A653A313070743B746578742D616C69676E3A726967 PUSH2 0x200 DUP3 ADD MSTORE PUSH32 0x68747D236C6F6164696E677B77696474683A313030257D2E6865616465722D74 PUSH2 0x220 DUP3 ADD MSTORE PUSH32 0x69746C657B666F6E742D73697A653A313670743B666F6E742D7765696768743A PUSH2 0x240 DUP3 ADD MSTORE PUSH32 0x3730303B746578742D616C69676E3A63656E7465723B6261636B67726F756E64 PUSH2 0x260 DUP3 ADD MSTORE PUSH32 0x2D636F6C6F723A233234336639383B70616464696E673A3130707820303B626F PUSH2 0x280 DUP3 ADD MSTORE PUSH32 0x726465722D7261646975733A3570787D2E62726561646372756D62737B666F6E PUSH2 0x2A0 DUP3 ADD MSTORE PUSH32 0x742D73697A653A3970743B636F6C6F723A233737373B6D617267696E2D626F74 PUSH2 0x2C0 DUP3 ADD MSTORE PUSH32 0x746F6D3A313070787D236D6F64652D7377697463687B637572736F723A706F69 PUSH2 0x2E0 DUP3 ADD MSTORE PUSH32 0x6E7465723B706F736974696F6E3A6162736F6C7574653B746F703A313070783B PUSH2 0x300 DUP3 ADD MSTORE PUSH32 0x72696768743A313070787D2E666F72756D2D72756C65737B626F726465722D72 PUSH2 0x320 DUP3 ADD MSTORE PUSH32 0x61646975733A3570783B70616464696E673A313070783B666F6E742D73697A65 PUSH2 0x340 DUP3 ADD MSTORE PUSH32 0x3A3970743B6D617267696E2D626F74746F6D3A323070787D2E7461626C652D68 PUSH2 0x360 DUP3 ADD MSTORE PUSH32 0x65616465722C2E7461626C652D726F777B70616464696E673A3870787D2E7461 PUSH2 0x380 DUP3 ADD MSTORE PUSH32 0x626C652D6865616465727B6261636B67726F756E642D636F6C6F723A23323433 PUSH2 0x3A0 DUP3 ADD MSTORE PUSH32 0x6639383B666F6E742D7765696768743A3730307D2E7461626C653E2E6C696768 PUSH2 0x3C0 DUP3 ADD MSTORE PUSH32 0x742D62673A6E74682D6368696C64286576656E297B6261636B67726F756E642D PUSH2 0x3E0 DUP3 ADD MSTORE PUSH32 0x636F6C6F723A2365306537666621696D706F7274616E747D2E6C696768742D62 PUSH2 0x400 DUP3 ADD MSTORE PUSH32 0x677B6261636B67726F756E642D636F6C6F723A2366376636663121696D706F72 PUSH2 0x420 DUP3 ADD MSTORE PUSH32 0x74616E747D2E6C696768742D626F726465727B626F726465723A31707820736F PUSH2 0x440 DUP3 ADD MSTORE PUSH32 0x6C6964202363636321696D706F7274616E747D2E6C696768742D626F72646572 PUSH2 0x460 DUP3 ADD MSTORE PUSH32 0x2D327B626F726465723A31707820736F6C6964202363356432666621696D706F PUSH2 0x480 DUP3 ADD MSTORE PUSH32 0x7274616E747D2E6C696768742D62672D327B6261636B67726F756E642D636F6C PUSH2 0x4A0 DUP3 ADD MSTORE PUSH32 0x6F723A2365306537666621696D706F7274616E747D2E6C696768742D74657874 PUSH2 0x4C0 DUP3 ADD MSTORE PUSH32 0x7B636F6C6F723A2366376636663121696D706F7274616E747D2E6C696768742D PUSH2 0x4E0 DUP3 ADD MSTORE PUSH32 0x746578742D327B636F6C6F723A2332343366393821696D706F7274616E747D2E PUSH2 0x500 DUP3 ADD MSTORE PUSH32 0x6572726F722D746578747B636F6C6F723A236630337D2E6461726B2D6C696E6B PUSH2 0x520 DUP3 ADD MSTORE PUSH32 0x7B636F6C6F723A2333303535636321696D706F7274616E747D2E6461726B2D74 PUSH2 0x540 DUP3 ADD MSTORE PUSH32 0x6578742D327B636F6C6F723A2334353636643321696D706F7274616E747D2E6C PUSH2 0x560 DUP3 ADD MSTORE PUSH32 0x696768742D746578742D337B636F6C6F723A2331663166316621696D706F7274 PUSH2 0x580 DUP3 ADD MSTORE PUSH32 0x616E747D2E6461726B2D746578742D337B636F6C6F723A233236343361322169 PUSH2 0x5A0 DUP3 ADD MSTORE PUSH32 0x6D706F7274616E747D2E6C696768742D746578742D347B636F6C6F723A233166 PUSH2 0x5C0 DUP3 ADD MSTORE PUSH32 0x3166316621696D706F7274616E747D2E6461726B2D746578742D347B636F6C6F PUSH2 0x5E0 DUP3 ADD MSTORE PUSH32 0x723A2363646364636421696D706F7274616E747D2E7461626C653E2E6461726B PUSH2 0x600 DUP3 ADD MSTORE PUSH32 0x2D62673A6E74682D6368696C64286576656E297B6261636B67726F756E642D63 PUSH2 0x620 DUP3 ADD MSTORE PUSH32 0x6F6C6F723A2331663166316621696D706F7274616E747D2E6461726B2D62677B PUSH2 0x640 DUP3 ADD MSTORE PUSH32 0x6261636B67726F756E642D636F6C6F723A2331323132313221696D706F727461 PUSH2 0x660 DUP3 ADD MSTORE PUSH32 0x6E747D2E6461726B2D626F726465727B626F726465723A31707820736F6C6964 PUSH2 0x680 DUP3 ADD MSTORE PUSH32 0x202335353521696D706F7274616E747D2E6461726B2D626F726465722D327B62 PUSH2 0x6A0 DUP3 ADD MSTORE PUSH32 0x6F726465723A31707820736F6C6964202333333321696D706F7274616E747D2E PUSH2 0x6C0 DUP3 ADD MSTORE PUSH32 0x6461726B2D62672D327B6261636B67726F756E642D636F6C6F723A2334343421 PUSH2 0x6E0 DUP3 ADD MSTORE PUSH32 0x696D706F7274616E747D2E6461726B2D746578747B636F6C6F723A2331323132 PUSH2 0x700 DUP3 ADD MSTORE PUSH32 0x313221696D706F7274616E747D2E706F73742D777261707065727B646973706C PUSH2 0x720 DUP3 ADD MSTORE PUSH32 0x61793A6E6F6E657D2E736D616C6C2D746578747B666F6E742D73697A653A3870 PUSH2 0x740 DUP3 ADD MSTORE PUSH32 0x743B636F6C6F723A233535357D2E63757272656E742D74696D657B666F6E742D PUSH2 0x760 DUP3 ADD MSTORE PUSH32 0x73697A653A3870743B636F6C6F723A233737373B766572746963616C2D616C69 PUSH2 0x780 DUP3 ADD MSTORE PUSH32 0x676E3A73757065723B6D617267696E2D72696768743A3270787D237461626C65 PUSH2 0x7A0 DUP3 ADD MSTORE PUSH32 0x2D626F64797B7461626C652D6C61796F75743A66697865647D2E74696D652D77 PUSH2 0x7C0 DUP3 ADD MSTORE PUSH32 0x7261707065727B646973706C61793A696E6C696E657D2E6C6F6164696E672D63 PUSH2 0x7E0 DUP3 ADD MSTORE PUSH32 0x656C6C7B646973706C61793A666C65783B626F726465723A303B746578742D61 PUSH2 0x800 DUP3 ADD MSTORE PUSH32 0x6C69676E3A72696768747D2E706F73742D696E666F7B646973706C61793A666C PUSH2 0x820 DUP3 ADD MSTORE PUSH32 0x65783B6A7573746966792D636F6E74656E743A73706163652D6265747765656E PUSH2 0x840 DUP3 ADD MSTORE PUSH32 0x3B616C69676E2D6974656D733A63656E7465727D2E706F73742D696E666F2073 PUSH2 0x860 DUP3 ADD MSTORE PUSH32 0x70616E7B666F6E742D73697A653A313070743B636F6C6F723A23323433663938 PUSH2 0x880 DUP3 ADD MSTORE PUSH32 0x3B666F6E742D7765696768743A3730307D2E706F73742D6D6573736167657B66 PUSH2 0x8A0 DUP3 ADD MSTORE PUSH32 0x6F6E742D73697A653A313070743B6C696E652D6865696768743A312E357D2E66 PUSH2 0x8C0 DUP3 ADD MSTORE PUSH32 0x6F6F7465727B6D617267696E2D746F703A323070783B746578742D616C69676E PUSH2 0x8E0 DUP3 ADD MSTORE PUSH32 0x3A63656E7465723B666F6E742D73697A653A3970743B636F6C6F723A23373737 PUSH2 0x900 DUP3 ADD MSTORE PUSH32 0x7D3C2F7374796C653E3C626F647920636C6173733D276C696768742D74657874 PUSH2 0x920 DUP3 ADD MSTORE PUSH32 0x2D32206C696768742D6267273E3C64697620636C6173733D27666164652D696E PUSH2 0x940 DUP3 ADD MSTORE PUSH32 0x20706F73742D777261707065722769643D706F73742D777261707065723E3C64 PUSH2 0x960 DUP3 ADD MSTORE PUSH32 0x697620636C6173733D276C696768742D746578742D3220616E64726577732D63 PUSH2 0x980 DUP3 ADD MSTORE PUSH32 0x6F6E7461696E6572273E3C64697620636C6173733D276C696768742D74657874 PUSH2 0x9A0 DUP3 ADD MSTORE PUSH32 0x206865616465722D7469746C65273E466F72756D733C2F6469763E3C64697620 PUSH2 0x9C0 DUP3 ADD MSTORE PUSH32 0x636C6173733D62726561646372756D62733E50726F7A616320596F757468203E PUSH2 0x9E0 DUP3 ADD MSTORE PUSH32 0x20466F72756D73203E20544A4F203E20446561722048756D616E3C2F6469763E PUSH2 0xA00 DUP3 ADD MSTORE PUSH32 0x3C64697620636C6173733D27666F72756D2D72756C6573206C696768742D6267 PUSH2 0xA20 DUP3 ADD MSTORE PUSH32 0x2D32206C696768742D626F726465722D32206C696768742D746578742D34273E PUSH2 0xA40 DUP3 ADD MSTORE PUSH32 0x546865206F6E6C792072756C6573207765207265717565737420796F7520746F PUSH2 0xA60 DUP3 ADD MSTORE PUSH32 0x20666F6C6C6F772C2061726520746F206B656570207468696E677320706F6C69 PUSH2 0xA80 DUP3 ADD MSTORE PUSH32 0x74652C20616E6420746F20706C656173652070757420796F7572206D65737361 PUSH2 0xAA0 DUP3 ADD MSTORE PUSH32 0x67657320696E2074686520617070726F7072696174652073656374696F6E732E PUSH2 0xAC0 DUP3 ADD MSTORE PUSH32 0x3C2F6469763E3C64697620636C6173733D706F73742D696E666F3E3C7370616E PUSH2 0xAE0 DUP3 ADD MSTORE PUSH32 0x20636C6173733D6C696768742D746578742D323E546F74616C20506F7374733A PUSH2 0xB00 DUP3 ADD MSTORE PUSH32 0x203C622069643D746F74616C2D706F7374733E00000000000000000000000000 PUSH2 0xB20 DUP3 ADD MSTORE POP JUMP JUMPDEST PUSH0 PUSH2 0x12A7 PUSH2 0xB33 DUP4 PUSH2 0x363 JUMP JUMPDEST SWAP2 POP PUSH2 0x12B2 DUP3 PUSH2 0x4EA JUMP JUMPDEST PUSH2 0xB33 DUP3 ADD SWAP1 POP SWAP2 SWAP1 POP JUMP JUMPDEST PUSH0 PUSH2 0x12C8 DUP3 PUSH2 0xF2 JUMP JUMPDEST PUSH2 0x12D2 DUP2 DUP6 PUSH2 0x363 JUMP JUMPDEST SWAP4 POP PUSH2 0x12E2 DUP2 DUP6 PUSH1 0x20 DUP7 ADD PUSH2 0x10C JUMP JUMPDEST DUP1 DUP5 ADD SWAP2 POP POP SWAP3 SWAP2 POP POP JUMP JUMPDEST PUSH32 0x3C2F623E3C2F7370616E3E3C64697620636C6173733D74696D652D7772617070 PUSH0 DUP3 ADD MSTORE PUSH32 0x65723E3C7370616E20636C6173733D276C696768742D746578742D3220637572 PUSH1 0x20 DUP3 ADD MSTORE PUSH32 0x72656E742D74696D65273E41707220323720323032342031343A32323A34303C PUSH1 0x40 DUP3 ADD MSTORE PUSH32 0x2F7370616E3E3C2F6469763E3C2F6469763E3C7461626C6520636C6173733D74 PUSH1 0x60 DUP3 ADD MSTORE PUSH32 0x61626C65207374796C653D7461626C652D6C61796F75743A66697865643E3C74 PUSH1 0x80 DUP3 ADD MSTORE PUSH32 0x686561643E3C747220636C6173733D276C696768742D626F72646572206C6967 PUSH1 0xA0 DUP3 ADD MSTORE PUSH32 0x68742D74657874207461626C652D686561646572273E3C74683E417574686F72 PUSH1 0xC0 DUP3 ADD MSTORE PUSH32 0x3C74683E5468726561643C74626F64792069643D7461626C652D626F64793E3C PUSH1 0xE0 DUP3 ADD MSTORE PUSH32 0x747220636C6173733D276C696768742D6267206C696768742D626F7264657220 PUSH2 0x100 DUP3 ADD MSTORE PUSH32 0x7461626C652D726F77273E3C74643E417574686F72204E616D653C74643E5468 PUSH2 0x120 DUP3 ADD MSTORE PUSH32 0x72656164205469746C6500000000000000000000000000000000000000000000 PUSH2 0x140 DUP3 ADD MSTORE POP JUMP JUMPDEST PUSH0 PUSH2 0x14A2 PUSH2 0x14A DUP4 PUSH2 0x363 JUMP JUMPDEST SWAP2 POP PUSH2 0x14AD DUP3 PUSH2 0x12EE JUMP JUMPDEST PUSH2 0x14A DUP3 ADD SWAP1 POP SWAP2 SWAP1 POP JUMP JUMPDEST PUSH32 0x3C2F7461626C653E3C7370616E2069643D6D6F64652D737769746368206F6E63 PUSH0 DUP3 ADD MSTORE PUSH32 0x6C69636B3D746F67676C654D6F646528293E3C7376672066696C6C3D23303030 PUSH1 0x20 DUP3 ADD MSTORE PUSH32 0x303030206865696768743D323070782069643D436170615F312076657273696F PUSH1 0x40 DUP3 ADD MSTORE PUSH32 0x6E3D312E312076696577426F783D27302030203230372E363238203230372E36 PUSH1 0x60 DUP3 ADD MSTORE PUSH32 0x32382777696474683D3230707820786D6C3A73706163653D7072657365727665 PUSH1 0x80 DUP3 ADD MSTORE PUSH32 0x20786D6C6E733D687474703A2F2F7777772E77332E6F72672F323030302F7376 PUSH1 0xA0 DUP3 ADD MSTORE PUSH32 0x6720786D6C6E733A786C696E6B3D687474703A2F2F7777772E77332E6F72672F PUSH1 0xC0 DUP3 ADD MSTORE PUSH32 0x313939392F786C696E6B3E3C636972636C652063783D3130332E383134206379 PUSH1 0xE0 DUP3 ADD MSTORE PUSH32 0x3D3130332E38313420723D34352E383638202F3E3C7061746820643D274D3130 PUSH2 0x100 DUP3 ADD MSTORE PUSH32 0x332E3831342C3135372E313833632D32392E3432372C302D35332E3336382D32 PUSH2 0x120 DUP3 ADD MSTORE PUSH32 0x332E3934312D35332E3336382D35332E3336387332332E3934312D35332E3336 PUSH2 0x140 DUP3 ADD MSTORE PUSH32 0x382C35332E3336382D35332E3336387335332E3336382C32332E3934312C3533 PUSH2 0x160 DUP3 ADD MSTORE PUSH32 0x2E3336382C35332E3336382020533133332E3234312C3135372E3138332C3130 PUSH2 0x180 DUP3 ADD MSTORE PUSH32 0x332E3831342C3135372E3138337A204D3130332E3831342C36352E343436632D PUSH2 0x1A0 DUP3 ADD MSTORE PUSH32 0x32312E3135362C302D33382E3336382C31372E3231322D33382E3336382C3338 PUSH2 0x1C0 DUP3 ADD MSTORE PUSH32 0x2E3336387331372E3231322C33382E3336382C33382E3336382C33382E333638 PUSH2 0x1E0 DUP3 ADD MSTORE PUSH32 0x20207333382E3336382D31372E3231322C33382E3336382D33382E3336385331 PUSH2 0x200 DUP3 ADD MSTORE PUSH32 0x32342E39372C36352E3434362C3130332E3831342C36352E3434367A272F3E3C PUSH2 0x220 DUP3 ADD MSTORE PUSH32 0x7061746820643D274D3130332E3831342C33392E333835632D342E3134322C30 PUSH2 0x240 DUP3 ADD MSTORE PUSH32 0x2D372E352D332E3335382D372E352D372E3556372E3563302D342E3134322C33 PUSH2 0x260 DUP3 ADD MSTORE PUSH32 0x2E3335382D372E352C372E352D372E3573372E352C332E3335382C372E352C37 PUSH2 0x280 DUP3 ADD MSTORE PUSH32 0x2E357632342E3338352020433131312E3331342C33362E3032372C3130372E39 PUSH2 0x2A0 DUP3 ADD MSTORE PUSH32 0x35362C33392E3338352C3130332E3831342C33392E3338357A272F3E3C706174 PUSH2 0x2C0 DUP3 ADD MSTORE PUSH32 0x6820643D274D3130332E3831342C3230372E363238632D342E3134322C302D37 PUSH2 0x2E0 DUP3 ADD MSTORE PUSH32 0x2E352D332E3335382D372E352D372E35762D32342E33383563302D342E313432 PUSH2 0x300 DUP3 ADD MSTORE PUSH32 0x2C332E3335382D372E352C372E352D372E3573372E352C332E3335382C372E35 PUSH2 0x320 DUP3 ADD MSTORE PUSH32 0x2C372E357632342E3338352020433131312E3331342C3230342E3237312C3130 PUSH2 0x340 DUP3 ADD MSTORE PUSH32 0x372E3935362C3230372E3632382C3130332E3831342C3230372E3632387A272F PUSH2 0x360 DUP3 ADD MSTORE PUSH32 0x3E3C7061746820643D274D3230302E3132382C3131312E333134682D32342E33 PUSH2 0x380 DUP3 ADD MSTORE PUSH32 0x3835632D342E3134322C302D372E352D332E3335382D372E352D372E3573332E PUSH2 0x3A0 DUP3 ADD MSTORE PUSH32 0x3335382D372E352C372E352D372E356832342E33383563342E3134322C302C37 PUSH2 0x3C0 DUP3 ADD MSTORE PUSH32 0x2E352C332E3335382C372E352C372E352020533230342E3237312C3131312E33 PUSH2 0x3E0 DUP3 ADD MSTORE PUSH32 0x31342C3230302E3132382C3131312E3331347A272F3E3C7061746820643D274D PUSH2 0x400 DUP3 ADD MSTORE PUSH32 0x33312E3838352C3131312E33313448372E35632D342E3134322C302D372E352D PUSH2 0x420 DUP3 ADD MSTORE PUSH32 0x332E3335382D372E352D372E3573332E3335382D372E352C372E352D372E3568 PUSH2 0x440 DUP3 ADD MSTORE PUSH32 0x32342E33383563342E3134322C302C372E352C332E3335382C372E352C372E35 PUSH2 0x460 DUP3 ADD MSTORE PUSH32 0x20205333362E3032372C3131312E3331342C33312E3838352C3131312E333134 PUSH2 0x480 DUP3 ADD MSTORE PUSH32 0x7A272F3E3C7061746820643D274D3135342E3637362C36302E343532632D312E PUSH2 0x4A0 DUP3 ADD MSTORE PUSH32 0x3931392C302D332E3833392D302E3733322D352E3330332D322E313937632D32 PUSH2 0x4C0 DUP3 ADD MSTORE PUSH32 0x2E3932392D322E3932392D322E3932392D372E3637382C302D31302E3630366C PUSH2 0x4E0 DUP3 ADD MSTORE PUSH32 0x31372E3234332D31372E323432202063322E3932392D322E3932392C372E3637 PUSH2 0x500 DUP3 ADD MSTORE PUSH32 0x382D322E39332C31302E3630362C3063322E3932392C322E3932392C322E3932 PUSH2 0x520 DUP3 ADD MSTORE PUSH32 0x392C372E3637382C302C31302E3630366C2D31372E3234332C31372E32343243 PUSH2 0x540 DUP3 ADD MSTORE PUSH32 0x3135382E3531352C35392E37322C3135362E3539352C36302E3435322C313534 PUSH2 0x560 DUP3 ADD MSTORE PUSH32 0x2E3637362C36302E3435327A272F3E3C7061746820643D274D33352E3730392C PUSH2 0x580 DUP3 ADD MSTORE PUSH32 0x3137392E343139632D312E3931392C302D332E3833392D302E3733322D352E33 PUSH2 0x5A0 DUP3 ADD MSTORE PUSH32 0x30332D322E313937632D322E3932392D322E3932392D322E3932392D372E3637 PUSH2 0x5C0 DUP3 ADD MSTORE PUSH32 0x382C302D31302E3630366C31372E3234332D31372E323433202063322E393239 PUSH2 0x5E0 DUP3 ADD MSTORE PUSH32 0x2D322E3932392C372E3637382D322E3932392C31302E3630362C3063322E3932 PUSH2 0x600 DUP3 ADD MSTORE PUSH32 0x392C322E3932392C322E3932392C372E3637382C302C31302E3630366C2D3137 PUSH2 0x620 DUP3 ADD MSTORE PUSH32 0x2E3234332C31372E3234334333392E3534382C3137382E3638372C33372E3632 PUSH2 0x640 DUP3 ADD MSTORE PUSH32 0x392C3137392E3431392C33352E3730392C3137392E3431397A2020272F3E3C70 PUSH2 0x660 DUP3 ADD MSTORE PUSH32 0x61746820643D274D3137312E3931382C3137392E343139632D312E3931392C30 PUSH2 0x680 DUP3 ADD MSTORE PUSH32 0x2D332E3833392D302E3733322D352E3330332D322E3139376C2D31372E323433 PUSH2 0x6A0 DUP3 ADD MSTORE PUSH32 0x2D31372E323433632D322E3932392D322E3932392D322E3932392D372E363738 PUSH2 0x6C0 DUP3 ADD MSTORE PUSH32 0x2C302D31302E363036202063322E3932392D322E3932392C372E3637382D322E PUSH2 0x6E0 DUP3 ADD MSTORE PUSH32 0x3932392C31302E3630362C306C31372E3234332C31372E32343363322E393239 PUSH2 0x700 DUP3 ADD MSTORE PUSH32 0x2C322E3932392C322E3932392C372E3637382C302C31302E3630362020433137 PUSH2 0x720 DUP3 ADD MSTORE PUSH32 0x352E3735372C3137382E3638372C3137332E3833382C3137392E3431392C3137 PUSH2 0x740 DUP3 ADD MSTORE PUSH32 0x312E3931382C3137392E3431397A272F3E3C7061746820643D274D35322E3935 PUSH2 0x760 DUP3 ADD MSTORE PUSH32 0x322C36302E343532632D312E3931392C302D332E3833392D302E3733322D352E PUSH2 0x780 DUP3 ADD MSTORE PUSH32 0x3330332D322E3139374C33302E3430362C34312E303133632D322E3932392D32 PUSH2 0x7A0 DUP3 ADD MSTORE PUSH32 0x2E3932392D322E3932392D372E3637372C302D31302E363036202063322E3932 PUSH2 0x7C0 DUP3 ADD MSTORE PUSH32 0x392D322E3932392C372E3637382D322E39332C31302E3630362C306C31372E32 PUSH2 0x7E0 DUP3 ADD MSTORE PUSH32 0x34332C31372E32343263322E3932392C322E3932392C322E3932392C372E3637 PUSH2 0x800 DUP3 ADD MSTORE PUSH32 0x372C302C31302E3630364335362E3739312C35392E37322C35342E3837322C36 PUSH2 0x820 DUP3 ADD MSTORE PUSH32 0x302E3435322C35322E3935322C36302E3435327A272F3E3C2F7376673E3C2F73 PUSH2 0x840 DUP3 ADD MSTORE PUSH32 0x70616E3E3C6469762069643D616E64726577207374796C653D6D617267696E2D PUSH2 0x860 DUP3 ADD MSTORE PUSH32 0x746F703A313570783B746578742D616C69676E3A63656E7465723B7769647468 PUSH2 0x880 DUP3 ADD MSTORE PUSH32 0x3A313030253E3C7370616E3E44657369676E6564206279203C6120636C617373 PUSH2 0x8A0 DUP3 ADD MSTORE PUSH32 0x3D6C696768742D6C696E6B20687265663D000000000000000000000000000000 PUSH2 0x8C0 DUP3 ADD MSTORE POP JUMP JUMPDEST PUSH0 PUSH2 0x1F91 PUSH2 0x8D1 DUP4 PUSH2 0x363 JUMP JUMPDEST SWAP2 POP PUSH2 0x1F9C DUP3 PUSH2 0x14B9 JUMP JUMPDEST PUSH2 0x8D1 DUP3 ADD SWAP1 POP SWAP2 SWAP1 POP JUMP JUMPDEST PUSH32 0x207461726765743D5F626C616E6B3E416E64726577204D69746368656C6C3C2F PUSH0 DUP3 ADD MSTORE PUSH32 0x613E3C2F7370616E3E3C2F6469763E3C64697620636C6173733D666F6F746572 PUSH1 0x20 DUP3 ADD MSTORE PUSH32 0x3E26233136393B2050726F7A616320596F7574682E20416C6C20726967687473 PUSH1 0x40 DUP3 ADD MSTORE PUSH32 0x2072657365727665642E3C2F6469763E3C2F6469763E3C2F6469763E00000000 PUSH1 0x60 DUP3 ADD MSTORE POP JUMP JUMPDEST PUSH0 PUSH2 0x204E PUSH1 0x7C DUP4 PUSH2 0x363 JUMP JUMPDEST SWAP2 POP PUSH2 0x2059 DUP3 PUSH2 0x1FA8 JUMP JUMPDEST PUSH1 0x7C DUP3 ADD SWAP1 POP SWAP2 SWAP1 POP JUMP JUMPDEST PUSH0 PUSH2 0x206E DUP3 PUSH2 0x4C6 JUMP JUMPDEST SWAP2 POP PUSH2 0x2079 DUP3 PUSH2 0x129A JUMP JUMPDEST SWAP2 POP PUSH2 0x2085 DUP3 DUP7 PUSH2 0x12BE JUMP JUMPDEST SWAP2 POP PUSH2 0x2090 DUP3 PUSH2 0x1495 JUMP JUMPDEST SWAP2 POP PUSH2 0x209C DUP3 DUP6 PUSH2 0x12BE JUMP JUMPDEST SWAP2 POP PUSH2 0x20A7 DUP3 PUSH2 0x1F84 JUMP JUMPDEST SWAP2 POP PUSH2 0x20B3 DUP3 DUP5 PUSH2 0x12BE JUMP JUMPDEST SWAP2 POP PUSH2 0x20BE DUP3 PUSH2 0x2042 JUMP JUMPDEST SWAP2 POP DUP2 SWAP1 POP SWAP5 SWAP4 POP POP POP POP JUMP INVALID LOG2 PUSH5 0x6970667358 0x22 SLT KECCAK256 0xB4 DUP4 SGT PUSH18 0xC010E69E2D596ED3998C7B9A1418F141B786 BLOCKHASH SWAP7 0xE4 PUSH24 0xB975404867B764736F6C634300081A003300000000000000 "
		},
		"gasEstimates": {
			"creation": {
				"codeDepositCost": "1689800",
				"executionCost": "1776",
				"totalCost": "1691576"
			},
			"external": {
				"getAnimFooter()": "infinite",
				"getAnimHeader(string,string,string)": "infinite"
			}
		},
		"methodIdentifiers": {
			"getAnimFooter()": "7899ff8f",
			"getAnimHeader(string,string,string)": "d71b9933"
		}
	},
	"abi": [
		{
			"inputs": [],
			"name": "getAnimFooter",
			"outputs": [
				{
					"internalType": "string",
					"name": "",
					"type": "string"
				}
			],
			"stateMutability": "pure",
			"type": "function"
		},
		{
			"inputs": [
				{
					"internalType": "string",
					"name": "andrewUrl",
					"type": "string"
				},
				{
					"internalType": "string",
					"name": "entriesHtml",
					"type": "string"
				},
				{
					"internalType": "string",
					"name": "totalEntries",
					"type": "string"
				}
			],
			"name": "getAnimHeader",
			"outputs": [
				{
					"internalType": "string",
					"name": "",
					"type": "string"
				}
			],
			"stateMutability": "view",
			"type": "function"
		}
	]
}