{
	"data": {
		"bytecode": {
			"linkReferences": {},
			"object": "60806040526040518060400160405280600181526020017f30000000000000000000000000000000000000000000000000000000000000008152505f9081610047919061040b565b506040518060400160405280601481526020017f68747470733a2f2f7777772e746a6f2e6172742f0000000000000000000000008152506004908161008c919061040b565b506040518060400160405280601881526020017f68747470733a2f2f65746865727363616e2e696f2f74782f0000000000000000815250600590816100d1919061040b565b506040518060400160405280601a81526020017f68747470733a2f2f616e647265776d69746368656c6c2e78797a00000000000081525060069081610116919061040b565b50348015610122575f80fd5b503360035f6101000a81548173ffffffffffffffffffffffffffffffffffffffff021916908373ffffffffffffffffffffffffffffffffffffffff160217905550600160025f73f1da6e2d387e9da611dac8a7fc587eaa4b01001373ffffffffffffffffffffffffffffffffffffffff1673ffffffffffffffffffffffffffffffffffffffff1681526020019081526020015f205f6101000a81548160ff0219169083151502179055506104da565b5f81519050919050565b7f4e487b71000000000000000000000000000000000000000000000000000000005f52604160045260245ffd5b7f4e487b71000000000000000000000000000000000000000000000000000000005f52602260045260245ffd5b5f600282049050600182168061024c57607f821691505b60208210810361025f5761025e610208565b5b50919050565b5f819050815f5260205f209050919050565b5f6020601f8301049050919050565b5f82821b905092915050565b5f600883026102c17fffffffffffffffffffffffffffffffffffffffffffffffffffffffffffffffff82610286565b6102cb8683610286565b95508019841693508086168417925050509392505050565b5f819050919050565b5f819050919050565b5f61030f61030a610305846102e3565b6102ec565b6102e3565b9050919050565b5f819050919050565b610328836102f5565b61033c61033482610316565b848454610292565b825550505050565b5f90565b610350610344565b61035b81848461031f565b505050565b5b8181101561037e576103735f82610348565b600181019050610361565b5050565b601f8211156103c35761039481610265565b61039d84610277565b810160208510156103ac578190505b6103c06103b885610277565b830182610360565b50505b505050565b5f82821c905092915050565b5f6103e35f19846008026103c8565b1980831691505092915050565b5f6103fb83836103d4565b9150826002028217905092915050565b610414826101d1565b67ffffffffffffffff81111561042d5761042c6101db565b5b6104378254610235565b610442828285610382565b5f60209050601f831160018114610473575f8415610461578287015190505b61046b85826103f0565b8655506104d2565b601f19841661048186610265565b5f5b828110156104a857848901518255600182019150602085019450602081019050610483565b868310156104c557848901516104c1601f8916826103d4565b8355505b6001600288020188555050505b505050505050565b612bf0806104e75f395ff3fe608060405234801561000f575f80fd5b506004361061011f575f3560e01c806385e68531116100ab578063a9c598b91161006f578063a9c598b9146102bb578063b0a69ab4146102d7578063b30906d4146102f5578063c41f0cac14610329578063c5532468146103455761011f565b806385e685311461021757806387a5b67c146102335780638da5cb5b146102635780639ef96d1f14610281578063a84fd0ed1461029f5761011f565b8063295a5212116100f2578063295a5212146101855780634b4fd03b146101a357806352baf08f146101c157806357c8be66146101dd57806372176858146101f95761011f565b80630ae5e739146101235780630d8550e11461013f57806312d491c91461015d5780632214a8531461017b575b5f80fd5b61013d600480360381019061013891906116b4565b610363565b005b61014761044a565b604051610154919061174f565b60405180910390f35b6101656104da565b604051610172919061174f565b60405180910390f35b6101836104ef565b005b61018d6105de565b60405161019a919061174f565b60405180910390f35b6101ab610669565b6040516101b8919061174f565b60405180910390f35b6101db60048036038101906101d6919061189b565b610733565b005b6101f760048036038101906101f291906118e2565b610826565b005b6102016109ca565b60405161020e919061174f565b60405180910390f35b610231600480360381019061022c91906116b4565b610a5a565b005b61024d600480360381019061024891906116b4565b610b40565b60405161025a91906119ff565b60405180910390f35b61026b610b5d565b6040516102789190611a27565b60405180910390f35b610289610b82565b604051610296919061174f565b60405180910390f35b6102b960048036038101906102b4919061189b565b610c12565b005b6102d560048036038101906102d0919061189b565b610de4565b005b6102df610ed7565b6040516102ec919061174f565b60405180910390f35b61030f600480360381019061030a9190611a73565b610fb5565b604051610320959493929190611a9e565b60405180910390f35b610343600480360381019061033e919061189b565b611294565b005b61034d611387565b60405161035a919061174f565b60405180910390f35b60035f9054906101000a900473ffffffffffffffffffffffffffffffffffffffff1673ffffffffffffffffffffffffffffffffffffffff163373ffffffffffffffffffffffffffffffffffffffff16146103f2576040517f08c379a00000000000000000000000000000000000000000000000000000000081526004016103e990611b5c565b60405180910390fd5b600160025f8373ffffffffffffffffffffffffffffffffffffffff1673ffffffffffffffffffffffffffffffffffffffff1681526020019081526020015f205f6101000a81548160ff02191690831515021790555050565b60606004805461045990611ba7565b80601f016020809104026020016040519081016040528092919081815260200182805461048590611ba7565b80156104d05780601f106104a7576101008083540402835291602001916104d0565b820191905f5260205f20905b8154815290600101906020018083116104b357829003601f168201915b5050505050905090565b60606104ea600180549050611416565b905090565b60035f9054906101000a900473ffffffffffffffffffffffffffffffffffffffff1673ffffffffffffffffffffffffffffffffffffffff163373ffffffffffffffffffffffffffffffffffffffff161480610590575060025f3373ffffffffffffffffffffffffffffffffffffffff1673ffffffffffffffffffffffffffffffffffffffff1681526020019081526020015f205f9054906101000a900460ff165b6105cf576040517f08c379a00000000000000000000000000000000000000000000000000000000081526004016105c690611c21565b60405180910390fd5b60015f6105dc919061156f565b565b5f80546105ea90611ba7565b80601f016020809104026020016040519081016040528092919081815260200182805461061690611ba7565b80156106615780601f1061063857610100808354040283529160200191610661565b820191905f5260205f20905b81548152906001019060200180831161064457829003601f168201915b505050505081565b606060405160200161067a90611c93565b604051602081830303815290604052805190602001205f6040516020016106a19190611d39565b60405160208183030381529060405280519060200120146106f7576040518060400160405280600481526020017f6461726b0000000000000000000000000000000000000000000000000000000081525061072e565b6040518060400160405280600581526020017f6c696768740000000000000000000000000000000000000000000000000000008152505b905090565b60035f9054906101000a900473ffffffffffffffffffffffffffffffffffffffff1673ffffffffffffffffffffffffffffffffffffffff163373ffffffffffffffffffffffffffffffffffffffff1614806107d4575060025f3373ffffffffffffffffffffffffffffffffffffffff1673ffffffffffffffffffffffffffffffffffffffff1681526020019081526020015f205f9054906101000a900460ff165b610813576040517f08c379a000000000000000000000000000000000000000000000000000000000815260040161080a90611c21565b60405180910390fd5b80600690816108229190611eda565b5050565b60035f9054906101000a900473ffffffffffffffffffffffffffffffffffffffff1673ffffffffffffffffffffffffffffffffffffffff163373ffffffffffffffffffffffffffffffffffffffff1614806108c7575060025f3373ffffffffffffffffffffffffffffffffffffffff1673ffffffffffffffffffffffffffffffffffffffff1681526020019081526020015f205f9054906101000a900460ff165b610906576040517f08c379a00000000000000000000000000000000000000000000000000000000081526004016108fd90611c21565b60405180910390fd5b60016040518060a0016040528087815260200186815260200185815260200184815260200183815250908060018154018082558091505060019003905f5260205f2090600502015f909190919091505f820151815f0190816109689190611eda565b50602082015181600101908161097e9190611eda565b5060408201518160020190816109949190611eda565b5060608201518160030190816109aa9190611eda565b5060808201518160040190816109c09190611eda565b5050505050505050565b6060600580546109d990611ba7565b80601f0160208091040260200160405190810160405280929190818152602001828054610a0590611ba7565b8015610a505780601f10610a2757610100808354040283529160200191610a50565b820191905f5260205f20905b815481529060010190602001808311610a3357829003601f168201915b5050505050905090565b60035f9054906101000a900473ffffffffffffffffffffffffffffffffffffffff1673ffffffffffffffffffffffffffffffffffffffff163373ffffffffffffffffffffffffffffffffffffffff1614610ae9576040517f08c379a0000000000000000000000000000000000000000000000000000000008152600401610ae090611b5c565b60405180910390fd5b5f60025f8373ffffffffffffffffffffffffffffffffffffffff1673ffffffffffffffffffffffffffffffffffffffff1681526020019081526020015f205f6101000a81548160ff02191690831515021790555050565b6002602052805f5260405f205f915054906101000a900460ff1681565b60035f9054906101000a900473ffffffffffffffffffffffffffffffffffffffff1681565b606060068054610b9190611ba7565b80601f0160208091040260200160405190810160405280929190818152602001828054610bbd90611ba7565b8015610c085780601f10610bdf57610100808354040283529160200191610c08565b820191905f5260205f20905b815481529060010190602001808311610beb57829003601f168201915b5050505050905090565b60035f9054906101000a900473ffffffffffffffffffffffffffffffffffffffff1673ffffffffffffffffffffffffffffffffffffffff163373ffffffffffffffffffffffffffffffffffffffff161480610cb3575060025f3373ffffffffffffffffffffffffffffffffffffffff1673ffffffffffffffffffffffffffffffffffffffff1681526020019081526020015f205f9054906101000a900460ff165b610cf2576040517f08c379a0000000000000000000000000000000000000000000000000000000008152600401610ce990611c21565b60405180910390fd5b604051602001610d0190611c93565b6040516020818303038152906040528051906020012081604051602001610d289190611fd9565b604051602081830303815290604052805190602001201480610d935750604051602001610d5490612039565b6040516020818303038152906040528051906020012081604051602001610d7b9190611fd9565b60405160208183030381529060405280519060200120145b610dd2576040517f08c379a0000000000000000000000000000000000000000000000000000000008152600401610dc990612097565b60405180910390fd5b805f9081610de09190611eda565b5050565b60035f9054906101000a900473ffffffffffffffffffffffffffffffffffffffff1673ffffffffffffffffffffffffffffffffffffffff163373ffffffffffffffffffffffffffffffffffffffff161480610e85575060025f3373ffffffffffffffffffffffffffffffffffffffff1673ffffffffffffffffffffffffffffffffffffffff1681526020019081526020015f205f9054906101000a900460ff165b610ec4576040517f08c379a0000000000000000000000000000000000000000000000000000000008152600401610ebb90611c21565b60405180910390fd5b8060059081610ed39190611eda565b5050565b6060805f5b600180549050811015610fad57816004600560018481548110610f0257610f016120b5565b5b905f5260205f2090600502015f0160018581548110610f2457610f236120b5565b5b905f5260205f20906005020160040160018681548110610f4757610f466120b5565b5b905f5260205f20906005020160010160018781548110610f6a57610f696120b5565b5b905f5260205f209060050201600301604051602001610f8f9796959493929190612908565b60405160208183030381529060405291508080600101915050610edc565b508091505090565b60018181548110610fc4575f80fd5b905f5260205f2090600502015f91509050805f018054610fe390611ba7565b80601f016020809104026020016040519081016040528092919081815260200182805461100f90611ba7565b801561105a5780601f106110315761010080835404028352916020019161105a565b820191905f5260205f20905b81548152906001019060200180831161103d57829003601f168201915b50505050509080600101805461106f90611ba7565b80601f016020809104026020016040519081016040528092919081815260200182805461109b90611ba7565b80156110e65780601f106110bd576101008083540402835291602001916110e6565b820191905f5260205f20905b8154815290600101906020018083116110c957829003601f168201915b5050505050908060020180546110fb90611ba7565b80601f016020809104026020016040519081016040528092919081815260200182805461112790611ba7565b80156111725780601f1061114957610100808354040283529160200191611172565b820191905f5260205f20905b81548152906001019060200180831161115557829003601f168201915b50505050509080600301805461118790611ba7565b80601f01602080910402602001604051908101604052809291908181526020018280546111b390611ba7565b80156111fe5780601f106111d5576101008083540402835291602001916111fe565b820191905f5260205f20905b8154815290600101906020018083116111e157829003601f168201915b50505050509080600401805461121390611ba7565b80601f016020809104026020016040519081016040528092919081815260200182805461123f90611ba7565b801561128a5780601f106112615761010080835404028352916020019161128a565b820191905f5260205f20905b81548152906001019060200180831161126d57829003601f168201915b5050505050905085565b60035f9054906101000a900473ffffffffffffffffffffffffffffffffffffffff1673ffffffffffffffffffffffffffffffffffffffff163373ffffffffffffffffffffffffffffffffffffffff161480611335575060025f3373ffffffffffffffffffffffffffffffffffffffff1673ffffffffffffffffffffffffffffffffffffffff1681526020019081526020015f205f9054906101000a900460ff165b611374576040517f08c379a000000000000000000000000000000000000000000000000000000000815260040161136b90611c21565b60405180910390fd5b80600490816113839190611eda565b5050565b60605f805461139590611ba7565b80601f01602080910402602001604051908101604052809291908181526020018280546113c190611ba7565b801561140c5780601f106113e35761010080835404028352916020019161140c565b820191905f5260205f20905b8154815290600101906020018083116113ef57829003601f168201915b5050505050905090565b60605f820361145c576040518060400160405280600181526020017f3000000000000000000000000000000000000000000000000000000000000000815250905061156a565b5f8290505f5b5f821461148b57808061147490612a80565b915050600a826114849190612af4565b9150611462565b5f8167ffffffffffffffff8111156114a6576114a5611777565b5b6040519080825280601f01601f1916602001820160405280156114d85781602001600182028036833780820191505090505b5090505b5f8514611563576001826114f09190612b24565b9150600a856114ff9190612b57565b603061150b9190612b87565b60f81b818381518110611521576115206120b5565b5b60200101907effffffffffffffffffffffffffffffffffffffffffffffffffffffffffffff191690815f1a905350600a8561155c9190612af4565b94506114dc565b8093505050505b919050565b5080545f8255600502905f5260205f209081019061158d9190611590565b50565b5b808211156115ed575f8082015f6115a891906115f1565b600182015f6115b791906115f1565b600282015f6115c691906115f1565b600382015f6115d591906115f1565b600482015f6115e491906115f1565b50600501611591565b5090565b5080546115fd90611ba7565b5f825580601f1061160e575061162b565b601f0160209004905f5260205f209081019061162a919061162e565b5b50565b5b80821115611645575f815f90555060010161162f565b5090565b5f604051905090565b5f80fd5b5f80fd5b5f73ffffffffffffffffffffffffffffffffffffffff82169050919050565b5f6116838261165a565b9050919050565b61169381611679565b811461169d575f80fd5b50565b5f813590506116ae8161168a565b92915050565b5f602082840312156116c9576116c8611652565b5b5f6116d6848285016116a0565b91505092915050565b5f81519050919050565b5f82825260208201905092915050565b8281835e5f83830152505050565b5f601f19601f8301169050919050565b5f611721826116df565b61172b81856116e9565b935061173b8185602086016116f9565b61174481611707565b840191505092915050565b5f6020820190508181035f8301526117678184611717565b905092915050565b5f80fd5b5f80fd5b7f4e487b71000000000000000000000000000000000000000000000000000000005f52604160045260245ffd5b6117ad82611707565b810181811067ffffffffffffffff821117156117cc576117cb611777565b5b80604052505050565b5f6117de611649565b90506117ea82826117a4565b919050565b5f67ffffffffffffffff82111561180957611808611777565b5b61181282611707565b9050602081019050919050565b828183375f83830152505050565b5f61183f61183a846117ef565b6117d5565b90508281526020810184848401111561185b5761185a611773565b5b61186684828561181f565b509392505050565b5f82601f8301126118825761188161176f565b5b813561189284826020860161182d565b91505092915050565b5f602082840312156118b0576118af611652565b5b5f82013567ffffffffffffffff8111156118cd576118cc611656565b5b6118d98482850161186e565b91505092915050565b5f805f805f60a086880312156118fb576118fa611652565b5b5f86013567ffffffffffffffff81111561191857611917611656565b5b6119248882890161186e565b955050602086013567ffffffffffffffff81111561194557611944611656565b5b6119518882890161186e565b945050604086013567ffffffffffffffff81111561197257611971611656565b5b61197e8882890161186e565b935050606086013567ffffffffffffffff81111561199f5761199e611656565b5b6119ab8882890161186e565b925050608086013567ffffffffffffffff8111156119cc576119cb611656565b5b6119d88882890161186e565b9150509295509295909350565b5f8115159050919050565b6119f9816119e5565b82525050565b5f602082019050611a125f8301846119f0565b92915050565b611a2181611679565b82525050565b5f602082019050611a3a5f830184611a18565b92915050565b5f819050919050565b611a5281611a40565b8114611a5c575f80fd5b50565b5f81359050611a6d81611a49565b92915050565b5f60208284031215611a8857611a87611652565b5b5f611a9584828501611a5f565b91505092915050565b5f60a0820190508181035f830152611ab68188611717565b90508181036020830152611aca8187611717565b90508181036040830152611ade8186611717565b90508181036060830152611af28185611717565b90508181036080830152611b068184611717565b90509695505050505050565b7f4e6f7420746865206f776e6572000000000000000000000000000000000000005f82015250565b5f611b46600d836116e9565b9150611b5182611b12565b602082019050919050565b5f6020820190508181035f830152611b7381611b3a565b9050919050565b7f4e487b71000000000000000000000000000000000000000000000000000000005f52602260045260245ffd5b5f6002820490506001821680611bbe57607f821691505b602082108103611bd157611bd0611b7a565b5b50919050565b7f4e6f7420617574686f72697a65640000000000000000000000000000000000005f82015250565b5f611c0b600e836116e9565b9150611c1682611bd7565b602082019050919050565b5f6020820190508181035f830152611c3881611bff565b9050919050565b5f81905092915050565b7f30000000000000000000000000000000000000000000000000000000000000005f82015250565b5f611c7d600183611c3f565b9150611c8882611c49565b600182019050919050565b5f611c9d82611c71565b9150819050919050565b5f819050815f5260205f209050919050565b5f8154611cc581611ba7565b611ccf8186611c3f565b9450600182165f8114611ce95760018114611cfe57611d30565b60ff1983168652811515820286019350611d30565b611d0785611ca7565b5f5b83811015611d2857815481890152600182019150602081019050611d09565b838801955050505b50505092915050565b5f611d448284611cb9565b915081905092915050565b5f6020601f8301049050919050565b5f82821b905092915050565b5f60088302611d997fffffffffffffffffffffffffffffffffffffffffffffffffffffffffffffffff82611d5e565b611da38683611d5e565b95508019841693508086168417925050509392505050565b5f819050919050565b5f611dde611dd9611dd484611a40565b611dbb565b611a40565b9050919050565b5f819050919050565b611df783611dc4565b611e0b611e0382611de5565b848454611d6a565b825550505050565b5f90565b611e1f611e13565b611e2a818484611dee565b505050565b5b81811015611e4d57611e425f82611e17565b600181019050611e30565b5050565b601f821115611e9257611e6381611ca7565b611e6c84611d4f565b81016020851015611e7b578190505b611e8f611e8785611d4f565b830182611e2f565b50505b505050565b5f82821c905092915050565b5f611eb25f1984600802611e97565b1980831691505092915050565b5f611eca8383611ea3565b9150826002028217905092915050565b611ee3826116df565b67ffffffffffffffff811115611efc57611efb611777565b5b611f068254611ba7565b611f11828285611e51565b5f60209050601f831160018114611f42575f8415611f30578287015190505b611f3a8582611ebf565b865550611fa1565b601f198416611f5086611ca7565b5f5b82811015611f7757848901518255600182019150602085019450602081019050611f52565b86831015611f945784890151611f90601f891682611ea3565b8355505b6001600288020188555050505b505050505050565b5f611fb3826116df565b611fbd8185611c3f565b9350611fcd8185602086016116f9565b80840191505092915050565b5f611fe48284611fa9565b915081905092915050565b7f31000000000000000000000000000000000000000000000000000000000000005f82015250565b5f612023600183611c3f565b915061202e82611fef565b600182019050919050565b5f61204382612017565b9150819050919050565b7f4d6f6465206d75737420626520273027206f72202731270000000000000000005f82015250565b5f6120816017836116e9565b915061208c8261204d565b602082019050919050565b5f6020820190508181035f8301526120ae81612075565b9050919050565b7f4e487b71000000000000000000000000000000000000000000000000000000005f52603260045260245ffd5b7f3c747220636c6173733d227461626c652d726f77206c696768742d6267206c695f8201527f6768742d626f72646572206c696768742d74657874223e000000000000000000602082015250565b5f61213c603783611c3f565b9150612147826120e2565b603782019050919050565b7f3c746420636c6173733d226c696768742d6267222077696474683d22333025225f8201527f20616c69676e3d2263656e746572223e00000000000000000000000000000000602082015250565b5f6121ac603083611c3f565b91506121b782612152565b603082019050919050565b7f3c666f6e7420636c6173733d22736d616c6c5f74657874223e000000000000005f82015250565b5f6121f6601983611c3f565b9150612201826121c2565b601982019050919050565b7f3c6120636c6173733d226c696768742d6c696e6b22207461726765743d225f625f8201527f6c616e6b2220687265663d220000000000000000000000000000000000000000602082015250565b5f612266602c83611c3f565b91506122718261220c565b602c82019050919050565b7f223e546a6f3c2f613e00000000000000000000000000000000000000000000005f82015250565b5f6122b0600983611c3f565b91506122bb8261227c565b600982019050919050565b7f3c666f6e743e3c2f666f6e743e3c2f666f6e743e3c2f74643e000000000000005f82015250565b5f6122fa601983611c3f565b9150612305826122c6565b601982019050919050565b7f3c746420616c69676e3d227269676874222077696474683d223730252220636c5f8201527f6173733d226c696768742d6267206c696768742d6c696e6b223e000000000000602082015250565b5f61236a603a83611c3f565b915061237582612310565b603a82019050919050565b7f3c64697620636c6173733d22706f7374496e666f206465736b746f70223e00005f82015250565b5f6123b4601e83611c3f565b91506123bf82612380565b601e82019050919050565b7f3c7370616e20636c6173733d22706f73744e756d206465736b746f70223e00005f82015250565b5f6123fe601e83611c3f565b9150612409826123ca565b601e82019050919050565b7f3c6120636c6173733d226c696768742d6c696e6b22207374796c653d22666f6e5f8201527f742d73697a653a313270783b2220687265663d22000000000000000000000000602082015250565b5f61246e603483611c3f565b915061247982612414565b603482019050919050565b7f22207461726765743d225f626c616e6b22207469746c653d224c696e6b20746f5f8201527f2074686973207472616e73616374696f6e223e00000000000000000000000000602082015250565b5f6124de603383611c3f565b91506124e982612484565b603382019050919050565b7f3c2f613e3c2f7370616e3e3c2f6469763e3c2f74643e3c2f74723e00000000005f82015250565b5f612528601b83611c3f565b9150612533826124f4565b601b82019050919050565b7f3c74723e3c74642076616c69676e3d226d6964646c652220616c69676e3d226c5f8201527f6566742220636c6173733d226c696768742d6267223e00000000000000000000602082015250565b5f612598603683611c3f565b91506125a38261253e565b603682019050919050565b7f3c756c20616c69676e3d226c65667422207374796c653d2270616464696e672d5f8201527f6c6566743a20313570783b666f6e742d73697a653a20313070783b223e000000602082015250565b5f612608603d83611c3f565b9150612613826125ae565b603d82019050919050565b7f3c6c6920636c6173733d226c696768742d746578742d33223e426c6f636b3a205f82015250565b5f612652602083611c3f565b915061265d8261261e565b602082019050919050565b7f3c2f6c693e3c6c6920636c6173733d226c696768742d746578742d33223e4c6f5f8201527f636174696f6e3a20554e4b4e4f574e3c2f6c693e3c2f756c3e3c2f74643e0000602082015250565b5f6126c2603e83611c3f565b91506126cd82612668565b603e82019050919050565b7f3c746420616c69676e3d2263656e746572222076616c69676e3d226d6964646c5f8201527f652220636c6173733d226c696768742d6267223e000000000000000000000000602082015250565b5f612732603483611c3f565b915061273d826126d8565b603482019050919050565b7f3c666f6e7420636c6173733d22726567756c61725f74657874223e00000000005f82015250565b5f61277c601b83611c3f565b915061278782612748565b601b82019050919050565b7f3c64697620636c6173733d22706f7374207265706c79223e00000000000000005f82015250565b5f6127c6601883611c3f565b91506127d182612792565b601882019050919050565b7f3c626c6f636b71756f7465207374796c653d2277686974652d73706163653a205f8201527f7072652d6c696e653b6d617267696e2d746f703a3070783b2220636c6173733d60208201527f22706f73744d657373616765206c696768742d746578742d32222069643d226d60408201527f3334303739393833223e3c62723e000000000000000000000000000000000000606082015250565b5f612882606e83611c3f565b915061288d826127dc565b606e82019050919050565b7f3c2f626c6f636b71756f74653e3c2f6469763e3c2f666f6e743e3c2f74643e3c5f8201527f2f74723e00000000000000000000000000000000000000000000000000000000602082015250565b5f6128f2602483611c3f565b91506128fd82612898565b602482019050919050565b5f612913828a611fa9565b915061291e82612130565b9150612929826121a0565b9150612934826121ea565b915061293f8261225a565b915061294b8289611cb9565b9150612956826122a4565b9150612961826122ee565b915061296c8261235e565b9150612977826123a8565b9150612982826123f2565b915061298d82612462565b91506129998288611cb9565b91506129a58287611cb9565b91506129b0826124d2565b91506129bc8286611cb9565b91506129c78261251c565b91506129d28261258c565b91506129dd826125fc565b91506129e882612646565b91506129f48285611cb9565b91506129ff826126b6565b9150612a0a82612726565b9150612a1582612770565b9150612a20826127ba565b9150612a2b82612876565b9150612a378284611cb9565b9150612a42826128e6565b915081905098975050505050505050565b7f4e487b71000000000000000000000000000000000000000000000000000000005f52601160045260245ffd5b5f612a8a82611a40565b91507fffffffffffffffffffffffffffffffffffffffffffffffffffffffffffffffff8203612abc57612abb612a53565b5b600182019050919050565b7f4e487b71000000000000000000000000000000000000000000000000000000005f52601260045260245ffd5b5f612afe82611a40565b9150612b0983611a40565b925082612b1957612b18612ac7565b5b828204905092915050565b5f612b2e82611a40565b9150612b3983611a40565b9250828203905081811115612b5157612b50612a53565b5b92915050565b5f612b6182611a40565b9150612b6c83611a40565b925082612b7c57612b7b612ac7565b5b828206905092915050565b5f612b9182611a40565b9150612b9c83611a40565b9250828201905080821115612bb457612bb3612a53565b5b9291505056fea2646970667358221220706197936cd88930741c09128dc6c41357e152dcb3a71fcc5e93988916a5957b64736f6c634300081a0033",
			"opcodes": "PUSH1 0x80 PUSH1 0x40 MSTORE PUSH1 0x40 MLOAD DUP1 PUSH1 0x40 ADD PUSH1 0x40 MSTORE DUP1 PUSH1 0x1 DUP2 MSTORE PUSH1 0x20 ADD PUSH32 0x3000000000000000000000000000000000000000000000000000000000000000 DUP2 MSTORE POP PUSH0 SWAP1 DUP2 PUSH2 0x47 SWAP2 SWAP1 PUSH2 0x40B JUMP JUMPDEST POP PUSH1 0x40 MLOAD DUP1 PUSH1 0x40 ADD PUSH1 0x40 MSTORE DUP1 PUSH1 0x14 DUP2 MSTORE PUSH1 0x20 ADD PUSH32 0x68747470733A2F2F7777772E746A6F2E6172742F000000000000000000000000 DUP2 MSTORE POP PUSH1 0x4 SWAP1 DUP2 PUSH2 0x8C SWAP2 SWAP1 PUSH2 0x40B JUMP JUMPDEST POP PUSH1 0x40 MLOAD DUP1 PUSH1 0x40 ADD PUSH1 0x40 MSTORE DUP1 PUSH1 0x18 DUP2 MSTORE PUSH1 0x20 ADD PUSH32 0x68747470733A2F2F65746865727363616E2E696F2F74782F0000000000000000 DUP2 MSTORE POP PUSH1 0x5 SWAP1 DUP2 PUSH2 0xD1 SWAP2 SWAP1 PUSH2 0x40B JUMP JUMPDEST POP PUSH1 0x40 MLOAD DUP1 PUSH1 0x40 ADD PUSH1 0x40 MSTORE DUP1 PUSH1 0x1A DUP2 MSTORE PUSH1 0x20 ADD PUSH32 0x68747470733A2F2F616E647265776D69746368656C6C2E78797A000000000000 DUP2 MSTORE POP PUSH1 0x6 SWAP1 DUP2 PUSH2 0x116 SWAP2 SWAP1 PUSH2 0x40B JUMP JUMPDEST POP CALLVALUE DUP1 ISZERO PUSH2 0x122 JUMPI PUSH0 DUP1 REVERT JUMPDEST POP CALLER PUSH1 0x3 PUSH0 PUSH2 0x100 EXP DUP2 SLOAD DUP2 PUSH20 0xFFFFFFFFFFFFFFFFFFFFFFFFFFFFFFFFFFFFFFFF MUL NOT AND SWAP1 DUP4 PUSH20 0xFFFFFFFFFFFFFFFFFFFFFFFFFFFFFFFFFFFFFFFF AND MUL OR SWAP1 SSTORE POP PUSH1 0x1 PUSH1 0x2 PUSH0 PUSH20 0xF1DA6E2D387E9DA611DAC8A7FC587EAA4B010013 PUSH20 0xFFFFFFFFFFFFFFFFFFFFFFFFFFFFFFFFFFFFFFFF AND PUSH20 0xFFFFFFFFFFFFFFFFFFFFFFFFFFFFFFFFFFFFFFFF AND DUP2 MSTORE PUSH1 0x20 ADD SWAP1 DUP2 MSTORE PUSH1 0x20 ADD PUSH0 KECCAK256 PUSH0 PUSH2 0x100 EXP DUP2 SLOAD DUP2 PUSH1 0xFF MUL NOT AND SWAP1 DUP4 ISZERO ISZERO MUL OR SWAP1 SSTORE POP PUSH2 0x4DA JUMP JUMPDEST PUSH0 DUP2 MLOAD SWAP1 POP SWAP2 SWAP1 POP JUMP JUMPDEST PUSH32 0x4E487B7100000000000000000000000000000000000000000000000000000000 PUSH0 MSTORE PUSH1 0x41 PUSH1 0x4 MSTORE PUSH1 0x24 PUSH0 REVERT JUMPDEST PUSH32 0x4E487B7100000000000000000000000000000000000000000000000000000000 PUSH0 MSTORE PUSH1 0x22 PUSH1 0x4 MSTORE PUSH1 0x24 PUSH0 REVERT JUMPDEST PUSH0 PUSH1 0x2 DUP3 DIV SWAP1 POP PUSH1 0x1 DUP3 AND DUP1 PUSH2 0x24C JUMPI PUSH1 0x7F DUP3 AND SWAP2 POP JUMPDEST PUSH1 0x20 DUP3 LT DUP2 SUB PUSH2 0x25F JUMPI PUSH2 0x25E PUSH2 0x208 JUMP JUMPDEST JUMPDEST POP SWAP2 SWAP1 POP JUMP JUMPDEST PUSH0 DUP2 SWAP1 POP DUP2 PUSH0 MSTORE PUSH1 0x20 PUSH0 KECCAK256 SWAP1 POP SWAP2 SWAP1 POP JUMP JUMPDEST PUSH0 PUSH1 0x20 PUSH1 0x1F DUP4 ADD DIV SWAP1 POP SWAP2 SWAP1 POP JUMP JUMPDEST PUSH0 DUP3 DUP3 SHL SWAP1 POP SWAP3 SWAP2 POP POP JUMP JUMPDEST PUSH0 PUSH1 0x8 DUP4 MUL PUSH2 0x2C1 PUSH32 0xFFFFFFFFFFFFFFFFFFFFFFFFFFFFFFFFFFFFFFFFFFFFFFFFFFFFFFFFFFFFFFFF DUP3 PUSH2 0x286 JUMP JUMPDEST PUSH2 0x2CB DUP7 DUP4 PUSH2 0x286 JUMP JUMPDEST SWAP6 POP DUP1 NOT DUP5 AND SWAP4 POP DUP1 DUP7 AND DUP5 OR SWAP3 POP POP POP SWAP4 SWAP3 POP POP POP JUMP JUMPDEST PUSH0 DUP2 SWAP1 POP SWAP2 SWAP1 POP JUMP JUMPDEST PUSH0 DUP2 SWAP1 POP SWAP2 SWAP1 POP JUMP JUMPDEST PUSH0 PUSH2 0x30F PUSH2 0x30A PUSH2 0x305 DUP5 PUSH2 0x2E3 JUMP JUMPDEST PUSH2 0x2EC JUMP JUMPDEST PUSH2 0x2E3 JUMP JUMPDEST SWAP1 POP SWAP2 SWAP1 POP JUMP JUMPDEST PUSH0 DUP2 SWAP1 POP SWAP2 SWAP1 POP JUMP JUMPDEST PUSH2 0x328 DUP4 PUSH2 0x2F5 JUMP JUMPDEST PUSH2 0x33C PUSH2 0x334 DUP3 PUSH2 0x316 JUMP JUMPDEST DUP5 DUP5 SLOAD PUSH2 0x292 JUMP JUMPDEST DUP3 SSTORE POP POP POP POP JUMP JUMPDEST PUSH0 SWAP1 JUMP JUMPDEST PUSH2 0x350 PUSH2 0x344 JUMP JUMPDEST PUSH2 0x35B DUP2 DUP5 DUP5 PUSH2 0x31F JUMP JUMPDEST POP POP POP JUMP JUMPDEST JUMPDEST DUP2 DUP2 LT ISZERO PUSH2 0x37E JUMPI PUSH2 0x373 PUSH0 DUP3 PUSH2 0x348 JUMP JUMPDEST PUSH1 0x1 DUP2 ADD SWAP1 POP PUSH2 0x361 JUMP JUMPDEST POP POP JUMP JUMPDEST PUSH1 0x1F DUP3 GT ISZERO PUSH2 0x3C3 JUMPI PUSH2 0x394 DUP2 PUSH2 0x265 JUMP JUMPDEST PUSH2 0x39D DUP5 PUSH2 0x277 JUMP JUMPDEST DUP2 ADD PUSH1 0x20 DUP6 LT ISZERO PUSH2 0x3AC JUMPI DUP2 SWAP1 POP JUMPDEST PUSH2 0x3C0 PUSH2 0x3B8 DUP6 PUSH2 0x277 JUMP JUMPDEST DUP4 ADD DUP3 PUSH2 0x360 JUMP JUMPDEST POP POP JUMPDEST POP POP POP JUMP JUMPDEST PUSH0 DUP3 DUP3 SHR SWAP1 POP SWAP3 SWAP2 POP POP JUMP JUMPDEST PUSH0 PUSH2 0x3E3 PUSH0 NOT DUP5 PUSH1 0x8 MUL PUSH2 0x3C8 JUMP JUMPDEST NOT DUP1 DUP4 AND SWAP2 POP POP SWAP3 SWAP2 POP POP JUMP JUMPDEST PUSH0 PUSH2 0x3FB DUP4 DUP4 PUSH2 0x3D4 JUMP JUMPDEST SWAP2 POP DUP3 PUSH1 0x2 MUL DUP3 OR SWAP1 POP SWAP3 SWAP2 POP POP JUMP JUMPDEST PUSH2 0x414 DUP3 PUSH2 0x1D1 JUMP JUMPDEST PUSH8 0xFFFFFFFFFFFFFFFF DUP2 GT ISZERO PUSH2 0x42D JUMPI PUSH2 0x42C PUSH2 0x1DB JUMP JUMPDEST JUMPDEST PUSH2 0x437 DUP3 SLOAD PUSH2 0x235 JUMP JUMPDEST PUSH2 0x442 DUP3 DUP3 DUP6 PUSH2 0x382 JUMP JUMPDEST PUSH0 PUSH1 0x20 SWAP1 POP PUSH1 0x1F DUP4 GT PUSH1 0x1 DUP2 EQ PUSH2 0x473 JUMPI PUSH0 DUP5 ISZERO PUSH2 0x461 JUMPI DUP3 DUP8 ADD MLOAD SWAP1 POP JUMPDEST PUSH2 0x46B DUP6 DUP3 PUSH2 0x3F0 JUMP JUMPDEST DUP7 SSTORE POP PUSH2 0x4D2 JUMP JUMPDEST PUSH1 0x1F NOT DUP5 AND PUSH2 0x481 DUP7 PUSH2 0x265 JUMP JUMPDEST PUSH0 JUMPDEST DUP3 DUP2 LT ISZERO PUSH2 0x4A8 JUMPI DUP5 DUP10 ADD MLOAD DUP3 SSTORE PUSH1 0x1 DUP3 ADD SWAP2 POP PUSH1 0x20 DUP6 ADD SWAP5 POP PUSH1 0x20 DUP2 ADD SWAP1 POP PUSH2 0x483 JUMP JUMPDEST DUP7 DUP4 LT ISZERO PUSH2 0x4C5 JUMPI DUP5 DUP10 ADD MLOAD PUSH2 0x4C1 PUSH1 0x1F DUP10 AND DUP3 PUSH2 0x3D4 JUMP JUMPDEST DUP4 SSTORE POP JUMPDEST PUSH1 0x1 PUSH1 0x2 DUP9 MUL ADD DUP9 SSTORE POP POP POP JUMPDEST POP POP POP POP POP POP JUMP JUMPDEST PUSH2 0x2BF0 DUP1 PUSH2 0x4E7 PUSH0 CODECOPY PUSH0 RETURN INVALID PUSH1 0x80 PUSH1 0x40 MSTORE CALLVALUE DUP1 ISZERO PUSH2 0xF JUMPI PUSH0 DUP1 REVERT JUMPDEST POP PUSH1 0x4 CALLDATASIZE LT PUSH2 0x11F JUMPI PUSH0 CALLDATALOAD PUSH1 0xE0 SHR DUP1 PUSH4 0x85E68531 GT PUSH2 0xAB JUMPI DUP1 PUSH4 0xA9C598B9 GT PUSH2 0x6F JUMPI DUP1 PUSH4 0xA9C598B9 EQ PUSH2 0x2BB JUMPI DUP1 PUSH4 0xB0A69AB4 EQ PUSH2 0x2D7 JUMPI DUP1 PUSH4 0xB30906D4 EQ PUSH2 0x2F5 JUMPI DUP1 PUSH4 0xC41F0CAC EQ PUSH2 0x329 JUMPI DUP1 PUSH4 0xC5532468 EQ PUSH2 0x345 JUMPI PUSH2 0x11F JUMP JUMPDEST DUP1 PUSH4 0x85E68531 EQ PUSH2 0x217 JUMPI DUP1 PUSH4 0x87A5B67C EQ PUSH2 0x233 JUMPI DUP1 PUSH4 0x8DA5CB5B EQ PUSH2 0x263 JUMPI DUP1 PUSH4 0x9EF96D1F EQ PUSH2 0x281 JUMPI DUP1 PUSH4 0xA84FD0ED EQ PUSH2 0x29F JUMPI PUSH2 0x11F JUMP JUMPDEST DUP1 PUSH4 0x295A5212 GT PUSH2 0xF2 JUMPI DUP1 PUSH4 0x295A5212 EQ PUSH2 0x185 JUMPI DUP1 PUSH4 0x4B4FD03B EQ PUSH2 0x1A3 JUMPI DUP1 PUSH4 0x52BAF08F EQ PUSH2 0x1C1 JUMPI DUP1 PUSH4 0x57C8BE66 EQ PUSH2 0x1DD JUMPI DUP1 PUSH4 0x72176858 EQ PUSH2 0x1F9 JUMPI PUSH2 0x11F JUMP JUMPDEST DUP1 PUSH4 0xAE5E739 EQ PUSH2 0x123 JUMPI DUP1 PUSH4 0xD8550E1 EQ PUSH2 0x13F JUMPI DUP1 PUSH4 0x12D491C9 EQ PUSH2 0x15D JUMPI DUP1 PUSH4 0x2214A853 EQ PUSH2 0x17B JUMPI JUMPDEST PUSH0 DUP1 REVERT JUMPDEST PUSH2 0x13D PUSH1 0x4 DUP1 CALLDATASIZE SUB DUP2 ADD SWAP1 PUSH2 0x138 SWAP2 SWAP1 PUSH2 0x16B4 JUMP JUMPDEST PUSH2 0x363 JUMP JUMPDEST STOP JUMPDEST PUSH2 0x147 PUSH2 0x44A JUMP JUMPDEST PUSH1 0x40 MLOAD PUSH2 0x154 SWAP2 SWAP1 PUSH2 0x174F JUMP JUMPDEST PUSH1 0x40 MLOAD DUP1 SWAP2 SUB SWAP1 RETURN JUMPDEST PUSH2 0x165 PUSH2 0x4DA JUMP JUMPDEST PUSH1 0x40 MLOAD PUSH2 0x172 SWAP2 SWAP1 PUSH2 0x174F JUMP JUMPDEST PUSH1 0x40 MLOAD DUP1 SWAP2 SUB SWAP1 RETURN JUMPDEST PUSH2 0x183 PUSH2 0x4EF JUMP JUMPDEST STOP JUMPDEST PUSH2 0x18D PUSH2 0x5DE JUMP JUMPDEST PUSH1 0x40 MLOAD PUSH2 0x19A SWAP2 SWAP1 PUSH2 0x174F JUMP JUMPDEST PUSH1 0x40 MLOAD DUP1 SWAP2 SUB SWAP1 RETURN JUMPDEST PUSH2 0x1AB PUSH2 0x669 JUMP JUMPDEST PUSH1 0x40 MLOAD PUSH2 0x1B8 SWAP2 SWAP1 PUSH2 0x174F JUMP JUMPDEST PUSH1 0x40 MLOAD DUP1 SWAP2 SUB SWAP1 RETURN JUMPDEST PUSH2 0x1DB PUSH1 0x4 DUP1 CALLDATASIZE SUB DUP2 ADD SWAP1 PUSH2 0x1D6 SWAP2 SWAP1 PUSH2 0x189B JUMP JUMPDEST PUSH2 0x733 JUMP JUMPDEST STOP JUMPDEST PUSH2 0x1F7 PUSH1 0x4 DUP1 CALLDATASIZE SUB DUP2 ADD SWAP1 PUSH2 0x1F2 SWAP2 SWAP1 PUSH2 0x18E2 JUMP JUMPDEST PUSH2 0x826 JUMP JUMPDEST STOP JUMPDEST PUSH2 0x201 PUSH2 0x9CA JUMP JUMPDEST PUSH1 0x40 MLOAD PUSH2 0x20E SWAP2 SWAP1 PUSH2 0x174F JUMP JUMPDEST PUSH1 0x40 MLOAD DUP1 SWAP2 SUB SWAP1 RETURN JUMPDEST PUSH2 0x231 PUSH1 0x4 DUP1 CALLDATASIZE SUB DUP2 ADD SWAP1 PUSH2 0x22C SWAP2 SWAP1 PUSH2 0x16B4 JUMP JUMPDEST PUSH2 0xA5A JUMP JUMPDEST STOP JUMPDEST PUSH2 0x24D PUSH1 0x4 DUP1 CALLDATASIZE SUB DUP2 ADD SWAP1 PUSH2 0x248 SWAP2 SWAP1 PUSH2 0x16B4 JUMP JUMPDEST PUSH2 0xB40 JUMP JUMPDEST PUSH1 0x40 MLOAD PUSH2 0x25A SWAP2 SWAP1 PUSH2 0x19FF JUMP JUMPDEST PUSH1 0x40 MLOAD DUP1 SWAP2 SUB SWAP1 RETURN JUMPDEST PUSH2 0x26B PUSH2 0xB5D JUMP JUMPDEST PUSH1 0x40 MLOAD PUSH2 0x278 SWAP2 SWAP1 PUSH2 0x1A27 JUMP JUMPDEST PUSH1 0x40 MLOAD DUP1 SWAP2 SUB SWAP1 RETURN JUMPDEST PUSH2 0x289 PUSH2 0xB82 JUMP JUMPDEST PUSH1 0x40 MLOAD PUSH2 0x296 SWAP2 SWAP1 PUSH2 0x174F JUMP JUMPDEST PUSH1 0x40 MLOAD DUP1 SWAP2 SUB SWAP1 RETURN JUMPDEST PUSH2 0x2B9 PUSH1 0x4 DUP1 CALLDATASIZE SUB DUP2 ADD SWAP1 PUSH2 0x2B4 SWAP2 SWAP1 PUSH2 0x189B JUMP JUMPDEST PUSH2 0xC12 JUMP JUMPDEST STOP JUMPDEST PUSH2 0x2D5 PUSH1 0x4 DUP1 CALLDATASIZE SUB DUP2 ADD SWAP1 PUSH2 0x2D0 SWAP2 SWAP1 PUSH2 0x189B JUMP JUMPDEST PUSH2 0xDE4 JUMP JUMPDEST STOP JUMPDEST PUSH2 0x2DF PUSH2 0xED7 JUMP JUMPDEST PUSH1 0x40 MLOAD PUSH2 0x2EC SWAP2 SWAP1 PUSH2 0x174F JUMP JUMPDEST PUSH1 0x40 MLOAD DUP1 SWAP2 SUB SWAP1 RETURN JUMPDEST PUSH2 0x30F PUSH1 0x4 DUP1 CALLDATASIZE SUB DUP2 ADD SWAP1 PUSH2 0x30A SWAP2 SWAP1 PUSH2 0x1A73 JUMP JUMPDEST PUSH2 0xFB5 JUMP JUMPDEST PUSH1 0x40 MLOAD PUSH2 0x320 SWAP6 SWAP5 SWAP4 SWAP3 SWAP2 SWAP1 PUSH2 0x1A9E JUMP JUMPDEST PUSH1 0x40 MLOAD DUP1 SWAP2 SUB SWAP1 RETURN JUMPDEST PUSH2 0x343 PUSH1 0x4 DUP1 CALLDATASIZE SUB DUP2 ADD SWAP1 PUSH2 0x33E SWAP2 SWAP1 PUSH2 0x189B JUMP JUMPDEST PUSH2 0x1294 JUMP JUMPDEST STOP JUMPDEST PUSH2 0x34D PUSH2 0x1387 JUMP JUMPDEST PUSH1 0x40 MLOAD PUSH2 0x35A SWAP2 SWAP1 PUSH2 0x174F JUMP JUMPDEST PUSH1 0x40 MLOAD DUP1 SWAP2 SUB SWAP1 RETURN JUMPDEST PUSH1 0x3 PUSH0 SWAP1 SLOAD SWAP1 PUSH2 0x100 EXP SWAP1 DIV PUSH20 0xFFFFFFFFFFFFFFFFFFFFFFFFFFFFFFFFFFFFFFFF AND PUSH20 0xFFFFFFFFFFFFFFFFFFFFFFFFFFFFFFFFFFFFFFFF AND CALLER PUSH20 0xFFFFFFFFFFFFFFFFFFFFFFFFFFFFFFFFFFFFFFFF AND EQ PUSH2 0x3F2 JUMPI PUSH1 0x40 MLOAD PUSH32 0x8C379A000000000000000000000000000000000000000000000000000000000 DUP2 MSTORE PUSH1 0x4 ADD PUSH2 0x3E9 SWAP1 PUSH2 0x1B5C JUMP JUMPDEST PUSH1 0x40 MLOAD DUP1 SWAP2 SUB SWAP1 REVERT JUMPDEST PUSH1 0x1 PUSH1 0x2 PUSH0 DUP4 PUSH20 0xFFFFFFFFFFFFFFFFFFFFFFFFFFFFFFFFFFFFFFFF AND PUSH20 0xFFFFFFFFFFFFFFFFFFFFFFFFFFFFFFFFFFFFFFFF AND DUP2 MSTORE PUSH1 0x20 ADD SWAP1 DUP2 MSTORE PUSH1 0x20 ADD PUSH0 KECCAK256 PUSH0 PUSH2 0x100 EXP DUP2 SLOAD DUP2 PUSH1 0xFF MUL NOT AND SWAP1 DUP4 ISZERO ISZERO MUL OR SWAP1 SSTORE POP POP JUMP JUMPDEST PUSH1 0x60 PUSH1 0x4 DUP1 SLOAD PUSH2 0x459 SWAP1 PUSH2 0x1BA7 JUMP JUMPDEST DUP1 PUSH1 0x1F ADD PUSH1 0x20 DUP1 SWAP2 DIV MUL PUSH1 0x20 ADD PUSH1 0x40 MLOAD SWAP1 DUP2 ADD PUSH1 0x40 MSTORE DUP1 SWAP3 SWAP2 SWAP1 DUP2 DUP2 MSTORE PUSH1 0x20 ADD DUP3 DUP1 SLOAD PUSH2 0x485 SWAP1 PUSH2 0x1BA7 JUMP JUMPDEST DUP1 ISZERO PUSH2 0x4D0 JUMPI DUP1 PUSH1 0x1F LT PUSH2 0x4A7 JUMPI PUSH2 0x100 DUP1 DUP4 SLOAD DIV MUL DUP4 MSTORE SWAP2 PUSH1 0x20 ADD SWAP2 PUSH2 0x4D0 JUMP JUMPDEST DUP3 ADD SWAP2 SWAP1 PUSH0 MSTORE PUSH1 0x20 PUSH0 KECCAK256 SWAP1 JUMPDEST DUP2 SLOAD DUP2 MSTORE SWAP1 PUSH1 0x1 ADD SWAP1 PUSH1 0x20 ADD DUP1 DUP4 GT PUSH2 0x4B3 JUMPI DUP3 SWAP1 SUB PUSH1 0x1F AND DUP3 ADD SWAP2 JUMPDEST POP POP POP POP POP SWAP1 POP SWAP1 JUMP JUMPDEST PUSH1 0x60 PUSH2 0x4EA PUSH1 0x1 DUP1 SLOAD SWAP1 POP PUSH2 0x1416 JUMP JUMPDEST SWAP1 POP SWAP1 JUMP JUMPDEST PUSH1 0x3 PUSH0 SWAP1 SLOAD SWAP1 PUSH2 0x100 EXP SWAP1 DIV PUSH20 0xFFFFFFFFFFFFFFFFFFFFFFFFFFFFFFFFFFFFFFFF AND PUSH20 0xFFFFFFFFFFFFFFFFFFFFFFFFFFFFFFFFFFFFFFFF AND CALLER PUSH20 0xFFFFFFFFFFFFFFFFFFFFFFFFFFFFFFFFFFFFFFFF AND EQ DUP1 PUSH2 0x590 JUMPI POP PUSH1 0x2 PUSH0 CALLER PUSH20 0xFFFFFFFFFFFFFFFFFFFFFFFFFFFFFFFFFFFFFFFF AND PUSH20 0xFFFFFFFFFFFFFFFFFFFFFFFFFFFFFFFFFFFFFFFF AND DUP2 MSTORE PUSH1 0x20 ADD SWAP1 DUP2 MSTORE PUSH1 0x20 ADD PUSH0 KECCAK256 PUSH0 SWAP1 SLOAD SWAP1 PUSH2 0x100 EXP SWAP1 DIV PUSH1 0xFF AND JUMPDEST PUSH2 0x5CF JUMPI PUSH1 0x40 MLOAD PUSH32 0x8C379A000000000000000000000000000000000000000000000000000000000 DUP2 MSTORE PUSH1 0x4 ADD PUSH2 0x5C6 SWAP1 PUSH2 0x1C21 JUMP JUMPDEST PUSH1 0x40 MLOAD DUP1 SWAP2 SUB SWAP1 REVERT JUMPDEST PUSH1 0x1 PUSH0 PUSH2 0x5DC SWAP2 SWAP1 PUSH2 0x156F JUMP JUMPDEST JUMP JUMPDEST PUSH0 DUP1 SLOAD PUSH2 0x5EA SWAP1 PUSH2 0x1BA7 JUMP JUMPDEST DUP1 PUSH1 0x1F ADD PUSH1 0x20 DUP1 SWAP2 DIV MUL PUSH1 0x20 ADD PUSH1 0x40 MLOAD SWAP1 DUP2 ADD PUSH1 0x40 MSTORE DUP1 SWAP3 SWAP2 SWAP1 DUP2 DUP2 MSTORE PUSH1 0x20 ADD DUP3 DUP1 SLOAD PUSH2 0x616 SWAP1 PUSH2 0x1BA7 JUMP JUMPDEST DUP1 ISZERO PUSH2 0x661 JUMPI DUP1 PUSH1 0x1F LT PUSH2 0x638 JUMPI PUSH2 0x100 DUP1 DUP4 SLOAD DIV MUL DUP4 MSTORE SWAP2 PUSH1 0x20 ADD SWAP2 PUSH2 0x661 JUMP JUMPDEST DUP3 ADD SWAP2 SWAP1 PUSH0 MSTORE PUSH1 0x20 PUSH0 KECCAK256 SWAP1 JUMPDEST DUP2 SLOAD DUP2 MSTORE SWAP1 PUSH1 0x1 ADD SWAP1 PUSH1 0x20 ADD DUP1 DUP4 GT PUSH2 0x644 JUMPI DUP3 SWAP1 SUB PUSH1 0x1F AND DUP3 ADD SWAP2 JUMPDEST POP POP POP POP POP DUP2 JUMP JUMPDEST PUSH1 0x60 PUSH1 0x40 MLOAD PUSH1 0x20 ADD PUSH2 0x67A SWAP1 PUSH2 0x1C93 JUMP JUMPDEST PUSH1 0x40 MLOAD PUSH1 0x20 DUP2 DUP4 SUB SUB DUP2 MSTORE SWAP1 PUSH1 0x40 MSTORE DUP1 MLOAD SWAP1 PUSH1 0x20 ADD KECCAK256 PUSH0 PUSH1 0x40 MLOAD PUSH1 0x20 ADD PUSH2 0x6A1 SWAP2 SWAP1 PUSH2 0x1D39 JUMP JUMPDEST PUSH1 0x40 MLOAD PUSH1 0x20 DUP2 DUP4 SUB SUB DUP2 MSTORE SWAP1 PUSH1 0x40 MSTORE DUP1 MLOAD SWAP1 PUSH1 0x20 ADD KECCAK256 EQ PUSH2 0x6F7 JUMPI PUSH1 0x40 MLOAD DUP1 PUSH1 0x40 ADD PUSH1 0x40 MSTORE DUP1 PUSH1 0x4 DUP2 MSTORE PUSH1 0x20 ADD PUSH32 0x6461726B00000000000000000000000000000000000000000000000000000000 DUP2 MSTORE POP PUSH2 0x72E JUMP JUMPDEST PUSH1 0x40 MLOAD DUP1 PUSH1 0x40 ADD PUSH1 0x40 MSTORE DUP1 PUSH1 0x5 DUP2 MSTORE PUSH1 0x20 ADD PUSH32 0x6C69676874000000000000000000000000000000000000000000000000000000 DUP2 MSTORE POP JUMPDEST SWAP1 POP SWAP1 JUMP JUMPDEST PUSH1 0x3 PUSH0 SWAP1 SLOAD SWAP1 PUSH2 0x100 EXP SWAP1 DIV PUSH20 0xFFFFFFFFFFFFFFFFFFFFFFFFFFFFFFFFFFFFFFFF AND PUSH20 0xFFFFFFFFFFFFFFFFFFFFFFFFFFFFFFFFFFFFFFFF AND CALLER PUSH20 0xFFFFFFFFFFFFFFFFFFFFFFFFFFFFFFFFFFFFFFFF AND EQ DUP1 PUSH2 0x7D4 JUMPI POP PUSH1 0x2 PUSH0 CALLER PUSH20 0xFFFFFFFFFFFFFFFFFFFFFFFFFFFFFFFFFFFFFFFF AND PUSH20 0xFFFFFFFFFFFFFFFFFFFFFFFFFFFFFFFFFFFFFFFF AND DUP2 MSTORE PUSH1 0x20 ADD SWAP1 DUP2 MSTORE PUSH1 0x20 ADD PUSH0 KECCAK256 PUSH0 SWAP1 SLOAD SWAP1 PUSH2 0x100 EXP SWAP1 DIV PUSH1 0xFF AND JUMPDEST PUSH2 0x813 JUMPI PUSH1 0x40 MLOAD PUSH32 0x8C379A000000000000000000000000000000000000000000000000000000000 DUP2 MSTORE PUSH1 0x4 ADD PUSH2 0x80A SWAP1 PUSH2 0x1C21 JUMP JUMPDEST PUSH1 0x40 MLOAD DUP1 SWAP2 SUB SWAP1 REVERT JUMPDEST DUP1 PUSH1 0x6 SWAP1 DUP2 PUSH2 0x822 SWAP2 SWAP1 PUSH2 0x1EDA JUMP JUMPDEST POP POP JUMP JUMPDEST PUSH1 0x3 PUSH0 SWAP1 SLOAD SWAP1 PUSH2 0x100 EXP SWAP1 DIV PUSH20 0xFFFFFFFFFFFFFFFFFFFFFFFFFFFFFFFFFFFFFFFF AND PUSH20 0xFFFFFFFFFFFFFFFFFFFFFFFFFFFFFFFFFFFFFFFF AND CALLER PUSH20 0xFFFFFFFFFFFFFFFFFFFFFFFFFFFFFFFFFFFFFFFF AND EQ DUP1 PUSH2 0x8C7 JUMPI POP PUSH1 0x2 PUSH0 CALLER PUSH20 0xFFFFFFFFFFFFFFFFFFFFFFFFFFFFFFFFFFFFFFFF AND PUSH20 0xFFFFFFFFFFFFFFFFFFFFFFFFFFFFFFFFFFFFFFFF AND DUP2 MSTORE PUSH1 0x20 ADD SWAP1 DUP2 MSTORE PUSH1 0x20 ADD PUSH0 KECCAK256 PUSH0 SWAP1 SLOAD SWAP1 PUSH2 0x100 EXP SWAP1 DIV PUSH1 0xFF AND JUMPDEST PUSH2 0x906 JUMPI PUSH1 0x40 MLOAD PUSH32 0x8C379A000000000000000000000000000000000000000000000000000000000 DUP2 MSTORE PUSH1 0x4 ADD PUSH2 0x8FD SWAP1 PUSH2 0x1C21 JUMP JUMPDEST PUSH1 0x40 MLOAD DUP1 SWAP2 SUB SWAP1 REVERT JUMPDEST PUSH1 0x1 PUSH1 0x40 MLOAD DUP1 PUSH1 0xA0 ADD PUSH1 0x40 MSTORE DUP1 DUP8 DUP2 MSTORE PUSH1 0x20 ADD DUP7 DUP2 MSTORE PUSH1 0x20 ADD DUP6 DUP2 MSTORE PUSH1 0x20 ADD DUP5 DUP2 MSTORE PUSH1 0x20 ADD DUP4 DUP2 MSTORE POP SWAP1 DUP1 PUSH1 0x1 DUP2 SLOAD ADD DUP1 DUP3 SSTORE DUP1 SWAP2 POP POP PUSH1 0x1 SWAP1 SUB SWAP1 PUSH0 MSTORE PUSH1 0x20 PUSH0 KECCAK256 SWAP1 PUSH1 0x5 MUL ADD PUSH0 SWAP1 SWAP2 SWAP1 SWAP2 SWAP1 SWAP2 POP PUSH0 DUP3 ADD MLOAD DUP2 PUSH0 ADD SWAP1 DUP2 PUSH2 0x968 SWAP2 SWAP1 PUSH2 0x1EDA JUMP JUMPDEST POP PUSH1 0x20 DUP3 ADD MLOAD DUP2 PUSH1 0x1 ADD SWAP1 DUP2 PUSH2 0x97E SWAP2 SWAP1 PUSH2 0x1EDA JUMP JUMPDEST POP PUSH1 0x40 DUP3 ADD MLOAD DUP2 PUSH1 0x2 ADD SWAP1 DUP2 PUSH2 0x994 SWAP2 SWAP1 PUSH2 0x1EDA JUMP JUMPDEST POP PUSH1 0x60 DUP3 ADD MLOAD DUP2 PUSH1 0x3 ADD SWAP1 DUP2 PUSH2 0x9AA SWAP2 SWAP1 PUSH2 0x1EDA JUMP JUMPDEST POP PUSH1 0x80 DUP3 ADD MLOAD DUP2 PUSH1 0x4 ADD SWAP1 DUP2 PUSH2 0x9C0 SWAP2 SWAP1 PUSH2 0x1EDA JUMP JUMPDEST POP POP POP POP POP POP POP POP JUMP JUMPDEST PUSH1 0x60 PUSH1 0x5 DUP1 SLOAD PUSH2 0x9D9 SWAP1 PUSH2 0x1BA7 JUMP JUMPDEST DUP1 PUSH1 0x1F ADD PUSH1 0x20 DUP1 SWAP2 DIV MUL PUSH1 0x20 ADD PUSH1 0x40 MLOAD SWAP1 DUP2 ADD PUSH1 0x40 MSTORE DUP1 SWAP3 SWAP2 SWAP1 DUP2 DUP2 MSTORE PUSH1 0x20 ADD DUP3 DUP1 SLOAD PUSH2 0xA05 SWAP1 PUSH2 0x1BA7 JUMP JUMPDEST DUP1 ISZERO PUSH2 0xA50 JUMPI DUP1 PUSH1 0x1F LT PUSH2 0xA27 JUMPI PUSH2 0x100 DUP1 DUP4 SLOAD DIV MUL DUP4 MSTORE SWAP2 PUSH1 0x20 ADD SWAP2 PUSH2 0xA50 JUMP JUMPDEST DUP3 ADD SWAP2 SWAP1 PUSH0 MSTORE PUSH1 0x20 PUSH0 KECCAK256 SWAP1 JUMPDEST DUP2 SLOAD DUP2 MSTORE SWAP1 PUSH1 0x1 ADD SWAP1 PUSH1 0x20 ADD DUP1 DUP4 GT PUSH2 0xA33 JUMPI DUP3 SWAP1 SUB PUSH1 0x1F AND DUP3 ADD SWAP2 JUMPDEST POP POP POP POP POP SWAP1 POP SWAP1 JUMP JUMPDEST PUSH1 0x3 PUSH0 SWAP1 SLOAD SWAP1 PUSH2 0x100 EXP SWAP1 DIV PUSH20 0xFFFFFFFFFFFFFFFFFFFFFFFFFFFFFFFFFFFFFFFF AND PUSH20 0xFFFFFFFFFFFFFFFFFFFFFFFFFFFFFFFFFFFFFFFF AND CALLER PUSH20 0xFFFFFFFFFFFFFFFFFFFFFFFFFFFFFFFFFFFFFFFF AND EQ PUSH2 0xAE9 JUMPI PUSH1 0x40 MLOAD PUSH32 0x8C379A000000000000000000000000000000000000000000000000000000000 DUP2 MSTORE PUSH1 0x4 ADD PUSH2 0xAE0 SWAP1 PUSH2 0x1B5C JUMP JUMPDEST PUSH1 0x40 MLOAD DUP1 SWAP2 SUB SWAP1 REVERT JUMPDEST PUSH0 PUSH1 0x2 PUSH0 DUP4 PUSH20 0xFFFFFFFFFFFFFFFFFFFFFFFFFFFFFFFFFFFFFFFF AND PUSH20 0xFFFFFFFFFFFFFFFFFFFFFFFFFFFFFFFFFFFFFFFF AND DUP2 MSTORE PUSH1 0x20 ADD SWAP1 DUP2 MSTORE PUSH1 0x20 ADD PUSH0 KECCAK256 PUSH0 PUSH2 0x100 EXP DUP2 SLOAD DUP2 PUSH1 0xFF MUL NOT AND SWAP1 DUP4 ISZERO ISZERO MUL OR SWAP1 SSTORE POP POP JUMP JUMPDEST PUSH1 0x2 PUSH1 0x20 MSTORE DUP1 PUSH0 MSTORE PUSH1 0x40 PUSH0 KECCAK256 PUSH0 SWAP2 POP SLOAD SWAP1 PUSH2 0x100 EXP SWAP1 DIV PUSH1 0xFF AND DUP2 JUMP JUMPDEST PUSH1 0x3 PUSH0 SWAP1 SLOAD SWAP1 PUSH2 0x100 EXP SWAP1 DIV PUSH20 0xFFFFFFFFFFFFFFFFFFFFFFFFFFFFFFFFFFFFFFFF AND DUP2 JUMP JUMPDEST PUSH1 0x60 PUSH1 0x6 DUP1 SLOAD PUSH2 0xB91 SWAP1 PUSH2 0x1BA7 JUMP JUMPDEST DUP1 PUSH1 0x1F ADD PUSH1 0x20 DUP1 SWAP2 DIV MUL PUSH1 0x20 ADD PUSH1 0x40 MLOAD SWAP1 DUP2 ADD PUSH1 0x40 MSTORE DUP1 SWAP3 SWAP2 SWAP1 DUP2 DUP2 MSTORE PUSH1 0x20 ADD DUP3 DUP1 SLOAD PUSH2 0xBBD SWAP1 PUSH2 0x1BA7 JUMP JUMPDEST DUP1 ISZERO PUSH2 0xC08 JUMPI DUP1 PUSH1 0x1F LT PUSH2 0xBDF JUMPI PUSH2 0x100 DUP1 DUP4 SLOAD DIV MUL DUP4 MSTORE SWAP2 PUSH1 0x20 ADD SWAP2 PUSH2 0xC08 JUMP JUMPDEST DUP3 ADD SWAP2 SWAP1 PUSH0 MSTORE PUSH1 0x20 PUSH0 KECCAK256 SWAP1 JUMPDEST DUP2 SLOAD DUP2 MSTORE SWAP1 PUSH1 0x1 ADD SWAP1 PUSH1 0x20 ADD DUP1 DUP4 GT PUSH2 0xBEB JUMPI DUP3 SWAP1 SUB PUSH1 0x1F AND DUP3 ADD SWAP2 JUMPDEST POP POP POP POP POP SWAP1 POP SWAP1 JUMP JUMPDEST PUSH1 0x3 PUSH0 SWAP1 SLOAD SWAP1 PUSH2 0x100 EXP SWAP1 DIV PUSH20 0xFFFFFFFFFFFFFFFFFFFFFFFFFFFFFFFFFFFFFFFF AND PUSH20 0xFFFFFFFFFFFFFFFFFFFFFFFFFFFFFFFFFFFFFFFF AND CALLER PUSH20 0xFFFFFFFFFFFFFFFFFFFFFFFFFFFFFFFFFFFFFFFF AND EQ DUP1 PUSH2 0xCB3 JUMPI POP PUSH1 0x2 PUSH0 CALLER PUSH20 0xFFFFFFFFFFFFFFFFFFFFFFFFFFFFFFFFFFFFFFFF AND PUSH20 0xFFFFFFFFFFFFFFFFFFFFFFFFFFFFFFFFFFFFFFFF AND DUP2 MSTORE PUSH1 0x20 ADD SWAP1 DUP2 MSTORE PUSH1 0x20 ADD PUSH0 KECCAK256 PUSH0 SWAP1 SLOAD SWAP1 PUSH2 0x100 EXP SWAP1 DIV PUSH1 0xFF AND JUMPDEST PUSH2 0xCF2 JUMPI PUSH1 0x40 MLOAD PUSH32 0x8C379A000000000000000000000000000000000000000000000000000000000 DUP2 MSTORE PUSH1 0x4 ADD PUSH2 0xCE9 SWAP1 PUSH2 0x1C21 JUMP JUMPDEST PUSH1 0x40 MLOAD DUP1 SWAP2 SUB SWAP1 REVERT JUMPDEST PUSH1 0x40 MLOAD PUSH1 0x20 ADD PUSH2 0xD01 SWAP1 PUSH2 0x1C93 JUMP JUMPDEST PUSH1 0x40 MLOAD PUSH1 0x20 DUP2 DUP4 SUB SUB DUP2 MSTORE SWAP1 PUSH1 0x40 MSTORE DUP1 MLOAD SWAP1 PUSH1 0x20 ADD KECCAK256 DUP2 PUSH1 0x40 MLOAD PUSH1 0x20 ADD PUSH2 0xD28 SWAP2 SWAP1 PUSH2 0x1FD9 JUMP JUMPDEST PUSH1 0x40 MLOAD PUSH1 0x20 DUP2 DUP4 SUB SUB DUP2 MSTORE SWAP1 PUSH1 0x40 MSTORE DUP1 MLOAD SWAP1 PUSH1 0x20 ADD KECCAK256 EQ DUP1 PUSH2 0xD93 JUMPI POP PUSH1 0x40 MLOAD PUSH1 0x20 ADD PUSH2 0xD54 SWAP1 PUSH2 0x2039 JUMP JUMPDEST PUSH1 0x40 MLOAD PUSH1 0x20 DUP2 DUP4 SUB SUB DUP2 MSTORE SWAP1 PUSH1 0x40 MSTORE DUP1 MLOAD SWAP1 PUSH1 0x20 ADD KECCAK256 DUP2 PUSH1 0x40 MLOAD PUSH1 0x20 ADD PUSH2 0xD7B SWAP2 SWAP1 PUSH2 0x1FD9 JUMP JUMPDEST PUSH1 0x40 MLOAD PUSH1 0x20 DUP2 DUP4 SUB SUB DUP2 MSTORE SWAP1 PUSH1 0x40 MSTORE DUP1 MLOAD SWAP1 PUSH1 0x20 ADD KECCAK256 EQ JUMPDEST PUSH2 0xDD2 JUMPI PUSH1 0x40 MLOAD PUSH32 0x8C379A000000000000000000000000000000000000000000000000000000000 DUP2 MSTORE PUSH1 0x4 ADD PUSH2 0xDC9 SWAP1 PUSH2 0x2097 JUMP JUMPDEST PUSH1 0x40 MLOAD DUP1 SWAP2 SUB SWAP1 REVERT JUMPDEST DUP1 PUSH0 SWAP1 DUP2 PUSH2 0xDE0 SWAP2 SWAP1 PUSH2 0x1EDA JUMP JUMPDEST POP POP JUMP JUMPDEST PUSH1 0x3 PUSH0 SWAP1 SLOAD SWAP1 PUSH2 0x100 EXP SWAP1 DIV PUSH20 0xFFFFFFFFFFFFFFFFFFFFFFFFFFFFFFFFFFFFFFFF AND PUSH20 0xFFFFFFFFFFFFFFFFFFFFFFFFFFFFFFFFFFFFFFFF AND CALLER PUSH20 0xFFFFFFFFFFFFFFFFFFFFFFFFFFFFFFFFFFFFFFFF AND EQ DUP1 PUSH2 0xE85 JUMPI POP PUSH1 0x2 PUSH0 CALLER PUSH20 0xFFFFFFFFFFFFFFFFFFFFFFFFFFFFFFFFFFFFFFFF AND PUSH20 0xFFFFFFFFFFFFFFFFFFFFFFFFFFFFFFFFFFFFFFFF AND DUP2 MSTORE PUSH1 0x20 ADD SWAP1 DUP2 MSTORE PUSH1 0x20 ADD PUSH0 KECCAK256 PUSH0 SWAP1 SLOAD SWAP1 PUSH2 0x100 EXP SWAP1 DIV PUSH1 0xFF AND JUMPDEST PUSH2 0xEC4 JUMPI PUSH1 0x40 MLOAD PUSH32 0x8C379A000000000000000000000000000000000000000000000000000000000 DUP2 MSTORE PUSH1 0x4 ADD PUSH2 0xEBB SWAP1 PUSH2 0x1C21 JUMP JUMPDEST PUSH1 0x40 MLOAD DUP1 SWAP2 SUB SWAP1 REVERT JUMPDEST DUP1 PUSH1 0x5 SWAP1 DUP2 PUSH2 0xED3 SWAP2 SWAP1 PUSH2 0x1EDA JUMP JUMPDEST POP POP JUMP JUMPDEST PUSH1 0x60 DUP1 PUSH0 JUMPDEST PUSH1 0x1 DUP1 SLOAD SWAP1 POP DUP2 LT ISZERO PUSH2 0xFAD JUMPI DUP2 PUSH1 0x4 PUSH1 0x5 PUSH1 0x1 DUP5 DUP2 SLOAD DUP2 LT PUSH2 0xF02 JUMPI PUSH2 0xF01 PUSH2 0x20B5 JUMP JUMPDEST JUMPDEST SWAP1 PUSH0 MSTORE PUSH1 0x20 PUSH0 KECCAK256 SWAP1 PUSH1 0x5 MUL ADD PUSH0 ADD PUSH1 0x1 DUP6 DUP2 SLOAD DUP2 LT PUSH2 0xF24 JUMPI PUSH2 0xF23 PUSH2 0x20B5 JUMP JUMPDEST JUMPDEST SWAP1 PUSH0 MSTORE PUSH1 0x20 PUSH0 KECCAK256 SWAP1 PUSH1 0x5 MUL ADD PUSH1 0x4 ADD PUSH1 0x1 DUP7 DUP2 SLOAD DUP2 LT PUSH2 0xF47 JUMPI PUSH2 0xF46 PUSH2 0x20B5 JUMP JUMPDEST JUMPDEST SWAP1 PUSH0 MSTORE PUSH1 0x20 PUSH0 KECCAK256 SWAP1 PUSH1 0x5 MUL ADD PUSH1 0x1 ADD PUSH1 0x1 DUP8 DUP2 SLOAD DUP2 LT PUSH2 0xF6A JUMPI PUSH2 0xF69 PUSH2 0x20B5 JUMP JUMPDEST JUMPDEST SWAP1 PUSH0 MSTORE PUSH1 0x20 PUSH0 KECCAK256 SWAP1 PUSH1 0x5 MUL ADD PUSH1 0x3 ADD PUSH1 0x40 MLOAD PUSH1 0x20 ADD PUSH2 0xF8F SWAP8 SWAP7 SWAP6 SWAP5 SWAP4 SWAP3 SWAP2 SWAP1 PUSH2 0x2908 JUMP JUMPDEST PUSH1 0x40 MLOAD PUSH1 0x20 DUP2 DUP4 SUB SUB DUP2 MSTORE SWAP1 PUSH1 0x40 MSTORE SWAP2 POP DUP1 DUP1 PUSH1 0x1 ADD SWAP2 POP POP PUSH2 0xEDC JUMP JUMPDEST POP DUP1 SWAP2 POP POP SWAP1 JUMP JUMPDEST PUSH1 0x1 DUP2 DUP2 SLOAD DUP2 LT PUSH2 0xFC4 JUMPI PUSH0 DUP1 REVERT JUMPDEST SWAP1 PUSH0 MSTORE PUSH1 0x20 PUSH0 KECCAK256 SWAP1 PUSH1 0x5 MUL ADD PUSH0 SWAP2 POP SWAP1 POP DUP1 PUSH0 ADD DUP1 SLOAD PUSH2 0xFE3 SWAP1 PUSH2 0x1BA7 JUMP JUMPDEST DUP1 PUSH1 0x1F ADD PUSH1 0x20 DUP1 SWAP2 DIV MUL PUSH1 0x20 ADD PUSH1 0x40 MLOAD SWAP1 DUP2 ADD PUSH1 0x40 MSTORE DUP1 SWAP3 SWAP2 SWAP1 DUP2 DUP2 MSTORE PUSH1 0x20 ADD DUP3 DUP1 SLOAD PUSH2 0x100F SWAP1 PUSH2 0x1BA7 JUMP JUMPDEST DUP1 ISZERO PUSH2 0x105A JUMPI DUP1 PUSH1 0x1F LT PUSH2 0x1031 JUMPI PUSH2 0x100 DUP1 DUP4 SLOAD DIV MUL DUP4 MSTORE SWAP2 PUSH1 0x20 ADD SWAP2 PUSH2 0x105A JUMP JUMPDEST DUP3 ADD SWAP2 SWAP1 PUSH0 MSTORE PUSH1 0x20 PUSH0 KECCAK256 SWAP1 JUMPDEST DUP2 SLOAD DUP2 MSTORE SWAP1 PUSH1 0x1 ADD SWAP1 PUSH1 0x20 ADD DUP1 DUP4 GT PUSH2 0x103D JUMPI DUP3 SWAP1 SUB PUSH1 0x1F AND DUP3 ADD SWAP2 JUMPDEST POP POP POP POP POP SWAP1 DUP1 PUSH1 0x1 ADD DUP1 SLOAD PUSH2 0x106F SWAP1 PUSH2 0x1BA7 JUMP JUMPDEST DUP1 PUSH1 0x1F ADD PUSH1 0x20 DUP1 SWAP2 DIV MUL PUSH1 0x20 ADD PUSH1 0x40 MLOAD SWAP1 DUP2 ADD PUSH1 0x40 MSTORE DUP1 SWAP3 SWAP2 SWAP1 DUP2 DUP2 MSTORE PUSH1 0x20 ADD DUP3 DUP1 SLOAD PUSH2 0x109B SWAP1 PUSH2 0x1BA7 JUMP JUMPDEST DUP1 ISZERO PUSH2 0x10E6 JUMPI DUP1 PUSH1 0x1F LT PUSH2 0x10BD JUMPI PUSH2 0x100 DUP1 DUP4 SLOAD DIV MUL DUP4 MSTORE SWAP2 PUSH1 0x20 ADD SWAP2 PUSH2 0x10E6 JUMP JUMPDEST DUP3 ADD SWAP2 SWAP1 PUSH0 MSTORE PUSH1 0x20 PUSH0 KECCAK256 SWAP1 JUMPDEST DUP2 SLOAD DUP2 MSTORE SWAP1 PUSH1 0x1 ADD SWAP1 PUSH1 0x20 ADD DUP1 DUP4 GT PUSH2 0x10C9 JUMPI DUP3 SWAP1 SUB PUSH1 0x1F AND DUP3 ADD SWAP2 JUMPDEST POP POP POP POP POP SWAP1 DUP1 PUSH1 0x2 ADD DUP1 SLOAD PUSH2 0x10FB SWAP1 PUSH2 0x1BA7 JUMP JUMPDEST DUP1 PUSH1 0x1F ADD PUSH1 0x20 DUP1 SWAP2 DIV MUL PUSH1 0x20 ADD PUSH1 0x40 MLOAD SWAP1 DUP2 ADD PUSH1 0x40 MSTORE DUP1 SWAP3 SWAP2 SWAP1 DUP2 DUP2 MSTORE PUSH1 0x20 ADD DUP3 DUP1 SLOAD PUSH2 0x1127 SWAP1 PUSH2 0x1BA7 JUMP JUMPDEST DUP1 ISZERO PUSH2 0x1172 JUMPI DUP1 PUSH1 0x1F LT PUSH2 0x1149 JUMPI PUSH2 0x100 DUP1 DUP4 SLOAD DIV MUL DUP4 MSTORE SWAP2 PUSH1 0x20 ADD SWAP2 PUSH2 0x1172 JUMP JUMPDEST DUP3 ADD SWAP2 SWAP1 PUSH0 MSTORE PUSH1 0x20 PUSH0 KECCAK256 SWAP1 JUMPDEST DUP2 SLOAD DUP2 MSTORE SWAP1 PUSH1 0x1 ADD SWAP1 PUSH1 0x20 ADD DUP1 DUP4 GT PUSH2 0x1155 JUMPI DUP3 SWAP1 SUB PUSH1 0x1F AND DUP3 ADD SWAP2 JUMPDEST POP POP POP POP POP SWAP1 DUP1 PUSH1 0x3 ADD DUP1 SLOAD PUSH2 0x1187 SWAP1 PUSH2 0x1BA7 JUMP JUMPDEST DUP1 PUSH1 0x1F ADD PUSH1 0x20 DUP1 SWAP2 DIV MUL PUSH1 0x20 ADD PUSH1 0x40 MLOAD SWAP1 DUP2 ADD PUSH1 0x40 MSTORE DUP1 SWAP3 SWAP2 SWAP1 DUP2 DUP2 MSTORE PUSH1 0x20 ADD DUP3 DUP1 SLOAD PUSH2 0x11B3 SWAP1 PUSH2 0x1BA7 JUMP JUMPDEST DUP1 ISZERO PUSH2 0x11FE JUMPI DUP1 PUSH1 0x1F LT PUSH2 0x11D5 JUMPI PUSH2 0x100 DUP1 DUP4 SLOAD DIV MUL DUP4 MSTORE SWAP2 PUSH1 0x20 ADD SWAP2 PUSH2 0x11FE JUMP JUMPDEST DUP3 ADD SWAP2 SWAP1 PUSH0 MSTORE PUSH1 0x20 PUSH0 KECCAK256 SWAP1 JUMPDEST DUP2 SLOAD DUP2 MSTORE SWAP1 PUSH1 0x1 ADD SWAP1 PUSH1 0x20 ADD DUP1 DUP4 GT PUSH2 0x11E1 JUMPI DUP3 SWAP1 SUB PUSH1 0x1F AND DUP3 ADD SWAP2 JUMPDEST POP POP POP POP POP SWAP1 DUP1 PUSH1 0x4 ADD DUP1 SLOAD PUSH2 0x1213 SWAP1 PUSH2 0x1BA7 JUMP JUMPDEST DUP1 PUSH1 0x1F ADD PUSH1 0x20 DUP1 SWAP2 DIV MUL PUSH1 0x20 ADD PUSH1 0x40 MLOAD SWAP1 DUP2 ADD PUSH1 0x40 MSTORE DUP1 SWAP3 SWAP2 SWAP1 DUP2 DUP2 MSTORE PUSH1 0x20 ADD DUP3 DUP1 SLOAD PUSH2 0x123F SWAP1 PUSH2 0x1BA7 JUMP JUMPDEST DUP1 ISZERO PUSH2 0x128A JUMPI DUP1 PUSH1 0x1F LT PUSH2 0x1261 JUMPI PUSH2 0x100 DUP1 DUP4 SLOAD DIV MUL DUP4 MSTORE SWAP2 PUSH1 0x20 ADD SWAP2 PUSH2 0x128A JUMP JUMPDEST DUP3 ADD SWAP2 SWAP1 PUSH0 MSTORE PUSH1 0x20 PUSH0 KECCAK256 SWAP1 JUMPDEST DUP2 SLOAD DUP2 MSTORE SWAP1 PUSH1 0x1 ADD SWAP1 PUSH1 0x20 ADD DUP1 DUP4 GT PUSH2 0x126D JUMPI DUP3 SWAP1 SUB PUSH1 0x1F AND DUP3 ADD SWAP2 JUMPDEST POP POP POP POP POP SWAP1 POP DUP6 JUMP JUMPDEST PUSH1 0x3 PUSH0 SWAP1 SLOAD SWAP1 PUSH2 0x100 EXP SWAP1 DIV PUSH20 0xFFFFFFFFFFFFFFFFFFFFFFFFFFFFFFFFFFFFFFFF AND PUSH20 0xFFFFFFFFFFFFFFFFFFFFFFFFFFFFFFFFFFFFFFFF AND CALLER PUSH20 0xFFFFFFFFFFFFFFFFFFFFFFFFFFFFFFFFFFFFFFFF AND EQ DUP1 PUSH2 0x1335 JUMPI POP PUSH1 0x2 PUSH0 CALLER PUSH20 0xFFFFFFFFFFFFFFFFFFFFFFFFFFFFFFFFFFFFFFFF AND PUSH20 0xFFFFFFFFFFFFFFFFFFFFFFFFFFFFFFFFFFFFFFFF AND DUP2 MSTORE PUSH1 0x20 ADD SWAP1 DUP2 MSTORE PUSH1 0x20 ADD PUSH0 KECCAK256 PUSH0 SWAP1 SLOAD SWAP1 PUSH2 0x100 EXP SWAP1 DIV PUSH1 0xFF AND JUMPDEST PUSH2 0x1374 JUMPI PUSH1 0x40 MLOAD PUSH32 0x8C379A000000000000000000000000000000000000000000000000000000000 DUP2 MSTORE PUSH1 0x4 ADD PUSH2 0x136B SWAP1 PUSH2 0x1C21 JUMP JUMPDEST PUSH1 0x40 MLOAD DUP1 SWAP2 SUB SWAP1 REVERT JUMPDEST DUP1 PUSH1 0x4 SWAP1 DUP2 PUSH2 0x1383 SWAP2 SWAP1 PUSH2 0x1EDA JUMP JUMPDEST POP POP JUMP JUMPDEST PUSH1 0x60 PUSH0 DUP1 SLOAD PUSH2 0x1395 SWAP1 PUSH2 0x1BA7 JUMP JUMPDEST DUP1 PUSH1 0x1F ADD PUSH1 0x20 DUP1 SWAP2 DIV MUL PUSH1 0x20 ADD PUSH1 0x40 MLOAD SWAP1 DUP2 ADD PUSH1 0x40 MSTORE DUP1 SWAP3 SWAP2 SWAP1 DUP2 DUP2 MSTORE PUSH1 0x20 ADD DUP3 DUP1 SLOAD PUSH2 0x13C1 SWAP1 PUSH2 0x1BA7 JUMP JUMPDEST DUP1 ISZERO PUSH2 0x140C JUMPI DUP1 PUSH1 0x1F LT PUSH2 0x13E3 JUMPI PUSH2 0x100 DUP1 DUP4 SLOAD DIV MUL DUP4 MSTORE SWAP2 PUSH1 0x20 ADD SWAP2 PUSH2 0x140C JUMP JUMPDEST DUP3 ADD SWAP2 SWAP1 PUSH0 MSTORE PUSH1 0x20 PUSH0 KECCAK256 SWAP1 JUMPDEST DUP2 SLOAD DUP2 MSTORE SWAP1 PUSH1 0x1 ADD SWAP1 PUSH1 0x20 ADD DUP1 DUP4 GT PUSH2 0x13EF JUMPI DUP3 SWAP1 SUB PUSH1 0x1F AND DUP3 ADD SWAP2 JUMPDEST POP POP POP POP POP SWAP1 POP SWAP1 JUMP JUMPDEST PUSH1 0x60 PUSH0 DUP3 SUB PUSH2 0x145C JUMPI PUSH1 0x40 MLOAD DUP1 PUSH1 0x40 ADD PUSH1 0x40 MSTORE DUP1 PUSH1 0x1 DUP2 MSTORE PUSH1 0x20 ADD PUSH32 0x3000000000000000000000000000000000000000000000000000000000000000 DUP2 MSTORE POP SWAP1 POP PUSH2 0x156A JUMP JUMPDEST PUSH0 DUP3 SWAP1 POP PUSH0 JUMPDEST PUSH0 DUP3 EQ PUSH2 0x148B JUMPI DUP1 DUP1 PUSH2 0x1474 SWAP1 PUSH2 0x2A80 JUMP JUMPDEST SWAP2 POP POP PUSH1 0xA DUP3 PUSH2 0x1484 SWAP2 SWAP1 PUSH2 0x2AF4 JUMP JUMPDEST SWAP2 POP PUSH2 0x1462 JUMP JUMPDEST PUSH0 DUP2 PUSH8 0xFFFFFFFFFFFFFFFF DUP2 GT ISZERO PUSH2 0x14A6 JUMPI PUSH2 0x14A5 PUSH2 0x1777 JUMP JUMPDEST JUMPDEST PUSH1 0x40 MLOAD SWAP1 DUP1 DUP3 MSTORE DUP1 PUSH1 0x1F ADD PUSH1 0x1F NOT AND PUSH1 0x20 ADD DUP3 ADD PUSH1 0x40 MSTORE DUP1 ISZERO PUSH2 0x14D8 JUMPI DUP2 PUSH1 0x20 ADD PUSH1 0x1 DUP3 MUL DUP1 CALLDATASIZE DUP4 CALLDATACOPY DUP1 DUP3 ADD SWAP2 POP POP SWAP1 POP JUMPDEST POP SWAP1 POP JUMPDEST PUSH0 DUP6 EQ PUSH2 0x1563 JUMPI PUSH1 0x1 DUP3 PUSH2 0x14F0 SWAP2 SWAP1 PUSH2 0x2B24 JUMP JUMPDEST SWAP2 POP PUSH1 0xA DUP6 PUSH2 0x14FF SWAP2 SWAP1 PUSH2 0x2B57 JUMP JUMPDEST PUSH1 0x30 PUSH2 0x150B SWAP2 SWAP1 PUSH2 0x2B87 JUMP JUMPDEST PUSH1 0xF8 SHL DUP2 DUP4 DUP2 MLOAD DUP2 LT PUSH2 0x1521 JUMPI PUSH2 0x1520 PUSH2 0x20B5 JUMP JUMPDEST JUMPDEST PUSH1 0x20 ADD ADD SWAP1 PUSH31 0xFFFFFFFFFFFFFFFFFFFFFFFFFFFFFFFFFFFFFFFFFFFFFFFFFFFFFFFFFFFFFF NOT AND SWAP1 DUP2 PUSH0 BYTE SWAP1 MSTORE8 POP PUSH1 0xA DUP6 PUSH2 0x155C SWAP2 SWAP1 PUSH2 0x2AF4 JUMP JUMPDEST SWAP5 POP PUSH2 0x14DC JUMP JUMPDEST DUP1 SWAP4 POP POP POP POP JUMPDEST SWAP2 SWAP1 POP JUMP JUMPDEST POP DUP1 SLOAD PUSH0 DUP3 SSTORE PUSH1 0x5 MUL SWAP1 PUSH0 MSTORE PUSH1 0x20 PUSH0 KECCAK256 SWAP1 DUP2 ADD SWAP1 PUSH2 0x158D SWAP2 SWAP1 PUSH2 0x1590 JUMP JUMPDEST POP JUMP JUMPDEST JUMPDEST DUP1 DUP3 GT ISZERO PUSH2 0x15ED JUMPI PUSH0 DUP1 DUP3 ADD PUSH0 PUSH2 0x15A8 SWAP2 SWAP1 PUSH2 0x15F1 JUMP JUMPDEST PUSH1 0x1 DUP3 ADD PUSH0 PUSH2 0x15B7 SWAP2 SWAP1 PUSH2 0x15F1 JUMP JUMPDEST PUSH1 0x2 DUP3 ADD PUSH0 PUSH2 0x15C6 SWAP2 SWAP1 PUSH2 0x15F1 JUMP JUMPDEST PUSH1 0x3 DUP3 ADD PUSH0 PUSH2 0x15D5 SWAP2 SWAP1 PUSH2 0x15F1 JUMP JUMPDEST PUSH1 0x4 DUP3 ADD PUSH0 PUSH2 0x15E4 SWAP2 SWAP1 PUSH2 0x15F1 JUMP JUMPDEST POP PUSH1 0x5 ADD PUSH2 0x1591 JUMP JUMPDEST POP SWAP1 JUMP JUMPDEST POP DUP1 SLOAD PUSH2 0x15FD SWAP1 PUSH2 0x1BA7 JUMP JUMPDEST PUSH0 DUP3 SSTORE DUP1 PUSH1 0x1F LT PUSH2 0x160E JUMPI POP PUSH2 0x162B JUMP JUMPDEST PUSH1 0x1F ADD PUSH1 0x20 SWAP1 DIV SWAP1 PUSH0 MSTORE PUSH1 0x20 PUSH0 KECCAK256 SWAP1 DUP2 ADD SWAP1 PUSH2 0x162A SWAP2 SWAP1 PUSH2 0x162E JUMP JUMPDEST JUMPDEST POP JUMP JUMPDEST JUMPDEST DUP1 DUP3 GT ISZERO PUSH2 0x1645 JUMPI PUSH0 DUP2 PUSH0 SWAP1 SSTORE POP PUSH1 0x1 ADD PUSH2 0x162F JUMP JUMPDEST POP SWAP1 JUMP JUMPDEST PUSH0 PUSH1 0x40 MLOAD SWAP1 POP SWAP1 JUMP JUMPDEST PUSH0 DUP1 REVERT JUMPDEST PUSH0 DUP1 REVERT JUMPDEST PUSH0 PUSH20 0xFFFFFFFFFFFFFFFFFFFFFFFFFFFFFFFFFFFFFFFF DUP3 AND SWAP1 POP SWAP2 SWAP1 POP JUMP JUMPDEST PUSH0 PUSH2 0x1683 DUP3 PUSH2 0x165A JUMP JUMPDEST SWAP1 POP SWAP2 SWAP1 POP JUMP JUMPDEST PUSH2 0x1693 DUP2 PUSH2 0x1679 JUMP JUMPDEST DUP2 EQ PUSH2 0x169D JUMPI PUSH0 DUP1 REVERT JUMPDEST POP JUMP JUMPDEST PUSH0 DUP2 CALLDATALOAD SWAP1 POP PUSH2 0x16AE DUP2 PUSH2 0x168A JUMP JUMPDEST SWAP3 SWAP2 POP POP JUMP JUMPDEST PUSH0 PUSH1 0x20 DUP3 DUP5 SUB SLT ISZERO PUSH2 0x16C9 JUMPI PUSH2 0x16C8 PUSH2 0x1652 JUMP JUMPDEST JUMPDEST PUSH0 PUSH2 0x16D6 DUP5 DUP3 DUP6 ADD PUSH2 0x16A0 JUMP JUMPDEST SWAP2 POP POP SWAP3 SWAP2 POP POP JUMP JUMPDEST PUSH0 DUP2 MLOAD SWAP1 POP SWAP2 SWAP1 POP JUMP JUMPDEST PUSH0 DUP3 DUP3 MSTORE PUSH1 0x20 DUP3 ADD SWAP1 POP SWAP3 SWAP2 POP POP JUMP JUMPDEST DUP3 DUP2 DUP4 MCOPY PUSH0 DUP4 DUP4 ADD MSTORE POP POP POP JUMP JUMPDEST PUSH0 PUSH1 0x1F NOT PUSH1 0x1F DUP4 ADD AND SWAP1 POP SWAP2 SWAP1 POP JUMP JUMPDEST PUSH0 PUSH2 0x1721 DUP3 PUSH2 0x16DF JUMP JUMPDEST PUSH2 0x172B DUP2 DUP6 PUSH2 0x16E9 JUMP JUMPDEST SWAP4 POP PUSH2 0x173B DUP2 DUP6 PUSH1 0x20 DUP7 ADD PUSH2 0x16F9 JUMP JUMPDEST PUSH2 0x1744 DUP2 PUSH2 0x1707 JUMP JUMPDEST DUP5 ADD SWAP2 POP POP SWAP3 SWAP2 POP POP JUMP JUMPDEST PUSH0 PUSH1 0x20 DUP3 ADD SWAP1 POP DUP2 DUP2 SUB PUSH0 DUP4 ADD MSTORE PUSH2 0x1767 DUP2 DUP5 PUSH2 0x1717 JUMP JUMPDEST SWAP1 POP SWAP3 SWAP2 POP POP JUMP JUMPDEST PUSH0 DUP1 REVERT JUMPDEST PUSH0 DUP1 REVERT JUMPDEST PUSH32 0x4E487B7100000000000000000000000000000000000000000000000000000000 PUSH0 MSTORE PUSH1 0x41 PUSH1 0x4 MSTORE PUSH1 0x24 PUSH0 REVERT JUMPDEST PUSH2 0x17AD DUP3 PUSH2 0x1707 JUMP JUMPDEST DUP2 ADD DUP2 DUP2 LT PUSH8 0xFFFFFFFFFFFFFFFF DUP3 GT OR ISZERO PUSH2 0x17CC JUMPI PUSH2 0x17CB PUSH2 0x1777 JUMP JUMPDEST JUMPDEST DUP1 PUSH1 0x40 MSTORE POP POP POP JUMP JUMPDEST PUSH0 PUSH2 0x17DE PUSH2 0x1649 JUMP JUMPDEST SWAP1 POP PUSH2 0x17EA DUP3 DUP3 PUSH2 0x17A4 JUMP JUMPDEST SWAP2 SWAP1 POP JUMP JUMPDEST PUSH0 PUSH8 0xFFFFFFFFFFFFFFFF DUP3 GT ISZERO PUSH2 0x1809 JUMPI PUSH2 0x1808 PUSH2 0x1777 JUMP JUMPDEST JUMPDEST PUSH2 0x1812 DUP3 PUSH2 0x1707 JUMP JUMPDEST SWAP1 POP PUSH1 0x20 DUP2 ADD SWAP1 POP SWAP2 SWAP1 POP JUMP JUMPDEST DUP3 DUP2 DUP4 CALLDATACOPY PUSH0 DUP4 DUP4 ADD MSTORE POP POP POP JUMP JUMPDEST PUSH0 PUSH2 0x183F PUSH2 0x183A DUP5 PUSH2 0x17EF JUMP JUMPDEST PUSH2 0x17D5 JUMP JUMPDEST SWAP1 POP DUP3 DUP2 MSTORE PUSH1 0x20 DUP2 ADD DUP5 DUP5 DUP5 ADD GT ISZERO PUSH2 0x185B JUMPI PUSH2 0x185A PUSH2 0x1773 JUMP JUMPDEST JUMPDEST PUSH2 0x1866 DUP5 DUP3 DUP6 PUSH2 0x181F JUMP JUMPDEST POP SWAP4 SWAP3 POP POP POP JUMP JUMPDEST PUSH0 DUP3 PUSH1 0x1F DUP4 ADD SLT PUSH2 0x1882 JUMPI PUSH2 0x1881 PUSH2 0x176F JUMP JUMPDEST JUMPDEST DUP2 CALLDATALOAD PUSH2 0x1892 DUP5 DUP3 PUSH1 0x20 DUP7 ADD PUSH2 0x182D JUMP JUMPDEST SWAP2 POP POP SWAP3 SWAP2 POP POP JUMP JUMPDEST PUSH0 PUSH1 0x20 DUP3 DUP5 SUB SLT ISZERO PUSH2 0x18B0 JUMPI PUSH2 0x18AF PUSH2 0x1652 JUMP JUMPDEST JUMPDEST PUSH0 DUP3 ADD CALLDATALOAD PUSH8 0xFFFFFFFFFFFFFFFF DUP2 GT ISZERO PUSH2 0x18CD JUMPI PUSH2 0x18CC PUSH2 0x1656 JUMP JUMPDEST JUMPDEST PUSH2 0x18D9 DUP5 DUP3 DUP6 ADD PUSH2 0x186E JUMP JUMPDEST SWAP2 POP POP SWAP3 SWAP2 POP POP JUMP JUMPDEST PUSH0 DUP1 PUSH0 DUP1 PUSH0 PUSH1 0xA0 DUP7 DUP9 SUB SLT ISZERO PUSH2 0x18FB JUMPI PUSH2 0x18FA PUSH2 0x1652 JUMP JUMPDEST JUMPDEST PUSH0 DUP7 ADD CALLDATALOAD PUSH8 0xFFFFFFFFFFFFFFFF DUP2 GT ISZERO PUSH2 0x1918 JUMPI PUSH2 0x1917 PUSH2 0x1656 JUMP JUMPDEST JUMPDEST PUSH2 0x1924 DUP9 DUP3 DUP10 ADD PUSH2 0x186E JUMP JUMPDEST SWAP6 POP POP PUSH1 0x20 DUP7 ADD CALLDATALOAD PUSH8 0xFFFFFFFFFFFFFFFF DUP2 GT ISZERO PUSH2 0x1945 JUMPI PUSH2 0x1944 PUSH2 0x1656 JUMP JUMPDEST JUMPDEST PUSH2 0x1951 DUP9 DUP3 DUP10 ADD PUSH2 0x186E JUMP JUMPDEST SWAP5 POP POP PUSH1 0x40 DUP7 ADD CALLDATALOAD PUSH8 0xFFFFFFFFFFFFFFFF DUP2 GT ISZERO PUSH2 0x1972 JUMPI PUSH2 0x1971 PUSH2 0x1656 JUMP JUMPDEST JUMPDEST PUSH2 0x197E DUP9 DUP3 DUP10 ADD PUSH2 0x186E JUMP JUMPDEST SWAP4 POP POP PUSH1 0x60 DUP7 ADD CALLDATALOAD PUSH8 0xFFFFFFFFFFFFFFFF DUP2 GT ISZERO PUSH2 0x199F JUMPI PUSH2 0x199E PUSH2 0x1656 JUMP JUMPDEST JUMPDEST PUSH2 0x19AB DUP9 DUP3 DUP10 ADD PUSH2 0x186E JUMP JUMPDEST SWAP3 POP POP PUSH1 0x80 DUP7 ADD CALLDATALOAD PUSH8 0xFFFFFFFFFFFFFFFF DUP2 GT ISZERO PUSH2 0x19CC JUMPI PUSH2 0x19CB PUSH2 0x1656 JUMP JUMPDEST JUMPDEST PUSH2 0x19D8 DUP9 DUP3 DUP10 ADD PUSH2 0x186E JUMP JUMPDEST SWAP2 POP POP SWAP3 SWAP6 POP SWAP3 SWAP6 SWAP1 SWAP4 POP JUMP JUMPDEST PUSH0 DUP2 ISZERO ISZERO SWAP1 POP SWAP2 SWAP1 POP JUMP JUMPDEST PUSH2 0x19F9 DUP2 PUSH2 0x19E5 JUMP JUMPDEST DUP3 MSTORE POP POP JUMP JUMPDEST PUSH0 PUSH1 0x20 DUP3 ADD SWAP1 POP PUSH2 0x1A12 PUSH0 DUP4 ADD DUP5 PUSH2 0x19F0 JUMP JUMPDEST SWAP3 SWAP2 POP POP JUMP JUMPDEST PUSH2 0x1A21 DUP2 PUSH2 0x1679 JUMP JUMPDEST DUP3 MSTORE POP POP JUMP JUMPDEST PUSH0 PUSH1 0x20 DUP3 ADD SWAP1 POP PUSH2 0x1A3A PUSH0 DUP4 ADD DUP5 PUSH2 0x1A18 JUMP JUMPDEST SWAP3 SWAP2 POP POP JUMP JUMPDEST PUSH0 DUP2 SWAP1 POP SWAP2 SWAP1 POP JUMP JUMPDEST PUSH2 0x1A52 DUP2 PUSH2 0x1A40 JUMP JUMPDEST DUP2 EQ PUSH2 0x1A5C JUMPI PUSH0 DUP1 REVERT JUMPDEST POP JUMP JUMPDEST PUSH0 DUP2 CALLDATALOAD SWAP1 POP PUSH2 0x1A6D DUP2 PUSH2 0x1A49 JUMP JUMPDEST SWAP3 SWAP2 POP POP JUMP JUMPDEST PUSH0 PUSH1 0x20 DUP3 DUP5 SUB SLT ISZERO PUSH2 0x1A88 JUMPI PUSH2 0x1A87 PUSH2 0x1652 JUMP JUMPDEST JUMPDEST PUSH0 PUSH2 0x1A95 DUP5 DUP3 DUP6 ADD PUSH2 0x1A5F JUMP JUMPDEST SWAP2 POP POP SWAP3 SWAP2 POP POP JUMP JUMPDEST PUSH0 PUSH1 0xA0 DUP3 ADD SWAP1 POP DUP2 DUP2 SUB PUSH0 DUP4 ADD MSTORE PUSH2 0x1AB6 DUP2 DUP9 PUSH2 0x1717 JUMP JUMPDEST SWAP1 POP DUP2 DUP2 SUB PUSH1 0x20 DUP4 ADD MSTORE PUSH2 0x1ACA DUP2 DUP8 PUSH2 0x1717 JUMP JUMPDEST SWAP1 POP DUP2 DUP2 SUB PUSH1 0x40 DUP4 ADD MSTORE PUSH2 0x1ADE DUP2 DUP7 PUSH2 0x1717 JUMP JUMPDEST SWAP1 POP DUP2 DUP2 SUB PUSH1 0x60 DUP4 ADD MSTORE PUSH2 0x1AF2 DUP2 DUP6 PUSH2 0x1717 JUMP JUMPDEST SWAP1 POP DUP2 DUP2 SUB PUSH1 0x80 DUP4 ADD MSTORE PUSH2 0x1B06 DUP2 DUP5 PUSH2 0x1717 JUMP JUMPDEST SWAP1 POP SWAP7 SWAP6 POP POP POP POP POP POP JUMP JUMPDEST PUSH32 0x4E6F7420746865206F776E657200000000000000000000000000000000000000 PUSH0 DUP3 ADD MSTORE POP JUMP JUMPDEST PUSH0 PUSH2 0x1B46 PUSH1 0xD DUP4 PUSH2 0x16E9 JUMP JUMPDEST SWAP2 POP PUSH2 0x1B51 DUP3 PUSH2 0x1B12 JUMP JUMPDEST PUSH1 0x20 DUP3 ADD SWAP1 POP SWAP2 SWAP1 POP JUMP JUMPDEST PUSH0 PUSH1 0x20 DUP3 ADD SWAP1 POP DUP2 DUP2 SUB PUSH0 DUP4 ADD MSTORE PUSH2 0x1B73 DUP2 PUSH2 0x1B3A JUMP JUMPDEST SWAP1 POP SWAP2 SWAP1 POP JUMP JUMPDEST PUSH32 0x4E487B7100000000000000000000000000000000000000000000000000000000 PUSH0 MSTORE PUSH1 0x22 PUSH1 0x4 MSTORE PUSH1 0x24 PUSH0 REVERT JUMPDEST PUSH0 PUSH1 0x2 DUP3 DIV SWAP1 POP PUSH1 0x1 DUP3 AND DUP1 PUSH2 0x1BBE JUMPI PUSH1 0x7F DUP3 AND SWAP2 POP JUMPDEST PUSH1 0x20 DUP3 LT DUP2 SUB PUSH2 0x1BD1 JUMPI PUSH2 0x1BD0 PUSH2 0x1B7A JUMP JUMPDEST JUMPDEST POP SWAP2 SWAP1 POP JUMP JUMPDEST PUSH32 0x4E6F7420617574686F72697A6564000000000000000000000000000000000000 PUSH0 DUP3 ADD MSTORE POP JUMP JUMPDEST PUSH0 PUSH2 0x1C0B PUSH1 0xE DUP4 PUSH2 0x16E9 JUMP JUMPDEST SWAP2 POP PUSH2 0x1C16 DUP3 PUSH2 0x1BD7 JUMP JUMPDEST PUSH1 0x20 DUP3 ADD SWAP1 POP SWAP2 SWAP1 POP JUMP JUMPDEST PUSH0 PUSH1 0x20 DUP3 ADD SWAP1 POP DUP2 DUP2 SUB PUSH0 DUP4 ADD MSTORE PUSH2 0x1C38 DUP2 PUSH2 0x1BFF JUMP JUMPDEST SWAP1 POP SWAP2 SWAP1 POP JUMP JUMPDEST PUSH0 DUP2 SWAP1 POP SWAP3 SWAP2 POP POP JUMP JUMPDEST PUSH32 0x3000000000000000000000000000000000000000000000000000000000000000 PUSH0 DUP3 ADD MSTORE POP JUMP JUMPDEST PUSH0 PUSH2 0x1C7D PUSH1 0x1 DUP4 PUSH2 0x1C3F JUMP JUMPDEST SWAP2 POP PUSH2 0x1C88 DUP3 PUSH2 0x1C49 JUMP JUMPDEST PUSH1 0x1 DUP3 ADD SWAP1 POP SWAP2 SWAP1 POP JUMP JUMPDEST PUSH0 PUSH2 0x1C9D DUP3 PUSH2 0x1C71 JUMP JUMPDEST SWAP2 POP DUP2 SWAP1 POP SWAP2 SWAP1 POP JUMP JUMPDEST PUSH0 DUP2 SWAP1 POP DUP2 PUSH0 MSTORE PUSH1 0x20 PUSH0 KECCAK256 SWAP1 POP SWAP2 SWAP1 POP JUMP JUMPDEST PUSH0 DUP2 SLOAD PUSH2 0x1CC5 DUP2 PUSH2 0x1BA7 JUMP JUMPDEST PUSH2 0x1CCF DUP2 DUP7 PUSH2 0x1C3F JUMP JUMPDEST SWAP5 POP PUSH1 0x1 DUP3 AND PUSH0 DUP2 EQ PUSH2 0x1CE9 JUMPI PUSH1 0x1 DUP2 EQ PUSH2 0x1CFE JUMPI PUSH2 0x1D30 JUMP JUMPDEST PUSH1 0xFF NOT DUP4 AND DUP7 MSTORE DUP2 ISZERO ISZERO DUP3 MUL DUP7 ADD SWAP4 POP PUSH2 0x1D30 JUMP JUMPDEST PUSH2 0x1D07 DUP6 PUSH2 0x1CA7 JUMP JUMPDEST PUSH0 JUMPDEST DUP4 DUP2 LT ISZERO PUSH2 0x1D28 JUMPI DUP2 SLOAD DUP2 DUP10 ADD MSTORE PUSH1 0x1 DUP3 ADD SWAP2 POP PUSH1 0x20 DUP2 ADD SWAP1 POP PUSH2 0x1D09 JUMP JUMPDEST DUP4 DUP9 ADD SWAP6 POP POP POP JUMPDEST POP POP POP SWAP3 SWAP2 POP POP JUMP JUMPDEST PUSH0 PUSH2 0x1D44 DUP3 DUP5 PUSH2 0x1CB9 JUMP JUMPDEST SWAP2 POP DUP2 SWAP1 POP SWAP3 SWAP2 POP POP JUMP JUMPDEST PUSH0 PUSH1 0x20 PUSH1 0x1F DUP4 ADD DIV SWAP1 POP SWAP2 SWAP1 POP JUMP JUMPDEST PUSH0 DUP3 DUP3 SHL SWAP1 POP SWAP3 SWAP2 POP POP JUMP JUMPDEST PUSH0 PUSH1 0x8 DUP4 MUL PUSH2 0x1D99 PUSH32 0xFFFFFFFFFFFFFFFFFFFFFFFFFFFFFFFFFFFFFFFFFFFFFFFFFFFFFFFFFFFFFFFF DUP3 PUSH2 0x1D5E JUMP JUMPDEST PUSH2 0x1DA3 DUP7 DUP4 PUSH2 0x1D5E JUMP JUMPDEST SWAP6 POP DUP1 NOT DUP5 AND SWAP4 POP DUP1 DUP7 AND DUP5 OR SWAP3 POP POP POP SWAP4 SWAP3 POP POP POP JUMP JUMPDEST PUSH0 DUP2 SWAP1 POP SWAP2 SWAP1 POP JUMP JUMPDEST PUSH0 PUSH2 0x1DDE PUSH2 0x1DD9 PUSH2 0x1DD4 DUP5 PUSH2 0x1A40 JUMP JUMPDEST PUSH2 0x1DBB JUMP JUMPDEST PUSH2 0x1A40 JUMP JUMPDEST SWAP1 POP SWAP2 SWAP1 POP JUMP JUMPDEST PUSH0 DUP2 SWAP1 POP SWAP2 SWAP1 POP JUMP JUMPDEST PUSH2 0x1DF7 DUP4 PUSH2 0x1DC4 JUMP JUMPDEST PUSH2 0x1E0B PUSH2 0x1E03 DUP3 PUSH2 0x1DE5 JUMP JUMPDEST DUP5 DUP5 SLOAD PUSH2 0x1D6A JUMP JUMPDEST DUP3 SSTORE POP POP POP POP JUMP JUMPDEST PUSH0 SWAP1 JUMP JUMPDEST PUSH2 0x1E1F PUSH2 0x1E13 JUMP JUMPDEST PUSH2 0x1E2A DUP2 DUP5 DUP5 PUSH2 0x1DEE JUMP JUMPDEST POP POP POP JUMP JUMPDEST JUMPDEST DUP2 DUP2 LT ISZERO PUSH2 0x1E4D JUMPI PUSH2 0x1E42 PUSH0 DUP3 PUSH2 0x1E17 JUMP JUMPDEST PUSH1 0x1 DUP2 ADD SWAP1 POP PUSH2 0x1E30 JUMP JUMPDEST POP POP JUMP JUMPDEST PUSH1 0x1F DUP3 GT ISZERO PUSH2 0x1E92 JUMPI PUSH2 0x1E63 DUP2 PUSH2 0x1CA7 JUMP JUMPDEST PUSH2 0x1E6C DUP5 PUSH2 0x1D4F JUMP JUMPDEST DUP2 ADD PUSH1 0x20 DUP6 LT ISZERO PUSH2 0x1E7B JUMPI DUP2 SWAP1 POP JUMPDEST PUSH2 0x1E8F PUSH2 0x1E87 DUP6 PUSH2 0x1D4F JUMP JUMPDEST DUP4 ADD DUP3 PUSH2 0x1E2F JUMP JUMPDEST POP POP JUMPDEST POP POP POP JUMP JUMPDEST PUSH0 DUP3 DUP3 SHR SWAP1 POP SWAP3 SWAP2 POP POP JUMP JUMPDEST PUSH0 PUSH2 0x1EB2 PUSH0 NOT DUP5 PUSH1 0x8 MUL PUSH2 0x1E97 JUMP JUMPDEST NOT DUP1 DUP4 AND SWAP2 POP POP SWAP3 SWAP2 POP POP JUMP JUMPDEST PUSH0 PUSH2 0x1ECA DUP4 DUP4 PUSH2 0x1EA3 JUMP JUMPDEST SWAP2 POP DUP3 PUSH1 0x2 MUL DUP3 OR SWAP1 POP SWAP3 SWAP2 POP POP JUMP JUMPDEST PUSH2 0x1EE3 DUP3 PUSH2 0x16DF JUMP JUMPDEST PUSH8 0xFFFFFFFFFFFFFFFF DUP2 GT ISZERO PUSH2 0x1EFC JUMPI PUSH2 0x1EFB PUSH2 0x1777 JUMP JUMPDEST JUMPDEST PUSH2 0x1F06 DUP3 SLOAD PUSH2 0x1BA7 JUMP JUMPDEST PUSH2 0x1F11 DUP3 DUP3 DUP6 PUSH2 0x1E51 JUMP JUMPDEST PUSH0 PUSH1 0x20 SWAP1 POP PUSH1 0x1F DUP4 GT PUSH1 0x1 DUP2 EQ PUSH2 0x1F42 JUMPI PUSH0 DUP5 ISZERO PUSH2 0x1F30 JUMPI DUP3 DUP8 ADD MLOAD SWAP1 POP JUMPDEST PUSH2 0x1F3A DUP6 DUP3 PUSH2 0x1EBF JUMP JUMPDEST DUP7 SSTORE POP PUSH2 0x1FA1 JUMP JUMPDEST PUSH1 0x1F NOT DUP5 AND PUSH2 0x1F50 DUP7 PUSH2 0x1CA7 JUMP JUMPDEST PUSH0 JUMPDEST DUP3 DUP2 LT ISZERO PUSH2 0x1F77 JUMPI DUP5 DUP10 ADD MLOAD DUP3 SSTORE PUSH1 0x1 DUP3 ADD SWAP2 POP PUSH1 0x20 DUP6 ADD SWAP5 POP PUSH1 0x20 DUP2 ADD SWAP1 POP PUSH2 0x1F52 JUMP JUMPDEST DUP7 DUP4 LT ISZERO PUSH2 0x1F94 JUMPI DUP5 DUP10 ADD MLOAD PUSH2 0x1F90 PUSH1 0x1F DUP10 AND DUP3 PUSH2 0x1EA3 JUMP JUMPDEST DUP4 SSTORE POP JUMPDEST PUSH1 0x1 PUSH1 0x2 DUP9 MUL ADD DUP9 SSTORE POP POP POP JUMPDEST POP POP POP POP POP POP JUMP JUMPDEST PUSH0 PUSH2 0x1FB3 DUP3 PUSH2 0x16DF JUMP JUMPDEST PUSH2 0x1FBD DUP2 DUP6 PUSH2 0x1C3F JUMP JUMPDEST SWAP4 POP PUSH2 0x1FCD DUP2 DUP6 PUSH1 0x20 DUP7 ADD PUSH2 0x16F9 JUMP JUMPDEST DUP1 DUP5 ADD SWAP2 POP POP SWAP3 SWAP2 POP POP JUMP JUMPDEST PUSH0 PUSH2 0x1FE4 DUP3 DUP5 PUSH2 0x1FA9 JUMP JUMPDEST SWAP2 POP DUP2 SWAP1 POP SWAP3 SWAP2 POP POP JUMP JUMPDEST PUSH32 0x3100000000000000000000000000000000000000000000000000000000000000 PUSH0 DUP3 ADD MSTORE POP JUMP JUMPDEST PUSH0 PUSH2 0x2023 PUSH1 0x1 DUP4 PUSH2 0x1C3F JUMP JUMPDEST SWAP2 POP PUSH2 0x202E DUP3 PUSH2 0x1FEF JUMP JUMPDEST PUSH1 0x1 DUP3 ADD SWAP1 POP SWAP2 SWAP1 POP JUMP JUMPDEST PUSH0 PUSH2 0x2043 DUP3 PUSH2 0x2017 JUMP JUMPDEST SWAP2 POP DUP2 SWAP1 POP SWAP2 SWAP1 POP JUMP JUMPDEST PUSH32 0x4D6F6465206D75737420626520273027206F7220273127000000000000000000 PUSH0 DUP3 ADD MSTORE POP JUMP JUMPDEST PUSH0 PUSH2 0x2081 PUSH1 0x17 DUP4 PUSH2 0x16E9 JUMP JUMPDEST SWAP2 POP PUSH2 0x208C DUP3 PUSH2 0x204D JUMP JUMPDEST PUSH1 0x20 DUP3 ADD SWAP1 POP SWAP2 SWAP1 POP JUMP JUMPDEST PUSH0 PUSH1 0x20 DUP3 ADD SWAP1 POP DUP2 DUP2 SUB PUSH0 DUP4 ADD MSTORE PUSH2 0x20AE DUP2 PUSH2 0x2075 JUMP JUMPDEST SWAP1 POP SWAP2 SWAP1 POP JUMP JUMPDEST PUSH32 0x4E487B7100000000000000000000000000000000000000000000000000000000 PUSH0 MSTORE PUSH1 0x32 PUSH1 0x4 MSTORE PUSH1 0x24 PUSH0 REVERT JUMPDEST PUSH32 0x3C747220636C6173733D227461626C652D726F77206C696768742D6267206C69 PUSH0 DUP3 ADD MSTORE PUSH32 0x6768742D626F72646572206C696768742D74657874223E000000000000000000 PUSH1 0x20 DUP3 ADD MSTORE POP JUMP JUMPDEST PUSH0 PUSH2 0x213C PUSH1 0x37 DUP4 PUSH2 0x1C3F JUMP JUMPDEST SWAP2 POP PUSH2 0x2147 DUP3 PUSH2 0x20E2 JUMP JUMPDEST PUSH1 0x37 DUP3 ADD SWAP1 POP SWAP2 SWAP1 POP JUMP JUMPDEST PUSH32 0x3C746420636C6173733D226C696768742D6267222077696474683D2233302522 PUSH0 DUP3 ADD MSTORE PUSH32 0x20616C69676E3D2263656E746572223E00000000000000000000000000000000 PUSH1 0x20 DUP3 ADD MSTORE POP JUMP JUMPDEST PUSH0 PUSH2 0x21AC PUSH1 0x30 DUP4 PUSH2 0x1C3F JUMP JUMPDEST SWAP2 POP PUSH2 0x21B7 DUP3 PUSH2 0x2152 JUMP JUMPDEST PUSH1 0x30 DUP3 ADD SWAP1 POP SWAP2 SWAP1 POP JUMP JUMPDEST PUSH32 0x3C666F6E7420636C6173733D22736D616C6C5F74657874223E00000000000000 PUSH0 DUP3 ADD MSTORE POP JUMP JUMPDEST PUSH0 PUSH2 0x21F6 PUSH1 0x19 DUP4 PUSH2 0x1C3F JUMP JUMPDEST SWAP2 POP PUSH2 0x2201 DUP3 PUSH2 0x21C2 JUMP JUMPDEST PUSH1 0x19 DUP3 ADD SWAP1 POP SWAP2 SWAP1 POP JUMP JUMPDEST PUSH32 0x3C6120636C6173733D226C696768742D6C696E6B22207461726765743D225F62 PUSH0 DUP3 ADD MSTORE PUSH32 0x6C616E6B2220687265663D220000000000000000000000000000000000000000 PUSH1 0x20 DUP3 ADD MSTORE POP JUMP JUMPDEST PUSH0 PUSH2 0x2266 PUSH1 0x2C DUP4 PUSH2 0x1C3F JUMP JUMPDEST SWAP2 POP PUSH2 0x2271 DUP3 PUSH2 0x220C JUMP JUMPDEST PUSH1 0x2C DUP3 ADD SWAP1 POP SWAP2 SWAP1 POP JUMP JUMPDEST PUSH32 0x223E546A6F3C2F613E0000000000000000000000000000000000000000000000 PUSH0 DUP3 ADD MSTORE POP JUMP JUMPDEST PUSH0 PUSH2 0x22B0 PUSH1 0x9 DUP4 PUSH2 0x1C3F JUMP JUMPDEST SWAP2 POP PUSH2 0x22BB DUP3 PUSH2 0x227C JUMP JUMPDEST PUSH1 0x9 DUP3 ADD SWAP1 POP SWAP2 SWAP1 POP JUMP JUMPDEST PUSH32 0x3C666F6E743E3C2F666F6E743E3C2F666F6E743E3C2F74643E00000000000000 PUSH0 DUP3 ADD MSTORE POP JUMP JUMPDEST PUSH0 PUSH2 0x22FA PUSH1 0x19 DUP4 PUSH2 0x1C3F JUMP JUMPDEST SWAP2 POP PUSH2 0x2305 DUP3 PUSH2 0x22C6 JUMP JUMPDEST PUSH1 0x19 DUP3 ADD SWAP1 POP SWAP2 SWAP1 POP JUMP JUMPDEST PUSH32 0x3C746420616C69676E3D227269676874222077696474683D223730252220636C PUSH0 DUP3 ADD MSTORE PUSH32 0x6173733D226C696768742D6267206C696768742D6C696E6B223E000000000000 PUSH1 0x20 DUP3 ADD MSTORE POP JUMP JUMPDEST PUSH0 PUSH2 0x236A PUSH1 0x3A DUP4 PUSH2 0x1C3F JUMP JUMPDEST SWAP2 POP PUSH2 0x2375 DUP3 PUSH2 0x2310 JUMP JUMPDEST PUSH1 0x3A DUP3 ADD SWAP1 POP SWAP2 SWAP1 POP JUMP JUMPDEST PUSH32 0x3C64697620636C6173733D22706F7374496E666F206465736B746F70223E0000 PUSH0 DUP3 ADD MSTORE POP JUMP JUMPDEST PUSH0 PUSH2 0x23B4 PUSH1 0x1E DUP4 PUSH2 0x1C3F JUMP JUMPDEST SWAP2 POP PUSH2 0x23BF DUP3 PUSH2 0x2380 JUMP JUMPDEST PUSH1 0x1E DUP3 ADD SWAP1 POP SWAP2 SWAP1 POP JUMP JUMPDEST PUSH32 0x3C7370616E20636C6173733D22706F73744E756D206465736B746F70223E0000 PUSH0 DUP3 ADD MSTORE POP JUMP JUMPDEST PUSH0 PUSH2 0x23FE PUSH1 0x1E DUP4 PUSH2 0x1C3F JUMP JUMPDEST SWAP2 POP PUSH2 0x2409 DUP3 PUSH2 0x23CA JUMP JUMPDEST PUSH1 0x1E DUP3 ADD SWAP1 POP SWAP2 SWAP1 POP JUMP JUMPDEST PUSH32 0x3C6120636C6173733D226C696768742D6C696E6B22207374796C653D22666F6E PUSH0 DUP3 ADD MSTORE PUSH32 0x742D73697A653A313270783B2220687265663D22000000000000000000000000 PUSH1 0x20 DUP3 ADD MSTORE POP JUMP JUMPDEST PUSH0 PUSH2 0x246E PUSH1 0x34 DUP4 PUSH2 0x1C3F JUMP JUMPDEST SWAP2 POP PUSH2 0x2479 DUP3 PUSH2 0x2414 JUMP JUMPDEST PUSH1 0x34 DUP3 ADD SWAP1 POP SWAP2 SWAP1 POP JUMP JUMPDEST PUSH32 0x22207461726765743D225F626C616E6B22207469746C653D224C696E6B20746F PUSH0 DUP3 ADD MSTORE PUSH32 0x2074686973207472616E73616374696F6E223E00000000000000000000000000 PUSH1 0x20 DUP3 ADD MSTORE POP JUMP JUMPDEST PUSH0 PUSH2 0x24DE PUSH1 0x33 DUP4 PUSH2 0x1C3F JUMP JUMPDEST SWAP2 POP PUSH2 0x24E9 DUP3 PUSH2 0x2484 JUMP JUMPDEST PUSH1 0x33 DUP3 ADD SWAP1 POP SWAP2 SWAP1 POP JUMP JUMPDEST PUSH32 0x3C2F613E3C2F7370616E3E3C2F6469763E3C2F74643E3C2F74723E0000000000 PUSH0 DUP3 ADD MSTORE POP JUMP JUMPDEST PUSH0 PUSH2 0x2528 PUSH1 0x1B DUP4 PUSH2 0x1C3F JUMP JUMPDEST SWAP2 POP PUSH2 0x2533 DUP3 PUSH2 0x24F4 JUMP JUMPDEST PUSH1 0x1B DUP3 ADD SWAP1 POP SWAP2 SWAP1 POP JUMP JUMPDEST PUSH32 0x3C74723E3C74642076616C69676E3D226D6964646C652220616C69676E3D226C PUSH0 DUP3 ADD MSTORE PUSH32 0x6566742220636C6173733D226C696768742D6267223E00000000000000000000 PUSH1 0x20 DUP3 ADD MSTORE POP JUMP JUMPDEST PUSH0 PUSH2 0x2598 PUSH1 0x36 DUP4 PUSH2 0x1C3F JUMP JUMPDEST SWAP2 POP PUSH2 0x25A3 DUP3 PUSH2 0x253E JUMP JUMPDEST PUSH1 0x36 DUP3 ADD SWAP1 POP SWAP2 SWAP1 POP JUMP JUMPDEST PUSH32 0x3C756C20616C69676E3D226C65667422207374796C653D2270616464696E672D PUSH0 DUP3 ADD MSTORE PUSH32 0x6C6566743A20313570783B666F6E742D73697A653A20313070783B223E000000 PUSH1 0x20 DUP3 ADD MSTORE POP JUMP JUMPDEST PUSH0 PUSH2 0x2608 PUSH1 0x3D DUP4 PUSH2 0x1C3F JUMP JUMPDEST SWAP2 POP PUSH2 0x2613 DUP3 PUSH2 0x25AE JUMP JUMPDEST PUSH1 0x3D DUP3 ADD SWAP1 POP SWAP2 SWAP1 POP JUMP JUMPDEST PUSH32 0x3C6C6920636C6173733D226C696768742D746578742D33223E426C6F636B3A20 PUSH0 DUP3 ADD MSTORE POP JUMP JUMPDEST PUSH0 PUSH2 0x2652 PUSH1 0x20 DUP4 PUSH2 0x1C3F JUMP JUMPDEST SWAP2 POP PUSH2 0x265D DUP3 PUSH2 0x261E JUMP JUMPDEST PUSH1 0x20 DUP3 ADD SWAP1 POP SWAP2 SWAP1 POP JUMP JUMPDEST PUSH32 0x3C2F6C693E3C6C6920636C6173733D226C696768742D746578742D33223E4C6F PUSH0 DUP3 ADD MSTORE PUSH32 0x636174696F6E3A20554E4B4E4F574E3C2F6C693E3C2F756C3E3C2F74643E0000 PUSH1 0x20 DUP3 ADD MSTORE POP JUMP JUMPDEST PUSH0 PUSH2 0x26C2 PUSH1 0x3E DUP4 PUSH2 0x1C3F JUMP JUMPDEST SWAP2 POP PUSH2 0x26CD DUP3 PUSH2 0x2668 JUMP JUMPDEST PUSH1 0x3E DUP3 ADD SWAP1 POP SWAP2 SWAP1 POP JUMP JUMPDEST PUSH32 0x3C746420616C69676E3D2263656E746572222076616C69676E3D226D6964646C PUSH0 DUP3 ADD MSTORE PUSH32 0x652220636C6173733D226C696768742D6267223E000000000000000000000000 PUSH1 0x20 DUP3 ADD MSTORE POP JUMP JUMPDEST PUSH0 PUSH2 0x2732 PUSH1 0x34 DUP4 PUSH2 0x1C3F JUMP JUMPDEST SWAP2 POP PUSH2 0x273D DUP3 PUSH2 0x26D8 JUMP JUMPDEST PUSH1 0x34 DUP3 ADD SWAP1 POP SWAP2 SWAP1 POP JUMP JUMPDEST PUSH32 0x3C666F6E7420636C6173733D22726567756C61725F74657874223E0000000000 PUSH0 DUP3 ADD MSTORE POP JUMP JUMPDEST PUSH0 PUSH2 0x277C PUSH1 0x1B DUP4 PUSH2 0x1C3F JUMP JUMPDEST SWAP2 POP PUSH2 0x2787 DUP3 PUSH2 0x2748 JUMP JUMPDEST PUSH1 0x1B DUP3 ADD SWAP1 POP SWAP2 SWAP1 POP JUMP JUMPDEST PUSH32 0x3C64697620636C6173733D22706F7374207265706C79223E0000000000000000 PUSH0 DUP3 ADD MSTORE POP JUMP JUMPDEST PUSH0 PUSH2 0x27C6 PUSH1 0x18 DUP4 PUSH2 0x1C3F JUMP JUMPDEST SWAP2 POP PUSH2 0x27D1 DUP3 PUSH2 0x2792 JUMP JUMPDEST PUSH1 0x18 DUP3 ADD SWAP1 POP SWAP2 SWAP1 POP JUMP JUMPDEST PUSH32 0x3C626C6F636B71756F7465207374796C653D2277686974652D73706163653A20 PUSH0 DUP3 ADD MSTORE PUSH32 0x7072652D6C696E653B6D617267696E2D746F703A3070783B2220636C6173733D PUSH1 0x20 DUP3 ADD MSTORE PUSH32 0x22706F73744D657373616765206C696768742D746578742D32222069643D226D PUSH1 0x40 DUP3 ADD MSTORE PUSH32 0x3334303739393833223E3C62723E000000000000000000000000000000000000 PUSH1 0x60 DUP3 ADD MSTORE POP JUMP JUMPDEST PUSH0 PUSH2 0x2882 PUSH1 0x6E DUP4 PUSH2 0x1C3F JUMP JUMPDEST SWAP2 POP PUSH2 0x288D DUP3 PUSH2 0x27DC JUMP JUMPDEST PUSH1 0x6E DUP3 ADD SWAP1 POP SWAP2 SWAP1 POP JUMP JUMPDEST PUSH32 0x3C2F626C6F636B71756F74653E3C2F6469763E3C2F666F6E743E3C2F74643E3C PUSH0 DUP3 ADD MSTORE PUSH32 0x2F74723E00000000000000000000000000000000000000000000000000000000 PUSH1 0x20 DUP3 ADD MSTORE POP JUMP JUMPDEST PUSH0 PUSH2 0x28F2 PUSH1 0x24 DUP4 PUSH2 0x1C3F JUMP JUMPDEST SWAP2 POP PUSH2 0x28FD DUP3 PUSH2 0x2898 JUMP JUMPDEST PUSH1 0x24 DUP3 ADD SWAP1 POP SWAP2 SWAP1 POP JUMP JUMPDEST PUSH0 PUSH2 0x2913 DUP3 DUP11 PUSH2 0x1FA9 JUMP JUMPDEST SWAP2 POP PUSH2 0x291E DUP3 PUSH2 0x2130 JUMP JUMPDEST SWAP2 POP PUSH2 0x2929 DUP3 PUSH2 0x21A0 JUMP JUMPDEST SWAP2 POP PUSH2 0x2934 DUP3 PUSH2 0x21EA JUMP JUMPDEST SWAP2 POP PUSH2 0x293F DUP3 PUSH2 0x225A JUMP JUMPDEST SWAP2 POP PUSH2 0x294B DUP3 DUP10 PUSH2 0x1CB9 JUMP JUMPDEST SWAP2 POP PUSH2 0x2956 DUP3 PUSH2 0x22A4 JUMP JUMPDEST SWAP2 POP PUSH2 0x2961 DUP3 PUSH2 0x22EE JUMP JUMPDEST SWAP2 POP PUSH2 0x296C DUP3 PUSH2 0x235E JUMP JUMPDEST SWAP2 POP PUSH2 0x2977 DUP3 PUSH2 0x23A8 JUMP JUMPDEST SWAP2 POP PUSH2 0x2982 DUP3 PUSH2 0x23F2 JUMP JUMPDEST SWAP2 POP PUSH2 0x298D DUP3 PUSH2 0x2462 JUMP JUMPDEST SWAP2 POP PUSH2 0x2999 DUP3 DUP9 PUSH2 0x1CB9 JUMP JUMPDEST SWAP2 POP PUSH2 0x29A5 DUP3 DUP8 PUSH2 0x1CB9 JUMP JUMPDEST SWAP2 POP PUSH2 0x29B0 DUP3 PUSH2 0x24D2 JUMP JUMPDEST SWAP2 POP PUSH2 0x29BC DUP3 DUP7 PUSH2 0x1CB9 JUMP JUMPDEST SWAP2 POP PUSH2 0x29C7 DUP3 PUSH2 0x251C JUMP JUMPDEST SWAP2 POP PUSH2 0x29D2 DUP3 PUSH2 0x258C JUMP JUMPDEST SWAP2 POP PUSH2 0x29DD DUP3 PUSH2 0x25FC JUMP JUMPDEST SWAP2 POP PUSH2 0x29E8 DUP3 PUSH2 0x2646 JUMP JUMPDEST SWAP2 POP PUSH2 0x29F4 DUP3 DUP6 PUSH2 0x1CB9 JUMP JUMPDEST SWAP2 POP PUSH2 0x29FF DUP3 PUSH2 0x26B6 JUMP JUMPDEST SWAP2 POP PUSH2 0x2A0A DUP3 PUSH2 0x2726 JUMP JUMPDEST SWAP2 POP PUSH2 0x2A15 DUP3 PUSH2 0x2770 JUMP JUMPDEST SWAP2 POP PUSH2 0x2A20 DUP3 PUSH2 0x27BA JUMP JUMPDEST SWAP2 POP PUSH2 0x2A2B DUP3 PUSH2 0x2876 JUMP JUMPDEST SWAP2 POP PUSH2 0x2A37 DUP3 DUP5 PUSH2 0x1CB9 JUMP JUMPDEST SWAP2 POP PUSH2 0x2A42 DUP3 PUSH2 0x28E6 JUMP JUMPDEST SWAP2 POP DUP2 SWAP1 POP SWAP9 SWAP8 POP POP POP POP POP POP POP POP JUMP JUMPDEST PUSH32 0x4E487B7100000000000000000000000000000000000000000000000000000000 PUSH0 MSTORE PUSH1 0x11 PUSH1 0x4 MSTORE PUSH1 0x24 PUSH0 REVERT JUMPDEST PUSH0 PUSH2 0x2A8A DUP3 PUSH2 0x1A40 JUMP JUMPDEST SWAP2 POP PUSH32 0xFFFFFFFFFFFFFFFFFFFFFFFFFFFFFFFFFFFFFFFFFFFFFFFFFFFFFFFFFFFFFFFF DUP3 SUB PUSH2 0x2ABC JUMPI PUSH2 0x2ABB PUSH2 0x2A53 JUMP JUMPDEST JUMPDEST PUSH1 0x1 DUP3 ADD SWAP1 POP SWAP2 SWAP1 POP JUMP JUMPDEST PUSH32 0x4E487B7100000000000000000000000000000000000000000000000000000000 PUSH0 MSTORE PUSH1 0x12 PUSH1 0x4 MSTORE PUSH1 0x24 PUSH0 REVERT JUMPDEST PUSH0 PUSH2 0x2AFE DUP3 PUSH2 0x1A40 JUMP JUMPDEST SWAP2 POP PUSH2 0x2B09 DUP4 PUSH2 0x1A40 JUMP JUMPDEST SWAP3 POP DUP3 PUSH2 0x2B19 JUMPI PUSH2 0x2B18 PUSH2 0x2AC7 JUMP JUMPDEST JUMPDEST DUP3 DUP3 DIV SWAP1 POP SWAP3 SWAP2 POP POP JUMP JUMPDEST PUSH0 PUSH2 0x2B2E DUP3 PUSH2 0x1A40 JUMP JUMPDEST SWAP2 POP PUSH2 0x2B39 DUP4 PUSH2 0x1A40 JUMP JUMPDEST SWAP3 POP DUP3 DUP3 SUB SWAP1 POP DUP2 DUP2 GT ISZERO PUSH2 0x2B51 JUMPI PUSH2 0x2B50 PUSH2 0x2A53 JUMP JUMPDEST JUMPDEST SWAP3 SWAP2 POP POP JUMP JUMPDEST PUSH0 PUSH2 0x2B61 DUP3 PUSH2 0x1A40 JUMP JUMPDEST SWAP2 POP PUSH2 0x2B6C DUP4 PUSH2 0x1A40 JUMP JUMPDEST SWAP3 POP DUP3 PUSH2 0x2B7C JUMPI PUSH2 0x2B7B PUSH2 0x2AC7 JUMP JUMPDEST JUMPDEST DUP3 DUP3 MOD SWAP1 POP SWAP3 SWAP2 POP POP JUMP JUMPDEST PUSH0 PUSH2 0x2B91 DUP3 PUSH2 0x1A40 JUMP JUMPDEST SWAP2 POP PUSH2 0x2B9C DUP4 PUSH2 0x1A40 JUMP JUMPDEST SWAP3 POP DUP3 DUP3 ADD SWAP1 POP DUP1 DUP3 GT ISZERO PUSH2 0x2BB4 JUMPI PUSH2 0x2BB3 PUSH2 0x2A53 JUMP JUMPDEST JUMPDEST SWAP3 SWAP2 POP POP JUMP INVALID LOG2 PUSH5 0x6970667358 0x22 SLT KECCAK256 PUSH17 0x6197936CD88930741C09128DC6C41357E1 MSTORE 0xDC 0xB3 0xA7 0x1F 0xCC MCOPY SWAP4 SWAP9 DUP10 AND 0xA5 SWAP6 PUSH28 0x64736F6C634300081A00330000000000000000000000000000000000 "
		},
		"gasEstimates": {
			"creation": {
				"codeDepositCost": "2249600",
				"executionCost": "infinite",
				"totalCost": "infinite"
			},
			"external": {
				"accessList(address)": "2878",
				"addEntry(string,string,string,string,string)": "infinite",
				"clearEntries()": "infinite",
				"entries(uint256)": "infinite",
				"getAndrewUrl()": "infinite",
				"getEntriesHTML()": "infinite",
				"getEtherscanUrl()": "infinite",
				"getMode()": "infinite",
				"getModeRaw()": "infinite",
				"getTjoUrl()": "infinite",
				"getTotalEntries()": "infinite",
				"grantAccess(address)": "26996",
				"mode()": "infinite",
				"owner()": "2575",
				"revokeAccess(address)": "26994",
				"setAndrewUrl(string)": "infinite",
				"setEtherscanUrl(string)": "infinite",
				"setMode(string)": "infinite",
				"setTjoUrl(string)": "infinite"
			},
			"internal": {
				"uintToString(uint256)": "infinite"
			}
		},
		"methodIdentifiers": {
			"accessList(address)": "87a5b67c",
			"addEntry(string,string,string,string,string)": "57c8be66",
			"clearEntries()": "2214a853",
			"entries(uint256)": "b30906d4",
			"getAndrewUrl()": "9ef96d1f",
			"getEntriesHTML()": "b0a69ab4",
			"getEtherscanUrl()": "72176858",
			"getMode()": "4b4fd03b",
			"getModeRaw()": "c5532468",
			"getTjoUrl()": "0d8550e1",
			"getTotalEntries()": "12d491c9",
			"grantAccess(address)": "0ae5e739",
			"mode()": "295a5212",
			"owner()": "8da5cb5b",
			"revokeAccess(address)": "85e68531",
			"setAndrewUrl(string)": "52baf08f",
			"setEtherscanUrl(string)": "a9c598b9",
			"setMode(string)": "a84fd0ed",
			"setTjoUrl(string)": "c41f0cac"
		}
	},
	"abi": [
		{
			"inputs": [],
			"stateMutability": "nonpayable",
			"type": "constructor"
		},
		{
			"inputs": [
				{
					"internalType": "address",
					"name": "",
					"type": "address"
				}
			],
			"name": "accessList",
			"outputs": [
				{
					"internalType": "bool",
					"name": "",
					"type": "bool"
				}
			],
			"stateMutability": "view",
			"type": "function"
		},
		{
			"inputs": [
				{
					"internalType": "string",
					"name": "_hash",
					"type": "string"
				},
				{
					"internalType": "string",
					"name": "_blockNumber",
					"type": "string"
				},
				{
					"internalType": "string",
					"name": "_timestamp",
					"type": "string"
				},
				{
					"internalType": "string",
					"name": "_text",
					"type": "string"
				},
				{
					"internalType": "string",
					"name": "_formattedTime",
					"type": "string"
				}
			],
			"name": "addEntry",
			"outputs": [],
			"stateMutability": "nonpayable",
			"type": "function"
		},
		{
			"inputs": [],
			"name": "clearEntries",
			"outputs": [],
			"stateMutability": "nonpayable",
			"type": "function"
		},
		{
			"inputs": [
				{
					"internalType": "uint256",
					"name": "",
					"type": "uint256"
				}
			],
			"name": "entries",
			"outputs": [
				{
					"internalType": "string",
					"name": "hash",
					"type": "string"
				},
				{
					"internalType": "string",
					"name": "blockNumber",
					"type": "string"
				},
				{
					"internalType": "string",
					"name": "timestamp",
					"type": "string"
				},
				{
					"internalType": "string",
					"name": "text",
					"type": "string"
				},
				{
					"internalType": "string",
					"name": "formattedTime",
					"type": "string"
				}
			],
			"stateMutability": "view",
			"type": "function"
		},
		{
			"inputs": [],
			"name": "getAndrewUrl",
			"outputs": [
				{
					"internalType": "string",
					"name": "",
					"type": "string"
				}
			],
			"stateMutability": "view",
			"type": "function"
		},
		{
			"inputs": [],
			"name": "getEntriesHTML",
			"outputs": [
				{
					"internalType": "string",
					"name": "",
					"type": "string"
				}
			],
			"stateMutability": "view",
			"type": "function"
		},
		{
			"inputs": [],
			"name": "getEtherscanUrl",
			"outputs": [
				{
					"internalType": "string",
					"name": "",
					"type": "string"
				}
			],
			"stateMutability": "view",
			"type": "function"
		},
		{
			"inputs": [],
			"name": "getMode",
			"outputs": [
				{
					"internalType": "string",
					"name": "",
					"type": "string"
				}
			],
			"stateMutability": "view",
			"type": "function"
		},
		{
			"inputs": [],
			"name": "getModeRaw",
			"outputs": [
				{
					"internalType": "string",
					"name": "",
					"type": "string"
				}
			],
			"stateMutability": "view",
			"type": "function"
		},
		{
			"inputs": [],
			"name": "getTjoUrl",
			"outputs": [
				{
					"internalType": "string",
					"name": "",
					"type": "string"
				}
			],
			"stateMutability": "view",
			"type": "function"
		},
		{
			"inputs": [],
			"name": "getTotalEntries",
			"outputs": [
				{
					"internalType": "string",
					"name": "",
					"type": "string"
				}
			],
			"stateMutability": "view",
			"type": "function"
		},
		{
			"inputs": [
				{
					"internalType": "address",
					"name": "_address",
					"type": "address"
				}
			],
			"name": "grantAccess",
			"outputs": [],
			"stateMutability": "nonpayable",
			"type": "function"
		},
		{
			"inputs": [],
			"name": "mode",
			"outputs": [
				{
					"internalType": "string",
					"name": "",
					"type": "string"
				}
			],
			"stateMutability": "view",
			"type": "function"
		},
		{
			"inputs": [],
			"name": "owner",
			"outputs": [
				{
					"internalType": "address",
					"name": "",
					"type": "address"
				}
			],
			"stateMutability": "view",
			"type": "function"
		},
		{
			"inputs": [
				{
					"internalType": "address",
					"name": "_address",
					"type": "address"
				}
			],
			"name": "revokeAccess",
			"outputs": [],
			"stateMutability": "nonpayable",
			"type": "function"
		},
		{
			"inputs": [
				{
					"internalType": "string",
					"name": "_andrewUrl",
					"type": "string"
				}
			],
			"name": "setAndrewUrl",
			"outputs": [],
			"stateMutability": "nonpayable",
			"type": "function"
		},
		{
			"inputs": [
				{
					"internalType": "string",
					"name": "_etherscanUrl",
					"type": "string"
				}
			],
			"name": "setEtherscanUrl",
			"outputs": [],
			"stateMutability": "nonpayable",
			"type": "function"
		},
		{
			"inputs": [
				{
					"internalType": "string",
					"name": "_mode",
					"type": "string"
				}
			],
			"name": "setMode",
			"outputs": [],
			"stateMutability": "nonpayable",
			"type": "function"
		},
		{
			"inputs": [
				{
					"internalType": "string",
					"name": "_tjoUrl",
					"type": "string"
				}
			],
			"name": "setTjoUrl",
			"outputs": [],
			"stateMutability": "nonpayable",
			"type": "function"
		}
	]
}